{
  "address": "0xbeeC239145b3c461422BC2fC45B78E5fd70862F1",
  "abi": [
    {
      "inputs": [
        {
          "internalType": "address",
          "name": "_owner",
          "type": "address"
        },
        {
          "internalType": "uint256",
          "name": "_fee",
          "type": "uint256"
        },
        {
          "internalType": "address payable",
          "name": "_feeRecipient",
          "type": "address"
        },
        {
          "internalType": "uint256",
          "name": "_bidSettlementPeriod",
          "type": "uint256"
        },
        {
          "internalType": "uint256",
          "name": "_bidRefundPeriod",
          "type": "uint256"
        },
        {
          "internalType": "address[]",
          "name": "_allowedAddresses",
          "type": "address[]"
        }
      ],
      "stateMutability": "nonpayable",
      "type": "constructor"
    },
    {
      "anonymous": false,
      "inputs": [
        {
          "indexed": true,
          "internalType": "address",
          "name": "allowedAddress",
          "type": "address"
        }
      ],
      "name": "AddressAddedToAllowlist",
      "type": "event"
    },
    {
      "anonymous": false,
      "inputs": [
        {
          "indexed": true,
          "internalType": "address",
          "name": "allowedAddress",
          "type": "address"
        }
      ],
      "name": "AddressRemovedFromAllowlist",
      "type": "event"
    },
    {
      "anonymous": false,
      "inputs": [],
      "name": "AllowlistDisabled",
      "type": "event"
    },
    {
      "anonymous": false,
      "inputs": [],
      "name": "AllowlistEnabled",
      "type": "event"
    },
    {
      "anonymous": false,
      "inputs": [
        {
          "indexed": true,
          "internalType": "uint256",
          "name": "bidId",
          "type": "uint256"
        },
        {
          "indexed": true,
          "internalType": "uint256",
          "name": "listingId",
          "type": "uint256"
        },
        {
          "indexed": true,
          "internalType": "address",
          "name": "buyer",
          "type": "address"
        },
        {
          "indexed": false,
          "internalType": "uint256",
          "name": "price",
          "type": "uint256"
        }
      ],
      "name": "BidCreated",
      "type": "event"
    },
    {
      "anonymous": false,
      "inputs": [
        {
          "indexed": true,
          "internalType": "uint256",
          "name": "bidId",
          "type": "uint256"
        },
        {
          "indexed": true,
          "internalType": "address",
          "name": "buyer",
          "type": "address"
        },
        {
          "indexed": false,
          "internalType": "uint256",
          "name": "newPrice",
          "type": "uint256"
        }
      ],
      "name": "BidPriceIncreased",
      "type": "event"
    },
    {
      "anonymous": false,
      "inputs": [
        {
          "indexed": false,
          "internalType": "uint256",
          "name": "newBidRefundPeriod",
          "type": "uint256"
        }
      ],
      "name": "BidRefundPeriodUpdated",
      "type": "event"
    },
    {
      "anonymous": false,
      "inputs": [
        {
          "indexed": false,
          "internalType": "uint256",
          "name": "newBidSettlementPeriod",
          "type": "uint256"
        }
      ],
      "name": "BidSettlementPeriodUpdated",
      "type": "event"
    },
    {
      "anonymous": false,
      "inputs": [
        {
          "indexed": true,
          "internalType": "uint256",
          "name": "bidId",
          "type": "uint256"
        },
        {
          "indexed": true,
          "internalType": "address",
          "name": "buyer",
          "type": "address"
        },
        {
          "indexed": false,
          "internalType": "uint256",
          "name": "amount",
          "type": "uint256"
        }
      ],
      "name": "BidWithdrawn",
      "type": "event"
    },
    {
      "anonymous": false,
      "inputs": [
        {
          "indexed": true,
          "internalType": "address",
          "name": "newFeeRecipient",
          "type": "address"
        }
      ],
      "name": "FeeRecipientUpdated",
      "type": "event"
    },
    {
      "anonymous": false,
      "inputs": [
        {
          "indexed": false,
          "internalType": "uint256",
          "name": "newFee",
          "type": "uint256"
        }
      ],
      "name": "FeeUpdated",
      "type": "event"
    },
    {
      "anonymous": false,
      "inputs": [
        {
          "indexed": true,
          "internalType": "address",
          "name": "buyer",
          "type": "address"
        },
        {
          "indexed": false,
          "internalType": "bool",
          "name": "instantAccept",
          "type": "bool"
        }
      ],
      "name": "InstantAcceptUpdated",
      "type": "event"
    },
    {
      "anonymous": false,
      "inputs": [
        {
          "indexed": true,
          "internalType": "uint256",
          "name": "listingId",
          "type": "uint256"
        },
        {
          "indexed": true,
          "internalType": "address",
          "name": "seller",
          "type": "address"
        },
        {
          "indexed": true,
          "internalType": "bytes32",
          "name": "domainId",
          "type": "bytes32"
        },
        {
          "indexed": false,
          "internalType": "bytes32",
          "name": "dkimKeyHash",
          "type": "bytes32"
        },
        {
          "indexed": false,
          "internalType": "uint256",
          "name": "askPrice",
          "type": "uint256"
        },
        {
          "indexed": false,
          "internalType": "uint256",
          "name": "minBidPrice",
          "type": "uint256"
        },
        {
          "indexed": false,
          "internalType": "address",
          "name": "saleEthRecipient",
          "type": "address"
        }
      ],
      "name": "ListingCreated",
      "type": "event"
    },
    {
      "anonymous": false,
      "inputs": [
        {
          "indexed": true,
          "internalType": "uint256",
          "name": "listingId",
          "type": "uint256"
        },
        {
          "indexed": true,
          "internalType": "address",
          "name": "seller",
          "type": "address"
        }
      ],
      "name": "ListingDeleted",
      "type": "event"
    },
    {
      "anonymous": false,
      "inputs": [
        {
          "indexed": true,
          "internalType": "uint256",
          "name": "listingId",
          "type": "uint256"
        },
        {
          "indexed": true,
          "internalType": "address",
          "name": "seller",
          "type": "address"
        },
        {
          "indexed": false,
          "internalType": "uint256",
          "name": "newAskPrice",
          "type": "uint256"
        },
        {
          "indexed": false,
          "internalType": "address",
          "name": "saleEthRecipient",
          "type": "address"
        }
      ],
      "name": "ListingUpdated",
      "type": "event"
    },
    {
      "anonymous": false,
      "inputs": [
        {
          "indexed": true,
          "internalType": "contract IKeyHashAdapterV2",
          "name": "newMailServerKeyHashAdapter",
          "type": "address"
        }
      ],
      "name": "MailServerKeyHashAdapterUpdated",
      "type": "event"
    },
    {
      "anonymous": false,
      "inputs": [
        {
          "indexed": true,
          "internalType": "address",
          "name": "previousOwner",
          "type": "address"
        },
        {
          "indexed": true,
          "internalType": "address",
          "name": "newOwner",
          "type": "address"
        }
      ],
      "name": "OwnershipTransferred",
      "type": "event"
    },
    {
      "anonymous": false,
      "inputs": [
        {
          "indexed": false,
          "internalType": "address",
          "name": "account",
          "type": "address"
        }
      ],
      "name": "Paused",
      "type": "event"
    },
    {
      "anonymous": false,
      "inputs": [
        {
          "indexed": true,
          "internalType": "uint256",
          "name": "bidId",
          "type": "uint256"
        },
        {
          "indexed": true,
          "internalType": "address",
          "name": "buyer",
          "type": "address"
        }
      ],
      "name": "RefundInitiated",
      "type": "event"
    },
    {
      "anonymous": false,
      "inputs": [
        {
          "indexed": true,
          "internalType": "uint256",
          "name": "bidId",
          "type": "uint256"
        },
        {
          "indexed": true,
          "internalType": "uint256",
          "name": "listingId",
          "type": "uint256"
        },
        {
          "indexed": false,
          "internalType": "uint256",
          "name": "priceNetFees",
          "type": "uint256"
        },
        {
          "indexed": false,
          "internalType": "uint256",
          "name": "fees",
          "type": "uint256"
        }
      ],
      "name": "SaleFinalized",
      "type": "event"
    },
    {
      "anonymous": false,
      "inputs": [
        {
          "indexed": true,
          "internalType": "contract ITransferDomainProcessor",
          "name": "newTransferDomainProcessor",
          "type": "address"
        }
      ],
      "name": "TransferDomainProcessorUpdated",
      "type": "event"
    },
    {
      "anonymous": false,
      "inputs": [
        {
          "indexed": false,
          "internalType": "address",
          "name": "account",
          "type": "address"
        }
      ],
      "name": "Unpaused",
      "type": "event"
    },
    {
      "inputs": [
        {
          "internalType": "address[]",
          "name": "_allowedAddresses",
          "type": "address[]"
        }
      ],
      "name": "addAddressesToAllowlist",
      "outputs": [],
      "stateMutability": "nonpayable",
      "type": "function"
    },
    {
      "inputs": [
        {
          "internalType": "uint256",
          "name": "",
          "type": "uint256"
        }
      ],
      "name": "allowedAddresses",
      "outputs": [
        {
          "internalType": "address",
          "name": "",
          "type": "address"
        }
      ],
      "stateMutability": "view",
      "type": "function"
    },
    {
      "inputs": [],
      "name": "bidCounter",
      "outputs": [
        {
          "internalType": "uint256",
          "name": "",
          "type": "uint256"
        }
      ],
      "stateMutability": "view",
      "type": "function"
    },
    {
      "inputs": [],
      "name": "bidRefundPeriod",
      "outputs": [
        {
          "internalType": "uint256",
          "name": "",
          "type": "uint256"
        }
      ],
      "stateMutability": "view",
      "type": "function"
    },
    {
      "inputs": [],
      "name": "bidSettlementPeriod",
      "outputs": [
        {
          "internalType": "uint256",
          "name": "",
          "type": "uint256"
        }
      ],
      "stateMutability": "view",
      "type": "function"
    },
    {
      "inputs": [
        {
          "internalType": "uint256",
          "name": "",
          "type": "uint256"
        }
      ],
      "name": "bids",
      "outputs": [
        {
          "internalType": "address",
          "name": "buyer",
          "type": "address"
        },
        {
          "internalType": "uint256",
          "name": "listingId",
          "type": "uint256"
        },
        {
          "internalType": "string",
          "name": "encryptedBuyerId",
          "type": "string"
        },
        {
          "internalType": "bytes32",
          "name": "buyerIdHash",
          "type": "bytes32"
        },
        {
          "internalType": "uint256",
          "name": "createdAt",
          "type": "uint256"
        },
        {
          "internalType": "uint256",
          "name": "expiryTimestamp",
          "type": "uint256"
        },
        {
          "internalType": "uint256",
          "name": "price",
          "type": "uint256"
        },
        {
          "internalType": "bool",
          "name": "refundInitiated",
          "type": "bool"
        }
      ],
      "stateMutability": "view",
      "type": "function"
    },
    {
      "inputs": [
        {
          "internalType": "uint256",
          "name": "_bidId",
          "type": "uint256"
        }
      ],
      "name": "buyerReleaseFunds",
      "outputs": [],
      "stateMutability": "nonpayable",
      "type": "function"
    },
    {
      "inputs": [
        {
          "internalType": "uint256",
          "name": "_listingId",
          "type": "uint256"
        },
        {
          "internalType": "bytes32",
          "name": "_buyerIdHash",
          "type": "bytes32"
        },
        {
          "internalType": "string",
          "name": "_encryptedBuyerId",
          "type": "string"
        }
      ],
      "name": "createBid",
      "outputs": [],
      "stateMutability": "payable",
      "type": "function"
    },
    {
      "inputs": [
        {
          "internalType": "bytes32",
          "name": "_domainId",
          "type": "bytes32"
        },
        {
          "internalType": "uint256",
          "name": "_askPrice",
          "type": "uint256"
        },
        {
          "internalType": "uint256",
          "name": "_minBidPrice",
          "type": "uint256"
        },
        {
          "internalType": "address payable",
          "name": "_saleEthRecipient",
          "type": "address"
        },
        {
          "internalType": "bytes",
          "name": "_encryptionKey",
          "type": "bytes"
        },
        {
          "internalType": "bytes32",
          "name": "_dkimKeyHash",
          "type": "bytes32"
        }
      ],
      "name": "createListing",
      "outputs": [],
      "stateMutability": "nonpayable",
      "type": "function"
    },
    {
      "inputs": [
        {
          "internalType": "uint256",
          "name": "_listingId",
          "type": "uint256"
        }
      ],
      "name": "deleteListing",
      "outputs": [],
      "stateMutability": "nonpayable",
      "type": "function"
    },
    {
      "inputs": [],
      "name": "disableAllowlist",
      "outputs": [],
      "stateMutability": "nonpayable",
      "type": "function"
    },
    {
      "inputs": [],
      "name": "disableInstantAccept",
      "outputs": [],
      "stateMutability": "nonpayable",
      "type": "function"
    },
    {
      "inputs": [
        {
          "internalType": "bytes32",
          "name": "",
          "type": "bytes32"
        }
      ],
      "name": "domainListing",
      "outputs": [
        {
          "internalType": "uint256",
          "name": "",
          "type": "uint256"
        }
      ],
      "stateMutability": "view",
      "type": "function"
    },
    {
      "inputs": [],
      "name": "enableAllowlist",
      "outputs": [],
      "stateMutability": "nonpayable",
      "type": "function"
    },
    {
      "inputs": [],
      "name": "enableInstantAccept",
      "outputs": [],
      "stateMutability": "nonpayable",
      "type": "function"
    },
    {
      "inputs": [],
      "name": "fee",
      "outputs": [
        {
          "internalType": "uint256",
          "name": "",
          "type": "uint256"
        }
      ],
      "stateMutability": "view",
      "type": "function"
    },
    {
      "inputs": [],
      "name": "feeRecipient",
      "outputs": [
        {
          "internalType": "address payable",
          "name": "",
          "type": "address"
        }
      ],
      "stateMutability": "view",
      "type": "function"
    },
    {
      "inputs": [
        {
          "components": [
            {
              "internalType": "uint256[2]",
              "name": "a",
              "type": "uint256[2]"
            },
            {
              "internalType": "uint256[2][2]",
              "name": "b",
              "type": "uint256[2][2]"
            },
            {
              "internalType": "uint256[2]",
              "name": "c",
              "type": "uint256[2]"
            },
            {
              "internalType": "uint256[10]",
              "name": "signals",
              "type": "uint256[10]"
            }
          ],
          "internalType": "struct ITransferDomainProcessor.TransferProof",
          "name": "_proof",
          "type": "tuple"
        }
      ],
      "name": "finalizeSale",
      "outputs": [],
      "stateMutability": "nonpayable",
      "type": "function"
    },
    {
      "inputs": [],
      "name": "getAllowedSellers",
      "outputs": [
        {
          "internalType": "address[]",
          "name": "",
          "type": "address[]"
        }
      ],
      "stateMutability": "view",
      "type": "function"
    },
    {
      "inputs": [
        {
          "internalType": "bytes32",
          "name": "_domainId",
          "type": "bytes32"
        }
      ],
      "name": "getDomainListing",
      "outputs": [
        {
          "components": [
            {
              "internalType": "uint256",
              "name": "listingId",
              "type": "uint256"
            },
            {
              "components": [
                {
                  "internalType": "address",
                  "name": "seller",
                  "type": "address"
                },
                {
                  "internalType": "address payable",
                  "name": "saleEthRecipient",
                  "type": "address"
                },
                {
                  "internalType": "bytes32",
                  "name": "dkimKeyHash",
                  "type": "bytes32"
                },
                {
                  "internalType": "bytes",
                  "name": "encryptionKey",
                  "type": "bytes"
                },
                {
                  "internalType": "bytes32",
                  "name": "domainId",
                  "type": "bytes32"
                },
                {
                  "internalType": "uint256",
                  "name": "createdAt",
                  "type": "uint256"
                },
                {
                  "internalType": "uint256",
                  "name": "askPrice",
                  "type": "uint256"
                },
                {
                  "internalType": "uint256",
                  "name": "minBidPrice",
                  "type": "uint256"
                },
                {
                  "internalType": "bool",
                  "name": "isActive",
                  "type": "bool"
                },
                {
                  "internalType": "uint256[]",
                  "name": "bids",
                  "type": "uint256[]"
                }
              ],
              "internalType": "struct DomainExchange.Listing",
              "name": "listing",
              "type": "tuple"
            }
          ],
          "internalType": "struct DomainExchange.ListingWithId",
          "name": "",
          "type": "tuple"
        }
      ],
      "stateMutability": "view",
      "type": "function"
    },
    {
      "inputs": [
        {
          "internalType": "uint256[]",
          "name": "_listingIds",
          "type": "uint256[]"
        }
      ],
      "name": "getListingBids",
      "outputs": [
        {
          "components": [
            {
              "internalType": "uint256",
              "name": "bidId",
              "type": "uint256"
            },
            {
              "components": [
                {
                  "internalType": "address",
                  "name": "buyer",
                  "type": "address"
                },
                {
                  "internalType": "uint256",
                  "name": "listingId",
                  "type": "uint256"
                },
                {
                  "internalType": "string",
                  "name": "encryptedBuyerId",
                  "type": "string"
                },
                {
                  "internalType": "bytes32",
                  "name": "buyerIdHash",
                  "type": "bytes32"
                },
                {
                  "internalType": "uint256",
                  "name": "createdAt",
                  "type": "uint256"
                },
                {
                  "internalType": "uint256",
                  "name": "expiryTimestamp",
                  "type": "uint256"
                },
                {
                  "internalType": "uint256",
                  "name": "price",
                  "type": "uint256"
                },
                {
                  "internalType": "bool",
                  "name": "refundInitiated",
                  "type": "bool"
                }
              ],
              "internalType": "struct DomainExchange.Bid",
              "name": "bid",
              "type": "tuple"
            },
            {
              "internalType": "bool",
              "name": "buyerInstantAcceptEnabled",
              "type": "bool"
            }
          ],
          "internalType": "struct DomainExchange.BidDetailsWithId[][]",
          "name": "bidInfo",
          "type": "tuple[][]"
        }
      ],
      "stateMutability": "view",
      "type": "function"
    },
    {
      "inputs": [
        {
          "internalType": "uint256[]",
          "name": "_listingIds",
          "type": "uint256[]"
        }
      ],
      "name": "getListings",
      "outputs": [
        {
          "components": [
            {
              "internalType": "uint256",
              "name": "listingId",
              "type": "uint256"
            },
            {
              "components": [
                {
                  "internalType": "address",
                  "name": "seller",
                  "type": "address"
                },
                {
                  "internalType": "address payable",
                  "name": "saleEthRecipient",
                  "type": "address"
                },
                {
                  "internalType": "bytes32",
                  "name": "dkimKeyHash",
                  "type": "bytes32"
                },
                {
                  "internalType": "bytes",
                  "name": "encryptionKey",
                  "type": "bytes"
                },
                {
                  "internalType": "bytes32",
                  "name": "domainId",
                  "type": "bytes32"
                },
                {
                  "internalType": "uint256",
                  "name": "createdAt",
                  "type": "uint256"
                },
                {
                  "internalType": "uint256",
                  "name": "askPrice",
                  "type": "uint256"
                },
                {
                  "internalType": "uint256",
                  "name": "minBidPrice",
                  "type": "uint256"
                },
                {
                  "internalType": "bool",
                  "name": "isActive",
                  "type": "bool"
                },
                {
                  "internalType": "uint256[]",
                  "name": "bids",
                  "type": "uint256[]"
                }
              ],
              "internalType": "struct DomainExchange.Listing",
              "name": "listing",
              "type": "tuple"
            }
          ],
          "internalType": "struct DomainExchange.ListingWithId[]",
          "name": "listingInfo",
          "type": "tuple[]"
        }
      ],
      "stateMutability": "view",
      "type": "function"
    },
    {
      "inputs": [
        {
          "internalType": "address",
          "name": "_user",
          "type": "address"
        }
      ],
      "name": "getUserBids",
      "outputs": [
        {
          "components": [
            {
              "internalType": "uint256",
              "name": "bidId",
              "type": "uint256"
            },
            {
              "components": [
                {
                  "internalType": "address",
                  "name": "buyer",
                  "type": "address"
                },
                {
                  "internalType": "uint256",
                  "name": "listingId",
                  "type": "uint256"
                },
                {
                  "internalType": "string",
                  "name": "encryptedBuyerId",
                  "type": "string"
                },
                {
                  "internalType": "bytes32",
                  "name": "buyerIdHash",
                  "type": "bytes32"
                },
                {
                  "internalType": "uint256",
                  "name": "createdAt",
                  "type": "uint256"
                },
                {
                  "internalType": "uint256",
                  "name": "expiryTimestamp",
                  "type": "uint256"
                },
                {
                  "internalType": "uint256",
                  "name": "price",
                  "type": "uint256"
                },
                {
                  "internalType": "bool",
                  "name": "refundInitiated",
                  "type": "bool"
                }
              ],
              "internalType": "struct DomainExchange.Bid",
              "name": "bid",
              "type": "tuple"
            },
            {
              "internalType": "bool",
              "name": "buyerInstantAcceptEnabled",
              "type": "bool"
            }
          ],
          "internalType": "struct DomainExchange.BidDetailsWithId[]",
          "name": "bidInfo",
          "type": "tuple[]"
        }
      ],
      "stateMutability": "view",
      "type": "function"
    },
    {
      "inputs": [
        {
          "internalType": "address",
          "name": "_user",
          "type": "address"
        }
      ],
      "name": "getUserListings",
      "outputs": [
        {
          "components": [
            {
              "internalType": "uint256",
              "name": "listingId",
              "type": "uint256"
            },
            {
              "components": [
                {
                  "internalType": "address",
                  "name": "seller",
                  "type": "address"
                },
                {
                  "internalType": "address payable",
                  "name": "saleEthRecipient",
                  "type": "address"
                },
                {
                  "internalType": "bytes32",
                  "name": "dkimKeyHash",
                  "type": "bytes32"
                },
                {
                  "internalType": "bytes",
                  "name": "encryptionKey",
                  "type": "bytes"
                },
                {
                  "internalType": "bytes32",
                  "name": "domainId",
                  "type": "bytes32"
                },
                {
                  "internalType": "uint256",
                  "name": "createdAt",
                  "type": "uint256"
                },
                {
                  "internalType": "uint256",
                  "name": "askPrice",
                  "type": "uint256"
                },
                {
                  "internalType": "uint256",
                  "name": "minBidPrice",
                  "type": "uint256"
                },
                {
                  "internalType": "bool",
                  "name": "isActive",
                  "type": "bool"
                },
                {
                  "internalType": "uint256[]",
                  "name": "bids",
                  "type": "uint256[]"
                }
              ],
              "internalType": "struct DomainExchange.Listing",
              "name": "listing",
              "type": "tuple"
            }
          ],
          "internalType": "struct DomainExchange.ListingWithId[]",
          "name": "listingInfo",
          "type": "tuple[]"
        }
      ],
      "stateMutability": "view",
      "type": "function"
    },
    {
      "inputs": [
        {
          "internalType": "uint256",
          "name": "_bidId",
          "type": "uint256"
        },
        {
          "internalType": "uint256",
          "name": "_newPrice",
          "type": "uint256"
        }
      ],
      "name": "increaseBidPrice",
      "outputs": [],
      "stateMutability": "payable",
      "type": "function"
    },
    {
      "inputs": [
        {
          "internalType": "contract ITransferDomainProcessor",
          "name": "_transferDomainProcessor",
          "type": "address"
        },
        {
          "internalType": "contract IVerifiedDomainRegistry",
          "name": "_verifiedDomainRegistry",
          "type": "address"
        },
        {
          "internalType": "contract IKeyHashAdapterV2",
          "name": "_mailServerKeyHashAdapter",
          "type": "address"
        }
      ],
      "name": "initialize",
      "outputs": [],
      "stateMutability": "nonpayable",
      "type": "function"
    },
    {
      "inputs": [
        {
          "internalType": "uint256",
          "name": "_bidId",
          "type": "uint256"
        }
      ],
      "name": "initiateRefund",
      "outputs": [],
      "stateMutability": "nonpayable",
      "type": "function"
    },
    {
      "inputs": [
        {
          "internalType": "address",
          "name": "",
          "type": "address"
        }
      ],
      "name": "instantAcceptEnabled",
      "outputs": [
        {
          "internalType": "bool",
          "name": "",
          "type": "bool"
        }
      ],
      "stateMutability": "view",
      "type": "function"
    },
    {
      "inputs": [
        {
          "internalType": "address",
          "name": "",
          "type": "address"
        }
      ],
      "name": "isAllowed",
      "outputs": [
        {
          "internalType": "bool",
          "name": "",
          "type": "bool"
        }
      ],
      "stateMutability": "view",
      "type": "function"
    },
    {
      "inputs": [],
      "name": "isEnabled",
      "outputs": [
        {
          "internalType": "bool",
          "name": "",
          "type": "bool"
        }
      ],
      "stateMutability": "view",
      "type": "function"
    },
    {
      "inputs": [],
      "name": "isInitialized",
      "outputs": [
        {
          "internalType": "bool",
          "name": "",
          "type": "bool"
        }
      ],
      "stateMutability": "view",
      "type": "function"
    },
    {
      "inputs": [],
      "name": "listingCounter",
      "outputs": [
        {
          "internalType": "uint256",
          "name": "",
          "type": "uint256"
        }
      ],
      "stateMutability": "view",
      "type": "function"
    },
    {
      "inputs": [
        {
          "internalType": "uint256",
          "name": "",
          "type": "uint256"
        }
      ],
      "name": "listings",
      "outputs": [
        {
          "internalType": "address",
          "name": "seller",
          "type": "address"
        },
        {
          "internalType": "address payable",
          "name": "saleEthRecipient",
          "type": "address"
        },
        {
          "internalType": "bytes32",
          "name": "dkimKeyHash",
          "type": "bytes32"
        },
        {
          "internalType": "bytes",
          "name": "encryptionKey",
          "type": "bytes"
        },
        {
          "internalType": "bytes32",
          "name": "domainId",
          "type": "bytes32"
        },
        {
          "internalType": "uint256",
          "name": "createdAt",
          "type": "uint256"
        },
        {
          "internalType": "uint256",
          "name": "askPrice",
          "type": "uint256"
        },
        {
          "internalType": "uint256",
          "name": "minBidPrice",
          "type": "uint256"
        },
        {
          "internalType": "bool",
          "name": "isActive",
          "type": "bool"
        }
      ],
      "stateMutability": "view",
      "type": "function"
    },
    {
      "inputs": [],
      "name": "mailServerKeyHashAdapter",
      "outputs": [
        {
          "internalType": "contract IKeyHashAdapterV2",
          "name": "",
          "type": "address"
        }
      ],
      "stateMutability": "view",
      "type": "function"
    },
    {
      "inputs": [],
      "name": "owner",
      "outputs": [
        {
          "internalType": "address",
          "name": "",
          "type": "address"
        }
      ],
      "stateMutability": "view",
      "type": "function"
    },
    {
      "inputs": [],
      "name": "pauseMarketplace",
      "outputs": [],
      "stateMutability": "nonpayable",
      "type": "function"
    },
    {
      "inputs": [],
      "name": "paused",
      "outputs": [
        {
          "internalType": "bool",
          "name": "",
          "type": "bool"
        }
      ],
      "stateMutability": "view",
      "type": "function"
    },
    {
      "inputs": [
        {
          "internalType": "address[]",
          "name": "_disallowedAddresses",
          "type": "address[]"
        }
      ],
      "name": "removeAddressesFromAllowlist",
      "outputs": [],
      "stateMutability": "nonpayable",
      "type": "function"
    },
    {
      "inputs": [],
      "name": "renounceOwnership",
      "outputs": [],
      "stateMutability": "nonpayable",
      "type": "function"
    },
    {
      "inputs": [],
      "name": "transferDomainProcessor",
      "outputs": [
        {
          "internalType": "contract ITransferDomainProcessor",
          "name": "",
          "type": "address"
        }
      ],
      "stateMutability": "view",
      "type": "function"
    },
    {
      "inputs": [
        {
          "internalType": "address",
          "name": "newOwner",
          "type": "address"
        }
      ],
      "name": "transferOwnership",
      "outputs": [],
      "stateMutability": "nonpayable",
      "type": "function"
    },
    {
      "inputs": [],
      "name": "unpauseMarketplace",
      "outputs": [],
      "stateMutability": "nonpayable",
      "type": "function"
    },
    {
      "inputs": [
        {
          "internalType": "uint256",
          "name": "_newBidRefundPeriod",
          "type": "uint256"
        }
      ],
      "name": "updateBidRefundPeriod",
      "outputs": [],
      "stateMutability": "nonpayable",
      "type": "function"
    },
    {
      "inputs": [
        {
          "internalType": "uint256",
          "name": "_newBidSettlementPeriod",
          "type": "uint256"
        }
      ],
      "name": "updateBidSettlementPeriod",
      "outputs": [],
      "stateMutability": "nonpayable",
      "type": "function"
    },
    {
      "inputs": [
        {
          "internalType": "uint256",
          "name": "_newFee",
          "type": "uint256"
        }
      ],
      "name": "updateFee",
      "outputs": [],
      "stateMutability": "nonpayable",
      "type": "function"
    },
    {
      "inputs": [
        {
          "internalType": "address payable",
          "name": "_newFeeRecipient",
          "type": "address"
        }
      ],
      "name": "updateFeeRecipient",
      "outputs": [],
      "stateMutability": "nonpayable",
      "type": "function"
    },
    {
      "inputs": [
        {
          "internalType": "uint256",
          "name": "_listingId",
          "type": "uint256"
        },
        {
          "internalType": "uint256",
          "name": "_newAskPrice",
          "type": "uint256"
        },
        {
          "internalType": "address payable",
          "name": "_saleEthRecipient",
          "type": "address"
        }
      ],
      "name": "updateListing",
      "outputs": [],
      "stateMutability": "nonpayable",
      "type": "function"
    },
    {
      "inputs": [
        {
          "internalType": "contract IKeyHashAdapterV2",
          "name": "_mailServerKeyHashAdapter",
          "type": "address"
        }
      ],
      "name": "updateMailServerKeyHashAdapter",
      "outputs": [],
      "stateMutability": "nonpayable",
      "type": "function"
    },
    {
      "inputs": [
        {
          "internalType": "contract ITransferDomainProcessor",
          "name": "_transferDomainProcessor",
          "type": "address"
        }
      ],
      "name": "updateTransferDomainProcessor",
      "outputs": [],
      "stateMutability": "nonpayable",
      "type": "function"
    },
    {
      "inputs": [
        {
          "internalType": "address",
          "name": "",
          "type": "address"
        },
        {
          "internalType": "uint256",
          "name": "",
          "type": "uint256"
        }
      ],
      "name": "userBids",
      "outputs": [
        {
          "internalType": "uint256",
          "name": "",
          "type": "uint256"
        }
      ],
      "stateMutability": "view",
      "type": "function"
    },
    {
      "inputs": [
        {
          "internalType": "address",
          "name": "",
          "type": "address"
        },
        {
          "internalType": "uint256",
          "name": "",
          "type": "uint256"
        }
      ],
      "name": "userListings",
      "outputs": [
        {
          "internalType": "uint256",
          "name": "",
          "type": "uint256"
        }
      ],
      "stateMutability": "view",
      "type": "function"
    },
    {
      "inputs": [],
      "name": "verifiedDomainRegistry",
      "outputs": [
        {
          "internalType": "contract IVerifiedDomainRegistry",
          "name": "",
          "type": "address"
        }
      ],
      "stateMutability": "view",
      "type": "function"
    },
    {
      "inputs": [
        {
          "internalType": "uint256",
          "name": "_bidId",
          "type": "uint256"
        }
      ],
      "name": "withdrawBid",
      "outputs": [],
      "stateMutability": "nonpayable",
      "type": "function"
    }
  ],
  "transactionHash": "0x2bf65da1b30c5b784350e5431217fecc967cabe586878667b08fad24ca288e0e",
  "args": [
    "0x84e113087C97Cd80eA9D78983D4B8Ff61ECa1929",
    "25000000000000000",
    "0x84e113087C97Cd80eA9D78983D4B8Ff61ECa1929",
    "180",
    "180",
    []
  ],
  "numDeployments": 1,
  "solcInputHash": "94f2ab4a7d0631bb0f005df865d91ba9",
  "bytecode": "0x60806040523462000037576200002562000018620001e5565b94939093929192620002cd565b60405161525f62000893823961525f90f35b600080fd5b634e487b7160e01b600052604160045260246000fd5b90601f01601f191681019081106001600160401b038211176200007457604052565b6200003c565b90620000916200008960405190565b928362000052565b565b6001600160a01b031690565b90565b6001600160a01b0381165b036200003757565b905051906200009182620000a2565b80620000ad565b905051906200009182620000c4565b6001600160401b038111620000745760208091020190565b909291926200010b6200010582620000da565b6200007a565b93818552602080860192028301928184116200003757915b838310620001315750505050565b60208091620001418486620000b5565b81520192019162000123565b9080601f83011215620000375781516200009f92602001620000f2565b91909160c0818403126200003757620001848382620000b5565b92620001948160208401620000cb565b92604090620001a683838601620000b5565b93620001b68460608301620000cb565b93620001c68160808401620000cb565b9360018060a0850151921b03811162000037576200009f92016200014d565b6200020862005af280380380620001fc816200007a565b9283398101906200016a565b909192939495565b90600019905b9181191691161790565b6200009f6200009f6200009f9290565b90620002446200009f6200024c9262000220565b825462000210565b9055565b906001600160a01b039062000216565b6200009f9062000093906001600160a01b031682565b6200009f9062000260565b6200009f9062000276565b90620002a06200009f6200024c9262000281565b825462000250565b9060ff9062000216565b90620002c56200009f6200024c92151590565b8254620002a8565b939192620003016200031194620002f96200030994620002f1620000919a6200034a565b600b62000230565b600c6200028c565b600f62000230565b601062000230565b6200033662000321600162000220565b6200032e81600d62000230565b600e62000230565b6200034460006011620002b2565b6200077f565b62000355906200036f565b6200009160006004620002b2565b6200009f600162000220565b6200037a90620005c2565b620000916200038862000363565b600362000230565b634e487b7160e01b600052601160045260246000fd5b6000198114620003b65760010190565b62000390565b634e487b7160e01b600052603260045260246000fd5b90620003dc825190565b811015620003ee576020809102010190565b620003bc565b90620004009062000281565b600052602052604060002090565b156200041657565b60405162461bcd60e51b815260206004820152601a60248201527f4164647265737320697320616c726561647920616c6c6f7765640000000000006044820152606490fd5b0390fd5b9160001960089290920291821b911b62000216565b9190620004896200009f6200024c9362000220565b9083546200045f565b620000919160009162000474565b818110620004ac575050565b80620004bc600060019362000492565b01620004a0565b9091828110620004d257505050565b620000919290620004ea905b92600052602060002090565b9081019101620004a0565b906801000000000000000081116200007457816200051562000091935490565b90828155620004c3565b8151916001600160401b03831162000074576200054e620004de600192620005488686620004f5565b60200190565b92049160005b838110620005625750505050565b60019060206200057d6200009f86516001600160a01b031690565b940193818401550162000554565b9062000091916200051f565b9060ff60a01b9060a01b62000216565b90620005ba6200009f6200024c92151590565b825462000597565b620005cc620006b7565b600091620005da8362000220565b620005e76200009f845190565b8110156200069b57806200061162000604620006959386620003d2565b516001600160a01b031690565b620006546002620006406200063a620006366200062f8685620003f4565b5460ff1690565b1590565b6200040e565b6200064e83600192620003f4565b620002b2565b620006807f41f4a012571b6bf21f3c6557be5d1a28851ce415203203b84c14099b84fe97379162000281565b906200068b60405190565b600090a2620003a6565b620005da565b5091620006ae620000919260016200058b565b600190620005a7565b620000913362000830565b62000830565b6200009190620006d7620007dc565b62000754565b620000936200009f6200009f9290565b6200009f90620006dd565b156200070057565b60405162461bcd60e51b815260206004820152602660248201527f4f776e61626c653a206e6577206f776e657220697320746865207a65726f206160448201526564647265737360d01b6064820152608490fd5b6200009190620006c26200076d620000936000620006ed565b6001600160a01b0383161415620006f8565b6200009190620006c8565b156200079257565b60405162461bcd60e51b8152806200045b600482016020808252818101527f4f776e61626c653a2063616c6c6572206973206e6f7420746865206f776e6572604082015260600190565b62000091620007ea62000824565b62000806620007f93362000093565b916001600160a01b031690565b146200078a565b6200009f9062000093565b6200009f90546200080d565b6200009f600062000818565b6200083c600062000818565b906200084a8160006200028c565b620008816200087a7f8be0079c531659141344cd1fd0a4f28419497f9722a3daafe3b4186f6b6457e09362000281565b9162000281565b916200088c60405190565b600090a356fe6080604052600436101561001257600080fd5b60003560e01c80630373c0bf1461036257806303f693541461035d5780630d81539c146103585780630eaaf4c8146103535780630f2bc8b31461034e578063175046d9146103495780631ce59f811461034457806321f67fbb1461033f5780632ac44f121461033a5780632f437bd4146103355780632f6db23814610330578063392e53cd1461032b5780633ec62279146103265780634423c5f114610321578063469048401461031c5780634f20fe5d146103175780635c975abb1461031257806364b55bed1461030d5780636759789f146103085780636aa633b6146103035780636c2c9c7d146102fe5780636caacbe7146102f9578063715018a6146102f45780637e064092146102ef5780637e7a9c6c146102ea5780637f17caa7146102e557806381c14314146102e057806386cfa7d3146102db57806387547367146102d6578063887f495a146102d15780638da5cb5b146102cc5780639012c4a8146102c7578063944b8b2e146102c257806396ec50c3146102bd5780639d8717a8146102b8578063a15ce280146102b3578063a8ef333f146102ae578063ad928763146102a9578063babcc539146102a4578063bb46acd31461029f578063bca0b9101461029a578063c0c53b8b14610295578063c6a2aac814610290578063cf8e629a1461028b578063ddca3f4314610286578063de74e57b14610281578063e38df96d1461027c578063e6282c6e14610277578063eb18a9d814610272578063f15851e61461026d578063f160d36914610268578063f2fde38b146102635763f6cda469036103db5761175e565b611746565b61172e565b611716565b6116fb565b6116e3565b6116c8565b611685565b6114df565b6114bb565b6114a3565b61148a565b611448565b611422565b6113ed565b6113be565b6113a3565b611383565b61131a565b61122d565b6111f8565b6111bb565b611196565b61117d565b611135565b611119565b61107c565b611064565b611049565b611025565b61100d565b610ff5565b610f4c565b610f25565b610ef2565b610d9a565b610d17565b610cf0565b610c62565b610c07565b6109da565b6109ac565b61096e565b61092f565b6108f0565b6108d8565b6108c0565b610899565b61086d565b610849565b610811565b6106ed565b610695565b634e487b7160e01b600052604160045260246000fd5b90601f01601f1916810190811067ffffffffffffffff82111761039f57604052565b610367565b906103b86103b160405190565b928361037d565b565b67ffffffffffffffff811161039f5760208091020190565b805b036103db57565b600080fd5b905035906103b8826103d2565b909291926104026103fd826103ba565b6103a4565b93818552602080860192028301928184116103db57915b8383106104265750505050565b6020809161043484866103e0565b815201920191610419565b9080601f830112156103db5781602061045a933591016103ed565b90565b906020828203126103db57813567ffffffffffffffff81116103db5761045a920161043f565b9052565b6001600160a01b031690565b60005b8381106104a65750506000910152565b8181015183820152602001610496565b6104d76104e06020936104ea936104cb815190565b80835293849260200190565b95869101610493565b601f01601f191690565b0190565b9061050e6105076104fd845190565b8084529260200190565b9260200190565b9060005b81811061051f5750505090565b90919261053c6105356001928651815260200190565b9460200190565b929101610512565b80516001600160a01b0316825261045a9161012061059461014083016020858101516001600160a01b03169085015261058260408601516040860152565b606085015184820360608601526104b6565b926105a460808201516080850152565b6105b360a082015160a0850152565b6105c260c082015160c0850152565b6105d160e082015160e0850152565b610100818101511515908401520151906101208184039101526104ee565b8051825261045a91604081019160200151906020818403910152610544565b9061045a916105ef565b9061062e610624835190565b8083529160200190565b90816106406020830284019460200190565b926000915b83831061065457505050505090565b909192939460206106776106708385600195038752895161060e565b9760200190565b9301930191939290610645565b602080825261045a92910190610618565b346103db576106bc6106b06106ab36600461045d565b6131fb565b60405191829182610684565b0390f35b60009103126103db57565b61045a916008021c81565b9061045a91546106cb565b61045a6000600d6106d6565b346103db576106fd3660046106c0565b6106bc6107086106e1565b6040515b9182918290815260200190565b6001600160a01b0381166103d4565b905035906103b882610719565b67ffffffffffffffff811161039f57602090601f01601f19160190565b90826000939282370152565b9092919261076e6103fd82610735565b938185526020850190828401116103db576103b892610752565b9080601f830112156103db5781602061045a9335910161075e565b909160c0828403126103db576107b983836103e0565b926107c781602085016103e0565b926107d582604083016103e0565b926107e38360608401610728565b9260808301359067ffffffffffffffff82116103db576108088161045a938601610788565b9360a0016103e0565b346103db576108306108243660046107a3565b94939093929192611d86565b604051005b906020828203126103db5761045a916103e0565b346103db5761083061085c366004610835565b6128e5565b61045a600060106106d6565b346103db5761087d3660046106c0565b6106bc610708610861565b602080825261045a929101906105ef565b346103db576106bc6108b46108af366004610835565b613695565b60405191829182610888565b346103db576108d03660046106c0565b61083061279e565b346103db576108e83660046106c0565b610830612b6a565b346103db57610830610903366004610835565b6127b3565b905b600052602052604060002090565b61045a9061092a600991600092610908565b6106d6565b346103db576106bc610708610945366004610835565b610918565b90816102409103126103db5790565b90610240828203126103db5761045a9161094a565b346103db57610830610981366004610959565b61228d565b61045a916008021c5b60ff1690565b9061045a9154610986565b61045a60006011610995565b346103db576109bc3660046106c0565b6106bc6109c76109a0565b6040515b91829182901515815260200190565b346103db576109ea3660046106c0565b610830612afc565b61045a61045a61045a9290565b9061090a906109f2565b61045a9081565b61045a9054610a09565b634e487b7160e01b600052602260045260246000fd5b9060016002830492168015610a50575b6020831014610a4b57565b610a1a565b91607f1691610a40565b80546000939291610a77610a6d83610a30565b8085529360200190565b9160018116908115610ac95750600114610a9057505050565b610aa39192939450600052602060002090565b916000925b818410610ab55750500190565b805484840152602090930192600101610aa8565b92949550505060ff1916825215156020020190565b9061045a91610a5a565b906103b8610b0292610af960405190565b93848092610ade565b038361037d565b61045a9061098f565b61045a9054610b09565b610b279060076109ff565b90610b3982546001600160a01b031690565b91610b4660018201610a10565b91610b5360028301610ae8565b91610b6060038201610a10565b91610b6d60048301610a10565b91610b7a60058201610a10565b9161045a6007610b8c60068501610a10565b9301610b12565b93989795610bf160e096610bea610be288610bff98610bd56103b89e99610bce610bf89a600061010087019601906001600160a01b03169052565b60208d0152565b8a820360408c01526104b6565b9c6060890152565b6080870152565b60a0850152565b60c0830152565b019015159052565b346103db576106bc610c22610c1d366004610835565b610b1c565b94610c3598969894919493929360405190565b98899889610b93565b61045a916008021c610487565b9061045a9154610c3e565b61045a6000600c610c4b565b346103db57610c723660046106c0565b6106bc610c7d610c56565b6040515b918291826001600160a01b03909116815260200190565b90610ca76105076104fd845190565b9060005b818110610cb85750505090565b909192610cd761053560019286516001600160a01b0316815260200190565b929101610cab565b602080825261045a92910190610c98565b346103db57610d003660046106c0565b6106bc610d0b61368d565b60405191829182610cdf565b346103db57610d273660046106c0565b6106bc6109c7611965565b634e487b7160e01b600052603260045260246000fd5b8054821015610d6b57610d62600191600052602060002090565b91020190600090565b610d32565b60016000610d7c825490565b831015610d97575061045a91610d9191610d48565b90610c4b565b80fd5b346103db576106bc610c7d610db0366004610835565b610d70565b906020828203126103db5761045a91610728565b80516001600160a01b031682529061045a9060e080610e076101008401610df560208801516020870152565b604087015185820360408701526104b6565b94610e1760608201516060860152565b610e2660808201516080860152565b610e3560a082015160a0860152565b610e4460c082015160c0860152565b01511515910152565b805182529061045a90604080610e726060840160208701518582036020870152610dc9565b9401511515910152565b9061045a91610e4d565b90610e92610624835190565b9081610ea46020830284019460200190565b926000915b838310610eb857505050505090565b90919293946020610ed461067083856001950387528951610e7c565b9301930191939290610ea9565b602080825261045a92910190610e86565b346103db576106bc610f0d610f08366004610db5565b613474565b60405191829182610ee1565b61045a60146000610995565b346103db57610f353660046106c0565b6106bc6109c7610f19565b61045a6000600e6106d6565b346103db57610f5c3660046106c0565b6106bc610708610f40565b90929192610f776103fd826103ba565b93818552602080860192028301928184116103db57915b838310610f9b5750505050565b60208091610fa98486610728565b815201920191610f8e565b9080601f830112156103db5781602061045a93359101610f67565b906020828203126103db57813567ffffffffffffffff81116103db5761045a9201610fb4565b346103db57610830611008366004610fcf565b614cdd565b346103db5761101d3660046106c0565b6108306117ae565b346103db57610830611038366004610835565b612e9a565b61045a6000600f6106d6565b346103db576110593660046106c0565b6106bc61070861103d565b346103db57610830611077366004610fcf565b614be4565b346103db5761108c3660046106c0565b610830612701565b91906040838203126103db5761045a906110ae8185610728565b936020016103e0565b61045a90610487906001600160a01b031682565b61045a906110b7565b61045a906110cb565b9061090a906110d4565b6110f56006916000926110dd565b906110fe825490565b831015610d97575061045a9161111391610d48565b906106d6565b346103db576106bc61070861112f366004611094565b906110e7565b346103db57610830611148366004610db5565b612ccb565b90916060828403126103db5761045a61116684846103e0565b9361117481602086016103e0565b93604001610728565b346103db5761083061119036600461114d565b916124f2565b346103db576111a63660046106c0565b6106bc610c7d6000546001600160a01b031690565b346103db576108306111ce366004610835565b612d6f565b61045a60006012610c4b565b610483906110d4565b6020810192916103b891906111df565b346103db576112083660046106c0565b6106bc6112136111d3565b604051918291826111e8565b6110f56008916000926110dd565b346103db576106bc610708611243366004611094565b9061121f565b90611255610624835190565b90816112676020830284019460200190565b926000915b83831061127b57505050505090565b9091929394602061129761067083856001950387528951610e7c565b930193019193929061126c565b9061045a91611249565b906112ba610624835190565b90816112cc6020830284019460200190565b926000915b8383106112e057505050505090565b909192939460206112fc610670838560019503875289516112a4565b93019301919392906112d1565b602080825261045a929101906112ae565b346103db576106bc61133561133036600461045d565b613563565b60405191829182611309565b916060838303126103db5761135682846103e0565b9261136483602083016103e0565b92604082013567ffffffffffffffff81116103db5761045a9201610788565b610830611391366004611341565b91611e87565b61045a60006013610c4b565b346103db576113b33660046106c0565b6106bc611213611397565b346103db576108306113d1366004610835565b612f5e565b61045a906113e86002916000926110dd565b610995565b346103db576106bc6109c7611403366004610db5565b6113d6565b91906040838203126103db5761045a906110ae81856103e0565b610830611430366004611408565b906125ff565b61045a906113e8600a916000926110dd565b346103db576106bc6109c761145e366004610db5565b611436565b90916060828403126103db5761045a61147c8484610728565b936111748160208601610728565b346103db5761083061149d366004611463565b91612ade565b346103db576114b33660046106c0565b610830614dba565b346103db576114cb3660046106c0565b610830614e65565b61045a6000600b6106d6565b346103db576114ef3660046106c0565b6106bc6107086114d3565b8054600093929161150d610a6d83610a30565b9160018116908115610ac9575060011461152657505050565b6115399192939450600052602060002090565b916000925b81841061154b5750500190565b80548484015260209093019260010161153e565b9061045a916114fa565b906103b8610b029261157a60405190565b9384809261155f565b61158e9060056109ff565b80546001600160a01b0316916115ae60018301546001600160a01b031690565b916115bb60028201610a10565b916115c860038301611569565b916115d560048201610a10565b916115e260058301610a10565b916115ef60068201610a10565b9161045a6008610b8c60078501610a10565b94999896906101009661167061166861167793610bff9861165b6103b89e9961165461167e9a60208f61164561012082019860008301906001600160a01b03169052565b01906001600160a01b03169052565b60408d0152565b8a820360608c01526104b6565b9c6080890152565b60a0870152565b60c0850152565b60e0830152565b346103db576106bc6116a061169b366004610835565b611583565b956116b399979995919594929460405190565b998a998a611601565b61045a60016011610c4b565b346103db576116d83660046106c0565b6106bc6112136116bc565b346103db576108306116f6366004610835565b6124fd565b346103db576106bc6106b0611711366004610db5565b6132a7565b346103db57610830611729366004610835565b61239a565b346103db57610830611741366004610db5565b612dd2565b346103db57610830611759366004610db5565b6118cf565b346103db57610830611771366004610db5565b612d21565b61177e61180a565b6103b861179c565b61048761045a61045a9290565b61045a90611786565b6103b86117a96000611793565b611908565b6103b8611776565b156117bd57565b60405162461bcd60e51b815280611806600482016020808252818101527f4f776e61626c653a2063616c6c6572206973206e6f7420746865206f776e6572604082015260600190565b0390fd5b6103b861181f6000546001600160a01b031690565b61183861182b33610487565b916001600160a01b031690565b146117b6565b6103b89061184a61180a565b6118aa565b1561185657565b60405162461bcd60e51b815260206004820152602660248201527f4f776e61626c653a206e6577206f776e657220697320746865207a65726f206160448201526564647265737360d01b6064820152608490fd5b6103b8906117a96118be6104876000611793565b6001600160a01b038316141561184f565b6103b89061183e565b906001600160a01b03905b9181191691161790565b906118fd61045a611904926110d4565b82546118d8565b9055565b6000546001600160a01b0316906119208160006118ed565b61195361194d7f8be0079c531659141344cd1fd0a4f28419497f9722a3daafe3b4186f6b6457e0936110d4565b916110d4565b9161195d60405190565b80805b0390a3565b61045a6004610b12565b61045a9060a01c61098f565b61045a905461196f565b1561198c57565b60405162461bcd60e51b81526020600482015260166024820152751059191c995cdcc81a5cc81b9bdd08185b1b1bddd95960521b6044820152606490fd5b906103b895949392916119dd600061197b565b15611a02576119fd6119f86119f33360026110dd565b610b12565b611985565b611a58565b6119fd6001611985565b15611a1357565b60405162461bcd60e51b815260206004820152601c60248201527f436f6e7472616374206d75737420626520696e697469616c697a6564000000006044820152606490fd5b906103b89594939291611a73611a6e6011610b12565b611a0c565b906103b89594939291611a84611dd3565b611c26565b905051906103b882610719565b906020828203126103db5761045a91611a89565b6040513d6000823e3d90fd5b15611abd57565b60405162461bcd60e51b815260206004820152601a60248201527f43616c6c6572206973206e6f7420646f6d61696e206f776e65720000000000006044820152606490fd5b15611b0957565b60405162461bcd60e51b815260206004820152601960248201527f4d696e696d756d20626964207072696365206973207a65726f000000000000006044820152606490fd5b15611b5557565b60405162461bcd60e51b8152602060048201526024808201527f41736b207072696365206973206c657373207468616e206d696e2062696420706044820152637269636560e01b6064820152608490fd5b15611bad57565b60405162461bcd60e51b815260206004820152601a60248201527f496e76616c69642073616c652045544820726563697069656e740000000000006044820152606490fd5b611c1f6103b894611c18606094989795611c11608086019a6000870152565b6020850152565b6040830152565b01906111df565b9394611c629392956020611c4a611c456012546001600160a01b031690565b6110d4565b6311d4c3a290611c5960405190565b97889260e01b90565b82526004820189905260249082905afa948515611d8157600095611d47575b50611cf482611d4292611ca83398611ca261182b8b6001600160a01b031690565b14611ab6565b611ceb611cdb6104876000611cd6611ccd8f61045a611cc6856109f2565b8211611b02565b8b5b1015611b4e565b611793565b611ce4896110d4565b1415611ba6565b868a878b613ab7565b93611d2f611d2b611d257f77a8be0890be6d79729c684636469d83d455e267a0bf0c9bc2463d8db867a541976109f2565b976110d4565b9790565b97611d3960405190565b94859485611bf2565b0390a4565b611d4291955082611d71611cf49260203d8111611d7a575b611d69818361037d565b810190611a96565b96925050611c81565b503d611d5f565b611aaa565b906103b895949392916119ca565b15611d9b57565b60405162461bcd60e51b815260206004820152601060248201526f14185d5cd8589b194e881c185d5cd95960821b6044820152606490fd5b6103b8611de5611de1611965565b1590565b611d94565b90611dfd9291611df8611f09565b611e05565b6103b8611f45565b906103b89291611e13611dd3565b9091611e3b9034938484611e2b61045a8260056109ff565b611e36848483613ccf565b613e92565b903391611d42611e7d611e77611e717f6d2b783673dbbf046f2e5a1f3c92ce62c29a0f5385f2b1f0eaf19019ef28cb55946109f2565b946109f2565b946110d4565b9461070c60405190565b906103b89291611dea565b61045a60026109f2565b15611ea357565b60405162461bcd60e51b815260206004820152601f60248201527f5265656e7472616e637947756172643a207265656e7472616e742063616c6c006044820152606490fd5b90600019906118e3565b90611f0261045a611904926109f2565b8254611ee8565b6103b8611f166003610a10565b611f34611f21611e92565b918290611f2d565b9190565b1415611e9c565b6003611ef2565b61045a60016109f2565b6103b8611f34611f3b565b6103b890611f61611a6e6011610b12565b611dfd90611f6d611f09565b6103b890611f79611dd3565b61213e565b61045a9060081c610487565b61045a9054611f7e565b905051906103b8826103d2565b90929192611fb16103fd82610735565b938185526020850190828401116103db576103b892610493565b9080601f830112156103db57815161045a92602001611fa1565b6080818303126103db57611ff98282611f94565b926120078360208401611f94565b9260408301519067ffffffffffffffff82116103db5761202c8161045a938601611fcb565b93606001611f94565b9037565b6103b891604091612035565b906104ea81604093612039565b61205e611f2960029390565b806000925b848410612071575050505050565b61208d6120866001926120818690565b612045565b9360400190565b93019291612063565b6103b89161014091612035565b6103b89190610100906120e1906120ba8482612039565b6120cb604082016040860190612052565b6120dc60c0820160c0860190612039565b820190565b910190612096565b610240810192916103b891906120a3565b634e487b7160e01b600052601160045260246000fd5b919061211b565b9290565b820391821161212657565b6120fa565b9081526040810192916103b89160200152565b600061217b91612151611c456011611f8a565b612170836365cd296c61216360405190565b9687958694859360e01b90565b8352600483016120e9565b03925af18015611d815761220891600080808093909461225e575b506122149161220d916121d56121b061045a8760076109ff565b9660018801926121cd61045a60056121c787610a10565b906109ff565b94858a6140f3565b6121e160068701610a10565b9682866122026121fc60018c9701546001600160a01b031690565b94610a10565b986142a9565b61464f565b8094612110565b926122486122427f3247261fffac93019b3a34aa6692df18a5ddea75a12bf8ec4539903a608a6e4c936109f2565b936109f2565b9361196061225560405190565b9283928361212b565b905061220d93506122149250612285913d8091833e61227d818361037d565b810190611fe5565b935093612196565b6103b890611f50565b611dfd906122a2611f09565b612334565b156122ae57565b60405162461bcd60e51b815260206004820152601760248201527f43616c6c6572206973206e6f7420626964206f776e65720000000000000000006044820152606490fd5b156122fa57565b60405162461bcd60e51b81526020600482015260126024820152714c697374696e67206e6f742061637469766560701b6044820152606490fd5b6122089061234661045a8260076109ff565b9061221461220d6001840161236261045a60056121c784610a10565b9061238661237787546001600160a01b031690565b6123803361182b565b146122a7565b6121d561239560088401610b12565b6122f3565b6103b890612296565b906103b892916123b1611dd3565b612417565b156123bd57565b60405162461bcd60e51b815260206004820152601b60248201527f43616c6c6572206973206e6f74206c697374696e67206f776e657200000000006044820152606490fd5b9081526040810192916103b891602090611c1f565b91909161242861045a8260056109ff565b916124a981600161244086546001600160a01b031690565b339690612456906124508961182b565b146123b6565b61246561239560088301610b12565b61247d61247761045a60078401610a10565b89611ccf565b61249661248d6104876000611793565b611ce4856110d4565b6124a38860068301611ef2565b016118ed565b6124dc6124d67f6df0cec5e0539cca31fe823df048a8d5834ba5dc079fa1d38e5157f00f9d085b936109f2565b936110d4565b936119606124e960405190565b92839283612402565b906103b892916123a3565b61250b61045a8260056109ff565b6125448261252083546001600160a01b031690565b339390612530906124508661182b565b61253f61239560088301610b12565b6149f8565b61195361194d7f5832f888aea12cc23bd891f2d9fd4bd01b8ce0e22898b6e7cee1519f5bd46954936109f2565b90611dfd9161257e611f09565b906103b89161258b611dd3565b6125c382600661259f61045a8560076109ff565b6125bd836125b761045a60056121c760018701610a10565b836143af565b01611ef2565b33906119606125f56124d67f8283dd04c4a2b6691bd80232f254e0ad876b8bb149938d3e7ced5c6e8a35b614936109f2565b9361070c60405190565b906103b891612571565b612616611a6e6011610b12565b6103b861268a565b1561262557565b60405162461bcd60e51b815260206004820152601e60248201527f496e7374616e742061636365707420616c726561647920656e61626c656400006044820152606490fd5b9060ff906118e3565b9061268361045a61190492151590565b825461266a565b33806126c5600a6126b36126a16119f385846110dd565b6126ad60005b91151590565b1461261e565b6126c060019485926110dd565b612673565b6126fc6126f27f2e259e0564e75f0e10ce0e012a5ce2528ae513b0188b619bcc581b8ba8db7032926110d4565b926109cb60405190565b0390a2565b6103b8612609565b612716611a6e6011610b12565b6103b861276a565b1561272557565b60405162461bcd60e51b815260206004820152601f60248201527f496e7374616e742061636365707420616c72656164792064697361626c6564006044820152606490fd5b33806126c5600a6127916127816119f385846110dd565b61278b60016126a7565b1461271e565b6126c060009485926110dd565b6103b8612709565b9190820180921161212657565b612825600060076128176127ca61045a86846109ff565b9161280d60056127f16127eb61045a6127e560018901610a10565b846109ff565b866144d3565b612805426127ff6010610a10565b906127a6565b908501611ef2565b6001908301612673565b01546001600160a01b031690565b61195361194d7f9da9db6af7fcfa5edbaa006b61a744d33fe4651a4c594cddd3e9a7e757ecd8d5936109f2565b611dfd9061285e611f09565b61286c61045a8260076109ff565b906128a161288461045a60056121c760018701610a10565b61288e81856145c4565b8261289b60068601610a10565b9461495d565b33906128b5836128b0846110d4565b6129dd565b6119606125f56124d67f8f8619524e8d462cead34604bd2247ede24175801481e4d0b8059ac8aa41c301936109f2565b6103b890612852565b156128f557565b60405162461bcd60e51b815260206004820152601d60248201527f416464726573733a20696e73756666696369656e742062616c616e63650000006044820152606490fd5b906129476103fd83610735565b918252565b3d156129665761295b3d61293a565b903d6000602084013e565b606090565b1561297257565b60405162461bcd60e51b815260206004820152603a60248201527f416464726573733a20756e61626c6520746f2073656e642076616c75652c207260448201527f6563697069656e74206d617920686176652072657665727465640000000000006064820152608490fd5b60006103b8926129fe8293611c456129f4306110d4565b84903110156128ee565b90612a0860405190565b90818003925af1612a1761294c565b5061296b565b906103b89291612a2b61180a565b612a9c565b15612a3757565b60405162461bcd60e51b8152602060048201526013602482015272105b1c9958591e481a5b9a5d1a585b1a5e9959606a1b6044820152606490fd5b90610100600160a81b039060081b6118e3565b90612a9561045a611904926110d4565b8254612a72565b612ad29291612ac4612acb92612abd612ab8611de16011610b12565b612a30565b6011612a85565b60126118ed565b60136118ed565b6103b860016011612673565b906103b89291612a1d565b612af161180a565b6103b86103b8612b4f565b6103b8612ae9565b612b0c611dd3565b6103b8612b1b60016004612673565b33612b4a7f62e78cea01bee320cd4e420270b5ea74000d11b0c9f74754ebdbfc544b05a25891610c8160405190565b0390a1565b6103b8612b04565b612b5f61180a565b6103b86103b8612bb8565b6103b8612b57565b612b7a612c03565b6103b8612b8960006004612673565b33612b4a7f5db9ee0a495bf2e6ff9c91a7834c1ba4fdd244a5e8aa4e537bd38aeae4b073aa91610c8160405190565b6103b8612b72565b15612bc757565b60405162461bcd60e51b815260206004820152601460248201527314185d5cd8589b194e881b9bdd081c185d5cd95960621b6044820152606490fd5b6103b8612c0e611965565b612bc0565b6103b890612c1f61180a565b612c62565b15612c2b57565b60405162461bcd60e51b815260206004820152600f60248201526e496e76616c6964206164647265737360881b6044820152606490fd5b612c85612c6e826110d4565b612c7e61182b6104876000611793565b1415612c24565b612c90816011612a85565b612cba7f9106eb309cc633a951e77bd36af34646a9df8e6ade485938c34e3844a37b79da916110d4565b90612cc460405190565b80806126fc565b6103b890612c13565b6103b890612ce061180a565b612cec612c6e826110d4565b612cf78160136118ed565b612cba7f9d3407c7200ba4f49e97f3d3f8250ec01c24b0ada6fa31053d71850793b73953916110d4565b6103b890612cd4565b6103b890612d3661180a565b612d4181600b611ef2565b612b4a7f8c4d35e54a3f2ef1134138fd8ea3daee6a3c89e10d2665996babdf70261e2c769161070c60405190565b6103b890612d2a565b6103b890612d8461180a565b612d9d612d946104876000611793565b612c7e836110d4565b612da881600c6118ed565b612cba7f7a7b5a0a132f9e0581eb8527f66eae9ee89c2a3e79d4ac7e41a1f1f4d48a7fc2916110d4565b6103b890612d78565b6103b890612de761180a565b612e4d565b15612df357565b60405162461bcd60e51b815260206004820152602c60248201527f42696420736574746c656d656e7420706572696f64206d75737420626520677260448201526b06561746572207468616e20360a41b6064820152608490fd5b612e61612e5a60006109f2565b8211612dec565b612e6c81600f611ef2565b612b4a7f09a165ff77cf0f319f9ece89bc6dbe2a469a0da2640c9e6b501132846843daf59161070c60405190565b6103b890612ddb565b6103b890612eaf61180a565b612f11565b15612ebb57565b60405162461bcd60e51b815260206004820152602860248201527f42696420726566756e6420706572696f64206d75737420626520677265617465604482015267072207468616e20360c41b6064820152608490fd5b612f25612f1e60006109f2565b8211612eb4565b612f30816010611ef2565b612b4a7f90e0312fddcd5cbec358d5c7d63976e5c97d71dfb8d6cd5f2c53b0a1a043ccf09161070c60405190565b6103b890612ea3565b906129476103fd836103ba565b61045a60406103a4565b61045a6101406103a4565b612f91612f7e565b906000825260208080808080808080808b01600081520160008152016060815201600081520160008152016000815201600081520160008152016060905250565b905250565b61045a612f89565b612fe7612f74565b90600082526020808301612fd2612fd7565b61045a612fdf565b60005b82811061301057505050565b60209061301b612ff9565b8184015201613004565b906103b861303b61303584612f67565b936103ba565b601f190160208401613001565b60001981146121265760010190565b90613060825190565b811015610d6b576020809102010190565b9061308c6130806104fd845490565b92600052602060002090565b9060005b81811061309d5750505090565b9091926130c16130ba6001926130b287610a10565b815260200190565b9460010190565b929101613090565b9061045a91613071565b906103b8610b02926130e460405190565b938480926130c9565b906103b86131ea60096130fe612f7e565b9461312061311382546001600160a01b031690565b6001600160a01b03168752565b61314761313760018301546001600160a01b031690565b6001600160a01b03166020880152565b61315d61315660028301610a10565b6040880152565b61317361316c60038301611569565b6060880152565b61318961318260048301610a10565b6080880152565b61319f61319860058301610a10565b60a0880152565b6131b56131ae60068301610a10565b60c0880152565b6131cb6131c460078301610a10565b60e0880152565b6131e46131da60088301610b12565b1515610100880152565b016130d3565b610120840152565b61045a906130ed565b9061320c613207835190565b613025565b916000908361321a836109f2565b61322561045a845190565b811015613297578061324161323d6132929386613057565b5190565b61327761327061325960056121c761323d878b613057565b61326b613264612f74565b948a860152565b6131f2565b6020830152565b6132818289613057565b5261328c8188613057565b50613048565b61321a565b5093505050565b61045a906130d3565b6132be6132c3916132b6606090565b5060066110dd565b61329e565b906132cf613207835190565b91600090836132dd836109f2565b6132e861045a845190565b811015613297578061330061323d6133119386613057565b6132776132706132598360056109ff565b6132dd565b61045a60606103a4565b61045a6101006103a4565b613333613320565b906000825260208080808080808089016000815201606081520160008152016000815201600081520160005b8152016000905250565b61045a61332b565b613379613316565b906000825260208080840161335f613369565b61045a613371565b60005b8281106133a357505050565b6020906133ae61338c565b8184015201613397565b906103b86133c861303584612f67565b601f190160208401613394565b906103b861346260076133e6613320565b946133fb61311382546001600160a01b031690565b61341161340a60018301610a10565b6020880152565b61342061315660028301610ae8565b61342f61316c60038301610a10565b61343e61318260048301610a10565b61344d61319860058301610a10565b61345c6131ae60068301610a10565b01610b12565b151560e0840152565b61045a906133d5565b906134836132be8360086110dd565b61349361348e825190565b6133b8565b92600091846134a1846109f2565b6134ac61045a845190565b81101561352157806134c461323d61351c9386613057565b6135076134d28260076109ff565b6134fe611c116134e66119f38b600a6110dd565b926134f96134f2613316565b968d880152565b61346b565b15156040830152565b613511828a613057565b5261328c8189613057565b6134a1565b509450505050565b60005b82811061353857505050565b60608282015260200161352c565b906103b861355661303584612f67565b601f190160208401613529565b61357361356e825190565b613546565b80600091613580836109f2565b945b61358d61045a865190565b861015613685576135b660096135b06135a961323d8a8a613057565b60056109ff565b0161329e565b946135c261348e875190565b6135cc8886613057565b526135d78785613057565b506135e1856109f2565b6135ec61045a885190565b81101561366e578061328c818861364d61360c61323d613669978e613057565b6134fe611c1160076134f961363e6119f361362787856109ff565b936136388a6128178a600a946109ff565b906110dd565b94613647613316565b97880152565b6136578c8a613057565b51906136638383613057565b52613057565b6135e1565b509294509461367c90613048565b94939193613582565b935093505050565b61045a614ef0565b6136ac6136b1916136a4612ff9565b506009610908565b610a10565b61045a6132706136c28360056109ff565b61326b6136cd612f74565b948552565b369037565b906103b86136e761303584612f67565b601f1901602084016136d2565b634e487b7160e01b600052600060045260246000fd5b90611f0261045a6119049290565b9160001960089290920291821b911b6118e3565b919061373d61045a611904936109f2565b908354613718565b6103b89160009161372c565b81811061375c575050565b8061376a6000600193613745565b01613751565b9190601f811161377f57505050565b6137916103b893600052602060002090565b906020601f8401819004830193106137b4575b6020601f909101045b0190613751565b90915081906137a4565b600019600883021c1916906002021790565b906137d9815190565b9067ffffffffffffffff821161039f576137fd826137f78554610a30565b85613770565b602090601f831160011461382b57611904929160009183613820575b50506137be565b015190503880613819565b601f1983169161384085600052602060002090565b9260005b81811061387e57509160029391856001969410613865575b50505002019055565b01516000196008601f8516021c1916905538808061385c565b91936020600181928787015181550195019201613844565b906103b8916137d0565b8181029291811591840414171561212657565b8181106138be575050565b806138cc6000600193613745565b016138b3565b906138e590600019906020036008021c90565b8154169055565b90918281106138fa57505050565b6103b8929061390890613080565b90810191016138b3565b90600160401b811161039f578161392a6103b8935490565b908281556138ec565b81519167ffffffffffffffff831161039f5761395e6130806001926139588686613912565b60200190565b92049160005b8381106139715750505050565b600190602061398161045a865190565b9401938184015501613964565b906103b891613933565b6103b89190613a7e90610120906009906139c3816139bd87516001600160a01b031690565b906118ed565b6139de600182016139bd60208801516001600160a01b031690565b6139f6600282016139f0604088015190565b9061370a565b613a0e60038201613a08606088015190565b90613896565b613a20600482016139f0608088015190565b613a3860058201613a3260a088015190565b90611ef2565b613a4a60068201613a3260c088015190565b613a5c60078201613a3260e088015190565b613a7760088201613a71610100880151151590565b90612673565b0192015190565b9061398e565b906103b891613998565b90815491600160401b83101561039f5782613ab19160016103b895018155610d48565b9061372c565b9095949391600992613acc6136ac8486610908565b600090613ad8826109f2565b8103613bce575b50613aea600e610a10565b958693849a3394429060019b613aff876109f2565b613b08906136d7565b9588613b12612f7e565b98890190613b2891906001600160a01b03169052565b6001600160a01b0316602088015260408701526060860152613b4b886080870152565b60a085015260c084015260e0830152871515610100830152610120820152613b748360056109ff565b90613b7e91613a84565b613b899060066110dd565b90613b9391613a8e565b613b9c91610908565b90613ba691611ef2565b613bb0600e610a10565b90613bba906109f2565b613bc3916127a6565b6103b890600e611ef2565b8061253f61045a613be09360056109ff565b38613adf565b15613bed57565b60405162461bcd60e51b8152602060048201526016602482015275131a5cdd1a5b99c8191bd95cc81b9bdd08195e1a5cdd60521b6044820152606490fd5b15613c3257565b60405162461bcd60e51b8152602060048201526024808201527f426964207072696365206973206c657373207468616e206d696e2062696420706044820152637269636560e01b6064820152608490fd5b15613c8a57565b60405162461bcd60e51b815260206004820152601d60248201527f427579657220494420686173682063616e6e6f7420626520656d7074790000006044820152606490fd5b611f2961045a613d3e92613d396103b89695613d32611f2961045a6007613d0060008801546001600160a01b031690565b96613d1d600098613d1661182b6104878c611793565b1415613be6565b613d2c61239560088301610b12565b01610a10565b1015613c2b565b6109f2565b1415613c83565b90613d4e815190565b9067ffffffffffffffff821161039f57613d6c826137f78554610a30565b602090601f8311600114613d8e576119049291600091836138205750506137be565b601f19831691613da385600052602060002090565b9260005b818110613dc7575091600293918560019694106138655750505002019055565b91936020600181928787015181550195019201613da7565b906103b891613d45565b6103b89190613a719060e090600790613e0d816139bd87516001600160a01b031690565b613e1f60018201613a32602088015190565b613e3760028201613e31604088015190565b90613ddf565b613e49600382016139f0606088015190565b613e5b60048201613a32608088015190565b613e6d60058201613a3260a088015190565b613e7f60068201613a3260c088015190565b01920151151590565b906103b891613de9565b9194939092613ea1600d610a10565b938492839733934260001991600094613eb8613320565b6001600160a01b0389168782015296602088015260408701526060860152608085015260a084015260c0830152151560e0820152613ef78360076109ff565b90613f0191613e88565b613f0c9060086110dd565b90613f1691613a8e565b60090190613f2391613a8e565b613f2d600d610a10565b613f3760016109f2565b613f40916127a6565b6103b890600d611ef2565b15613f5257565b60405162461bcd60e51b8152602060048201526012602482015271109a5908191bd95cc81b9bdd08195e1a5cdd60721b6044820152606490fd5b8015156103d4565b905051906103b882613f8c565b906020828203126103db5761045a91613f94565b15613fbc57565b60405162461bcd60e51b815260206004820152601d60248201527f496e76616c6964206d616e6167656420444b494d206b657920686173680000006044820152606490fd5b1561400857565b60405162461bcd60e51b815260206004820152601c60248201527f496e76616c696420637573746f6d20444b494d206b65792068617368000000006044820152606490fd5b6104ea6140659260209261405f815190565b94859290565b93849101610493565b61045a9161404d565b1561407e57565b60405162461bcd60e51b815260206004820152601060248201526f24b73b30b634b2103932b1b2b4bb32b960811b6044820152606490fd5b156140bd57565b60405162461bcd60e51b815260206004820152600e60248201526d24b73b30b634b2103237b6b0b4b760911b6044820152606490fd5b80549294909391926001600160a01b031661412060009161411961182b61048785611793565b1415613f4b565b61413f614136828601546001600160a01b031690565b6124503361182b565b61414e61239560088601610b12565b6002840190614165611f2961045a61224285610a10565b146141f0576141ea93613d2c611f29946141e4611f296121176003612117986141a26103b89e61419c611f2961045a60049d610a10565b14614001565b6141ca6141ae60405190565b80926141be60208301918261406e565b9081038252038261037d565b6141dc6141d5825190565b9160200190565b209b01610a10565b14614077565b146140b6565b506020614239939561420d611c456013546001600160a01b031690565b61422b6319d0915261421e60405190565b9788948593849360e01b90565b835260048301526024820190565b03915afa908115611d81576103b895613d2c611f29946141e4611f2961211760036004976142766121179a6141ea9d60009161427b575b50613fb5565b6141a2565b61429c915060203d81116142a2575b614294818361037d565b810190613fa1565b38614270565b503d61428a565b909161253f816103b89461289b60018601610a10565b156142c657565b60405162461bcd60e51b815260206004820152601860248201527f526566756e6420616c726561647920696e6974696174656400000000000000006044820152606490fd5b1561431257565b60405162461bcd60e51b8152602060048201526024808201527f4e6577207072696365206e6f742067726561746572207468616e206f6c6420706044820152637269636560e01b6064820152608490fd5b1561436a57565b60405162461bcd60e51b815260206004820152601c60248201527f496e636f727265637420616d6f756e74206f66204554482073656e74000000006044820152606490fd5b611f2961045a600661441e936143f661239560086103b899986143df61237760008701546001600160a01b031690565b61345c6143f1611de160078801610b12565b6142bf565b019361440e61440761045a87610a10565b821161430b565b6144183495610a10565b90612110565b14614363565b1561442b57565b60405162461bcd60e51b815260206004820152601960248201527f526566756e6420706572696f64206e6f742073746172746564000000000000006044820152606490fd5b1561447757565b60405162461bcd60e51b815260206004820152602e60248201527f4c697374696e6720657870697265642e204269642063616e206265207769746860448201526d647261776e206469726563746c7960901b6064820152608490fd5b60086103b89261345c614530936144f761237760008301546001600160a01b031690565b6145096143f1611de160078401610b12565b61452a611f2961045a42936127ff6004614523600f610a10565b9201610a10565b11614424565b614470565b1561453c57565b60405162461bcd60e51b81526020600482015260146024820152731499599d5b99081b9bdd081a5b9a5d1a585d195960621b6044820152606490fd5b1561457f57565b60405162461bcd60e51b815260206004820152601760248201527f526566756e6420706572696f64206e6f7420656e6465640000000000000000006044820152606490fd5b906145e09060089061345c61237785546001600160a01b031690565b6145e75750565b806145ff6145fa60076103b89401610b12565b614535565b614612611f2961045a6005429401610a10565b1015614578565b61045a670de0b6b3a76400006109f2565b634e487b7160e01b600052601260045260246000fd5b811561464a570490565b61462a565b90919061468b61467961466b614665600b610a10565b866138a0565b614673614619565b90614640565b91614685838096612110565b906129dd565b61469560006109f2565b811161469e5750565b6103b8906128b0600c546001600160a01b031690565b919061373d61045a6119049390565b6103b8916000916146b4565b906000916146ed6146e582600052602060002090565b9283546137be565b905555565b919290602082101561474a57601f8411600114614714576119049293506137be565b50906147456103b893600161473c61473185600052602060002090565b92601f602091010490565b82019101613751565b6146cf565b506147838293614761600194600052602060002090565b6137ad6020601f860104820192601f86168061478b575b50601f602091010490565b600202179055565b614797908886036138d2565b38614778565b929091600160401b821161039f57602011156147e45760208110156147c557611904916137be565b60019160ff19166147db84600052602060002090565b55600202019055565b60019150600202019055565b9081546147fc81610a30565b90818311614825575b818310614813575b50505050565b61481c936146f2565b3880808061480d565b6148318383838761479d565b614805565b60006103b8916147f0565b90600003614852576103b890614836565b6136f4565b60006103b891613912565b90600003614852576103b890614857565b600060096103b892828082015582600182015561489383600283016146c3565b6148a08360038301614841565b6148ad83600483016146c3565b6148ba8360058301613745565b6148c78360068301613745565b6148d48360078301613745565b82600882015501614862565b90600003614852576103b890614873565b6000808255906007906149078360018301613745565b6149148360028301614841565b61492183600383016146c3565b61492e8360048301613745565b61493b8360058301613745565b6149488360068301613745565b0155565b90600003614852576103b8906148f1565b6000916149bc916103b8946149a7611de160086149988661499361045a61498d8c8a01546001600160a01b031690565b856110dd565b61515a565b600984019361345c878661515a565b90816149e2575b506149c1575b5060076109ff565b61494c565b836149d76149dc926121c7600160059201610a10565b6148e0565b386149b4565b5490506149f1611f29866109f2565b14386149ae565b614a50600091614a0b8360088301612673565b614a2a8461499361045a6006613638888701546001600160a01b031690565b600990614a4b84614a46614a4060048501610a10565b85610908565b613745565b015490565b614a5c611f29836109f2565b14614a65575050565b6149d76103b89260056109ff565b6103b890614a7f61180a565b614b2b565b15614a8b57565b60405162461bcd60e51b815260206004820152601c60248201527f4164647265737320616c7265616479206f6e20616c6c6f776c697374000000006044820152606490fd5b916001600160a01b0360089290920291821b911b6118e3565b9190614afa61045a611904936110d4565b908354614ad0565b90815491600160401b83101561039f5782614b259160016103b895018155610d48565b90614ae9565b90614b3660006109f2565b614b4161045a845190565b811015614bdf5780614b66614b59614bda9386613057565b516001600160a01b031690565b614b9d81614b988161045a6002614b8b614b86611de16119f386856110dd565b614a84565b6126c060019384926110dd565b614b02565b614bc77f41f4a012571b6bf21f3c6557be5d1a28851ce415203203b84c14099b84fe9737916110d4565b90614bd160405190565b600090a2613048565b614b36565b509050565b6103b890614a73565b6103b890614bf961180a565b614c4a565b15614c0557565b60405162461bcd60e51b815260206004820152601a60248201527f4164647265737320616c726561647920646973616c6c6f7765640000000000006044820152606490fd5b906000614c56816109f2565b614c6161045a855190565b811015614cd75780614c79614b59614cd29387613057565b614c9d846126c0836002614c98614c936119f384846110dd565b614bfe565b6110dd565b614ca8816001614fb6565b614bc77ff27dccb929dd3f4dba2d3ffc29a7c74e35995e051a268a7c466f9ddabdf81eac916110d4565b614c56565b50509050565b6103b890614bed565b614cee61180a565b6103b8614d68565b15614cfd57565b60405162461bcd60e51b815260206004820152601d60248201527f416c6c6f77206c69737420697320616c726561647920656e61626c65640000006044820152606490fd5b9060ff60a01b9060a01b6118e3565b90614d6161045a61190492151590565b8254614d42565b614d7d614d78611de1600061197b565b614cf6565b614d8960016000614d51565b7f8a943acd5f4e6d3df7565a4a08a93f6b04cc31bb6c01ca4aef7abd6baf455ec3614db360405190565b8080612b4a565b6103b8614ce6565b614dca61180a565b6103b8614e1e565b15614dd957565b60405162461bcd60e51b815260206004820152601e60248201527f416c6c6f77206c69737420697320616c72656164792064697361626c656400006044820152606490fd5b614e30614e2b600061197b565b614dd2565b614e3b600080614d51565b7f2d35c8d348a345fd7b3b03b7cfcf7ad0b60c2d46742d5ca536342e4185becb07614db360405190565b6103b8614dc2565b90614e7c6130806104fd845490565b9060005b818110614e8d5750505090565b909192614ebb6130ba600192614eaa87546001600160a01b031690565b6001600160a01b0316815260200190565b929101614e80565b9061045a91614e6d565b906103b8610b0292614ede60405190565b93848092614ec3565b61045a90614ecd565b61045a6001614ee7565b90614f096130806104fd845490565b9060005b818110614f1a5750505090565b909192614f376130ba600192614eaa87546001600160a01b031690565b929101614f0d565b9061045a91614efa565b906103b8610b0292614f5a60405190565b93848092614f3f565b61045a90614f49565b634e487b7160e01b600052603160045260246000fd5b6103b891600091614ae9565b80548015614fb1576000190190614fae614fa88383610d48565b90614f82565b55565b614f6c565b614fcb614fd292614fc683614f63565b615069565b9092901590565b156150145760405162461bcd60e51b815260206004820152601560248201527420b2323932b9b9903737ba1034b71030b93930bc9760591b6044820152606490fd5b6103b89161502d615023835490565b61441860016109f2565b9081810361503d575b5050614f8e565b614b25615050610d916150579486610d48565b9184610d48565b3880615036565b61045a6000196109f2565b91908251926000615079816109f2565b855b8110156150c35761508f614b598285613057565b6150a16001600160a01b03861661182b565b146150b9576150b261507b91613048565b9050615079565b9450505050600190565b5093505050611f2961505e565b906150df6130806104fd845490565b9060005b8181106150f05750505090565b9091926151056130ba6001926130b287610a10565b9291016150e3565b9061045a916150d0565b906103b8610b029261512860405190565b9384809261510d565b61045a90615117565b80548015614fb1576000190190614fae6151548383610d48565b90613745565b614fcb61516f9261516a83615131565b6151ea565b156151b15760405162461bcd60e51b81526020600482015260156024820152743ab4b73a191a9b103737ba1034b71030b93930bc9760591b6044820152606490fd5b6103b8916151c0615023835490565b908181036151d0575b505061513a565b613ab16150506111136151e39486610d48565b38806151c9565b919082519260006151fa816109f2565b855b8110156150c35761521061323d8285613057565b84146150b9576152226151fc91613048565b90506151fa56fea2646970667358221220fe040d9751ce39bcbf30d4fac61af1e6ef905630d1851031eab281bbeda6e69364736f6c63430008120033",
  "devdoc": {
    "events": {
      "Paused(address)": {
        "details": "Emitted when the pause is triggered by `account`."
      },
      "Unpaused(address)": {
        "details": "Emitted when the pause is lifted by `account`."
      }
    },
    "kind": "dev",
    "methods": {
      "addAddressesToAllowlist(address[])": {
        "params": {
          "_allowedAddresses": "List of addresses allowed to call allow listed functions"
        }
      },
      "buyerReleaseFunds(uint256)": {
        "params": {
          "_bidId": "The unique identifier of the bid to release funds for"
        }
      },
      "createBid(uint256,bytes32,string)": {
        "params": {
          "_buyerIdHash": "The hashed buyerId which is also output as part of the transfer proof later",
          "_encryptedBuyerId": "The encrypted buyerId. Should be the same as the buyerId hashed",
          "_listingId": "The unique identifier of the listing to bid on"
        }
      },
      "createListing(bytes32,uint256,uint256,address,bytes,bytes32)": {
        "params": {
          "_askPrice": "An asking price for the domain",
          "_dkimKeyHash": "The custom DKIM key hash. If empty, the managed DKIM key hash will be used",
          "_domainId": "The unique identifier of the domain",
          "_encryptionKey": "The encryption key for buyers to encrypt the buyerId to",
          "_minBidPrice": "The minimum bid price for the domain",
          "_saleEthRecipient": "The address to receive the ETH from the sale; must be a contract that can                          receive ETH or an EOA"
        }
      },
      "deleteListing(uint256)": {
        "params": {
          "_listingId": "The unique identifier of the listing to delete"
        }
      },
      "finalizeSale((uint256[2],uint256[2][2],uint256[2],uint256[10]))": {
        "params": {
          "_proof": "The zk-email proof of domain transfer"
        }
      },
      "getDomainListing(bytes32)": {
        "params": {
          "_domainId": "The domain id to fetch the active listing for"
        }
      },
      "getListingBids(uint256[])": {
        "params": {
          "_listingIds": "An array of listingIds to fetch bids for"
        }
      },
      "getListings(uint256[])": {
        "params": {
          "_listingIds": "An array of listingIds to fetch details for"
        }
      },
      "getUserBids(address)": {
        "params": {
          "_user": "The address of the user to fetch bids for"
        }
      },
      "getUserListings(address)": {
        "params": {
          "_user": "The address of the user to fetch listings for"
        }
      },
      "increaseBidPrice(uint256,uint256)": {
        "params": {
          "_bidId": "The unique identifier of the bid to increase the price for",
          "_newPrice": "The new price for the bid"
        }
      },
      "initialize(address,address,address)": {
        "params": {
          "_mailServerKeyHashAdapter": "The address of the mail server key hash adapter contract",
          "_transferDomainProcessor": "The address of the domain transfer processor contract",
          "_verifiedDomainRegistry": "The address of the verified domain registry contract"
        }
      },
      "initiateRefund(uint256)": {
        "params": {
          "_bidId": "The unique identifier of the bid to initiate refund for"
        }
      },
      "owner()": {
        "details": "Returns the address of the current owner."
      },
      "paused()": {
        "details": "Returns true if the contract is paused, and false otherwise."
      },
      "removeAddressesFromAllowlist(address[])": {
        "params": {
          "_disallowedAddresses": "List of addresses being disallowed from calling allow listed functions"
        }
      },
      "renounceOwnership()": {
        "details": "Leaves the contract without owner. It will not be possible to call `onlyOwner` functions. Can only be called by the current owner. NOTE: Renouncing ownership will leave the contract without an owner, thereby disabling any functionality that is only available to the owner."
      },
      "transferOwnership(address)": {
        "details": "Transfers ownership of the contract to a new account (`newOwner`). Can only be called by the current owner."
      },
      "updateBidRefundPeriod(uint256)": {
        "params": {
          "_newBidRefundPeriod": "The new bid refund period in seconds"
        }
      },
      "updateBidSettlementPeriod(uint256)": {
        "params": {
          "_newBidSettlementPeriod": "The new bid settlement period in seconds"
        }
      },
      "updateFee(uint256)": {
        "params": {
          "_newFee": "The new fee percentage (in basis points)"
        }
      },
      "updateFeeRecipient(address)": {
        "params": {
          "_newFeeRecipient": "The new address to receive fees"
        }
      },
      "updateListing(uint256,uint256,address)": {
        "params": {
          "_listingId": "The unique identifier of the listing to update",
          "_newAskPrice": "The new asking price for the listing",
          "_saleEthRecipient": "The new address to receive the ETH from the sale; must be a contract that can                          receive ETH or an EOA"
        }
      },
      "updateMailServerKeyHashAdapter(address)": {
        "params": {
          "_mailServerKeyHashAdapter": "The new mail server key hash adapter"
        }
      },
      "updateTransferDomainProcessor(address)": {
        "params": {
          "_transferDomainProcessor": "The new transfer domain processor"
        }
      },
      "withdrawBid(uint256)": {
        "params": {
          "_bidId": "The unique identifier of the bid to withdraw"
        }
      }
    },
    "version": 1
  },
  "userdoc": {
    "kind": "user",
    "methods": {
      "addAddressesToAllowlist(address[])": {
        "notice": "Adds passed addresses to an allow list. Addresses on the allow list are able to call allow listed functions."
      },
      "buyerReleaseFunds(uint256)": {
        "notice": "ONLY BUYER: Finalize a sale by releasing funds to the seller. Proof of transfer is not required because it is not in the buyer's interest to release funds unless they have received the domain. Note that the bid can be in ANY STATE when this function is called. Upon calling this function funds will be transferred to the seller and fees will be taken by the protocol. The listing and the bid will be deleted. The function will revert if: - The bid is not owned by the caller - The listing is not active (sold or withdrawn)"
      },
      "createBid(uint256,bytes32,string)": {
        "notice": "Creates a new bid for a listing. Transfers ETH from the buyer to the contract. Every buyer has a unique identifier, for Namecheap it's their username. The seller needs the raw buyerId to transfer the domain off-chain. To facilitate this, the buyer encrypts their buyerId using the  seller's encryption key and sends it along with the bid. The seller then decrypts the buyerId  using their private key to get the raw buyerId. DEV NOTE: We do not check that the encrypted buyerId is the same as the hashed buyerId. This must be done in the client! This does not affect the security of the protocol as the encrypted buyerId is only  used for communication between the buyer and the seller while maintaining privacy."
      },
      "createListing(bytes32,uint256,uint256,address,bytes,bytes32)": {
        "notice": "Creates listing for a domain. If ownership of domain changes offchain, the new owner will have to first register the domain on the domain registry contract. Then the new owner can create a listing for the domain. The old listing will be deleted from the old owner's  listings and the old listing is marked as NOT active, which prevents any new bids from being created on it and makes the old bids immediately withdrawable. We also allow the seller to specify a custom DKIM key hash for Namecheap if they want to opt out of using the managed DKIM key hash set in the transferDomainProcessor contract. The managed DKIM key hash *can* be  updated by us whenever Namecheap rotates their DKIM key. Function reverts if: - Caller is not domain owner on the domain registry contract - Ask price is less than min bid price - Sale ETH recipient is the zero address"
      },
      "deleteListing(uint256)": {
        "notice": "ONLY SELLER: Marks a listing as NOT active. Removes the listing from the seller's listings array and domain listing. If the listing has no bids, it is deleted from the exchange. Bids against the listing are left as is to allow the buyer to withdraw the bid."
      },
      "disableAllowlist()": {
        "notice": "Disable the allow list. When the allow list is disabled, any address is allowed to call functions with onlyAllowed modifier."
      },
      "disableInstantAccept()": {
        "notice": "Disables the instant accept flag for the buyer."
      },
      "enableAllowlist()": {
        "notice": "Enable the allow list. When the allow list is enabled, only approved addresses are allowed to functions with onlyAllowed modifier."
      },
      "enableInstantAccept()": {
        "notice": "Enables the instant accept flag for the buyer. This flag is used to indicate if the buyer has  configured their Namecheap account to accept ownership of domains immediately upon transfer.  DEV NOTE: We can not check that the buyer has actually enabled instant accept on Namecheap. It is only  an indicative flag to help the seller know if they can finalize the sale immediately or not. The seller may get tricked by a malicious buyer to initiate a transfer to them assuming instant accept is on. But if the buyer does not have instant accept enabled, the seller will get immediate feedback and they can  cancel the transfer immediately."
      },
      "finalizeSale((uint256[2],uint256[2][2],uint256[2],uint256[10]))": {
        "notice": "ONLY SELLER: Finalizes a sale by verifying the domain transfer and unlocking bid funds to  the listing owner. The seller can also finalize the sale with bids that have initiated a refund  including the ones that have expired based on timestamp but not withdrawn yet."
      },
      "getAllowedSellers()": {
        "notice": "Get all allowed sellers"
      },
      "getDomainListing(bytes32)": {
        "notice": "Get the active listing for given domain id"
      },
      "getListingBids(uint256[])": {
        "notice": "Returns the bids for given listingIds"
      },
      "getListings(uint256[])": {
        "notice": "Get listing information with listingId for a list of listingIds"
      },
      "getUserBids(address)": {
        "notice": "Returns the bids created by a user"
      },
      "getUserListings(address)": {
        "notice": "Returns all listings created by a user"
      },
      "increaseBidPrice(uint256,uint256)": {
        "notice": "ONLY BUYER: Increases the price of an existing bid. The new price can ONLY be higher  than the old price. The buyer must send the additional amount of ETH. The function reverts if - bid has initiated refund, caller is not bid owner or listing is not active - the new price is less than old price - msg.value is NOT STRICTLY EQUAL to than new price - old price"
      },
      "initialize(address,address,address)": {
        "notice": "Initializes the contract with domain verification and transfer processors. Can  only be called once by the contract owner "
      },
      "initiateRefund(uint256)": {
        "notice": "ONLY BUYER: Initiates the refund process for a bid. Can only be called by the bid owner  after the initial bid expiry period has passed."
      },
      "pauseMarketplace()": {
        "notice": "ONLY OWNER: Pauses listing and proof submission functionality for the marketplace.  Functionalites that are paused: - Listing creation and update - Bid creation and update - Sale finalization  Functinonalites that remain unpaused to allow users to retrieve funds in contract: - Bid refund initiation and withdrawal - Listing deletion - Manual settlement between buyer and seller"
      },
      "removeAddressesFromAllowlist(address[])": {
        "notice": "Removes passed addresses from an allow list. Addresses not on the allow list are unable to call allow listed functions."
      },
      "unpauseMarketplace()": {
        "notice": "ONLY OWNER: Restarts paused functionality for the marketplace."
      },
      "updateBidRefundPeriod(uint256)": {
        "notice": "ONLY OWNER: Updates the bid refund period"
      },
      "updateBidSettlementPeriod(uint256)": {
        "notice": "ONLY OWNER: Updates the minimum bid active period"
      },
      "updateFee(uint256)": {
        "notice": "ONLY OWNER: Updates the fee percentage for the marketplace"
      },
      "updateFeeRecipient(address)": {
        "notice": "ONLY OWNER: Updates the fee recipient address"
      },
      "updateListing(uint256,uint256,address)": {
        "notice": "ONLY SELLER: Updates the asking price of an existing listing. We don't update the existing bids against the listing because the newAskPrice is an indicative value. The new ask price must be greater than or equal to the existing min bid price. If seller wants to update the min bid price, they should delete the listing and create a new one with the new min bid price."
      },
      "updateMailServerKeyHashAdapter(address)": {
        "notice": "ONLY OWNER: Update the managed mail server key hash adapter"
      },
      "updateTransferDomainProcessor(address)": {
        "notice": "ONLY OWNER: Update the transfer domain processor"
      },
      "withdrawBid(uint256)": {
        "notice": "ONLY BUYER: Withdraws a bid after the refund period has ended. Transfers ETH back to the buyer."
      }
    },
    "version": 1
  },
  "storageLayout": {
    "storage": [
      {
        "astId": 7,
        "contract": "contracts/DomainExchange.sol:DomainExchange",
        "label": "_owner",
        "offset": 0,
        "slot": "0",
        "type": "t_address"
      },
      {
        "astId": 5099,
        "contract": "contracts/DomainExchange.sol:DomainExchange",
        "label": "isEnabled",
        "offset": 20,
        "slot": "0",
        "type": "t_bool"
      },
      {
        "astId": 5102,
        "contract": "contracts/DomainExchange.sol:DomainExchange",
        "label": "allowedAddresses",
        "offset": 0,
        "slot": "1",
        "type": "t_array(t_address)dyn_storage"
      },
      {
        "astId": 5106,
        "contract": "contracts/DomainExchange.sol:DomainExchange",
        "label": "isAllowed",
        "offset": 0,
        "slot": "2",
        "type": "t_mapping(t_address,t_bool)"
      },
      {
        "astId": 231,
        "contract": "contracts/DomainExchange.sol:DomainExchange",
        "label": "_status",
        "offset": 0,
        "slot": "3",
        "type": "t_uint256"
      },
      {
        "astId": 130,
        "contract": "contracts/DomainExchange.sol:DomainExchange",
        "label": "_paused",
        "offset": 0,
        "slot": "4",
        "type": "t_bool"
      },
      {
        "astId": 3228,
        "contract": "contracts/DomainExchange.sol:DomainExchange",
        "label": "listings",
        "offset": 0,
        "slot": "5",
        "type": "t_mapping(t_uint256,t_struct(Listing)3183_storage)"
      },
      {
        "astId": 3233,
        "contract": "contracts/DomainExchange.sol:DomainExchange",
        "label": "userListings",
        "offset": 0,
        "slot": "6",
        "type": "t_mapping(t_address,t_array(t_uint256)dyn_storage)"
      },
      {
        "astId": 3238,
        "contract": "contracts/DomainExchange.sol:DomainExchange",
        "label": "bids",
        "offset": 0,
        "slot": "7",
        "type": "t_mapping(t_uint256,t_struct(Bid)3206_storage)"
      },
      {
        "astId": 3243,
        "contract": "contracts/DomainExchange.sol:DomainExchange",
        "label": "userBids",
        "offset": 0,
        "slot": "8",
        "type": "t_mapping(t_address,t_array(t_uint256)dyn_storage)"
      },
      {
        "astId": 3247,
        "contract": "contracts/DomainExchange.sol:DomainExchange",
        "label": "domainListing",
        "offset": 0,
        "slot": "9",
        "type": "t_mapping(t_bytes32,t_uint256)"
      },
      {
        "astId": 3251,
        "contract": "contracts/DomainExchange.sol:DomainExchange",
        "label": "instantAcceptEnabled",
        "offset": 0,
        "slot": "10",
        "type": "t_mapping(t_address,t_bool)"
      },
      {
        "astId": 3253,
        "contract": "contracts/DomainExchange.sol:DomainExchange",
        "label": "fee",
        "offset": 0,
        "slot": "11",
        "type": "t_uint256"
      },
      {
        "astId": 3255,
        "contract": "contracts/DomainExchange.sol:DomainExchange",
        "label": "feeRecipient",
        "offset": 0,
        "slot": "12",
        "type": "t_address_payable"
      },
      {
        "astId": 3257,
        "contract": "contracts/DomainExchange.sol:DomainExchange",
        "label": "bidCounter",
        "offset": 0,
        "slot": "13",
        "type": "t_uint256"
      },
      {
        "astId": 3259,
        "contract": "contracts/DomainExchange.sol:DomainExchange",
        "label": "listingCounter",
        "offset": 0,
        "slot": "14",
        "type": "t_uint256"
      },
      {
        "astId": 3261,
        "contract": "contracts/DomainExchange.sol:DomainExchange",
        "label": "bidSettlementPeriod",
        "offset": 0,
        "slot": "15",
        "type": "t_uint256"
      },
      {
        "astId": 3263,
        "contract": "contracts/DomainExchange.sol:DomainExchange",
        "label": "bidRefundPeriod",
        "offset": 0,
        "slot": "16",
        "type": "t_uint256"
      },
      {
        "astId": 3265,
        "contract": "contracts/DomainExchange.sol:DomainExchange",
        "label": "isInitialized",
        "offset": 0,
        "slot": "17",
        "type": "t_bool"
      },
      {
        "astId": 3268,
        "contract": "contracts/DomainExchange.sol:DomainExchange",
        "label": "transferDomainProcessor",
        "offset": 1,
        "slot": "17",
        "type": "t_contract(ITransferDomainProcessor)6260"
      },
      {
        "astId": 3271,
        "contract": "contracts/DomainExchange.sol:DomainExchange",
        "label": "verifiedDomainRegistry",
        "offset": 0,
        "slot": "18",
        "type": "t_contract(IVerifiedDomainRegistry)6299"
      },
      {
        "astId": 3274,
        "contract": "contracts/DomainExchange.sol:DomainExchange",
        "label": "mailServerKeyHashAdapter",
        "offset": 0,
        "slot": "19",
        "type": "t_contract(IKeyHashAdapterV2)5340"
      }
    ],
    "types": {
      "t_address": {
        "encoding": "inplace",
        "label": "address",
        "numberOfBytes": "20"
      },
      "t_address_payable": {
        "encoding": "inplace",
        "label": "address payable",
        "numberOfBytes": "20"
      },
      "t_array(t_address)dyn_storage": {
        "base": "t_address",
        "encoding": "dynamic_array",
        "label": "address[]",
        "numberOfBytes": "32"
      },
      "t_array(t_uint256)dyn_storage": {
        "base": "t_uint256",
        "encoding": "dynamic_array",
        "label": "uint256[]",
        "numberOfBytes": "32"
      },
      "t_bool": {
        "encoding": "inplace",
        "label": "bool",
        "numberOfBytes": "1"
      },
      "t_bytes32": {
        "encoding": "inplace",
        "label": "bytes32",
        "numberOfBytes": "32"
      },
      "t_bytes_storage": {
        "encoding": "bytes",
        "label": "bytes",
        "numberOfBytes": "32"
      },
      "t_contract(IKeyHashAdapterV2)5340": {
        "encoding": "inplace",
        "label": "contract IKeyHashAdapterV2",
        "numberOfBytes": "20"
      },
      "t_contract(ITransferDomainProcessor)6260": {
        "encoding": "inplace",
        "label": "contract ITransferDomainProcessor",
        "numberOfBytes": "20"
      },
      "t_contract(IVerifiedDomainRegistry)6299": {
        "encoding": "inplace",
        "label": "contract IVerifiedDomainRegistry",
        "numberOfBytes": "20"
      },
      "t_mapping(t_address,t_array(t_uint256)dyn_storage)": {
        "encoding": "mapping",
        "key": "t_address",
        "label": "mapping(address => uint256[])",
        "numberOfBytes": "32",
        "value": "t_array(t_uint256)dyn_storage"
      },
      "t_mapping(t_address,t_bool)": {
        "encoding": "mapping",
        "key": "t_address",
        "label": "mapping(address => bool)",
        "numberOfBytes": "32",
        "value": "t_bool"
      },
      "t_mapping(t_bytes32,t_uint256)": {
        "encoding": "mapping",
        "key": "t_bytes32",
        "label": "mapping(bytes32 => uint256)",
        "numberOfBytes": "32",
        "value": "t_uint256"
      },
      "t_mapping(t_uint256,t_struct(Bid)3206_storage)": {
        "encoding": "mapping",
        "key": "t_uint256",
        "label": "mapping(uint256 => struct DomainExchange.Bid)",
        "numberOfBytes": "32",
        "value": "t_struct(Bid)3206_storage"
      },
      "t_mapping(t_uint256,t_struct(Listing)3183_storage)": {
        "encoding": "mapping",
        "key": "t_uint256",
        "label": "mapping(uint256 => struct DomainExchange.Listing)",
        "numberOfBytes": "32",
        "value": "t_struct(Listing)3183_storage"
      },
      "t_string_storage": {
        "encoding": "bytes",
        "label": "string",
        "numberOfBytes": "32"
      },
      "t_struct(Bid)3206_storage": {
        "encoding": "inplace",
        "label": "struct DomainExchange.Bid",
        "members": [
          {
            "astId": 3191,
            "contract": "contracts/DomainExchange.sol:DomainExchange",
            "label": "buyer",
            "offset": 0,
            "slot": "0",
            "type": "t_address"
          },
          {
            "astId": 3193,
            "contract": "contracts/DomainExchange.sol:DomainExchange",
            "label": "listingId",
            "offset": 0,
            "slot": "1",
            "type": "t_uint256"
          },
          {
            "astId": 3195,
            "contract": "contracts/DomainExchange.sol:DomainExchange",
            "label": "encryptedBuyerId",
            "offset": 0,
            "slot": "2",
            "type": "t_string_storage"
          },
          {
            "astId": 3197,
            "contract": "contracts/DomainExchange.sol:DomainExchange",
            "label": "buyerIdHash",
            "offset": 0,
            "slot": "3",
            "type": "t_bytes32"
          },
          {
            "astId": 3199,
            "contract": "contracts/DomainExchange.sol:DomainExchange",
            "label": "createdAt",
            "offset": 0,
            "slot": "4",
            "type": "t_uint256"
          },
          {
            "astId": 3201,
            "contract": "contracts/DomainExchange.sol:DomainExchange",
            "label": "expiryTimestamp",
            "offset": 0,
            "slot": "5",
            "type": "t_uint256"
          },
          {
            "astId": 3203,
            "contract": "contracts/DomainExchange.sol:DomainExchange",
            "label": "price",
            "offset": 0,
            "slot": "6",
            "type": "t_uint256"
          },
          {
            "astId": 3205,
            "contract": "contracts/DomainExchange.sol:DomainExchange",
            "label": "refundInitiated",
            "offset": 0,
            "slot": "7",
            "type": "t_bool"
          }
        ],
        "numberOfBytes": "256"
      },
      "t_struct(Listing)3183_storage": {
        "encoding": "inplace",
        "label": "struct DomainExchange.Listing",
        "members": [
          {
            "astId": 3163,
            "contract": "contracts/DomainExchange.sol:DomainExchange",
            "label": "seller",
            "offset": 0,
            "slot": "0",
            "type": "t_address"
          },
          {
            "astId": 3165,
            "contract": "contracts/DomainExchange.sol:DomainExchange",
            "label": "saleEthRecipient",
            "offset": 0,
            "slot": "1",
            "type": "t_address_payable"
          },
          {
            "astId": 3167,
            "contract": "contracts/DomainExchange.sol:DomainExchange",
            "label": "dkimKeyHash",
            "offset": 0,
            "slot": "2",
            "type": "t_bytes32"
          },
          {
            "astId": 3169,
            "contract": "contracts/DomainExchange.sol:DomainExchange",
            "label": "encryptionKey",
            "offset": 0,
            "slot": "3",
            "type": "t_bytes_storage"
          },
          {
            "astId": 3171,
            "contract": "contracts/DomainExchange.sol:DomainExchange",
            "label": "domainId",
            "offset": 0,
            "slot": "4",
            "type": "t_bytes32"
          },
          {
            "astId": 3173,
            "contract": "contracts/DomainExchange.sol:DomainExchange",
            "label": "createdAt",
            "offset": 0,
            "slot": "5",
            "type": "t_uint256"
          },
          {
            "astId": 3175,
            "contract": "contracts/DomainExchange.sol:DomainExchange",
            "label": "askPrice",
            "offset": 0,
            "slot": "6",
            "type": "t_uint256"
          },
          {
            "astId": 3177,
            "contract": "contracts/DomainExchange.sol:DomainExchange",
            "label": "minBidPrice",
            "offset": 0,
            "slot": "7",
            "type": "t_uint256"
          },
          {
            "astId": 3179,
            "contract": "contracts/DomainExchange.sol:DomainExchange",
            "label": "isActive",
            "offset": 0,
            "slot": "8",
            "type": "t_bool"
          },
          {
            "astId": 3182,
            "contract": "contracts/DomainExchange.sol:DomainExchange",
            "label": "bids",
            "offset": 0,
            "slot": "9",
            "type": "t_array(t_uint256)dyn_storage"
          }
        ],
        "numberOfBytes": "320"
      },
      "t_uint256": {
        "encoding": "inplace",
        "label": "uint256",
        "numberOfBytes": "32"
      }
    }
  }
}