{
  "address": "0xf0f1F847e2e7A33d5D38b538465B1A57Abb349b0",
  "abi": [
    {
      "inputs": [
        {
          "internalType": "address",
          "name": "_ramp",
          "type": "address"
        },
        {
          "internalType": "contract IKeyHashAdapterV2",
          "name": "_hdfcMailserverKeyHashAdapter",
          "type": "address"
        },
        {
          "internalType": "contract INullifierRegistry",
          "name": "_nullifierRegistry",
          "type": "address"
        },
        {
          "internalType": "string",
          "name": "_emailFromAddress",
          "type": "string"
        },
        {
          "internalType": "uint256",
          "name": "_timestampBuffer",
          "type": "uint256"
        }
      ],
      "stateMutability": "nonpayable",
      "type": "constructor"
    },
    {
      "anonymous": false,
      "inputs": [
        {
          "indexed": true,
          "internalType": "address",
          "name": "previousOwner",
          "type": "address"
        },
        {
          "indexed": true,
          "internalType": "address",
          "name": "newOwner",
          "type": "address"
        }
      ],
      "name": "OwnershipTransferred",
      "type": "event"
    },
    {
      "inputs": [],
      "name": "emailFromAddress",
      "outputs": [
        {
          "internalType": "bytes",
          "name": "",
          "type": "bytes"
        }
      ],
      "stateMutability": "view",
      "type": "function"
    },
    {
      "inputs": [],
      "name": "getEmailFromAddress",
      "outputs": [
        {
          "internalType": "bytes",
          "name": "",
          "type": "bytes"
        }
      ],
      "stateMutability": "view",
      "type": "function"
    },
    {
      "inputs": [
        {
          "internalType": "bytes32",
          "name": "_keyHash",
          "type": "bytes32"
        }
      ],
      "name": "isMailServerKeyHash",
      "outputs": [
        {
          "internalType": "bool",
          "name": "",
          "type": "bool"
        }
      ],
      "stateMutability": "view",
      "type": "function"
    },
    {
      "inputs": [],
      "name": "mailServerKeyHashAdapter",
      "outputs": [
        {
          "internalType": "contract IKeyHashAdapterV2",
          "name": "",
          "type": "address"
        }
      ],
      "stateMutability": "view",
      "type": "function"
    },
    {
      "inputs": [],
      "name": "nullifierRegistry",
      "outputs": [
        {
          "internalType": "contract INullifierRegistry",
          "name": "",
          "type": "address"
        }
      ],
      "stateMutability": "view",
      "type": "function"
    },
    {
      "inputs": [],
      "name": "owner",
      "outputs": [
        {
          "internalType": "address",
          "name": "",
          "type": "address"
        }
      ],
      "stateMutability": "view",
      "type": "function"
    },
    {
      "inputs": [
        {
          "components": [
            {
              "internalType": "uint256[2]",
              "name": "a",
              "type": "uint256[2]"
            },
            {
              "internalType": "uint256[2][2]",
              "name": "b",
              "type": "uint256[2][2]"
            },
            {
              "internalType": "uint256[2]",
              "name": "c",
              "type": "uint256[2]"
            },
            {
              "internalType": "uint256[15]",
              "name": "signals",
              "type": "uint256[15]"
            }
          ],
          "internalType": "struct IHDFCSendProcessor.SendProof",
          "name": "_proof",
          "type": "tuple"
        }
      ],
      "name": "processProof",
      "outputs": [
        {
          "internalType": "uint256",
          "name": "amount",
          "type": "uint256"
        },
        {
          "internalType": "uint256",
          "name": "timestamp",
          "type": "uint256"
        },
        {
          "internalType": "bytes32",
          "name": "offRamperIdHash",
          "type": "bytes32"
        },
        {
          "internalType": "bytes32",
          "name": "onRamperIdHash",
          "type": "bytes32"
        },
        {
          "internalType": "bytes32",
          "name": "intentHash",
          "type": "bytes32"
        }
      ],
      "stateMutability": "nonpayable",
      "type": "function"
    },
    {
      "inputs": [],
      "name": "ramp",
      "outputs": [
        {
          "internalType": "address",
          "name": "",
          "type": "address"
        }
      ],
      "stateMutability": "view",
      "type": "function"
    },
    {
      "inputs": [],
      "name": "renounceOwnership",
      "outputs": [],
      "stateMutability": "nonpayable",
      "type": "function"
    },
    {
      "inputs": [
        {
          "internalType": "string",
          "name": "_emailFromAddress",
          "type": "string"
        }
      ],
      "name": "setEmailFromAddress",
      "outputs": [],
      "stateMutability": "nonpayable",
      "type": "function"
    },
    {
      "inputs": [
        {
          "internalType": "contract IKeyHashAdapterV2",
          "name": "_mailServerKeyHashAdapter",
          "type": "address"
        }
      ],
      "name": "setMailserverKeyHashAdapter",
      "outputs": [],
      "stateMutability": "nonpayable",
      "type": "function"
    },
    {
      "inputs": [
        {
          "internalType": "uint256",
          "name": "_timestampBuffer",
          "type": "uint256"
        }
      ],
      "name": "setTimestampBuffer",
      "outputs": [],
      "stateMutability": "nonpayable",
      "type": "function"
    },
    {
      "inputs": [],
      "name": "timestampBuffer",
      "outputs": [
        {
          "internalType": "uint256",
          "name": "",
          "type": "uint256"
        }
      ],
      "stateMutability": "view",
      "type": "function"
    },
    {
      "inputs": [
        {
          "internalType": "address",
          "name": "newOwner",
          "type": "address"
        }
      ],
      "name": "transferOwnership",
      "outputs": [],
      "stateMutability": "nonpayable",
      "type": "function"
    },
    {
      "inputs": [
        {
          "internalType": "uint256[2]",
          "name": "_pA",
          "type": "uint256[2]"
        },
        {
          "internalType": "uint256[2][2]",
          "name": "_pB",
          "type": "uint256[2][2]"
        },
        {
          "internalType": "uint256[2]",
          "name": "_pC",
          "type": "uint256[2]"
        },
        {
          "internalType": "uint256[15]",
          "name": "_pubSignals",
          "type": "uint256[15]"
        }
      ],
      "name": "verifyProof",
      "outputs": [
        {
          "internalType": "bool",
          "name": "",
          "type": "bool"
        }
      ],
      "stateMutability": "view",
      "type": "function"
    }
  ],
  "transactionHash": "0x35aa60bdf7bc0613d180d17d993b4683817ffb551cf40cc8a549d6862b5015ed",
  "args": [
    "0xb4A7486b0EFa264D5FC6A8181bfc7A150cD57849",
    "0x1A2dcc7AfC7Bf09bE718E54466aA18166C00E4FD",
    "0xAf0196f22a1383B779E3f833AD35BFf38722c8AD",
    "alerts@hdfcbank.net",
    "30"
  ],
  "numDeployments": 4,
  "solcInputHash": "96d924ca10695a353bfa4c997166694e",
  "bytecode": "0x60a06040523480156200001157600080fd5b5060405162002de438038062002de483398101604081905262000034916200011a565b848484848462000044336200009b565b6001600160a01b03858116608052600180546001600160a01b031990811687841617909155600280549091169185169190911790556003620000878382620002c9565b506004555062000395975050505050505050565b600080546001600160a01b038381166001600160a01b0319831681178455604051919092169283917f8be0079c531659141344cd1fd0a4f28419497f9722a3daafe3b4186f6b6457e09190a35050565b6001600160a01b03811681146200010157600080fd5b50565b634e487b7160e01b600052604160045260246000fd5b600080600080600060a086880312156200013357600080fd5b85516200014081620000eb565b809550506020808701516200015581620000eb565b60408801519095506200016881620000eb565b60608801519094506001600160401b03808211156200018657600080fd5b818901915089601f8301126200019b57600080fd5b815181811115620001b057620001b062000104565b604051601f8201601f19908116603f01168101908382118183101715620001db57620001db62000104565b816040528281528c86848701011115620001f457600080fd5b600093505b82841015620002185784840186015181850187015292850192620001f9565b6000868483010152809750505050505050608086015190509295509295909350565b600181811c908216806200024f57607f821691505b6020821081036200027057634e487b7160e01b600052602260045260246000fd5b50919050565b601f821115620002c457600081815260208120601f850160051c810160208610156200029f5750805b601f850160051c820191505b81811015620002c057828155600101620002ab565b5050505b505050565b81516001600160401b03811115620002e557620002e562000104565b620002fd81620002f684546200023a565b8462000276565b602080601f8311600181146200033557600084156200031c5750858301515b600019600386901b1c1916600185901b178555620002c0565b600085815260208120601f198616915b82811015620003665788860151825594840194600190910190840162000345565b5085821015620003855787850151600019600388901b60f8161c191681555b5050505050600190811b01905550565b608051612a2d620003b76000396000818160ff01526103160152612a2d6000f3fe608060405234801561001057600080fd5b50600436106100f55760003560e01c8063bf93fde111610097578063dbac582111610066578063dbac582114610220578063f054a9a314610237578063f2fde38b1461024a578063f6c7226b1461025d57600080fd5b8063bf93fde1146101b5578063c0d05fed146101f0578063ced1e97814610205578063d0b71f991461020d57600080fd5b80638da5cb5b116100d35780638da5cb5b1461016b578063a8ef333f1461017c578063b2a3fda41461018f578063b870676c146101a257600080fd5b806315d276e1146100fa57806319d091521461013e578063715018a614610161575b600080fd5b6101217f000000000000000000000000000000000000000000000000000000000000000081565b6040516001600160a01b0390911681526020015b60405180910390f35b61015161014c366004612309565b610270565b6040519015158152602001610135565b6101696102e4565b005b6000546001600160a01b0316610121565b600154610121906001600160a01b031681565b61016961019d366004612309565b6102f8565b600254610121906001600160a01b031681565b6101c86101c3366004612322565b610305565b604080519586526020860194909452928401919091526060830152608082015260a001610135565b6101f86105b1565b604051610135919061235f565b6101f861063f565b61016961021b3660046123a7565b6106d1565b61022960045481565b604051908152602001610135565b6101516102453660046123dc565b6106fb565b6101696102583660046123a7565b611080565b61016961026b366004612458565b6110f6565b600154604051630ce848a960e11b8152600481018390526000916001600160a01b0316906319d0915290602401602060405180830381865afa1580156102ba573d6000803e3d6000fd5b505050506040513d601f19601f820116820180604052508101906102de9190612509565b92915050565b6102ec61110e565b6102f66000611168565b565b61030061110e565b600455565b600080808080336001600160a01b037f000000000000000000000000000000000000000000000000000000000000000016146103885760405162461bcd60e51b815260206004820181905260248201527f4f6e6c792052616d702063616e2063616c6c20746869732066756e6374696f6e60448201526064015b60405180910390fd5b6040805163f054a9a360e01b8152309163f054a9a3916103bb918a919082019060c083019061010084019060040161252b565b602060405180830381865afa1580156103d8573d6000803e3d6000fd5b505050506040513d601f19601f820116820180604052508101906103fc9190612509565b6104385760405162461bcd60e51b815260206004820152600d60248201526c24b73b30b634b210283937b7b360991b604482015260640161037f565b610446610100870135610270565b6104925760405162461bcd60e51b815260206004820152601b60248201527f496e76616c6964206d61696c736572766572206b657920686173680000000000604482015260640161037f565b60006104a58761010001600160046111b8565b905060036040516104b691906125c2565b6040518091039020816040516020016104cf9190612638565b60405160208183030381529060405280519060200120146105325760405162461bcd60e51b815260206004820152601a60248201527f496e76616c696420656d61696c2066726f6d2061646472657373000000000000604482015260640161037f565b61054e60066105488961010001600460066111b8565b90611293565b9550600061056388610100016006600b6111b8565b905060045461057182611469565b61057b919061266a565b95506102808801359450610260880135935061059b6102a0890135611616565b509496939592945090926102c090920135919050565b600380546105be9061258e565b80601f01602080910402602001604051908101604052809291908181526020018280546105ea9061258e565b80156106375780601f1061060c57610100808354040283529160200191610637565b820191906000526020600020905b81548152906001019060200180831161061a57829003601f168201915b505050505081565b60606003805461064e9061258e565b80601f016020809104026020016040519081016040528092919081815260200182805461067a9061258e565b80156106c75780601f1061069c576101008083540402835291602001916106c7565b820191906000526020600020905b8154815290600101906020018083116106aa57829003601f168201915b5050505050905090565b6106d961110e565b600180546001600160a01b0319166001600160a01b0392909216919091179055565b6000610f84565b7f30644e72e131a029b85045b68181585d97816a916871ca8d3c208c16d87cfd478110610733576000805260206000f35b50565b600060405183815284602082015285604082015260408160608360076107d05a03fa915081610769576000805260206000f35b825160408201526020830151606082015260408360808360066107d05a03fa9150508061079a576000805260206000f35b5050505050565b7f14c53c1da85bde01b70103c0d2b449019c9975217f4aab6e0724364c81f3745f85527f2b87bbd4b6e9cd73a17fb4379d0663b61ceac975b281ca3c944171c2871a0ab960208601526000608086018661083e87357f06bf2f532d41936f0903bbab2f250ae4f84396489746bc09bc4225c739b7dd227f04a66ccf45e797e146088ee5ae8e597d7f76917063b7b9f5ac7220d872860f9c84610736565b61088e60208801357f0e01fcea87f0a2788b9ff2887d2e2875856dcf7a3fce40554c2aade705ec5f487f245dea79affab668ddbfe20927095b4f5dddcd4e7936017a1f57a893de98467d84610736565b6108de60408801357f018165fa27e109b6cc55c33b0d9a9ec87676edc8996f929bc0fa7110707cdeff7f1ec06840b537fbfcfbf6d6dcecd4f1b19ad19f226d16eb6855ebbdc69075566284610736565b61092e60608801357f1f5aefd72a1b8a9225a892d3eeb0dcd761e2f2fdff007eae86fa0d8c3c16f6d97f0c4f215bff6fcd5939ba80db93047ca67cbd959eb7d02e7d40e2c372b8b4b76284610736565b61097e60808801357f2995f2760b334bd8949af0fa5fc504dd9921a95ab0ea438a4f2a317a022ec91d7f0a0348d7509bcb8af0e5c9df8b9d05615c982c42efb25df283313c22dcd66f9884610736565b6109cd60a08801357f0ceb5b9f996b4a9017b4bcef9895d8d0b2c5e4ffa659c878ad94583a20f3bdd37e7af5809ba41a4fdcd8dad6e48b25097fafd03fa5c787117a26c24df3c2921e84610736565b610a1d60c08801357f126161b87d4ddfea8cdabae744faba8cdaf14986849e28b6269dcc10dff8c7c07f243853a7a2af60f52dfbcce172097e71390b8cca88851fbb57f07c1df8e4688784610736565b610a6d60e08801357f1e157f6ec9066d58b2fa608bc591c91d952689bb14a3787dd729fa4f5806ef9a7f1abbc2f24efed5cdb0fd964bc9a478b47beebc84425eabda810b0bc8f455dd7584610736565b610abe6101008801357f0f91adafdcfdb7a6ebefbe7605e2dac7b197595ff0538696b7e31142e15b945a7f03280adf97d8a238115f6ac2561aa74758fb26ac6c1d8280e87981233e85f1c084610736565b610b0f6101208801357f191dec0dee61d83463fe7b402d9ab59e9b12bd1f9603ebef8f58d80489a450be7f2b49d1215ab831254c43df4da8e03b6580afc311d88ad0b66a70fdec2b50a9ad84610736565b610b606101408801357f145bf1d75157fb271c322158614b22fa071618dbf7b3b9680f350934105bf3c37f223ed020f5dc4772d3a3f2486a4ff52959a20a4b087c9e39fc8144893dec1dc684610736565b610bb16101608801357f2ba925be73847b2ef077c129ce1cca9c8376f745b75fb034ee30782a6d1d451e7f1b03e6d8a2f800beafab659b52baa9965f0b8d0f91a1b7e35376bcf2e29feee284610736565b610c026101808801357f19070a21e0b341d739884403b20e32d60da633f4dd93c1789a6a1dab169238187f15b0098dc8f0701a48c7603ae3bae766ea91ee0c1f4086604563a1cba2effac984610736565b610c536101a08801357f0ab4ff59b39f2dee6ec6c270e8f9e5a25fe997366918de05c89c45efe41b9eaa7f238188e8e0d434a20ae3f8865c6dea1153fd11251a39b45efc806aef0dbe7e3984610736565b610ca46101c08801357f287ebd49cc60e9a321f363e51aa155b9ea680547659677e7a8ad688a19a321fd7f1b47d64bcc08f695586e04a28da2e4c7bc87d5ebf4fb8370ce62bbeb405cfd6784610736565b50823581527f30644e72e131a029b85045b68181585d97816a916871ca8d3c208c16d87cfd4760208401357f30644e72e131a029b85045b68181585d97816a916871ca8d3c208c16d87cfd4703066020820152833560408201526020840135606082015260408401356080820152606084013560a08201527f2d4d9aa7e302d9df41749d5507949d05dbea33fbb16c643b22f599a2be6df2e260c08201527f14bedd503c37ceb061d8ec60209fe345ce89830a19230301f076caff004d192660e08201527f0967032fcbf776d1afc985f88877f182d38480a653f2decaa9794cbc3bf3060c6101008201527f0e187847ad4c798374d0d6732bf501847dd68bc0e071241e0213bc7fc13db7ab6101208201527f304cfbd1e08a704a99f5e847d93f8c3caafddec46b7a0d379da69a4d112346a76101408201527f1739c1b1a457a8c7313123d24d2f9192f896b7c63eea05a9d57f06547ad0cec8610160820152600087015161018082015260206000018701516101a08201527f198e9393920d483a7260bfb731fb5d25f1aa493335a9e71297e485b7aef312c26101c08201527f1800deef121f1e76426a00665e5c4479674322d4f75edadd46debd5cd992f6ed6101e08201527f090689d0585ff075ec9e99ad690c3395bc4b313370b38ef355acdadcd122975b6102008201527f12c85ea5db8c6deb4aab71808dcb408fe3d1e7690c43d37b4ce6cc0166fa7daa610220820152843561024082015260208501356102608201527f189d861163188b8cdf69d03d6f21a04520b76bbd9d308a5ed3eb45f1fa4f774f6102808201527f22712da5f2a16a89571bd5ea4665e01fb3e37df6ad2a3d3e237eac654c474b5d6102a08201527f17d342b4f32118dbf7669c405672d4180117765a6949c00d57cd904e3a6b72196102c08201527f1d8f8e1a03b34f468df09b98797ae6ed2b4b0505d9b27de97e8380e9d7fd0d3b6102e08201526020816103008360086107d05a03fa9051169695505050505050565b6040516103808101604052610f9c6000840135610702565b610fa96020840135610702565b610fb66040840135610702565b610fc36060840135610702565b610fd06080840135610702565b610fdd60a0840135610702565b610fea60c0840135610702565b610ff760e0840135610702565b611005610100840135610702565b611013610120840135610702565b611021610140840135610702565b61102f610160840135610702565b61103d610180840135610702565b61104b6101a0840135610702565b6110596101c0840135610702565b6110676101e0840135610702565b611074818486888a6107a1565b90508060005260206000f35b61108861110e565b6001600160a01b0381166110ed5760405162461bcd60e51b815260206004820152602660248201527f4f776e61626c653a206e6577206f776e657220697320746865207a65726f206160448201526564647265737360d01b606482015260840161037f565b61073381611168565b6110fe61110e565b600361110a82826126cc565b5050565b6000546001600160a01b031633146102f65760405162461bcd60e51b815260206004820181905260248201527f4f776e61626c653a2063616c6c6572206973206e6f7420746865206f776e6572604482015260640161037f565b600080546001600160a01b038381166001600160a01b0319831681178455604051919092169283917f8be0079c531659141344cd1fd0a4f28419497f9722a3daafe3b4186f6b6457e09190a35050565b606060006111c6848461278c565b60ff1667ffffffffffffffff8111156111e1576111e1612442565b60405190808252806020026020018201604052801561120a578160200160208202803683370190505b50905060ff84165b8360ff1681101561126f578581600f811061122f5761122f612578565b60200201358261124260ff8816846127a5565b8151811061125257611252612578565b602090810291909101015280611267816127b8565b915050611212565b5061128a6007825161128191906127d1565b8290600761172a565b95945050505050565b600082818080805b84518110156113e357603060f81b8582815181106112bb576112bb612578565b01602001516001600160f81b031916108015906112fc5750603960f81b8582815181106112ea576112ea612578565b01602001516001600160f81b03191611155b1561133f57603085828151811061131557611315612578565b0160200151611327919060f81c6127a5565b61133285600a6127d1565b61133c919061266a565b93505b8115611353578261134f816127b8565b9350505b84818151811061136557611365612578565b01602001516001600160f81b031916601760f91b036113d15781156113cc5760405162461bcd60e51b815260206004820152601c60248201527f537472696e6720686173206d756c7469706c6520646563696d616c7300000000604482015260640161037f565b600191505b806113db816127b8565b91505061129b565b508582111561143f5760405162461bcd60e51b815260206004820152602260248201527f537472696e672068617320746f6f206d616e7920646563696d616c20706c6163604482015261657360f01b606482015260840161037f565b61144982876127a5565b61145490600a6128cc565b61145e90846127d1565b979650505050505050565b60006114736122e1565b60008060005b855181101561152d5785818151811061149457611494612578565b6020910101516001600160f81b031916600160fd1b14806114d957508581815181106114c2576114c2612578565b6020910101516001600160f81b031916601d60f91b145b1561151b576114e9868383611a5b565b8484600881106114fb576114fb612578565b602002015261150b81600161266a565b915082611517816127b8565b9350505b80611525816127b8565b915050611479565b50845161153d9086908390611a5b565b83836008811061154f5761154f612578565b60200201526007821461159a5760405162461bcd60e51b8152602060048201526013602482015272496e76616c6964206461746520737472696e6760681b604482015260640161037f565b60006115f96115b2828660035b602002015190611293565b60408601516115c090611b28565b6115cd60008860016115a7565b6115da60008960046115a7565b6115e760008a60056115a7565b6115f460008b60066115a7565b611f5e565b905061160c818560076020020151611faf565b9695505050505050565b60025460405163169394bb60e01b8152600481018390526001600160a01b039091169063169394bb90602401602060405180830381865afa15801561165f573d6000803e3d6000fd5b505050506040513d601f19601f820116820180604052508101906116839190612509565b156116d05760405162461bcd60e51b815260206004820152601f60248201527f4e756c6c69666965722068617320616c7265616479206265656e207573656400604482015260640161037f565b600254604051632dea6f9960e11b8152600481018390526001600160a01b0390911690635bd4df3290602401600060405180830381600087803b15801561171657600080fd5b505af115801561079a573d6000803e3d6000fd5b606060008083865161173c91906127d1565b67ffffffffffffffff81111561175457611754612442565b6040519080825280601f01601f19166020018201604052801561177e576020820181803683370190505b5090506000805b87518161ffff161015611935576000888261ffff16815181106117aa576117aa612578565b6020026020010151905060008767ffffffffffffffff8111156117cf576117cf612442565b6040519080825280602002602001820160405280156117f8578160200160208202803683370190505b50905060005b8881101561184a576118118160086127d1565b83901c82828151811061182657611826612578565b60ff9092166020928302919091019091015280611842816127b8565b9150506117fe565b5060005b8881101561191f57600082828151811061186a5761186a612578565b602002602001015160ff169050806000146118e2578060f81b87878151811061189557611895612578565b60200101906001600160f81b031916908160001a905350856118b6816127b8565b96506118c590506002896128ee565b60ff166000036118dd576118da600189612910565b97505b611905565b6118ed6002896128ee565b60ff1660010361190557611902600189612910565b97505b5060089290921c9180611917816127b8565b91505061184e565b505050808061192d90612929565b915050611785565b5060018360ff1610156119d65760405162461bcd60e51b815260206004820152605760248201527f4e6f207061636b656420627974657320666f756e642120496e76616c6964206660448201527f696e616c207374617465206f66207061636b656420627974657320696e20656d60648201527f61696c3b2076616c7565206973206c696b656c79203021000000000000000000608482015260a40161037f565b85811115611a445760405162461bcd60e51b815260206004820152603560248201527f5061636b6564206279746573206d6f7265207468616e20616c6c6f776564206d6044820152746178206e756d626572206f66207369676e616c732160581b606482015260840161037f565b6000611a4f836120a6565b98975050505050505050565b6060836000611a6a85856127a5565b67ffffffffffffffff811115611a8257611a82612442565b6040519080825280601f01601f191660200182016040528015611aac576020820181803683370190505b509050845b84811015611b1e57828181518110611acb57611acb612578565b01602001516001600160f81b03191682611ae588846127a5565b81518110611af557611af5612578565b60200101906001600160f81b031916908160001a90535080611b16816127b8565b915050611ab1565b5095945050505050565b60007f4a18c9083b936e0757952a5d9d34b5575d427661506fbe9908c2a1da3f3e80d982604051602001611b5c9190612638565b6040516020818303038152906040528051906020012003611b7f57506001919050565b7f78ec83563b948f0ac242d7eaefd592adf65964e11cc27f11ae41faa99a1e990a82604051602001611bb19190612638565b6040516020818303038152906040528051906020012003611bd457506002919050565b7f2bab7d3f253ae0e3722abcc2571faced288946968116996ffc3de31fb7348ec382604051602001611c069190612638565b6040516020818303038152906040528051906020012003611c2957506003919050565b7fc6f33aba2381b69f05afc78835e501547a9daffa08d674623068c378423ac18882604051602001611c5b9190612638565b6040516020818303038152906040528051906020012003611c7e57506004919050565b7fdb5ee1006003349b29eda5be5fe34f728659f836a948d4ec595114aebbb159d382604051602001611cb09190612638565b6040516020818303038152906040528051906020012003611cd357506005919050565b7f44a0046ab54c1458fc3c39dfcadc52509ad809730ec301470d2d747dbe77242d82604051602001611d059190612638565b6040516020818303038152906040528051906020012003611d2857506006919050565b7f74d9e46f10329e61dc333ff1800274be516163110de31961b4e0c61de3e90c5c82604051602001611d5a9190612638565b6040516020818303038152906040528051906020012003611d7d57506007919050565b7fed40c08ab6f3d9c5d71155e25b1271d5b9eca8c27bf89e1d2293fcb77c5abf6482604051602001611daf9190612638565b6040516020818303038152906040528051906020012003611dd257506008919050565b7f7d801199c77197eb9933a633741db90c2c6f3d7d14aca35f5f80a41b4a8863ac82604051602001611e049190612638565b6040516020818303038152906040528051906020012003611e2757506009919050565b7fb7841ed82fc96483f061ddc0b19846855df22558c4aea3b3b058ce0d9f1f516482604051602001611e599190612638565b6040516020818303038152906040528051906020012003611e7c5750600a919050565b7f487851233e540dddea8f904d6802590aead5463b1c44965d68348bb7def25cf482604051602001611eae9190612638565b6040516020818303038152906040528051906020012003611ed15750600b919050565b7f3bd971d8758c58fe0c4d635451404450c5edda87d624a89819e0be5a122933dc82604051602001611f039190612638565b6040516020818303038152906040528051906020012003611f265750600c919050565b60405162461bcd60e51b815260206004820152600d60248201526c092dcecc2d8d2c840dadedce8d609b1b604482015260640161037f565b600081611f6c603c856127d1565b611f78610e10876127d1565b62015180611f878b8b8b6121b0565b611f9191906127d1565b611f9b919061266a565b611fa5919061266a565b61145e919061266a565b600081516005146120025760405162461bcd60e51b815260206004820152601760248201527f496e76616c69642074696d657a6f6e65206f6666736574000000000000000000604482015260640161037f565b6000612015816105488560016003611a5b565b9050600061202a816105488660036005611a5b565b9050600061203982603c6127d1565b61204584610e106127d1565b61204f919061266a565b9050600061205f86826001611a5b565b60008151811061207157612071612578565b01602001516001600160f81b0319169050602b60f81b811461209c57612097828861266a565b61145e565b61145e82886127a5565b8051606090829060005b82518110156120fb578281815181106120cb576120cb612578565b01602001516001600160f81b0319166000036120e9578091506120fb565b806120f3816127b8565b9150506120b0565b5060008167ffffffffffffffff81111561211757612117612442565b6040519080825280601f01601f191660200182016040528015612141576020820181803683370190505b50905060005b828110156121a75783818151811061216157612161612578565b602001015160f81c60f81b82828151811061217e5761217e612578565b60200101906001600160f81b031916908160001a9053508061219f816127b8565b915050612147565b50949350505050565b60006107b28410156121c157600080fd5b838383600062253d8c60046064600c6121db600e8861294a565b6121e59190612971565b6121f18861132461299f565b6121fb919061299f565b6122059190612971565b6122109060036129c7565b61221a9190612971565b600c80612228600e8861294a565b6122329190612971565b61223d90600c6129c7565b61224860028861294a565b612252919061294a565b61225e9061016f6129c7565b6122689190612971565b6004600c612277600e8961294a565b6122819190612971565b61228d896112c061299f565b612297919061299f565b6122a3906105b56129c7565b6122ad9190612971565b6122b9617d4b8761294a565b6122c3919061299f565b6122cd919061299f565b6122d7919061294a565b611a4f919061294a565b6040518061010001604052806008905b60608152602001906001900390816122f15790505090565b60006020828403121561231b57600080fd5b5035919050565b60006102e0828403121561233557600080fd5b50919050565b60005b8381101561235657818101518382015260200161233e565b50506000910152565b602081526000825180602084015261237e81604085016020870161233b565b601f01601f19169190910160400192915050565b6001600160a01b038116811461073357600080fd5b6000602082840312156123b957600080fd5b81356123c481612392565b9392505050565b80604081018310156102de57600080fd5b6000806000806102e08086880312156123f457600080fd5b6123fe87876123cb565b945060c086018781111561241157600080fd5b60408701945061242188826123cb565b93505086818701111561243357600080fd5b50929591945092610100019150565b634e487b7160e01b600052604160045260246000fd5b60006020828403121561246a57600080fd5b813567ffffffffffffffff8082111561248257600080fd5b818401915084601f83011261249657600080fd5b8135818111156124a8576124a8612442565b604051601f8201601f19908116603f011681019083821181831017156124d0576124d0612442565b816040528281528760208487010111156124e957600080fd5b826020860160208301376000928101602001929092525095945050505050565b60006020828403121561251b57600080fd5b815180151581146123c457600080fd5b6102e081016040808784378083018660005b600281101561255a5783828437918301919083019060010161253d565b505050808560c0850137506101e08361010084013795945050505050565b634e487b7160e01b600052603260045260246000fd5b600181811c908216806125a257607f821691505b60208210810361233557634e487b7160e01b600052602260045260246000fd5b60008083546125d08161258e565b600182811680156125e857600181146125fd5761262c565b60ff198416875282151583028701945061262c565b8760005260208060002060005b858110156126235781548a82015290840190820161260a565b50505082870194505b50929695505050505050565b6000825161264a81846020870161233b565b9190910192915050565b634e487b7160e01b600052601160045260246000fd5b808201808211156102de576102de612654565b601f8211156126c757600081815260208120601f850160051c810160208610156126a45750805b601f850160051c820191505b818110156126c3578281556001016126b0565b5050505b505050565b815167ffffffffffffffff8111156126e6576126e6612442565b6126fa816126f4845461258e565b8461267d565b602080601f83116001811461272f57600084156127175750858301515b600019600386901b1c1916600185901b1785556126c3565b600085815260208120601f198616915b8281101561275e5788860151825594840194600190910190840161273f565b508582101561277c5787850151600019600388901b60f8161c191681555b5050505050600190811b01905550565b60ff82811682821603908111156102de576102de612654565b818103818111156102de576102de612654565b6000600182016127ca576127ca612654565b5060010190565b80820281158282048414176102de576102de612654565b600181815b8085111561282357816000190482111561280957612809612654565b8085161561281657918102915b93841c93908002906127ed565b509250929050565b60008261283a575060016102de565b81612847575060006102de565b816001811461285d576002811461286757612883565b60019150506102de565b60ff84111561287857612878612654565b50506001821b6102de565b5060208310610133831016604e8410600b84101617156128a6575081810a6102de565b6128b083836127e8565b80600019048211156128c4576128c4612654565b029392505050565b60006123c4838361282b565b634e487b7160e01b600052601260045260246000fd5b600060ff831680612901576129016128d8565b8060ff84160691505092915050565b60ff81811683821601908111156102de576102de612654565b600061ffff80831681810361294057612940612654565b6001019392505050565b818103600083128015838313168383128216171561296a5761296a612654565b5092915050565b600082612980576129806128d8565b600160ff1b82146000198414161561299a5761299a612654565b500590565b80820182811260008312801582168215821617156129bf576129bf612654565b505092915050565b80820260008212600160ff1b841416156129e3576129e3612654565b81810583148215176102de576102de61265456fea2646970667358221220c1a79c0ef033901e12d02df0f615f0cd3ae8a153cbad58f74bfa6b3328c5b3df64736f6c63430008120033",
  "devdoc": {
    "kind": "dev",
    "methods": {
      "owner()": {
        "details": "Returns the address of the current owner."
      },
      "renounceOwnership()": {
        "details": "Leaves the contract without owner. It will not be possible to call `onlyOwner` functions. Can only be called by the current owner. NOTE: Renouncing ownership will leave the contract without an owner, thereby disabling any functionality that is only available to the owner."
      },
      "setEmailFromAddress(string)": {
        "params": {
          "_emailFromAddress": "The from email address for validated emails, MUST BE PROPERLY PADDED"
        }
      },
      "setTimestampBuffer(uint256)": {
        "params": {
          "_timestampBuffer": "The timestamp buffer for validated emails"
        }
      },
      "transferOwnership(address)": {
        "details": "Transfers ownership of the contract to a new account (`newOwner`). Can only be called by the current owner."
      }
    },
    "version": 1
  },
  "userdoc": {
    "kind": "user",
    "methods": {
      "setEmailFromAddress(string)": {
        "notice": "ONLY OWNER: Sets the from email address for validated emails. Check that email address is properly padded (if necessary). Padding will be dependent on if unpacking functions cut trailing 0s or not."
      },
      "setTimestampBuffer(uint256)": {
        "notice": "ONLY OWNER: Sets the timestamp buffer for validated emails. This is the amount of time in seconds that the timestamp can be off by and still be considered valid. Necessary to build in flexibility with L2 timestamps."
      }
    },
    "version": 1
  },
  "storageLayout": {
    "storage": [
      {
        "astId": 7,
        "contract": "contracts/ramps/hdfc/HDFCSendProcessor.sol:HDFCSendProcessor",
        "label": "_owner",
        "offset": 0,
        "slot": "0",
        "type": "t_address"
      },
      {
        "astId": 1582,
        "contract": "contracts/ramps/hdfc/HDFCSendProcessor.sol:HDFCSendProcessor",
        "label": "mailServerKeyHashAdapter",
        "offset": 0,
        "slot": "1",
        "type": "t_contract(IKeyHashAdapterV2)1743"
      },
      {
        "astId": 1585,
        "contract": "contracts/ramps/hdfc/HDFCSendProcessor.sol:HDFCSendProcessor",
        "label": "nullifierRegistry",
        "offset": 0,
        "slot": "2",
        "type": "t_contract(INullifierRegistry)1758"
      },
      {
        "astId": 1587,
        "contract": "contracts/ramps/hdfc/HDFCSendProcessor.sol:HDFCSendProcessor",
        "label": "emailFromAddress",
        "offset": 0,
        "slot": "3",
        "type": "t_bytes_storage"
      },
      {
        "astId": 1589,
        "contract": "contracts/ramps/hdfc/HDFCSendProcessor.sol:HDFCSendProcessor",
        "label": "timestampBuffer",
        "offset": 0,
        "slot": "4",
        "type": "t_uint256"
      }
    ],
    "types": {
      "t_address": {
        "encoding": "inplace",
        "label": "address",
        "numberOfBytes": "20"
      },
      "t_bytes_storage": {
        "encoding": "bytes",
        "label": "bytes",
        "numberOfBytes": "32"
      },
      "t_contract(IKeyHashAdapterV2)1743": {
        "encoding": "inplace",
        "label": "contract IKeyHashAdapterV2",
        "numberOfBytes": "20"
      },
      "t_contract(INullifierRegistry)1758": {
        "encoding": "inplace",
        "label": "contract INullifierRegistry",
        "numberOfBytes": "20"
      },
      "t_uint256": {
        "encoding": "inplace",
        "label": "uint256",
        "numberOfBytes": "32"
      }
    }
  }
}