{
  "address": "0x6c90ae078d8a6009666ad061521C091f57C808db",
  "abi": [
    {
      "inputs": [
        {
          "internalType": "address",
          "name": "_ramp",
          "type": "address"
        },
        {
          "internalType": "contract IKeyHashAdapterV2",
          "name": "_hdfcMailserverKeyHashAdapter",
          "type": "address"
        },
        {
          "internalType": "contract INullifierRegistry",
          "name": "_nullifierRegistry",
          "type": "address"
        },
        {
          "internalType": "string",
          "name": "_emailFromAddress",
          "type": "string"
        }
      ],
      "stateMutability": "nonpayable",
      "type": "constructor"
    },
    {
      "anonymous": false,
      "inputs": [
        {
          "indexed": true,
          "internalType": "address",
          "name": "previousOwner",
          "type": "address"
        },
        {
          "indexed": true,
          "internalType": "address",
          "name": "newOwner",
          "type": "address"
        }
      ],
      "name": "OwnershipTransferred",
      "type": "event"
    },
    {
      "inputs": [],
      "name": "PACK_SIZE",
      "outputs": [
        {
          "internalType": "uint256",
          "name": "",
          "type": "uint256"
        }
      ],
      "stateMutability": "view",
      "type": "function"
    },
    {
      "inputs": [],
      "name": "emailFromAddress",
      "outputs": [
        {
          "internalType": "bytes",
          "name": "",
          "type": "bytes"
        }
      ],
      "stateMutability": "view",
      "type": "function"
    },
    {
      "inputs": [],
      "name": "getEmailFromAddress",
      "outputs": [
        {
          "internalType": "bytes",
          "name": "",
          "type": "bytes"
        }
      ],
      "stateMutability": "view",
      "type": "function"
    },
    {
      "inputs": [
        {
          "internalType": "bytes32",
          "name": "_keyHash",
          "type": "bytes32"
        }
      ],
      "name": "isMailServerKeyHash",
      "outputs": [
        {
          "internalType": "bool",
          "name": "",
          "type": "bool"
        }
      ],
      "stateMutability": "view",
      "type": "function"
    },
    {
      "inputs": [],
      "name": "mailServerKeyHashAdapter",
      "outputs": [
        {
          "internalType": "contract IKeyHashAdapterV2",
          "name": "",
          "type": "address"
        }
      ],
      "stateMutability": "view",
      "type": "function"
    },
    {
      "inputs": [],
      "name": "nullifierRegistry",
      "outputs": [
        {
          "internalType": "contract INullifierRegistry",
          "name": "",
          "type": "address"
        }
      ],
      "stateMutability": "view",
      "type": "function"
    },
    {
      "inputs": [],
      "name": "owner",
      "outputs": [
        {
          "internalType": "address",
          "name": "",
          "type": "address"
        }
      ],
      "stateMutability": "view",
      "type": "function"
    },
    {
      "inputs": [
        {
          "components": [
            {
              "internalType": "uint256[2]",
              "name": "a",
              "type": "uint256[2]"
            },
            {
              "internalType": "uint256[2][2]",
              "name": "b",
              "type": "uint256[2][2]"
            },
            {
              "internalType": "uint256[2]",
              "name": "c",
              "type": "uint256[2]"
            },
            {
              "internalType": "uint256[5]",
              "name": "signals",
              "type": "uint256[5]"
            }
          ],
          "internalType": "struct IRegistrationProcessor.RegistrationProof",
          "name": "_proof",
          "type": "tuple"
        }
      ],
      "name": "processProof",
      "outputs": [
        {
          "internalType": "bytes32",
          "name": "userIdHash",
          "type": "bytes32"
        }
      ],
      "stateMutability": "nonpayable",
      "type": "function"
    },
    {
      "inputs": [],
      "name": "ramp",
      "outputs": [
        {
          "internalType": "address",
          "name": "",
          "type": "address"
        }
      ],
      "stateMutability": "view",
      "type": "function"
    },
    {
      "inputs": [],
      "name": "renounceOwnership",
      "outputs": [],
      "stateMutability": "nonpayable",
      "type": "function"
    },
    {
      "inputs": [
        {
          "internalType": "string",
          "name": "_emailFromAddress",
          "type": "string"
        }
      ],
      "name": "setEmailFromAddress",
      "outputs": [],
      "stateMutability": "nonpayable",
      "type": "function"
    },
    {
      "inputs": [
        {
          "internalType": "contract IKeyHashAdapterV2",
          "name": "_mailServerKeyHashAdapter",
          "type": "address"
        }
      ],
      "name": "setMailserverKeyHashAdapter",
      "outputs": [],
      "stateMutability": "nonpayable",
      "type": "function"
    },
    {
      "inputs": [
        {
          "internalType": "address",
          "name": "newOwner",
          "type": "address"
        }
      ],
      "name": "transferOwnership",
      "outputs": [],
      "stateMutability": "nonpayable",
      "type": "function"
    },
    {
      "inputs": [
        {
          "internalType": "uint256[2]",
          "name": "_pA",
          "type": "uint256[2]"
        },
        {
          "internalType": "uint256[2][2]",
          "name": "_pB",
          "type": "uint256[2][2]"
        },
        {
          "internalType": "uint256[2]",
          "name": "_pC",
          "type": "uint256[2]"
        },
        {
          "internalType": "uint256[5]",
          "name": "_pubSignals",
          "type": "uint256[5]"
        }
      ],
      "name": "verifyProof",
      "outputs": [
        {
          "internalType": "bool",
          "name": "",
          "type": "bool"
        }
      ],
      "stateMutability": "view",
      "type": "function"
    }
  ],
  "transactionHash": "0xbd5550e407eae72cf7c6bad80b10691bf6ec25d184114a39d6521d4eb4d58afe",
  "args": [
    "0xb4A7486b0EFa264D5FC6A8181bfc7A150cD57849",
    "0x1A2dcc7AfC7Bf09bE718E54466aA18166C00E4FD",
    "0xAf0196f22a1383B779E3f833AD35BFf38722c8AD",
    "alerts@hdfcbank.net"
  ],
  "numDeployments": 1,
  "solcInputHash": "c76db42e3552a72f819af71bb2be52ce",
  "bytecode": "0x60a06040523480156200001157600080fd5b5060405162001ced38038062001ced833981016040819052620000349162000114565b83838383620000433362000095565b6001600160a01b03848116608052600180546001600160a01b031990811686841617909155600280549091169184169190911790556003620000868282620002b9565b50505050505050505062000385565b600080546001600160a01b038381166001600160a01b0319831681178455604051919092169283917f8be0079c531659141344cd1fd0a4f28419497f9722a3daafe3b4186f6b6457e09190a35050565b6001600160a01b0381168114620000fb57600080fd5b50565b634e487b7160e01b600052604160045260246000fd5b600080600080608085870312156200012b57600080fd5b84516200013881620000e5565b809450506020808601516200014d81620000e5565b60408701519094506200016081620000e5565b60608701519093506001600160401b03808211156200017e57600080fd5b818801915088601f8301126200019357600080fd5b815181811115620001a857620001a8620000fe565b604051601f8201601f19908116603f01168101908382118183101715620001d357620001d3620000fe565b816040528281528b86848701011115620001ec57600080fd5b600093505b82841015620002105784840186015181850187015292850192620001f1565b600086848301015280965050505050505092959194509250565b600181811c908216806200023f57607f821691505b6020821081036200026057634e487b7160e01b600052602260045260246000fd5b50919050565b601f821115620002b457600081815260208120601f850160051c810160208610156200028f5750805b601f850160051c820191505b81811015620002b0578281556001016200029b565b5050505b505050565b81516001600160401b03811115620002d557620002d5620000fe565b620002ed81620002e684546200022a565b8462000266565b602080601f8311600181146200032557600084156200030c5750858301515b600019600386901b1c1916600185901b178555620002b0565b600085815260208120601f198616915b82811015620003565788860151825594840194600190910190840162000335565b5085821015620003755787850151600019600388901b60f8161c191681555b5050505050600190811b01905550565b608051611946620003a76000396000818160f4015261023601526119466000f3fe608060405234801561001057600080fd5b50600436106100ea5760003560e01c8063a8ef333f1161008c578063ced1e97811610066578063ced1e978146101e8578063d0b71f99146101f0578063f2fde38b14610203578063f6c7226b1461021657600080fd5b8063a8ef333f146101ad578063b870676c146101c0578063c0d05fed146101d357600080fd5b806334baeab9116100c857806334baeab9146101775780633d0c9cc41461018a578063715018a6146101925780638da5cb5b1461019c57600080fd5b806315d276e1146100ef57806317c8ecf21461013357806319d0915214610154575b600080fd5b6101167f000000000000000000000000000000000000000000000000000000000000000081565b6040516001600160a01b0390911681526020015b60405180910390f35b610146610141366004611394565b610229565b60405190815260200161012a565b6101676101623660046113ad565b61048b565b604051901515815260200161012a565b6101676101853660046113d7565b6104ff565b610146600781565b61019a610ad4565b005b6000546001600160a01b0316610116565b600154610116906001600160a01b031681565b600254610116906001600160a01b031681565b6101db610ae8565b60405161012a9190611461565b6101db610b76565b61019a6101fe3660046114a9565b610c08565b61019a6102113660046114a9565b610c32565b61019a6102243660046114e3565b610ca8565b6000336001600160a01b037f000000000000000000000000000000000000000000000000000000000000000016146102a85760405162461bcd60e51b815260206004820181905260248201527f4f6e6c792052616d702063616e2063616c6c20746869732066756e6374696f6e60448201526064015b60405180910390fd5b604080516334baeab960e01b815230916334baeab9916102db9186919082019060c08301906101008401906004016115be565b602060405180830381865afa1580156102f8573d6000803e3d6000fd5b505050506040513d601f19601f8201168201806040525081019061031c91906115ef565b6103585760405162461bcd60e51b815260206004820152600d60248201526c24b73b30b634b210283937b7b360991b604482015260640161029f565b61036661010083013561048b565b6103b25760405162461bcd60e51b815260206004820152601b60248201527f496e76616c6964206d61696c736572766572206b657920686173680000000000604482015260640161029f565b60006103c5836101000160016004610cc0565b905060036040516103d6919061165b565b6040518091039020816040516020016103ef91906116d1565b60405160208183030381529060405280519060200120146104525760405162461bcd60e51b815260206004820152601a60248201527f496e76616c696420656d61696c2066726f6d2061646472657373000000000000604482015260640161029f565b6104818360405160200161046691906116ed565b60405160208183030381529060405280519060200120610d9b565b5050610180013590565b600154604051630ce848a960e11b8152600481018390526000916001600160a01b0316906319d0915290602401602060405180830381865afa1580156104d5573d6000803e3d6000fd5b505050506040513d601f19601f820116820180604052508101906104f991906115ef565b92915050565b6000610a62565b7f30644e72e131a029b85045b68181585d97816a916871ca8d3c208c16d87cfd478110610537576000805260206000f35b50565b600060405183815284602082015285604082015260408160608360076107d05a03fa91508161056d576000805260206000f35b825160408201526020830151606082015260408360808360066107d05a03fa9150508061059e576000805260206000f35b5050505050565b7f0f2db41403b26d16a6477f3f560c5fb8733a7f87750511d2bd8b7fffb3fde45585527f1725368b0b7aae6dbfe59f682a4ebca518b9a1250b908bc65cc566ed5960e9b860208601526000608086018661064287357f1e96dacdd702f236cbc6e08a50a2d482a78e7ee9466a3b02c3a87baa061067c27f17aaa87f66846abafb32ae46744660e44fc6f3d0d43f861c1eea3498a1fb34068461053a565b61069260208801357f06895a8263dc74eb795e63357084ef094c398d431a988d75e8583ea69290919d7f1414b1b7c6ba7696c5f6432fbc270f241dd3990520416b7db6544615bfd653fa8461053a565b6106e260408801357f1d9f86b08f6cadc2cda6b62f0504118b7c944a4da04ef6dd38a701b960fa0d687f08629d6d7ab06972ce7d84b96d5386d54ac1d0e9ea18950060a21095869cf70a8461053a565b61073260608801357f251e9c133e192e9f2b71e2b395b486c8b312eed2f141f7c23051085a62cb52807f028639bd03293f66441c223f0071718cd4e13cedf6bc2c2d35a6be2e08afea418461053a565b61078260808801357f09126a29f235cfb46d32f97f5c0081245ec79c4ed43f436ed180643384caa2a67f1bbb2ee7c85cef8065d233d9db5ea89236397496fb862ab25b84c85f7d76b6b28461053a565b50823581527f30644e72e131a029b85045b68181585d97816a916871ca8d3c208c16d87cfd4760208401357f30644e72e131a029b85045b68181585d97816a916871ca8d3c208c16d87cfd4703066020820152833560408201526020840135606082015260408401356080820152606084013560a08201527f2d4d9aa7e302d9df41749d5507949d05dbea33fbb16c643b22f599a2be6df2e260c08201527f14bedd503c37ceb061d8ec60209fe345ce89830a19230301f076caff004d192660e08201527f0967032fcbf776d1afc985f88877f182d38480a653f2decaa9794cbc3bf3060c6101008201527f0e187847ad4c798374d0d6732bf501847dd68bc0e071241e0213bc7fc13db7ab6101208201527f304cfbd1e08a704a99f5e847d93f8c3caafddec46b7a0d379da69a4d112346a76101408201527f1739c1b1a457a8c7313123d24d2f9192f896b7c63eea05a9d57f06547ad0cec8610160820152600087015161018082015260206000018701516101a08201527f198e9393920d483a7260bfb731fb5d25f1aa493335a9e71297e485b7aef312c26101c08201527f1800deef121f1e76426a00665e5c4479674322d4f75edadd46debd5cd992f6ed6101e08201527f090689d0585ff075ec9e99ad690c3395bc4b313370b38ef355acdadcd122975b6102008201527f12c85ea5db8c6deb4aab71808dcb408fe3d1e7690c43d37b4ce6cc0166fa7daa610220820152843561024082015260208501356102608201527f2910dde762ebc48cb1f29b3896f0dd0c9f714271aeb839641388bf5b1a557b8b6102808201527f1ec42d3cb3a18b719772b76c8c09498d42979841a916118dfa00478b8eb112d26102a08201527f0d7b7d8a8c95de16d3fd02bb5fb947215551d25c39e1ee70560f972058b4b0f56102c08201527f217b2e8321fa9274ec8544f9f18987687126ec94437b97c5e19778dca4fd26ed6102e08201526020816103008360086107d05a03fa9051169695505050505050565b6040516103808101604052610a7a6000840135610506565b610a876020840135610506565b610a946040840135610506565b610aa16060840135610506565b610aae6080840135610506565b610abb60a0840135610506565b610ac8818486888a6105a5565b90508060005260206000f35b610adc610eaf565b610ae66000610f09565b565b60038054610af590611627565b80601f0160208091040260200160405190810160405280929190818152602001828054610b2190611627565b8015610b6e5780601f10610b4357610100808354040283529160200191610b6e565b820191906000526020600020905b815481529060010190602001808311610b5157829003601f168201915b505050505081565b606060038054610b8590611627565b80601f0160208091040260200160405190810160405280929190818152602001828054610bb190611627565b8015610bfe5780601f10610bd357610100808354040283529160200191610bfe565b820191906000526020600020905b815481529060010190602001808311610be157829003601f168201915b5050505050905090565b610c10610eaf565b600180546001600160a01b0319166001600160a01b0392909216919091179055565b610c3a610eaf565b6001600160a01b038116610c9f5760405162461bcd60e51b815260206004820152602660248201527f4f776e61626c653a206e6577206f776e657220697320746865207a65726f206160448201526564647265737360d01b606482015260840161029f565b61053781610f09565b610cb0610eaf565b6003610cbc8282611774565b5050565b60606000610cce848461184a565b60ff1667ffffffffffffffff811115610ce957610ce96114cd565b604051908082528060200260200182016040528015610d12578160200160208202803683370190505b50905060ff84165b8360ff16811015610d7757858160058110610d3757610d37611611565b602002013582610d4a60ff881684611863565b81518110610d5a57610d5a611611565b602090810291909101015280610d6f81611876565b915050610d1a565b50610d9260078251610d89919061188f565b82906007610f59565b95945050505050565b60025460405163169394bb60e01b8152600481018390526001600160a01b039091169063169394bb90602401602060405180830381865afa158015610de4573d6000803e3d6000fd5b505050506040513d601f19601f82011682018060405250810190610e0891906115ef565b15610e555760405162461bcd60e51b815260206004820152601f60248201527f4e756c6c69666965722068617320616c7265616479206265656e207573656400604482015260640161029f565b600254604051632dea6f9960e11b8152600481018390526001600160a01b0390911690635bd4df3290602401600060405180830381600087803b158015610e9b57600080fd5b505af115801561059e573d6000803e3d6000fd5b6000546001600160a01b03163314610ae65760405162461bcd60e51b815260206004820181905260248201527f4f776e61626c653a2063616c6c6572206973206e6f7420746865206f776e6572604482015260640161029f565b600080546001600160a01b038381166001600160a01b0319831681178455604051919092169283917f8be0079c531659141344cd1fd0a4f28419497f9722a3daafe3b4186f6b6457e09190a35050565b6060600080838651610f6b919061188f565b67ffffffffffffffff811115610f8357610f836114cd565b6040519080825280601f01601f191660200182016040528015610fad576020820181803683370190505b5090506000805b87518161ffff161015611164576000888261ffff1681518110610fd957610fd9611611565b6020026020010151905060008767ffffffffffffffff811115610ffe57610ffe6114cd565b604051908082528060200260200182016040528015611027578160200160208202803683370190505b50905060005b888110156110795761104081600861188f565b83901c82828151811061105557611055611611565b60ff909216602092830291909101909101528061107181611876565b91505061102d565b5060005b8881101561114e57600082828151811061109957611099611611565b602002602001015160ff16905080600014611111578060f81b8787815181106110c4576110c4611611565b60200101906001600160f81b031916908160001a905350856110e581611876565b96506110f490506002896118a6565b60ff1660000361110c576111096001896118d6565b97505b611134565b61111c6002896118a6565b60ff16600103611134576111316001896118d6565b97505b5060089290921c918061114681611876565b91505061107d565b505050808061115c906118ef565b915050610fb4565b5060018360ff1610156112055760405162461bcd60e51b815260206004820152605760248201527f4e6f207061636b656420627974657320666f756e642120496e76616c6964206660448201527f696e616c207374617465206f66207061636b656420627974657320696e20656d60648201527f61696c3b2076616c7565206973206c696b656c79203021000000000000000000608482015260a40161029f565b858111156112735760405162461bcd60e51b815260206004820152603560248201527f5061636b6564206279746573206d6f7265207468616e20616c6c6f776564206d6044820152746178206e756d626572206f66207369676e616c732160581b606482015260840161029f565b600061127e8361128a565b98975050505050505050565b8051606090829060005b82518110156112df578281815181106112af576112af611611565b01602001516001600160f81b0319166000036112cd578091506112df565b806112d781611876565b915050611294565b5060008167ffffffffffffffff8111156112fb576112fb6114cd565b6040519080825280601f01601f191660200182016040528015611325576020820181803683370190505b50905060005b8281101561138b5783818151811061134557611345611611565b602001015160f81c60f81b82828151811061136257611362611611565b60200101906001600160f81b031916908160001a9053508061138381611876565b91505061132b565b50949350505050565b60006101a082840312156113a757600080fd5b50919050565b6000602082840312156113bf57600080fd5b5035919050565b80604081018310156104f957600080fd5b6000806000806101a08086880312156113ef57600080fd5b6113f987876113c6565b945060c086018781111561140c57600080fd5b60408701945061141c88826113c6565b93505086818701111561142e57600080fd5b50929591945092610100019150565b60005b83811015611458578181015183820152602001611440565b50506000910152565b602081526000825180602084015261148081604085016020870161143d565b601f01601f19169190910160400192915050565b6001600160a01b038116811461053757600080fd5b6000602082840312156114bb57600080fd5b81356114c681611494565b9392505050565b634e487b7160e01b600052604160045260246000fd5b6000602082840312156114f557600080fd5b813567ffffffffffffffff8082111561150d57600080fd5b818401915084601f83011261152157600080fd5b813581811115611533576115336114cd565b604051601f8201601f19908116603f0116810190838211818310171561155b5761155b6114cd565b8160405282815287602084870101111561157457600080fd5b826020860160208301376000928101602001929092525095945050505050565b8060005b60028110156115b857604080838637938401939190910190600101611598565b50505050565b6101a0810160408683376115d56040830186611594565b60408460c084013760a08361010084013795945050505050565b60006020828403121561160157600080fd5b815180151581146114c657600080fd5b634e487b7160e01b600052603260045260246000fd5b600181811c9082168061163b57607f821691505b6020821081036113a757634e487b7160e01b600052602260045260246000fd5b600080835461166981611627565b600182811680156116815760018114611696576116c5565b60ff19841687528215158302870194506116c5565b8760005260208060002060005b858110156116bc5781548a8201529084019082016116a3565b50505082870194505b50929695505050505050565b600082516116e381846020870161143d565b9190910192915050565b6101a0810160408383376117076040830160408501611594565b604060c0840160c084013761010060a0818501828501375092915050565b601f82111561176f57600081815260208120601f850160051c8101602086101561174c5750805b601f850160051c820191505b8181101561176b57828155600101611758565b5050505b505050565b815167ffffffffffffffff81111561178e5761178e6114cd565b6117a28161179c8454611627565b84611725565b602080601f8311600181146117d757600084156117bf5750858301515b600019600386901b1c1916600185901b17855561176b565b600085815260208120601f198616915b82811015611806578886015182559484019460019091019084016117e7565b50858210156118245787850151600019600388901b60f8161c191681555b5050505050600190811b01905550565b634e487b7160e01b600052601160045260246000fd5b60ff82811682821603908111156104f9576104f9611834565b818103818111156104f9576104f9611834565b60006001820161188857611888611834565b5060010190565b80820281158282048414176104f9576104f9611834565b600060ff8316806118c757634e487b7160e01b600052601260045260246000fd5b8060ff84160691505092915050565b60ff81811683821601908111156104f9576104f9611834565b600061ffff80831681810361190657611906611834565b600101939250505056fea26469706673582212200bfef2b07416cceb420b3363e31c50a9ae277a2b6375beb9de5cd34d7ddeb64964736f6c63430008120033",
  "devdoc": {
    "kind": "dev",
    "methods": {
      "owner()": {
        "details": "Returns the address of the current owner."
      },
      "renounceOwnership()": {
        "details": "Leaves the contract without owner. It will not be possible to call `onlyOwner` functions. Can only be called by the current owner. NOTE: Renouncing ownership will leave the contract without an owner, thereby disabling any functionality that is only available to the owner."
      },
      "setEmailFromAddress(string)": {
        "params": {
          "_emailFromAddress": "The from email address for validated emails, MUST BE PROPERLY PADDED"
        }
      },
      "transferOwnership(address)": {
        "details": "Transfers ownership of the contract to a new account (`newOwner`). Can only be called by the current owner."
      }
    },
    "version": 1
  },
  "userdoc": {
    "kind": "user",
    "methods": {
      "setEmailFromAddress(string)": {
        "notice": "ONLY OWNER: Sets the from email address for validated emails. Check that email address is properly padded (if necessary). Padding will be dependent on if unpacking functions cut trailing 0s or not."
      }
    },
    "version": 1
  },
  "storageLayout": {
    "storage": [
      {
        "astId": 7,
        "contract": "contracts/ramps/hdfc/HDFCRegistrationProcessor.sol:HDFCRegistrationProcessor",
        "label": "_owner",
        "offset": 0,
        "slot": "0",
        "type": "t_address"
      },
      {
        "astId": 3356,
        "contract": "contracts/ramps/hdfc/HDFCRegistrationProcessor.sol:HDFCRegistrationProcessor",
        "label": "mailServerKeyHashAdapter",
        "offset": 0,
        "slot": "1",
        "type": "t_contract(IKeyHashAdapterV2)3509"
      },
      {
        "astId": 3359,
        "contract": "contracts/ramps/hdfc/HDFCRegistrationProcessor.sol:HDFCRegistrationProcessor",
        "label": "nullifierRegistry",
        "offset": 0,
        "slot": "2",
        "type": "t_contract(INullifierRegistry)3714"
      },
      {
        "astId": 3361,
        "contract": "contracts/ramps/hdfc/HDFCRegistrationProcessor.sol:HDFCRegistrationProcessor",
        "label": "emailFromAddress",
        "offset": 0,
        "slot": "3",
        "type": "t_bytes_storage"
      }
    ],
    "types": {
      "t_address": {
        "encoding": "inplace",
        "label": "address",
        "numberOfBytes": "20"
      },
      "t_bytes_storage": {
        "encoding": "bytes",
        "label": "bytes",
        "numberOfBytes": "32"
      },
      "t_contract(IKeyHashAdapterV2)3509": {
        "encoding": "inplace",
        "label": "contract IKeyHashAdapterV2",
        "numberOfBytes": "20"
      },
      "t_contract(INullifierRegistry)3714": {
        "encoding": "inplace",
        "label": "contract INullifierRegistry",
        "numberOfBytes": "20"
      }
    }
  }
}