{
  "address": "0x8D54b20922aEA549224D61501225a0DaB5bC3839",
  "abi": [
    {
      "inputs": [
        {
          "internalType": "address",
          "name": "_ramp",
          "type": "address"
        },
        {
          "internalType": "contract IKeyHashAdapterV2",
          "name": "_hdfcMailserverKeyHashAdapter",
          "type": "address"
        },
        {
          "internalType": "contract INullifierRegistry",
          "name": "_nullifierRegistry",
          "type": "address"
        },
        {
          "internalType": "string",
          "name": "_emailFromAddress",
          "type": "string"
        }
      ],
      "stateMutability": "nonpayable",
      "type": "constructor"
    },
    {
      "anonymous": false,
      "inputs": [
        {
          "indexed": true,
          "internalType": "address",
          "name": "previousOwner",
          "type": "address"
        },
        {
          "indexed": true,
          "internalType": "address",
          "name": "newOwner",
          "type": "address"
        }
      ],
      "name": "OwnershipTransferred",
      "type": "event"
    },
    {
      "inputs": [],
      "name": "emailFromAddress",
      "outputs": [
        {
          "internalType": "bytes",
          "name": "",
          "type": "bytes"
        }
      ],
      "stateMutability": "view",
      "type": "function"
    },
    {
      "inputs": [],
      "name": "getEmailFromAddress",
      "outputs": [
        {
          "internalType": "bytes",
          "name": "",
          "type": "bytes"
        }
      ],
      "stateMutability": "view",
      "type": "function"
    },
    {
      "inputs": [
        {
          "internalType": "bytes32",
          "name": "_keyHash",
          "type": "bytes32"
        }
      ],
      "name": "isMailServerKeyHash",
      "outputs": [
        {
          "internalType": "bool",
          "name": "",
          "type": "bool"
        }
      ],
      "stateMutability": "view",
      "type": "function"
    },
    {
      "inputs": [],
      "name": "mailServerKeyHashAdapter",
      "outputs": [
        {
          "internalType": "contract IKeyHashAdapterV2",
          "name": "",
          "type": "address"
        }
      ],
      "stateMutability": "view",
      "type": "function"
    },
    {
      "inputs": [],
      "name": "nullifierRegistry",
      "outputs": [
        {
          "internalType": "contract INullifierRegistry",
          "name": "",
          "type": "address"
        }
      ],
      "stateMutability": "view",
      "type": "function"
    },
    {
      "inputs": [],
      "name": "owner",
      "outputs": [
        {
          "internalType": "address",
          "name": "",
          "type": "address"
        }
      ],
      "stateMutability": "view",
      "type": "function"
    },
    {
      "inputs": [
        {
          "components": [
            {
              "internalType": "uint256[2]",
              "name": "a",
              "type": "uint256[2]"
            },
            {
              "internalType": "uint256[2][2]",
              "name": "b",
              "type": "uint256[2][2]"
            },
            {
              "internalType": "uint256[2]",
              "name": "c",
              "type": "uint256[2]"
            },
            {
              "internalType": "uint256[15]",
              "name": "signals",
              "type": "uint256[15]"
            }
          ],
          "internalType": "struct IHDFCSendProcessor.SendProof",
          "name": "_proof",
          "type": "tuple"
        }
      ],
      "name": "processProof",
      "outputs": [
        {
          "internalType": "uint256",
          "name": "amount",
          "type": "uint256"
        },
        {
          "internalType": "uint256",
          "name": "timestamp",
          "type": "uint256"
        },
        {
          "internalType": "bytes32",
          "name": "offRamperIdHash",
          "type": "bytes32"
        },
        {
          "internalType": "bytes32",
          "name": "onRamperIdHash",
          "type": "bytes32"
        },
        {
          "internalType": "bytes32",
          "name": "intentHash",
          "type": "bytes32"
        }
      ],
      "stateMutability": "nonpayable",
      "type": "function"
    },
    {
      "inputs": [],
      "name": "ramp",
      "outputs": [
        {
          "internalType": "address",
          "name": "",
          "type": "address"
        }
      ],
      "stateMutability": "view",
      "type": "function"
    },
    {
      "inputs": [],
      "name": "renounceOwnership",
      "outputs": [],
      "stateMutability": "nonpayable",
      "type": "function"
    },
    {
      "inputs": [
        {
          "internalType": "string",
          "name": "_emailFromAddress",
          "type": "string"
        }
      ],
      "name": "setEmailFromAddress",
      "outputs": [],
      "stateMutability": "nonpayable",
      "type": "function"
    },
    {
      "inputs": [
        {
          "internalType": "contract IKeyHashAdapterV2",
          "name": "_mailServerKeyHashAdapter",
          "type": "address"
        }
      ],
      "name": "setMailserverKeyHashAdapter",
      "outputs": [],
      "stateMutability": "nonpayable",
      "type": "function"
    },
    {
      "inputs": [
        {
          "internalType": "address",
          "name": "newOwner",
          "type": "address"
        }
      ],
      "name": "transferOwnership",
      "outputs": [],
      "stateMutability": "nonpayable",
      "type": "function"
    },
    {
      "inputs": [
        {
          "internalType": "uint256[2]",
          "name": "_pA",
          "type": "uint256[2]"
        },
        {
          "internalType": "uint256[2][2]",
          "name": "_pB",
          "type": "uint256[2][2]"
        },
        {
          "internalType": "uint256[2]",
          "name": "_pC",
          "type": "uint256[2]"
        },
        {
          "internalType": "uint256[15]",
          "name": "_pubSignals",
          "type": "uint256[15]"
        }
      ],
      "name": "verifyProof",
      "outputs": [
        {
          "internalType": "bool",
          "name": "",
          "type": "bool"
        }
      ],
      "stateMutability": "view",
      "type": "function"
    }
  ],
  "transactionHash": "0xa99bdfd74f1fe1fee99948d59256f05a37d0f03ee6e773a144cb358720f18f6a",
  "args": [
    "0xb4A7486b0EFa264D5FC6A8181bfc7A150cD57849",
    "0x1A2dcc7AfC7Bf09bE718E54466aA18166C00E4FD",
    "0xAf0196f22a1383B779E3f833AD35BFf38722c8AD",
    "alerts@hdfcbank.net"
  ],
  "numDeployments": 1,
  "solcInputHash": "c76db42e3552a72f819af71bb2be52ce",
  "bytecode": "0x60a06040523480156200001157600080fd5b5060405162002c3d38038062002c3d833981016040819052620000349162000114565b83838383620000433362000095565b6001600160a01b03848116608052600180546001600160a01b031990811686841617909155600280549091169184169190911790556003620000868282620002b9565b50505050505050505062000385565b600080546001600160a01b038381166001600160a01b0319831681178455604051919092169283917f8be0079c531659141344cd1fd0a4f28419497f9722a3daafe3b4186f6b6457e09190a35050565b6001600160a01b0381168114620000fb57600080fd5b50565b634e487b7160e01b600052604160045260246000fd5b600080600080608085870312156200012b57600080fd5b84516200013881620000e5565b809450506020808601516200014d81620000e5565b60408701519094506200016081620000e5565b60608701519093506001600160401b03808211156200017e57600080fd5b818801915088601f8301126200019357600080fd5b815181811115620001a857620001a8620000fe565b604051601f8201601f19908116603f01168101908382118183101715620001d357620001d3620000fe565b816040528281528b86848701011115620001ec57600080fd5b600093505b82841015620002105784840186015181850187015292850192620001f1565b600086848301015280965050505050505092959194509250565b600181811c908216806200023f57607f821691505b6020821081036200026057634e487b7160e01b600052602260045260246000fd5b50919050565b601f821115620002b457600081815260208120601f850160051c810160208610156200028f5750805b601f850160051c820191505b81811015620002b0578281556001016200029b565b5050505b505050565b81516001600160401b03811115620002d557620002d5620000fe565b620002ed81620002e684546200022a565b8462000266565b602080601f8311600181146200032557600084156200030c5750858301515b600019600386901b1c1916600185901b178555620002b0565b600085815260208120601f198616915b82811015620003565788860151825594840194600190910190840162000335565b5085821015620003755787850151600019600388901b60f8161c191681555b5050505050600190811b01905550565b608051612896620003a76000396000818160d901526102b901526128966000f3fe608060405234801561001057600080fd5b50600436106100cf5760003560e01c8063bf93fde11161008c578063d0b71f9911610066578063d0b71f99146101d4578063f054a9a3146101e7578063f2fde38b146101fa578063f6c7226b1461020d57600080fd5b8063bf93fde11461017c578063c0d05fed146101b7578063ced1e978146101cc57600080fd5b806315d276e1146100d457806319d0915214610118578063715018a61461013b5780638da5cb5b14610145578063a8ef333f14610156578063b870676c14610169575b600080fd5b6100fb7f000000000000000000000000000000000000000000000000000000000000000081565b6040516001600160a01b0390911681526020015b60405180910390f35b61012b610126366004612172565b610220565b604051901515815260200161010f565b610143610294565b005b6000546001600160a01b03166100fb565b6001546100fb906001600160a01b031681565b6002546100fb906001600160a01b031681565b61018f61018a36600461218b565b6102a8565b604080519586526020860194909452928401919091526060830152608082015260a00161010f565b6101bf610547565b60405161010f91906121c8565b6101bf6105d5565b6101436101e2366004612210565b610667565b61012b6101f5366004612245565b610691565b610143610208366004612210565b611017565b61014361021b3660046122c1565b61108d565b600154604051630ce848a960e11b8152600481018390526000916001600160a01b0316906319d0915290602401602060405180830381865afa15801561026a573d6000803e3d6000fd5b505050506040513d601f19601f8201168201806040525081019061028e9190612372565b92915050565b61029c6110a5565b6102a660006110ff565b565b600080808080336001600160a01b037f0000000000000000000000000000000000000000000000000000000000000000161461032b5760405162461bcd60e51b815260206004820181905260248201527f4f6e6c792052616d702063616e2063616c6c20746869732066756e6374696f6e60448201526064015b60405180910390fd5b6040805163f054a9a360e01b8152309163f054a9a39161035e918a919082019060c0830190610100840190600401612394565b602060405180830381865afa15801561037b573d6000803e3d6000fd5b505050506040513d601f19601f8201168201806040525081019061039f9190612372565b6103db5760405162461bcd60e51b815260206004820152600d60248201526c24b73b30b634b210283937b7b360991b6044820152606401610322565b6103e9610100870135610220565b6104355760405162461bcd60e51b815260206004820152601b60248201527f496e76616c6964206d61696c736572766572206b6579206861736800000000006044820152606401610322565b600061044887610100016001600461114f565b90506003604051610459919061242b565b60405180910390208160405160200161047291906124a1565b60405160208183030381529060405280519060200120146104d55760405162461bcd60e51b815260206004820152601a60248201527f496e76616c696420656d61696c2066726f6d20616464726573730000000000006044820152606401610322565b6104f160066104eb89610100016004600661114f565b9061122a565b9550600061050688610100016006600b61114f565b905061051181611400565b9550610280880135945061026088013593506105316102a0890135611576565b509496939592945090926102c090920135919050565b60038054610554906123f7565b80601f0160208091040260200160405190810160405280929190818152602001828054610580906123f7565b80156105cd5780601f106105a2576101008083540402835291602001916105cd565b820191906000526020600020905b8154815290600101906020018083116105b057829003601f168201915b505050505081565b6060600380546105e4906123f7565b80601f0160208091040260200160405190810160405280929190818152602001828054610610906123f7565b801561065d5780601f106106325761010080835404028352916020019161065d565b820191906000526020600020905b81548152906001019060200180831161064057829003601f168201915b5050505050905090565b61066f6110a5565b600180546001600160a01b0319166001600160a01b0392909216919091179055565b6000610f1b565b7f30644e72e131a029b85045b68181585d97816a916871ca8d3c208c16d87cfd4781106106c9576000805260206000f35b50565b600060405183815284602082015285604082015260408160608360076107d05a03fa9150816106ff576000805260206000f35b825160408201526020830151606082015260408360808360066107d05a03fa91505080610730576000805260206000f35b5050505050565b7f1192cfe47346d47a3d54b56a571d87d19ca23fbdd99e971626ac1ce626dd885385527f1fefecfb1a66000f84cc50c428cadc39f0f411b87900b91d696aa8148c6d96db6020860152600060808601866107d487357f1052e572d3d9a24a7dbd5f82eaf774938e6e2b5469bbb39dad893c06f9af89707f0814a4c2cecf4e01b1c9c33bc5b896f4aecc69ec353bf843da39e5cfd9560453846106cc565b61082460208801357f1847071e7b28427ff89b02b112ed0c8e9b7001a09148f45819db6ec968c8c7c97f23491dfd59dbfdd40973e01cb7abe689229136cbf955f8ea245c1a7d8891a7cb846106cc565b61087460408801357f2031c96ba61c2380347848f5f5aeb8a9dc5cb48ee66709978e0a72b88c2621587f27eff1f9bda6c4f917b1b2f79bbae13913da4d4261e943599d2f5cfabd1e4d2e846106cc565b6108c460608801357f2bcfd64d15676238f2ca22edbb0a213b57d789d36546493c26d95adb7e9fa04f7f0c1d7f759fb7eb003ef2fca2d05be32496040b5af4f2a193506bbe8fd0ffa326846106cc565b61091460808801357f18a760eb5a9c3f79fa070392ea988ecf52f7c2231ec24f0431fa8a92044e69557f1596caa2aa368ba130136a0ba36d77345e4a5d862bec76d5297f3f5c7de8e047846106cc565b61096460a08801357f20ff2c6a6c3bcdf9a3d88d4665f7ac4a3fb351df12d53c2591f03ecfaabbe0d87f12ff10467d7d41a14e1ee97e95b7d2f1220db995c6b3a1557817fcd0a85782e5846106cc565b6109b460c08801357f2dc1534a581ac0b0ee1550a2b421d73509c22d76b045cac677327a52835330d37f281d50c8500d81a7b40e409e2e04baa9d61815cbfb08af90770644e24abdc459846106cc565b610a0460e08801357f2d745fe442ae36cb87de1502efe86320eedb4c6819d7131567037522e0ffe1877f0e60379b6844d926d3e748d7093c403e905d54b30443c37b66457012e7ea3ffb846106cc565b610a556101008801357f11654938835b1e85bbd7f1d19e7729e77cab08521887d373ec36196ebb3bf6957f2c778085279765f9ce6d2ec5490971196c38c253963c4ca0c265241fd523ff32846106cc565b610aa66101208801357f232697a26bd7085c4aca969e97e8e8963200d364c99e65eb479791871ce91fd77f300f97fe9ffe1c5a063c5a119c4623bea625d5751dc40e90caff122761dcf681846106cc565b610af76101408801357f2a5b11c33902d497e923442dd426692bba812e4d3f374b229bb13328ed31750f7f1373401d497609d91f87d814450592989f601b1c210f94fa4f13b250dca7654e846106cc565b610b486101608801357f0c023a1fc97b326612fd041fea93911daa8e0a0f6eaff5469a1dc151562b11e27f041a8c9628c7e898ae40d4fec14836c1948e8e4f07de3a7fc90c94d3c5c78b6a846106cc565b610b996101808801357f2bc54f3723018f2f925397ff82a005195621e7e7f5f568fa69487e6f70808c3d7f02ee97fa7a770940595f90fa5cd9b4d5c02d27a54326efa0065bb9532b251ec8846106cc565b610bea6101a08801357f1e8f4dbb73a4daeb3247550b43c66065214cc929e37eaafe57950bc3a75a6d547f2f199828d55ca11010e83070e17756f3aec7a9f5b8f742d27792a0c66fe9bd5b846106cc565b610c3b6101c08801357f2427ce9fb70c46fe9bbd844d0032485a256dc4befcddc1039cef7ecbb1800c9c7f10ce2f2d844571bc9154dabbec265f336073944708b5b63aeaf9499abc07aa0e846106cc565b50823581527f30644e72e131a029b85045b68181585d97816a916871ca8d3c208c16d87cfd4760208401357f30644e72e131a029b85045b68181585d97816a916871ca8d3c208c16d87cfd4703066020820152833560408201526020840135606082015260408401356080820152606084013560a08201527f2d4d9aa7e302d9df41749d5507949d05dbea33fbb16c643b22f599a2be6df2e260c08201527f14bedd503c37ceb061d8ec60209fe345ce89830a19230301f076caff004d192660e08201527f0967032fcbf776d1afc985f88877f182d38480a653f2decaa9794cbc3bf3060c6101008201527f0e187847ad4c798374d0d6732bf501847dd68bc0e071241e0213bc7fc13db7ab6101208201527f304cfbd1e08a704a99f5e847d93f8c3caafddec46b7a0d379da69a4d112346a76101408201527f1739c1b1a457a8c7313123d24d2f9192f896b7c63eea05a9d57f06547ad0cec8610160820152600087015161018082015260206000018701516101a08201527f198e9393920d483a7260bfb731fb5d25f1aa493335a9e71297e485b7aef312c26101c08201527f1800deef121f1e76426a00665e5c4479674322d4f75edadd46debd5cd992f6ed6101e08201527f090689d0585ff075ec9e99ad690c3395bc4b313370b38ef355acdadcd122975b6102008201527f12c85ea5db8c6deb4aab71808dcb408fe3d1e7690c43d37b4ce6cc0166fa7daa610220820152843561024082015260208501356102608201527f1e5277d2eaea9cb73f61c94ec91e46060faa074fbd70f8de621cdfddf56e1b616102808201527f0f4b15affad103f60fd48472858f36b7ce02e3a7f2af86031b466db57a75fea06102a08201527f162b629abc2d8f55809aded540891b87554237ad1aee232de83fda66b1cebc206102c08201527f2bd4bb03d8b7808288ade45755f6057345eadb23a6b6df21734769e4d9570a0c6102e08201526020816103008360086107d05a03fa9051169695505050505050565b6040516103808101604052610f336000840135610698565b610f406020840135610698565b610f4d6040840135610698565b610f5a6060840135610698565b610f676080840135610698565b610f7460a0840135610698565b610f8160c0840135610698565b610f8e60e0840135610698565b610f9c610100840135610698565b610faa610120840135610698565b610fb8610140840135610698565b610fc6610160840135610698565b610fd4610180840135610698565b610fe26101a0840135610698565b610ff06101c0840135610698565b610ffe6101e0840135610698565b61100b818486888a610737565b90508060005260206000f35b61101f6110a5565b6001600160a01b0381166110845760405162461bcd60e51b815260206004820152602660248201527f4f776e61626c653a206e6577206f776e657220697320746865207a65726f206160448201526564647265737360d01b6064820152608401610322565b6106c9816110ff565b6110956110a5565b60036110a1828261250c565b5050565b6000546001600160a01b031633146102a65760405162461bcd60e51b815260206004820181905260248201527f4f776e61626c653a2063616c6c6572206973206e6f7420746865206f776e65726044820152606401610322565b600080546001600160a01b038381166001600160a01b0319831681178455604051919092169283917f8be0079c531659141344cd1fd0a4f28419497f9722a3daafe3b4186f6b6457e09190a35050565b6060600061115d84846125e2565b60ff1667ffffffffffffffff811115611178576111786122ab565b6040519080825280602002602001820160405280156111a1578160200160208202803683370190505b50905060ff84165b8360ff16811015611206578581600f81106111c6576111c66123e1565b6020020135826111d960ff8816846125fb565b815181106111e9576111e96123e1565b6020908102919091010152806111fe8161260e565b9150506111a9565b50611221600782516112189190612627565b8290600761168a565b95945050505050565b600082818080805b845181101561137a57603060f81b858281518110611252576112526123e1565b01602001516001600160f81b031916108015906112935750603960f81b858281518110611281576112816123e1565b01602001516001600160f81b03191611155b156112d65760308582815181106112ac576112ac6123e1565b01602001516112be919060f81c6125fb565b6112c985600a612627565b6112d3919061263e565b93505b81156112ea57826112e68161260e565b9350505b8481815181106112fc576112fc6123e1565b01602001516001600160f81b031916601760f91b036113685781156113635760405162461bcd60e51b815260206004820152601c60248201527f537472696e6720686173206d756c7469706c6520646563696d616c73000000006044820152606401610322565b600191505b806113728161260e565b915050611232565b50858211156113d65760405162461bcd60e51b815260206004820152602260248201527f537472696e672068617320746f6f206d616e7920646563696d616c20706c6163604482015261657360f01b6064820152608401610322565b6113e082876125fb565b6113eb90600a612735565b6113f59084612627565b979650505050505050565b600061140a61214a565b60008060005b85518110156114c45785818151811061142b5761142b6123e1565b6020910101516001600160f81b031916600160fd1b14806114705750858181518110611459576114596123e1565b6020910101516001600160f81b031916601d60f91b145b156114b2576114808683836119bb565b848460088110611492576114926123e1565b60200201526114a281600161263e565b9150826114ae8161260e565b9350505b806114bc8161260e565b915050611410565b508160071461150b5760405162461bcd60e51b8152602060048201526013602482015272496e76616c6964206461746520737472696e6760681b6044820152606401610322565b614d5861156c61152560008660035b60200201519061122a565b604086015161153390611a88565b611540600088600161151a565b61154d600089600461151a565b61155a60008a600561151a565b61156760008b600661151a565b611ebe565b61122191906125fb565b60025460405163169394bb60e01b8152600481018390526001600160a01b039091169063169394bb90602401602060405180830381865afa1580156115bf573d6000803e3d6000fd5b505050506040513d601f19601f820116820180604052508101906115e39190612372565b156116305760405162461bcd60e51b815260206004820152601f60248201527f4e756c6c69666965722068617320616c7265616479206265656e2075736564006044820152606401610322565b600254604051632dea6f9960e11b8152600481018390526001600160a01b0390911690635bd4df3290602401600060405180830381600087803b15801561167657600080fd5b505af1158015610730573d6000803e3d6000fd5b606060008083865161169c9190612627565b67ffffffffffffffff8111156116b4576116b46122ab565b6040519080825280601f01601f1916602001820160405280156116de576020820181803683370190505b5090506000805b87518161ffff161015611895576000888261ffff168151811061170a5761170a6123e1565b6020026020010151905060008767ffffffffffffffff81111561172f5761172f6122ab565b604051908082528060200260200182016040528015611758578160200160208202803683370190505b50905060005b888110156117aa57611771816008612627565b83901c828281518110611786576117866123e1565b60ff90921660209283029190910190910152806117a28161260e565b91505061175e565b5060005b8881101561187f5760008282815181106117ca576117ca6123e1565b602002602001015160ff16905080600014611842578060f81b8787815181106117f5576117f56123e1565b60200101906001600160f81b031916908160001a905350856118168161260e565b96506118259050600289612757565b60ff1660000361183d5761183a600189612779565b97505b611865565b61184d600289612757565b60ff1660010361186557611862600189612779565b97505b5060089290921c91806118778161260e565b9150506117ae565b505050808061188d90612792565b9150506116e5565b5060018360ff1610156119365760405162461bcd60e51b815260206004820152605760248201527f4e6f207061636b656420627974657320666f756e642120496e76616c6964206660448201527f696e616c207374617465206f66207061636b656420627974657320696e20656d60648201527f61696c3b2076616c7565206973206c696b656c79203021000000000000000000608482015260a401610322565b858111156119a45760405162461bcd60e51b815260206004820152603560248201527f5061636b6564206279746573206d6f7265207468616e20616c6c6f776564206d6044820152746178206e756d626572206f66207369676e616c732160581b6064820152608401610322565b60006119af83611f0f565b98975050505050505050565b60608360006119ca85856125fb565b67ffffffffffffffff8111156119e2576119e26122ab565b6040519080825280601f01601f191660200182016040528015611a0c576020820181803683370190505b509050845b84811015611a7e57828181518110611a2b57611a2b6123e1565b01602001516001600160f81b03191682611a4588846125fb565b81518110611a5557611a556123e1565b60200101906001600160f81b031916908160001a90535080611a768161260e565b915050611a11565b5095945050505050565b60007f4a18c9083b936e0757952a5d9d34b5575d427661506fbe9908c2a1da3f3e80d982604051602001611abc91906124a1565b6040516020818303038152906040528051906020012003611adf57506001919050565b7f78ec83563b948f0ac242d7eaefd592adf65964e11cc27f11ae41faa99a1e990a82604051602001611b1191906124a1565b6040516020818303038152906040528051906020012003611b3457506002919050565b7f2bab7d3f253ae0e3722abcc2571faced288946968116996ffc3de31fb7348ec382604051602001611b6691906124a1565b6040516020818303038152906040528051906020012003611b8957506003919050565b7fc6f33aba2381b69f05afc78835e501547a9daffa08d674623068c378423ac18882604051602001611bbb91906124a1565b6040516020818303038152906040528051906020012003611bde57506004919050565b7fdb5ee1006003349b29eda5be5fe34f728659f836a948d4ec595114aebbb159d382604051602001611c1091906124a1565b6040516020818303038152906040528051906020012003611c3357506005919050565b7f44a0046ab54c1458fc3c39dfcadc52509ad809730ec301470d2d747dbe77242d82604051602001611c6591906124a1565b6040516020818303038152906040528051906020012003611c8857506006919050565b7f74d9e46f10329e61dc333ff1800274be516163110de31961b4e0c61de3e90c5c82604051602001611cba91906124a1565b6040516020818303038152906040528051906020012003611cdd57506007919050565b7fed40c08ab6f3d9c5d71155e25b1271d5b9eca8c27bf89e1d2293fcb77c5abf6482604051602001611d0f91906124a1565b6040516020818303038152906040528051906020012003611d3257506008919050565b7f7d801199c77197eb9933a633741db90c2c6f3d7d14aca35f5f80a41b4a8863ac82604051602001611d6491906124a1565b6040516020818303038152906040528051906020012003611d8757506009919050565b7fb7841ed82fc96483f061ddc0b19846855df22558c4aea3b3b058ce0d9f1f516482604051602001611db991906124a1565b6040516020818303038152906040528051906020012003611ddc5750600a919050565b7f487851233e540dddea8f904d6802590aead5463b1c44965d68348bb7def25cf482604051602001611e0e91906124a1565b6040516020818303038152906040528051906020012003611e315750600b919050565b7f3bd971d8758c58fe0c4d635451404450c5edda87d624a89819e0be5a122933dc82604051602001611e6391906124a1565b6040516020818303038152906040528051906020012003611e865750600c919050565b60405162461bcd60e51b815260206004820152600d60248201526c092dcecc2d8d2c840dadedce8d609b1b6044820152606401610322565b600081611ecc603c85612627565b611ed8610e1087612627565b62015180611ee78b8b8b612019565b611ef19190612627565b611efb919061263e565b611f05919061263e565b6113f5919061263e565b8051606090829060005b8251811015611f6457828181518110611f3457611f346123e1565b01602001516001600160f81b031916600003611f5257809150611f64565b80611f5c8161260e565b915050611f19565b5060008167ffffffffffffffff811115611f8057611f806122ab565b6040519080825280601f01601f191660200182016040528015611faa576020820181803683370190505b50905060005b8281101561201057838181518110611fca57611fca6123e1565b602001015160f81c60f81b828281518110611fe757611fe76123e1565b60200101906001600160f81b031916908160001a905350806120088161260e565b915050611fb0565b50949350505050565b60006107b284101561202a57600080fd5b838383600062253d8c60046064600c612044600e886127b3565b61204e91906127da565b61205a88611324612808565b6120649190612808565b61206e91906127da565b612079906003612830565b61208391906127da565b600c80612091600e886127b3565b61209b91906127da565b6120a690600c612830565b6120b16002886127b3565b6120bb91906127b3565b6120c79061016f612830565b6120d191906127da565b6004600c6120e0600e896127b3565b6120ea91906127da565b6120f6896112c0612808565b6121009190612808565b61210c906105b5612830565b61211691906127da565b612122617d4b876127b3565b61212c9190612808565b6121369190612808565b61214091906127b3565b6119af91906127b3565b6040518061010001604052806008905b606081526020019060019003908161215a5790505090565b60006020828403121561218457600080fd5b5035919050565b60006102e0828403121561219e57600080fd5b50919050565b60005b838110156121bf5781810151838201526020016121a7565b50506000910152565b60208152600082518060208401526121e78160408501602087016121a4565b601f01601f19169190910160400192915050565b6001600160a01b03811681146106c957600080fd5b60006020828403121561222257600080fd5b813561222d816121fb565b9392505050565b806040810183101561028e57600080fd5b6000806000806102e080868803121561225d57600080fd5b6122678787612234565b945060c086018781111561227a57600080fd5b60408701945061228a8882612234565b93505086818701111561229c57600080fd5b50929591945092610100019150565b634e487b7160e01b600052604160045260246000fd5b6000602082840312156122d357600080fd5b813567ffffffffffffffff808211156122eb57600080fd5b818401915084601f8301126122ff57600080fd5b813581811115612311576123116122ab565b604051601f8201601f19908116603f01168101908382118183101715612339576123396122ab565b8160405282815287602084870101111561235257600080fd5b826020860160208301376000928101602001929092525095945050505050565b60006020828403121561238457600080fd5b8151801515811461222d57600080fd5b6102e081016040808784378083018660005b60028110156123c3578382843791830191908301906001016123a6565b505050808560c0850137506101e08361010084013795945050505050565b634e487b7160e01b600052603260045260246000fd5b600181811c9082168061240b57607f821691505b60208210810361219e57634e487b7160e01b600052602260045260246000fd5b6000808354612439816123f7565b60018281168015612451576001811461246657612495565b60ff1984168752821515830287019450612495565b8760005260208060002060005b8581101561248c5781548a820152908401908201612473565b50505082870194505b50929695505050505050565b600082516124b38184602087016121a4565b9190910192915050565b601f82111561250757600081815260208120601f850160051c810160208610156124e45750805b601f850160051c820191505b81811015612503578281556001016124f0565b5050505b505050565b815167ffffffffffffffff811115612526576125266122ab565b61253a8161253484546123f7565b846124bd565b602080601f83116001811461256f57600084156125575750858301515b600019600386901b1c1916600185901b178555612503565b600085815260208120601f198616915b8281101561259e5788860151825594840194600190910190840161257f565b50858210156125bc5787850151600019600388901b60f8161c191681555b5050505050600190811b01905550565b634e487b7160e01b600052601160045260246000fd5b60ff828116828216039081111561028e5761028e6125cc565b8181038181111561028e5761028e6125cc565b600060018201612620576126206125cc565b5060010190565b808202811582820484141761028e5761028e6125cc565b8082018082111561028e5761028e6125cc565b600181815b8085111561268c578160001904821115612672576126726125cc565b8085161561267f57918102915b93841c9390800290612656565b509250929050565b6000826126a35750600161028e565b816126b05750600061028e565b81600181146126c657600281146126d0576126ec565b600191505061028e565b60ff8411156126e1576126e16125cc565b50506001821b61028e565b5060208310610133831016604e8410600b841016171561270f575081810a61028e565b6127198383612651565b806000190482111561272d5761272d6125cc565b029392505050565b600061222d8383612694565b634e487b7160e01b600052601260045260246000fd5b600060ff83168061276a5761276a612741565b8060ff84160691505092915050565b60ff818116838216019081111561028e5761028e6125cc565b600061ffff8083168181036127a9576127a96125cc565b6001019392505050565b81810360008312801583831316838312821617156127d3576127d36125cc565b5092915050565b6000826127e9576127e9612741565b600160ff1b821460001984141615612803576128036125cc565b500590565b8082018281126000831280158216821582161715612828576128286125cc565b505092915050565b80820260008212600160ff1b8414161561284c5761284c6125cc565b818105831482151761028e5761028e6125cc56fea26469706673582212207f78bfaa2a94875c8f44492d21396269592ae01e7dd1529e26b8f7453cc4be7264736f6c63430008120033",
  "devdoc": {
    "kind": "dev",
    "methods": {
      "owner()": {
        "details": "Returns the address of the current owner."
      },
      "renounceOwnership()": {
        "details": "Leaves the contract without owner. It will not be possible to call `onlyOwner` functions. Can only be called by the current owner. NOTE: Renouncing ownership will leave the contract without an owner, thereby disabling any functionality that is only available to the owner."
      },
      "setEmailFromAddress(string)": {
        "params": {
          "_emailFromAddress": "The from email address for validated emails, MUST BE PROPERLY PADDED"
        }
      },
      "transferOwnership(address)": {
        "details": "Transfers ownership of the contract to a new account (`newOwner`). Can only be called by the current owner."
      }
    },
    "version": 1
  },
  "userdoc": {
    "kind": "user",
    "methods": {
      "setEmailFromAddress(string)": {
        "notice": "ONLY OWNER: Sets the from email address for validated emails. Check that email address is properly padded (if necessary). Padding will be dependent on if unpacking functions cut trailing 0s or not."
      }
    },
    "version": 1
  },
  "storageLayout": {
    "storage": [
      {
        "astId": 7,
        "contract": "contracts/ramps/hdfc/HDFCSendProcessor.sol:HDFCSendProcessor",
        "label": "_owner",
        "offset": 0,
        "slot": "0",
        "type": "t_address"
      },
      {
        "astId": 3356,
        "contract": "contracts/ramps/hdfc/HDFCSendProcessor.sol:HDFCSendProcessor",
        "label": "mailServerKeyHashAdapter",
        "offset": 0,
        "slot": "1",
        "type": "t_contract(IKeyHashAdapterV2)3509"
      },
      {
        "astId": 3359,
        "contract": "contracts/ramps/hdfc/HDFCSendProcessor.sol:HDFCSendProcessor",
        "label": "nullifierRegistry",
        "offset": 0,
        "slot": "2",
        "type": "t_contract(INullifierRegistry)3714"
      },
      {
        "astId": 3361,
        "contract": "contracts/ramps/hdfc/HDFCSendProcessor.sol:HDFCSendProcessor",
        "label": "emailFromAddress",
        "offset": 0,
        "slot": "3",
        "type": "t_bytes_storage"
      }
    ],
    "types": {
      "t_address": {
        "encoding": "inplace",
        "label": "address",
        "numberOfBytes": "20"
      },
      "t_bytes_storage": {
        "encoding": "bytes",
        "label": "bytes",
        "numberOfBytes": "32"
      },
      "t_contract(IKeyHashAdapterV2)3509": {
        "encoding": "inplace",
        "label": "contract IKeyHashAdapterV2",
        "numberOfBytes": "20"
      },
      "t_contract(INullifierRegistry)3714": {
        "encoding": "inplace",
        "label": "contract INullifierRegistry",
        "numberOfBytes": "20"
      }
    }
  }
}