{
  "address": "0x54994E52BB29f50FB4fFdaaa0679fa332c5f83aD",
  "abi": [
    {
      "inputs": [
        {
          "internalType": "address",
          "name": "_owner",
          "type": "address"
        },
        {
          "internalType": "contract IERC20",
          "name": "_usdc",
          "type": "address"
        },
        {
          "internalType": "uint256",
          "name": "_minDepositAmount",
          "type": "uint256"
        },
        {
          "internalType": "uint256",
          "name": "_maxOnRampAmount",
          "type": "uint256"
        },
        {
          "internalType": "uint256",
          "name": "_intentExpirationPeriod",
          "type": "uint256"
        },
        {
          "internalType": "uint256",
          "name": "_onRampCooldownPeriod",
          "type": "uint256"
        },
        {
          "internalType": "uint256",
          "name": "_sustainabilityFee",
          "type": "uint256"
        },
        {
          "internalType": "address",
          "name": "_sustainabilityFeeRecipient",
          "type": "address"
        }
      ],
      "stateMutability": "nonpayable",
      "type": "constructor"
    },
    {
      "anonymous": false,
      "inputs": [
        {
          "indexed": false,
          "internalType": "uint256",
          "name": "depositId",
          "type": "uint256"
        },
        {
          "indexed": false,
          "internalType": "address",
          "name": "depositor",
          "type": "address"
        }
      ],
      "name": "DepositClosed",
      "type": "event"
    },
    {
      "anonymous": false,
      "inputs": [
        {
          "indexed": true,
          "internalType": "uint256",
          "name": "depositId",
          "type": "uint256"
        },
        {
          "indexed": true,
          "internalType": "bytes32",
          "name": "offRampId",
          "type": "bytes32"
        },
        {
          "indexed": true,
          "internalType": "bytes32",
          "name": "currencyId",
          "type": "bytes32"
        },
        {
          "indexed": false,
          "internalType": "uint256",
          "name": "amount",
          "type": "uint256"
        },
        {
          "indexed": false,
          "internalType": "uint256",
          "name": "conversionRate",
          "type": "uint256"
        }
      ],
      "name": "DepositReceived",
      "type": "event"
    },
    {
      "anonymous": false,
      "inputs": [
        {
          "indexed": true,
          "internalType": "uint256",
          "name": "depositId",
          "type": "uint256"
        },
        {
          "indexed": true,
          "internalType": "address",
          "name": "depositor",
          "type": "address"
        },
        {
          "indexed": false,
          "internalType": "uint256",
          "name": "amount",
          "type": "uint256"
        }
      ],
      "name": "DepositWithdrawn",
      "type": "event"
    },
    {
      "anonymous": false,
      "inputs": [
        {
          "indexed": false,
          "internalType": "uint256",
          "name": "intentExpirationPeriod",
          "type": "uint256"
        }
      ],
      "name": "IntentExpirationPeriodSet",
      "type": "event"
    },
    {
      "anonymous": false,
      "inputs": [
        {
          "indexed": true,
          "internalType": "bytes32",
          "name": "intentHash",
          "type": "bytes32"
        },
        {
          "indexed": true,
          "internalType": "uint256",
          "name": "depositId",
          "type": "uint256"
        },
        {
          "indexed": true,
          "internalType": "address",
          "name": "onRamper",
          "type": "address"
        },
        {
          "indexed": false,
          "internalType": "address",
          "name": "to",
          "type": "address"
        },
        {
          "indexed": false,
          "internalType": "uint256",
          "name": "amount",
          "type": "uint256"
        },
        {
          "indexed": false,
          "internalType": "uint256",
          "name": "feeAmount",
          "type": "uint256"
        }
      ],
      "name": "IntentFulfilled",
      "type": "event"
    },
    {
      "anonymous": false,
      "inputs": [
        {
          "indexed": true,
          "internalType": "bytes32",
          "name": "intentHash",
          "type": "bytes32"
        },
        {
          "indexed": true,
          "internalType": "uint256",
          "name": "depositId",
          "type": "uint256"
        }
      ],
      "name": "IntentPruned",
      "type": "event"
    },
    {
      "anonymous": false,
      "inputs": [
        {
          "indexed": true,
          "internalType": "bytes32",
          "name": "intentHash",
          "type": "bytes32"
        },
        {
          "indexed": true,
          "internalType": "uint256",
          "name": "depositId",
          "type": "uint256"
        },
        {
          "indexed": true,
          "internalType": "bytes32",
          "name": "accountId",
          "type": "bytes32"
        },
        {
          "indexed": false,
          "internalType": "address",
          "name": "to",
          "type": "address"
        },
        {
          "indexed": false,
          "internalType": "uint256",
          "name": "amount",
          "type": "uint256"
        },
        {
          "indexed": false,
          "internalType": "uint256",
          "name": "timestamp",
          "type": "uint256"
        }
      ],
      "name": "IntentSignaled",
      "type": "event"
    },
    {
      "anonymous": false,
      "inputs": [
        {
          "indexed": false,
          "internalType": "uint256",
          "name": "maxOnRampAmount",
          "type": "uint256"
        }
      ],
      "name": "MaxOnRampAmountSet",
      "type": "event"
    },
    {
      "anonymous": false,
      "inputs": [
        {
          "indexed": false,
          "internalType": "uint256",
          "name": "minDepositAmount",
          "type": "uint256"
        }
      ],
      "name": "MinDepositAmountSet",
      "type": "event"
    },
    {
      "anonymous": false,
      "inputs": [
        {
          "indexed": false,
          "internalType": "address",
          "name": "sendProcessor",
          "type": "address"
        }
      ],
      "name": "NewSendProcessorSet",
      "type": "event"
    },
    {
      "anonymous": false,
      "inputs": [
        {
          "indexed": false,
          "internalType": "uint256",
          "name": "onRampCooldownPeriod",
          "type": "uint256"
        }
      ],
      "name": "OnRampCooldownPeriodSet",
      "type": "event"
    },
    {
      "anonymous": false,
      "inputs": [
        {
          "indexed": true,
          "internalType": "address",
          "name": "previousOwner",
          "type": "address"
        },
        {
          "indexed": true,
          "internalType": "address",
          "name": "newOwner",
          "type": "address"
        }
      ],
      "name": "OwnershipTransferred",
      "type": "event"
    },
    {
      "anonymous": false,
      "inputs": [
        {
          "indexed": false,
          "internalType": "address",
          "name": "feeRecipient",
          "type": "address"
        }
      ],
      "name": "SustainabilityFeeRecipientUpdated",
      "type": "event"
    },
    {
      "anonymous": false,
      "inputs": [
        {
          "indexed": false,
          "internalType": "uint256",
          "name": "fee",
          "type": "uint256"
        }
      ],
      "name": "SustainabilityFeeUpdated",
      "type": "event"
    },
    {
      "inputs": [],
      "name": "accountRegistry",
      "outputs": [
        {
          "internalType": "contract IRevolutAccountRegistry",
          "name": "",
          "type": "address"
        }
      ],
      "stateMutability": "view",
      "type": "function"
    },
    {
      "inputs": [
        {
          "internalType": "bytes32",
          "name": "_intentHash",
          "type": "bytes32"
        }
      ],
      "name": "cancelIntent",
      "outputs": [],
      "stateMutability": "nonpayable",
      "type": "function"
    },
    {
      "inputs": [],
      "name": "depositCounter",
      "outputs": [
        {
          "internalType": "uint256",
          "name": "",
          "type": "uint256"
        }
      ],
      "stateMutability": "view",
      "type": "function"
    },
    {
      "inputs": [
        {
          "internalType": "uint256",
          "name": "",
          "type": "uint256"
        }
      ],
      "name": "deposits",
      "outputs": [
        {
          "internalType": "address",
          "name": "depositor",
          "type": "address"
        },
        {
          "internalType": "string",
          "name": "revolutTag",
          "type": "string"
        },
        {
          "internalType": "address",
          "name": "verifierSigningKey",
          "type": "address"
        },
        {
          "internalType": "uint256",
          "name": "depositAmount",
          "type": "uint256"
        },
        {
          "internalType": "bytes32",
          "name": "receiveCurrencyId",
          "type": "bytes32"
        },
        {
          "internalType": "uint256",
          "name": "remainingDeposits",
          "type": "uint256"
        },
        {
          "internalType": "uint256",
          "name": "outstandingIntentAmount",
          "type": "uint256"
        },
        {
          "internalType": "uint256",
          "name": "conversionRate",
          "type": "uint256"
        }
      ],
      "stateMutability": "view",
      "type": "function"
    },
    {
      "inputs": [
        {
          "internalType": "address",
          "name": "_account",
          "type": "address"
        }
      ],
      "name": "getAccountDeposits",
      "outputs": [
        {
          "components": [
            {
              "internalType": "uint256",
              "name": "depositId",
              "type": "uint256"
            },
            {
              "internalType": "bytes32",
              "name": "depositorId",
              "type": "bytes32"
            },
            {
              "components": [
                {
                  "internalType": "address",
                  "name": "depositor",
                  "type": "address"
                },
                {
                  "internalType": "string",
                  "name": "revolutTag",
                  "type": "string"
                },
                {
                  "internalType": "address",
                  "name": "verifierSigningKey",
                  "type": "address"
                },
                {
                  "internalType": "uint256",
                  "name": "depositAmount",
                  "type": "uint256"
                },
                {
                  "internalType": "bytes32",
                  "name": "receiveCurrencyId",
                  "type": "bytes32"
                },
                {
                  "internalType": "uint256",
                  "name": "remainingDeposits",
                  "type": "uint256"
                },
                {
                  "internalType": "uint256",
                  "name": "outstandingIntentAmount",
                  "type": "uint256"
                },
                {
                  "internalType": "uint256",
                  "name": "conversionRate",
                  "type": "uint256"
                },
                {
                  "internalType": "bytes32[]",
                  "name": "intentHashes",
                  "type": "bytes32[]"
                }
              ],
              "internalType": "struct RevolutRamp.Deposit",
              "name": "deposit",
              "type": "tuple"
            },
            {
              "internalType": "uint256",
              "name": "availableLiquidity",
              "type": "uint256"
            }
          ],
          "internalType": "struct RevolutRamp.DepositWithAvailableLiquidity[]",
          "name": "accountDeposits",
          "type": "tuple[]"
        }
      ],
      "stateMutability": "view",
      "type": "function"
    },
    {
      "inputs": [
        {
          "internalType": "uint256",
          "name": "_depositId",
          "type": "uint256"
        }
      ],
      "name": "getDeposit",
      "outputs": [
        {
          "components": [
            {
              "internalType": "address",
              "name": "depositor",
              "type": "address"
            },
            {
              "internalType": "string",
              "name": "revolutTag",
              "type": "string"
            },
            {
              "internalType": "address",
              "name": "verifierSigningKey",
              "type": "address"
            },
            {
              "internalType": "uint256",
              "name": "depositAmount",
              "type": "uint256"
            },
            {
              "internalType": "bytes32",
              "name": "receiveCurrencyId",
              "type": "bytes32"
            },
            {
              "internalType": "uint256",
              "name": "remainingDeposits",
              "type": "uint256"
            },
            {
              "internalType": "uint256",
              "name": "outstandingIntentAmount",
              "type": "uint256"
            },
            {
              "internalType": "uint256",
              "name": "conversionRate",
              "type": "uint256"
            },
            {
              "internalType": "bytes32[]",
              "name": "intentHashes",
              "type": "bytes32[]"
            }
          ],
          "internalType": "struct RevolutRamp.Deposit",
          "name": "",
          "type": "tuple"
        }
      ],
      "stateMutability": "view",
      "type": "function"
    },
    {
      "inputs": [
        {
          "internalType": "uint256[]",
          "name": "_depositIds",
          "type": "uint256[]"
        }
      ],
      "name": "getDepositFromIds",
      "outputs": [
        {
          "components": [
            {
              "internalType": "uint256",
              "name": "depositId",
              "type": "uint256"
            },
            {
              "internalType": "bytes32",
              "name": "depositorId",
              "type": "bytes32"
            },
            {
              "components": [
                {
                  "internalType": "address",
                  "name": "depositor",
                  "type": "address"
                },
                {
                  "internalType": "string",
                  "name": "revolutTag",
                  "type": "string"
                },
                {
                  "internalType": "address",
                  "name": "verifierSigningKey",
                  "type": "address"
                },
                {
                  "internalType": "uint256",
                  "name": "depositAmount",
                  "type": "uint256"
                },
                {
                  "internalType": "bytes32",
                  "name": "receiveCurrencyId",
                  "type": "bytes32"
                },
                {
                  "internalType": "uint256",
                  "name": "remainingDeposits",
                  "type": "uint256"
                },
                {
                  "internalType": "uint256",
                  "name": "outstandingIntentAmount",
                  "type": "uint256"
                },
                {
                  "internalType": "uint256",
                  "name": "conversionRate",
                  "type": "uint256"
                },
                {
                  "internalType": "bytes32[]",
                  "name": "intentHashes",
                  "type": "bytes32[]"
                }
              ],
              "internalType": "struct RevolutRamp.Deposit",
              "name": "deposit",
              "type": "tuple"
            },
            {
              "internalType": "uint256",
              "name": "availableLiquidity",
              "type": "uint256"
            }
          ],
          "internalType": "struct RevolutRamp.DepositWithAvailableLiquidity[]",
          "name": "depositArray",
          "type": "tuple[]"
        }
      ],
      "stateMutability": "view",
      "type": "function"
    },
    {
      "inputs": [
        {
          "internalType": "address",
          "name": "_account",
          "type": "address"
        }
      ],
      "name": "getIdCurrentIntentHash",
      "outputs": [
        {
          "internalType": "bytes32",
          "name": "",
          "type": "bytes32"
        }
      ],
      "stateMutability": "view",
      "type": "function"
    },
    {
      "inputs": [
        {
          "internalType": "address",
          "name": "_account",
          "type": "address"
        }
      ],
      "name": "getIdCurrentIntentHashAsUint",
      "outputs": [
        {
          "internalType": "uint256",
          "name": "",
          "type": "uint256"
        }
      ],
      "stateMutability": "view",
      "type": "function"
    },
    {
      "inputs": [
        {
          "internalType": "bytes32[]",
          "name": "_intentHashes",
          "type": "bytes32[]"
        }
      ],
      "name": "getIntentsWithOnRamperId",
      "outputs": [
        {
          "components": [
            {
              "internalType": "bytes32",
              "name": "intentHash",
              "type": "bytes32"
            },
            {
              "components": [
                {
                  "internalType": "address",
                  "name": "onRamper",
                  "type": "address"
                },
                {
                  "internalType": "address",
                  "name": "to",
                  "type": "address"
                },
                {
                  "internalType": "uint256",
                  "name": "deposit",
                  "type": "uint256"
                },
                {
                  "internalType": "uint256",
                  "name": "amount",
                  "type": "uint256"
                },
                {
                  "internalType": "uint256",
                  "name": "intentTimestamp",
                  "type": "uint256"
                }
              ],
              "internalType": "struct RevolutRamp.Intent",
              "name": "intent",
              "type": "tuple"
            },
            {
              "internalType": "bytes32",
              "name": "onRamperId",
              "type": "bytes32"
            }
          ],
          "internalType": "struct RevolutRamp.IntentWithOnRamperId[]",
          "name": "",
          "type": "tuple[]"
        }
      ],
      "stateMutability": "view",
      "type": "function"
    },
    {
      "inputs": [
        {
          "internalType": "address",
          "name": "_account",
          "type": "address"
        }
      ],
      "name": "getLastOnRampTimestamp",
      "outputs": [
        {
          "internalType": "uint256",
          "name": "",
          "type": "uint256"
        }
      ],
      "stateMutability": "view",
      "type": "function"
    },
    {
      "inputs": [
        {
          "internalType": "contract IRevolutAccountRegistry",
          "name": "_accountRegistry",
          "type": "address"
        },
        {
          "internalType": "contract IRevolutSendProcessor",
          "name": "_sendProcessor",
          "type": "address"
        }
      ],
      "name": "initialize",
      "outputs": [],
      "stateMutability": "nonpayable",
      "type": "function"
    },
    {
      "inputs": [],
      "name": "intentExpirationPeriod",
      "outputs": [
        {
          "internalType": "uint256",
          "name": "",
          "type": "uint256"
        }
      ],
      "stateMutability": "view",
      "type": "function"
    },
    {
      "inputs": [
        {
          "internalType": "bytes32",
          "name": "",
          "type": "bytes32"
        }
      ],
      "name": "intents",
      "outputs": [
        {
          "internalType": "address",
          "name": "onRamper",
          "type": "address"
        },
        {
          "internalType": "address",
          "name": "to",
          "type": "address"
        },
        {
          "internalType": "uint256",
          "name": "deposit",
          "type": "uint256"
        },
        {
          "internalType": "uint256",
          "name": "amount",
          "type": "uint256"
        },
        {
          "internalType": "uint256",
          "name": "intentTimestamp",
          "type": "uint256"
        }
      ],
      "stateMutability": "view",
      "type": "function"
    },
    {
      "inputs": [],
      "name": "isInitialized",
      "outputs": [
        {
          "internalType": "bool",
          "name": "",
          "type": "bool"
        }
      ],
      "stateMutability": "view",
      "type": "function"
    },
    {
      "inputs": [],
      "name": "maxOnRampAmount",
      "outputs": [
        {
          "internalType": "uint256",
          "name": "",
          "type": "uint256"
        }
      ],
      "stateMutability": "view",
      "type": "function"
    },
    {
      "inputs": [],
      "name": "minDepositAmount",
      "outputs": [
        {
          "internalType": "uint256",
          "name": "",
          "type": "uint256"
        }
      ],
      "stateMutability": "view",
      "type": "function"
    },
    {
      "inputs": [
        {
          "internalType": "string",
          "name": "_revolutTag",
          "type": "string"
        },
        {
          "internalType": "bytes32",
          "name": "_receiveCurrencyId",
          "type": "bytes32"
        },
        {
          "internalType": "uint256",
          "name": "_depositAmount",
          "type": "uint256"
        },
        {
          "internalType": "uint256",
          "name": "_receiveAmount",
          "type": "uint256"
        },
        {
          "internalType": "address",
          "name": "_verifierSigningKey",
          "type": "address"
        }
      ],
      "name": "offRamp",
      "outputs": [],
      "stateMutability": "nonpayable",
      "type": "function"
    },
    {
      "inputs": [
        {
          "components": [
            {
              "internalType": "string",
              "name": "endpoint",
              "type": "string"
            },
            {
              "internalType": "string",
              "name": "host",
              "type": "string"
            },
            {
              "internalType": "string",
              "name": "transferId",
              "type": "string"
            },
            {
              "internalType": "string",
              "name": "recipientId",
              "type": "string"
            },
            {
              "internalType": "string",
              "name": "amount",
              "type": "string"
            },
            {
              "internalType": "string",
              "name": "currencyId",
              "type": "string"
            },
            {
              "internalType": "string",
              "name": "status",
              "type": "string"
            },
            {
              "internalType": "string",
              "name": "timestamp",
              "type": "string"
            },
            {
              "internalType": "uint256",
              "name": "intentHash",
              "type": "uint256"
            }
          ],
          "internalType": "struct IRevolutSendProcessor.SendData",
          "name": "_sendData",
          "type": "tuple"
        },
        {
          "internalType": "bytes",
          "name": "_verifierSignature",
          "type": "bytes"
        }
      ],
      "name": "onRamp",
      "outputs": [],
      "stateMutability": "nonpayable",
      "type": "function"
    },
    {
      "inputs": [],
      "name": "onRampCooldownPeriod",
      "outputs": [
        {
          "internalType": "uint256",
          "name": "",
          "type": "uint256"
        }
      ],
      "stateMutability": "view",
      "type": "function"
    },
    {
      "inputs": [],
      "name": "owner",
      "outputs": [
        {
          "internalType": "address",
          "name": "",
          "type": "address"
        }
      ],
      "stateMutability": "view",
      "type": "function"
    },
    {
      "inputs": [
        {
          "internalType": "bytes32",
          "name": "_intentHash",
          "type": "bytes32"
        }
      ],
      "name": "releaseFundsToOnramper",
      "outputs": [],
      "stateMutability": "nonpayable",
      "type": "function"
    },
    {
      "inputs": [],
      "name": "renounceOwnership",
      "outputs": [],
      "stateMutability": "nonpayable",
      "type": "function"
    },
    {
      "inputs": [],
      "name": "sendProcessor",
      "outputs": [
        {
          "internalType": "contract IRevolutSendProcessor",
          "name": "",
          "type": "address"
        }
      ],
      "stateMutability": "view",
      "type": "function"
    },
    {
      "inputs": [
        {
          "internalType": "uint256",
          "name": "_intentExpirationPeriod",
          "type": "uint256"
        }
      ],
      "name": "setIntentExpirationPeriod",
      "outputs": [],
      "stateMutability": "nonpayable",
      "type": "function"
    },
    {
      "inputs": [
        {
          "internalType": "uint256",
          "name": "_maxOnRampAmount",
          "type": "uint256"
        }
      ],
      "name": "setMaxOnRampAmount",
      "outputs": [],
      "stateMutability": "nonpayable",
      "type": "function"
    },
    {
      "inputs": [
        {
          "internalType": "uint256",
          "name": "_minDepositAmount",
          "type": "uint256"
        }
      ],
      "name": "setMinDepositAmount",
      "outputs": [],
      "stateMutability": "nonpayable",
      "type": "function"
    },
    {
      "inputs": [
        {
          "internalType": "uint256",
          "name": "_onRampCooldownPeriod",
          "type": "uint256"
        }
      ],
      "name": "setOnRampCooldownPeriod",
      "outputs": [],
      "stateMutability": "nonpayable",
      "type": "function"
    },
    {
      "inputs": [
        {
          "internalType": "contract IRevolutSendProcessor",
          "name": "_sendProcessor",
          "type": "address"
        }
      ],
      "name": "setSendProcessor",
      "outputs": [],
      "stateMutability": "nonpayable",
      "type": "function"
    },
    {
      "inputs": [
        {
          "internalType": "uint256",
          "name": "_fee",
          "type": "uint256"
        }
      ],
      "name": "setSustainabilityFee",
      "outputs": [],
      "stateMutability": "nonpayable",
      "type": "function"
    },
    {
      "inputs": [
        {
          "internalType": "address",
          "name": "_feeRecipient",
          "type": "address"
        }
      ],
      "name": "setSustainabilityFeeRecipient",
      "outputs": [],
      "stateMutability": "nonpayable",
      "type": "function"
    },
    {
      "inputs": [
        {
          "internalType": "uint256",
          "name": "_depositId",
          "type": "uint256"
        },
        {
          "internalType": "uint256",
          "name": "_amount",
          "type": "uint256"
        },
        {
          "internalType": "address",
          "name": "_to",
          "type": "address"
        }
      ],
      "name": "signalIntent",
      "outputs": [],
      "stateMutability": "nonpayable",
      "type": "function"
    },
    {
      "inputs": [],
      "name": "sustainabilityFee",
      "outputs": [
        {
          "internalType": "uint256",
          "name": "",
          "type": "uint256"
        }
      ],
      "stateMutability": "view",
      "type": "function"
    },
    {
      "inputs": [],
      "name": "sustainabilityFeeRecipient",
      "outputs": [
        {
          "internalType": "address",
          "name": "",
          "type": "address"
        }
      ],
      "stateMutability": "view",
      "type": "function"
    },
    {
      "inputs": [
        {
          "internalType": "address",
          "name": "newOwner",
          "type": "address"
        }
      ],
      "name": "transferOwnership",
      "outputs": [],
      "stateMutability": "nonpayable",
      "type": "function"
    },
    {
      "inputs": [],
      "name": "usdc",
      "outputs": [
        {
          "internalType": "contract IERC20",
          "name": "",
          "type": "address"
        }
      ],
      "stateMutability": "view",
      "type": "function"
    },
    {
      "inputs": [
        {
          "internalType": "uint256[]",
          "name": "_depositIds",
          "type": "uint256[]"
        }
      ],
      "name": "withdrawDeposit",
      "outputs": [],
      "stateMutability": "nonpayable",
      "type": "function"
    }
  ],
  "transactionHash": "0xa14b181555fcaf6f48f624e2686edd647ebf443a7fa1689e20be32091c623e56",
  "args": [
    "0x4e39cF8578698131c57404e8bc3eEC820EDa51d8",
    "0xBBA5C9bd54a4293f4261b38e5aD41820eC41ed86",
    "20000000",
    "20000000",
    "180",
    "180",
    "1000000000000000",
    "0x4e39cF8578698131c57404e8bc3eEC820EDa51d8"
  ],
  "numDeployments": 1,
  "solcInputHash": "8f4bf7f45c28925cb238117838cfd64c",
  "bytecode": "0x60a06040523480156200001157600080fd5b50604051620047a5380380620047a58339810160408190526200003491620001dd565b6200003f3362000096565b6001600160a01b038781166080526006879055600786905560098590556008849055600a839055600b80546001600160a01b0319169183169190911790556200008888620000e6565b505050505050505062000263565b600080546001600160a01b038381166001600160a01b0319831681178455604051919092169283917f8be0079c531659141344cd1fd0a4f28419497f9722a3daafe3b4186f6b6457e09190a35050565b620000f062000169565b6001600160a01b0381166200015b5760405162461bcd60e51b815260206004820152602660248201527f4f776e61626c653a206e6577206f776e657220697320746865207a65726f206160448201526564647265737360d01b60648201526084015b60405180910390fd5b620001668162000096565b50565b6000546001600160a01b03163314620001c55760405162461bcd60e51b815260206004820181905260248201527f4f776e61626c653a2063616c6c6572206973206e6f7420746865206f776e6572604482015260640162000152565b565b6001600160a01b03811681146200016657600080fd5b600080600080600080600080610100898b031215620001fb57600080fd5b88516200020881620001c7565b60208a01519098506200021b81620001c7565b8097505060408901519550606089015194506080890151935060a0890151925060c0890151915060e08901516200025281620001c7565b809150509295985092959890939650565b60805161450a6200029b600039600081816102e50152818161186d01528181611e500152818161330c01526133bb015261450a6000f3fe608060405234801561001057600080fd5b50600436106102275760003560e01c80637113476211610130578063b3c0cfa4116100b8578063e279d9641161007c578063e279d96414610540578063ecb3dc8814610549578063ecd618f014610552578063eea1d19714610572578063f2fde38b1461058557600080fd5b8063b3c0cfa4146104e1578063b3fa4c01146104f4578063d089e11a14610507578063d55f960d1461051a578063d9478d201461052d57600080fd5b80639021578a116100ff5780639021578a146104025780639087beff1461047e5780639f9fb96814610491578063a1a954b7146104b1578063b02c43d0146104ba57600080fd5b806371134762146103c3578063715018a6146103d657806371a28f69146103de5780638da5cb5b146103f157600080fd5b806342987349116101b3578063534aa07c11610182578063534aa07c1461036e5780635b68074b146103815780635dd7651514610394578063645006ca146103a757806366ec8419146103b057600080fd5b8063429873491461031f578063485cc95514610332578063495223e7146103455780635081d9521461034e57600080fd5b80632a80cda3116101fa5780632a80cda314610283578063317dcc9614610296578063392e53cd146102a95780633adba28a146102cd5780633e413bee146102e057600080fd5b80630f1ef98c1461022c578063133de6cb1461025257806314ec32fa14610267578063238c84941461027a575b600080fd5b61023f61023a3660046138b3565b610598565b6040519081526020015b60405180910390f35b6102656102603660046138b3565b610627565b005b61023f6102753660046138b3565b610684565b61023f600a5481565b6102656102913660046138d7565b610711565b6102656102a43660046138d7565b6107a3565b6002546102bd90600160a01b900460ff1681565b6040519015158152602001610249565b6102656102db3660046138f0565b6107e0565b6103077f000000000000000000000000000000000000000000000000000000000000000081565b6040516001600160a01b039091168152602001610249565b61026561032d3660046138d7565b610ee4565b610265610340366004613929565b610f85565b61023f60085481565b61036161035c3660046138b3565b611018565b6040516102499190613a7e565b61026561037c366004613b4b565b6113d8565b61026561038f366004613bbd565b611935565b6102656103a23660046138d7565b611a64565b61023f60065481565b6102656103be3660046138d7565b611b03565b6102656103d1366004613c9d565b611cd2565b610265611ec5565b6103616103ec366004613c9d565b611ed9565b6000546001600160a01b0316610307565b61044b6104103660046138d7565b600560205260009081526040902080546001820154600283015460038401546004909401546001600160a01b03938416949390921692909185565b604080516001600160a01b039687168152959094166020860152928401919091526060830152608082015260a001610249565b61026561048c3660046138d7565b6121c1565b6104a461049f3660046138d7565b612258565b6040516102499190613d42565b61023f60095481565b6104cd6104c83660046138d7565b6123df565b604051610249989796959493929190613d55565b61023f6104ef3660046138b3565b6124bf565b6102656105023660046138b3565b6124d0565b600154610307906001600160a01b031681565b6102656105283660046138d7565b612588565b600b54610307906001600160a01b031681565b61023f60075481565b61023f600c5481565b610565610560366004613dad565b6127a8565b6040516102499190613e21565b600254610307906001600160a01b031681565b6102656105933660046138b3565b61299f565b60015460405163e0b490f760e01b81526001600160a01b03838116600483015260009260039284929091169063e0b490f790602401602060405180830381865afa1580156105ea573d6000803e3d6000fd5b505050506040513d601f19601f8201168201806040525081019061060e9190613eb1565b8152602001908152602001600020600101549050919050565b61062f612a18565b600280546001600160a01b0319166001600160a01b0383169081179091556040519081527f6e7665a41605edc0d70f4b991d652755f380754eb092d81ef9ab93664778d59e906020015b60405180910390a150565b60015460405163e0b490f760e01b81526001600160a01b03838116600483015260009260039284929091169063e0b490f790602401602060405180830381865afa1580156106d6573d6000803e3d6000fd5b505050506040513d601f19601f820116820180604052508101906106fa9190613eb1565b815260208101919091526040016000205492915050565b610719612a18565b8060000361076e5760405162461bcd60e51b815260206004820152601e60248201527f4d696e696d756d206465706f7369742063616e6e6f74206265207a65726f000060448201526064015b60405180910390fd5b60068190556040518181527fbdde72a6d8d8b42770c9899945ccdce09d0c5c794d3326cdb2d2cca61b12a9fc90602001610679565b6107ab612a18565b60088190556040518181527f88397975d177ce5e18abf3a5fdb8de773e80673d85eeb54f48cfaf688b3d2c3e90602001610679565b600154604051631f5bdf5d60e01b81523360048201526001600160a01b0390911690631f5bdf5d90602401602060405180830381865afa158015610828573d6000803e3d6000fd5b505050506040513d601f19601f8201168201806040525081019061084c9190613eca565b6108985760405162461bcd60e51b815260206004820152601e60248201527f43616c6c6572206d7573742062652072656769737465726564207573657200006044820152606401610765565b60015460405163e0b490f760e01b81523360048201526000916001600160a01b03169063e0b490f790602401602060405180830381865afa1580156108e1573d6000803e3d6000fd5b505050506040513d601f19601f820116820180604052508101906109059190613eb1565b60008581526004602081905260409182902060015481549351630359b09b60e31b81526001600160a01b039485169381019390935260248301859052939450929190911690631acd84d890604401602060405180830381865afa158015610970573d6000803e3d6000fd5b505050506040513d601f19601f820116820180604052508101906109949190613eca565b6109e05760405162461bcd60e51b815260206004820181905260248201527f4f6e72616d706572206f6e206465706f7369746f7227732064656e796c6973746044820152606401610765565b6008546000838152600360205260409020600101544291610a0091613f02565b1115610a5a5760405162461bcd60e51b8152602060048201526024808201527f4f6e2072616d7020636f6f6c20646f776e20706572696f64206e6f7420656c616044820152631c1cd95960e21b6064820152608401610765565b60008281526003602052604090205415610ab65760405162461bcd60e51b815260206004820152601860248201527f496e74656e74207374696c6c206f75747374616e64696e6700000000000000006044820152606401610765565b600154815460405163e0b490f760e01b81526001600160a01b0391821660048201528492919091169063e0b490f790602401602060405180830381865afa158015610b05573d6000803e3d6000fd5b505050506040513d601f19601f82011682018060405250810190610b299190613eb1565b03610b765760405162461bcd60e51b815260206004820152601e60248201527f53656e6465722063616e6e6f7420626520746865206465706f7369746f7200006044820152606401610765565b80546001600160a01b0316610bc65760405162461bcd60e51b815260206004820152601660248201527511195c1bdcda5d08191bd95cc81b9bdd08195e1a5cdd60521b6044820152606401610765565b60008411610c255760405162461bcd60e51b815260206004820152602660248201527f5369676e616c656420616d6f756e74206d75737420626520677265617465722060448201526507468616e20360d41b6064820152608401610765565b600754841115610c945760405162461bcd60e51b815260206004820152603460248201527f5369676e616c656420616d6f756e74206d757374206265206c657373207468616044820152731b881b585e081bdb8b5c985b5c08185b5bdd5b9d60621b6064820152608401610765565b6001600160a01b038316610cea5760405162461bcd60e51b815260206004820152601b60248201527f43616e6e6f742073656e6420746f207a65726f206164647265737300000000006044820152606401610765565b6000610cf68387612a72565b90508482600501541015610dab57600080610d1088612add565b9150915086818560050154610d259190613f02565b1015610d6a5760405162461bcd60e51b81526020600482015260146024820152734e6f7420656e6f756768206c697175696469747960601b6044820152606401610765565b610d748483612c84565b80846005016000828254610d889190613f02565b9250508190555080846006016000828254610da39190613f15565b909155505050505b6040805160a0810182523381526001600160a01b0386811660208084019182528385018b8152606085018b8152426080870190815260008981526005808652898220985189549089166001600160a01b0319918216178a55965160018a01805491909916971696909617909655915160028701555160038087019190915590516004909501949094558783529290925291822083905583018054879290610e53908490613f15565b9250508190555084826006016000828254610e6e9190613f02565b9091555050600882018054600181018255600091825260209182902001829055604080516001600160a01b038716815291820187905242908201528390879083907f1a1292e170a0f000ccf956afba79bee0f9ec1d81f3f901c1d4d11e1f336aae109060600160405180910390a4505050505050565b610eec612a18565b80600003610f505760405162461bcd60e51b815260206004820152602b60248201527f4d617820696e74656e742065787069726174696f6e20706572696f642063616e60448201526a6e6f74206265207a65726f60a81b6064820152608401610765565b60098190556040518181527f55e3f6b95de9a0ec782f892e93fafe4e56be0696df204ddf8e0a40a9a713a80390602001610679565b610f8d612a18565b600254600160a01b900460ff1615610fdd5760405162461bcd60e51b8152602060048201526013602482015272105b1c9958591e481a5b9a5d1a585b1a5e9959606a1b6044820152606401610765565b600180546001600160a01b039384166001600160a01b0319909116179055600280546001600160a81b0319169190921617600160a01b179055565b60015460405163e0b490f760e01b81526001600160a01b0383811660048301526060926000926003928492169063e0b490f790602401602060405180830381865afa15801561106b573d6000803e3d6000fd5b505050506040513d601f19601f8201168201806040525081019061108f9190613eb1565b81526020019081526020016000206002018054806020026020016040519081016040528092919081815260200182805480156110ea57602002820191906000526020600020905b8154815260200190600101908083116110d6575b5050505050905080516001600160401b0381111561110a5761110a613c2e565b60405190808252806020026020018201604052801561114357816020015b61113061375d565b8152602001906001900390816111285790505b50915060005b81518110156113d157600082828151811061116657611166613f28565b60209081029190910181015160008181526004835260408082208151610120810190925280546001600160a01b0316825260018101805494965092949193909291840191906111b490613f3e565b80601f01602080910402602001604051908101604052809291908181526020018280546111e090613f3e565b801561122d5780601f106112025761010080835404028352916020019161122d565b820191906000526020600020905b81548152906001019060200180831161121057829003601f168201915b505050505081526020016002820160009054906101000a90046001600160a01b03166001600160a01b03166001600160a01b031681526020016003820154815260200160048201548152602001600582015481526020016006820154815260200160078201548152602001600882018054806020026020016040519081016040528092919081815260200182805480156112e657602002820191906000526020600020905b8154815260200190600101908083116112d2575b505050505081525050905060006112fc83612add565b604080516080810182528681526001548651925163e0b490f760e01b81526001600160a01b039384166004820152939550909350602084019291169063e0b490f790602401602060405180830381865afa15801561135e573d6000803e3d6000fd5b505050506040513d601f19601f820116820180604052508101906113829190613eb1565b8152602001838152602001828460a0015161139d9190613f02565b8152508685815181106113b2576113b2613f28565b6020026020010181905250505050806113ca90613f72565b9050611149565b5050919050565b600154604051631f5bdf5d60e01b81523360048201526001600160a01b0390911690631f5bdf5d90602401602060405180830381865afa158015611420573d6000803e3d6000fd5b505050506040513d601f19601f820116820180604052508101906114449190613eca565b6114905760405162461bcd60e51b815260206004820152601e60248201527f43616c6c6572206d7573742062652072656769737465726564207573657200006044820152606401610765565b60015460405163e0b490f760e01b81523360048201526000916001600160a01b03169063e0b490f790602401602060405180830381865afa1580156114d9573d6000803e3d6000fd5b505050506040513d601f19601f820116820180604052508101906114fd9190613eb1565b9050600060036000838152602001908152602001600020905081888860405160200161152a929190613f8b565b604051602081830303815290604052805190602001201461158d5760405162461bcd60e51b815260206004820152601960248201527f5265766f6c757420746167206d757374206d61746368206964000000000000006044820152606401610765565b60028101546005116115e15760405162461bcd60e51b815260206004820152601e60248201527f4d6178696d756d206465706f73697420616d6f756e74207265616368656400006044820152606401610765565b6006548510156116525760405162461bcd60e51b815260206004820152603660248201527f4465706f73697420616d6f756e74206d757374206265206772656174657220746044820152751a185b881b5a5b8819195c1bdcda5d08185b5bdd5b9d60521b6064820152608401610765565b600084116116b05760405162461bcd60e51b815260206004820152602560248201527f5265636569766520616d6f756e74206d75737420626520677265617465722074604482015264068616e20360dc1b6064820152608401610765565b6000846116c5670de0b6b3a764000088613fba565b6116cf9190613fe7565b600c805491925060009190826116e483613f72565b9091555060028401805460018101825560009182526020918290200182905560408051610120810182523381528151601f8e018490048402810184019092528c8252929350828201918d908d908190840183828082843760009201829052509385525050506001600160a01b03881660208084019190915260408084018c9052606084018d9052608084018c905260a0840183905260c084018790528051838152918201905260e090920191905090526000828152600460209081526040909120825181546001600160a01b0319166001600160a01b039091161781559082015160018201906117d49082614041565b5060408201516002820180546001600160a01b0319166001600160a01b03909216919091179055606082015160038201556080820151600482015560a0820151600582015560c0820151600682015560e082015160078201556101008201518051611849916008840191602090910190613789565b50506040516323b872dd60e01b8152336004820152306024820152604481018990527f00000000000000000000000000000000000000000000000000000000000000006001600160a01b031691506323b872dd906064016020604051808303816000875af11580156118bf573d6000803e3d6000fd5b505050506040513d601f19601f820116820180604052508101906118e39190613eca565b508784827f94c4b6f8843ea372709c89bc4a9ed85ef74ab10a68713ffdddc31716a76a6c958a86604051611921929190918252602082015260400190565b60405180910390a450505050505050505050565b6000806000611945868686612ce6565b6040805160a08101825284546001600160a01b03908116825260018601541660208201526002850154918101919091526003840154606082015260049093015460808401529194509250905061199b8282612ff0565b82606001518260060160008282546119b39190613f15565b9091555050600154835160405163e0b490f760e01b81526001600160a01b039182166004820152429260039260009291169063e0b490f790602401602060405180830381865afa158015611a0b573d6000803e3d6000fd5b505050506040513d601f19601f82011682018060405250810190611a2f9190613eb1565b815260200190815260200160002060010181905550611a52836040015183613139565b611a5c81846132af565b505050505050565b611a6c612a18565b66b1a2bc2ec50000811115611ace5760405162461bcd60e51b815260206004820152602260248201527f4665652063616e6e6f742062652067726561746572207468616e206d61782066604482015261656560f01b6064820152608401610765565b600a8190556040518181527f44f48e1b871e6db1e909a7b253b054b7150a0b4ddf4d59b159c827d82e72567090602001610679565b6000818152600560209081526040808320815160a08101835281546001600160a01b03908116825260018301548116828601526002830154828501819052600384015460608401526004938401546080840152865291909352922081519192909116611ba95760405162461bcd60e51b8152602060048201526015602482015274125b9d195b9d08191bd95cc81b9bdd08195e1a5cdd605a1b6044820152606401610765565b80546001600160a01b03163314611c025760405162461bcd60e51b815260206004820152601c60248201527f43616c6c6572206d75737420626520746865206465706f7369746f72000000006044820152606401610765565b611c0c8184612ff0565b8160600151816006016000828254611c249190613f15565b9091555050600154825160405163e0b490f760e01b81526001600160a01b039182166004820152429260039260009291169063e0b490f790602401602060405180830381865afa158015611c7c573d6000803e3d6000fd5b505050506040513d601f19601f82011682018060405250810190611ca09190613eb1565b815260200190815260200160002060010181905550611cc3826040015182613139565b611ccd83836132af565b505050565b6000805b8251811015611e33576000838281518110611cf357611cf3613f28565b6020908102919091018101516000818152600490925260409091208054919250906001600160a01b03163314611d6b5760405162461bcd60e51b815260206004820152601c60248201527f53656e646572206d75737420626520746865206465706f7369746f72000000006044820152606401610765565b600080611d7784612add565b91509150611d858383612c84565b808360050154611d959190613f02565b611d9f9087613f02565b955080836006016000828254611db59190613f15565b9091555050825460058401546001600160a01b039091169085907fae1f357660ab777dcfd38c0ab6357834684ec26289ecfa07ec65dbf6c3c6431290611dfc908590613f02565b60405190815260200160405180910390a360006005840155611e1e8484613139565b5050505080611e2c90613f72565b9050611cd6565b5060405163a9059cbb60e01b8152336004820152602481018290527f00000000000000000000000000000000000000000000000000000000000000006001600160a01b03169063a9059cbb906044016020604051808303816000875af1158015611ea1573d6000803e3d6000fd5b505050506040513d601f19601f82011682018060405250810190611ccd9190613eca565b611ecd612a18565b611ed7600061348d565b565b606081516001600160401b03811115611ef457611ef4613c2e565b604051908082528060200260200182016040528015611f2d57816020015b611f1a61375d565b815260200190600190039081611f125790505b50905060005b82518110156121bb576000838281518110611f5057611f50613f28565b60209081029190910181015160008181526004835260408082208151610120810190925280546001600160a01b031682526001810180549496509294919390929184019190611f9e90613f3e565b80601f0160208091040260200160405190810160405280929190818152602001828054611fca90613f3e565b80156120175780601f10611fec57610100808354040283529160200191612017565b820191906000526020600020905b815481529060010190602001808311611ffa57829003601f168201915b505050505081526020016002820160009054906101000a90046001600160a01b03166001600160a01b03166001600160a01b031681526020016003820154815260200160048201548152602001600582015481526020016006820154815260200160078201548152602001600882018054806020026020016040519081016040528092919081815260200182805480156120d057602002820191906000526020600020905b8154815260200190600101908083116120bc575b505050505081525050905060006120e683612add565b604080516080810182528681526001548651925163e0b490f760e01b81526001600160a01b039384166004820152939550909350602084019291169063e0b490f790602401602060405180830381865afa158015612148573d6000803e3d6000fd5b505050506040513d601f19601f8201168201806040525081019061216c9190613eb1565b8152602001838152602001828460a001516121879190613f02565b81525085858151811061219c5761219c613f28565b6020026020010181905250505050806121b490613f72565b9050611f33565b50919050565b6121c9612a18565b806000036122235760405162461bcd60e51b815260206004820152602160248201527f4d6178206f6e2072616d7020616d6f756e742063616e6e6f74206265207a65726044820152606f60f81b6064820152608401610765565b60078190556040518181527fcab6b49ca21dd111cf4a55d507bbe89dd12d69216e28247060d4b2163ca41b3990602001610679565b6122606137d4565b6000828152600460209081526040918290208251610120810190935280546001600160a01b03168352600181018054919284019161229d90613f3e565b80601f01602080910402602001604051908101604052809291908181526020018280546122c990613f3e565b80156123165780601f106122eb57610100808354040283529160200191612316565b820191906000526020600020905b8154815290600101906020018083116122f957829003601f168201915b505050505081526020016002820160009054906101000a90046001600160a01b03166001600160a01b03166001600160a01b031681526020016003820154815260200160048201548152602001600582015481526020016006820154815260200160078201548152602001600882018054806020026020016040519081016040528092919081815260200182805480156123cf57602002820191906000526020600020905b8154815260200190600101908083116123bb575b5050505050815250509050919050565b600460205260009081526040902080546001820180546001600160a01b03909216929161240b90613f3e565b80601f016020809104026020016040519081016040528092919081815260200182805461243790613f3e565b80156124845780601f1061245957610100808354040283529160200191612484565b820191906000526020600020905b81548152906001019060200180831161246757829003601f168201915b5050506002840154600385015460048601546005870154600688015460079098015496976001600160a01b0390941696929550909350919088565b60006124ca82610684565b92915050565b6124d8612a18565b6001600160a01b03811661253a5760405162461bcd60e51b8152602060048201526024808201527f46656520726563697069656e742063616e6e6f74206265207a65726f206164646044820152637265737360e01b6064820152608401610765565b600b80546001600160a01b0319166001600160a01b0383169081179091556040519081527f594ad6ee98bfc0c73e6d15fd4e762502f359e05d26907b7fa1ff82eb5e99f6e490602001610679565b6000818152600560209081526040808320815160a08101835281546001600160a01b039081168252600183015416938101939093526002810154918301919091526003810154606083015260040154608082018190529091036126255760405162461bcd60e51b8152602060048201526015602482015274125b9d195b9d08191bd95cc81b9bdd08195e1a5cdd605a1b6044820152606401610765565b60015460405163e0b490f760e01b81523360048201526001600160a01b039091169063e0b490f790602401602060405180830381865afa15801561266d573d6000803e3d6000fd5b505050506040513d601f19601f820116820180604052508101906126919190613eb1565b600154825160405163e0b490f760e01b81526001600160a01b03918216600482015291169063e0b490f790602401602060405180830381865afa1580156126dc573d6000803e3d6000fd5b505050506040513d601f19601f820116820180604052508101906127009190613eb1565b1461274d5760405162461bcd60e51b815260206004820152601c60248201527f53656e646572206d75737420626520746865206f6e2d72616d706572000000006044820152606401610765565b60408082015160009081526004602052206127688184612ff0565b81606001518160050160008282546127809190613f02565b9091555050606082015160068201805460009061279e908490613f15565b9091555050505050565b60606000826001600160401b038111156127c4576127c4613c2e565b60405190808252806020026020018201604052801561283e57816020015b61282b60408051606080820183526000808352835160a0810185528181526020818101839052948101829052918201819052608082015290918201908152600060209091015290565b8152602001906001900390816127e25790505b50905060005b8381101561299757600085858381811061286057612860613f28565b60209081029290920135600081815260058452604090819020815160a08101835281546001600160a01b039081168252600183015416958101959095526002810154858301526003810154606080870191909152600490910154608086015281519081019091529093509050808888868181106128df576128df613f28565b60209081029290920135835250810183905260015483516040805163e0b490f760e01b81526001600160a01b03928316600482015293019291169063e0b490f790602401602060405180830381865afa158015612940573d6000803e3d6000fd5b505050506040513d601f19601f820116820180604052508101906129649190613eb1565b81525084848151811061297957612979613f28565b602002602001018190525050508061299090613f72565b9050612844565b509392505050565b6129a7612a18565b6001600160a01b038116612a0c5760405162461bcd60e51b815260206004820152602660248201527f4f776e61626c653a206e6577206f776e657220697320746865207a65726f206160448201526564647265737360d01b6064820152608401610765565b612a158161348d565b50565b6000546001600160a01b03163314611ed75760405162461bcd60e51b815260206004820181905260248201527f4f776e61626c653a2063616c6c6572206973206e6f7420746865206f776e65726044820152606401610765565b6040805160208101849052908101829052426060820152600090819060800160408051601f1981840301815291905280516020909101209050612ad57f30644e72e131a029b85045b68181585d2833e84879b9709143e1f593f000000182614100565b949350505050565b60008181526004602090815260408083206008018054825181850281018501909352808352606094938493929190830182828015612b3a57602002820191906000526020600020905b815481526020019060010190808311612b26575b5050505050905080516001600160401b03811115612b5a57612b5a613c2e565b604051908082528060200260200182016040528015612b83578160200160208202803683370190505b50925060005b8151811015612c7d57600060056000848481518110612baa57612baa613f28565b6020908102919091018101518252818101929092526040908101600020815160a08101835281546001600160a01b039081168252600183015416938101939093526002810154918301919091526003810154606083015260040154608082018190526009549192504291612c1d91613f02565b1015612c6c57828281518110612c3557612c35613f28565b6020026020010151858381518110612c4f57612c4f613f28565b60209081029190910101526060810151612c699085613f02565b93505b50612c7681613f72565b9050612b89565b5050915091565b60005b8151811015611ccd576000801b828281518110612ca657612ca6613f28565b602002602001015114612cd657612cd683838381518110612cc957612cc9613f28565b6020026020010151612ff0565b612cdf81613f72565b9050612c87565b610100830135600081815260056020526040812080549092906001600160a01b03163314612d565760405162461bcd60e51b815260206004820152601c60248201527f43616c6c6572206d75737420626520746865206f6e2d72616d706572000000006044820152606401610765565b6002808401546000908152600460205260408082209254815180830190925292945090918291829182916001600160a01b039091169063e68d50dd9080612d9c8e614183565b81526020018c8c8080601f016020809104026020016040519081016040528093929190818152602001838380828437600092019190915250505091525060028901546040516001600160e01b031960e085901b168152612e0992916001600160a01b0316906004016142da565b6080604051808303816000875af1158015612e28573d6000803e3d6000fd5b505050506040513d601f19601f82011682018060405250810190612e4c9190614412565b935093509350935085600401548114612e9d5760405162461bcd60e51b815260206004820152601360248201527215dc9bdb99c818dd5c9c995b98de481cd95b9d606a1b6044820152606401610765565b8287600401541115612efc5760405162461bcd60e51b815260206004820152602260248201527f496e74656e7420776173206e6f742063726561746564206265666f72652073656044820152611b9960f21b6064820152608401610765565b8186600101604051602001612f119190614448565b6040516020818303038152906040528051906020012014612f745760405162461bcd60e51b815260206004820152601a60248201527f5265766f6c75742074616720646f6573206e6f74206d617463680000000000006044820152606401610765565b8560070154670de0b6b3a76400008860030154612f919190613fba565b612f9b9190613fe7565b841015612fe35760405162461bcd60e51b81526020600482015260166024820152750a0c2f2dacadce840eec2e640dcdee840cadcdeeaced60531b6044820152606401610765565b5050505093509350939050565b6000818152600560209081526040808320815160a08101835281546001600160a01b03908116808352600180850154831696840196909652600284015483860152600380850154606085015260049485015460808501529554945163e0b490f760e01b815293840152909492169063e0b490f790602401602060405180830381865afa158015613084573d6000803e3d6000fd5b505050506040513d601f19601f820116820180604052508101906130a89190613eb1565b8152602080820192909252604090810160009081208190558481526005909252812080546001600160a01b03199081168255600182018054909116905560028101829055600381018290556004015561310460088401836134dd565b604080820151905183907fe8a865b4bab023c399cbd1f2cdd0df2199beb6e5012a4bd2d7691cf7e4199d5a90600090a3505050565b60008160050154826006015461314f9190613f02565b905080600003611ccd57600154825460405163e0b490f760e01b81526001600160a01b0391821660048201526131f5928692600392600092919091169063e0b490f790602401602060405180830381865afa1580156131b2573d6000803e3d6000fd5b505050506040513d601f19601f820116820180604052508101906131d69190613eb1565b815260200190815260200160002060020161360590919063ffffffff16565b8154604080518581526001600160a01b0390921660208301527f8ac07cc6e38c6222dd0309c80353c1962354bacf222b825d7401cc80e93ff3cc910160405180910390a1600083815260046020526040812080546001600160a01b0319168155906132636001830182613835565b6002820180546001600160a01b0319169055600060038301819055600483018190556005830181905560068301819055600783018190556132a890600884019061386f565b5050505050565b6000600a5460001461337b57670de0b6b3a7640000600a5483606001516132d69190613fba565b6132e09190613fe7565b600b5460405163a9059cbb60e01b81526001600160a01b039182166004820152602481018390529192507f0000000000000000000000000000000000000000000000000000000000000000169063a9059cbb906044016020604051808303816000875af1158015613355573d6000803e3d6000fd5b505050506040513d601f19601f820116820180604052508101906133799190613eca565b505b600081836060015161338d9190613f15565b602084015160405163a9059cbb60e01b81526001600160a01b039182166004820152602481018390529192507f0000000000000000000000000000000000000000000000000000000000000000169063a9059cbb906044016020604051808303816000875af1158015613404573d6000803e3d6000fd5b505050506040513d601f19601f820116820180604052508101906134289190613eca565b50825160408085015160208087015183516001600160a01b03918216815291820186905292810186905291909216919086907ffa03438194e61c243c6bb5349f1e1dc674431b86f119b5e3b2b327bc43446bce9060600160405180910390a450505050565b600080546001600160a01b038381166001600160a01b0319831681178455604051919092169283917f8be0079c531659141344cd1fd0a4f28419497f9722a3daafe3b4186f6b6457e09190a35050565b6000806135398480548060200260200160405190810160405280929190818152602001828054801561352e57602002820191906000526020600020905b81548152602001906001019080831161351a575b5050505050846136aa565b91509150806135825760405162461bcd60e51b8152602060048201526015602482015274313cba32b99999103737ba1034b71030b93930bc9760591b6044820152606401610765565b835460009061359390600190613f15565b90508083146135d8578481815481106135ae576135ae613f28565b90600052602060002001548584815481106135cb576135cb613f28565b6000918252602090912001555b848054806135e8576135e86144be565b600190038181906000526020600020016000905590555050505050565b6000806136618480548060200260200160405190810160405280929190818152602001828054801561365657602002820191906000526020600020905b815481526020019060010190808311613642575b50505050508461370d565b91509150806135825760405162461bcd60e51b81526020600482015260156024820152743ab4b73a191a9b103737ba1034b71030b93930bc9760591b6044820152606401610765565b81516000908190815b818110156136fa57848682815181106136ce576136ce613f28565b6020026020010151036136e8579250600191506137069050565b806136f281613f72565b9150506136b3565b50600019600092509250505b9250929050565b81516000908190815b818110156136fa578486828151811061373157613731613f28565b60200260200101510361374b579250600191506137069050565b8061375581613f72565b915050613716565b604080516080810182526000808252602082015290810161377c6137d4565b8152602001600081525090565b8280548282559060005260206000209081019282156137c4579160200282015b828111156137c45782518255916020019190600101906137a9565b506137d0929150613889565b5090565b60405180610120016040528060006001600160a01b031681526020016060815260200160006001600160a01b031681526020016000815260200160008019168152602001600081526020016000815260200160008152602001606081525090565b50805461384190613f3e565b6000825580601f10613851575050565b601f016020900490600052602060002090810190612a159190613889565b5080546000825590600052602060002090810190612a1591905b5b808211156137d0576000815560010161388a565b6001600160a01b0381168114612a1557600080fd5b6000602082840312156138c557600080fd5b81356138d08161389e565b9392505050565b6000602082840312156138e957600080fd5b5035919050565b60008060006060848603121561390557600080fd5b8335925060208401359150604084013561391e8161389e565b809150509250925092565b6000806040838503121561393c57600080fd5b82356139478161389e565b915060208301356139578161389e565b809150509250929050565b6000815180845260005b818110156139885760208185018101518683018201520161396c565b506000602082860101526020601f19601f83011685010191505092915050565b600081518084526020808501945080840160005b838110156139d8578151875295820195908201906001016139bc565b509495945050505050565b80516001600160a01b0316825260006101206020830151816020860152613a0c82860182613962565b9150506040830151613a2960408601826001600160a01b03169052565b50606083015160608501526080830151608085015260a083015160a085015260c083015160c085015260e083015160e08501526101008084015185830382870152613a7483826139a8565b9695505050505050565b60006020808301818452808551808352604092508286019150828160051b87010184880160005b83811015613afc57603f1989840301855281516080815185528882015189860152878201518189870152613adb828701826139e3565b60609384015196909301959095525094870194925090860190600101613aa5565b509098975050505050505050565b60008083601f840112613b1c57600080fd5b5081356001600160401b03811115613b3357600080fd5b60208301915083602082850101111561370657600080fd5b60008060008060008060a08789031215613b6457600080fd5b86356001600160401b03811115613b7a57600080fd5b613b8689828a01613b0a565b9097509550506020870135935060408701359250606087013591506080870135613baf8161389e565b809150509295509295509295565b600080600060408486031215613bd257600080fd5b83356001600160401b0380821115613be957600080fd5b908501906101208288031215613bfe57600080fd5b90935060208501359080821115613c1457600080fd5b50613c2186828701613b0a565b9497909650939450505050565b634e487b7160e01b600052604160045260246000fd5b60405161012081016001600160401b0381118282101715613c6757613c67613c2e565b60405290565b604051601f8201601f191681016001600160401b0381118282101715613c9557613c95613c2e565b604052919050565b60006020808385031215613cb057600080fd5b82356001600160401b0380821115613cc757600080fd5b818501915085601f830112613cdb57600080fd5b813581811115613ced57613ced613c2e565b8060051b9150613cfe848301613c6d565b8181529183018401918481019088841115613d1857600080fd5b938501935b83851015613d3657843582529385019390850190613d1d565b98975050505050505050565b6020815260006138d060208301846139e3565b6001600160a01b03898116825261010060208301819052600091613d7b8483018c613962565b9916604084015250506060810195909552608085019390935260a084019190915260c083015260e09091015292915050565b60008060208385031215613dc057600080fd5b82356001600160401b0380821115613dd757600080fd5b818501915085601f830112613deb57600080fd5b813581811115613dfa57600080fd5b8660208260051b8501011115613e0f57600080fd5b60209290920196919550909350505050565b602080825282518282018190526000919060409081850190868401855b82811015613ea4578151805185528681015180516001600160a01b039081168988015281890151168787015286810151606080880191909152810151608080880191909152015160a086015285015160c085015260e09093019290850190600101613e3e565b5091979650505050505050565b600060208284031215613ec357600080fd5b5051919050565b600060208284031215613edc57600080fd5b815180151581146138d057600080fd5b634e487b7160e01b600052601160045260246000fd5b808201808211156124ca576124ca613eec565b818103818111156124ca576124ca613eec565b634e487b7160e01b600052603260045260246000fd5b600181811c90821680613f5257607f821691505b6020821081036121bb57634e487b7160e01b600052602260045260246000fd5b600060018201613f8457613f84613eec565b5060010190565b60208152816020820152818360408301376000818301604090810191909152601f909201601f19160101919050565b80820281158282048414176124ca576124ca613eec565b634e487b7160e01b600052601260045260246000fd5b600082613ff657613ff6613fd1565b500490565b601f821115611ccd57600081815260208120601f850160051c810160208610156140225750805b601f850160051c820191505b81811015611a5c5782815560010161402e565b81516001600160401b0381111561405a5761405a613c2e565b61406e816140688454613f3e565b84613ffb565b602080601f8311600181146140a3576000841561408b5750858301515b600019600386901b1c1916600185901b178555611a5c565b600085815260208120601f198616915b828110156140d2578886015182559484019460019091019084016140b3565b50858210156140f05787850151600019600388901b60f8161c191681555b5050505050600190811b01905550565b60008261410f5761410f613fd1565b500690565b600082601f83011261412557600080fd5b81356001600160401b0381111561413e5761413e613c2e565b614151601f8201601f1916602001613c6d565b81815284602083860101111561416657600080fd5b816020850160208301376000918101602001919091529392505050565b6000610120823603121561419657600080fd5b61419e613c44565b82356001600160401b03808211156141b557600080fd5b6141c136838701614114565b835260208501359150808211156141d757600080fd5b6141e336838701614114565b602084015260408501359150808211156141fc57600080fd5b61420836838701614114565b6040840152606085013591508082111561422157600080fd5b61422d36838701614114565b6060840152608085013591508082111561424657600080fd5b61425236838701614114565b608084015260a085013591508082111561426b57600080fd5b61427736838701614114565b60a084015260c085013591508082111561429057600080fd5b61429c36838701614114565b60c084015260e08501359150808211156142b557600080fd5b506142c236828601614114565b60e08301525061010092830135928101929092525090565b604081526000835160408084015280516101208060808601526143016101a0860183613962565b91506020830151607f19808785030160a088015261431f8483613962565b935060408501519150808785030160c088015261433c8483613962565b935060608501519150808785030160e08801526143598483613962565b9350608085015191506101008188860301818901526143788584613962565b945060a086015192508188860301848901526143948584613962565b945060c0860151935081888603016101408901526143b28585613962565b945060e0860151935081888603016101608901526143d08585613962565b950151610180880152505050506020850151838203603f19016060850152906143f98183613962565b925050506138d060208301846001600160a01b03169052565b6000806000806080858703121561442857600080fd5b505082516020840151604085015160609095015191969095509092509050565b600080835461445681613f3e565b6001828116801561446e5760018114614483576144b2565b60ff19841687528215158302870194506144b2565b8760005260208060002060005b858110156144a95781548a820152908401908201614490565b50505082870194505b50929695505050505050565b634e487b7160e01b600052603160045260246000fdfea264697066735822122048c650e153837c5172d9d57e9da5c8eecbec020c729c5ee4dcd89346dff72a7a64736f6c63430008120033",
  "devdoc": {
    "kind": "dev",
    "methods": {
      "cancelIntent(bytes32)": {
        "params": {
          "_intentHash": "Hash of intent being cancelled"
        }
      },
      "initialize(address,address)": {
        "params": {
          "_accountRegistry": "Account Registry contract for Revolut",
          "_sendProcessor": "Send processor address"
        }
      },
      "offRamp(string,bytes32,uint256,uint256,address)": {
        "params": {
          "_depositAmount": "The amount of USDC to off-ramp",
          "_receiveAmount": "The amount of USD to receive",
          "_receiveCurrencyId": "Id of the currency to be received off-chain",
          "_revolutTag": "Depositor's Revolut tag to receive payments",
          "_verifierSigningKey": "Public key of the verifier depositor wants to sign the TLS proof"
        }
      },
      "onRamp((string,string,string,string,string,string,string,string,uint256),bytes)": {
        "params": {
          "_sendData": "Struct containing unredacted data from API call to Revolut",
          "_verifierSignature": "Signature by verifier of the unredacted data"
        }
      },
      "owner()": {
        "details": "Returns the address of the current owner."
      },
      "releaseFundsToOnramper(bytes32)": {
        "params": {
          "_intentHash": "Hash of intent to resolve by releasing the funds"
        }
      },
      "renounceOwnership()": {
        "details": "Leaves the contract without owner. It will not be possible to call `onlyOwner` functions. Can only be called by the current owner. NOTE: Renouncing ownership will leave the contract without an owner, thereby disabling any functionality that is only available to the owner."
      },
      "setIntentExpirationPeriod(uint256)": {
        "params": {
          "_intentExpirationPeriod": "New intent expiration period"
        }
      },
      "setMaxOnRampAmount(uint256)": {
        "params": {
          "_maxOnRampAmount": "The new max on ramp amount"
        }
      },
      "setMinDepositAmount(uint256)": {
        "params": {
          "_minDepositAmount": "The new minimum deposit amount"
        }
      },
      "setOnRampCooldownPeriod(uint256)": {
        "params": {
          "_onRampCooldownPeriod": "New on-ramp cooldown period"
        }
      },
      "setSendProcessor(address)": {
        "params": {
          "_sendProcessor": "New send proccesor address"
        }
      },
      "setSustainabilityFee(uint256)": {
        "params": {
          "_fee": "The new sustainability fee in precise units (10**18, ie 10% = 1e17)"
        }
      },
      "setSustainabilityFeeRecipient(address)": {
        "params": {
          "_feeRecipient": "The new fee recipient address"
        }
      },
      "signalIntent(uint256,uint256,address)": {
        "params": {
          "_amount": "The amount of USDC the user wants to on-ramp",
          "_depositId": "The ID of the deposit the on-ramper intends to use for ",
          "_to": "Address to forward funds to (can be same as onRamper)"
        }
      },
      "transferOwnership(address)": {
        "details": "Transfers ownership of the contract to a new account (`newOwner`). Can only be called by the current owner."
      },
      "withdrawDeposit(uint256[])": {
        "params": {
          "_depositIds": "Array of depositIds the depositor is attempting to withdraw"
        }
      }
    },
    "version": 1
  },
  "userdoc": {
    "kind": "user",
    "methods": {
      "cancelIntent(bytes32)": {
        "notice": "Only callable by the originator of the intent. Cancels an outstanding intent thus allowing user to signal a new intent. Deposit state is updated to reflect the cancelled intent."
      },
      "initialize(address,address)": {
        "notice": "Initialize Ramp with the addresses of the Processors"
      },
      "offRamp(string,bytes32,uint256,uint256,address)": {
        "notice": "Generates a deposit entry for off-rampers that can then be fulfilled by an on-ramper. This function will not add to previous deposits. Every deposit has it's own unique identifier. User must approve the contract to transfer the deposit amount of USDC."
      },
      "onRamp((string,string,string,string,string,string,string,string,uint256),bytes)": {
        "notice": "Anyone can submit an on-ramp transaction, even if caller isn't on-ramper. Upon submission the proof is validated, intent is removed, and deposit state is updated. USDC is transferred to the on-ramper."
      },
      "releaseFundsToOnramper(bytes32)": {
        "notice": "Allows off-ramper to release funds to the on-ramper in case of a failed on-ramp or because of some other arrangement between the two parties. Upon submission we check to make sure the msg.sender is the depositor, the  intent is removed, and  deposit state is updated. USDC is transferred to the on-ramper."
      },
      "setIntentExpirationPeriod(uint256)": {
        "notice": "GOVERNANCE ONLY: Updates the intent expiration period, after this period elapses an intent can be pruned to prevent locking up a depositor's funds."
      },
      "setMaxOnRampAmount(uint256)": {
        "notice": "GOVERNANCE ONLY: Updates the max amount allowed to be on-ramped in each transaction. To on-ramp more than this amount a user must make multiple transactions."
      },
      "setMinDepositAmount(uint256)": {
        "notice": "GOVERNANCE ONLY: Updates the minimum deposit amount a user can specify for off-ramping."
      },
      "setOnRampCooldownPeriod(uint256)": {
        "notice": "GOVERNANCE ONLY: Updates the on-ramp cooldown period, once an on-ramp transaction is completed the user must wait this amount of time before they can signalIntent to on-ramp again."
      },
      "setSendProcessor(address)": {
        "notice": "GOVERNANCE ONLY: Updates the send processor address used for validating and interpreting zk proofs."
      },
      "setSustainabilityFee(uint256)": {
        "notice": "GOVERNANCE ONLY: Updates the sustainability fee. This fee is charged to on-rampers upon a successful on-ramp."
      },
      "setSustainabilityFeeRecipient(address)": {
        "notice": "GOVERNANCE ONLY: Updates the recepient of sustainability fees."
      },
      "signalIntent(uint256,uint256,address)": {
        "notice": "Signals intent to pay the depositor defined in the _depositId the _amount * deposit conversionRate off-chain in order to unlock _amount of funds on-chain. Each user can only have one outstanding intent at a time regardless of address (tracked using accountId). Caller must not be on the depositor's deny list. If there are prunable intents then they will be deleted from the deposit to be able to maintain state hygiene."
      },
      "withdrawDeposit(uint256[])": {
        "notice": "Caller must be the depositor for each depositId in the array, if not whole function fails. Depositor is returned all remaining deposits and any outstanding intents that are expired. If an intent is not expired then those funds will not be returned. Deposit will be deleted as long as there are no more outstanding intents."
      }
    },
    "version": 1
  },
  "storageLayout": {
    "storage": [
      {
        "astId": 7,
        "contract": "contracts/ramps/revolut/RevolutRamp.sol:RevolutRamp",
        "label": "_owner",
        "offset": 0,
        "slot": "0",
        "type": "t_address"
      },
      {
        "astId": 13434,
        "contract": "contracts/ramps/revolut/RevolutRamp.sol:RevolutRamp",
        "label": "accountRegistry",
        "offset": 0,
        "slot": "1",
        "type": "t_contract(IRevolutAccountRegistry)15374"
      },
      {
        "astId": 13437,
        "contract": "contracts/ramps/revolut/RevolutRamp.sol:RevolutRamp",
        "label": "sendProcessor",
        "offset": 0,
        "slot": "2",
        "type": "t_contract(IRevolutSendProcessor)15418"
      },
      {
        "astId": 13439,
        "contract": "contracts/ramps/revolut/RevolutRamp.sol:RevolutRamp",
        "label": "isInitialized",
        "offset": 20,
        "slot": "2",
        "type": "t_bool"
      },
      {
        "astId": 13444,
        "contract": "contracts/ramps/revolut/RevolutRamp.sol:RevolutRamp",
        "label": "globalAccount",
        "offset": 0,
        "slot": "3",
        "type": "t_mapping(t_bytes32,t_struct(GlobalAccountInfo)13403_storage)"
      },
      {
        "astId": 13449,
        "contract": "contracts/ramps/revolut/RevolutRamp.sol:RevolutRamp",
        "label": "deposits",
        "offset": 0,
        "slot": "4",
        "type": "t_mapping(t_uint256,t_struct(Deposit)13366_storage)"
      },
      {
        "astId": 13454,
        "contract": "contracts/ramps/revolut/RevolutRamp.sol:RevolutRamp",
        "label": "intents",
        "offset": 0,
        "slot": "5",
        "type": "t_mapping(t_bytes32,t_struct(Intent)13387_storage)"
      },
      {
        "astId": 13456,
        "contract": "contracts/ramps/revolut/RevolutRamp.sol:RevolutRamp",
        "label": "minDepositAmount",
        "offset": 0,
        "slot": "6",
        "type": "t_uint256"
      },
      {
        "astId": 13458,
        "contract": "contracts/ramps/revolut/RevolutRamp.sol:RevolutRamp",
        "label": "maxOnRampAmount",
        "offset": 0,
        "slot": "7",
        "type": "t_uint256"
      },
      {
        "astId": 13460,
        "contract": "contracts/ramps/revolut/RevolutRamp.sol:RevolutRamp",
        "label": "onRampCooldownPeriod",
        "offset": 0,
        "slot": "8",
        "type": "t_uint256"
      },
      {
        "astId": 13462,
        "contract": "contracts/ramps/revolut/RevolutRamp.sol:RevolutRamp",
        "label": "intentExpirationPeriod",
        "offset": 0,
        "slot": "9",
        "type": "t_uint256"
      },
      {
        "astId": 13464,
        "contract": "contracts/ramps/revolut/RevolutRamp.sol:RevolutRamp",
        "label": "sustainabilityFee",
        "offset": 0,
        "slot": "10",
        "type": "t_uint256"
      },
      {
        "astId": 13466,
        "contract": "contracts/ramps/revolut/RevolutRamp.sol:RevolutRamp",
        "label": "sustainabilityFeeRecipient",
        "offset": 0,
        "slot": "11",
        "type": "t_address"
      },
      {
        "astId": 13468,
        "contract": "contracts/ramps/revolut/RevolutRamp.sol:RevolutRamp",
        "label": "depositCounter",
        "offset": 0,
        "slot": "12",
        "type": "t_uint256"
      }
    ],
    "types": {
      "t_address": {
        "encoding": "inplace",
        "label": "address",
        "numberOfBytes": "20"
      },
      "t_array(t_bytes32)dyn_storage": {
        "base": "t_bytes32",
        "encoding": "dynamic_array",
        "label": "bytes32[]",
        "numberOfBytes": "32"
      },
      "t_array(t_uint256)dyn_storage": {
        "base": "t_uint256",
        "encoding": "dynamic_array",
        "label": "uint256[]",
        "numberOfBytes": "32"
      },
      "t_bool": {
        "encoding": "inplace",
        "label": "bool",
        "numberOfBytes": "1"
      },
      "t_bytes32": {
        "encoding": "inplace",
        "label": "bytes32",
        "numberOfBytes": "32"
      },
      "t_contract(IRevolutAccountRegistry)15374": {
        "encoding": "inplace",
        "label": "contract IRevolutAccountRegistry",
        "numberOfBytes": "20"
      },
      "t_contract(IRevolutSendProcessor)15418": {
        "encoding": "inplace",
        "label": "contract IRevolutSendProcessor",
        "numberOfBytes": "20"
      },
      "t_mapping(t_bytes32,t_struct(GlobalAccountInfo)13403_storage)": {
        "encoding": "mapping",
        "key": "t_bytes32",
        "label": "mapping(bytes32 => struct RevolutRamp.GlobalAccountInfo)",
        "numberOfBytes": "32",
        "value": "t_struct(GlobalAccountInfo)13403_storage"
      },
      "t_mapping(t_bytes32,t_struct(Intent)13387_storage)": {
        "encoding": "mapping",
        "key": "t_bytes32",
        "label": "mapping(bytes32 => struct RevolutRamp.Intent)",
        "numberOfBytes": "32",
        "value": "t_struct(Intent)13387_storage"
      },
      "t_mapping(t_uint256,t_struct(Deposit)13366_storage)": {
        "encoding": "mapping",
        "key": "t_uint256",
        "label": "mapping(uint256 => struct RevolutRamp.Deposit)",
        "numberOfBytes": "32",
        "value": "t_struct(Deposit)13366_storage"
      },
      "t_string_storage": {
        "encoding": "bytes",
        "label": "string",
        "numberOfBytes": "32"
      },
      "t_struct(Deposit)13366_storage": {
        "encoding": "inplace",
        "label": "struct RevolutRamp.Deposit",
        "members": [
          {
            "astId": 13348,
            "contract": "contracts/ramps/revolut/RevolutRamp.sol:RevolutRamp",
            "label": "depositor",
            "offset": 0,
            "slot": "0",
            "type": "t_address"
          },
          {
            "astId": 13350,
            "contract": "contracts/ramps/revolut/RevolutRamp.sol:RevolutRamp",
            "label": "revolutTag",
            "offset": 0,
            "slot": "1",
            "type": "t_string_storage"
          },
          {
            "astId": 13352,
            "contract": "contracts/ramps/revolut/RevolutRamp.sol:RevolutRamp",
            "label": "verifierSigningKey",
            "offset": 0,
            "slot": "2",
            "type": "t_address"
          },
          {
            "astId": 13354,
            "contract": "contracts/ramps/revolut/RevolutRamp.sol:RevolutRamp",
            "label": "depositAmount",
            "offset": 0,
            "slot": "3",
            "type": "t_uint256"
          },
          {
            "astId": 13356,
            "contract": "contracts/ramps/revolut/RevolutRamp.sol:RevolutRamp",
            "label": "receiveCurrencyId",
            "offset": 0,
            "slot": "4",
            "type": "t_bytes32"
          },
          {
            "astId": 13358,
            "contract": "contracts/ramps/revolut/RevolutRamp.sol:RevolutRamp",
            "label": "remainingDeposits",
            "offset": 0,
            "slot": "5",
            "type": "t_uint256"
          },
          {
            "astId": 13360,
            "contract": "contracts/ramps/revolut/RevolutRamp.sol:RevolutRamp",
            "label": "outstandingIntentAmount",
            "offset": 0,
            "slot": "6",
            "type": "t_uint256"
          },
          {
            "astId": 13362,
            "contract": "contracts/ramps/revolut/RevolutRamp.sol:RevolutRamp",
            "label": "conversionRate",
            "offset": 0,
            "slot": "7",
            "type": "t_uint256"
          },
          {
            "astId": 13365,
            "contract": "contracts/ramps/revolut/RevolutRamp.sol:RevolutRamp",
            "label": "intentHashes",
            "offset": 0,
            "slot": "8",
            "type": "t_array(t_bytes32)dyn_storage"
          }
        ],
        "numberOfBytes": "288"
      },
      "t_struct(GlobalAccountInfo)13403_storage": {
        "encoding": "inplace",
        "label": "struct RevolutRamp.GlobalAccountInfo",
        "members": [
          {
            "astId": 13397,
            "contract": "contracts/ramps/revolut/RevolutRamp.sol:RevolutRamp",
            "label": "currentIntentHash",
            "offset": 0,
            "slot": "0",
            "type": "t_bytes32"
          },
          {
            "astId": 13399,
            "contract": "contracts/ramps/revolut/RevolutRamp.sol:RevolutRamp",
            "label": "lastOnrampTimestamp",
            "offset": 0,
            "slot": "1",
            "type": "t_uint256"
          },
          {
            "astId": 13402,
            "contract": "contracts/ramps/revolut/RevolutRamp.sol:RevolutRamp",
            "label": "deposits",
            "offset": 0,
            "slot": "2",
            "type": "t_array(t_uint256)dyn_storage"
          }
        ],
        "numberOfBytes": "96"
      },
      "t_struct(Intent)13387_storage": {
        "encoding": "inplace",
        "label": "struct RevolutRamp.Intent",
        "members": [
          {
            "astId": 13378,
            "contract": "contracts/ramps/revolut/RevolutRamp.sol:RevolutRamp",
            "label": "onRamper",
            "offset": 0,
            "slot": "0",
            "type": "t_address"
          },
          {
            "astId": 13380,
            "contract": "contracts/ramps/revolut/RevolutRamp.sol:RevolutRamp",
            "label": "to",
            "offset": 0,
            "slot": "1",
            "type": "t_address"
          },
          {
            "astId": 13382,
            "contract": "contracts/ramps/revolut/RevolutRamp.sol:RevolutRamp",
            "label": "deposit",
            "offset": 0,
            "slot": "2",
            "type": "t_uint256"
          },
          {
            "astId": 13384,
            "contract": "contracts/ramps/revolut/RevolutRamp.sol:RevolutRamp",
            "label": "amount",
            "offset": 0,
            "slot": "3",
            "type": "t_uint256"
          },
          {
            "astId": 13386,
            "contract": "contracts/ramps/revolut/RevolutRamp.sol:RevolutRamp",
            "label": "intentTimestamp",
            "offset": 0,
            "slot": "4",
            "type": "t_uint256"
          }
        ],
        "numberOfBytes": "160"
      },
      "t_uint256": {
        "encoding": "inplace",
        "label": "uint256",
        "numberOfBytes": "32"
      }
    }
  }
}