{
  "address": "0x0040C4A0dB873033B8912c907db604C7DC2779E4",
  "abi": [
    {
      "inputs": [
        {
          "internalType": "address",
          "name": "_ramp",
          "type": "address"
        },
        {
          "internalType": "address",
          "name": "_verifierSigningKey",
          "type": "address"
        },
        {
          "internalType": "contract INullifierRegistry",
          "name": "_nullifierRegistry",
          "type": "address"
        },
        {
          "internalType": "uint256",
          "name": "_timestampBuffer",
          "type": "uint256"
        },
        {
          "internalType": "string",
          "name": "_endpoint",
          "type": "string"
        },
        {
          "internalType": "string",
          "name": "_host",
          "type": "string"
        }
      ],
      "stateMutability": "nonpayable",
      "type": "constructor"
    },
    {
      "anonymous": false,
      "inputs": [
        {
          "indexed": true,
          "internalType": "address",
          "name": "previousOwner",
          "type": "address"
        },
        {
          "indexed": true,
          "internalType": "address",
          "name": "newOwner",
          "type": "address"
        }
      ],
      "name": "OwnershipTransferred",
      "type": "event"
    },
    {
      "anonymous": false,
      "inputs": [
        {
          "indexed": false,
          "internalType": "address",
          "name": "_verifierSigningKey",
          "type": "address"
        }
      ],
      "name": "VerifierSigningKeySet",
      "type": "event"
    },
    {
      "inputs": [],
      "name": "endpoint",
      "outputs": [
        {
          "internalType": "string",
          "name": "",
          "type": "string"
        }
      ],
      "stateMutability": "view",
      "type": "function"
    },
    {
      "inputs": [],
      "name": "host",
      "outputs": [
        {
          "internalType": "string",
          "name": "",
          "type": "string"
        }
      ],
      "stateMutability": "view",
      "type": "function"
    },
    {
      "inputs": [],
      "name": "nullifierRegistry",
      "outputs": [
        {
          "internalType": "contract INullifierRegistry",
          "name": "",
          "type": "address"
        }
      ],
      "stateMutability": "view",
      "type": "function"
    },
    {
      "inputs": [],
      "name": "owner",
      "outputs": [
        {
          "internalType": "address",
          "name": "",
          "type": "address"
        }
      ],
      "stateMutability": "view",
      "type": "function"
    },
    {
      "inputs": [
        {
          "components": [
            {
              "components": [
                {
                  "internalType": "string",
                  "name": "endpoint",
                  "type": "string"
                },
                {
                  "internalType": "string",
                  "name": "host",
                  "type": "string"
                },
                {
                  "internalType": "string",
                  "name": "profileId",
                  "type": "string"
                },
                {
                  "internalType": "address",
                  "name": "userAddress",
                  "type": "address"
                }
              ],
              "internalType": "struct IRevolutAccountRegistrationProcessor.RegistrationData",
              "name": "public_values",
              "type": "tuple"
            },
            {
              "internalType": "bytes",
              "name": "proof",
              "type": "bytes"
            }
          ],
          "internalType": "struct IRevolutAccountRegistrationProcessor.RegistrationProof",
          "name": "_proof",
          "type": "tuple"
        }
      ],
      "name": "processProof",
      "outputs": [
        {
          "internalType": "bytes32",
          "name": "onRampId",
          "type": "bytes32"
        }
      ],
      "stateMutability": "nonpayable",
      "type": "function"
    },
    {
      "inputs": [],
      "name": "ramp",
      "outputs": [
        {
          "internalType": "address",
          "name": "",
          "type": "address"
        }
      ],
      "stateMutability": "view",
      "type": "function"
    },
    {
      "inputs": [],
      "name": "renounceOwnership",
      "outputs": [],
      "stateMutability": "nonpayable",
      "type": "function"
    },
    {
      "inputs": [
        {
          "internalType": "uint256",
          "name": "_timestampBuffer",
          "type": "uint256"
        }
      ],
      "name": "setTimestampBuffer",
      "outputs": [],
      "stateMutability": "nonpayable",
      "type": "function"
    },
    {
      "inputs": [
        {
          "internalType": "address",
          "name": "_verifierSigningKey",
          "type": "address"
        }
      ],
      "name": "setVerifierSigningKey",
      "outputs": [],
      "stateMutability": "nonpayable",
      "type": "function"
    },
    {
      "inputs": [],
      "name": "timestampBuffer",
      "outputs": [
        {
          "internalType": "uint256",
          "name": "",
          "type": "uint256"
        }
      ],
      "stateMutability": "view",
      "type": "function"
    },
    {
      "inputs": [
        {
          "internalType": "address",
          "name": "newOwner",
          "type": "address"
        }
      ],
      "name": "transferOwnership",
      "outputs": [],
      "stateMutability": "nonpayable",
      "type": "function"
    },
    {
      "inputs": [],
      "name": "verifierSigningKey",
      "outputs": [
        {
          "internalType": "address",
          "name": "",
          "type": "address"
        }
      ],
      "stateMutability": "view",
      "type": "function"
    },
    {
      "inputs": [
        {
          "components": [
            {
              "internalType": "string",
              "name": "endpoint",
              "type": "string"
            },
            {
              "internalType": "string",
              "name": "host",
              "type": "string"
            },
            {
              "internalType": "string",
              "name": "profileId",
              "type": "string"
            },
            {
              "internalType": "address",
              "name": "userAddress",
              "type": "address"
            }
          ],
          "internalType": "struct IRevolutAccountRegistrationProcessor.RegistrationData",
          "name": "_publicValues",
          "type": "tuple"
        },
        {
          "internalType": "bytes",
          "name": "_proof",
          "type": "bytes"
        }
      ],
      "name": "verifyProof",
      "outputs": [
        {
          "internalType": "bool",
          "name": "",
          "type": "bool"
        }
      ],
      "stateMutability": "view",
      "type": "function"
    }
  ],
  "transactionHash": "0x7319a3021ced68bd06a87cba2865788080f2650d69844d803f42ffd398a4c5b0",
  "args": [
    "0x8BBd158CFb23C3a1952B23d92b0536e7Bad6B3d9",
    "0x166338393593e85bfde8B65358Ec5801A3445D12",
    "0xAf0196f22a1383B779E3f833AD35BFf38722c8AD",
    "0",
    "GET https://app.revolut.com/api/retail/user/current",
    "app.revolut.com"
  ],
  "numDeployments": 1,
  "solcInputHash": "8f4bf7f45c28925cb238117838cfd64c",
  "bytecode": "0x60a06040523480156200001157600080fd5b506040516200198b3803806200198b8339810160408190526200003491620001e2565b85848484846200004433620000b4565b6001600160a01b03851660805260016200005f838262000324565b5060026200006e828262000324565b5050600380546001600160a01b039485166001600160a01b03199182161790915560049290925550600580549890921697169690961790955550620003f0945050505050565b600080546001600160a01b038381166001600160a01b0319831681178455604051919092169283917f8be0079c531659141344cd1fd0a4f28419497f9722a3daafe3b4186f6b6457e09190a35050565b6001600160a01b03811681146200011a57600080fd5b50565b634e487b7160e01b600052604160045260246000fd5b600082601f8301126200014557600080fd5b81516001600160401b03808211156200016257620001626200011d565b604051601f8301601f19908116603f011681019082821181831017156200018d576200018d6200011d565b81604052838152602092508683858801011115620001aa57600080fd5b600091505b83821015620001ce5785820183015181830184015290820190620001af565b600093810190920192909252949350505050565b60008060008060008060c08789031215620001fc57600080fd5b8651620002098162000104565b60208801519096506200021c8162000104565b60408801519095506200022f8162000104565b6060880151608089015191955093506001600160401b03808211156200025457600080fd5b620002628a838b0162000133565b935060a08901519150808211156200027957600080fd5b506200028889828a0162000133565b9150509295509295509295565b600181811c90821680620002aa57607f821691505b602082108103620002cb57634e487b7160e01b600052602260045260246000fd5b50919050565b601f8211156200031f57600081815260208120601f850160051c81016020861015620002fa5750805b601f850160051c820191505b818110156200031b5782815560010162000306565b5050505b505050565b81516001600160401b038111156200034057620003406200011d565b620003588162000351845462000295565b84620002d1565b602080601f831160018114620003905760008415620003775750858301515b600019600386901b1c1916600185901b1785556200031b565b600085815260208120601f198616915b82811015620003c157888601518255948401946001909101908401620003a0565b5085821015620003e05787850151600019600388901b60f8161c191681555b5050505050600190811b01905550565b6080516115786200041360003960008181610109015261020901526115786000f3fe608060405234801561001057600080fd5b50600436106100cf5760003560e01c8063715018a61161008c578063b870676c11610066578063b870676c146101c5578063dbac5821146101d8578063f2fde38b146101e1578063f437bc59146101f457600080fd5b8063715018a6146101995780638da5cb5b146101a1578063b2a3fda4146101b257600080fd5b80630fa4ed4d146100d457806315d276e114610104578063278a8f681461012b5780634e06a32b1461014c5780635e280f11146101615780636f9df18d14610176575b600080fd5b6005546100e7906001600160a01b031681565b6040516001600160a01b0390911681526020015b60405180910390f35b6100e77f000000000000000000000000000000000000000000000000000000000000000081565b61013e610139366004610f42565b6101fc565b6040519081526020016100fb565b61015f61015a366004610f99565b61055f565b005b6101696105bb565b6040516100fb9190611004565b610189610184366004611183565b610649565b60405190151581526020016100fb565b61015f6106a7565b6000546001600160a01b03166100e7565b61015f6101c03660046111fb565b6106bb565b6003546100e7906001600160a01b031681565b61013e60045481565b61015f6101ef366004610f99565b6106c8565b610169610741565b6000336001600160a01b037f0000000000000000000000000000000000000000000000000000000000000000161461027b5760405162461bcd60e51b815260206004820181905260248201527f4f6e6c792052616d702063616e2063616c6c20746869732066756e6374696f6e60448201526064015b60405180910390fd5b6102d86102888380611214565b61029190611234565b61029e6020850185611240565b8080601f01602080910402602001604051908101604052809392919081815260200183838082843760009201919091525061074e92505050565b6103b8600180546102e890611287565b80601f016020809104026020016040519081016040528092919081815260200182805461031490611287565b80156103615780601f1061033657610100808354040283529160200191610361565b820191906000526020600020905b81548152906001019060200180831161034457829003601f168201915b5061037493508792508291506112149050565b61037e9080611240565b8080601f0160208091040260200160405190810160405280939291908181526020018383808284376000920191909152506107a892505050565b61049c600280546103c890611287565b80601f01602080910402602001604051908101604052809291908181526020018280546103f490611287565b80156104415780601f1061041657610100808354040283529160200191610441565b820191906000526020600020905b81548152906001019060200180831161042457829003601f168201915b5061045493508792508291506112149050565b610462906020810190611240565b8080601f01602080910402602001604051908101604052809392919081815260200183838082843760009201919091525061084392505050565b6104ff6104a98380611214565b6104ba906080810190606001610f99565b6104c48480611214565b6104d2906040810190611240565b6040516020016104e4939291906112c1565b604051602081830303815290604052805190602001206108de565b610559600061050e8480611214565b61051c906040810190611240565b8080601f01602080910402602001604051908101604052809392919081815260200183838082843760009201919091525092939250506109f99050565b92915050565b610567610a11565b600580546001600160a01b0319166001600160a01b0383169081179091556040519081527fb8603ceabf8ee4633f1fd8c0ae9e0e64f2fc2fea5cb79a96c18efd007aab6f969060200160405180910390a150565b600180546105c890611287565b80601f01602080910402602001604051908101604052809291908181526020018280546105f490611287565b80156106415780601f1061061657610100808354040283529160200191610641565b820191906000526020600020905b81548152906001019060200180831161062457829003601f168201915b505050505081565b60008083600001518460200151856040015186606001516040516020016106739493929190611301565b60408051601f1981840301815291905260055490915061069f90829085906001600160a01b0316610a6b565b949350505050565b6106af610a11565b6106b96000610abf565b565b6106c3610a11565b600455565b6106d0610a11565b6001600160a01b0381166107355760405162461bcd60e51b815260206004820152602660248201527f4f776e61626c653a206e6577206f776e657220697320746865207a65726f206160448201526564647265737360d01b6064820152608401610272565b61073e81610abf565b50565b600280546105c890611287565b6107588282610649565b6107a45760405162461bcd60e51b815260206004820152601f60248201527f496e76616c6964207369676e61747572652066726f6d207665726966696572006044820152606401610272565b5050565b806040516020016107b99190611004565b60405160208183030381529060405280519060200120826040516020016107e09190611004565b60405160208183030381529060405280519060200120146107a45760405162461bcd60e51b815260206004820181905260248201527f456e64706f696e7420646f6573206e6f74206d617463682065787065637465646044820152606401610272565b806040516020016108549190611004565b604051602081830303815290604052805190602001208260405160200161087b9190611004565b60405160208183030381529060405280519060200120146107a45760405162461bcd60e51b815260206004820152601c60248201527f486f737420646f6573206e6f74206d61746368206578706563746564000000006044820152606401610272565b60035460405163169394bb60e01b8152600481018390526001600160a01b039091169063169394bb90602401602060405180830381865afa158015610927573d6000803e3d6000fd5b505050506040513d601f19601f8201168201806040525081019061094b9190611354565b156109985760405162461bcd60e51b815260206004820152601f60248201527f4e756c6c69666965722068617320616c7265616479206265656e2075736564006044820152606401610272565b600354604051632dea6f9960e11b8152600481018390526001600160a01b0390911690635bd4df3290602401600060405180830381600087803b1580156109de57600080fd5b505af11580156109f2573d6000803e3d6000fd5b5050505050565b6000610a0a83601760f91b84610b0f565b9392505050565b6000546001600160a01b031633146106b95760405162461bcd60e51b815260206004820181905260248201527f4f776e61626c653a2063616c6c6572206973206e6f7420746865206f776e65726044820152606401610272565b825160208401207f19457468657265756d205369676e6564204d6573736167653a0a3332000000006000908152601c91909152603c8120610ab66001600160a01b0384168286610cec565b95945050505050565b600080546001600160a01b038381166001600160a01b0319831681178455604051919092169283917f8be0079c531659141344cd1fd0a4f28419497f9722a3daafe3b4186f6b6457e09190a35050565b600083818080805b8451811015610c6557603060f81b858281518110610b3757610b37611376565b01602001516001600160f81b03191610801590610b785750603960f81b858281518110610b6657610b66611376565b01602001516001600160f81b03191611155b15610bbb576030858281518110610b9157610b91611376565b0160200151610ba3919060f81c6113a2565b610bae85600a6113b5565b610bb891906113cc565b93505b8115610bcf5782610bcb816113df565b9350505b876001600160f81b031916858281518110610bec57610bec611376565b01602001516001600160f81b03191603610c53578115610c4e5760405162461bcd60e51b815260206004820152601c60248201527f537472696e6720686173206d756c7469706c6520646563696d616c73000000006044820152606401610272565b600191505b80610c5d816113df565b915050610b17565b5085821115610cc15760405162461bcd60e51b815260206004820152602260248201527f537472696e672068617320746f6f206d616e7920646563696d616c20706c6163604482015261657360f01b6064820152608401610272565b610ccb82876113a2565b610cd690600a6114dc565b610ce090846113b5565b98975050505050505050565b6000806000610cfb8585610d4d565b90925090506000816004811115610d1457610d146114e8565b148015610d325750856001600160a01b0316826001600160a01b0316145b80610d435750610d43868686610d92565b9695505050505050565b6000808251604103610d835760208301516040840151606085015160001a610d7787828585610e7e565b94509450505050610d8b565b506000905060025b9250929050565b6000806000856001600160a01b0316631626ba7e60e01b8686604051602401610dbc9291906114fe565b60408051601f198184030181529181526020820180516001600160e01b03166001600160e01b0319909416939093179092529051610dfa9190611517565b600060405180830381855afa9150503d8060008114610e35576040519150601f19603f3d011682016040523d82523d6000602084013e610e3a565b606091505b5091509150818015610e4e57506020815110155b8015610d4357508051630b135d3f60e11b90610e739083016020908101908401611529565b149695505050505050565b6000807f7fffffffffffffffffffffffffffffff5d576e7357a4501ddfe92f46681b20a0831115610eb55750600090506003610f39565b6040805160008082526020820180845289905260ff881692820192909252606081018690526080810185905260019060a0016020604051602081039080840390855afa158015610f09573d6000803e3d6000fd5b5050604051601f1901519150506001600160a01b038116610f3257600060019250925050610f39565b9150600090505b94509492505050565b600060208284031215610f5457600080fd5b813567ffffffffffffffff811115610f6b57600080fd5b820160408185031215610a0a57600080fd5b80356001600160a01b0381168114610f9457600080fd5b919050565b600060208284031215610fab57600080fd5b610a0a82610f7d565b60005b83811015610fcf578181015183820152602001610fb7565b50506000910152565b60008151808452610ff0816020860160208601610fb4565b601f01601f19169290920160200192915050565b602081526000610a0a6020830184610fd8565b634e487b7160e01b600052604160045260246000fd5b600067ffffffffffffffff8084111561104857611048611017565b604051601f8501601f19908116603f0116810190828211818310171561107057611070611017565b8160405280935085815286868601111561108957600080fd5b858560208301376000602087830101525050509392505050565b600082601f8301126110b457600080fd5b610a0a8383356020850161102d565b6000608082840312156110d557600080fd5b6040516080810167ffffffffffffffff82821081831117156110f9576110f9611017565b81604052829350843591508082111561111157600080fd5b61111d868387016110a3565b8352602085013591508082111561113357600080fd5b61113f868387016110a3565b6020840152604085013591508082111561115857600080fd5b50611165858286016110a3565b60408301525061117760608401610f7d565b60608201525092915050565b6000806040838503121561119657600080fd5b823567ffffffffffffffff808211156111ae57600080fd5b6111ba868387016110c3565b935060208501359150808211156111d057600080fd5b508301601f810185136111e257600080fd5b6111f18582356020840161102d565b9150509250929050565b60006020828403121561120d57600080fd5b5035919050565b60008235607e1983360301811261122a57600080fd5b9190910192915050565b600061055936836110c3565b6000808335601e1984360301811261125757600080fd5b83018035915067ffffffffffffffff82111561127257600080fd5b602001915036819003821315610d8b57600080fd5b600181811c9082168061129b57607f821691505b6020821081036112bb57634e487b7160e01b600052602260045260246000fd5b50919050565b6001600160a01b03841681526040602082018190528101829052818360608301376000818301606090810191909152601f909201601f1916010192915050565b6080815260006113146080830187610fd8565b82810360208401526113268187610fd8565b9050828103604084015261133a8186610fd8565b91505060018060a01b038316606083015295945050505050565b60006020828403121561136657600080fd5b81518015158114610a0a57600080fd5b634e487b7160e01b600052603260045260246000fd5b634e487b7160e01b600052601160045260246000fd5b818103818111156105595761055961138c565b80820281158282048414176105595761055961138c565b808201808211156105595761055961138c565b6000600182016113f1576113f161138c565b5060010190565b600181815b808511156114335781600019048211156114195761141961138c565b8085161561142657918102915b93841c93908002906113fd565b509250929050565b60008261144a57506001610559565b8161145757506000610559565b816001811461146d576002811461147757611493565b6001915050610559565b60ff8411156114885761148861138c565b50506001821b610559565b5060208310610133831016604e8410600b84101617156114b6575081810a610559565b6114c083836113f8565b80600019048211156114d4576114d461138c565b029392505050565b6000610a0a838361143b565b634e487b7160e01b600052602160045260246000fd5b82815260406020820152600061069f6040830184610fd8565b6000825161122a818460208701610fb4565b60006020828403121561153b57600080fd5b505191905056fea26469706673582212207737f9635bd8e7ded068bda43d1033302a585287d229b526c1042226c042408e64736f6c63430008120033",
  "devdoc": {
    "kind": "dev",
    "methods": {
      "owner()": {
        "details": "Returns the address of the current owner."
      },
      "renounceOwnership()": {
        "details": "Leaves the contract without owner. It will not be possible to call `onlyOwner` functions. Can only be called by the current owner. NOTE: Renouncing ownership will leave the contract without an owner, thereby disabling any functionality that is only available to the owner."
      },
      "setTimestampBuffer(uint256)": {
        "params": {
          "_timestampBuffer": "The timestamp buffer for validated TLS calls"
        }
      },
      "transferOwnership(address)": {
        "details": "Transfers ownership of the contract to a new account (`newOwner`). Can only be called by the current owner."
      }
    },
    "version": 1
  },
  "userdoc": {
    "kind": "user",
    "methods": {
      "setTimestampBuffer(uint256)": {
        "notice": "ONLY OWNER: Sets the timestamp buffer for validated TLS calls. This is the amount of time in seconds that the timestamp can be off by and still be considered valid. Necessary to build in flexibility with L2 timestamps."
      }
    },
    "version": 1
  },
  "storageLayout": {
    "storage": [
      {
        "astId": 7,
        "contract": "contracts/ramps/revolut/RevolutAccountRegistrationProcessor.sol:RevolutAccountRegistrationProcessor",
        "label": "_owner",
        "offset": 0,
        "slot": "0",
        "type": "t_address"
      },
      {
        "astId": 5432,
        "contract": "contracts/ramps/revolut/RevolutAccountRegistrationProcessor.sol:RevolutAccountRegistrationProcessor",
        "label": "endpoint",
        "offset": 0,
        "slot": "1",
        "type": "t_string_storage"
      },
      {
        "astId": 5434,
        "contract": "contracts/ramps/revolut/RevolutAccountRegistrationProcessor.sol:RevolutAccountRegistrationProcessor",
        "label": "host",
        "offset": 0,
        "slot": "2",
        "type": "t_string_storage"
      },
      {
        "astId": 5437,
        "contract": "contracts/ramps/revolut/RevolutAccountRegistrationProcessor.sol:RevolutAccountRegistrationProcessor",
        "label": "nullifierRegistry",
        "offset": 0,
        "slot": "3",
        "type": "t_contract(INullifierRegistry)5831"
      },
      {
        "astId": 5439,
        "contract": "contracts/ramps/revolut/RevolutAccountRegistrationProcessor.sol:RevolutAccountRegistrationProcessor",
        "label": "timestampBuffer",
        "offset": 0,
        "slot": "4",
        "type": "t_uint256"
      },
      {
        "astId": 12444,
        "contract": "contracts/ramps/revolut/RevolutAccountRegistrationProcessor.sol:RevolutAccountRegistrationProcessor",
        "label": "verifierSigningKey",
        "offset": 0,
        "slot": "5",
        "type": "t_address"
      }
    ],
    "types": {
      "t_address": {
        "encoding": "inplace",
        "label": "address",
        "numberOfBytes": "20"
      },
      "t_contract(INullifierRegistry)5831": {
        "encoding": "inplace",
        "label": "contract INullifierRegistry",
        "numberOfBytes": "20"
      },
      "t_string_storage": {
        "encoding": "bytes",
        "label": "string",
        "numberOfBytes": "32"
      },
      "t_uint256": {
        "encoding": "inplace",
        "label": "uint256",
        "numberOfBytes": "32"
      }
    }
  }
}