{
  "address": "0xfb5294d3E7EDE246dcD933b064ADcBd2e2624059",
  "abi": [
    {
      "inputs": [
        {
          "internalType": "address",
          "name": "_owner",
          "type": "address"
        },
        {
          "internalType": "contract IERC20",
          "name": "_usdc",
          "type": "address"
        },
        {
          "internalType": "uint256",
          "name": "_minDepositAmount",
          "type": "uint256"
        },
        {
          "internalType": "uint256",
          "name": "_maxOnRampAmount",
          "type": "uint256"
        },
        {
          "internalType": "uint256",
          "name": "_intentExpirationPeriod",
          "type": "uint256"
        },
        {
          "internalType": "uint256",
          "name": "_onRampCooldownPeriod",
          "type": "uint256"
        },
        {
          "internalType": "uint256",
          "name": "_sustainabilityFee",
          "type": "uint256"
        },
        {
          "internalType": "address",
          "name": "_sustainabilityFeeRecipient",
          "type": "address"
        }
      ],
      "stateMutability": "nonpayable",
      "type": "constructor"
    },
    {
      "anonymous": false,
      "inputs": [
        {
          "indexed": false,
          "internalType": "uint256",
          "name": "depositId",
          "type": "uint256"
        },
        {
          "indexed": false,
          "internalType": "address",
          "name": "depositor",
          "type": "address"
        }
      ],
      "name": "DepositClosed",
      "type": "event"
    },
    {
      "anonymous": false,
      "inputs": [
        {
          "indexed": true,
          "internalType": "uint256",
          "name": "depositId",
          "type": "uint256"
        },
        {
          "indexed": true,
          "internalType": "bytes32",
          "name": "offRampId",
          "type": "bytes32"
        },
        {
          "indexed": true,
          "internalType": "bytes32",
          "name": "currencyId",
          "type": "bytes32"
        },
        {
          "indexed": false,
          "internalType": "uint256",
          "name": "amount",
          "type": "uint256"
        },
        {
          "indexed": false,
          "internalType": "uint256",
          "name": "conversionRate",
          "type": "uint256"
        }
      ],
      "name": "DepositReceived",
      "type": "event"
    },
    {
      "anonymous": false,
      "inputs": [
        {
          "indexed": true,
          "internalType": "uint256",
          "name": "depositId",
          "type": "uint256"
        },
        {
          "indexed": true,
          "internalType": "address",
          "name": "depositor",
          "type": "address"
        },
        {
          "indexed": false,
          "internalType": "uint256",
          "name": "amount",
          "type": "uint256"
        }
      ],
      "name": "DepositWithdrawn",
      "type": "event"
    },
    {
      "anonymous": false,
      "inputs": [
        {
          "indexed": false,
          "internalType": "uint256",
          "name": "intentExpirationPeriod",
          "type": "uint256"
        }
      ],
      "name": "IntentExpirationPeriodSet",
      "type": "event"
    },
    {
      "anonymous": false,
      "inputs": [
        {
          "indexed": true,
          "internalType": "bytes32",
          "name": "intentHash",
          "type": "bytes32"
        },
        {
          "indexed": true,
          "internalType": "uint256",
          "name": "depositId",
          "type": "uint256"
        },
        {
          "indexed": true,
          "internalType": "address",
          "name": "onRamper",
          "type": "address"
        },
        {
          "indexed": false,
          "internalType": "address",
          "name": "to",
          "type": "address"
        },
        {
          "indexed": false,
          "internalType": "uint256",
          "name": "amount",
          "type": "uint256"
        },
        {
          "indexed": false,
          "internalType": "uint256",
          "name": "feeAmount",
          "type": "uint256"
        }
      ],
      "name": "IntentFulfilled",
      "type": "event"
    },
    {
      "anonymous": false,
      "inputs": [
        {
          "indexed": true,
          "internalType": "bytes32",
          "name": "intentHash",
          "type": "bytes32"
        },
        {
          "indexed": true,
          "internalType": "uint256",
          "name": "depositId",
          "type": "uint256"
        }
      ],
      "name": "IntentPruned",
      "type": "event"
    },
    {
      "anonymous": false,
      "inputs": [
        {
          "indexed": true,
          "internalType": "bytes32",
          "name": "intentHash",
          "type": "bytes32"
        },
        {
          "indexed": true,
          "internalType": "uint256",
          "name": "depositId",
          "type": "uint256"
        },
        {
          "indexed": true,
          "internalType": "bytes32",
          "name": "accountId",
          "type": "bytes32"
        },
        {
          "indexed": false,
          "internalType": "address",
          "name": "to",
          "type": "address"
        },
        {
          "indexed": false,
          "internalType": "uint256",
          "name": "amount",
          "type": "uint256"
        },
        {
          "indexed": false,
          "internalType": "uint256",
          "name": "timestamp",
          "type": "uint256"
        }
      ],
      "name": "IntentSignaled",
      "type": "event"
    },
    {
      "anonymous": false,
      "inputs": [
        {
          "indexed": false,
          "internalType": "uint256",
          "name": "maxOnRampAmount",
          "type": "uint256"
        }
      ],
      "name": "MaxOnRampAmountSet",
      "type": "event"
    },
    {
      "anonymous": false,
      "inputs": [
        {
          "indexed": false,
          "internalType": "uint256",
          "name": "minDepositAmount",
          "type": "uint256"
        }
      ],
      "name": "MinDepositAmountSet",
      "type": "event"
    },
    {
      "anonymous": false,
      "inputs": [
        {
          "indexed": false,
          "internalType": "address",
          "name": "sendProcessor",
          "type": "address"
        }
      ],
      "name": "NewSendProcessorSet",
      "type": "event"
    },
    {
      "anonymous": false,
      "inputs": [
        {
          "indexed": false,
          "internalType": "uint256",
          "name": "onRampCooldownPeriod",
          "type": "uint256"
        }
      ],
      "name": "OnRampCooldownPeriodSet",
      "type": "event"
    },
    {
      "anonymous": false,
      "inputs": [
        {
          "indexed": true,
          "internalType": "address",
          "name": "previousOwner",
          "type": "address"
        },
        {
          "indexed": true,
          "internalType": "address",
          "name": "newOwner",
          "type": "address"
        }
      ],
      "name": "OwnershipTransferred",
      "type": "event"
    },
    {
      "anonymous": false,
      "inputs": [
        {
          "indexed": false,
          "internalType": "address",
          "name": "feeRecipient",
          "type": "address"
        }
      ],
      "name": "SustainabilityFeeRecipientUpdated",
      "type": "event"
    },
    {
      "anonymous": false,
      "inputs": [
        {
          "indexed": false,
          "internalType": "uint256",
          "name": "fee",
          "type": "uint256"
        }
      ],
      "name": "SustainabilityFeeUpdated",
      "type": "event"
    },
    {
      "inputs": [],
      "name": "accountRegistry",
      "outputs": [
        {
          "internalType": "contract IWiseAccountRegistry",
          "name": "",
          "type": "address"
        }
      ],
      "stateMutability": "view",
      "type": "function"
    },
    {
      "inputs": [
        {
          "internalType": "bytes32",
          "name": "_intentHash",
          "type": "bytes32"
        }
      ],
      "name": "cancelIntent",
      "outputs": [],
      "stateMutability": "nonpayable",
      "type": "function"
    },
    {
      "inputs": [],
      "name": "depositCounter",
      "outputs": [
        {
          "internalType": "uint256",
          "name": "",
          "type": "uint256"
        }
      ],
      "stateMutability": "view",
      "type": "function"
    },
    {
      "inputs": [
        {
          "internalType": "uint256",
          "name": "",
          "type": "uint256"
        }
      ],
      "name": "deposits",
      "outputs": [
        {
          "internalType": "address",
          "name": "depositor",
          "type": "address"
        },
        {
          "internalType": "string",
          "name": "wiseTag",
          "type": "string"
        },
        {
          "internalType": "address",
          "name": "verifierSigningKey",
          "type": "address"
        },
        {
          "internalType": "uint256",
          "name": "depositAmount",
          "type": "uint256"
        },
        {
          "internalType": "bytes32",
          "name": "receiveCurrencyId",
          "type": "bytes32"
        },
        {
          "internalType": "uint256",
          "name": "remainingDeposits",
          "type": "uint256"
        },
        {
          "internalType": "uint256",
          "name": "outstandingIntentAmount",
          "type": "uint256"
        },
        {
          "internalType": "uint256",
          "name": "conversionRate",
          "type": "uint256"
        }
      ],
      "stateMutability": "view",
      "type": "function"
    },
    {
      "inputs": [
        {
          "internalType": "address",
          "name": "_account",
          "type": "address"
        }
      ],
      "name": "getAccountDeposits",
      "outputs": [
        {
          "components": [
            {
              "internalType": "uint256",
              "name": "depositId",
              "type": "uint256"
            },
            {
              "internalType": "bytes32",
              "name": "depositorId",
              "type": "bytes32"
            },
            {
              "components": [
                {
                  "internalType": "address",
                  "name": "depositor",
                  "type": "address"
                },
                {
                  "internalType": "string",
                  "name": "wiseTag",
                  "type": "string"
                },
                {
                  "internalType": "address",
                  "name": "verifierSigningKey",
                  "type": "address"
                },
                {
                  "internalType": "uint256",
                  "name": "depositAmount",
                  "type": "uint256"
                },
                {
                  "internalType": "bytes32",
                  "name": "receiveCurrencyId",
                  "type": "bytes32"
                },
                {
                  "internalType": "uint256",
                  "name": "remainingDeposits",
                  "type": "uint256"
                },
                {
                  "internalType": "uint256",
                  "name": "outstandingIntentAmount",
                  "type": "uint256"
                },
                {
                  "internalType": "uint256",
                  "name": "conversionRate",
                  "type": "uint256"
                },
                {
                  "internalType": "bytes32[]",
                  "name": "intentHashes",
                  "type": "bytes32[]"
                }
              ],
              "internalType": "struct WiseRamp.Deposit",
              "name": "deposit",
              "type": "tuple"
            },
            {
              "internalType": "uint256",
              "name": "availableLiquidity",
              "type": "uint256"
            }
          ],
          "internalType": "struct WiseRamp.DepositWithAvailableLiquidity[]",
          "name": "accountDeposits",
          "type": "tuple[]"
        }
      ],
      "stateMutability": "view",
      "type": "function"
    },
    {
      "inputs": [
        {
          "internalType": "uint256",
          "name": "_depositId",
          "type": "uint256"
        }
      ],
      "name": "getDeposit",
      "outputs": [
        {
          "components": [
            {
              "internalType": "address",
              "name": "depositor",
              "type": "address"
            },
            {
              "internalType": "string",
              "name": "wiseTag",
              "type": "string"
            },
            {
              "internalType": "address",
              "name": "verifierSigningKey",
              "type": "address"
            },
            {
              "internalType": "uint256",
              "name": "depositAmount",
              "type": "uint256"
            },
            {
              "internalType": "bytes32",
              "name": "receiveCurrencyId",
              "type": "bytes32"
            },
            {
              "internalType": "uint256",
              "name": "remainingDeposits",
              "type": "uint256"
            },
            {
              "internalType": "uint256",
              "name": "outstandingIntentAmount",
              "type": "uint256"
            },
            {
              "internalType": "uint256",
              "name": "conversionRate",
              "type": "uint256"
            },
            {
              "internalType": "bytes32[]",
              "name": "intentHashes",
              "type": "bytes32[]"
            }
          ],
          "internalType": "struct WiseRamp.Deposit",
          "name": "",
          "type": "tuple"
        }
      ],
      "stateMutability": "view",
      "type": "function"
    },
    {
      "inputs": [
        {
          "internalType": "uint256[]",
          "name": "_depositIds",
          "type": "uint256[]"
        }
      ],
      "name": "getDepositFromIds",
      "outputs": [
        {
          "components": [
            {
              "internalType": "uint256",
              "name": "depositId",
              "type": "uint256"
            },
            {
              "internalType": "bytes32",
              "name": "depositorId",
              "type": "bytes32"
            },
            {
              "components": [
                {
                  "internalType": "address",
                  "name": "depositor",
                  "type": "address"
                },
                {
                  "internalType": "string",
                  "name": "wiseTag",
                  "type": "string"
                },
                {
                  "internalType": "address",
                  "name": "verifierSigningKey",
                  "type": "address"
                },
                {
                  "internalType": "uint256",
                  "name": "depositAmount",
                  "type": "uint256"
                },
                {
                  "internalType": "bytes32",
                  "name": "receiveCurrencyId",
                  "type": "bytes32"
                },
                {
                  "internalType": "uint256",
                  "name": "remainingDeposits",
                  "type": "uint256"
                },
                {
                  "internalType": "uint256",
                  "name": "outstandingIntentAmount",
                  "type": "uint256"
                },
                {
                  "internalType": "uint256",
                  "name": "conversionRate",
                  "type": "uint256"
                },
                {
                  "internalType": "bytes32[]",
                  "name": "intentHashes",
                  "type": "bytes32[]"
                }
              ],
              "internalType": "struct WiseRamp.Deposit",
              "name": "deposit",
              "type": "tuple"
            },
            {
              "internalType": "uint256",
              "name": "availableLiquidity",
              "type": "uint256"
            }
          ],
          "internalType": "struct WiseRamp.DepositWithAvailableLiquidity[]",
          "name": "depositArray",
          "type": "tuple[]"
        }
      ],
      "stateMutability": "view",
      "type": "function"
    },
    {
      "inputs": [
        {
          "internalType": "address",
          "name": "_account",
          "type": "address"
        }
      ],
      "name": "getIdCurrentIntentHash",
      "outputs": [
        {
          "internalType": "bytes32",
          "name": "",
          "type": "bytes32"
        }
      ],
      "stateMutability": "view",
      "type": "function"
    },
    {
      "inputs": [
        {
          "internalType": "address",
          "name": "_account",
          "type": "address"
        }
      ],
      "name": "getIdCurrentIntentHashAsUint",
      "outputs": [
        {
          "internalType": "uint256",
          "name": "",
          "type": "uint256"
        }
      ],
      "stateMutability": "view",
      "type": "function"
    },
    {
      "inputs": [
        {
          "internalType": "bytes32[]",
          "name": "_intentHashes",
          "type": "bytes32[]"
        }
      ],
      "name": "getIntentsWithOnRamperId",
      "outputs": [
        {
          "components": [
            {
              "internalType": "bytes32",
              "name": "intentHash",
              "type": "bytes32"
            },
            {
              "components": [
                {
                  "internalType": "address",
                  "name": "onRamper",
                  "type": "address"
                },
                {
                  "internalType": "address",
                  "name": "to",
                  "type": "address"
                },
                {
                  "internalType": "uint256",
                  "name": "deposit",
                  "type": "uint256"
                },
                {
                  "internalType": "uint256",
                  "name": "amount",
                  "type": "uint256"
                },
                {
                  "internalType": "uint256",
                  "name": "intentTimestamp",
                  "type": "uint256"
                }
              ],
              "internalType": "struct WiseRamp.Intent",
              "name": "intent",
              "type": "tuple"
            },
            {
              "internalType": "bytes32",
              "name": "onRamperId",
              "type": "bytes32"
            }
          ],
          "internalType": "struct WiseRamp.IntentWithOnRamperId[]",
          "name": "",
          "type": "tuple[]"
        }
      ],
      "stateMutability": "view",
      "type": "function"
    },
    {
      "inputs": [
        {
          "internalType": "address",
          "name": "_account",
          "type": "address"
        }
      ],
      "name": "getLastOnRampTimestamp",
      "outputs": [
        {
          "internalType": "uint256",
          "name": "",
          "type": "uint256"
        }
      ],
      "stateMutability": "view",
      "type": "function"
    },
    {
      "inputs": [
        {
          "internalType": "contract IWiseAccountRegistry",
          "name": "_accountRegistry",
          "type": "address"
        },
        {
          "internalType": "contract IWiseSendProcessor",
          "name": "_sendProcessor",
          "type": "address"
        }
      ],
      "name": "initialize",
      "outputs": [],
      "stateMutability": "nonpayable",
      "type": "function"
    },
    {
      "inputs": [],
      "name": "intentExpirationPeriod",
      "outputs": [
        {
          "internalType": "uint256",
          "name": "",
          "type": "uint256"
        }
      ],
      "stateMutability": "view",
      "type": "function"
    },
    {
      "inputs": [
        {
          "internalType": "bytes32",
          "name": "",
          "type": "bytes32"
        }
      ],
      "name": "intents",
      "outputs": [
        {
          "internalType": "address",
          "name": "onRamper",
          "type": "address"
        },
        {
          "internalType": "address",
          "name": "to",
          "type": "address"
        },
        {
          "internalType": "uint256",
          "name": "deposit",
          "type": "uint256"
        },
        {
          "internalType": "uint256",
          "name": "amount",
          "type": "uint256"
        },
        {
          "internalType": "uint256",
          "name": "intentTimestamp",
          "type": "uint256"
        }
      ],
      "stateMutability": "view",
      "type": "function"
    },
    {
      "inputs": [],
      "name": "isInitialized",
      "outputs": [
        {
          "internalType": "bool",
          "name": "",
          "type": "bool"
        }
      ],
      "stateMutability": "view",
      "type": "function"
    },
    {
      "inputs": [],
      "name": "maxOnRampAmount",
      "outputs": [
        {
          "internalType": "uint256",
          "name": "",
          "type": "uint256"
        }
      ],
      "stateMutability": "view",
      "type": "function"
    },
    {
      "inputs": [],
      "name": "minDepositAmount",
      "outputs": [
        {
          "internalType": "uint256",
          "name": "",
          "type": "uint256"
        }
      ],
      "stateMutability": "view",
      "type": "function"
    },
    {
      "inputs": [
        {
          "internalType": "string",
          "name": "_wiseTag",
          "type": "string"
        },
        {
          "internalType": "bytes32",
          "name": "_receiveCurrencyId",
          "type": "bytes32"
        },
        {
          "internalType": "uint256",
          "name": "_depositAmount",
          "type": "uint256"
        },
        {
          "internalType": "uint256",
          "name": "_receiveAmount",
          "type": "uint256"
        },
        {
          "internalType": "address",
          "name": "_verifierSigningKey",
          "type": "address"
        }
      ],
      "name": "offRamp",
      "outputs": [],
      "stateMutability": "nonpayable",
      "type": "function"
    },
    {
      "inputs": [
        {
          "components": [
            {
              "internalType": "string",
              "name": "endpoint",
              "type": "string"
            },
            {
              "internalType": "string",
              "name": "host",
              "type": "string"
            },
            {
              "internalType": "string",
              "name": "transferId",
              "type": "string"
            },
            {
              "internalType": "string",
              "name": "senderId",
              "type": "string"
            },
            {
              "internalType": "string",
              "name": "recipientId",
              "type": "string"
            },
            {
              "internalType": "string",
              "name": "amount",
              "type": "string"
            },
            {
              "internalType": "string",
              "name": "currencyId",
              "type": "string"
            },
            {
              "internalType": "string",
              "name": "status",
              "type": "string"
            },
            {
              "internalType": "string",
              "name": "timestamp",
              "type": "string"
            },
            {
              "internalType": "uint256",
              "name": "intentHash",
              "type": "uint256"
            }
          ],
          "internalType": "struct IWiseSendProcessor.SendData",
          "name": "_sendData",
          "type": "tuple"
        },
        {
          "internalType": "bytes",
          "name": "_verifierSignature",
          "type": "bytes"
        }
      ],
      "name": "onRamp",
      "outputs": [],
      "stateMutability": "nonpayable",
      "type": "function"
    },
    {
      "inputs": [],
      "name": "onRampCooldownPeriod",
      "outputs": [
        {
          "internalType": "uint256",
          "name": "",
          "type": "uint256"
        }
      ],
      "stateMutability": "view",
      "type": "function"
    },
    {
      "inputs": [],
      "name": "owner",
      "outputs": [
        {
          "internalType": "address",
          "name": "",
          "type": "address"
        }
      ],
      "stateMutability": "view",
      "type": "function"
    },
    {
      "inputs": [
        {
          "internalType": "bytes32",
          "name": "_intentHash",
          "type": "bytes32"
        }
      ],
      "name": "releaseFundsToOnramper",
      "outputs": [],
      "stateMutability": "nonpayable",
      "type": "function"
    },
    {
      "inputs": [],
      "name": "renounceOwnership",
      "outputs": [],
      "stateMutability": "nonpayable",
      "type": "function"
    },
    {
      "inputs": [],
      "name": "sendProcessor",
      "outputs": [
        {
          "internalType": "contract IWiseSendProcessor",
          "name": "",
          "type": "address"
        }
      ],
      "stateMutability": "view",
      "type": "function"
    },
    {
      "inputs": [
        {
          "internalType": "uint256",
          "name": "_intentExpirationPeriod",
          "type": "uint256"
        }
      ],
      "name": "setIntentExpirationPeriod",
      "outputs": [],
      "stateMutability": "nonpayable",
      "type": "function"
    },
    {
      "inputs": [
        {
          "internalType": "uint256",
          "name": "_maxOnRampAmount",
          "type": "uint256"
        }
      ],
      "name": "setMaxOnRampAmount",
      "outputs": [],
      "stateMutability": "nonpayable",
      "type": "function"
    },
    {
      "inputs": [
        {
          "internalType": "uint256",
          "name": "_minDepositAmount",
          "type": "uint256"
        }
      ],
      "name": "setMinDepositAmount",
      "outputs": [],
      "stateMutability": "nonpayable",
      "type": "function"
    },
    {
      "inputs": [
        {
          "internalType": "uint256",
          "name": "_onRampCooldownPeriod",
          "type": "uint256"
        }
      ],
      "name": "setOnRampCooldownPeriod",
      "outputs": [],
      "stateMutability": "nonpayable",
      "type": "function"
    },
    {
      "inputs": [
        {
          "internalType": "contract IWiseSendProcessor",
          "name": "_sendProcessor",
          "type": "address"
        }
      ],
      "name": "setSendProcessor",
      "outputs": [],
      "stateMutability": "nonpayable",
      "type": "function"
    },
    {
      "inputs": [
        {
          "internalType": "uint256",
          "name": "_fee",
          "type": "uint256"
        }
      ],
      "name": "setSustainabilityFee",
      "outputs": [],
      "stateMutability": "nonpayable",
      "type": "function"
    },
    {
      "inputs": [
        {
          "internalType": "address",
          "name": "_feeRecipient",
          "type": "address"
        }
      ],
      "name": "setSustainabilityFeeRecipient",
      "outputs": [],
      "stateMutability": "nonpayable",
      "type": "function"
    },
    {
      "inputs": [
        {
          "internalType": "uint256",
          "name": "_depositId",
          "type": "uint256"
        },
        {
          "internalType": "uint256",
          "name": "_amount",
          "type": "uint256"
        },
        {
          "internalType": "address",
          "name": "_to",
          "type": "address"
        }
      ],
      "name": "signalIntent",
      "outputs": [],
      "stateMutability": "nonpayable",
      "type": "function"
    },
    {
      "inputs": [],
      "name": "sustainabilityFee",
      "outputs": [
        {
          "internalType": "uint256",
          "name": "",
          "type": "uint256"
        }
      ],
      "stateMutability": "view",
      "type": "function"
    },
    {
      "inputs": [],
      "name": "sustainabilityFeeRecipient",
      "outputs": [
        {
          "internalType": "address",
          "name": "",
          "type": "address"
        }
      ],
      "stateMutability": "view",
      "type": "function"
    },
    {
      "inputs": [
        {
          "internalType": "address",
          "name": "newOwner",
          "type": "address"
        }
      ],
      "name": "transferOwnership",
      "outputs": [],
      "stateMutability": "nonpayable",
      "type": "function"
    },
    {
      "inputs": [],
      "name": "usdc",
      "outputs": [
        {
          "internalType": "contract IERC20",
          "name": "",
          "type": "address"
        }
      ],
      "stateMutability": "view",
      "type": "function"
    },
    {
      "inputs": [
        {
          "internalType": "uint256[]",
          "name": "_depositIds",
          "type": "uint256[]"
        }
      ],
      "name": "withdrawDeposit",
      "outputs": [],
      "stateMutability": "nonpayable",
      "type": "function"
    }
  ],
  "transactionHash": "0x7fddd5829aa42731ab61985d996d79b19d9066919ed044eca387aad88985802c",
  "args": [
    "0x4e39cF8578698131c57404e8bc3eEC820EDa51d8",
    "0xBBA5C9bd54a4293f4261b38e5aD41820eC41ed86",
    "20000000",
    "999000000",
    "180",
    "180",
    "1000000000000000",
    "0x4e39cF8578698131c57404e8bc3eEC820EDa51d8"
  ],
  "numDeployments": 1,
  "solcInputHash": "6e4c0155cf194d54974389502ced73c2",
  "bytecode": "0x60a06040523480156200001157600080fd5b506040516200494d3803806200494d8339810160408190526200003491620001dd565b6200003f3362000096565b6001600160a01b038781166080526006879055600786905560098590556008849055600a839055600b80546001600160a01b0319169183169190911790556200008888620000e6565b505050505050505062000263565b600080546001600160a01b038381166001600160a01b0319831681178455604051919092169283917f8be0079c531659141344cd1fd0a4f28419497f9722a3daafe3b4186f6b6457e09190a35050565b620000f062000169565b6001600160a01b0381166200015b5760405162461bcd60e51b815260206004820152602660248201527f4f776e61626c653a206e6577206f776e657220697320746865207a65726f206160448201526564647265737360d01b60648201526084015b60405180910390fd5b620001668162000096565b50565b6000546001600160a01b03163314620001c55760405162461bcd60e51b815260206004820181905260248201527f4f776e61626c653a2063616c6c6572206973206e6f7420746865206f776e6572604482015260640162000152565b565b6001600160a01b03811681146200016657600080fd5b600080600080600080600080610100898b031215620001fb57600080fd5b88516200020881620001c7565b60208a01519098506200021b81620001c7565b8097505060408901519550606089015194506080890151935060a0890151925060c0890151915060e08901516200025281620001c7565b809150509295985092959890939650565b6080516146b26200029b600039600081816102e5015281816118d301528181611eb10152818161347c015261352b01526146b26000f3fe608060405234801561001057600080fd5b50600436106102275760003560e01c80637113476211610130578063b3c0cfa4116100b8578063e279d9641161007c578063e279d96414610540578063ecb3dc8814610549578063ecd618f014610552578063eea1d19714610572578063f2fde38b1461058557600080fd5b8063b3c0cfa4146104e1578063b3fa4c01146104f4578063d089e11a14610507578063d55f960d1461051a578063d9478d201461052d57600080fd5b80639021578a116100ff5780639021578a146104025780639087beff1461047e5780639f9fb96814610491578063a1a954b7146104b1578063b02c43d0146104ba57600080fd5b806371134762146103c3578063715018a6146103d657806371a28f69146103de5780638da5cb5b146103f157600080fd5b806342987349116101b3578063534aa07c11610182578063534aa07c1461036e578063560d9716146103815780635dd7651514610394578063645006ca146103a757806366ec8419146103b057600080fd5b8063429873491461031f578063485cc95514610332578063495223e7146103455780635081d9521461034e57600080fd5b80632a80cda3116101fa5780632a80cda314610283578063317dcc9614610296578063392e53cd146102a95780633adba28a146102cd5780633e413bee146102e057600080fd5b80630f1ef98c1461022c578063133de6cb1461025257806314ec32fa14610267578063238c84941461027a575b600080fd5b61023f61023a366004613a23565b610598565b6040519081526020015b60405180910390f35b610265610260366004613a23565b610627565b005b61023f610275366004613a23565b610684565b61023f600a5481565b610265610291366004613a47565b610711565b6102656102a4366004613a47565b6107a3565b6002546102bd90600160a01b900460ff1681565b6040519015158152602001610249565b6102656102db366004613a60565b6107e0565b6103077f000000000000000000000000000000000000000000000000000000000000000081565b6040516001600160a01b039091168152602001610249565b61026561032d366004613a47565b610ee4565b610265610340366004613a99565b610f85565b61023f60085481565b61036161035c366004613a23565b611018565b6040516102499190613bee565b61026561037c366004613cbb565b6113d8565b61026561038f366004613d2d565b611996565b6102656103a2366004613a47565b611ac5565b61023f60065481565b6102656103be366004613a47565b611b64565b6102656103d1366004613e0d565b611d33565b610265611f26565b6103616103ec366004613e0d565b611f3a565b6000546001600160a01b0316610307565b61044b610410366004613a47565b600560205260009081526040902080546001820154600283015460038401546004909401546001600160a01b03938416949390921692909185565b604080516001600160a01b039687168152959094166020860152928401919091526060830152608082015260a001610249565b61026561048c366004613a47565b612222565b6104a461049f366004613a47565b6122b9565b6040516102499190613eb2565b61023f60095481565b6104cd6104c8366004613a47565b612440565b604051610249989796959493929190613ec5565b61023f6104ef366004613a23565b612520565b610265610502366004613a23565b612531565b600154610307906001600160a01b031681565b610265610528366004613a47565b6125e9565b600b54610307906001600160a01b031681565b61023f60075481565b61023f600c5481565b610565610560366004613f1d565b612809565b6040516102499190613f91565b600254610307906001600160a01b031681565b610265610593366004613a23565b612a00565b60015460405163e0b490f760e01b81526001600160a01b03838116600483015260009260039284929091169063e0b490f790602401602060405180830381865afa1580156105ea573d6000803e3d6000fd5b505050506040513d601f19601f8201168201806040525081019061060e9190614021565b8152602001908152602001600020600101549050919050565b61062f612a79565b600280546001600160a01b0319166001600160a01b0383169081179091556040519081527f6e7665a41605edc0d70f4b991d652755f380754eb092d81ef9ab93664778d59e906020015b60405180910390a150565b60015460405163e0b490f760e01b81526001600160a01b03838116600483015260009260039284929091169063e0b490f790602401602060405180830381865afa1580156106d6573d6000803e3d6000fd5b505050506040513d601f19601f820116820180604052508101906106fa9190614021565b815260208101919091526040016000205492915050565b610719612a79565b8060000361076e5760405162461bcd60e51b815260206004820152601e60248201527f4d696e696d756d206465706f7369742063616e6e6f74206265207a65726f000060448201526064015b60405180910390fd5b60068190556040518181527fbdde72a6d8d8b42770c9899945ccdce09d0c5c794d3326cdb2d2cca61b12a9fc90602001610679565b6107ab612a79565b60088190556040518181527f88397975d177ce5e18abf3a5fdb8de773e80673d85eeb54f48cfaf688b3d2c3e90602001610679565b600154604051631f5bdf5d60e01b81523360048201526001600160a01b0390911690631f5bdf5d90602401602060405180830381865afa158015610828573d6000803e3d6000fd5b505050506040513d601f19601f8201168201806040525081019061084c919061403a565b6108985760405162461bcd60e51b815260206004820152601e60248201527f43616c6c6572206d7573742062652072656769737465726564207573657200006044820152606401610765565b60015460405163e0b490f760e01b81523360048201526000916001600160a01b03169063e0b490f790602401602060405180830381865afa1580156108e1573d6000803e3d6000fd5b505050506040513d601f19601f820116820180604052508101906109059190614021565b60008581526004602081905260409182902060015481549351630359b09b60e31b81526001600160a01b039485169381019390935260248301859052939450929190911690631acd84d890604401602060405180830381865afa158015610970573d6000803e3d6000fd5b505050506040513d601f19601f82011682018060405250810190610994919061403a565b6109e05760405162461bcd60e51b815260206004820181905260248201527f4f6e72616d706572206f6e206465706f7369746f7227732064656e796c6973746044820152606401610765565b6008546000838152600360205260409020600101544291610a0091614072565b1115610a5a5760405162461bcd60e51b8152602060048201526024808201527f4f6e2072616d7020636f6f6c20646f776e20706572696f64206e6f7420656c616044820152631c1cd95960e21b6064820152608401610765565b60008281526003602052604090205415610ab65760405162461bcd60e51b815260206004820152601860248201527f496e74656e74207374696c6c206f75747374616e64696e6700000000000000006044820152606401610765565b600154815460405163e0b490f760e01b81526001600160a01b0391821660048201528492919091169063e0b490f790602401602060405180830381865afa158015610b05573d6000803e3d6000fd5b505050506040513d601f19601f82011682018060405250810190610b299190614021565b03610b765760405162461bcd60e51b815260206004820152601e60248201527f53656e6465722063616e6e6f7420626520746865206465706f7369746f7200006044820152606401610765565b80546001600160a01b0316610bc65760405162461bcd60e51b815260206004820152601660248201527511195c1bdcda5d08191bd95cc81b9bdd08195e1a5cdd60521b6044820152606401610765565b60008411610c255760405162461bcd60e51b815260206004820152602660248201527f5369676e616c656420616d6f756e74206d75737420626520677265617465722060448201526507468616e20360d41b6064820152608401610765565b600754841115610c945760405162461bcd60e51b815260206004820152603460248201527f5369676e616c656420616d6f756e74206d757374206265206c657373207468616044820152731b881b585e081bdb8b5c985b5c08185b5bdd5b9d60621b6064820152608401610765565b6001600160a01b038316610cea5760405162461bcd60e51b815260206004820152601b60248201527f43616e6e6f742073656e6420746f207a65726f206164647265737300000000006044820152606401610765565b6000610cf68387612ad3565b90508482600501541015610dab57600080610d1088612b3e565b9150915086818560050154610d259190614072565b1015610d6a5760405162461bcd60e51b81526020600482015260146024820152734e6f7420656e6f756768206c697175696469747960601b6044820152606401610765565b610d748483612ce5565b80846005016000828254610d889190614072565b9250508190555080846006016000828254610da39190614085565b909155505050505b6040805160a0810182523381526001600160a01b0386811660208084019182528385018b8152606085018b8152426080870190815260008981526005808652898220985189549089166001600160a01b0319918216178a55965160018a01805491909916971696909617909655915160028701555160038087019190915590516004909501949094558783529290925291822083905583018054879290610e53908490614085565b9250508190555084826006016000828254610e6e9190614072565b9091555050600882018054600181018255600091825260209182902001829055604080516001600160a01b038716815291820187905242908201528390879083907f1a1292e170a0f000ccf956afba79bee0f9ec1d81f3f901c1d4d11e1f336aae109060600160405180910390a4505050505050565b610eec612a79565b80600003610f505760405162461bcd60e51b815260206004820152602b60248201527f4d617820696e74656e742065787069726174696f6e20706572696f642063616e60448201526a6e6f74206265207a65726f60a81b6064820152608401610765565b60098190556040518181527f55e3f6b95de9a0ec782f892e93fafe4e56be0696df204ddf8e0a40a9a713a80390602001610679565b610f8d612a79565b600254600160a01b900460ff1615610fdd5760405162461bcd60e51b8152602060048201526013602482015272105b1c9958591e481a5b9a5d1a585b1a5e9959606a1b6044820152606401610765565b600180546001600160a01b039384166001600160a01b0319909116179055600280546001600160a81b0319169190921617600160a01b179055565b60015460405163e0b490f760e01b81526001600160a01b0383811660048301526060926000926003928492169063e0b490f790602401602060405180830381865afa15801561106b573d6000803e3d6000fd5b505050506040513d601f19601f8201168201806040525081019061108f9190614021565b81526020019081526020016000206002018054806020026020016040519081016040528092919081815260200182805480156110ea57602002820191906000526020600020905b8154815260200190600101908083116110d6575b5050505050905080516001600160401b0381111561110a5761110a613d9e565b60405190808252806020026020018201604052801561114357816020015b6111306138cd565b8152602001906001900390816111285790505b50915060005b81518110156113d157600082828151811061116657611166614098565b60209081029190910181015160008181526004835260408082208151610120810190925280546001600160a01b0316825260018101805494965092949193909291840191906111b4906140ae565b80601f01602080910402602001604051908101604052809291908181526020018280546111e0906140ae565b801561122d5780601f106112025761010080835404028352916020019161122d565b820191906000526020600020905b81548152906001019060200180831161121057829003601f168201915b505050505081526020016002820160009054906101000a90046001600160a01b03166001600160a01b03166001600160a01b031681526020016003820154815260200160048201548152602001600582015481526020016006820154815260200160078201548152602001600882018054806020026020016040519081016040528092919081815260200182805480156112e657602002820191906000526020600020905b8154815260200190600101908083116112d2575b505050505081525050905060006112fc83612b3e565b604080516080810182528681526001548651925163e0b490f760e01b81526001600160a01b039384166004820152939550909350602084019291169063e0b490f790602401602060405180830381865afa15801561135e573d6000803e3d6000fd5b505050506040513d601f19601f820116820180604052508101906113829190614021565b8152602001838152602001828460a0015161139d9190614072565b8152508685815181106113b2576113b2614098565b6020026020010181905250505050806113ca906140e2565b9050611149565b5050919050565b600154604051631f5bdf5d60e01b81523360048201526001600160a01b0390911690631f5bdf5d90602401602060405180830381865afa158015611420573d6000803e3d6000fd5b505050506040513d601f19601f82011682018060405250810190611444919061403a565b6114905760405162461bcd60e51b815260206004820152601e60248201527f43616c6c6572206d7573742062652072656769737465726564207573657200006044820152606401610765565b600154604051630f6a21fd60e31b81523360048201526000916001600160a01b031690637b510fe890602401606060405180830381865afa1580156114d9573d6000803e3d6000fd5b505050506040513d601f19601f820116820180604052508101906114fd91906140fb565b8051600090815260036020908152604090912090820151919250906115645760405162461bcd60e51b815260206004820181905260248201527f4d7573742062652072656769737465726564206173206f66662072616d7065726044820152606401610765565b8160400151888860405160200161157c929190614156565b60405160208183030381529060405280519060200120146115f35760405162461bcd60e51b815260206004820152602b60248201527f576973652074616720646f6573206e6f74206d6174636820726567697374657260448201526a656420776973652074616760a81b6064820152608401610765565b60028101546005116116475760405162461bcd60e51b815260206004820152601e60248201527f4d6178696d756d206465706f73697420616d6f756e74207265616368656400006044820152606401610765565b6006548510156116b85760405162461bcd60e51b815260206004820152603660248201527f4465706f73697420616d6f756e74206d757374206265206772656174657220746044820152751a185b881b5a5b8819195c1bdcda5d08185b5bdd5b9d60521b6064820152608401610765565b600084116117165760405162461bcd60e51b815260206004820152602560248201527f5265636569766520616d6f756e74206d75737420626520677265617465722074604482015264068616e20360dc1b6064820152608401610765565b60008461172b670de0b6b3a764000088614185565b61173591906141b2565b600c8054919250600091908261174a836140e2565b9091555060028401805460018101825560009182526020918290200182905560408051610120810182523381528151601f8e018490048402810184019092528c8252929350828201918d908d908190840183828082843760009201829052509385525050506001600160a01b03881660208084019190915260408084018c9052606084018d9052608084018c905260a0840183905260c084018790528051838152918201905260e090920191905090526000828152600460209081526040909120825181546001600160a01b0319166001600160a01b0390911617815590820151600182019061183a908261420c565b5060408201516002820180546001600160a01b0319166001600160a01b03909216919091179055606082015160038201556080820151600482015560a0820151600582015560c0820151600682015560e0820151600782015561010082015180516118af9160088401916020909101906138f9565b50506040516323b872dd60e01b8152336004820152306024820152604481018990527f00000000000000000000000000000000000000000000000000000000000000006001600160a01b031691506323b872dd906064016020604051808303816000875af1158015611925573d6000803e3d6000fd5b505050506040513d601f19601f82011682018060405250810190611949919061403a565b50835160408051898152602081018590528a929184917f94c4b6f8843ea372709c89bc4a9ed85ef74ab10a68713ffdddc31716a76a6c95910160405180910390a450505050505050505050565b60008060006119a6868686612d47565b6040805160a08101825284546001600160a01b0390811682526001860154166020820152600285015491810191909152600384015460608201526004909301546080840152919450925090506119fc8282613160565b8260600151826006016000828254611a149190614085565b9091555050600154835160405163e0b490f760e01b81526001600160a01b039182166004820152429260039260009291169063e0b490f790602401602060405180830381865afa158015611a6c573d6000803e3d6000fd5b505050506040513d601f19601f82011682018060405250810190611a909190614021565b815260200190815260200160002060010181905550611ab38360400151836132a9565b611abd818461341f565b505050505050565b611acd612a79565b66b1a2bc2ec50000811115611b2f5760405162461bcd60e51b815260206004820152602260248201527f4665652063616e6e6f742062652067726561746572207468616e206d61782066604482015261656560f01b6064820152608401610765565b600a8190556040518181527f44f48e1b871e6db1e909a7b253b054b7150a0b4ddf4d59b159c827d82e72567090602001610679565b6000818152600560209081526040808320815160a08101835281546001600160a01b03908116825260018301548116828601526002830154828501819052600384015460608401526004938401546080840152865291909352922081519192909116611c0a5760405162461bcd60e51b8152602060048201526015602482015274125b9d195b9d08191bd95cc81b9bdd08195e1a5cdd605a1b6044820152606401610765565b80546001600160a01b03163314611c635760405162461bcd60e51b815260206004820152601c60248201527f43616c6c6572206d75737420626520746865206465706f7369746f72000000006044820152606401610765565b611c6d8184613160565b8160600151816006016000828254611c859190614085565b9091555050600154825160405163e0b490f760e01b81526001600160a01b039182166004820152429260039260009291169063e0b490f790602401602060405180830381865afa158015611cdd573d6000803e3d6000fd5b505050506040513d601f19601f82011682018060405250810190611d019190614021565b815260200190815260200160002060010181905550611d248260400151826132a9565b611d2e838361341f565b505050565b6000805b8251811015611e94576000838281518110611d5457611d54614098565b6020908102919091018101516000818152600490925260409091208054919250906001600160a01b03163314611dcc5760405162461bcd60e51b815260206004820152601c60248201527f53656e646572206d75737420626520746865206465706f7369746f72000000006044820152606401610765565b600080611dd884612b3e565b91509150611de68383612ce5565b808360050154611df69190614072565b611e009087614072565b955080836006016000828254611e169190614085565b9091555050825460058401546001600160a01b039091169085907fae1f357660ab777dcfd38c0ab6357834684ec26289ecfa07ec65dbf6c3c6431290611e5d908590614072565b60405190815260200160405180910390a360006005840155611e7f84846132a9565b5050505080611e8d906140e2565b9050611d37565b5060405163a9059cbb60e01b8152336004820152602481018290527f00000000000000000000000000000000000000000000000000000000000000006001600160a01b03169063a9059cbb906044016020604051808303816000875af1158015611f02573d6000803e3d6000fd5b505050506040513d601f19601f82011682018060405250810190611d2e919061403a565b611f2e612a79565b611f3860006135fd565b565b606081516001600160401b03811115611f5557611f55613d9e565b604051908082528060200260200182016040528015611f8e57816020015b611f7b6138cd565b815260200190600190039081611f735790505b50905060005b825181101561221c576000838281518110611fb157611fb1614098565b60209081029190910181015160008181526004835260408082208151610120810190925280546001600160a01b031682526001810180549496509294919390929184019190611fff906140ae565b80601f016020809104026020016040519081016040528092919081815260200182805461202b906140ae565b80156120785780601f1061204d57610100808354040283529160200191612078565b820191906000526020600020905b81548152906001019060200180831161205b57829003601f168201915b505050505081526020016002820160009054906101000a90046001600160a01b03166001600160a01b03166001600160a01b0316815260200160038201548152602001600482015481526020016005820154815260200160068201548152602001600782015481526020016008820180548060200260200160405190810160405280929190818152602001828054801561213157602002820191906000526020600020905b81548152602001906001019080831161211d575b5050505050815250509050600061214783612b3e565b604080516080810182528681526001548651925163e0b490f760e01b81526001600160a01b039384166004820152939550909350602084019291169063e0b490f790602401602060405180830381865afa1580156121a9573d6000803e3d6000fd5b505050506040513d601f19601f820116820180604052508101906121cd9190614021565b8152602001838152602001828460a001516121e89190614072565b8152508585815181106121fd576121fd614098565b602002602001018190525050505080612215906140e2565b9050611f94565b50919050565b61222a612a79565b806000036122845760405162461bcd60e51b815260206004820152602160248201527f4d6178206f6e2072616d7020616d6f756e742063616e6e6f74206265207a65726044820152606f60f81b6064820152608401610765565b60078190556040518181527fcab6b49ca21dd111cf4a55d507bbe89dd12d69216e28247060d4b2163ca41b3990602001610679565b6122c1613944565b6000828152600460209081526040918290208251610120810190935280546001600160a01b0316835260018101805491928401916122fe906140ae565b80601f016020809104026020016040519081016040528092919081815260200182805461232a906140ae565b80156123775780601f1061234c57610100808354040283529160200191612377565b820191906000526020600020905b81548152906001019060200180831161235a57829003601f168201915b505050505081526020016002820160009054906101000a90046001600160a01b03166001600160a01b03166001600160a01b0316815260200160038201548152602001600482015481526020016005820154815260200160068201548152602001600782015481526020016008820180548060200260200160405190810160405280929190818152602001828054801561243057602002820191906000526020600020905b81548152602001906001019080831161241c575b5050505050815250509050919050565b600460205260009081526040902080546001820180546001600160a01b03909216929161246c906140ae565b80601f0160208091040260200160405190810160405280929190818152602001828054612498906140ae565b80156124e55780601f106124ba576101008083540402835291602001916124e5565b820191906000526020600020905b8154815290600101906020018083116124c857829003601f168201915b5050506002840154600385015460048601546005870154600688015460079098015496976001600160a01b0390941696929550909350919088565b600061252b82610684565b92915050565b612539612a79565b6001600160a01b03811661259b5760405162461bcd60e51b8152602060048201526024808201527f46656520726563697069656e742063616e6e6f74206265207a65726f206164646044820152637265737360e01b6064820152608401610765565b600b80546001600160a01b0319166001600160a01b0383169081179091556040519081527f594ad6ee98bfc0c73e6d15fd4e762502f359e05d26907b7fa1ff82eb5e99f6e490602001610679565b6000818152600560209081526040808320815160a08101835281546001600160a01b039081168252600183015416938101939093526002810154918301919091526003810154606083015260040154608082018190529091036126865760405162461bcd60e51b8152602060048201526015602482015274125b9d195b9d08191bd95cc81b9bdd08195e1a5cdd605a1b6044820152606401610765565b60015460405163e0b490f760e01b81523360048201526001600160a01b039091169063e0b490f790602401602060405180830381865afa1580156126ce573d6000803e3d6000fd5b505050506040513d601f19601f820116820180604052508101906126f29190614021565b600154825160405163e0b490f760e01b81526001600160a01b03918216600482015291169063e0b490f790602401602060405180830381865afa15801561273d573d6000803e3d6000fd5b505050506040513d601f19601f820116820180604052508101906127619190614021565b146127ae5760405162461bcd60e51b815260206004820152601c60248201527f53656e646572206d75737420626520746865206f6e2d72616d706572000000006044820152606401610765565b60408082015160009081526004602052206127c98184613160565b81606001518160050160008282546127e19190614072565b909155505060608201516006820180546000906127ff908490614085565b9091555050505050565b60606000826001600160401b0381111561282557612825613d9e565b60405190808252806020026020018201604052801561289f57816020015b61288c60408051606080820183526000808352835160a0810185528181526020818101839052948101829052918201819052608082015290918201908152600060209091015290565b8152602001906001900390816128435790505b50905060005b838110156129f85760008585838181106128c1576128c1614098565b60209081029290920135600081815260058452604090819020815160a08101835281546001600160a01b0390811682526001830154169581019590955260028101548583015260038101546060808701919091526004909101546080860152815190810190915290935090508088888681811061294057612940614098565b60209081029290920135835250810183905260015483516040805163e0b490f760e01b81526001600160a01b03928316600482015293019291169063e0b490f790602401602060405180830381865afa1580156129a1573d6000803e3d6000fd5b505050506040513d601f19601f820116820180604052508101906129c59190614021565b8152508484815181106129da576129da614098565b60200260200101819052505050806129f1906140e2565b90506128a5565b509392505050565b612a08612a79565b6001600160a01b038116612a6d5760405162461bcd60e51b815260206004820152602660248201527f4f776e61626c653a206e6577206f776e657220697320746865207a65726f206160448201526564647265737360d01b6064820152608401610765565b612a76816135fd565b50565b6000546001600160a01b03163314611f385760405162461bcd60e51b815260206004820181905260248201527f4f776e61626c653a2063616c6c6572206973206e6f7420746865206f776e65726044820152606401610765565b6040805160208101849052908101829052426060820152600090819060800160408051601f1981840301815291905280516020909101209050612b367f30644e72e131a029b85045b68181585d2833e84879b9709143e1f593f0000001826142cb565b949350505050565b60008181526004602090815260408083206008018054825181850281018501909352808352606094938493929190830182828015612b9b57602002820191906000526020600020905b815481526020019060010190808311612b87575b5050505050905080516001600160401b03811115612bbb57612bbb613d9e565b604051908082528060200260200182016040528015612be4578160200160208202803683370190505b50925060005b8151811015612cde57600060056000848481518110612c0b57612c0b614098565b6020908102919091018101518252818101929092526040908101600020815160a08101835281546001600160a01b039081168252600183015416938101939093526002810154918301919091526003810154606083015260040154608082018190526009549192504291612c7e91614072565b1015612ccd57828281518110612c9657612c96614098565b6020026020010151858381518110612cb057612cb0614098565b60209081029190910101526060810151612cca9085614072565b93505b50612cd7816140e2565b9050612bea565b5050915091565b60005b8151811015611d2e576000801b828281518110612d0757612d07614098565b602002602001015114612d3757612d3783838381518110612d2a57612d2a614098565b6020026020010151613160565b612d40816140e2565b9050612ce8565b610120830135600081815260056020526040812080549092906001600160a01b03163314612db75760405162461bcd60e51b815260206004820152601c60248201527f43616c6c6572206d75737420626520746865206f6e2d72616d706572000000006044820152606401610765565b60028084015460009081526004602052604080822092548151808301909252929450909182918291829182916001600160a01b03169063f20333c19080612dfd8f61434e565b81526020018d8d8080601f016020809104026020016040519081016040528093929190818152602001838380828437600092019190915250505091525060028a01546040516001600160e01b031960e085901b168152612e6a92916001600160a01b0316906004016144ce565b60a0604051808303816000875af1158015612e89573d6000803e3d6000fd5b505050506040513d601f19601f82011682018060405250810190612ead9190614626565b9450945094509450945086600401548114612f005760405162461bcd60e51b815260206004820152601360248201527215dc9bdb99c818dd5c9c995b98de481cd95b9d606a1b6044820152606401610765565b8388600401541115612f5f5760405162461bcd60e51b815260206004820152602260248201527f496e74656e7420776173206e6f742063726561746564206265666f72652073656044820152611b9960f21b6064820152608401610765565b6001548754604051630f6a21fd60e31b81526001600160a01b03918216600482015285929190911690637b510fe890602401606060405180830381865afa158015612fae573d6000803e3d6000fd5b505050506040513d601f19601f82011682018060405250810190612fd291906140fb565b60200151146130235760405162461bcd60e51b815260206004820152601b60248201527f4f666672616d70657220696420646f6573206e6f74206d6174636800000000006044820152606401610765565b600154885460405163e0b490f760e01b81526001600160a01b0391821660048201528492919091169063e0b490f790602401602060405180830381865afa158015613072573d6000803e3d6000fd5b505050506040513d601f19601f820116820180604052508101906130969190614021565b146130e35760405162461bcd60e51b815260206004820152601a60248201527f4f6e72616d70657220696420646f6573206e6f74206d617463680000000000006044820152606401610765565b8660070154670de0b6b3a764000089600301546131009190614185565b61310a91906141b2565b8510156131525760405162461bcd60e51b81526020600482015260166024820152750a0c2f2dacadce840eec2e640dcdee840cadcdeeaced60531b6044820152606401610765565b505050505093509350939050565b6000818152600560209081526040808320815160a08101835281546001600160a01b03908116808352600180850154831696840196909652600284015483860152600380850154606085015260049485015460808501529554945163e0b490f760e01b815293840152909492169063e0b490f790602401602060405180830381865afa1580156131f4573d6000803e3d6000fd5b505050506040513d601f19601f820116820180604052508101906132189190614021565b8152602080820192909252604090810160009081208190558481526005909252812080546001600160a01b031990811682556001820180549091169055600281018290556003810182905560040155613274600884018361364d565b604080820151905183907fe8a865b4bab023c399cbd1f2cdd0df2199beb6e5012a4bd2d7691cf7e4199d5a90600090a3505050565b6000816005015482600601546132bf9190614072565b905080600003611d2e57600154825460405163e0b490f760e01b81526001600160a01b039182166004820152613365928692600392600092919091169063e0b490f790602401602060405180830381865afa158015613322573d6000803e3d6000fd5b505050506040513d601f19601f820116820180604052508101906133469190614021565b815260200190815260200160002060020161377590919063ffffffff16565b8154604080518581526001600160a01b0390921660208301527f8ac07cc6e38c6222dd0309c80353c1962354bacf222b825d7401cc80e93ff3cc910160405180910390a1600083815260046020526040812080546001600160a01b0319168155906133d360018301826139a5565b6002820180546001600160a01b0319169055600060038301819055600483018190556005830181905560068301819055600783018190556134189060088401906139df565b5050505050565b6000600a546000146134eb57670de0b6b3a7640000600a5483606001516134469190614185565b61345091906141b2565b600b5460405163a9059cbb60e01b81526001600160a01b039182166004820152602481018390529192507f0000000000000000000000000000000000000000000000000000000000000000169063a9059cbb906044016020604051808303816000875af11580156134c5573d6000803e3d6000fd5b505050506040513d601f19601f820116820180604052508101906134e9919061403a565b505b60008183606001516134fd9190614085565b602084015160405163a9059cbb60e01b81526001600160a01b039182166004820152602481018390529192507f0000000000000000000000000000000000000000000000000000000000000000169063a9059cbb906044016020604051808303816000875af1158015613574573d6000803e3d6000fd5b505050506040513d601f19601f82011682018060405250810190613598919061403a565b50825160408085015160208087015183516001600160a01b03918216815291820186905292810186905291909216919086907ffa03438194e61c243c6bb5349f1e1dc674431b86f119b5e3b2b327bc43446bce9060600160405180910390a450505050565b600080546001600160a01b038381166001600160a01b0319831681178455604051919092169283917f8be0079c531659141344cd1fd0a4f28419497f9722a3daafe3b4186f6b6457e09190a35050565b6000806136a98480548060200260200160405190810160405280929190818152602001828054801561369e57602002820191906000526020600020905b81548152602001906001019080831161368a575b50505050508461381a565b91509150806136f25760405162461bcd60e51b8152602060048201526015602482015274313cba32b99999103737ba1034b71030b93930bc9760591b6044820152606401610765565b835460009061370390600190614085565b90508083146137485784818154811061371e5761371e614098565b906000526020600020015485848154811061373b5761373b614098565b6000918252602090912001555b8480548061375857613758614666565b600190038181906000526020600020016000905590555050505050565b6000806137d1848054806020026020016040519081016040528092919081815260200182805480156137c657602002820191906000526020600020905b8154815260200190600101908083116137b2575b50505050508461387d565b91509150806136f25760405162461bcd60e51b81526020600482015260156024820152743ab4b73a191a9b103737ba1034b71030b93930bc9760591b6044820152606401610765565b81516000908190815b8181101561386a578486828151811061383e5761383e614098565b602002602001015103613858579250600191506138769050565b80613862816140e2565b915050613823565b50600019600092509250505b9250929050565b81516000908190815b8181101561386a57848682815181106138a1576138a1614098565b6020026020010151036138bb579250600191506138769050565b806138c5816140e2565b915050613886565b60408051608081018252600080825260208201529081016138ec613944565b8152602001600081525090565b828054828255906000526020600020908101928215613934579160200282015b82811115613934578251825591602001919060010190613919565b506139409291506139f9565b5090565b60405180610120016040528060006001600160a01b031681526020016060815260200160006001600160a01b031681526020016000815260200160008019168152602001600081526020016000815260200160008152602001606081525090565b5080546139b1906140ae565b6000825580601f106139c1575050565b601f016020900490600052602060002090810190612a7691906139f9565b5080546000825590600052602060002090810190612a7691905b5b8082111561394057600081556001016139fa565b6001600160a01b0381168114612a7657600080fd5b600060208284031215613a3557600080fd5b8135613a4081613a0e565b9392505050565b600060208284031215613a5957600080fd5b5035919050565b600080600060608486031215613a7557600080fd5b83359250602084013591506040840135613a8e81613a0e565b809150509250925092565b60008060408385031215613aac57600080fd5b8235613ab781613a0e565b91506020830135613ac781613a0e565b809150509250929050565b6000815180845260005b81811015613af857602081850181015186830182015201613adc565b506000602082860101526020601f19601f83011685010191505092915050565b600081518084526020808501945080840160005b83811015613b4857815187529582019590820190600101613b2c565b509495945050505050565b80516001600160a01b0316825260006101206020830151816020860152613b7c82860182613ad2565b9150506040830151613b9960408601826001600160a01b03169052565b50606083015160608501526080830151608085015260a083015160a085015260c083015160c085015260e083015160e08501526101008084015185830382870152613be48382613b18565b9695505050505050565b60006020808301818452808551808352604092508286019150828160051b87010184880160005b83811015613c6c57603f1989840301855281516080815185528882015189860152878201518189870152613c4b82870182613b53565b60609384015196909301959095525094870194925090860190600101613c15565b509098975050505050505050565b60008083601f840112613c8c57600080fd5b5081356001600160401b03811115613ca357600080fd5b60208301915083602082850101111561387657600080fd5b60008060008060008060a08789031215613cd457600080fd5b86356001600160401b03811115613cea57600080fd5b613cf689828a01613c7a565b9097509550506020870135935060408701359250606087013591506080870135613d1f81613a0e565b809150509295509295509295565b600080600060408486031215613d4257600080fd5b83356001600160401b0380821115613d5957600080fd5b908501906101408288031215613d6e57600080fd5b90935060208501359080821115613d8457600080fd5b50613d9186828701613c7a565b9497909650939450505050565b634e487b7160e01b600052604160045260246000fd5b60405161014081016001600160401b0381118282101715613dd757613dd7613d9e565b60405290565b604051601f8201601f191681016001600160401b0381118282101715613e0557613e05613d9e565b604052919050565b60006020808385031215613e2057600080fd5b82356001600160401b0380821115613e3757600080fd5b818501915085601f830112613e4b57600080fd5b813581811115613e5d57613e5d613d9e565b8060051b9150613e6e848301613ddd565b8181529183018401918481019088841115613e8857600080fd5b938501935b83851015613ea657843582529385019390850190613e8d565b98975050505050505050565b602081526000613a406020830184613b53565b6001600160a01b03898116825261010060208301819052600091613eeb8483018c613ad2565b9916604084015250506060810195909552608085019390935260a084019190915260c083015260e09091015292915050565b60008060208385031215613f3057600080fd5b82356001600160401b0380821115613f4757600080fd5b818501915085601f830112613f5b57600080fd5b813581811115613f6a57600080fd5b8660208260051b8501011115613f7f57600080fd5b60209290920196919550909350505050565b602080825282518282018190526000919060409081850190868401855b82811015614014578151805185528681015180516001600160a01b039081168988015281890151168787015286810151606080880191909152810151608080880191909152015160a086015285015160c085015260e09093019290850190600101613fae565b5091979650505050505050565b60006020828403121561403357600080fd5b5051919050565b60006020828403121561404c57600080fd5b81518015158114613a4057600080fd5b634e487b7160e01b600052601160045260246000fd5b8082018082111561252b5761252b61405c565b8181038181111561252b5761252b61405c565b634e487b7160e01b600052603260045260246000fd5b600181811c908216806140c257607f821691505b60208210810361221c57634e487b7160e01b600052602260045260246000fd5b6000600182016140f4576140f461405c565b5060010190565b60006060828403121561410d57600080fd5b604051606081018181106001600160401b038211171561412f5761412f613d9e565b80604052508251815260208301516020820152604083015160408201528091505092915050565b60208152816020820152818360408301376000818301604090810191909152601f909201601f19160101919050565b808202811582820484141761252b5761252b61405c565b634e487b7160e01b600052601260045260246000fd5b6000826141c1576141c161419c565b500490565b601f821115611d2e57600081815260208120601f850160051c810160208610156141ed5750805b601f850160051c820191505b81811015611abd578281556001016141f9565b81516001600160401b0381111561422557614225613d9e565b6142398161423384546140ae565b846141c6565b602080601f83116001811461426e57600084156142565750858301515b600019600386901b1c1916600185901b178555611abd565b600085815260208120601f198616915b8281101561429d5788860151825594840194600190910190840161427e565b50858210156142bb5787850151600019600388901b60f8161c191681555b5050505050600190811b01905550565b6000826142da576142da61419c565b500690565b600082601f8301126142f057600080fd5b81356001600160401b0381111561430957614309613d9e565b61431c601f8201601f1916602001613ddd565b81815284602083860101111561433157600080fd5b816020850160208301376000918101602001919091529392505050565b6000610140823603121561436157600080fd5b614369613db4565b82356001600160401b038082111561438057600080fd5b61438c368387016142df565b835260208501359150808211156143a257600080fd5b6143ae368387016142df565b602084015260408501359150808211156143c757600080fd5b6143d3368387016142df565b604084015260608501359150808211156143ec57600080fd5b6143f8368387016142df565b6060840152608085013591508082111561441157600080fd5b61441d368387016142df565b608084015260a085013591508082111561443657600080fd5b614442368387016142df565b60a084015260c085013591508082111561445b57600080fd5b614467368387016142df565b60c084015260e085013591508082111561448057600080fd5b61448c368387016142df565b60e0840152610100915081850135818111156144a757600080fd5b6144b3368288016142df565b92840192909252505061012092830135928101929092525090565b604081526000835160408084015280516101408060808601526144f56101c0860183613ad2565b91506020830151607f19808785030160a08801526145138483613ad2565b935060408501519150808785030160c08801526145308483613ad2565b935060608501519150808785030160e088015261454d8483613ad2565b93506080850151915061010081888603018189015261456c8584613ad2565b945060a086015192506101208289870301818a015261458b8685613ad2565b955060c087015193508289870301858a01526145a78685613ad2565b955060e0870151945082898703016101608a01526145c58686613ad2565b955081870151945082898703016101808a01526145e28686613ad2565b9601516101a0890152505050506020860151848303603f1901606086015291905061460d8183613ad2565b92505050613a4060208301846001600160a01b03169052565b600080600080600060a0868803121561463e57600080fd5b5050835160208501516040860151606087015160809097015192989197509594509092509050565b634e487b7160e01b600052603160045260246000fdfea2646970667358221220e73047b166610e8f47090fb36d9adea76ccf223d5d22f65c8ecedd7f9ee46b8b64736f6c63430008120033",
  "devdoc": {
    "kind": "dev",
    "methods": {
      "cancelIntent(bytes32)": {
        "params": {
          "_intentHash": "Hash of intent being cancelled"
        }
      },
      "initialize(address,address)": {
        "params": {
          "_accountRegistry": "Account Registry contract for Wise",
          "_sendProcessor": "Send processor address"
        }
      },
      "offRamp(string,bytes32,uint256,uint256,address)": {
        "params": {
          "_depositAmount": "The amount of USDC to off-ramp",
          "_receiveAmount": "The amount of USD to receive",
          "_receiveCurrencyId": "Id of the currency to be received off-chain",
          "_verifierSigningKey": "Public key of the verifier depositor wants to sign the TLS proof",
          "_wiseTag": "Depositor's Wise tag to receive payments"
        }
      },
      "onRamp((string,string,string,string,string,string,string,string,string,uint256),bytes)": {
        "params": {
          "_sendData": "Struct containing unredacted data from API call to Wise",
          "_verifierSignature": "Signature by verifier of the unredacted data"
        }
      },
      "owner()": {
        "details": "Returns the address of the current owner."
      },
      "releaseFundsToOnramper(bytes32)": {
        "params": {
          "_intentHash": "Hash of intent to resolve by releasing the funds"
        }
      },
      "renounceOwnership()": {
        "details": "Leaves the contract without owner. It will not be possible to call `onlyOwner` functions. Can only be called by the current owner. NOTE: Renouncing ownership will leave the contract without an owner, thereby disabling any functionality that is only available to the owner."
      },
      "setIntentExpirationPeriod(uint256)": {
        "params": {
          "_intentExpirationPeriod": "New intent expiration period"
        }
      },
      "setMaxOnRampAmount(uint256)": {
        "params": {
          "_maxOnRampAmount": "The new max on ramp amount"
        }
      },
      "setMinDepositAmount(uint256)": {
        "params": {
          "_minDepositAmount": "The new minimum deposit amount"
        }
      },
      "setOnRampCooldownPeriod(uint256)": {
        "params": {
          "_onRampCooldownPeriod": "New on-ramp cooldown period"
        }
      },
      "setSendProcessor(address)": {
        "params": {
          "_sendProcessor": "New send proccesor address"
        }
      },
      "setSustainabilityFee(uint256)": {
        "params": {
          "_fee": "The new sustainability fee in precise units (10**18, ie 10% = 1e17)"
        }
      },
      "setSustainabilityFeeRecipient(address)": {
        "params": {
          "_feeRecipient": "The new fee recipient address"
        }
      },
      "signalIntent(uint256,uint256,address)": {
        "params": {
          "_amount": "The amount of USDC the user wants to on-ramp",
          "_depositId": "The ID of the deposit the on-ramper intends to use for ",
          "_to": "Address to forward funds to (can be same as onRamper)"
        }
      },
      "transferOwnership(address)": {
        "details": "Transfers ownership of the contract to a new account (`newOwner`). Can only be called by the current owner."
      },
      "withdrawDeposit(uint256[])": {
        "params": {
          "_depositIds": "Array of depositIds the depositor is attempting to withdraw"
        }
      }
    },
    "version": 1
  },
  "userdoc": {
    "kind": "user",
    "methods": {
      "cancelIntent(bytes32)": {
        "notice": "Only callable by the originator of the intent. Cancels an outstanding intent thus allowing user to signal a new intent. Deposit state is updated to reflect the cancelled intent."
      },
      "initialize(address,address)": {
        "notice": "Initialize Ramp with the addresses of the Processors"
      },
      "offRamp(string,bytes32,uint256,uint256,address)": {
        "notice": "Generates a deposit entry for off-rampers that can then be fulfilled by an on-ramper. This function will not add to previous deposits. Every deposit has it's own unique identifier. User must approve the contract to transfer the deposit amount of USDC."
      },
      "onRamp((string,string,string,string,string,string,string,string,string,uint256),bytes)": {
        "notice": "Anyone can submit an on-ramp transaction, even if caller isn't on-ramper. Upon submission the proof is validated, intent is removed, and deposit state is updated. USDC is transferred to the on-ramper."
      },
      "releaseFundsToOnramper(bytes32)": {
        "notice": "Allows off-ramper to release funds to the on-ramper in case of a failed on-ramp or because of some other arrangement between the two parties. Upon submission we check to make sure the msg.sender is the depositor, the  intent is removed, and  deposit state is updated. USDC is transferred to the on-ramper."
      },
      "setIntentExpirationPeriod(uint256)": {
        "notice": "GOVERNANCE ONLY: Updates the intent expiration period, after this period elapses an intent can be pruned to prevent locking up a depositor's funds."
      },
      "setMaxOnRampAmount(uint256)": {
        "notice": "GOVERNANCE ONLY: Updates the max amount allowed to be on-ramped in each transaction. To on-ramp more than this amount a user must make multiple transactions."
      },
      "setMinDepositAmount(uint256)": {
        "notice": "GOVERNANCE ONLY: Updates the minimum deposit amount a user can specify for off-ramping."
      },
      "setOnRampCooldownPeriod(uint256)": {
        "notice": "GOVERNANCE ONLY: Updates the on-ramp cooldown period, once an on-ramp transaction is completed the user must wait this amount of time before they can signalIntent to on-ramp again."
      },
      "setSendProcessor(address)": {
        "notice": "GOVERNANCE ONLY: Updates the send processor address used for validating and interpreting zk proofs."
      },
      "setSustainabilityFee(uint256)": {
        "notice": "GOVERNANCE ONLY: Updates the sustainability fee. This fee is charged to on-rampers upon a successful on-ramp."
      },
      "setSustainabilityFeeRecipient(address)": {
        "notice": "GOVERNANCE ONLY: Updates the recepient of sustainability fees."
      },
      "signalIntent(uint256,uint256,address)": {
        "notice": "Signals intent to pay the depositor defined in the _depositId the _amount * deposit conversionRate off-chain in order to unlock _amount of funds on-chain. Each user can only have one outstanding intent at a time regardless of address (tracked using accountId). Caller must not be on the depositor's deny list. If there are prunable intents then they will be deleted from the deposit to be able to maintain state hygiene."
      },
      "withdrawDeposit(uint256[])": {
        "notice": "Caller must be the depositor for each depositId in the array, if not whole function fails. Depositor is returned all remaining deposits and any outstanding intents that are expired. If an intent is not expired then those funds will not be returned. Deposit will be deleted as long as there are no more outstanding intents."
      }
    },
    "version": 1
  },
  "storageLayout": {
    "storage": [
      {
        "astId": 7,
        "contract": "contracts/ramps/wise/WiseRamp.sol:WiseRamp",
        "label": "_owner",
        "offset": 0,
        "slot": "0",
        "type": "t_address"
      },
      {
        "astId": 19137,
        "contract": "contracts/ramps/wise/WiseRamp.sol:WiseRamp",
        "label": "accountRegistry",
        "offset": 0,
        "slot": "1",
        "type": "t_contract(IWiseAccountRegistry)21116"
      },
      {
        "astId": 19140,
        "contract": "contracts/ramps/wise/WiseRamp.sol:WiseRamp",
        "label": "sendProcessor",
        "offset": 0,
        "slot": "2",
        "type": "t_contract(IWiseSendProcessor)21192"
      },
      {
        "astId": 19142,
        "contract": "contracts/ramps/wise/WiseRamp.sol:WiseRamp",
        "label": "isInitialized",
        "offset": 20,
        "slot": "2",
        "type": "t_bool"
      },
      {
        "astId": 19147,
        "contract": "contracts/ramps/wise/WiseRamp.sol:WiseRamp",
        "label": "globalAccount",
        "offset": 0,
        "slot": "3",
        "type": "t_mapping(t_bytes32,t_struct(GlobalAccountInfo)19106_storage)"
      },
      {
        "astId": 19152,
        "contract": "contracts/ramps/wise/WiseRamp.sol:WiseRamp",
        "label": "deposits",
        "offset": 0,
        "slot": "4",
        "type": "t_mapping(t_uint256,t_struct(Deposit)19069_storage)"
      },
      {
        "astId": 19157,
        "contract": "contracts/ramps/wise/WiseRamp.sol:WiseRamp",
        "label": "intents",
        "offset": 0,
        "slot": "5",
        "type": "t_mapping(t_bytes32,t_struct(Intent)19090_storage)"
      },
      {
        "astId": 19159,
        "contract": "contracts/ramps/wise/WiseRamp.sol:WiseRamp",
        "label": "minDepositAmount",
        "offset": 0,
        "slot": "6",
        "type": "t_uint256"
      },
      {
        "astId": 19161,
        "contract": "contracts/ramps/wise/WiseRamp.sol:WiseRamp",
        "label": "maxOnRampAmount",
        "offset": 0,
        "slot": "7",
        "type": "t_uint256"
      },
      {
        "astId": 19163,
        "contract": "contracts/ramps/wise/WiseRamp.sol:WiseRamp",
        "label": "onRampCooldownPeriod",
        "offset": 0,
        "slot": "8",
        "type": "t_uint256"
      },
      {
        "astId": 19165,
        "contract": "contracts/ramps/wise/WiseRamp.sol:WiseRamp",
        "label": "intentExpirationPeriod",
        "offset": 0,
        "slot": "9",
        "type": "t_uint256"
      },
      {
        "astId": 19167,
        "contract": "contracts/ramps/wise/WiseRamp.sol:WiseRamp",
        "label": "sustainabilityFee",
        "offset": 0,
        "slot": "10",
        "type": "t_uint256"
      },
      {
        "astId": 19169,
        "contract": "contracts/ramps/wise/WiseRamp.sol:WiseRamp",
        "label": "sustainabilityFeeRecipient",
        "offset": 0,
        "slot": "11",
        "type": "t_address"
      },
      {
        "astId": 19171,
        "contract": "contracts/ramps/wise/WiseRamp.sol:WiseRamp",
        "label": "depositCounter",
        "offset": 0,
        "slot": "12",
        "type": "t_uint256"
      }
    ],
    "types": {
      "t_address": {
        "encoding": "inplace",
        "label": "address",
        "numberOfBytes": "20"
      },
      "t_array(t_bytes32)dyn_storage": {
        "base": "t_bytes32",
        "encoding": "dynamic_array",
        "label": "bytes32[]",
        "numberOfBytes": "32"
      },
      "t_array(t_uint256)dyn_storage": {
        "base": "t_uint256",
        "encoding": "dynamic_array",
        "label": "uint256[]",
        "numberOfBytes": "32"
      },
      "t_bool": {
        "encoding": "inplace",
        "label": "bool",
        "numberOfBytes": "1"
      },
      "t_bytes32": {
        "encoding": "inplace",
        "label": "bytes32",
        "numberOfBytes": "32"
      },
      "t_contract(IWiseAccountRegistry)21116": {
        "encoding": "inplace",
        "label": "contract IWiseAccountRegistry",
        "numberOfBytes": "20"
      },
      "t_contract(IWiseSendProcessor)21192": {
        "encoding": "inplace",
        "label": "contract IWiseSendProcessor",
        "numberOfBytes": "20"
      },
      "t_mapping(t_bytes32,t_struct(GlobalAccountInfo)19106_storage)": {
        "encoding": "mapping",
        "key": "t_bytes32",
        "label": "mapping(bytes32 => struct WiseRamp.GlobalAccountInfo)",
        "numberOfBytes": "32",
        "value": "t_struct(GlobalAccountInfo)19106_storage"
      },
      "t_mapping(t_bytes32,t_struct(Intent)19090_storage)": {
        "encoding": "mapping",
        "key": "t_bytes32",
        "label": "mapping(bytes32 => struct WiseRamp.Intent)",
        "numberOfBytes": "32",
        "value": "t_struct(Intent)19090_storage"
      },
      "t_mapping(t_uint256,t_struct(Deposit)19069_storage)": {
        "encoding": "mapping",
        "key": "t_uint256",
        "label": "mapping(uint256 => struct WiseRamp.Deposit)",
        "numberOfBytes": "32",
        "value": "t_struct(Deposit)19069_storage"
      },
      "t_string_storage": {
        "encoding": "bytes",
        "label": "string",
        "numberOfBytes": "32"
      },
      "t_struct(Deposit)19069_storage": {
        "encoding": "inplace",
        "label": "struct WiseRamp.Deposit",
        "members": [
          {
            "astId": 19051,
            "contract": "contracts/ramps/wise/WiseRamp.sol:WiseRamp",
            "label": "depositor",
            "offset": 0,
            "slot": "0",
            "type": "t_address"
          },
          {
            "astId": 19053,
            "contract": "contracts/ramps/wise/WiseRamp.sol:WiseRamp",
            "label": "wiseTag",
            "offset": 0,
            "slot": "1",
            "type": "t_string_storage"
          },
          {
            "astId": 19055,
            "contract": "contracts/ramps/wise/WiseRamp.sol:WiseRamp",
            "label": "verifierSigningKey",
            "offset": 0,
            "slot": "2",
            "type": "t_address"
          },
          {
            "astId": 19057,
            "contract": "contracts/ramps/wise/WiseRamp.sol:WiseRamp",
            "label": "depositAmount",
            "offset": 0,
            "slot": "3",
            "type": "t_uint256"
          },
          {
            "astId": 19059,
            "contract": "contracts/ramps/wise/WiseRamp.sol:WiseRamp",
            "label": "receiveCurrencyId",
            "offset": 0,
            "slot": "4",
            "type": "t_bytes32"
          },
          {
            "astId": 19061,
            "contract": "contracts/ramps/wise/WiseRamp.sol:WiseRamp",
            "label": "remainingDeposits",
            "offset": 0,
            "slot": "5",
            "type": "t_uint256"
          },
          {
            "astId": 19063,
            "contract": "contracts/ramps/wise/WiseRamp.sol:WiseRamp",
            "label": "outstandingIntentAmount",
            "offset": 0,
            "slot": "6",
            "type": "t_uint256"
          },
          {
            "astId": 19065,
            "contract": "contracts/ramps/wise/WiseRamp.sol:WiseRamp",
            "label": "conversionRate",
            "offset": 0,
            "slot": "7",
            "type": "t_uint256"
          },
          {
            "astId": 19068,
            "contract": "contracts/ramps/wise/WiseRamp.sol:WiseRamp",
            "label": "intentHashes",
            "offset": 0,
            "slot": "8",
            "type": "t_array(t_bytes32)dyn_storage"
          }
        ],
        "numberOfBytes": "288"
      },
      "t_struct(GlobalAccountInfo)19106_storage": {
        "encoding": "inplace",
        "label": "struct WiseRamp.GlobalAccountInfo",
        "members": [
          {
            "astId": 19100,
            "contract": "contracts/ramps/wise/WiseRamp.sol:WiseRamp",
            "label": "currentIntentHash",
            "offset": 0,
            "slot": "0",
            "type": "t_bytes32"
          },
          {
            "astId": 19102,
            "contract": "contracts/ramps/wise/WiseRamp.sol:WiseRamp",
            "label": "lastOnrampTimestamp",
            "offset": 0,
            "slot": "1",
            "type": "t_uint256"
          },
          {
            "astId": 19105,
            "contract": "contracts/ramps/wise/WiseRamp.sol:WiseRamp",
            "label": "deposits",
            "offset": 0,
            "slot": "2",
            "type": "t_array(t_uint256)dyn_storage"
          }
        ],
        "numberOfBytes": "96"
      },
      "t_struct(Intent)19090_storage": {
        "encoding": "inplace",
        "label": "struct WiseRamp.Intent",
        "members": [
          {
            "astId": 19081,
            "contract": "contracts/ramps/wise/WiseRamp.sol:WiseRamp",
            "label": "onRamper",
            "offset": 0,
            "slot": "0",
            "type": "t_address"
          },
          {
            "astId": 19083,
            "contract": "contracts/ramps/wise/WiseRamp.sol:WiseRamp",
            "label": "to",
            "offset": 0,
            "slot": "1",
            "type": "t_address"
          },
          {
            "astId": 19085,
            "contract": "contracts/ramps/wise/WiseRamp.sol:WiseRamp",
            "label": "deposit",
            "offset": 0,
            "slot": "2",
            "type": "t_uint256"
          },
          {
            "astId": 19087,
            "contract": "contracts/ramps/wise/WiseRamp.sol:WiseRamp",
            "label": "amount",
            "offset": 0,
            "slot": "3",
            "type": "t_uint256"
          },
          {
            "astId": 19089,
            "contract": "contracts/ramps/wise/WiseRamp.sol:WiseRamp",
            "label": "intentTimestamp",
            "offset": 0,
            "slot": "4",
            "type": "t_uint256"
          }
        ],
        "numberOfBytes": "160"
      },
      "t_uint256": {
        "encoding": "inplace",
        "label": "uint256",
        "numberOfBytes": "32"
      }
    }
  }
}