{
  "address": "0x7eDD66B19A22293af86A2d96761FD7146BA3fF6c",
  "abi": [
    {
      "inputs": [
        {
          "internalType": "address",
          "name": "_owner",
          "type": "address"
        }
      ],
      "stateMutability": "nonpayable",
      "type": "constructor"
    },
    {
      "anonymous": false,
      "inputs": [
        {
          "indexed": true,
          "internalType": "address",
          "name": "accountOwner",
          "type": "address"
        },
        {
          "indexed": true,
          "internalType": "bytes32",
          "name": "accountId",
          "type": "bytes32"
        },
        {
          "indexed": true,
          "internalType": "bytes32",
          "name": "wiseTagHash",
          "type": "bytes32"
        }
      ],
      "name": "AccountRegistered",
      "type": "event"
    },
    {
      "anonymous": false,
      "inputs": [
        {
          "indexed": false,
          "internalType": "bytes32",
          "name": "listOwner",
          "type": "bytes32"
        }
      ],
      "name": "AllowlistEnabled",
      "type": "event"
    },
    {
      "anonymous": false,
      "inputs": [
        {
          "indexed": false,
          "internalType": "address",
          "name": "registrationProcessor",
          "type": "address"
        }
      ],
      "name": "NewAccountRegistrationProcessorSet",
      "type": "event"
    },
    {
      "anonymous": false,
      "inputs": [
        {
          "indexed": false,
          "internalType": "address",
          "name": "registrationProcessor",
          "type": "address"
        }
      ],
      "name": "NewOffRamperRegistrationProcessorSet",
      "type": "event"
    },
    {
      "anonymous": false,
      "inputs": [
        {
          "indexed": true,
          "internalType": "address",
          "name": "accountOwner",
          "type": "address"
        },
        {
          "indexed": true,
          "internalType": "bytes32",
          "name": "accountId",
          "type": "bytes32"
        },
        {
          "indexed": true,
          "internalType": "bytes32",
          "name": "offRampId",
          "type": "bytes32"
        }
      ],
      "name": "OffRamperRegistered",
      "type": "event"
    },
    {
      "anonymous": false,
      "inputs": [
        {
          "indexed": true,
          "internalType": "address",
          "name": "previousOwner",
          "type": "address"
        },
        {
          "indexed": true,
          "internalType": "address",
          "name": "newOwner",
          "type": "address"
        }
      ],
      "name": "OwnershipTransferred",
      "type": "event"
    },
    {
      "anonymous": false,
      "inputs": [
        {
          "indexed": true,
          "internalType": "bytes32",
          "name": "listOwner",
          "type": "bytes32"
        },
        {
          "indexed": false,
          "internalType": "bytes32",
          "name": "allowedUser",
          "type": "bytes32"
        }
      ],
      "name": "UserAddedToAllowlist",
      "type": "event"
    },
    {
      "anonymous": false,
      "inputs": [
        {
          "indexed": false,
          "internalType": "bytes32",
          "name": "listOwner",
          "type": "bytes32"
        },
        {
          "indexed": false,
          "internalType": "bytes32",
          "name": "deniedUser",
          "type": "bytes32"
        }
      ],
      "name": "UserAddedToDenylist",
      "type": "event"
    },
    {
      "anonymous": false,
      "inputs": [
        {
          "indexed": true,
          "internalType": "bytes32",
          "name": "listOwner",
          "type": "bytes32"
        },
        {
          "indexed": false,
          "internalType": "bytes32",
          "name": "allowedUser",
          "type": "bytes32"
        }
      ],
      "name": "UserRemovedFromAllowlist",
      "type": "event"
    },
    {
      "anonymous": false,
      "inputs": [
        {
          "indexed": false,
          "internalType": "bytes32",
          "name": "listOwner",
          "type": "bytes32"
        },
        {
          "indexed": false,
          "internalType": "bytes32",
          "name": "approvedUser",
          "type": "bytes32"
        }
      ],
      "name": "UserRemovedFromDenylist",
      "type": "event"
    },
    {
      "inputs": [],
      "name": "accountRegistrationProcessor",
      "outputs": [
        {
          "internalType": "contract IWiseAccountRegistrationProcessor",
          "name": "",
          "type": "address"
        }
      ],
      "stateMutability": "view",
      "type": "function"
    },
    {
      "inputs": [
        {
          "internalType": "bytes32",
          "name": "_deniedUser",
          "type": "bytes32"
        }
      ],
      "name": "addAccountToDenylist",
      "outputs": [],
      "stateMutability": "nonpayable",
      "type": "function"
    },
    {
      "inputs": [
        {
          "internalType": "bytes32[]",
          "name": "_allowedUsers",
          "type": "bytes32[]"
        }
      ],
      "name": "addAccountsToAllowlist",
      "outputs": [],
      "stateMutability": "nonpayable",
      "type": "function"
    },
    {
      "inputs": [],
      "name": "enableAllowlist",
      "outputs": [],
      "stateMutability": "nonpayable",
      "type": "function"
    },
    {
      "inputs": [
        {
          "internalType": "address",
          "name": "_account",
          "type": "address"
        }
      ],
      "name": "getAccountId",
      "outputs": [
        {
          "internalType": "bytes32",
          "name": "",
          "type": "bytes32"
        }
      ],
      "stateMutability": "view",
      "type": "function"
    },
    {
      "inputs": [
        {
          "internalType": "address",
          "name": "_account",
          "type": "address"
        }
      ],
      "name": "getAccountInfo",
      "outputs": [
        {
          "components": [
            {
              "internalType": "bytes32",
              "name": "accountId",
              "type": "bytes32"
            },
            {
              "internalType": "bytes32",
              "name": "offRampId",
              "type": "bytes32"
            },
            {
              "internalType": "bytes32",
              "name": "wiseTagHash",
              "type": "bytes32"
            }
          ],
          "internalType": "struct IWiseAccountRegistry.AccountInfo",
          "name": "",
          "type": "tuple"
        }
      ],
      "stateMutability": "view",
      "type": "function"
    },
    {
      "inputs": [
        {
          "internalType": "address",
          "name": "_account",
          "type": "address"
        }
      ],
      "name": "getAllowedUsers",
      "outputs": [
        {
          "internalType": "bytes32[]",
          "name": "",
          "type": "bytes32[]"
        }
      ],
      "stateMutability": "view",
      "type": "function"
    },
    {
      "inputs": [
        {
          "internalType": "address",
          "name": "_account",
          "type": "address"
        }
      ],
      "name": "getDeniedUsers",
      "outputs": [
        {
          "internalType": "bytes32[]",
          "name": "",
          "type": "bytes32[]"
        }
      ],
      "stateMutability": "view",
      "type": "function"
    },
    {
      "inputs": [
        {
          "internalType": "contract IWiseAccountRegistrationProcessor",
          "name": "_accountRegistrationProcessor",
          "type": "address"
        },
        {
          "internalType": "contract IWiseOffRamperRegistrationProcessor",
          "name": "_offRamperRegistrationProcessor",
          "type": "address"
        }
      ],
      "name": "initialize",
      "outputs": [],
      "stateMutability": "nonpayable",
      "type": "function"
    },
    {
      "inputs": [
        {
          "internalType": "address",
          "name": "_account",
          "type": "address"
        },
        {
          "internalType": "bytes32",
          "name": "_allowedUser",
          "type": "bytes32"
        }
      ],
      "name": "isAllowedUser",
      "outputs": [
        {
          "internalType": "bool",
          "name": "",
          "type": "bool"
        }
      ],
      "stateMutability": "view",
      "type": "function"
    },
    {
      "inputs": [
        {
          "internalType": "address",
          "name": "_account",
          "type": "address"
        }
      ],
      "name": "isAllowlistEnabled",
      "outputs": [
        {
          "internalType": "bool",
          "name": "",
          "type": "bool"
        }
      ],
      "stateMutability": "view",
      "type": "function"
    },
    {
      "inputs": [
        {
          "internalType": "address",
          "name": "_account",
          "type": "address"
        },
        {
          "internalType": "bytes32",
          "name": "_deniedUser",
          "type": "bytes32"
        }
      ],
      "name": "isDeniedUser",
      "outputs": [
        {
          "internalType": "bool",
          "name": "",
          "type": "bool"
        }
      ],
      "stateMutability": "view",
      "type": "function"
    },
    {
      "inputs": [],
      "name": "isInitialized",
      "outputs": [
        {
          "internalType": "bool",
          "name": "",
          "type": "bool"
        }
      ],
      "stateMutability": "view",
      "type": "function"
    },
    {
      "inputs": [
        {
          "internalType": "address",
          "name": "_account",
          "type": "address"
        }
      ],
      "name": "isRegisteredUser",
      "outputs": [
        {
          "internalType": "bool",
          "name": "",
          "type": "bool"
        }
      ],
      "stateMutability": "view",
      "type": "function"
    },
    {
      "inputs": [],
      "name": "offRamperRegistrationProcessor",
      "outputs": [
        {
          "internalType": "contract IWiseOffRamperRegistrationProcessor",
          "name": "",
          "type": "address"
        }
      ],
      "stateMutability": "view",
      "type": "function"
    },
    {
      "inputs": [],
      "name": "owner",
      "outputs": [
        {
          "internalType": "address",
          "name": "",
          "type": "address"
        }
      ],
      "stateMutability": "view",
      "type": "function"
    },
    {
      "inputs": [
        {
          "components": [
            {
              "components": [
                {
                  "internalType": "string",
                  "name": "endpoint",
                  "type": "string"
                },
                {
                  "internalType": "string",
                  "name": "host",
                  "type": "string"
                },
                {
                  "internalType": "string",
                  "name": "profileId",
                  "type": "string"
                },
                {
                  "internalType": "string",
                  "name": "wiseTagHash",
                  "type": "string"
                }
              ],
              "internalType": "struct IWiseAccountRegistrationProcessor.RegistrationData",
              "name": "public_values",
              "type": "tuple"
            },
            {
              "internalType": "bytes",
              "name": "proof",
              "type": "bytes"
            }
          ],
          "internalType": "struct IWiseAccountRegistrationProcessor.RegistrationProof",
          "name": "_proof",
          "type": "tuple"
        }
      ],
      "name": "register",
      "outputs": [],
      "stateMutability": "nonpayable",
      "type": "function"
    },
    {
      "inputs": [
        {
          "components": [
            {
              "components": [
                {
                  "internalType": "string",
                  "name": "endpoint",
                  "type": "string"
                },
                {
                  "internalType": "string",
                  "name": "host",
                  "type": "string"
                },
                {
                  "internalType": "string",
                  "name": "profileId",
                  "type": "string"
                },
                {
                  "internalType": "string",
                  "name": "mcAccountId",
                  "type": "string"
                }
              ],
              "internalType": "struct IWiseOffRamperRegistrationProcessor.OffRamperRegistrationData",
              "name": "public_values",
              "type": "tuple"
            },
            {
              "internalType": "bytes",
              "name": "proof",
              "type": "bytes"
            }
          ],
          "internalType": "struct IWiseOffRamperRegistrationProcessor.OffRamperRegistrationProof",
          "name": "_proof",
          "type": "tuple"
        }
      ],
      "name": "registerAsOffRamper",
      "outputs": [],
      "stateMutability": "nonpayable",
      "type": "function"
    },
    {
      "inputs": [
        {
          "internalType": "bytes32",
          "name": "_approvedUser",
          "type": "bytes32"
        }
      ],
      "name": "removeAccountFromDenylist",
      "outputs": [],
      "stateMutability": "nonpayable",
      "type": "function"
    },
    {
      "inputs": [
        {
          "internalType": "bytes32[]",
          "name": "_disallowedUsers",
          "type": "bytes32[]"
        }
      ],
      "name": "removeAccountsFromAllowlist",
      "outputs": [],
      "stateMutability": "nonpayable",
      "type": "function"
    },
    {
      "inputs": [],
      "name": "renounceOwnership",
      "outputs": [],
      "stateMutability": "nonpayable",
      "type": "function"
    },
    {
      "inputs": [
        {
          "internalType": "contract IWiseAccountRegistrationProcessor",
          "name": "_registrationProcessor",
          "type": "address"
        }
      ],
      "name": "setAccountRegistrationProcessor",
      "outputs": [],
      "stateMutability": "nonpayable",
      "type": "function"
    },
    {
      "inputs": [
        {
          "internalType": "contract IWiseOffRamperRegistrationProcessor",
          "name": "_registrationProcessor",
          "type": "address"
        }
      ],
      "name": "setOffRamperRegistrationProcessor",
      "outputs": [],
      "stateMutability": "nonpayable",
      "type": "function"
    },
    {
      "inputs": [
        {
          "internalType": "address",
          "name": "newOwner",
          "type": "address"
        }
      ],
      "name": "transferOwnership",
      "outputs": [],
      "stateMutability": "nonpayable",
      "type": "function"
    }
  ],
  "transactionHash": "0x986ffbfad849c41320d0c722626895d6d812cd87537ce883d288aa565e6301e5",
  "args": [
    "0x4e39cF8578698131c57404e8bc3eEC820EDa51d8"
  ],
  "numDeployments": 1,
  "solcInputHash": "6e4c0155cf194d54974389502ced73c2",
  "bytecode": "0x60806040523480156200001157600080fd5b50604051620018df380380620018df833981016040819052620000349162000182565b6200003f3362000051565b6200004a81620000a1565b50620001b4565b600080546001600160a01b038381166001600160a01b0319831681178455604051919092169283917f8be0079c531659141344cd1fd0a4f28419497f9722a3daafe3b4186f6b6457e09190a35050565b620000ab62000124565b6001600160a01b038116620001165760405162461bcd60e51b815260206004820152602660248201527f4f776e61626c653a206e6577206f776e657220697320746865207a65726f206160448201526564647265737360d01b60648201526084015b60405180910390fd5b620001218162000051565b50565b6000546001600160a01b03163314620001805760405162461bcd60e51b815260206004820181905260248201527f4f776e61626c653a2063616c6c6572206973206e6f7420746865206f776e657260448201526064016200010d565b565b6000602082840312156200019557600080fd5b81516001600160a01b0381168114620001ad57600080fd5b9392505050565b61171b80620001c46000396000f3fe608060405234801561001057600080fd5b50600436106101585760003560e01c8063715018a6116100c3578063c6a2aac81161007c578063c6a2aac814610356578063d88452451461035e578063e0b490f714610371578063e39ca3b414610392578063f2fde38b146103a5578063fbf15b1f146103b857600080fd5b8063715018a61461027e5780637b510fe8146102865780638da5cb5b1461030c5780639b357b5a1461031d578063b14fac2e14610330578063c3eb86811461034357600080fd5b80633056eb28116101155780633056eb28146101fe57806338e4bef614610211578063392e53cd146102245780634595bba014610238578063485cc95514610258578063605958f41461026b57600080fd5b80630876dda31461015d578063148172da1461018d5780631acd84d8146101a25780631d16612e146101c55780631e48fe6b146101d85780631f5bdf5d146101eb575b600080fd5b600154610170906001600160a01b031681565b6040516001600160a01b0390911681526020015b60405180910390f35b6101a061019b36600461129b565b6103cb565b005b6101b56101b03660046112c9565b6104f2565b6040519015158152602001610184565b6101a06101d336600461130d565b610578565b6101a06101e6366004611358565b61063f565b6101b56101f9366004611416565b61078e565b6101a061020c366004611416565b6107a2565b6101b561021f366004611416565b6107ff565b6002546101b590600160a01b900460ff1681565b61024b610246366004611416565b610828565b604051610184919061143a565b6101a061026636600461147e565b61089e565b600254610170906001600160a01b031681565b6101a0610931565b6102ea610294366004611416565b6040805160608082018352600080835260208084018290529284018190526001600160a01b0394909416845260038252928290208251938401835280548452600181015491840191909152600201549082015290565b6040805182518152602080840151908201529181015190820152606001610184565b6000546001600160a01b0316610170565b6101a061032b36600461129b565b610945565b6101a061033e36600461130d565b610a44565b6101a0610351366004611416565b610b33565b6101a0610b89565b6101a061036c366004611358565b610c68565b61038461037f366004611416565b610dc3565b604051908152602001610184565b61024b6103a0366004611416565b610dde565b6101a06103b3366004611416565b610e52565b6101b56103c63660046112c9565b610ecb565b6103d43361078e565b6103f95760405162461bcd60e51b81526004016103f0906114b7565b60405180910390fd5b33600090815260036020908152604080832054808452600483528184208585526001019092529091205460ff16156104735760405162461bcd60e51b815260206004820152601860248201527f5573657220616c7265616479206f6e2064656e796c697374000000000000000060448201526064016103f0565b600081815260046020818152604080842086855260018181018452828620805460ff191682179055938352805493840181558452922001839055517f976c693d56f27ba17d902bda80c4fa0416b773fbf268bcb0ee71689234d769ee906104e69083908590918252602082015260400190565b60405180910390a15050565b6000806104fe84610dc3565b600081815260046020908152604080832087845260010190915290205490915060ff1615610530576000915050610572565b60008181526005602052604090205460ff1661054d57600161056e565b600081815260056020908152604080832086845260020190915290205460ff165b9150505b92915050565b33600090815260036020526040902054156105e75760405162461bcd60e51b815260206004820152602960248201527f4163636f756e7420616c7265616479206173736f6369617465642077697468206044820152681858d8dbdd5b9d125960ba1b60648201526084016103f0565b6000806105f383610f06565b3360008181526003602052604080822085815560020184905551939550919350839285927fcc65223c6e9df339af3ea6f6f0bf09fa478060d7c745142bdccb626ef62c79e291a4505050565b6106483361078e565b6106645760405162461bcd60e51b81526004016103f0906114b7565b33600090815260036020526040812054905b8251811015610789576000838281518110610693576106936114ee565b6020908102919091018101516000858152600583526040808220838352600201909352919091205490915060ff166107055760405162461bcd60e51b8152602060048201526015602482015274155cd95c881b9bdd081bdb88185b1b1bdddb1a5cdd605a1b60448201526064016103f0565b6000838152600560208181526040808420858552600281018352908420805460ff19169055928690525261073c9060010182610f87565b827fe87ba7050133e8b4c8b879f99b3276368eaca3b81f4ea415d9528843a15d8c638260405161076e91815260200190565b60405180910390a250806107818161151a565b915050610676565b505050565b60008061079a83610dc3565b141592915050565b6107aa6110af565b600180546001600160a01b0319166001600160a01b0383169081179091556040519081527ffd4e734c9a89ace3649766f5233487313285fe97ca577c2602beda889ef46dd3906020015b60405180910390a150565b60006005600061080e84610dc3565b815260208101919091526040016000205460ff1692915050565b60606004600061083784610dc3565b815260200190815260200160002060000180548060200260200160405190810160405280929190818152602001828054801561089257602002820191906000526020600020905b81548152602001906001019080831161087e575b50505050509050919050565b6108a66110af565b600254600160a01b900460ff16156108f65760405162461bcd60e51b8152602060048201526013602482015272105b1c9958591e481a5b9a5d1a585b1a5e9959606a1b60448201526064016103f0565b600180546001600160a01b039384166001600160a01b0319909116179055600280546001600160a81b0319169190921617600160a01b179055565b6109396110af565b6109436000611109565b565b61094e3361078e565b61096a5760405162461bcd60e51b81526004016103f0906114b7565b33600090815260036020908152604080832054808452600483528184208585526001019092529091205460ff166109da5760405162461bcd60e51b8152602060048201526014602482015273155cd95c881b9bdd081bdb8819195b9e5b1a5cdd60621b60448201526064016103f0565b6000818152600460208181526040808420868552600181018352908420805460ff191690559284905252610a0e9083610f87565b60408051828152602081018490527f8935205b1b382095d2d95efbb36f81a11a34c548d45af26adc1a02d2f2bb546f91016104e6565b610a4d3361078e565b610a695760405162461bcd60e51b81526004016103f0906114b7565b3360009081526003602052604090206001015415610adb5760405162461bcd60e51b815260206004820152602960248201527f4163636f756e7420616c7265616479206173736f6369617465642077697468206044820152681bd99994985b5c125960ba1b60648201526084016103f0565b600080610ae783611159565b3360008181526003602052604080822085815560010184905551939550919350839285927f1145ead7f8f95549bd8948731c7e50cda0ef6a0bba6867ee9e383633c2de4c2091a4505050565b610b3b6110af565b600280546001600160a01b0319166001600160a01b0383169081179091556040519081527f32bce9e8b6bd060cc566144f14693fad172bd139e984b38c7c83c6d29ef1ad48906020016107f4565b610b923361078e565b610bae5760405162461bcd60e51b81526004016103f0906114b7565b3360009081526003602090815260408083205480845260059092529091205460ff1615610c1d5760405162461bcd60e51b815260206004820152601a60248201527f416c6c6f77206c69737420616c726561647920656e61626c656400000000000060448201526064016103f0565b60008181526005602052604090819020805460ff19166001179055517f08df0a71ea3e5565a2138936ed06eaba47996a3ccfde2dae1f3edd1164e299d7906107f49083815260200190565b610c713361078e565b610c8d5760405162461bcd60e51b81526004016103f0906114b7565b33600090815260036020526040812054905b8251811015610789576000838281518110610cbc57610cbc6114ee565b6020908102919091018101516000858152600583526040808220838352600201909352919091205490915060ff1615610d375760405162461bcd60e51b815260206004820152601960248201527f5573657220616c7265616479206f6e20616c6c6f776c6973740000000000000060448201526064016103f0565b6000838152600560208181526040808420858552600281018352818520805460ff1916600190811790915593835283018054938401815584529220018290555183907f857ce673abc5a303fa8303102f12b42079aa85b97bca15b56428764dd1dec4d290610da89084815260200190565b60405180910390a25080610dbb8161151a565b915050610c9f565b6001600160a01b031660009081526003602052604090205490565b606060056000610ded84610dc3565b8152602001908152602001600020600101805480602002602001604051908101604052809291908181526020018280548015610892576020028201919060005260206000209081548152602001906001019080831161087e5750505050509050919050565b610e5a6110af565b6001600160a01b038116610ebf5760405162461bcd60e51b815260206004820152602660248201527f4f776e61626c653a206e6577206f776e657220697320746865207a65726f206160448201526564647265737360d01b60648201526084016103f0565b610ec881611109565b50565b600060046000610eda85610dc3565b81526020808201929092526040908101600090812085825260010190925290205460ff16905092915050565b600154604051633ac2459960e11b815260009182916001600160a01b03909116906375848b3290610f3b908690600401611685565b60408051808303816000875af1158015610f59573d6000803e3d6000fd5b505050506040513d601f19601f82011682018060405250810190610f7d9190611698565b9094909350915050565b600080610fe384805480602002602001604051908101604052809291908181526020018280548015610fd857602002820191906000526020600020905b815481526020019060010190808311610fc4575b505050505084611238565b915091508061102c5760405162461bcd60e51b8152602060048201526015602482015274313cba32b99999103737ba1034b71030b93930bc9760591b60448201526064016103f0565b835460009061103d906001906116bc565b905080831461108257848181548110611058576110586114ee565b9060005260206000200154858481548110611075576110756114ee565b6000918252602090912001555b84805480611092576110926116cf565b600190038181906000526020600020016000905590555050505050565b6000546001600160a01b031633146109435760405162461bcd60e51b815260206004820181905260248201527f4f776e61626c653a2063616c6c6572206973206e6f7420746865206f776e657260448201526064016103f0565b600080546001600160a01b038381166001600160a01b0319831681178455604051919092169283917f8be0079c531659141344cd1fd0a4f28419497f9722a3daafe3b4186f6b6457e09190a35050565b60025460405163508c209360e01b815260009182916001600160a01b039091169063508c20939061118e908690600401611685565b60408051808303816000875af11580156111ac573d6000803e3d6000fd5b505050506040513d601f19601f820116820180604052508101906111d09190611698565b33600090815260036020526040902054919350915082146112335760405162461bcd60e51b815260206004820152601760248201527f4f6e52616d70496420646f6573206e6f74206d6174636800000000000000000060448201526064016103f0565b915091565b81516000908190815b81811015611288578486828151811061125c5761125c6114ee565b602002602001015103611276579250600191506112949050565b806112808161151a565b915050611241565b50600019600092509250505b9250929050565b6000602082840312156112ad57600080fd5b5035919050565b6001600160a01b0381168114610ec857600080fd5b600080604083850312156112dc57600080fd5b82356112e7816112b4565b946020939093013593505050565b60006040828403121561130757600080fd5b50919050565b60006020828403121561131f57600080fd5b813567ffffffffffffffff81111561133657600080fd5b61056e848285016112f5565b634e487b7160e01b600052604160045260246000fd5b6000602080838503121561136b57600080fd5b823567ffffffffffffffff8082111561138357600080fd5b818501915085601f83011261139757600080fd5b8135818111156113a9576113a9611342565b8060051b604051601f19603f830116810181811085821117156113ce576113ce611342565b6040529182528482019250838101850191888311156113ec57600080fd5b938501935b8285101561140a578435845293850193928501926113f1565b98975050505050505050565b60006020828403121561142857600080fd5b8135611433816112b4565b9392505050565b6020808252825182820181905260009190848201906040850190845b8181101561147257835183529284019291840191600101611456565b50909695505050505050565b6000806040838503121561149157600080fd5b823561149c816112b4565b915060208301356114ac816112b4565b809150509250929050565b6020808252601e908201527f43616c6c6572206d757374206265207265676973746572656420757365720000604082015260600190565b634e487b7160e01b600052603260045260246000fd5b634e487b7160e01b600052601160045260246000fd5b60006001820161152c5761152c611504565b5060010190565b6000808335601e1984360301811261154a57600080fd5b830160208101925035905067ffffffffffffffff81111561156a57600080fd5b80360382131561129457600080fd5b81835281816020850137506000828201602090810191909152601f909101601f19169091010190565b60008135607e198336030181126115b857600080fd5b6040845282016115c88180611533565b608060408701526115dd60c087018284611579565b9150506115ed6020830183611533565b603f1980888503016060890152611605848385611579565b93506116146040860186611533565b935091508088850301608089015261162d848484611579565b935061163c6060860186611533565b95509250808885030160a08901525050611657828483611579565b925050506116686020840184611533565b858303602087015261167b838284611579565b9695505050505050565b60208152600061143360208301846115a2565b600080604083850312156116ab57600080fd5b505080516020909101519092909150565b8181038181111561057257610572611504565b634e487b7160e01b600052603160045260246000fdfea2646970667358221220ada3d610464f0149fd541be85c3984d9ecc3760d2292f8a150088b429a5d25c664736f6c63430008120033",
  "devdoc": {
    "kind": "dev",
    "methods": {
      "addAccountToDenylist(bytes32)": {
        "params": {
          "_deniedUser": "accountId being banned"
        }
      },
      "addAccountsToAllowlist(bytes32[])": {
        "params": {
          "_allowedUsers": "List of accountIds allowed to signal intents on the user's deposit"
        }
      },
      "initialize(address,address)": {
        "params": {
          "_accountRegistrationProcessor": "Account Registration processor address",
          "_offRamperRegistrationProcessor": "Off-ramper Registration processor address"
        }
      },
      "owner()": {
        "details": "Returns the address of the current owner."
      },
      "register(((string,string,string,string),bytes))": {
        "params": {
          "_proof": "Registration proof consisting of unredacted data being notarized and a signature"
        }
      },
      "registerAsOffRamper(((string,string,string,string),bytes))": {
        "params": {
          "_proof": "Registration proof consisting of unredacted data being notarized and a signature"
        }
      },
      "removeAccountFromDenylist(bytes32)": {
        "params": {
          "_approvedUser": "accountId being approved"
        }
      },
      "removeAccountsFromAllowlist(bytes32[])": {
        "params": {
          "_disallowedUsers": "List of accountIds being approved"
        }
      },
      "renounceOwnership()": {
        "details": "Leaves the contract without owner. It will not be possible to call `onlyOwner` functions. Can only be called by the current owner. NOTE: Renouncing ownership will leave the contract without an owner, thereby disabling any functionality that is only available to the owner."
      },
      "setAccountRegistrationProcessor(address)": {
        "params": {
          "_registrationProcessor": "New registration proccesor address"
        }
      },
      "setOffRamperRegistrationProcessor(address)": {
        "params": {
          "_registrationProcessor": "New registration proccesor address"
        }
      },
      "transferOwnership(address)": {
        "details": "Transfers ownership of the contract to a new account (`newOwner`). Can only be called by the current owner."
      }
    },
    "version": 1
  },
  "userdoc": {
    "kind": "user",
    "methods": {
      "addAccountToDenylist(bytes32)": {
        "notice": "Adds an accountId to a depositor's deny list. If an address associated with the banned accountId attempts to signal an intent on the user's deposit they will be denied."
      },
      "addAccountsToAllowlist(bytes32[])": {
        "notice": "Adds passed accountIds to a depositor's allow list. All addresses associated with the allowed accountIds will be able to signal intents on the user's deposit."
      },
      "enableAllowlist()": {
        "notice": "Enables allow list for user, only users on the allow list will be able to signal intents on the user's deposit."
      },
      "initialize(address,address)": {
        "notice": "Initialize Ramp with the addresses of the Processors"
      },
      "register(((string,string,string,string),bytes))": {
        "notice": "Registers a new account by pulling the profileId from the proof and assigning the account owner to the sender of the transaction."
      },
      "registerAsOffRamper(((string,string,string,string),bytes))": {
        "notice": "Registers an account for off-ramping by pulling the multi-currency account id from the proof and assigning the account owner to the sender of the transaction."
      },
      "removeAccountFromDenylist(bytes32)": {
        "notice": "Removes an accountId from a depositor's deny list."
      },
      "removeAccountsFromAllowlist(bytes32[])": {
        "notice": "Removes an passed accountId's from allow list. If allow list is enabled only users on the allow list will be able to signal intents on the user's deposit."
      },
      "setAccountRegistrationProcessor(address)": {
        "notice": "GOVERNANCE ONLY: Updates the account registration processor address used for validating and interpreting tls proofs."
      },
      "setOffRamperRegistrationProcessor(address)": {
        "notice": "GOVERNANCE ONLY: Updates the off ramper registration processor address used for validating and interpreting tls proofs."
      }
    },
    "version": 1
  },
  "storageLayout": {
    "storage": [
      {
        "astId": 7,
        "contract": "contracts/ramps/wise/WiseAccountRegistry.sol:WiseAccountRegistry",
        "label": "_owner",
        "offset": 0,
        "slot": "0",
        "type": "t_address"
      },
      {
        "astId": 18056,
        "contract": "contracts/ramps/wise/WiseAccountRegistry.sol:WiseAccountRegistry",
        "label": "accountRegistrationProcessor",
        "offset": 0,
        "slot": "1",
        "type": "t_contract(IWiseAccountRegistrationProcessor)21075"
      },
      {
        "astId": 18059,
        "contract": "contracts/ramps/wise/WiseAccountRegistry.sol:WiseAccountRegistry",
        "label": "offRamperRegistrationProcessor",
        "offset": 0,
        "slot": "2",
        "type": "t_contract(IWiseOffRamperRegistrationProcessor)21144"
      },
      {
        "astId": 18061,
        "contract": "contracts/ramps/wise/WiseAccountRegistry.sol:WiseAccountRegistry",
        "label": "isInitialized",
        "offset": 20,
        "slot": "2",
        "type": "t_bool"
      },
      {
        "astId": 18066,
        "contract": "contracts/ramps/wise/WiseAccountRegistry.sol:WiseAccountRegistry",
        "label": "accounts",
        "offset": 0,
        "slot": "3",
        "type": "t_mapping(t_address,t_struct(AccountInfo)21084_storage)"
      },
      {
        "astId": 18071,
        "contract": "contracts/ramps/wise/WiseAccountRegistry.sol:WiseAccountRegistry",
        "label": "denyList",
        "offset": 0,
        "slot": "4",
        "type": "t_mapping(t_bytes32,t_struct(DenyList)18031_storage)"
      },
      {
        "astId": 18076,
        "contract": "contracts/ramps/wise/WiseAccountRegistry.sol:WiseAccountRegistry",
        "label": "allowList",
        "offset": 0,
        "slot": "5",
        "type": "t_mapping(t_bytes32,t_struct(AllowList)18041_storage)"
      }
    ],
    "types": {
      "t_address": {
        "encoding": "inplace",
        "label": "address",
        "numberOfBytes": "20"
      },
      "t_array(t_bytes32)dyn_storage": {
        "base": "t_bytes32",
        "encoding": "dynamic_array",
        "label": "bytes32[]",
        "numberOfBytes": "32"
      },
      "t_bool": {
        "encoding": "inplace",
        "label": "bool",
        "numberOfBytes": "1"
      },
      "t_bytes32": {
        "encoding": "inplace",
        "label": "bytes32",
        "numberOfBytes": "32"
      },
      "t_contract(IWiseAccountRegistrationProcessor)21075": {
        "encoding": "inplace",
        "label": "contract IWiseAccountRegistrationProcessor",
        "numberOfBytes": "20"
      },
      "t_contract(IWiseOffRamperRegistrationProcessor)21144": {
        "encoding": "inplace",
        "label": "contract IWiseOffRamperRegistrationProcessor",
        "numberOfBytes": "20"
      },
      "t_mapping(t_address,t_struct(AccountInfo)21084_storage)": {
        "encoding": "mapping",
        "key": "t_address",
        "label": "mapping(address => struct IWiseAccountRegistry.AccountInfo)",
        "numberOfBytes": "32",
        "value": "t_struct(AccountInfo)21084_storage"
      },
      "t_mapping(t_bytes32,t_bool)": {
        "encoding": "mapping",
        "key": "t_bytes32",
        "label": "mapping(bytes32 => bool)",
        "numberOfBytes": "32",
        "value": "t_bool"
      },
      "t_mapping(t_bytes32,t_struct(AllowList)18041_storage)": {
        "encoding": "mapping",
        "key": "t_bytes32",
        "label": "mapping(bytes32 => struct WiseAccountRegistry.AllowList)",
        "numberOfBytes": "32",
        "value": "t_struct(AllowList)18041_storage"
      },
      "t_mapping(t_bytes32,t_struct(DenyList)18031_storage)": {
        "encoding": "mapping",
        "key": "t_bytes32",
        "label": "mapping(bytes32 => struct WiseAccountRegistry.DenyList)",
        "numberOfBytes": "32",
        "value": "t_struct(DenyList)18031_storage"
      },
      "t_struct(AccountInfo)21084_storage": {
        "encoding": "inplace",
        "label": "struct IWiseAccountRegistry.AccountInfo",
        "members": [
          {
            "astId": 21079,
            "contract": "contracts/ramps/wise/WiseAccountRegistry.sol:WiseAccountRegistry",
            "label": "accountId",
            "offset": 0,
            "slot": "0",
            "type": "t_bytes32"
          },
          {
            "astId": 21081,
            "contract": "contracts/ramps/wise/WiseAccountRegistry.sol:WiseAccountRegistry",
            "label": "offRampId",
            "offset": 0,
            "slot": "1",
            "type": "t_bytes32"
          },
          {
            "astId": 21083,
            "contract": "contracts/ramps/wise/WiseAccountRegistry.sol:WiseAccountRegistry",
            "label": "wiseTagHash",
            "offset": 0,
            "slot": "2",
            "type": "t_bytes32"
          }
        ],
        "numberOfBytes": "96"
      },
      "t_struct(AllowList)18041_storage": {
        "encoding": "inplace",
        "label": "struct WiseAccountRegistry.AllowList",
        "members": [
          {
            "astId": 18033,
            "contract": "contracts/ramps/wise/WiseAccountRegistry.sol:WiseAccountRegistry",
            "label": "isEnabled",
            "offset": 0,
            "slot": "0",
            "type": "t_bool"
          },
          {
            "astId": 18036,
            "contract": "contracts/ramps/wise/WiseAccountRegistry.sol:WiseAccountRegistry",
            "label": "allowedUsers",
            "offset": 0,
            "slot": "1",
            "type": "t_array(t_bytes32)dyn_storage"
          },
          {
            "astId": 18040,
            "contract": "contracts/ramps/wise/WiseAccountRegistry.sol:WiseAccountRegistry",
            "label": "isAllowed",
            "offset": 0,
            "slot": "2",
            "type": "t_mapping(t_bytes32,t_bool)"
          }
        ],
        "numberOfBytes": "96"
      },
      "t_struct(DenyList)18031_storage": {
        "encoding": "inplace",
        "label": "struct WiseAccountRegistry.DenyList",
        "members": [
          {
            "astId": 18026,
            "contract": "contracts/ramps/wise/WiseAccountRegistry.sol:WiseAccountRegistry",
            "label": "deniedUsers",
            "offset": 0,
            "slot": "0",
            "type": "t_array(t_bytes32)dyn_storage"
          },
          {
            "astId": 18030,
            "contract": "contracts/ramps/wise/WiseAccountRegistry.sol:WiseAccountRegistry",
            "label": "isDenied",
            "offset": 0,
            "slot": "1",
            "type": "t_mapping(t_bytes32,t_bool)"
          }
        ],
        "numberOfBytes": "64"
      }
    }
  }
}