{
  "address": "0xF44B36992B96043128A3240744Bfe9b070a098Fa",
  "abi": [
    {
      "inputs": [
        {
          "internalType": "address",
          "name": "_owner",
          "type": "address"
        }
      ],
      "stateMutability": "nonpayable",
      "type": "constructor"
    },
    {
      "anonymous": false,
      "inputs": [
        {
          "indexed": true,
          "internalType": "address",
          "name": "accountOwner",
          "type": "address"
        },
        {
          "indexed": true,
          "internalType": "bytes32",
          "name": "accountId",
          "type": "bytes32"
        },
        {
          "indexed": true,
          "internalType": "bytes32",
          "name": "wiseTagHash",
          "type": "bytes32"
        }
      ],
      "name": "AccountRegistered",
      "type": "event"
    },
    {
      "anonymous": false,
      "inputs": [
        {
          "indexed": false,
          "internalType": "bytes32",
          "name": "listOwner",
          "type": "bytes32"
        }
      ],
      "name": "AllowlistEnabled",
      "type": "event"
    },
    {
      "anonymous": false,
      "inputs": [
        {
          "indexed": false,
          "internalType": "address",
          "name": "registrationProcessor",
          "type": "address"
        }
      ],
      "name": "NewAccountRegistrationProcessorSet",
      "type": "event"
    },
    {
      "anonymous": false,
      "inputs": [
        {
          "indexed": false,
          "internalType": "address",
          "name": "registrationProcessor",
          "type": "address"
        }
      ],
      "name": "NewOffRamperRegistrationProcessorSet",
      "type": "event"
    },
    {
      "anonymous": false,
      "inputs": [
        {
          "indexed": true,
          "internalType": "address",
          "name": "accountOwner",
          "type": "address"
        },
        {
          "indexed": true,
          "internalType": "bytes32",
          "name": "accountId",
          "type": "bytes32"
        },
        {
          "indexed": true,
          "internalType": "bytes32",
          "name": "offRampId",
          "type": "bytes32"
        }
      ],
      "name": "OffRamperRegistered",
      "type": "event"
    },
    {
      "anonymous": false,
      "inputs": [
        {
          "indexed": true,
          "internalType": "address",
          "name": "previousOwner",
          "type": "address"
        },
        {
          "indexed": true,
          "internalType": "address",
          "name": "newOwner",
          "type": "address"
        }
      ],
      "name": "OwnershipTransferred",
      "type": "event"
    },
    {
      "anonymous": false,
      "inputs": [
        {
          "indexed": true,
          "internalType": "bytes32",
          "name": "listOwner",
          "type": "bytes32"
        },
        {
          "indexed": false,
          "internalType": "bytes32",
          "name": "allowedUser",
          "type": "bytes32"
        }
      ],
      "name": "UserAddedToAllowlist",
      "type": "event"
    },
    {
      "anonymous": false,
      "inputs": [
        {
          "indexed": false,
          "internalType": "bytes32",
          "name": "listOwner",
          "type": "bytes32"
        },
        {
          "indexed": false,
          "internalType": "bytes32",
          "name": "deniedUser",
          "type": "bytes32"
        }
      ],
      "name": "UserAddedToDenylist",
      "type": "event"
    },
    {
      "anonymous": false,
      "inputs": [
        {
          "indexed": true,
          "internalType": "bytes32",
          "name": "listOwner",
          "type": "bytes32"
        },
        {
          "indexed": false,
          "internalType": "bytes32",
          "name": "allowedUser",
          "type": "bytes32"
        }
      ],
      "name": "UserRemovedFromAllowlist",
      "type": "event"
    },
    {
      "anonymous": false,
      "inputs": [
        {
          "indexed": false,
          "internalType": "bytes32",
          "name": "listOwner",
          "type": "bytes32"
        },
        {
          "indexed": false,
          "internalType": "bytes32",
          "name": "approvedUser",
          "type": "bytes32"
        }
      ],
      "name": "UserRemovedFromDenylist",
      "type": "event"
    },
    {
      "inputs": [],
      "name": "accountRegistrationProcessor",
      "outputs": [
        {
          "internalType": "contract IWiseAccountRegistrationProcessor",
          "name": "",
          "type": "address"
        }
      ],
      "stateMutability": "view",
      "type": "function"
    },
    {
      "inputs": [
        {
          "internalType": "bytes32",
          "name": "_deniedUser",
          "type": "bytes32"
        }
      ],
      "name": "addAccountToDenylist",
      "outputs": [],
      "stateMutability": "nonpayable",
      "type": "function"
    },
    {
      "inputs": [
        {
          "internalType": "bytes32[]",
          "name": "_allowedUsers",
          "type": "bytes32[]"
        }
      ],
      "name": "addAccountsToAllowlist",
      "outputs": [],
      "stateMutability": "nonpayable",
      "type": "function"
    },
    {
      "inputs": [],
      "name": "enableAllowlist",
      "outputs": [],
      "stateMutability": "nonpayable",
      "type": "function"
    },
    {
      "inputs": [
        {
          "internalType": "address",
          "name": "_account",
          "type": "address"
        }
      ],
      "name": "getAccountId",
      "outputs": [
        {
          "internalType": "bytes32",
          "name": "",
          "type": "bytes32"
        }
      ],
      "stateMutability": "view",
      "type": "function"
    },
    {
      "inputs": [
        {
          "internalType": "address",
          "name": "_account",
          "type": "address"
        }
      ],
      "name": "getAccountInfo",
      "outputs": [
        {
          "components": [
            {
              "internalType": "bytes32",
              "name": "accountId",
              "type": "bytes32"
            },
            {
              "internalType": "bytes32",
              "name": "offRampId",
              "type": "bytes32"
            },
            {
              "internalType": "bytes32",
              "name": "wiseTagHash",
              "type": "bytes32"
            }
          ],
          "internalType": "struct IWiseAccountRegistry.AccountInfo",
          "name": "",
          "type": "tuple"
        }
      ],
      "stateMutability": "view",
      "type": "function"
    },
    {
      "inputs": [
        {
          "internalType": "address",
          "name": "_account",
          "type": "address"
        }
      ],
      "name": "getAllowedUsers",
      "outputs": [
        {
          "internalType": "bytes32[]",
          "name": "",
          "type": "bytes32[]"
        }
      ],
      "stateMutability": "view",
      "type": "function"
    },
    {
      "inputs": [
        {
          "internalType": "address",
          "name": "_account",
          "type": "address"
        }
      ],
      "name": "getDeniedUsers",
      "outputs": [
        {
          "internalType": "bytes32[]",
          "name": "",
          "type": "bytes32[]"
        }
      ],
      "stateMutability": "view",
      "type": "function"
    },
    {
      "inputs": [
        {
          "internalType": "contract IWiseAccountRegistrationProcessor",
          "name": "_accountRegistrationProcessor",
          "type": "address"
        },
        {
          "internalType": "contract IWiseOffRamperRegistrationProcessor",
          "name": "_offRamperRegistrationProcessor",
          "type": "address"
        }
      ],
      "name": "initialize",
      "outputs": [],
      "stateMutability": "nonpayable",
      "type": "function"
    },
    {
      "inputs": [
        {
          "internalType": "address",
          "name": "_account",
          "type": "address"
        },
        {
          "internalType": "bytes32",
          "name": "_allowedUser",
          "type": "bytes32"
        }
      ],
      "name": "isAllowedUser",
      "outputs": [
        {
          "internalType": "bool",
          "name": "",
          "type": "bool"
        }
      ],
      "stateMutability": "view",
      "type": "function"
    },
    {
      "inputs": [
        {
          "internalType": "address",
          "name": "_account",
          "type": "address"
        }
      ],
      "name": "isAllowlistEnabled",
      "outputs": [
        {
          "internalType": "bool",
          "name": "",
          "type": "bool"
        }
      ],
      "stateMutability": "view",
      "type": "function"
    },
    {
      "inputs": [
        {
          "internalType": "address",
          "name": "_account",
          "type": "address"
        },
        {
          "internalType": "bytes32",
          "name": "_deniedUser",
          "type": "bytes32"
        }
      ],
      "name": "isDeniedUser",
      "outputs": [
        {
          "internalType": "bool",
          "name": "",
          "type": "bool"
        }
      ],
      "stateMutability": "view",
      "type": "function"
    },
    {
      "inputs": [],
      "name": "isInitialized",
      "outputs": [
        {
          "internalType": "bool",
          "name": "",
          "type": "bool"
        }
      ],
      "stateMutability": "view",
      "type": "function"
    },
    {
      "inputs": [
        {
          "internalType": "address",
          "name": "_account",
          "type": "address"
        }
      ],
      "name": "isRegisteredUser",
      "outputs": [
        {
          "internalType": "bool",
          "name": "",
          "type": "bool"
        }
      ],
      "stateMutability": "view",
      "type": "function"
    },
    {
      "inputs": [],
      "name": "offRamperRegistrationProcessor",
      "outputs": [
        {
          "internalType": "contract IWiseOffRamperRegistrationProcessor",
          "name": "",
          "type": "address"
        }
      ],
      "stateMutability": "view",
      "type": "function"
    },
    {
      "inputs": [],
      "name": "owner",
      "outputs": [
        {
          "internalType": "address",
          "name": "",
          "type": "address"
        }
      ],
      "stateMutability": "view",
      "type": "function"
    },
    {
      "inputs": [
        {
          "components": [
            {
              "components": [
                {
                  "internalType": "string",
                  "name": "endpoint",
                  "type": "string"
                },
                {
                  "internalType": "string",
                  "name": "host",
                  "type": "string"
                },
                {
                  "internalType": "string",
                  "name": "profileId",
                  "type": "string"
                },
                {
                  "internalType": "string",
                  "name": "wiseTagHash",
                  "type": "string"
                },
                {
                  "internalType": "address",
                  "name": "userAddress",
                  "type": "address"
                }
              ],
              "internalType": "struct IWiseAccountRegistrationProcessor.RegistrationData",
              "name": "public_values",
              "type": "tuple"
            },
            {
              "internalType": "bytes",
              "name": "proof",
              "type": "bytes"
            }
          ],
          "internalType": "struct IWiseAccountRegistrationProcessor.RegistrationProof",
          "name": "_proof",
          "type": "tuple"
        }
      ],
      "name": "register",
      "outputs": [],
      "stateMutability": "nonpayable",
      "type": "function"
    },
    {
      "inputs": [
        {
          "components": [
            {
              "components": [
                {
                  "internalType": "string",
                  "name": "endpoint",
                  "type": "string"
                },
                {
                  "internalType": "string",
                  "name": "host",
                  "type": "string"
                },
                {
                  "internalType": "string",
                  "name": "profileId",
                  "type": "string"
                },
                {
                  "internalType": "string",
                  "name": "mcAccountId",
                  "type": "string"
                }
              ],
              "internalType": "struct IWiseOffRamperRegistrationProcessor.OffRamperRegistrationData",
              "name": "public_values",
              "type": "tuple"
            },
            {
              "internalType": "bytes",
              "name": "proof",
              "type": "bytes"
            }
          ],
          "internalType": "struct IWiseOffRamperRegistrationProcessor.OffRamperRegistrationProof",
          "name": "_proof",
          "type": "tuple"
        }
      ],
      "name": "registerAsOffRamper",
      "outputs": [],
      "stateMutability": "nonpayable",
      "type": "function"
    },
    {
      "inputs": [
        {
          "internalType": "bytes32",
          "name": "_approvedUser",
          "type": "bytes32"
        }
      ],
      "name": "removeAccountFromDenylist",
      "outputs": [],
      "stateMutability": "nonpayable",
      "type": "function"
    },
    {
      "inputs": [
        {
          "internalType": "bytes32[]",
          "name": "_disallowedUsers",
          "type": "bytes32[]"
        }
      ],
      "name": "removeAccountsFromAllowlist",
      "outputs": [],
      "stateMutability": "nonpayable",
      "type": "function"
    },
    {
      "inputs": [],
      "name": "renounceOwnership",
      "outputs": [],
      "stateMutability": "nonpayable",
      "type": "function"
    },
    {
      "inputs": [
        {
          "internalType": "contract IWiseAccountRegistrationProcessor",
          "name": "_registrationProcessor",
          "type": "address"
        }
      ],
      "name": "setAccountRegistrationProcessor",
      "outputs": [],
      "stateMutability": "nonpayable",
      "type": "function"
    },
    {
      "inputs": [
        {
          "internalType": "contract IWiseOffRamperRegistrationProcessor",
          "name": "_registrationProcessor",
          "type": "address"
        }
      ],
      "name": "setOffRamperRegistrationProcessor",
      "outputs": [],
      "stateMutability": "nonpayable",
      "type": "function"
    },
    {
      "inputs": [
        {
          "internalType": "address",
          "name": "newOwner",
          "type": "address"
        }
      ],
      "name": "transferOwnership",
      "outputs": [],
      "stateMutability": "nonpayable",
      "type": "function"
    }
  ],
  "transactionHash": "0x692a72a41a4dd7d5adbf6ffe72053d8e2ec765436b86b3136d90be119a778c5b",
  "args": [
    "0x4e39cF8578698131c57404e8bc3eEC820EDa51d8"
  ],
  "numDeployments": 1,
  "solcInputHash": "0de631e329f560f49e3d6a21d19a30cc",
  "bytecode": "0x60806040523480156200001157600080fd5b5060405162001a8238038062001a82833981016040819052620000349162000182565b6200003f3362000051565b6200004a81620000a1565b50620001b4565b600080546001600160a01b038381166001600160a01b0319831681178455604051919092169283917f8be0079c531659141344cd1fd0a4f28419497f9722a3daafe3b4186f6b6457e09190a35050565b620000ab62000124565b6001600160a01b038116620001165760405162461bcd60e51b815260206004820152602660248201527f4f776e61626c653a206e6577206f776e657220697320746865207a65726f206160448201526564647265737360d01b60648201526084015b60405180910390fd5b620001218162000051565b50565b6000546001600160a01b03163314620001805760405162461bcd60e51b815260206004820181905260248201527f4f776e61626c653a2063616c6c6572206973206e6f7420746865206f776e657260448201526064016200010d565b565b6000602082840312156200019557600080fd5b81516001600160a01b0381168114620001ad57600080fd5b9392505050565b6118be80620001c46000396000f3fe608060405234801561001057600080fd5b50600436106101585760003560e01c8063715018a6116100c3578063c6a2aac81161007c578063c6a2aac814610356578063d88452451461035e578063e0b490f714610371578063e39ca3b414610392578063f2fde38b146103a5578063fbf15b1f146103b857600080fd5b8063715018a61461027e5780637b510fe8146102865780638da5cb5b1461030c5780639b357b5a1461031d578063b14fac2e14610330578063c3eb86811461034357600080fd5b80633056eb28116101155780633056eb28146101fe57806338e4bef614610211578063392e53cd146102245780634595bba014610238578063485cc95514610258578063605958f41461026b57600080fd5b80630876dda31461015d5780630f29d4c51461018d578063148172da146101a25780631acd84d8146101b55780631e48fe6b146101d85780631f5bdf5d146101eb575b600080fd5b600154610170906001600160a01b031681565b6040516001600160a01b0390911681526020015b60405180910390f35b6101a061019b366004611339565b6103cb565b005b6101a06101b036600461136e565b610524565b6101c86101c336600461139c565b610642565b6040519015158152602001610184565b6101a06101e63660046113de565b6106c8565b6101c86101f936600461149c565b610817565b6101a061020c36600461149c565b61082b565b6101c861021f36600461149c565b610888565b6002546101c890600160a01b900460ff1681565b61024b61024636600461149c565b6108b1565b60405161018491906114c0565b6101a0610266366004611504565b610927565b600254610170906001600160a01b031681565b6101a06109ba565b6102ea61029436600461149c565b6040805160608082018352600080835260208084018290529284018190526001600160a01b0394909416845260038252928290208251938401835280548452600181015491840191909152600201549082015290565b6040805182518152602080840151908201529181015190820152606001610184565b6000546001600160a01b0316610170565b6101a061032b36600461136e565b6109ce565b6101a061033e366004611339565b610acd565b6101a061035136600461149c565b610bb9565b6101a0610c0f565b6101a061036c3660046113de565b610cee565b61038461037f36600461149c565b610e49565b604051908152602001610184565b61024b6103a036600461149c565b610e64565b6101a06103b336600461149c565b610ed8565b6101c86103c636600461139c565b610f51565b6103d5818061153d565b6103e69060a081019060800161149c565b6001600160a01b0316336001600160a01b03161461045d5760405162461bcd60e51b815260206004820152602960248201527f43616c6c6572206d7573742062652061646472657373207370656369666965646044820152681034b710383937b7b360b91b60648201526084015b60405180910390fd5b33600090815260036020526040902054156104cc5760405162461bcd60e51b815260206004820152602960248201527f4163636f756e7420616c7265616479206173736f6369617465642077697468206044820152681858d8dbdd5b9d125960ba1b6064820152608401610454565b6000806104d883610f8c565b3360008181526003602052604080822085815560020184905551939550919350839285927fcc65223c6e9df339af3ea6f6f0bf09fa478060d7c745142bdccb626ef62c79e291a4505050565b61052d33610817565b6105495760405162461bcd60e51b81526004016104549061155d565b33600090815260036020908152604080832054808452600483528184208585526001019092529091205460ff16156105c35760405162461bcd60e51b815260206004820152601860248201527f5573657220616c7265616479206f6e2064656e796c69737400000000000000006044820152606401610454565b600081815260046020818152604080842086855260018181018452828620805460ff191682179055938352805493840181558452922001839055517f976c693d56f27ba17d902bda80c4fa0416b773fbf268bcb0ee71689234d769ee906106369083908590918252602082015260400190565b60405180910390a15050565b60008061064e84610e49565b600081815260046020908152604080832087845260010190915290205490915060ff16156106805760009150506106c2565b60008181526005602052604090205460ff1661069d5760016106be565b600081815260056020908152604080832086845260020190915290205460ff165b9150505b92915050565b6106d133610817565b6106ed5760405162461bcd60e51b81526004016104549061155d565b33600090815260036020526040812054905b825181101561081257600083828151811061071c5761071c611594565b6020908102919091018101516000858152600583526040808220838352600201909352919091205490915060ff1661078e5760405162461bcd60e51b8152602060048201526015602482015274155cd95c881b9bdd081bdb88185b1b1bdddb1a5cdd605a1b6044820152606401610454565b6000838152600560208181526040808420858552600281018352908420805460ff1916905592869052526107c5906001018261100d565b827fe87ba7050133e8b4c8b879f99b3276368eaca3b81f4ea415d9528843a15d8c63826040516107f791815260200190565b60405180910390a2508061080a816115c0565b9150506106ff565b505050565b60008061082383610e49565b141592915050565b610833611135565b600180546001600160a01b0319166001600160a01b0383169081179091556040519081527ffd4e734c9a89ace3649766f5233487313285fe97ca577c2602beda889ef46dd3906020015b60405180910390a150565b60006005600061089784610e49565b815260208101919091526040016000205460ff1692915050565b6060600460006108c084610e49565b815260200190815260200160002060000180548060200260200160405190810160405280929190818152602001828054801561091b57602002820191906000526020600020905b815481526020019060010190808311610907575b50505050509050919050565b61092f611135565b600254600160a01b900460ff161561097f5760405162461bcd60e51b8152602060048201526013602482015272105b1c9958591e481a5b9a5d1a585b1a5e9959606a1b6044820152606401610454565b600180546001600160a01b039384166001600160a01b0319909116179055600280546001600160a81b0319169190921617600160a01b179055565b6109c2611135565b6109cc600061118f565b565b6109d733610817565b6109f35760405162461bcd60e51b81526004016104549061155d565b33600090815260036020908152604080832054808452600483528184208585526001019092529091205460ff16610a635760405162461bcd60e51b8152602060048201526014602482015273155cd95c881b9bdd081bdb8819195b9e5b1a5cdd60621b6044820152606401610454565b6000818152600460208181526040808420868552600181018352908420805460ff191690559284905252610a97908361100d565b60408051828152602081018490527f8935205b1b382095d2d95efbb36f81a11a34c548d45af26adc1a02d2f2bb546f9101610636565b610ad633610817565b610af25760405162461bcd60e51b81526004016104549061155d565b3360009081526003602052604090206001015415610b645760405162461bcd60e51b815260206004820152602960248201527f4163636f756e7420616c7265616479206173736f6369617465642077697468206044820152681bd99994985b5c125960ba1b6064820152608401610454565b600080610b70836111df565b3360008181526003602052604080822060010184905551939550919350839285927f1145ead7f8f95549bd8948731c7e50cda0ef6a0bba6867ee9e383633c2de4c2091a4505050565b610bc1611135565b600280546001600160a01b0319166001600160a01b0383169081179091556040519081527f32bce9e8b6bd060cc566144f14693fad172bd139e984b38c7c83c6d29ef1ad489060200161087d565b610c1833610817565b610c345760405162461bcd60e51b81526004016104549061155d565b3360009081526003602090815260408083205480845260059092529091205460ff1615610ca35760405162461bcd60e51b815260206004820152601a60248201527f416c6c6f77206c69737420616c726561647920656e61626c65640000000000006044820152606401610454565b60008181526005602052604090819020805460ff19166001179055517f08df0a71ea3e5565a2138936ed06eaba47996a3ccfde2dae1f3edd1164e299d79061087d9083815260200190565b610cf733610817565b610d135760405162461bcd60e51b81526004016104549061155d565b33600090815260036020526040812054905b8251811015610812576000838281518110610d4257610d42611594565b6020908102919091018101516000858152600583526040808220838352600201909352919091205490915060ff1615610dbd5760405162461bcd60e51b815260206004820152601960248201527f5573657220616c7265616479206f6e20616c6c6f776c697374000000000000006044820152606401610454565b6000838152600560208181526040808420858552600281018352818520805460ff1916600190811790915593835283018054938401815584529220018290555183907f857ce673abc5a303fa8303102f12b42079aa85b97bca15b56428764dd1dec4d290610e2e9084815260200190565b60405180910390a25080610e41816115c0565b915050610d25565b6001600160a01b031660009081526003602052604090205490565b606060056000610e7384610e49565b815260200190815260200160002060010180548060200260200160405190810160405280929190818152602001828054801561091b57602002820191906000526020600020908154815260200190600101908083116109075750505050509050919050565b610ee0611135565b6001600160a01b038116610f455760405162461bcd60e51b815260206004820152602660248201527f4f776e61626c653a206e6577206f776e657220697320746865207a65726f206160448201526564647265737360d01b6064820152608401610454565b610f4e8161118f565b50565b600060046000610f6085610e49565b81526020808201929092526040908101600090812085825260010190925290205460ff16905092915050565b600154604051635e0b6e9b60e01b815260009182916001600160a01b0390911690635e0b6e9b90610fc1908690600401611648565b60408051808303816000875af1158015610fdf573d6000803e3d6000fd5b505050506040513d601f19601f820116820180604052508101906110039190611757565b9094909350915050565b6000806110698480548060200260200160405190810160405280929190818152602001828054801561105e57602002820191906000526020600020905b81548152602001906001019080831161104a575b5050505050846112be565b91509150806110b25760405162461bcd60e51b8152602060048201526015602482015274313cba32b99999103737ba1034b71030b93930bc9760591b6044820152606401610454565b83546000906110c39060019061177b565b9050808314611108578481815481106110de576110de611594565b90600052602060002001548584815481106110fb576110fb611594565b6000918252602090912001555b848054806111185761111861178e565b600190038181906000526020600020016000905590555050505050565b6000546001600160a01b031633146109cc5760405162461bcd60e51b815260206004820181905260248201527f4f776e61626c653a2063616c6c6572206973206e6f7420746865206f776e65726044820152606401610454565b600080546001600160a01b038381166001600160a01b0319831681178455604051919092169283917f8be0079c531659141344cd1fd0a4f28419497f9722a3daafe3b4186f6b6457e09190a35050565b60025460405163027c064960e51b815260009182916001600160a01b0390911690634f80c920906112149086906004016117a4565b60408051808303816000875af1158015611232573d6000803e3d6000fd5b505050506040513d601f19601f820116820180604052508101906112569190611757565b33600090815260036020526040902054919350915082146112b95760405162461bcd60e51b815260206004820152601860248201527f4163636f756e74496420646f6573206e6f74206d6174636800000000000000006044820152606401610454565b915091565b81516000908190815b8181101561130e57848682815181106112e2576112e2611594565b6020026020010151036112fc5792506001915061131a9050565b80611306816115c0565b9150506112c7565b50600019600092509250505b9250929050565b60006040828403121561133357600080fd5b50919050565b60006020828403121561134b57600080fd5b813567ffffffffffffffff81111561136257600080fd5b6106be84828501611321565b60006020828403121561138057600080fd5b5035919050565b6001600160a01b0381168114610f4e57600080fd5b600080604083850312156113af57600080fd5b82356113ba81611387565b946020939093013593505050565b634e487b7160e01b600052604160045260246000fd5b600060208083850312156113f157600080fd5b823567ffffffffffffffff8082111561140957600080fd5b818501915085601f83011261141d57600080fd5b81358181111561142f5761142f6113c8565b8060051b604051601f19603f83011681018181108582111715611454576114546113c8565b60405291825284820192508381018501918883111561147257600080fd5b938501935b8285101561149057843584529385019392850192611477565b98975050505050505050565b6000602082840312156114ae57600080fd5b81356114b981611387565b9392505050565b6020808252825182820181905260009190848201906040850190845b818110156114f8578351835292840192918401916001016114dc565b50909695505050505050565b6000806040838503121561151757600080fd5b823561152281611387565b9150602083013561153281611387565b809150509250929050565b60008235609e1983360301811261155357600080fd5b9190910192915050565b6020808252601e908201527f43616c6c6572206d757374206265207265676973746572656420757365720000604082015260600190565b634e487b7160e01b600052603260045260246000fd5b634e487b7160e01b600052601160045260246000fd5b6000600182016115d2576115d26115aa565b5060010190565b6000808335601e198436030181126115f057600080fd5b830160208101925035905067ffffffffffffffff81111561161057600080fd5b80360382131561131a57600080fd5b81835281816020850137506000828201602090810191909152601f909101601f19169091010190565b6020815260008235609e1984360301811261166257600080fd5b60406020840152830161167581806115d9565b60a0606086015261168b6101008601828461161f565b91505061169b60208301836115d9565b605f19808785030160808801526116b384838561161f565b93506116c260408601866115d9565b93509150808785030160a08801526116db84848461161f565b93506116ea60608601866115d9565b93509150808785030160c08801525061170483838361161f565b925050506080820135915061171882611387565b6001600160a01b03821660e085015261173460208601866115d9565b858303601f19016040870152925061174d82848361161f565b9695505050505050565b6000806040838503121561176a57600080fd5b505080516020909101519092909150565b818103818111156106c2576106c26115aa565b634e487b7160e01b600052603160045260246000fd5b6020815260008235607e198436030181126117be57600080fd5b6040602084015283016117d181806115d9565b608060608601526117e660e08601828461161f565b9150506117f660208301836115d9565b605f198087850301608088015261180e84838561161f565b935061181d60408601866115d9565b93509150808785030160a088015261183684848461161f565b935061184560608601866115d9565b95509250808785030160c0880152505061186082848361161f565b9250505061187160208501856115d9565b848303601f1901604086015261174d83828461161f56fea2646970667358221220f6834241fd8d555457b9123cd68085dfe9a82133219e6a045dd2e18fd5174ee464736f6c63430008120033",
  "devdoc": {
    "kind": "dev",
    "methods": {
      "addAccountToDenylist(bytes32)": {
        "params": {
          "_deniedUser": "accountId being banned"
        }
      },
      "addAccountsToAllowlist(bytes32[])": {
        "params": {
          "_allowedUsers": "List of accountIds allowed to signal intents on the user's deposit"
        }
      },
      "initialize(address,address)": {
        "params": {
          "_accountRegistrationProcessor": "Account Registration processor address",
          "_offRamperRegistrationProcessor": "Off-ramper Registration processor address"
        }
      },
      "owner()": {
        "details": "Returns the address of the current owner."
      },
      "register(((string,string,string,string,address),bytes))": {
        "params": {
          "_proof": "Registration proof consisting of unredacted data being notarized and a signature"
        }
      },
      "registerAsOffRamper(((string,string,string,string),bytes))": {
        "params": {
          "_proof": "Registration proof consisting of unredacted data being notarized and a signature"
        }
      },
      "removeAccountFromDenylist(bytes32)": {
        "params": {
          "_approvedUser": "accountId being approved"
        }
      },
      "removeAccountsFromAllowlist(bytes32[])": {
        "params": {
          "_disallowedUsers": "List of accountIds being approved"
        }
      },
      "renounceOwnership()": {
        "details": "Leaves the contract without owner. It will not be possible to call `onlyOwner` functions. Can only be called by the current owner. NOTE: Renouncing ownership will leave the contract without an owner, thereby disabling any functionality that is only available to the owner."
      },
      "setAccountRegistrationProcessor(address)": {
        "params": {
          "_registrationProcessor": "New registration proccesor address"
        }
      },
      "setOffRamperRegistrationProcessor(address)": {
        "params": {
          "_registrationProcessor": "New registration proccesor address"
        }
      },
      "transferOwnership(address)": {
        "details": "Transfers ownership of the contract to a new account (`newOwner`). Can only be called by the current owner."
      }
    },
    "version": 1
  },
  "userdoc": {
    "kind": "user",
    "methods": {
      "addAccountToDenylist(bytes32)": {
        "notice": "Adds an accountId to a depositor's deny list. If an address associated with the banned accountId attempts to signal an intent on the user's deposit they will be denied."
      },
      "addAccountsToAllowlist(bytes32[])": {
        "notice": "Adds passed accountIds to a depositor's allow list. All addresses associated with the allowed accountIds will be able to signal intents on the user's deposit."
      },
      "enableAllowlist()": {
        "notice": "Enables allow list for user, only users on the allow list will be able to signal intents on the user's deposit."
      },
      "initialize(address,address)": {
        "notice": "Initialize Ramp with the addresses of the Processors"
      },
      "register(((string,string,string,string,address),bytes))": {
        "notice": "Registers a new account by pulling the profileId from the proof and assigning the account owner to the sender of the transaction."
      },
      "registerAsOffRamper(((string,string,string,string),bytes))": {
        "notice": "Registers an account for off-ramping by pulling the multi-currency account id from the proof and assigning the account owner to the sender of the transaction."
      },
      "removeAccountFromDenylist(bytes32)": {
        "notice": "Removes an accountId from a depositor's deny list."
      },
      "removeAccountsFromAllowlist(bytes32[])": {
        "notice": "Removes an passed accountId's from allow list. If allow list is enabled only users on the allow list will be able to signal intents on the user's deposit."
      },
      "setAccountRegistrationProcessor(address)": {
        "notice": "GOVERNANCE ONLY: Updates the account registration processor address used for validating and interpreting tls proofs."
      },
      "setOffRamperRegistrationProcessor(address)": {
        "notice": "GOVERNANCE ONLY: Updates the off ramper registration processor address used for validating and interpreting tls proofs."
      }
    },
    "version": 1
  },
  "storageLayout": {
    "storage": [
      {
        "astId": 7,
        "contract": "contracts/ramps/wise/WiseAccountRegistry.sol:WiseAccountRegistry",
        "label": "_owner",
        "offset": 0,
        "slot": "0",
        "type": "t_address"
      },
      {
        "astId": 3339,
        "contract": "contracts/ramps/wise/WiseAccountRegistry.sol:WiseAccountRegistry",
        "label": "accountRegistrationProcessor",
        "offset": 0,
        "slot": "1",
        "type": "t_contract(IWiseAccountRegistrationProcessor)6323"
      },
      {
        "astId": 3342,
        "contract": "contracts/ramps/wise/WiseAccountRegistry.sol:WiseAccountRegistry",
        "label": "offRamperRegistrationProcessor",
        "offset": 0,
        "slot": "2",
        "type": "t_contract(IWiseOffRamperRegistrationProcessor)6392"
      },
      {
        "astId": 3344,
        "contract": "contracts/ramps/wise/WiseAccountRegistry.sol:WiseAccountRegistry",
        "label": "isInitialized",
        "offset": 20,
        "slot": "2",
        "type": "t_bool"
      },
      {
        "astId": 3349,
        "contract": "contracts/ramps/wise/WiseAccountRegistry.sol:WiseAccountRegistry",
        "label": "accounts",
        "offset": 0,
        "slot": "3",
        "type": "t_mapping(t_address,t_struct(AccountInfo)6332_storage)"
      },
      {
        "astId": 3354,
        "contract": "contracts/ramps/wise/WiseAccountRegistry.sol:WiseAccountRegistry",
        "label": "denyList",
        "offset": 0,
        "slot": "4",
        "type": "t_mapping(t_bytes32,t_struct(DenyList)3314_storage)"
      },
      {
        "astId": 3359,
        "contract": "contracts/ramps/wise/WiseAccountRegistry.sol:WiseAccountRegistry",
        "label": "allowList",
        "offset": 0,
        "slot": "5",
        "type": "t_mapping(t_bytes32,t_struct(AllowList)3324_storage)"
      }
    ],
    "types": {
      "t_address": {
        "encoding": "inplace",
        "label": "address",
        "numberOfBytes": "20"
      },
      "t_array(t_bytes32)dyn_storage": {
        "base": "t_bytes32",
        "encoding": "dynamic_array",
        "label": "bytes32[]",
        "numberOfBytes": "32"
      },
      "t_bool": {
        "encoding": "inplace",
        "label": "bool",
        "numberOfBytes": "1"
      },
      "t_bytes32": {
        "encoding": "inplace",
        "label": "bytes32",
        "numberOfBytes": "32"
      },
      "t_contract(IWiseAccountRegistrationProcessor)6323": {
        "encoding": "inplace",
        "label": "contract IWiseAccountRegistrationProcessor",
        "numberOfBytes": "20"
      },
      "t_contract(IWiseOffRamperRegistrationProcessor)6392": {
        "encoding": "inplace",
        "label": "contract IWiseOffRamperRegistrationProcessor",
        "numberOfBytes": "20"
      },
      "t_mapping(t_address,t_struct(AccountInfo)6332_storage)": {
        "encoding": "mapping",
        "key": "t_address",
        "label": "mapping(address => struct IWiseAccountRegistry.AccountInfo)",
        "numberOfBytes": "32",
        "value": "t_struct(AccountInfo)6332_storage"
      },
      "t_mapping(t_bytes32,t_bool)": {
        "encoding": "mapping",
        "key": "t_bytes32",
        "label": "mapping(bytes32 => bool)",
        "numberOfBytes": "32",
        "value": "t_bool"
      },
      "t_mapping(t_bytes32,t_struct(AllowList)3324_storage)": {
        "encoding": "mapping",
        "key": "t_bytes32",
        "label": "mapping(bytes32 => struct WiseAccountRegistry.AllowList)",
        "numberOfBytes": "32",
        "value": "t_struct(AllowList)3324_storage"
      },
      "t_mapping(t_bytes32,t_struct(DenyList)3314_storage)": {
        "encoding": "mapping",
        "key": "t_bytes32",
        "label": "mapping(bytes32 => struct WiseAccountRegistry.DenyList)",
        "numberOfBytes": "32",
        "value": "t_struct(DenyList)3314_storage"
      },
      "t_struct(AccountInfo)6332_storage": {
        "encoding": "inplace",
        "label": "struct IWiseAccountRegistry.AccountInfo",
        "members": [
          {
            "astId": 6327,
            "contract": "contracts/ramps/wise/WiseAccountRegistry.sol:WiseAccountRegistry",
            "label": "accountId",
            "offset": 0,
            "slot": "0",
            "type": "t_bytes32"
          },
          {
            "astId": 6329,
            "contract": "contracts/ramps/wise/WiseAccountRegistry.sol:WiseAccountRegistry",
            "label": "offRampId",
            "offset": 0,
            "slot": "1",
            "type": "t_bytes32"
          },
          {
            "astId": 6331,
            "contract": "contracts/ramps/wise/WiseAccountRegistry.sol:WiseAccountRegistry",
            "label": "wiseTagHash",
            "offset": 0,
            "slot": "2",
            "type": "t_bytes32"
          }
        ],
        "numberOfBytes": "96"
      },
      "t_struct(AllowList)3324_storage": {
        "encoding": "inplace",
        "label": "struct WiseAccountRegistry.AllowList",
        "members": [
          {
            "astId": 3316,
            "contract": "contracts/ramps/wise/WiseAccountRegistry.sol:WiseAccountRegistry",
            "label": "isEnabled",
            "offset": 0,
            "slot": "0",
            "type": "t_bool"
          },
          {
            "astId": 3319,
            "contract": "contracts/ramps/wise/WiseAccountRegistry.sol:WiseAccountRegistry",
            "label": "allowedUsers",
            "offset": 0,
            "slot": "1",
            "type": "t_array(t_bytes32)dyn_storage"
          },
          {
            "astId": 3323,
            "contract": "contracts/ramps/wise/WiseAccountRegistry.sol:WiseAccountRegistry",
            "label": "isAllowed",
            "offset": 0,
            "slot": "2",
            "type": "t_mapping(t_bytes32,t_bool)"
          }
        ],
        "numberOfBytes": "96"
      },
      "t_struct(DenyList)3314_storage": {
        "encoding": "inplace",
        "label": "struct WiseAccountRegistry.DenyList",
        "members": [
          {
            "astId": 3309,
            "contract": "contracts/ramps/wise/WiseAccountRegistry.sol:WiseAccountRegistry",
            "label": "deniedUsers",
            "offset": 0,
            "slot": "0",
            "type": "t_array(t_bytes32)dyn_storage"
          },
          {
            "astId": 3313,
            "contract": "contracts/ramps/wise/WiseAccountRegistry.sol:WiseAccountRegistry",
            "label": "isDenied",
            "offset": 0,
            "slot": "1",
            "type": "t_mapping(t_bytes32,t_bool)"
          }
        ],
        "numberOfBytes": "64"
      }
    }
  }
}