{
  "address": "0x8E9ca43089F380A904D2d121fAa021bb4fbb0f4a",
  "abi": [
    {
      "inputs": [
        {
          "internalType": "address",
          "name": "_ramp",
          "type": "address"
        },
        {
          "internalType": "address",
          "name": "_verifierSigningKey",
          "type": "address"
        },
        {
          "internalType": "contract INullifierRegistry",
          "name": "_nullifierRegistry",
          "type": "address"
        },
        {
          "internalType": "uint256",
          "name": "_timestampBuffer",
          "type": "uint256"
        },
        {
          "internalType": "string",
          "name": "_endpoint",
          "type": "string"
        },
        {
          "internalType": "string",
          "name": "_host",
          "type": "string"
        }
      ],
      "stateMutability": "nonpayable",
      "type": "constructor"
    },
    {
      "anonymous": false,
      "inputs": [
        {
          "indexed": true,
          "internalType": "address",
          "name": "previousOwner",
          "type": "address"
        },
        {
          "indexed": true,
          "internalType": "address",
          "name": "newOwner",
          "type": "address"
        }
      ],
      "name": "OwnershipTransferred",
      "type": "event"
    },
    {
      "anonymous": false,
      "inputs": [
        {
          "indexed": false,
          "internalType": "address",
          "name": "_verifierSigningKey",
          "type": "address"
        }
      ],
      "name": "VerifierSigningKeySet",
      "type": "event"
    },
    {
      "inputs": [],
      "name": "endpoint",
      "outputs": [
        {
          "internalType": "string",
          "name": "",
          "type": "string"
        }
      ],
      "stateMutability": "view",
      "type": "function"
    },
    {
      "inputs": [],
      "name": "host",
      "outputs": [
        {
          "internalType": "string",
          "name": "",
          "type": "string"
        }
      ],
      "stateMutability": "view",
      "type": "function"
    },
    {
      "inputs": [],
      "name": "nullifierRegistry",
      "outputs": [
        {
          "internalType": "contract INullifierRegistry",
          "name": "",
          "type": "address"
        }
      ],
      "stateMutability": "view",
      "type": "function"
    },
    {
      "inputs": [],
      "name": "owner",
      "outputs": [
        {
          "internalType": "address",
          "name": "",
          "type": "address"
        }
      ],
      "stateMutability": "view",
      "type": "function"
    },
    {
      "inputs": [
        {
          "components": [
            {
              "components": [
                {
                  "internalType": "string",
                  "name": "endpoint",
                  "type": "string"
                },
                {
                  "internalType": "string",
                  "name": "host",
                  "type": "string"
                },
                {
                  "internalType": "string",
                  "name": "profileId",
                  "type": "string"
                },
                {
                  "internalType": "string",
                  "name": "wiseTagHash",
                  "type": "string"
                }
              ],
              "internalType": "struct IWiseAccountRegistrationProcessor.RegistrationData",
              "name": "public_values",
              "type": "tuple"
            },
            {
              "internalType": "bytes",
              "name": "proof",
              "type": "bytes"
            }
          ],
          "internalType": "struct IWiseAccountRegistrationProcessor.RegistrationProof",
          "name": "_proof",
          "type": "tuple"
        }
      ],
      "name": "processAccountProof",
      "outputs": [
        {
          "internalType": "bytes32",
          "name": "onRampId",
          "type": "bytes32"
        },
        {
          "internalType": "bytes32",
          "name": "wiseTagHash",
          "type": "bytes32"
        }
      ],
      "stateMutability": "nonpayable",
      "type": "function"
    },
    {
      "inputs": [],
      "name": "ramp",
      "outputs": [
        {
          "internalType": "address",
          "name": "",
          "type": "address"
        }
      ],
      "stateMutability": "view",
      "type": "function"
    },
    {
      "inputs": [],
      "name": "renounceOwnership",
      "outputs": [],
      "stateMutability": "nonpayable",
      "type": "function"
    },
    {
      "inputs": [
        {
          "internalType": "uint256",
          "name": "_timestampBuffer",
          "type": "uint256"
        }
      ],
      "name": "setTimestampBuffer",
      "outputs": [],
      "stateMutability": "nonpayable",
      "type": "function"
    },
    {
      "inputs": [
        {
          "internalType": "address",
          "name": "_verifierSigningKey",
          "type": "address"
        }
      ],
      "name": "setVerifierSigningKey",
      "outputs": [],
      "stateMutability": "nonpayable",
      "type": "function"
    },
    {
      "inputs": [],
      "name": "timestampBuffer",
      "outputs": [
        {
          "internalType": "uint256",
          "name": "",
          "type": "uint256"
        }
      ],
      "stateMutability": "view",
      "type": "function"
    },
    {
      "inputs": [
        {
          "internalType": "address",
          "name": "newOwner",
          "type": "address"
        }
      ],
      "name": "transferOwnership",
      "outputs": [],
      "stateMutability": "nonpayable",
      "type": "function"
    },
    {
      "inputs": [],
      "name": "verifierSigningKey",
      "outputs": [
        {
          "internalType": "address",
          "name": "",
          "type": "address"
        }
      ],
      "stateMutability": "view",
      "type": "function"
    },
    {
      "inputs": [
        {
          "components": [
            {
              "internalType": "string",
              "name": "endpoint",
              "type": "string"
            },
            {
              "internalType": "string",
              "name": "host",
              "type": "string"
            },
            {
              "internalType": "string",
              "name": "profileId",
              "type": "string"
            },
            {
              "internalType": "string",
              "name": "wiseTagHash",
              "type": "string"
            }
          ],
          "internalType": "struct IWiseAccountRegistrationProcessor.RegistrationData",
          "name": "_publicValues",
          "type": "tuple"
        },
        {
          "internalType": "bytes",
          "name": "_proof",
          "type": "bytes"
        }
      ],
      "name": "verifyProof",
      "outputs": [
        {
          "internalType": "bool",
          "name": "",
          "type": "bool"
        }
      ],
      "stateMutability": "view",
      "type": "function"
    }
  ],
  "transactionHash": "0x1f117b3bd666935a7962bc829dd2599c4a336b3dbcd77b45d3765d42c3a5708c",
  "args": [
    "0x7eDD66B19A22293af86A2d96761FD7146BA3fF6c",
    "0x166338393593e85bfde8B65358Ec5801A3445D12",
    "0xAf0196f22a1383B779E3f833AD35BFf38722c8AD",
    "0",
    "POST https://wise.com/gateway/v1/payments",
    "wise.com"
  ],
  "numDeployments": 1,
  "solcInputHash": "6e4c0155cf194d54974389502ced73c2",
  "bytecode": "0x60a06040523480156200001157600080fd5b50604051620019db380380620019db8339810160408190526200003491620001e2565b85848484846200004433620000b4565b6001600160a01b03851660805260016200005f838262000324565b5060026200006e828262000324565b5050600380546001600160a01b039485166001600160a01b03199182161790915560049290925550600580549890921697169690961790955550620003f0945050505050565b600080546001600160a01b038381166001600160a01b0319831681178455604051919092169283917f8be0079c531659141344cd1fd0a4f28419497f9722a3daafe3b4186f6b6457e09190a35050565b6001600160a01b03811681146200011a57600080fd5b50565b634e487b7160e01b600052604160045260246000fd5b600082601f8301126200014557600080fd5b81516001600160401b03808211156200016257620001626200011d565b604051601f8301601f19908116603f011681019082821181831017156200018d576200018d6200011d565b81604052838152602092508683858801011115620001aa57600080fd5b600091505b83821015620001ce5785820183015181830184015290820190620001af565b600093810190920192909252949350505050565b60008060008060008060c08789031215620001fc57600080fd5b8651620002098162000104565b60208801519096506200021c8162000104565b60408801519095506200022f8162000104565b6060880151608089015191955093506001600160401b03808211156200025457600080fd5b620002628a838b0162000133565b935060a08901519150808211156200027957600080fd5b506200028889828a0162000133565b9150509295509295509295565b600181811c90821680620002aa57607f821691505b602082108103620002cb57634e487b7160e01b600052602260045260246000fd5b50919050565b601f8211156200031f57600081815260208120601f850160051c81016020861015620002fa5750805b601f850160051c820191505b818110156200031b5782815560010162000306565b5050505b505050565b81516001600160401b038111156200034057620003406200011d565b620003588162000351845462000295565b84620002d1565b602080601f831160018114620003905760008415620003775750858301515b600019600386901b1c1916600185901b1785556200031b565b600085815260208120601f198616915b82811015620003c157888601518255948401946001909101908401620003a0565b5085821015620003e05787850151600019600388901b60f8161c191681555b5050505050600190811b01905550565b6080516115c86200041360003960008181610109015261031d01526115c86000f3fe608060405234801561001057600080fd5b50600436106100cf5760003560e01c80638da5cb5b1161008c578063b870676c11610066578063b870676c146101cc578063dbac5821146101df578063f2fde38b146101f6578063f437bc591461020957600080fd5b80638da5cb5b14610185578063b06b02b214610196578063b2a3fda4146101b957600080fd5b80630fa4ed4d146100d457806315d276e1146101045780634e06a32b1461012b5780635e280f1114610140578063715018a61461015557806375848b321461015d575b600080fd5b6005546100e7906001600160a01b031681565b6040516001600160a01b0390911681526020015b60405180910390f35b6100e77f000000000000000000000000000000000000000000000000000000000000000081565b61013e610139366004610f5f565b610211565b005b61014861026d565b6040516100fb9190610fd8565b61013e6102fb565b61017061016b366004610feb565b61030f565b604080519283526020830191909152016100fb565b6000546001600160a01b03166100e7565b6101a96101a43660046111b4565b610678565b60405190151581526020016100fb565b61013e6101c736600461122c565b6106d8565b6003546100e7906001600160a01b031681565b6101e860045481565b6040519081526020016100fb565b61013e610204366004610f5f565b6106e5565b61014861075e565b61021961076b565b600580546001600160a01b0319166001600160a01b0383169081179091556040519081527fb8603ceabf8ee4633f1fd8c0ae9e0e64f2fc2fea5cb79a96c18efd007aab6f969060200160405180910390a150565b6001805461027a90611245565b80601f01602080910402602001604051908101604052809291908181526020018280546102a690611245565b80156102f35780601f106102c8576101008083540402835291602001916102f3565b820191906000526020600020905b8154815290600101906020018083116102d657829003601f168201915b505050505081565b61030361076b565b61030d60006107c5565b565b600080336001600160a01b037f0000000000000000000000000000000000000000000000000000000000000000161461038f5760405162461bcd60e51b815260206004820181905260248201527f4f6e6c792052616d702063616e2063616c6c20746869732066756e6374696f6e60448201526064015b60405180910390fd5b6103ec61039c848061127f565b6103a59061129f565b6103b260208601866112ab565b8080601f01602080910402602001604051908101604052809392919081815260200183838082843760009201919091525061081592505050565b6104cc600180546103fc90611245565b80601f016020809104026020016040519081016040528092919081815260200182805461042890611245565b80156104755780601f1061044a57610100808354040283529160200191610475565b820191906000526020600020905b81548152906001019060200180831161045857829003601f168201915b50610488935088925082915061127f9050565b61049290806112ab565b8080601f01602080910402602001604051908101604052809392919081815260200183838082843760009201919091525061086f92505050565b6105b0600280546104dc90611245565b80601f016020809104026020016040519081016040528092919081815260200182805461050890611245565b80156105555780601f1061052a57610100808354040283529160200191610555565b820191906000526020600020905b81548152906001019060200180831161053857829003601f168201915b50610568935088925082915061127f9050565b6105769060208101906112ab565b8080601f01602080910402602001604051908101604052809392919081815260200183838082843760009201919091525061090a92505050565b6105f76105bd848061127f565b6105cb9060408101906112ab565b6040516020016105dc9291906112f2565b604051602081830303815290604052805190602001206109a5565b6106516000610606858061127f565b6106149060408101906112ab565b8080601f0160208091040260200160405190810160405280939291908181526020018383808284376000920191909152509293925050610ac09050565b91506106706000610662858061127f565b6106149060608101906112ab565b919391925050565b60008083600001518460200151856040015186606001516040516020016106a29493929190611344565b60408051601f198184030181529190526005549091506106ce90829085906001600160a01b0316610ad8565b9150505b92915050565b6106e061076b565b600455565b6106ed61076b565b6001600160a01b0381166107525760405162461bcd60e51b815260206004820152602660248201527f4f776e61626c653a206e6577206f776e657220697320746865207a65726f206160448201526564647265737360d01b6064820152608401610386565b61075b816107c5565b50565b6002805461027a90611245565b6000546001600160a01b0316331461030d5760405162461bcd60e51b815260206004820181905260248201527f4f776e61626c653a2063616c6c6572206973206e6f7420746865206f776e65726044820152606401610386565b600080546001600160a01b038381166001600160a01b0319831681178455604051919092169283917f8be0079c531659141344cd1fd0a4f28419497f9722a3daafe3b4186f6b6457e09190a35050565b61081f8282610678565b61086b5760405162461bcd60e51b815260206004820152601f60248201527f496e76616c6964207369676e61747572652066726f6d207665726966696572006044820152606401610386565b5050565b806040516020016108809190610fd8565b60405160208183030381529060405280519060200120826040516020016108a79190610fd8565b604051602081830303815290604052805190602001201461086b5760405162461bcd60e51b815260206004820181905260248201527f456e64706f696e7420646f6573206e6f74206d617463682065787065637465646044820152606401610386565b8060405160200161091b9190610fd8565b60405160208183030381529060405280519060200120826040516020016109429190610fd8565b604051602081830303815290604052805190602001201461086b5760405162461bcd60e51b815260206004820152601c60248201527f486f737420646f6573206e6f74206d61746368206578706563746564000000006044820152606401610386565b60035460405163169394bb60e01b8152600481018390526001600160a01b039091169063169394bb90602401602060405180830381865afa1580156109ee573d6000803e3d6000fd5b505050506040513d601f19601f82011682018060405250810190610a12919061139c565b15610a5f5760405162461bcd60e51b815260206004820152601f60248201527f4e756c6c69666965722068617320616c7265616479206265656e2075736564006044820152606401610386565b600354604051632dea6f9960e11b8152600481018390526001600160a01b0390911690635bd4df3290602401600060405180830381600087803b158015610aa557600080fd5b505af1158015610ab9573d6000803e3d6000fd5b5050505050565b6000610ad183601760f91b84610b2c565b9392505050565b825160208401207f19457468657265756d205369676e6564204d6573736167653a0a3332000000006000908152601c91909152603c8120610b236001600160a01b0384168286610d09565b95945050505050565b600083818080805b8451811015610c8257603060f81b858281518110610b5457610b546113be565b01602001516001600160f81b03191610801590610b955750603960f81b858281518110610b8357610b836113be565b01602001516001600160f81b03191611155b15610bd8576030858281518110610bae57610bae6113be565b0160200151610bc0919060f81c6113ea565b610bcb85600a6113fd565b610bd59190611414565b93505b8115610bec5782610be881611427565b9350505b876001600160f81b031916858281518110610c0957610c096113be565b01602001516001600160f81b03191603610c70578115610c6b5760405162461bcd60e51b815260206004820152601c60248201527f537472696e6720686173206d756c7469706c6520646563696d616c73000000006044820152606401610386565b600191505b80610c7a81611427565b915050610b34565b5085821115610cde5760405162461bcd60e51b815260206004820152602260248201527f537472696e672068617320746f6f206d616e7920646563696d616c20706c6163604482015261657360f01b6064820152608401610386565b610ce882876113ea565b610cf390600a611524565b610cfd90846113fd565b98975050505050505050565b6000806000610d188585610d6a565b90925090506000816004811115610d3157610d31611530565b148015610d4f5750856001600160a01b0316826001600160a01b0316145b80610d605750610d60868686610daf565b9695505050505050565b6000808251604103610da05760208301516040840151606085015160001a610d9487828585610e9b565b94509450505050610da8565b506000905060025b9250929050565b6000806000856001600160a01b0316631626ba7e60e01b8686604051602401610dd9929190611546565b60408051601f198184030181529181526020820180516001600160e01b03166001600160e01b0319909416939093179092529051610e179190611567565b600060405180830381855afa9150503d8060008114610e52576040519150601f19603f3d011682016040523d82523d6000602084013e610e57565b606091505b5091509150818015610e6b57506020815110155b8015610d6057508051630b135d3f60e11b90610e909083016020908101908401611579565b149695505050505050565b6000807f7fffffffffffffffffffffffffffffff5d576e7357a4501ddfe92f46681b20a0831115610ed25750600090506003610f56565b6040805160008082526020820180845289905260ff881692820192909252606081018690526080810185905260019060a0016020604051602081039080840390855afa158015610f26573d6000803e3d6000fd5b5050604051601f1901519150506001600160a01b038116610f4f57600060019250925050610f56565b9150600090505b94509492505050565b600060208284031215610f7157600080fd5b81356001600160a01b0381168114610ad157600080fd5b60005b83811015610fa3578181015183820152602001610f8b565b50506000910152565b60008151808452610fc4816020860160208601610f88565b601f01601f19169290920160200192915050565b602081526000610ad16020830184610fac565b600060208284031215610ffd57600080fd5b813567ffffffffffffffff81111561101457600080fd5b820160408185031215610ad157600080fd5b634e487b7160e01b600052604160045260246000fd5b6040516080810167ffffffffffffffff8111828210171561105f5761105f611026565b60405290565b600067ffffffffffffffff8084111561108057611080611026565b604051601f8501601f19908116603f011681019082821181831017156110a8576110a8611026565b816040528093508581528686860111156110c157600080fd5b858560208301376000602087830101525050509392505050565b600082601f8301126110ec57600080fd5b610ad183833560208501611065565b60006080828403121561110d57600080fd5b61111561103c565b9050813567ffffffffffffffff8082111561112f57600080fd5b61113b858386016110db565b8352602084013591508082111561115157600080fd5b61115d858386016110db565b6020840152604084013591508082111561117657600080fd5b611182858386016110db565b6040840152606084013591508082111561119b57600080fd5b506111a8848285016110db565b60608301525092915050565b600080604083850312156111c757600080fd5b823567ffffffffffffffff808211156111df57600080fd5b6111eb868387016110fb565b9350602085013591508082111561120157600080fd5b508301601f8101851361121357600080fd5b61122285823560208401611065565b9150509250929050565b60006020828403121561123e57600080fd5b5035919050565b600181811c9082168061125957607f821691505b60208210810361127957634e487b7160e01b600052602260045260246000fd5b50919050565b60008235607e1983360301811261129557600080fd5b9190910192915050565b60006106d236836110fb565b6000808335601e198436030181126112c257600080fd5b83018035915067ffffffffffffffff8211156112dd57600080fd5b602001915036819003821315610da857600080fd5b60408152600c60408201526b3932b3b4b9ba3930ba34b7b760a11b606082015260806020820152816080820152818360a0830137600081830160a090810191909152601f909201601f19160101919050565b6080815260006113576080830187610fac565b82810360208401526113698187610fac565b9050828103604084015261137d8186610fac565b905082810360608401526113918185610fac565b979650505050505050565b6000602082840312156113ae57600080fd5b81518015158114610ad157600080fd5b634e487b7160e01b600052603260045260246000fd5b634e487b7160e01b600052601160045260246000fd5b818103818111156106d2576106d26113d4565b80820281158282048414176106d2576106d26113d4565b808201808211156106d2576106d26113d4565b600060018201611439576114396113d4565b5060010190565b600181815b8085111561147b578160001904821115611461576114616113d4565b8085161561146e57918102915b93841c9390800290611445565b509250929050565b600082611492575060016106d2565b8161149f575060006106d2565b81600181146114b557600281146114bf576114db565b60019150506106d2565b60ff8411156114d0576114d06113d4565b50506001821b6106d2565b5060208310610133831016604e8410600b84101617156114fe575081810a6106d2565b6115088383611440565b806000190482111561151c5761151c6113d4565b029392505050565b6000610ad18383611483565b634e487b7160e01b600052602160045260246000fd5b82815260406020820152600061155f6040830184610fac565b949350505050565b60008251611295818460208701610f88565b60006020828403121561158b57600080fd5b505191905056fea26469706673582212203e98302b127b19eb5c2f90167d93f78ee198dd9265bb36ff80173ab3384c571164736f6c63430008120033",
  "devdoc": {
    "kind": "dev",
    "methods": {
      "owner()": {
        "details": "Returns the address of the current owner."
      },
      "renounceOwnership()": {
        "details": "Leaves the contract without owner. It will not be possible to call `onlyOwner` functions. Can only be called by the current owner. NOTE: Renouncing ownership will leave the contract without an owner, thereby disabling any functionality that is only available to the owner."
      },
      "setTimestampBuffer(uint256)": {
        "params": {
          "_timestampBuffer": "The timestamp buffer for validated TLS calls"
        }
      },
      "transferOwnership(address)": {
        "details": "Transfers ownership of the contract to a new account (`newOwner`). Can only be called by the current owner."
      }
    },
    "version": 1
  },
  "userdoc": {
    "kind": "user",
    "methods": {
      "setTimestampBuffer(uint256)": {
        "notice": "ONLY OWNER: Sets the timestamp buffer for validated TLS calls. This is the amount of time in seconds that the timestamp can be off by and still be considered valid. Necessary to build in flexibility with L2 timestamps."
      }
    },
    "version": 1
  },
  "storageLayout": {
    "storage": [
      {
        "astId": 7,
        "contract": "contracts/ramps/wise/WiseAccountRegistrationProcessor.sol:WiseAccountRegistrationProcessor",
        "label": "_owner",
        "offset": 0,
        "slot": "0",
        "type": "t_address"
      },
      {
        "astId": 5432,
        "contract": "contracts/ramps/wise/WiseAccountRegistrationProcessor.sol:WiseAccountRegistrationProcessor",
        "label": "endpoint",
        "offset": 0,
        "slot": "1",
        "type": "t_string_storage"
      },
      {
        "astId": 5434,
        "contract": "contracts/ramps/wise/WiseAccountRegistrationProcessor.sol:WiseAccountRegistrationProcessor",
        "label": "host",
        "offset": 0,
        "slot": "2",
        "type": "t_string_storage"
      },
      {
        "astId": 5437,
        "contract": "contracts/ramps/wise/WiseAccountRegistrationProcessor.sol:WiseAccountRegistrationProcessor",
        "label": "nullifierRegistry",
        "offset": 0,
        "slot": "3",
        "type": "t_contract(INullifierRegistry)5831"
      },
      {
        "astId": 5439,
        "contract": "contracts/ramps/wise/WiseAccountRegistrationProcessor.sol:WiseAccountRegistrationProcessor",
        "label": "timestampBuffer",
        "offset": 0,
        "slot": "4",
        "type": "t_uint256"
      },
      {
        "astId": 17781,
        "contract": "contracts/ramps/wise/WiseAccountRegistrationProcessor.sol:WiseAccountRegistrationProcessor",
        "label": "verifierSigningKey",
        "offset": 0,
        "slot": "5",
        "type": "t_address"
      }
    ],
    "types": {
      "t_address": {
        "encoding": "inplace",
        "label": "address",
        "numberOfBytes": "20"
      },
      "t_contract(INullifierRegistry)5831": {
        "encoding": "inplace",
        "label": "contract INullifierRegistry",
        "numberOfBytes": "20"
      },
      "t_string_storage": {
        "encoding": "bytes",
        "label": "string",
        "numberOfBytes": "32"
      },
      "t_uint256": {
        "encoding": "inplace",
        "label": "uint256",
        "numberOfBytes": "32"
      }
    }
  }
}