{
  "address": "0xEF14b8a0196002dA629c1eC585371274FA9Da7d8",
  "abi": [
    {
      "inputs": [
        {
          "internalType": "address",
          "name": "_ramp",
          "type": "address"
        },
        {
          "internalType": "address",
          "name": "_verifierSigningKey",
          "type": "address"
        },
        {
          "internalType": "contract INullifierRegistry",
          "name": "_nullifierRegistry",
          "type": "address"
        },
        {
          "internalType": "uint256",
          "name": "_timestampBuffer",
          "type": "uint256"
        },
        {
          "internalType": "string",
          "name": "_endpoint",
          "type": "string"
        },
        {
          "internalType": "string",
          "name": "_host",
          "type": "string"
        }
      ],
      "stateMutability": "nonpayable",
      "type": "constructor"
    },
    {
      "anonymous": false,
      "inputs": [
        {
          "indexed": true,
          "internalType": "address",
          "name": "previousOwner",
          "type": "address"
        },
        {
          "indexed": true,
          "internalType": "address",
          "name": "newOwner",
          "type": "address"
        }
      ],
      "name": "OwnershipTransferred",
      "type": "event"
    },
    {
      "anonymous": false,
      "inputs": [
        {
          "indexed": false,
          "internalType": "address",
          "name": "_verifierSigningKey",
          "type": "address"
        }
      ],
      "name": "VerifierSigningKeySet",
      "type": "event"
    },
    {
      "inputs": [],
      "name": "endpoint",
      "outputs": [
        {
          "internalType": "string",
          "name": "",
          "type": "string"
        }
      ],
      "stateMutability": "view",
      "type": "function"
    },
    {
      "inputs": [],
      "name": "host",
      "outputs": [
        {
          "internalType": "string",
          "name": "",
          "type": "string"
        }
      ],
      "stateMutability": "view",
      "type": "function"
    },
    {
      "inputs": [],
      "name": "nullifierRegistry",
      "outputs": [
        {
          "internalType": "contract INullifierRegistry",
          "name": "",
          "type": "address"
        }
      ],
      "stateMutability": "view",
      "type": "function"
    },
    {
      "inputs": [],
      "name": "owner",
      "outputs": [
        {
          "internalType": "address",
          "name": "",
          "type": "address"
        }
      ],
      "stateMutability": "view",
      "type": "function"
    },
    {
      "inputs": [
        {
          "components": [
            {
              "components": [
                {
                  "internalType": "string",
                  "name": "endpoint",
                  "type": "string"
                },
                {
                  "internalType": "string",
                  "name": "host",
                  "type": "string"
                },
                {
                  "internalType": "string",
                  "name": "profileId",
                  "type": "string"
                },
                {
                  "internalType": "string",
                  "name": "mcAccountId",
                  "type": "string"
                }
              ],
              "internalType": "struct IWiseOffRamperRegistrationProcessor.OffRamperRegistrationData",
              "name": "public_values",
              "type": "tuple"
            },
            {
              "internalType": "bytes",
              "name": "proof",
              "type": "bytes"
            }
          ],
          "internalType": "struct IWiseOffRamperRegistrationProcessor.OffRamperRegistrationProof",
          "name": "_proof",
          "type": "tuple"
        }
      ],
      "name": "processOffRamperProof",
      "outputs": [
        {
          "internalType": "bytes32",
          "name": "onRampId",
          "type": "bytes32"
        },
        {
          "internalType": "bytes32",
          "name": "offRampId",
          "type": "bytes32"
        }
      ],
      "stateMutability": "nonpayable",
      "type": "function"
    },
    {
      "inputs": [],
      "name": "ramp",
      "outputs": [
        {
          "internalType": "address",
          "name": "",
          "type": "address"
        }
      ],
      "stateMutability": "view",
      "type": "function"
    },
    {
      "inputs": [],
      "name": "renounceOwnership",
      "outputs": [],
      "stateMutability": "nonpayable",
      "type": "function"
    },
    {
      "inputs": [
        {
          "internalType": "uint256",
          "name": "_timestampBuffer",
          "type": "uint256"
        }
      ],
      "name": "setTimestampBuffer",
      "outputs": [],
      "stateMutability": "nonpayable",
      "type": "function"
    },
    {
      "inputs": [
        {
          "internalType": "address",
          "name": "_verifierSigningKey",
          "type": "address"
        }
      ],
      "name": "setVerifierSigningKey",
      "outputs": [],
      "stateMutability": "nonpayable",
      "type": "function"
    },
    {
      "inputs": [],
      "name": "timestampBuffer",
      "outputs": [
        {
          "internalType": "uint256",
          "name": "",
          "type": "uint256"
        }
      ],
      "stateMutability": "view",
      "type": "function"
    },
    {
      "inputs": [
        {
          "internalType": "address",
          "name": "newOwner",
          "type": "address"
        }
      ],
      "name": "transferOwnership",
      "outputs": [],
      "stateMutability": "nonpayable",
      "type": "function"
    },
    {
      "inputs": [],
      "name": "verifierSigningKey",
      "outputs": [
        {
          "internalType": "address",
          "name": "",
          "type": "address"
        }
      ],
      "stateMutability": "view",
      "type": "function"
    }
  ],
  "transactionHash": "0xbb38115b301ca363807758bf3b9bde6174aab824ccecf2c09baab049fbc74355",
  "args": [
    "0x7eDD66B19A22293af86A2d96761FD7146BA3fF6c",
    "0x166338393593e85bfde8B65358Ec5801A3445D12",
    "0xAf0196f22a1383B779E3f833AD35BFf38722c8AD",
    "0",
    "GET https://wise.com/gateway/v3/profiles/*/transfers",
    "wise.com"
  ],
  "numDeployments": 1,
  "solcInputHash": "6e4c0155cf194d54974389502ced73c2",
  "bytecode": "0x60a06040523480156200001157600080fd5b5060405162001bef38038062001bef8339810160408190526200003491620001e2565b85848484846200004433620000b4565b6001600160a01b03851660805260016200005f838262000324565b5060026200006e828262000324565b5050600380546001600160a01b039485166001600160a01b03199182161790915560049290925550600580549890921697169690961790955550620003f0945050505050565b600080546001600160a01b038381166001600160a01b0319831681178455604051919092169283917f8be0079c531659141344cd1fd0a4f28419497f9722a3daafe3b4186f6b6457e09190a35050565b6001600160a01b03811681146200011a57600080fd5b50565b634e487b7160e01b600052604160045260246000fd5b600082601f8301126200014557600080fd5b81516001600160401b03808211156200016257620001626200011d565b604051601f8301601f19908116603f011681019082821181831017156200018d576200018d6200011d565b81604052838152602092508683858801011115620001aa57600080fd5b600091505b83821015620001ce5785820183015181830184015290820190620001af565b600093810190920192909252949350505050565b60008060008060008060c08789031215620001fc57600080fd5b8651620002098162000104565b60208801519096506200021c8162000104565b60408801519095506200022f8162000104565b6060880151608089015191955093506001600160401b03808211156200025457600080fd5b620002628a838b0162000133565b935060a08901519150808211156200027957600080fd5b506200028889828a0162000133565b9150509295509295509295565b600181811c90821680620002aa57607f821691505b602082108103620002cb57634e487b7160e01b600052602260045260246000fd5b50919050565b601f8211156200031f57600081815260208120601f850160051c81016020861015620002fa5750805b601f850160051c820191505b818110156200031b5782815560010162000306565b5050505b505050565b81516001600160401b038111156200034057620003406200011d565b620003588162000351845462000295565b84620002d1565b602080601f831160018114620003905760008415620003775750858301515b600019600386901b1c1916600185901b1785556200031b565b600085815260208120601f198616915b82811015620003c157888601518255948401946001909101908401620003a0565b5085821015620003e05787850151600019600388901b60f8161c191681555b5050505050600190811b01905550565b6080516117dd620004126000396000818160ee015261023d01526117dd6000f3fe608060405234801561001057600080fd5b50600436106100b45760003560e01c80638da5cb5b116100715780638da5cb5b1461016a578063b2a3fda41461017b578063b870676c1461018e578063dbac5821146101a1578063f2fde38b146101b8578063f437bc59146101cb57600080fd5b80630fa4ed4d146100b957806315d276e1146100e95780634e06a32b14610110578063508c2093146101255780635e280f111461014d578063715018a614610162575b600080fd5b6005546100cc906001600160a01b031681565b6040516001600160a01b0390911681526020015b60405180910390f35b6100cc7f000000000000000000000000000000000000000000000000000000000000000081565b61012361011e3660046111c8565b6101d3565b005b6101386101333660046111f1565b61022f565b604080519283526020830191909152016100e0565b61015561060e565b6040516100e0919061127c565b61012361069c565b6000546001600160a01b03166100cc565b61012361018936600461128f565b6106b0565b6003546100cc906001600160a01b031681565b6101aa60045481565b6040519081526020016100e0565b6101236101c63660046111c8565b6106bd565b610155610736565b6101db610743565b600580546001600160a01b0319166001600160a01b0383169081179091556040519081527fb8603ceabf8ee4633f1fd8c0ae9e0e64f2fc2fea5cb79a96c18efd007aab6f969060200160405180910390a150565b600080336001600160a01b037f000000000000000000000000000000000000000000000000000000000000000016146102af5760405162461bcd60e51b815260206004820181905260248201527f4f6e6c792052616d702063616e2063616c6c20746869732066756e6374696f6e60448201526064015b60405180910390fd5b61030c6102bc84806112a8565b6102c590611394565b6102d2602086018661144b565b8080601f01602080910402602001604051908101604052809392919081815260200183838082843760009201919091525061079d92505050565b6040805180820190915260018152601560f91b6020820152610462906104149061033686806112a8565b61034490604081019061144b565b8080601f01602080910402602001604051908101604052809392919081815260200183838082843760009201919091525050600180549092506103879150611492565b80601f01602080910402602001604051908101604052809291908181526020018280546103b390611492565b80156104005780601f106103d557610100808354040283529160200191610400565b820191906000526020600020905b8154815290600101906020018083116103e357829003601f168201915b50505050506107f79092919063ffffffff16565b61041e85806112a8565b610428908061144b565b8080601f01602080910402602001604051908101604052809392919081815260200183838082843760009201919091525061087c92505050565b6105466002805461047290611492565b80601f016020809104026020016040519081016040528092919081815260200182805461049e90611492565b80156104eb5780601f106104c0576101008083540402835291602001916104eb565b820191906000526020600020905b8154815290600101906020018083116104ce57829003601f168201915b506104fe93508892508291506112a89050565b61050c90602081019061144b565b8080601f01602080910402602001604051908101604052809392919081815260200183838082843760009201919091525061091792505050565b61058d61055384806112a8565b61056190606081019061144b565b6040516020016105729291906114cc565b604051602081830303815290604052805190602001206109b2565b6105e7600061059c85806112a8565b6105aa90604081019061144b565b8080601f0160208091040260200160405190810160405280939291908181526020018383808284376000920191909152509293925050610acd9050565b915061060660006105f885806112a8565b6105aa90606081019061144b565b919391925050565b6001805461061b90611492565b80601f016020809104026020016040519081016040528092919081815260200182805461064790611492565b80156106945780601f1061066957610100808354040283529160200191610694565b820191906000526020600020905b81548152906001019060200180831161067757829003601f168201915b505050505081565b6106a4610743565b6106ae6000610ae7565b565b6106b8610743565b600455565b6106c5610743565b6001600160a01b03811661072a5760405162461bcd60e51b815260206004820152602660248201527f4f776e61626c653a206e6577206f776e657220697320746865207a65726f206160448201526564647265737360d01b60648201526084016102a6565b61073381610ae7565b50565b6002805461061b90611492565b6000546001600160a01b031633146106ae5760405162461bcd60e51b815260206004820181905260248201527f4f776e61626c653a2063616c6c6572206973206e6f7420746865206f776e657260448201526064016102a6565b6107a78282610b37565b6107f35760405162461bcd60e51b815260206004820152601f60248201527f496e76616c6964207369676e61747572652066726f6d2076657269666965720060448201526064016102a6565b5050565b6060838360006108078383610b95565b9050600019810361081d57869350505050610875565b600061082b88600084610c74565b90506000610847898551856108409190611534565b8751610c74565b905081878260405160200161085e93929190611547565b604051602081830303815290604052955050505050505b9392505050565b8060405160200161088d919061127c565b60405160208183030381529060405280519060200120826040516020016108b4919061127c565b60405160208183030381529060405280519060200120146107f35760405162461bcd60e51b815260206004820181905260248201527f456e64706f696e7420646f6573206e6f74206d6174636820657870656374656460448201526064016102a6565b80604051602001610928919061127c565b604051602081830303815290604052805190602001208260405160200161094f919061127c565b60405160208183030381529060405280519060200120146107f35760405162461bcd60e51b815260206004820152601c60248201527f486f737420646f6573206e6f74206d617463682065787065637465640000000060448201526064016102a6565b60035460405163169394bb60e01b8152600481018390526001600160a01b039091169063169394bb90602401602060405180830381865afa1580156109fb573d6000803e3d6000fd5b505050506040513d601f19601f82011682018060405250810190610a1f919061158a565b15610a6c5760405162461bcd60e51b815260206004820152601f60248201527f4e756c6c69666965722068617320616c7265616479206265656e20757365640060448201526064016102a6565b600354604051632dea6f9960e11b8152600481018390526001600160a01b0390911690635bd4df3290602401600060405180830381600087803b158015610ab257600080fd5b505af1158015610ac6573d6000803e3d6000fd5b5050505050565b6000610ade83601760f91b84610d41565b90505b92915050565b600080546001600160a01b038381166001600160a01b0319831681178455604051919092169283917f8be0079c531659141344cd1fd0a4f28419497f9722a3daafe3b4186f6b6457e09190a35050565b6000808360000151846020015185604001518660600151604051602001610b6194939291906115ac565b60408051601f19818403018152919052600554909150610b8d90829085906001600160a01b0316610f1e565b949350505050565b80518251600091849184911115610bb25760001992505050610ae1565b60005b81518351610bc39190611604565b8111610c6757600160005b8351811015610c4257838181518110610be957610be9611617565b01602001516001600160f81b03191685610c038386611534565b81518110610c1357610c13611617565b01602001516001600160f81b03191614610c305760009150610c42565b80610c3a8161162d565b915050610bce565b508015610c5457509250610ae1915050565b5080610c5f8161162d565b915050610bb5565b5060001995945050505050565b6060836000610c838585611604565b67ffffffffffffffff811115610c9b57610c9b6112c8565b6040519080825280601f01601f191660200182016040528015610cc5576020820181803683370190505b509050845b84811015610d3757828181518110610ce457610ce4611617565b01602001516001600160f81b03191682610cfe8884611604565b81518110610d0e57610d0e611617565b60200101906001600160f81b031916908160001a90535080610d2f8161162d565b915050610cca565b5095945050505050565b600083818080805b8451811015610e9757603060f81b858281518110610d6957610d69611617565b01602001516001600160f81b03191610801590610daa5750603960f81b858281518110610d9857610d98611617565b01602001516001600160f81b03191611155b15610ded576030858281518110610dc357610dc3611617565b0160200151610dd5919060f81c611604565b610de085600a611646565b610dea9190611534565b93505b8115610e015782610dfd8161162d565b9350505b876001600160f81b031916858281518110610e1e57610e1e611617565b01602001516001600160f81b03191603610e85578115610e805760405162461bcd60e51b815260206004820152601c60248201527f537472696e6720686173206d756c7469706c6520646563696d616c730000000060448201526064016102a6565b600191505b80610e8f8161162d565b915050610d49565b5085821115610ef35760405162461bcd60e51b815260206004820152602260248201527f537472696e672068617320746f6f206d616e7920646563696d616c20706c6163604482015261657360f01b60648201526084016102a6565b610efd8287611604565b610f0890600a611741565b610f129084611646565b98975050505050505050565b825160208401207f19457468657265756d205369676e6564204d6573736167653a0a3332000000006000908152601c91909152603c8120610f696001600160a01b0384168286610f72565b95945050505050565b6000806000610f818585610fd3565b90925090506000816004811115610f9a57610f9a61174d565b148015610fb85750856001600160a01b0316826001600160a01b0316145b80610fc95750610fc9868686611018565b9695505050505050565b60008082516041036110095760208301516040840151606085015160001a610ffd87828585611104565b94509450505050611011565b506000905060025b9250929050565b6000806000856001600160a01b0316631626ba7e60e01b8686604051602401611042929190611763565b60408051601f198184030181529181526020820180516001600160e01b03166001600160e01b0319909416939093179092529051611080919061177c565b600060405180830381855afa9150503d80600081146110bb576040519150601f19603f3d011682016040523d82523d6000602084013e6110c0565b606091505b50915091508180156110d457506020815110155b8015610fc957508051630b135d3f60e11b906110f9908301602090810190840161178e565b149695505050505050565b6000807f7fffffffffffffffffffffffffffffff5d576e7357a4501ddfe92f46681b20a083111561113b57506000905060036111bf565b6040805160008082526020820180845289905260ff881692820192909252606081018690526080810185905260019060a0016020604051602081039080840390855afa15801561118f573d6000803e3d6000fd5b5050604051601f1901519150506001600160a01b0381166111b8576000600192509250506111bf565b9150600090505b94509492505050565b6000602082840312156111da57600080fd5b81356001600160a01b038116811461087557600080fd5b60006020828403121561120357600080fd5b813567ffffffffffffffff81111561121a57600080fd5b82016040818503121561087557600080fd5b60005b8381101561124757818101518382015260200161122f565b50506000910152565b6000815180845261126881602086016020860161122c565b601f01601f19169290920160200192915050565b602081526000610ade6020830184611250565b6000602082840312156112a157600080fd5b5035919050565b60008235607e198336030181126112be57600080fd5b9190910192915050565b634e487b7160e01b600052604160045260246000fd5b6040516080810167ffffffffffffffff81118282101715611301576113016112c8565b60405290565b600082601f83011261131857600080fd5b813567ffffffffffffffff80821115611333576113336112c8565b604051601f8301601f19908116603f0116810190828211818310171561135b5761135b6112c8565b8160405283815286602085880101111561137457600080fd5b836020870160208301376000602085830101528094505050505092915050565b6000608082360312156113a657600080fd5b6113ae6112de565b823567ffffffffffffffff808211156113c657600080fd5b6113d236838701611307565b835260208501359150808211156113e857600080fd5b6113f436838701611307565b6020840152604085013591508082111561140d57600080fd5b61141936838701611307565b6040840152606085013591508082111561143257600080fd5b5061143f36828601611307565b60608301525092915050565b6000808335601e1984360301811261146257600080fd5b83018035915067ffffffffffffffff82111561147d57600080fd5b60200191503681900382131561101157600080fd5b600181811c908216806114a657607f821691505b6020821081036114c657634e487b7160e01b600052602260045260246000fd5b50919050565b60408152600c60408201526b3932b3b4b9ba3930ba34b7b760a11b606082015260806020820152816080820152818360a0830137600081830160a090810191909152601f909201601f19160101919050565b634e487b7160e01b600052601160045260246000fd5b80820180821115610ae157610ae161151e565b6000845161155981846020890161122c565b84519083019061156d81836020890161122c565b845191019061158081836020880161122c565b0195945050505050565b60006020828403121561159c57600080fd5b8151801515811461087557600080fd5b6080815260006115bf6080830187611250565b82810360208401526115d18187611250565b905082810360408401526115e58186611250565b905082810360608401526115f98185611250565b979650505050505050565b81810381811115610ae157610ae161151e565b634e487b7160e01b600052603260045260246000fd5b60006001820161163f5761163f61151e565b5060010190565b8082028115828204841417610ae157610ae161151e565b600181815b8085111561169857816000190482111561167e5761167e61151e565b8085161561168b57918102915b93841c9390800290611662565b509250929050565b6000826116af57506001610ae1565b816116bc57506000610ae1565b81600181146116d257600281146116dc576116f8565b6001915050610ae1565b60ff8411156116ed576116ed61151e565b50506001821b610ae1565b5060208310610133831016604e8410600b841016171561171b575081810a610ae1565b611725838361165d565b80600019048211156117395761173961151e565b029392505050565b6000610ade83836116a0565b634e487b7160e01b600052602160045260246000fd5b828152604060208201526000610b8d6040830184611250565b600082516112be81846020870161122c565b6000602082840312156117a057600080fd5b505191905056fea26469706673582212209bd88da358d8a452c60dda410dfb545d485aa5b27207d0c9e48e5fc09a20a22364736f6c63430008120033",
  "devdoc": {
    "kind": "dev",
    "methods": {
      "owner()": {
        "details": "Returns the address of the current owner."
      },
      "renounceOwnership()": {
        "details": "Leaves the contract without owner. It will not be possible to call `onlyOwner` functions. Can only be called by the current owner. NOTE: Renouncing ownership will leave the contract without an owner, thereby disabling any functionality that is only available to the owner."
      },
      "setTimestampBuffer(uint256)": {
        "params": {
          "_timestampBuffer": "The timestamp buffer for validated TLS calls"
        }
      },
      "transferOwnership(address)": {
        "details": "Transfers ownership of the contract to a new account (`newOwner`). Can only be called by the current owner."
      }
    },
    "version": 1
  },
  "userdoc": {
    "kind": "user",
    "methods": {
      "setTimestampBuffer(uint256)": {
        "notice": "ONLY OWNER: Sets the timestamp buffer for validated TLS calls. This is the amount of time in seconds that the timestamp can be off by and still be considered valid. Necessary to build in flexibility with L2 timestamps."
      }
    },
    "version": 1
  },
  "storageLayout": {
    "storage": [
      {
        "astId": 7,
        "contract": "contracts/ramps/wise/WiseOffRamperRegistrationProcessor.sol:WiseOffRamperRegistrationProcessor",
        "label": "_owner",
        "offset": 0,
        "slot": "0",
        "type": "t_address"
      },
      {
        "astId": 5432,
        "contract": "contracts/ramps/wise/WiseOffRamperRegistrationProcessor.sol:WiseOffRamperRegistrationProcessor",
        "label": "endpoint",
        "offset": 0,
        "slot": "1",
        "type": "t_string_storage"
      },
      {
        "astId": 5434,
        "contract": "contracts/ramps/wise/WiseOffRamperRegistrationProcessor.sol:WiseOffRamperRegistrationProcessor",
        "label": "host",
        "offset": 0,
        "slot": "2",
        "type": "t_string_storage"
      },
      {
        "astId": 5437,
        "contract": "contracts/ramps/wise/WiseOffRamperRegistrationProcessor.sol:WiseOffRamperRegistrationProcessor",
        "label": "nullifierRegistry",
        "offset": 0,
        "slot": "3",
        "type": "t_contract(INullifierRegistry)5831"
      },
      {
        "astId": 5439,
        "contract": "contracts/ramps/wise/WiseOffRamperRegistrationProcessor.sol:WiseOffRamperRegistrationProcessor",
        "label": "timestampBuffer",
        "offset": 0,
        "slot": "4",
        "type": "t_uint256"
      },
      {
        "astId": 18767,
        "contract": "contracts/ramps/wise/WiseOffRamperRegistrationProcessor.sol:WiseOffRamperRegistrationProcessor",
        "label": "verifierSigningKey",
        "offset": 0,
        "slot": "5",
        "type": "t_address"
      }
    ],
    "types": {
      "t_address": {
        "encoding": "inplace",
        "label": "address",
        "numberOfBytes": "20"
      },
      "t_contract(INullifierRegistry)5831": {
        "encoding": "inplace",
        "label": "contract INullifierRegistry",
        "numberOfBytes": "20"
      },
      "t_string_storage": {
        "encoding": "bytes",
        "label": "string",
        "numberOfBytes": "32"
      },
      "t_uint256": {
        "encoding": "inplace",
        "label": "uint256",
        "numberOfBytes": "32"
      }
    }
  }
}