{
  "address": "0x5Fb325174fAFb22C46f7796Ca129980aA16F3405",
  "abi": [
    {
      "inputs": [
        {
          "internalType": "address",
          "name": "_owner",
          "type": "address"
        },
        {
          "internalType": "uint256",
          "name": "_fee",
          "type": "uint256"
        },
        {
          "internalType": "address payable",
          "name": "_feeRecipient",
          "type": "address"
        },
        {
          "internalType": "uint256",
          "name": "_bidSettlementPeriod",
          "type": "uint256"
        },
        {
          "internalType": "uint256",
          "name": "_bidRefundPeriod",
          "type": "uint256"
        },
        {
          "internalType": "address[]",
          "name": "_allowedAddresses",
          "type": "address[]"
        }
      ],
      "stateMutability": "nonpayable",
      "type": "constructor"
    },
    {
      "anonymous": false,
      "inputs": [
        {
          "indexed": true,
          "internalType": "address",
          "name": "allowedAddress",
          "type": "address"
        }
      ],
      "name": "AddressAddedToAllowlist",
      "type": "event"
    },
    {
      "anonymous": false,
      "inputs": [
        {
          "indexed": true,
          "internalType": "address",
          "name": "allowedAddress",
          "type": "address"
        }
      ],
      "name": "AddressRemovedFromAllowlist",
      "type": "event"
    },
    {
      "anonymous": false,
      "inputs": [],
      "name": "AllowlistDisabled",
      "type": "event"
    },
    {
      "anonymous": false,
      "inputs": [],
      "name": "AllowlistEnabled",
      "type": "event"
    },
    {
      "anonymous": false,
      "inputs": [
        {
          "indexed": true,
          "internalType": "uint256",
          "name": "bidId",
          "type": "uint256"
        },
        {
          "indexed": true,
          "internalType": "uint256",
          "name": "listingId",
          "type": "uint256"
        },
        {
          "indexed": true,
          "internalType": "address",
          "name": "buyer",
          "type": "address"
        },
        {
          "indexed": false,
          "internalType": "uint256",
          "name": "price",
          "type": "uint256"
        }
      ],
      "name": "BidCreated",
      "type": "event"
    },
    {
      "anonymous": false,
      "inputs": [
        {
          "indexed": true,
          "internalType": "uint256",
          "name": "bidId",
          "type": "uint256"
        },
        {
          "indexed": true,
          "internalType": "address",
          "name": "buyer",
          "type": "address"
        },
        {
          "indexed": false,
          "internalType": "uint256",
          "name": "newPrice",
          "type": "uint256"
        }
      ],
      "name": "BidPriceIncreased",
      "type": "event"
    },
    {
      "anonymous": false,
      "inputs": [
        {
          "indexed": false,
          "internalType": "uint256",
          "name": "newBidRefundPeriod",
          "type": "uint256"
        }
      ],
      "name": "BidRefundPeriodUpdated",
      "type": "event"
    },
    {
      "anonymous": false,
      "inputs": [
        {
          "indexed": false,
          "internalType": "uint256",
          "name": "newBidSettlementPeriod",
          "type": "uint256"
        }
      ],
      "name": "BidSettlementPeriodUpdated",
      "type": "event"
    },
    {
      "anonymous": false,
      "inputs": [
        {
          "indexed": true,
          "internalType": "uint256",
          "name": "bidId",
          "type": "uint256"
        },
        {
          "indexed": true,
          "internalType": "address",
          "name": "buyer",
          "type": "address"
        },
        {
          "indexed": false,
          "internalType": "uint256",
          "name": "amount",
          "type": "uint256"
        }
      ],
      "name": "BidWithdrawn",
      "type": "event"
    },
    {
      "anonymous": false,
      "inputs": [
        {
          "indexed": true,
          "internalType": "address",
          "name": "newFeeRecipient",
          "type": "address"
        }
      ],
      "name": "FeeRecipientUpdated",
      "type": "event"
    },
    {
      "anonymous": false,
      "inputs": [
        {
          "indexed": false,
          "internalType": "uint256",
          "name": "newFee",
          "type": "uint256"
        }
      ],
      "name": "FeeUpdated",
      "type": "event"
    },
    {
      "anonymous": false,
      "inputs": [
        {
          "indexed": true,
          "internalType": "uint256",
          "name": "listingId",
          "type": "uint256"
        },
        {
          "indexed": true,
          "internalType": "address",
          "name": "seller",
          "type": "address"
        },
        {
          "indexed": true,
          "internalType": "bytes32",
          "name": "domainId",
          "type": "bytes32"
        },
        {
          "indexed": false,
          "internalType": "bytes32",
          "name": "dkimKeyHash",
          "type": "bytes32"
        },
        {
          "indexed": false,
          "internalType": "uint256",
          "name": "askPrice",
          "type": "uint256"
        },
        {
          "indexed": false,
          "internalType": "uint256",
          "name": "minBidPrice",
          "type": "uint256"
        },
        {
          "indexed": false,
          "internalType": "address",
          "name": "saleEthRecipient",
          "type": "address"
        }
      ],
      "name": "ListingCreated",
      "type": "event"
    },
    {
      "anonymous": false,
      "inputs": [
        {
          "indexed": true,
          "internalType": "uint256",
          "name": "listingId",
          "type": "uint256"
        },
        {
          "indexed": true,
          "internalType": "address",
          "name": "seller",
          "type": "address"
        }
      ],
      "name": "ListingDeleted",
      "type": "event"
    },
    {
      "anonymous": false,
      "inputs": [
        {
          "indexed": true,
          "internalType": "uint256",
          "name": "listingId",
          "type": "uint256"
        },
        {
          "indexed": true,
          "internalType": "address",
          "name": "seller",
          "type": "address"
        },
        {
          "indexed": false,
          "internalType": "uint256",
          "name": "newAskPrice",
          "type": "uint256"
        },
        {
          "indexed": false,
          "internalType": "address",
          "name": "saleEthRecipient",
          "type": "address"
        }
      ],
      "name": "ListingUpdated",
      "type": "event"
    },
    {
      "anonymous": false,
      "inputs": [
        {
          "indexed": true,
          "internalType": "contract IKeyHashAdapterV2",
          "name": "newMailServerKeyHashAdapter",
          "type": "address"
        }
      ],
      "name": "MailServerKeyHashAdapterUpdated",
      "type": "event"
    },
    {
      "anonymous": false,
      "inputs": [
        {
          "indexed": true,
          "internalType": "address",
          "name": "previousOwner",
          "type": "address"
        },
        {
          "indexed": true,
          "internalType": "address",
          "name": "newOwner",
          "type": "address"
        }
      ],
      "name": "OwnershipTransferred",
      "type": "event"
    },
    {
      "anonymous": false,
      "inputs": [
        {
          "indexed": false,
          "internalType": "address",
          "name": "account",
          "type": "address"
        }
      ],
      "name": "Paused",
      "type": "event"
    },
    {
      "anonymous": false,
      "inputs": [
        {
          "indexed": true,
          "internalType": "uint256",
          "name": "bidId",
          "type": "uint256"
        },
        {
          "indexed": true,
          "internalType": "address",
          "name": "buyer",
          "type": "address"
        }
      ],
      "name": "RefundInitiated",
      "type": "event"
    },
    {
      "anonymous": false,
      "inputs": [
        {
          "indexed": true,
          "internalType": "uint256",
          "name": "bidId",
          "type": "uint256"
        },
        {
          "indexed": true,
          "internalType": "uint256",
          "name": "listingId",
          "type": "uint256"
        },
        {
          "indexed": false,
          "internalType": "uint256",
          "name": "priceNetFees",
          "type": "uint256"
        },
        {
          "indexed": false,
          "internalType": "uint256",
          "name": "fees",
          "type": "uint256"
        }
      ],
      "name": "SaleFinalized",
      "type": "event"
    },
    {
      "anonymous": false,
      "inputs": [
        {
          "indexed": true,
          "internalType": "contract ITransferDomainProcessor",
          "name": "newTransferDomainProcessor",
          "type": "address"
        }
      ],
      "name": "TransferDomainProcessorUpdated",
      "type": "event"
    },
    {
      "anonymous": false,
      "inputs": [
        {
          "indexed": false,
          "internalType": "address",
          "name": "account",
          "type": "address"
        }
      ],
      "name": "Unpaused",
      "type": "event"
    },
    {
      "inputs": [
        {
          "internalType": "address[]",
          "name": "_allowedAddresses",
          "type": "address[]"
        }
      ],
      "name": "addAddressesToAllowlist",
      "outputs": [],
      "stateMutability": "nonpayable",
      "type": "function"
    },
    {
      "inputs": [
        {
          "internalType": "uint256",
          "name": "",
          "type": "uint256"
        }
      ],
      "name": "allowedAddresses",
      "outputs": [
        {
          "internalType": "address",
          "name": "",
          "type": "address"
        }
      ],
      "stateMutability": "view",
      "type": "function"
    },
    {
      "inputs": [],
      "name": "bidCounter",
      "outputs": [
        {
          "internalType": "uint256",
          "name": "",
          "type": "uint256"
        }
      ],
      "stateMutability": "view",
      "type": "function"
    },
    {
      "inputs": [],
      "name": "bidRefundPeriod",
      "outputs": [
        {
          "internalType": "uint256",
          "name": "",
          "type": "uint256"
        }
      ],
      "stateMutability": "view",
      "type": "function"
    },
    {
      "inputs": [],
      "name": "bidSettlementPeriod",
      "outputs": [
        {
          "internalType": "uint256",
          "name": "",
          "type": "uint256"
        }
      ],
      "stateMutability": "view",
      "type": "function"
    },
    {
      "inputs": [
        {
          "internalType": "uint256",
          "name": "",
          "type": "uint256"
        }
      ],
      "name": "bids",
      "outputs": [
        {
          "internalType": "address",
          "name": "buyer",
          "type": "address"
        },
        {
          "internalType": "uint256",
          "name": "listingId",
          "type": "uint256"
        },
        {
          "internalType": "string",
          "name": "encryptedBuyerId",
          "type": "string"
        },
        {
          "internalType": "bytes32",
          "name": "buyerIdHash",
          "type": "bytes32"
        },
        {
          "internalType": "uint256",
          "name": "createdAt",
          "type": "uint256"
        },
        {
          "internalType": "uint256",
          "name": "expiryTimestamp",
          "type": "uint256"
        },
        {
          "internalType": "uint256",
          "name": "price",
          "type": "uint256"
        },
        {
          "internalType": "bool",
          "name": "refundInitiated",
          "type": "bool"
        }
      ],
      "stateMutability": "view",
      "type": "function"
    },
    {
      "inputs": [
        {
          "internalType": "uint256",
          "name": "_bidId",
          "type": "uint256"
        }
      ],
      "name": "buyerReleaseFunds",
      "outputs": [],
      "stateMutability": "nonpayable",
      "type": "function"
    },
    {
      "inputs": [
        {
          "internalType": "uint256",
          "name": "_listingId",
          "type": "uint256"
        },
        {
          "internalType": "bytes32",
          "name": "_buyerIdHash",
          "type": "bytes32"
        },
        {
          "internalType": "string",
          "name": "_encryptedBuyerId",
          "type": "string"
        }
      ],
      "name": "createBid",
      "outputs": [],
      "stateMutability": "payable",
      "type": "function"
    },
    {
      "inputs": [
        {
          "internalType": "bytes32",
          "name": "_domainId",
          "type": "bytes32"
        },
        {
          "internalType": "uint256",
          "name": "_askPrice",
          "type": "uint256"
        },
        {
          "internalType": "uint256",
          "name": "_minBidPrice",
          "type": "uint256"
        },
        {
          "internalType": "address payable",
          "name": "_saleEthRecipient",
          "type": "address"
        },
        {
          "internalType": "bytes",
          "name": "_encryptionKey",
          "type": "bytes"
        },
        {
          "internalType": "bytes32",
          "name": "_dkimKeyHash",
          "type": "bytes32"
        }
      ],
      "name": "createListing",
      "outputs": [],
      "stateMutability": "nonpayable",
      "type": "function"
    },
    {
      "inputs": [
        {
          "internalType": "uint256",
          "name": "_listingId",
          "type": "uint256"
        }
      ],
      "name": "deleteListing",
      "outputs": [],
      "stateMutability": "nonpayable",
      "type": "function"
    },
    {
      "inputs": [],
      "name": "disableAllowlist",
      "outputs": [],
      "stateMutability": "nonpayable",
      "type": "function"
    },
    {
      "inputs": [
        {
          "internalType": "bytes32",
          "name": "",
          "type": "bytes32"
        }
      ],
      "name": "domainListing",
      "outputs": [
        {
          "internalType": "uint256",
          "name": "",
          "type": "uint256"
        }
      ],
      "stateMutability": "view",
      "type": "function"
    },
    {
      "inputs": [],
      "name": "enableAllowlist",
      "outputs": [],
      "stateMutability": "nonpayable",
      "type": "function"
    },
    {
      "inputs": [],
      "name": "fee",
      "outputs": [
        {
          "internalType": "uint256",
          "name": "",
          "type": "uint256"
        }
      ],
      "stateMutability": "view",
      "type": "function"
    },
    {
      "inputs": [],
      "name": "feeRecipient",
      "outputs": [
        {
          "internalType": "address payable",
          "name": "",
          "type": "address"
        }
      ],
      "stateMutability": "view",
      "type": "function"
    },
    {
      "inputs": [
        {
          "components": [
            {
              "internalType": "uint256[2]",
              "name": "a",
              "type": "uint256[2]"
            },
            {
              "internalType": "uint256[2][2]",
              "name": "b",
              "type": "uint256[2][2]"
            },
            {
              "internalType": "uint256[2]",
              "name": "c",
              "type": "uint256[2]"
            },
            {
              "internalType": "uint256[10]",
              "name": "signals",
              "type": "uint256[10]"
            }
          ],
          "internalType": "struct ITransferDomainProcessor.TransferProof",
          "name": "_proof",
          "type": "tuple"
        }
      ],
      "name": "finalizeSale",
      "outputs": [],
      "stateMutability": "nonpayable",
      "type": "function"
    },
    {
      "inputs": [],
      "name": "getAllowedSellers",
      "outputs": [
        {
          "internalType": "address[]",
          "name": "",
          "type": "address[]"
        }
      ],
      "stateMutability": "view",
      "type": "function"
    },
    {
      "inputs": [
        {
          "internalType": "bytes32",
          "name": "_domainId",
          "type": "bytes32"
        }
      ],
      "name": "getDomainListing",
      "outputs": [
        {
          "components": [
            {
              "internalType": "uint256",
              "name": "listingId",
              "type": "uint256"
            },
            {
              "components": [
                {
                  "internalType": "address",
                  "name": "seller",
                  "type": "address"
                },
                {
                  "internalType": "address payable",
                  "name": "saleEthRecipient",
                  "type": "address"
                },
                {
                  "internalType": "bytes32",
                  "name": "dkimKeyHash",
                  "type": "bytes32"
                },
                {
                  "internalType": "bytes",
                  "name": "encryptionKey",
                  "type": "bytes"
                },
                {
                  "internalType": "bytes32",
                  "name": "domainId",
                  "type": "bytes32"
                },
                {
                  "internalType": "uint256",
                  "name": "createdAt",
                  "type": "uint256"
                },
                {
                  "internalType": "uint256",
                  "name": "askPrice",
                  "type": "uint256"
                },
                {
                  "internalType": "uint256",
                  "name": "minBidPrice",
                  "type": "uint256"
                },
                {
                  "internalType": "bool",
                  "name": "isActive",
                  "type": "bool"
                },
                {
                  "internalType": "uint256[]",
                  "name": "bids",
                  "type": "uint256[]"
                }
              ],
              "internalType": "struct DomainExchange.Listing",
              "name": "listing",
              "type": "tuple"
            }
          ],
          "internalType": "struct DomainExchange.ListingWithId",
          "name": "",
          "type": "tuple"
        }
      ],
      "stateMutability": "view",
      "type": "function"
    },
    {
      "inputs": [
        {
          "internalType": "uint256[]",
          "name": "_listingIds",
          "type": "uint256[]"
        }
      ],
      "name": "getListingBids",
      "outputs": [
        {
          "components": [
            {
              "internalType": "uint256",
              "name": "bidId",
              "type": "uint256"
            },
            {
              "components": [
                {
                  "internalType": "address",
                  "name": "buyer",
                  "type": "address"
                },
                {
                  "internalType": "uint256",
                  "name": "listingId",
                  "type": "uint256"
                },
                {
                  "internalType": "string",
                  "name": "encryptedBuyerId",
                  "type": "string"
                },
                {
                  "internalType": "bytes32",
                  "name": "buyerIdHash",
                  "type": "bytes32"
                },
                {
                  "internalType": "uint256",
                  "name": "createdAt",
                  "type": "uint256"
                },
                {
                  "internalType": "uint256",
                  "name": "expiryTimestamp",
                  "type": "uint256"
                },
                {
                  "internalType": "uint256",
                  "name": "price",
                  "type": "uint256"
                },
                {
                  "internalType": "bool",
                  "name": "refundInitiated",
                  "type": "bool"
                }
              ],
              "internalType": "struct DomainExchange.Bid",
              "name": "bid",
              "type": "tuple"
            }
          ],
          "internalType": "struct DomainExchange.BidWithId[][]",
          "name": "bidInfo",
          "type": "tuple[][]"
        }
      ],
      "stateMutability": "view",
      "type": "function"
    },
    {
      "inputs": [
        {
          "internalType": "uint256[]",
          "name": "_listingIds",
          "type": "uint256[]"
        }
      ],
      "name": "getListings",
      "outputs": [
        {
          "components": [
            {
              "internalType": "uint256",
              "name": "listingId",
              "type": "uint256"
            },
            {
              "components": [
                {
                  "internalType": "address",
                  "name": "seller",
                  "type": "address"
                },
                {
                  "internalType": "address payable",
                  "name": "saleEthRecipient",
                  "type": "address"
                },
                {
                  "internalType": "bytes32",
                  "name": "dkimKeyHash",
                  "type": "bytes32"
                },
                {
                  "internalType": "bytes",
                  "name": "encryptionKey",
                  "type": "bytes"
                },
                {
                  "internalType": "bytes32",
                  "name": "domainId",
                  "type": "bytes32"
                },
                {
                  "internalType": "uint256",
                  "name": "createdAt",
                  "type": "uint256"
                },
                {
                  "internalType": "uint256",
                  "name": "askPrice",
                  "type": "uint256"
                },
                {
                  "internalType": "uint256",
                  "name": "minBidPrice",
                  "type": "uint256"
                },
                {
                  "internalType": "bool",
                  "name": "isActive",
                  "type": "bool"
                },
                {
                  "internalType": "uint256[]",
                  "name": "bids",
                  "type": "uint256[]"
                }
              ],
              "internalType": "struct DomainExchange.Listing",
              "name": "listing",
              "type": "tuple"
            }
          ],
          "internalType": "struct DomainExchange.ListingWithId[]",
          "name": "listingInfo",
          "type": "tuple[]"
        }
      ],
      "stateMutability": "view",
      "type": "function"
    },
    {
      "inputs": [
        {
          "internalType": "address",
          "name": "_user",
          "type": "address"
        }
      ],
      "name": "getUserBids",
      "outputs": [
        {
          "components": [
            {
              "internalType": "uint256",
              "name": "bidId",
              "type": "uint256"
            },
            {
              "components": [
                {
                  "internalType": "address",
                  "name": "buyer",
                  "type": "address"
                },
                {
                  "internalType": "uint256",
                  "name": "listingId",
                  "type": "uint256"
                },
                {
                  "internalType": "string",
                  "name": "encryptedBuyerId",
                  "type": "string"
                },
                {
                  "internalType": "bytes32",
                  "name": "buyerIdHash",
                  "type": "bytes32"
                },
                {
                  "internalType": "uint256",
                  "name": "createdAt",
                  "type": "uint256"
                },
                {
                  "internalType": "uint256",
                  "name": "expiryTimestamp",
                  "type": "uint256"
                },
                {
                  "internalType": "uint256",
                  "name": "price",
                  "type": "uint256"
                },
                {
                  "internalType": "bool",
                  "name": "refundInitiated",
                  "type": "bool"
                }
              ],
              "internalType": "struct DomainExchange.Bid",
              "name": "bid",
              "type": "tuple"
            }
          ],
          "internalType": "struct DomainExchange.BidWithId[]",
          "name": "bidInfo",
          "type": "tuple[]"
        }
      ],
      "stateMutability": "view",
      "type": "function"
    },
    {
      "inputs": [
        {
          "internalType": "address",
          "name": "_user",
          "type": "address"
        }
      ],
      "name": "getUserListings",
      "outputs": [
        {
          "components": [
            {
              "internalType": "uint256",
              "name": "listingId",
              "type": "uint256"
            },
            {
              "components": [
                {
                  "internalType": "address",
                  "name": "seller",
                  "type": "address"
                },
                {
                  "internalType": "address payable",
                  "name": "saleEthRecipient",
                  "type": "address"
                },
                {
                  "internalType": "bytes32",
                  "name": "dkimKeyHash",
                  "type": "bytes32"
                },
                {
                  "internalType": "bytes",
                  "name": "encryptionKey",
                  "type": "bytes"
                },
                {
                  "internalType": "bytes32",
                  "name": "domainId",
                  "type": "bytes32"
                },
                {
                  "internalType": "uint256",
                  "name": "createdAt",
                  "type": "uint256"
                },
                {
                  "internalType": "uint256",
                  "name": "askPrice",
                  "type": "uint256"
                },
                {
                  "internalType": "uint256",
                  "name": "minBidPrice",
                  "type": "uint256"
                },
                {
                  "internalType": "bool",
                  "name": "isActive",
                  "type": "bool"
                },
                {
                  "internalType": "uint256[]",
                  "name": "bids",
                  "type": "uint256[]"
                }
              ],
              "internalType": "struct DomainExchange.Listing",
              "name": "listing",
              "type": "tuple"
            }
          ],
          "internalType": "struct DomainExchange.ListingWithId[]",
          "name": "listingInfo",
          "type": "tuple[]"
        }
      ],
      "stateMutability": "view",
      "type": "function"
    },
    {
      "inputs": [
        {
          "internalType": "uint256",
          "name": "_bidId",
          "type": "uint256"
        },
        {
          "internalType": "uint256",
          "name": "_newPrice",
          "type": "uint256"
        }
      ],
      "name": "increaseBidPrice",
      "outputs": [],
      "stateMutability": "payable",
      "type": "function"
    },
    {
      "inputs": [
        {
          "internalType": "contract ITransferDomainProcessor",
          "name": "_transferDomainProcessor",
          "type": "address"
        },
        {
          "internalType": "contract IVerifiedDomainRegistry",
          "name": "_verifiedDomainRegistry",
          "type": "address"
        },
        {
          "internalType": "contract IKeyHashAdapterV2",
          "name": "_mailServerKeyHashAdapter",
          "type": "address"
        }
      ],
      "name": "initialize",
      "outputs": [],
      "stateMutability": "nonpayable",
      "type": "function"
    },
    {
      "inputs": [
        {
          "internalType": "uint256",
          "name": "_bidId",
          "type": "uint256"
        }
      ],
      "name": "initiateRefund",
      "outputs": [],
      "stateMutability": "nonpayable",
      "type": "function"
    },
    {
      "inputs": [
        {
          "internalType": "address",
          "name": "",
          "type": "address"
        }
      ],
      "name": "isAllowed",
      "outputs": [
        {
          "internalType": "bool",
          "name": "",
          "type": "bool"
        }
      ],
      "stateMutability": "view",
      "type": "function"
    },
    {
      "inputs": [],
      "name": "isEnabled",
      "outputs": [
        {
          "internalType": "bool",
          "name": "",
          "type": "bool"
        }
      ],
      "stateMutability": "view",
      "type": "function"
    },
    {
      "inputs": [],
      "name": "isInitialized",
      "outputs": [
        {
          "internalType": "bool",
          "name": "",
          "type": "bool"
        }
      ],
      "stateMutability": "view",
      "type": "function"
    },
    {
      "inputs": [],
      "name": "listingCounter",
      "outputs": [
        {
          "internalType": "uint256",
          "name": "",
          "type": "uint256"
        }
      ],
      "stateMutability": "view",
      "type": "function"
    },
    {
      "inputs": [
        {
          "internalType": "uint256",
          "name": "",
          "type": "uint256"
        }
      ],
      "name": "listings",
      "outputs": [
        {
          "internalType": "address",
          "name": "seller",
          "type": "address"
        },
        {
          "internalType": "address payable",
          "name": "saleEthRecipient",
          "type": "address"
        },
        {
          "internalType": "bytes32",
          "name": "dkimKeyHash",
          "type": "bytes32"
        },
        {
          "internalType": "bytes",
          "name": "encryptionKey",
          "type": "bytes"
        },
        {
          "internalType": "bytes32",
          "name": "domainId",
          "type": "bytes32"
        },
        {
          "internalType": "uint256",
          "name": "createdAt",
          "type": "uint256"
        },
        {
          "internalType": "uint256",
          "name": "askPrice",
          "type": "uint256"
        },
        {
          "internalType": "uint256",
          "name": "minBidPrice",
          "type": "uint256"
        },
        {
          "internalType": "bool",
          "name": "isActive",
          "type": "bool"
        }
      ],
      "stateMutability": "view",
      "type": "function"
    },
    {
      "inputs": [],
      "name": "mailServerKeyHashAdapter",
      "outputs": [
        {
          "internalType": "contract IKeyHashAdapterV2",
          "name": "",
          "type": "address"
        }
      ],
      "stateMutability": "view",
      "type": "function"
    },
    {
      "inputs": [],
      "name": "owner",
      "outputs": [
        {
          "internalType": "address",
          "name": "",
          "type": "address"
        }
      ],
      "stateMutability": "view",
      "type": "function"
    },
    {
      "inputs": [],
      "name": "pauseMarketplace",
      "outputs": [],
      "stateMutability": "nonpayable",
      "type": "function"
    },
    {
      "inputs": [],
      "name": "paused",
      "outputs": [
        {
          "internalType": "bool",
          "name": "",
          "type": "bool"
        }
      ],
      "stateMutability": "view",
      "type": "function"
    },
    {
      "inputs": [
        {
          "internalType": "address[]",
          "name": "_disallowedAddresses",
          "type": "address[]"
        }
      ],
      "name": "removeAddressesFromAllowlist",
      "outputs": [],
      "stateMutability": "nonpayable",
      "type": "function"
    },
    {
      "inputs": [],
      "name": "renounceOwnership",
      "outputs": [],
      "stateMutability": "nonpayable",
      "type": "function"
    },
    {
      "inputs": [],
      "name": "transferDomainProcessor",
      "outputs": [
        {
          "internalType": "contract ITransferDomainProcessor",
          "name": "",
          "type": "address"
        }
      ],
      "stateMutability": "view",
      "type": "function"
    },
    {
      "inputs": [
        {
          "internalType": "address",
          "name": "newOwner",
          "type": "address"
        }
      ],
      "name": "transferOwnership",
      "outputs": [],
      "stateMutability": "nonpayable",
      "type": "function"
    },
    {
      "inputs": [],
      "name": "unpauseMarketplace",
      "outputs": [],
      "stateMutability": "nonpayable",
      "type": "function"
    },
    {
      "inputs": [
        {
          "internalType": "uint256",
          "name": "_newBidRefundPeriod",
          "type": "uint256"
        }
      ],
      "name": "updateBidRefundPeriod",
      "outputs": [],
      "stateMutability": "nonpayable",
      "type": "function"
    },
    {
      "inputs": [
        {
          "internalType": "uint256",
          "name": "_newBidSettlementPeriod",
          "type": "uint256"
        }
      ],
      "name": "updateBidSettlementPeriod",
      "outputs": [],
      "stateMutability": "nonpayable",
      "type": "function"
    },
    {
      "inputs": [
        {
          "internalType": "uint256",
          "name": "_newFee",
          "type": "uint256"
        }
      ],
      "name": "updateFee",
      "outputs": [],
      "stateMutability": "nonpayable",
      "type": "function"
    },
    {
      "inputs": [
        {
          "internalType": "address payable",
          "name": "_newFeeRecipient",
          "type": "address"
        }
      ],
      "name": "updateFeeRecipient",
      "outputs": [],
      "stateMutability": "nonpayable",
      "type": "function"
    },
    {
      "inputs": [
        {
          "internalType": "uint256",
          "name": "_listingId",
          "type": "uint256"
        },
        {
          "internalType": "uint256",
          "name": "_newAskPrice",
          "type": "uint256"
        },
        {
          "internalType": "address payable",
          "name": "_saleEthRecipient",
          "type": "address"
        }
      ],
      "name": "updateListing",
      "outputs": [],
      "stateMutability": "nonpayable",
      "type": "function"
    },
    {
      "inputs": [
        {
          "internalType": "contract IKeyHashAdapterV2",
          "name": "_mailServerKeyHashAdapter",
          "type": "address"
        }
      ],
      "name": "updateMailServerKeyHashAdapter",
      "outputs": [],
      "stateMutability": "nonpayable",
      "type": "function"
    },
    {
      "inputs": [
        {
          "internalType": "contract ITransferDomainProcessor",
          "name": "_transferDomainProcessor",
          "type": "address"
        }
      ],
      "name": "updateTransferDomainProcessor",
      "outputs": [],
      "stateMutability": "nonpayable",
      "type": "function"
    },
    {
      "inputs": [
        {
          "internalType": "address",
          "name": "",
          "type": "address"
        },
        {
          "internalType": "uint256",
          "name": "",
          "type": "uint256"
        }
      ],
      "name": "userBids",
      "outputs": [
        {
          "internalType": "uint256",
          "name": "",
          "type": "uint256"
        }
      ],
      "stateMutability": "view",
      "type": "function"
    },
    {
      "inputs": [
        {
          "internalType": "address",
          "name": "",
          "type": "address"
        },
        {
          "internalType": "uint256",
          "name": "",
          "type": "uint256"
        }
      ],
      "name": "userListings",
      "outputs": [
        {
          "internalType": "uint256",
          "name": "",
          "type": "uint256"
        }
      ],
      "stateMutability": "view",
      "type": "function"
    },
    {
      "inputs": [],
      "name": "verifiedDomainRegistry",
      "outputs": [
        {
          "internalType": "contract IVerifiedDomainRegistry",
          "name": "",
          "type": "address"
        }
      ],
      "stateMutability": "view",
      "type": "function"
    },
    {
      "inputs": [
        {
          "internalType": "uint256",
          "name": "_bidId",
          "type": "uint256"
        }
      ],
      "name": "withdrawBid",
      "outputs": [],
      "stateMutability": "nonpayable",
      "type": "function"
    }
  ],
  "transactionHash": "0xd64f47ee7834ef8dd98c2febb55f70e96ba86a7c6cb5196fcf8c22bac11a1476",
  "args": [
    "0x84e113087C97Cd80eA9D78983D4B8Ff61ECa1929",
    "25000000000000000",
    "0x84e113087C97Cd80eA9D78983D4B8Ff61ECa1929",
    "180",
    "180",
    []
  ],
  "numDeployments": 1,
  "solcInputHash": "75f12a12f89580988d1f2610a5d42f1a",
  "bytecode": "0x60806040523462000037576200002562000018620001e5565b94939093929192620002cd565b604051614feb620008938239614feb90f35b600080fd5b634e487b7160e01b600052604160045260246000fd5b90601f01601f191681019081106001600160401b038211176200007457604052565b6200003c565b90620000916200008960405190565b928362000052565b565b6001600160a01b031690565b90565b6001600160a01b0381165b036200003757565b905051906200009182620000a2565b80620000ad565b905051906200009182620000c4565b6001600160401b038111620000745760208091020190565b909291926200010b6200010582620000da565b6200007a565b93818552602080860192028301928184116200003757915b838310620001315750505050565b60208091620001418486620000b5565b81520192019162000123565b9080601f83011215620000375781516200009f92602001620000f2565b91909160c0818403126200003757620001848382620000b5565b92620001948160208401620000cb565b92604090620001a683838601620000b5565b93620001b68460608301620000cb565b93620001c68160808401620000cb565b9360018060a0850151921b03811162000037576200009f92016200014d565b620002086200587e80380380620001fc816200007a565b9283398101906200016a565b909192939495565b90600019905b9181191691161790565b6200009f6200009f6200009f9290565b90620002446200009f6200024c9262000220565b825462000210565b9055565b906001600160a01b039062000216565b6200009f9062000093906001600160a01b031682565b6200009f9062000260565b6200009f9062000276565b90620002a06200009f6200024c9262000281565b825462000250565b9060ff9062000216565b90620002c56200009f6200024c92151590565b8254620002a8565b939192620003016200031194620002f96200030994620002f1620000919a6200034a565b600a62000230565b600b6200028c565b600e62000230565b600f62000230565b6200033662000321600162000220565b6200032e81600c62000230565b600d62000230565b6200034460006010620002b2565b6200077f565b62000355906200036f565b6200009160006004620002b2565b6200009f600162000220565b6200037a90620005c2565b620000916200038862000363565b600362000230565b634e487b7160e01b600052601160045260246000fd5b6000198114620003b65760010190565b62000390565b634e487b7160e01b600052603260045260246000fd5b90620003dc825190565b811015620003ee576020809102010190565b620003bc565b90620004009062000281565b600052602052604060002090565b156200041657565b60405162461bcd60e51b815260206004820152601a60248201527f4164647265737320697320616c726561647920616c6c6f7765640000000000006044820152606490fd5b0390fd5b9160001960089290920291821b911b62000216565b9190620004896200009f6200024c9362000220565b9083546200045f565b620000919160009162000474565b818110620004ac575050565b80620004bc600060019362000492565b01620004a0565b9091828110620004d257505050565b620000919290620004ea905b92600052602060002090565b9081019101620004a0565b906801000000000000000081116200007457816200051562000091935490565b90828155620004c3565b8151916001600160401b03831162000074576200054e620004de600192620005488686620004f5565b60200190565b92049160005b838110620005625750505050565b60019060206200057d6200009f86516001600160a01b031690565b940193818401550162000554565b9062000091916200051f565b9060ff60a01b9060a01b62000216565b90620005ba6200009f6200024c92151590565b825462000597565b620005cc620006b7565b600091620005da8362000220565b620005e76200009f845190565b8110156200069b57806200061162000604620006959386620003d2565b516001600160a01b031690565b620006546002620006406200063a620006366200062f8685620003f4565b5460ff1690565b1590565b6200040e565b6200064e83600192620003f4565b620002b2565b620006807f41f4a012571b6bf21f3c6557be5d1a28851ce415203203b84c14099b84fe97379162000281565b906200068b60405190565b600090a2620003a6565b620005da565b5091620006ae620000919260016200058b565b600190620005a7565b620000913362000830565b62000830565b6200009190620006d7620007dc565b62000754565b620000936200009f6200009f9290565b6200009f90620006dd565b156200070057565b60405162461bcd60e51b815260206004820152602660248201527f4f776e61626c653a206e6577206f776e657220697320746865207a65726f206160448201526564647265737360d01b6064820152608490fd5b6200009190620006c26200076d620000936000620006ed565b6001600160a01b0383161415620006f8565b6200009190620006c8565b156200079257565b60405162461bcd60e51b8152806200045b600482016020808252818101527f4f776e61626c653a2063616c6c6572206973206e6f7420746865206f776e6572604082015260600190565b62000091620007ea62000824565b62000806620007f93362000093565b916001600160a01b031690565b146200078a565b6200009f9062000093565b6200009f90546200080d565b6200009f600062000818565b6200083c600062000818565b906200084a8160006200028c565b620008816200087a7f8be0079c531659141344cd1fd0a4f28419497f9722a3daafe3b4186f6b6457e09362000281565b9162000281565b916200088c60405190565b600090a356fe6080604052600436101561001257600080fd5b60003560e01c80630373c0bf1461033257806303f693541461032d5780630d81539c146103285780630eaaf4c8146103235780630f2bc8b31461031e578063175046d91461031957806321f67fbb146103145780632ac44f121461030f5780632f437bd41461030a5780632f6db23814610305578063392e53cd146103005780633ec62279146102fb5780634423c5f1146102f657806346904840146102f15780634f20fe5d146102ec5780635c975abb146102e757806364b55bed146102e25780636759789f146102dd5780636aa633b6146102d85780636c2c9c7d146102d35780636caacbe7146102ce578063715018a6146102c95780637e064092146102c45780637e7a9c6c146102bf5780637f17caa7146102ba57806386cfa7d3146102b557806387547367146102b0578063887f495a146102ab5780638da5cb5b146102a65780639012c4a8146102a1578063944b8b2e1461029c57806396ec50c3146102975780639d8717a814610292578063a15ce2801461028d578063a8ef333f14610288578063ad92876314610283578063babcc5391461027e578063bb46acd314610279578063c0c53b8b14610274578063c6a2aac81461026f578063cf8e629a1461026a578063ddca3f4314610265578063de74e57b14610260578063e38df96d1461025b578063e6282c6e14610256578063eb18a9d814610251578063f15851e61461024c578063f160d36914610247578063f2fde38b146102425763f6cda469036103ab576116c0565b6116a8565b611690565b611678565b61165d565b611645565b61162a565b6115e7565b611441565b61141d565b611405565b6113ec565b6113b1565b61137c565b61134d565b611332565b611312565b6112a9565b6111bc565b611187565b61114a565b611125565b61110c565b6110c4565b6110a8565b61100b565b610ff0565b610fcc565b610fb4565b610f9c565b610ef3565b610ecc565b610e99565b610d51565b610cce565b610ca7565b610c19565b610bbe565b610991565b610964565b610926565b6108e7565b6108a8565b610890565b610869565b61083d565b610819565b6107e1565b6106bd565b610665565b634e487b7160e01b600052604160045260246000fd5b90601f01601f1916810190811067ffffffffffffffff82111761036f57604052565b610337565b9061038861038160405190565b928361034d565b565b67ffffffffffffffff811161036f5760208091020190565b805b036103ab57565b600080fd5b90503590610388826103a2565b909291926103d26103cd8261038a565b610374565b93818552602080860192028301928184116103ab57915b8383106103f65750505050565b6020809161040484866103b0565b8152019201916103e9565b9080601f830112156103ab5781602061042a933591016103bd565b90565b906020828203126103ab57813567ffffffffffffffff81116103ab5761042a920161040f565b9052565b6001600160a01b031690565b60005b8381106104765750506000910152565b8181015183820152602001610466565b6104a76104b06020936104ba9361049b815190565b80835293849260200190565b95869101610463565b601f01601f191690565b0190565b906104de6104d76104cd845190565b8084529260200190565b9260200190565b9060005b8181106104ef5750505090565b90919261050c6105056001928651815260200190565b9460200190565b9291016104e2565b80516001600160a01b0316825261042a9161012061056461014083016020858101516001600160a01b03169085015261055260408601516040860152565b60608501518482036060860152610486565b9261057460808201516080850152565b61058360a082015160a0850152565b61059260c082015160c0850152565b6105a160e082015160e0850152565b610100818101511515908401520151906101208184039101526104be565b8051825261042a91604081019160200151906020818403910152610514565b9061042a916105bf565b906105fe6105f4835190565b8083529160200190565b90816106106020830284019460200190565b926000915b83831061062457505050505090565b90919293946020610647610640838560019503875289516105de565b9760200190565b9301930191939290610615565b602080825261042a929101906105e8565b346103ab5761068c61068061067b36600461042d565b612fdf565b60405191829182610654565b0390f35b60009103126103ab57565b61042a916008021c81565b9061042a915461069b565b61042a6000600c6106a6565b346103ab576106cd366004610690565b61068c6106d86106b1565b6040515b9182918290815260200190565b6001600160a01b0381166103a4565b90503590610388826106e9565b67ffffffffffffffff811161036f57602090601f01601f19160190565b90826000939282370152565b9092919261073e6103cd82610705565b938185526020850190828401116103ab5761038892610722565b9080601f830112156103ab5781602061042a9335910161072e565b909160c0828403126103ab5761078983836103b0565b9261079781602085016103b0565b926107a582604083016103b0565b926107b383606084016106f8565b9260808301359067ffffffffffffffff82116103ab576107d88161042a938601610758565b9360a0016103b0565b346103ab576108006107f4366004610773565b94939093929192611ce8565b604051005b906020828203126103ab5761042a916103b0565b346103ab5761080061082c366004610805565b6126ca565b61042a6000600f6106a6565b346103ab5761084d366004610690565b61068c6106d8610831565b602080825261042a929101906105bf565b346103ab5761068c61088461087f366004610805565b613416565b60405191829182610858565b346103ab576108a0366004610690565b61080061294f565b346103ab576108006108bb366004610805565b612598565b905b600052602052604060002090565b61042a906108e26009916000926108c0565b6106a6565b346103ab5761068c6106d86108fd366004610805565b6108d0565b90816102409103126103ab5790565b90610240828203126103ab5761042a91610902565b346103ab57610800610939366004610911565b6121ef565b61042a916008021c5b60ff1690565b9061042a915461093e565b61042a6000601061094d565b346103ab57610974366004610690565b61068c61097f610958565b60405191829182901515815260200190565b346103ab576109a1366004610690565b6108006128e1565b61042a61042a61042a9290565b906108c2906109a9565b61042a9081565b61042a90546109c0565b634e487b7160e01b600052602260045260246000fd5b9060016002830492168015610a07575b6020831014610a0257565b6109d1565b91607f16916109f7565b80546000939291610a2e610a24836109e7565b8085529360200190565b9160018116908115610a805750600114610a4757505050565b610a5a9192939450600052602060002090565b916000925b818410610a6c5750500190565b805484840152602090930192600101610a5f565b92949550505060ff1916825215156020020190565b9061042a91610a11565b90610388610ab992610ab060405190565b93848092610a95565b038361034d565b61042a90610947565b61042a9054610ac0565b610ade9060076109b6565b90610af082546001600160a01b031690565b91610afd600182016109c7565b91610b0a60028301610a9f565b91610b17600382016109c7565b91610b24600483016109c7565b91610b31600582016109c7565b9161042a6007610b43600685016109c7565b9301610ac9565b93989795610ba860e096610ba1610b9988610bb698610b8c6103889e99610b85610baf9a600061010087019601906001600160a01b03169052565b60208d0152565b8a820360408c0152610486565b9c6060890152565b6080870152565b60a0850152565b60c0830152565b019015159052565b346103ab5761068c610bd9610bd4366004610805565b610ad3565b94610bec98969894919493929360405190565b98899889610b4a565b61042a916008021c610457565b9061042a9154610bf5565b61042a6000600b610c02565b346103ab57610c29366004610690565b61068c610c34610c0d565b6040515b918291826001600160a01b03909116815260200190565b90610c5e6104d76104cd845190565b9060005b818110610c6f5750505090565b909192610c8e61050560019286516001600160a01b0316815260200190565b929101610c62565b602080825261042a92910190610c4f565b346103ab57610cb7366004610690565b61068c610cc261340e565b60405191829182610c96565b346103ab57610cde366004610690565b61068c61097f6118c7565b634e487b7160e01b600052603260045260246000fd5b8054821015610d2257610d19600191600052602060002090565b91020190600090565b610ce9565b60016000610d33825490565b831015610d4e575061042a91610d4891610cff565b90610c02565b80fd5b346103ab5761068c610c34610d67366004610805565b610d27565b906020828203126103ab5761042a916106f8565b80516001600160a01b031682529061042a9060e080610dbe6101008401610dac60208801516020870152565b60408701518582036040870152610486565b94610dce60608201516060860152565b610ddd60808201516080860152565b610dec60a082015160a0860152565b610dfb60c082015160c0860152565b01511515910152565b8051825261042a91604081019160200151906020818403910152610d80565b9061042a91610e04565b90610e396105f4835190565b9081610e4b6020830284019460200190565b926000915b838310610e5f57505050505090565b90919293946020610e7b61064083856001950387528951610e23565b9301930191939290610e50565b602080825261042a92910190610e2d565b346103ab5761068c610eb4610eaf366004610d6c565b61324c565b60405191829182610e88565b61042a6014600061094d565b346103ab57610edc366004610690565b61068c61097f610ec0565b61042a6000600d6106a6565b346103ab57610f03366004610690565b61068c6106d8610ee7565b90929192610f1e6103cd8261038a565b93818552602080860192028301928184116103ab57915b838310610f425750505050565b60208091610f5084866106f8565b815201920191610f35565b9080601f830112156103ab5781602061042a93359101610f0e565b906020828203126103ab57813567ffffffffffffffff81116103ab5761042a9201610f5b565b346103ab57610800610faf366004610f76565b614a69565b346103ab57610fc4366004610690565b610800611710565b346103ab57610800610fdf366004610805565b612c7e565b61042a6000600e6106a6565b346103ab57611000366004610690565b61068c6106d8610fe4565b346103ab5761080061101e366004610f76565b614970565b91906040838203126103ab5761042a9061103d81856106f8565b936020016103b0565b61042a90610457906001600160a01b031682565b61042a90611046565b61042a9061105a565b906108c290611063565b61108460069160009261106c565b9061108d825490565b831015610d4e575061042a916110a291610cff565b906106a6565b346103ab5761068c6106d86110be366004611023565b90611076565b346103ab576108006110d7366004610d6c565b612aaf565b90916060828403126103ab5761042a6110f584846103b0565b9361110381602086016103b0565b936040016106f8565b346103ab5761080061111f3660046110dc565b91612454565b346103ab57611135366004610690565b61068c610c346000546001600160a01b031690565b346103ab5761080061115d366004610805565b612b53565b61042a60006011610c02565b61045390611063565b602081019291610388919061116e565b346103ab57611197366004610690565b61068c6111a2611162565b60405191829182611177565b61108460089160009261106c565b346103ab5761068c6106d86111d2366004611023565b906111ae565b906111e46105f4835190565b90816111f66020830284019460200190565b926000915b83831061120a57505050505090565b9091929394602061122661064083856001950387528951610e23565b93019301919392906111fb565b9061042a916111d8565b906112496105f4835190565b908161125b6020830284019460200190565b926000915b83831061126f57505050505090565b9091929394602061128b61064083856001950387528951611233565b9301930191939290611260565b602080825261042a9291019061123d565b346103ab5761068c6112c46112bf36600461042d565b613305565b60405191829182611298565b916060838303126103ab576112e582846103b0565b926112f383602083016103b0565b92604082013567ffffffffffffffff81116103ab5761042a9201610758565b6108006113203660046112d0565b91611de9565b61042a60006012610c02565b346103ab57611342366004610690565b61068c6111a2611326565b346103ab57610800611360366004610805565b612d42565b61042a9061137760029160009261106c565b61094d565b346103ab5761068c61097f611392366004610d6c565b611365565b91906040838203126103ab5761042a9061103d81856103b0565b6108006113bf366004611397565b90612561565b90916060828403126103ab5761042a6113de84846106f8565b9361110381602086016106f8565b346103ab576108006113ff3660046113c5565b916128c3565b346103ab57611415366004610690565b610800614b46565b346103ab5761142d366004610690565b610800614bf1565b61042a6000600a6106a6565b346103ab57611451366004610690565b61068c6106d8611435565b8054600093929161146f610a24836109e7565b9160018116908115610a80575060011461148857505050565b61149b9192939450600052602060002090565b916000925b8184106114ad5750500190565b8054848401526020909301926001016114a0565b9061042a9161145c565b90610388610ab9926114dc60405190565b938480926114c1565b6114f09060056109b6565b80546001600160a01b03169161151060018301546001600160a01b031690565b9161151d600282016109c7565b9161152a600383016114cb565b91611537600482016109c7565b91611544600583016109c7565b91611551600682016109c7565b9161042a6008610b43600785016109c7565b9499989690610100966115d26115ca6115d993610bb6986115bd6103889e996115b66115e09a60208f6115a761012082019860008301906001600160a01b03169052565b01906001600160a01b03169052565b60408d0152565b8a820360608c0152610486565b9c6080890152565b60a0870152565b60c0850152565b60e0830152565b346103ab5761068c6116026115fd366004610805565b6114e5565b9561161599979995919594929460405190565b998a998a611563565b61042a60016010610c02565b346103ab5761163a366004610690565b61068c6111a261161e565b346103ab57610800611658366004610805565b61245f565b346103ab5761068c610680611673366004610d6c565b61308b565b346103ab5761080061168b366004610805565b6122fc565b346103ab576108006116a3366004610d6c565b612bb6565b346103ab576108006116bb366004610d6c565b611831565b346103ab576108006116d3366004610d6c565b612b05565b6116e061176c565b6103886116fe565b61045761042a61042a9290565b61042a906116e8565b61038861170b60006116f5565b61186a565b6103886116d8565b1561171f57565b60405162461bcd60e51b815280611768600482016020808252818101527f4f776e61626c653a2063616c6c6572206973206e6f7420746865206f776e6572604082015260600190565b0390fd5b6103886117816000546001600160a01b031690565b61179a61178d33610457565b916001600160a01b031690565b14611718565b610388906117ac61176c565b61180c565b156117b857565b60405162461bcd60e51b815260206004820152602660248201527f4f776e61626c653a206e6577206f776e657220697320746865207a65726f206160448201526564647265737360d01b6064820152608490fd5b6103889061170b61182061045760006116f5565b6001600160a01b03831614156117b1565b610388906117a0565b906001600160a01b03905b9181191691161790565b9061185f61042a61186692611063565b825461183a565b9055565b6000546001600160a01b03169061188281600061184f565b6118b56118af7f8be0079c531659141344cd1fd0a4f28419497f9722a3daafe3b4186f6b6457e093611063565b91611063565b916118bf60405190565b80805b0390a3565b61042a6004610ac9565b61042a9060a01c610947565b61042a90546118d1565b156118ee57565b60405162461bcd60e51b81526020600482015260166024820152751059191c995cdcc81a5cc81b9bdd08185b1b1bddd95960521b6044820152606490fd5b90610388959493929161193f60006118dd565b156119645761195f61195a61195533600261106c565b610ac9565b6118e7565b6119ba565b61195f60016118e7565b1561197557565b60405162461bcd60e51b815260206004820152601c60248201527f436f6e7472616374206d75737420626520696e697469616c697a6564000000006044820152606490fd5b9061038895949392916119d56119d06010610ac9565b61196e565b9061038895949392916119e6611d35565b611b88565b90505190610388826106e9565b906020828203126103ab5761042a916119eb565b6040513d6000823e3d90fd5b15611a1f57565b60405162461bcd60e51b815260206004820152601a60248201527f43616c6c6572206973206e6f7420646f6d61696e206f776e65720000000000006044820152606490fd5b15611a6b57565b60405162461bcd60e51b815260206004820152601960248201527f4d696e696d756d20626964207072696365206973207a65726f000000000000006044820152606490fd5b15611ab757565b60405162461bcd60e51b8152602060048201526024808201527f41736b207072696365206973206c657373207468616e206d696e2062696420706044820152637269636560e01b6064820152608490fd5b15611b0f57565b60405162461bcd60e51b815260206004820152601a60248201527f496e76616c69642073616c652045544820726563697069656e740000000000006044820152606490fd5b611b8161038894611b7a606094989795611b73608086019a6000870152565b6020850152565b6040830152565b019061116e565b9394611bc49392956020611bac611ba76011546001600160a01b031690565b611063565b6311d4c3a290611bbb60405190565b97889260e01b90565b82526004820189905260249082905afa948515611ce357600095611ca9575b50611c5682611ca492611c0a3398611c0461178d8b6001600160a01b031690565b14611a18565b611c4d611c3d6104576000611c38611c2f8f61042a611c28856109a9565b8211611a64565b8b5b1015611ab0565b6116f5565b611c4689611063565b1415611b08565b868a878b613838565b93611c91611c8d611c877f77a8be0890be6d79729c684636469d83d455e267a0bf0c9bc2463d8db867a541976109a9565b97611063565b9790565b97611c9b60405190565b94859485611b54565b0390a4565b611ca491955082611cd3611c569260203d8111611cdc575b611ccb818361034d565b8101906119f8565b96925050611be3565b503d611cc1565b611a0c565b90610388959493929161192c565b15611cfd57565b60405162461bcd60e51b815260206004820152601060248201526f14185d5cd8589b194e881c185d5cd95960821b6044820152606490fd5b610388611d47611d436118c7565b1590565b611cf6565b90611d5f9291611d5a611e6b565b611d67565b610388611ea7565b906103889291611d75611d35565b9091611d9d9034938484611d8d61042a8260056109b6565b611d98848483613a50565b613c13565b903391611ca4611ddf611dd9611dd37f6d2b783673dbbf046f2e5a1f3c92ce62c29a0f5385f2b1f0eaf19019ef28cb55946109a9565b946109a9565b94611063565b946106dc60405190565b906103889291611d4c565b61042a60026109a9565b15611e0557565b60405162461bcd60e51b815260206004820152601f60248201527f5265656e7472616e637947756172643a207265656e7472616e742063616c6c006044820152606490fd5b9060001990611845565b90611e6461042a611866926109a9565b8254611e4a565b610388611e7860036109c7565b611e96611e83611df4565b918290611e8f565b9190565b1415611dfe565b6003611e54565b61042a60016109a9565b610388611e96611e9d565b61038890611ec36119d06010610ac9565b611d5f90611ecf611e6b565b61038890611edb611d35565b6120a0565b61042a9060081c610457565b61042a9054611ee0565b90505190610388826103a2565b90929192611f136103cd82610705565b938185526020850190828401116103ab5761038892610463565b9080601f830112156103ab57815161042a92602001611f03565b6080818303126103ab57611f5b8282611ef6565b92611f698360208401611ef6565b9260408301519067ffffffffffffffff82116103ab57611f8e8161042a938601611f2d565b93606001611ef6565b9037565b61038891604091611f97565b906104ba81604093611f9b565b611fc0611e8b60029390565b806000925b848410611fd3575050505050565b611fef611fe8600192611fe38690565b611fa7565b9360400190565b93019291611fc5565b6103889161014091611f97565b6103889190610100906120439061201c8482611f9b565b61202d604082016040860190611fb4565b61203e60c0820160c0860190611f9b565b820190565b910190611ff8565b610240810192916103889190612005565b634e487b7160e01b600052601160045260246000fd5b919061207d565b9290565b820391821161208857565b61205c565b9081526040810192916103889160200152565b60006120dd916120b3611ba76010611eec565b6120d2836365cd296c6120c560405190565b9687958694859360e01b90565b83526004830161204b565b03925af18015611ce35761216a9160008080809390946121c0575b506121769161216f9161213761211261042a8760076109b6565b96600188019261212f61042a6005612129876109c7565b906109b6565b94858a613e74565b612143600687016109c7565b96828661216461215e60018c9701546001600160a01b031690565b946109c7565b9861402a565b6143d0565b8094612072565b926121aa6121a47f3247261fffac93019b3a34aa6692df18a5ddea75a12bf8ec4539903a608a6e4c936109a9565b936109a9565b936118c26121b760405190565b9283928361208d565b905061217692506121e7915061216f933d8091833e6121df818361034d565b810190611f47565b9350936120f8565b61038890611eb2565b611d5f90612204611e6b565b612296565b1561221057565b60405162461bcd60e51b815260206004820152601760248201527f43616c6c6572206973206e6f7420626964206f776e65720000000000000000006044820152606490fd5b1561225c57565b60405162461bcd60e51b81526020600482015260126024820152714c697374696e67206e6f742061637469766560701b6044820152606490fd5b61216a906122a861042a8260076109b6565b9061217661216f600184016122c461042a6005612129846109c7565b906122e86122d987546001600160a01b031690565b6122e23361178d565b14612209565b6121376122f760088401610ac9565b612255565b610388906121f8565b906103889291612313611d35565b612379565b1561231f57565b60405162461bcd60e51b815260206004820152601b60248201527f43616c6c6572206973206e6f74206c697374696e67206f776e657200000000006044820152606490fd5b90815260408101929161038891602090611b81565b91909161238a61042a8260056109b6565b9161240b8160016123a286546001600160a01b031690565b3396906123b8906123b28961178d565b14612318565b6123c76122f760088301610ac9565b6123df6123d961042a600784016109c7565b89611c31565b6123f86123ef61045760006116f5565b611c4685611063565b6124058860068301611e54565b0161184f565b61243e6124387f6df0cec5e0539cca31fe823df048a8d5834ba5dc079fa1d38e5157f00f9d085b936109a9565b93611063565b936118c261244b60405190565b92839283612364565b906103889291612305565b61246d61042a8260056109b6565b6124a68261248283546001600160a01b031690565b339390612492906123b28661178d565b6124a16122f760088301610ac9565b614779565b6118b56118af7f5832f888aea12cc23bd891f2d9fd4bd01b8ce0e22898b6e7cee1519f5bd46954936109a9565b90611d5f916124e0611e6b565b90610388916124ed611d35565b61252582600661250161042a8560076109b6565b61251f8361251961042a6005612129600187016109c7565b83614130565b01611e54565b33906118c26125576124387f8283dd04c4a2b6691bd80232f254e0ad876b8bb149938d3e7ced5c6e8a35b614936109a9565b936106dc60405190565b90610388916124d3565b9190820180921161208857565b9060ff90611845565b9061259161042a61186692151590565b8254612578565b61260a600060076125fc6125af61042a86846109b6565b916125f260056125d66125d061042a6125ca600189016109c7565b846109b6565b86614254565b6125ea426125e4600f6109c7565b9061256b565b908501611e54565b6001908301612581565b01546001600160a01b031690565b6118b56118af7f9da9db6af7fcfa5edbaa006b61a744d33fe4651a4c594cddd3e9a7e757ecd8d5936109a9565b611d5f90612643611e6b565b61265161042a8260076109b6565b9061268661266961042a6005612129600187016109c7565b6126738185614345565b82612680600686016109c7565b946146de565b339061269a8361269584611063565b6127c2565b6118c26125576124387f8f8619524e8d462cead34604bd2247ede24175801481e4d0b8059ac8aa41c301936109a9565b61038890612637565b156126da57565b60405162461bcd60e51b815260206004820152601d60248201527f416464726573733a20696e73756666696369656e742062616c616e63650000006044820152606490fd5b9061272c6103cd83610705565b918252565b3d1561274b576127403d61271f565b903d6000602084013e565b606090565b1561275757565b60405162461bcd60e51b815260206004820152603a60248201527f416464726573733a20756e61626c6520746f2073656e642076616c75652c207260448201527f6563697069656e74206d617920686176652072657665727465640000000000006064820152608490fd5b6000610388926127e38293611ba76127d930611063565b84903110156126d3565b906127ed60405190565b90818003925af16127fc612731565b50612750565b90610388929161281061176c565b612881565b1561281c57565b60405162461bcd60e51b8152602060048201526013602482015272105b1c9958591e481a5b9a5d1a585b1a5e9959606a1b6044820152606490fd5b90610100600160a81b039060081b611845565b9061287a61042a61186692611063565b8254612857565b6128b792916128a96128b0926128a261289d611d436010610ac9565b612815565b601061286a565b601161184f565b601261184f565b61038860016010612581565b906103889291612802565b6128d661176c565b610388610388612934565b6103886128ce565b6128f1611d35565b61038861290060016004612581565b3361292f7f62e78cea01bee320cd4e420270b5ea74000d11b0c9f74754ebdbfc544b05a25891610c3860405190565b0390a1565b6103886128e9565b61294461176c565b61038861038861299d565b61038861293c565b61295f6129e8565b61038861296e60006004612581565b3361292f7f5db9ee0a495bf2e6ff9c91a7834c1ba4fdd244a5e8aa4e537bd38aeae4b073aa91610c3860405190565b610388612957565b156129ac57565b60405162461bcd60e51b815260206004820152601460248201527314185d5cd8589b194e881b9bdd081c185d5cd95960621b6044820152606490fd5b6103886129f36118c7565b6129a5565b61038890612a0461176c565b612a47565b15612a1057565b60405162461bcd60e51b815260206004820152600f60248201526e496e76616c6964206164647265737360881b6044820152606490fd5b612a6a612a5382611063565b612a6361178d61045760006116f5565b1415612a09565b612a7581601061286a565b612a9f7f9106eb309cc633a951e77bd36af34646a9df8e6ade485938c34e3844a37b79da91611063565b90612aa960405190565b600090a2565b610388906129f8565b61038890612ac461176c565b612ad0612a5382611063565b612adb81601261184f565b612a9f7f9d3407c7200ba4f49e97f3d3f8250ec01c24b0ada6fa31053d71850793b7395391611063565b61038890612ab8565b61038890612b1a61176c565b612b2581600a611e54565b61292f7f8c4d35e54a3f2ef1134138fd8ea3daee6a3c89e10d2665996babdf70261e2c76916106dc60405190565b61038890612b0e565b61038890612b6861176c565b612b81612b7861045760006116f5565b612a6383611063565b612b8c81600b61184f565b612a9f7f7a7b5a0a132f9e0581eb8527f66eae9ee89c2a3e79d4ac7e41a1f1f4d48a7fc291611063565b61038890612b5c565b61038890612bcb61176c565b612c31565b15612bd757565b60405162461bcd60e51b815260206004820152602c60248201527f42696420736574746c656d656e7420706572696f64206d75737420626520677260448201526b06561746572207468616e20360a41b6064820152608490fd5b612c45612c3e60006109a9565b8211612bd0565b612c5081600e611e54565b61292f7f09a165ff77cf0f319f9ece89bc6dbe2a469a0da2640c9e6b501132846843daf5916106dc60405190565b61038890612bbf565b61038890612c9361176c565b612cf5565b15612c9f57565b60405162461bcd60e51b815260206004820152602860248201527f42696420726566756e6420706572696f64206d75737420626520677265617465604482015267072207468616e20360c41b6064820152608490fd5b612d09612d0260006109a9565b8211612c98565b612d1481600f611e54565b61292f7f90e0312fddcd5cbec358d5c7d63976e5c97d71dfb8d6cd5f2c53b0a1a043ccf0916106dc60405190565b61038890612c87565b9061272c6103cd8361038a565b61042a6040610374565b61042a610140610374565b612d75612d62565b906000825260208080808080808080808b01600081520160008152016060815201600081520160008152016000815201600081520160008152016060905250565b905250565b61042a612d6d565b612dcb612d58565b90600082526020808301612db6612dbb565b61042a612dc3565b60005b828110612df457505050565b602090612dff612ddd565b8184015201612de8565b90610388612e1f612e1984612d4b565b9361038a565b601f190160208401612de5565b60001981146120885760010190565b90612e44825190565b811015610d22576020809102010190565b90612e70612e646104cd845490565b92600052602060002090565b9060005b818110612e815750505090565b909192612ea5612e9e600192612e96876109c7565b815260200190565b9460010190565b929101612e74565b9061042a91612e55565b90610388610ab992612ec860405190565b93848092612ead565b90610388612fce6009612ee2612d62565b94612f04612ef782546001600160a01b031690565b6001600160a01b03168752565b612f2b612f1b60018301546001600160a01b031690565b6001600160a01b03166020880152565b612f41612f3a600283016109c7565b6040880152565b612f57612f50600383016114cb565b6060880152565b612f6d612f66600483016109c7565b6080880152565b612f83612f7c600583016109c7565b60a0880152565b612f99612f92600683016109c7565b60c0880152565b612faf612fa8600783016109c7565b60e0880152565b612fc8612fbe60088301610ac9565b1515610100880152565b01612eb7565b610120840152565b61042a90612ed1565b90612ff0612feb835190565b612e09565b9160009083612ffe836109a9565b61300961042a845190565b81101561307b57806130256130216130769386612e3b565b5190565b61305b61305461303d6005612129613021878b612e3b565b61304f613048612d58565b948a860152565b612fd6565b6020830152565b6130658289612e3b565b526130708188612e3b565b50612e2c565b612ffe565b5093505050565b61042a90612eb7565b6130a26130a79161309a606090565b50600661106c565b613082565b906130b3612feb835190565b91600090836130c1836109a9565b6130cc61042a845190565b81101561307b57806130e46130216130f59386612e3b565b61305b61305461303d8360056109b6565b6130c1565b61042a610100610374565b61310d6130fa565b906000825260208080808080808089016000815201606081520160008152016000815201600081520160008152016000905250565b61042a613105565b613152612d58565b90600082526020808301612db6613142565b61042a61314a565b60005b82811061317b57505050565b602090613186613164565b818401520161316f565b906103886131a0612e1984612d4b565b601f19016020840161316c565b9061038861323a60076131be6130fa565b946131d3612ef782546001600160a01b031690565b6131e96131e2600183016109c7565b6020880152565b6131f8612f3a60028301610a9f565b613207612f50600383016109c7565b613216612f66600483016109c7565b613225612f7c600583016109c7565b613234612f92600683016109c7565b01610ac9565b151560e0840152565b61042a906131ad565b6130a26132639161325b606090565b50600861106c565b9061327461326f835190565b613190565b9160009083613282836109a9565b61328d61042a845190565b81101561307b57806132a56130216132c69386612e3b565b61305b6130546132b68360076109b6565b6132c1613048612d58565b613243565b613282565b60005b8281106132da57505050565b6060828201526020016132ce565b906103886132f8612e1984612d4b565b601f1901602084016132cb565b613315613310825190565b6132e8565b80600091613322836109a9565b945b61332f61042a865190565b86101561340657613358600961335261334b6130218a8a612e3b565b60056109b6565b01613082565b9461336461326f875190565b61336e8886612e3b565b526133798785612e3b565b50613383856109a9565b61338e61042a885190565b8110156133ef578061307081886133ce6130546133b16130216133ea988f612e3b565b6132c16133bf8260076109b6565b916133c8612d58565b95860152565b6133d88c8a612e3b565b51906133e48383612e3b565b52612e3b565b613383565b50929450946133fd90612e2c565b94939193613324565b935093505050565b61042a614c7c565b61342d61343291613425612ddd565b5060096108c0565b6109c7565b61042a6130546134438360056109b6565b61304f61344e612d58565b948552565b369037565b90610388613468612e1984612d4b565b601f190160208401613453565b634e487b7160e01b600052600060045260246000fd5b90611e6461042a6118669290565b9160001960089290920291821b911b611845565b91906134be61042a611866936109a9565b908354613499565b610388916000916134ad565b8181106134dd575050565b806134eb60006001936134c6565b016134d2565b9190601f811161350057505050565b61351261038893600052602060002090565b906020601f840181900483019310613535575b6020601f909101045b01906134d2565b9091508190613525565b600019600883021c1916906002021790565b9061355a815190565b9067ffffffffffffffff821161036f5761357e8261357885546109e7565b856134f1565b602090601f83116001146135ac576118669291600091836135a1575b505061353f565b01519050388061359a565b601f198316916135c185600052602060002090565b9260005b8181106135ff575091600293918560019694106135e6575b50505002019055565b01516000196008601f8516021c191690553880806135dd565b919360206001819287870151815501950192016135c5565b9061038891613551565b8181029291811591840414171561208857565b81811061363f575050565b8061364d60006001936134c6565b01613634565b9061366690600019906020036008021c90565b8154169055565b909182811061367b57505050565b610388929061368990612e64565b9081019101613634565b90600160401b811161036f57816136ab610388935490565b9082815561366d565b81519167ffffffffffffffff831161036f576136df612e646001926136d98686613693565b60200190565b92049160005b8381106136f25750505050565b600190602061370261042a865190565b94019381840155016136e5565b90610388916136b4565b61038891906137ff90610120906009906137448161373e87516001600160a01b031690565b9061184f565b61375f6001820161373e60208801516001600160a01b031690565b61377760028201613771604088015190565b9061348b565b61378f60038201613789606088015190565b90613617565b6137a160048201613771608088015190565b6137b9600582016137b360a088015190565b90611e54565b6137cb600682016137b360c088015190565b6137dd600782016137b360e088015190565b6137f8600882016137f2610100880151151590565b90612581565b0192015190565b9061370f565b9061038891613719565b90815491600160401b83101561036f578261383291600161038895018155610cff565b906134ad565b909594939160099261384d61342d84866108c0565b600090613859826109a9565b810361394f575b5061386b600d6109c7565b958693849a3394429060019b613880876109a9565b61388990613458565b9588613893612d62565b988901906138a991906001600160a01b03169052565b6001600160a01b03166020880152604087015260608601526138cc886080870152565b60a085015260c084015260e08301528715156101008301526101208201526138f58360056109b6565b906138ff91613805565b61390a90600661106c565b906139149161380f565b61391d916108c0565b9061392791611e54565b613931600d6109c7565b9061393b906109a9565b6139449161256b565b61038890600d611e54565b806124a161042a6139619360056109b6565b38613860565b1561396e57565b60405162461bcd60e51b8152602060048201526016602482015275131a5cdd1a5b99c8191bd95cc81b9bdd08195e1a5cdd60521b6044820152606490fd5b156139b357565b60405162461bcd60e51b8152602060048201526024808201527f426964207072696365206973206c657373207468616e206d696e2062696420706044820152637269636560e01b6064820152608490fd5b15613a0b57565b60405162461bcd60e51b815260206004820152601d60248201527f427579657220494420686173682063616e6e6f7420626520656d7074790000006044820152606490fd5b611e8b61042a613abf92613aba6103889695613ab3611e8b61042a6007613a8160008801546001600160a01b031690565b96613a9e600098613a9761178d6104578c6116f5565b1415613967565b613aad6122f760088301610ac9565b016109c7565b10156139ac565b6109a9565b1415613a04565b90613acf815190565b9067ffffffffffffffff821161036f57613aed8261357885546109e7565b602090601f8311600114613b0f576118669291600091836135a157505061353f565b601f19831691613b2485600052602060002090565b9260005b818110613b48575091600293918560019694106135e65750505002019055565b91936020600181928787015181550195019201613b28565b9061038891613ac6565b61038891906137f29060e090600790613b8e8161373e87516001600160a01b031690565b613ba0600182016137b3602088015190565b613bb860028201613bb2604088015190565b90613b60565b613bca60038201613771606088015190565b613bdc600482016137b3608088015190565b613bee600582016137b360a088015190565b613c00600682016137b360c088015190565b01920151151590565b9061038891613b6a565b9194939092613c22600c6109c7565b938492839733934260001991600094613c396130fa565b6001600160a01b0389168782015296602088015260408701526060860152608085015260a084015260c0830152151560e0820152613c788360076109b6565b90613c8291613c09565b613c8d90600861106c565b90613c979161380f565b60090190613ca49161380f565b613cae600c6109c7565b613cb860016109a9565b613cc19161256b565b61038890600c611e54565b15613cd357565b60405162461bcd60e51b8152602060048201526012602482015271109a5908191bd95cc81b9bdd08195e1a5cdd60721b6044820152606490fd5b8015156103a4565b9050519061038882613d0d565b906020828203126103ab5761042a91613d15565b15613d3d57565b60405162461bcd60e51b815260206004820152601d60248201527f496e76616c6964206d616e6167656420444b494d206b657920686173680000006044820152606490fd5b15613d8957565b60405162461bcd60e51b815260206004820152601c60248201527f496e76616c696420637573746f6d20444b494d206b65792068617368000000006044820152606490fd5b6104ba613de692602092613de0815190565b94859290565b93849101610463565b61042a91613dce565b15613dff57565b60405162461bcd60e51b815260206004820152601060248201526f24b73b30b634b2103932b1b2b4bb32b960811b6044820152606490fd5b15613e3e57565b60405162461bcd60e51b815260206004820152600e60248201526d24b73b30b634b2103237b6b0b4b760911b6044820152606490fd5b80549294909391926001600160a01b0316613ea1600091613e9a61178d610457856116f5565b1415613ccc565b613ec0613eb7828601546001600160a01b031690565b6123b23361178d565b613ecf6122f760088601610ac9565b6002840190613ee6611e8b61042a6121a4856109c7565b14613f7157613f6b93613aad611e8b94613f65611e8b612079600361207998613f236103889e613f1d611e8b61042a60049d6109c7565b14613d82565b613f4b613f2f60405190565b8092613f3f602083019182613def565b9081038252038261034d565b613f5d613f56825190565b9160200190565b209b016109c7565b14613df8565b14613e37565b506020613fba9395613f8e611ba76012546001600160a01b031690565b613fac6319d09152613f9f60405190565b9788948593849360e01b90565b835260048301526024820190565b03915afa908115611ce35761038895613aad611e8b94613f65611e8b6120796003600497613ff76120799a613f6b9d600091613ffc575b50613d36565b613f23565b61401d915060203d8111614023575b614015818361034d565b810190613d22565b38613ff1565b503d61400b565b90916124a18161038894612680600186016109c7565b1561404757565b60405162461bcd60e51b815260206004820152601860248201527f526566756e6420616c726561647920696e6974696174656400000000000000006044820152606490fd5b1561409357565b60405162461bcd60e51b8152602060048201526024808201527f4e6577207072696365206e6f742067726561746572207468616e206f6c6420706044820152637269636560e01b6064820152608490fd5b156140eb57565b60405162461bcd60e51b815260206004820152601c60248201527f496e636f727265637420616d6f756e74206f66204554482073656e74000000006044820152606490fd5b611e8b61042a600661419f936141776122f7600861038899986141606122d960008701546001600160a01b031690565b613234614172611d4360078801610ac9565b614040565b019361418f61418861042a876109c7565b821161408c565b61419934956109c7565b90612072565b146140e4565b156141ac57565b60405162461bcd60e51b815260206004820152601960248201527f526566756e6420706572696f64206e6f742073746172746564000000000000006044820152606490fd5b156141f857565b60405162461bcd60e51b815260206004820152602e60248201527f4c697374696e6720657870697265642e204269642063616e206265207769746860448201526d647261776e206469726563746c7960901b6064820152608490fd5b6008610388926132346142b1936142786122d960008301546001600160a01b031690565b61428a614172611d4360078401610ac9565b6142ab611e8b61042a42936125e460046142a4600e6109c7565b92016109c7565b116141a5565b6141f1565b156142bd57565b60405162461bcd60e51b81526020600482015260146024820152731499599d5b99081b9bdd081a5b9a5d1a585d195960621b6044820152606490fd5b1561430057565b60405162461bcd60e51b815260206004820152601760248201527f526566756e6420706572696f64206e6f7420656e6465640000000000000000006044820152606490fd5b90614361906008906132346122d985546001600160a01b031690565b6143685750565b8061438061437b60076103889401610ac9565b6142b6565b614393611e8b61042a60054294016109c7565b10156142f9565b61042a670de0b6b3a76400006109a9565b634e487b7160e01b600052601260045260246000fd5b81156143cb570490565b6143ab565b90919061440c6143fa6143ec6143e6600a6109c7565b86613621565b6143f461439a565b906143c1565b91614406838096612072565b906127c2565b61441660006109a9565b811161441f5750565b61038890612695600b546001600160a01b031690565b91906134be61042a6118669390565b61038891600091614435565b9060009161446e61446682600052602060002090565b92835461353f565b905555565b91929060208210156144cb57601f84116001146144955761186692935061353f565b50906144c66103889360016144bd6144b285600052602060002090565b92601f602091010490565b820191016134d2565b614450565b5061450482936144e2600194600052602060002090565b61352e6020601f860104820192601f86168061450c575b50601f602091010490565b600202179055565b61451890888603613653565b386144f9565b929091600160401b821161036f5760201115614565576020811015614546576118669161353f565b60019160ff191661455c84600052602060002090565b55600202019055565b60019150600202019055565b90815461457d816109e7565b908183116145a6575b818310614594575b50505050565b61459d93614473565b3880808061458e565b6145b28383838761451e565b614586565b600061038891614571565b906000036145d357610388906145b7565b613475565b600061038891613693565b906000036145d357610388906145d8565b600060096103889282808201558260018201556146148360028301614444565b61462183600383016145c2565b61462e8360048301614444565b61463b83600583016134c6565b61464883600683016134c6565b61465583600783016134c6565b826008820155016145e3565b906000036145d357610388906145f4565b60008082559060079061468883600183016134c6565b61469583600283016145c2565b6146a28360038301614444565b6146af83600483016134c6565b6146bc83600583016134c6565b6146c983600683016134c6565b0155565b906000036145d35761038890614672565b60009161473d9161038894614728611d4360086147198661471461042a61470e8c8a01546001600160a01b031690565b8561106c565b614ee6565b60098401936132348786614ee6565b9081614763575b50614742575b5060076109b6565b6146cd565b8361475861475d926121296001600592016109c7565b614661565b38614735565b549050614772611e8b866109a9565b143861472f565b6147d760009161478c8360088301612581565b6147b18461471461042a60066147ab888701546001600160a01b031690565b9061106c565b6009906147d2846147cd6147c7600485016109c7565b856108c0565b6134c6565b015490565b6147e3611e8b836109a9565b146147ec575050565b6147586103889260056109b6565b6103889061480661176c565b6148b2565b1561481257565b60405162461bcd60e51b815260206004820152601c60248201527f4164647265737320616c7265616479206f6e20616c6c6f776c697374000000006044820152606490fd5b916001600160a01b0360089290920291821b911b611845565b919061488161042a61186693611063565b908354614857565b90815491600160401b83101561036f57826148ac91600161038895018155610cff565b90614870565b906148bd60006109a9565b6148c861042a845190565b81101561496b57806148ed6148e06149669386612e3b565b516001600160a01b031690565b614929816149248161042a600261491261490d611d43611955868561106c565b61480b565b61491f600193849261106c565b612581565b614889565b6149537f41f4a012571b6bf21f3c6557be5d1a28851ce415203203b84c14099b84fe973791611063565b9061495d60405190565b600090a2612e2c565b6148bd565b509050565b610388906147fa565b6103889061498561176c565b6149d6565b1561499157565b60405162461bcd60e51b815260206004820152601a60248201527f4164647265737320616c726561647920646973616c6c6f7765640000000000006044820152606490fd5b9060006149e2816109a9565b6149ed61042a855190565b811015614a635780614a056148e0614a5e9387612e3b565b614a298461491f836002614a24614a1f611955848461106c565b61498a565b61106c565b614a34816001614d42565b6149537ff27dccb929dd3f4dba2d3ffc29a7c74e35995e051a268a7c466f9ddabdf81eac91611063565b6149e2565b50509050565b61038890614979565b614a7a61176c565b610388614af4565b15614a8957565b60405162461bcd60e51b815260206004820152601d60248201527f416c6c6f77206c69737420697320616c726561647920656e61626c65640000006044820152606490fd5b9060ff60a01b9060a01b611845565b90614aed61042a61186692151590565b8254614ace565b614b09614b04611d4360006118dd565b614a82565b614b1560016000614add565b7f8a943acd5f4e6d3df7565a4a08a93f6b04cc31bb6c01ca4aef7abd6baf455ec3614b3f60405190565b808061292f565b610388614a72565b614b5661176c565b610388614baa565b15614b6557565b60405162461bcd60e51b815260206004820152601e60248201527f416c6c6f77206c69737420697320616c72656164792064697361626c656400006044820152606490fd5b614bbc614bb760006118dd565b614b5e565b614bc7600080614add565b7f2d35c8d348a345fd7b3b03b7cfcf7ad0b60c2d46742d5ca536342e4185becb07614b3f60405190565b610388614b4e565b90614c08612e646104cd845490565b9060005b818110614c195750505090565b909192614c47612e9e600192614c3687546001600160a01b031690565b6001600160a01b0316815260200190565b929101614c0c565b9061042a91614bf9565b90610388610ab992614c6a60405190565b93848092614c4f565b61042a90614c59565b61042a6001614c73565b90614c95612e646104cd845490565b9060005b818110614ca65750505090565b909192614cc3612e9e600192614c3687546001600160a01b031690565b929101614c99565b9061042a91614c86565b90610388610ab992614ce660405190565b93848092614ccb565b61042a90614cd5565b634e487b7160e01b600052603160045260246000fd5b61038891600091614870565b80548015614d3d576000190190614d3a614d348383610cff565b90614d0e565b55565b614cf8565b614d57614d5e92614d5283614cef565b614df5565b9092901590565b15614da05760405162461bcd60e51b815260206004820152601560248201527420b2323932b9b9903737ba1034b71030b93930bc9760591b6044820152606490fd5b61038891614db9614daf835490565b61419960016109a9565b90818103614dc9575b5050614d1a565b6148ac614ddc610d48614de39486610cff565b9184610cff565b3880614dc2565b61042a6000196109a9565b91908251926000614e05816109a9565b855b811015614e4f57614e1b6148e08285612e3b565b614e2d6001600160a01b03861661178d565b14614e4557614e3e614e0791612e2c565b9050614e05565b9450505050600190565b5093505050611e8b614dea565b90614e6b612e646104cd845490565b9060005b818110614e7c5750505090565b909192614e91612e9e600192612e96876109c7565b929101614e6f565b9061042a91614e5c565b90610388610ab992614eb460405190565b93848092614e99565b61042a90614ea3565b80548015614d3d576000190190614d3a614ee08383610cff565b906134c6565b614d57614efb92614ef683614ebd565b614f76565b15614f3d5760405162461bcd60e51b81526020600482015260156024820152743ab4b73a191a9b103737ba1034b71030b93930bc9760591b6044820152606490fd5b61038891614f4c614daf835490565b90818103614f5c575b5050614ec6565b613832614ddc6110a2614f6f9486610cff565b3880614f55565b91908251926000614f86816109a9565b855b811015614e4f57614f9c6130218285612e3b565b8414614e4557614fae614f8891612e2c565b9050614f8656fea2646970667358221220ee77ad8148d49d57c6e7d3091f9f0348683e76ec173d127be519480295b19ec264736f6c63430008120033",
  "devdoc": {
    "events": {
      "Paused(address)": {
        "details": "Emitted when the pause is triggered by `account`."
      },
      "Unpaused(address)": {
        "details": "Emitted when the pause is lifted by `account`."
      }
    },
    "kind": "dev",
    "methods": {
      "addAddressesToAllowlist(address[])": {
        "params": {
          "_allowedAddresses": "List of addresses allowed to call allow listed functions"
        }
      },
      "buyerReleaseFunds(uint256)": {
        "params": {
          "_bidId": "The unique identifier of the bid to release funds for"
        }
      },
      "createBid(uint256,bytes32,string)": {
        "params": {
          "_buyerIdHash": "The hashed buyerId which is also output as part of the transfer proof later",
          "_encryptedBuyerId": "The encrypted buyerId. Should be the same as the buyerId hashed",
          "_listingId": "The unique identifier of the listing to bid on"
        }
      },
      "createListing(bytes32,uint256,uint256,address,bytes,bytes32)": {
        "params": {
          "_askPrice": "An asking price for the domain",
          "_dkimKeyHash": "The custom DKIM key hash. If empty, the managed DKIM key hash will be used",
          "_domainId": "The unique identifier of the domain",
          "_encryptionKey": "The encryption key for buyers to encrypt the buyerId to",
          "_minBidPrice": "The minimum bid price for the domain",
          "_saleEthRecipient": "The address to receive the ETH from the sale; must be a contract that can                          receive ETH or an EOA"
        }
      },
      "deleteListing(uint256)": {
        "params": {
          "_listingId": "The unique identifier of the listing to delete"
        }
      },
      "finalizeSale((uint256[2],uint256[2][2],uint256[2],uint256[10]))": {
        "params": {
          "_proof": "The zk-email proof of domain transfer"
        }
      },
      "getDomainListing(bytes32)": {
        "params": {
          "_domainId": "The domain id to fetch the active listing for"
        }
      },
      "getListingBids(uint256[])": {
        "params": {
          "_listingIds": "An array of listingIds to fetch bids for"
        }
      },
      "getListings(uint256[])": {
        "params": {
          "_listingIds": "An array of listingIds to fetch details for"
        }
      },
      "getUserBids(address)": {
        "params": {
          "_user": "The address of the user to fetch bids for"
        }
      },
      "getUserListings(address)": {
        "params": {
          "_user": "The address of the user to fetch listings for"
        }
      },
      "increaseBidPrice(uint256,uint256)": {
        "params": {
          "_bidId": "The unique identifier of the bid to increase the price for",
          "_newPrice": "The new price for the bid"
        }
      },
      "initialize(address,address,address)": {
        "params": {
          "_mailServerKeyHashAdapter": "The address of the mail server key hash adapter contract",
          "_transferDomainProcessor": "The address of the domain transfer processor contract",
          "_verifiedDomainRegistry": "The address of the verified domain registry contract"
        }
      },
      "initiateRefund(uint256)": {
        "params": {
          "_bidId": "The unique identifier of the bid to initiate refund for"
        }
      },
      "owner()": {
        "details": "Returns the address of the current owner."
      },
      "paused()": {
        "details": "Returns true if the contract is paused, and false otherwise."
      },
      "removeAddressesFromAllowlist(address[])": {
        "params": {
          "_disallowedAddresses": "List of addresses being disallowed from calling allow listed functions"
        }
      },
      "renounceOwnership()": {
        "details": "Leaves the contract without owner. It will not be possible to call `onlyOwner` functions. Can only be called by the current owner. NOTE: Renouncing ownership will leave the contract without an owner, thereby disabling any functionality that is only available to the owner."
      },
      "transferOwnership(address)": {
        "details": "Transfers ownership of the contract to a new account (`newOwner`). Can only be called by the current owner."
      },
      "updateBidRefundPeriod(uint256)": {
        "params": {
          "_newBidRefundPeriod": "The new bid refund period in seconds"
        }
      },
      "updateBidSettlementPeriod(uint256)": {
        "params": {
          "_newBidSettlementPeriod": "The new bid settlement period in seconds"
        }
      },
      "updateFee(uint256)": {
        "params": {
          "_newFee": "The new fee percentage (in basis points)"
        }
      },
      "updateFeeRecipient(address)": {
        "params": {
          "_newFeeRecipient": "The new address to receive fees"
        }
      },
      "updateListing(uint256,uint256,address)": {
        "params": {
          "_listingId": "The unique identifier of the listing to update",
          "_newAskPrice": "The new asking price for the listing",
          "_saleEthRecipient": "The new address to receive the ETH from the sale; must be a contract that can                          receive ETH or an EOA"
        }
      },
      "updateMailServerKeyHashAdapter(address)": {
        "params": {
          "_mailServerKeyHashAdapter": "The new mail server key hash adapter"
        }
      },
      "updateTransferDomainProcessor(address)": {
        "params": {
          "_transferDomainProcessor": "The new transfer domain processor"
        }
      },
      "withdrawBid(uint256)": {
        "params": {
          "_bidId": "The unique identifier of the bid to withdraw"
        }
      }
    },
    "version": 1
  },
  "userdoc": {
    "kind": "user",
    "methods": {
      "addAddressesToAllowlist(address[])": {
        "notice": "Adds passed addresses to an allow list. Addresses on the allow list are able to call allow listed functions."
      },
      "buyerReleaseFunds(uint256)": {
        "notice": "ONLY BUYER: Finalize a sale by releasing funds to the seller. Proof of transfer is not required because it is not in the buyer's interest to release funds unless they have received the domain. Note that the bid can be in ANY STATE when this function is called. Upon calling this function funds will be transferred to the seller and fees will be taken by the protocol. The listing and the bid will be deleted. The function will revert if: - The bid is not owned by the caller - The listing is not active (sold or withdrawn)"
      },
      "createBid(uint256,bytes32,string)": {
        "notice": "Creates a new bid for a listing. Transfers ETH from the buyer to the contract. Every buyer has a unique identifier, for Namecheap it's their username. The seller needs the raw buyerId to transfer the domain off-chain. To facilitate this, the buyer encrypts their buyerId using the  seller's encryption key and sends it along with the bid. The seller then decrypts the buyerId  using their private key to get the raw buyerId. DEV NOTE: We do not check that the encrypted buyerId is the same as the hashed buyerId. This must be done in the client! This does not affect the security of the protocol as the encrypted buyerId is only  used for communication between the buyer and the seller while maintaining privacy."
      },
      "createListing(bytes32,uint256,uint256,address,bytes,bytes32)": {
        "notice": "Creates listing for a domain. If ownership of domain changes offchain, the new owner will have to first register the domain on the domain registry contract. Then the new owner can create a listing for the domain. The old listing will be deleted from the old owner's  listings and the old listing is marked as NOT active, which prevents any new bids from being created on it and makes the old bids immediately withdrawable. We also allow the seller to specify a custom DKIM key hash for Namecheap if they want to opt out of using the managed DKIM key hash set in the transferDomainProcessor contract. The managed DKIM key hash *can* be  updated by us whenever Namecheap rotates their DKIM key. Function reverts if: - Caller is not domain owner on the domain registry contract - Ask price is less than min bid price - Sale ETH recipient is the zero address"
      },
      "deleteListing(uint256)": {
        "notice": "ONLY SELLER: Marks a listing as NOT active. Removes the listing from the seller's listings array and domain listing. If the listing has no bids, it is deleted from the exchange. Bids against the listing are left as is to allow the buyer to withdraw the bid."
      },
      "disableAllowlist()": {
        "notice": "Disable the allow list. When the allow list is disabled, any address is allowed to call functions with onlyAllowed modifier."
      },
      "enableAllowlist()": {
        "notice": "Enable the allow list. When the allow list is enabled, only approved addresses are allowed to functions with onlyAllowed modifier."
      },
      "finalizeSale((uint256[2],uint256[2][2],uint256[2],uint256[10]))": {
        "notice": "ONLY SELLER: Finalizes a sale by verifying the domain transfer and unlocking bid funds to  the listing owner. The seller can also finalize the sale with bids that have initiated a refund  including the ones that have expired based on timestamp but not withdrawn yet."
      },
      "getAllowedSellers()": {
        "notice": "Get all allowed sellers"
      },
      "getDomainListing(bytes32)": {
        "notice": "Get the active listing for given domain id"
      },
      "getListingBids(uint256[])": {
        "notice": "Returns the bids for given listingIds"
      },
      "getListings(uint256[])": {
        "notice": "Get listing information with listingId for a list of listingIds"
      },
      "getUserBids(address)": {
        "notice": "Returns the bids created by a user"
      },
      "getUserListings(address)": {
        "notice": "Returns all listings created by a user"
      },
      "increaseBidPrice(uint256,uint256)": {
        "notice": "ONLY BUYER: Increases the price of an existing bid. The new price can ONLY be higher  than the old price. The buyer must send the additional amount of ETH. The function reverts if - bid has initiated refund, caller is not bid owner or listing is not active - the new price is less than old price - msg.value is NOT STRICTLY EQUAL to than new price - old price"
      },
      "initialize(address,address,address)": {
        "notice": "Initializes the contract with domain verification and transfer processors. Can  only be called once by the contract owner "
      },
      "initiateRefund(uint256)": {
        "notice": "ONLY BUYER: Initiates the refund process for a bid. Can only be called by the bid owner  after the initial bid expiry period has passed."
      },
      "pauseMarketplace()": {
        "notice": "ONLY OWNER: Pauses listing and proof submission functionality for the marketplace.  Functionalites that are paused: - Listing creation and update - Bid creation and update - Sale finalization  Functinonalites that remain unpaused to allow users to retrieve funds in contract: - Bid refund initiation and withdrawal - Listing deletion - Manual settlement between buyer and seller"
      },
      "removeAddressesFromAllowlist(address[])": {
        "notice": "Removes passed addresses from an allow list. Addresses not on the allow list are unable to call allow listed functions."
      },
      "unpauseMarketplace()": {
        "notice": "ONLY OWNER: Restarts paused functionality for the marketplace."
      },
      "updateBidRefundPeriod(uint256)": {
        "notice": "ONLY OWNER: Updates the bid refund period"
      },
      "updateBidSettlementPeriod(uint256)": {
        "notice": "ONLY OWNER: Updates the minimum bid active period"
      },
      "updateFee(uint256)": {
        "notice": "ONLY OWNER: Updates the fee percentage for the marketplace"
      },
      "updateFeeRecipient(address)": {
        "notice": "ONLY OWNER: Updates the fee recipient address"
      },
      "updateListing(uint256,uint256,address)": {
        "notice": "ONLY SELLER: Updates the asking price of an existing listing. We don't update the existing bids against the listing because the newAskPrice is an indicative value. The new ask price must be greater than or equal to the existing min bid price. If seller wants to update the min bid price, they should delete the listing and create a new one with the new min bid price."
      },
      "updateMailServerKeyHashAdapter(address)": {
        "notice": "ONLY OWNER: Update the managed mail server key hash adapter"
      },
      "updateTransferDomainProcessor(address)": {
        "notice": "ONLY OWNER: Update the transfer domain processor"
      },
      "withdrawBid(uint256)": {
        "notice": "ONLY BUYER: Withdraws a bid after the refund period has ended. Transfers ETH back to the buyer."
      }
    },
    "version": 1
  },
  "storageLayout": {
    "storage": [
      {
        "astId": 7,
        "contract": "contracts/DomainExchange.sol:DomainExchange",
        "label": "_owner",
        "offset": 0,
        "slot": "0",
        "type": "t_address"
      },
      {
        "astId": 5018,
        "contract": "contracts/DomainExchange.sol:DomainExchange",
        "label": "isEnabled",
        "offset": 20,
        "slot": "0",
        "type": "t_bool"
      },
      {
        "astId": 5021,
        "contract": "contracts/DomainExchange.sol:DomainExchange",
        "label": "allowedAddresses",
        "offset": 0,
        "slot": "1",
        "type": "t_array(t_address)dyn_storage"
      },
      {
        "astId": 5025,
        "contract": "contracts/DomainExchange.sol:DomainExchange",
        "label": "isAllowed",
        "offset": 0,
        "slot": "2",
        "type": "t_mapping(t_address,t_bool)"
      },
      {
        "astId": 231,
        "contract": "contracts/DomainExchange.sol:DomainExchange",
        "label": "_status",
        "offset": 0,
        "slot": "3",
        "type": "t_uint256"
      },
      {
        "astId": 130,
        "contract": "contracts/DomainExchange.sol:DomainExchange",
        "label": "_paused",
        "offset": 0,
        "slot": "4",
        "type": "t_bool"
      },
      {
        "astId": 3220,
        "contract": "contracts/DomainExchange.sol:DomainExchange",
        "label": "listings",
        "offset": 0,
        "slot": "5",
        "type": "t_mapping(t_uint256,t_struct(Listing)3177_storage)"
      },
      {
        "astId": 3225,
        "contract": "contracts/DomainExchange.sol:DomainExchange",
        "label": "userListings",
        "offset": 0,
        "slot": "6",
        "type": "t_mapping(t_address,t_array(t_uint256)dyn_storage)"
      },
      {
        "astId": 3230,
        "contract": "contracts/DomainExchange.sol:DomainExchange",
        "label": "bids",
        "offset": 0,
        "slot": "7",
        "type": "t_mapping(t_uint256,t_struct(Bid)3200_storage)"
      },
      {
        "astId": 3235,
        "contract": "contracts/DomainExchange.sol:DomainExchange",
        "label": "userBids",
        "offset": 0,
        "slot": "8",
        "type": "t_mapping(t_address,t_array(t_uint256)dyn_storage)"
      },
      {
        "astId": 3239,
        "contract": "contracts/DomainExchange.sol:DomainExchange",
        "label": "domainListing",
        "offset": 0,
        "slot": "9",
        "type": "t_mapping(t_bytes32,t_uint256)"
      },
      {
        "astId": 3241,
        "contract": "contracts/DomainExchange.sol:DomainExchange",
        "label": "fee",
        "offset": 0,
        "slot": "10",
        "type": "t_uint256"
      },
      {
        "astId": 3243,
        "contract": "contracts/DomainExchange.sol:DomainExchange",
        "label": "feeRecipient",
        "offset": 0,
        "slot": "11",
        "type": "t_address_payable"
      },
      {
        "astId": 3245,
        "contract": "contracts/DomainExchange.sol:DomainExchange",
        "label": "bidCounter",
        "offset": 0,
        "slot": "12",
        "type": "t_uint256"
      },
      {
        "astId": 3247,
        "contract": "contracts/DomainExchange.sol:DomainExchange",
        "label": "listingCounter",
        "offset": 0,
        "slot": "13",
        "type": "t_uint256"
      },
      {
        "astId": 3249,
        "contract": "contracts/DomainExchange.sol:DomainExchange",
        "label": "bidSettlementPeriod",
        "offset": 0,
        "slot": "14",
        "type": "t_uint256"
      },
      {
        "astId": 3251,
        "contract": "contracts/DomainExchange.sol:DomainExchange",
        "label": "bidRefundPeriod",
        "offset": 0,
        "slot": "15",
        "type": "t_uint256"
      },
      {
        "astId": 3253,
        "contract": "contracts/DomainExchange.sol:DomainExchange",
        "label": "isInitialized",
        "offset": 0,
        "slot": "16",
        "type": "t_bool"
      },
      {
        "astId": 3256,
        "contract": "contracts/DomainExchange.sol:DomainExchange",
        "label": "transferDomainProcessor",
        "offset": 1,
        "slot": "16",
        "type": "t_contract(ITransferDomainProcessor)6179"
      },
      {
        "astId": 3259,
        "contract": "contracts/DomainExchange.sol:DomainExchange",
        "label": "verifiedDomainRegistry",
        "offset": 0,
        "slot": "17",
        "type": "t_contract(IVerifiedDomainRegistry)6218"
      },
      {
        "astId": 3262,
        "contract": "contracts/DomainExchange.sol:DomainExchange",
        "label": "mailServerKeyHashAdapter",
        "offset": 0,
        "slot": "18",
        "type": "t_contract(IKeyHashAdapterV2)5259"
      }
    ],
    "types": {
      "t_address": {
        "encoding": "inplace",
        "label": "address",
        "numberOfBytes": "20"
      },
      "t_address_payable": {
        "encoding": "inplace",
        "label": "address payable",
        "numberOfBytes": "20"
      },
      "t_array(t_address)dyn_storage": {
        "base": "t_address",
        "encoding": "dynamic_array",
        "label": "address[]",
        "numberOfBytes": "32"
      },
      "t_array(t_uint256)dyn_storage": {
        "base": "t_uint256",
        "encoding": "dynamic_array",
        "label": "uint256[]",
        "numberOfBytes": "32"
      },
      "t_bool": {
        "encoding": "inplace",
        "label": "bool",
        "numberOfBytes": "1"
      },
      "t_bytes32": {
        "encoding": "inplace",
        "label": "bytes32",
        "numberOfBytes": "32"
      },
      "t_bytes_storage": {
        "encoding": "bytes",
        "label": "bytes",
        "numberOfBytes": "32"
      },
      "t_contract(IKeyHashAdapterV2)5259": {
        "encoding": "inplace",
        "label": "contract IKeyHashAdapterV2",
        "numberOfBytes": "20"
      },
      "t_contract(ITransferDomainProcessor)6179": {
        "encoding": "inplace",
        "label": "contract ITransferDomainProcessor",
        "numberOfBytes": "20"
      },
      "t_contract(IVerifiedDomainRegistry)6218": {
        "encoding": "inplace",
        "label": "contract IVerifiedDomainRegistry",
        "numberOfBytes": "20"
      },
      "t_mapping(t_address,t_array(t_uint256)dyn_storage)": {
        "encoding": "mapping",
        "key": "t_address",
        "label": "mapping(address => uint256[])",
        "numberOfBytes": "32",
        "value": "t_array(t_uint256)dyn_storage"
      },
      "t_mapping(t_address,t_bool)": {
        "encoding": "mapping",
        "key": "t_address",
        "label": "mapping(address => bool)",
        "numberOfBytes": "32",
        "value": "t_bool"
      },
      "t_mapping(t_bytes32,t_uint256)": {
        "encoding": "mapping",
        "key": "t_bytes32",
        "label": "mapping(bytes32 => uint256)",
        "numberOfBytes": "32",
        "value": "t_uint256"
      },
      "t_mapping(t_uint256,t_struct(Bid)3200_storage)": {
        "encoding": "mapping",
        "key": "t_uint256",
        "label": "mapping(uint256 => struct DomainExchange.Bid)",
        "numberOfBytes": "32",
        "value": "t_struct(Bid)3200_storage"
      },
      "t_mapping(t_uint256,t_struct(Listing)3177_storage)": {
        "encoding": "mapping",
        "key": "t_uint256",
        "label": "mapping(uint256 => struct DomainExchange.Listing)",
        "numberOfBytes": "32",
        "value": "t_struct(Listing)3177_storage"
      },
      "t_string_storage": {
        "encoding": "bytes",
        "label": "string",
        "numberOfBytes": "32"
      },
      "t_struct(Bid)3200_storage": {
        "encoding": "inplace",
        "label": "struct DomainExchange.Bid",
        "members": [
          {
            "astId": 3185,
            "contract": "contracts/DomainExchange.sol:DomainExchange",
            "label": "buyer",
            "offset": 0,
            "slot": "0",
            "type": "t_address"
          },
          {
            "astId": 3187,
            "contract": "contracts/DomainExchange.sol:DomainExchange",
            "label": "listingId",
            "offset": 0,
            "slot": "1",
            "type": "t_uint256"
          },
          {
            "astId": 3189,
            "contract": "contracts/DomainExchange.sol:DomainExchange",
            "label": "encryptedBuyerId",
            "offset": 0,
            "slot": "2",
            "type": "t_string_storage"
          },
          {
            "astId": 3191,
            "contract": "contracts/DomainExchange.sol:DomainExchange",
            "label": "buyerIdHash",
            "offset": 0,
            "slot": "3",
            "type": "t_bytes32"
          },
          {
            "astId": 3193,
            "contract": "contracts/DomainExchange.sol:DomainExchange",
            "label": "createdAt",
            "offset": 0,
            "slot": "4",
            "type": "t_uint256"
          },
          {
            "astId": 3195,
            "contract": "contracts/DomainExchange.sol:DomainExchange",
            "label": "expiryTimestamp",
            "offset": 0,
            "slot": "5",
            "type": "t_uint256"
          },
          {
            "astId": 3197,
            "contract": "contracts/DomainExchange.sol:DomainExchange",
            "label": "price",
            "offset": 0,
            "slot": "6",
            "type": "t_uint256"
          },
          {
            "astId": 3199,
            "contract": "contracts/DomainExchange.sol:DomainExchange",
            "label": "refundInitiated",
            "offset": 0,
            "slot": "7",
            "type": "t_bool"
          }
        ],
        "numberOfBytes": "256"
      },
      "t_struct(Listing)3177_storage": {
        "encoding": "inplace",
        "label": "struct DomainExchange.Listing",
        "members": [
          {
            "astId": 3157,
            "contract": "contracts/DomainExchange.sol:DomainExchange",
            "label": "seller",
            "offset": 0,
            "slot": "0",
            "type": "t_address"
          },
          {
            "astId": 3159,
            "contract": "contracts/DomainExchange.sol:DomainExchange",
            "label": "saleEthRecipient",
            "offset": 0,
            "slot": "1",
            "type": "t_address_payable"
          },
          {
            "astId": 3161,
            "contract": "contracts/DomainExchange.sol:DomainExchange",
            "label": "dkimKeyHash",
            "offset": 0,
            "slot": "2",
            "type": "t_bytes32"
          },
          {
            "astId": 3163,
            "contract": "contracts/DomainExchange.sol:DomainExchange",
            "label": "encryptionKey",
            "offset": 0,
            "slot": "3",
            "type": "t_bytes_storage"
          },
          {
            "astId": 3165,
            "contract": "contracts/DomainExchange.sol:DomainExchange",
            "label": "domainId",
            "offset": 0,
            "slot": "4",
            "type": "t_bytes32"
          },
          {
            "astId": 3167,
            "contract": "contracts/DomainExchange.sol:DomainExchange",
            "label": "createdAt",
            "offset": 0,
            "slot": "5",
            "type": "t_uint256"
          },
          {
            "astId": 3169,
            "contract": "contracts/DomainExchange.sol:DomainExchange",
            "label": "askPrice",
            "offset": 0,
            "slot": "6",
            "type": "t_uint256"
          },
          {
            "astId": 3171,
            "contract": "contracts/DomainExchange.sol:DomainExchange",
            "label": "minBidPrice",
            "offset": 0,
            "slot": "7",
            "type": "t_uint256"
          },
          {
            "astId": 3173,
            "contract": "contracts/DomainExchange.sol:DomainExchange",
            "label": "isActive",
            "offset": 0,
            "slot": "8",
            "type": "t_bool"
          },
          {
            "astId": 3176,
            "contract": "contracts/DomainExchange.sol:DomainExchange",
            "label": "bids",
            "offset": 0,
            "slot": "9",
            "type": "t_array(t_uint256)dyn_storage"
          }
        ],
        "numberOfBytes": "320"
      },
      "t_uint256": {
        "encoding": "inplace",
        "label": "uint256",
        "numberOfBytes": "32"
      }
    }
  }
}