{
  "address": "0x2b68bFd2b44a6a9E8dC7b414550457B091ECB5fB",
  "abi": [
    {
      "inputs": [
        {
          "internalType": "address",
          "name": "_registry",
          "type": "address"
        },
        {
          "internalType": "contract INullifierRegistry",
          "name": "_nullifierRegistry",
          "type": "address"
        },
        {
          "internalType": "string[]",
          "name": "_providerHashes",
          "type": "string[]"
        }
      ],
      "stateMutability": "nonpayable",
      "type": "constructor"
    },
    {
      "anonymous": false,
      "inputs": [
        {
          "indexed": true,
          "internalType": "address",
          "name": "previousOwner",
          "type": "address"
        },
        {
          "indexed": true,
          "internalType": "address",
          "name": "newOwner",
          "type": "address"
        }
      ],
      "name": "OwnershipTransferred",
      "type": "event"
    },
    {
      "anonymous": false,
      "inputs": [
        {
          "indexed": false,
          "internalType": "string",
          "name": "providerHash",
          "type": "string"
        }
      ],
      "name": "ProviderHashAdded",
      "type": "event"
    },
    {
      "anonymous": false,
      "inputs": [
        {
          "indexed": false,
          "internalType": "string",
          "name": "providerHash",
          "type": "string"
        }
      ],
      "name": "ProviderHashRemoved",
      "type": "event"
    },
    {
      "anonymous": false,
      "inputs": [
        {
          "indexed": false,
          "internalType": "address",
          "name": "witness",
          "type": "address"
        }
      ],
      "name": "WitnessAdded",
      "type": "event"
    },
    {
      "anonymous": false,
      "inputs": [
        {
          "indexed": false,
          "internalType": "address",
          "name": "witness",
          "type": "address"
        }
      ],
      "name": "WitnessRemoved",
      "type": "event"
    },
    {
      "inputs": [
        {
          "internalType": "string",
          "name": "_newProviderHash",
          "type": "string"
        }
      ],
      "name": "addProviderHash",
      "outputs": [],
      "stateMutability": "nonpayable",
      "type": "function"
    },
    {
      "inputs": [
        {
          "internalType": "address",
          "name": "_newWitness",
          "type": "address"
        }
      ],
      "name": "addWitness",
      "outputs": [],
      "stateMutability": "nonpayable",
      "type": "function"
    },
    {
      "inputs": [],
      "name": "getProviderHashes",
      "outputs": [
        {
          "internalType": "string[]",
          "name": "",
          "type": "string[]"
        }
      ],
      "stateMutability": "view",
      "type": "function"
    },
    {
      "inputs": [],
      "name": "getWitnesses",
      "outputs": [
        {
          "internalType": "address[]",
          "name": "",
          "type": "address[]"
        }
      ],
      "stateMutability": "view",
      "type": "function"
    },
    {
      "inputs": [
        {
          "internalType": "string",
          "name": "",
          "type": "string"
        }
      ],
      "name": "isProviderHash",
      "outputs": [
        {
          "internalType": "bool",
          "name": "",
          "type": "bool"
        }
      ],
      "stateMutability": "view",
      "type": "function"
    },
    {
      "inputs": [
        {
          "internalType": "address",
          "name": "",
          "type": "address"
        }
      ],
      "name": "isWitness",
      "outputs": [
        {
          "internalType": "bool",
          "name": "",
          "type": "bool"
        }
      ],
      "stateMutability": "view",
      "type": "function"
    },
    {
      "inputs": [],
      "name": "nullifierRegistry",
      "outputs": [
        {
          "internalType": "contract INullifierRegistry",
          "name": "",
          "type": "address"
        }
      ],
      "stateMutability": "view",
      "type": "function"
    },
    {
      "inputs": [],
      "name": "owner",
      "outputs": [
        {
          "internalType": "address",
          "name": "",
          "type": "address"
        }
      ],
      "stateMutability": "view",
      "type": "function"
    },
    {
      "inputs": [
        {
          "internalType": "uint256",
          "name": "",
          "type": "uint256"
        }
      ],
      "name": "providerHashes",
      "outputs": [
        {
          "internalType": "string",
          "name": "",
          "type": "string"
        }
      ],
      "stateMutability": "view",
      "type": "function"
    },
    {
      "inputs": [],
      "name": "registry",
      "outputs": [
        {
          "internalType": "address",
          "name": "",
          "type": "address"
        }
      ],
      "stateMutability": "view",
      "type": "function"
    },
    {
      "inputs": [
        {
          "internalType": "string",
          "name": "_removeProviderHash",
          "type": "string"
        }
      ],
      "name": "removeProviderHash",
      "outputs": [],
      "stateMutability": "nonpayable",
      "type": "function"
    },
    {
      "inputs": [
        {
          "internalType": "address",
          "name": "_removeWitness",
          "type": "address"
        }
      ],
      "name": "removeWitness",
      "outputs": [],
      "stateMutability": "nonpayable",
      "type": "function"
    },
    {
      "inputs": [],
      "name": "renounceOwnership",
      "outputs": [],
      "stateMutability": "nonpayable",
      "type": "function"
    },
    {
      "inputs": [
        {
          "internalType": "address",
          "name": "newOwner",
          "type": "address"
        }
      ],
      "name": "transferOwnership",
      "outputs": [],
      "stateMutability": "nonpayable",
      "type": "function"
    },
    {
      "inputs": [
        {
          "components": [
            {
              "components": [
                {
                  "internalType": "string",
                  "name": "provider",
                  "type": "string"
                },
                {
                  "internalType": "string",
                  "name": "parameters",
                  "type": "string"
                },
                {
                  "internalType": "string",
                  "name": "context",
                  "type": "string"
                }
              ],
              "internalType": "struct Claims.ClaimInfo",
              "name": "claimInfo",
              "type": "tuple"
            },
            {
              "components": [
                {
                  "components": [
                    {
                      "internalType": "bytes32",
                      "name": "identifier",
                      "type": "bytes32"
                    },
                    {
                      "internalType": "address",
                      "name": "owner",
                      "type": "address"
                    },
                    {
                      "internalType": "uint32",
                      "name": "timestampS",
                      "type": "uint32"
                    },
                    {
                      "internalType": "uint32",
                      "name": "epoch",
                      "type": "uint32"
                    }
                  ],
                  "internalType": "struct Claims.CompleteClaimData",
                  "name": "claim",
                  "type": "tuple"
                },
                {
                  "internalType": "bytes[]",
                  "name": "signatures",
                  "type": "bytes[]"
                }
              ],
              "internalType": "struct Claims.SignedClaim",
              "name": "signedClaim",
              "type": "tuple"
            }
          ],
          "internalType": "struct IProxyBaseProcessor.Proof",
          "name": "proof",
          "type": "tuple"
        }
      ],
      "name": "verifyProofSignatures",
      "outputs": [
        {
          "internalType": "bool",
          "name": "",
          "type": "bool"
        }
      ],
      "stateMutability": "view",
      "type": "function"
    },
    {
      "inputs": [
        {
          "components": [
            {
              "components": [
                {
                  "internalType": "string",
                  "name": "provider",
                  "type": "string"
                },
                {
                  "internalType": "string",
                  "name": "parameters",
                  "type": "string"
                },
                {
                  "internalType": "string",
                  "name": "context",
                  "type": "string"
                }
              ],
              "internalType": "struct Claims.ClaimInfo",
              "name": "claimInfo",
              "type": "tuple"
            },
            {
              "components": [
                {
                  "components": [
                    {
                      "internalType": "bytes32",
                      "name": "identifier",
                      "type": "bytes32"
                    },
                    {
                      "internalType": "address",
                      "name": "owner",
                      "type": "address"
                    },
                    {
                      "internalType": "uint32",
                      "name": "timestampS",
                      "type": "uint32"
                    },
                    {
                      "internalType": "uint32",
                      "name": "epoch",
                      "type": "uint32"
                    }
                  ],
                  "internalType": "struct Claims.CompleteClaimData",
                  "name": "claim",
                  "type": "tuple"
                },
                {
                  "internalType": "bytes[]",
                  "name": "signatures",
                  "type": "bytes[]"
                }
              ],
              "internalType": "struct Claims.SignedClaim",
              "name": "signedClaim",
              "type": "tuple"
            }
          ],
          "internalType": "struct IProxyBaseProcessor.Proof[]",
          "name": "_proofs",
          "type": "tuple[]"
        }
      ],
      "name": "verifyProofs",
      "outputs": [
        {
          "components": [
            {
              "internalType": "string",
              "name": "name",
              "type": "string"
            },
            {
              "internalType": "uint256",
              "name": "expiryTime",
              "type": "uint256"
            }
          ],
          "internalType": "struct IVerifyDomainProcessor.DomainRaw[]",
          "name": "domains",
          "type": "tuple[]"
        }
      ],
      "stateMutability": "nonpayable",
      "type": "function"
    },
    {
      "inputs": [
        {
          "internalType": "uint256",
          "name": "",
          "type": "uint256"
        }
      ],
      "name": "witnesses",
      "outputs": [
        {
          "internalType": "address",
          "name": "",
          "type": "address"
        }
      ],
      "stateMutability": "view",
      "type": "function"
    }
  ],
  "transactionHash": "0xacb6da424872c9702d3d822824386ec1dbd1318408a3d767d77fd8d0a18b0db8",
  "args": [
    "0x15EF83EBB422B4AC8e3b8393d016Ed076dc50CB7",
    "0x120F2AC79c5921f8CFAe530Ceac5E635DC6972b5",
    [
      "0xfd4622039be3e4286dd3285d36d772a71d580a9afa0a1718a7e643539c952cf9",
      "0x90a6489eff38140689a15133fb58906a7e847cc18271af036936c8eda91ddcc8",
      "0x14d26d02b3ae9f26f9e62a4d8d76ebfff0cd4a4d4629c08c909af99ec0eb41d7",
      "0x64558b4363c4f8d4e7c1ee1a75e4d82f8fa76640e174b06d4ed34e3b46ebc1a7",
      "0xe4ac93cf32a585897b300eec0d22fddaed70165948f7aafd1c44364805813057",
      "0x4a266fd63f550db6b79172325f33419df6d5d87bf924b175d8b1817f010a21cf",
      "0xdc0e66724fcf38e8519c7ab33ab9e6a047c758db35204b1d086500fe50333f71",
      "0x515a82e3326b985ca073d58a3ba9290e84ff8d021d072e7b420fd0616bc609e7",
      "0xb41a513fdd3e2b7a6b8e0c02f8a714aa3aca101cd32365de6cbac90fae308e06",
      "0x1fdc4738b323d4c38bf657a33f74f95618bc11933fcc4ce6e9f3f7c93f5a492e",
      "0x5f15231e57a2fa86f5e1eb1c2abdbd5485109ada65bb63bed87c72425dca8285",
      "0x5459ebbea646d1a4a0c93944e68600c9e355918a90b36d352a1291ba557e556c",
      "0xff66c7ec1f7c81fc833bafb9522cc15be4ef56462267c89879510501c1bc77fd",
      "0x5faa515009ca792805bdf03d951d753ab241c321066e3f0cbc0ee8f4c09ecb32",
      "0x804818b286e6c204b3f18282b1f7a0a40b1b555bc39dcf256342e0b4dc3f2992",
      "0x5ff169334a81b8b98ba9e7beb1ef2e3860f79f148cf07526524e829ecf6d6e5d",
      "0x38989329e5ced5859e6509da39f11f6344c10522c0193c0cb573e783e974fbd0",
      "0xac441d6d1e9962eb0abcbc819231e48614786c179507fd0faaec4cad0b5d1e0b",
      "0xe62e6329abefdee24fcecf37ca55b112fa9d0abacb2c99cd7f8c0da6c7ba46a8",
      "0x099b6726de138236fa7d3917f17caef42ebd19fa93de96b1b1faffc713265d30",
      "0xde1e37cbb28770a1b1ed70d4a6837e0ee727926069ee8fa1633f03e4de2c35cd",
      "0x6c0e0b23424d75c6191209487a27bdcb9ee9f748ec05f872b4afd56af66c36c5",
      "0x9f76a244b731d7257d4cc846f3da987a6203862a32abe5d379785dbecd235d1a",
      "0xef63eb7d0da5808077af6a8e9c160416ca66db16779ef30e4949d31edd70bf09",
      "0x2b5db07f588bd27d3795281c640fd5ffe6de1114503a27e510a4aa4bd9d004d4",
      "0x7189940070b05a712fc63053e9c7718770c562cd7df084e50a941669f680090a",
      "0x1657faac94dd55e063362ddfb6f95c5a6d21e79ff758c6a8d6079510b004be32",
      "0x60a18f9b8af405dcb90b51e6719fc14b7c7927a5961444cd97eb8ecffc7ecbd9",
      "0x040fbe68e91a4575ad91d7dcb90077fcfc17627ef2a1293f59d1772959ccaed7",
      "0xe2f19f3c91d9a590cfaf25f46551b4a0239ab452ef5f638ab172ccfbd0a0c617",
      "0x70a8c0b560b4655c3a7c68c0bb76cf9fc42484a3bb73c5fed02a5fb4297965b6",
      "0x56c812dccd84620292a18a829158ba20fef49e52efa5794c58d7d2780148fc23",
      "0x72ab702376864dba1eb761a6937ab1d9fd02e607043d7d6434bb3f342b220a73",
      "0xd78e55f09de9c1869064135807c1514b2b7f905b209cc570ecd52e04b03658ea",
      "0x752c1557a4edaa74f9c6dd7c166ed91efce14ed906471641373f2a7b0284c1dd",
      "0x0a6d99c8e50b86556ab7cb84f513e100421fbf30bfec67cdd18ce72025531993",
      "0x6813bdf5e24e6b5dba7bf43da893b892b772ede62fd44dd2b64a3117337bbf1f",
      "0x3de42f758236bfb794df199d9e8458379d3712d2ec688e2e5ff3c3df5f958fa1",
      "0xc3dd13ceaf2f9de125cb236a3dbcf79c0c1f758ab6187ceda684e38455df61d3",
      "0xd9335b69d0a9912557e1a9ede125108931bcab6aee6874f25ff38bd7f4e15b53",
      "0x28f4d6a102a425f323ab09b3df79245cc107af12750359a3abff684eda8ccab4",
      "0x96e311f6dc7880938a832d817d9c7bf5362db1c11b1aa5c7477029ec1a67fddb",
      "0x6080466f782d79cf5e369d7ddb9dfad0a18d3305f9175f5dda9f018379dfa09b",
      "0x02e00e22814427e254d8f3864e3c2fc7d4df8f5a880a02acd453e7ed266d34f3",
      "0x7227d090de5230b94bb1276b3f7f88637c5f81ca78611dd688abaad8f444f994",
      "0x35e984b55982c5ff052a556f4222d68c8418b30fef2a492a54fdc2932d37d922",
      "0x7138e0ddbabc0a60acd45beab2de3b358b53de74f4232f39de107e6385948574",
      "0x8e5d65220543375a787871bf75fd97ac5e92ab19e4e3966f8cd10e626a2a60a7",
      "0x93368c81a1b5ae7bdda5f6d4438a468d021473bb87f2497fa9182919da4b0c94",
      "0x4427153487539ae730ef8efea808c07bb204874254f1c2122c10061f45b9f3c6",
      "0x435c11202ac6185b21b8db4fb611239f88b15a9fabd592881dcdc8e1d5699b1f",
      "0xbd8906d0befd6ee002dde561784391592d87700d5e056feb55edeef379b0818e",
      "0x8b2e8c033e6552fc84097959758d282fefef91b1fb14af4030000b9b9c0e4002",
      "0xb0bce44cf9775397a5165866ba30bd3e08d803361e07dcd13836b0e6bac90115",
      "0x4d498fe8a5c041a5b7db76193e7d8b892f0671e51ce96428ceb106ff3169a7c4",
      "0x315d843fb171162091c0b48bcdf9e7b6cd501e5e7b95939008307e1528fe47b9",
      "0xd7dffe2c62f550564eb39c36bcf0d6c5e42a81b465588d2130f0ea8069a7032e",
      "0xe92b04c68d583298f3c4b7bcc2950e1eb87c1f07c3d1ebb882f58b1c859569d4",
      "0x8d3f0ae15560c62602003b3ae3ac315225ce3efc5b8f1095f879874c57314bba",
      "0x586842c544b265525a27f2f69b24e8ea8e04d449f5da3b8382f77b9abffa6e20",
      "0x09a8b20b3de23b8f661e388e6541aa4e18b39edf7e2f0926e4b3763c82fee1e2",
      "0xb79056285d7d62718d9b1f19087cf246f6fa4bd54b59fefb6e53674eb036819f",
      "0x910bcc08eeca45f11593fe7b3aa808213a144ddcc952bd46480ebc827100def2",
      "0xb236556aad9e923c4550fee8bba81c41c7536853354ebd67df2df39d0805dbc1",
      "0x4f47385534d844365d9ec1642313713df7b50200d1934ff8500f021a4e50f0e1",
      "0xc234e7aaa70f35381cce4ed61eb5fddebb86a1cb00ded43da6bf60e1da75ffe5",
      "0x2cc4c39b7274f840719c07a65f6004a43a28545052fb79611568b94f8f286246",
      "0x0dde40a5b8a6459a903a69c380e8dd1f5e2204834db7257d919d05cf5fb5b60e",
      "0x0947712b8534d1c94dc99beb4471b5ff8a829146ac805a84899516ba7c2b921b",
      "0x89eacd1f0cddb88b7eef5e29fb4ec02ec2c18091e032a0c678183f525e962e1b",
      "0x3c95de2b959ef104f5237e7c7d827c84b7609e1c653d558d87c0d25919480c2b",
      "0x84293ae420c269d3c6c1545a925de8110a2682d05580c02908eb599d93e88933",
      "0x517aee0b4eb5683ea2ee6eea71ab1185a0d9fcbfdf32635fb7e3a00b43ed6105",
      "0x7daee2949ac85d2f3dcba4c2d45a4841c4ff53c6f9280f01627e97120fdfe9da",
      "0xee930d1872b327df3860ecd73230f947e6f580ac6d0dadc682a74dc8a4982dc9",
      "0x302dd9fb18d7eb42ae6fb33885fd29d19f6994fffcdcb9aef2d7cd736ad62497",
      "0xca6b572cc14692953bac2ac3a122bb825dee217d2fc06a36b45ca25989f70019",
      "0x11dc7a8b213bb58657d84da0d5a3cdff873dde18be19b2b644cf0b3e115b66d1",
      "0x8500d23729472f0c32264279081bee65e632c933cdc8f8cf55e763375f205fdb",
      "0x01bd276fa345583afe6900dd0adca011f2403698773b885959b9a029f05b3c57",
      "0x2d8a7f754f9061e593e0cc0c2837cccc385b5f8b78c0229c0bdb9896d88b4433",
      "0x7abab9115123f9e5741aea38ea067c74dfa8b6092c8532dbcc8989f7a8d83a92",
      "0x472b25279325695c81860fe0d64ac8b7042d1c84ea8e859c97e4acba9d586925",
      "0x606f6a5d814a6fe0e19e092b15ada33448e8b4ae7de97193d39fb88b5e22a2bc",
      "0x026620c2765771542f2bbe43dde1bbcd1961d7ca42aee878b7003bd58fbcdfa5",
      "0xa7b5e4bc48f40cc2e6e7136ed5335b1e714b3108bfa3e38ba11337260bcc4a11",
      "0x8450ab03bb68dcef8a02de079ea430859d8fe6b676d2766d2d0e9b51ef98deb3",
      "0xf4cadad2be2ab909a67f64e6092caa80758b6c705c694993fe751c60a439e194",
      "0x853fdf59b3e0d9d8fa9d05908df3d210d4e0ace89623d8c0d263df4e2c28d29e",
      "0xcf879c7ed93fed3ffe32896a2f0f47b04b061a3553b1a29137885e2c2ce89137",
      "0x90ee386b48c1f38ed4bd7892f79b4305a98f3f7fd6d3b6ff086737dcf27cc57d",
      "0xa9bae751ffff6b3d2c6aff1076a3a8ec83f993f9c103c783c59bc6d994f903af",
      "0xf2ba487dff86adcdb3de547fb379c76c529d3e281af8c4f0a410778bd82d1667",
      "0xa2059864db657d873b0143d3d7d00835791eead71bd51b3a9f5552eec4222b4e",
      "0x011518c2db496ca7aad11d852b07504703925fa5e068df9002480af49bb5a9cf",
      "0xa94526a2fec1b0fad05cbbb809b7572f4489fad26eb186900f029b9131734587",
      "0x0a1c8ea4623415a005e01c2b9b7d162be9b999b75a3ca7c25b919be63a5653e7",
      "0x38d390dfca745c9d32032db845c4550e67fb271065b042778cc04c94d588d3ee",
      "0xdb3575e62edb3032bbdaee45a7a65d228fc7f5cca2c5b7aa0955cc9df8a09ecb",
      "0xc27d518fd5a69f2f7917988162e3b707b52e4c17143ff07737a158f19d272819"
    ]
  ],
  "numDeployments": 2,
  "solcInputHash": "2d5447dc2e8fb3a2517c08b948266497",
  "bytecode": "0x60c06040523462000051576200001f620000186200027f565b91620002a7565b6040516136af620008888239608051818181610b4a015261357d015260a0518181816108a50152610fff01526136af90f35b600080fd5b634e487b7160e01b600052604160045260246000fd5b90601f01601f191681019081106001600160401b038211176200008e57604052565b62000056565b90620000ab620000a360405190565b92836200006c565b565b6001600160a01b031690565b90565b6001600160a01b0381165b036200005157565b90505190620000ab82620000bc565b6001600160a01b038116620000c7565b90505190620000ab82620000de565b6001600160401b0381116200008e5760208091020190565b6001600160401b0381116200008e57602090601f01601f19160190565b0190565b60005b8381106200014a5750506000910152565b818101518382015260200162000139565b90929192620001746200016e8262000115565b62000094565b938185526020850190828401116200005157620000ab9262000136565b9080601f8301121562000051578151620000b9926020016200015b565b929190620001c06200016e82620000fd565b9381855260208086019202810191838311620000515781905b838210620001e8575050505050565b81516001600160401b03811162000051576020916200020b878493870162000191565b815201910190620001d9565b9080601f8301121562000051578151620000b992602001620001ae565b9160608383031262000051576200024c8284620000cf565b926200025c8360208301620000ee565b60408201519093906001600160401b0381116200005157620000b9920162000217565b620002a262003f3780380380620002968162000094565b92833981019062000234565b909192565b91620002b391620006bb565b60a052565b620000b9620000b9620000b99290565b634e487b7160e01b600052601160045260246000fd5b6000198114620002ee5760010190565b620002c8565b634e487b7160e01b600052603260045260246000fd5b9062000314825190565b81101562000326576020809102010190565b620002f4565b62000132620003479260209262000341815190565b94859290565b9384910162000136565b620003646200013291602094936200032c565b918252565b620003816200037760405190565b9283928362000351565b03902090565b620000b99162000369565b156200039a57565b60405162461bcd60e51b815260206004820152601b60248201527f50726f7669646572206861736820616c726561647920616464656400000000006044820152606490fd5b9060ff905b9181191691161790565b9062000401620000b96200040992151590565b8254620003df565b9055565b8054821015620003265762000429600191600052602060002090565b91020190600090565b634e487b7160e01b600052600060045260246000fd5b634e487b7160e01b600052602260045260246000fd5b906001600283049216801562000481575b60208310146200047b57565b62000448565b91607f16916200046f565b9160001960089290920291821b911b620003e4565b9190620004b6620000b96200040993620002b8565b9083546200048c565b620000ab91600091620004a1565b818110620004d9575050565b80620004e96000600193620004bf565b01620004cd565b9190601f81116200050057505050565b62000514620000ab93600052602060002090565b906020601f84018190048301931062000538575b6020601f909101040190620004cd565b909150819062000528565b906200054d815190565b906001600160401b0382116200008e5762000575826200056e85546200045e565b85620004f0565b602090601f8311600114620005b45762000409929160009183620005a8575b5050600019600883021c1916906002021790565b01519050388062000594565b601f19831691620005ca85600052602060002090565b9260005b8181106200060b57509160029391856001969410620005f1575b50505002019055565b01516000196008601f8516021c19169055388080620005e8565b91936020600181928787015181550195019201620005ce565b91906200063657620000ab9162000543565b62000432565b90815491680100000000000000008310156200008e578262000668916001620000ab950181556200040d565b9062000624565b620006946200069e602093620001329362000688815190565b80835293849260200190565b9586910162000136565b601f01601f191690565b6020808252620000b9929101906200066f565b919091620006c8620007c2565b608052620006d76000620002b8565b620006e4620000b9845190565b811015620007bd57620007b7906200074d60036200072c62000726620007226200071b62000713878b6200030a565b518562000387565b5460ff1690565b1590565b62000392565b620007476001916200073f85896200030a565b519062000387565b620003ee565b6200076760046200075f83876200030a565b51906200063c565b6200077381856200030a565b51620007ae7fc9e1c78701d1853eeb1eb35ad3449e4b336281f672d5837243d21239dc6f409691620007a460405190565b91829182620006a8565b0390a1620002de565b620006d7565b509050565b620000ab3362000825565b906001600160a01b0390620003e4565b620000b990620000ad906001600160a01b031682565b620000b990620007dd565b620000b990620007f3565b906200081d620000b96200040992620007fe565b8254620007cd565b6000546001600160a01b0316906200083f81600062000809565b620008766200086f7f8be0079c531659141344cd1fd0a4f28419497f9722a3daafe3b4186f6b6457e093620007fe565b91620007fe565b916200088160405190565b600090a356fe6080604052600436101561001257600080fd5b60003560e01c80631cba9bed146101225780632ca6927d1461011d57806350262c001461011857806357c6e12a1461011357806359e26be11461010e578063670a8cb714610109578063715018a6146101045780637b103999146100ff5780637de24fcf146100fa5780638da5cb5b146100f557806396d195bd146100f0578063b870676c146100eb578063bd6e7741146100e6578063c2107e73146100e1578063ee2f13cd146100dc578063f2fde38b146100d75763fa7643f4036101d457610c7e565b610c3c565b610c24565b610bfd565b610b6f565b610b31565b610acb565b610a40565b610a19565b610890565b610878565b610837565b6107d9565b61079d565b6105a6565b6102ef565b61021c565b634e487b7160e01b600052604160045260246000fd5b90601f01601f191681019081106001600160401b0382111761015e57604052565b610127565b9061017761017060405190565b928361013d565b565b6001600160401b03811161015e57602090601f01601f19160190565b0190565b90826000939282370152565b909291926101ba6101b582610179565b610163565b938185526020850190828401116101d45761017792610199565b600080fd5b9080601f830112156101d4578160206101f4933591016101a5565b90565b906020828203126101d45781356001600160401b0381116101d4576101f492016101d9565b346101d45761023461022f3660046101f7565b612392565b604051005b0390f35b60005b8381106102505750506000910152565b8181015183820152602001610240565b61019561027892602092610272815190565b94859290565b9384910161023d565b9052565b6102956101959160209493610260565b918252565b6102af6102a660405190565b92839283610285565b03902090565b6101f49161029a565b6101f4916008021c5b60ff1690565b906101f491546102be565b6101f4906102ea6003916000926102b5565b6102cd565b346101d45761023961030a6103053660046101f7565b6102d8565b60405191829182901515815260200190565b9190916060818403126101d4576103336060610163565b9281356001600160401b0381116101d457816103509184016101d9565b845260208201356001600160401b0381116101d457816103719184016101d9565b602085015260408201356001600160401b0381116101d45761039392016101d9565b6040830152565b805b036101d457565b905035906101778261039a565b6001600160a01b031690565b6001600160a01b03811661039c565b90503590610177826103bc565b63ffffffff811661039c565b90503590610177826103d8565b9190916080818403126101d45761044a61040b6080610163565b93600061041882856103a3565b90860152602061042a828286016103cb565b90860152604061043c828286016103e4565b9086015260608093016103e4565b90830152565b6001600160401b03811161015e5760208091020190565b9291906104766101b582610450565b93818552602080860192028101918383116101d45781905b83821061049c575050505050565b81356001600160401b0381116101d4576020916104bc87849387016101d9565b81520191019061048e565b9080601f830112156101d4578160206101f493359101610467565b91909160a0818403126101d4576104f96040610163565b92600061050682846103f1565b9085015260808201356001600160401b0381116101d45761052792016104c7565b6020830152565b9190916040818403126101d4576105456040610163565b9281356001600160401b0381116101d4578161056291840161031c565b845260208201356001600160401b0381116101d45761052792016104e2565b906020828203126101d45781356001600160401b0381116101d4576101f4920161052e565b346101d45761023961030a6105bc366004610581565b6128f5565b906020828203126101d4576101f4916103a3565b634e487b7160e01b600052603260045260246000fd5b805482101561060e57610605600191600052602060002090565b91020190600090565b6105d5565b634e487b7160e01b600052600060045260246000fd5b634e487b7160e01b600052602260045260246000fd5b906001600283049216801561065f575b602083101461065a57565b610629565b91607f169161064f565b8054600093929161068661067c8361063f565b8085529360200190565b91600181169081156106d8575060011461069f57505050565b6106b29192939450600052602060002090565b916000925b8184106106c45750500190565b8054848401526020909301926001016106b7565b92949550505060ff1916825215156020020190565b906101f491610669565b906101776107119261070860405190565b938480926106ed565b038361013d565b90600010610729576101f4906106f7565b610613565b6004600061073a825490565b83101561075557506101f49161074f916105eb565b90610718565b80fd5b6107796107826020936101959361076d815190565b80835293849260200190565b9586910161023d565b601f01601f191690565b60208082526101f492910190610758565b346101d4576102396107b86107b33660046105c1565b61072e565b6040515b9182918261078c565b906020828203126101d4576101f4916103cb565b346101d4576102346107ec3660046107c5565b611d4f565b6101f4916008021c6001600160a01b031690565b906101f491546107f1565b6002600061081c825490565b83101561075557506101f491610831916105eb565b90610805565b346101d45761023961085261084d3660046105c1565b610810565b6040515b918291826001600160a01b03909116815260200190565b60009103126101d457565b346101d45761088836600461086d565b610234610cee565b346101d4576108a036600461086d565b6102397f0000000000000000000000000000000000000000000000000000000000000000610852565b9291906108d86101b582610450565b93818552602080860192028101918383116101d45781905b8382106108fe575050505050565b81356001600160401b0381116101d45760209161091e878493870161052e565b8152019101906108f0565b9080601f830112156101d4578160206101f4933591016108c9565b906020828203126101d45781356001600160401b0381116101d4576101f49201610929565b906101f49060208061098a6040840160008701518582036000870152610758565b940151910152565b906101f491610969565b906109b26109a8835190565b8083529160200190565b90816109c46020830284019460200190565b926000915b8383106109d857505050505090565b909192939460206109fb6109f483856001950387528951610992565b9760200190565b93019301919392906109c9565b60208082526101f49291019061099c565b346101d457610239610a34610a2f366004610944565b610fed565b60405191829182610a08565b346101d457610a5036600461086d565b610239610852610cac565b90610a7b610a74610a6a845190565b8084529260200190565b9260200190565b9060005b818110610a8c5750505090565b909192610ab2610aab60019286516001600160a01b0316815260200190565b9460200190565b929101610a7f565b60208082526101f492910190610a5b565b346101d457610adb36600461086d565b610239610ae66133e7565b60405191829182610aba565b6101f4906103b0906001600160a01b031682565b6101f490610af2565b6101f490610b06565b61028190610b0f565b6020810192916101779190610b18565b346101d457610b4136600461086d565b604051806102397f000000000000000000000000000000000000000000000000000000000000000082610b21565b346101d457610234610b823660046101f7565b6122ce565b906101f491610758565b90610b9d6109a8835190565b9081610baf6020830284019460200190565b926000915b838310610bc357505050505090565b90919293946020610bdf6109f483856001950387528951610b87565b9301930191939290610bb4565b60208082526101f492910190610b91565b346101d457610c0d36600461086d565b610239610c1861344e565b60405191829182610bec565b346101d457610234610c373660046107c5565b611e51565b346101d457610234610c4f3660046107c5565b610e05565b90610c5e90610b0f565b600052602052604060002090565b6101f4906102ea600191600092610c54565b346101d45761023961030a610c943660046107c5565b610c6c565b6101f4906103b0565b6101f49054610c99565b6101f46000610ca2565b610cbe610d4a565b610177610cdc565b6103b06101f46101f49290565b6101f490610cc6565b610177610ce96000610cd3565b610e3e565b610177610cb6565b15610cfd57565b60405162461bcd60e51b815280610d46600482016020808252818101527f4f776e61626c653a2063616c6c6572206973206e6f7420746865206f776e6572604082015260600190565b0390fd5b610177610d55610cac565b610d6e610d61336103b0565b916001600160a01b031690565b14610cf6565b61017790610d80610d4a565b610de0565b15610d8c57565b60405162461bcd60e51b815260206004820152602660248201527f4f776e61626c653a206e6577206f776e657220697320746865207a65726f206160448201526564647265737360d01b6064820152608490fd5b61017790610ce9610df46103b06000610cd3565b6001600160a01b0383161415610d85565b61017790610d74565b906001600160a01b03905b9181191691161790565b90610e336101f4610e3a92610b0f565b8254610e0e565b9055565b610e486000610ca2565b90610e54816000610e23565b610e87610e817f8be0079c531659141344cd1fd0a4f28419497f9722a3daafe3b4186f6b6457e093610b0f565b91610b0f565b91610e9160405190565b600090a3565b15610e9e57565b60405162461bcd60e51b815260206004820152601660248201527513db9b1e481c9959da5cdd1c9e4818d85b8818d85b1b60521b6044820152606490fd5b906102956101b583610450565b6101f46040610163565b610efb610ee9565b906060825260006020830152565b6101f4610ef3565b60005b828110610f2057505050565b602090610f2b610f09565b8184015201610f14565b90610177610f4b610f4584610edc565b93610450565b601f190160208401610f11565b6101f46101f46101f49290565b634e487b7160e01b600052601160045260246000fd5b6000198114610f8a5760010190565b610f65565b90610f98825190565b81101561060e576020809102010190565b15610fb057565b60405162461bcd60e51b815260206004820152601560248201527409cde40ecc2d8d2c840e0e4deecd2c8cae490c2e6d605b1b6044820152606490fd5b9061102a336110246001600160a01b037f000000000000000000000000000000000000000000000000000000000000000016610d61565b14610e97565b61103a611035835190565b610f35565b916000908361104883610f58565b6110536101f4845190565b8110156110de578061109e6110be6110ac6110996110a760208061107a6110d9998c610f8f565b51611084816128f5565b5061108e81611221565b999199969096613458565b610fa9565b01510151613550565b6113f1565b6105276110b7610ee9565b9389850152565b6110c88289610f8f565b526110d38188610f8f565b50610f7b565b611048565b5093505050565b6102c76101f46101f49290565b6101f460056110e5565b9092919261110c6101b582610179565b938185526020850190828401116101d4576101779261023d565b9080601f830112156101d45781516101f4926020016110fc565b92919061114f6101b582610450565b93818552602080860192028101918383116101d45781905b838210611175575050505050565b81516001600160401b0381116101d4576020916111958784938701611126565b815201910190611167565b9080601f830112156101d45781516101f492602001611140565b906020828203126101d45781516001600160401b0381116101d4576101f492016111a0565b60409061120d6112016101779597969460608401908482036000860152610758565b60ff9097166020830152565b019015159052565b6040513d6000823e3d90fd5b51604001517317463cb89A62c7b4A5ecD949aFDEDBD0Aa047ad191634be6d4f89160009061124d6110f2565b9461126e6001956112798761126160405190565b998a968795869560e01b90565b8552600485016111df565b03915af49283156112f2576000936112cf575b506112c86112b66112b06112a96112a36000610f58565b87610f8f565b5194610f58565b85610f8f565b51936112c26002610f58565b90610f8f565b5191929190565b6112eb91933d8091833e6112e3818361013d565b8101906111ba565b913861128c565b611215565b6001600160401b03811161015e5760200290565b6101b56101f4916112f7565b60005b82811061132657505050565b60608282015260200161131a565b9061017761134a6113448461130b565b936112f7565b83611317565b6101f46006611334565b90611363825190565b81101561060e570160200190565b61138461137e6101f49290565b60f81b90565b6001600160f81b03191690565b90600681101561060e576020020190565b91908201809211610f8a57565b156113b657565b60405162461bcd60e51b8152602060048201526013602482015272496e76616c6964206461746520737472696e6760681b6044820152606490fd5b906000916113fd611350565b8390600061140a81610f58565b846114166101f4825190565b82101561150a578161143961142b828461135a565b516001600160f81b03191690565b611454611446602d611371565b916001600160f81b03191690565b149182156114e7575b82156114c3575b5050611479575b61147490610f7b565b61140a565b9295836114869186611b86565b6114908784611391565b5261149b8683611391565b506114746114bb6114b56114af6001610f58565b866113a2565b97610f7b565b93905061146b565b6114d292509061142b9161135a565b6114df6114466054611371565b148138611464565b91506114f661142b828461135a565b611503611446603a611371565b149161145d565b5050929161152f61155c92936101f496976115296115258390565b5190565b91611b86565b6115398285611391565b526115448184611391565b506115566115526005610f58565b9190565b146113af565b61158261157b61157461156e85610f58565b84611391565b5193610f58565b8093611905565b9061159a8361159461156e6001610f58565b51611905565b6115b1846115946115ab6002610f58565b85611391565b906115e1856115946115d0826115946115ca6003610f58565b89611391565b956115db6004610f58565b90611391565b9361161b565b6101f462015180610f58565b81810292918115918404141715610f8a57565b6101f4610e10610f58565b6101f4603c610f58565b61166a9361165b6116526116446101f499989661165b966116619661163e600090565b50611712565b61164c6115e7565b906115f3565b9161164c611606565b906113a2565b9161164c611611565b6113a2565b156101d457565b91908083039260009091128015828513169184121617610f8a57565b919082810192600013801591841291821691151617610f8a57565b634e487b7160e01b600052601260045260246000fd5b81156116de57600160ff1b8114600019831416610f8a570590565b6116ad565b8181029291600160ff1b81146000831216610f8a578184051490151715610f8a57565b6101f462253d8c610f58565b61171d6107b2610f58565b8110156117299061166f565b61173290610f58565b9061173c90610f58565b9161174690610f58565b611751617d4b610f58565b61175a91611676565b906105b56117696112c0610f58565b6117739083611692565b600e9161177f83610f58565b6117899087611676565b91600c9261179684610f58565b61179f916116c3565b6117a891611692565b906117b290610f58565b906117bc916116e3565b936004946117c986610f58565b6117d2916116c3565b6117db91611692565b61016f6117e86002610f58565b6117f29088611676565b6117fb85610f58565b6118059089611676565b61180e85610f58565b611817916116c3565b61182085610f58565b611829916116e3565b61183291611676565b9061183c90610f58565b90611846916116e3565b61184f83610f58565b611858916116c3565b61186191611692565b94600393611870611324610f58565b61187991611692565b9261188390610f58565b61188c91611676565b9061189690610f58565b61189f916116c3565b6118a891611692565b6118b26064610f58565b6118bb916116c3565b906118c590610f58565b906118cf916116e3565b906118d990610f58565b6118e2916116c3565b6118eb91611676565b6118f3611706565b6118fc91611676565b6101f490610f58565b6101f49190611914602e611371565b90611a04565b6102c76101f46101f49260ff1690565b6101f49060f81c61191a565b6101f46101f46101f49260ff1690565b91908203918211610f8a57565b1561195a57565b60405162461bcd60e51b815260206004820152601c60248201527f537472696e6720686173206d756c7469706c6520646563696d616c73000000006044820152606490fd5b156119a657565b60405162461bcd60e51b815260206004820152602260248201527f537472696e672068617320746f6f206d616e7920646563696d616c20706c6163604482015261657360f01b6064820152608490fd5b604d8111610f8a57600a0a90565b92600091611a1183610f58565b808493815b611a216101f48a5190565b811015611b22578589611a3761142b848361135a565b603090611a4661144683611371565b101580611b00575b611ab6575b5050611aa6575b611a6761142b828b61135a565b611a7a6001600160f81b03198716611446565b14611a8e575b611a8990610f7b565b611a16565b94611a9e90151587151514611953565b600194611a80565b92611ab090610f7b565b92611a5a565b61165b90611af2611aec611ae7611ae261142b89611adc611af89a9d61164c600a610f58565b9861135a565b61192a565b611936565b91610f58565b90611946565b928938611a53565b50611b0e61142b858461135a565b611b1b6114466039611371565b1115611a4e565b509650935061164c9250611b4c91506101f494611b47611b3f8290565b83111561199f565b611946565b6119f6565b906102956101b583610179565b369037565b90610177611b79611b7384611b51565b93610179565b601f190160208401611b5e565b909290611b9b611b968585611946565b611b63565b91845b845b811015611be057611bd981611bbb61142b611ba0948761135a565b611bd3611bc88a84611946565b9160001a918861135a565b53610f7b565b9050611b9e565b509350506101f4915090565b61017790611bf8610d4a565b611cdc565b6101f4906102c7565b6101f49054611bfd565b15611c1757565b60405162461bcd60e51b815260206004820152601c60248201527f4164647265737320697320616c72656164792061207769746e657373000000006044820152606490fd5b9060ff90610e19565b90611c756101f4610e3a92151590565b8254611c5c565b916001600160a01b0360089290920291821b911b610e19565b921b90565b9190611cab6101f4610e3a93610b0f565b908354611c7c565b90815491600160401b83101561015e5782611cd6916001610177950181556105eb565b90611c9a565b611d116001611d02611cfd611cf9611cf48685610c54565b611c06565b1590565b611c10565b611d0c8382610c54565b611c65565b611d1c816002611cb3565b611d4a7ff5944521c155e80db583372b9992336b6616b14dfb924a5cf6ef97b256d280349161085660405190565b0390a1565b61017790611bec565b61017790611d64610d4a565b611dee565b15611d7057565b60405162461bcd60e51b815260206004820152601860248201527f41646472657373206973206e6f742061207769746e65737300000000000000006044820152606490fd5b91906008610e19910291611c9560ff841b90565b9190611dda6101f4610e3a93151590565b908354611db5565b61017791600091611dc9565b611e186000611e13836001611e0e611e09611cf48484610c54565b611d69565b610c54565b611de2565b611e23816002611f32565b611d4a7f8b5785dce93ca82765b1cc25cedcda1b501288cb23a1fd171c0091d83900f9bd9161085660405190565b61017790611d58565b90611e75611e69610a6a845490565b92600052602060002090565b9060005b818110611e865750505090565b909192611eb3611eac600192611e9b87610ca2565b6001600160a01b0316815260200190565b9460010190565b929101611e79565b906101f491611e5a565b9061017761071192611ed660405190565b93848092611ebb565b6101f490611ec5565b634e487b7160e01b600052603160045260246000fd5b61017791600091611c9a565b80548015611f2d576000190190611f2a611f2483836105eb565b90611efe565b55565b611ee8565b611f47611f4e92611f4283611edf565b611fe5565b9092901590565b15611f905760405162461bcd60e51b815260206004820152601560248201527420b2323932b9b9903737ba1034b71030b93930bc9760591b6044820152606490fd5b61017791611fa9611f9f835490565b611af26001610f58565b90818103611fb9575b5050611f0a565b611cd6611fcc610831611fd394866105eb565b91846105eb565b3880611fb2565b6101f4600019610f58565b91908251926000611ff581610f58565b855b81101561204c5761201861200b8285610f8f565b516001600160a01b031690565b61202a6001600160a01b038616610d61565b146120425761203b611ff791610f7b565b9050611ff5565b9450505050600190565b5093505050611552611fda565b61017790612065610d4a565b61226c565b1561207157565b60405162461bcd60e51b815260206004820152601b60248201527f50726f7669646572206861736820616c726561647920616464656400000000006044820152606490fd5b9160001960089290920291821b911b610e19565b91906120db6101f4610e3a93610f58565b9083546120b6565b610177916000916120ca565b8181106120fa575050565b8061210860006001936120e3565b016120ef565b9190601f811161211d57505050565b61212f61017793600052602060002090565b906020601f840181900483019310612152575b6020601f909101045b01906120ef565b9091508190612142565b600019600883021c1916906002021790565b90612177815190565b906001600160401b03821161015e5761219a82612194855461063f565b8561210e565b602090601f83116001146121c857610e3a9291600091836121bd575b505061215c565b0151905038806121b6565b601f198316916121dd85600052602060002090565b9260005b81811061221c57509160029391856001969410612202575b50505002019055565b01516000196008601f8516021c19165b90553880806121f9565b919360206001819287870151815501950192016121e1565b9190610729576101779161216e565b90815491600160401b83101561015e5782612266916001610177950181556105eb565b90612234565b6122956003612289612284611cf9611cf486856102b5565b61206a565b611d0c836001926102b5565b6122a0816004612243565b611d4a7fc9e1c78701d1853eeb1eb35ad3449e4b336281f672d5837243d21239dc6f4096916107bc60405190565b61017790612059565b610177906122e3610d4a565b612334565b156122ef57565b60405162461bcd60e51b815260206004820152601760248201527f50726f76696465722068617368206e6f7420666f756e640000000000000000006044820152606490fd5b6123596000611e1383600361235461234f611cf484846102b5565b6122e8565b6102b5565b6123648160046126aa565b611d4a7f6f594b4b4f0580c66aabba75218163a99fa1fe330a171cc9e2bfd8e167db22f8916107bc60405190565b610177906122d7565b6101f4906106f7565b906123ad825490565b6123b681610edc565b926123ca6020850191600052602060002090565b6000915b8383106123db5750505050565b6001602081926123ea8561239b565b8152019201920191906123ce565b6101f4906123a4565b6101f4905461063f565b908082146124da5761241c81612401565b906001600160401b03821161015e5761243982612194855461063f565b600090601f831160011461246657610e3a92916000918361245b57505061215c565b0154905038806121b6565b9061247b601f19841692600052602060002090565b9061248b85600052602060002090565b92815b8181106124c2575091600293918560019694106124ae5750505002019055565b01546000196008601f8516021c1916612212565b9193600180602092878701548155019501920161248e565b5050565b9190610729576101779161240b565b9061250090600019906020036008021c90565b8154169055565b9060009161252561251d82600052602060002090565b92835461215c565b905555565b919290602082101561258257601f841160011461254c57610e3a92935061215c565b509061257d61017793600161257461256985600052602060002090565b92601f602091010490565b820191016120ef565b612507565b506125bb8293612599600194600052602060002090565b61214b6020601f860104820192601f8616806125c3575b50601f602091010490565b600202179055565b6125cf908886036124ed565b386125b0565b929091600160401b821161015e576020111561261c5760208110156125fd57610e3a9161215c565b60019160ff191661261384600052602060002090565b55600202019055565b60019150600202019055565b9081546126348161063f565b9081831161265d575b81831061264b575b50505050565b6126549361252a565b38808080612645565b612669838383876125d5565b61263d565b600061017791612628565b90600003610729576101779061266e565b80548015611f2d576000190190611f2a6126a483836105eb565b90612679565b611f476126bf926126ba836123f8565b612744565b156127005760405162461bcd60e51b815260206004820152601460248201527329ba3934b733903737ba1034b71030b93930bc9760611b6044820152606490fd5b6101779161270f611f9f835490565b9081810361271f575b505061268a565b61273761272f61273d93856105eb565b5091846105eb565b906124de565b3880612718565b9190825192600061275481610f58565b855b8110156127ac5761276a6115258285610f8f565b61277c612775825190565b9160200190565b20612794611552865b612790612775825190565b2090565b14612042576127a561275691610f7b565b9050612754565b509350505081199190565b156127be57565b60405162461bcd60e51b815260206004820152600d60248201526c4e6f207369676e61747572657360981b6044820152606490fd5b156127fa57565b60405162461bcd60e51b815260206004820152601c60248201527f436c61696d496e666f206861736820646f65736e2774206d61746368000000006044820152606490fd5b1561284657565b60405162461bcd60e51b815260206004820152603560248201527f4e756d626572206f66207369676e617475726573206e6f7420657175616c20746044820152746f206e756d626572206f66207769746e657373657360581b6064820152608490fd5b156128b057565b60405162461bcd60e51b815260206004820152601960248201527f5369676e6174757265206e6f7420617070726f707269617465000000000000006044820152606490fd5b906020820190815160200151612909905190565b9160009261291684610f58565b10612920906127b7565b828080808451015196845160200151612937610ee9565b98838a01906129439152565b6020890152015161295390612efe565b925101510161296190611525565b1461296b906127f3565b61297483612a5b565b805191600292612982845490565b1461298c9061283f565b61299584610f58565b935b6129a66101f460208801515190565b851015612a405780956129b882610f58565b6129c36101f4875490565b811015612a28576129d761200b8887610f8f565b6129ea610d616103b0610831858b6105eb565b146129fd576129f890610f7b565b6129b8565b50946129a69196506020612a1d6101f492612a1860016128a9565b610f7b565b969792505050612997565b50946020612a1d6101f492612a186129a6959a6128a9565b509350505050600190565b90610177611b79610f4584610edc565b6020612a6a6000830151612b2b565b910190612a7e612a7983515190565b612a4b565b91612a896000610f58565b612a956101f483515190565b811015612ad55780612a18612ab8612ab1612ad0948651610f8f565b5186612c02565b612ac28388610f8f565b906001600160a01b03169052565b612a89565b50505090565b610195816020939052565b6101f46101f46101f49263ffffffff1690565b92612b25612b18612b2594612b25612b186101f49998612b1897610260565b600560f91b815260010190565b90610260565b6101f4612b67612b3a83611525565b612b62612b4660405190565b8092612b56602083019182612adb565b9081038252038261013d565b613130565b612b83612b7e60208501516001600160a01b031690565b612fb9565b90612b56612bbf612bae612ba96060612bb3612bae612ba960408c015163ffffffff1690565b612ae6565b61329e565b98015163ffffffff1690565b604051958694602086019485612af9565b7f19457468657265756d205369676e6564204d6573736167653a0a00000000000081526101f49291612b2591601a0182565b90612b56612c326101f493612c15600090565b50612c21612bae825190565b604051938492602084019283612bd0565b612c3d612775825190565b206101f491612c4b91612dc1565b919091612c82565b634e487b7160e01b600052602160045260246000fd5b60051115612c7357565b612c53565b9061017782612c69565b612c8c6000612c78565b612c9582612c78565b03612c9d5750565b612ca76001612c78565b612cb082612c78565b03612cfa5760405162461bcd60e51b815260206004820152601860248201527f45434453413a20696e76616c6964207369676e617475726500000000000000006044820152606490fd5b612d046002612c78565b612d0d82612c78565b03612d575760405162461bcd60e51b815260206004820152601f60248201527f45434453413a20696e76616c6964207369676e6174757265206c656e677468006044820152606490fd5b612d6a612d646003612c78565b91612c78565b14612d7157565b60405162461bcd60e51b815260206004820152602260248201527f45434453413a20696e76616c6964207369676e6174757265202773272076616c604482015261756560f01b6064820152608490fd5b908051612dd16115526041610f58565b03612df757612df3916020820151906060604084015193015160001a90612e36565b9091565b5050612e036000610cd3565b90600290565b612e3261017794610393606094989795612e28608086019a6000870152565b60ff166020850152565b0152565b919291612e42836118fc565b612e6e6115527f7fffffffffffffffffffffffffffffff5d576e7357a4501ddfe92f46681b20a0610f58565b11612ed257612e8e600093602095612e8560405190565b94859485612e09565b838052039060015afa156112f25760005190600091612eac83610cd3565b6001600160a01b0381166001600160a01b03831614612eca57509190565b925050600190565b50505050612ee06000610cd3565b90600390565b6101f49392612b25612b18612b1893612b2595610260565b8051602082015160409283015192516127859290612b5690948593602085019384612ee6565b6101f49081906001600160a01b031681565b60ff8111610f8a5760020a90565b905b9081156116de570490565b61138461137e6101f49260ff1690565b612f469060ff165b9160ff1690565b612f7c9060ff16612f69565b029060ff8216918203610f8a57565b612f979060ff16612f69565b90039060ff8211610f8a57565b61060f60f31b81526101f49190600201612b25565b90612fc7611b966028610f58565b600092612fd384610f58565b612fdd6014610f58565b8110156130d45780613037611bd36130c56130bb6130cf956130376130b58c8b6130af613051611ae261304c8f61301e61301961304792610b06565b612f24565b61304161303c6008613037611aec8f611b476013610f58565b6115f3565b612f36565b90612f44565b6110e5565b612f51565b9261309a61309461304c60109661308e61307661304c6130708b6110e5565b84612f61565b986130896130838b61192a565b916110e5565b612f70565b90612f8b565b9461323a565b6130a78860029d8e610f58565b911a9261135a565b5361323a565b95610f58565b61165b6001610f58565b91881a918661135a565b612fd3565b50506101f49192506101f46130e860405190565b8092612b56602083019182612fa4565b6131026010611b51565b6f181899199a1a9b1b9c1cb0b131b232b360811b602082015290565b6101f46130f8565b81156116de570690565b90815191613146611b9660029461164c86610f58565b9061314f61311e565b60009161315b83610f58565b6131666101f4835190565b81101561320c57806131a661142b6131a061318a611ae261142b613207978961135a565b61319b613195895190565b91611936565b612f44565b8661135a565b6131c56131bb6131b58b610f58565b846115f3565b91871a918861135a565b536131ef61142b6131a06131df611ae261142b868961135a565b6131ea613195895190565b613126565b611bd36131bb6130bb6132018c610f58565b856115f3565b61315b565b505050506101f49192506101f46130e860405190565b61322e9060ff16612f69565b019060ff8211610f8a57565b6132439061192a565b61324d600a6110e5565b60ff8216101561326e5761304c6101f49161326860306110e5565b90613222565b61304c6101f49161326860576110e5565b6132896001611b51565b600360fc1b602082015290565b6101f461327f565b6000916132aa83610f58565b821461337257908060005b6132be85610f58565b83146132e1576132d06132db91610f7b565b92613041600a610f58565b916132b5565b91506132ec82611b63565b915b6132f785610f58565b82146133675761330e61336191611af26001610f58565b91613041600a8461335b61335261304c603061334d61308361304761334761333e6133388b610f58565b8d612f44565b61164c8b610f58565b8b611946565b613222565b8a1a918861135a565b53610f58565b906132ee565b50506101f491925090565b9150506101f4613296565b9061338c611e69610a6a845490565b9060005b81811061339d5750505090565b9091926133b2611eac600192611e9b87610ca2565b929101613390565b906101f49161337d565b90610177610711926133d560405190565b938480926133ba565b6101f4906133c4565b6101f460026133de565b906133fa825490565b61340381610edc565b926134176020850191600052602060002090565b6000915b8383106134285750505050565b6001602081926134378561239b565b81520192019201919061341b565b6101f4906133f1565b6101f46004613445565b611cf46101f491613467600090565b5060036102b5565b9061347b6109a8835190565b908161348d6020830284019460200190565b926000915b8383106134a157505050505090565b909192939460206134bd6109f483856001950387528951610b87565b9301930191939290613492565b60208082526101f49291019061346f565b80151561039c565b90505190610177826134db565b906020828203126101d4576101f4916134e3565b1561350b57565b60405162461bcd60e51b815260206004820152601f60248201527f4e756c6c69666965722068617320616c7265616479206265656e2075736564006044820152606490fd5b61356c61355c60405190565b8092612b566020830191826134ca565b613577612775825190565b206135a17f0000000000000000000000000000000000000000000000000000000000000000610b0f565b9063169394bb6135ba6135b360405190565b9160e01b90565b815260048101829052602081602481865afa9081156112f2576135ec916135e79160009161365157501590565b613504565b635bd4df3290823b156101d4576136289261361a6000809461360d60405190565b9687958694859360e01b90565b835260048301526024820190565b03925af180156112f2576136395750565b610177906000613649818361013d565b81019061086d565b611cf9915060203d8111613672575b61366a818361013d565b8101906134f0565b503d61366056fea2646970667358221220ac32ca16a78f612ec68240d59214076e1784464c21ff8fabfeff4b46fd239e1c64736f6c63430008120033",
  "deployedBytecode": "0x6080604052600436101561001257600080fd5b60003560e01c80631cba9bed146101225780632ca6927d1461011d57806350262c001461011857806357c6e12a1461011357806359e26be11461010e578063670a8cb714610109578063715018a6146101045780637b103999146100ff5780637de24fcf146100fa5780638da5cb5b146100f557806396d195bd146100f0578063b870676c146100eb578063bd6e7741146100e6578063c2107e73146100e1578063ee2f13cd146100dc578063f2fde38b146100d75763fa7643f4036101d457610c7e565b610c3c565b610c24565b610bfd565b610b6f565b610b31565b610acb565b610a40565b610a19565b610890565b610878565b610837565b6107d9565b61079d565b6105a6565b6102ef565b61021c565b634e487b7160e01b600052604160045260246000fd5b90601f01601f191681019081106001600160401b0382111761015e57604052565b610127565b9061017761017060405190565b928361013d565b565b6001600160401b03811161015e57602090601f01601f19160190565b0190565b90826000939282370152565b909291926101ba6101b582610179565b610163565b938185526020850190828401116101d45761017792610199565b600080fd5b9080601f830112156101d4578160206101f4933591016101a5565b90565b906020828203126101d45781356001600160401b0381116101d4576101f492016101d9565b346101d45761023461022f3660046101f7565b612392565b604051005b0390f35b60005b8381106102505750506000910152565b8181015183820152602001610240565b61019561027892602092610272815190565b94859290565b9384910161023d565b9052565b6102956101959160209493610260565b918252565b6102af6102a660405190565b92839283610285565b03902090565b6101f49161029a565b6101f4916008021c5b60ff1690565b906101f491546102be565b6101f4906102ea6003916000926102b5565b6102cd565b346101d45761023961030a6103053660046101f7565b6102d8565b60405191829182901515815260200190565b9190916060818403126101d4576103336060610163565b9281356001600160401b0381116101d457816103509184016101d9565b845260208201356001600160401b0381116101d457816103719184016101d9565b602085015260408201356001600160401b0381116101d45761039392016101d9565b6040830152565b805b036101d457565b905035906101778261039a565b6001600160a01b031690565b6001600160a01b03811661039c565b90503590610177826103bc565b63ffffffff811661039c565b90503590610177826103d8565b9190916080818403126101d45761044a61040b6080610163565b93600061041882856103a3565b90860152602061042a828286016103cb565b90860152604061043c828286016103e4565b9086015260608093016103e4565b90830152565b6001600160401b03811161015e5760208091020190565b9291906104766101b582610450565b93818552602080860192028101918383116101d45781905b83821061049c575050505050565b81356001600160401b0381116101d4576020916104bc87849387016101d9565b81520191019061048e565b9080601f830112156101d4578160206101f493359101610467565b91909160a0818403126101d4576104f96040610163565b92600061050682846103f1565b9085015260808201356001600160401b0381116101d45761052792016104c7565b6020830152565b9190916040818403126101d4576105456040610163565b9281356001600160401b0381116101d4578161056291840161031c565b845260208201356001600160401b0381116101d45761052792016104e2565b906020828203126101d45781356001600160401b0381116101d4576101f4920161052e565b346101d45761023961030a6105bc366004610581565b6128f5565b906020828203126101d4576101f4916103a3565b634e487b7160e01b600052603260045260246000fd5b805482101561060e57610605600191600052602060002090565b91020190600090565b6105d5565b634e487b7160e01b600052600060045260246000fd5b634e487b7160e01b600052602260045260246000fd5b906001600283049216801561065f575b602083101461065a57565b610629565b91607f169161064f565b8054600093929161068661067c8361063f565b8085529360200190565b91600181169081156106d8575060011461069f57505050565b6106b29192939450600052602060002090565b916000925b8184106106c45750500190565b8054848401526020909301926001016106b7565b92949550505060ff1916825215156020020190565b906101f491610669565b906101776107119261070860405190565b938480926106ed565b038361013d565b90600010610729576101f4906106f7565b610613565b6004600061073a825490565b83101561075557506101f49161074f916105eb565b90610718565b80fd5b6107796107826020936101959361076d815190565b80835293849260200190565b9586910161023d565b601f01601f191690565b60208082526101f492910190610758565b346101d4576102396107b86107b33660046105c1565b61072e565b6040515b9182918261078c565b906020828203126101d4576101f4916103cb565b346101d4576102346107ec3660046107c5565b611d4f565b6101f4916008021c6001600160a01b031690565b906101f491546107f1565b6002600061081c825490565b83101561075557506101f491610831916105eb565b90610805565b346101d45761023961085261084d3660046105c1565b610810565b6040515b918291826001600160a01b03909116815260200190565b60009103126101d457565b346101d45761088836600461086d565b610234610cee565b346101d4576108a036600461086d565b6102397f0000000000000000000000000000000000000000000000000000000000000000610852565b9291906108d86101b582610450565b93818552602080860192028101918383116101d45781905b8382106108fe575050505050565b81356001600160401b0381116101d45760209161091e878493870161052e565b8152019101906108f0565b9080601f830112156101d4578160206101f4933591016108c9565b906020828203126101d45781356001600160401b0381116101d4576101f49201610929565b906101f49060208061098a6040840160008701518582036000870152610758565b940151910152565b906101f491610969565b906109b26109a8835190565b8083529160200190565b90816109c46020830284019460200190565b926000915b8383106109d857505050505090565b909192939460206109fb6109f483856001950387528951610992565b9760200190565b93019301919392906109c9565b60208082526101f49291019061099c565b346101d457610239610a34610a2f366004610944565b610fed565b60405191829182610a08565b346101d457610a5036600461086d565b610239610852610cac565b90610a7b610a74610a6a845190565b8084529260200190565b9260200190565b9060005b818110610a8c5750505090565b909192610ab2610aab60019286516001600160a01b0316815260200190565b9460200190565b929101610a7f565b60208082526101f492910190610a5b565b346101d457610adb36600461086d565b610239610ae66133e7565b60405191829182610aba565b6101f4906103b0906001600160a01b031682565b6101f490610af2565b6101f490610b06565b61028190610b0f565b6020810192916101779190610b18565b346101d457610b4136600461086d565b604051806102397f000000000000000000000000000000000000000000000000000000000000000082610b21565b346101d457610234610b823660046101f7565b6122ce565b906101f491610758565b90610b9d6109a8835190565b9081610baf6020830284019460200190565b926000915b838310610bc357505050505090565b90919293946020610bdf6109f483856001950387528951610b87565b9301930191939290610bb4565b60208082526101f492910190610b91565b346101d457610c0d36600461086d565b610239610c1861344e565b60405191829182610bec565b346101d457610234610c373660046107c5565b611e51565b346101d457610234610c4f3660046107c5565b610e05565b90610c5e90610b0f565b600052602052604060002090565b6101f4906102ea600191600092610c54565b346101d45761023961030a610c943660046107c5565b610c6c565b6101f4906103b0565b6101f49054610c99565b6101f46000610ca2565b610cbe610d4a565b610177610cdc565b6103b06101f46101f49290565b6101f490610cc6565b610177610ce96000610cd3565b610e3e565b610177610cb6565b15610cfd57565b60405162461bcd60e51b815280610d46600482016020808252818101527f4f776e61626c653a2063616c6c6572206973206e6f7420746865206f776e6572604082015260600190565b0390fd5b610177610d55610cac565b610d6e610d61336103b0565b916001600160a01b031690565b14610cf6565b61017790610d80610d4a565b610de0565b15610d8c57565b60405162461bcd60e51b815260206004820152602660248201527f4f776e61626c653a206e6577206f776e657220697320746865207a65726f206160448201526564647265737360d01b6064820152608490fd5b61017790610ce9610df46103b06000610cd3565b6001600160a01b0383161415610d85565b61017790610d74565b906001600160a01b03905b9181191691161790565b90610e336101f4610e3a92610b0f565b8254610e0e565b9055565b610e486000610ca2565b90610e54816000610e23565b610e87610e817f8be0079c531659141344cd1fd0a4f28419497f9722a3daafe3b4186f6b6457e093610b0f565b91610b0f565b91610e9160405190565b600090a3565b15610e9e57565b60405162461bcd60e51b815260206004820152601660248201527513db9b1e481c9959da5cdd1c9e4818d85b8818d85b1b60521b6044820152606490fd5b906102956101b583610450565b6101f46040610163565b610efb610ee9565b906060825260006020830152565b6101f4610ef3565b60005b828110610f2057505050565b602090610f2b610f09565b8184015201610f14565b90610177610f4b610f4584610edc565b93610450565b601f190160208401610f11565b6101f46101f46101f49290565b634e487b7160e01b600052601160045260246000fd5b6000198114610f8a5760010190565b610f65565b90610f98825190565b81101561060e576020809102010190565b15610fb057565b60405162461bcd60e51b815260206004820152601560248201527409cde40ecc2d8d2c840e0e4deecd2c8cae490c2e6d605b1b6044820152606490fd5b9061102a336110246001600160a01b037f000000000000000000000000000000000000000000000000000000000000000016610d61565b14610e97565b61103a611035835190565b610f35565b916000908361104883610f58565b6110536101f4845190565b8110156110de578061109e6110be6110ac6110996110a760208061107a6110d9998c610f8f565b51611084816128f5565b5061108e81611221565b999199969096613458565b610fa9565b01510151613550565b6113f1565b6105276110b7610ee9565b9389850152565b6110c88289610f8f565b526110d38188610f8f565b50610f7b565b611048565b5093505050565b6102c76101f46101f49290565b6101f460056110e5565b9092919261110c6101b582610179565b938185526020850190828401116101d4576101779261023d565b9080601f830112156101d45781516101f4926020016110fc565b92919061114f6101b582610450565b93818552602080860192028101918383116101d45781905b838210611175575050505050565b81516001600160401b0381116101d4576020916111958784938701611126565b815201910190611167565b9080601f830112156101d45781516101f492602001611140565b906020828203126101d45781516001600160401b0381116101d4576101f492016111a0565b60409061120d6112016101779597969460608401908482036000860152610758565b60ff9097166020830152565b019015159052565b6040513d6000823e3d90fd5b516040015173__$5b71c94e19686701747fb081826a62a8ff$__91634be6d4f89160009061124d6110f2565b9461126e6001956112798761126160405190565b998a968795869560e01b90565b8552600485016111df565b03915af49283156112f2576000936112cf575b506112c86112b66112b06112a96112a36000610f58565b87610f8f565b5194610f58565b85610f8f565b51936112c26002610f58565b90610f8f565b5191929190565b6112eb91933d8091833e6112e3818361013d565b8101906111ba565b913861128c565b611215565b6001600160401b03811161015e5760200290565b6101b56101f4916112f7565b60005b82811061132657505050565b60608282015260200161131a565b9061017761134a6113448461130b565b936112f7565b83611317565b6101f46006611334565b90611363825190565b81101561060e570160200190565b61138461137e6101f49290565b60f81b90565b6001600160f81b03191690565b90600681101561060e576020020190565b91908201809211610f8a57565b156113b657565b60405162461bcd60e51b8152602060048201526013602482015272496e76616c6964206461746520737472696e6760681b6044820152606490fd5b906000916113fd611350565b8390600061140a81610f58565b846114166101f4825190565b82101561150a578161143961142b828461135a565b516001600160f81b03191690565b611454611446602d611371565b916001600160f81b03191690565b149182156114e7575b82156114c3575b5050611479575b61147490610f7b565b61140a565b9295836114869186611b86565b6114908784611391565b5261149b8683611391565b506114746114bb6114b56114af6001610f58565b866113a2565b97610f7b565b93905061146b565b6114d292509061142b9161135a565b6114df6114466054611371565b148138611464565b91506114f661142b828461135a565b611503611446603a611371565b149161145d565b5050929161152f61155c92936101f496976115296115258390565b5190565b91611b86565b6115398285611391565b526115448184611391565b506115566115526005610f58565b9190565b146113af565b61158261157b61157461156e85610f58565b84611391565b5193610f58565b8093611905565b9061159a8361159461156e6001610f58565b51611905565b6115b1846115946115ab6002610f58565b85611391565b906115e1856115946115d0826115946115ca6003610f58565b89611391565b956115db6004610f58565b90611391565b9361161b565b6101f462015180610f58565b81810292918115918404141715610f8a57565b6101f4610e10610f58565b6101f4603c610f58565b61166a9361165b6116526116446101f499989661165b966116619661163e600090565b50611712565b61164c6115e7565b906115f3565b9161164c611606565b906113a2565b9161164c611611565b6113a2565b156101d457565b91908083039260009091128015828513169184121617610f8a57565b919082810192600013801591841291821691151617610f8a57565b634e487b7160e01b600052601260045260246000fd5b81156116de57600160ff1b8114600019831416610f8a570590565b6116ad565b8181029291600160ff1b81146000831216610f8a578184051490151715610f8a57565b6101f462253d8c610f58565b61171d6107b2610f58565b8110156117299061166f565b61173290610f58565b9061173c90610f58565b9161174690610f58565b611751617d4b610f58565b61175a91611676565b906105b56117696112c0610f58565b6117739083611692565b600e9161177f83610f58565b6117899087611676565b91600c9261179684610f58565b61179f916116c3565b6117a891611692565b906117b290610f58565b906117bc916116e3565b936004946117c986610f58565b6117d2916116c3565b6117db91611692565b61016f6117e86002610f58565b6117f29088611676565b6117fb85610f58565b6118059089611676565b61180e85610f58565b611817916116c3565b61182085610f58565b611829916116e3565b61183291611676565b9061183c90610f58565b90611846916116e3565b61184f83610f58565b611858916116c3565b61186191611692565b94600393611870611324610f58565b61187991611692565b9261188390610f58565b61188c91611676565b9061189690610f58565b61189f916116c3565b6118a891611692565b6118b26064610f58565b6118bb916116c3565b906118c590610f58565b906118cf916116e3565b906118d990610f58565b6118e2916116c3565b6118eb91611676565b6118f3611706565b6118fc91611676565b6101f490610f58565b6101f49190611914602e611371565b90611a04565b6102c76101f46101f49260ff1690565b6101f49060f81c61191a565b6101f46101f46101f49260ff1690565b91908203918211610f8a57565b1561195a57565b60405162461bcd60e51b815260206004820152601c60248201527f537472696e6720686173206d756c7469706c6520646563696d616c73000000006044820152606490fd5b156119a657565b60405162461bcd60e51b815260206004820152602260248201527f537472696e672068617320746f6f206d616e7920646563696d616c20706c6163604482015261657360f01b6064820152608490fd5b604d8111610f8a57600a0a90565b92600091611a1183610f58565b808493815b611a216101f48a5190565b811015611b22578589611a3761142b848361135a565b603090611a4661144683611371565b101580611b00575b611ab6575b5050611aa6575b611a6761142b828b61135a565b611a7a6001600160f81b03198716611446565b14611a8e575b611a8990610f7b565b611a16565b94611a9e90151587151514611953565b600194611a80565b92611ab090610f7b565b92611a5a565b61165b90611af2611aec611ae7611ae261142b89611adc611af89a9d61164c600a610f58565b9861135a565b61192a565b611936565b91610f58565b90611946565b928938611a53565b50611b0e61142b858461135a565b611b1b6114466039611371565b1115611a4e565b509650935061164c9250611b4c91506101f494611b47611b3f8290565b83111561199f565b611946565b6119f6565b906102956101b583610179565b369037565b90610177611b79611b7384611b51565b93610179565b601f190160208401611b5e565b909290611b9b611b968585611946565b611b63565b91845b845b811015611be057611bd981611bbb61142b611ba0948761135a565b611bd3611bc88a84611946565b9160001a918861135a565b53610f7b565b9050611b9e565b509350506101f4915090565b61017790611bf8610d4a565b611cdc565b6101f4906102c7565b6101f49054611bfd565b15611c1757565b60405162461bcd60e51b815260206004820152601c60248201527f4164647265737320697320616c72656164792061207769746e657373000000006044820152606490fd5b9060ff90610e19565b90611c756101f4610e3a92151590565b8254611c5c565b916001600160a01b0360089290920291821b911b610e19565b921b90565b9190611cab6101f4610e3a93610b0f565b908354611c7c565b90815491600160401b83101561015e5782611cd6916001610177950181556105eb565b90611c9a565b611d116001611d02611cfd611cf9611cf48685610c54565b611c06565b1590565b611c10565b611d0c8382610c54565b611c65565b611d1c816002611cb3565b611d4a7ff5944521c155e80db583372b9992336b6616b14dfb924a5cf6ef97b256d280349161085660405190565b0390a1565b61017790611bec565b61017790611d64610d4a565b611dee565b15611d7057565b60405162461bcd60e51b815260206004820152601860248201527f41646472657373206973206e6f742061207769746e65737300000000000000006044820152606490fd5b91906008610e19910291611c9560ff841b90565b9190611dda6101f4610e3a93151590565b908354611db5565b61017791600091611dc9565b611e186000611e13836001611e0e611e09611cf48484610c54565b611d69565b610c54565b611de2565b611e23816002611f32565b611d4a7f8b5785dce93ca82765b1cc25cedcda1b501288cb23a1fd171c0091d83900f9bd9161085660405190565b61017790611d58565b90611e75611e69610a6a845490565b92600052602060002090565b9060005b818110611e865750505090565b909192611eb3611eac600192611e9b87610ca2565b6001600160a01b0316815260200190565b9460010190565b929101611e79565b906101f491611e5a565b9061017761071192611ed660405190565b93848092611ebb565b6101f490611ec5565b634e487b7160e01b600052603160045260246000fd5b61017791600091611c9a565b80548015611f2d576000190190611f2a611f2483836105eb565b90611efe565b55565b611ee8565b611f47611f4e92611f4283611edf565b611fe5565b9092901590565b15611f905760405162461bcd60e51b815260206004820152601560248201527420b2323932b9b9903737ba1034b71030b93930bc9760591b6044820152606490fd5b61017791611fa9611f9f835490565b611af26001610f58565b90818103611fb9575b5050611f0a565b611cd6611fcc610831611fd394866105eb565b91846105eb565b3880611fb2565b6101f4600019610f58565b91908251926000611ff581610f58565b855b81101561204c5761201861200b8285610f8f565b516001600160a01b031690565b61202a6001600160a01b038616610d61565b146120425761203b611ff791610f7b565b9050611ff5565b9450505050600190565b5093505050611552611fda565b61017790612065610d4a565b61226c565b1561207157565b60405162461bcd60e51b815260206004820152601b60248201527f50726f7669646572206861736820616c726561647920616464656400000000006044820152606490fd5b9160001960089290920291821b911b610e19565b91906120db6101f4610e3a93610f58565b9083546120b6565b610177916000916120ca565b8181106120fa575050565b8061210860006001936120e3565b016120ef565b9190601f811161211d57505050565b61212f61017793600052602060002090565b906020601f840181900483019310612152575b6020601f909101045b01906120ef565b9091508190612142565b600019600883021c1916906002021790565b90612177815190565b906001600160401b03821161015e5761219a82612194855461063f565b8561210e565b602090601f83116001146121c857610e3a9291600091836121bd575b505061215c565b0151905038806121b6565b601f198316916121dd85600052602060002090565b9260005b81811061221c57509160029391856001969410612202575b50505002019055565b01516000196008601f8516021c19165b90553880806121f9565b919360206001819287870151815501950192016121e1565b9190610729576101779161216e565b90815491600160401b83101561015e5782612266916001610177950181556105eb565b90612234565b6122956003612289612284611cf9611cf486856102b5565b61206a565b611d0c836001926102b5565b6122a0816004612243565b611d4a7fc9e1c78701d1853eeb1eb35ad3449e4b336281f672d5837243d21239dc6f4096916107bc60405190565b61017790612059565b610177906122e3610d4a565b612334565b156122ef57565b60405162461bcd60e51b815260206004820152601760248201527f50726f76696465722068617368206e6f7420666f756e640000000000000000006044820152606490fd5b6123596000611e1383600361235461234f611cf484846102b5565b6122e8565b6102b5565b6123648160046126aa565b611d4a7f6f594b4b4f0580c66aabba75218163a99fa1fe330a171cc9e2bfd8e167db22f8916107bc60405190565b610177906122d7565b6101f4906106f7565b906123ad825490565b6123b681610edc565b926123ca6020850191600052602060002090565b6000915b8383106123db5750505050565b6001602081926123ea8561239b565b8152019201920191906123ce565b6101f4906123a4565b6101f4905461063f565b908082146124da5761241c81612401565b906001600160401b03821161015e5761243982612194855461063f565b600090601f831160011461246657610e3a92916000918361245b57505061215c565b0154905038806121b6565b9061247b601f19841692600052602060002090565b9061248b85600052602060002090565b92815b8181106124c2575091600293918560019694106124ae5750505002019055565b01546000196008601f8516021c1916612212565b9193600180602092878701548155019501920161248e565b5050565b9190610729576101779161240b565b9061250090600019906020036008021c90565b8154169055565b9060009161252561251d82600052602060002090565b92835461215c565b905555565b919290602082101561258257601f841160011461254c57610e3a92935061215c565b509061257d61017793600161257461256985600052602060002090565b92601f602091010490565b820191016120ef565b612507565b506125bb8293612599600194600052602060002090565b61214b6020601f860104820192601f8616806125c3575b50601f602091010490565b600202179055565b6125cf908886036124ed565b386125b0565b929091600160401b821161015e576020111561261c5760208110156125fd57610e3a9161215c565b60019160ff191661261384600052602060002090565b55600202019055565b60019150600202019055565b9081546126348161063f565b9081831161265d575b81831061264b575b50505050565b6126549361252a565b38808080612645565b612669838383876125d5565b61263d565b600061017791612628565b90600003610729576101779061266e565b80548015611f2d576000190190611f2a6126a483836105eb565b90612679565b611f476126bf926126ba836123f8565b612744565b156127005760405162461bcd60e51b815260206004820152601460248201527329ba3934b733903737ba1034b71030b93930bc9760611b6044820152606490fd5b6101779161270f611f9f835490565b9081810361271f575b505061268a565b61273761272f61273d93856105eb565b5091846105eb565b906124de565b3880612718565b9190825192600061275481610f58565b855b8110156127ac5761276a6115258285610f8f565b61277c612775825190565b9160200190565b20612794611552865b612790612775825190565b2090565b14612042576127a561275691610f7b565b9050612754565b509350505081199190565b156127be57565b60405162461bcd60e51b815260206004820152600d60248201526c4e6f207369676e61747572657360981b6044820152606490fd5b156127fa57565b60405162461bcd60e51b815260206004820152601c60248201527f436c61696d496e666f206861736820646f65736e2774206d61746368000000006044820152606490fd5b1561284657565b60405162461bcd60e51b815260206004820152603560248201527f4e756d626572206f66207369676e617475726573206e6f7420657175616c20746044820152746f206e756d626572206f66207769746e657373657360581b6064820152608490fd5b156128b057565b60405162461bcd60e51b815260206004820152601960248201527f5369676e6174757265206e6f7420617070726f707269617465000000000000006044820152606490fd5b906020820190815160200151612909905190565b9160009261291684610f58565b10612920906127b7565b828080808451015196845160200151612937610ee9565b98838a01906129439152565b6020890152015161295390612efe565b925101510161296190611525565b1461296b906127f3565b61297483612a5b565b805191600292612982845490565b1461298c9061283f565b61299584610f58565b935b6129a66101f460208801515190565b851015612a405780956129b882610f58565b6129c36101f4875490565b811015612a28576129d761200b8887610f8f565b6129ea610d616103b0610831858b6105eb565b146129fd576129f890610f7b565b6129b8565b50946129a69196506020612a1d6101f492612a1860016128a9565b610f7b565b969792505050612997565b50946020612a1d6101f492612a186129a6959a6128a9565b509350505050600190565b90610177611b79610f4584610edc565b6020612a6a6000830151612b2b565b910190612a7e612a7983515190565b612a4b565b91612a896000610f58565b612a956101f483515190565b811015612ad55780612a18612ab8612ab1612ad0948651610f8f565b5186612c02565b612ac28388610f8f565b906001600160a01b03169052565b612a89565b50505090565b610195816020939052565b6101f46101f46101f49263ffffffff1690565b92612b25612b18612b2594612b25612b186101f49998612b1897610260565b600560f91b815260010190565b90610260565b6101f4612b67612b3a83611525565b612b62612b4660405190565b8092612b56602083019182612adb565b9081038252038261013d565b613130565b612b83612b7e60208501516001600160a01b031690565b612fb9565b90612b56612bbf612bae612ba96060612bb3612bae612ba960408c015163ffffffff1690565b612ae6565b61329e565b98015163ffffffff1690565b604051958694602086019485612af9565b7f19457468657265756d205369676e6564204d6573736167653a0a00000000000081526101f49291612b2591601a0182565b90612b56612c326101f493612c15600090565b50612c21612bae825190565b604051938492602084019283612bd0565b612c3d612775825190565b206101f491612c4b91612dc1565b919091612c82565b634e487b7160e01b600052602160045260246000fd5b60051115612c7357565b612c53565b9061017782612c69565b612c8c6000612c78565b612c9582612c78565b03612c9d5750565b612ca76001612c78565b612cb082612c78565b03612cfa5760405162461bcd60e51b815260206004820152601860248201527f45434453413a20696e76616c6964207369676e617475726500000000000000006044820152606490fd5b612d046002612c78565b612d0d82612c78565b03612d575760405162461bcd60e51b815260206004820152601f60248201527f45434453413a20696e76616c6964207369676e6174757265206c656e677468006044820152606490fd5b612d6a612d646003612c78565b91612c78565b14612d7157565b60405162461bcd60e51b815260206004820152602260248201527f45434453413a20696e76616c6964207369676e6174757265202773272076616c604482015261756560f01b6064820152608490fd5b908051612dd16115526041610f58565b03612df757612df3916020820151906060604084015193015160001a90612e36565b9091565b5050612e036000610cd3565b90600290565b612e3261017794610393606094989795612e28608086019a6000870152565b60ff166020850152565b0152565b919291612e42836118fc565b612e6e6115527f7fffffffffffffffffffffffffffffff5d576e7357a4501ddfe92f46681b20a0610f58565b11612ed257612e8e600093602095612e8560405190565b94859485612e09565b838052039060015afa156112f25760005190600091612eac83610cd3565b6001600160a01b0381166001600160a01b03831614612eca57509190565b925050600190565b50505050612ee06000610cd3565b90600390565b6101f49392612b25612b18612b1893612b2595610260565b8051602082015160409283015192516127859290612b5690948593602085019384612ee6565b6101f49081906001600160a01b031681565b60ff8111610f8a5760020a90565b905b9081156116de570490565b61138461137e6101f49260ff1690565b612f469060ff165b9160ff1690565b612f7c9060ff16612f69565b029060ff8216918203610f8a57565b612f979060ff16612f69565b90039060ff8211610f8a57565b61060f60f31b81526101f49190600201612b25565b90612fc7611b966028610f58565b600092612fd384610f58565b612fdd6014610f58565b8110156130d45780613037611bd36130c56130bb6130cf956130376130b58c8b6130af613051611ae261304c8f61301e61301961304792610b06565b612f24565b61304161303c6008613037611aec8f611b476013610f58565b6115f3565b612f36565b90612f44565b6110e5565b612f51565b9261309a61309461304c60109661308e61307661304c6130708b6110e5565b84612f61565b986130896130838b61192a565b916110e5565b612f70565b90612f8b565b9461323a565b6130a78860029d8e610f58565b911a9261135a565b5361323a565b95610f58565b61165b6001610f58565b91881a918661135a565b612fd3565b50506101f49192506101f46130e860405190565b8092612b56602083019182612fa4565b6131026010611b51565b6f181899199a1a9b1b9c1cb0b131b232b360811b602082015290565b6101f46130f8565b81156116de570690565b90815191613146611b9660029461164c86610f58565b9061314f61311e565b60009161315b83610f58565b6131666101f4835190565b81101561320c57806131a661142b6131a061318a611ae261142b613207978961135a565b61319b613195895190565b91611936565b612f44565b8661135a565b6131c56131bb6131b58b610f58565b846115f3565b91871a918861135a565b536131ef61142b6131a06131df611ae261142b868961135a565b6131ea613195895190565b613126565b611bd36131bb6130bb6132018c610f58565b856115f3565b61315b565b505050506101f49192506101f46130e860405190565b61322e9060ff16612f69565b019060ff8211610f8a57565b6132439061192a565b61324d600a6110e5565b60ff8216101561326e5761304c6101f49161326860306110e5565b90613222565b61304c6101f49161326860576110e5565b6132896001611b51565b600360fc1b602082015290565b6101f461327f565b6000916132aa83610f58565b821461337257908060005b6132be85610f58565b83146132e1576132d06132db91610f7b565b92613041600a610f58565b916132b5565b91506132ec82611b63565b915b6132f785610f58565b82146133675761330e61336191611af26001610f58565b91613041600a8461335b61335261304c603061334d61308361304761334761333e6133388b610f58565b8d612f44565b61164c8b610f58565b8b611946565b613222565b8a1a918861135a565b53610f58565b906132ee565b50506101f491925090565b9150506101f4613296565b9061338c611e69610a6a845490565b9060005b81811061339d5750505090565b9091926133b2611eac600192611e9b87610ca2565b929101613390565b906101f49161337d565b90610177610711926133d560405190565b938480926133ba565b6101f4906133c4565b6101f460026133de565b906133fa825490565b61340381610edc565b926134176020850191600052602060002090565b6000915b8383106134285750505050565b6001602081926134378561239b565b81520192019201919061341b565b6101f4906133f1565b6101f46004613445565b611cf46101f491613467600090565b5060036102b5565b9061347b6109a8835190565b908161348d6020830284019460200190565b926000915b8383106134a157505050505090565b909192939460206134bd6109f483856001950387528951610b87565b9301930191939290613492565b60208082526101f49291019061346f565b80151561039c565b90505190610177826134db565b906020828203126101d4576101f4916134e3565b1561350b57565b60405162461bcd60e51b815260206004820152601f60248201527f4e756c6c69666965722068617320616c7265616479206265656e2075736564006044820152606490fd5b61356c61355c60405190565b8092612b566020830191826134ca565b613577612775825190565b206135a17f0000000000000000000000000000000000000000000000000000000000000000610b0f565b9063169394bb6135ba6135b360405190565b9160e01b90565b815260048101829052602081602481865afa9081156112f2576135ec916135e79160009161365157501590565b613504565b635bd4df3290823b156101d4576136289261361a6000809461360d60405190565b9687958694859360e01b90565b835260048301526024820190565b03925af180156112f2576136395750565b610177906000613649818361013d565b81019061086d565b611cf9915060203d8111613672575b61366a818361013d565b8101906134f0565b503d61366056fea2646970667358221220ac32ca16a78f612ec68240d59214076e1784464c21ff8fabfeff4b46fd239e1c64736f6c63430008120033",
  "libraries": {
    "ClaimVerifier": "0x17463cb89A62c7b4A5ecD949aFDEDBD0Aa047ad1"
  },
  "devdoc": {
    "kind": "dev",
    "methods": {
      "addProviderHash(string)": {
        "params": {
          "_newProviderHash": "New provider hash to be added"
        }
      },
      "addWitness(address)": {
        "params": {
          "_newWitness": "Address of the new witness"
        }
      },
      "owner()": {
        "details": "Returns the address of the current owner."
      },
      "removeProviderHash(string)": {
        "params": {
          "_removeProviderHash": "Provider hash to be removed"
        }
      },
      "removeWitness(address)": {
        "params": {
          "_removeWitness": "Address of witness to be removed"
        }
      },
      "renounceOwnership()": {
        "details": "Leaves the contract without owner. It will not be possible to call `onlyOwner` functions. Can only be called by the current owner. NOTE: Renouncing ownership will leave the contract without an owner, thereby disabling any functionality that is only available to the owner."
      },
      "transferOwnership(address)": {
        "details": "Transfers ownership of the contract to a new account (`newOwner`). Can only be called by the current owner."
      },
      "verifyProofSignatures(((string,string,string),((bytes32,address,uint32,uint32),bytes[])))": {
        "params": {
          "proof": "Proof to be verified"
        }
      },
      "verifyProofs(((string,string,string),((bytes32,address,uint32,uint32),bytes[]))[])": {
        "params": {
          "_proofs": "Proofs to be verified"
        },
        "returns": {
          "domains": "      Array of Domain structs"
        }
      }
    },
    "version": 1
  },
  "userdoc": {
    "kind": "user",
    "methods": {
      "addProviderHash(string)": {
        "notice": "ONLY OWNER: Add provider hash string. Provider hash must not have been previously added."
      },
      "addWitness(address)": {
        "notice": "ONLY OWNER: Add witness address. Witness must not have been previously added."
      },
      "removeProviderHash(string)": {
        "notice": "ONLY OWNER: Remove provider hash string. Provider hash must have been previously added."
      },
      "removeWitness(address)": {
        "notice": "ONLY OWNER: Remove witness address. Witness must have been previously added."
      },
      "verifyProofSignatures(((string,string,string),((bytes32,address,uint32,uint32),bytes[])))": {
        "notice": "Verify proof generated by witnesses. Claim is constructed by hashing claimInfo (provider, context, parameters) to get the identifier. And then signing on (identifier, owner, timestamp, epoch) to get claim signature.  This function verifies a claim by performing the following checks on the claim - Calculates the hash of the claimInfo and checks if it matches the identifier in the claim - Checks if the signatures are valid and from the witnesses This function reverts if - No signatures are found on the proof - Number of signatures is not equal to the number of witnesses - ClaimInfo hash does not match the identifier in the claim - Signatures are invalid (not from the witnesses)  DEV NOTE: This function does NOT validate that the claim provider hash is valid. That is the  responsibility of the caller.  Parts of the code are adapted from: https://basescan.org/address/0x7281630e4346dd4c0b7ae3b4689c1d0102741410#code    "
      },
      "verifyProofs(((string,string,string),((bytes32,address,uint32,uint32),bytes[]))[])": {
        "notice": "ONLY REGISTRY: Verifies proofs. Extracts values and formats them into Domain structs."
      }
    },
    "version": 1
  },
  "storageLayout": {
    "storage": [
      {
        "astId": 7,
        "contract": "contracts/VerifyDomainProcessor.sol:VerifyDomainProcessor",
        "label": "_owner",
        "offset": 0,
        "slot": "0",
        "type": "t_address"
      },
      {
        "astId": 10817,
        "contract": "contracts/VerifyDomainProcessor.sol:VerifyDomainProcessor",
        "label": "isWitness",
        "offset": 0,
        "slot": "1",
        "type": "t_mapping(t_address,t_bool)"
      },
      {
        "astId": 10820,
        "contract": "contracts/VerifyDomainProcessor.sol:VerifyDomainProcessor",
        "label": "witnesses",
        "offset": 0,
        "slot": "2",
        "type": "t_array(t_address)dyn_storage"
      },
      {
        "astId": 10824,
        "contract": "contracts/VerifyDomainProcessor.sol:VerifyDomainProcessor",
        "label": "isProviderHash",
        "offset": 0,
        "slot": "3",
        "type": "t_mapping(t_string_memory_ptr,t_bool)"
      },
      {
        "astId": 10827,
        "contract": "contracts/VerifyDomainProcessor.sol:VerifyDomainProcessor",
        "label": "providerHashes",
        "offset": 0,
        "slot": "4",
        "type": "t_array(t_string_storage)dyn_storage"
      }
    ],
    "types": {
      "t_address": {
        "encoding": "inplace",
        "label": "address",
        "numberOfBytes": "20"
      },
      "t_array(t_address)dyn_storage": {
        "base": "t_address",
        "encoding": "dynamic_array",
        "label": "address[]",
        "numberOfBytes": "32"
      },
      "t_array(t_string_storage)dyn_storage": {
        "base": "t_string_storage",
        "encoding": "dynamic_array",
        "label": "string[]",
        "numberOfBytes": "32"
      },
      "t_bool": {
        "encoding": "inplace",
        "label": "bool",
        "numberOfBytes": "1"
      },
      "t_mapping(t_address,t_bool)": {
        "encoding": "mapping",
        "key": "t_address",
        "label": "mapping(address => bool)",
        "numberOfBytes": "32",
        "value": "t_bool"
      },
      "t_mapping(t_string_memory_ptr,t_bool)": {
        "encoding": "mapping",
        "key": "t_string_memory_ptr",
        "label": "mapping(string => bool)",
        "numberOfBytes": "32",
        "value": "t_bool"
      },
      "t_string_memory_ptr": {
        "encoding": "bytes",
        "label": "string",
        "numberOfBytes": "32"
      },
      "t_string_storage": {
        "encoding": "bytes",
        "label": "string",
        "numberOfBytes": "32"
      }
    }
  }
}