{
  "address": "0x15EF83EBB422B4AC8e3b8393d016Ed076dc50CB7",
  "abi": [
    {
      "inputs": [],
      "stateMutability": "nonpayable",
      "type": "constructor"
    },
    {
      "anonymous": false,
      "inputs": [
        {
          "indexed": true,
          "internalType": "bytes32",
          "name": "domainId",
          "type": "bytes32"
        },
        {
          "indexed": true,
          "internalType": "address",
          "name": "owner",
          "type": "address"
        },
        {
          "indexed": false,
          "internalType": "string",
          "name": "domainName",
          "type": "string"
        },
        {
          "indexed": false,
          "internalType": "uint256",
          "name": "expiryTime",
          "type": "uint256"
        }
      ],
      "name": "DomainVerified",
      "type": "event"
    },
    {
      "anonymous": false,
      "inputs": [
        {
          "indexed": true,
          "internalType": "address",
          "name": "previousOwner",
          "type": "address"
        },
        {
          "indexed": true,
          "internalType": "address",
          "name": "newOwner",
          "type": "address"
        }
      ],
      "name": "OwnershipTransferred",
      "type": "event"
    },
    {
      "anonymous": false,
      "inputs": [
        {
          "indexed": true,
          "internalType": "contract IVerifyDomainProcessor",
          "name": "newVerifyDomainProcessor",
          "type": "address"
        }
      ],
      "name": "VerifyDomainProcessorUpdated",
      "type": "event"
    },
    {
      "inputs": [
        {
          "internalType": "bytes32",
          "name": "",
          "type": "bytes32"
        }
      ],
      "name": "domains",
      "outputs": [
        {
          "internalType": "address",
          "name": "owner",
          "type": "address"
        },
        {
          "internalType": "string",
          "name": "name",
          "type": "string"
        },
        {
          "internalType": "uint256",
          "name": "expiryTime",
          "type": "uint256"
        }
      ],
      "stateMutability": "view",
      "type": "function"
    },
    {
      "inputs": [
        {
          "internalType": "string",
          "name": "_domainName",
          "type": "string"
        }
      ],
      "name": "getDomainId",
      "outputs": [
        {
          "internalType": "bytes32",
          "name": "",
          "type": "bytes32"
        }
      ],
      "stateMutability": "pure",
      "type": "function"
    },
    {
      "inputs": [
        {
          "internalType": "bytes32",
          "name": "_domainId",
          "type": "bytes32"
        }
      ],
      "name": "getDomainOwner",
      "outputs": [
        {
          "internalType": "address",
          "name": "",
          "type": "address"
        }
      ],
      "stateMutability": "view",
      "type": "function"
    },
    {
      "inputs": [
        {
          "internalType": "bytes32[]",
          "name": "_domains",
          "type": "bytes32[]"
        }
      ],
      "name": "getDomains",
      "outputs": [
        {
          "components": [
            {
              "internalType": "bytes32",
              "name": "domainId",
              "type": "bytes32"
            },
            {
              "components": [
                {
                  "internalType": "address",
                  "name": "owner",
                  "type": "address"
                },
                {
                  "internalType": "string",
                  "name": "name",
                  "type": "string"
                },
                {
                  "internalType": "uint256",
                  "name": "expiryTime",
                  "type": "uint256"
                }
              ],
              "internalType": "struct IVerifiedDomainRegistry.Domain",
              "name": "domain",
              "type": "tuple"
            }
          ],
          "internalType": "struct IVerifiedDomainRegistry.DomainWithId[]",
          "name": "domainInfo",
          "type": "tuple[]"
        }
      ],
      "stateMutability": "view",
      "type": "function"
    },
    {
      "inputs": [
        {
          "internalType": "address",
          "name": "_user",
          "type": "address"
        }
      ],
      "name": "getUserDomains",
      "outputs": [
        {
          "components": [
            {
              "internalType": "bytes32",
              "name": "domainId",
              "type": "bytes32"
            },
            {
              "components": [
                {
                  "internalType": "address",
                  "name": "owner",
                  "type": "address"
                },
                {
                  "internalType": "string",
                  "name": "name",
                  "type": "string"
                },
                {
                  "internalType": "uint256",
                  "name": "expiryTime",
                  "type": "uint256"
                }
              ],
              "internalType": "struct IVerifiedDomainRegistry.Domain",
              "name": "domain",
              "type": "tuple"
            }
          ],
          "internalType": "struct IVerifiedDomainRegistry.DomainWithId[]",
          "name": "domainInfo",
          "type": "tuple[]"
        }
      ],
      "stateMutability": "view",
      "type": "function"
    },
    {
      "inputs": [
        {
          "internalType": "contract IVerifyDomainProcessor",
          "name": "_verifyDomainProcessor",
          "type": "address"
        }
      ],
      "name": "initialize",
      "outputs": [],
      "stateMutability": "nonpayable",
      "type": "function"
    },
    {
      "inputs": [],
      "name": "isInitialized",
      "outputs": [
        {
          "internalType": "bool",
          "name": "",
          "type": "bool"
        }
      ],
      "stateMutability": "view",
      "type": "function"
    },
    {
      "inputs": [],
      "name": "owner",
      "outputs": [
        {
          "internalType": "address",
          "name": "",
          "type": "address"
        }
      ],
      "stateMutability": "view",
      "type": "function"
    },
    {
      "inputs": [],
      "name": "renounceOwnership",
      "outputs": [],
      "stateMutability": "nonpayable",
      "type": "function"
    },
    {
      "inputs": [
        {
          "internalType": "address",
          "name": "newOwner",
          "type": "address"
        }
      ],
      "name": "transferOwnership",
      "outputs": [],
      "stateMutability": "nonpayable",
      "type": "function"
    },
    {
      "inputs": [
        {
          "internalType": "contract IVerifyDomainProcessor",
          "name": "_verifyDomainProcessor",
          "type": "address"
        }
      ],
      "name": "updateVerifyDomainProcessor",
      "outputs": [],
      "stateMutability": "nonpayable",
      "type": "function"
    },
    {
      "inputs": [
        {
          "internalType": "address",
          "name": "",
          "type": "address"
        },
        {
          "internalType": "uint256",
          "name": "",
          "type": "uint256"
        }
      ],
      "name": "userDomains",
      "outputs": [
        {
          "internalType": "bytes32",
          "name": "",
          "type": "bytes32"
        }
      ],
      "stateMutability": "view",
      "type": "function"
    },
    {
      "inputs": [],
      "name": "verifyDomainProcessor",
      "outputs": [
        {
          "internalType": "contract IVerifyDomainProcessor",
          "name": "",
          "type": "address"
        }
      ],
      "stateMutability": "view",
      "type": "function"
    },
    {
      "inputs": [
        {
          "components": [
            {
              "components": [
                {
                  "internalType": "string",
                  "name": "provider",
                  "type": "string"
                },
                {
                  "internalType": "string",
                  "name": "parameters",
                  "type": "string"
                },
                {
                  "internalType": "string",
                  "name": "context",
                  "type": "string"
                }
              ],
              "internalType": "struct Claims.ClaimInfo",
              "name": "claimInfo",
              "type": "tuple"
            },
            {
              "components": [
                {
                  "components": [
                    {
                      "internalType": "bytes32",
                      "name": "identifier",
                      "type": "bytes32"
                    },
                    {
                      "internalType": "address",
                      "name": "owner",
                      "type": "address"
                    },
                    {
                      "internalType": "uint32",
                      "name": "timestampS",
                      "type": "uint32"
                    },
                    {
                      "internalType": "uint32",
                      "name": "epoch",
                      "type": "uint32"
                    }
                  ],
                  "internalType": "struct Claims.CompleteClaimData",
                  "name": "claim",
                  "type": "tuple"
                },
                {
                  "internalType": "bytes[]",
                  "name": "signatures",
                  "type": "bytes[]"
                }
              ],
              "internalType": "struct Claims.SignedClaim",
              "name": "signedClaim",
              "type": "tuple"
            }
          ],
          "internalType": "struct IProxyBaseProcessor.Proof[]",
          "name": "_proofs",
          "type": "tuple[]"
        }
      ],
      "name": "verifyDomains",
      "outputs": [],
      "stateMutability": "nonpayable",
      "type": "function"
    }
  ],
  "transactionHash": "0x9793f16db1b5130daf9b0cb16d8c519398190ae0b948d62bdd63ef2aca9a1175",
  "args": [],
  "numDeployments": 1,
  "solcInputHash": "2d5447dc2e8fb3a2517c08b948266497",
  "bytecode": "0x6080604052346200002657620000146200002b565b604051611c89620001268239611c8990f35b600080fd5b6200003562000037565b565b6200003533620000c3565b62000054905b6001600160a01b031690565b90565b62000054905462000042565b620000549062000048906001600160a01b031682565b620000549062000063565b620000549062000079565b90620000a362000054620000bf9262000084565b82546001600160a01b0319166001600160a01b03919091161790565b9055565b620000cf600062000057565b90620000dd8160006200008f565b620001146200010d7f8be0079c531659141344cd1fd0a4f28419497f9722a3daafe3b4186f6b6457e09362000084565b9162000084565b916200011f60405190565b600090a356fe6080604052600436101561001257600080fd5b60003560e01c80630183196b146100f257806311d4c3a2146100ed578063392e53cd146100e85780635e8441d3146100e3578063715018a6146100de5780637f200269146100d95780638da5cb5b146100d45780639f4cb8f0146100cf5780639f6eb88c146100ca578063a9c56e91146100c5578063b3533dfe146100c0578063c4d66de8146100bb578063c722f177146100b65763f2fde38b0361011857610b95565b610b6b565b6109ed565b6109c6565b610971565b6106a6565b6105e6565b6104d7565b6104bf565b610472565b610447565b610333565b6102cd565b61027b565b6001600160a01b031690565b90565b6001600160a01b0381165b0361011857565b600080fd5b9050359061012a82610106565b565b90602082820312610118576101039161011d565b9052565b60005b8381106101575750506000910152565b8181015183820152602001610147565b61018861019160209361019b9361017c815190565b80835293849260200190565b95869101610144565b601f01601f191690565b0190565b80516001600160a01b0316825290610103906040806101cd6060840160208701518582036020870152610167565b940151910152565b805182526101039160408101916020015190602081840391015261019f565b90610103916101d5565b9061021461020a835190565b8083529160200190565b90816102266020830284019460200190565b926000915b83831061023a57505050505090565b9091929394602061025d610256838560019503875289516101f4565b9760200190565b930193019193929061022b565b6020808252610103929101906101fe565b34610118576102a261029661029136600461012c565b611986565b6040519182918261026a565b0390f35b80610111565b9050359061012a826102a6565b9060208282031261011857610103916102ac565b34610118576102a26102e86102e33660046102b9565b6117ca565b604051918291826001600160a01b03909116815260200190565b600091031261011857565b610103916008021c5b60ff1690565b90610103915461030d565b6101036014600161031c565b3461011857610343366004610302565b6102a261034e610327565b60405191829182901515815260200190565b634e487b7160e01b600052604160045260246000fd5b90601f01601f191681019081106001600160401b0382111761039757604052565b610360565b9061012a6103a960405190565b9283610376565b6001600160401b03811161039757602090601f01601f19160190565b90826000939282370152565b909291926103ed6103e8826103b0565b61039c565b938185526020850190828401116101185761012a926103cc565b9080601f8301121561011857816020610103933591016103d8565b906020828203126101185781356001600160401b038111610118576101039201610407565b34610118576102a261046261045d366004610422565b61178c565b6040519182918290815260200190565b3461011857610482366004610302565b61048a610be5565b604051005b6001600160a01b038116610111565b9050359061012a8261048f565b90602082820312610118576101039161049e565b346101185761048a6104d23660046104ab565b611759565b34610118576104e7366004610302565b6102a26102e86000546001600160a01b031690565b91906040838203126101185761010390610516818561011d565b936020016102ac565b610103906100f7906001600160a01b031682565b6101039061051f565b61010390610533565b9061054f9061053c565b600052602052604060002090565b634e487b7160e01b600052603260045260246000fd5b80548210156105965761058d600191600052602060002090565b91020190600090565b61055d565b610103916008021c81565b90610103915461059b565b6105bf600391600092610545565b906105c8825490565b8310156105e35750610103916105dd91610573565b906105a6565b80fd5b34610118576102a26104626105fc3660046104fc565b906105b1565b6001600160401b0381116103975760208091020190565b909291926106296103e882610602565b938185526020808601920283019281841161011857915b83831061064d5750505050565b6020809161065b84866102ac565b815201920191610640565b9080601f830112156101185781602061010393359101610619565b906020828203126101185781356001600160401b038111610118576101039201610666565b34610118576102a26102966106bc366004610681565b611a37565b919091606081840312610118576106d8606061039c565b9281356001600160401b03811161011857816106f5918401610407565b845260208201356001600160401b0381116101185781610716918401610407565b602085015260408201356001600160401b038111610118576107389201610407565b6040830152565b63ffffffff8116610111565b9050359061012a8261073f565b919091608081840312610118576107b1610772608061039c565b93600061077f82856102ac565b9086015260206107918282860161011d565b9086015260406107a38282860161074b565b90860152606080930161074b565b90830152565b9291906107c66103e882610602565b93818552602080860192028101918383116101185781905b8382106107ec575050505050565b81356001600160401b0381116101185760209161080c8784938701610407565b8152019101906107de565b9080601f8301121561011857816020610103933591016107b7565b91909160a08184031261011857610849604061039c565b9260006108568284610758565b9085015260808201356001600160401b038111610118576108779201610817565b6020830152565b91909160408184031261011857610895604061039c565b9281356001600160401b03811161011857816108b29184016106c1565b845260208201356001600160401b038111610118576108779201610832565b9291906108e06103e882610602565b93818552602080860192028101918383116101185781905b838210610906575050505050565b81356001600160401b03811161011857602091610926878493870161087e565b8152019101906108f8565b9080601f8301121561011857816020610103933591016108d1565b906020828203126101185781356001600160401b038111610118576101039201610931565b346101185761048a61098436600461094c565b6115e8565b610103916008021c6100f7565b906101039154610989565b61010360006001610996565b6101409061053c565b60208101929161012a91906109ad565b34610118576109d6366004610302565b6102a26109e16109a1565b604051918291826109b6565b346101185761048a610a003660046104ab565b6116d3565b9061054f565b634e487b7160e01b600052602260045260246000fd5b9060016002830492168015610a41575b6020831014610a3c57565b610a0b565b91607f1691610a31565b80546000939291610a68610a5e83610a21565b8085529360200190565b9160018116908115610aba5750600114610a8157505050565b610a949192939450600052602060002090565b916000925b818410610aa65750500190565b805484840152602090930192600101610a99565b92949550505060ff1916825215156020020190565b9061010391610a4b565b9061012a610af392610aea60405190565b93848092610acf565b0383610376565b6101039081565b6101039054610afa565b610b16906002610a05565b80546001600160a01b0316916101036002610b3360018501610ad9565b9301610b01565b6001600160a01b039091168152929161012a91604090610b669060608701908782036020890152610167565b940152565b34610118576102a2610b86610b813660046102b9565b610b0b565b60405191939193849384610b3a565b346101185761048a610ba836600461012c565b610d06565b610bb5610c41565b61012a610bd3565b6100f76101036101039290565b61010390610bbd565b61012a610be06000610bca565b610d3f565b61012a610bad565b15610bf457565b60405162461bcd60e51b815280610c3d600482016020808252818101527f4f776e61626c653a2063616c6c6572206973206e6f7420746865206f776e6572604082015260600190565b0390fd5b61012a610c566000546001600160a01b031690565b610c6f610c62336100f7565b916001600160a01b031690565b14610bed565b61012a90610c81610c41565b610ce1565b15610c8d57565b60405162461bcd60e51b815260206004820152602660248201527f4f776e61626c653a206e6577206f776e657220697320746865207a65726f206160448201526564647265737360d01b6064820152608490fd5b61012a90610be0610cf56100f76000610bca565b6001600160a01b0383161415610c86565b61012a90610c75565b906001600160a01b03905b9181191691161790565b90610d34610103610d3b9261053c565b8254610d0f565b9055565b6000546001600160a01b031690610d57816000610d24565b610d8a610d847f8be0079c531659141344cd1fd0a4f28419497f9722a3daafe3b4186f6b6457e09361053c565b9161053c565b91610d9460405190565b600090a3565b6101039060a01c610316565b6101039054610d9a565b15610db757565b60405162461bcd60e51b815260206004820152601c60248201527f436f6e7472616374206d75737420626520696e697469616c697a6564000000006044820152606490fd5b61012a90610e12610e0d6001610da6565b610db0565b6113bc565b90929192610e276103e8826103b0565b938185526020850190828401116101185761012a92610144565b9080601f8301121561011857815161010392602001610e17565b9050519061012a826102a6565b91909160408184031261011857610e7f604061039c565b815190936001600160401b03821161011857610ea0816107b1938501610e41565b85526020928301610e5b565b929190610ebb6103e882610602565b93818552602080860192028101918383116101185781905b838210610ee1575050505050565b81516001600160401b03811161011857602091610f018784938701610e68565b815201910190610ed3565b9080601f8301121561011857815161010392602001610eac565b906020828203126101185781516001600160401b038111610118576101039201610f0c565b805160608084526101039391604091610f7c91610f6a91850190610167565b60208501518482036020860152610167565b920151906040818403910152610167565b805182526020808201516001600160a01b03169083015261012a9190606090819060408181015163ffffffff1690850152015163ffffffff16910152565b9061010391610167565b90610fe161020a835190565b9081610ff36020830284019460200190565b926000915b83831061100757505050505090565b9091929394602061102361025683856001950387528951610fcb565b9301930191939290610ff8565b61010391602060a082019261104d60008201516000850190610f8d565b0151906080818403910152610fd5565b8051604080845261010393916020916110799190840190610f4b565b920151906020818403910152611030565b906101039161105d565b906110a061020a835190565b90816110b26020830284019460200190565b926000915b8383106110c657505050505090565b909192939460206110e26102568385600195038752895161108a565b93019301919392906110b7565b602080825261010392910190611094565b6040513d6000823e3d90fd5b6101036101036101039290565b634e487b7160e01b600052601160045260246000fd5b600019811461113e5760010190565b611119565b9061114c825190565b811015610596576020809102010190565b9160001960089290920291821b911b610d1a565b9190611180610103610d3b9390565b90835461115d565b908154916801000000000000000083101561039757826111b091600161012a95018155610573565b90611171565b610103606061039c565b9190611180610103610d3b9361110c565b61012a916000916111c0565b8181106111e8575050565b806111f660006001936111d1565b016111dd565b9190601f811161120b57505050565b61121d61012a93600052602060002090565b906020601f84018190048301931061123f575b6020601f9091010401906111dd565b9091508190611230565b90611252815190565b906001600160401b038211610397576112758261126f8554610a21565b856111fc565b602090601f83116001146112b057610d3b9291600091836112a5575b5050600019600883021c1916906002021790565b015190503880611291565b601f198316916112c585600052602060002090565b9260005b818110611303575091600293918560019694106112ea575b50505002019055565b01516000196008601f8516021c191690553880806112e1565b919360206001819287870151815501950192016112c9565b9061012a91611249565b9060001990610d1a565b9061133f610103610d3b9261110c565b8254611325565b61012a919061138f906040906002906113708161136a87516001600160a01b031690565b90610d24565b61138860018201611382602088015190565b9061131b565b0192015190565b9061132f565b9061012a91611346565b92916020610b6661012a9360408701908782036000890152610167565b906000611407926113dd6113d86001546001600160a01b031690565b61053c565b6113fc83637de24fcf6113ef60405190565b9788958694859360e01b90565b8352600483016110ef565b03925af19182156115e3576000926115c0575b5060006114268161110c565b611431610103855190565b8110156115ba578061144661154a9286611143565b51838101611454815161178c565b6114fb600292876114686101038587610a05565b0180546001600160a01b0316611483610c626100f78c610bca565b0361154f57506114a08361149b610103336003610545565b611188565b6114f5886114f08533976114eb602087519b019a6114e46114bf8d5190565b916114dd8d6114cc6111b6565b998a01906001600160a01b03169052565b6020880152565b6040860152565b610a05565b611395565b51935190565b61152c6115267f04c47544b62d97fc6d744e7cc21ed4a24af06a46427efcfd15a0db261dbb27d69390565b9361053c565b9361154261153960405190565b9283928361139f565b0390a361112f565b611426565b8361156182546001600160a01b031690565b339061156c82610c62565b0361157a575b5050506114a0565b61010361149b916115b2946115ad856115a86101036115a2600395546001600160a01b031690565b85610545565b611b3a565b610545565b388381611572565b50509050565b6115dc91923d8091833e6115d48183610376565b810190610f26565b903861141a565b611100565b61012a90610dfc565b61012a906115fd610c41565b61166a565b1561160957565b60405162461bcd60e51b8152602060048201526013602482015272105b1c9958591e481a5b9a5d1a585b1a5e9959606a1b6044820152606490fd5b9060ff60a01b9060a01b610d1a565b90611663610103610d3b92151590565b8254611644565b61168361167e61167a6001610da6565b1590565b611602565b61168e816001610d24565b611699600180611653565b6116c37f9b7c520e9e227a011fa79baf4082565a9fd780e2bcb20889c0fe36eba4b5c8db9161053c565b906116cd60405190565b600090a2565b61012a906115f1565b61012a906116e8610c41565b61172b565b156116f457565b60405162461bcd60e51b815260206004820152600f60248201526e496e76616c6964206164647265737360881b6044820152606490fd5b61174e6117378261053c565b611747610c626100f76000610bca565b14156116ed565b611699816001610d24565b61012a906116dc565b61019b61177a92602092611774815190565b94859290565b93849101610144565b61010391611762565b6117b461179860405190565b80926117a8602083019182611783565b90810382520382610376565b6117c66117bf825190565b9160200190565b2090565b60006117e3610103926117db600090565b506002610a05565b01546001600160a01b031690565b9061181661180a611800845490565b8084529260200190565b92600052602060002090565b9060005b8181106118275750505090565b90919261184b61184460019261183c87610b01565b815260200190565b9460010190565b92910161181a565b90610103916117f1565b9061012a610af39261186e60405190565b93848092611853565b6101039061185d565b9061188d6103e883610602565b918252565b610103604061039c565b6118a46111b6565b600080825260606020830152604082015290565b905250565b61010361189c565b6118cd611892565b906000825260208083016118b86118bd565b6101036118c5565b60005b8281106118f657505050565b6020906119016118df565b81840152016118ea565b9061012a61192161191b84611880565b93610602565b601f1901602084016118e7565b9061012a611976600261193f6111b6565b9461196161195482546001600160a01b031690565b6001600160a01b03168752565b6119706114dd60018301610ad9565b01610b01565b6040840152565b6101039061192e565b61199d6119a291611995606090565b506003610545565b611877565b906119b36119ae835190565b61190b565b91600090836119c18361110c565b6119cc610103845190565b811015611a3057806119e86119e4611a2b9386611143565b5190565b611a106108776119f9836002610a05565b611a0b611a04611892565b948a860152565b61197d565b611a1a8289611143565b52611a258188611143565b5061112f565b6119c1565b5093505050565b90611a436119ae835190565b9160009083611a518361110c565b611a5c610103845190565b811015611a3057806119e86119e4611a749386611143565b611a51565b90611a8861180a611800845490565b9060005b818110611a995750505090565b909192611aae61184460019261183c87610b01565b929101611a8c565b9061010391611a79565b9061012a610af392611ad160405190565b93848092611ab6565b61010390611ac0565b9190820391821161113e57565b634e487b7160e01b600052603160045260246000fd5b61012a91600091611171565b80548015611b35576000190190611b32611b2c8383610573565b90611b06565b55565b611af0565b611b4f611b5692611b4a83611ada565b611bf3565b9092901590565b15611b985760405162461bcd60e51b8152602060048201526015602482015274313cba32b99999103737ba1034b71030b93930bc9760591b6044820152606490fd5b61012a91611bb7611ba7835490565b611bb1600161110c565b90611ae3565b90818103611bc7575b5050611b12565b6111b0611bda6105dd611be19486610573565b9184610573565b3880611bc0565b61010360001961110c565b91908251926000611c038161110c565b855b811015611c4657611c196119e48285611143565b8490611c24565b9190565b14611c3c57611c35611c059161112f565b9050611c03565b9450505050600190565b5093505050611c20611be856fea264697066735822122068a21773be6670efa65e1f0a1d0daaf76454ebcf047be10f0668c8a78dba33c364736f6c63430008120033",
  "devdoc": {
    "kind": "dev",
    "methods": {
      "initialize(address)": {
        "params": {
          "_verifyDomainProcessor": "Address of the VerifyDomainProcessor contract"
        }
      },
      "owner()": {
        "details": "Returns the address of the current owner."
      },
      "renounceOwnership()": {
        "details": "Leaves the contract without owner. It will not be possible to call `onlyOwner` functions. Can only be called by the current owner. NOTE: Renouncing ownership will leave the contract without an owner, thereby disabling any functionality that is only available to the owner."
      },
      "transferOwnership(address)": {
        "details": "Transfers ownership of the contract to a new account (`newOwner`). Can only be called by the current owner."
      },
      "updateVerifyDomainProcessor(address)": {
        "params": {
          "_verifyDomainProcessor": "Address of the new VerifyDomainProcessor contract"
        }
      },
      "verifyDomains(((string,string,string),((bytes32,address,uint32,uint32),bytes[]))[])": {
        "params": {
          "_proofs": "Array of domain ownership TLS proofs"
        }
      }
    },
    "version": 1
  },
  "userdoc": {
    "kind": "user",
    "methods": {
      "initialize(address)": {
        "notice": "ONLY OWNER: Initialize the contract with the VerifyDomainProcessor and exchange contracts. This can only be called once."
      },
      "updateVerifyDomainProcessor(address)": {
        "notice": "ONLY OWNER: Update the verify domain processor"
      },
      "verifyDomains(((string,string,string),((bytes32,address,uint32,uint32),bytes[]))[])": {
        "notice": "Verify domains and add them to the registry. If domain is transferred off-chain to another party  then they can re-verify the domain and claim ownership of the domain and previous ownership is removed. The existing owner can re-verify the domain, say after the domain has expired to update the expiry time on the domain. Function reverts if: - Domain ownership TLS proofs are invalid "
      }
    },
    "version": 1
  },
  "storageLayout": {
    "storage": [
      {
        "astId": 7,
        "contract": "contracts/VerifiedDomainRegistry.sol:VerifiedDomainRegistry",
        "label": "_owner",
        "offset": 0,
        "slot": "0",
        "type": "t_address"
      },
      {
        "astId": 6979,
        "contract": "contracts/VerifiedDomainRegistry.sol:VerifiedDomainRegistry",
        "label": "verifyDomainProcessor",
        "offset": 0,
        "slot": "1",
        "type": "t_contract(IVerifyDomainProcessor)11319"
      },
      {
        "astId": 6981,
        "contract": "contracts/VerifiedDomainRegistry.sol:VerifiedDomainRegistry",
        "label": "isInitialized",
        "offset": 20,
        "slot": "1",
        "type": "t_bool"
      },
      {
        "astId": 6986,
        "contract": "contracts/VerifiedDomainRegistry.sol:VerifiedDomainRegistry",
        "label": "domains",
        "offset": 0,
        "slot": "2",
        "type": "t_mapping(t_bytes32,t_struct(Domain)11268_storage)"
      },
      {
        "astId": 6991,
        "contract": "contracts/VerifiedDomainRegistry.sol:VerifiedDomainRegistry",
        "label": "userDomains",
        "offset": 0,
        "slot": "3",
        "type": "t_mapping(t_address,t_array(t_bytes32)dyn_storage)"
      }
    ],
    "types": {
      "t_address": {
        "encoding": "inplace",
        "label": "address",
        "numberOfBytes": "20"
      },
      "t_array(t_bytes32)dyn_storage": {
        "base": "t_bytes32",
        "encoding": "dynamic_array",
        "label": "bytes32[]",
        "numberOfBytes": "32"
      },
      "t_bool": {
        "encoding": "inplace",
        "label": "bool",
        "numberOfBytes": "1"
      },
      "t_bytes32": {
        "encoding": "inplace",
        "label": "bytes32",
        "numberOfBytes": "32"
      },
      "t_contract(IVerifyDomainProcessor)11319": {
        "encoding": "inplace",
        "label": "contract IVerifyDomainProcessor",
        "numberOfBytes": "20"
      },
      "t_mapping(t_address,t_array(t_bytes32)dyn_storage)": {
        "encoding": "mapping",
        "key": "t_address",
        "label": "mapping(address => bytes32[])",
        "numberOfBytes": "32",
        "value": "t_array(t_bytes32)dyn_storage"
      },
      "t_mapping(t_bytes32,t_struct(Domain)11268_storage)": {
        "encoding": "mapping",
        "key": "t_bytes32",
        "label": "mapping(bytes32 => struct IVerifiedDomainRegistry.Domain)",
        "numberOfBytes": "32",
        "value": "t_struct(Domain)11268_storage"
      },
      "t_string_storage": {
        "encoding": "bytes",
        "label": "string",
        "numberOfBytes": "32"
      },
      "t_struct(Domain)11268_storage": {
        "encoding": "inplace",
        "label": "struct IVerifiedDomainRegistry.Domain",
        "members": [
          {
            "astId": 11263,
            "contract": "contracts/VerifiedDomainRegistry.sol:VerifiedDomainRegistry",
            "label": "owner",
            "offset": 0,
            "slot": "0",
            "type": "t_address"
          },
          {
            "astId": 11265,
            "contract": "contracts/VerifiedDomainRegistry.sol:VerifiedDomainRegistry",
            "label": "name",
            "offset": 0,
            "slot": "1",
            "type": "t_string_storage"
          },
          {
            "astId": 11267,
            "contract": "contracts/VerifiedDomainRegistry.sol:VerifiedDomainRegistry",
            "label": "expiryTime",
            "offset": 0,
            "slot": "2",
            "type": "t_uint256"
          }
        ],
        "numberOfBytes": "96"
      },
      "t_uint256": {
        "encoding": "inplace",
        "label": "uint256",
        "numberOfBytes": "32"
      }
    }
  }
}