{
  "address": "0xEfBDf422FA81071A04D2f89A70A0D938FEFA0795",
  "abi": [
    {
      "inputs": [
        {
          "internalType": "address",
          "name": "_owner",
          "type": "address"
        },
        {
          "internalType": "contract IERC20",
          "name": "_usdc",
          "type": "address"
        },
        {
          "internalType": "uint256",
          "name": "_minDepositAmount",
          "type": "uint256"
        },
        {
          "internalType": "uint256",
          "name": "_maxOnRampAmount",
          "type": "uint256"
        },
        {
          "internalType": "uint256",
          "name": "_intentExpirationPeriod",
          "type": "uint256"
        },
        {
          "internalType": "uint256",
          "name": "_onRampCooldownPeriod",
          "type": "uint256"
        },
        {
          "internalType": "uint256",
          "name": "_sustainabilityFee",
          "type": "uint256"
        },
        {
          "internalType": "address",
          "name": "_sustainabilityFeeRecipient",
          "type": "address"
        }
      ],
      "stateMutability": "nonpayable",
      "type": "constructor"
    },
    {
      "anonymous": false,
      "inputs": [
        {
          "indexed": true,
          "internalType": "address",
          "name": "accountOwner",
          "type": "address"
        },
        {
          "indexed": true,
          "internalType": "bytes32",
          "name": "idHash",
          "type": "bytes32"
        }
      ],
      "name": "AccountRegistered",
      "type": "event"
    },
    {
      "anonymous": false,
      "inputs": [
        {
          "indexed": false,
          "internalType": "uint256",
          "name": "depositId",
          "type": "uint256"
        },
        {
          "indexed": false,
          "internalType": "address",
          "name": "depositor",
          "type": "address"
        }
      ],
      "name": "DepositClosed",
      "type": "event"
    },
    {
      "anonymous": false,
      "inputs": [
        {
          "indexed": true,
          "internalType": "uint256",
          "name": "depositId",
          "type": "uint256"
        },
        {
          "indexed": true,
          "internalType": "bytes32",
          "name": "idHash",
          "type": "bytes32"
        },
        {
          "indexed": false,
          "internalType": "uint256",
          "name": "amount",
          "type": "uint256"
        },
        {
          "indexed": false,
          "internalType": "uint256",
          "name": "conversionRate",
          "type": "uint256"
        }
      ],
      "name": "DepositReceived",
      "type": "event"
    },
    {
      "anonymous": false,
      "inputs": [
        {
          "indexed": true,
          "internalType": "uint256",
          "name": "depositId",
          "type": "uint256"
        },
        {
          "indexed": true,
          "internalType": "address",
          "name": "depositor",
          "type": "address"
        },
        {
          "indexed": false,
          "internalType": "uint256",
          "name": "amount",
          "type": "uint256"
        }
      ],
      "name": "DepositWithdrawn",
      "type": "event"
    },
    {
      "anonymous": false,
      "inputs": [
        {
          "indexed": false,
          "internalType": "uint256",
          "name": "intentExpirationPeriod",
          "type": "uint256"
        }
      ],
      "name": "IntentExpirationPeriodSet",
      "type": "event"
    },
    {
      "anonymous": false,
      "inputs": [
        {
          "indexed": true,
          "internalType": "bytes32",
          "name": "intentHash",
          "type": "bytes32"
        },
        {
          "indexed": true,
          "internalType": "uint256",
          "name": "depositId",
          "type": "uint256"
        },
        {
          "indexed": true,
          "internalType": "address",
          "name": "onRamper",
          "type": "address"
        },
        {
          "indexed": false,
          "internalType": "address",
          "name": "to",
          "type": "address"
        },
        {
          "indexed": false,
          "internalType": "uint256",
          "name": "amount",
          "type": "uint256"
        },
        {
          "indexed": false,
          "internalType": "uint256",
          "name": "feeAmount",
          "type": "uint256"
        }
      ],
      "name": "IntentFulfilled",
      "type": "event"
    },
    {
      "anonymous": false,
      "inputs": [
        {
          "indexed": true,
          "internalType": "bytes32",
          "name": "intentHash",
          "type": "bytes32"
        },
        {
          "indexed": true,
          "internalType": "uint256",
          "name": "depositId",
          "type": "uint256"
        }
      ],
      "name": "IntentPruned",
      "type": "event"
    },
    {
      "anonymous": false,
      "inputs": [
        {
          "indexed": true,
          "internalType": "bytes32",
          "name": "intentHash",
          "type": "bytes32"
        },
        {
          "indexed": true,
          "internalType": "uint256",
          "name": "depositId",
          "type": "uint256"
        },
        {
          "indexed": true,
          "internalType": "bytes32",
          "name": "idHash",
          "type": "bytes32"
        },
        {
          "indexed": false,
          "internalType": "address",
          "name": "to",
          "type": "address"
        },
        {
          "indexed": false,
          "internalType": "uint256",
          "name": "amount",
          "type": "uint256"
        },
        {
          "indexed": false,
          "internalType": "uint256",
          "name": "timestamp",
          "type": "uint256"
        }
      ],
      "name": "IntentSignaled",
      "type": "event"
    },
    {
      "anonymous": false,
      "inputs": [
        {
          "indexed": false,
          "internalType": "uint256",
          "name": "maxOnRampAmount",
          "type": "uint256"
        }
      ],
      "name": "MaxOnRampAmountSet",
      "type": "event"
    },
    {
      "anonymous": false,
      "inputs": [
        {
          "indexed": false,
          "internalType": "uint256",
          "name": "minDepositAmount",
          "type": "uint256"
        }
      ],
      "name": "MinDepositAmountSet",
      "type": "event"
    },
    {
      "anonymous": false,
      "inputs": [
        {
          "indexed": false,
          "internalType": "address",
          "name": "receiveProcessor",
          "type": "address"
        }
      ],
      "name": "NewReceiveProcessorSet",
      "type": "event"
    },
    {
      "anonymous": false,
      "inputs": [
        {
          "indexed": false,
          "internalType": "address",
          "name": "registrationProcessor",
          "type": "address"
        }
      ],
      "name": "NewRegistrationProcessorSet",
      "type": "event"
    },
    {
      "anonymous": false,
      "inputs": [
        {
          "indexed": false,
          "internalType": "address",
          "name": "sendProcessor",
          "type": "address"
        }
      ],
      "name": "NewSendProcessorSet",
      "type": "event"
    },
    {
      "anonymous": false,
      "inputs": [
        {
          "indexed": false,
          "internalType": "uint256",
          "name": "onRampCooldownPeriod",
          "type": "uint256"
        }
      ],
      "name": "OnRampCooldownPeriodSet",
      "type": "event"
    },
    {
      "anonymous": false,
      "inputs": [
        {
          "indexed": true,
          "internalType": "address",
          "name": "previousOwner",
          "type": "address"
        },
        {
          "indexed": true,
          "internalType": "address",
          "name": "newOwner",
          "type": "address"
        }
      ],
      "name": "OwnershipTransferred",
      "type": "event"
    },
    {
      "anonymous": false,
      "inputs": [
        {
          "indexed": false,
          "internalType": "address",
          "name": "feeRecipient",
          "type": "address"
        }
      ],
      "name": "SustainabilityFeeRecipientUpdated",
      "type": "event"
    },
    {
      "anonymous": false,
      "inputs": [
        {
          "indexed": false,
          "internalType": "uint256",
          "name": "fee",
          "type": "uint256"
        }
      ],
      "name": "SustainabilityFeeUpdated",
      "type": "event"
    },
    {
      "anonymous": false,
      "inputs": [
        {
          "indexed": false,
          "internalType": "bytes32",
          "name": "listOwner",
          "type": "bytes32"
        },
        {
          "indexed": false,
          "internalType": "bytes32",
          "name": "deniedUser",
          "type": "bytes32"
        }
      ],
      "name": "UserAddedToDenylist",
      "type": "event"
    },
    {
      "anonymous": false,
      "inputs": [
        {
          "indexed": false,
          "internalType": "bytes32",
          "name": "listOwner",
          "type": "bytes32"
        },
        {
          "indexed": false,
          "internalType": "bytes32",
          "name": "approvedUser",
          "type": "bytes32"
        }
      ],
      "name": "UserRemovedFromDenylist",
      "type": "event"
    },
    {
      "inputs": [
        {
          "internalType": "bytes32",
          "name": "_deniedUser",
          "type": "bytes32"
        }
      ],
      "name": "addAccountToDenylist",
      "outputs": [],
      "stateMutability": "nonpayable",
      "type": "function"
    },
    {
      "inputs": [
        {
          "internalType": "bytes32",
          "name": "_intentHash",
          "type": "bytes32"
        }
      ],
      "name": "cancelIntent",
      "outputs": [],
      "stateMutability": "nonpayable",
      "type": "function"
    },
    {
      "inputs": [],
      "name": "depositCounter",
      "outputs": [
        {
          "internalType": "uint256",
          "name": "",
          "type": "uint256"
        }
      ],
      "stateMutability": "view",
      "type": "function"
    },
    {
      "inputs": [
        {
          "internalType": "uint256",
          "name": "",
          "type": "uint256"
        }
      ],
      "name": "deposits",
      "outputs": [
        {
          "internalType": "address",
          "name": "depositor",
          "type": "address"
        },
        {
          "internalType": "string",
          "name": "garantiIban",
          "type": "string"
        },
        {
          "internalType": "string",
          "name": "garantiName",
          "type": "string"
        },
        {
          "internalType": "uint256",
          "name": "depositAmount",
          "type": "uint256"
        },
        {
          "internalType": "uint256",
          "name": "remainingDeposits",
          "type": "uint256"
        },
        {
          "internalType": "uint256",
          "name": "outstandingIntentAmount",
          "type": "uint256"
        },
        {
          "internalType": "uint256",
          "name": "conversionRate",
          "type": "uint256"
        }
      ],
      "stateMutability": "view",
      "type": "function"
    },
    {
      "inputs": [
        {
          "internalType": "address",
          "name": "_account",
          "type": "address"
        }
      ],
      "name": "getAccountDeposits",
      "outputs": [
        {
          "components": [
            {
              "internalType": "uint256",
              "name": "depositId",
              "type": "uint256"
            },
            {
              "internalType": "bytes32",
              "name": "depositorIdHash",
              "type": "bytes32"
            },
            {
              "components": [
                {
                  "internalType": "address",
                  "name": "depositor",
                  "type": "address"
                },
                {
                  "internalType": "string",
                  "name": "garantiIban",
                  "type": "string"
                },
                {
                  "internalType": "string",
                  "name": "garantiName",
                  "type": "string"
                },
                {
                  "internalType": "uint256",
                  "name": "depositAmount",
                  "type": "uint256"
                },
                {
                  "internalType": "uint256",
                  "name": "remainingDeposits",
                  "type": "uint256"
                },
                {
                  "internalType": "uint256",
                  "name": "outstandingIntentAmount",
                  "type": "uint256"
                },
                {
                  "internalType": "uint256",
                  "name": "conversionRate",
                  "type": "uint256"
                },
                {
                  "internalType": "bytes32[]",
                  "name": "intentHashes",
                  "type": "bytes32[]"
                }
              ],
              "internalType": "struct GarantiRamp.Deposit",
              "name": "deposit",
              "type": "tuple"
            },
            {
              "internalType": "uint256",
              "name": "availableLiquidity",
              "type": "uint256"
            }
          ],
          "internalType": "struct GarantiRamp.DepositWithAvailableLiquidity[]",
          "name": "accountDeposits",
          "type": "tuple[]"
        }
      ],
      "stateMutability": "view",
      "type": "function"
    },
    {
      "inputs": [
        {
          "internalType": "address",
          "name": "_account",
          "type": "address"
        }
      ],
      "name": "getAccountInfo",
      "outputs": [
        {
          "components": [
            {
              "internalType": "bytes32",
              "name": "idHash",
              "type": "bytes32"
            },
            {
              "internalType": "uint256[]",
              "name": "deposits",
              "type": "uint256[]"
            }
          ],
          "internalType": "struct GarantiRamp.AccountInfo",
          "name": "",
          "type": "tuple"
        }
      ],
      "stateMutability": "view",
      "type": "function"
    },
    {
      "inputs": [
        {
          "internalType": "address",
          "name": "_account",
          "type": "address"
        }
      ],
      "name": "getDeniedUsers",
      "outputs": [
        {
          "internalType": "bytes32[]",
          "name": "",
          "type": "bytes32[]"
        }
      ],
      "stateMutability": "view",
      "type": "function"
    },
    {
      "inputs": [
        {
          "internalType": "uint256",
          "name": "_depositId",
          "type": "uint256"
        }
      ],
      "name": "getDeposit",
      "outputs": [
        {
          "components": [
            {
              "internalType": "address",
              "name": "depositor",
              "type": "address"
            },
            {
              "internalType": "string",
              "name": "garantiIban",
              "type": "string"
            },
            {
              "internalType": "string",
              "name": "garantiName",
              "type": "string"
            },
            {
              "internalType": "uint256",
              "name": "depositAmount",
              "type": "uint256"
            },
            {
              "internalType": "uint256",
              "name": "remainingDeposits",
              "type": "uint256"
            },
            {
              "internalType": "uint256",
              "name": "outstandingIntentAmount",
              "type": "uint256"
            },
            {
              "internalType": "uint256",
              "name": "conversionRate",
              "type": "uint256"
            },
            {
              "internalType": "bytes32[]",
              "name": "intentHashes",
              "type": "bytes32[]"
            }
          ],
          "internalType": "struct GarantiRamp.Deposit",
          "name": "",
          "type": "tuple"
        }
      ],
      "stateMutability": "view",
      "type": "function"
    },
    {
      "inputs": [
        {
          "internalType": "uint256[]",
          "name": "_depositIds",
          "type": "uint256[]"
        }
      ],
      "name": "getDepositFromIds",
      "outputs": [
        {
          "components": [
            {
              "internalType": "uint256",
              "name": "depositId",
              "type": "uint256"
            },
            {
              "internalType": "bytes32",
              "name": "depositorIdHash",
              "type": "bytes32"
            },
            {
              "components": [
                {
                  "internalType": "address",
                  "name": "depositor",
                  "type": "address"
                },
                {
                  "internalType": "string",
                  "name": "garantiIban",
                  "type": "string"
                },
                {
                  "internalType": "string",
                  "name": "garantiName",
                  "type": "string"
                },
                {
                  "internalType": "uint256",
                  "name": "depositAmount",
                  "type": "uint256"
                },
                {
                  "internalType": "uint256",
                  "name": "remainingDeposits",
                  "type": "uint256"
                },
                {
                  "internalType": "uint256",
                  "name": "outstandingIntentAmount",
                  "type": "uint256"
                },
                {
                  "internalType": "uint256",
                  "name": "conversionRate",
                  "type": "uint256"
                },
                {
                  "internalType": "bytes32[]",
                  "name": "intentHashes",
                  "type": "bytes32[]"
                }
              ],
              "internalType": "struct GarantiRamp.Deposit",
              "name": "deposit",
              "type": "tuple"
            },
            {
              "internalType": "uint256",
              "name": "availableLiquidity",
              "type": "uint256"
            }
          ],
          "internalType": "struct GarantiRamp.DepositWithAvailableLiquidity[]",
          "name": "depositArray",
          "type": "tuple[]"
        }
      ],
      "stateMutability": "view",
      "type": "function"
    },
    {
      "inputs": [
        {
          "internalType": "address",
          "name": "_account",
          "type": "address"
        }
      ],
      "name": "getIdCurrentIntentHash",
      "outputs": [
        {
          "internalType": "bytes32",
          "name": "",
          "type": "bytes32"
        }
      ],
      "stateMutability": "view",
      "type": "function"
    },
    {
      "inputs": [
        {
          "internalType": "bytes32[]",
          "name": "_intentHashes",
          "type": "bytes32[]"
        }
      ],
      "name": "getIntentsWithOnRamperId",
      "outputs": [
        {
          "components": [
            {
              "internalType": "bytes32",
              "name": "intentHash",
              "type": "bytes32"
            },
            {
              "components": [
                {
                  "internalType": "address",
                  "name": "onRamper",
                  "type": "address"
                },
                {
                  "internalType": "address",
                  "name": "to",
                  "type": "address"
                },
                {
                  "internalType": "uint256",
                  "name": "deposit",
                  "type": "uint256"
                },
                {
                  "internalType": "uint256",
                  "name": "amount",
                  "type": "uint256"
                },
                {
                  "internalType": "uint256",
                  "name": "intentTimestamp",
                  "type": "uint256"
                }
              ],
              "internalType": "struct GarantiRamp.Intent",
              "name": "intent",
              "type": "tuple"
            },
            {
              "internalType": "bytes32",
              "name": "onRamperIdHash",
              "type": "bytes32"
            }
          ],
          "internalType": "struct GarantiRamp.IntentWithOnRamperId[]",
          "name": "",
          "type": "tuple[]"
        }
      ],
      "stateMutability": "view",
      "type": "function"
    },
    {
      "inputs": [
        {
          "internalType": "address",
          "name": "_account",
          "type": "address"
        }
      ],
      "name": "getLastOnRampTimestamp",
      "outputs": [
        {
          "internalType": "uint256",
          "name": "",
          "type": "uint256"
        }
      ],
      "stateMutability": "view",
      "type": "function"
    },
    {
      "inputs": [
        {
          "internalType": "contract IGarantiRegistrationProcessor",
          "name": "_registrationProcessor",
          "type": "address"
        },
        {
          "internalType": "contract IGarantiSendProcessor",
          "name": "_sendProcessor",
          "type": "address"
        }
      ],
      "name": "initialize",
      "outputs": [],
      "stateMutability": "nonpayable",
      "type": "function"
    },
    {
      "inputs": [],
      "name": "intentExpirationPeriod",
      "outputs": [
        {
          "internalType": "uint256",
          "name": "",
          "type": "uint256"
        }
      ],
      "stateMutability": "view",
      "type": "function"
    },
    {
      "inputs": [
        {
          "internalType": "bytes32",
          "name": "",
          "type": "bytes32"
        }
      ],
      "name": "intents",
      "outputs": [
        {
          "internalType": "address",
          "name": "onRamper",
          "type": "address"
        },
        {
          "internalType": "address",
          "name": "to",
          "type": "address"
        },
        {
          "internalType": "uint256",
          "name": "deposit",
          "type": "uint256"
        },
        {
          "internalType": "uint256",
          "name": "amount",
          "type": "uint256"
        },
        {
          "internalType": "uint256",
          "name": "intentTimestamp",
          "type": "uint256"
        }
      ],
      "stateMutability": "view",
      "type": "function"
    },
    {
      "inputs": [
        {
          "internalType": "address",
          "name": "_account",
          "type": "address"
        },
        {
          "internalType": "bytes32",
          "name": "_deniedUser",
          "type": "bytes32"
        }
      ],
      "name": "isDeniedUser",
      "outputs": [
        {
          "internalType": "bool",
          "name": "",
          "type": "bool"
        }
      ],
      "stateMutability": "view",
      "type": "function"
    },
    {
      "inputs": [],
      "name": "isInitialized",
      "outputs": [
        {
          "internalType": "bool",
          "name": "",
          "type": "bool"
        }
      ],
      "stateMutability": "view",
      "type": "function"
    },
    {
      "inputs": [
        {
          "internalType": "string",
          "name": "_iban",
          "type": "string"
        }
      ],
      "name": "isValidIban",
      "outputs": [
        {
          "internalType": "bool",
          "name": "",
          "type": "bool"
        }
      ],
      "stateMutability": "pure",
      "type": "function"
    },
    {
      "inputs": [],
      "name": "maxOnRampAmount",
      "outputs": [
        {
          "internalType": "uint256",
          "name": "",
          "type": "uint256"
        }
      ],
      "stateMutability": "view",
      "type": "function"
    },
    {
      "inputs": [],
      "name": "minDepositAmount",
      "outputs": [
        {
          "internalType": "uint256",
          "name": "",
          "type": "uint256"
        }
      ],
      "stateMutability": "view",
      "type": "function"
    },
    {
      "inputs": [
        {
          "internalType": "string",
          "name": "_garantiIban",
          "type": "string"
        },
        {
          "internalType": "string",
          "name": "_garantiName",
          "type": "string"
        },
        {
          "internalType": "uint256",
          "name": "_depositAmount",
          "type": "uint256"
        },
        {
          "internalType": "uint256",
          "name": "_receiveAmount",
          "type": "uint256"
        }
      ],
      "name": "offRamp",
      "outputs": [],
      "stateMutability": "nonpayable",
      "type": "function"
    },
    {
      "inputs": [
        {
          "components": [
            {
              "internalType": "uint256[2]",
              "name": "a",
              "type": "uint256[2]"
            },
            {
              "internalType": "uint256[2][2]",
              "name": "b",
              "type": "uint256[2][2]"
            },
            {
              "internalType": "uint256[2]",
              "name": "c",
              "type": "uint256[2]"
            },
            {
              "internalType": "uint256[28]",
              "name": "signals",
              "type": "uint256[28]"
            }
          ],
          "internalType": "struct IGarantiSendProcessor.SendProof",
          "name": "_proof",
          "type": "tuple"
        },
        {
          "components": [
            {
              "internalType": "uint256[2]",
              "name": "a",
              "type": "uint256[2]"
            },
            {
              "internalType": "uint256[2][2]",
              "name": "b",
              "type": "uint256[2][2]"
            },
            {
              "internalType": "uint256[2]",
              "name": "c",
              "type": "uint256[2]"
            },
            {
              "internalType": "uint256[4]",
              "name": "signals",
              "type": "uint256[4]"
            }
          ],
          "internalType": "struct IGarantiBodySuffixHashVerifier.BodySuffixHashProof",
          "name": "_bodyHashProof",
          "type": "tuple"
        }
      ],
      "name": "onRamp",
      "outputs": [],
      "stateMutability": "nonpayable",
      "type": "function"
    },
    {
      "inputs": [],
      "name": "onRampCooldownPeriod",
      "outputs": [
        {
          "internalType": "uint256",
          "name": "",
          "type": "uint256"
        }
      ],
      "stateMutability": "view",
      "type": "function"
    },
    {
      "inputs": [],
      "name": "owner",
      "outputs": [
        {
          "internalType": "address",
          "name": "",
          "type": "address"
        }
      ],
      "stateMutability": "view",
      "type": "function"
    },
    {
      "inputs": [
        {
          "components": [
            {
              "internalType": "uint256[2]",
              "name": "a",
              "type": "uint256[2]"
            },
            {
              "internalType": "uint256[2][2]",
              "name": "b",
              "type": "uint256[2][2]"
            },
            {
              "internalType": "uint256[2]",
              "name": "c",
              "type": "uint256[2]"
            },
            {
              "internalType": "uint256[11]",
              "name": "signals",
              "type": "uint256[11]"
            }
          ],
          "internalType": "struct IGarantiRegistrationProcessor.RegistrationProof",
          "name": "_proof",
          "type": "tuple"
        },
        {
          "components": [
            {
              "internalType": "uint256[2]",
              "name": "a",
              "type": "uint256[2]"
            },
            {
              "internalType": "uint256[2][2]",
              "name": "b",
              "type": "uint256[2][2]"
            },
            {
              "internalType": "uint256[2]",
              "name": "c",
              "type": "uint256[2]"
            },
            {
              "internalType": "uint256[4]",
              "name": "signals",
              "type": "uint256[4]"
            }
          ],
          "internalType": "struct IGarantiBodySuffixHashVerifier.BodySuffixHashProof",
          "name": "_bodyHashProof",
          "type": "tuple"
        }
      ],
      "name": "register",
      "outputs": [],
      "stateMutability": "nonpayable",
      "type": "function"
    },
    {
      "inputs": [],
      "name": "registrationProcessor",
      "outputs": [
        {
          "internalType": "contract IGarantiRegistrationProcessor",
          "name": "",
          "type": "address"
        }
      ],
      "stateMutability": "view",
      "type": "function"
    },
    {
      "inputs": [
        {
          "internalType": "bytes32",
          "name": "_intentHash",
          "type": "bytes32"
        }
      ],
      "name": "releaseFundsToOnramper",
      "outputs": [],
      "stateMutability": "nonpayable",
      "type": "function"
    },
    {
      "inputs": [
        {
          "internalType": "bytes32",
          "name": "_approvedUser",
          "type": "bytes32"
        }
      ],
      "name": "removeAccountFromDenylist",
      "outputs": [],
      "stateMutability": "nonpayable",
      "type": "function"
    },
    {
      "inputs": [],
      "name": "renounceOwnership",
      "outputs": [],
      "stateMutability": "nonpayable",
      "type": "function"
    },
    {
      "inputs": [],
      "name": "sendProcessor",
      "outputs": [
        {
          "internalType": "contract IGarantiSendProcessor",
          "name": "",
          "type": "address"
        }
      ],
      "stateMutability": "view",
      "type": "function"
    },
    {
      "inputs": [
        {
          "internalType": "uint256",
          "name": "_intentExpirationPeriod",
          "type": "uint256"
        }
      ],
      "name": "setIntentExpirationPeriod",
      "outputs": [],
      "stateMutability": "nonpayable",
      "type": "function"
    },
    {
      "inputs": [
        {
          "internalType": "uint256",
          "name": "_maxOnRampAmount",
          "type": "uint256"
        }
      ],
      "name": "setMaxOnRampAmount",
      "outputs": [],
      "stateMutability": "nonpayable",
      "type": "function"
    },
    {
      "inputs": [
        {
          "internalType": "uint256",
          "name": "_minDepositAmount",
          "type": "uint256"
        }
      ],
      "name": "setMinDepositAmount",
      "outputs": [],
      "stateMutability": "nonpayable",
      "type": "function"
    },
    {
      "inputs": [
        {
          "internalType": "uint256",
          "name": "_onRampCooldownPeriod",
          "type": "uint256"
        }
      ],
      "name": "setOnRampCooldownPeriod",
      "outputs": [],
      "stateMutability": "nonpayable",
      "type": "function"
    },
    {
      "inputs": [
        {
          "internalType": "contract IGarantiRegistrationProcessor",
          "name": "_registrationProcessor",
          "type": "address"
        }
      ],
      "name": "setRegistrationProcessor",
      "outputs": [],
      "stateMutability": "nonpayable",
      "type": "function"
    },
    {
      "inputs": [
        {
          "internalType": "contract IGarantiSendProcessor",
          "name": "_sendProcessor",
          "type": "address"
        }
      ],
      "name": "setSendProcessor",
      "outputs": [],
      "stateMutability": "nonpayable",
      "type": "function"
    },
    {
      "inputs": [
        {
          "internalType": "uint256",
          "name": "_fee",
          "type": "uint256"
        }
      ],
      "name": "setSustainabilityFee",
      "outputs": [],
      "stateMutability": "nonpayable",
      "type": "function"
    },
    {
      "inputs": [
        {
          "internalType": "address",
          "name": "_feeRecipient",
          "type": "address"
        }
      ],
      "name": "setSustainabilityFeeRecipient",
      "outputs": [],
      "stateMutability": "nonpayable",
      "type": "function"
    },
    {
      "inputs": [
        {
          "internalType": "uint256",
          "name": "_depositId",
          "type": "uint256"
        },
        {
          "internalType": "uint256",
          "name": "_amount",
          "type": "uint256"
        },
        {
          "internalType": "address",
          "name": "_to",
          "type": "address"
        }
      ],
      "name": "signalIntent",
      "outputs": [],
      "stateMutability": "nonpayable",
      "type": "function"
    },
    {
      "inputs": [],
      "name": "sustainabilityFee",
      "outputs": [
        {
          "internalType": "uint256",
          "name": "",
          "type": "uint256"
        }
      ],
      "stateMutability": "view",
      "type": "function"
    },
    {
      "inputs": [],
      "name": "sustainabilityFeeRecipient",
      "outputs": [
        {
          "internalType": "address",
          "name": "",
          "type": "address"
        }
      ],
      "stateMutability": "view",
      "type": "function"
    },
    {
      "inputs": [
        {
          "internalType": "address",
          "name": "newOwner",
          "type": "address"
        }
      ],
      "name": "transferOwnership",
      "outputs": [],
      "stateMutability": "nonpayable",
      "type": "function"
    },
    {
      "inputs": [],
      "name": "usdc",
      "outputs": [
        {
          "internalType": "contract IERC20",
          "name": "",
          "type": "address"
        }
      ],
      "stateMutability": "view",
      "type": "function"
    },
    {
      "inputs": [
        {
          "internalType": "uint256[]",
          "name": "_depositIds",
          "type": "uint256[]"
        }
      ],
      "name": "withdrawDeposit",
      "outputs": [],
      "stateMutability": "nonpayable",
      "type": "function"
    }
  ],
  "transactionHash": "0xf05bddae62fc89aec8e52f184f2f95d91ec77a482871fd33b66e388e27610b77",
  "args": [
    "0x4e39cF8578698131c57404e8bc3eEC820EDa51d8",
    "0xBBA5C9bd54a4293f4261b38e5aD41820eC41ed86",
    "20000000",
    "999000000",
    "180",
    "180",
    "1000000000000000",
    "0x4e39cF8578698131c57404e8bc3eEC820EDa51d8"
  ],
  "numDeployments": 1,
  "solcInputHash": "fddf950e5f6f8abf0d9e29e0433009ae",
  "bytecode": "0x60a06040523480156200001157600080fd5b5060405162004782380380620047828339810160408190526200003491620001dd565b6200003f3362000096565b6001600160a01b0387811660805260078790556008869055600a8590556009849055600b839055600c80546001600160a01b0319169183169190911790556200008888620000e6565b505050505050505062000263565b600080546001600160a01b038381166001600160a01b0319831681178455604051919092169283917f8be0079c531659141344cd1fd0a4f28419497f9722a3daafe3b4186f6b6457e09190a35050565b620000f062000169565b6001600160a01b0381166200015b5760405162461bcd60e51b815260206004820152602660248201527f4f776e61626c653a206e6577206f776e657220697320746865207a65726f206160448201526564647265737360d01b60648201526084015b60405180910390fd5b620001668162000096565b50565b6000546001600160a01b03163314620001c55760405162461bcd60e51b815260206004820181905260248201527f4f776e61626c653a2063616c6c6572206973206e6f7420746865206f776e6572604482015260640162000152565b565b6001600160a01b03811681146200016657600080fd5b600080600080600080600080610100898b031215620001fb57600080fd5b88516200020881620001c7565b60208a01519098506200021b81620001c7565b8097505060408901519550606089015194506080890151935060a0890151925060c0890151915060e08901516200025281620001c7565b809150509295985092959890939650565b6080516144e76200029b600039600081816103a1015281816119c20152818161245d01528181613360015261340f01526144e76000f3fe608060405234801561001057600080fd5b50600436106102745760003560e01c8063715018a611610151578063b3fa4c01116100c3578063ecb3dc8811610087578063ecb3dc8814610657578063ecd618f014610660578063ed1692b814610680578063eea1d19714610693578063f2fde38b146106a6578063fbf15b1f146106b957600080fd5b8063b3fa4c0114610602578063d55f960d14610615578063d9478d2014610628578063e215ad591461063b578063e279d9641461064e57600080fd5b80639087beff116101155780639087beff1461057a5780639b357b5a1461058d5780639f9fb968146105a0578063a00555b3146105c0578063a1a954b7146105d3578063b02c43d0146105dc57600080fd5b8063715018a6146104b257806371a28f69146104ba5780637b510fe8146104cd5780638da5cb5b146104ed5780639021578a146104fe57600080fd5b806342987349116101ea5780635081d952116101ae5780635081d9521461043d5780635dd765151461045d57806360e0d21e14610470578063645006ca1461048357806366ec84191461048c578063711347621461049f57600080fd5b806342987349146103db57806343a170e6146103ee5780634595bba014610401578063485cc95514610421578063495223e71461043457600080fd5b80632a80cda31161023c5780632a80cda31461032c578063317dcc961461033f5780633389d5d514610352578063392e53cd146103755780633adba28a146103895780633e413bee1461039c57600080fd5b80630f1ef98c14610279578063133de6cb146102c5578063148172da146102da57806314ec32fa146102ed578063238c849414610323575b600080fd5b6102b261028736600461395e565b6001600160a01b03166000908152600460209081526040808320548352600390915290206001015490565b6040519081526020015b60405180910390f35b6102d86102d336600461395e565b610700565b005b6102d86102e8366004613982565b61075d565b6102b26102fb36600461395e565b6001600160a01b03166000908152600460209081526040808320548352600390915290205490565b6102b2600b5481565b6102d861033a366004613982565b61088f565b6102d861034d366004613982565b61091c565b610365610360366004613a52565b610959565b60405190151581526020016102bc565b60025461036590600160a01b900460ff1681565b6102d8610397366004613a87565b610ab4565b6103c37f000000000000000000000000000000000000000000000000000000000000000081565b6040516001600160a01b0390911681526020016102bc565b6102d86103e9366004613982565b611005565b6102d86103fc366004613ad3565b6110a6565b61041461040f36600461395e565b611160565b6040516102bc9190613b12565b6102d861042f366004613b56565b6111d9565b6102b260095481565b61045061044b36600461395e565b61126c565b6040516102bc9190613c9d565b6102d861046b366004613982565b6115d1565b6102d861047e366004613d29565b611670565b6102b260075481565b6102d861049a366004613982565b6116f9565b6102d86104ad366004613d4e565b611844565b6102d8611a37565b6104506104c8366004613d4e565b611a4b565b6104e06104db36600461395e565b611d48565b6040516102bc9190613df4565b6000546001600160a01b03166103c3565b61054761050c366004613982565b600660205260009081526040902080546001820154600283015460038401546004909401546001600160a01b03938416949390921692909185565b604080516001600160a01b039687168152959094166020860152928401919091526060830152608082015260a0016102bc565b6102d8610588366004613982565b611de2565b6102d861059b366004613982565b611e79565b6105b36105ae366004613982565b611f80565b6040516102bc9190613e4c565b6102d86105ce366004613e5f565b61215e565b6102b2600a5481565b6105ef6105ea366004613982565b61251a565b6040516102bc9796959493929190613ed3565b6102d861061036600461395e565b61266f565b6102d8610623366004613982565b612727565b600c546103c3906001600160a01b031681565b6001546103c3906001600160a01b031681565b6102b260085481565b6102b2600d5481565b61067361066e366004613f30565b612865565b6040516102bc9190613fa5565b6102d861068e36600461395e565b6129ca565b6002546103c3906001600160a01b031681565b6102d86106b436600461395e565b612a20565b6103656106c7366004614035565b6001600160a01b038216600090815260046020908152604080832054835260038083528184208585520190915290205460ff1692915050565b610708612a99565b600280546001600160a01b0319166001600160a01b0383169081179091556040519081527f6e7665a41605edc0d70f4b991d652755f380754eb092d81ef9ab93664778d59e906020015b60405180910390a150565b336000908152600460205260409020546107925760405162461bcd60e51b815260040161078990614061565b60405180910390fd5b336000908152600460209081526040808320548084526003808452828520868652019092529091205460ff161561080b5760405162461bcd60e51b815260206004820152601860248201527f5573657220616c7265616479206f6e2064656e796c69737400000000000000006044820152606401610789565b60008181526003602081815260408084208685528084018352818520805460ff19166001908117909155938352600201805493840181558452922001839055517f976c693d56f27ba17d902bda80c4fa0416b773fbf268bcb0ee71689234d769ee906108839083908590918252602082015260400190565b60405180910390a15050565b610897612a99565b806000036108e75760405162461bcd60e51b815260206004820152601e60248201527f4d696e696d756d206465706f7369742063616e6e6f74206265207a65726f00006044820152606401610789565b60078190556040518181527fbdde72a6d8d8b42770c9899945ccdce09d0c5c794d3326cdb2d2cca61b12a9fc90602001610752565b610924612a99565b60098190556040518181527f88397975d177ce5e18abf3a5fdb8de773e80673d85eeb54f48cfaf688b3d2c3e90602001610752565b805160009082906020146109705750600092915050565b60005b8151811015610aaa5760028110156109ee57604160f81b82828151811061099c5761099c614098565b01602001516001600160f81b03191610806109da5750605a60f81b8282815181106109c9576109c9614098565b01602001516001600160f81b031916115b156109e9575060009392505050565b610a9a565b6109f96005826140c4565b600403610a3657818181518110610a1257610a12614098565b6020910101516001600160f81b031916600160fd1b146109e9575060009392505050565b603060f81b828281518110610a4d57610a4d614098565b01602001516001600160f81b0319161080610a8b5750603960f81b828281518110610a7a57610a7a614098565b01602001516001600160f81b031916115b15610a9a575060009392505050565b610aa3816140ee565b9050610973565b5060019392505050565b33600090815260046020526040902054610ae05760405162461bcd60e51b815260040161078990614061565b336000908152600460208181526040808420548785526005835281852080546001600160a01b031686529383528185205480865260038085528387208388520190935293205460ff1615610b765760405162461bcd60e51b815260206004820181905260248201527f4f6e72616d706572206f6e206465706f7369746f7227732064656e796c6973746044820152606401610789565b6009546000848152600360205260409020600101544291610b9691614107565b1115610bf05760405162461bcd60e51b8152602060048201526024808201527f4f6e2072616d7020636f6f6c20646f776e20706572696f64206e6f7420656c616044820152631c1cd95960e21b6064820152608401610789565b60008381526003602052604090205415610c4c5760405162461bcd60e51b815260206004820152601860248201527f496e74656e74207374696c6c206f75747374616e64696e6700000000000000006044820152606401610789565b828103610c9b5760405162461bcd60e51b815260206004820152601e60248201527f53656e6465722063616e6e6f7420626520746865206465706f7369746f7200006044820152606401610789565b81546001600160a01b0316610ceb5760405162461bcd60e51b815260206004820152601660248201527511195c1bdcda5d08191bd95cc81b9bdd08195e1a5cdd60521b6044820152606401610789565b60008511610d4a5760405162461bcd60e51b815260206004820152602660248201527f5369676e616c656420616d6f756e74206d75737420626520677265617465722060448201526507468616e20360d41b6064820152608401610789565b600854851115610db95760405162461bcd60e51b815260206004820152603460248201527f5369676e616c656420616d6f756e74206d757374206265206c657373207468616044820152731b881b585e081bdb8b5c985b5c08185b5bdd5b9d60621b6064820152608401610789565b6001600160a01b038416610e0f5760405162461bcd60e51b815260206004820152601b60248201527f43616e6e6f742073656e6420746f207a65726f206164647265737300000000006044820152606401610789565b6000610e1b8488612af3565b90508583600401541015610ed057600080610e3589612b5e565b9150915087818660040154610e4a9190614107565b1015610e8f5760405162461bcd60e51b81526020600482015260146024820152734e6f7420656e6f756768206c697175696469747960601b6044820152606401610789565b610e998583612d06565b80856004016000828254610ead9190614107565b9250508190555080856005016000828254610ec8919061411a565b909155505050505b6040805160a0810182523381526001600160a01b0387811660208084019182528385018c8152606085018c81524260808701908152600089815260068552888120975188546001600160a01b03199081169189169190911789559551600189018054909716971696909617909455905160028601555160038086019190915591516004948501558883525291822083905584018054889290610f7390849061411a565b9250508190555085836005016000828254610f8e9190614107565b9091555050600783018054600181018255600091825260209182902001829055604080516001600160a01b038816815291820188905242908201528490889083907f1a1292e170a0f000ccf956afba79bee0f9ec1d81f3f901c1d4d11e1f336aae109060600160405180910390a450505050505050565b61100d612a99565b806000036110715760405162461bcd60e51b815260206004820152602b60248201527f4d617820696e74656e742065787069726174696f6e20706572696f642063616e60448201526a6e6f74206265207a65726f60a81b6064820152608401610789565b600a8190556040518181527f55e3f6b95de9a0ec782f892e93fafe4e56be0696df204ddf8e0a40a9a713a80390602001610752565b33600090815260046020526040902054156111125760405162461bcd60e51b815260206004820152602660248201527f4163636f756e7420616c7265616479206173736f6369617465642077697468206044820152650d2c890c2e6d60d31b6064820152608401610789565b600061111e8383612d68565b336000818152600460205260408082208490555192935083927f672144042732f7b1cdbf0772464ae545aedd7f41d38b8487dafd9085496a5d519190a3505050565b6001600160a01b038116600090815260046020908152604080832054835260038252918290206002018054835181840281018401909452808452606093928301828280156111cd57602002820191906000526020600020905b8154815260200190600101908083116111b9575b50505050509050919050565b6111e1612a99565b600254600160a01b900460ff16156112315760405162461bcd60e51b8152602060048201526013602482015272105b1c9958591e481a5b9a5d1a585b1a5e9959606a1b6044820152606401610789565b600180546001600160a01b039384166001600160a01b0319909116179055600280546001600160a81b0319169190921617600160a01b179055565b6001600160a01b03811660009081526004602090815260408083206001018054825181850281018501909352808352606094938301828280156112ce57602002820191906000526020600020905b8154815260200190600101908083116112ba575b50505050509050805167ffffffffffffffff8111156112ef576112ef61399b565b60405190808252806020026020018201604052801561132857816020015b6113156137b2565b81526020019060019003908161130d5790505b50915060005b81518110156115ca57600082828151811061134b5761134b614098565b60209081029190910181015160008181526005835260408082208151610100810190925280546001600160a01b0316825260018101805494965092949193909291840191906113999061412d565b80601f01602080910402602001604051908101604052809291908181526020018280546113c59061412d565b80156114125780601f106113e757610100808354040283529160200191611412565b820191906000526020600020905b8154815290600101906020018083116113f557829003601f168201915b5050505050815260200160028201805461142b9061412d565b80601f01602080910402602001604051908101604052809291908181526020018280546114579061412d565b80156114a45780601f10611479576101008083540402835291602001916114a4565b820191906000526020600020905b81548152906001019060200180831161148757829003601f168201915b50505050508152602001600382015481526020016004820154815260200160058201548152602001600682015481526020016007820180548060200260200160405190810160405280929190818152602001828054801561152457602002820191906000526020600020905b815481526020019060010190808311611510575b5050505050815250509050600061153a83612b5e565b91505060405180608001604052808481526020016004600085600001516001600160a01b03166001600160a01b031681526020019081526020016000206000015481526020018381526020018284608001516115969190614107565b8152508685815181106115ab576115ab614098565b6020026020010181905250505050806115c3906140ee565b905061132e565b5050919050565b6115d9612a99565b66b1a2bc2ec5000081111561163b5760405162461bcd60e51b815260206004820152602260248201527f4665652063616e6e6f742062652067726561746572207468616e206d61782066604482015261656560f01b6064820152608401610789565b600b8190556040518181527f44f48e1b871e6db1e909a7b253b054b7150a0b4ddf4d59b159c827d82e72567090602001610752565b600080600061167f8585612de2565b92509250925061168f8282613138565b82606001518260050160008282546116a7919061411a565b909155505082516001600160a01b03166000908152600460209081526040808320548352600390915290819020426001909101558301516116e89083613211565b6116f28184613303565b5050505050565b6000818152600660209081526040808320815160a08101835281546001600160a01b0390811682526001830154811682860152600283015482850181905260038401546060840152600490930154608083015291855260059093529220815191929091166117795760405162461bcd60e51b815260040161078990614161565b80546001600160a01b031633146117d25760405162461bcd60e51b815260206004820152601c60248201527f43616c6c6572206d75737420626520746865206465706f7369746f72000000006044820152606401610789565b6117dc8184613138565b81606001518160050160008282546117f4919061411a565b909155505081516001600160a01b03166000908152600460209081526040808320548352600390915290819020426001909101558201516118359082613211565b61183f8383613303565b505050565b6000805b82518110156119a557600083828151811061186557611865614098565b6020908102919091018101516000818152600590925260409091208054919250906001600160a01b031633146118dd5760405162461bcd60e51b815260206004820152601c60248201527f53656e646572206d75737420626520746865206465706f7369746f72000000006044820152606401610789565b6000806118e984612b5e565b915091506118f78383612d06565b8083600401546119079190614107565b6119119087614107565b955080836005016000828254611927919061411a565b9091555050825460048401546001600160a01b039091169085907fae1f357660ab777dcfd38c0ab6357834684ec26289ecfa07ec65dbf6c3c643129061196e908590614107565b60405190815260200160405180910390a3600060048401556119908484613211565b505050508061199e906140ee565b9050611848565b5060405163a9059cbb60e01b8152336004820152602481018290527f00000000000000000000000000000000000000000000000000000000000000006001600160a01b03169063a9059cbb906044016020604051808303816000875af1158015611a13573d6000803e3d6000fd5b505050506040513d601f19601f8201168201806040525081019061183f9190614190565b611a3f612a99565b611a4960006134e1565b565b6060815167ffffffffffffffff811115611a6757611a6761399b565b604051908082528060200260200182016040528015611aa057816020015b611a8d6137b2565b815260200190600190039081611a855790505b50905060005b8251811015611d42576000838281518110611ac357611ac3614098565b60209081029190910181015160008181526005835260408082208151610100810190925280546001600160a01b031682526001810180549496509294919390929184019190611b119061412d565b80601f0160208091040260200160405190810160405280929190818152602001828054611b3d9061412d565b8015611b8a5780601f10611b5f57610100808354040283529160200191611b8a565b820191906000526020600020905b815481529060010190602001808311611b6d57829003601f168201915b50505050508152602001600282018054611ba39061412d565b80601f0160208091040260200160405190810160405280929190818152602001828054611bcf9061412d565b8015611c1c5780601f10611bf157610100808354040283529160200191611c1c565b820191906000526020600020905b815481529060010190602001808311611bff57829003601f168201915b505050505081526020016003820154815260200160048201548152602001600582015481526020016006820154815260200160078201805480602002602001604051908101604052809291908181526020018280548015611c9c57602002820191906000526020600020905b815481526020019060010190808311611c88575b50505050508152505090506000611cb283612b5e565b91505060405180608001604052808481526020016004600085600001516001600160a01b03166001600160a01b03168152602001908152602001600020600001548152602001838152602001828460800151611d0e9190614107565b815250858581518110611d2357611d23614098565b602002602001018190525050505080611d3b906140ee565b9050611aa6565b50919050565b6040805180820190915260008152606060208201526001600160a01b038216600090815260046020908152604091829020825180840184528154815260018201805485518186028101860190965280865291949293858101939290830182828015611dd257602002820191906000526020600020905b815481526020019060010190808311611dbe575b5050505050815250509050919050565b611dea612a99565b80600003611e445760405162461bcd60e51b815260206004820152602160248201527f4d6178206f6e2072616d7020616d6f756e742063616e6e6f74206265207a65726044820152606f60f81b6064820152608401610789565b60088190556040518181527fcab6b49ca21dd111cf4a55d507bbe89dd12d69216e28247060d4b2163ca41b3990602001610752565b33600090815260046020526040902054611ea55760405162461bcd60e51b815260040161078990614061565b336000908152600460209081526040808320548084526003808452828520868652019092529091205460ff16611f145760405162461bcd60e51b8152602060048201526014602482015273155cd95c881b9bdd081bdb8819195b9e5b1a5cdd60621b6044820152606401610789565b60008181526003602081815260408084208685528084018352908420805460ff191690559284905252611f4a9060020183613531565b60408051828152602081018490527f8935205b1b382095d2d95efbb36f81a11a34c548d45af26adc1a02d2f2bb546f9101610883565b611f886137de565b6000828152600560209081526040918290208251610100810190935280546001600160a01b031683526001810180549192840191611fc59061412d565b80601f0160208091040260200160405190810160405280929190818152602001828054611ff19061412d565b801561203e5780601f106120135761010080835404028352916020019161203e565b820191906000526020600020905b81548152906001019060200180831161202157829003601f168201915b505050505081526020016002820180546120579061412d565b80601f01602080910402602001604051908101604052809291908181526020018280546120839061412d565b80156120d05780601f106120a5576101008083540402835291602001916120d0565b820191906000526020600020905b8154815290600101906020018083116120b357829003601f168201915b505050505081526020016003820154815260200160048201548152602001600582015481526020016006820154815260200160078201805480602002602001604051908101604052809291908181526020018280548015611dd25760200282019190600052602060002090815481526020019060010190808311611dbe575050505050815250509050919050565b3360009081526004602052604090205461218a5760405162461bcd60e51b815260040161078990614061565b61219384610959565b6121ce5760405162461bcd60e51b815260206004820152600c60248201526b24b73b30b634b21024a120a760a11b6044820152606401610789565b336000908152600460205260409020600101546005116122305760405162461bcd60e51b815260206004820152601e60248201527f4d6178696d756d206465706f73697420616d6f756e74207265616368656400006044820152606401610789565b6007548210156122a15760405162461bcd60e51b815260206004820152603660248201527f4465706f73697420616d6f756e74206d757374206265206772656174657220746044820152751a185b881b5a5b8819195c1bdcda5d08185b5bdd5b9d60521b6064820152608401610789565b600081116122ff5760405162461bcd60e51b815260206004820152602560248201527f5265636569766520616d6f756e74206d75737420626520677265617465722074604482015264068616e20360dc1b6064820152608401610789565b600081612314670de0b6b3a7640000856141b2565b61231e91906141c9565b600d80549192506000919082612333836140ee565b90915550336000818152600460209081526040808320600180820180548083018255908652848620018790558251610100810184529586528584018d81528684018d9052606087018c9052608087018c905260a0870186905260c087018a90528351868152808601855260e0880152878652600590945291909320845181546001600160a01b0319166001600160a01b039091161781559151949550919390918201906123e0908261422b565b50604082015160028201906123f5908261422b565b50606082015160038201556080820151600482015560a0820151600582015560c0820151600682015560e0820151805161243991600784019160209091019061382c565b50506040516323b872dd60e01b8152336004820152306024820152604481018790527f00000000000000000000000000000000000000000000000000000000000000006001600160a01b031691506323b872dd906064016020604051808303816000875af11580156124af573d6000803e3d6000fd5b505050506040513d601f19601f820116820180604052508101906124d39190614190565b508054604080518781526020810186905284917f36b046df2c296f2a5a78570d5e52a92773cbb616825b1af59a49a4d02df2b109910160405180910390a350505050505050565b600560205260009081526040902080546001820180546001600160a01b0390921692916125469061412d565b80601f01602080910402602001604051908101604052809291908181526020018280546125729061412d565b80156125bf5780601f10612594576101008083540402835291602001916125bf565b820191906000526020600020905b8154815290600101906020018083116125a257829003601f168201915b5050505050908060020180546125d49061412d565b80601f01602080910402602001604051908101604052809291908181526020018280546126009061412d565b801561264d5780601f106126225761010080835404028352916020019161264d565b820191906000526020600020905b81548152906001019060200180831161263057829003601f168201915b5050505050908060030154908060040154908060050154908060060154905087565b612677612a99565b6001600160a01b0381166126d95760405162461bcd60e51b8152602060048201526024808201527f46656520726563697069656e742063616e6e6f74206265207a65726f206164646044820152637265737360e01b6064820152608401610789565b600c80546001600160a01b0319166001600160a01b0383169081179091556040519081527f594ad6ee98bfc0c73e6d15fd4e762502f359e05d26907b7fa1ff82eb5e99f6e490602001610752565b6000818152600660209081526040808320815160a08101835281546001600160a01b0390811682526001830154169381019390935260028101549183019190915260038101546060830152600401546080820181905290910361279c5760405162461bcd60e51b815260040161078990614161565b336000908152600460205260408082205483516001600160a01b031683529120541461280a5760405162461bcd60e51b815260206004820152601c60248201527f53656e646572206d75737420626520746865206f6e2d72616d706572000000006044820152606401610789565b60408082015160009081526005602052206128258184613138565b816060015181600401600082825461283d9190614107565b9091555050606082015160058201805460009061285b90849061411a565b9091555050505050565b606060008267ffffffffffffffff8111156128825761288261399b565b6040519080825280602002602001820160405280156128bb57816020015b6128a8613877565b8152602001906001900390816128a05790505b50905060005b838110156129c05760008585838181106128dd576128dd614098565b60209081029290920135600081815260068452604090819020815160a08101835281546001600160a01b0390811682526001830154169581019590955260028101548583015260038101546060808701919091526004909101546080860152815190810190915290935090508088888681811061295c5761295c614098565b6020908102929092013583525081810184905283516001600160a01b0316600090815260049091526040908190205491015284518590859081106129a2576129a2614098565b60200260200101819052505050806129b9906140ee565b90506128c1565b5090505b92915050565b6129d2612a99565b600180546001600160a01b0319166001600160a01b0383169081179091556040519081527f73d3ac111d5926fbfd68ade03832f0b1a4daef0cd0effc1fa0829264bcc57c4190602001610752565b612a28612a99565b6001600160a01b038116612a8d5760405162461bcd60e51b815260206004820152602660248201527f4f776e61626c653a206e6577206f776e657220697320746865207a65726f206160448201526564647265737360d01b6064820152608401610789565b612a96816134e1565b50565b6000546001600160a01b03163314611a495760405162461bcd60e51b815260206004820181905260248201527f4f776e61626c653a2063616c6c6572206973206e6f7420746865206f776e65726044820152606401610789565b6040805160208101849052908101829052426060820152600090819060800160408051601f1981840301815291905280516020909101209050612b567f30644e72e131a029b85045b68181585d2833e84879b9709143e1f593f0000001826140c4565b949350505050565b60008181526005602090815260408083206007018054825181850281018501909352808352606094938493929190830182828015612bbb57602002820191906000526020600020905b815481526020019060010190808311612ba7575b50505050509050805167ffffffffffffffff811115612bdc57612bdc61399b565b604051908082528060200260200182016040528015612c05578160200160208202803683370190505b50925060005b8151811015612cff57600060066000848481518110612c2c57612c2c614098565b6020908102919091018101518252818101929092526040908101600020815160a08101835281546001600160a01b03908116825260018301541693810193909352600281015491830191909152600381015460608301526004015460808201819052600a549192504291612c9f91614107565b1015612cee57828281518110612cb757612cb7614098565b6020026020010151858381518110612cd157612cd1614098565b60209081029190910101526060810151612ceb9085614107565b93505b50612cf8816140ee565b9050612c0b565b5050915091565b60005b815181101561183f576000801b828281518110612d2857612d28614098565b602002602001015114612d5857612d5883838381518110612d4b57612d4b614098565b6020026020010151613138565b612d61816140ee565b9050612d09565b60015460405163dc28b2bf60e01b815260009182916001600160a01b039091169063dc28b2bf90612d9f9087908790600401614340565b6020604051808303816000875af1158015612dbe573d6000803e3d6000fd5b505050506040513d601f19601f82011682018060405250810190612b569190614381565b612dea61389f565b600254604051630c44b27760e01b815260009182918291829182918291829182916001600160a01b0390911690630c44b27790612e2d908e908e9060040161439a565b60c0604051808303816000875af1158015612e4c573d6000803e3d6000fd5b505050506040513d601f19601f82011682018060405250810190612e7091906143db565b6000818152600660209081526040808320815160a08101835281546001600160a01b03908116825260018301548116828601526002830154828501819052600384015460608401526004909301546080830152918552600590935292208151989e50969c50949a509298509096509450909216612eff5760405162461bcd60e51b815260040161078990614161565b8682608001511115612f5e5760405162461bcd60e51b815260206004820152602260248201527f496e74656e7420776173206e6f742063726561746564206265666f72652073656044820152611b9960f21b6064820152608401610789565b8581600201604051602001612f739190614425565b6040516020818303038152906040528051906020012014612fd65760405162461bcd60e51b815260206004820152601b60248201527f4f666672616d70657220696420646f6573206e6f74206d6174636800000000006044820152606401610789565b8481600101604051602001612feb9190614425565b604051602081830303815290604052805190602001201461304e5760405162461bcd60e51b815260206004820152601b60248201527f4f666672616d70657220696420646f6573206e6f74206d6174636800000000006044820152606401610789565b81516001600160a01b031660009081526004602052604090205484146130b65760405162461bcd60e51b815260206004820152601a60248201527f4f6e72616d70657220696420646f6573206e6f74206d617463680000000000006044820152606401610789565b8060060154670de0b6b3a764000083606001516130d391906141b2565b6130dd91906141c9565b8810156131255760405162461bcd60e51b81526020600482015260166024820152750a0c2f2dacadce840eec2e640dcdee840cadcdeeaced60531b6044820152606401610789565b9099509750955050505050509250925092565b6000818152600660208181526040808420815160a08101835281546001600160a01b039081168083526001840180549092168387015260028401805484870152600380860180546060870152600480880180546080890152948c528952878b20548b529088529589208990558989529690955282546001600160a01b0319908116909355805490921690915592849055839055919091556131dc6007840183613531565b604080820151905183907fe8a865b4bab023c399cbd1f2cdd0df2199beb6e5012a4bd2d7691cf7e4199d5a90600090a3505050565b6000816004015482600501546132279190614107565b90508060000361183f5781546001600160a01b03166000908152600460205260409020613257906001018461365a565b8154604080518581526001600160a01b0390921660208301527f8ac07cc6e38c6222dd0309c80353c1962354bacf222b825d7401cc80e93ff3cc910160405180910390a1600083815260056020526040812080546001600160a01b0319168155906132c560018301826138e0565b6132d36002830160006138e0565b60038201600090556004820160009055600582016000905560068201600090556007820160006116f2919061391a565b6000600b546000146133cf57670de0b6b3a7640000600b54836060015161332a91906141b2565b61333491906141c9565b600c5460405163a9059cbb60e01b81526001600160a01b039182166004820152602481018390529192507f0000000000000000000000000000000000000000000000000000000000000000169063a9059cbb906044016020604051808303816000875af11580156133a9573d6000803e3d6000fd5b505050506040513d601f19601f820116820180604052508101906133cd9190614190565b505b60008183606001516133e1919061411a565b602084015160405163a9059cbb60e01b81526001600160a01b039182166004820152602481018390529192507f0000000000000000000000000000000000000000000000000000000000000000169063a9059cbb906044016020604051808303816000875af1158015613458573d6000803e3d6000fd5b505050506040513d601f19601f8201168201806040525081019061347c9190614190565b50825160408085015160208087015183516001600160a01b03918216815291820186905292810186905291909216919086907ffa03438194e61c243c6bb5349f1e1dc674431b86f119b5e3b2b327bc43446bce9060600160405180910390a450505050565b600080546001600160a01b038381166001600160a01b0319831681178455604051919092169283917f8be0079c531659141344cd1fd0a4f28419497f9722a3daafe3b4186f6b6457e09190a35050565b60008061358d8480548060200260200160405190810160405280929190818152602001828054801561358257602002820191906000526020600020905b81548152602001906001019080831161356e575b5050505050846136ff565b91509150806135d65760405162461bcd60e51b8152602060048201526015602482015274313cba32b99999103737ba1034b71030b93930bc9760591b6044820152606401610789565b83546000906135e79060019061411a565b905080831461362c5784818154811061360257613602614098565b906000526020600020015485848154811061361f5761361f614098565b6000918252602090912001555b8480548061363c5761363c61449b565b60019003818190600052602060002001600090559055505b50505050565b6000806136b6848054806020026020016040519081016040528092919081815260200182805480156136ab57602002820191906000526020600020905b815481526020019060010190808311613697575b505050505084613762565b91509150806135d65760405162461bcd60e51b81526020600482015260156024820152743ab4b73a191a9b103737ba1034b71030b93930bc9760591b6044820152606401610789565b81516000908190815b8181101561374f578486828151811061372357613723614098565b60200260200101510361373d5792506001915061375b9050565b80613747816140ee565b915050613708565b50600019600092509250505b9250929050565b81516000908190815b8181101561374f578486828151811061378657613786614098565b6020026020010151036137a05792506001915061375b9050565b806137aa816140ee565b91505061376b565b60408051608081018252600080825260208201529081016137d16137de565b8152602001600081525090565b60405180610100016040528060006001600160a01b03168152602001606081526020016060815260200160008152602001600081526020016000815260200160008152602001606081525090565b828054828255906000526020600020908101928215613867579160200282015b8281111561386757825182559160200191906001019061384c565b50613873929150613934565b5090565b6040805160608101909152600081526020810161389261389f565b8152600060209091015290565b6040518060a0016040528060006001600160a01b0316815260200160006001600160a01b031681526020016000815260200160008152602001600081525090565b5080546138ec9061412d565b6000825580601f106138fc575050565b601f016020900490600052602060002090810190612a969190613934565b5080546000825590600052602060002090810190612a9691905b5b808211156138735760008155600101613935565b6001600160a01b0381168114612a9657600080fd5b60006020828403121561397057600080fd5b813561397b81613949565b9392505050565b60006020828403121561399457600080fd5b5035919050565b634e487b7160e01b600052604160045260246000fd5b604051601f8201601f1916810167ffffffffffffffff811182821017156139da576139da61399b565b604052919050565b600082601f8301126139f357600080fd5b813567ffffffffffffffff811115613a0d57613a0d61399b565b613a20601f8201601f19166020016139b1565b818152846020838601011115613a3557600080fd5b816020850160208301376000918101602001919091529392505050565b600060208284031215613a6457600080fd5b813567ffffffffffffffff811115613a7b57600080fd5b612b56848285016139e2565b600080600060608486031215613a9c57600080fd5b83359250602084013591506040840135613ab581613949565b809150509250925092565b60006101808284031215611d4257600080fd5b6000808284036103e0811215613ae857600080fd5b61026080821215613af857600080fd5b849350613b0786828701613ac0565b925050509250929050565b6020808252825182820181905260009190848201906040850190845b81811015613b4a57835183529284019291840191600101613b2e565b50909695505050505050565b60008060408385031215613b6957600080fd5b8235613b7481613949565b91506020830135613b8481613949565b809150509250929050565b6000815180845260005b81811015613bb557602081850181015186830182015201613b99565b506000602082860101526020601f19601f83011685010191505092915050565b600081518084526020808501945080840160005b83811015613c0557815187529582019590820190600101613be9565b509495945050505050565b600061010060018060a01b0383511684526020830151816020860152613c3882860182613b8f565b91505060408301518482036040860152613c528282613b8f565b915050606083015160608501526080830151608085015260a083015160a085015260c083015160c085015260e083015184820360e0860152613c948282613bd5565b95945050505050565b60006020808301818452808551808352604092508286019150828160051b87010184880160005b83811015613d1b57603f1989840301855281516080815185528882015189860152878201518189870152613cfa82870182613c10565b60609384015196909301959095525094870194925090860190600101613cc4565b509098975050505050505050565b600080828403610600811215613d3e57600080fd5b61048080821215613af857600080fd5b60006020808385031215613d6157600080fd5b823567ffffffffffffffff80821115613d7957600080fd5b818501915085601f830112613d8d57600080fd5b813581811115613d9f57613d9f61399b565b8060051b9150613db08483016139b1565b8181529183018401918481019088841115613dca57600080fd5b938501935b83851015613de857843582529385019390850190613dcf565b98975050505050505050565b60208082528251828201528281015160408084015280516060840181905260009291820190839060808601905b80831015613e415783518252928401926001929092019190840190613e21565b509695505050505050565b60208152600061397b6020830184613c10565b60008060008060808587031215613e7557600080fd5b843567ffffffffffffffff80821115613e8d57600080fd5b613e99888389016139e2565b95506020870135915080821115613eaf57600080fd5b50613ebc878288016139e2565b949794965050505060408301359260600135919050565b6001600160a01b038816815260e060208201819052600090613ef790830189613b8f565b8281036040840152613f098189613b8f565b9150508560608301528460808301528360a08301528260c083015298975050505050505050565b60008060208385031215613f4357600080fd5b823567ffffffffffffffff80821115613f5b57600080fd5b818501915085601f830112613f6f57600080fd5b813581811115613f7e57600080fd5b8660208260051b8501011115613f9357600080fd5b60209290920196919550909350505050565b602080825282518282018190526000919060409081850190868401855b82811015614028578151805185528681015180516001600160a01b039081168988015281890151168787015286810151606080880191909152810151608080880191909152015160a086015285015160c085015260e09093019290850190600101613fc2565b5091979650505050505050565b6000806040838503121561404857600080fd5b823561405381613949565b946020939093013593505050565b6020808252601e908201527f43616c6c6572206d757374206265207265676973746572656420757365720000604082015260600190565b634e487b7160e01b600052603260045260246000fd5b634e487b7160e01b600052601260045260246000fd5b6000826140d3576140d36140ae565b500690565b634e487b7160e01b600052601160045260246000fd5b600060018201614100576141006140d8565b5060010190565b808201808211156129c4576129c46140d8565b818103818111156129c4576129c46140d8565b600181811c9082168061414157607f821691505b602082108103611d4257634e487b7160e01b600052602260045260246000fd5b602080825260159082015274125b9d195b9d08191bd95cc81b9bdd08195e1a5cdd605a1b604082015260600190565b6000602082840312156141a257600080fd5b8151801515811461397b57600080fd5b80820281158282048414176129c4576129c46140d8565b6000826141d8576141d86140ae565b500490565b601f82111561183f57600081815260208120601f850160051c810160208610156142045750805b601f850160051c820191505b8181101561422357828155600101614210565b505050505050565b815167ffffffffffffffff8111156142455761424561399b565b61425981614253845461412d565b846141dd565b602080601f83116001811461428e57600084156142765750858301515b600019600386901b1c1916600185901b178555614223565b600085815260208120601f198616915b828110156142bd5788860151825594840194600190910190840161429e565b50858210156142db5787850151600019600388901b60f8161c191681555b5050505050600190811b01905550565b8060005b6002811015613654576040808386379384019391909101906001016142ef565b604081833761432460408301604083016142eb565b604060c0820160c0840137610100608081830182850137505050565b6103e08101604084833761435a60408301604086016142eb565b604060c0850160c0840137610100610160818601828501375061397b61026083018461430f565b60006020828403121561439357600080fd5b5051919050565b610600810160408483376143b460408301604086016142eb565b604060c0850160c0840137610100610380818601828501375061397b61048083018461430f565b60008060008060008060c087890312156143f457600080fd5b865195506020870151945060408701519350606087015192506080870151915060a087015190509295509295509295565b60008083546144338161412d565b6001828116801561444b57600181146144605761448f565b60ff198416875282151583028701945061448f565b8760005260208060002060005b858110156144865781548a82015290840190820161446d565b50505082870194505b50929695505050505050565b634e487b7160e01b600052603160045260246000fdfea264697066735822122065e22fa908aee992b0d94bfe127dfd0a35300e5aac610167919a4c44944ddd6164736f6c63430008120033",
  "devdoc": {
    "kind": "dev",
    "methods": {
      "addAccountToDenylist(bytes32)": {
        "params": {
          "_deniedUser": "Poseidon hash of the idHash being banned"
        }
      },
      "cancelIntent(bytes32)": {
        "params": {
          "_intentHash": "Hash of intent being cancelled"
        }
      },
      "initialize(address,address)": {
        "params": {
          "_registrationProcessor": "Registration processor address",
          "_sendProcessor": "Send processor address"
        }
      },
      "offRamp(string,string,uint256,uint256)": {
        "params": {
          "_depositAmount": "The amount of USDC to off-ramp",
          "_garantiIban": "IBAN number of the depositor with spacing as such: \"TR## #### #### #### #### #### ##\"",
          "_garantiName": "Name given for Garanti IBAN account, necessary for on-rampers to complete on-ramp",
          "_receiveAmount": "The amount of USD to receive"
        }
      },
      "onRamp((uint256[2],uint256[2][2],uint256[2],uint256[28]),(uint256[2],uint256[2][2],uint256[2],uint256[4]))": {
        "params": {
          "_bodyHashProof": "Parameters and signals for body hash proof",
          "_proof": "Parameters and signals for send email proof"
        }
      },
      "owner()": {
        "details": "Returns the address of the current owner."
      },
      "register((uint256[2],uint256[2][2],uint256[2],uint256[11]),(uint256[2],uint256[2][2],uint256[2],uint256[4]))": {
        "params": {
          "_bodyHashProof": "Parameters and signals for body hash proof",
          "_proof": "Parameters and signals for registration email proof"
        }
      },
      "releaseFundsToOnramper(bytes32)": {
        "params": {
          "_intentHash": "Hash of intent to resolve by releasing the funds"
        }
      },
      "removeAccountFromDenylist(bytes32)": {
        "params": {
          "_approvedUser": "Poseidon hash of the idHash being approved"
        }
      },
      "renounceOwnership()": {
        "details": "Leaves the contract without owner. It will not be possible to call `onlyOwner` functions. Can only be called by the current owner. NOTE: Renouncing ownership will leave the contract without an owner, thereby disabling any functionality that is only available to the owner."
      },
      "setIntentExpirationPeriod(uint256)": {
        "params": {
          "_intentExpirationPeriod": "New intent expiration period"
        }
      },
      "setMaxOnRampAmount(uint256)": {
        "params": {
          "_maxOnRampAmount": "The new max on ramp amount"
        }
      },
      "setMinDepositAmount(uint256)": {
        "params": {
          "_minDepositAmount": "The new minimum deposit amount"
        }
      },
      "setOnRampCooldownPeriod(uint256)": {
        "params": {
          "_onRampCooldownPeriod": "New on-ramp cooldown period"
        }
      },
      "setRegistrationProcessor(address)": {
        "params": {
          "_registrationProcessor": "New registration proccesor address"
        }
      },
      "setSendProcessor(address)": {
        "params": {
          "_sendProcessor": "New send proccesor address"
        }
      },
      "setSustainabilityFee(uint256)": {
        "params": {
          "_fee": "The new sustainability fee in precise units (10**18, ie 10% = 1e17)"
        }
      },
      "setSustainabilityFeeRecipient(address)": {
        "params": {
          "_feeRecipient": "The new fee recipient address"
        }
      },
      "signalIntent(uint256,uint256,address)": {
        "params": {
          "_amount": "The amount of USDC the user wants to on-ramp",
          "_depositId": "The ID of the deposit the on-ramper intends to use for ",
          "_to": "Address to forward funds to (can be same as onRamper)"
        }
      },
      "transferOwnership(address)": {
        "details": "Transfers ownership of the contract to a new account (`newOwner`). Can only be called by the current owner."
      },
      "withdrawDeposit(uint256[])": {
        "params": {
          "_depositIds": "Array of depositIds the depositor is attempting to withdraw"
        }
      }
    },
    "version": 1
  },
  "userdoc": {
    "kind": "user",
    "methods": {
      "addAccountToDenylist(bytes32)": {
        "notice": "Adds an idHash to a depositor's deny list. If an address associated with the banned idHash attempts to signal an intent on the user's deposit they will be denied."
      },
      "cancelIntent(bytes32)": {
        "notice": "Only callable by the originator of the intent. Cancels an outstanding intent thus allowing user to signal a new intent. Deposit state is updated to reflect the cancelled intent."
      },
      "initialize(address,address)": {
        "notice": "Initialize Ramp with the addresses of the Processors"
      },
      "offRamp(string,string,uint256,uint256)": {
        "notice": "Generates a deposit entry for off-rampers that can then be fulfilled by an on-ramper. This function will not add to previous deposits. Every deposit has it's own unique identifier. User must approve the contract to transfer the deposit amount of USDC."
      },
      "onRamp((uint256[2],uint256[2][2],uint256[2],uint256[28]),(uint256[2],uint256[2][2],uint256[2],uint256[4]))": {
        "notice": "Anyone can submit an on-ramp transaction, even if caller isn't on-ramper. Upon submission the proof is validated, intent is removed, and deposit state is updated. USDC is transferred to the on-ramper."
      },
      "register((uint256[2],uint256[2][2],uint256[2],uint256[11]),(uint256[2],uint256[2][2],uint256[2],uint256[4]))": {
        "notice": "Registers a new account by pulling the hash of the account id from the proof and assigning the account owner to the sender of the transaction. One Garanti account can be registered to multiple Ethereum addresses."
      },
      "releaseFundsToOnramper(bytes32)": {
        "notice": "Allows off-ramper to release funds to the on-ramper in case of a failed on-ramp or because of some other arrangement between the two parties. Upon submission we check to make sure the msg.sender is the depositor, the  intent is removed, and  deposit state is updated. USDC is transferred to the on-ramper."
      },
      "removeAccountFromDenylist(bytes32)": {
        "notice": "Removes a idHash from a depositor's deny list."
      },
      "setIntentExpirationPeriod(uint256)": {
        "notice": "GOVERNANCE ONLY: Updates the intent expiration period, after this period elapses an intent can be pruned to prevent locking up a depositor's funds."
      },
      "setMaxOnRampAmount(uint256)": {
        "notice": "GOVERNANCE ONLY: Updates the max amount allowed to be on-ramped in each transaction. To on-ramp more than this amount a user must make multiple transactions."
      },
      "setMinDepositAmount(uint256)": {
        "notice": "GOVERNANCE ONLY: Updates the minimum deposit amount a user can specify for off-ramping."
      },
      "setOnRampCooldownPeriod(uint256)": {
        "notice": "GOVERNANCE ONLY: Updates the on-ramp cooldown period, once an on-ramp transaction is completed the user must wait this amount of time before they can signalIntent to on-ramp again."
      },
      "setRegistrationProcessor(address)": {
        "notice": "GOVERNANCE ONLY: Updates the registration processor address used for validating and interpreting zk proofs."
      },
      "setSendProcessor(address)": {
        "notice": "GOVERNANCE ONLY: Updates the send processor address used for validating and interpreting zk proofs."
      },
      "setSustainabilityFee(uint256)": {
        "notice": "GOVERNANCE ONLY: Updates the sustainability fee. This fee is charged to on-rampers upon a successful on-ramp."
      },
      "setSustainabilityFeeRecipient(address)": {
        "notice": "GOVERNANCE ONLY: Updates the recepient of sustainability fees."
      },
      "signalIntent(uint256,uint256,address)": {
        "notice": "Signals intent to pay the depositor defined in the _depositId the _amount * deposit conversionRate off-chain in order to unlock _amount of funds on-chain. Each user can only have one outstanding intent at a time regardless of address (tracked using idHash). Caller must not be on the depositor's deny list. If there are prunable intents then they will be deleted from the deposit to be able to maintain state hygiene."
      },
      "withdrawDeposit(uint256[])": {
        "notice": "Caller must be the depositor for each depositId in the array, if not whole function fails. Depositor is returned all remaining deposits and any outstanding intents that are expired. If an intent is not expired then those funds will not be returned. Deposit will be deleted as long as there are no more outstanding intents."
      }
    },
    "version": 1
  },
  "storageLayout": {
    "storage": [
      {
        "astId": 7,
        "contract": "contracts/ramps/garanti/GarantiRamp.sol:GarantiRamp",
        "label": "_owner",
        "offset": 0,
        "slot": "0",
        "type": "t_address"
      },
      {
        "astId": 4181,
        "contract": "contracts/ramps/garanti/GarantiRamp.sol:GarantiRamp",
        "label": "registrationProcessor",
        "offset": 0,
        "slot": "1",
        "type": "t_contract(IGarantiRegistrationProcessor)6876"
      },
      {
        "astId": 4184,
        "contract": "contracts/ramps/garanti/GarantiRamp.sol:GarantiRamp",
        "label": "sendProcessor",
        "offset": 0,
        "slot": "2",
        "type": "t_contract(IGarantiSendProcessor)6921"
      },
      {
        "astId": 4186,
        "contract": "contracts/ramps/garanti/GarantiRamp.sol:GarantiRamp",
        "label": "isInitialized",
        "offset": 20,
        "slot": "2",
        "type": "t_bool"
      },
      {
        "astId": 4191,
        "contract": "contracts/ramps/garanti/GarantiRamp.sol:GarantiRamp",
        "label": "globalAccount",
        "offset": 0,
        "slot": "3",
        "type": "t_mapping(t_bytes32,t_struct(GlobalAccountInfo)4145_storage)"
      },
      {
        "astId": 4196,
        "contract": "contracts/ramps/garanti/GarantiRamp.sol:GarantiRamp",
        "label": "accounts",
        "offset": 0,
        "slot": "4",
        "type": "t_mapping(t_address,t_struct(AccountInfo)4082_storage)"
      },
      {
        "astId": 4201,
        "contract": "contracts/ramps/garanti/GarantiRamp.sol:GarantiRamp",
        "label": "deposits",
        "offset": 0,
        "slot": "5",
        "type": "t_mapping(t_uint256,t_struct(Deposit)4100_storage)"
      },
      {
        "astId": 4206,
        "contract": "contracts/ramps/garanti/GarantiRamp.sol:GarantiRamp",
        "label": "intents",
        "offset": 0,
        "slot": "6",
        "type": "t_mapping(t_bytes32,t_struct(Intent)4121_storage)"
      },
      {
        "astId": 4208,
        "contract": "contracts/ramps/garanti/GarantiRamp.sol:GarantiRamp",
        "label": "minDepositAmount",
        "offset": 0,
        "slot": "7",
        "type": "t_uint256"
      },
      {
        "astId": 4210,
        "contract": "contracts/ramps/garanti/GarantiRamp.sol:GarantiRamp",
        "label": "maxOnRampAmount",
        "offset": 0,
        "slot": "8",
        "type": "t_uint256"
      },
      {
        "astId": 4212,
        "contract": "contracts/ramps/garanti/GarantiRamp.sol:GarantiRamp",
        "label": "onRampCooldownPeriod",
        "offset": 0,
        "slot": "9",
        "type": "t_uint256"
      },
      {
        "astId": 4214,
        "contract": "contracts/ramps/garanti/GarantiRamp.sol:GarantiRamp",
        "label": "intentExpirationPeriod",
        "offset": 0,
        "slot": "10",
        "type": "t_uint256"
      },
      {
        "astId": 4216,
        "contract": "contracts/ramps/garanti/GarantiRamp.sol:GarantiRamp",
        "label": "sustainabilityFee",
        "offset": 0,
        "slot": "11",
        "type": "t_uint256"
      },
      {
        "astId": 4218,
        "contract": "contracts/ramps/garanti/GarantiRamp.sol:GarantiRamp",
        "label": "sustainabilityFeeRecipient",
        "offset": 0,
        "slot": "12",
        "type": "t_address"
      },
      {
        "astId": 4220,
        "contract": "contracts/ramps/garanti/GarantiRamp.sol:GarantiRamp",
        "label": "depositCounter",
        "offset": 0,
        "slot": "13",
        "type": "t_uint256"
      }
    ],
    "types": {
      "t_address": {
        "encoding": "inplace",
        "label": "address",
        "numberOfBytes": "20"
      },
      "t_array(t_bytes32)dyn_storage": {
        "base": "t_bytes32",
        "encoding": "dynamic_array",
        "label": "bytes32[]",
        "numberOfBytes": "32"
      },
      "t_array(t_uint256)dyn_storage": {
        "base": "t_uint256",
        "encoding": "dynamic_array",
        "label": "uint256[]",
        "numberOfBytes": "32"
      },
      "t_bool": {
        "encoding": "inplace",
        "label": "bool",
        "numberOfBytes": "1"
      },
      "t_bytes32": {
        "encoding": "inplace",
        "label": "bytes32",
        "numberOfBytes": "32"
      },
      "t_contract(IGarantiRegistrationProcessor)6876": {
        "encoding": "inplace",
        "label": "contract IGarantiRegistrationProcessor",
        "numberOfBytes": "20"
      },
      "t_contract(IGarantiSendProcessor)6921": {
        "encoding": "inplace",
        "label": "contract IGarantiSendProcessor",
        "numberOfBytes": "20"
      },
      "t_mapping(t_address,t_struct(AccountInfo)4082_storage)": {
        "encoding": "mapping",
        "key": "t_address",
        "label": "mapping(address => struct GarantiRamp.AccountInfo)",
        "numberOfBytes": "32",
        "value": "t_struct(AccountInfo)4082_storage"
      },
      "t_mapping(t_bytes32,t_bool)": {
        "encoding": "mapping",
        "key": "t_bytes32",
        "label": "mapping(bytes32 => bool)",
        "numberOfBytes": "32",
        "value": "t_bool"
      },
      "t_mapping(t_bytes32,t_struct(GlobalAccountInfo)4145_storage)": {
        "encoding": "mapping",
        "key": "t_bytes32",
        "label": "mapping(bytes32 => struct GarantiRamp.GlobalAccountInfo)",
        "numberOfBytes": "32",
        "value": "t_struct(GlobalAccountInfo)4145_storage"
      },
      "t_mapping(t_bytes32,t_struct(Intent)4121_storage)": {
        "encoding": "mapping",
        "key": "t_bytes32",
        "label": "mapping(bytes32 => struct GarantiRamp.Intent)",
        "numberOfBytes": "32",
        "value": "t_struct(Intent)4121_storage"
      },
      "t_mapping(t_uint256,t_struct(Deposit)4100_storage)": {
        "encoding": "mapping",
        "key": "t_uint256",
        "label": "mapping(uint256 => struct GarantiRamp.Deposit)",
        "numberOfBytes": "32",
        "value": "t_struct(Deposit)4100_storage"
      },
      "t_string_storage": {
        "encoding": "bytes",
        "label": "string",
        "numberOfBytes": "32"
      },
      "t_struct(AccountInfo)4082_storage": {
        "encoding": "inplace",
        "label": "struct GarantiRamp.AccountInfo",
        "members": [
          {
            "astId": 4078,
            "contract": "contracts/ramps/garanti/GarantiRamp.sol:GarantiRamp",
            "label": "idHash",
            "offset": 0,
            "slot": "0",
            "type": "t_bytes32"
          },
          {
            "astId": 4081,
            "contract": "contracts/ramps/garanti/GarantiRamp.sol:GarantiRamp",
            "label": "deposits",
            "offset": 0,
            "slot": "1",
            "type": "t_array(t_uint256)dyn_storage"
          }
        ],
        "numberOfBytes": "64"
      },
      "t_struct(DenyList)4137_storage": {
        "encoding": "inplace",
        "label": "struct GarantiRamp.DenyList",
        "members": [
          {
            "astId": 4132,
            "contract": "contracts/ramps/garanti/GarantiRamp.sol:GarantiRamp",
            "label": "deniedUsers",
            "offset": 0,
            "slot": "0",
            "type": "t_array(t_bytes32)dyn_storage"
          },
          {
            "astId": 4136,
            "contract": "contracts/ramps/garanti/GarantiRamp.sol:GarantiRamp",
            "label": "isDenied",
            "offset": 0,
            "slot": "1",
            "type": "t_mapping(t_bytes32,t_bool)"
          }
        ],
        "numberOfBytes": "64"
      },
      "t_struct(Deposit)4100_storage": {
        "encoding": "inplace",
        "label": "struct GarantiRamp.Deposit",
        "members": [
          {
            "astId": 4084,
            "contract": "contracts/ramps/garanti/GarantiRamp.sol:GarantiRamp",
            "label": "depositor",
            "offset": 0,
            "slot": "0",
            "type": "t_address"
          },
          {
            "astId": 4086,
            "contract": "contracts/ramps/garanti/GarantiRamp.sol:GarantiRamp",
            "label": "garantiIban",
            "offset": 0,
            "slot": "1",
            "type": "t_string_storage"
          },
          {
            "astId": 4088,
            "contract": "contracts/ramps/garanti/GarantiRamp.sol:GarantiRamp",
            "label": "garantiName",
            "offset": 0,
            "slot": "2",
            "type": "t_string_storage"
          },
          {
            "astId": 4090,
            "contract": "contracts/ramps/garanti/GarantiRamp.sol:GarantiRamp",
            "label": "depositAmount",
            "offset": 0,
            "slot": "3",
            "type": "t_uint256"
          },
          {
            "astId": 4092,
            "contract": "contracts/ramps/garanti/GarantiRamp.sol:GarantiRamp",
            "label": "remainingDeposits",
            "offset": 0,
            "slot": "4",
            "type": "t_uint256"
          },
          {
            "astId": 4094,
            "contract": "contracts/ramps/garanti/GarantiRamp.sol:GarantiRamp",
            "label": "outstandingIntentAmount",
            "offset": 0,
            "slot": "5",
            "type": "t_uint256"
          },
          {
            "astId": 4096,
            "contract": "contracts/ramps/garanti/GarantiRamp.sol:GarantiRamp",
            "label": "conversionRate",
            "offset": 0,
            "slot": "6",
            "type": "t_uint256"
          },
          {
            "astId": 4099,
            "contract": "contracts/ramps/garanti/GarantiRamp.sol:GarantiRamp",
            "label": "intentHashes",
            "offset": 0,
            "slot": "7",
            "type": "t_array(t_bytes32)dyn_storage"
          }
        ],
        "numberOfBytes": "256"
      },
      "t_struct(GlobalAccountInfo)4145_storage": {
        "encoding": "inplace",
        "label": "struct GarantiRamp.GlobalAccountInfo",
        "members": [
          {
            "astId": 4139,
            "contract": "contracts/ramps/garanti/GarantiRamp.sol:GarantiRamp",
            "label": "currentIntentHash",
            "offset": 0,
            "slot": "0",
            "type": "t_bytes32"
          },
          {
            "astId": 4141,
            "contract": "contracts/ramps/garanti/GarantiRamp.sol:GarantiRamp",
            "label": "lastOnrampTimestamp",
            "offset": 0,
            "slot": "1",
            "type": "t_uint256"
          },
          {
            "astId": 4144,
            "contract": "contracts/ramps/garanti/GarantiRamp.sol:GarantiRamp",
            "label": "denyList",
            "offset": 0,
            "slot": "2",
            "type": "t_struct(DenyList)4137_storage"
          }
        ],
        "numberOfBytes": "128"
      },
      "t_struct(Intent)4121_storage": {
        "encoding": "inplace",
        "label": "struct GarantiRamp.Intent",
        "members": [
          {
            "astId": 4112,
            "contract": "contracts/ramps/garanti/GarantiRamp.sol:GarantiRamp",
            "label": "onRamper",
            "offset": 0,
            "slot": "0",
            "type": "t_address"
          },
          {
            "astId": 4114,
            "contract": "contracts/ramps/garanti/GarantiRamp.sol:GarantiRamp",
            "label": "to",
            "offset": 0,
            "slot": "1",
            "type": "t_address"
          },
          {
            "astId": 4116,
            "contract": "contracts/ramps/garanti/GarantiRamp.sol:GarantiRamp",
            "label": "deposit",
            "offset": 0,
            "slot": "2",
            "type": "t_uint256"
          },
          {
            "astId": 4118,
            "contract": "contracts/ramps/garanti/GarantiRamp.sol:GarantiRamp",
            "label": "amount",
            "offset": 0,
            "slot": "3",
            "type": "t_uint256"
          },
          {
            "astId": 4120,
            "contract": "contracts/ramps/garanti/GarantiRamp.sol:GarantiRamp",
            "label": "intentTimestamp",
            "offset": 0,
            "slot": "4",
            "type": "t_uint256"
          }
        ],
        "numberOfBytes": "160"
      },
      "t_uint256": {
        "encoding": "inplace",
        "label": "uint256",
        "numberOfBytes": "32"
      }
    }
  }
}