{
  "address": "0xB084f36C5B7193af8Dd17025b36FBe2DD496a06f",
  "abi": [
    {
      "inputs": [
        {
          "internalType": "address",
          "name": "_owner",
          "type": "address"
        },
        {
          "internalType": "contract IERC20",
          "name": "_usdc",
          "type": "address"
        },
        {
          "internalType": "contract IPoseidon",
          "name": "_poseidon",
          "type": "address"
        },
        {
          "internalType": "uint256",
          "name": "_minDepositAmount",
          "type": "uint256"
        },
        {
          "internalType": "uint256",
          "name": "_maxOnRampAmount",
          "type": "uint256"
        },
        {
          "internalType": "uint256",
          "name": "_intentExpirationPeriod",
          "type": "uint256"
        },
        {
          "internalType": "uint256",
          "name": "_onRampCooldownPeriod",
          "type": "uint256"
        },
        {
          "internalType": "uint256",
          "name": "_sustainabilityFee",
          "type": "uint256"
        },
        {
          "internalType": "address",
          "name": "_sustainabilityFeeRecipient",
          "type": "address"
        }
      ],
      "stateMutability": "nonpayable",
      "type": "constructor"
    },
    {
      "anonymous": false,
      "inputs": [
        {
          "indexed": true,
          "internalType": "address",
          "name": "accountOwner",
          "type": "address"
        },
        {
          "indexed": true,
          "internalType": "bytes32",
          "name": "venmoIdHash",
          "type": "bytes32"
        }
      ],
      "name": "AccountRegistered",
      "type": "event"
    },
    {
      "anonymous": false,
      "inputs": [
        {
          "indexed": false,
          "internalType": "uint256",
          "name": "depositId",
          "type": "uint256"
        },
        {
          "indexed": false,
          "internalType": "address",
          "name": "depositor",
          "type": "address"
        }
      ],
      "name": "DepositClosed",
      "type": "event"
    },
    {
      "anonymous": false,
      "inputs": [
        {
          "indexed": true,
          "internalType": "uint256",
          "name": "depositId",
          "type": "uint256"
        },
        {
          "indexed": true,
          "internalType": "bytes32",
          "name": "venmoId",
          "type": "bytes32"
        },
        {
          "indexed": false,
          "internalType": "uint256",
          "name": "amount",
          "type": "uint256"
        },
        {
          "indexed": false,
          "internalType": "uint256",
          "name": "conversionRate",
          "type": "uint256"
        }
      ],
      "name": "DepositReceived",
      "type": "event"
    },
    {
      "anonymous": false,
      "inputs": [
        {
          "indexed": true,
          "internalType": "uint256",
          "name": "depositId",
          "type": "uint256"
        },
        {
          "indexed": true,
          "internalType": "address",
          "name": "depositor",
          "type": "address"
        },
        {
          "indexed": false,
          "internalType": "uint256",
          "name": "amount",
          "type": "uint256"
        }
      ],
      "name": "DepositWithdrawn",
      "type": "event"
    },
    {
      "anonymous": false,
      "inputs": [
        {
          "indexed": false,
          "internalType": "uint256",
          "name": "intentExpirationPeriod",
          "type": "uint256"
        }
      ],
      "name": "IntentExpirationPeriodSet",
      "type": "event"
    },
    {
      "anonymous": false,
      "inputs": [
        {
          "indexed": true,
          "internalType": "bytes32",
          "name": "intentHash",
          "type": "bytes32"
        },
        {
          "indexed": true,
          "internalType": "uint256",
          "name": "depositId",
          "type": "uint256"
        },
        {
          "indexed": true,
          "internalType": "address",
          "name": "onRamper",
          "type": "address"
        },
        {
          "indexed": false,
          "internalType": "address",
          "name": "to",
          "type": "address"
        },
        {
          "indexed": false,
          "internalType": "uint256",
          "name": "amount",
          "type": "uint256"
        },
        {
          "indexed": false,
          "internalType": "uint256",
          "name": "feeAmount",
          "type": "uint256"
        }
      ],
      "name": "IntentFulfilled",
      "type": "event"
    },
    {
      "anonymous": false,
      "inputs": [
        {
          "indexed": true,
          "internalType": "bytes32",
          "name": "intentHash",
          "type": "bytes32"
        },
        {
          "indexed": true,
          "internalType": "uint256",
          "name": "depositId",
          "type": "uint256"
        }
      ],
      "name": "IntentPruned",
      "type": "event"
    },
    {
      "anonymous": false,
      "inputs": [
        {
          "indexed": true,
          "internalType": "bytes32",
          "name": "intentHash",
          "type": "bytes32"
        },
        {
          "indexed": true,
          "internalType": "uint256",
          "name": "depositId",
          "type": "uint256"
        },
        {
          "indexed": true,
          "internalType": "bytes32",
          "name": "venmoId",
          "type": "bytes32"
        },
        {
          "indexed": false,
          "internalType": "address",
          "name": "to",
          "type": "address"
        },
        {
          "indexed": false,
          "internalType": "uint256",
          "name": "amount",
          "type": "uint256"
        },
        {
          "indexed": false,
          "internalType": "uint256",
          "name": "timestamp",
          "type": "uint256"
        }
      ],
      "name": "IntentSignaled",
      "type": "event"
    },
    {
      "anonymous": false,
      "inputs": [
        {
          "indexed": false,
          "internalType": "uint256",
          "name": "maxOnRampAmount",
          "type": "uint256"
        }
      ],
      "name": "MaxOnRampAmountSet",
      "type": "event"
    },
    {
      "anonymous": false,
      "inputs": [
        {
          "indexed": false,
          "internalType": "uint256",
          "name": "minDepositAmount",
          "type": "uint256"
        }
      ],
      "name": "MinDepositAmountSet",
      "type": "event"
    },
    {
      "anonymous": false,
      "inputs": [
        {
          "indexed": false,
          "internalType": "address",
          "name": "receiveProcessor",
          "type": "address"
        }
      ],
      "name": "NewReceiveProcessorSet",
      "type": "event"
    },
    {
      "anonymous": false,
      "inputs": [
        {
          "indexed": false,
          "internalType": "address",
          "name": "registrationProcessor",
          "type": "address"
        }
      ],
      "name": "NewRegistrationProcessorSet",
      "type": "event"
    },
    {
      "anonymous": false,
      "inputs": [
        {
          "indexed": false,
          "internalType": "address",
          "name": "sendProcessor",
          "type": "address"
        }
      ],
      "name": "NewSendProcessorSet",
      "type": "event"
    },
    {
      "anonymous": false,
      "inputs": [
        {
          "indexed": false,
          "internalType": "uint256",
          "name": "onRampCooldownPeriod",
          "type": "uint256"
        }
      ],
      "name": "OnRampCooldownPeriodSet",
      "type": "event"
    },
    {
      "anonymous": false,
      "inputs": [
        {
          "indexed": true,
          "internalType": "address",
          "name": "previousOwner",
          "type": "address"
        },
        {
          "indexed": true,
          "internalType": "address",
          "name": "newOwner",
          "type": "address"
        }
      ],
      "name": "OwnershipTransferred",
      "type": "event"
    },
    {
      "anonymous": false,
      "inputs": [
        {
          "indexed": false,
          "internalType": "address",
          "name": "feeRecipient",
          "type": "address"
        }
      ],
      "name": "SustainabilityFeeRecipientUpdated",
      "type": "event"
    },
    {
      "anonymous": false,
      "inputs": [
        {
          "indexed": false,
          "internalType": "uint256",
          "name": "fee",
          "type": "uint256"
        }
      ],
      "name": "SustainabilityFeeUpdated",
      "type": "event"
    },
    {
      "anonymous": false,
      "inputs": [
        {
          "indexed": false,
          "internalType": "bytes32",
          "name": "listOwner",
          "type": "bytes32"
        },
        {
          "indexed": false,
          "internalType": "bytes32",
          "name": "deniedUser",
          "type": "bytes32"
        }
      ],
      "name": "UserAddedToDenylist",
      "type": "event"
    },
    {
      "anonymous": false,
      "inputs": [
        {
          "indexed": false,
          "internalType": "bytes32",
          "name": "listOwner",
          "type": "bytes32"
        },
        {
          "indexed": false,
          "internalType": "bytes32",
          "name": "approvedUser",
          "type": "bytes32"
        }
      ],
      "name": "UserRemovedFromDenylist",
      "type": "event"
    },
    {
      "inputs": [
        {
          "internalType": "bytes32",
          "name": "_deniedUser",
          "type": "bytes32"
        }
      ],
      "name": "addAccountToDenylist",
      "outputs": [],
      "stateMutability": "nonpayable",
      "type": "function"
    },
    {
      "inputs": [
        {
          "internalType": "bytes32",
          "name": "_intentHash",
          "type": "bytes32"
        }
      ],
      "name": "cancelIntent",
      "outputs": [],
      "stateMutability": "nonpayable",
      "type": "function"
    },
    {
      "inputs": [],
      "name": "depositCounter",
      "outputs": [
        {
          "internalType": "uint256",
          "name": "",
          "type": "uint256"
        }
      ],
      "stateMutability": "view",
      "type": "function"
    },
    {
      "inputs": [
        {
          "internalType": "uint256",
          "name": "",
          "type": "uint256"
        }
      ],
      "name": "deposits",
      "outputs": [
        {
          "internalType": "address",
          "name": "depositor",
          "type": "address"
        },
        {
          "internalType": "uint256",
          "name": "depositAmount",
          "type": "uint256"
        },
        {
          "internalType": "uint256",
          "name": "remainingDeposits",
          "type": "uint256"
        },
        {
          "internalType": "uint256",
          "name": "outstandingIntentAmount",
          "type": "uint256"
        },
        {
          "internalType": "uint256",
          "name": "conversionRate",
          "type": "uint256"
        }
      ],
      "stateMutability": "view",
      "type": "function"
    },
    {
      "inputs": [
        {
          "internalType": "address",
          "name": "_account",
          "type": "address"
        }
      ],
      "name": "getAccountDeposits",
      "outputs": [
        {
          "components": [
            {
              "internalType": "uint256",
              "name": "depositId",
              "type": "uint256"
            },
            {
              "components": [
                {
                  "internalType": "address",
                  "name": "depositor",
                  "type": "address"
                },
                {
                  "internalType": "uint256[3]",
                  "name": "packedVenmoId",
                  "type": "uint256[3]"
                },
                {
                  "internalType": "uint256",
                  "name": "depositAmount",
                  "type": "uint256"
                },
                {
                  "internalType": "uint256",
                  "name": "remainingDeposits",
                  "type": "uint256"
                },
                {
                  "internalType": "uint256",
                  "name": "outstandingIntentAmount",
                  "type": "uint256"
                },
                {
                  "internalType": "uint256",
                  "name": "conversionRate",
                  "type": "uint256"
                },
                {
                  "internalType": "bytes32[]",
                  "name": "intentHashes",
                  "type": "bytes32[]"
                }
              ],
              "internalType": "struct Ramp.Deposit",
              "name": "deposit",
              "type": "tuple"
            },
            {
              "internalType": "uint256",
              "name": "availableLiquidity",
              "type": "uint256"
            }
          ],
          "internalType": "struct Ramp.DepositWithAvailableLiquidity[]",
          "name": "accountDeposits",
          "type": "tuple[]"
        }
      ],
      "stateMutability": "view",
      "type": "function"
    },
    {
      "inputs": [
        {
          "internalType": "address",
          "name": "_account",
          "type": "address"
        }
      ],
      "name": "getAccountInfo",
      "outputs": [
        {
          "components": [
            {
              "internalType": "bytes32",
              "name": "venmoIdHash",
              "type": "bytes32"
            },
            {
              "internalType": "uint256[]",
              "name": "deposits",
              "type": "uint256[]"
            }
          ],
          "internalType": "struct Ramp.AccountInfo",
          "name": "",
          "type": "tuple"
        }
      ],
      "stateMutability": "view",
      "type": "function"
    },
    {
      "inputs": [
        {
          "internalType": "address",
          "name": "_account",
          "type": "address"
        }
      ],
      "name": "getDeniedUsers",
      "outputs": [
        {
          "internalType": "bytes32[]",
          "name": "",
          "type": "bytes32[]"
        }
      ],
      "stateMutability": "view",
      "type": "function"
    },
    {
      "inputs": [
        {
          "internalType": "uint256",
          "name": "_depositId",
          "type": "uint256"
        }
      ],
      "name": "getDeposit",
      "outputs": [
        {
          "components": [
            {
              "internalType": "address",
              "name": "depositor",
              "type": "address"
            },
            {
              "internalType": "uint256[3]",
              "name": "packedVenmoId",
              "type": "uint256[3]"
            },
            {
              "internalType": "uint256",
              "name": "depositAmount",
              "type": "uint256"
            },
            {
              "internalType": "uint256",
              "name": "remainingDeposits",
              "type": "uint256"
            },
            {
              "internalType": "uint256",
              "name": "outstandingIntentAmount",
              "type": "uint256"
            },
            {
              "internalType": "uint256",
              "name": "conversionRate",
              "type": "uint256"
            },
            {
              "internalType": "bytes32[]",
              "name": "intentHashes",
              "type": "bytes32[]"
            }
          ],
          "internalType": "struct Ramp.Deposit",
          "name": "",
          "type": "tuple"
        }
      ],
      "stateMutability": "view",
      "type": "function"
    },
    {
      "inputs": [
        {
          "internalType": "uint256[]",
          "name": "_depositIds",
          "type": "uint256[]"
        }
      ],
      "name": "getDepositFromIds",
      "outputs": [
        {
          "components": [
            {
              "internalType": "uint256",
              "name": "depositId",
              "type": "uint256"
            },
            {
              "components": [
                {
                  "internalType": "address",
                  "name": "depositor",
                  "type": "address"
                },
                {
                  "internalType": "uint256[3]",
                  "name": "packedVenmoId",
                  "type": "uint256[3]"
                },
                {
                  "internalType": "uint256",
                  "name": "depositAmount",
                  "type": "uint256"
                },
                {
                  "internalType": "uint256",
                  "name": "remainingDeposits",
                  "type": "uint256"
                },
                {
                  "internalType": "uint256",
                  "name": "outstandingIntentAmount",
                  "type": "uint256"
                },
                {
                  "internalType": "uint256",
                  "name": "conversionRate",
                  "type": "uint256"
                },
                {
                  "internalType": "bytes32[]",
                  "name": "intentHashes",
                  "type": "bytes32[]"
                }
              ],
              "internalType": "struct Ramp.Deposit",
              "name": "deposit",
              "type": "tuple"
            },
            {
              "internalType": "uint256",
              "name": "availableLiquidity",
              "type": "uint256"
            }
          ],
          "internalType": "struct Ramp.DepositWithAvailableLiquidity[]",
          "name": "depositArray",
          "type": "tuple[]"
        }
      ],
      "stateMutability": "view",
      "type": "function"
    },
    {
      "inputs": [
        {
          "internalType": "bytes32[]",
          "name": "_intentHashes",
          "type": "bytes32[]"
        }
      ],
      "name": "getIntentsWithOnRamperId",
      "outputs": [
        {
          "components": [
            {
              "components": [
                {
                  "internalType": "address",
                  "name": "onRamper",
                  "type": "address"
                },
                {
                  "internalType": "address",
                  "name": "to",
                  "type": "address"
                },
                {
                  "internalType": "uint256",
                  "name": "deposit",
                  "type": "uint256"
                },
                {
                  "internalType": "uint256",
                  "name": "amount",
                  "type": "uint256"
                },
                {
                  "internalType": "uint256",
                  "name": "intentTimestamp",
                  "type": "uint256"
                }
              ],
              "internalType": "struct Ramp.Intent",
              "name": "intent",
              "type": "tuple"
            },
            {
              "internalType": "bytes32",
              "name": "onRamperIdHash",
              "type": "bytes32"
            }
          ],
          "internalType": "struct Ramp.IntentWithOnRamperId[]",
          "name": "",
          "type": "tuple[]"
        }
      ],
      "stateMutability": "view",
      "type": "function"
    },
    {
      "inputs": [
        {
          "internalType": "address",
          "name": "_account",
          "type": "address"
        }
      ],
      "name": "getLastOnRampTimestamp",
      "outputs": [
        {
          "internalType": "uint256",
          "name": "",
          "type": "uint256"
        }
      ],
      "stateMutability": "view",
      "type": "function"
    },
    {
      "inputs": [
        {
          "internalType": "address",
          "name": "_account",
          "type": "address"
        }
      ],
      "name": "getVenmoIdCurrentIntentHash",
      "outputs": [
        {
          "internalType": "bytes32",
          "name": "",
          "type": "bytes32"
        }
      ],
      "stateMutability": "view",
      "type": "function"
    },
    {
      "inputs": [
        {
          "internalType": "contract IRegistrationProcessor",
          "name": "_registrationProcessor",
          "type": "address"
        },
        {
          "internalType": "contract ISendProcessor",
          "name": "_sendProcessor",
          "type": "address"
        }
      ],
      "name": "initialize",
      "outputs": [],
      "stateMutability": "nonpayable",
      "type": "function"
    },
    {
      "inputs": [],
      "name": "intentExpirationPeriod",
      "outputs": [
        {
          "internalType": "uint256",
          "name": "",
          "type": "uint256"
        }
      ],
      "stateMutability": "view",
      "type": "function"
    },
    {
      "inputs": [
        {
          "internalType": "bytes32",
          "name": "",
          "type": "bytes32"
        }
      ],
      "name": "intents",
      "outputs": [
        {
          "internalType": "address",
          "name": "onRamper",
          "type": "address"
        },
        {
          "internalType": "address",
          "name": "to",
          "type": "address"
        },
        {
          "internalType": "uint256",
          "name": "deposit",
          "type": "uint256"
        },
        {
          "internalType": "uint256",
          "name": "amount",
          "type": "uint256"
        },
        {
          "internalType": "uint256",
          "name": "intentTimestamp",
          "type": "uint256"
        }
      ],
      "stateMutability": "view",
      "type": "function"
    },
    {
      "inputs": [
        {
          "internalType": "address",
          "name": "_account",
          "type": "address"
        },
        {
          "internalType": "bytes32",
          "name": "_deniedUser",
          "type": "bytes32"
        }
      ],
      "name": "isDeniedUser",
      "outputs": [
        {
          "internalType": "bool",
          "name": "",
          "type": "bool"
        }
      ],
      "stateMutability": "view",
      "type": "function"
    },
    {
      "inputs": [],
      "name": "maxOnRampAmount",
      "outputs": [
        {
          "internalType": "uint256",
          "name": "",
          "type": "uint256"
        }
      ],
      "stateMutability": "view",
      "type": "function"
    },
    {
      "inputs": [],
      "name": "minDepositAmount",
      "outputs": [
        {
          "internalType": "uint256",
          "name": "",
          "type": "uint256"
        }
      ],
      "stateMutability": "view",
      "type": "function"
    },
    {
      "inputs": [
        {
          "internalType": "uint256[3]",
          "name": "_packedVenmoId",
          "type": "uint256[3]"
        },
        {
          "internalType": "uint256",
          "name": "_depositAmount",
          "type": "uint256"
        },
        {
          "internalType": "uint256",
          "name": "_receiveAmount",
          "type": "uint256"
        }
      ],
      "name": "offRamp",
      "outputs": [],
      "stateMutability": "nonpayable",
      "type": "function"
    },
    {
      "inputs": [
        {
          "internalType": "uint256[2]",
          "name": "_a",
          "type": "uint256[2]"
        },
        {
          "internalType": "uint256[2][2]",
          "name": "_b",
          "type": "uint256[2][2]"
        },
        {
          "internalType": "uint256[2]",
          "name": "_c",
          "type": "uint256[2]"
        },
        {
          "internalType": "uint256[12]",
          "name": "_signals",
          "type": "uint256[12]"
        }
      ],
      "name": "onRamp",
      "outputs": [],
      "stateMutability": "nonpayable",
      "type": "function"
    },
    {
      "inputs": [],
      "name": "onRampCooldownPeriod",
      "outputs": [
        {
          "internalType": "uint256",
          "name": "",
          "type": "uint256"
        }
      ],
      "stateMutability": "view",
      "type": "function"
    },
    {
      "inputs": [],
      "name": "owner",
      "outputs": [
        {
          "internalType": "address",
          "name": "",
          "type": "address"
        }
      ],
      "stateMutability": "view",
      "type": "function"
    },
    {
      "inputs": [],
      "name": "poseidon",
      "outputs": [
        {
          "internalType": "contract IPoseidon",
          "name": "",
          "type": "address"
        }
      ],
      "stateMutability": "view",
      "type": "function"
    },
    {
      "inputs": [
        {
          "internalType": "uint256[2]",
          "name": "_a",
          "type": "uint256[2]"
        },
        {
          "internalType": "uint256[2][2]",
          "name": "_b",
          "type": "uint256[2][2]"
        },
        {
          "internalType": "uint256[2]",
          "name": "_c",
          "type": "uint256[2]"
        },
        {
          "internalType": "uint256[5]",
          "name": "_signals",
          "type": "uint256[5]"
        }
      ],
      "name": "register",
      "outputs": [],
      "stateMutability": "nonpayable",
      "type": "function"
    },
    {
      "inputs": [],
      "name": "registrationProcessor",
      "outputs": [
        {
          "internalType": "contract IRegistrationProcessor",
          "name": "",
          "type": "address"
        }
      ],
      "stateMutability": "view",
      "type": "function"
    },
    {
      "inputs": [
        {
          "internalType": "bytes32",
          "name": "_approvedUser",
          "type": "bytes32"
        }
      ],
      "name": "removeAccountFromDenylist",
      "outputs": [],
      "stateMutability": "nonpayable",
      "type": "function"
    },
    {
      "inputs": [],
      "name": "renounceOwnership",
      "outputs": [],
      "stateMutability": "nonpayable",
      "type": "function"
    },
    {
      "inputs": [],
      "name": "sendProcessor",
      "outputs": [
        {
          "internalType": "contract ISendProcessor",
          "name": "",
          "type": "address"
        }
      ],
      "stateMutability": "view",
      "type": "function"
    },
    {
      "inputs": [
        {
          "internalType": "uint256",
          "name": "_intentExpirationPeriod",
          "type": "uint256"
        }
      ],
      "name": "setIntentExpirationPeriod",
      "outputs": [],
      "stateMutability": "nonpayable",
      "type": "function"
    },
    {
      "inputs": [
        {
          "internalType": "uint256",
          "name": "_maxOnRampAmount",
          "type": "uint256"
        }
      ],
      "name": "setMaxOnRampAmount",
      "outputs": [],
      "stateMutability": "nonpayable",
      "type": "function"
    },
    {
      "inputs": [
        {
          "internalType": "uint256",
          "name": "_minDepositAmount",
          "type": "uint256"
        }
      ],
      "name": "setMinDepositAmount",
      "outputs": [],
      "stateMutability": "nonpayable",
      "type": "function"
    },
    {
      "inputs": [
        {
          "internalType": "uint256",
          "name": "_onRampCooldownPeriod",
          "type": "uint256"
        }
      ],
      "name": "setOnRampCooldownPeriod",
      "outputs": [],
      "stateMutability": "nonpayable",
      "type": "function"
    },
    {
      "inputs": [
        {
          "internalType": "contract IRegistrationProcessor",
          "name": "_registrationProcessor",
          "type": "address"
        }
      ],
      "name": "setRegistrationProcessor",
      "outputs": [],
      "stateMutability": "nonpayable",
      "type": "function"
    },
    {
      "inputs": [
        {
          "internalType": "contract ISendProcessor",
          "name": "_sendProcessor",
          "type": "address"
        }
      ],
      "name": "setSendProcessor",
      "outputs": [],
      "stateMutability": "nonpayable",
      "type": "function"
    },
    {
      "inputs": [
        {
          "internalType": "uint256",
          "name": "_fee",
          "type": "uint256"
        }
      ],
      "name": "setSustainabilityFee",
      "outputs": [],
      "stateMutability": "nonpayable",
      "type": "function"
    },
    {
      "inputs": [
        {
          "internalType": "address",
          "name": "_feeRecipient",
          "type": "address"
        }
      ],
      "name": "setSustainabilityFeeRecipient",
      "outputs": [],
      "stateMutability": "nonpayable",
      "type": "function"
    },
    {
      "inputs": [
        {
          "internalType": "uint256",
          "name": "_depositId",
          "type": "uint256"
        },
        {
          "internalType": "uint256",
          "name": "_amount",
          "type": "uint256"
        },
        {
          "internalType": "address",
          "name": "_to",
          "type": "address"
        }
      ],
      "name": "signalIntent",
      "outputs": [],
      "stateMutability": "nonpayable",
      "type": "function"
    },
    {
      "inputs": [],
      "name": "sustainabilityFee",
      "outputs": [
        {
          "internalType": "uint256",
          "name": "",
          "type": "uint256"
        }
      ],
      "stateMutability": "view",
      "type": "function"
    },
    {
      "inputs": [],
      "name": "sustainabilityFeeRecipient",
      "outputs": [
        {
          "internalType": "address",
          "name": "",
          "type": "address"
        }
      ],
      "stateMutability": "view",
      "type": "function"
    },
    {
      "inputs": [
        {
          "internalType": "address",
          "name": "newOwner",
          "type": "address"
        }
      ],
      "name": "transferOwnership",
      "outputs": [],
      "stateMutability": "nonpayable",
      "type": "function"
    },
    {
      "inputs": [],
      "name": "usdc",
      "outputs": [
        {
          "internalType": "contract IERC20",
          "name": "",
          "type": "address"
        }
      ],
      "stateMutability": "view",
      "type": "function"
    },
    {
      "inputs": [
        {
          "internalType": "uint256[]",
          "name": "_depositIds",
          "type": "uint256[]"
        }
      ],
      "name": "withdrawDeposit",
      "outputs": [],
      "stateMutability": "nonpayable",
      "type": "function"
    }
  ],
  "transactionHash": "0xa3760dd7f2c870f9a35fe5316261592a24cb5507982238a676e429554dbcf45a",
  "args": [
    "0xdd93E0f5fC32c86A568d87Cb4f08598f55E980F3",
    "0x833589fCD6eDb6E08f4c7C32D4f71b54bdA02913",
    "0xC87eFE0445fbA1FDb8a73553F293272B7bE91c64",
    "20000000",
    "250000000",
    "86400",
    "21600",
    "0",
    "0x0bC26FF515411396DD588Abd6Ef6846E04470227"
  ],
  "numDeployments": 1,
  "solcInputHash": "3235f00afe52b593578a06ba6b1f711c",
  "bytecode": "0x60c06040523480156200001157600080fd5b5060405162003fa138038062003fa18339810160408190526200003491620001e4565b6200003f336200009d565b6001600160a01b0388811660805287811660a05260078790556008869055600a8590556009849055600b839055600c80546001600160a01b0319169183169190911790556200008e89620000ed565b50505050505050505062000280565b600080546001600160a01b038381166001600160a01b0319831681178455604051919092169283917f8be0079c531659141344cd1fd0a4f28419497f9722a3daafe3b4186f6b6457e09190a35050565b620000f762000170565b6001600160a01b038116620001625760405162461bcd60e51b815260206004820152602660248201527f4f776e61626c653a206e6577206f776e657220697320746865207a65726f206160448201526564647265737360d01b60648201526084015b60405180910390fd5b6200016d816200009d565b50565b6000546001600160a01b03163314620001cc5760405162461bcd60e51b815260206004820181905260248201527f4f776e61626c653a2063616c6c6572206973206e6f7420746865206f776e6572604482015260640162000159565b565b6001600160a01b03811681146200016d57600080fd5b60008060008060008060008060006101208a8c0312156200020457600080fd5b89516200021181620001ce565b60208b01519099506200022481620001ce565b60408b01519098506200023781620001ce565b8097505060608a0151955060808a0151945060a08a0151935060c08a0151925060e08a015191506101008a01516200026f81620001ce565b809150509295985092959850929598565b60805160a051613cd8620002c9600039600081816105e701526110cb015260008181610354015281816114110152818161192701528181612e260152612ed50152613cd86000f3fe608060405234801561001057600080fd5b506004361061025e5760003560e01c80638da5cb5b11610146578063d55f960d116100c3578063ecb3dc8811610087578063ecb3dc8814610671578063ecd618f01461067a578063ed1692b81461069a578063eea1d197146106ad578063f2fde38b146106c0578063fbf15b1f146106d357600080fd5b8063d55f960d1461061c578063d9478d201461062f578063da26c18914610642578063e215ad5914610655578063e279d9641461066857600080fd5b8063a1a954b71161010a578063a1a954b71461054d578063b02c43d014610556578063b3fa4c01146105cf578063c62b919e146105e2578063ce523ca31461060957600080fd5b80638da5cb5b1461047a5780639021578a1461048b5780639087beff146105075780639b357b5a1461051a5780639f9fb9681461052d57600080fd5b80634595bba0116101df5780635dd76515116101a35780635dd7651514610410578063645006ca14610423578063711347621461042c578063715018a61461043f57806371a28f69146104475780637b510fe81461045a57600080fd5b80634595bba0146103a1578063485cc955146103c15780634877b7b6146103d4578063495223e7146103e75780635081d952146103f057600080fd5b80632a80cda3116102265780632a80cda314610316578063317dcc96146103295780633adba28a1461033c5780633e413bee1461034f578063429873491461038e57600080fd5b80630f1ef98c14610263578063123a11e4146102af578063133de6cb146102e5578063148172da146102fa578063238c84941461030d575b600080fd5b61029c6102713660046132b1565b6001600160a01b03166000908152600460209081526040808320548352600390915290206001015490565b6040519081526020015b60405180910390f35b61029c6102bd3660046132b1565b6001600160a01b03166000908152600460209081526040808320548352600390915290205490565b6102f86102f33660046132b1565b61072a565b005b6102f86103083660046132d5565b610787565b61029c600b5481565b6102f86103243660046132d5565b6108b9565b6102f86103373660046132d5565b610946565b6102f861034a3660046132ee565b610983565b6103767f000000000000000000000000000000000000000000000000000000000000000081565b6040516001600160a01b0390911681526020016102a6565b6102f861039c3660046132d5565b610ed8565b6103b46103af3660046132b1565b610f79565b6040516102a69190613327565b6102f86103cf36600461336b565b610ff2565b6102f86103e2366004613414565b611085565b61029c60095481565b6104036103fe3660046132b1565b6114cd565b6040516102a69190613563565b6102f861041e3660046132d5565b61170a565b61029c60075481565b6102f861043a3660046135e4565b6117a9565b6102f86119a1565b6104036104553660046135e4565b6119b5565b61046d6104683660046132b1565b611b8a565b6040516102a6919061368a565b6000546001600160a01b0316610376565b6104d46104993660046132d5565b600660205260009081526040902080546001820154600283015460038401546004909401546001600160a01b03938416949390921692909185565b604080516001600160a01b039687168152959094166020860152928401919091526060830152608082015260a0016102a6565b6102f86105153660046132d5565b611c24565b6102f86105283660046132d5565b611cbb565b61054061053b3660046132d5565b611dc2565b6040516102a691906136e2565b61029c600a5481565b61059d6105643660046132d5565b6005602081905260009182526040909120805460048201549282015460068301546007909301546001600160a01b039092169392909185565b604080516001600160a01b0390961686526020860194909452928401919091526060830152608082015260a0016102a6565b6102f86105dd3660046132b1565b611eae565b6103767f000000000000000000000000000000000000000000000000000000000000000081565b6102f8610617366004613794565b611f66565b6102f861062a3660046132d5565b612025565b600c54610376906001600160a01b031681565b6102f861065036600461384c565b612176565b600154610376906001600160a01b031681565b61029c60085481565b61029c600d5481565b61068d6106883660046138c2565b612203565b6040516102a69190613937565b6102f86106a83660046132b1565b61233b565b600254610376906001600160a01b031681565b6102f86106ce3660046132b1565b612391565b61071a6106e13660046139bb565b6001600160a01b038216600090815260046020908152604080832054835260038083528184208585520190915290205460ff1692915050565b60405190151581526020016102a6565b61073261240a565b600280546001600160a01b0319166001600160a01b0383169081179091556040519081527f6e7665a41605edc0d70f4b991d652755f380754eb092d81ef9ab93664778d59e906020015b60405180910390a150565b336000908152600460205260409020546107bc5760405162461bcd60e51b81526004016107b3906139e7565b60405180910390fd5b336000908152600460209081526040808320548084526003808452828520868652019092529091205460ff16156108355760405162461bcd60e51b815260206004820152601860248201527f5573657220616c7265616479206f6e2064656e796c697374000000000000000060448201526064016107b3565b60008181526003602081815260408084208685528084018352818520805460ff19166001908117909155938352600201805493840181558452922001839055517f976c693d56f27ba17d902bda80c4fa0416b773fbf268bcb0ee71689234d769ee906108ad9083908590918252602082015260400190565b60405180910390a15050565b6108c161240a565b806000036109115760405162461bcd60e51b815260206004820152601e60248201527f4d696e696d756d206465706f7369742063616e6e6f74206265207a65726f000060448201526064016107b3565b60078190556040518181527fbdde72a6d8d8b42770c9899945ccdce09d0c5c794d3326cdb2d2cca61b12a9fc9060200161077c565b61094e61240a565b60098190556040518181527f88397975d177ce5e18abf3a5fdb8de773e80673d85eeb54f48cfaf688b3d2c3e9060200161077c565b336000908152600460205260409020546109af5760405162461bcd60e51b81526004016107b3906139e7565b336000908152600460208181526040808420548785526005835281852080546001600160a01b031686529383528185205480865260038085528387208388520190935293205460ff1615610a455760405162461bcd60e51b815260206004820181905260248201527f4f6e72616d706572206f6e206465706f7369746f7227732064656e796c69737460448201526064016107b3565b6009546000848152600360205260409020600101544291610a6591613a34565b1115610abf5760405162461bcd60e51b8152602060048201526024808201527f4f6e2072616d7020636f6f6c20646f776e20706572696f64206e6f7420656c616044820152631c1cd95960e21b60648201526084016107b3565b60008381526003602052604090205415610b1b5760405162461bcd60e51b815260206004820152601860248201527f496e74656e74207374696c6c206f75747374616e64696e67000000000000000060448201526064016107b3565b828103610b6a5760405162461bcd60e51b815260206004820152601e60248201527f53656e6465722063616e6e6f7420626520746865206465706f7369746f72000060448201526064016107b3565b81546001600160a01b0316610bba5760405162461bcd60e51b815260206004820152601660248201527511195c1bdcda5d08191bd95cc81b9bdd08195e1a5cdd60521b60448201526064016107b3565b60008511610c195760405162461bcd60e51b815260206004820152602660248201527f5369676e616c656420616d6f756e74206d75737420626520677265617465722060448201526507468616e20360d41b60648201526084016107b3565b600854851115610c885760405162461bcd60e51b815260206004820152603460248201527f5369676e616c656420616d6f756e74206d757374206265206c657373207468616044820152731b881b585e081bdb8b5c985b5c08185b5bdd5b9d60621b60648201526084016107b3565b6001600160a01b038416610cde5760405162461bcd60e51b815260206004820152601b60248201527f43616e6e6f742073656e6420746f207a65726f2061646472657373000000000060448201526064016107b3565b6000610cea8488612464565b90508583600501541015610d9f57600080610d04896124cf565b9150915087818660050154610d199190613a34565b1015610d5e5760405162461bcd60e51b81526020600482015260146024820152734e6f7420656e6f756768206c697175696469747960601b60448201526064016107b3565b610d688583612677565b80856005016000828254610d7c9190613a34565b9250508190555080856006016000828254610d979190613a47565b909155505050505b6040805160a0810182523381526001600160a01b0387811660208084019182528385018c8152606085018c81524260808701908152600089815260068552888120975188549088166001600160a01b0319918216178955955160018901805491909816961695909517909555905160028601555160038086019190915592516004909401939093558781529152908120829055600584018054889290610e46908490613a47565b9250508190555085836006016000828254610e619190613a34565b9091555050600883018054600181018255600091825260209182902001829055604080516001600160a01b038816815291820188905242908201528490889083907f1a1292e170a0f000ccf956afba79bee0f9ec1d81f3f901c1d4d11e1f336aae109060600160405180910390a450505050505050565b610ee061240a565b80600003610f445760405162461bcd60e51b815260206004820152602b60248201527f4d617820696e74656e742065787069726174696f6e20706572696f642063616e60448201526a6e6f74206265207a65726f60a81b60648201526084016107b3565b600a8190556040518181527f55e3f6b95de9a0ec782f892e93fafe4e56be0696df204ddf8e0a40a9a713a8039060200161077c565b6001600160a01b03811660009081526004602090815260408083205483526003825291829020600201805483518184028101840190945280845260609392830182828015610fe657602002820191906000526020600020905b815481526020019060010190808311610fd2575b50505050509050919050565b610ffa61240a565b600254600160a01b900460ff161561104a5760405162461bcd60e51b8152602060048201526013602482015272105b1c9958591e481a5b9a5d1a585b1a5e9959606a1b60448201526064016107b3565b600180546001600160a01b039384166001600160a01b0319909116179055600280546001600160a81b0319169190921617600160a01b179055565b336000908152600460205260409020546110b15760405162461bcd60e51b81526004016107b3906139e7565b6040516304b98e1d60e31b81526000906001600160a01b037f000000000000000000000000000000000000000000000000000000000000000016906325cc70e890611100908790600401613a5a565b602060405180830381865afa15801561111d573d6000803e3d6000fd5b505050506040513d601f19601f820116820180604052508101906111419190613a68565b3360009081526004602052604090205490915081146111a25760405162461bcd60e51b815260206004820181905260248201527f53656e646572206d75737420626520746865206163636f756e74206f776e657260448201526064016107b3565b336000908152600460205260409020600101546005116112045760405162461bcd60e51b815260206004820152601e60248201527f4d6178696d756d206465706f73697420616d6f756e742072656163686564000060448201526064016107b3565b6007548310156112755760405162461bcd60e51b815260206004820152603660248201527f4465706f73697420616d6f756e74206d757374206265206772656174657220746044820152751a185b881b5a5b8819195c1bdcda5d08185b5bdd5b9d60521b60648201526084016107b3565b600082116112d35760405162461bcd60e51b815260206004820152602560248201527f5265636569766520616d6f756e74206d75737420626520677265617465722074604482015264068616e20360dc1b60648201526084016107b3565b6000826112e8670de0b6b3a764000086613a81565b6112f29190613aae565b600d8054919250600091908261130783613ac2565b9091555033600081815260046020908152604080832060019081018054808301825590855283852001869055815160e0810183529485528483018c81528583018c9052606086018c90526080860185905260a086018990528251858152808501845260c087015286855260059093529220835181546001600160a01b0319166001600160a01b03909116178155905193945091926113a99183019060036130ff565b5060408201516004820155606082015160058201556080820151600682015560a0820151600782015560c082015180516113ed91600884019160209091019061313d565b50506040516323b872dd60e01b8152336004820152306024820152604481018790527f00000000000000000000000000000000000000000000000000000000000000006001600160a01b031691506323b872dd906064016020604051808303816000875af1158015611463573d6000803e3d6000fd5b505050506040513d601f19601f820116820180604052508101906114879190613adb565b506040805186815260208101849052849183917f36b046df2c296f2a5a78570d5e52a92773cbb616825b1af59a49a4d02df2b109910160405180910390a3505050505050565b6001600160a01b038116600090815260046020908152604080832060010180548251818502810185019093528083526060949383018282801561152f57602002820191906000526020600020905b81548152602001906001019080831161151b575b50505050509050805167ffffffffffffffff811115611550576115506133a4565b60405190808252806020026020018201604052801561158957816020015b611576613177565b81526020019060019003908161156e5790505b50915060005b81518110156117035760008282815181106115ac576115ac613afd565b6020908102919091018101516000818152600583526040808220815160e08101835281546001600160a01b0316815282516060810190935293955091938301906001830160038282826020028201915b8154815260200190600101908083116115fc5750505050508152602001600482015481526020016005820154815260200160068201548152602001600782015481526020016008820180548060200260200160405190810160405280929190818152602001828054801561168f57602002820191906000526020600020905b81548152602001906001019080831161167b575b505050505081525050905060006116a5836124cf565b91505060405180606001604052808481526020018381526020018284606001516116cf9190613a34565b8152508685815181106116e4576116e4613afd565b6020026020010181905250505050806116fc90613ac2565b905061158f565b5050919050565b61171261240a565b66b1a2bc2ec500008111156117745760405162461bcd60e51b815260206004820152602260248201527f4665652063616e6e6f742062652067726561746572207468616e206d61782066604482015261656560f01b60648201526084016107b3565b600b8190556040518181527f44f48e1b871e6db1e909a7b253b054b7150a0b4ddf4d59b159c827d82e7256709060200161077c565b6000805b825181101561190a5760008382815181106117ca576117ca613afd565b6020908102919091018101516000818152600590925260409091208054919250906001600160a01b031633146118425760405162461bcd60e51b815260206004820152601c60248201527f53656e646572206d75737420626520746865206465706f7369746f720000000060448201526064016107b3565b60008061184e846124cf565b9150915061185c8383612677565b80836005015461186c9190613a34565b6118769087613a34565b95508083600601600082825461188c9190613a47565b9091555050825460058401546001600160a01b039091169085907fae1f357660ab777dcfd38c0ab6357834684ec26289ecfa07ec65dbf6c3c64312906118d3908590613a34565b60405190815260200160405180910390a3600060058401556118f584846126d9565b505050508061190390613ac2565b90506117ad565b5060405163a9059cbb60e01b8152336004820152602481018290527f00000000000000000000000000000000000000000000000000000000000000006001600160a01b03169063a9059cbb906044016020604051808303816000875af1158015611978573d6000803e3d6000fd5b505050506040513d601f19601f8201168201806040525081019061199c9190613adb565b505050565b6119a961240a565b6119b360006127cc565b565b6060815167ffffffffffffffff8111156119d1576119d16133a4565b604051908082528060200260200182016040528015611a0a57816020015b6119f7613177565b8152602001906001900390816119ef5790505b50905060005b8251811015611b84576000838281518110611a2d57611a2d613afd565b6020908102919091018101516000818152600583526040808220815160e08101835281546001600160a01b0316815282516060810190935293955091938301906001830160038282826020028201915b815481526020019060010190808311611a7d57505050505081526020016004820154815260200160058201548152602001600682015481526020016007820154815260200160088201805480602002602001604051908101604052809291908181526020018280548015611b1057602002820191906000526020600020905b815481526020019060010190808311611afc575b50505050508152505090506000611b26836124cf565b9150506040518060600160405280848152602001838152602001828460600151611b509190613a34565b815250858581518110611b6557611b65613afd565b602002602001018190525050505080611b7d90613ac2565b9050611a10565b50919050565b6040805180820190915260008152606060208201526001600160a01b038216600090815260046020908152604091829020825180840184528154815260018201805485518186028101860190965280865291949293858101939290830182828015611c1457602002820191906000526020600020905b815481526020019060010190808311611c00575b5050505050815250509050919050565b611c2c61240a565b80600003611c865760405162461bcd60e51b815260206004820152602160248201527f4d6178206f6e2072616d7020616d6f756e742063616e6e6f74206265207a65726044820152606f60f81b60648201526084016107b3565b60088190556040518181527fcab6b49ca21dd111cf4a55d507bbe89dd12d69216e28247060d4b2163ca41b399060200161077c565b33600090815260046020526040902054611ce75760405162461bcd60e51b81526004016107b3906139e7565b336000908152600460209081526040808320548084526003808452828520868652019092529091205460ff16611d565760405162461bcd60e51b8152602060048201526014602482015273155cd95c881b9bdd081bdb8819195b9e5b1a5cdd60621b60448201526064016107b3565b60008181526003602081815260408084208685528084018352908420805460ff191690559284905252611d8c906002018361281c565b60408051828152602081018490527f8935205b1b382095d2d95efbb36f81a11a34c548d45af26adc1a02d2f2bb546f91016108ad565b611dca61319e565b600082815260056020908152604091829020825160e08101845281546001600160a01b031681528351606081019485905290939192840191600184019060039082845b815481526020019060010190808311611e0d57505050505081526020016004820154815260200160058201548152602001600682015481526020016007820154815260200160088201805480602002602001604051908101604052809291908181526020018280548015611c145760200282019190600052602060002090815481526020019060010190808311611c00575050505050815250509050919050565b611eb661240a565b6001600160a01b038116611f185760405162461bcd60e51b8152602060048201526024808201527f46656520726563697069656e742063616e6e6f74206265207a65726f206164646044820152637265737360e01b60648201526084016107b3565b600c80546001600160a01b0319166001600160a01b0383169081179091556040519081527f594ad6ee98bfc0c73e6d15fd4e762502f359e05d26907b7fa1ff82eb5e99f6e49060200161077c565b3360009081526004602052604090205415611fd35760405162461bcd60e51b815260206004820152602760248201527f4163636f756e7420616c7265616479206173736f6369617465642077697468206044820152661d995b9b5bd25960ca1b60648201526084016107b3565b6000611fe185858585612945565b336000818152600460205260408082208490555192935083927f672144042732f7b1cdbf0772464ae545aedd7f41d38b8487dafd9085496a5d519190a35050505050565b6000818152600660209081526040808320815160a08101835281546001600160a01b039081168252600183015416938101939093526002810154918301919091526003810154606083015260040154608082018190529091036120c25760405162461bcd60e51b8152602060048201526015602482015274125b9d195b9d08191bd95cc81b9bdd08195e1a5cdd605a1b60448201526064016107b3565b80516001600160a01b0316331461211b5760405162461bcd60e51b815260206004820152601c60248201527f53656e646572206d75737420626520746865206f6e2d72616d7065720000000060448201526064016107b3565b604080820151600090815260056020522061213681846129e3565b816060015181600501600082825461214e9190613a34565b9091555050606082015160068201805460009061216c908490613a47565b9091555050505050565b600080600061218787878787612abc565b92509250925061219782826129e3565b82606001518260060160008282546121af9190613a47565b909155505082516001600160a01b03166000908152600460209081526040808320548352600390915290819020426001909101558301516121f090836126d9565b6121fa8184612dc9565b50505050505050565b606060008267ffffffffffffffff811115612220576122206133a4565b60405190808252806020026020018201604052801561225957816020015b6122466131ea565b81526020019060019003908161223e5790505b50905060005b838110156123315760006006600087878581811061227f5761227f613afd565b602090810292909201358352508181019290925260409081016000908120825160a08101845281546001600160a01b03908116825260018301548116828701526002830154828601526003830154606083015260049283015460808301528451808601865282815282519091168452918552929091205492810192909252845190925084908490811061231457612314613afd565b6020026020010181905250508061232a90613ac2565b905061225f565b5090505b92915050565b61234361240a565b600180546001600160a01b0319166001600160a01b0383169081179091556040519081527f73d3ac111d5926fbfd68ade03832f0b1a4daef0cd0effc1fa0829264bcc57c419060200161077c565b61239961240a565b6001600160a01b0381166123fe5760405162461bcd60e51b815260206004820152602660248201527f4f776e61626c653a206e6577206f776e657220697320746865207a65726f206160448201526564647265737360d01b60648201526084016107b3565b612407816127cc565b50565b6000546001600160a01b031633146119b35760405162461bcd60e51b815260206004820181905260248201527f4f776e61626c653a2063616c6c6572206973206e6f7420746865206f776e657260448201526064016107b3565b6040805160208101849052908101829052426060820152600090819060800160408051601f19818403018152919052805160209091012090506124c77f30644e72e131a029b85045b68181585d2833e84879b9709143e1f593f000000182613b13565b949350505050565b6000818152600560209081526040808320600801805482518185028101850190935280835260609493849392919083018282801561252c57602002820191906000526020600020905b815481526020019060010190808311612518575b50505050509050805167ffffffffffffffff81111561254d5761254d6133a4565b604051908082528060200260200182016040528015612576578160200160208202803683370190505b50925060005b81518110156126705760006006600084848151811061259d5761259d613afd565b6020908102919091018101518252818101929092526040908101600020815160a08101835281546001600160a01b03908116825260018301541693810193909352600281015491830191909152600381015460608301526004015460808201819052600a54919250429161261091613a34565b101561265f5782828151811061262857612628613afd565b602002602001015185838151811061264257612642613afd565b6020908102919091010152606081015161265c9085613a34565b93505b5061266981613ac2565b905061257c565b5050915091565b60005b815181101561199c576000801b82828151811061269957612699613afd565b6020026020010151146126c9576126c9838383815181106126bc576126bc613afd565b60200260200101516129e3565b6126d281613ac2565b905061267a565b6000816005015482600601546126ef9190613a34565b90508060000361199c5781546001600160a01b0316600090815260046020526040902061271f9060010184612fa7565b8154604080518581526001600160a01b0390921660208301527f8ac07cc6e38c6222dd0309c80353c1962354bacf222b825d7401cc80e93ff3cc910160405180910390a1600083815260056020526040812080546001600160a01b03191681556001810182905560028101829055600381018290559060048201600090556005820160009055600682016000905560078201600090556008820160006127c5919061320a565b5050505050565b600080546001600160a01b038381166001600160a01b0319831681178455604051919092169283917f8be0079c531659141344cd1fd0a4f28419497f9722a3daafe3b4186f6b6457e09190a35050565b6000806128788480548060200260200160405190810160405280929190818152602001828054801561286d57602002820191906000526020600020905b815481526020019060010190808311612859575b50505050508461304c565b91509150806128c15760405162461bcd60e51b8152602060048201526015602482015274313cba32b99999103737ba1034b71030b93930bc9760591b60448201526064016107b3565b83546000906128d290600190613a47565b9050808314612917578481815481106128ed576128ed613afd565b906000526020600020015485848154811061290a5761290a613afd565b6000918252602090912001555b8480548061292757612927613b27565b60019003818190600052602060002001600090559055505b50505050565b6001546040805160808101825286815260208101869052808201859052606081018490529051630be4767960e11b815260009283926001600160a01b03909116916317c8ecf29161299891600401613b8e565b602060405180830381865afa1580156129b5573d6000803e3d6000fd5b505050506040513d601f19601f820116820180604052508101906129d99190613a68565b9695505050505050565b6000818152600660208181526040808420815160a08101835281546001600160a01b039081168083526001840180549092168387015260028401805484870152600380860180546060870152600480880180546080890152948c528952878b20548b529088529589208990558989529690955282546001600160a01b031990811690935580549092169091559284905583905591909155612a87600884018361281c565b604080820151905183907fe8a865b4bab023c399cbd1f2cdd0df2199beb6e5012a4bd2d7691cf7e4199d5a90600090a3505050565b612ac4613228565b60025460408051608081018252878152602081018790528082018690526060810185905290516347f055c760e11b81526000928392839283928392839283926001600160a01b031691638fe0ab8e91612b209190600401613bfd565b60a0604051808303816000875af1158015612b3f573d6000803e3d6000fd5b505050506040513d601f19601f82011682018060405250810190612b639190613c62565b6000818152600660209081526040808320815160a08101835281546001600160a01b03908116825260018301548116828601526002830154828501819052600384015460608401526004909301546080830152918552600590935292208151979c50959a509398509196509450909216612c175760405162461bcd60e51b8152602060048201526015602482015274125b9d195b9d08191bd95cc81b9bdd08195e1a5cdd605a1b60448201526064016107b3565b8582608001511115612c765760405162461bcd60e51b815260206004820152602260248201527f496e74656e7420776173206e6f742063726561746564206265666f72652073656044820152611b9960f21b60648201526084016107b3565b80546001600160a01b03166000908152600460205260409020548514612cde5760405162461bcd60e51b815260206004820152601b60248201527f4f666672616d70657220696420646f6573206e6f74206d61746368000000000060448201526064016107b3565b81516001600160a01b03166000908152600460205260409020548414612d465760405162461bcd60e51b815260206004820152601a60248201527f4f6e72616d70657220696420646f6573206e6f74206d6174636800000000000060448201526064016107b3565b8060070154670de0b6b3a76400008360600151612d639190613a81565b612d6d9190613aae565b871015612db55760405162461bcd60e51b81526020600482015260166024820152750a0c2f2dacadce840eec2e640dcdee840cadcdeeaced60531b60448201526064016107b3565b909d909c50909a5098505050505050505050565b6000600b54600014612e9557670de0b6b3a7640000600b548360600151612df09190613a81565b612dfa9190613aae565b600c5460405163a9059cbb60e01b81526001600160a01b039182166004820152602481018390529192507f0000000000000000000000000000000000000000000000000000000000000000169063a9059cbb906044016020604051808303816000875af1158015612e6f573d6000803e3d6000fd5b505050506040513d601f19601f82011682018060405250810190612e939190613adb565b505b6000818360600151612ea79190613a47565b602084015160405163a9059cbb60e01b81526001600160a01b039182166004820152602481018390529192507f0000000000000000000000000000000000000000000000000000000000000000169063a9059cbb906044016020604051808303816000875af1158015612f1e573d6000803e3d6000fd5b505050506040513d601f19601f82011682018060405250810190612f429190613adb565b50825160408085015160208087015183516001600160a01b03918216815291820186905292810186905291909216919086907ffa03438194e61c243c6bb5349f1e1dc674431b86f119b5e3b2b327bc43446bce9060600160405180910390a450505050565b60008061300384805480602002602001604051908101604052809291908181526020018280548015612ff857602002820191906000526020600020905b815481526020019060010190808311612fe4575b5050505050846130af565b91509150806128c15760405162461bcd60e51b81526020600482015260156024820152743ab4b73a191a9b103737ba1034b71030b93930bc9760591b60448201526064016107b3565b81516000908190815b8181101561309c578486828151811061307057613070613afd565b60200260200101510361308a579250600191506130a89050565b8061309481613ac2565b915050613055565b50600019600092509250505b9250929050565b81516000908190815b8181101561309c57848682815181106130d3576130d3613afd565b6020026020010151036130ed579250600191506130a89050565b806130f781613ac2565b9150506130b8565b826003810192821561312d579160200282015b8281111561312d578251825591602001919060010190613112565b50613139929150613269565b5090565b82805482825590600052602060002090810192821561312d579160200282018281111561312d578251825591602001919060010190613112565b60405180606001604052806000815260200161319161319e565b8152602001600081525090565b6040518060e0016040528060006001600160a01b031681526020016131c161327e565b815260200160008152602001600081526020016000815260200160008152602001606081525090565b60405180604001604052806131fd613228565b8152600060209091015290565b50805460008255906000526020600020908101906124079190613269565b6040518060a0016040528060006001600160a01b0316815260200160006001600160a01b031681526020016000815260200160008152602001600081525090565b5b80821115613139576000815560010161326a565b60405180606001604052806003906020820280368337509192915050565b6001600160a01b038116811461240757600080fd5b6000602082840312156132c357600080fd5b81356132ce8161329c565b9392505050565b6000602082840312156132e757600080fd5b5035919050565b60008060006060848603121561330357600080fd5b8335925060208401359150604084013561331c8161329c565b809150509250925092565b6020808252825182820181905260009190848201906040850190845b8181101561335f57835183529284019291840191600101613343565b50909695505050505050565b6000806040838503121561337e57600080fd5b82356133898161329c565b915060208301356133998161329c565b809150509250929050565b634e487b7160e01b600052604160045260246000fd5b6040805190810167ffffffffffffffff811182821017156133dd576133dd6133a4565b60405290565b604051601f8201601f1916810167ffffffffffffffff8111828210171561340c5761340c6133a4565b604052919050565b600080600060a0848603121561342957600080fd5b84601f85011261343857600080fd5b6040516060810181811067ffffffffffffffff8211171561345b5761345b6133a4565b60405280606086018781111561347057600080fd5b865b8181101561348a578035835260209283019201613472565b5091979135965050608094909401359392505050565b8060005b600381101561293f5781518452602093840193909101906001016134a4565b600061012080840160018060a01b0384511685526020808501516134e9828801826134a0565b5060408501516080870152606085015160a0870152608085015160c087015260a085015160e087015260c0850151836101008801528293508051808452610140880194508282019350600091505b808210156135575783518552938201939282019260019190910190613537565b50929695505050505050565b60006020808301818452808551808352604092508286019150828160051b87010184880160005b838110156135d657603f19898403018552815160608151855288820151818a8701526135b8828701826134c3565b9289015195890195909552509487019492509086019060010161358a565b509098975050505050505050565b600060208083850312156135f757600080fd5b823567ffffffffffffffff8082111561360f57600080fd5b818501915085601f83011261362357600080fd5b813581811115613635576136356133a4565b8060051b91506136468483016133e3565b818152918301840191848101908884111561366057600080fd5b938501935b8385101561367e57843582529385019390850190613665565b98975050505050505050565b60208082528251828201528281015160408084015280516060840181905260009291820190839060808601905b808310156136d757835182529284019260019290920191908401906136b7565b509695505050505050565b6020815260006132ce60208301846134c3565b600082601f83011261370657600080fd5b61370e6133ba565b80604084018581111561372057600080fd5b845b8181101561373a578035845260209384019301613722565b509095945050505050565b600082601f83011261375657600080fd5b61375e6133ba565b80608084018581111561377057600080fd5b845b8181101561373a5761378487826136f5565b8452602090930192604001613772565b6000806000806101a08086880312156137ac57600080fd5b6137b687876136f5565b94506137c58760408801613745565b93506137d48760c088016136f5565b92508661011f8701126137e657600080fd5b60405160a0810181811067ffffffffffffffff82111715613809576138096133a4565b60405290860190808883111561381e57600080fd5b61010088015b8381101561383c578035825260209182019101613824565b5050809250505092959194509250565b60008060008061028080868803121561386457600080fd5b61386e87876136f5565b945061387d8760408801613745565b935061388c8760c088016136f5565b92508661011f87011261389e57600080fd5b604051610180810181811067ffffffffffffffff82111715613809576138096133a4565b600080602083850312156138d557600080fd5b823567ffffffffffffffff808211156138ed57600080fd5b818501915085601f83011261390157600080fd5b81358181111561391057600080fd5b8660208260051b850101111561392557600080fd5b60209290920196919550909350505050565b602080825282518282018190526000919060409081850190868401855b828110156139ae578151805180516001600160a01b0390811687528882015116888701528681015187870152606080820151908701526080908101519086015286015160a085015260c09093019290850190600101613954565b5091979650505050505050565b600080604083850312156139ce57600080fd5b82356139d98161329c565b946020939093013593505050565b6020808252601e908201527f43616c6c6572206d757374206265207265676973746572656420757365720000604082015260600190565b634e487b7160e01b600052601160045260246000fd5b8082018082111561233557612335613a1e565b8181038181111561233557612335613a1e565b6060810161233582846134a0565b600060208284031215613a7a57600080fd5b5051919050565b808202811582820484141761233557612335613a1e565b634e487b7160e01b600052601260045260246000fd5b600082613abd57613abd613a98565b500490565b600060018201613ad457613ad4613a1e565b5060010190565b600060208284031215613aed57600080fd5b815180151581146132ce57600080fd5b634e487b7160e01b600052603260045260246000fd5b600082613b2257613b22613a98565b500690565b634e487b7160e01b600052603160045260246000fd5b8060005b600281101561293f578151845260209384019390910190600101613b41565b8060005b600281101561293f57613b78848351613b3d565b6040939093019260209190910190600101613b64565b60006101a082019050613ba2828451613b3d565b602080840151613bb56040850182613b60565b506040840151613bc860c0850182613b3d565b506060840151610100840160005b6005811015613bf357825182529183019190830190600101613bd6565b5050505092915050565b600061028082019050613c11828451613b3d565b602080840151613c246040850182613b60565b506040840151613c3760c0850182613b3d565b506060840151610100840160005b600c811015613bf357825182529183019190830190600101613c45565b600080600080600060a08688031215613c7a57600080fd5b505083516020850151604086015160608701516080909701519298919750959450909250905056fea26469706673582212209f5c02fc7d99d9a29ddbf394d50a84e561027a6b405d2ef7b323f6d8a34006c964736f6c63430008120033",
  "devdoc": {
    "kind": "dev",
    "methods": {
      "addAccountToDenylist(bytes32)": {
        "params": {
          "_deniedUser": "Poseidon hash of the venmoId being banned"
        }
      },
      "cancelIntent(bytes32)": {
        "params": {
          "_intentHash": "Hash of intent being cancelled"
        }
      },
      "initialize(address,address)": {
        "params": {
          "_registrationProcessor": "Registration processor address",
          "_sendProcessor": "Send processor address"
        }
      },
      "offRamp(uint256[3],uint256,uint256)": {
        "params": {
          "_depositAmount": "The amount of USDC to off-ramp",
          "_packedVenmoId": "The packed venmo id of the account owner (we pack for easy use with poseidon)",
          "_receiveAmount": "The amount of USD to receive"
        }
      },
      "onRamp(uint256[2],uint256[2][2],uint256[2],uint256[12])": {
        "params": {
          "_a": "Parameter of zk proof",
          "_b": "Parameter of zk proof",
          "_c": "Parameter of zk proof",
          "_signals": "Encoded public signals of the zk proof, contains mailserverHash, fromEmail, timestamp, onRamperIdHash,                  nullifier, intentHash"
        }
      },
      "owner()": {
        "details": "Returns the address of the current owner."
      },
      "register(uint256[2],uint256[2][2],uint256[2],uint256[5])": {
        "params": {
          "_a": "Parameter of zk proof",
          "_b": "Parameter of zk proof",
          "_c": "Parameter of zk proof",
          "_signals": "Encoded public signals of the zk proof, contains mailserverHash, fromEmail, userIdHash"
        }
      },
      "removeAccountFromDenylist(bytes32)": {
        "params": {
          "_approvedUser": "Poseidon hash of the venmoId being approved"
        }
      },
      "renounceOwnership()": {
        "details": "Leaves the contract without owner. It will not be possible to call `onlyOwner` functions. Can only be called by the current owner. NOTE: Renouncing ownership will leave the contract without an owner, thereby disabling any functionality that is only available to the owner."
      },
      "setIntentExpirationPeriod(uint256)": {
        "params": {
          "_intentExpirationPeriod": "New intent expiration period"
        }
      },
      "setMaxOnRampAmount(uint256)": {
        "params": {
          "_maxOnRampAmount": "The new max on ramp amount"
        }
      },
      "setMinDepositAmount(uint256)": {
        "params": {
          "_minDepositAmount": "The new minimum deposit amount"
        }
      },
      "setOnRampCooldownPeriod(uint256)": {
        "params": {
          "_onRampCooldownPeriod": "New on-ramp cooldown period"
        }
      },
      "setRegistrationProcessor(address)": {
        "params": {
          "_registrationProcessor": "New registration proccesor address"
        }
      },
      "setSendProcessor(address)": {
        "params": {
          "_sendProcessor": "New send proccesor address"
        }
      },
      "setSustainabilityFee(uint256)": {
        "params": {
          "_fee": "The new sustainability fee in precise units (10**18, ie 10% = 1e17)"
        }
      },
      "setSustainabilityFeeRecipient(address)": {
        "params": {
          "_feeRecipient": "The new fee recipient address"
        }
      },
      "signalIntent(uint256,uint256,address)": {
        "params": {
          "_amount": "The amount of USDC the user wants to on-ramp",
          "_depositId": "The ID of the deposit the on-ramper intends to use for ",
          "_to": "Address to forward funds to (can be same as onRamper)"
        }
      },
      "transferOwnership(address)": {
        "details": "Transfers ownership of the contract to a new account (`newOwner`). Can only be called by the current owner."
      },
      "withdrawDeposit(uint256[])": {
        "params": {
          "_depositIds": "Array of depositIds the depositor is attempting to withdraw"
        }
      }
    },
    "version": 1
  },
  "userdoc": {
    "kind": "user",
    "methods": {
      "addAccountToDenylist(bytes32)": {
        "notice": "Adds a venmoId to a depositor's deny list. If an address associated with the banned venmoId attempts to signal an intent on the user's deposit they will be denied."
      },
      "cancelIntent(bytes32)": {
        "notice": "Only callable by the originator of the intent. Cancels an outstanding intent thus allowing user to signal a new intent. Deposit state is updated to reflect the cancelled intent."
      },
      "initialize(address,address)": {
        "notice": "Initialize Ramp with the addresses of the Processors"
      },
      "offRamp(uint256[3],uint256,uint256)": {
        "notice": "Generates a deposit entry for off-rampers that can then be fulfilled by an on-ramper. This function will not add to previous deposits. Every deposit has it's own unique identifier. User must approve the contract to transfer the deposit amount of USDC."
      },
      "onRamp(uint256[2],uint256[2][2],uint256[2],uint256[12])": {
        "notice": "Anyone can submit an on-ramp transaction, even if caller isn't on-ramper. Upon submission the proof is validated, intent is removed, and deposit state is updated. USDC is transferred to the on-ramper."
      },
      "register(uint256[2],uint256[2][2],uint256[2],uint256[5])": {
        "notice": "Registers a new account by pulling the hash of the account id from the proof and assigning the account owner to the sender of the transaction. One venmo account can be registered to multiple Ethereum addresses."
      },
      "removeAccountFromDenylist(bytes32)": {
        "notice": "Removes a venmoId from a depositor's deny list."
      },
      "setIntentExpirationPeriod(uint256)": {
        "notice": "GOVERNANCE ONLY: Updates the intent expiration period, after this period elapses an intent can be pruned to prevent locking up a depositor's funds."
      },
      "setMaxOnRampAmount(uint256)": {
        "notice": "GOVERNANCE ONLY: Updates the max amount allowed to be on-ramped in each transaction. To on-ramp more than this amount a user must make multiple transactions."
      },
      "setMinDepositAmount(uint256)": {
        "notice": "GOVERNANCE ONLY: Updates the minimum deposit amount a user can specify for off-ramping."
      },
      "setOnRampCooldownPeriod(uint256)": {
        "notice": "GOVERNANCE ONLY: Updates the on-ramp cooldown period, once an on-ramp transaction is completed the user must wait this amount of time before they can signalIntent to on-ramp again."
      },
      "setRegistrationProcessor(address)": {
        "notice": "GOVERNANCE ONLY: Updates the registration processor address used for validating and interpreting zk proofs."
      },
      "setSendProcessor(address)": {
        "notice": "GOVERNANCE ONLY: Updates the send processor address used for validating and interpreting zk proofs."
      },
      "setSustainabilityFee(uint256)": {
        "notice": "GOVERNANCE ONLY: Updates the sustainability fee. This fee is charged to on-rampers upon a successful on-ramp."
      },
      "setSustainabilityFeeRecipient(address)": {
        "notice": "GOVERNANCE ONLY: Updates the recepient of sustainability fees."
      },
      "signalIntent(uint256,uint256,address)": {
        "notice": "Signals intent to pay the depositor defined in the _depositId the _amount * deposit conversionRate off-chain in order to unlock _amount of funds on-chain. Each user can only have one outstanding intent at a time regardless of address (tracked using venmoId). Caller must not be on the depositor's deny list. If there are prunable intents then they will be deleted from the deposit to be able to maintain state hygiene."
      },
      "withdrawDeposit(uint256[])": {
        "notice": "Caller must be the depositor for each depositId in the array, if not whole function fails. Depositor is returned all remaining deposits and any outstanding intents that are expired. If an intent is not expired then those funds will not be returned. Deposit will be deleted as long as there are no more outstanding intents."
      }
    },
    "version": 1
  },
  "storageLayout": {
    "storage": [
      {
        "astId": 7,
        "contract": "contracts/Ramp.sol:Ramp",
        "label": "_owner",
        "offset": 0,
        "slot": "0",
        "type": "t_address"
      },
      {
        "astId": 2121,
        "contract": "contracts/Ramp.sol:Ramp",
        "label": "registrationProcessor",
        "offset": 0,
        "slot": "1",
        "type": "t_contract(IRegistrationProcessor)4837"
      },
      {
        "astId": 2124,
        "contract": "contracts/Ramp.sol:Ramp",
        "label": "sendProcessor",
        "offset": 0,
        "slot": "2",
        "type": "t_contract(ISendProcessor)4875"
      },
      {
        "astId": 2126,
        "contract": "contracts/Ramp.sol:Ramp",
        "label": "isInitialized",
        "offset": 20,
        "slot": "2",
        "type": "t_bool"
      },
      {
        "astId": 2131,
        "contract": "contracts/Ramp.sol:Ramp",
        "label": "globalAccount",
        "offset": 0,
        "slot": "3",
        "type": "t_mapping(t_bytes32,t_struct(GlobalAccountInfo)2082_storage)"
      },
      {
        "astId": 2136,
        "contract": "contracts/Ramp.sol:Ramp",
        "label": "accounts",
        "offset": 0,
        "slot": "4",
        "type": "t_mapping(t_address,t_struct(AccountInfo)2023_storage)"
      },
      {
        "astId": 2141,
        "contract": "contracts/Ramp.sol:Ramp",
        "label": "deposits",
        "offset": 0,
        "slot": "5",
        "type": "t_mapping(t_uint256,t_struct(Deposit)2041_storage)"
      },
      {
        "astId": 2146,
        "contract": "contracts/Ramp.sol:Ramp",
        "label": "intents",
        "offset": 0,
        "slot": "6",
        "type": "t_mapping(t_bytes32,t_struct(Intent)2060_storage)"
      },
      {
        "astId": 2148,
        "contract": "contracts/Ramp.sol:Ramp",
        "label": "minDepositAmount",
        "offset": 0,
        "slot": "7",
        "type": "t_uint256"
      },
      {
        "astId": 2150,
        "contract": "contracts/Ramp.sol:Ramp",
        "label": "maxOnRampAmount",
        "offset": 0,
        "slot": "8",
        "type": "t_uint256"
      },
      {
        "astId": 2152,
        "contract": "contracts/Ramp.sol:Ramp",
        "label": "onRampCooldownPeriod",
        "offset": 0,
        "slot": "9",
        "type": "t_uint256"
      },
      {
        "astId": 2154,
        "contract": "contracts/Ramp.sol:Ramp",
        "label": "intentExpirationPeriod",
        "offset": 0,
        "slot": "10",
        "type": "t_uint256"
      },
      {
        "astId": 2156,
        "contract": "contracts/Ramp.sol:Ramp",
        "label": "sustainabilityFee",
        "offset": 0,
        "slot": "11",
        "type": "t_uint256"
      },
      {
        "astId": 2158,
        "contract": "contracts/Ramp.sol:Ramp",
        "label": "sustainabilityFeeRecipient",
        "offset": 0,
        "slot": "12",
        "type": "t_address"
      },
      {
        "astId": 2160,
        "contract": "contracts/Ramp.sol:Ramp",
        "label": "depositCounter",
        "offset": 0,
        "slot": "13",
        "type": "t_uint256"
      }
    ],
    "types": {
      "t_address": {
        "encoding": "inplace",
        "label": "address",
        "numberOfBytes": "20"
      },
      "t_array(t_bytes32)dyn_storage": {
        "base": "t_bytes32",
        "encoding": "dynamic_array",
        "label": "bytes32[]",
        "numberOfBytes": "32"
      },
      "t_array(t_uint256)3_storage": {
        "base": "t_uint256",
        "encoding": "inplace",
        "label": "uint256[3]",
        "numberOfBytes": "96"
      },
      "t_array(t_uint256)dyn_storage": {
        "base": "t_uint256",
        "encoding": "dynamic_array",
        "label": "uint256[]",
        "numberOfBytes": "32"
      },
      "t_bool": {
        "encoding": "inplace",
        "label": "bool",
        "numberOfBytes": "1"
      },
      "t_bytes32": {
        "encoding": "inplace",
        "label": "bytes32",
        "numberOfBytes": "32"
      },
      "t_contract(IRegistrationProcessor)4837": {
        "encoding": "inplace",
        "label": "contract IRegistrationProcessor",
        "numberOfBytes": "20"
      },
      "t_contract(ISendProcessor)4875": {
        "encoding": "inplace",
        "label": "contract ISendProcessor",
        "numberOfBytes": "20"
      },
      "t_mapping(t_address,t_struct(AccountInfo)2023_storage)": {
        "encoding": "mapping",
        "key": "t_address",
        "label": "mapping(address => struct Ramp.AccountInfo)",
        "numberOfBytes": "32",
        "value": "t_struct(AccountInfo)2023_storage"
      },
      "t_mapping(t_bytes32,t_bool)": {
        "encoding": "mapping",
        "key": "t_bytes32",
        "label": "mapping(bytes32 => bool)",
        "numberOfBytes": "32",
        "value": "t_bool"
      },
      "t_mapping(t_bytes32,t_struct(GlobalAccountInfo)2082_storage)": {
        "encoding": "mapping",
        "key": "t_bytes32",
        "label": "mapping(bytes32 => struct Ramp.GlobalAccountInfo)",
        "numberOfBytes": "32",
        "value": "t_struct(GlobalAccountInfo)2082_storage"
      },
      "t_mapping(t_bytes32,t_struct(Intent)2060_storage)": {
        "encoding": "mapping",
        "key": "t_bytes32",
        "label": "mapping(bytes32 => struct Ramp.Intent)",
        "numberOfBytes": "32",
        "value": "t_struct(Intent)2060_storage"
      },
      "t_mapping(t_uint256,t_struct(Deposit)2041_storage)": {
        "encoding": "mapping",
        "key": "t_uint256",
        "label": "mapping(uint256 => struct Ramp.Deposit)",
        "numberOfBytes": "32",
        "value": "t_struct(Deposit)2041_storage"
      },
      "t_struct(AccountInfo)2023_storage": {
        "encoding": "inplace",
        "label": "struct Ramp.AccountInfo",
        "members": [
          {
            "astId": 2019,
            "contract": "contracts/Ramp.sol:Ramp",
            "label": "venmoIdHash",
            "offset": 0,
            "slot": "0",
            "type": "t_bytes32"
          },
          {
            "astId": 2022,
            "contract": "contracts/Ramp.sol:Ramp",
            "label": "deposits",
            "offset": 0,
            "slot": "1",
            "type": "t_array(t_uint256)dyn_storage"
          }
        ],
        "numberOfBytes": "64"
      },
      "t_struct(DenyList)2074_storage": {
        "encoding": "inplace",
        "label": "struct Ramp.DenyList",
        "members": [
          {
            "astId": 2069,
            "contract": "contracts/Ramp.sol:Ramp",
            "label": "deniedUsers",
            "offset": 0,
            "slot": "0",
            "type": "t_array(t_bytes32)dyn_storage"
          },
          {
            "astId": 2073,
            "contract": "contracts/Ramp.sol:Ramp",
            "label": "isDenied",
            "offset": 0,
            "slot": "1",
            "type": "t_mapping(t_bytes32,t_bool)"
          }
        ],
        "numberOfBytes": "64"
      },
      "t_struct(Deposit)2041_storage": {
        "encoding": "inplace",
        "label": "struct Ramp.Deposit",
        "members": [
          {
            "astId": 2025,
            "contract": "contracts/Ramp.sol:Ramp",
            "label": "depositor",
            "offset": 0,
            "slot": "0",
            "type": "t_address"
          },
          {
            "astId": 2029,
            "contract": "contracts/Ramp.sol:Ramp",
            "label": "packedVenmoId",
            "offset": 0,
            "slot": "1",
            "type": "t_array(t_uint256)3_storage"
          },
          {
            "astId": 2031,
            "contract": "contracts/Ramp.sol:Ramp",
            "label": "depositAmount",
            "offset": 0,
            "slot": "4",
            "type": "t_uint256"
          },
          {
            "astId": 2033,
            "contract": "contracts/Ramp.sol:Ramp",
            "label": "remainingDeposits",
            "offset": 0,
            "slot": "5",
            "type": "t_uint256"
          },
          {
            "astId": 2035,
            "contract": "contracts/Ramp.sol:Ramp",
            "label": "outstandingIntentAmount",
            "offset": 0,
            "slot": "6",
            "type": "t_uint256"
          },
          {
            "astId": 2037,
            "contract": "contracts/Ramp.sol:Ramp",
            "label": "conversionRate",
            "offset": 0,
            "slot": "7",
            "type": "t_uint256"
          },
          {
            "astId": 2040,
            "contract": "contracts/Ramp.sol:Ramp",
            "label": "intentHashes",
            "offset": 0,
            "slot": "8",
            "type": "t_array(t_bytes32)dyn_storage"
          }
        ],
        "numberOfBytes": "288"
      },
      "t_struct(GlobalAccountInfo)2082_storage": {
        "encoding": "inplace",
        "label": "struct Ramp.GlobalAccountInfo",
        "members": [
          {
            "astId": 2076,
            "contract": "contracts/Ramp.sol:Ramp",
            "label": "currentIntentHash",
            "offset": 0,
            "slot": "0",
            "type": "t_bytes32"
          },
          {
            "astId": 2078,
            "contract": "contracts/Ramp.sol:Ramp",
            "label": "lastOnrampTimestamp",
            "offset": 0,
            "slot": "1",
            "type": "t_uint256"
          },
          {
            "astId": 2081,
            "contract": "contracts/Ramp.sol:Ramp",
            "label": "denyList",
            "offset": 0,
            "slot": "2",
            "type": "t_struct(DenyList)2074_storage"
          }
        ],
        "numberOfBytes": "128"
      },
      "t_struct(Intent)2060_storage": {
        "encoding": "inplace",
        "label": "struct Ramp.Intent",
        "members": [
          {
            "astId": 2051,
            "contract": "contracts/Ramp.sol:Ramp",
            "label": "onRamper",
            "offset": 0,
            "slot": "0",
            "type": "t_address"
          },
          {
            "astId": 2053,
            "contract": "contracts/Ramp.sol:Ramp",
            "label": "to",
            "offset": 0,
            "slot": "1",
            "type": "t_address"
          },
          {
            "astId": 2055,
            "contract": "contracts/Ramp.sol:Ramp",
            "label": "deposit",
            "offset": 0,
            "slot": "2",
            "type": "t_uint256"
          },
          {
            "astId": 2057,
            "contract": "contracts/Ramp.sol:Ramp",
            "label": "amount",
            "offset": 0,
            "slot": "3",
            "type": "t_uint256"
          },
          {
            "astId": 2059,
            "contract": "contracts/Ramp.sol:Ramp",
            "label": "intentTimestamp",
            "offset": 0,
            "slot": "4",
            "type": "t_uint256"
          }
        ],
        "numberOfBytes": "160"
      },
      "t_uint256": {
        "encoding": "inplace",
        "label": "uint256",
        "numberOfBytes": "32"
      }
    }
  }
}