{
  "address": "0xbcE0B9e082F6619411dd8d029DFf8116BA36A76D",
  "abi": [
    {
      "inputs": [
        {
          "internalType": "address",
          "name": "_owner",
          "type": "address"
        },
        {
          "internalType": "contract IRamp",
          "name": "_ramp",
          "type": "address"
        },
        {
          "internalType": "contract IERC20",
          "name": "_usdc",
          "type": "address"
        },
        {
          "internalType": "contract IPoseidon",
          "name": "_poseidon",
          "type": "address"
        },
        {
          "internalType": "uint256",
          "name": "_minDepositAmount",
          "type": "uint256"
        },
        {
          "internalType": "uint256",
          "name": "_maxOnRampAmount",
          "type": "uint256"
        },
        {
          "internalType": "uint256",
          "name": "_intentExpirationPeriod",
          "type": "uint256"
        },
        {
          "internalType": "uint256",
          "name": "_onRampCooldownPeriod",
          "type": "uint256"
        },
        {
          "internalType": "uint256",
          "name": "_sustainabilityFee",
          "type": "uint256"
        },
        {
          "internalType": "address",
          "name": "_sustainabilityFeeRecipient",
          "type": "address"
        }
      ],
      "stateMutability": "nonpayable",
      "type": "constructor"
    },
    {
      "anonymous": false,
      "inputs": [
        {
          "indexed": true,
          "internalType": "address",
          "name": "accountOwner",
          "type": "address"
        },
        {
          "indexed": true,
          "internalType": "bytes32",
          "name": "venmoIdHash",
          "type": "bytes32"
        }
      ],
      "name": "AccountRegistered",
      "type": "event"
    },
    {
      "anonymous": false,
      "inputs": [
        {
          "indexed": false,
          "internalType": "uint256",
          "name": "depositId",
          "type": "uint256"
        },
        {
          "indexed": false,
          "internalType": "address",
          "name": "depositor",
          "type": "address"
        }
      ],
      "name": "DepositClosed",
      "type": "event"
    },
    {
      "anonymous": false,
      "inputs": [
        {
          "indexed": true,
          "internalType": "uint256",
          "name": "depositId",
          "type": "uint256"
        },
        {
          "indexed": true,
          "internalType": "bytes32",
          "name": "venmoId",
          "type": "bytes32"
        },
        {
          "indexed": false,
          "internalType": "uint256",
          "name": "amount",
          "type": "uint256"
        },
        {
          "indexed": false,
          "internalType": "uint256",
          "name": "conversionRate",
          "type": "uint256"
        }
      ],
      "name": "DepositReceived",
      "type": "event"
    },
    {
      "anonymous": false,
      "inputs": [
        {
          "indexed": true,
          "internalType": "uint256",
          "name": "depositId",
          "type": "uint256"
        },
        {
          "indexed": true,
          "internalType": "address",
          "name": "depositor",
          "type": "address"
        },
        {
          "indexed": false,
          "internalType": "uint256",
          "name": "amount",
          "type": "uint256"
        }
      ],
      "name": "DepositWithdrawn",
      "type": "event"
    },
    {
      "anonymous": false,
      "inputs": [
        {
          "indexed": false,
          "internalType": "uint256",
          "name": "intentExpirationPeriod",
          "type": "uint256"
        }
      ],
      "name": "IntentExpirationPeriodSet",
      "type": "event"
    },
    {
      "anonymous": false,
      "inputs": [
        {
          "indexed": true,
          "internalType": "bytes32",
          "name": "intentHash",
          "type": "bytes32"
        },
        {
          "indexed": true,
          "internalType": "uint256",
          "name": "depositId",
          "type": "uint256"
        },
        {
          "indexed": true,
          "internalType": "address",
          "name": "onRamper",
          "type": "address"
        },
        {
          "indexed": false,
          "internalType": "address",
          "name": "to",
          "type": "address"
        },
        {
          "indexed": false,
          "internalType": "uint256",
          "name": "amount",
          "type": "uint256"
        },
        {
          "indexed": false,
          "internalType": "uint256",
          "name": "feeAmount",
          "type": "uint256"
        }
      ],
      "name": "IntentFulfilled",
      "type": "event"
    },
    {
      "anonymous": false,
      "inputs": [
        {
          "indexed": true,
          "internalType": "bytes32",
          "name": "intentHash",
          "type": "bytes32"
        },
        {
          "indexed": true,
          "internalType": "uint256",
          "name": "depositId",
          "type": "uint256"
        }
      ],
      "name": "IntentPruned",
      "type": "event"
    },
    {
      "anonymous": false,
      "inputs": [
        {
          "indexed": true,
          "internalType": "bytes32",
          "name": "intentHash",
          "type": "bytes32"
        },
        {
          "indexed": true,
          "internalType": "uint256",
          "name": "depositId",
          "type": "uint256"
        },
        {
          "indexed": true,
          "internalType": "bytes32",
          "name": "venmoId",
          "type": "bytes32"
        },
        {
          "indexed": false,
          "internalType": "address",
          "name": "to",
          "type": "address"
        },
        {
          "indexed": false,
          "internalType": "uint256",
          "name": "amount",
          "type": "uint256"
        },
        {
          "indexed": false,
          "internalType": "uint256",
          "name": "timestamp",
          "type": "uint256"
        }
      ],
      "name": "IntentSignaled",
      "type": "event"
    },
    {
      "anonymous": false,
      "inputs": [
        {
          "indexed": false,
          "internalType": "uint256",
          "name": "maxOnRampAmount",
          "type": "uint256"
        }
      ],
      "name": "MaxOnRampAmountSet",
      "type": "event"
    },
    {
      "anonymous": false,
      "inputs": [
        {
          "indexed": false,
          "internalType": "uint256",
          "name": "minDepositAmount",
          "type": "uint256"
        }
      ],
      "name": "MinDepositAmountSet",
      "type": "event"
    },
    {
      "anonymous": false,
      "inputs": [
        {
          "indexed": false,
          "internalType": "address",
          "name": "receiveProcessor",
          "type": "address"
        }
      ],
      "name": "NewReceiveProcessorSet",
      "type": "event"
    },
    {
      "anonymous": false,
      "inputs": [
        {
          "indexed": false,
          "internalType": "address",
          "name": "registrationProcessor",
          "type": "address"
        }
      ],
      "name": "NewRegistrationProcessorSet",
      "type": "event"
    },
    {
      "anonymous": false,
      "inputs": [
        {
          "indexed": false,
          "internalType": "address",
          "name": "sendProcessor",
          "type": "address"
        }
      ],
      "name": "NewSendProcessorSet",
      "type": "event"
    },
    {
      "anonymous": false,
      "inputs": [
        {
          "indexed": false,
          "internalType": "uint256",
          "name": "onRampCooldownPeriod",
          "type": "uint256"
        }
      ],
      "name": "OnRampCooldownPeriodSet",
      "type": "event"
    },
    {
      "anonymous": false,
      "inputs": [
        {
          "indexed": true,
          "internalType": "address",
          "name": "previousOwner",
          "type": "address"
        },
        {
          "indexed": true,
          "internalType": "address",
          "name": "newOwner",
          "type": "address"
        }
      ],
      "name": "OwnershipTransferred",
      "type": "event"
    },
    {
      "anonymous": false,
      "inputs": [
        {
          "indexed": false,
          "internalType": "address",
          "name": "feeRecipient",
          "type": "address"
        }
      ],
      "name": "SustainabilityFeeRecipientUpdated",
      "type": "event"
    },
    {
      "anonymous": false,
      "inputs": [
        {
          "indexed": false,
          "internalType": "uint256",
          "name": "fee",
          "type": "uint256"
        }
      ],
      "name": "SustainabilityFeeUpdated",
      "type": "event"
    },
    {
      "anonymous": false,
      "inputs": [
        {
          "indexed": false,
          "internalType": "bytes32",
          "name": "listOwner",
          "type": "bytes32"
        },
        {
          "indexed": false,
          "internalType": "bytes32",
          "name": "deniedUser",
          "type": "bytes32"
        }
      ],
      "name": "UserAddedToDenylist",
      "type": "event"
    },
    {
      "anonymous": false,
      "inputs": [
        {
          "indexed": false,
          "internalType": "bytes32",
          "name": "listOwner",
          "type": "bytes32"
        },
        {
          "indexed": false,
          "internalType": "bytes32",
          "name": "approvedUser",
          "type": "bytes32"
        }
      ],
      "name": "UserRemovedFromDenylist",
      "type": "event"
    },
    {
      "inputs": [
        {
          "internalType": "bytes32",
          "name": "_deniedUser",
          "type": "bytes32"
        }
      ],
      "name": "addAccountToDenylist",
      "outputs": [],
      "stateMutability": "nonpayable",
      "type": "function"
    },
    {
      "inputs": [
        {
          "internalType": "bytes32",
          "name": "_intentHash",
          "type": "bytes32"
        }
      ],
      "name": "cancelIntent",
      "outputs": [],
      "stateMutability": "nonpayable",
      "type": "function"
    },
    {
      "inputs": [],
      "name": "depositCounter",
      "outputs": [
        {
          "internalType": "uint256",
          "name": "",
          "type": "uint256"
        }
      ],
      "stateMutability": "view",
      "type": "function"
    },
    {
      "inputs": [
        {
          "internalType": "uint256",
          "name": "",
          "type": "uint256"
        }
      ],
      "name": "deposits",
      "outputs": [
        {
          "internalType": "address",
          "name": "depositor",
          "type": "address"
        },
        {
          "internalType": "uint256",
          "name": "depositAmount",
          "type": "uint256"
        },
        {
          "internalType": "uint256",
          "name": "remainingDeposits",
          "type": "uint256"
        },
        {
          "internalType": "uint256",
          "name": "outstandingIntentAmount",
          "type": "uint256"
        },
        {
          "internalType": "uint256",
          "name": "conversionRate",
          "type": "uint256"
        }
      ],
      "stateMutability": "view",
      "type": "function"
    },
    {
      "inputs": [
        {
          "internalType": "address",
          "name": "_account",
          "type": "address"
        }
      ],
      "name": "getAccountDeposits",
      "outputs": [
        {
          "components": [
            {
              "internalType": "uint256",
              "name": "depositId",
              "type": "uint256"
            },
            {
              "internalType": "bytes32",
              "name": "depositorIdHash",
              "type": "bytes32"
            },
            {
              "components": [
                {
                  "internalType": "address",
                  "name": "depositor",
                  "type": "address"
                },
                {
                  "internalType": "uint256[3]",
                  "name": "packedVenmoId",
                  "type": "uint256[3]"
                },
                {
                  "internalType": "uint256",
                  "name": "depositAmount",
                  "type": "uint256"
                },
                {
                  "internalType": "uint256",
                  "name": "remainingDeposits",
                  "type": "uint256"
                },
                {
                  "internalType": "uint256",
                  "name": "outstandingIntentAmount",
                  "type": "uint256"
                },
                {
                  "internalType": "uint256",
                  "name": "conversionRate",
                  "type": "uint256"
                },
                {
                  "internalType": "bytes32[]",
                  "name": "intentHashes",
                  "type": "bytes32[]"
                }
              ],
              "internalType": "struct VenmoRampV2.Deposit",
              "name": "deposit",
              "type": "tuple"
            },
            {
              "internalType": "uint256",
              "name": "availableLiquidity",
              "type": "uint256"
            }
          ],
          "internalType": "struct VenmoRampV2.DepositWithAvailableLiquidity[]",
          "name": "accountDeposits",
          "type": "tuple[]"
        }
      ],
      "stateMutability": "view",
      "type": "function"
    },
    {
      "inputs": [
        {
          "internalType": "address",
          "name": "_account",
          "type": "address"
        }
      ],
      "name": "getAccountInfo",
      "outputs": [
        {
          "components": [
            {
              "internalType": "bytes32",
              "name": "venmoIdHash",
              "type": "bytes32"
            },
            {
              "internalType": "uint256[]",
              "name": "deposits",
              "type": "uint256[]"
            }
          ],
          "internalType": "struct VenmoRampV2.AccountInfo",
          "name": "",
          "type": "tuple"
        }
      ],
      "stateMutability": "view",
      "type": "function"
    },
    {
      "inputs": [
        {
          "internalType": "address",
          "name": "_account",
          "type": "address"
        }
      ],
      "name": "getAccountVenmoIdHash",
      "outputs": [
        {
          "internalType": "bytes32",
          "name": "",
          "type": "bytes32"
        }
      ],
      "stateMutability": "view",
      "type": "function"
    },
    {
      "inputs": [
        {
          "internalType": "address",
          "name": "_account",
          "type": "address"
        }
      ],
      "name": "getDeniedUsers",
      "outputs": [
        {
          "internalType": "bytes32[]",
          "name": "",
          "type": "bytes32[]"
        }
      ],
      "stateMutability": "view",
      "type": "function"
    },
    {
      "inputs": [
        {
          "internalType": "uint256",
          "name": "_depositId",
          "type": "uint256"
        }
      ],
      "name": "getDeposit",
      "outputs": [
        {
          "components": [
            {
              "internalType": "address",
              "name": "depositor",
              "type": "address"
            },
            {
              "internalType": "uint256[3]",
              "name": "packedVenmoId",
              "type": "uint256[3]"
            },
            {
              "internalType": "uint256",
              "name": "depositAmount",
              "type": "uint256"
            },
            {
              "internalType": "uint256",
              "name": "remainingDeposits",
              "type": "uint256"
            },
            {
              "internalType": "uint256",
              "name": "outstandingIntentAmount",
              "type": "uint256"
            },
            {
              "internalType": "uint256",
              "name": "conversionRate",
              "type": "uint256"
            },
            {
              "internalType": "bytes32[]",
              "name": "intentHashes",
              "type": "bytes32[]"
            }
          ],
          "internalType": "struct VenmoRampV2.Deposit",
          "name": "",
          "type": "tuple"
        }
      ],
      "stateMutability": "view",
      "type": "function"
    },
    {
      "inputs": [
        {
          "internalType": "uint256[]",
          "name": "_depositIds",
          "type": "uint256[]"
        }
      ],
      "name": "getDepositFromIds",
      "outputs": [
        {
          "components": [
            {
              "internalType": "uint256",
              "name": "depositId",
              "type": "uint256"
            },
            {
              "internalType": "bytes32",
              "name": "depositorIdHash",
              "type": "bytes32"
            },
            {
              "components": [
                {
                  "internalType": "address",
                  "name": "depositor",
                  "type": "address"
                },
                {
                  "internalType": "uint256[3]",
                  "name": "packedVenmoId",
                  "type": "uint256[3]"
                },
                {
                  "internalType": "uint256",
                  "name": "depositAmount",
                  "type": "uint256"
                },
                {
                  "internalType": "uint256",
                  "name": "remainingDeposits",
                  "type": "uint256"
                },
                {
                  "internalType": "uint256",
                  "name": "outstandingIntentAmount",
                  "type": "uint256"
                },
                {
                  "internalType": "uint256",
                  "name": "conversionRate",
                  "type": "uint256"
                },
                {
                  "internalType": "bytes32[]",
                  "name": "intentHashes",
                  "type": "bytes32[]"
                }
              ],
              "internalType": "struct VenmoRampV2.Deposit",
              "name": "deposit",
              "type": "tuple"
            },
            {
              "internalType": "uint256",
              "name": "availableLiquidity",
              "type": "uint256"
            }
          ],
          "internalType": "struct VenmoRampV2.DepositWithAvailableLiquidity[]",
          "name": "depositArray",
          "type": "tuple[]"
        }
      ],
      "stateMutability": "view",
      "type": "function"
    },
    {
      "inputs": [
        {
          "internalType": "bytes32[]",
          "name": "_intentHashes",
          "type": "bytes32[]"
        }
      ],
      "name": "getIntentsWithOnRamperId",
      "outputs": [
        {
          "components": [
            {
              "internalType": "bytes32",
              "name": "intentHash",
              "type": "bytes32"
            },
            {
              "components": [
                {
                  "internalType": "address",
                  "name": "onRamper",
                  "type": "address"
                },
                {
                  "internalType": "address",
                  "name": "to",
                  "type": "address"
                },
                {
                  "internalType": "uint256",
                  "name": "deposit",
                  "type": "uint256"
                },
                {
                  "internalType": "uint256",
                  "name": "amount",
                  "type": "uint256"
                },
                {
                  "internalType": "uint256",
                  "name": "intentTimestamp",
                  "type": "uint256"
                }
              ],
              "internalType": "struct VenmoRampV2.Intent",
              "name": "intent",
              "type": "tuple"
            },
            {
              "internalType": "bytes32",
              "name": "onRamperIdHash",
              "type": "bytes32"
            }
          ],
          "internalType": "struct VenmoRampV2.IntentWithOnRamperId[]",
          "name": "",
          "type": "tuple[]"
        }
      ],
      "stateMutability": "view",
      "type": "function"
    },
    {
      "inputs": [
        {
          "internalType": "address",
          "name": "_account",
          "type": "address"
        }
      ],
      "name": "getLastOnRampTimestamp",
      "outputs": [
        {
          "internalType": "uint256",
          "name": "",
          "type": "uint256"
        }
      ],
      "stateMutability": "view",
      "type": "function"
    },
    {
      "inputs": [
        {
          "internalType": "address",
          "name": "_account",
          "type": "address"
        }
      ],
      "name": "getVenmoIdCurrentIntentHash",
      "outputs": [
        {
          "internalType": "bytes32",
          "name": "",
          "type": "bytes32"
        }
      ],
      "stateMutability": "view",
      "type": "function"
    },
    {
      "inputs": [
        {
          "internalType": "contract IRegistrationProcessorV2",
          "name": "_registrationProcessor",
          "type": "address"
        },
        {
          "internalType": "contract ISendProcessor",
          "name": "_sendProcessor",
          "type": "address"
        }
      ],
      "name": "initialize",
      "outputs": [],
      "stateMutability": "nonpayable",
      "type": "function"
    },
    {
      "inputs": [],
      "name": "intentExpirationPeriod",
      "outputs": [
        {
          "internalType": "uint256",
          "name": "",
          "type": "uint256"
        }
      ],
      "stateMutability": "view",
      "type": "function"
    },
    {
      "inputs": [
        {
          "internalType": "bytes32",
          "name": "",
          "type": "bytes32"
        }
      ],
      "name": "intents",
      "outputs": [
        {
          "internalType": "address",
          "name": "onRamper",
          "type": "address"
        },
        {
          "internalType": "address",
          "name": "to",
          "type": "address"
        },
        {
          "internalType": "uint256",
          "name": "deposit",
          "type": "uint256"
        },
        {
          "internalType": "uint256",
          "name": "amount",
          "type": "uint256"
        },
        {
          "internalType": "uint256",
          "name": "intentTimestamp",
          "type": "uint256"
        }
      ],
      "stateMutability": "view",
      "type": "function"
    },
    {
      "inputs": [
        {
          "internalType": "address",
          "name": "_account",
          "type": "address"
        },
        {
          "internalType": "bytes32",
          "name": "_deniedUser",
          "type": "bytes32"
        }
      ],
      "name": "isDeniedUser",
      "outputs": [
        {
          "internalType": "bool",
          "name": "",
          "type": "bool"
        }
      ],
      "stateMutability": "view",
      "type": "function"
    },
    {
      "inputs": [],
      "name": "isInitialized",
      "outputs": [
        {
          "internalType": "bool",
          "name": "",
          "type": "bool"
        }
      ],
      "stateMutability": "view",
      "type": "function"
    },
    {
      "inputs": [],
      "name": "maxOnRampAmount",
      "outputs": [
        {
          "internalType": "uint256",
          "name": "",
          "type": "uint256"
        }
      ],
      "stateMutability": "view",
      "type": "function"
    },
    {
      "inputs": [],
      "name": "minDepositAmount",
      "outputs": [
        {
          "internalType": "uint256",
          "name": "",
          "type": "uint256"
        }
      ],
      "stateMutability": "view",
      "type": "function"
    },
    {
      "inputs": [
        {
          "internalType": "uint256[3]",
          "name": "_packedVenmoId",
          "type": "uint256[3]"
        },
        {
          "internalType": "uint256",
          "name": "_depositAmount",
          "type": "uint256"
        },
        {
          "internalType": "uint256",
          "name": "_receiveAmount",
          "type": "uint256"
        }
      ],
      "name": "offRamp",
      "outputs": [],
      "stateMutability": "nonpayable",
      "type": "function"
    },
    {
      "inputs": [
        {
          "internalType": "uint256[2]",
          "name": "_a",
          "type": "uint256[2]"
        },
        {
          "internalType": "uint256[2][2]",
          "name": "_b",
          "type": "uint256[2][2]"
        },
        {
          "internalType": "uint256[2]",
          "name": "_c",
          "type": "uint256[2]"
        },
        {
          "internalType": "uint256[12]",
          "name": "_signals",
          "type": "uint256[12]"
        }
      ],
      "name": "onRamp",
      "outputs": [],
      "stateMutability": "nonpayable",
      "type": "function"
    },
    {
      "inputs": [],
      "name": "onRampCooldownPeriod",
      "outputs": [
        {
          "internalType": "uint256",
          "name": "",
          "type": "uint256"
        }
      ],
      "stateMutability": "view",
      "type": "function"
    },
    {
      "inputs": [],
      "name": "owner",
      "outputs": [
        {
          "internalType": "address",
          "name": "",
          "type": "address"
        }
      ],
      "stateMutability": "view",
      "type": "function"
    },
    {
      "inputs": [],
      "name": "poseidon",
      "outputs": [
        {
          "internalType": "contract IPoseidon",
          "name": "",
          "type": "address"
        }
      ],
      "stateMutability": "view",
      "type": "function"
    },
    {
      "inputs": [],
      "name": "ramp",
      "outputs": [
        {
          "internalType": "contract IRamp",
          "name": "",
          "type": "address"
        }
      ],
      "stateMutability": "view",
      "type": "function"
    },
    {
      "inputs": [
        {
          "internalType": "uint256[2]",
          "name": "_a",
          "type": "uint256[2]"
        },
        {
          "internalType": "uint256[2][2]",
          "name": "_b",
          "type": "uint256[2][2]"
        },
        {
          "internalType": "uint256[2]",
          "name": "_c",
          "type": "uint256[2]"
        },
        {
          "internalType": "uint256[5]",
          "name": "_signals",
          "type": "uint256[5]"
        }
      ],
      "name": "register",
      "outputs": [],
      "stateMutability": "nonpayable",
      "type": "function"
    },
    {
      "inputs": [],
      "name": "registrationProcessor",
      "outputs": [
        {
          "internalType": "contract IRegistrationProcessorV2",
          "name": "",
          "type": "address"
        }
      ],
      "stateMutability": "view",
      "type": "function"
    },
    {
      "inputs": [
        {
          "internalType": "bytes32",
          "name": "_intentHash",
          "type": "bytes32"
        }
      ],
      "name": "releaseFundsToOnramper",
      "outputs": [],
      "stateMutability": "nonpayable",
      "type": "function"
    },
    {
      "inputs": [
        {
          "internalType": "bytes32",
          "name": "_approvedUser",
          "type": "bytes32"
        }
      ],
      "name": "removeAccountFromDenylist",
      "outputs": [],
      "stateMutability": "nonpayable",
      "type": "function"
    },
    {
      "inputs": [],
      "name": "renounceOwnership",
      "outputs": [],
      "stateMutability": "nonpayable",
      "type": "function"
    },
    {
      "inputs": [],
      "name": "sendProcessor",
      "outputs": [
        {
          "internalType": "contract ISendProcessor",
          "name": "",
          "type": "address"
        }
      ],
      "stateMutability": "view",
      "type": "function"
    },
    {
      "inputs": [
        {
          "internalType": "uint256",
          "name": "_intentExpirationPeriod",
          "type": "uint256"
        }
      ],
      "name": "setIntentExpirationPeriod",
      "outputs": [],
      "stateMutability": "nonpayable",
      "type": "function"
    },
    {
      "inputs": [
        {
          "internalType": "uint256",
          "name": "_maxOnRampAmount",
          "type": "uint256"
        }
      ],
      "name": "setMaxOnRampAmount",
      "outputs": [],
      "stateMutability": "nonpayable",
      "type": "function"
    },
    {
      "inputs": [
        {
          "internalType": "uint256",
          "name": "_minDepositAmount",
          "type": "uint256"
        }
      ],
      "name": "setMinDepositAmount",
      "outputs": [],
      "stateMutability": "nonpayable",
      "type": "function"
    },
    {
      "inputs": [
        {
          "internalType": "uint256",
          "name": "_onRampCooldownPeriod",
          "type": "uint256"
        }
      ],
      "name": "setOnRampCooldownPeriod",
      "outputs": [],
      "stateMutability": "nonpayable",
      "type": "function"
    },
    {
      "inputs": [
        {
          "internalType": "contract IRegistrationProcessorV2",
          "name": "_registrationProcessor",
          "type": "address"
        }
      ],
      "name": "setRegistrationProcessor",
      "outputs": [],
      "stateMutability": "nonpayable",
      "type": "function"
    },
    {
      "inputs": [
        {
          "internalType": "contract ISendProcessor",
          "name": "_sendProcessor",
          "type": "address"
        }
      ],
      "name": "setSendProcessor",
      "outputs": [],
      "stateMutability": "nonpayable",
      "type": "function"
    },
    {
      "inputs": [
        {
          "internalType": "uint256",
          "name": "_fee",
          "type": "uint256"
        }
      ],
      "name": "setSustainabilityFee",
      "outputs": [],
      "stateMutability": "nonpayable",
      "type": "function"
    },
    {
      "inputs": [
        {
          "internalType": "address",
          "name": "_feeRecipient",
          "type": "address"
        }
      ],
      "name": "setSustainabilityFeeRecipient",
      "outputs": [],
      "stateMutability": "nonpayable",
      "type": "function"
    },
    {
      "inputs": [
        {
          "internalType": "uint256",
          "name": "_depositId",
          "type": "uint256"
        },
        {
          "internalType": "uint256",
          "name": "_amount",
          "type": "uint256"
        },
        {
          "internalType": "address",
          "name": "_to",
          "type": "address"
        }
      ],
      "name": "signalIntent",
      "outputs": [],
      "stateMutability": "nonpayable",
      "type": "function"
    },
    {
      "inputs": [],
      "name": "sustainabilityFee",
      "outputs": [
        {
          "internalType": "uint256",
          "name": "",
          "type": "uint256"
        }
      ],
      "stateMutability": "view",
      "type": "function"
    },
    {
      "inputs": [],
      "name": "sustainabilityFeeRecipient",
      "outputs": [
        {
          "internalType": "address",
          "name": "",
          "type": "address"
        }
      ],
      "stateMutability": "view",
      "type": "function"
    },
    {
      "inputs": [
        {
          "internalType": "address",
          "name": "newOwner",
          "type": "address"
        }
      ],
      "name": "transferOwnership",
      "outputs": [],
      "stateMutability": "nonpayable",
      "type": "function"
    },
    {
      "inputs": [],
      "name": "usdc",
      "outputs": [
        {
          "internalType": "contract IERC20",
          "name": "",
          "type": "address"
        }
      ],
      "stateMutability": "view",
      "type": "function"
    },
    {
      "inputs": [
        {
          "internalType": "uint256[]",
          "name": "_depositIds",
          "type": "uint256[]"
        }
      ],
      "name": "withdrawDeposit",
      "outputs": [],
      "stateMutability": "nonpayable",
      "type": "function"
    }
  ],
  "transactionHash": "0x4a3327c6461b43e98e72f73ead9cf0dd8d8fd0a7905d6ae2f4fd9069589cc68d",
  "args": [
    "0xdd93E0f5fC32c86A568d87Cb4f08598f55E980F3",
    "0xB084f36C5B7193af8Dd17025b36FBe2DD496a06f",
    "0x833589fCD6eDb6E08f4c7C32D4f71b54bdA02913",
    "0xC87eFE0445fbA1FDb8a73553F293272B7bE91c64",
    "20000000",
    "500000000",
    "86400",
    "43200",
    "0",
    "0x0bC26FF515411396DD588Abd6Ef6846E04470227"
  ],
  "numDeployments": 1,
  "solcInputHash": "c76db42e3552a72f819af71bb2be52ce",
  "bytecode": "0x60e06040523480156200001157600080fd5b506040516200439a3803806200439a8339810160408190526200003491620001eb565b6200003f33620000a4565b6001600160a01b0388811660805289811660c05287811660a05260078790556008869055600a8590556009849055600b839055600c80546001600160a01b031916918316919091179055620000948a620000f4565b505050505050505050506200029e565b600080546001600160a01b038381166001600160a01b0319831681178455604051919092169283917f8be0079c531659141344cd1fd0a4f28419497f9722a3daafe3b4186f6b6457e09190a35050565b620000fe62000177565b6001600160a01b038116620001695760405162461bcd60e51b815260206004820152602660248201527f4f776e61626c653a206e6577206f776e657220697320746865207a65726f206160448201526564647265737360d01b60648201526084015b60405180910390fd5b6200017481620000a4565b50565b6000546001600160a01b03163314620001d35760405162461bcd60e51b815260206004820181905260248201527f4f776e61626c653a2063616c6c6572206973206e6f7420746865206f776e6572604482015260640162000160565b565b6001600160a01b03811681146200017457600080fd5b6000806000806000806000806000806101408b8d0312156200020c57600080fd5b8a516200021981620001d5565b60208c0151909a506200022c81620001d5565b60408c01519099506200023f81620001d5565b60608c01519098506200025281620001d5565b8097505060808b0151955060a08b0151945060c08b0151935060e08b015192506101008b015191506101208b01516200028b81620001d5565b809150509295989b9194979a5092959850565b60805160a05160c0516140a2620002f8600039600081816102f5015261217d015260008181610628015261112801526000818161039a0152818161146601528181611ad301528181612bd70152612c8601526140a26000f3fe608060405234801561001057600080fd5b506004361061028a5760003560e01c80637b510fe81161015c578063ce523ca3116100ce578063ecb3dc8811610087578063ecb3dc88146106c5578063ecd618f0146106ce578063ed1692b8146106ee578063eea1d19714610701578063f2fde38b14610714578063fbf15b1f1461072757600080fd5b8063ce523ca31461065d578063d55f960d14610670578063d9478d2014610683578063da26c18914610696578063e215ad59146106a9578063e279d964146106bc57600080fd5b80639f9fb968116101205780639f9fb9681461056e578063a1a954b71461058e578063b02c43d014610597578063b3fa4c0114610610578063c62b919e14610623578063cc181c2e1461064a57600080fd5b80637b510fe81461049b5780638da5cb5b146104bb5780639021578a146104cc5780639087beff146105485780639b357b5a1461055b57600080fd5b806342987349116102005780635dd76515116101b95780635dd765151461043e578063645006ca1461045157806366ec84191461045a578063711347621461046d578063715018a61461048057806371a28f691461048857600080fd5b806342987349146103bc5780634595bba0146103cf578063485cc955146103ef5780634877b7b614610402578063495223e7146104155780635081d9521461041e57600080fd5b8063238c849411610252578063238c84941461032f5780632a80cda314610338578063317dcc961461034b578063392e53cd1461035e5780633adba28a146103825780633e413bee1461039557600080fd5b80630f1ef98c1461028f578063123a11e4146102b5578063133de6cb146102c8578063148172da146102dd57806315d276e1146102f0575b600080fd5b6102a261029d36600461355b565b61073a565b6040519081526020015b60405180910390f35b6102a26102c336600461355b565b610762565b6102db6102d636600461355b565b610788565b005b6102db6102eb36600461357f565b6107e5565b6103177f000000000000000000000000000000000000000000000000000000000000000081565b6040516001600160a01b0390911681526020016102ac565b6102a2600b5481565b6102db61034636600461357f565b610914565b6102db61035936600461357f565b6109a1565b60025461037290600160a01b900460ff1681565b60405190151581526020016102ac565b6102db610390366004613598565b6109de565b6103177f000000000000000000000000000000000000000000000000000000000000000081565b6102db6103ca36600461357f565b610f39565b6103e26103dd36600461355b565b610fda565b6040516102ac91906135d1565b6102db6103fd366004613615565b611053565b6102db6104103660046136bc565b6110e6565b6102a260095481565b61043161042c36600461355b565b611522565b6040516102ac919061380a565b6102db61044c36600461357f565b611770565b6102a260075481565b6102db61046836600461357f565b61180f565b6102db61047b3660046138b9565b611955565b6102db611b48565b6104316104963660046138b9565b611b5c565b6104ae6104a936600461355b565b611d42565b6040516102ac919061394e565b6000546001600160a01b0316610317565b6105156104da36600461357f565b600660205260009081526040902080546001820154600283015460038401546004909401546001600160a01b03938416949390921692909185565b604080516001600160a01b039687168152959094166020860152928401919091526060830152608082015260a0016102ac565b6102db61055636600461357f565b611de1565b6102db61056936600461357f565b611e78565b61058161057c36600461357f565b611f7c565b6040516102ac91906139a6565b6102a2600a5481565b6105de6105a536600461357f565b6005602081905260009182526040909120805460048201549282015460068301546007909301546001600160a01b039092169392909185565b604080516001600160a01b0390961686526020860194909452928401919091526060830152608082015260a0016102ac565b6102db61061e36600461355b565b61206a565b6103177f000000000000000000000000000000000000000000000000000000000000000081565b6102a261065836600461355b565b612122565b6102db61066b366004613a58565b6121f4565b6102db61067e36600461357f565b6122ae565b600c54610317906001600160a01b031681565b6102db6106a4366004613b0f565b6123df565b600154610317906001600160a01b031681565b6102a260085481565b6102a2600d5481565b6106e16106dc366004613b84565b612467565b6040516102ac9190613bf8565b6102db6106fc36600461355b565b6125b7565b600254610317906001600160a01b031681565b6102db61072236600461355b565b61260d565b610372610735366004613c88565b612686565b60006003600061074984612122565b8152602001908152602001600020600101549050919050565b60006003600061077184612122565b815260208101919091526040016000205492915050565b6107906126c1565b600280546001600160a01b0319166001600160a01b0383169081179091556040519081527f6e7665a41605edc0d70f4b991d652755f380754eb092d81ef9ab93664778d59e906020015b60405180910390a150565b60006107f033612122565b036108165760405162461bcd60e51b815260040161080d90613cb4565b60405180910390fd5b600061082133612122565b6000818152600360208181526040808420878552909201905290205490915060ff16156108905760405162461bcd60e51b815260206004820152601860248201527f5573657220616c7265616479206f6e2064656e796c6973740000000000000000604482015260640161080d565b60008181526003602081815260408084208685528084018352818520805460ff19166001908117909155938352600201805493840181558452922001839055517f976c693d56f27ba17d902bda80c4fa0416b773fbf268bcb0ee71689234d769ee906109089083908590918252602082015260400190565b60405180910390a15050565b61091c6126c1565b8060000361096c5760405162461bcd60e51b815260206004820152601e60248201527f4d696e696d756d206465706f7369742063616e6e6f74206265207a65726f0000604482015260640161080d565b60078190556040518181527fbdde72a6d8d8b42770c9899945ccdce09d0c5c794d3326cdb2d2cca61b12a9fc906020016107da565b6109a96126c1565b60098190556040518181527f88397975d177ce5e18abf3a5fdb8de773e80673d85eeb54f48cfaf688b3d2c3e906020016107da565b60006109e933612122565b03610a065760405162461bcd60e51b815260040161080d90613cb4565b6000610a1133612122565b6000858152600560205260408120805492935091610a37906001600160a01b0316612122565b6000818152600360208181526040808420888552909201905290205490915060ff1615610aa65760405162461bcd60e51b815260206004820181905260248201527f4f6e72616d706572206f6e206465706f7369746f7227732064656e796c697374604482015260640161080d565b6009546000848152600360205260409020600101544291610ac691613d01565b1115610b205760405162461bcd60e51b8152602060048201526024808201527f4f6e2072616d7020636f6f6c20646f776e20706572696f64206e6f7420656c616044820152631c1cd95960e21b606482015260840161080d565b60008381526003602052604090205415610b7c5760405162461bcd60e51b815260206004820152601860248201527f496e74656e74207374696c6c206f75747374616e64696e670000000000000000604482015260640161080d565b828103610bcb5760405162461bcd60e51b815260206004820152601e60248201527f53656e6465722063616e6e6f7420626520746865206465706f7369746f720000604482015260640161080d565b81546001600160a01b0316610c1b5760405162461bcd60e51b815260206004820152601660248201527511195c1bdcda5d08191bd95cc81b9bdd08195e1a5cdd60521b604482015260640161080d565b60008511610c7a5760405162461bcd60e51b815260206004820152602660248201527f5369676e616c656420616d6f756e74206d75737420626520677265617465722060448201526507468616e20360d41b606482015260840161080d565b600854851115610ce95760405162461bcd60e51b815260206004820152603460248201527f5369676e616c656420616d6f756e74206d757374206265206c657373207468616044820152731b881b585e081bdb8b5c985b5c08185b5bdd5b9d60621b606482015260840161080d565b6001600160a01b038416610d3f5760405162461bcd60e51b815260206004820152601b60248201527f43616e6e6f742073656e6420746f207a65726f20616464726573730000000000604482015260640161080d565b6000610d4b848861271b565b90508583600501541015610e0057600080610d6589612786565b9150915087818660050154610d7a9190613d01565b1015610dbf5760405162461bcd60e51b81526020600482015260146024820152734e6f7420656e6f756768206c697175696469747960601b604482015260640161080d565b610dc9858361292d565b80856005016000828254610ddd9190613d01565b9250508190555080856006016000828254610df89190613d14565b909155505050505b6040805160a0810182523381526001600160a01b0387811660208084019182528385018c8152606085018c81524260808701908152600089815260068552888120975188549088166001600160a01b0319918216178955955160018901805491909816961695909517909555905160028601555160038086019190915592516004909401939093558781529152908120829055600584018054889290610ea7908490613d14565b9250508190555085836006016000828254610ec29190613d01565b9091555050600883018054600181018255600091825260209182902001829055604080516001600160a01b038816815291820188905242908201528490889083907f1a1292e170a0f000ccf956afba79bee0f9ec1d81f3f901c1d4d11e1f336aae109060600160405180910390a450505050505050565b610f416126c1565b80600003610fa55760405162461bcd60e51b815260206004820152602b60248201527f4d617820696e74656e742065787069726174696f6e20706572696f642063616e60448201526a6e6f74206265207a65726f60a81b606482015260840161080d565b600a8190556040518181527f55e3f6b95de9a0ec782f892e93fafe4e56be0696df204ddf8e0a40a9a713a803906020016107da565b606060036000610fe984612122565b815260200190815260200160002060020160000180548060200260200160405190810160405280929190818152602001828054801561104757602002820191906000526020600020905b815481526020019060010190808311611033575b50505050509050919050565b61105b6126c1565b600254600160a01b900460ff16156110ab5760405162461bcd60e51b8152602060048201526013602482015272105b1c9958591e481a5b9a5d1a585b1a5e9959606a1b604482015260640161080d565b600180546001600160a01b039384166001600160a01b0319909116179055600280546001600160a81b0319169190921617600160a01b179055565b60006110f133612122565b0361110e5760405162461bcd60e51b815260040161080d90613cb4565b6040516304b98e1d60e31b81526000906001600160a01b037f000000000000000000000000000000000000000000000000000000000000000016906325cc70e89061115d908790600401613d27565b602060405180830381865afa15801561117a573d6000803e3d6000fd5b505050506040513d601f19601f8201168201806040525081019061119e9190613d35565b9050806111aa33612122565b146111f75760405162461bcd60e51b815260206004820181905260248201527f53656e646572206d75737420626520746865206163636f756e74206f776e6572604482015260640161080d565b336000908152600460205260409020600101546005116112595760405162461bcd60e51b815260206004820152601e60248201527f4d6178696d756d206465706f73697420616d6f756e7420726561636865640000604482015260640161080d565b6007548310156112ca5760405162461bcd60e51b815260206004820152603660248201527f4465706f73697420616d6f756e74206d757374206265206772656174657220746044820152751a185b881b5a5b8819195c1bdcda5d08185b5bdd5b9d60521b606482015260840161080d565b600082116113285760405162461bcd60e51b815260206004820152602560248201527f5265636569766520616d6f756e74206d75737420626520677265617465722074604482015264068616e20360dc1b606482015260840161080d565b60008261133d670de0b6b3a764000086613d4e565b6113479190613d7b565b600d8054919250600091908261135c83613d8f565b9091555033600081815260046020908152604080832060019081018054808301825590855283852001869055815160e0810183529485528483018c81528583018c9052606086018c90526080860185905260a086018990528251858152808501845260c087015286855260059093529220835181546001600160a01b0319166001600160a01b03909116178155905193945091926113fe91830190600361339c565b5060408201516004820155606082015160058201556080820151600682015560a0820151600782015560c082015180516114429160088401916020909101906133da565b50506040516323b872dd60e01b8152336004820152306024820152604481018790527f00000000000000000000000000000000000000000000000000000000000000006001600160a01b031691506323b872dd906064016020604051808303816000875af11580156114b8573d6000803e3d6000fd5b505050506040513d601f19601f820116820180604052508101906114dc9190613da8565b506040805186815260208101849052849183917f36b046df2c296f2a5a78570d5e52a92773cbb616825b1af59a49a4d02df2b109910160405180910390a3505050505050565b6001600160a01b038116600090815260046020908152604080832060010180548251818502810185019093528083526060949383018282801561158457602002820191906000526020600020905b815481526020019060010190808311611570575b5050505050905080516001600160401b038111156115a4576115a461364e565b6040519080825280602002602001820160405280156115dd57816020015b6115ca613414565b8152602001906001900390816115c25790505b50915060005b815181101561176957600082828151811061160057611600613dca565b6020908102919091018101516000818152600583526040808220815160e08101835281546001600160a01b0316815282516060810190935293955091938301906001830160038282826020028201915b815481526020019060010190808311611650575050505050815260200160048201548152602001600582015481526020016006820154815260200160078201548152602001600882018054806020026020016040519081016040528092919081815260200182805480156116e357602002820191906000526020600020905b8154815260200190600101908083116116cf575b505050505081525050905060006116f983612786565b915050604051806080016040528084815260200161171a8460000151612122565b81526020018381526020018284606001516117359190613d01565b81525086858151811061174a5761174a613dca565b60200260200101819052505050508061176290613d8f565b90506115e3565b5050919050565b6117786126c1565b66b1a2bc2ec500008111156117da5760405162461bcd60e51b815260206004820152602260248201527f4665652063616e6e6f742062652067726561746572207468616e206d61782066604482015261656560f01b606482015260840161080d565b600b8190556040518181527f44f48e1b871e6db1e909a7b253b054b7150a0b4ddf4d59b159c827d82e725670906020016107da565b6000818152600660209081526040808320815160a08101835281546001600160a01b03908116825260018301548116828601526002830154828501819052600384015460608401526004909301546080830152918552600590935292208151919290911661188f5760405162461bcd60e51b815260040161080d90613de0565b80546001600160a01b031633146118e85760405162461bcd60e51b815260206004820152601c60248201527f43616c6c6572206d75737420626520746865206465706f7369746f7200000000604482015260640161080d565b6118f2818461298f565b816060015181600601600082825461190a9190613d14565b9250508190555042600360006119238560000151612122565b815260200190815260200160002060010181905550611946826040015182612a87565b6119508383612b7a565b505050565b6000805b8251811015611ab657600083828151811061197657611976613dca565b6020908102919091018101516000818152600590925260409091208054919250906001600160a01b031633146119ee5760405162461bcd60e51b815260206004820152601c60248201527f53656e646572206d75737420626520746865206465706f7369746f7200000000604482015260640161080d565b6000806119fa84612786565b91509150611a08838361292d565b808360050154611a189190613d01565b611a229087613d01565b955080836006016000828254611a389190613d14565b9091555050825460058401546001600160a01b039091169085907fae1f357660ab777dcfd38c0ab6357834684ec26289ecfa07ec65dbf6c3c6431290611a7f908590613d01565b60405190815260200160405180910390a360006005840155611aa18484612a87565b5050505080611aaf90613d8f565b9050611959565b5060405163a9059cbb60e01b8152336004820152602481018290527f00000000000000000000000000000000000000000000000000000000000000006001600160a01b03169063a9059cbb906044016020604051808303816000875af1158015611b24573d6000803e3d6000fd5b505050506040513d601f19601f820116820180604052508101906119509190613da8565b611b506126c1565b611b5a6000612d58565b565b606081516001600160401b03811115611b7757611b7761364e565b604051908082528060200260200182016040528015611bb057816020015b611b9d613414565b815260200190600190039081611b955790505b50905060005b8251811015611d3c576000838281518110611bd357611bd3613dca565b6020908102919091018101516000818152600583526040808220815160e08101835281546001600160a01b0316815282516060810190935293955091938301906001830160038282826020028201915b815481526020019060010190808311611c2357505050505081526020016004820154815260200160058201548152602001600682015481526020016007820154815260200160088201805480602002602001604051908101604052809291908181526020018280548015611cb657602002820191906000526020600020905b815481526020019060010190808311611ca2575b50505050508152505090506000611ccc83612786565b9150506040518060800160405280848152602001611ced8460000151612122565b8152602001838152602001828460600151611d089190613d01565b815250858581518110611d1d57611d1d613dca565b602002602001018190525050505080611d3590613d8f565b9050611bb6565b50919050565b6040805180820190915260008152606060208201526040518060400160405280611d6b84612122565b81526001600160a01b0384166000908152600460209081526040918290206001018054835181840281018401909452808452938201939091830182828015611dd257602002820191906000526020600020905b815481526020019060010190808311611dbe575b50505050508152509050919050565b611de96126c1565b80600003611e435760405162461bcd60e51b815260206004820152602160248201527f4d6178206f6e2072616d7020616d6f756e742063616e6e6f74206265207a65726044820152606f60f81b606482015260840161080d565b60088190556040518181527fcab6b49ca21dd111cf4a55d507bbe89dd12d69216e28247060d4b2163ca41b39906020016107da565b6000611e8333612122565b03611ea05760405162461bcd60e51b815260040161080d90613cb4565b6000611eab33612122565b6000818152600360208181526040808420878552909201905290205490915060ff16611f105760405162461bcd60e51b8152602060048201526014602482015273155cd95c881b9bdd081bdb8819195b9e5b1a5cdd60621b604482015260640161080d565b60008181526003602081815260408084208685528084018352908420805460ff191690559284905252611f469060020183612da8565b60408051828152602081018490527f8935205b1b382095d2d95efbb36f81a11a34c548d45af26adc1a02d2f2bb546f9101610908565b611f84613440565b600082815260056020908152604091829020825160e08101845281546001600160a01b031681528351606081019485905290939192840191600184019060039082845b815481526020019060010190808311611fc75750505050508152602001600482015481526020016005820154815260200160068201548152602001600782015481526020016008820180548060200260200160405190810160405280929190818152602001828054801561205a57602002820191906000526020600020905b815481526020019060010190808311612046575b5050505050815250509050919050565b6120726126c1565b6001600160a01b0381166120d45760405162461bcd60e51b8152602060048201526024808201527f46656520726563697069656e742063616e6e6f74206265207a65726f206164646044820152637265737360e01b606482015260840161080d565b600c80546001600160a01b0319166001600160a01b0383169081179091556040519081527f594ad6ee98bfc0c73e6d15fd4e762502f359e05d26907b7fa1ff82eb5e99f6e4906020016107da565b6001600160a01b0381166000908152600460205260408120541561215e576001600160a01b0382166000908152600460205260409020546121ee565b604051630f6a21fd60e31b81526001600160a01b0383811660048301527f00000000000000000000000000000000000000000000000000000000000000001690637b510fe890602401600060405180830381865afa1580156121c4573d6000803e3d6000fd5b505050506040513d6000823e601f3d908101601f191682016040526121ec9190810190613e0f565b515b92915050565b60006121ff33612122565b1461225c5760405162461bcd60e51b815260206004820152602760248201527f4163636f756e7420616c7265616479206173736f6369617465642077697468206044820152661d995b9b5bd25960ca1b606482015260840161080d565b600061226a85858585612ed1565b336000818152600460205260408082208490555192935083927f672144042732f7b1cdbf0772464ae545aedd7f41d38b8487dafd9085496a5d519190a35050505050565b6000818152600660209081526040808320815160a08101835281546001600160a01b039081168252600183015416938101939093526002810154918301919091526003810154606083015260040154608082018190529091036123235760405162461bcd60e51b815260040161080d90613de0565b61232c33612122565b815161233790612122565b146123845760405162461bcd60e51b815260206004820152601c60248201527f53656e646572206d75737420626520746865206f6e2d72616d70657200000000604482015260640161080d565b604080820151600090815260056020522061239f818461298f565b81606001518160050160008282546123b79190613d01565b909155505060608201516006820180546000906123d5908490613d14565b9091555050505050565b60008060006123f087878787612f71565b925092509250612400828261298f565b82606001518260060160008282546124189190613d14565b9250508190555042600360006124318660000151612122565b815260200190815260200160002060010181905550612454836040015183612a87565b61245e8184612b7a565b50505050505050565b60606000826001600160401b038111156124835761248361364e565b6040519080825280602002602001820160405280156124bc57816020015b6124a961348c565b8152602001906001900390816124a15790505b50905060005b838110156125af5760008585838181106124de576124de613dca565b60209081029290920135600081815260068452604090819020815160a08101835281546001600160a01b0390811682526001830154169581019590955260028101548583015260038101546060808701919091526004909101546080860152815190810190915290935090508088888681811061255d5761255d613dca565b90506020020135815260200182815260200161257c8360000151612122565b81525084848151811061259157612591613dca565b60200260200101819052505050806125a890613d8f565b90506124c2565b509392505050565b6125bf6126c1565b600180546001600160a01b0319166001600160a01b0383169081179091556040519081527f73d3ac111d5926fbfd68ade03832f0b1a4daef0cd0effc1fa0829264bcc57c41906020016107da565b6126156126c1565b6001600160a01b03811661267a5760405162461bcd60e51b815260206004820152602660248201527f4f776e61626c653a206e6577206f776e657220697320746865207a65726f206160448201526564647265737360d01b606482015260840161080d565b61268381612d58565b50565b60006003600061269585612122565b81526020808201929092526040908101600090812085825260030190925290205460ff16905092915050565b6000546001600160a01b03163314611b5a5760405162461bcd60e51b815260206004820181905260248201527f4f776e61626c653a2063616c6c6572206973206e6f7420746865206f776e6572604482015260640161080d565b6040805160208101849052908101829052426060820152600090819060800160408051601f198184030181529190528051602090910120905061277e7f30644e72e131a029b85045b68181585d2833e84879b9709143e1f593f000000182613edd565b949350505050565b600081815260056020908152604080832060080180548251818502810185019093528083526060949384939291908301828280156127e357602002820191906000526020600020905b8154815260200190600101908083116127cf575b5050505050905080516001600160401b038111156128035761280361364e565b60405190808252806020026020018201604052801561282c578160200160208202803683370190505b50925060005b81518110156129265760006006600084848151811061285357612853613dca565b6020908102919091018101518252818101929092526040908101600020815160a08101835281546001600160a01b03908116825260018301541693810193909352600281015491830191909152600381015460608301526004015460808201819052600a5491925042916128c691613d01565b1015612915578282815181106128de576128de613dca565b60200260200101518583815181106128f8576128f8613dca565b602090810291909101015260608101516129129085613d01565b93505b5061291f81613d8f565b9050612832565b5050915091565b60005b8151811015611950576000801b82828151811061294f5761294f613dca565b60200260200101511461297f5761297f8383838151811061297257612972613dca565b602002602001015161298f565b61298881613d8f565b9050612930565b6000818152600660209081526040808320815160a08101835281546001600160a01b0390811680835260018401549091169482019490945260028201549281019290925260038082015460608401526004909101546080830152909290916129f690612122565b8152602080820192909252604090810160009081208190558481526006909252812080546001600160a01b031990811682556001820180549091169055600281018290556003810182905560040155612a526008840183612da8565b604080820151905183907fe8a865b4bab023c399cbd1f2cdd0df2199beb6e5012a4bd2d7691cf7e4199d5a90600090a3505050565b600081600501548260060154612a9d9190613d01565b9050806000036119505781546001600160a01b03166000908152600460205260409020612acd9060010184613244565b8154604080518581526001600160a01b0390921660208301527f8ac07cc6e38c6222dd0309c80353c1962354bacf222b825d7401cc80e93ff3cc910160405180910390a1600083815260056020526040812080546001600160a01b0319168155600181018290556002810182905560038101829055906004820160009055600582016000905560068201600090556007820160009055600882016000612b7391906134b4565b5050505050565b6000600b54600014612c4657670de0b6b3a7640000600b548360600151612ba19190613d4e565b612bab9190613d7b565b600c5460405163a9059cbb60e01b81526001600160a01b039182166004820152602481018390529192507f0000000000000000000000000000000000000000000000000000000000000000169063a9059cbb906044016020604051808303816000875af1158015612c20573d6000803e3d6000fd5b505050506040513d601f19601f82011682018060405250810190612c449190613da8565b505b6000818360600151612c589190613d14565b602084015160405163a9059cbb60e01b81526001600160a01b039182166004820152602481018390529192507f0000000000000000000000000000000000000000000000000000000000000000169063a9059cbb906044016020604051808303816000875af1158015612ccf573d6000803e3d6000fd5b505050506040513d601f19601f82011682018060405250810190612cf39190613da8565b50825160408085015160208087015183516001600160a01b03918216815291820186905292810186905291909216919086907ffa03438194e61c243c6bb5349f1e1dc674431b86f119b5e3b2b327bc43446bce9060600160405180910390a450505050565b600080546001600160a01b038381166001600160a01b0319831681178455604051919092169283917f8be0079c531659141344cd1fd0a4f28419497f9722a3daafe3b4186f6b6457e09190a35050565b600080612e0484805480602002602001604051908101604052809291908181526020018280548015612df957602002820191906000526020600020905b815481526020019060010190808311612de5575b5050505050846132e9565b9150915080612e4d5760405162461bcd60e51b8152602060048201526015602482015274313cba32b99999103737ba1034b71030b93930bc9760591b604482015260640161080d565b8354600090612e5e90600190613d14565b9050808314612ea357848181548110612e7957612e79613dca565b9060005260206000200154858481548110612e9657612e96613dca565b6000918252602090912001555b84805480612eb357612eb3613ef1565b60019003818190600052602060002001600090559055505b50505050565b6001546040805160808101825286815260208101869052808201859052606081018490529051630be4767960e11b815260009283926001600160a01b03909116916317c8ecf291612f2491600401613f58565b6020604051808303816000875af1158015612f43573d6000803e3d6000fd5b505050506040513d601f19601f82011682018060405250810190612f679190613d35565b9695505050505050565b612f796134d2565b60025460408051608081018252878152602081018790528082018690526060810185905290516347f055c760e11b81526000928392839283928392839283926001600160a01b031691638fe0ab8e91612fd59190600401613fc7565b60a0604051808303816000875af1158015612ff4573d6000803e3d6000fd5b505050506040513d601f19601f82011682018060405250810190613018919061402c565b6000818152600660209081526040808320815160a08101835281546001600160a01b03908116825260018301548116828601526002830154828501819052600384015460608401526004909301546080830152918552600590935292208151979c50959a5093985091965094509092166130a45760405162461bcd60e51b815260040161080d90613de0565b85826080015111156131035760405162461bcd60e51b815260206004820152602260248201527f496e74656e7420776173206e6f742063726561746564206265666f72652073656044820152611b9960f21b606482015260840161080d565b80548590613119906001600160a01b0316612122565b146131665760405162461bcd60e51b815260206004820152601b60248201527f4f666672616d70657220696420646f6573206e6f74206d617463680000000000604482015260640161080d565b836131748360000151612122565b146131c15760405162461bcd60e51b815260206004820152601a60248201527f4f6e72616d70657220696420646f6573206e6f74206d61746368000000000000604482015260640161080d565b8060070154670de0b6b3a764000083606001516131de9190613d4e565b6131e89190613d7b565b8710156132305760405162461bcd60e51b81526020600482015260166024820152750a0c2f2dacadce840eec2e640dcdee840cadcdeeaced60531b604482015260640161080d565b909d909c50909a5098505050505050505050565b6000806132a08480548060200260200160405190810160405280929190818152602001828054801561329557602002820191906000526020600020905b815481526020019060010190808311613281575b50505050508461334c565b9150915080612e4d5760405162461bcd60e51b81526020600482015260156024820152743ab4b73a191a9b103737ba1034b71030b93930bc9760591b604482015260640161080d565b81516000908190815b81811015613339578486828151811061330d5761330d613dca565b602002602001015103613327579250600191506133459050565b8061333181613d8f565b9150506132f2565b50600019600092509250505b9250929050565b81516000908190815b81811015613339578486828151811061337057613370613dca565b60200260200101510361338a579250600191506133459050565b8061339481613d8f565b915050613355565b82600381019282156133ca579160200282015b828111156133ca5782518255916020019190600101906133af565b506133d6929150613513565b5090565b8280548282559060005260206000209081019282156133ca57916020028201828111156133ca5782518255916020019190600101906133af565b6040805160808101825260008082526020820152908101613433613440565b8152602001600081525090565b6040518060e0016040528060006001600160a01b03168152602001613463613528565b815260200160008152602001600081526020016000815260200160008152602001606081525090565b604080516060810190915260008152602081016134a76134d2565b8152600060209091015290565b50805460008255906000526020600020908101906126839190613513565b6040518060a0016040528060006001600160a01b0316815260200160006001600160a01b031681526020016000815260200160008152602001600081525090565b5b808211156133d65760008155600101613514565b60405180606001604052806003906020820280368337509192915050565b6001600160a01b038116811461268357600080fd5b60006020828403121561356d57600080fd5b813561357881613546565b9392505050565b60006020828403121561359157600080fd5b5035919050565b6000806000606084860312156135ad57600080fd5b833592506020840135915060408401356135c681613546565b809150509250925092565b6020808252825182820181905260009190848201906040850190845b81811015613609578351835292840192918401916001016135ed565b50909695505050505050565b6000806040838503121561362857600080fd5b823561363381613546565b9150602083013561364381613546565b809150509250929050565b634e487b7160e01b600052604160045260246000fd5b604080519081016001600160401b03811182821017156136865761368661364e565b60405290565b604051601f8201601f191681016001600160401b03811182821017156136b4576136b461364e565b604052919050565b600080600060a084860312156136d157600080fd5b84601f8501126136e057600080fd5b604051606081018181106001600160401b03821117156137025761370261364e565b60405280606086018781111561371757600080fd5b865b81811015613731578035835260209283019201613719565b5091979135965050608094909401359392505050565b8060005b6003811015612ecb57815184526020938401939091019060010161374b565b600061012080840160018060a01b03845116855260208085015161379082880182613747565b5060408501516080870152606085015160a0870152608085015160c087015260a085015160e087015260c0850151836101008801528293508051808452610140880194508282019350600091505b808210156137fe57835185529382019392820192600191909101906137de565b50929695505050505050565b60006020808301818452808551808352604092508286019150828160051b87010184880160005b8381101561388857603f19898403018552815160808151855288820151898601528782015181898701526138678287018261376a565b60609384015196909301959095525094870194925090860190600101613831565b509098975050505050505050565b60006001600160401b038211156138af576138af61364e565b5060051b60200190565b600060208083850312156138cc57600080fd5b82356001600160401b038111156138e257600080fd5b8301601f810185136138f357600080fd5b803561390661390182613896565b61368c565b81815260059190911b8201830190838101908783111561392557600080fd5b928401925b828410156139435783358252928401929084019061392a565b979650505050505050565b60208082528251828201528281015160408084015280516060840181905260009291820190839060808601905b8083101561399b578351825292840192600192909201919084019061397b565b509695505050505050565b602081526000613578602083018461376a565b600082601f8301126139ca57600080fd5b6139d2613664565b8060408401858111156139e457600080fd5b845b818110156139fe5780358452602093840193016139e6565b509095945050505050565b600082601f830112613a1a57600080fd5b613a22613664565b806080840185811115613a3457600080fd5b845b818110156139fe57613a4887826139b9565b8452602090930192604001613a36565b6000806000806101a0808688031215613a7057600080fd5b613a7a87876139b9565b9450613a898760408801613a09565b9350613a988760c088016139b9565b92508661011f870112613aaa57600080fd5b60405160a081018181106001600160401b0382111715613acc57613acc61364e565b604052908601908088831115613ae157600080fd5b61010088015b83811015613aff578035825260209182019101613ae7565b5050809250505092959194509250565b600080600080610280808688031215613b2757600080fd5b613b3187876139b9565b9450613b408760408801613a09565b9350613b4f8760c088016139b9565b92508661011f870112613b6157600080fd5b60405161018081018181106001600160401b0382111715613acc57613acc61364e565b60008060208385031215613b9757600080fd5b82356001600160401b0380821115613bae57600080fd5b818501915085601f830112613bc257600080fd5b813581811115613bd157600080fd5b8660208260051b8501011115613be657600080fd5b60209290920196919550909350505050565b602080825282518282018190526000919060409081850190868401855b82811015613c7b578151805185528681015180516001600160a01b039081168988015281890151168787015286810151606080880191909152810151608080880191909152015160a086015285015160c085015260e09093019290850190600101613c15565b5091979650505050505050565b60008060408385031215613c9b57600080fd5b8235613ca681613546565b946020939093013593505050565b6020808252601e908201527f43616c6c6572206d757374206265207265676973746572656420757365720000604082015260600190565b634e487b7160e01b600052601160045260246000fd5b808201808211156121ee576121ee613ceb565b818103818111156121ee576121ee613ceb565b606081016121ee8284613747565b600060208284031215613d4757600080fd5b5051919050565b80820281158282048414176121ee576121ee613ceb565b634e487b7160e01b600052601260045260246000fd5b600082613d8a57613d8a613d65565b500490565b600060018201613da157613da1613ceb565b5060010190565b600060208284031215613dba57600080fd5b8151801515811461357857600080fd5b634e487b7160e01b600052603260045260246000fd5b602080825260159082015274125b9d195b9d08191bd95cc81b9bdd08195e1a5cdd605a1b604082015260600190565b60006020808385031215613e2257600080fd5b82516001600160401b0380821115613e3957600080fd5b9084019060408287031215613e4d57600080fd5b613e55613664565b825181528383015182811115613e6a57600080fd5b80840193505086601f840112613e7f57600080fd5b82519150613e8f61390183613896565b82815260059290921b83018401918481019088841115613eae57600080fd5b938501935b83851015613ecc57845182529385019390850190613eb3565b948201949094529695505050505050565b600082613eec57613eec613d65565b500690565b634e487b7160e01b600052603160045260246000fd5b8060005b6002811015612ecb578151845260209384019390910190600101613f0b565b8060005b6002811015612ecb57613f42848351613f07565b6040939093019260209190910190600101613f2e565b60006101a082019050613f6c828451613f07565b602080840151613f7f6040850182613f2a565b506040840151613f9260c0850182613f07565b506060840151610100840160005b6005811015613fbd57825182529183019190830190600101613fa0565b5050505092915050565b600061028082019050613fdb828451613f07565b602080840151613fee6040850182613f2a565b50604084015161400160c0850182613f07565b506060840151610100840160005b600c811015613fbd5782518252918301919083019060010161400f565b600080600080600060a0868803121561404457600080fd5b505083516020850151604086015160608701516080909701519298919750959450909250905056fea26469706673582212205f324bcc64951b344706a8dfc43dadc49148f6b3a1ef8999a96c6941721f73f764736f6c63430008120033",
  "devdoc": {
    "kind": "dev",
    "methods": {
      "addAccountToDenylist(bytes32)": {
        "params": {
          "_deniedUser": "Poseidon hash of the venmoId being banned"
        }
      },
      "cancelIntent(bytes32)": {
        "params": {
          "_intentHash": "Hash of intent being cancelled"
        }
      },
      "initialize(address,address)": {
        "params": {
          "_registrationProcessor": "Registration processor address",
          "_sendProcessor": "Send processor address"
        }
      },
      "offRamp(uint256[3],uint256,uint256)": {
        "params": {
          "_depositAmount": "The amount of USDC to off-ramp",
          "_packedVenmoId": "The packed venmo id of the account owner (we pack for easy use with poseidon)",
          "_receiveAmount": "The amount of USD to receive"
        }
      },
      "onRamp(uint256[2],uint256[2][2],uint256[2],uint256[12])": {
        "params": {
          "_a": "Parameter of zk proof",
          "_b": "Parameter of zk proof",
          "_c": "Parameter of zk proof",
          "_signals": "Encoded public signals of the zk proof, contains mailserverHash, fromEmail, timestamp, onRamperIdHash,                  nullifier, intentHash"
        }
      },
      "owner()": {
        "details": "Returns the address of the current owner."
      },
      "register(uint256[2],uint256[2][2],uint256[2],uint256[5])": {
        "params": {
          "_a": "Parameter of zk proof",
          "_b": "Parameter of zk proof",
          "_c": "Parameter of zk proof",
          "_signals": "Encoded public signals of the zk proof, contains mailserverHash, fromEmail, userIdHash"
        }
      },
      "releaseFundsToOnramper(bytes32)": {
        "params": {
          "_intentHash": "Hash of intent to resolve by releasing the funds"
        }
      },
      "removeAccountFromDenylist(bytes32)": {
        "params": {
          "_approvedUser": "Poseidon hash of the venmoId being approved"
        }
      },
      "renounceOwnership()": {
        "details": "Leaves the contract without owner. It will not be possible to call `onlyOwner` functions. Can only be called by the current owner. NOTE: Renouncing ownership will leave the contract without an owner, thereby disabling any functionality that is only available to the owner."
      },
      "setIntentExpirationPeriod(uint256)": {
        "params": {
          "_intentExpirationPeriod": "New intent expiration period"
        }
      },
      "setMaxOnRampAmount(uint256)": {
        "params": {
          "_maxOnRampAmount": "The new max on ramp amount"
        }
      },
      "setMinDepositAmount(uint256)": {
        "params": {
          "_minDepositAmount": "The new minimum deposit amount"
        }
      },
      "setOnRampCooldownPeriod(uint256)": {
        "params": {
          "_onRampCooldownPeriod": "New on-ramp cooldown period"
        }
      },
      "setRegistrationProcessor(address)": {
        "params": {
          "_registrationProcessor": "New registration proccesor address"
        }
      },
      "setSendProcessor(address)": {
        "params": {
          "_sendProcessor": "New send proccesor address"
        }
      },
      "setSustainabilityFee(uint256)": {
        "params": {
          "_fee": "The new sustainability fee in precise units (10**18, ie 10% = 1e17)"
        }
      },
      "setSustainabilityFeeRecipient(address)": {
        "params": {
          "_feeRecipient": "The new fee recipient address"
        }
      },
      "signalIntent(uint256,uint256,address)": {
        "params": {
          "_amount": "The amount of USDC the user wants to on-ramp",
          "_depositId": "The ID of the deposit the on-ramper intends to use for ",
          "_to": "Address to forward funds to (can be same as onRamper)"
        }
      },
      "transferOwnership(address)": {
        "details": "Transfers ownership of the contract to a new account (`newOwner`). Can only be called by the current owner."
      },
      "withdrawDeposit(uint256[])": {
        "params": {
          "_depositIds": "Array of depositIds the depositor is attempting to withdraw"
        }
      }
    },
    "version": 1
  },
  "userdoc": {
    "kind": "user",
    "methods": {
      "addAccountToDenylist(bytes32)": {
        "notice": "Adds a venmoId to a depositor's deny list. If an address associated with the banned venmoId attempts to signal an intent on the user's deposit they will be denied."
      },
      "cancelIntent(bytes32)": {
        "notice": "Only callable by the originator of the intent. Cancels an outstanding intent thus allowing user to signal a new intent. Deposit state is updated to reflect the cancelled intent."
      },
      "initialize(address,address)": {
        "notice": "Initialize Ramp with the addresses of the Processors"
      },
      "offRamp(uint256[3],uint256,uint256)": {
        "notice": "Generates a deposit entry for off-rampers that can then be fulfilled by an on-ramper. This function will not add to previous deposits. Every deposit has it's own unique identifier. User must approve the contract to transfer the deposit amount of USDC."
      },
      "onRamp(uint256[2],uint256[2][2],uint256[2],uint256[12])": {
        "notice": "Anyone can submit an on-ramp transaction, even if caller isn't on-ramper. Upon submission the proof is validated, intent is removed, and deposit state is updated. USDC is transferred to the on-ramper."
      },
      "register(uint256[2],uint256[2][2],uint256[2],uint256[5])": {
        "notice": "Registers a new account by pulling the hash of the account id from the proof and assigning the account owner to the sender of the transaction. One venmo account can be registered to multiple Ethereum addresses."
      },
      "releaseFundsToOnramper(bytes32)": {
        "notice": "Allows off-ramper to release funds to the on-ramper in case of a failed on-ramp or because of some other arrangement between the two parties. Upon submission we check to make sure the msg.sender is the depositor, the  intent is removed, and  deposit state is updated. USDC is transferred to the on-ramper."
      },
      "removeAccountFromDenylist(bytes32)": {
        "notice": "Removes a venmoId from a depositor's deny list."
      },
      "setIntentExpirationPeriod(uint256)": {
        "notice": "GOVERNANCE ONLY: Updates the intent expiration period, after this period elapses an intent can be pruned to prevent locking up a depositor's funds."
      },
      "setMaxOnRampAmount(uint256)": {
        "notice": "GOVERNANCE ONLY: Updates the max amount allowed to be on-ramped in each transaction. To on-ramp more than this amount a user must make multiple transactions."
      },
      "setMinDepositAmount(uint256)": {
        "notice": "GOVERNANCE ONLY: Updates the minimum deposit amount a user can specify for off-ramping."
      },
      "setOnRampCooldownPeriod(uint256)": {
        "notice": "GOVERNANCE ONLY: Updates the on-ramp cooldown period, once an on-ramp transaction is completed the user must wait this amount of time before they can signalIntent to on-ramp again."
      },
      "setRegistrationProcessor(address)": {
        "notice": "GOVERNANCE ONLY: Updates the registration processor address used for validating and interpreting zk proofs."
      },
      "setSendProcessor(address)": {
        "notice": "GOVERNANCE ONLY: Updates the send processor address used for validating and interpreting zk proofs."
      },
      "setSustainabilityFee(uint256)": {
        "notice": "GOVERNANCE ONLY: Updates the sustainability fee. This fee is charged to on-rampers upon a successful on-ramp."
      },
      "setSustainabilityFeeRecipient(address)": {
        "notice": "GOVERNANCE ONLY: Updates the recepient of sustainability fees."
      },
      "signalIntent(uint256,uint256,address)": {
        "notice": "Signals intent to pay the depositor defined in the _depositId the _amount * deposit conversionRate off-chain in order to unlock _amount of funds on-chain. Each user can only have one outstanding intent at a time regardless of address (tracked using venmoId). Caller must not be on the depositor's deny list. If there are prunable intents then they will be deleted from the deposit to be able to maintain state hygiene."
      },
      "withdrawDeposit(uint256[])": {
        "notice": "Caller must be the depositor for each depositId in the array, if not whole function fails. Depositor is returned all remaining deposits and any outstanding intents that are expired. If an intent is not expired then those funds will not be returned. Deposit will be deleted as long as there are no more outstanding intents."
      }
    },
    "version": 1
  },
  "storageLayout": {
    "storage": [
      {
        "astId": 7,
        "contract": "contracts/ramps/venmo-v2/VenmoRampV2.sol:VenmoRampV2",
        "label": "_owner",
        "offset": 0,
        "slot": "0",
        "type": "t_address"
      },
      {
        "astId": 9938,
        "contract": "contracts/ramps/venmo-v2/VenmoRampV2.sol:VenmoRampV2",
        "label": "registrationProcessor",
        "offset": 0,
        "slot": "1",
        "type": "t_contract(IRegistrationProcessorV2)12363"
      },
      {
        "astId": 9941,
        "contract": "contracts/ramps/venmo-v2/VenmoRampV2.sol:VenmoRampV2",
        "label": "sendProcessor",
        "offset": 0,
        "slot": "2",
        "type": "t_contract(ISendProcessor)9598"
      },
      {
        "astId": 9943,
        "contract": "contracts/ramps/venmo-v2/VenmoRampV2.sol:VenmoRampV2",
        "label": "isInitialized",
        "offset": 20,
        "slot": "2",
        "type": "t_bool"
      },
      {
        "astId": 9948,
        "contract": "contracts/ramps/venmo-v2/VenmoRampV2.sol:VenmoRampV2",
        "label": "globalAccount",
        "offset": 0,
        "slot": "3",
        "type": "t_mapping(t_bytes32,t_struct(GlobalAccountInfo)9897_storage)"
      },
      {
        "astId": 9953,
        "contract": "contracts/ramps/venmo-v2/VenmoRampV2.sol:VenmoRampV2",
        "label": "accounts",
        "offset": 0,
        "slot": "4",
        "type": "t_mapping(t_address,t_struct(AccountInfo)9834_storage)"
      },
      {
        "astId": 9958,
        "contract": "contracts/ramps/venmo-v2/VenmoRampV2.sol:VenmoRampV2",
        "label": "deposits",
        "offset": 0,
        "slot": "5",
        "type": "t_mapping(t_uint256,t_struct(Deposit)9852_storage)"
      },
      {
        "astId": 9963,
        "contract": "contracts/ramps/venmo-v2/VenmoRampV2.sol:VenmoRampV2",
        "label": "intents",
        "offset": 0,
        "slot": "6",
        "type": "t_mapping(t_bytes32,t_struct(Intent)9873_storage)"
      },
      {
        "astId": 9965,
        "contract": "contracts/ramps/venmo-v2/VenmoRampV2.sol:VenmoRampV2",
        "label": "minDepositAmount",
        "offset": 0,
        "slot": "7",
        "type": "t_uint256"
      },
      {
        "astId": 9967,
        "contract": "contracts/ramps/venmo-v2/VenmoRampV2.sol:VenmoRampV2",
        "label": "maxOnRampAmount",
        "offset": 0,
        "slot": "8",
        "type": "t_uint256"
      },
      {
        "astId": 9969,
        "contract": "contracts/ramps/venmo-v2/VenmoRampV2.sol:VenmoRampV2",
        "label": "onRampCooldownPeriod",
        "offset": 0,
        "slot": "9",
        "type": "t_uint256"
      },
      {
        "astId": 9971,
        "contract": "contracts/ramps/venmo-v2/VenmoRampV2.sol:VenmoRampV2",
        "label": "intentExpirationPeriod",
        "offset": 0,
        "slot": "10",
        "type": "t_uint256"
      },
      {
        "astId": 9973,
        "contract": "contracts/ramps/venmo-v2/VenmoRampV2.sol:VenmoRampV2",
        "label": "sustainabilityFee",
        "offset": 0,
        "slot": "11",
        "type": "t_uint256"
      },
      {
        "astId": 9975,
        "contract": "contracts/ramps/venmo-v2/VenmoRampV2.sol:VenmoRampV2",
        "label": "sustainabilityFeeRecipient",
        "offset": 0,
        "slot": "12",
        "type": "t_address"
      },
      {
        "astId": 9977,
        "contract": "contracts/ramps/venmo-v2/VenmoRampV2.sol:VenmoRampV2",
        "label": "depositCounter",
        "offset": 0,
        "slot": "13",
        "type": "t_uint256"
      }
    ],
    "types": {
      "t_address": {
        "encoding": "inplace",
        "label": "address",
        "numberOfBytes": "20"
      },
      "t_array(t_bytes32)dyn_storage": {
        "base": "t_bytes32",
        "encoding": "dynamic_array",
        "label": "bytes32[]",
        "numberOfBytes": "32"
      },
      "t_array(t_uint256)3_storage": {
        "base": "t_uint256",
        "encoding": "inplace",
        "label": "uint256[3]",
        "numberOfBytes": "96"
      },
      "t_array(t_uint256)dyn_storage": {
        "base": "t_uint256",
        "encoding": "dynamic_array",
        "label": "uint256[]",
        "numberOfBytes": "32"
      },
      "t_bool": {
        "encoding": "inplace",
        "label": "bool",
        "numberOfBytes": "1"
      },
      "t_bytes32": {
        "encoding": "inplace",
        "label": "bytes32",
        "numberOfBytes": "32"
      },
      "t_contract(IRegistrationProcessorV2)12363": {
        "encoding": "inplace",
        "label": "contract IRegistrationProcessorV2",
        "numberOfBytes": "20"
      },
      "t_contract(ISendProcessor)9598": {
        "encoding": "inplace",
        "label": "contract ISendProcessor",
        "numberOfBytes": "20"
      },
      "t_mapping(t_address,t_struct(AccountInfo)9834_storage)": {
        "encoding": "mapping",
        "key": "t_address",
        "label": "mapping(address => struct VenmoRampV2.AccountInfo)",
        "numberOfBytes": "32",
        "value": "t_struct(AccountInfo)9834_storage"
      },
      "t_mapping(t_bytes32,t_bool)": {
        "encoding": "mapping",
        "key": "t_bytes32",
        "label": "mapping(bytes32 => bool)",
        "numberOfBytes": "32",
        "value": "t_bool"
      },
      "t_mapping(t_bytes32,t_struct(GlobalAccountInfo)9897_storage)": {
        "encoding": "mapping",
        "key": "t_bytes32",
        "label": "mapping(bytes32 => struct VenmoRampV2.GlobalAccountInfo)",
        "numberOfBytes": "32",
        "value": "t_struct(GlobalAccountInfo)9897_storage"
      },
      "t_mapping(t_bytes32,t_struct(Intent)9873_storage)": {
        "encoding": "mapping",
        "key": "t_bytes32",
        "label": "mapping(bytes32 => struct VenmoRampV2.Intent)",
        "numberOfBytes": "32",
        "value": "t_struct(Intent)9873_storage"
      },
      "t_mapping(t_uint256,t_struct(Deposit)9852_storage)": {
        "encoding": "mapping",
        "key": "t_uint256",
        "label": "mapping(uint256 => struct VenmoRampV2.Deposit)",
        "numberOfBytes": "32",
        "value": "t_struct(Deposit)9852_storage"
      },
      "t_struct(AccountInfo)9834_storage": {
        "encoding": "inplace",
        "label": "struct VenmoRampV2.AccountInfo",
        "members": [
          {
            "astId": 9830,
            "contract": "contracts/ramps/venmo-v2/VenmoRampV2.sol:VenmoRampV2",
            "label": "venmoIdHash",
            "offset": 0,
            "slot": "0",
            "type": "t_bytes32"
          },
          {
            "astId": 9833,
            "contract": "contracts/ramps/venmo-v2/VenmoRampV2.sol:VenmoRampV2",
            "label": "deposits",
            "offset": 0,
            "slot": "1",
            "type": "t_array(t_uint256)dyn_storage"
          }
        ],
        "numberOfBytes": "64"
      },
      "t_struct(DenyList)9889_storage": {
        "encoding": "inplace",
        "label": "struct VenmoRampV2.DenyList",
        "members": [
          {
            "astId": 9884,
            "contract": "contracts/ramps/venmo-v2/VenmoRampV2.sol:VenmoRampV2",
            "label": "deniedUsers",
            "offset": 0,
            "slot": "0",
            "type": "t_array(t_bytes32)dyn_storage"
          },
          {
            "astId": 9888,
            "contract": "contracts/ramps/venmo-v2/VenmoRampV2.sol:VenmoRampV2",
            "label": "isDenied",
            "offset": 0,
            "slot": "1",
            "type": "t_mapping(t_bytes32,t_bool)"
          }
        ],
        "numberOfBytes": "64"
      },
      "t_struct(Deposit)9852_storage": {
        "encoding": "inplace",
        "label": "struct VenmoRampV2.Deposit",
        "members": [
          {
            "astId": 9836,
            "contract": "contracts/ramps/venmo-v2/VenmoRampV2.sol:VenmoRampV2",
            "label": "depositor",
            "offset": 0,
            "slot": "0",
            "type": "t_address"
          },
          {
            "astId": 9840,
            "contract": "contracts/ramps/venmo-v2/VenmoRampV2.sol:VenmoRampV2",
            "label": "packedVenmoId",
            "offset": 0,
            "slot": "1",
            "type": "t_array(t_uint256)3_storage"
          },
          {
            "astId": 9842,
            "contract": "contracts/ramps/venmo-v2/VenmoRampV2.sol:VenmoRampV2",
            "label": "depositAmount",
            "offset": 0,
            "slot": "4",
            "type": "t_uint256"
          },
          {
            "astId": 9844,
            "contract": "contracts/ramps/venmo-v2/VenmoRampV2.sol:VenmoRampV2",
            "label": "remainingDeposits",
            "offset": 0,
            "slot": "5",
            "type": "t_uint256"
          },
          {
            "astId": 9846,
            "contract": "contracts/ramps/venmo-v2/VenmoRampV2.sol:VenmoRampV2",
            "label": "outstandingIntentAmount",
            "offset": 0,
            "slot": "6",
            "type": "t_uint256"
          },
          {
            "astId": 9848,
            "contract": "contracts/ramps/venmo-v2/VenmoRampV2.sol:VenmoRampV2",
            "label": "conversionRate",
            "offset": 0,
            "slot": "7",
            "type": "t_uint256"
          },
          {
            "astId": 9851,
            "contract": "contracts/ramps/venmo-v2/VenmoRampV2.sol:VenmoRampV2",
            "label": "intentHashes",
            "offset": 0,
            "slot": "8",
            "type": "t_array(t_bytes32)dyn_storage"
          }
        ],
        "numberOfBytes": "288"
      },
      "t_struct(GlobalAccountInfo)9897_storage": {
        "encoding": "inplace",
        "label": "struct VenmoRampV2.GlobalAccountInfo",
        "members": [
          {
            "astId": 9891,
            "contract": "contracts/ramps/venmo-v2/VenmoRampV2.sol:VenmoRampV2",
            "label": "currentIntentHash",
            "offset": 0,
            "slot": "0",
            "type": "t_bytes32"
          },
          {
            "astId": 9893,
            "contract": "contracts/ramps/venmo-v2/VenmoRampV2.sol:VenmoRampV2",
            "label": "lastOnrampTimestamp",
            "offset": 0,
            "slot": "1",
            "type": "t_uint256"
          },
          {
            "astId": 9896,
            "contract": "contracts/ramps/venmo-v2/VenmoRampV2.sol:VenmoRampV2",
            "label": "denyList",
            "offset": 0,
            "slot": "2",
            "type": "t_struct(DenyList)9889_storage"
          }
        ],
        "numberOfBytes": "128"
      },
      "t_struct(Intent)9873_storage": {
        "encoding": "inplace",
        "label": "struct VenmoRampV2.Intent",
        "members": [
          {
            "astId": 9864,
            "contract": "contracts/ramps/venmo-v2/VenmoRampV2.sol:VenmoRampV2",
            "label": "onRamper",
            "offset": 0,
            "slot": "0",
            "type": "t_address"
          },
          {
            "astId": 9866,
            "contract": "contracts/ramps/venmo-v2/VenmoRampV2.sol:VenmoRampV2",
            "label": "to",
            "offset": 0,
            "slot": "1",
            "type": "t_address"
          },
          {
            "astId": 9868,
            "contract": "contracts/ramps/venmo-v2/VenmoRampV2.sol:VenmoRampV2",
            "label": "deposit",
            "offset": 0,
            "slot": "2",
            "type": "t_uint256"
          },
          {
            "astId": 9870,
            "contract": "contracts/ramps/venmo-v2/VenmoRampV2.sol:VenmoRampV2",
            "label": "amount",
            "offset": 0,
            "slot": "3",
            "type": "t_uint256"
          },
          {
            "astId": 9872,
            "contract": "contracts/ramps/venmo-v2/VenmoRampV2.sol:VenmoRampV2",
            "label": "intentTimestamp",
            "offset": 0,
            "slot": "4",
            "type": "t_uint256"
          }
        ],
        "numberOfBytes": "160"
      },
      "t_uint256": {
        "encoding": "inplace",
        "label": "uint256",
        "numberOfBytes": "32"
      }
    }
  }
}