{
  "address": "0x9011fC66C34546511cf1e514F248fB98Af95b96d",
  "abi": [
    {
      "inputs": [
        {
          "internalType": "address",
          "name": "_ramp",
          "type": "address"
        },
        {
          "internalType": "contract IKeyHashAdapter",
          "name": "_venmoMailserverKeyHashAdapter",
          "type": "address"
        },
        {
          "internalType": "contract INullifierRegistry",
          "name": "_nullifierRegistry",
          "type": "address"
        },
        {
          "internalType": "string",
          "name": "_emailFromAddress",
          "type": "string"
        }
      ],
      "stateMutability": "nonpayable",
      "type": "constructor"
    },
    {
      "anonymous": false,
      "inputs": [
        {
          "indexed": true,
          "internalType": "address",
          "name": "previousOwner",
          "type": "address"
        },
        {
          "indexed": true,
          "internalType": "address",
          "name": "newOwner",
          "type": "address"
        }
      ],
      "name": "OwnershipTransferred",
      "type": "event"
    },
    {
      "inputs": [],
      "name": "PACK_SIZE",
      "outputs": [
        {
          "internalType": "uint256",
          "name": "",
          "type": "uint256"
        }
      ],
      "stateMutability": "view",
      "type": "function"
    },
    {
      "inputs": [],
      "name": "emailFromAddress",
      "outputs": [
        {
          "internalType": "bytes",
          "name": "",
          "type": "bytes"
        }
      ],
      "stateMutability": "view",
      "type": "function"
    },
    {
      "inputs": [],
      "name": "getEmailFromAddress",
      "outputs": [
        {
          "internalType": "bytes",
          "name": "",
          "type": "bytes"
        }
      ],
      "stateMutability": "view",
      "type": "function"
    },
    {
      "inputs": [],
      "name": "getMailserverKeyHash",
      "outputs": [
        {
          "internalType": "bytes32",
          "name": "",
          "type": "bytes32"
        }
      ],
      "stateMutability": "view",
      "type": "function"
    },
    {
      "inputs": [],
      "name": "mailserverKeyHashAdapter",
      "outputs": [
        {
          "internalType": "contract IKeyHashAdapter",
          "name": "",
          "type": "address"
        }
      ],
      "stateMutability": "view",
      "type": "function"
    },
    {
      "inputs": [],
      "name": "nullifierRegistry",
      "outputs": [
        {
          "internalType": "contract INullifierRegistry",
          "name": "",
          "type": "address"
        }
      ],
      "stateMutability": "view",
      "type": "function"
    },
    {
      "inputs": [],
      "name": "owner",
      "outputs": [
        {
          "internalType": "address",
          "name": "",
          "type": "address"
        }
      ],
      "stateMutability": "view",
      "type": "function"
    },
    {
      "inputs": [
        {
          "components": [
            {
              "internalType": "uint256[2]",
              "name": "a",
              "type": "uint256[2]"
            },
            {
              "internalType": "uint256[2][2]",
              "name": "b",
              "type": "uint256[2][2]"
            },
            {
              "internalType": "uint256[2]",
              "name": "c",
              "type": "uint256[2]"
            },
            {
              "internalType": "uint256[12]",
              "name": "signals",
              "type": "uint256[12]"
            }
          ],
          "internalType": "struct ISendProcessor.SendProof",
          "name": "_proof",
          "type": "tuple"
        }
      ],
      "name": "processProof",
      "outputs": [
        {
          "internalType": "uint256",
          "name": "amount",
          "type": "uint256"
        },
        {
          "internalType": "uint256",
          "name": "timestamp",
          "type": "uint256"
        },
        {
          "internalType": "bytes32",
          "name": "offRamperIdHash",
          "type": "bytes32"
        },
        {
          "internalType": "bytes32",
          "name": "onRamperIdHash",
          "type": "bytes32"
        },
        {
          "internalType": "bytes32",
          "name": "intentHash",
          "type": "bytes32"
        }
      ],
      "stateMutability": "nonpayable",
      "type": "function"
    },
    {
      "inputs": [],
      "name": "ramp",
      "outputs": [
        {
          "internalType": "address",
          "name": "",
          "type": "address"
        }
      ],
      "stateMutability": "view",
      "type": "function"
    },
    {
      "inputs": [],
      "name": "renounceOwnership",
      "outputs": [],
      "stateMutability": "nonpayable",
      "type": "function"
    },
    {
      "inputs": [
        {
          "internalType": "string",
          "name": "_emailFromAddress",
          "type": "string"
        }
      ],
      "name": "setEmailFromAddress",
      "outputs": [],
      "stateMutability": "nonpayable",
      "type": "function"
    },
    {
      "inputs": [
        {
          "internalType": "contract IKeyHashAdapter",
          "name": "_mailserverKeyHashAdapter",
          "type": "address"
        }
      ],
      "name": "setMailserverKeyHashAdapter",
      "outputs": [],
      "stateMutability": "nonpayable",
      "type": "function"
    },
    {
      "inputs": [
        {
          "internalType": "address",
          "name": "newOwner",
          "type": "address"
        }
      ],
      "name": "transferOwnership",
      "outputs": [],
      "stateMutability": "nonpayable",
      "type": "function"
    },
    {
      "inputs": [
        {
          "internalType": "uint256[2]",
          "name": "_pA",
          "type": "uint256[2]"
        },
        {
          "internalType": "uint256[2][2]",
          "name": "_pB",
          "type": "uint256[2][2]"
        },
        {
          "internalType": "uint256[2]",
          "name": "_pC",
          "type": "uint256[2]"
        },
        {
          "internalType": "uint256[12]",
          "name": "_pubSignals",
          "type": "uint256[12]"
        }
      ],
      "name": "verifyProof",
      "outputs": [
        {
          "internalType": "bool",
          "name": "",
          "type": "bool"
        }
      ],
      "stateMutability": "view",
      "type": "function"
    }
  ],
  "transactionHash": "0xd00b0bd0167724d27e5c95dd6dafc775e526c323e22ac5122252221271cb989a",
  "args": [
    "0xB084f36C5B7193af8Dd17025b36FBe2DD496a06f",
    "0x8FF8F6698Bd7bafFaD97D23ed46c5dD0b515B0BA",
    "0x8Ccd3701bD7120D9b390B8b2060AF154f8fD190b",
    "venmo@venmo.com"
  ],
  "numDeployments": 1,
  "solcInputHash": "582bda84e77341f31e48e553d6955fd7",
  "bytecode": "0x60a06040523480156200001157600080fd5b506040516200226438038062002264833981016040819052620000349162000114565b83838383620000433362000095565b6001600160a01b03848116608052600180546001600160a01b031990811686841617909155600280549091169184169190911790556003620000868282620002b9565b50505050505050505062000385565b600080546001600160a01b038381166001600160a01b0319831681178455604051919092169283917f8be0079c531659141344cd1fd0a4f28419497f9722a3daafe3b4186f6b6457e09190a35050565b6001600160a01b0381168114620000fb57600080fd5b50565b634e487b7160e01b600052604160045260246000fd5b600080600080608085870312156200012b57600080fd5b84516200013881620000e5565b809450506020808601516200014d81620000e5565b60408701519094506200016081620000e5565b60608701519093506001600160401b03808211156200017e57600080fd5b818801915088601f8301126200019357600080fd5b815181811115620001a857620001a8620000fe565b604051601f8201601f19908116603f01168101908382118183101715620001d357620001d3620000fe565b816040528281528b86848701011115620001ec57600080fd5b600093505b82841015620002105784840186015181850187015292850192620001f1565b600086848301015280965050505050505092959194509250565b600181811c908216806200023f57607f821691505b6020821081036200026057634e487b7160e01b600052602260045260246000fd5b50919050565b601f821115620002b457600081815260208120601f850160051c810160208610156200028f5750805b601f850160051c820191505b81811015620002b0578281556001016200029b565b5050505b505050565b81516001600160401b03811115620002d557620002d5620000fe565b620002ed81620002e684546200022a565b8462000266565b602080601f8311600181146200032557600084156200030c5750858301515b600019600386901b1c1916600185901b178555620002b0565b600085815260208120601f198616915b82811015620003565788860151825594840194600190910190840162000335565b5085821015620003755787850151600019600388901b60f8161c191681555b5050505050600190811b01905550565b608051611ebd620003a76000396000818160f40152610ad30152611ebd6000f3fe608060405234801561001057600080fd5b50600436106100ea5760003560e01c8063a87cb6ea1161008c578063ced1e97811610066578063ced1e97814610205578063d0b71f991461020d578063f2fde38b14610220578063f6c7226b1461023357600080fd5b8063a87cb6ea146101d5578063b870676c146101dd578063c0d05fed146101f057600080fd5b8063715018a6116100c8578063715018a61461015c5780638cbac0fa146101665780638da5cb5b146101895780638fe0ab8e1461019a57600080fd5b806315d276e1146100ef5780633d0c9cc414610133578063672ae59714610149575b600080fd5b6101167f000000000000000000000000000000000000000000000000000000000000000081565b6040516001600160a01b0390911681526020015b60405180910390f35b61013b600781565b60405190815260200161012a565b600154610116906001600160a01b031681565b610164610246565b005b61017961017436600461185f565b61025a565b604051901515815260200161012a565b6000546001600160a01b0316610116565b6101ad6101a83660046118c5565b610ac2565b604080519586526020860194909452928401919091526060830152608082015260a00161012a565b61013b610d57565b600254610116906001600160a01b031681565b6101f8610dca565b60405161012a9190611902565b6101f8610e58565b61016461021b36600461194a565b610eea565b61016461022e36600461194a565b610f14565b610164610241366004611984565b610f8a565b61024e610fa2565b6102586000610ffc565b565b60006109f0565b7f30644e72e131a029b85045b68181585d97816a916871ca8d3c208c16d87cfd478110610292576000805260206000f35b50565b600060405183815284602082015285604082015260408160608360076107d05a03fa9150816102c8576000805260206000f35b825160408201526020830151606082015260408360808360066107d05a03fa915050806102f9576000805260206000f35b5050505050565b7f0f42ccd1d09da2e97c7da52e3141035e6b7e29969488d781cc5907e911f2aef485527f22fcca6ed9538287a5d63ddd6213998aca52d06bd1a9ea2ba0000e6c0abcda0f60208601526000608086018661039d87357f0cae773c551389c4b3748876eb879fd5a22df84214423ccdffcb6b2580d7bf167f052a04c97a2182b6a1b2907b2cc1e38ec3a31f802548459a134bac0d7636509984610295565b6103ed60208801357f04a3290596fa6594ac4116f78951e6613a335fb4a55575fccc749f7e0047182a7f0ddc62daadf2242f06ed2fc536f6506d2c9c2b8aca41cef637e48643f42d8a4484610295565b61043d60408801357f1d885ff71ea4bb465c1156808c77dc42b4109067a9817e25c049b7e286486bd27f15b78b03c0442b3c971ab6085dc2d971895a91484fad7490112b418f5acbf98b84610295565b61048d60608801357f046af46ee1b42873cef47bef79ee3b6c3a3858b963b830a1392b74980842d1747f208abe3bef839194b75dfce6f70774a09f0159d6b6ee8d9c4a3fb56dbbbad35a84610295565b6104dc60808801357f0957e53908d052485184ec6ce32d3f28b35b4098c84faa43193147c67605ca407ecbb167565d1fc4ff126056f6ad5ae6d7ee36240d58724adace5b93d8bda45e84610295565b61052c60a08801357f0584e4a8541cf7270af7b54ca5b9b7d6356113d303ceb57742bd1ef633ca77f37f11fa2ebf5417b4549c753e84aca2920f9bb5f0cc20653ee4c4dc9fcba77d837a84610295565b61057c60c08801357f174d3871564045120f8d87478d04f57d15ff67945f107417d75dd7d98e3a52157f0bc5b9a3762ffbc89579ac3efa6366f610946639a924884c149d6b882663412f84610295565b6105cc60e08801357f050c39cf04b7e31780a9530e8c37cf035af9bb0771f9b97b043b5da06fa9c3087f2f4f503f73c7e882f95d7c60d6a1d949fc692d10f7e7d1a46848955b38fdf09b84610295565b61061d6101008801357f2cb8a1f363d9ee404ae54ea0e20f3f914a407fe0515415dba540fe52e28d98557f245e879af3861119e5c5b2a274fa09fd79254dab1c167d927f206c0e3ce1366e84610295565b61066e6101208801357f1f91f64be622f47fa11f93a86381c5361fbb73a73bbfc92d24ecaf865f0a018c7f0321e87db17c101496865d1841aef0981b235e079c4cc0e6b292ead4b9feeff884610295565b6106bf6101408801357f1ed877c0515893c450a07970e36b669ade589147607ebb95e648eb8417ae91eb7f1841f54a2c24330cf3d50547868a8ad41209f45b33e9286b40386214e66c400884610295565b6107106101608801357f0b5c9c02e164fd7e26208c6fcd1024f172411845c45b76543488da69d66e822a7f1728d566cfd864539960fb0e369fdcd413176050d48e4f32cdf89fc4789c6bb884610295565b50823581527f30644e72e131a029b85045b68181585d97816a916871ca8d3c208c16d87cfd4760208401357f30644e72e131a029b85045b68181585d97816a916871ca8d3c208c16d87cfd4703066020820152833560408201526020840135606082015260408401356080820152606084013560a08201527f2d4d9aa7e302d9df41749d5507949d05dbea33fbb16c643b22f599a2be6df2e260c08201527f14bedd503c37ceb061d8ec60209fe345ce89830a19230301f076caff004d192660e08201527f0967032fcbf776d1afc985f88877f182d38480a653f2decaa9794cbc3bf3060c6101008201527f0e187847ad4c798374d0d6732bf501847dd68bc0e071241e0213bc7fc13db7ab6101208201527f304cfbd1e08a704a99f5e847d93f8c3caafddec46b7a0d379da69a4d112346a76101408201527f1739c1b1a457a8c7313123d24d2f9192f896b7c63eea05a9d57f06547ad0cec8610160820152600087015161018082015260206000018701516101a08201527f198e9393920d483a7260bfb731fb5d25f1aa493335a9e71297e485b7aef312c26101c08201527f1800deef121f1e76426a00665e5c4479674322d4f75edadd46debd5cd992f6ed6101e08201527f090689d0585ff075ec9e99ad690c3395bc4b313370b38ef355acdadcd122975b6102008201527f12c85ea5db8c6deb4aab71808dcb408fe3d1e7690c43d37b4ce6cc0166fa7daa610220820152843561024082015260208501356102608201527f10aa234815d8947d72c1a64fbb4e78aac6858af89d49f9070f9039968b9659d16102808201527f28bc6b65a8c0751bd05adbaba004ec5da668ca9c05371b02540d2954e198af016102a08201527f1585aa9b4d728104ede3ab504f56e6e0ed2b4b0fe8e026f431e2b8720416487d6102c08201527f2af1b8085331fb26d7218460fc6aa847165175389ebef6e6c4713d2a674d89306102e08201526020816103008360086107d05a03fa9051169695505050505050565b6040516103808101604052610a086000840135610261565b610a156020840135610261565b610a226040840135610261565b610a2f6060840135610261565b610a3c6080840135610261565b610a4960a0840135610261565b610a5660c0840135610261565b610a6360e0840135610261565b610a71610100840135610261565b610a7f610120840135610261565b610a8d610140840135610261565b610a9b610160840135610261565b610aa9610180840135610261565b610ab6818486888a610300565b90508060005260206000f35b600080808080336001600160a01b037f00000000000000000000000000000000000000000000000000000000000000001614610b455760405162461bcd60e51b815260206004820181905260248201527f4f6e6c792052616d702063616e2063616c6c20746869732066756e6374696f6e60448201526064015b60405180910390fd5b6040805163465d607d60e11b81523091638cbac0fa91610b78918a919082019060c0830190610100840190600401611a35565b602060405180830381865afa158015610b95573d6000803e3d6000fd5b505050506040513d601f19601f82011682018060405250810190610bb99190611a82565b610bf55760405162461bcd60e51b815260206004820152600d60248201526c24b73b30b634b210283937b7b360991b6044820152606401610b3c565b610bfd610d57565b61010087013514610c505760405162461bcd60e51b815260206004820152601b60248201527f496e76616c6964206d61696c736572766572206b6579206861736800000000006044820152606401610b3c565b6000610c6387610100016001600461104c565b90506003604051610c749190611aee565b604051809103902081604051602001610c8d9190611b64565b6040516020818303038152906040528051906020012014610cf05760405162461bcd60e51b815260206004820152601a60248201527f496e76616c696420656d61696c2066726f6d20616464726573730000000000006044820152606401610b3c565b610d0c6006610d0689610100016004600661104c565b90611127565b9550610d246000610d0689610100016006600861104c565b945061020087013593506102208701359250610d446102408801356112ff565b5093959294919350916102609091013590565b60015460408051630d901b9960e21b815290516000926001600160a01b0316916336406e649160048083019260209291908290030181865afa158015610da1573d6000803e3d6000fd5b505050506040513d601f19601f82011682018060405250810190610dc59190611b80565b905090565b60038054610dd790611aba565b80601f0160208091040260200160405190810160405280929190818152602001828054610e0390611aba565b8015610e505780601f10610e2557610100808354040283529160200191610e50565b820191906000526020600020905b815481529060010190602001808311610e3357829003601f168201915b505050505081565b606060038054610e6790611aba565b80601f0160208091040260200160405190810160405280929190818152602001828054610e9390611aba565b8015610ee05780601f10610eb557610100808354040283529160200191610ee0565b820191906000526020600020905b815481529060010190602001808311610ec357829003601f168201915b5050505050905090565b610ef2610fa2565b600180546001600160a01b0319166001600160a01b0392909216919091179055565b610f1c610fa2565b6001600160a01b038116610f815760405162461bcd60e51b815260206004820152602660248201527f4f776e61626c653a206e6577206f776e657220697320746865207a65726f206160448201526564647265737360d01b6064820152608401610b3c565b61029281610ffc565b610f92610fa2565b6003610f9e8282611be8565b5050565b6000546001600160a01b031633146102585760405162461bcd60e51b815260206004820181905260248201527f4f776e61626c653a2063616c6c6572206973206e6f7420746865206f776e65726044820152606401610b3c565b600080546001600160a01b038381166001600160a01b0319831681178455604051919092169283917f8be0079c531659141344cd1fd0a4f28419497f9722a3daafe3b4186f6b6457e09190a35050565b6060600061105a8484611cbe565b60ff1667ffffffffffffffff8111156110755761107561196e565b60405190808252806020026020018201604052801561109e578160200160208202803683370190505b50905060ff84165b8360ff16811015611103578581600c81106110c3576110c3611aa4565b6020020135826110d660ff881684611cd7565b815181106110e6576110e6611aa4565b6020908102919091010152806110fb81611cea565b9150506110a6565b5061111e600782516111159190611d03565b82906007611413565b95945050505050565b600082818080805b845181101561127757603060f81b85828151811061114f5761114f611aa4565b01602001516001600160f81b031916108015906111905750603960f81b85828151811061117e5761117e611aa4565b01602001516001600160f81b03191611155b156111d35760308582815181106111a9576111a9611aa4565b01602001516111bb919060f81c611cd7565b6111c685600a611d03565b6111d09190611d1a565b93505b81156111e757826111e381611cea565b9350505b8481815181106111f9576111f9611aa4565b01602001516001600160f81b031916601760f91b036112655781156112605760405162461bcd60e51b815260206004820152601c60248201527f537472696e6720686173206d756c7469706c6520646563696d616c73000000006044820152606401610b3c565b600191505b8061126f81611cea565b91505061112f565b50858211156112d35760405162461bcd60e51b815260206004820152602260248201527f537472696e672068617320746f6f206d616e7920646563696d616c20706c6163604482015261657360f01b6064820152608401610b3c565b6112dd8287611cd7565b6112e890600a611e11565b6112f29084611d03565b9450505050505b92915050565b60025460405163169394bb60e01b8152600481018390526001600160a01b039091169063169394bb90602401602060405180830381865afa158015611348573d6000803e3d6000fd5b505050506040513d601f19601f8201168201806040525081019061136c9190611a82565b156113b95760405162461bcd60e51b815260206004820152601f60248201527f4e756c6c69666965722068617320616c7265616479206265656e2075736564006044820152606401610b3c565b600254604051632dea6f9960e11b8152600481018390526001600160a01b0390911690635bd4df3290602401600060405180830381600087803b1580156113ff57600080fd5b505af11580156102f9573d6000803e3d6000fd5b60606000808386516114259190611d03565b67ffffffffffffffff81111561143d5761143d61196e565b6040519080825280601f01601f191660200182016040528015611467576020820181803683370190505b5090506000805b87518161ffff16101561161e576000888261ffff168151811061149357611493611aa4565b6020026020010151905060008767ffffffffffffffff8111156114b8576114b861196e565b6040519080825280602002602001820160405280156114e1578160200160208202803683370190505b50905060005b88811015611533576114fa816008611d03565b83901c82828151811061150f5761150f611aa4565b60ff909216602092830291909101909101528061152b81611cea565b9150506114e7565b5060005b8881101561160857600082828151811061155357611553611aa4565b602002602001015160ff169050806000146115cb578060f81b87878151811061157e5761157e611aa4565b60200101906001600160f81b031916908160001a9053508561159f81611cea565b96506115ae9050600289611e1d565b60ff166000036115c6576115c3600189611e4d565b97505b6115ee565b6115d6600289611e1d565b60ff166001036115ee576115eb600189611e4d565b97505b5060089290921c918061160081611cea565b915050611537565b505050808061161690611e66565b91505061146e565b5060018360ff1610156116bf5760405162461bcd60e51b815260206004820152605760248201527f4e6f207061636b656420627974657320666f756e642120496e76616c6964206660448201527f696e616c207374617465206f66207061636b656420627974657320696e20656d60648201527f61696c3b2076616c7565206973206c696b656c79203021000000000000000000608482015260a401610b3c565b8581111561172d5760405162461bcd60e51b815260206004820152603560248201527f5061636b6564206279746573206d6f7265207468616e20616c6c6f776564206d6044820152746178206e756d626572206f66207369676e616c732160581b6064820152608401610b3c565b600061173883611744565b98975050505050505050565b8051606090829060005b82518110156117995782818151811061176957611769611aa4565b01602001516001600160f81b03191660000361178757809150611799565b8061179181611cea565b91505061174e565b5060008167ffffffffffffffff8111156117b5576117b561196e565b6040519080825280601f01601f1916602001820160405280156117df576020820181803683370190505b50905060005b82811015611845578381815181106117ff576117ff611aa4565b602001015160f81c60f81b82828151811061181c5761181c611aa4565b60200101906001600160f81b031916908160001a9053508061183d81611cea565b9150506117e5565b50949350505050565b80604081018310156112f957600080fd5b60008060008061028080868803121561187757600080fd5b611881878761184e565b945060c086018781111561189457600080fd5b6040870194506118a4888261184e565b9350508681870111156118b657600080fd5b50929591945092610100019150565b600061028082840312156118d857600080fd5b50919050565b60005b838110156118f95781810151838201526020016118e1565b50506000910152565b60208152600082518060208401526119218160408501602087016118de565b601f01601f19169190910160400192915050565b6001600160a01b038116811461029257600080fd5b60006020828403121561195c57600080fd5b813561196781611935565b9392505050565b634e487b7160e01b600052604160045260246000fd5b60006020828403121561199657600080fd5b813567ffffffffffffffff808211156119ae57600080fd5b818401915084601f8301126119c257600080fd5b8135818111156119d4576119d461196e565b604051601f8201601f19908116603f011681019083821181831017156119fc576119fc61196e565b81604052828152876020848701011115611a1557600080fd5b826020860160208301376000928101602001929092525095945050505050565b61028081016040808784378083018660005b6002811015611a6457838284379183019190830190600101611a47565b505050808560c0850137506101808361010084013795945050505050565b600060208284031215611a9457600080fd5b8151801515811461196757600080fd5b634e487b7160e01b600052603260045260246000fd5b600181811c90821680611ace57607f821691505b6020821081036118d857634e487b7160e01b600052602260045260246000fd5b6000808354611afc81611aba565b60018281168015611b145760018114611b2957611b58565b60ff1984168752821515830287019450611b58565b8760005260208060002060005b85811015611b4f5781548a820152908401908201611b36565b50505082870194505b50929695505050505050565b60008251611b768184602087016118de565b9190910192915050565b600060208284031215611b9257600080fd5b5051919050565b601f821115611be357600081815260208120601f850160051c81016020861015611bc05750805b601f850160051c820191505b81811015611bdf57828155600101611bcc565b5050505b505050565b815167ffffffffffffffff811115611c0257611c0261196e565b611c1681611c108454611aba565b84611b99565b602080601f831160018114611c4b5760008415611c335750858301515b600019600386901b1c1916600185901b178555611bdf565b600085815260208120601f198616915b82811015611c7a57888601518255948401946001909101908401611c5b565b5085821015611c985787850151600019600388901b60f8161c191681555b5050505050600190811b01905550565b634e487b7160e01b600052601160045260246000fd5b60ff82811682821603908111156112f9576112f9611ca8565b818103818111156112f9576112f9611ca8565b600060018201611cfc57611cfc611ca8565b5060010190565b80820281158282048414176112f9576112f9611ca8565b808201808211156112f9576112f9611ca8565b600181815b80851115611d68578160001904821115611d4e57611d4e611ca8565b80851615611d5b57918102915b93841c9390800290611d32565b509250929050565b600082611d7f575060016112f9565b81611d8c575060006112f9565b8160018114611da25760028114611dac57611dc8565b60019150506112f9565b60ff841115611dbd57611dbd611ca8565b50506001821b6112f9565b5060208310610133831016604e8410600b8410161715611deb575081810a6112f9565b611df58383611d2d565b8060001904821115611e0957611e09611ca8565b029392505050565b60006119678383611d70565b600060ff831680611e3e57634e487b7160e01b600052601260045260246000fd5b8060ff84160691505092915050565b60ff81811683821601908111156112f9576112f9611ca8565b600061ffff808316818103611e7d57611e7d611ca8565b600101939250505056fea26469706673582212202c7aa89ec8dfecaa3afd18cf0ffdf3880e5900eeff3f10f9d4ce6d0193d3213b64736f6c63430008120033",
  "devdoc": {
    "kind": "dev",
    "methods": {
      "owner()": {
        "details": "Returns the address of the current owner."
      },
      "renounceOwnership()": {
        "details": "Leaves the contract without owner. It will not be possible to call `onlyOwner` functions. Can only be called by the current owner. NOTE: Renouncing ownership will leave the contract without an owner, thereby disabling any functionality that is only available to the owner."
      },
      "setEmailFromAddress(string)": {
        "params": {
          "_emailFromAddress": "The from email address for validated emails, MUST BE PROPERLY PADDED"
        }
      },
      "transferOwnership(address)": {
        "details": "Transfers ownership of the contract to a new account (`newOwner`). Can only be called by the current owner."
      }
    },
    "version": 1
  },
  "userdoc": {
    "kind": "user",
    "methods": {
      "setEmailFromAddress(string)": {
        "notice": "ONLY OWNER: Sets the from email address for validated emails. Check that email address is properly padded (if necessary). Padding will be dependent on if unpacking functions cut trailing 0s or not."
      }
    },
    "version": 1
  },
  "storageLayout": {
    "storage": [
      {
        "astId": 7,
        "contract": "contracts/processors/VenmoSendProcessor.sol:VenmoSendProcessor",
        "label": "_owner",
        "offset": 0,
        "slot": "0",
        "type": "t_address"
      },
      {
        "astId": 1403,
        "contract": "contracts/processors/VenmoSendProcessor.sol:VenmoSendProcessor",
        "label": "mailserverKeyHashAdapter",
        "offset": 0,
        "slot": "1",
        "type": "t_contract(IKeyHashAdapter)1958"
      },
      {
        "astId": 1406,
        "contract": "contracts/processors/VenmoSendProcessor.sol:VenmoSendProcessor",
        "label": "nullifierRegistry",
        "offset": 0,
        "slot": "2",
        "type": "t_contract(INullifierRegistry)1973"
      },
      {
        "astId": 1408,
        "contract": "contracts/processors/VenmoSendProcessor.sol:VenmoSendProcessor",
        "label": "emailFromAddress",
        "offset": 0,
        "slot": "3",
        "type": "t_bytes_storage"
      }
    ],
    "types": {
      "t_address": {
        "encoding": "inplace",
        "label": "address",
        "numberOfBytes": "20"
      },
      "t_bytes_storage": {
        "encoding": "bytes",
        "label": "bytes",
        "numberOfBytes": "32"
      },
      "t_contract(IKeyHashAdapter)1958": {
        "encoding": "inplace",
        "label": "contract IKeyHashAdapter",
        "numberOfBytes": "20"
      },
      "t_contract(INullifierRegistry)1973": {
        "encoding": "inplace",
        "label": "contract INullifierRegistry",
        "numberOfBytes": "20"
      }
    }
  }
}