{
  "address": "0xe6d21594014959395675c89d127A53070e774Cad",
  "abi": [
    {
      "inputs": [
        {
          "internalType": "address",
          "name": "_owner",
          "type": "address"
        },
        {
          "internalType": "contract IERC20",
          "name": "_usdc",
          "type": "address"
        },
        {
          "internalType": "contract IPoseidon3",
          "name": "_poseidon3",
          "type": "address"
        },
        {
          "internalType": "contract IPoseidon6",
          "name": "_poseidon6",
          "type": "address"
        },
        {
          "internalType": "uint256",
          "name": "_minDepositAmount",
          "type": "uint256"
        },
        {
          "internalType": "uint256",
          "name": "_maxOnRampAmount",
          "type": "uint256"
        },
        {
          "internalType": "uint256",
          "name": "_intentExpirationPeriod",
          "type": "uint256"
        },
        {
          "internalType": "uint256",
          "name": "_onRampCooldownPeriod",
          "type": "uint256"
        },
        {
          "internalType": "uint256",
          "name": "_sustainabilityFee",
          "type": "uint256"
        },
        {
          "internalType": "address",
          "name": "_sustainabilityFeeRecipient",
          "type": "address"
        }
      ],
      "stateMutability": "nonpayable",
      "type": "constructor"
    },
    {
      "anonymous": false,
      "inputs": [
        {
          "indexed": true,
          "internalType": "address",
          "name": "accountOwner",
          "type": "address"
        },
        {
          "indexed": true,
          "internalType": "bytes32",
          "name": "idHash",
          "type": "bytes32"
        }
      ],
      "name": "AccountRegistered",
      "type": "event"
    },
    {
      "anonymous": false,
      "inputs": [
        {
          "indexed": false,
          "internalType": "uint256",
          "name": "depositId",
          "type": "uint256"
        },
        {
          "indexed": false,
          "internalType": "address",
          "name": "depositor",
          "type": "address"
        }
      ],
      "name": "DepositClosed",
      "type": "event"
    },
    {
      "anonymous": false,
      "inputs": [
        {
          "indexed": true,
          "internalType": "uint256",
          "name": "depositId",
          "type": "uint256"
        },
        {
          "indexed": true,
          "internalType": "bytes32",
          "name": "idHash",
          "type": "bytes32"
        },
        {
          "indexed": false,
          "internalType": "uint256",
          "name": "amount",
          "type": "uint256"
        },
        {
          "indexed": false,
          "internalType": "uint256",
          "name": "conversionRate",
          "type": "uint256"
        }
      ],
      "name": "DepositReceived",
      "type": "event"
    },
    {
      "anonymous": false,
      "inputs": [
        {
          "indexed": true,
          "internalType": "uint256",
          "name": "depositId",
          "type": "uint256"
        },
        {
          "indexed": true,
          "internalType": "address",
          "name": "depositor",
          "type": "address"
        },
        {
          "indexed": false,
          "internalType": "uint256",
          "name": "amount",
          "type": "uint256"
        }
      ],
      "name": "DepositWithdrawn",
      "type": "event"
    },
    {
      "anonymous": false,
      "inputs": [
        {
          "indexed": false,
          "internalType": "uint256",
          "name": "intentExpirationPeriod",
          "type": "uint256"
        }
      ],
      "name": "IntentExpirationPeriodSet",
      "type": "event"
    },
    {
      "anonymous": false,
      "inputs": [
        {
          "indexed": true,
          "internalType": "bytes32",
          "name": "intentHash",
          "type": "bytes32"
        },
        {
          "indexed": true,
          "internalType": "uint256",
          "name": "depositId",
          "type": "uint256"
        },
        {
          "indexed": true,
          "internalType": "address",
          "name": "onRamper",
          "type": "address"
        },
        {
          "indexed": false,
          "internalType": "address",
          "name": "to",
          "type": "address"
        },
        {
          "indexed": false,
          "internalType": "uint256",
          "name": "amount",
          "type": "uint256"
        },
        {
          "indexed": false,
          "internalType": "uint256",
          "name": "feeAmount",
          "type": "uint256"
        }
      ],
      "name": "IntentFulfilled",
      "type": "event"
    },
    {
      "anonymous": false,
      "inputs": [
        {
          "indexed": true,
          "internalType": "bytes32",
          "name": "intentHash",
          "type": "bytes32"
        },
        {
          "indexed": true,
          "internalType": "uint256",
          "name": "depositId",
          "type": "uint256"
        }
      ],
      "name": "IntentPruned",
      "type": "event"
    },
    {
      "anonymous": false,
      "inputs": [
        {
          "indexed": true,
          "internalType": "bytes32",
          "name": "intentHash",
          "type": "bytes32"
        },
        {
          "indexed": true,
          "internalType": "uint256",
          "name": "depositId",
          "type": "uint256"
        },
        {
          "indexed": true,
          "internalType": "bytes32",
          "name": "idHash",
          "type": "bytes32"
        },
        {
          "indexed": false,
          "internalType": "address",
          "name": "to",
          "type": "address"
        },
        {
          "indexed": false,
          "internalType": "uint256",
          "name": "amount",
          "type": "uint256"
        },
        {
          "indexed": false,
          "internalType": "uint256",
          "name": "timestamp",
          "type": "uint256"
        }
      ],
      "name": "IntentSignaled",
      "type": "event"
    },
    {
      "anonymous": false,
      "inputs": [
        {
          "indexed": false,
          "internalType": "uint256",
          "name": "maxOnRampAmount",
          "type": "uint256"
        }
      ],
      "name": "MaxOnRampAmountSet",
      "type": "event"
    },
    {
      "anonymous": false,
      "inputs": [
        {
          "indexed": false,
          "internalType": "uint256",
          "name": "minDepositAmount",
          "type": "uint256"
        }
      ],
      "name": "MinDepositAmountSet",
      "type": "event"
    },
    {
      "anonymous": false,
      "inputs": [
        {
          "indexed": false,
          "internalType": "address",
          "name": "receiveProcessor",
          "type": "address"
        }
      ],
      "name": "NewReceiveProcessorSet",
      "type": "event"
    },
    {
      "anonymous": false,
      "inputs": [
        {
          "indexed": false,
          "internalType": "address",
          "name": "registrationProcessor",
          "type": "address"
        }
      ],
      "name": "NewRegistrationProcessorSet",
      "type": "event"
    },
    {
      "anonymous": false,
      "inputs": [
        {
          "indexed": false,
          "internalType": "address",
          "name": "sendProcessor",
          "type": "address"
        }
      ],
      "name": "NewSendProcessorSet",
      "type": "event"
    },
    {
      "anonymous": false,
      "inputs": [
        {
          "indexed": false,
          "internalType": "uint256",
          "name": "onRampCooldownPeriod",
          "type": "uint256"
        }
      ],
      "name": "OnRampCooldownPeriodSet",
      "type": "event"
    },
    {
      "anonymous": false,
      "inputs": [
        {
          "indexed": true,
          "internalType": "address",
          "name": "previousOwner",
          "type": "address"
        },
        {
          "indexed": true,
          "internalType": "address",
          "name": "newOwner",
          "type": "address"
        }
      ],
      "name": "OwnershipTransferred",
      "type": "event"
    },
    {
      "anonymous": false,
      "inputs": [
        {
          "indexed": false,
          "internalType": "address",
          "name": "feeRecipient",
          "type": "address"
        }
      ],
      "name": "SustainabilityFeeRecipientUpdated",
      "type": "event"
    },
    {
      "anonymous": false,
      "inputs": [
        {
          "indexed": false,
          "internalType": "uint256",
          "name": "fee",
          "type": "uint256"
        }
      ],
      "name": "SustainabilityFeeUpdated",
      "type": "event"
    },
    {
      "anonymous": false,
      "inputs": [
        {
          "indexed": false,
          "internalType": "bytes32",
          "name": "listOwner",
          "type": "bytes32"
        },
        {
          "indexed": false,
          "internalType": "bytes32",
          "name": "deniedUser",
          "type": "bytes32"
        }
      ],
      "name": "UserAddedToDenylist",
      "type": "event"
    },
    {
      "anonymous": false,
      "inputs": [
        {
          "indexed": false,
          "internalType": "bytes32",
          "name": "listOwner",
          "type": "bytes32"
        },
        {
          "indexed": false,
          "internalType": "bytes32",
          "name": "approvedUser",
          "type": "bytes32"
        }
      ],
      "name": "UserRemovedFromDenylist",
      "type": "event"
    },
    {
      "inputs": [
        {
          "internalType": "bytes32",
          "name": "_deniedUser",
          "type": "bytes32"
        }
      ],
      "name": "addAccountToDenylist",
      "outputs": [],
      "stateMutability": "nonpayable",
      "type": "function"
    },
    {
      "inputs": [
        {
          "internalType": "bytes32",
          "name": "_intentHash",
          "type": "bytes32"
        }
      ],
      "name": "cancelIntent",
      "outputs": [],
      "stateMutability": "nonpayable",
      "type": "function"
    },
    {
      "inputs": [],
      "name": "depositCounter",
      "outputs": [
        {
          "internalType": "uint256",
          "name": "",
          "type": "uint256"
        }
      ],
      "stateMutability": "view",
      "type": "function"
    },
    {
      "inputs": [
        {
          "internalType": "uint256",
          "name": "",
          "type": "uint256"
        }
      ],
      "name": "deposits",
      "outputs": [
        {
          "internalType": "address",
          "name": "depositor",
          "type": "address"
        },
        {
          "internalType": "uint256",
          "name": "depositAmount",
          "type": "uint256"
        },
        {
          "internalType": "uint256",
          "name": "remainingDeposits",
          "type": "uint256"
        },
        {
          "internalType": "uint256",
          "name": "outstandingIntentAmount",
          "type": "uint256"
        },
        {
          "internalType": "uint256",
          "name": "conversionRate",
          "type": "uint256"
        }
      ],
      "stateMutability": "view",
      "type": "function"
    },
    {
      "inputs": [
        {
          "internalType": "address",
          "name": "_account",
          "type": "address"
        }
      ],
      "name": "getAccountDeposits",
      "outputs": [
        {
          "components": [
            {
              "internalType": "uint256",
              "name": "depositId",
              "type": "uint256"
            },
            {
              "components": [
                {
                  "internalType": "address",
                  "name": "depositor",
                  "type": "address"
                },
                {
                  "internalType": "uint256[8]",
                  "name": "upiId",
                  "type": "uint256[8]"
                },
                {
                  "internalType": "uint256",
                  "name": "depositAmount",
                  "type": "uint256"
                },
                {
                  "internalType": "uint256",
                  "name": "remainingDeposits",
                  "type": "uint256"
                },
                {
                  "internalType": "uint256",
                  "name": "outstandingIntentAmount",
                  "type": "uint256"
                },
                {
                  "internalType": "uint256",
                  "name": "conversionRate",
                  "type": "uint256"
                },
                {
                  "internalType": "bytes32[]",
                  "name": "intentHashes",
                  "type": "bytes32[]"
                }
              ],
              "internalType": "struct HDFCRamp.Deposit",
              "name": "deposit",
              "type": "tuple"
            },
            {
              "internalType": "uint256",
              "name": "availableLiquidity",
              "type": "uint256"
            }
          ],
          "internalType": "struct HDFCRamp.DepositWithAvailableLiquidity[]",
          "name": "accountDeposits",
          "type": "tuple[]"
        }
      ],
      "stateMutability": "view",
      "type": "function"
    },
    {
      "inputs": [
        {
          "internalType": "address",
          "name": "_account",
          "type": "address"
        }
      ],
      "name": "getAccountInfo",
      "outputs": [
        {
          "components": [
            {
              "internalType": "bytes32",
              "name": "idHash",
              "type": "bytes32"
            },
            {
              "internalType": "uint256[]",
              "name": "deposits",
              "type": "uint256[]"
            }
          ],
          "internalType": "struct HDFCRamp.AccountInfo",
          "name": "",
          "type": "tuple"
        }
      ],
      "stateMutability": "view",
      "type": "function"
    },
    {
      "inputs": [
        {
          "internalType": "address",
          "name": "_account",
          "type": "address"
        }
      ],
      "name": "getDeniedUsers",
      "outputs": [
        {
          "internalType": "bytes32[]",
          "name": "",
          "type": "bytes32[]"
        }
      ],
      "stateMutability": "view",
      "type": "function"
    },
    {
      "inputs": [
        {
          "internalType": "uint256",
          "name": "_depositId",
          "type": "uint256"
        }
      ],
      "name": "getDeposit",
      "outputs": [
        {
          "components": [
            {
              "internalType": "address",
              "name": "depositor",
              "type": "address"
            },
            {
              "internalType": "uint256[8]",
              "name": "upiId",
              "type": "uint256[8]"
            },
            {
              "internalType": "uint256",
              "name": "depositAmount",
              "type": "uint256"
            },
            {
              "internalType": "uint256",
              "name": "remainingDeposits",
              "type": "uint256"
            },
            {
              "internalType": "uint256",
              "name": "outstandingIntentAmount",
              "type": "uint256"
            },
            {
              "internalType": "uint256",
              "name": "conversionRate",
              "type": "uint256"
            },
            {
              "internalType": "bytes32[]",
              "name": "intentHashes",
              "type": "bytes32[]"
            }
          ],
          "internalType": "struct HDFCRamp.Deposit",
          "name": "",
          "type": "tuple"
        }
      ],
      "stateMutability": "view",
      "type": "function"
    },
    {
      "inputs": [
        {
          "internalType": "uint256[]",
          "name": "_depositIds",
          "type": "uint256[]"
        }
      ],
      "name": "getDepositFromIds",
      "outputs": [
        {
          "components": [
            {
              "internalType": "uint256",
              "name": "depositId",
              "type": "uint256"
            },
            {
              "components": [
                {
                  "internalType": "address",
                  "name": "depositor",
                  "type": "address"
                },
                {
                  "internalType": "uint256[8]",
                  "name": "upiId",
                  "type": "uint256[8]"
                },
                {
                  "internalType": "uint256",
                  "name": "depositAmount",
                  "type": "uint256"
                },
                {
                  "internalType": "uint256",
                  "name": "remainingDeposits",
                  "type": "uint256"
                },
                {
                  "internalType": "uint256",
                  "name": "outstandingIntentAmount",
                  "type": "uint256"
                },
                {
                  "internalType": "uint256",
                  "name": "conversionRate",
                  "type": "uint256"
                },
                {
                  "internalType": "bytes32[]",
                  "name": "intentHashes",
                  "type": "bytes32[]"
                }
              ],
              "internalType": "struct HDFCRamp.Deposit",
              "name": "deposit",
              "type": "tuple"
            },
            {
              "internalType": "uint256",
              "name": "availableLiquidity",
              "type": "uint256"
            }
          ],
          "internalType": "struct HDFCRamp.DepositWithAvailableLiquidity[]",
          "name": "depositArray",
          "type": "tuple[]"
        }
      ],
      "stateMutability": "view",
      "type": "function"
    },
    {
      "inputs": [
        {
          "internalType": "address",
          "name": "_account",
          "type": "address"
        }
      ],
      "name": "getIdCurrentIntentHash",
      "outputs": [
        {
          "internalType": "bytes32",
          "name": "",
          "type": "bytes32"
        }
      ],
      "stateMutability": "view",
      "type": "function"
    },
    {
      "inputs": [
        {
          "internalType": "bytes32[]",
          "name": "_intentHashes",
          "type": "bytes32[]"
        }
      ],
      "name": "getIntentsWithOnRamperId",
      "outputs": [
        {
          "components": [
            {
              "components": [
                {
                  "internalType": "address",
                  "name": "onRamper",
                  "type": "address"
                },
                {
                  "internalType": "address",
                  "name": "to",
                  "type": "address"
                },
                {
                  "internalType": "uint256",
                  "name": "deposit",
                  "type": "uint256"
                },
                {
                  "internalType": "uint256",
                  "name": "amount",
                  "type": "uint256"
                },
                {
                  "internalType": "uint256",
                  "name": "intentTimestamp",
                  "type": "uint256"
                }
              ],
              "internalType": "struct HDFCRamp.Intent",
              "name": "intent",
              "type": "tuple"
            },
            {
              "internalType": "bytes32",
              "name": "onRamperIdHash",
              "type": "bytes32"
            }
          ],
          "internalType": "struct HDFCRamp.IntentWithOnRamperId[]",
          "name": "",
          "type": "tuple[]"
        }
      ],
      "stateMutability": "view",
      "type": "function"
    },
    {
      "inputs": [
        {
          "internalType": "address",
          "name": "_account",
          "type": "address"
        }
      ],
      "name": "getLastOnRampTimestamp",
      "outputs": [
        {
          "internalType": "uint256",
          "name": "",
          "type": "uint256"
        }
      ],
      "stateMutability": "view",
      "type": "function"
    },
    {
      "inputs": [
        {
          "internalType": "contract IRegistrationProcessor",
          "name": "_registrationProcessor",
          "type": "address"
        },
        {
          "internalType": "contract IHDFCSendProcessor",
          "name": "_sendProcessor",
          "type": "address"
        }
      ],
      "name": "initialize",
      "outputs": [],
      "stateMutability": "nonpayable",
      "type": "function"
    },
    {
      "inputs": [],
      "name": "intentExpirationPeriod",
      "outputs": [
        {
          "internalType": "uint256",
          "name": "",
          "type": "uint256"
        }
      ],
      "stateMutability": "view",
      "type": "function"
    },
    {
      "inputs": [
        {
          "internalType": "bytes32",
          "name": "",
          "type": "bytes32"
        }
      ],
      "name": "intents",
      "outputs": [
        {
          "internalType": "address",
          "name": "onRamper",
          "type": "address"
        },
        {
          "internalType": "address",
          "name": "to",
          "type": "address"
        },
        {
          "internalType": "uint256",
          "name": "deposit",
          "type": "uint256"
        },
        {
          "internalType": "uint256",
          "name": "amount",
          "type": "uint256"
        },
        {
          "internalType": "uint256",
          "name": "intentTimestamp",
          "type": "uint256"
        }
      ],
      "stateMutability": "view",
      "type": "function"
    },
    {
      "inputs": [
        {
          "internalType": "address",
          "name": "_account",
          "type": "address"
        },
        {
          "internalType": "bytes32",
          "name": "_deniedUser",
          "type": "bytes32"
        }
      ],
      "name": "isDeniedUser",
      "outputs": [
        {
          "internalType": "bool",
          "name": "",
          "type": "bool"
        }
      ],
      "stateMutability": "view",
      "type": "function"
    },
    {
      "inputs": [],
      "name": "maxOnRampAmount",
      "outputs": [
        {
          "internalType": "uint256",
          "name": "",
          "type": "uint256"
        }
      ],
      "stateMutability": "view",
      "type": "function"
    },
    {
      "inputs": [],
      "name": "minDepositAmount",
      "outputs": [
        {
          "internalType": "uint256",
          "name": "",
          "type": "uint256"
        }
      ],
      "stateMutability": "view",
      "type": "function"
    },
    {
      "inputs": [
        {
          "internalType": "uint256[8]",
          "name": "_upiId",
          "type": "uint256[8]"
        },
        {
          "internalType": "uint256",
          "name": "_depositAmount",
          "type": "uint256"
        },
        {
          "internalType": "uint256",
          "name": "_receiveAmount",
          "type": "uint256"
        }
      ],
      "name": "offRamp",
      "outputs": [],
      "stateMutability": "nonpayable",
      "type": "function"
    },
    {
      "inputs": [
        {
          "internalType": "uint256[2]",
          "name": "_a",
          "type": "uint256[2]"
        },
        {
          "internalType": "uint256[2][2]",
          "name": "_b",
          "type": "uint256[2][2]"
        },
        {
          "internalType": "uint256[2]",
          "name": "_c",
          "type": "uint256[2]"
        },
        {
          "internalType": "uint256[15]",
          "name": "_signals",
          "type": "uint256[15]"
        }
      ],
      "name": "onRamp",
      "outputs": [],
      "stateMutability": "nonpayable",
      "type": "function"
    },
    {
      "inputs": [],
      "name": "onRampCooldownPeriod",
      "outputs": [
        {
          "internalType": "uint256",
          "name": "",
          "type": "uint256"
        }
      ],
      "stateMutability": "view",
      "type": "function"
    },
    {
      "inputs": [],
      "name": "owner",
      "outputs": [
        {
          "internalType": "address",
          "name": "",
          "type": "address"
        }
      ],
      "stateMutability": "view",
      "type": "function"
    },
    {
      "inputs": [],
      "name": "poseidon3",
      "outputs": [
        {
          "internalType": "contract IPoseidon3",
          "name": "",
          "type": "address"
        }
      ],
      "stateMutability": "view",
      "type": "function"
    },
    {
      "inputs": [],
      "name": "poseidon6",
      "outputs": [
        {
          "internalType": "contract IPoseidon6",
          "name": "",
          "type": "address"
        }
      ],
      "stateMutability": "view",
      "type": "function"
    },
    {
      "inputs": [
        {
          "internalType": "uint256[2]",
          "name": "_a",
          "type": "uint256[2]"
        },
        {
          "internalType": "uint256[2][2]",
          "name": "_b",
          "type": "uint256[2][2]"
        },
        {
          "internalType": "uint256[2]",
          "name": "_c",
          "type": "uint256[2]"
        },
        {
          "internalType": "uint256[5]",
          "name": "_signals",
          "type": "uint256[5]"
        }
      ],
      "name": "register",
      "outputs": [],
      "stateMutability": "nonpayable",
      "type": "function"
    },
    {
      "inputs": [],
      "name": "registrationProcessor",
      "outputs": [
        {
          "internalType": "contract IRegistrationProcessor",
          "name": "",
          "type": "address"
        }
      ],
      "stateMutability": "view",
      "type": "function"
    },
    {
      "inputs": [
        {
          "internalType": "bytes32",
          "name": "_approvedUser",
          "type": "bytes32"
        }
      ],
      "name": "removeAccountFromDenylist",
      "outputs": [],
      "stateMutability": "nonpayable",
      "type": "function"
    },
    {
      "inputs": [],
      "name": "renounceOwnership",
      "outputs": [],
      "stateMutability": "nonpayable",
      "type": "function"
    },
    {
      "inputs": [],
      "name": "sendProcessor",
      "outputs": [
        {
          "internalType": "contract IHDFCSendProcessor",
          "name": "",
          "type": "address"
        }
      ],
      "stateMutability": "view",
      "type": "function"
    },
    {
      "inputs": [
        {
          "internalType": "uint256",
          "name": "_intentExpirationPeriod",
          "type": "uint256"
        }
      ],
      "name": "setIntentExpirationPeriod",
      "outputs": [],
      "stateMutability": "nonpayable",
      "type": "function"
    },
    {
      "inputs": [
        {
          "internalType": "uint256",
          "name": "_maxOnRampAmount",
          "type": "uint256"
        }
      ],
      "name": "setMaxOnRampAmount",
      "outputs": [],
      "stateMutability": "nonpayable",
      "type": "function"
    },
    {
      "inputs": [
        {
          "internalType": "uint256",
          "name": "_minDepositAmount",
          "type": "uint256"
        }
      ],
      "name": "setMinDepositAmount",
      "outputs": [],
      "stateMutability": "nonpayable",
      "type": "function"
    },
    {
      "inputs": [
        {
          "internalType": "uint256",
          "name": "_onRampCooldownPeriod",
          "type": "uint256"
        }
      ],
      "name": "setOnRampCooldownPeriod",
      "outputs": [],
      "stateMutability": "nonpayable",
      "type": "function"
    },
    {
      "inputs": [
        {
          "internalType": "contract IRegistrationProcessor",
          "name": "_registrationProcessor",
          "type": "address"
        }
      ],
      "name": "setRegistrationProcessor",
      "outputs": [],
      "stateMutability": "nonpayable",
      "type": "function"
    },
    {
      "inputs": [
        {
          "internalType": "contract IHDFCSendProcessor",
          "name": "_sendProcessor",
          "type": "address"
        }
      ],
      "name": "setSendProcessor",
      "outputs": [],
      "stateMutability": "nonpayable",
      "type": "function"
    },
    {
      "inputs": [
        {
          "internalType": "uint256",
          "name": "_fee",
          "type": "uint256"
        }
      ],
      "name": "setSustainabilityFee",
      "outputs": [],
      "stateMutability": "nonpayable",
      "type": "function"
    },
    {
      "inputs": [
        {
          "internalType": "address",
          "name": "_feeRecipient",
          "type": "address"
        }
      ],
      "name": "setSustainabilityFeeRecipient",
      "outputs": [],
      "stateMutability": "nonpayable",
      "type": "function"
    },
    {
      "inputs": [
        {
          "internalType": "uint256",
          "name": "_depositId",
          "type": "uint256"
        },
        {
          "internalType": "uint256",
          "name": "_amount",
          "type": "uint256"
        },
        {
          "internalType": "address",
          "name": "_to",
          "type": "address"
        }
      ],
      "name": "signalIntent",
      "outputs": [],
      "stateMutability": "nonpayable",
      "type": "function"
    },
    {
      "inputs": [],
      "name": "sustainabilityFee",
      "outputs": [
        {
          "internalType": "uint256",
          "name": "",
          "type": "uint256"
        }
      ],
      "stateMutability": "view",
      "type": "function"
    },
    {
      "inputs": [],
      "name": "sustainabilityFeeRecipient",
      "outputs": [
        {
          "internalType": "address",
          "name": "",
          "type": "address"
        }
      ],
      "stateMutability": "view",
      "type": "function"
    },
    {
      "inputs": [
        {
          "internalType": "address",
          "name": "newOwner",
          "type": "address"
        }
      ],
      "name": "transferOwnership",
      "outputs": [],
      "stateMutability": "nonpayable",
      "type": "function"
    },
    {
      "inputs": [],
      "name": "usdc",
      "outputs": [
        {
          "internalType": "contract IERC20",
          "name": "",
          "type": "address"
        }
      ],
      "stateMutability": "view",
      "type": "function"
    },
    {
      "inputs": [
        {
          "internalType": "uint256[]",
          "name": "_depositIds",
          "type": "uint256[]"
        }
      ],
      "name": "withdrawDeposit",
      "outputs": [],
      "stateMutability": "nonpayable",
      "type": "function"
    }
  ],
  "transactionHash": "0xf027acb32d176e73b36537ec986ba0a952b5b297758c0c12c5f209fe0cd04d51",
  "args": [
    "0x4e39cF8578698131c57404e8bc3eEC820EDa51d8",
    "0x8374d6e81363fE432F98E46E8A6Fe0873e526FB8",
    "0x84ac07EfC0c7093416aCd6189a600AD479CFA045",
    "0x85541202D0692Cdf9f4ce9Aa66a1116D36c96Fe6",
    "20000000",
    "999000000",
    "300",
    "180",
    "1000000000000000",
    "0x4e39cF8578698131c57404e8bc3eEC820EDa51d8"
  ],
  "numDeployments": 1,
  "solcInputHash": "f04018ca3672426744531c5b0e9c8cda",
  "bytecode": "0x60e06040523480156200001157600080fd5b506040516200415e3803806200415e8339810160408190526200003491620001eb565b6200003f33620000a4565b6001600160a01b0389811660805288811660a05287811660c05260078790556008869055600a8590556009849055600b839055600c80546001600160a01b031916918316919091179055620000948a620000f4565b505050505050505050506200029e565b600080546001600160a01b038381166001600160a01b0319831681178455604051919092169283917f8be0079c531659141344cd1fd0a4f28419497f9722a3daafe3b4186f6b6457e09190a35050565b620000fe62000177565b6001600160a01b038116620001695760405162461bcd60e51b815260206004820152602660248201527f4f776e61626c653a206e6577206f776e657220697320746865207a65726f206160448201526564647265737360d01b60648201526084015b60405180910390fd5b6200017481620000a4565b50565b6000546001600160a01b03163314620001d35760405162461bcd60e51b815260206004820181905260248201527f4f776e61626c653a2063616c6c6572206973206e6f7420746865206f776e6572604482015260640162000160565b565b6001600160a01b03811681146200017457600080fd5b6000806000806000806000806000806101408b8d0312156200020c57600080fd5b8a516200021981620001d5565b60208c0151909a506200022c81620001d5565b60408c01519099506200023f81620001d5565b60608c01519098506200025281620001d5565b8097505060808b0151955060a08b0151945060c08b0151935060e08b015192506101008b015191506101208b01516200028b81620001d5565b809150509295989b9194979a5092959850565b60805160a05160c051613e66620002f86000396000818161034c0152612f7c01526000818161062c015261301901526000818161039e0152818161159f01528181611bd401528181612b700152612c1f0152613e666000f3fe608060405234801561001057600080fd5b50600436106102695760003560e01c80637b510fe811610151578063ce523ca3116100c3578063ecb3dc8811610087578063ecb3dc88146106a3578063ecd618f0146106ac578063ed1692b8146106cc578063eea1d197146106df578063f2fde38b146106f2578063fbf15b1f1461070557600080fd5b8063ce523ca31461064e578063d55f960d14610661578063d9478d2014610674578063e215ad5914610687578063e279d9641461069a57600080fd5b80639b357b5a116101155780639b357b5a1461055f5780639f9fb96814610572578063a1a954b714610592578063b02c43d01461059b578063b3fa4c0114610614578063cce3e0381461062757600080fd5b80637b510fe81461048c5780638da5cb5b146104ac5780639021578a146104bd5780639087beff14610539578063985ade151461054c57600080fd5b80633f838d0d116101ea5780635081d952116101ae5780635081d952146104225780635dd7651514610442578063645006ca14610455578063711347621461045e578063715018a61461047157806371a28f691461047957600080fd5b80633f838d0d146103c057806342987349146103d35780634595bba0146103e6578063485cc95514610406578063495223e71461041957600080fd5b80632a80cda3116102315780632a80cda314610321578063317dcc96146103345780633930a439146103475780633adba28a146103865780633e413bee1461039957600080fd5b80630f1ef98c1461026e578063133de6cb146102ba578063148172da146102cf57806314ec32fa146102e2578063238c849414610318575b600080fd5b6102a761027c3660046133ed565b6001600160a01b03166000908152600460209081526040808320548352600390915290206001015490565b6040519081526020015b60405180910390f35b6102cd6102c83660046133ed565b61075c565b005b6102cd6102dd366004613411565b6107b9565b6102a76102f03660046133ed565b6001600160a01b03166000908152600460209081526040808320548352600390915290205490565b6102a7600b5481565b6102cd61032f366004613411565b6108eb565b6102cd610342366004613411565b610978565b61036e7f000000000000000000000000000000000000000000000000000000000000000081565b6040516001600160a01b0390911681526020016102b1565b6102cd61039436600461342a565b6109b5565b61036e7f000000000000000000000000000000000000000000000000000000000000000081565b6102cd6103ce366004613572565b610f0a565b6102cd6103e1366004613411565b610f97565b6103f96103f43660046133ed565b611038565b6040516102b1919061362b565b6102cd61041436600461366f565b6110b1565b6102a760095481565b6104356104303660046133ed565b611144565b6040516102b19190613770565b6102cd610450366004613411565b611382565b6102a760075481565b6102cd61046c3660046137f1565b611421565b6102cd611619565b6104356104873660046137f1565b61162d565b61049f61049a3660046133ed565b611803565b6040516102b19190613897565b6000546001600160a01b031661036e565b6105066104cb366004613411565b600660205260009081526040902080546001820154600283015460038401546004909401546001600160a01b03938416949390921692909185565b604080516001600160a01b039687168152959094166020860152928401919091526060830152608082015260a0016102b1565b6102cd610547366004613411565b61189d565b6102cd61055a3660046138ef565b611934565b6102cd61056d366004613411565b611c90565b610585610580366004613411565b611d97565b6040516102b1919061397d565b6102a7600a5481565b6105e26105a9366004613411565b600560205260009081526040902080546009820154600a830154600b840154600c909401546001600160a01b0390931693919290919085565b604080516001600160a01b0390961686526020860194909452928401919091526060830152608082015260a0016102b1565b6102cd6106223660046133ed565b611e84565b61036e7f000000000000000000000000000000000000000000000000000000000000000081565b6102cd61065c366004613990565b611f3c565b6102cd61066f366004613411565b611ffa565b600c5461036e906001600160a01b031681565b60015461036e906001600160a01b031681565b6102a760085481565b6102a7600d5481565b6106bf6106ba366004613a05565b61214b565b6040516102b19190613a7a565b6102cd6106da3660046133ed565b612283565b60025461036e906001600160a01b031681565b6102cd6107003660046133ed565b6122d9565b61074c610713366004613afe565b6001600160a01b038216600090815260046020908152604080832054835260038083528184208585520190915290205460ff1692915050565b60405190151581526020016102b1565b610764612352565b600280546001600160a01b0319166001600160a01b0383169081179091556040519081527f6e7665a41605edc0d70f4b991d652755f380754eb092d81ef9ab93664778d59e906020015b60405180910390a150565b336000908152600460205260409020546107ee5760405162461bcd60e51b81526004016107e590613b2a565b60405180910390fd5b336000908152600460209081526040808320548084526003808452828520868652019092529091205460ff16156108675760405162461bcd60e51b815260206004820152601860248201527f5573657220616c7265616479206f6e2064656e796c697374000000000000000060448201526064016107e5565b60008181526003602081815260408084208685528084018352818520805460ff19166001908117909155938352600201805493840181558452922001839055517f976c693d56f27ba17d902bda80c4fa0416b773fbf268bcb0ee71689234d769ee906108df9083908590918252602082015260400190565b60405180910390a15050565b6108f3612352565b806000036109435760405162461bcd60e51b815260206004820152601e60248201527f4d696e696d756d206465706f7369742063616e6e6f74206265207a65726f000060448201526064016107e5565b60078190556040518181527fbdde72a6d8d8b42770c9899945ccdce09d0c5c794d3326cdb2d2cca61b12a9fc906020016107ae565b610980612352565b60098190556040518181527f88397975d177ce5e18abf3a5fdb8de773e80673d85eeb54f48cfaf688b3d2c3e906020016107ae565b336000908152600460205260409020546109e15760405162461bcd60e51b81526004016107e590613b2a565b336000908152600460208181526040808420548785526005835281852080546001600160a01b031686529383528185205480865260038085528387208388520190935293205460ff1615610a775760405162461bcd60e51b815260206004820181905260248201527f4f6e72616d706572206f6e206465706f7369746f7227732064656e796c69737460448201526064016107e5565b6009546000848152600360205260409020600101544291610a9791613b77565b1115610af15760405162461bcd60e51b8152602060048201526024808201527f4f6e2072616d7020636f6f6c20646f776e20706572696f64206e6f7420656c616044820152631c1cd95960e21b60648201526084016107e5565b60008381526003602052604090205415610b4d5760405162461bcd60e51b815260206004820152601860248201527f496e74656e74207374696c6c206f75747374616e64696e67000000000000000060448201526064016107e5565b828103610b9c5760405162461bcd60e51b815260206004820152601e60248201527f53656e6465722063616e6e6f7420626520746865206465706f7369746f72000060448201526064016107e5565b81546001600160a01b0316610bec5760405162461bcd60e51b815260206004820152601660248201527511195c1bdcda5d08191bd95cc81b9bdd08195e1a5cdd60521b60448201526064016107e5565b60008511610c4b5760405162461bcd60e51b815260206004820152602660248201527f5369676e616c656420616d6f756e74206d75737420626520677265617465722060448201526507468616e20360d41b60648201526084016107e5565b600854851115610cba5760405162461bcd60e51b815260206004820152603460248201527f5369676e616c656420616d6f756e74206d757374206265206c657373207468616044820152731b881b585e081bdb8b5c985b5c08185b5bdd5b9d60621b60648201526084016107e5565b6001600160a01b038416610d105760405162461bcd60e51b815260206004820152601b60248201527f43616e6e6f742073656e6420746f207a65726f2061646472657373000000000060448201526064016107e5565b6000610d1c84886123ac565b90508583600a01541015610dd157600080610d3689612417565b91509150878186600a0154610d4b9190613b77565b1015610d905760405162461bcd60e51b81526020600482015260146024820152734e6f7420656e6f756768206c697175696469747960601b60448201526064016107e5565b610d9a85836125bf565b8085600a016000828254610dae9190613b77565b925050819055508085600b016000828254610dc99190613b8a565b909155505050505b6040805160a0810182523381526001600160a01b0387811660208084019182528385018c8152606085018c81524260808701908152600089815260068552888120975188549088166001600160a01b0319918216178955955160018901805491909816961695909517909555905160028601555160038086019190915592516004909401939093558781529152908120829055600a84018054889290610e78908490613b8a565b925050819055508583600b016000828254610e939190613b77565b9091555050600d83018054600181018255600091825260209182902001829055604080516001600160a01b038816815291820188905242908201528490889083907f1a1292e170a0f000ccf956afba79bee0f9ec1d81f3f901c1d4d11e1f336aae109060600160405180910390a450505050505050565b6000806000610f1b87878787612621565b925092509250610f2b828261294f565b826060015182600b016000828254610f439190613b8a565b909155505082516001600160a01b0316600090815260046020908152604080832054835260039091529081902042600190910155830151610f849083612a28565b610f8e8184612b13565b50505050505050565b610f9f612352565b806000036110035760405162461bcd60e51b815260206004820152602b60248201527f4d617820696e74656e742065787069726174696f6e20706572696f642063616e60448201526a6e6f74206265207a65726f60a81b60648201526084016107e5565b600a8190556040518181527f55e3f6b95de9a0ec782f892e93fafe4e56be0696df204ddf8e0a40a9a713a803906020016107ae565b6001600160a01b038116600090815260046020908152604080832054835260038252918290206002018054835181840281018401909452808452606093928301828280156110a557602002820191906000526020600020905b815481526020019060010190808311611091575b50505050509050919050565b6110b9612352565b600254600160a01b900460ff16156111095760405162461bcd60e51b8152602060048201526013602482015272105b1c9958591e481a5b9a5d1a585b1a5e9959606a1b60448201526064016107e5565b600180546001600160a01b039384166001600160a01b0319909116179055600280546001600160a81b0319169190921617600160a01b179055565b6001600160a01b03811660009081526004602090815260408083206001018054825181850281018501909352808352606094938301828280156111a657602002820191906000526020600020905b815481526020019060010190808311611192575b50505050509050805167ffffffffffffffff8111156111c7576111c7613463565b60405190808252806020026020018201604052801561120057816020015b6111ed6131ef565b8152602001906001900390816111e55790505b50915060005b815181101561137b57600082828151811061122357611223613b9d565b6020908102919091018101516000818152600583526040808220815160e08101835281546001600160a01b031681528251610100810190935293955091938301906001830160088282826020028201915b815481526020019060010190808311611274575050505050815260200160098201548152602001600a8201548152602001600b8201548152602001600c8201548152602001600d820180548060200260200160405190810160405280929190818152602001828054801561130757602002820191906000526020600020905b8154815260200190600101908083116112f3575b5050505050815250509050600061131d83612417565b91505060405180606001604052808481526020018381526020018284606001516113479190613b77565b81525086858151811061135c5761135c613b9d565b60200260200101819052505050508061137490613bb3565b9050611206565b5050919050565b61138a612352565b66b1a2bc2ec500008111156113ec5760405162461bcd60e51b815260206004820152602260248201527f4665652063616e6e6f742062652067726561746572207468616e206d61782066604482015261656560f01b60648201526084016107e5565b600b8190556040518181527f44f48e1b871e6db1e909a7b253b054b7150a0b4ddf4d59b159c827d82e725670906020016107ae565b6000805b825181101561158257600083828151811061144257611442613b9d565b6020908102919091018101516000818152600590925260409091208054919250906001600160a01b031633146114ba5760405162461bcd60e51b815260206004820152601c60248201527f53656e646572206d75737420626520746865206465706f7369746f720000000060448201526064016107e5565b6000806114c684612417565b915091506114d483836125bf565b8083600a01546114e49190613b77565b6114ee9087613b77565b95508083600b0160008282546115049190613b8a565b90915550508254600a8401546001600160a01b039091169085907fae1f357660ab777dcfd38c0ab6357834684ec26289ecfa07ec65dbf6c3c643129061154b908590613b77565b60405190815260200160405180910390a36000600a84015561156d8484612a28565b505050508061157b90613bb3565b9050611425565b5060405163a9059cbb60e01b8152336004820152602481018290527f00000000000000000000000000000000000000000000000000000000000000006001600160a01b03169063a9059cbb906044016020604051808303816000875af11580156115f0573d6000803e3d6000fd5b505050506040513d601f19601f820116820180604052508101906116149190613bcc565b505050565b611621612352565b61162b6000612cf1565b565b6060815167ffffffffffffffff81111561164957611649613463565b60405190808252806020026020018201604052801561168257816020015b61166f6131ef565b8152602001906001900390816116675790505b50905060005b82518110156117fd5760008382815181106116a5576116a5613b9d565b6020908102919091018101516000818152600583526040808220815160e08101835281546001600160a01b031681528251610100810190935293955091938301906001830160088282826020028201915b8154815260200190600101908083116116f6575050505050815260200160098201548152602001600a8201548152602001600b8201548152602001600c8201548152602001600d820180548060200260200160405190810160405280929190818152602001828054801561178957602002820191906000526020600020905b815481526020019060010190808311611775575b5050505050815250509050600061179f83612417565b91505060405180606001604052808481526020018381526020018284606001516117c99190613b77565b8152508585815181106117de576117de613b9d565b6020026020010181905250505050806117f690613bb3565b9050611688565b50919050565b6040805180820190915260008152606060208201526001600160a01b03821660009081526004602090815260409182902082518084018452815481526001820180548551818602810186019096528086529194929385810193929083018282801561188d57602002820191906000526020600020905b815481526020019060010190808311611879575b5050505050815250509050919050565b6118a5612352565b806000036118ff5760405162461bcd60e51b815260206004820152602160248201527f4d6178206f6e2072616d7020616d6f756e742063616e6e6f74206265207a65726044820152606f60f81b60648201526084016107e5565b60088190556040518181527fcab6b49ca21dd111cf4a55d507bbe89dd12d69216e28247060d4b2163ca41b39906020016107ae565b336000908152600460205260409020546119605760405162461bcd60e51b81526004016107e590613b2a565b336000908152600460205260409020600101546005116119c25760405162461bcd60e51b815260206004820152601e60248201527f4d6178696d756d206465706f73697420616d6f756e742072656163686564000060448201526064016107e5565b600754821015611a335760405162461bcd60e51b815260206004820152603660248201527f4465706f73697420616d6f756e74206d757374206265206772656174657220746044820152751a185b881b5a5b8819195c1bdcda5d08185b5bdd5b9d60521b60648201526084016107e5565b60008111611a915760405162461bcd60e51b815260206004820152602560248201527f5265636569766520616d6f756e74206d75737420626520677265617465722074604482015264068616e20360dc1b60648201526084016107e5565b600081611aa6670de0b6b3a764000085613bee565b611ab09190613c1b565b600d80549192506000919082611ac583613bb3565b9091555033600081815260046020908152604080832060018082018054808301825590865284862001879055825160e0810184529586528584018c81528684018c9052606087018c90526080870186905260a087018a90528351868152808601855260c0880152878652600590945291909320845181546001600160a01b0319166001600160a01b03909116178155915194955091939091611b6c91908301906008613216565b50604082015160098201556060820151600a8201556080820151600b82015560a0820151600c82015560c08201518051611bb091600d840191602090910190613254565b50506040516323b872dd60e01b8152336004820152306024820152604481018790527f00000000000000000000000000000000000000000000000000000000000000006001600160a01b031691506323b872dd906064016020604051808303816000875af1158015611c26573d6000803e3d6000fd5b505050506040513d601f19601f82011682018060405250810190611c4a9190613bcc565b508054604080518781526020810186905284917f36b046df2c296f2a5a78570d5e52a92773cbb616825b1af59a49a4d02df2b109910160405180910390a3505050505050565b33600090815260046020526040902054611cbc5760405162461bcd60e51b81526004016107e590613b2a565b336000908152600460209081526040808320548084526003808452828520868652019092529091205460ff16611d2b5760405162461bcd60e51b8152602060048201526014602482015273155cd95c881b9bdd081bdb8819195b9e5b1a5cdd60621b60448201526064016107e5565b60008181526003602081815260408084208685528084018352908420805460ff191690559284905252611d619060020183612d41565b60408051828152602081018490527f8935205b1b382095d2d95efbb36f81a11a34c548d45af26adc1a02d2f2bb546f91016108df565b611d9f61328e565b600082815260056020908152604091829020825160e08101845281546001600160a01b03168152835161010081019485905290939192840191600184019060089082845b815481526020019060010190808311611de3575050505050815260200160098201548152602001600a8201548152602001600b8201548152602001600c8201548152602001600d820180548060200260200160405190810160405280929190818152602001828054801561188d5760200282019190600052602060002090815481526020019060010190808311611879575050505050815250509050919050565b611e8c612352565b6001600160a01b038116611eee5760405162461bcd60e51b8152602060048201526024808201527f46656520726563697069656e742063616e6e6f74206265207a65726f206164646044820152637265737360e01b60648201526084016107e5565b600c80546001600160a01b0319166001600160a01b0383169081179091556040519081527f594ad6ee98bfc0c73e6d15fd4e762502f359e05d26907b7fa1ff82eb5e99f6e4906020016107ae565b3360009081526004602052604090205415611fa85760405162461bcd60e51b815260206004820152602660248201527f4163636f756e7420616c7265616479206173736f6369617465642077697468206044820152650d2c890c2e6d60d31b60648201526084016107e5565b6000611fb685858585612e6a565b336000818152600460205260408082208490555192935083927f672144042732f7b1cdbf0772464ae545aedd7f41d38b8487dafd9085496a5d519190a35050505050565b6000818152600660209081526040808320815160a08101835281546001600160a01b039081168252600183015416938101939093526002810154918301919091526003810154606083015260040154608082018190529091036120975760405162461bcd60e51b8152602060048201526015602482015274125b9d195b9d08191bd95cc81b9bdd08195e1a5cdd605a1b60448201526064016107e5565b80516001600160a01b031633146120f05760405162461bcd60e51b815260206004820152601c60248201527f53656e646572206d75737420626520746865206f6e2d72616d7065720000000060448201526064016107e5565b604080820151600090815260056020522061210b818461294f565b816060015181600a0160008282546121239190613b77565b90915550506060820151600b82018054600090612141908490613b8a565b9091555050505050565b606060008267ffffffffffffffff81111561216857612168613463565b6040519080825280602002602001820160405280156121a157816020015b61218e6132da565b8152602001906001900390816121865790505b50905060005b83811015612279576000600660008787858181106121c7576121c7613b9d565b602090810292909201358352508181019290925260409081016000908120825160a08101845281546001600160a01b03908116825260018301548116828701526002830154828601526003830154606083015260049283015460808301528451808601865282815282519091168452918552929091205492810192909252845190925084908490811061225c5761225c613b9d565b6020026020010181905250508061227290613bb3565b90506121a7565b5090505b92915050565b61228b612352565b600180546001600160a01b0319166001600160a01b0383169081179091556040519081527f73d3ac111d5926fbfd68ade03832f0b1a4daef0cd0effc1fa0829264bcc57c41906020016107ae565b6122e1612352565b6001600160a01b0381166123465760405162461bcd60e51b815260206004820152602660248201527f4f776e61626c653a206e6577206f776e657220697320746865207a65726f206160448201526564647265737360d01b60648201526084016107e5565b61234f81612cf1565b50565b6000546001600160a01b0316331461162b5760405162461bcd60e51b815260206004820181905260248201527f4f776e61626c653a2063616c6c6572206973206e6f7420746865206f776e657260448201526064016107e5565b6040805160208101849052908101829052426060820152600090819060800160408051601f198184030181529190528051602090910120905061240f7f30644e72e131a029b85045b68181585d2833e84879b9709143e1f593f000000182613c2f565b949350505050565b6000818152600560209081526040808320600d01805482518185028101850190935280835260609493849392919083018282801561247457602002820191906000526020600020905b815481526020019060010190808311612460575b50505050509050805167ffffffffffffffff81111561249557612495613463565b6040519080825280602002602001820160405280156124be578160200160208202803683370190505b50925060005b81518110156125b8576000600660008484815181106124e5576124e5613b9d565b6020908102919091018101518252818101929092526040908101600020815160a08101835281546001600160a01b03908116825260018301541693810193909352600281015491830191909152600381015460608301526004015460808201819052600a54919250429161255891613b77565b10156125a75782828151811061257057612570613b9d565b602002602001015185838151811061258a5761258a613b9d565b602090810291909101015260608101516125a49085613b77565b93505b506125b181613bb3565b90506124c4565b5050915091565b60005b8151811015611614576000801b8282815181106125e1576125e1613b9d565b602002602001015114612611576126118383838151811061260457612604613b9d565b602002602001015161294f565b61261a81613bb3565b90506125c2565b6126296132fa565b600254604080516080810182528781526020810187905280820186905260608101859052905163bf93fde160e01b81526000928392839283928392839283926001600160a01b03169163bf93fde1916126859190600401613c94565b60a0604051808303816000875af11580156126a4573d6000803e3d6000fd5b505050506040513d601f19601f820116820180604052508101906126c89190613d03565b6000818152600660209081526040808320815160a08101835281546001600160a01b03908116825260018301548116828601526002830154828501819052600384015460608401526004909301546080830152918552600590935292208151979c50959a50939850919650945090921661277c5760405162461bcd60e51b8152602060048201526015602482015274125b9d195b9d08191bd95cc81b9bdd08195e1a5cdd605a1b60448201526064016107e5565b85826080015111156127db5760405162461bcd60e51b815260206004820152602260248201527f496e74656e7420776173206e6f742063726561746564206265666f72652073656044820152611b9960f21b60648201526084016107e5565b6040805161010081019182905286916128179190600185019060089082845b8154815260200190600101908083116127fa575050505050612f08565b146128645760405162461bcd60e51b815260206004820152601b60248201527f4f666672616d70657220696420646f6573206e6f74206d61746368000000000060448201526064016107e5565b81516001600160a01b031660009081526004602052604090205484146128cc5760405162461bcd60e51b815260206004820152601a60248201527f4f6e72616d70657220696420646f6573206e6f74206d6174636800000000000060448201526064016107e5565b80600c0154670de0b6b3a764000083606001516128e99190613bee565b6128f39190613c1b565b87101561293b5760405162461bcd60e51b81526020600482015260166024820152750a0c2f2dacadce840eec2e640dcdee840cadcdeeaced60531b60448201526064016107e5565b909d909c50909a5098505050505050505050565b6000818152600660208181526040808420815160a08101835281546001600160a01b039081168083526001840180549092168387015260028401805484870152600380860180546060870152600480880180546080890152948c528952878b20548b529088529589208990558989529690955282546001600160a01b0319908116909355805490921690915592849055839055919091556129f3600d840183612d41565b604080820151905183907fe8a865b4bab023c399cbd1f2cdd0df2199beb6e5012a4bd2d7691cf7e4199d5a90600090a3505050565b600081600a015482600b0154612a3e9190613b77565b9050806000036116145781546001600160a01b03166000908152600460205260409020612a6e9060010184613097565b8154604080518581526001600160a01b0390921660208301527f8ac07cc6e38c6222dd0309c80353c1962354bacf222b825d7401cc80e93ff3cc910160405180910390a1600083815260056020526040812080546001600160a01b031916815590612adc600183018261333b565b6009820160009055600a820160009055600b820160009055600c820160009055600d82016000612b0c919061334a565b5050505050565b6000600b54600014612bdf57670de0b6b3a7640000600b548360600151612b3a9190613bee565b612b449190613c1b565b600c5460405163a9059cbb60e01b81526001600160a01b039182166004820152602481018390529192507f0000000000000000000000000000000000000000000000000000000000000000169063a9059cbb906044016020604051808303816000875af1158015612bb9573d6000803e3d6000fd5b505050506040513d601f19601f82011682018060405250810190612bdd9190613bcc565b505b6000818360600151612bf19190613b8a565b602084015160405163a9059cbb60e01b81526001600160a01b039182166004820152602481018390529192507f0000000000000000000000000000000000000000000000000000000000000000169063a9059cbb906044016020604051808303816000875af1158015612c68573d6000803e3d6000fd5b505050506040513d601f19601f82011682018060405250810190612c8c9190613bcc565b50825160408085015160208087015183516001600160a01b03918216815291820186905292810186905291909216919086907ffa03438194e61c243c6bb5349f1e1dc674431b86f119b5e3b2b327bc43446bce9060600160405180910390a450505050565b600080546001600160a01b038381166001600160a01b0319831681178455604051919092169283917f8be0079c531659141344cd1fd0a4f28419497f9722a3daafe3b4186f6b6457e09190a35050565b600080612d9d84805480602002602001604051908101604052809291908181526020018280548015612d9257602002820191906000526020600020905b815481526020019060010190808311612d7e575b50505050508461313c565b9150915080612de65760405162461bcd60e51b8152602060048201526015602482015274313cba32b99999103737ba1034b71030b93930bc9760591b60448201526064016107e5565b8354600090612df790600190613b8a565b9050808314612e3c57848181548110612e1257612e12613b9d565b9060005260206000200154858481548110612e2f57612e2f613b9d565b6000918252602090912001555b84805480612e4c57612e4c613d43565b60019003818190600052602060002001600090559055505b50505050565b6001546040805160808101825286815260208101869052808201859052606081018490529051630be4767960e11b815260009283926001600160a01b03909116916317c8ecf291612ebd91600401613d59565b602060405180830381865afa158015612eda573d6000803e3d6000fd5b505050506040513d601f19601f82011682018060405250810190612efe9190613dbe565b9695505050505050565b6000612f12613368565b612f1a613386565b60005b6006811015612f6457848160088110612f3857612f38613b9d565b6020020151838260068110612f4f57612f4f613b9d565b6020020152612f5d81613bb3565b9050612f1d565b50604051631eb694f160e31b81526001600160a01b037f0000000000000000000000000000000000000000000000000000000000000000169063f5b4a78890612fb1908590600401613dd7565b602060405180830381865afa158015612fce573d6000803e3d6000fd5b505050506040513d601f19601f82011682018060405250810190612ff29190613dbe565b815260c0840151602082015260e0840151604080830191909152516304b98e1d60e31b81527f00000000000000000000000000000000000000000000000000000000000000006001600160a01b0316906325cc70e890613056908490600401613e08565b602060405180830381865afa158015613073573d6000803e3d6000fd5b505050506040513d601f19601f8201168201806040525081019061240f9190613dbe565b6000806130f3848054806020026020016040519081016040528092919081815260200182805480156130e857602002820191906000526020600020905b8154815260200190600101908083116130d4575b50505050508461319f565b9150915080612de65760405162461bcd60e51b81526020600482015260156024820152743ab4b73a191a9b103737ba1034b71030b93930bc9760591b60448201526064016107e5565b81516000908190815b8181101561318c578486828151811061316057613160613b9d565b60200260200101510361317a579250600191506131989050565b8061318481613bb3565b915050613145565b50600019600092509250505b9250929050565b81516000908190815b8181101561318c57848682815181106131c3576131c3613b9d565b6020026020010151036131dd579250600191506131989050565b806131e781613bb3565b9150506131a8565b60405180606001604052806000815260200161320961328e565b8152602001600081525090565b8260088101928215613244579160200282015b82811115613244578251825591602001919060010190613229565b506132509291506133a4565b5090565b8280548282559060005260206000209081019282156132445791602002820182811115613244578251825591602001919060010190613229565b6040518060e0016040528060006001600160a01b031681526020016132b16133b9565b815260200160008152602001600081526020016000815260200160008152602001606081525090565b60405180604001604052806132ed6132fa565b8152600060209091015290565b6040518060a0016040528060006001600160a01b0316815260200160006001600160a01b031681526020016000815260200160008152602001600081525090565b5061234f9060088101906133a4565b508054600082559060005260206000209081019061234f91906133a4565b6040518060c001604052806006906020820280368337509192915050565b60405180606001604052806003906020820280368337509192915050565b5b8082111561325057600081556001016133a5565b6040518061010001604052806008906020820280368337509192915050565b6001600160a01b038116811461234f57600080fd5b6000602082840312156133ff57600080fd5b813561340a816133d8565b9392505050565b60006020828403121561342357600080fd5b5035919050565b60008060006060848603121561343f57600080fd5b83359250602084013591506040840135613458816133d8565b809150509250925092565b634e487b7160e01b600052604160045260246000fd5b6040805190810167ffffffffffffffff8111828210171561349c5761349c613463565b60405290565b604051601f8201601f1916810167ffffffffffffffff811182821017156134cb576134cb613463565b604052919050565b600082601f8301126134e457600080fd5b6134ec613479565b8060408401858111156134fe57600080fd5b845b81811015613518578035845260209384019301613500565b509095945050505050565b600082601f83011261353457600080fd5b61353c613479565b80608084018581111561354e57600080fd5b845b818110156135185761356287826134d3565b8452602090930192604001613550565b6000806000806102e080868803121561358a57600080fd5b61359487876134d3565b94506135a38760408801613523565b93506135b28760c088016134d3565b92508661011f8701126135c457600080fd5b6040516101e0810181811067ffffffffffffffff821117156135e8576135e8613463565b6040529086019080888311156135fd57600080fd5b61010088015b8381101561361b578035825260209182019101613603565b5050809250505092959194509250565b6020808252825182820181905260009190848201906040850190845b8181101561366357835183529284019291840191600101613647565b50909695505050505050565b6000806040838503121561368257600080fd5b823561368d816133d8565b9150602083013561369d816133d8565b809150509250929050565b600081518084526020808501945080840160005b838110156136d8578151875295820195908201906001016136bc565b509495945050505050565b80516001600160a01b031682526020808201516000916101c091818601845b600881101561371f57825182529183019190830190600101613702565b5050505060408301516101208501526060830151610140850152608083015161016085015260a083015161018085015260c0830151816101a0860152613767828601826136a8565b95945050505050565b60006020808301818452808551808352604092508286019150828160051b87010184880160005b838110156137e357603f19898403018552815160608151855288820151818a8701526137c5828701826136e3565b92890151958901959095525094870194925090860190600101613797565b509098975050505050505050565b6000602080838503121561380457600080fd5b823567ffffffffffffffff8082111561381c57600080fd5b818501915085601f83011261383057600080fd5b81358181111561384257613842613463565b8060051b91506138538483016134a2565b818152918301840191848101908884111561386d57600080fd5b938501935b8385101561388b57843582529385019390850190613872565b98975050505050505050565b60208082528251828201528281015160408084015280516060840181905260009291820190839060808601905b808310156138e457835182529284019260019290920191908401906138c4565b509695505050505050565b6000806000610140848603121561390557600080fd5b84601f85011261391457600080fd5b60405161010080820182811067ffffffffffffffff8211171561393957613939613463565b6040528501818782111561394c57600080fd5b865b8281101561396657803582526020918201910161394e565b509197903596506101209590950135949350505050565b60208152600061340a60208301846136e3565b6000806000806101a08086880312156139a857600080fd5b6139b287876134d3565b94506139c18760408801613523565b93506139d08760c088016134d3565b92508661011f8701126139e257600080fd5b60405160a0810181811067ffffffffffffffff821117156135e8576135e8613463565b60008060208385031215613a1857600080fd5b823567ffffffffffffffff80821115613a3057600080fd5b818501915085601f830112613a4457600080fd5b813581811115613a5357600080fd5b8660208260051b8501011115613a6857600080fd5b60209290920196919550909350505050565b602080825282518282018190526000919060409081850190868401855b82811015613af1578151805180516001600160a01b0390811687528882015116888701528681015187870152606080820151908701526080908101519086015286015160a085015260c09093019290850190600101613a97565b5091979650505050505050565b60008060408385031215613b1157600080fd5b8235613b1c816133d8565b946020939093013593505050565b6020808252601e908201527f43616c6c6572206d757374206265207265676973746572656420757365720000604082015260600190565b634e487b7160e01b600052601160045260246000fd5b8082018082111561227d5761227d613b61565b8181038181111561227d5761227d613b61565b634e487b7160e01b600052603260045260246000fd5b600060018201613bc557613bc5613b61565b5060010190565b600060208284031215613bde57600080fd5b8151801515811461340a57600080fd5b808202811582820484141761227d5761227d613b61565b634e487b7160e01b600052601260045260246000fd5b600082613c2a57613c2a613c05565b500490565b600082613c3e57613c3e613c05565b500690565b8060005b6002811015612e64578151845260209384019390910190600101613c47565b8060005b6002811015612e6457613c7e848351613c43565b6040939093019260209190910190600101613c6a565b60006102e082019050613ca8828451613c43565b602080840151613cbb6040850182613c66565b506040840151613cce60c0850182613c43565b506060840151610100840160005b600f811015613cf957825182529183019190830190600101613cdc565b5050505092915050565b600080600080600060a08688031215613d1b57600080fd5b5050835160208501516040860151606087015160809097015192989197509594509092509050565b634e487b7160e01b600052603160045260246000fd5b60006101a082019050613d6d828451613c43565b602080840151613d806040850182613c66565b506040840151613d9360c0850182613c43565b506060840151610100840160005b6005811015613cf957825182529183019190830190600101613da1565b600060208284031215613dd057600080fd5b5051919050565b60c08101818360005b6006811015613dff578151835260209283019290910190600101613de0565b50505092915050565b60608101818360005b6003811015613dff578151835260209283019290910190600101613e1156fea26469706673582212206af7ada000afb5072933d5406fdc23867bc3397aa390746b8041aa16542475cd64736f6c63430008120033",
  "devdoc": {
    "kind": "dev",
    "methods": {
      "addAccountToDenylist(bytes32)": {
        "params": {
          "_deniedUser": "Poseidon hash of the idHash being banned"
        }
      },
      "cancelIntent(bytes32)": {
        "params": {
          "_intentHash": "Hash of intent being cancelled"
        }
      },
      "initialize(address,address)": {
        "params": {
          "_registrationProcessor": "Registration processor address",
          "_sendProcessor": "Send processor address"
        }
      },
      "offRamp(uint256[8],uint256,uint256)": {
        "params": {
          "_depositAmount": "The amount of USDC to off-ramp",
          "_receiveAmount": "The amount of USD to receive",
          "_upiId": "The upi ID of the depositor"
        }
      },
      "onRamp(uint256[2],uint256[2][2],uint256[2],uint256[15])": {
        "params": {
          "_a": "Parameter of zk proof",
          "_b": "Parameter of zk proof",
          "_c": "Parameter of zk proof",
          "_signals": "Encoded public signals of the zk proof, contains mailserverHash, fromEmail, timestamp, onRamperIdHash,                  nullifier, intentHash"
        }
      },
      "owner()": {
        "details": "Returns the address of the current owner."
      },
      "register(uint256[2],uint256[2][2],uint256[2],uint256[5])": {
        "params": {
          "_a": "Parameter of zk proof",
          "_b": "Parameter of zk proof",
          "_c": "Parameter of zk proof",
          "_signals": "Encoded public signals of the zk proof, contains mailserverHash, fromEmail, userIdHash"
        }
      },
      "removeAccountFromDenylist(bytes32)": {
        "params": {
          "_approvedUser": "Poseidon hash of the idHash being approved"
        }
      },
      "renounceOwnership()": {
        "details": "Leaves the contract without owner. It will not be possible to call `onlyOwner` functions. Can only be called by the current owner. NOTE: Renouncing ownership will leave the contract without an owner, thereby disabling any functionality that is only available to the owner."
      },
      "setIntentExpirationPeriod(uint256)": {
        "params": {
          "_intentExpirationPeriod": "New intent expiration period"
        }
      },
      "setMaxOnRampAmount(uint256)": {
        "params": {
          "_maxOnRampAmount": "The new max on ramp amount"
        }
      },
      "setMinDepositAmount(uint256)": {
        "params": {
          "_minDepositAmount": "The new minimum deposit amount"
        }
      },
      "setOnRampCooldownPeriod(uint256)": {
        "params": {
          "_onRampCooldownPeriod": "New on-ramp cooldown period"
        }
      },
      "setRegistrationProcessor(address)": {
        "params": {
          "_registrationProcessor": "New registration proccesor address"
        }
      },
      "setSendProcessor(address)": {
        "params": {
          "_sendProcessor": "New send proccesor address"
        }
      },
      "setSustainabilityFee(uint256)": {
        "params": {
          "_fee": "The new sustainability fee in precise units (10**18, ie 10% = 1e17)"
        }
      },
      "setSustainabilityFeeRecipient(address)": {
        "params": {
          "_feeRecipient": "The new fee recipient address"
        }
      },
      "signalIntent(uint256,uint256,address)": {
        "params": {
          "_amount": "The amount of USDC the user wants to on-ramp",
          "_depositId": "The ID of the deposit the on-ramper intends to use for ",
          "_to": "Address to forward funds to (can be same as onRamper)"
        }
      },
      "transferOwnership(address)": {
        "details": "Transfers ownership of the contract to a new account (`newOwner`). Can only be called by the current owner."
      },
      "withdrawDeposit(uint256[])": {
        "params": {
          "_depositIds": "Array of depositIds the depositor is attempting to withdraw"
        }
      }
    },
    "version": 1
  },
  "userdoc": {
    "kind": "user",
    "methods": {
      "addAccountToDenylist(bytes32)": {
        "notice": "Adds an idHash to a depositor's deny list. If an address associated with the banned idHash attempts to signal an intent on the user's deposit they will be denied."
      },
      "cancelIntent(bytes32)": {
        "notice": "Only callable by the originator of the intent. Cancels an outstanding intent thus allowing user to signal a new intent. Deposit state is updated to reflect the cancelled intent."
      },
      "initialize(address,address)": {
        "notice": "Initialize Ramp with the addresses of the Processors"
      },
      "offRamp(uint256[8],uint256,uint256)": {
        "notice": "Generates a deposit entry for off-rampers that can then be fulfilled by an on-ramper. This function will not add to previous deposits. Every deposit has it's own unique identifier. User must approve the contract to transfer the deposit amount of USDC."
      },
      "onRamp(uint256[2],uint256[2][2],uint256[2],uint256[15])": {
        "notice": "Anyone can submit an on-ramp transaction, even if caller isn't on-ramper. Upon submission the proof is validated, intent is removed, and deposit state is updated. USDC is transferred to the on-ramper."
      },
      "register(uint256[2],uint256[2][2],uint256[2],uint256[5])": {
        "notice": "Registers a new account by pulling the hash of the account id from the proof and assigning the account owner to the sender of the transaction. One HDFC account can be registered to multiple Ethereum addresses."
      },
      "removeAccountFromDenylist(bytes32)": {
        "notice": "Removes a idHash from a depositor's deny list."
      },
      "setIntentExpirationPeriod(uint256)": {
        "notice": "GOVERNANCE ONLY: Updates the intent expiration period, after this period elapses an intent can be pruned to prevent locking up a depositor's funds."
      },
      "setMaxOnRampAmount(uint256)": {
        "notice": "GOVERNANCE ONLY: Updates the max amount allowed to be on-ramped in each transaction. To on-ramp more than this amount a user must make multiple transactions."
      },
      "setMinDepositAmount(uint256)": {
        "notice": "GOVERNANCE ONLY: Updates the minimum deposit amount a user can specify for off-ramping."
      },
      "setOnRampCooldownPeriod(uint256)": {
        "notice": "GOVERNANCE ONLY: Updates the on-ramp cooldown period, once an on-ramp transaction is completed the user must wait this amount of time before they can signalIntent to on-ramp again."
      },
      "setRegistrationProcessor(address)": {
        "notice": "GOVERNANCE ONLY: Updates the registration processor address used for validating and interpreting zk proofs."
      },
      "setSendProcessor(address)": {
        "notice": "GOVERNANCE ONLY: Updates the send processor address used for validating and interpreting zk proofs."
      },
      "setSustainabilityFee(uint256)": {
        "notice": "GOVERNANCE ONLY: Updates the sustainability fee. This fee is charged to on-rampers upon a successful on-ramp."
      },
      "setSustainabilityFeeRecipient(address)": {
        "notice": "GOVERNANCE ONLY: Updates the recepient of sustainability fees."
      },
      "signalIntent(uint256,uint256,address)": {
        "notice": "Signals intent to pay the depositor defined in the _depositId the _amount * deposit conversionRate off-chain in order to unlock _amount of funds on-chain. Each user can only have one outstanding intent at a time regardless of address (tracked using idHash). Caller must not be on the depositor's deny list. If there are prunable intents then they will be deleted from the deposit to be able to maintain state hygiene."
      },
      "withdrawDeposit(uint256[])": {
        "notice": "Caller must be the depositor for each depositId in the array, if not whole function fails. Depositor is returned all remaining deposits and any outstanding intents that are expired. If an intent is not expired then those funds will not be returned. Deposit will be deleted as long as there are no more outstanding intents."
      }
    },
    "version": 1
  },
  "storageLayout": {
    "storage": [
      {
        "astId": 7,
        "contract": "contracts/HDFCRamp.sol:HDFCRamp",
        "label": "_owner",
        "offset": 0,
        "slot": "0",
        "type": "t_address"
      },
      {
        "astId": 2126,
        "contract": "contracts/HDFCRamp.sol:HDFCRamp",
        "label": "registrationProcessor",
        "offset": 0,
        "slot": "1",
        "type": "t_contract(IRegistrationProcessor)7234"
      },
      {
        "astId": 2129,
        "contract": "contracts/HDFCRamp.sol:HDFCRamp",
        "label": "sendProcessor",
        "offset": 0,
        "slot": "2",
        "type": "t_contract(IHDFCSendProcessor)7168"
      },
      {
        "astId": 2131,
        "contract": "contracts/HDFCRamp.sol:HDFCRamp",
        "label": "isInitialized",
        "offset": 20,
        "slot": "2",
        "type": "t_bool"
      },
      {
        "astId": 2136,
        "contract": "contracts/HDFCRamp.sol:HDFCRamp",
        "label": "globalAccount",
        "offset": 0,
        "slot": "3",
        "type": "t_mapping(t_bytes32,t_struct(GlobalAccountInfo)2084_storage)"
      },
      {
        "astId": 2141,
        "contract": "contracts/HDFCRamp.sol:HDFCRamp",
        "label": "accounts",
        "offset": 0,
        "slot": "4",
        "type": "t_mapping(t_address,t_struct(AccountInfo)2025_storage)"
      },
      {
        "astId": 2146,
        "contract": "contracts/HDFCRamp.sol:HDFCRamp",
        "label": "deposits",
        "offset": 0,
        "slot": "5",
        "type": "t_mapping(t_uint256,t_struct(Deposit)2043_storage)"
      },
      {
        "astId": 2151,
        "contract": "contracts/HDFCRamp.sol:HDFCRamp",
        "label": "intents",
        "offset": 0,
        "slot": "6",
        "type": "t_mapping(t_bytes32,t_struct(Intent)2062_storage)"
      },
      {
        "astId": 2153,
        "contract": "contracts/HDFCRamp.sol:HDFCRamp",
        "label": "minDepositAmount",
        "offset": 0,
        "slot": "7",
        "type": "t_uint256"
      },
      {
        "astId": 2155,
        "contract": "contracts/HDFCRamp.sol:HDFCRamp",
        "label": "maxOnRampAmount",
        "offset": 0,
        "slot": "8",
        "type": "t_uint256"
      },
      {
        "astId": 2157,
        "contract": "contracts/HDFCRamp.sol:HDFCRamp",
        "label": "onRampCooldownPeriod",
        "offset": 0,
        "slot": "9",
        "type": "t_uint256"
      },
      {
        "astId": 2159,
        "contract": "contracts/HDFCRamp.sol:HDFCRamp",
        "label": "intentExpirationPeriod",
        "offset": 0,
        "slot": "10",
        "type": "t_uint256"
      },
      {
        "astId": 2161,
        "contract": "contracts/HDFCRamp.sol:HDFCRamp",
        "label": "sustainabilityFee",
        "offset": 0,
        "slot": "11",
        "type": "t_uint256"
      },
      {
        "astId": 2163,
        "contract": "contracts/HDFCRamp.sol:HDFCRamp",
        "label": "sustainabilityFeeRecipient",
        "offset": 0,
        "slot": "12",
        "type": "t_address"
      },
      {
        "astId": 2165,
        "contract": "contracts/HDFCRamp.sol:HDFCRamp",
        "label": "depositCounter",
        "offset": 0,
        "slot": "13",
        "type": "t_uint256"
      }
    ],
    "types": {
      "t_address": {
        "encoding": "inplace",
        "label": "address",
        "numberOfBytes": "20"
      },
      "t_array(t_bytes32)dyn_storage": {
        "base": "t_bytes32",
        "encoding": "dynamic_array",
        "label": "bytes32[]",
        "numberOfBytes": "32"
      },
      "t_array(t_uint256)8_storage": {
        "base": "t_uint256",
        "encoding": "inplace",
        "label": "uint256[8]",
        "numberOfBytes": "256"
      },
      "t_array(t_uint256)dyn_storage": {
        "base": "t_uint256",
        "encoding": "dynamic_array",
        "label": "uint256[]",
        "numberOfBytes": "32"
      },
      "t_bool": {
        "encoding": "inplace",
        "label": "bool",
        "numberOfBytes": "1"
      },
      "t_bytes32": {
        "encoding": "inplace",
        "label": "bytes32",
        "numberOfBytes": "32"
      },
      "t_contract(IHDFCSendProcessor)7168": {
        "encoding": "inplace",
        "label": "contract IHDFCSendProcessor",
        "numberOfBytes": "20"
      },
      "t_contract(IRegistrationProcessor)7234": {
        "encoding": "inplace",
        "label": "contract IRegistrationProcessor",
        "numberOfBytes": "20"
      },
      "t_mapping(t_address,t_struct(AccountInfo)2025_storage)": {
        "encoding": "mapping",
        "key": "t_address",
        "label": "mapping(address => struct HDFCRamp.AccountInfo)",
        "numberOfBytes": "32",
        "value": "t_struct(AccountInfo)2025_storage"
      },
      "t_mapping(t_bytes32,t_bool)": {
        "encoding": "mapping",
        "key": "t_bytes32",
        "label": "mapping(bytes32 => bool)",
        "numberOfBytes": "32",
        "value": "t_bool"
      },
      "t_mapping(t_bytes32,t_struct(GlobalAccountInfo)2084_storage)": {
        "encoding": "mapping",
        "key": "t_bytes32",
        "label": "mapping(bytes32 => struct HDFCRamp.GlobalAccountInfo)",
        "numberOfBytes": "32",
        "value": "t_struct(GlobalAccountInfo)2084_storage"
      },
      "t_mapping(t_bytes32,t_struct(Intent)2062_storage)": {
        "encoding": "mapping",
        "key": "t_bytes32",
        "label": "mapping(bytes32 => struct HDFCRamp.Intent)",
        "numberOfBytes": "32",
        "value": "t_struct(Intent)2062_storage"
      },
      "t_mapping(t_uint256,t_struct(Deposit)2043_storage)": {
        "encoding": "mapping",
        "key": "t_uint256",
        "label": "mapping(uint256 => struct HDFCRamp.Deposit)",
        "numberOfBytes": "32",
        "value": "t_struct(Deposit)2043_storage"
      },
      "t_struct(AccountInfo)2025_storage": {
        "encoding": "inplace",
        "label": "struct HDFCRamp.AccountInfo",
        "members": [
          {
            "astId": 2021,
            "contract": "contracts/HDFCRamp.sol:HDFCRamp",
            "label": "idHash",
            "offset": 0,
            "slot": "0",
            "type": "t_bytes32"
          },
          {
            "astId": 2024,
            "contract": "contracts/HDFCRamp.sol:HDFCRamp",
            "label": "deposits",
            "offset": 0,
            "slot": "1",
            "type": "t_array(t_uint256)dyn_storage"
          }
        ],
        "numberOfBytes": "64"
      },
      "t_struct(DenyList)2076_storage": {
        "encoding": "inplace",
        "label": "struct HDFCRamp.DenyList",
        "members": [
          {
            "astId": 2071,
            "contract": "contracts/HDFCRamp.sol:HDFCRamp",
            "label": "deniedUsers",
            "offset": 0,
            "slot": "0",
            "type": "t_array(t_bytes32)dyn_storage"
          },
          {
            "astId": 2075,
            "contract": "contracts/HDFCRamp.sol:HDFCRamp",
            "label": "isDenied",
            "offset": 0,
            "slot": "1",
            "type": "t_mapping(t_bytes32,t_bool)"
          }
        ],
        "numberOfBytes": "64"
      },
      "t_struct(Deposit)2043_storage": {
        "encoding": "inplace",
        "label": "struct HDFCRamp.Deposit",
        "members": [
          {
            "astId": 2027,
            "contract": "contracts/HDFCRamp.sol:HDFCRamp",
            "label": "depositor",
            "offset": 0,
            "slot": "0",
            "type": "t_address"
          },
          {
            "astId": 2031,
            "contract": "contracts/HDFCRamp.sol:HDFCRamp",
            "label": "upiId",
            "offset": 0,
            "slot": "1",
            "type": "t_array(t_uint256)8_storage"
          },
          {
            "astId": 2033,
            "contract": "contracts/HDFCRamp.sol:HDFCRamp",
            "label": "depositAmount",
            "offset": 0,
            "slot": "9",
            "type": "t_uint256"
          },
          {
            "astId": 2035,
            "contract": "contracts/HDFCRamp.sol:HDFCRamp",
            "label": "remainingDeposits",
            "offset": 0,
            "slot": "10",
            "type": "t_uint256"
          },
          {
            "astId": 2037,
            "contract": "contracts/HDFCRamp.sol:HDFCRamp",
            "label": "outstandingIntentAmount",
            "offset": 0,
            "slot": "11",
            "type": "t_uint256"
          },
          {
            "astId": 2039,
            "contract": "contracts/HDFCRamp.sol:HDFCRamp",
            "label": "conversionRate",
            "offset": 0,
            "slot": "12",
            "type": "t_uint256"
          },
          {
            "astId": 2042,
            "contract": "contracts/HDFCRamp.sol:HDFCRamp",
            "label": "intentHashes",
            "offset": 0,
            "slot": "13",
            "type": "t_array(t_bytes32)dyn_storage"
          }
        ],
        "numberOfBytes": "448"
      },
      "t_struct(GlobalAccountInfo)2084_storage": {
        "encoding": "inplace",
        "label": "struct HDFCRamp.GlobalAccountInfo",
        "members": [
          {
            "astId": 2078,
            "contract": "contracts/HDFCRamp.sol:HDFCRamp",
            "label": "currentIntentHash",
            "offset": 0,
            "slot": "0",
            "type": "t_bytes32"
          },
          {
            "astId": 2080,
            "contract": "contracts/HDFCRamp.sol:HDFCRamp",
            "label": "lastOnrampTimestamp",
            "offset": 0,
            "slot": "1",
            "type": "t_uint256"
          },
          {
            "astId": 2083,
            "contract": "contracts/HDFCRamp.sol:HDFCRamp",
            "label": "denyList",
            "offset": 0,
            "slot": "2",
            "type": "t_struct(DenyList)2076_storage"
          }
        ],
        "numberOfBytes": "128"
      },
      "t_struct(Intent)2062_storage": {
        "encoding": "inplace",
        "label": "struct HDFCRamp.Intent",
        "members": [
          {
            "astId": 2053,
            "contract": "contracts/HDFCRamp.sol:HDFCRamp",
            "label": "onRamper",
            "offset": 0,
            "slot": "0",
            "type": "t_address"
          },
          {
            "astId": 2055,
            "contract": "contracts/HDFCRamp.sol:HDFCRamp",
            "label": "to",
            "offset": 0,
            "slot": "1",
            "type": "t_address"
          },
          {
            "astId": 2057,
            "contract": "contracts/HDFCRamp.sol:HDFCRamp",
            "label": "deposit",
            "offset": 0,
            "slot": "2",
            "type": "t_uint256"
          },
          {
            "astId": 2059,
            "contract": "contracts/HDFCRamp.sol:HDFCRamp",
            "label": "amount",
            "offset": 0,
            "slot": "3",
            "type": "t_uint256"
          },
          {
            "astId": 2061,
            "contract": "contracts/HDFCRamp.sol:HDFCRamp",
            "label": "intentTimestamp",
            "offset": 0,
            "slot": "4",
            "type": "t_uint256"
          }
        ],
        "numberOfBytes": "160"
      },
      "t_uint256": {
        "encoding": "inplace",
        "label": "uint256",
        "numberOfBytes": "32"
      }
    }
  }
}