{
  "address": "0xE5e50A9F071DF9185183c6523c9a4162eB278583",
  "abi": [
    {
      "inputs": [
        {
          "internalType": "address",
          "name": "_ramp",
          "type": "address"
        },
        {
          "internalType": "contract IKeyHashAdapter",
          "name": "_hdfcMailserverKeyHashAdapter",
          "type": "address"
        },
        {
          "internalType": "contract INullifierRegistry",
          "name": "_nullifierRegistry",
          "type": "address"
        },
        {
          "internalType": "string",
          "name": "_emailFromAddress",
          "type": "string"
        }
      ],
      "stateMutability": "nonpayable",
      "type": "constructor"
    },
    {
      "anonymous": false,
      "inputs": [
        {
          "indexed": true,
          "internalType": "address",
          "name": "previousOwner",
          "type": "address"
        },
        {
          "indexed": true,
          "internalType": "address",
          "name": "newOwner",
          "type": "address"
        }
      ],
      "name": "OwnershipTransferred",
      "type": "event"
    },
    {
      "inputs": [],
      "name": "emailFromAddress",
      "outputs": [
        {
          "internalType": "bytes",
          "name": "",
          "type": "bytes"
        }
      ],
      "stateMutability": "view",
      "type": "function"
    },
    {
      "inputs": [],
      "name": "getEmailFromAddress",
      "outputs": [
        {
          "internalType": "bytes",
          "name": "",
          "type": "bytes"
        }
      ],
      "stateMutability": "view",
      "type": "function"
    },
    {
      "inputs": [],
      "name": "getMailserverKeyHash",
      "outputs": [
        {
          "internalType": "bytes32",
          "name": "",
          "type": "bytes32"
        }
      ],
      "stateMutability": "view",
      "type": "function"
    },
    {
      "inputs": [],
      "name": "mailserverKeyHashAdapter",
      "outputs": [
        {
          "internalType": "contract IKeyHashAdapter",
          "name": "",
          "type": "address"
        }
      ],
      "stateMutability": "view",
      "type": "function"
    },
    {
      "inputs": [],
      "name": "nullifierRegistry",
      "outputs": [
        {
          "internalType": "contract INullifierRegistry",
          "name": "",
          "type": "address"
        }
      ],
      "stateMutability": "view",
      "type": "function"
    },
    {
      "inputs": [],
      "name": "owner",
      "outputs": [
        {
          "internalType": "address",
          "name": "",
          "type": "address"
        }
      ],
      "stateMutability": "view",
      "type": "function"
    },
    {
      "inputs": [
        {
          "components": [
            {
              "internalType": "uint256[2]",
              "name": "a",
              "type": "uint256[2]"
            },
            {
              "internalType": "uint256[2][2]",
              "name": "b",
              "type": "uint256[2][2]"
            },
            {
              "internalType": "uint256[2]",
              "name": "c",
              "type": "uint256[2]"
            },
            {
              "internalType": "uint256[15]",
              "name": "signals",
              "type": "uint256[15]"
            }
          ],
          "internalType": "struct IHDFCSendProcessor.SendProof",
          "name": "_proof",
          "type": "tuple"
        }
      ],
      "name": "processProof",
      "outputs": [
        {
          "internalType": "uint256",
          "name": "amount",
          "type": "uint256"
        },
        {
          "internalType": "uint256",
          "name": "timestamp",
          "type": "uint256"
        },
        {
          "internalType": "bytes32",
          "name": "offRamperIdHash",
          "type": "bytes32"
        },
        {
          "internalType": "bytes32",
          "name": "onRamperIdHash",
          "type": "bytes32"
        },
        {
          "internalType": "bytes32",
          "name": "intentHash",
          "type": "bytes32"
        }
      ],
      "stateMutability": "nonpayable",
      "type": "function"
    },
    {
      "inputs": [],
      "name": "ramp",
      "outputs": [
        {
          "internalType": "address",
          "name": "",
          "type": "address"
        }
      ],
      "stateMutability": "view",
      "type": "function"
    },
    {
      "inputs": [],
      "name": "renounceOwnership",
      "outputs": [],
      "stateMutability": "nonpayable",
      "type": "function"
    },
    {
      "inputs": [
        {
          "internalType": "string",
          "name": "_emailFromAddress",
          "type": "string"
        }
      ],
      "name": "setEmailFromAddress",
      "outputs": [],
      "stateMutability": "nonpayable",
      "type": "function"
    },
    {
      "inputs": [
        {
          "internalType": "contract IKeyHashAdapter",
          "name": "_mailserverKeyHashAdapter",
          "type": "address"
        }
      ],
      "name": "setMailserverKeyHashAdapter",
      "outputs": [],
      "stateMutability": "nonpayable",
      "type": "function"
    },
    {
      "inputs": [
        {
          "internalType": "address",
          "name": "newOwner",
          "type": "address"
        }
      ],
      "name": "transferOwnership",
      "outputs": [],
      "stateMutability": "nonpayable",
      "type": "function"
    },
    {
      "inputs": [
        {
          "internalType": "uint256[2]",
          "name": "_pA",
          "type": "uint256[2]"
        },
        {
          "internalType": "uint256[2][2]",
          "name": "_pB",
          "type": "uint256[2][2]"
        },
        {
          "internalType": "uint256[2]",
          "name": "_pC",
          "type": "uint256[2]"
        },
        {
          "internalType": "uint256[15]",
          "name": "_pubSignals",
          "type": "uint256[15]"
        }
      ],
      "name": "verifyProof",
      "outputs": [
        {
          "internalType": "bool",
          "name": "",
          "type": "bool"
        }
      ],
      "stateMutability": "view",
      "type": "function"
    }
  ],
  "transactionHash": "0x7b4d00a1104505c920a2a2a63be2626a2252c1eb473dd208355501a80dcf564b",
  "args": [
    "0x03b6A839e378f863a6CF11AE5Eb0e8B019d4C106",
    "0xDc5eec3E8d50923D89dE3b19689C6057d513D603",
    "0x1e2Ae0a5Fdf39c7110B20e941C4CA3A314550603",
    "alerts@hdfcbank.net"
  ],
  "numDeployments": 1,
  "solcInputHash": "d66819c2e4ddf3a75eff3f5553883876",
  "bytecode": "0x60a06040523480156200001157600080fd5b5060405162002c4c38038062002c4c833981016040819052620000349162000114565b83838383620000433362000095565b6001600160a01b03848116608052600180546001600160a01b031990811686841617909155600280549091169184169190911790556003620000868282620002b9565b50505050505050505062000385565b600080546001600160a01b038381166001600160a01b0319831681178455604051919092169283917f8be0079c531659141344cd1fd0a4f28419497f9722a3daafe3b4186f6b6457e09190a35050565b6001600160a01b0381168114620000fb57600080fd5b50565b634e487b7160e01b600052604160045260246000fd5b600080600080608085870312156200012b57600080fd5b84516200013881620000e5565b809450506020808601516200014d81620000e5565b60408701519094506200016081620000e5565b60608701519093506001600160401b03808211156200017e57600080fd5b818801915088601f8301126200019357600080fd5b815181811115620001a857620001a8620000fe565b604051601f8201601f19908116603f01168101908382118183101715620001d357620001d3620000fe565b816040528281528b86848701011115620001ec57600080fd5b600093505b82841015620002105784840186015181850187015292850192620001f1565b600086848301015280965050505050505092959194509250565b600181811c908216806200023f57607f821691505b6020821081036200026057634e487b7160e01b600052602260045260246000fd5b50919050565b601f821115620002b457600081815260208120601f850160051c810160208610156200028f5750805b601f850160051c820191505b81811015620002b0578281556001016200029b565b5050505b505050565b81516001600160401b03811115620002d557620002d5620000fe565b620002ed81620002e684546200022a565b8462000266565b602080601f8311600181146200032557600084156200030c5750858301515b600019600386901b1c1916600185901b178555620002b0565b600085815260208120601f198616915b82811015620003565788860151825594840194600190910190840162000335565b5085821015620003755787850151600019600388901b60f8161c191681555b5050505050600190811b01905550565b6080516128a5620003a76000396000818160d901526102bb01526128a56000f3fe608060405234801561001057600080fd5b50600436106100cf5760003560e01c8063bf93fde11161008c578063d0b71f9911610066578063d0b71f99146101c7578063f054a9a3146101da578063f2fde38b146101fd578063f6c7226b1461021057600080fd5b8063bf93fde11461016f578063c0d05fed146101aa578063ced1e978146101bf57600080fd5b806315d276e1146100d4578063672ae59714610118578063715018a61461012b5780638da5cb5b14610135578063a87cb6ea14610146578063b870676c1461015c575b600080fd5b6100fb7f000000000000000000000000000000000000000000000000000000000000000081565b6040516001600160a01b0390911681526020015b60405180910390f35b6001546100fb906001600160a01b031681565b610133610223565b005b6000546001600160a01b03166100fb565b61014e610237565b60405190815260200161010f565b6002546100fb906001600160a01b031681565b61018261017d366004612181565b6102aa565b604080519586526020860194909452928401919091526060830152608082015260a00161010f565b6101b261054a565b60405161010f91906121be565b6101b26105d8565b6101336101d5366004612206565b61066a565b6101ed6101e836600461223b565b610694565b604051901515815260200161010f565b61013361020b366004612206565b611019565b61013361021e3660046122b7565b61108f565b61022b6110a7565b6102356000611101565b565b60015460408051630d901b9960e21b815290516000926001600160a01b0316916336406e649160048083019260209291908290030181865afa158015610281573d6000803e3d6000fd5b505050506040513d601f19601f820116820180604052508101906102a59190612368565b905090565b600080808080336001600160a01b037f0000000000000000000000000000000000000000000000000000000000000000161461032d5760405162461bcd60e51b815260206004820181905260248201527f4f6e6c792052616d702063616e2063616c6c20746869732066756e6374696f6e60448201526064015b60405180910390fd5b6040805163f054a9a360e01b8152309163f054a9a391610360918a919082019060c0830190610100840190600401612381565b602060405180830381865afa15801561037d573d6000803e3d6000fd5b505050506040513d601f19601f820116820180604052508101906103a191906123ce565b6103dd5760405162461bcd60e51b815260206004820152600d60248201526c24b73b30b634b210283937b7b360991b6044820152606401610324565b6103e5610237565b610100870135146104385760405162461bcd60e51b815260206004820152601b60248201527f496e76616c6964206d61696c736572766572206b6579206861736800000000006044820152606401610324565b600061044b876101000160016004611151565b9050600360405161045c919061243a565b60405180910390208160405160200161047591906124b0565b60405160208183030381529060405280519060200120146104d85760405162461bcd60e51b815260206004820152601a60248201527f496e76616c696420656d61696c2066726f6d20616464726573730000000000006044820152606401610324565b6104f460066104ee896101000160046006611151565b9061122c565b9550600061050988610100016006600b611151565b905061051481611404565b9550610280880135945061026088013593506105346102a089013561157a565b509496939592945090926102c090920135919050565b6003805461055790612406565b80601f016020809104026020016040519081016040528092919081815260200182805461058390612406565b80156105d05780601f106105a5576101008083540402835291602001916105d0565b820191906000526020600020905b8154815290600101906020018083116105b357829003601f168201915b505050505081565b6060600380546105e790612406565b80601f016020809104026020016040519081016040528092919081815260200182805461061390612406565b80156106605780601f1061063557610100808354040283529160200191610660565b820191906000526020600020905b81548152906001019060200180831161064357829003601f168201915b5050505050905090565b6106726110a7565b600180546001600160a01b0319166001600160a01b0392909216919091179055565b6000610f1d565b7f30644e72e131a029b85045b68181585d97816a916871ca8d3c208c16d87cfd4781106106cc576000805260206000f35b50565b600060405183815284602082015285604082015260408160608360076107d05a03fa915081610702576000805260206000f35b825160408201526020830151606082015260408360808360066107d05a03fa91505080610733576000805260206000f35b5050505050565b7f1a1c3515036f49c72d3abcd406e05f01bb88197c4618739d5e882d65e82ba5be85527f2246d6abd802b9643e1e05cc26637fcc2e4ef03d1fef17db1e084e3d21eea9656020860152600060808601866107d787357f140eac71347db868237e7f0cf5888596711326c15e889bd5eeb9e9fe31f6c5827f27dc54b14928e29b90bcb744147644e77bed32fc123ad38e21fb4a25d846009c846106cf565b61082660208801357f0ce8795ae9b937e43d344a74fb200be2c35195b91ee7c5641c87d32df30358e77e7d5996599ecffa8b9dc57849fa6b916f17f43cda302fc2eae4bf013ba4ddea846106cf565b61087660408801357f05cb7ad146af6ff08a5d2a2efccfa60bb429df36b6e39a9bd83c6a2369c592c67f10389cbe3b8e855ce07fc67d598d7e864192d7c14acd24ebfcef65dad52cfdc1846106cf565b6108c660608801357f18a21fb8419f501baf52bca168bd3518f9b606beb492704b1890fde9f381d0127f199340f05753ab29e63f54e149f1e8e9c7677742e8b8668170b7e84ee8b675dc846106cf565b61091660808801357f24af693c02694310a6a1de5069b788c362c478f6ea7fe007f2e8b5164e22b18b7f1f639dfa5e343496b6d763a671b852527135dae08f2bb059039ed5950e3ac74c846106cf565b61096660a08801357f1d527092e5e1ddcd6d21b5ffc8a5831865ff89661139328b9e7a83ec6e277c207f1b616201e55128dd512f21ac4a5c7e49a80ea7234ab2756a15bc16eaffeae0fc846106cf565b6109b660c08801357f2f63947293dc4fd61cdac61dcfd3756ab270853191c5ea8017083cc3889168c47f0d50dc1e6d0570d5d46cb120959521a412f2ece522d3b587205abfe660c11e66846106cf565b610a0660e08801357f1a229f1e1aaa07ae11a7df38187fc4b97745dc71240250d92ffdfd18dd4eac2c7f236299b64c277219d8a4095cd46d37266ce5c180815fcf43a13e6410c8c51080846106cf565b610a576101008801357f11208ebf9a3ad8c50c09bd0c107b5c575db084770c3c5fb3210c34d7b85c7e137f0e721b02d2daf38da98cc328d4a2216e40d65c890b8b7c05fc5877a37b69fe41846106cf565b610aa86101208801357f16238dfe3032eca0c1b06f818b03e5df5393d378d4402526aa10f6599f088a0c7f2d71b2a11eff1d01292d07597fc1d406de6d158e00c50426f288c1bce6df009f846106cf565b610af96101408801357f0c26cd125505126f438be88bbb6dcac43d30885aa2d6e81c4f0768f90395a6347f29f459130fa12b1ff55458067a1d05cdab8b02bd62b5528569dbde05078e7c36846106cf565b610b4a6101608801357f1532bb18d5c2678192e79c37360ce1814603e1ba6a507c245ca29d1899adca347f2684942598fd6b5ecb023f80bacd2965b9f1f90d34edf94f180e22c3a34af41b846106cf565b610b9b6101808801357f25b53e5f57313d6c85f1e4d7dfe4aa0ce72f76b2ea25fba9244e720e2903681d7f101c3a87d00f0611770420c776702d1cf482f20b4e04a1c4b666228e8762755b846106cf565b610bec6101a08801357f0f6f939f00b6098c0d79890b13fad4866b601fda65c004ff0794e3bd8bf4eb5a7f2168a235dc2d9a06bcef3384f74a1b934e249a20062f3a7e4774e6a9cecf5149846106cf565b610c3d6101c08801357f202d6a3502284be4419aaca09ab6ddbe55056bb1c5cff15ba73f765eb3ea69b67f1ac076cd6abff528b56c3afb360278a828e26424410b2ca265bc785e000afcc4846106cf565b50823581527f30644e72e131a029b85045b68181585d97816a916871ca8d3c208c16d87cfd4760208401357f30644e72e131a029b85045b68181585d97816a916871ca8d3c208c16d87cfd4703066020820152833560408201526020840135606082015260408401356080820152606084013560a08201527f2d4d9aa7e302d9df41749d5507949d05dbea33fbb16c643b22f599a2be6df2e260c08201527f14bedd503c37ceb061d8ec60209fe345ce89830a19230301f076caff004d192660e08201527f0967032fcbf776d1afc985f88877f182d38480a653f2decaa9794cbc3bf3060c6101008201527f0e187847ad4c798374d0d6732bf501847dd68bc0e071241e0213bc7fc13db7ab6101208201527f304cfbd1e08a704a99f5e847d93f8c3caafddec46b7a0d379da69a4d112346a76101408201527f1739c1b1a457a8c7313123d24d2f9192f896b7c63eea05a9d57f06547ad0cec8610160820152600087015161018082015260206000018701516101a08201527f198e9393920d483a7260bfb731fb5d25f1aa493335a9e71297e485b7aef312c26101c08201527f1800deef121f1e76426a00665e5c4479674322d4f75edadd46debd5cd992f6ed6101e08201527f090689d0585ff075ec9e99ad690c3395bc4b313370b38ef355acdadcd122975b6102008201527f12c85ea5db8c6deb4aab71808dcb408fe3d1e7690c43d37b4ce6cc0166fa7daa610220820152843561024082015260208501356102608201527f198e9393920d483a7260bfb731fb5d25f1aa493335a9e71297e485b7aef312c26102808201527f1800deef121f1e76426a00665e5c4479674322d4f75edadd46debd5cd992f6ed6102a08201527f090689d0585ff075ec9e99ad690c3395bc4b313370b38ef355acdadcd122975b6102c08201527f12c85ea5db8c6deb4aab71808dcb408fe3d1e7690c43d37b4ce6cc0166fa7daa6102e08201526020816103008360086107d05a03fa9051169695505050505050565b6040516103808101604052610f35600084013561069b565b610f42602084013561069b565b610f4f604084013561069b565b610f5c606084013561069b565b610f69608084013561069b565b610f7660a084013561069b565b610f8360c084013561069b565b610f9060e084013561069b565b610f9e61010084013561069b565b610fac61012084013561069b565b610fba61014084013561069b565b610fc861016084013561069b565b610fd661018084013561069b565b610fe46101a084013561069b565b610ff26101c084013561069b565b6110006101e084013561069b565b61100d818486888a61073a565b90508060005260206000f35b6110216110a7565b6001600160a01b0381166110865760405162461bcd60e51b815260206004820152602660248201527f4f776e61626c653a206e6577206f776e657220697320746865207a65726f206160448201526564647265737360d01b6064820152608401610324565b6106cc81611101565b6110976110a7565b60036110a3828261251b565b5050565b6000546001600160a01b031633146102355760405162461bcd60e51b815260206004820181905260248201527f4f776e61626c653a2063616c6c6572206973206e6f7420746865206f776e65726044820152606401610324565b600080546001600160a01b038381166001600160a01b0319831681178455604051919092169283917f8be0079c531659141344cd1fd0a4f28419497f9722a3daafe3b4186f6b6457e09190a35050565b6060600061115f84846125f1565b60ff1667ffffffffffffffff81111561117a5761117a6122a1565b6040519080825280602002602001820160405280156111a3578160200160208202803683370190505b50905060ff84165b8360ff16811015611208578581600f81106111c8576111c86123f0565b6020020135826111db60ff88168461260a565b815181106111eb576111eb6123f0565b6020908102919091010152806112008161261d565b9150506111ab565b506112236007825161121a9190612636565b8290600761168e565b95945050505050565b600082818080805b845181101561137c57603060f81b858281518110611254576112546123f0565b01602001516001600160f81b031916108015906112955750603960f81b858281518110611283576112836123f0565b01602001516001600160f81b03191611155b156112d85760308582815181106112ae576112ae6123f0565b01602001516112c0919060f81c61260a565b6112cb85600a612636565b6112d5919061264d565b93505b81156112ec57826112e88161261d565b9350505b8481815181106112fe576112fe6123f0565b01602001516001600160f81b031916601760f91b0361136a5781156113655760405162461bcd60e51b815260206004820152601c60248201527f537472696e6720686173206d756c7469706c6520646563696d616c73000000006044820152606401610324565b600191505b806113748161261d565b915050611234565b50858211156113d85760405162461bcd60e51b815260206004820152602260248201527f537472696e672068617320746f6f206d616e7920646563696d616c20706c6163604482015261657360f01b6064820152608401610324565b6113e2828761260a565b6113ed90600a612744565b6113f79084612636565b9450505050505b92915050565b600061140e612159565b60008060005b85518110156114c85785818151811061142f5761142f6123f0565b6020910101516001600160f81b031916600160fd1b1480611474575085818151811061145d5761145d6123f0565b6020910101516001600160f81b031916601d60f91b145b156114b6576114848683836119bf565b848460088110611496576114966123f0565b60200201526114a681600161264d565b9150826114b28161261d565b9350505b806114c08161261d565b915050611414565b508160071461150f5760405162461bcd60e51b8152602060048201526013602482015272496e76616c6964206461746520737472696e6760681b6044820152606401610324565b614d5861157061152960008660035b60200201519061122c565b604086015161153790611a8c565b611544600088600161151e565b611551600089600461151e565b61155e60008a600561151e565b61156b60008b600661151e565b611ec2565b611223919061260a565b60025460405163169394bb60e01b8152600481018390526001600160a01b039091169063169394bb90602401602060405180830381865afa1580156115c3573d6000803e3d6000fd5b505050506040513d601f19601f820116820180604052508101906115e791906123ce565b156116345760405162461bcd60e51b815260206004820152601f60248201527f4e756c6c69666965722068617320616c7265616479206265656e2075736564006044820152606401610324565b600254604051632dea6f9960e11b8152600481018390526001600160a01b0390911690635bd4df3290602401600060405180830381600087803b15801561167a57600080fd5b505af1158015610733573d6000803e3d6000fd5b60606000808386516116a09190612636565b67ffffffffffffffff8111156116b8576116b86122a1565b6040519080825280601f01601f1916602001820160405280156116e2576020820181803683370190505b5090506000805b87518161ffff161015611899576000888261ffff168151811061170e5761170e6123f0565b6020026020010151905060008767ffffffffffffffff811115611733576117336122a1565b60405190808252806020026020018201604052801561175c578160200160208202803683370190505b50905060005b888110156117ae57611775816008612636565b83901c82828151811061178a5761178a6123f0565b60ff90921660209283029190910190910152806117a68161261d565b915050611762565b5060005b888110156118835760008282815181106117ce576117ce6123f0565b602002602001015160ff16905080600014611846578060f81b8787815181106117f9576117f96123f0565b60200101906001600160f81b031916908160001a9053508561181a8161261d565b96506118299050600289612766565b60ff166000036118415761183e600189612788565b97505b611869565b611851600289612766565b60ff1660010361186957611866600189612788565b97505b5060089290921c918061187b8161261d565b9150506117b2565b5050508080611891906127a1565b9150506116e9565b5060018360ff16101561193a5760405162461bcd60e51b815260206004820152605760248201527f4e6f207061636b656420627974657320666f756e642120496e76616c6964206660448201527f696e616c207374617465206f66207061636b656420627974657320696e20656d60648201527f61696c3b2076616c7565206973206c696b656c79203021000000000000000000608482015260a401610324565b858111156119a85760405162461bcd60e51b815260206004820152603560248201527f5061636b6564206279746573206d6f7265207468616e20616c6c6f776564206d6044820152746178206e756d626572206f66207369676e616c732160581b6064820152608401610324565b60006119b383611f1e565b98975050505050505050565b60608360006119ce858561260a565b67ffffffffffffffff8111156119e6576119e66122a1565b6040519080825280601f01601f191660200182016040528015611a10576020820181803683370190505b509050845b84811015611a8257828181518110611a2f57611a2f6123f0565b01602001516001600160f81b03191682611a49888461260a565b81518110611a5957611a596123f0565b60200101906001600160f81b031916908160001a90535080611a7a8161261d565b915050611a15565b5095945050505050565b60007f4a18c9083b936e0757952a5d9d34b5575d427661506fbe9908c2a1da3f3e80d982604051602001611ac091906124b0565b6040516020818303038152906040528051906020012003611ae357506001919050565b7f78ec83563b948f0ac242d7eaefd592adf65964e11cc27f11ae41faa99a1e990a82604051602001611b1591906124b0565b6040516020818303038152906040528051906020012003611b3857506002919050565b7f2bab7d3f253ae0e3722abcc2571faced288946968116996ffc3de31fb7348ec382604051602001611b6a91906124b0565b6040516020818303038152906040528051906020012003611b8d57506003919050565b7fc6f33aba2381b69f05afc78835e501547a9daffa08d674623068c378423ac18882604051602001611bbf91906124b0565b6040516020818303038152906040528051906020012003611be257506004919050565b7fdb5ee1006003349b29eda5be5fe34f728659f836a948d4ec595114aebbb159d382604051602001611c1491906124b0565b6040516020818303038152906040528051906020012003611c3757506005919050565b7f44a0046ab54c1458fc3c39dfcadc52509ad809730ec301470d2d747dbe77242d82604051602001611c6991906124b0565b6040516020818303038152906040528051906020012003611c8c57506006919050565b7f74d9e46f10329e61dc333ff1800274be516163110de31961b4e0c61de3e90c5c82604051602001611cbe91906124b0565b6040516020818303038152906040528051906020012003611ce157506007919050565b7fed40c08ab6f3d9c5d71155e25b1271d5b9eca8c27bf89e1d2293fcb77c5abf6482604051602001611d1391906124b0565b6040516020818303038152906040528051906020012003611d3657506008919050565b7f7d801199c77197eb9933a633741db90c2c6f3d7d14aca35f5f80a41b4a8863ac82604051602001611d6891906124b0565b6040516020818303038152906040528051906020012003611d8b57506009919050565b7fb7841ed82fc96483f061ddc0b19846855df22558c4aea3b3b058ce0d9f1f516482604051602001611dbd91906124b0565b6040516020818303038152906040528051906020012003611de05750600a919050565b7f487851233e540dddea8f904d6802590aead5463b1c44965d68348bb7def25cf482604051602001611e1291906124b0565b6040516020818303038152906040528051906020012003611e355750600b919050565b7f3bd971d8758c58fe0c4d635451404450c5edda87d624a89819e0be5a122933dc82604051602001611e6791906124b0565b6040516020818303038152906040528051906020012003611e8a5750600c919050565b60405162461bcd60e51b815260206004820152600d60248201526c092dcecc2d8d2c840dadedce8d609b1b6044820152606401610324565b600081611ed0603c85612636565b611edc610e1087612636565b62015180611eeb8b8b8b612028565b611ef59190612636565b611eff919061264d565b611f09919061264d565b611f13919061264d565b979650505050505050565b8051606090829060005b8251811015611f7357828181518110611f4357611f436123f0565b01602001516001600160f81b031916600003611f6157809150611f73565b80611f6b8161261d565b915050611f28565b5060008167ffffffffffffffff811115611f8f57611f8f6122a1565b6040519080825280601f01601f191660200182016040528015611fb9576020820181803683370190505b50905060005b8281101561201f57838181518110611fd957611fd96123f0565b602001015160f81c60f81b828281518110611ff657611ff66123f0565b60200101906001600160f81b031916908160001a905350806120178161261d565b915050611fbf565b50949350505050565b60006107b284101561203957600080fd5b838383600062253d8c60046064600c612053600e886127c2565b61205d91906127e9565b61206988611324612817565b6120739190612817565b61207d91906127e9565b61208890600361283f565b61209291906127e9565b600c806120a0600e886127c2565b6120aa91906127e9565b6120b590600c61283f565b6120c06002886127c2565b6120ca91906127c2565b6120d69061016f61283f565b6120e091906127e9565b6004600c6120ef600e896127c2565b6120f991906127e9565b612105896112c0612817565b61210f9190612817565b61211b906105b561283f565b61212591906127e9565b612131617d4b876127c2565b61213b9190612817565b6121459190612817565b61214f91906127c2565b6119b391906127c2565b6040518061010001604052806008905b60608152602001906001900390816121695790505090565b60006102e0828403121561219457600080fd5b50919050565b60005b838110156121b557818101518382015260200161219d565b50506000910152565b60208152600082518060208401526121dd81604085016020870161219a565b601f01601f19169190910160400192915050565b6001600160a01b03811681146106cc57600080fd5b60006020828403121561221857600080fd5b8135612223816121f1565b9392505050565b80604081018310156113fe57600080fd5b6000806000806102e080868803121561225357600080fd5b61225d878761222a565b945060c086018781111561227057600080fd5b604087019450612280888261222a565b93505086818701111561229257600080fd5b50929591945092610100019150565b634e487b7160e01b600052604160045260246000fd5b6000602082840312156122c957600080fd5b813567ffffffffffffffff808211156122e157600080fd5b818401915084601f8301126122f557600080fd5b813581811115612307576123076122a1565b604051601f8201601f19908116603f0116810190838211818310171561232f5761232f6122a1565b8160405282815287602084870101111561234857600080fd5b826020860160208301376000928101602001929092525095945050505050565b60006020828403121561237a57600080fd5b5051919050565b6102e081016040808784378083018660005b60028110156123b057838284379183019190830190600101612393565b505050808560c0850137506101e08361010084013795945050505050565b6000602082840312156123e057600080fd5b8151801515811461222357600080fd5b634e487b7160e01b600052603260045260246000fd5b600181811c9082168061241a57607f821691505b60208210810361219457634e487b7160e01b600052602260045260246000fd5b600080835461244881612406565b600182811680156124605760018114612475576124a4565b60ff19841687528215158302870194506124a4565b8760005260208060002060005b8581101561249b5781548a820152908401908201612482565b50505082870194505b50929695505050505050565b600082516124c281846020870161219a565b9190910192915050565b601f82111561251657600081815260208120601f850160051c810160208610156124f35750805b601f850160051c820191505b81811015612512578281556001016124ff565b5050505b505050565b815167ffffffffffffffff811115612535576125356122a1565b612549816125438454612406565b846124cc565b602080601f83116001811461257e57600084156125665750858301515b600019600386901b1c1916600185901b178555612512565b600085815260208120601f198616915b828110156125ad5788860151825594840194600190910190840161258e565b50858210156125cb5787850151600019600388901b60f8161c191681555b5050505050600190811b01905550565b634e487b7160e01b600052601160045260246000fd5b60ff82811682821603908111156113fe576113fe6125db565b818103818111156113fe576113fe6125db565b60006001820161262f5761262f6125db565b5060010190565b80820281158282048414176113fe576113fe6125db565b808201808211156113fe576113fe6125db565b600181815b8085111561269b578160001904821115612681576126816125db565b8085161561268e57918102915b93841c9390800290612665565b509250929050565b6000826126b2575060016113fe565b816126bf575060006113fe565b81600181146126d557600281146126df576126fb565b60019150506113fe565b60ff8411156126f0576126f06125db565b50506001821b6113fe565b5060208310610133831016604e8410600b841016171561271e575081810a6113fe565b6127288383612660565b806000190482111561273c5761273c6125db565b029392505050565b600061222383836126a3565b634e487b7160e01b600052601260045260246000fd5b600060ff83168061277957612779612750565b8060ff84160691505092915050565b60ff81811683821601908111156113fe576113fe6125db565b600061ffff8083168181036127b8576127b86125db565b6001019392505050565b81810360008312801583831316838312821617156127e2576127e26125db565b5092915050565b6000826127f8576127f8612750565b600160ff1b821460001984141615612812576128126125db565b500590565b8082018281126000831280158216821582161715612837576128376125db565b505092915050565b80820260008212600160ff1b8414161561285b5761285b6125db565b81810583148215176113fe576113fe6125db56fea264697066735822122014573cf9571db71e64ed6426fb123a3ed4c290203dce407a941701d5fee694c064736f6c63430008120033",
  "devdoc": {
    "kind": "dev",
    "methods": {
      "owner()": {
        "details": "Returns the address of the current owner."
      },
      "renounceOwnership()": {
        "details": "Leaves the contract without owner. It will not be possible to call `onlyOwner` functions. Can only be called by the current owner. NOTE: Renouncing ownership will leave the contract without an owner, thereby disabling any functionality that is only available to the owner."
      },
      "setEmailFromAddress(string)": {
        "params": {
          "_emailFromAddress": "The from email address for validated emails, MUST BE PROPERLY PADDED"
        }
      },
      "transferOwnership(address)": {
        "details": "Transfers ownership of the contract to a new account (`newOwner`). Can only be called by the current owner."
      }
    },
    "version": 1
  },
  "userdoc": {
    "kind": "user",
    "methods": {
      "setEmailFromAddress(string)": {
        "notice": "ONLY OWNER: Sets the from email address for validated emails. Check that email address is properly padded (if necessary). Padding will be dependent on if unpacking functions cut trailing 0s or not."
      }
    },
    "version": 1
  },
  "storageLayout": {
    "storage": [
      {
        "astId": 7,
        "contract": "contracts/processors/HDFCSendProcessor.sol:HDFCSendProcessor",
        "label": "_owner",
        "offset": 0,
        "slot": "0",
        "type": "t_address"
      },
      {
        "astId": 1620,
        "contract": "contracts/processors/HDFCSendProcessor.sol:HDFCSendProcessor",
        "label": "mailserverKeyHashAdapter",
        "offset": 0,
        "slot": "1",
        "type": "t_contract(IKeyHashAdapter)2306"
      },
      {
        "astId": 1623,
        "contract": "contracts/processors/HDFCSendProcessor.sol:HDFCSendProcessor",
        "label": "nullifierRegistry",
        "offset": 0,
        "slot": "2",
        "type": "t_contract(INullifierRegistry)2321"
      },
      {
        "astId": 1625,
        "contract": "contracts/processors/HDFCSendProcessor.sol:HDFCSendProcessor",
        "label": "emailFromAddress",
        "offset": 0,
        "slot": "3",
        "type": "t_bytes_storage"
      }
    ],
    "types": {
      "t_address": {
        "encoding": "inplace",
        "label": "address",
        "numberOfBytes": "20"
      },
      "t_bytes_storage": {
        "encoding": "bytes",
        "label": "bytes",
        "numberOfBytes": "32"
      },
      "t_contract(IKeyHashAdapter)2306": {
        "encoding": "inplace",
        "label": "contract IKeyHashAdapter",
        "numberOfBytes": "20"
      },
      "t_contract(INullifierRegistry)2321": {
        "encoding": "inplace",
        "label": "contract INullifierRegistry",
        "numberOfBytes": "20"
      }
    }
  }
}