{
  "address": "0x736409031878D48A90f240Fe17fdd6757FA81CA3",
  "abi": [
    {
      "inputs": [
        {
          "internalType": "address",
          "name": "_ramp",
          "type": "address"
        },
        {
          "internalType": "contract IKeyHashAdapterV2",
          "name": "_hdfcMailserverKeyHashAdapter",
          "type": "address"
        },
        {
          "internalType": "contract INullifierRegistry",
          "name": "_nullifierRegistry",
          "type": "address"
        },
        {
          "internalType": "string",
          "name": "_emailFromAddress",
          "type": "string"
        }
      ],
      "stateMutability": "nonpayable",
      "type": "constructor"
    },
    {
      "anonymous": false,
      "inputs": [
        {
          "indexed": true,
          "internalType": "address",
          "name": "previousOwner",
          "type": "address"
        },
        {
          "indexed": true,
          "internalType": "address",
          "name": "newOwner",
          "type": "address"
        }
      ],
      "name": "OwnershipTransferred",
      "type": "event"
    },
    {
      "inputs": [],
      "name": "PACK_SIZE",
      "outputs": [
        {
          "internalType": "uint256",
          "name": "",
          "type": "uint256"
        }
      ],
      "stateMutability": "view",
      "type": "function"
    },
    {
      "inputs": [],
      "name": "emailFromAddress",
      "outputs": [
        {
          "internalType": "bytes",
          "name": "",
          "type": "bytes"
        }
      ],
      "stateMutability": "view",
      "type": "function"
    },
    {
      "inputs": [],
      "name": "getEmailFromAddress",
      "outputs": [
        {
          "internalType": "bytes",
          "name": "",
          "type": "bytes"
        }
      ],
      "stateMutability": "view",
      "type": "function"
    },
    {
      "inputs": [
        {
          "internalType": "bytes32",
          "name": "_keyHash",
          "type": "bytes32"
        }
      ],
      "name": "isMailServerKeyHash",
      "outputs": [
        {
          "internalType": "bool",
          "name": "",
          "type": "bool"
        }
      ],
      "stateMutability": "view",
      "type": "function"
    },
    {
      "inputs": [],
      "name": "mailServerKeyHashAdapter",
      "outputs": [
        {
          "internalType": "contract IKeyHashAdapterV2",
          "name": "",
          "type": "address"
        }
      ],
      "stateMutability": "view",
      "type": "function"
    },
    {
      "inputs": [],
      "name": "nullifierRegistry",
      "outputs": [
        {
          "internalType": "contract INullifierRegistry",
          "name": "",
          "type": "address"
        }
      ],
      "stateMutability": "view",
      "type": "function"
    },
    {
      "inputs": [],
      "name": "owner",
      "outputs": [
        {
          "internalType": "address",
          "name": "",
          "type": "address"
        }
      ],
      "stateMutability": "view",
      "type": "function"
    },
    {
      "inputs": [
        {
          "components": [
            {
              "internalType": "uint256[2]",
              "name": "a",
              "type": "uint256[2]"
            },
            {
              "internalType": "uint256[2][2]",
              "name": "b",
              "type": "uint256[2][2]"
            },
            {
              "internalType": "uint256[2]",
              "name": "c",
              "type": "uint256[2]"
            },
            {
              "internalType": "uint256[5]",
              "name": "signals",
              "type": "uint256[5]"
            }
          ],
          "internalType": "struct IRegistrationProcessor.RegistrationProof",
          "name": "_proof",
          "type": "tuple"
        }
      ],
      "name": "processProof",
      "outputs": [
        {
          "internalType": "bytes32",
          "name": "userIdHash",
          "type": "bytes32"
        }
      ],
      "stateMutability": "view",
      "type": "function"
    },
    {
      "inputs": [],
      "name": "ramp",
      "outputs": [
        {
          "internalType": "address",
          "name": "",
          "type": "address"
        }
      ],
      "stateMutability": "view",
      "type": "function"
    },
    {
      "inputs": [],
      "name": "renounceOwnership",
      "outputs": [],
      "stateMutability": "nonpayable",
      "type": "function"
    },
    {
      "inputs": [
        {
          "internalType": "string",
          "name": "_emailFromAddress",
          "type": "string"
        }
      ],
      "name": "setEmailFromAddress",
      "outputs": [],
      "stateMutability": "nonpayable",
      "type": "function"
    },
    {
      "inputs": [
        {
          "internalType": "contract IKeyHashAdapterV2",
          "name": "_mailServerKeyHashAdapter",
          "type": "address"
        }
      ],
      "name": "setMailserverKeyHashAdapter",
      "outputs": [],
      "stateMutability": "nonpayable",
      "type": "function"
    },
    {
      "inputs": [
        {
          "internalType": "address",
          "name": "newOwner",
          "type": "address"
        }
      ],
      "name": "transferOwnership",
      "outputs": [],
      "stateMutability": "nonpayable",
      "type": "function"
    },
    {
      "inputs": [
        {
          "internalType": "uint256[2]",
          "name": "_pA",
          "type": "uint256[2]"
        },
        {
          "internalType": "uint256[2][2]",
          "name": "_pB",
          "type": "uint256[2][2]"
        },
        {
          "internalType": "uint256[2]",
          "name": "_pC",
          "type": "uint256[2]"
        },
        {
          "internalType": "uint256[5]",
          "name": "_pubSignals",
          "type": "uint256[5]"
        }
      ],
      "name": "verifyProof",
      "outputs": [
        {
          "internalType": "bool",
          "name": "",
          "type": "bool"
        }
      ],
      "stateMutability": "view",
      "type": "function"
    }
  ],
  "transactionHash": "0xe947aec7d9f9c794d178a26d397129e0ae8b3f81ee87042535f497a0ea39e86f",
  "args": [
    "0xe6d21594014959395675c89d127A53070e774Cad",
    "0x6Fe827dEb7606024BE7D2Bbd0a9400F33e0e0bC4",
    "0x113472f45b22df297f811FdeDC1B03d0e7fb32B6",
    "alerts@hdfcbank.net"
  ],
  "numDeployments": 1,
  "solcInputHash": "f04018ca3672426744531c5b0e9c8cda",
  "bytecode": "0x60a06040523480156200001157600080fd5b5060405162001b6338038062001b63833981016040819052620000349162000114565b83838383620000433362000095565b6001600160a01b03848116608052600180546001600160a01b031990811686841617909155600280549091169184169190911790556003620000868282620002b9565b50505050505050505062000385565b600080546001600160a01b038381166001600160a01b0319831681178455604051919092169283917f8be0079c531659141344cd1fd0a4f28419497f9722a3daafe3b4186f6b6457e09190a35050565b6001600160a01b0381168114620000fb57600080fd5b50565b634e487b7160e01b600052604160045260246000fd5b600080600080608085870312156200012b57600080fd5b84516200013881620000e5565b809450506020808601516200014d81620000e5565b60408701519094506200016081620000e5565b60608701519093506001600160401b03808211156200017e57600080fd5b818801915088601f8301126200019357600080fd5b815181811115620001a857620001a8620000fe565b604051601f8201601f19908116603f01168101908382118183101715620001d357620001d3620000fe565b816040528281528b86848701011115620001ec57600080fd5b600093505b82841015620002105784840186015181850187015292850192620001f1565b600086848301015280965050505050505092959194509250565b600181811c908216806200023f57607f821691505b6020821081036200026057634e487b7160e01b600052602260045260246000fd5b50919050565b601f821115620002b457600081815260208120601f850160051c810160208610156200028f5750805b601f850160051c820191505b81811015620002b0578281556001016200029b565b5050505b505050565b81516001600160401b03811115620002d557620002d5620000fe565b620002ed81620002e684546200022a565b8462000266565b602080601f8311600181146200032557600084156200030c5750858301515b600019600386901b1c1916600185901b178555620002b0565b600085815260208120601f198616915b82811015620003565788860151825594840194600190910190840162000335565b5085821015620003755787850151600019600388901b60f8161c191681555b5050505050600190811b01905550565b6080516117bc620003a76000396000818160f4015261023601526117bc6000f3fe608060405234801561001057600080fd5b50600436106100ea5760003560e01c8063a8ef333f1161008c578063ced1e97811610066578063ced1e978146101e8578063d0b71f99146101f0578063f2fde38b14610203578063f6c7226b1461021657600080fd5b8063a8ef333f146101ad578063b870676c146101c0578063c0d05fed146101d357600080fd5b806334baeab9116100c857806334baeab9146101775780633d0c9cc41461018a578063715018a6146101925780638da5cb5b1461019c57600080fd5b806315d276e1146100ef57806317c8ecf21461013357806319d0915214610154575b600080fd5b6101167f000000000000000000000000000000000000000000000000000000000000000081565b6040516001600160a01b0390911681526020015b60405180910390f35b610146610141366004611251565b610229565b60405190815260200161012a565b61016761016236600461126a565b61045c565b604051901515815260200161012a565b610167610185366004611294565b6104d0565b610146600781565b61019a610aa5565b005b6000546001600160a01b0316610116565b600154610116906001600160a01b031681565b600254610116906001600160a01b031681565b6101db610ab9565b60405161012a919061131e565b6101db610b47565b61019a6101fe366004611366565b610bd9565b61019a610211366004611366565b610c03565b61019a6102243660046113a0565b610c79565b6000336001600160a01b037f000000000000000000000000000000000000000000000000000000000000000016146102a85760405162461bcd60e51b815260206004820181905260248201527f4f6e6c792052616d702063616e2063616c6c20746869732066756e6374696f6e60448201526064015b60405180910390fd5b604080516334baeab960e01b815230916334baeab9916102db9186919082019060c0830190610100840190600401611451565b602060405180830381865afa1580156102f8573d6000803e3d6000fd5b505050506040513d601f19601f8201168201806040525081019061031c919061149d565b6103585760405162461bcd60e51b815260206004820152600d60248201526c24b73b30b634b210283937b7b360991b604482015260640161029f565b61036661010083013561045c565b6103b25760405162461bcd60e51b815260206004820152601b60248201527f496e76616c6964206d61696c736572766572206b657920686173680000000000604482015260640161029f565b60006103c5836101000160016004610c91565b905060036040516103d69190611509565b6040518091039020816040516020016103ef919061157f565b60405160208183030381529060405280519060200120146104525760405162461bcd60e51b815260206004820152601a60248201527f496e76616c696420656d61696c2066726f6d2061646472657373000000000000604482015260640161029f565b5050610180013590565b600154604051630ce848a960e11b8152600481018390526000916001600160a01b0316906319d0915290602401602060405180830381865afa1580156104a6573d6000803e3d6000fd5b505050506040513d601f19601f820116820180604052508101906104ca919061149d565b92915050565b6000610a33565b7f30644e72e131a029b85045b68181585d97816a916871ca8d3c208c16d87cfd478110610508576000805260206000f35b50565b600060405183815284602082015285604082015260408160608360076107d05a03fa91508161053e576000805260206000f35b825160408201526020830151606082015260408360808360066107d05a03fa9150508061056f576000805260206000f35b5050505050565b7f26b462936522b924ec11f761db46843ebdcbfff9be97104935cc9e6f0d6dfb6a85527f26ebffca3137048e697c5d223e01785d8834f87a966305a7b21a4f0afae7ac1260208601526000608086018661061387357f21c2ef66b42b4e02ed7abff3b23154a2cdfa1095fe4bd9e90333ab844e41f90d7f0b96c0eb2202d32217a3ca98042ecc388e73037e8dde38317f510c1d5e1dfec48461050b565b61066360208801357f0976514654128e9b3065b07111b6b9cf47b578345f28a461d61a261ab4f17e5e7f149c7020fb5c4269f0a48caaedc5cbfd4d7e72d143428f19e66d02251e0898128461050b565b6106b360408801357f2f0579e829f7fa3c40df79d39abdccf4f9282d392b8ede59b03c0be4bcb427317f2695b1e85804cb46e91132045705bb2514d84d2af523a0444fca9ecf4b3a3a5f8461050b565b61070360608801357f039513e325e2303415c5321a4ad6a956cc77cd24606c2c71da14c26bf56343d57f164a7a47071a1ffe5d6809f2cbce69050076994e7f60a418dc5cdc11d6c1623b8461050b565b61075360808801357f16e3b6fff736af22685a55d0d6369cb735b79f018c3142b85298034ed6ba6bd87f1eaf43e1916bb50a4bc1e2f6ee224eff927a52683f20c0e0c9a73f51992927268461050b565b50823581527f30644e72e131a029b85045b68181585d97816a916871ca8d3c208c16d87cfd4760208401357f30644e72e131a029b85045b68181585d97816a916871ca8d3c208c16d87cfd4703066020820152833560408201526020840135606082015260408401356080820152606084013560a08201527f2d4d9aa7e302d9df41749d5507949d05dbea33fbb16c643b22f599a2be6df2e260c08201527f14bedd503c37ceb061d8ec60209fe345ce89830a19230301f076caff004d192660e08201527f0967032fcbf776d1afc985f88877f182d38480a653f2decaa9794cbc3bf3060c6101008201527f0e187847ad4c798374d0d6732bf501847dd68bc0e071241e0213bc7fc13db7ab6101208201527f304cfbd1e08a704a99f5e847d93f8c3caafddec46b7a0d379da69a4d112346a76101408201527f1739c1b1a457a8c7313123d24d2f9192f896b7c63eea05a9d57f06547ad0cec8610160820152600087015161018082015260206000018701516101a08201527f198e9393920d483a7260bfb731fb5d25f1aa493335a9e71297e485b7aef312c26101c08201527f1800deef121f1e76426a00665e5c4479674322d4f75edadd46debd5cd992f6ed6101e08201527f090689d0585ff075ec9e99ad690c3395bc4b313370b38ef355acdadcd122975b6102008201527f12c85ea5db8c6deb4aab71808dcb408fe3d1e7690c43d37b4ce6cc0166fa7daa610220820152843561024082015260208501356102608201527f198e9393920d483a7260bfb731fb5d25f1aa493335a9e71297e485b7aef312c26102808201527f1800deef121f1e76426a00665e5c4479674322d4f75edadd46debd5cd992f6ed6102a08201527f090689d0585ff075ec9e99ad690c3395bc4b313370b38ef355acdadcd122975b6102c08201527f12c85ea5db8c6deb4aab71808dcb408fe3d1e7690c43d37b4ce6cc0166fa7daa6102e08201526020816103008360086107d05a03fa9051169695505050505050565b6040516103808101604052610a4b60008401356104d7565b610a5860208401356104d7565b610a6560408401356104d7565b610a7260608401356104d7565b610a7f60808401356104d7565b610a8c60a08401356104d7565b610a99818486888a610576565b90508060005260206000f35b610aad610d6c565b610ab76000610dc6565b565b60038054610ac6906114d5565b80601f0160208091040260200160405190810160405280929190818152602001828054610af2906114d5565b8015610b3f5780601f10610b1457610100808354040283529160200191610b3f565b820191906000526020600020905b815481529060010190602001808311610b2257829003601f168201915b505050505081565b606060038054610b56906114d5565b80601f0160208091040260200160405190810160405280929190818152602001828054610b82906114d5565b8015610bcf5780601f10610ba457610100808354040283529160200191610bcf565b820191906000526020600020905b815481529060010190602001808311610bb257829003601f168201915b5050505050905090565b610be1610d6c565b600180546001600160a01b0319166001600160a01b0392909216919091179055565b610c0b610d6c565b6001600160a01b038116610c705760405162461bcd60e51b815260206004820152602660248201527f4f776e61626c653a206e6577206f776e657220697320746865207a65726f206160448201526564647265737360d01b606482015260840161029f565b61050881610dc6565b610c81610d6c565b6003610c8d82826115ea565b5050565b60606000610c9f84846116c0565b60ff1667ffffffffffffffff811115610cba57610cba61138a565b604051908082528060200260200182016040528015610ce3578160200160208202803683370190505b50905060ff84165b8360ff16811015610d4857858160058110610d0857610d086114bf565b602002013582610d1b60ff8816846116d9565b81518110610d2b57610d2b6114bf565b602090810291909101015280610d40816116ec565b915050610ceb565b50610d6360078251610d5a9190611705565b82906007610e16565b95945050505050565b6000546001600160a01b03163314610ab75760405162461bcd60e51b815260206004820181905260248201527f4f776e61626c653a2063616c6c6572206973206e6f7420746865206f776e6572604482015260640161029f565b600080546001600160a01b038381166001600160a01b0319831681178455604051919092169283917f8be0079c531659141344cd1fd0a4f28419497f9722a3daafe3b4186f6b6457e09190a35050565b6060600080838651610e289190611705565b67ffffffffffffffff811115610e4057610e4061138a565b6040519080825280601f01601f191660200182016040528015610e6a576020820181803683370190505b5090506000805b87518161ffff161015611021576000888261ffff1681518110610e9657610e966114bf565b6020026020010151905060008767ffffffffffffffff811115610ebb57610ebb61138a565b604051908082528060200260200182016040528015610ee4578160200160208202803683370190505b50905060005b88811015610f3657610efd816008611705565b83901c828281518110610f1257610f126114bf565b60ff9092166020928302919091019091015280610f2e816116ec565b915050610eea565b5060005b8881101561100b576000828281518110610f5657610f566114bf565b602002602001015160ff16905080600014610fce578060f81b878781518110610f8157610f816114bf565b60200101906001600160f81b031916908160001a90535085610fa2816116ec565b9650610fb1905060028961171c565b60ff16600003610fc957610fc660018961174c565b97505b610ff1565b610fd960028961171c565b60ff16600103610ff157610fee60018961174c565b97505b5060089290921c9180611003816116ec565b915050610f3a565b505050808061101990611765565b915050610e71565b5060018360ff1610156110c25760405162461bcd60e51b815260206004820152605760248201527f4e6f207061636b656420627974657320666f756e642120496e76616c6964206660448201527f696e616c207374617465206f66207061636b656420627974657320696e20656d60648201527f61696c3b2076616c7565206973206c696b656c79203021000000000000000000608482015260a40161029f565b858111156111305760405162461bcd60e51b815260206004820152603560248201527f5061636b6564206279746573206d6f7265207468616e20616c6c6f776564206d6044820152746178206e756d626572206f66207369676e616c732160581b606482015260840161029f565b600061113b83611147565b98975050505050505050565b8051606090829060005b825181101561119c5782818151811061116c5761116c6114bf565b01602001516001600160f81b03191660000361118a5780915061119c565b80611194816116ec565b915050611151565b5060008167ffffffffffffffff8111156111b8576111b861138a565b6040519080825280601f01601f1916602001820160405280156111e2576020820181803683370190505b50905060005b8281101561124857838181518110611202576112026114bf565b602001015160f81c60f81b82828151811061121f5761121f6114bf565b60200101906001600160f81b031916908160001a90535080611240816116ec565b9150506111e8565b50949350505050565b60006101a0828403121561126457600080fd5b50919050565b60006020828403121561127c57600080fd5b5035919050565b80604081018310156104ca57600080fd5b6000806000806101a08086880312156112ac57600080fd5b6112b68787611283565b945060c08601878111156112c957600080fd5b6040870194506112d98882611283565b9350508681870111156112eb57600080fd5b50929591945092610100019150565b60005b838110156113155781810151838201526020016112fd565b50506000910152565b602081526000825180602084015261133d8160408501602087016112fa565b601f01601f19169190910160400192915050565b6001600160a01b038116811461050857600080fd5b60006020828403121561137857600080fd5b813561138381611351565b9392505050565b634e487b7160e01b600052604160045260246000fd5b6000602082840312156113b257600080fd5b813567ffffffffffffffff808211156113ca57600080fd5b818401915084601f8301126113de57600080fd5b8135818111156113f0576113f061138a565b604051601f8201601f19908116603f011681019083821181831017156114185761141861138a565b8160405282815287602084870101111561143157600080fd5b826020860160208301376000928101602001929092525095945050505050565b6101a081016040808784378083018660005b600281101561148057838284379183019190830190600101611463565b505050808560c08501375060a08361010084013795945050505050565b6000602082840312156114af57600080fd5b8151801515811461138357600080fd5b634e487b7160e01b600052603260045260246000fd5b600181811c908216806114e957607f821691505b60208210810361126457634e487b7160e01b600052602260045260246000fd5b6000808354611517816114d5565b6001828116801561152f576001811461154457611573565b60ff1984168752821515830287019450611573565b8760005260208060002060005b8581101561156a5781548a820152908401908201611551565b50505082870194505b50929695505050505050565b600082516115918184602087016112fa565b9190910192915050565b601f8211156115e557600081815260208120601f850160051c810160208610156115c25750805b601f850160051c820191505b818110156115e1578281556001016115ce565b5050505b505050565b815167ffffffffffffffff8111156116045761160461138a565b6116188161161284546114d5565b8461159b565b602080601f83116001811461164d57600084156116355750858301515b600019600386901b1c1916600185901b1785556115e1565b600085815260208120601f198616915b8281101561167c5788860151825594840194600190910190840161165d565b508582101561169a5787850151600019600388901b60f8161c191681555b5050505050600190811b01905550565b634e487b7160e01b600052601160045260246000fd5b60ff82811682821603908111156104ca576104ca6116aa565b818103818111156104ca576104ca6116aa565b6000600182016116fe576116fe6116aa565b5060010190565b80820281158282048414176104ca576104ca6116aa565b600060ff83168061173d57634e487b7160e01b600052601260045260246000fd5b8060ff84160691505092915050565b60ff81811683821601908111156104ca576104ca6116aa565b600061ffff80831681810361177c5761177c6116aa565b600101939250505056fea264697066735822122049cabfda5e7f3018cabc3b8c96f37d0d4296745e4d26f88d94f2aa83782b9fc664736f6c63430008120033",
  "devdoc": {
    "kind": "dev",
    "methods": {
      "owner()": {
        "details": "Returns the address of the current owner."
      },
      "renounceOwnership()": {
        "details": "Leaves the contract without owner. It will not be possible to call `onlyOwner` functions. Can only be called by the current owner. NOTE: Renouncing ownership will leave the contract without an owner, thereby disabling any functionality that is only available to the owner."
      },
      "setEmailFromAddress(string)": {
        "params": {
          "_emailFromAddress": "The from email address for validated emails, MUST BE PROPERLY PADDED"
        }
      },
      "transferOwnership(address)": {
        "details": "Transfers ownership of the contract to a new account (`newOwner`). Can only be called by the current owner."
      }
    },
    "version": 1
  },
  "userdoc": {
    "kind": "user",
    "methods": {
      "setEmailFromAddress(string)": {
        "notice": "ONLY OWNER: Sets the from email address for validated emails. Check that email address is properly padded (if necessary). Padding will be dependent on if unpacking functions cut trailing 0s or not."
      }
    },
    "version": 1
  },
  "storageLayout": {
    "storage": [
      {
        "astId": 7,
        "contract": "contracts/processors/HDFCRegistrationProcessor.sol:HDFCRegistrationProcessor",
        "label": "_owner",
        "offset": 0,
        "slot": "0",
        "type": "t_address"
      },
      {
        "astId": 7851,
        "contract": "contracts/processors/HDFCRegistrationProcessor.sol:HDFCRegistrationProcessor",
        "label": "mailServerKeyHashAdapter",
        "offset": 0,
        "slot": "1",
        "type": "t_contract(IKeyHashAdapterV2)9177"
      },
      {
        "astId": 7854,
        "contract": "contracts/processors/HDFCRegistrationProcessor.sol:HDFCRegistrationProcessor",
        "label": "nullifierRegistry",
        "offset": 0,
        "slot": "2",
        "type": "t_contract(INullifierRegistry)9382"
      },
      {
        "astId": 7856,
        "contract": "contracts/processors/HDFCRegistrationProcessor.sol:HDFCRegistrationProcessor",
        "label": "emailFromAddress",
        "offset": 0,
        "slot": "3",
        "type": "t_bytes_storage"
      }
    ],
    "types": {
      "t_address": {
        "encoding": "inplace",
        "label": "address",
        "numberOfBytes": "20"
      },
      "t_bytes_storage": {
        "encoding": "bytes",
        "label": "bytes",
        "numberOfBytes": "32"
      },
      "t_contract(IKeyHashAdapterV2)9177": {
        "encoding": "inplace",
        "label": "contract IKeyHashAdapterV2",
        "numberOfBytes": "20"
      },
      "t_contract(INullifierRegistry)9382": {
        "encoding": "inplace",
        "label": "contract INullifierRegistry",
        "numberOfBytes": "20"
      }
    }
  }
}