{
  "address": "0xaF4c9cb40eAFc51E39707aCDaA4eF3e6FF6e896c",
  "abi": [
    {
      "inputs": [
        {
          "internalType": "bytes32",
          "name": "_venmoMailserverKeyHash",
          "type": "bytes32"
        }
      ],
      "stateMutability": "nonpayable",
      "type": "constructor"
    },
    {
      "anonymous": false,
      "inputs": [
        {
          "indexed": true,
          "internalType": "address",
          "name": "previousOwner",
          "type": "address"
        },
        {
          "indexed": true,
          "internalType": "address",
          "name": "newOwner",
          "type": "address"
        }
      ],
      "name": "OwnershipTransferred",
      "type": "event"
    },
    {
      "inputs": [],
      "name": "owner",
      "outputs": [
        {
          "internalType": "address",
          "name": "",
          "type": "address"
        }
      ],
      "stateMutability": "view",
      "type": "function"
    },
    {
      "inputs": [],
      "name": "renounceOwnership",
      "outputs": [],
      "stateMutability": "nonpayable",
      "type": "function"
    },
    {
      "inputs": [
        {
          "internalType": "bytes32",
          "name": "_venmoMailserverKeyHash",
          "type": "bytes32"
        }
      ],
      "name": "setVenmoMailserverKeyHash",
      "outputs": [],
      "stateMutability": "nonpayable",
      "type": "function"
    },
    {
      "inputs": [
        {
          "internalType": "address",
          "name": "newOwner",
          "type": "address"
        }
      ],
      "name": "transferOwnership",
      "outputs": [],
      "stateMutability": "nonpayable",
      "type": "function"
    },
    {
      "inputs": [],
      "name": "venmoMailserverKeyHash",
      "outputs": [
        {
          "internalType": "bytes32",
          "name": "",
          "type": "bytes32"
        }
      ],
      "stateMutability": "view",
      "type": "function"
    }
  ],
  "transactionHash": "0x1001864ebd2c5604a7cfc0c4a20c08b543c209a70192d9a76c9712070b4a1dd6",
  "args": [
    "0x2cf6a95f35c0d2b6160f07626e9737449a53d173d65d1683263892555b448d8f"
  ],
  "numDeployments": 1,
  "solcInputHash": "0f6f733793778c923a11e6741a881b15",
  "bytecode": "0x608060405234801561001057600080fd5b5060405161034338038061034383398101604081905261002f91610090565b61003833610040565b6001556100a9565b600080546001600160a01b038381166001600160a01b0319831681178455604051919092169283917f8be0079c531659141344cd1fd0a4f28419497f9722a3daafe3b4186f6b6457e09190a35050565b6000602082840312156100a257600080fd5b5051919050565b61028b806100b86000396000f3fe608060405234801561001057600080fd5b50600436106100575760003560e01c8063715018a61461005c5780638da5cb5b14610066578063db7d8e2614610086578063f2fde38b14610099578063fe1a2791146100ac575b600080fd5b6100646100c3565b005b6000546040516001600160a01b0390911681526020015b60405180910390f35b61006461009436600461020c565b6100d7565b6100646100a7366004610225565b6100e4565b6100b560015481565b60405190815260200161007d565b6100cb610162565b6100d560006101bc565b565b6100df610162565b600155565b6100ec610162565b6001600160a01b0381166101565760405162461bcd60e51b815260206004820152602660248201527f4f776e61626c653a206e6577206f776e657220697320746865207a65726f206160448201526564647265737360d01b60648201526084015b60405180910390fd5b61015f816101bc565b50565b6000546001600160a01b031633146100d55760405162461bcd60e51b815260206004820181905260248201527f4f776e61626c653a2063616c6c6572206973206e6f7420746865206f776e6572604482015260640161014d565b600080546001600160a01b038381166001600160a01b0319831681178455604051919092169283917f8be0079c531659141344cd1fd0a4f28419497f9722a3daafe3b4186f6b6457e09190a35050565b60006020828403121561021e57600080fd5b5035919050565b60006020828403121561023757600080fd5b81356001600160a01b038116811461024e57600080fd5b939250505056fea26469706673582212209c3c19ed89d19d73788540fa3064eac75bd7f234cb4fb4878852ccef85835fee64736f6c63430008120033",
  "devdoc": {
    "kind": "dev",
    "methods": {
      "owner()": {
        "details": "Returns the address of the current owner."
      },
      "renounceOwnership()": {
        "details": "Leaves the contract without owner. It will not be possible to call `onlyOwner` functions. Can only be called by the current owner. NOTE: Renouncing ownership will leave the contract without an owner, thereby disabling any functionality that is only available to the owner."
      },
      "transferOwnership(address)": {
        "details": "Transfers ownership of the contract to a new account (`newOwner`). Can only be called by the current owner."
      }
    },
    "version": 1
  },
  "userdoc": {
    "kind": "user",
    "methods": {},
    "version": 1
  },
  "storageLayout": {
    "storage": [
      {
        "astId": 7,
        "contract": "contracts/processors/keyHashAdapters/ManagedKeyHashAdapter.sol:ManagedKeyHashAdapter",
        "label": "_owner",
        "offset": 0,
        "slot": "0",
        "type": "t_address"
      },
      {
        "astId": 4605,
        "contract": "contracts/processors/keyHashAdapters/ManagedKeyHashAdapter.sol:ManagedKeyHashAdapter",
        "label": "venmoMailserverKeyHash",
        "offset": 0,
        "slot": "1",
        "type": "t_bytes32"
      }
    ],
    "types": {
      "t_address": {
        "encoding": "inplace",
        "label": "address",
        "numberOfBytes": "20"
      },
      "t_bytes32": {
        "encoding": "inplace",
        "label": "bytes32",
        "numberOfBytes": "32"
      }
    }
  }
}