{
  "address": "0xe00f0e2f64F6FA7Eda3278CBD66347029C9848bc",
  "abi": [
    {
      "inputs": [
        {
          "internalType": "bytes32",
          "name": "_mailserverKeyHash",
          "type": "bytes32"
        }
      ],
      "stateMutability": "nonpayable",
      "type": "constructor"
    },
    {
      "anonymous": false,
      "inputs": [
        {
          "indexed": true,
          "internalType": "address",
          "name": "previousOwner",
          "type": "address"
        },
        {
          "indexed": true,
          "internalType": "address",
          "name": "newOwner",
          "type": "address"
        }
      ],
      "name": "OwnershipTransferred",
      "type": "event"
    },
    {
      "inputs": [],
      "name": "mailserverKeyHash",
      "outputs": [
        {
          "internalType": "bytes32",
          "name": "",
          "type": "bytes32"
        }
      ],
      "stateMutability": "view",
      "type": "function"
    },
    {
      "inputs": [],
      "name": "owner",
      "outputs": [
        {
          "internalType": "address",
          "name": "",
          "type": "address"
        }
      ],
      "stateMutability": "view",
      "type": "function"
    },
    {
      "inputs": [],
      "name": "renounceOwnership",
      "outputs": [],
      "stateMutability": "nonpayable",
      "type": "function"
    },
    {
      "inputs": [
        {
          "internalType": "bytes32",
          "name": "_mailserverKeyHash",
          "type": "bytes32"
        }
      ],
      "name": "setMailserverKeyHash",
      "outputs": [],
      "stateMutability": "nonpayable",
      "type": "function"
    },
    {
      "inputs": [
        {
          "internalType": "address",
          "name": "newOwner",
          "type": "address"
        }
      ],
      "name": "transferOwnership",
      "outputs": [],
      "stateMutability": "nonpayable",
      "type": "function"
    }
  ],
  "transactionHash": "0x12323e954fc6862d1f62926752243355ee099bb2324f17e1a99df5319c3125cf",
  "args": [
    "0x2cf6a95f35c0d2b6160f07626e9737449a53d173d65d1683263892555b448d8f"
  ],
  "numDeployments": 1,
  "solcInputHash": "3235f00afe52b593578a06ba6b1f711c",
  "bytecode": "0x608060405234801561001057600080fd5b5060405161034338038061034383398101604081905261002f91610090565b61003833610040565b6001556100a9565b600080546001600160a01b038381166001600160a01b0319831681178455604051919092169283917f8be0079c531659141344cd1fd0a4f28419497f9722a3daafe3b4186f6b6457e09190a35050565b6000602082840312156100a257600080fd5b5051919050565b61028b806100b86000396000f3fe608060405234801561001057600080fd5b50600436106100575760003560e01c806336406e641461005c578063715018a6146100785780638da5cb5b146100825780638f06c5df1461009d578063f2fde38b146100b0575b600080fd5b61006560015481565b6040519081526020015b60405180910390f35b6100806100c3565b005b6000546040516001600160a01b03909116815260200161006f565b6100806100ab36600461020c565b6100d7565b6100806100be366004610225565b6100e4565b6100cb610162565b6100d560006101bc565b565b6100df610162565b600155565b6100ec610162565b6001600160a01b0381166101565760405162461bcd60e51b815260206004820152602660248201527f4f776e61626c653a206e6577206f776e657220697320746865207a65726f206160448201526564647265737360d01b60648201526084015b60405180910390fd5b61015f816101bc565b50565b6000546001600160a01b031633146100d55760405162461bcd60e51b815260206004820181905260248201527f4f776e61626c653a2063616c6c6572206973206e6f7420746865206f776e6572604482015260640161014d565b600080546001600160a01b038381166001600160a01b0319831681178455604051919092169283917f8be0079c531659141344cd1fd0a4f28419497f9722a3daafe3b4186f6b6457e09190a35050565b60006020828403121561021e57600080fd5b5035919050565b60006020828403121561023757600080fd5b81356001600160a01b038116811461024e57600080fd5b939250505056fea2646970667358221220f25d7899406ba5c37842f4d5f15cd28cec5ede4f0dfafa2261224aadb2413bc964736f6c63430008120033",
  "devdoc": {
    "kind": "dev",
    "methods": {
      "owner()": {
        "details": "Returns the address of the current owner."
      },
      "renounceOwnership()": {
        "details": "Leaves the contract without owner. It will not be possible to call `onlyOwner` functions. Can only be called by the current owner. NOTE: Renouncing ownership will leave the contract without an owner, thereby disabling any functionality that is only available to the owner."
      },
      "transferOwnership(address)": {
        "details": "Transfers ownership of the contract to a new account (`newOwner`). Can only be called by the current owner."
      }
    },
    "version": 1
  },
  "userdoc": {
    "kind": "user",
    "methods": {},
    "version": 1
  },
  "storageLayout": {
    "storage": [
      {
        "astId": 7,
        "contract": "contracts/processors/keyHashAdapters/ManagedKeyHashAdapter.sol:ManagedKeyHashAdapter",
        "label": "_owner",
        "offset": 0,
        "slot": "0",
        "type": "t_address"
      },
      {
        "astId": 5721,
        "contract": "contracts/processors/keyHashAdapters/ManagedKeyHashAdapter.sol:ManagedKeyHashAdapter",
        "label": "mailserverKeyHash",
        "offset": 0,
        "slot": "1",
        "type": "t_bytes32"
      }
    ],
    "types": {
      "t_address": {
        "encoding": "inplace",
        "label": "address",
        "numberOfBytes": "20"
      },
      "t_bytes32": {
        "encoding": "inplace",
        "label": "bytes32",
        "numberOfBytes": "32"
      }
    }
  }
}