{
  "address": "0x1A2dcc7AfC7Bf09bE718E54466aA18166C00E4FD",
  "abi": [
    {
      "inputs": [
        {
          "internalType": "address",
          "name": "_owner",
          "type": "address"
        },
        {
          "internalType": "contract IERC20",
          "name": "_usdc",
          "type": "address"
        },
        {
          "internalType": "contract IPoseidon",
          "name": "_poseidon",
          "type": "address"
        },
        {
          "internalType": "uint256",
          "name": "_minDepositAmount",
          "type": "uint256"
        }
      ],
      "stateMutability": "nonpayable",
      "type": "constructor"
    },
    {
      "anonymous": false,
      "inputs": [
        {
          "indexed": true,
          "internalType": "address",
          "name": "accountOwner",
          "type": "address"
        },
        {
          "indexed": true,
          "internalType": "bytes32",
          "name": "venmoIdHash",
          "type": "bytes32"
        }
      ],
      "name": "AccountRegistered",
      "type": "event"
    },
    {
      "anonymous": false,
      "inputs": [
        {
          "indexed": false,
          "internalType": "uint256",
          "name": "depositId",
          "type": "uint256"
        },
        {
          "indexed": false,
          "internalType": "address",
          "name": "depositor",
          "type": "address"
        }
      ],
      "name": "DepositClosed",
      "type": "event"
    },
    {
      "anonymous": false,
      "inputs": [
        {
          "indexed": true,
          "internalType": "uint256",
          "name": "depositId",
          "type": "uint256"
        },
        {
          "indexed": true,
          "internalType": "bytes32",
          "name": "venmoId",
          "type": "bytes32"
        },
        {
          "indexed": false,
          "internalType": "uint256",
          "name": "amount",
          "type": "uint256"
        },
        {
          "indexed": false,
          "internalType": "uint256",
          "name": "conversionRate",
          "type": "uint256"
        }
      ],
      "name": "DepositReceived",
      "type": "event"
    },
    {
      "anonymous": false,
      "inputs": [
        {
          "indexed": true,
          "internalType": "uint256",
          "name": "depositId",
          "type": "uint256"
        },
        {
          "indexed": true,
          "internalType": "address",
          "name": "depositor",
          "type": "address"
        },
        {
          "indexed": false,
          "internalType": "uint256",
          "name": "amount",
          "type": "uint256"
        }
      ],
      "name": "DepositWithdrawn",
      "type": "event"
    },
    {
      "anonymous": false,
      "inputs": [
        {
          "indexed": true,
          "internalType": "bytes32",
          "name": "intentHash",
          "type": "bytes32"
        },
        {
          "indexed": true,
          "internalType": "uint256",
          "name": "depositId",
          "type": "uint256"
        },
        {
          "indexed": true,
          "internalType": "address",
          "name": "onRamper",
          "type": "address"
        },
        {
          "indexed": false,
          "internalType": "address",
          "name": "to",
          "type": "address"
        },
        {
          "indexed": false,
          "internalType": "uint256",
          "name": "amount",
          "type": "uint256"
        }
      ],
      "name": "IntentFulfilled",
      "type": "event"
    },
    {
      "anonymous": false,
      "inputs": [
        {
          "indexed": true,
          "internalType": "bytes32",
          "name": "intentHash",
          "type": "bytes32"
        },
        {
          "indexed": true,
          "internalType": "uint256",
          "name": "depositId",
          "type": "uint256"
        }
      ],
      "name": "IntentPruned",
      "type": "event"
    },
    {
      "anonymous": false,
      "inputs": [
        {
          "indexed": true,
          "internalType": "bytes32",
          "name": "intentHash",
          "type": "bytes32"
        },
        {
          "indexed": true,
          "internalType": "uint256",
          "name": "depositId",
          "type": "uint256"
        },
        {
          "indexed": true,
          "internalType": "bytes32",
          "name": "venmoId",
          "type": "bytes32"
        },
        {
          "indexed": false,
          "internalType": "address",
          "name": "to",
          "type": "address"
        },
        {
          "indexed": false,
          "internalType": "uint256",
          "name": "amount",
          "type": "uint256"
        },
        {
          "indexed": false,
          "internalType": "uint256",
          "name": "timestamp",
          "type": "uint256"
        }
      ],
      "name": "IntentSignaled",
      "type": "event"
    },
    {
      "anonymous": false,
      "inputs": [
        {
          "indexed": false,
          "internalType": "uint256",
          "name": "minDepositAmount",
          "type": "uint256"
        }
      ],
      "name": "MinDepositAmountSet",
      "type": "event"
    },
    {
      "anonymous": false,
      "inputs": [
        {
          "indexed": false,
          "internalType": "address",
          "name": "receiveProcessor",
          "type": "address"
        }
      ],
      "name": "NewReceiveProcessorSet",
      "type": "event"
    },
    {
      "anonymous": false,
      "inputs": [
        {
          "indexed": false,
          "internalType": "address",
          "name": "registrationProcessor",
          "type": "address"
        }
      ],
      "name": "NewRegistrationProcessorSet",
      "type": "event"
    },
    {
      "anonymous": false,
      "inputs": [
        {
          "indexed": false,
          "internalType": "address",
          "name": "sendProcessor",
          "type": "address"
        }
      ],
      "name": "NewSendProcessorSet",
      "type": "event"
    },
    {
      "anonymous": false,
      "inputs": [
        {
          "indexed": true,
          "internalType": "address",
          "name": "previousOwner",
          "type": "address"
        },
        {
          "indexed": true,
          "internalType": "address",
          "name": "newOwner",
          "type": "address"
        }
      ],
      "name": "OwnershipTransferred",
      "type": "event"
    },
    {
      "anonymous": false,
      "inputs": [
        {
          "indexed": false,
          "internalType": "bytes32",
          "name": "listOwner",
          "type": "bytes32"
        },
        {
          "indexed": false,
          "internalType": "bytes32",
          "name": "deniedUser",
          "type": "bytes32"
        }
      ],
      "name": "UserAddedToDenylist",
      "type": "event"
    },
    {
      "anonymous": false,
      "inputs": [
        {
          "indexed": false,
          "internalType": "bytes32",
          "name": "listOwner",
          "type": "bytes32"
        },
        {
          "indexed": false,
          "internalType": "bytes32",
          "name": "approvedUser",
          "type": "bytes32"
        }
      ],
      "name": "UserRemovedFromDenylist",
      "type": "event"
    },
    {
      "inputs": [
        {
          "internalType": "bytes32",
          "name": "_deniedUser",
          "type": "bytes32"
        }
      ],
      "name": "addAccountToDenylist",
      "outputs": [],
      "stateMutability": "nonpayable",
      "type": "function"
    },
    {
      "inputs": [
        {
          "internalType": "bytes32",
          "name": "_intentHash",
          "type": "bytes32"
        }
      ],
      "name": "cancelIntent",
      "outputs": [],
      "stateMutability": "nonpayable",
      "type": "function"
    },
    {
      "inputs": [],
      "name": "depositCounter",
      "outputs": [
        {
          "internalType": "uint256",
          "name": "",
          "type": "uint256"
        }
      ],
      "stateMutability": "view",
      "type": "function"
    },
    {
      "inputs": [
        {
          "internalType": "uint256",
          "name": "",
          "type": "uint256"
        }
      ],
      "name": "deposits",
      "outputs": [
        {
          "internalType": "address",
          "name": "depositor",
          "type": "address"
        },
        {
          "internalType": "uint256",
          "name": "depositAmount",
          "type": "uint256"
        },
        {
          "internalType": "uint256",
          "name": "remainingDeposits",
          "type": "uint256"
        },
        {
          "internalType": "uint256",
          "name": "outstandingIntentAmount",
          "type": "uint256"
        },
        {
          "internalType": "uint256",
          "name": "conversionRate",
          "type": "uint256"
        }
      ],
      "stateMutability": "view",
      "type": "function"
    },
    {
      "inputs": [
        {
          "internalType": "address",
          "name": "_account",
          "type": "address"
        }
      ],
      "name": "getAccountDeposits",
      "outputs": [
        {
          "components": [
            {
              "internalType": "uint256",
              "name": "depositId",
              "type": "uint256"
            },
            {
              "components": [
                {
                  "internalType": "address",
                  "name": "depositor",
                  "type": "address"
                },
                {
                  "internalType": "uint256[3]",
                  "name": "packedVenmoId",
                  "type": "uint256[3]"
                },
                {
                  "internalType": "uint256",
                  "name": "depositAmount",
                  "type": "uint256"
                },
                {
                  "internalType": "uint256",
                  "name": "remainingDeposits",
                  "type": "uint256"
                },
                {
                  "internalType": "uint256",
                  "name": "outstandingIntentAmount",
                  "type": "uint256"
                },
                {
                  "internalType": "uint256",
                  "name": "conversionRate",
                  "type": "uint256"
                },
                {
                  "internalType": "bytes32[]",
                  "name": "intentHashes",
                  "type": "bytes32[]"
                }
              ],
              "internalType": "struct Ramp.Deposit",
              "name": "deposit",
              "type": "tuple"
            },
            {
              "internalType": "uint256",
              "name": "availableLiquidity",
              "type": "uint256"
            }
          ],
          "internalType": "struct Ramp.DepositWithAvailableLiquidity[]",
          "name": "accountDeposits",
          "type": "tuple[]"
        }
      ],
      "stateMutability": "view",
      "type": "function"
    },
    {
      "inputs": [
        {
          "internalType": "address",
          "name": "_account",
          "type": "address"
        }
      ],
      "name": "getAccountInfo",
      "outputs": [
        {
          "components": [
            {
              "internalType": "bytes32",
              "name": "venmoIdHash",
              "type": "bytes32"
            },
            {
              "internalType": "uint256[]",
              "name": "deposits",
              "type": "uint256[]"
            }
          ],
          "internalType": "struct Ramp.AccountInfo",
          "name": "",
          "type": "tuple"
        }
      ],
      "stateMutability": "view",
      "type": "function"
    },
    {
      "inputs": [
        {
          "internalType": "address",
          "name": "_account",
          "type": "address"
        }
      ],
      "name": "getDeniedUsers",
      "outputs": [
        {
          "internalType": "bytes32[]",
          "name": "",
          "type": "bytes32[]"
        }
      ],
      "stateMutability": "view",
      "type": "function"
    },
    {
      "inputs": [
        {
          "internalType": "uint256",
          "name": "_depositId",
          "type": "uint256"
        }
      ],
      "name": "getDeposit",
      "outputs": [
        {
          "components": [
            {
              "internalType": "address",
              "name": "depositor",
              "type": "address"
            },
            {
              "internalType": "uint256[3]",
              "name": "packedVenmoId",
              "type": "uint256[3]"
            },
            {
              "internalType": "uint256",
              "name": "depositAmount",
              "type": "uint256"
            },
            {
              "internalType": "uint256",
              "name": "remainingDeposits",
              "type": "uint256"
            },
            {
              "internalType": "uint256",
              "name": "outstandingIntentAmount",
              "type": "uint256"
            },
            {
              "internalType": "uint256",
              "name": "conversionRate",
              "type": "uint256"
            },
            {
              "internalType": "bytes32[]",
              "name": "intentHashes",
              "type": "bytes32[]"
            }
          ],
          "internalType": "struct Ramp.Deposit",
          "name": "",
          "type": "tuple"
        }
      ],
      "stateMutability": "view",
      "type": "function"
    },
    {
      "inputs": [
        {
          "internalType": "uint256[]",
          "name": "_depositIds",
          "type": "uint256[]"
        }
      ],
      "name": "getDepositFromIds",
      "outputs": [
        {
          "components": [
            {
              "internalType": "uint256",
              "name": "depositId",
              "type": "uint256"
            },
            {
              "components": [
                {
                  "internalType": "address",
                  "name": "depositor",
                  "type": "address"
                },
                {
                  "internalType": "uint256[3]",
                  "name": "packedVenmoId",
                  "type": "uint256[3]"
                },
                {
                  "internalType": "uint256",
                  "name": "depositAmount",
                  "type": "uint256"
                },
                {
                  "internalType": "uint256",
                  "name": "remainingDeposits",
                  "type": "uint256"
                },
                {
                  "internalType": "uint256",
                  "name": "outstandingIntentAmount",
                  "type": "uint256"
                },
                {
                  "internalType": "uint256",
                  "name": "conversionRate",
                  "type": "uint256"
                },
                {
                  "internalType": "bytes32[]",
                  "name": "intentHashes",
                  "type": "bytes32[]"
                }
              ],
              "internalType": "struct Ramp.Deposit",
              "name": "deposit",
              "type": "tuple"
            },
            {
              "internalType": "uint256",
              "name": "availableLiquidity",
              "type": "uint256"
            }
          ],
          "internalType": "struct Ramp.DepositWithAvailableLiquidity[]",
          "name": "depositArray",
          "type": "tuple[]"
        }
      ],
      "stateMutability": "view",
      "type": "function"
    },
    {
      "inputs": [
        {
          "internalType": "bytes32[]",
          "name": "_intentHashes",
          "type": "bytes32[]"
        }
      ],
      "name": "getIntentsWithOnRamperId",
      "outputs": [
        {
          "components": [
            {
              "components": [
                {
                  "internalType": "address",
                  "name": "onRamper",
                  "type": "address"
                },
                {
                  "internalType": "address",
                  "name": "to",
                  "type": "address"
                },
                {
                  "internalType": "uint256",
                  "name": "deposit",
                  "type": "uint256"
                },
                {
                  "internalType": "uint256",
                  "name": "amount",
                  "type": "uint256"
                },
                {
                  "internalType": "uint256",
                  "name": "intentTimestamp",
                  "type": "uint256"
                }
              ],
              "internalType": "struct Ramp.Intent",
              "name": "intent",
              "type": "tuple"
            },
            {
              "internalType": "bytes32",
              "name": "onRamperIdHash",
              "type": "bytes32"
            }
          ],
          "internalType": "struct Ramp.IntentWithOnRamperId[]",
          "name": "",
          "type": "tuple[]"
        }
      ],
      "stateMutability": "view",
      "type": "function"
    },
    {
      "inputs": [
        {
          "internalType": "contract IReceiveProcessor",
          "name": "_receiveProcessor",
          "type": "address"
        },
        {
          "internalType": "contract IRegistrationProcessor",
          "name": "_registrationProcessor",
          "type": "address"
        },
        {
          "internalType": "contract ISendProcessor",
          "name": "_sendProcessor",
          "type": "address"
        }
      ],
      "name": "initialize",
      "outputs": [],
      "stateMutability": "nonpayable",
      "type": "function"
    },
    {
      "inputs": [
        {
          "internalType": "bytes32",
          "name": "",
          "type": "bytes32"
        }
      ],
      "name": "intents",
      "outputs": [
        {
          "internalType": "address",
          "name": "onRamper",
          "type": "address"
        },
        {
          "internalType": "address",
          "name": "to",
          "type": "address"
        },
        {
          "internalType": "uint256",
          "name": "deposit",
          "type": "uint256"
        },
        {
          "internalType": "uint256",
          "name": "amount",
          "type": "uint256"
        },
        {
          "internalType": "uint256",
          "name": "intentTimestamp",
          "type": "uint256"
        }
      ],
      "stateMutability": "view",
      "type": "function"
    },
    {
      "inputs": [
        {
          "internalType": "address",
          "name": "_account",
          "type": "address"
        },
        {
          "internalType": "bytes32",
          "name": "_deniedUser",
          "type": "bytes32"
        }
      ],
      "name": "isDeniedUser",
      "outputs": [
        {
          "internalType": "bool",
          "name": "",
          "type": "bool"
        }
      ],
      "stateMutability": "view",
      "type": "function"
    },
    {
      "inputs": [],
      "name": "minDepositAmount",
      "outputs": [
        {
          "internalType": "uint256",
          "name": "",
          "type": "uint256"
        }
      ],
      "stateMutability": "view",
      "type": "function"
    },
    {
      "inputs": [
        {
          "internalType": "uint256[3]",
          "name": "_packedVenmoId",
          "type": "uint256[3]"
        },
        {
          "internalType": "uint256",
          "name": "_depositAmount",
          "type": "uint256"
        },
        {
          "internalType": "uint256",
          "name": "_receiveAmount",
          "type": "uint256"
        }
      ],
      "name": "offRamp",
      "outputs": [],
      "stateMutability": "nonpayable",
      "type": "function"
    },
    {
      "inputs": [
        {
          "internalType": "uint256[2]",
          "name": "_a",
          "type": "uint256[2]"
        },
        {
          "internalType": "uint256[2][2]",
          "name": "_b",
          "type": "uint256[2][2]"
        },
        {
          "internalType": "uint256[2]",
          "name": "_c",
          "type": "uint256[2]"
        },
        {
          "internalType": "uint256[10]",
          "name": "_signals",
          "type": "uint256[10]"
        }
      ],
      "name": "onRamp",
      "outputs": [],
      "stateMutability": "nonpayable",
      "type": "function"
    },
    {
      "inputs": [
        {
          "internalType": "uint256[2]",
          "name": "_a",
          "type": "uint256[2]"
        },
        {
          "internalType": "uint256[2][2]",
          "name": "_b",
          "type": "uint256[2][2]"
        },
        {
          "internalType": "uint256[2]",
          "name": "_c",
          "type": "uint256[2]"
        },
        {
          "internalType": "uint256[9]",
          "name": "_signals",
          "type": "uint256[9]"
        }
      ],
      "name": "onRampWithReceiveEmail",
      "outputs": [],
      "stateMutability": "nonpayable",
      "type": "function"
    },
    {
      "inputs": [],
      "name": "owner",
      "outputs": [
        {
          "internalType": "address",
          "name": "",
          "type": "address"
        }
      ],
      "stateMutability": "view",
      "type": "function"
    },
    {
      "inputs": [],
      "name": "poseidon",
      "outputs": [
        {
          "internalType": "contract IPoseidon",
          "name": "",
          "type": "address"
        }
      ],
      "stateMutability": "view",
      "type": "function"
    },
    {
      "inputs": [],
      "name": "receiveProcessor",
      "outputs": [
        {
          "internalType": "contract IReceiveProcessor",
          "name": "",
          "type": "address"
        }
      ],
      "stateMutability": "view",
      "type": "function"
    },
    {
      "inputs": [
        {
          "internalType": "uint256[2]",
          "name": "_a",
          "type": "uint256[2]"
        },
        {
          "internalType": "uint256[2][2]",
          "name": "_b",
          "type": "uint256[2][2]"
        },
        {
          "internalType": "uint256[2]",
          "name": "_c",
          "type": "uint256[2]"
        },
        {
          "internalType": "uint256[5]",
          "name": "_signals",
          "type": "uint256[5]"
        }
      ],
      "name": "register",
      "outputs": [],
      "stateMutability": "nonpayable",
      "type": "function"
    },
    {
      "inputs": [],
      "name": "registrationProcessor",
      "outputs": [
        {
          "internalType": "contract IRegistrationProcessor",
          "name": "",
          "type": "address"
        }
      ],
      "stateMutability": "view",
      "type": "function"
    },
    {
      "inputs": [
        {
          "internalType": "bytes32",
          "name": "_approvedUser",
          "type": "bytes32"
        }
      ],
      "name": "removeAccountFromDenylist",
      "outputs": [],
      "stateMutability": "nonpayable",
      "type": "function"
    },
    {
      "inputs": [],
      "name": "renounceOwnership",
      "outputs": [],
      "stateMutability": "nonpayable",
      "type": "function"
    },
    {
      "inputs": [],
      "name": "sendProcessor",
      "outputs": [
        {
          "internalType": "contract ISendProcessor",
          "name": "",
          "type": "address"
        }
      ],
      "stateMutability": "view",
      "type": "function"
    },
    {
      "inputs": [
        {
          "internalType": "uint256",
          "name": "_minDepositAmount",
          "type": "uint256"
        }
      ],
      "name": "setMinDepositAmount",
      "outputs": [],
      "stateMutability": "nonpayable",
      "type": "function"
    },
    {
      "inputs": [
        {
          "internalType": "contract IReceiveProcessor",
          "name": "_receiveProcessor",
          "type": "address"
        }
      ],
      "name": "setReceiveProcessor",
      "outputs": [],
      "stateMutability": "nonpayable",
      "type": "function"
    },
    {
      "inputs": [
        {
          "internalType": "contract IRegistrationProcessor",
          "name": "_registrationProcessor",
          "type": "address"
        }
      ],
      "name": "setRegistrationProcessor",
      "outputs": [],
      "stateMutability": "nonpayable",
      "type": "function"
    },
    {
      "inputs": [
        {
          "internalType": "contract ISendProcessor",
          "name": "_sendProcessor",
          "type": "address"
        }
      ],
      "name": "setSendProcessor",
      "outputs": [],
      "stateMutability": "nonpayable",
      "type": "function"
    },
    {
      "inputs": [
        {
          "internalType": "uint256",
          "name": "_depositId",
          "type": "uint256"
        },
        {
          "internalType": "uint256",
          "name": "_amount",
          "type": "uint256"
        },
        {
          "internalType": "address",
          "name": "_to",
          "type": "address"
        }
      ],
      "name": "signalIntent",
      "outputs": [],
      "stateMutability": "nonpayable",
      "type": "function"
    },
    {
      "inputs": [
        {
          "internalType": "address",
          "name": "newOwner",
          "type": "address"
        }
      ],
      "name": "transferOwnership",
      "outputs": [],
      "stateMutability": "nonpayable",
      "type": "function"
    },
    {
      "inputs": [],
      "name": "usdc",
      "outputs": [
        {
          "internalType": "contract IERC20",
          "name": "",
          "type": "address"
        }
      ],
      "stateMutability": "view",
      "type": "function"
    },
    {
      "inputs": [
        {
          "internalType": "bytes32",
          "name": "",
          "type": "bytes32"
        }
      ],
      "name": "venmoIdIntent",
      "outputs": [
        {
          "internalType": "bytes32",
          "name": "",
          "type": "bytes32"
        }
      ],
      "stateMutability": "view",
      "type": "function"
    },
    {
      "inputs": [
        {
          "internalType": "uint256[]",
          "name": "_depositIds",
          "type": "uint256[]"
        }
      ],
      "name": "withdrawDeposit",
      "outputs": [],
      "stateMutability": "nonpayable",
      "type": "function"
    }
  ],
  "transactionHash": "0x21b37f73f2b7449f1910b7ad744e1661efc4cbafbdbea9f3f71d2abdda24d895",
  "args": [
    "0x4e39cF8578698131c57404e8bc3eEC820EDa51d8",
    "0x0a5A6f847899e185a14e54266036CE8260142659",
    "0xb4A7486b0EFa264D5FC6A8181bfc7A150cD57849",
    "20000000"
  ],
  "numDeployments": 1,
  "solcInputHash": "569e9df89bd5b92f388b7102efaa2236",
  "bytecode": "0x60c06040523480156200001157600080fd5b5060405162003b9c38038062003b9c8339810160408190526200003491620001b3565b6200003f336200006c565b6001600160a01b03808416608052821660a05260098190556200006284620000bc565b505050506200020d565b600080546001600160a01b038381166001600160a01b0319831681178455604051919092169283917f8be0079c531659141344cd1fd0a4f28419497f9722a3daafe3b4186f6b6457e09190a35050565b620000c66200013f565b6001600160a01b038116620001315760405162461bcd60e51b815260206004820152602660248201527f4f776e61626c653a206e6577206f776e657220697320746865207a65726f206160448201526564647265737360d01b60648201526084015b60405180910390fd5b6200013c816200006c565b50565b6000546001600160a01b031633146200019b5760405162461bcd60e51b815260206004820181905260248201527f4f776e61626c653a2063616c6c6572206973206e6f7420746865206f776e6572604482015260640162000128565b565b6001600160a01b03811681146200013c57600080fd5b60008060008060808587031215620001ca57600080fd5b8451620001d7816200019d565b6020860151909450620001ea816200019d565b6040860151909350620001fd816200019d565b6060959095015193969295505050565b60805160a05161394662000256600039600081816105130152610bea01526000818161025e01528181610e50015281816113a9015281816117d30152611af301526139466000f3fe608060405234801561001057600080fd5b50600436106102065760003560e01c80638da5cb5b1161011a578063ce523ca3116100ad578063ecd618f01161007c578063ecd618f014610577578063ed1692b814610597578063eea1d197146105aa578063f2fde38b146105bd578063fbf15b1f146105d057600080fd5b8063ce523ca314610535578063d55f960d14610548578063e215ad591461055b578063ecb3dc881461056e57600080fd5b8063a1eef799116100e9578063a1eef7991461046e578063b02c43d014610481578063c0c53b8b146104fb578063c62b919e1461050e57600080fd5b80638da5cb5b146103ae5780639021578a146103bf5780639b357b5a1461043b5780639f9fb9681461044e57600080fd5b8063645006ca1161019d578063715018a61161016c578063715018a61461034d57806371a28f6914610355578063774f27f8146103685780637b510fe81461037b57806382d039c61461039b57600080fd5b8063645006ca146102f05780636539299a146103075780636c39b50e14610327578063711347621461033a57600080fd5b80633e413bee116101d95780633e413bee146102595780634595bba01461029d5780634877b7b6146102bd5780635081d952146102d057600080fd5b8063133de6cb1461020b578063148172da146102205780632a80cda3146102335780633adba28a14610246575b600080fd5b61021e610219366004612e0e565b610627565b005b61021e61022e366004612e32565b610684565b61021e610241366004612e32565b610782565b61021e610254366004612e4b565b61080f565b6102807f000000000000000000000000000000000000000000000000000000000000000081565b6040516001600160a01b0390911681526020015b60405180910390f35b6102b06102ab366004612e0e565b610b5a565b6040516102949190612e84565b61021e6102cb366004612f38565b610bd0565b6102e36102de366004612e0e565b610fee565b6040516102949190613087565b6102f960095481565b604051908152602001610294565b6102f9610315366004612e32565b60066020526000908152604090205481565b600154610280906001600160a01b031681565b61021e610348366004613108565b61122b565b61021e611423565b6102e3610363366004613108565b611437565b61021e610376366004612e0e565b61160c565b61038e610389366004612e0e565b611662565b60405161029491906131ae565b61021e6103a93660046132a5565b6116fc565b6000546001600160a01b0316610280565b6104086103cd366004612e32565b600860205260009081526040902080546001820154600283015460038401546004909401546001600160a01b03938416949390921692909185565b604080516001600160a01b039687168152959094166020860152928401919091526060830152608082015260a001610294565b61021e610449366004612e32565b6118bf565b61046161045c366004612e32565b611999565b604051610294919061335e565b61021e61047c366004613371565b611a85565b6104c961048f366004612e32565b6007602081905260009182526040909120805460048201546005830154600684015493909401546001600160a01b03909216939092909185565b604080516001600160a01b0390961686526020860194909452928401919091526060830152608082015260a001610294565b61021e6105093660046133e7565b611bdf565b6102807f000000000000000000000000000000000000000000000000000000000000000081565b61021e610543366004613427565b611c85565b61021e610556366004612e32565b611d44565b600254610280906001600160a01b031681565b6102f9600a5481565b61058a61058536600461349c565b611e95565b6040516102949190613511565b61021e6105a5366004612e0e565b611fce565b600354610280906001600160a01b031681565b61021e6105cb366004612e0e565b612024565b6106176105de366004613595565b6001600160a01b039190911660009081526005602090815260408083205483526004825280832093835260019093019052205460ff1690565b6040519015158152602001610294565b61062f61209d565b600380546001600160a01b0319166001600160a01b0383169081179091556040519081527f6e7665a41605edc0d70f4b991d652755f380754eb092d81ef9ab93664778d59e906020015b60405180910390a150565b33600090815260056020908152604080832054808452600483528184208585526001019092529091205460ff16156107035760405162461bcd60e51b815260206004820152601860248201527f5573657220616c7265616479206f6e2064656e796c697374000000000000000060448201526064015b60405180910390fd5b600081815260046020818152604080842086855260018181018452828620805460ff191682179055938352805493840181558452922001839055517f976c693d56f27ba17d902bda80c4fa0416b773fbf268bcb0ee71689234d769ee906107769083908590918252602082015260400190565b60405180910390a15050565b61078a61209d565b806000036107da5760405162461bcd60e51b815260206004820152601e60248201527f4d696e696d756d206465706f7369742063616e6e6f74206265207a65726f000060448201526064016106fa565b60098190556040518181527fbdde72a6d8d8b42770c9899945ccdce09d0c5c794d3326cdb2d2cca61b12a9fc90602001610679565b336000908152600560208181526040808420548785526007835281852080546001600160a01b03168652938352818520548086526004845282862082875260010190935293205460ff16156108a65760405162461bcd60e51b815260206004820181905260248201527f4f6e72616d706572206f6e206465706f7369746f7227732064656e796c69737460448201526064016106fa565b600085116109055760405162461bcd60e51b815260206004820152602660248201527f5369676e616c656420616d6f756e74206d75737420626520677265617465722060448201526507468616e20360d41b60648201526084016106fa565b600083815260066020526040902054156109615760405162461bcd60e51b815260206004820152601860248201527f496e74656e74207374696c6c206f75747374616e64696e67000000000000000060448201526064016106fa565b600061096d84886120f7565b90508583600501541015610a225760008061098789612162565b915091508781866005015461099c91906135d7565b10156109e15760405162461bcd60e51b81526020600482015260146024820152734e6f7420656e6f756768206c697175696469747960601b60448201526064016106fa565b6109eb858361230b565b808560050160008282546109ff91906135d7565b9250508190555080856006016000828254610a1a91906135ea565b909155505050505b6040805160a0810182523381526001600160a01b0387811660208084019182528385018c8152606085018c81524260808701908152600089815260088552888120975188549088166001600160a01b031991821617895595516001890180549190981696169590951790955590516002860155516003850155915160049093019290925586825260069052908120829055600584018054889290610ac79084906135ea565b9250508190555085836006016000828254610ae291906135d7565b9091555050600883018054600181018255600091825260209182902001829055604080516001600160a01b038816815291820188905242908201528490889083907f1a1292e170a0f000ccf956afba79bee0f9ec1d81f3f901c1d4d11e1f336aae10906060015b60405180910390a450505050505050565b6001600160a01b03811660009081526005602090815260408083205483526004825291829020805483518184028101840190945280845260609392830182828015610bc457602002820191906000526020600020905b815481526020019060010190808311610bb0575b50505050509050919050565b6040516304b98e1d60e31b81526000906001600160a01b037f000000000000000000000000000000000000000000000000000000000000000016906325cc70e890610c1f9087906004016135fd565b602060405180830381865afa158015610c3c573d6000803e3d6000fd5b505050506040513d601f19601f82011682018060405250810190610c60919061360b565b3360009081526005602081905260409091206001015491925011610cc65760405162461bcd60e51b815260206004820152601e60248201527f4d6178696d756d206465706f73697420616d6f756e742072656163686564000060448201526064016106fa565b336000908152600560205260409020548114610d245760405162461bcd60e51b815260206004820181905260248201527f53656e646572206d75737420626520746865206163636f756e74206f776e657260448201526064016106fa565b600954831015610d955760405162461bcd60e51b815260206004820152603660248201527f4465706f73697420616d6f756e74206d757374206265206772656174657220746044820152751a185b881b5a5b8819195c1bdcda5d08185b5bdd5b9d60521b60648201526084016106fa565b60008211610df35760405162461bcd60e51b815260206004820152602560248201527f5265636569766520616d6f756e74206d75737420626520677265617465722074604482015264068616e20360dc1b60648201526084016106fa565b600082610e08670de0b6b3a764000086613624565b610e129190613651565b600a80549192506000919082610e2783613665565b909155506040516323b872dd60e01b8152336004820152306024820152604481018790529091507f00000000000000000000000000000000000000000000000000000000000000006001600160a01b0316906323b872dd906064016020604051808303816000875af1158015610ea1573d6000803e3d6000fd5b505050506040513d601f19601f82011682018060405250810190610ec5919061367e565b5033600081815260056020908152604080832060019081018054808301825590855283852001869055815160e0810183529485528483018b81528583018b9052606086018b90526080860185905260a086018890528251858152808501845260c087015286855260079093529220835181546001600160a01b0319166001600160a01b0390911617815590519091610f6291908301906003612c5c565b5060408201516004820155606082015160058201556080820151600682015560a0820151600782015560c08201518051610fa6916008840191602090910190612c9a565b5050604080518781526020810185905285925083917f36b046df2c296f2a5a78570d5e52a92773cbb616825b1af59a49a4d02df2b109910160405180910390a3505050505050565b6001600160a01b038116600090815260056020908152604080832060010180548251818502810185019093528083526060949383018282801561105057602002820191906000526020600020905b81548152602001906001019080831161103c575b50505050509050805167ffffffffffffffff81111561107157611071612ec8565b6040519080825280602002602001820160405280156110aa57816020015b611097612cd4565b81526020019060019003908161108f5790505b50915060005b81518110156112245760008282815181106110cd576110cd6136a0565b6020908102919091018101516000818152600783526040808220815160e08101835281546001600160a01b0316815282516060810190935293955091938301906001830160038282826020028201915b81548152602001906001019080831161111d575050505050815260200160048201548152602001600582015481526020016006820154815260200160078201548152602001600882018054806020026020016040519081016040528092919081815260200182805480156111b057602002820191906000526020600020905b81548152602001906001019080831161119c575b505050505081525050905060006111c683612162565b91505060405180606001604052808481526020018381526020018284606001516111f091906135d7565b815250868581518110611205576112056136a0565b60200260200101819052505050508061121d90613665565b90506110b0565b5050919050565b6000805b825181101561138c57600083828151811061124c5761124c6136a0565b6020908102919091018101516000818152600790925260409091208054919250906001600160a01b031633146112c45760405162461bcd60e51b815260206004820152601c60248201527f53656e646572206d75737420626520746865206465706f7369746f720000000060448201526064016106fa565b6000806112d084612162565b915091506112de838361230b565b8083600501546112ee91906135d7565b6112f890876135d7565b95508083600601600082825461130e91906135ea565b9091555050825460058401546001600160a01b039091169085907fae1f357660ab777dcfd38c0ab6357834684ec26289ecfa07ec65dbf6c3c64312906113559085906135d7565b60405190815260200160405180910390a360006005840155611377848461236d565b505050508061138590613665565b905061122f565b5060405163a9059cbb60e01b8152336004820152602481018290527f00000000000000000000000000000000000000000000000000000000000000006001600160a01b03169063a9059cbb906044016020604051808303816000875af11580156113fa573d6000803e3d6000fd5b505050506040513d601f19601f8201168201806040525081019061141e919061367e565b505050565b61142b61209d565b6114356000612460565b565b6060815167ffffffffffffffff81111561145357611453612ec8565b60405190808252806020026020018201604052801561148c57816020015b611479612cd4565b8152602001906001900390816114715790505b50905060005b82518110156116065760008382815181106114af576114af6136a0565b6020908102919091018101516000818152600783526040808220815160e08101835281546001600160a01b0316815282516060810190935293955091938301906001830160038282826020028201915b8154815260200190600101908083116114ff5750505050508152602001600482015481526020016005820154815260200160068201548152602001600782015481526020016008820180548060200260200160405190810160405280929190818152602001828054801561159257602002820191906000526020600020905b81548152602001906001019080831161157e575b505050505081525050905060006115a883612162565b91505060405180606001604052808481526020018381526020018284606001516115d291906135d7565b8152508585815181106115e7576115e76136a0565b6020026020010181905250505050806115ff90613665565b9050611492565b50919050565b61161461209d565b600180546001600160a01b0319166001600160a01b0383169081179091556040519081527f169d8a844bf192f95cd7f20dfed0b6e085f4c6da593d7a187b6e47b08592c39590602001610679565b6040805180820190915260008152606060208201526001600160a01b0382166000908152600560209081526040918290208251808401845281548152600182018054855181860281018601909652808652919492938581019392908301828280156116ec57602002820191906000526020600020905b8154815260200190600101908083116116d8575b5050505050815250509050919050565b60008061170b868686866124b0565b60408083015160009081526007602052208054929450909250906001600160a01b0316331461177c5760405162461bcd60e51b815260206004820181905260248201527f53656e646572206d75737420626520746865206163636f756e74206f776e657260448201526064016106fa565b6117868183612648565b826060015181600601600082825461179e91906135ea565b909155505060408301516117b2908261236d565b6020830151606084015160405163a9059cbb60e01b81526001600160a01b037f0000000000000000000000000000000000000000000000000000000000000000169263a9059cbb9261181a926004016001600160a01b03929092168252602082015260400190565b6020604051808303816000875af1158015611839573d6000803e3d6000fd5b505050506040513d601f19601f8201168201806040525081019061185d919061367e565b5082600001516001600160a01b03168360400151837fa190dc5087daf7d7162c823a53e4895780681aca961ef260e84b02abadc859a486602001518760600151604051610b499291906001600160a01b03929092168252602082015260400190565b33600090815260056020908152604080832054808452600483528184208585526001019092529091205460ff1661192f5760405162461bcd60e51b8152602060048201526014602482015273155cd95c881b9bdd081bdb8819195b9e5b1a5cdd60621b60448201526064016106fa565b6000818152600460208181526040808420868552600181018352908420805460ff1916905592849052526119639083612721565b60408051828152602081018490527f8935205b1b382095d2d95efbb36f81a11a34c548d45af26adc1a02d2f2bb546f9101610776565b6119a1612cfb565b600082815260076020908152604091829020825160e08101845281546001600160a01b031681528351606081019485905290939192840191600184019060039082845b8154815260200190600101908083116119e4575050505050815260200160048201548152602001600582015481526020016006820154815260200160078201548152602001600882018054806020026020016040519081016040528092919081815260200182805480156116ec57602002820191906000526020600020908154815260200190600101908083116116d8575050505050815250509050919050565b6000806000611a968787878761284a565b925092509250611aa68282612648565b8260600151826006016000828254611abe91906135ea565b90915550506040830151611ad2908361236d565b6020830151606084015160405163a9059cbb60e01b81526001600160a01b037f0000000000000000000000000000000000000000000000000000000000000000169263a9059cbb92611b3a926004016001600160a01b03929092168252602082015260400190565b6020604051808303816000875af1158015611b59573d6000803e3d6000fd5b505050506040513d601f19601f82011682018060405250810190611b7d919061367e565b5082600001516001600160a01b03168360400151827fa190dc5087daf7d7162c823a53e4895780681aca961ef260e84b02abadc859a486602001518760600151604051610b499291906001600160a01b03929092168252602082015260400190565b611be761209d565b600354600160a01b900460ff1615611c375760405162461bcd60e51b8152602060048201526013602482015272105b1c9958591e481a5b9a5d1a585b1a5e9959606a1b60448201526064016106fa565b600180546001600160a01b039485166001600160a01b031991821617909155600280549385169390911692909217909155600380546001600160a81b0319169190921617600160a01b179055565b3360009081526005602052604090205415611cf25760405162461bcd60e51b815260206004820152602760248201527f4163636f756e7420616c7265616479206173736f6369617465642077697468206044820152661d995b9b5bd25960ca1b60648201526084016106fa565b6000611d0085858585612a66565b336000818152600560205260408082208490555192935083927f672144042732f7b1cdbf0772464ae545aedd7f41d38b8487dafd9085496a5d519190a35050505050565b6000818152600860209081526040808320815160a08101835281546001600160a01b03908116825260018301541693810193909352600281015491830191909152600381015460608301526004015460808201819052909103611de15760405162461bcd60e51b8152602060048201526015602482015274125b9d195b9d08191bd95cc81b9bdd08195e1a5cdd605a1b60448201526064016106fa565b604080820151600090815260076020522081516001600160a01b03163314611e4b5760405162461bcd60e51b815260206004820152601c60248201527f53656e646572206d75737420626520746865206f6e2d72616d7065720000000060448201526064016106fa565b611e558184612648565b8160600151816005016000828254611e6d91906135d7565b90915550506060820151600682018054600090611e8b9084906135ea565b9091555050505050565b606060008267ffffffffffffffff811115611eb257611eb2612ec8565b604051908082528060200260200182016040528015611eeb57816020015b611ed8612d47565b815260200190600190039081611ed05790505b50905060005b83811015611fc457600060086000878785818110611f1157611f116136a0565b602090810292909201358352508181019290925260409081016000908120825160a08101845281546001600160a01b03908116825260018301548116828701526002830154828601526003830154606083015260049092015460808201528351808501855281815281519092168352600585529290912054928101929092528451909250849084908110611fa757611fa76136a0565b60200260200101819052505080611fbd90613665565b9050611ef1565b5090505b92915050565b611fd661209d565b600280546001600160a01b0319166001600160a01b0383169081179091556040519081527f73d3ac111d5926fbfd68ade03832f0b1a4daef0cd0effc1fa0829264bcc57c4190602001610679565b61202c61209d565b6001600160a01b0381166120915760405162461bcd60e51b815260206004820152602660248201527f4f776e61626c653a206e6577206f776e657220697320746865207a65726f206160448201526564647265737360d01b60648201526084016106fa565b61209a81612460565b50565b6000546001600160a01b031633146114355760405162461bcd60e51b815260206004820181905260248201527f4f776e61626c653a2063616c6c6572206973206e6f7420746865206f776e657260448201526064016106fa565b6040805160208101849052908101829052426060820152600090819060800160408051601f198184030181529190528051602090910120905061215a7f30644e72e131a029b85045b68181585d2833e84879b9709143e1f593f0000001826136b6565b949350505050565b600081815260076020908152604080832060080180548251818502810185019093528083526060949384939291908301828280156121bf57602002820191906000526020600020905b8154815260200190600101908083116121ab575b50505050509050805167ffffffffffffffff8111156121e0576121e0612ec8565b604051908082528060200260200182016040528015612209578160200160208202803683370190505b50925060005b815181101561230457600060086000848481518110612230576122306136a0565b6020908102919091018101518252818101929092526040908101600020815160a08101835281546001600160a01b0390811682526001830154169381019390935260028101549183019190915260038101546060830152600401546080820181905290915042906122a490620151806135d7565b10156122f3578282815181106122bc576122bc6136a0565b60200260200101518583815181106122d6576122d66136a0565b602090810291909101015260608101516122f090856135d7565b93505b506122fd81613665565b905061220f565b5050915091565b60005b815181101561141e576000801b82828151811061232d5761232d6136a0565b60200260200101511461235d5761235d83838381518110612350576123506136a0565b6020026020010151612648565b61236681613665565b905061230e565b60008160050154826006015461238391906135d7565b90508060000361141e5781546001600160a01b031660009081526005602052604090206123b39060010184612b04565b8154604080518581526001600160a01b0390921660208301527f8ac07cc6e38c6222dd0309c80353c1962354bacf222b825d7401cc80e93ff3cc910160405180910390a1600083815260076020526040812080546001600160a01b03191681556001810182905560028101829055600381018290559060048201600090556005820160009055600682016000905560078201600090556008820160006124599190612d67565b5050505050565b600080546001600160a01b038381166001600160a01b0319831681178455604051919092169283917f8be0079c531659141344cd1fd0a4f28419497f9722a3daafe3b4186f6b6457e09190a35050565b6124b8612d85565b60015460408051608081018252878152602081018790528082018690526060810185905290516305a0d40d60e41b81526000928392839283926001600160a01b031691635a0d40d09161250e919060040161371b565b6060604051808303816000875af115801561252d573d6000803e3d6000fd5b505050506040513d601f19601f82011682018060405250810190612551919061378a565b600081815260086020908152604091829020825160a08101845281546001600160a01b0390811682526001830154169281019290925260028101549282019290925260038201546060820152600490910154608082018190529396509194509250908410156125d25760405162461bcd60e51b81526004016106fa906137b8565b80516001600160a01b0316600090815260056020526040902054831461263a5760405162461bcd60e51b815260206004820152601a60248201527f4f6e72616d70657220696420646f6573206e6f74206d6174636800000000000060448201526064016106fa565b999098509650505050505050565b6000818152600860208181526040808420815160a08101835281546001600160a01b03908116808352600184018054909216838701526002840180548487015260038501805460608601526004860180546080870152928a5260058852868a20548a52600688529589208990558989529587905283546001600160a01b0319908116909455815490931690559285905590849055929092556126ec90840183612721565b604080820151905183907fe8a865b4bab023c399cbd1f2cdd0df2199beb6e5012a4bd2d7691cf7e4199d5a90600090a3505050565b60008061277d8480548060200260200160405190810160405280929190818152602001828054801561277257602002820191906000526020600020905b81548152602001906001019080831161275e575b505050505084612ba9565b91509150806127c65760405162461bcd60e51b8152602060048201526015602482015274313cba32b99999103737ba1034b71030b93930bc9760591b60448201526064016106fa565b83546000906127d7906001906135ea565b905080831461281c578481815481106127f2576127f26136a0565b906000526020600020015485848154811061280f5761280f6136a0565b6000918252602090912001555b8480548061282c5761282c6137fa565b60019003818190600052602060002001600090559055505b50505050565b612852612d85565b60035460408051608081018252878152602081018790528082018690526060810185905290516319734a5b60e21b8152600092839283928392839283926001600160a01b03909216916365cd296c916128ad91600401613810565b6080604051808303816000875af11580156128cc573d6000803e3d6000fd5b505050506040513d601f19601f820116820180604052508101906128f09190613875565b6000818152600860209081526040808320815160a08101835281546001600160a01b03908116825260018301541681850152600282015481840181905260038301546060830152600490920154608082019081529185526007909352922091519599509397509195509350909185101561297c5760405162461bcd60e51b81526004016106fa906137b8565b80546001600160a01b031660009081526005602052604090205484146129e45760405162461bcd60e51b815260206004820152601b60248201527f4f666672616d70657220696420646f6573206e6f74206d61746368000000000060448201526064016106fa565b8060070154670de0b6b3a76400008360600151612a019190613624565b612a0b9190613651565b861015612a535760405162461bcd60e51b81526020600482015260166024820152750a0c2f2dacadce840eec2e640dcdee840cadcdeeaced60531b60448201526064016106fa565b909c909b50909950975050505050505050565b6002546040805160808101825286815260208101869052808201859052606081018490529051630be4767960e11b815260009283926001600160a01b03909116916317c8ecf291612ab9916004016138ab565b602060405180830381865afa158015612ad6573d6000803e3d6000fd5b505050506040513d601f19601f82011682018060405250810190612afa919061360b565b9695505050505050565b600080612b6084805480602002602001604051908101604052809291908181526020018280548015612b5557602002820191906000526020600020905b815481526020019060010190808311612b41575b505050505084612c0c565b91509150806127c65760405162461bcd60e51b81526020600482015260156024820152743ab4b73a191a9b103737ba1034b71030b93930bc9760591b60448201526064016106fa565b81516000908190815b81811015612bf95784868281518110612bcd57612bcd6136a0565b602002602001015103612be757925060019150612c059050565b80612bf181613665565b915050612bb2565b50600019600092509250505b9250929050565b81516000908190815b81811015612bf95784868281518110612c3057612c306136a0565b602002602001015103612c4a57925060019150612c059050565b80612c5481613665565b915050612c15565b8260038101928215612c8a579160200282015b82811115612c8a578251825591602001919060010190612c6f565b50612c96929150612dc6565b5090565b828054828255906000526020600020908101928215612c8a5791602002820182811115612c8a578251825591602001919060010190612c6f565b604051806060016040528060008152602001612cee612cfb565b8152602001600081525090565b6040518060e0016040528060006001600160a01b03168152602001612d1e612ddb565b815260200160008152602001600081526020016000815260200160008152602001606081525090565b6040518060400160405280612d5a612d85565b8152600060209091015290565b508054600082559060005260206000209081019061209a9190612dc6565b6040518060a0016040528060006001600160a01b0316815260200160006001600160a01b031681526020016000815260200160008152602001600081525090565b5b80821115612c965760008155600101612dc7565b60405180606001604052806003906020820280368337509192915050565b6001600160a01b038116811461209a57600080fd5b600060208284031215612e2057600080fd5b8135612e2b81612df9565b9392505050565b600060208284031215612e4457600080fd5b5035919050565b600080600060608486031215612e6057600080fd5b83359250602084013591506040840135612e7981612df9565b809150509250925092565b6020808252825182820181905260009190848201906040850190845b81811015612ebc57835183529284019291840191600101612ea0565b50909695505050505050565b634e487b7160e01b600052604160045260246000fd5b6040805190810167ffffffffffffffff81118282101715612f0157612f01612ec8565b60405290565b604051601f8201601f1916810167ffffffffffffffff81118282101715612f3057612f30612ec8565b604052919050565b600080600060a08486031215612f4d57600080fd5b84601f850112612f5c57600080fd5b6040516060810181811067ffffffffffffffff82111715612f7f57612f7f612ec8565b604052806060860187811115612f9457600080fd5b865b81811015612fae578035835260209283019201612f96565b5091979135965050608094909401359392505050565b8060005b6003811015612844578151845260209384019390910190600101612fc8565b600061012080840160018060a01b03845116855260208085015161300d82880182612fc4565b5060408501516080870152606085015160a0870152608085015160c087015260a085015160e087015260c0850151836101008801528293508051808452610140880194508282019350600091505b8082101561307b578351855293820193928201926001919091019061305b565b50929695505050505050565b60006020808301818452808551808352604092508286019150828160051b87010184880160005b838110156130fa57603f19898403018552815160608151855288820151818a8701526130dc82870182612fe7565b928901519589019590955250948701949250908601906001016130ae565b509098975050505050505050565b6000602080838503121561311b57600080fd5b823567ffffffffffffffff8082111561313357600080fd5b818501915085601f83011261314757600080fd5b81358181111561315957613159612ec8565b8060051b915061316a848301612f07565b818152918301840191848101908884111561318457600080fd5b938501935b838510156131a257843582529385019390850190613189565b98975050505050505050565b60208082528251828201528281015160408084015280516060840181905260009291820190839060808601905b808310156131fb57835182529284019260019290920191908401906131db565b509695505050505050565b600082601f83011261321757600080fd5b61321f612ede565b80604084018581111561323157600080fd5b845b8181101561324b578035845260209384019301613233565b509095945050505050565b600082601f83011261326757600080fd5b61326f612ede565b80608084018581111561328157600080fd5b845b8181101561324b576132958782613206565b8452602090930192604001613283565b6000806000806102208086880312156132bd57600080fd5b6132c78787613206565b94506132d68760408801613256565b93506132e58760c08801613206565b92508661011f8701126132f757600080fd5b604051610120810181811067ffffffffffffffff8211171561331b5761331b612ec8565b60405290860190808883111561333057600080fd5b61010088015b8381101561334e578035825260209182019101613336565b5050809250505092959194509250565b602081526000612e2b6020830184612fe7565b60008060008061024080868803121561338957600080fd5b6133938787613206565b94506133a28760408801613256565b93506133b18760c08801613206565b92508661011f8701126133c357600080fd5b604051610140810181811067ffffffffffffffff8211171561331b5761331b612ec8565b6000806000606084860312156133fc57600080fd5b833561340781612df9565b9250602084013561341781612df9565b91506040840135612e7981612df9565b6000806000806101a080868803121561343f57600080fd5b6134498787613206565b94506134588760408801613256565b93506134678760c08801613206565b92508661011f87011261347957600080fd5b60405160a0810181811067ffffffffffffffff8211171561331b5761331b612ec8565b600080602083850312156134af57600080fd5b823567ffffffffffffffff808211156134c757600080fd5b818501915085601f8301126134db57600080fd5b8135818111156134ea57600080fd5b8660208260051b85010111156134ff57600080fd5b60209290920196919550909350505050565b602080825282518282018190526000919060409081850190868401855b82811015613588578151805180516001600160a01b0390811687528882015116888701528681015187870152606080820151908701526080908101519086015286015160a085015260c0909301929085019060010161352e565b5091979650505050505050565b600080604083850312156135a857600080fd5b82356135b381612df9565b946020939093013593505050565b634e487b7160e01b600052601160045260246000fd5b80820180821115611fc857611fc86135c1565b81810381811115611fc857611fc86135c1565b60608101611fc88284612fc4565b60006020828403121561361d57600080fd5b5051919050565b8082028115828204841417611fc857611fc86135c1565b634e487b7160e01b600052601260045260246000fd5b6000826136605761366061363b565b500490565b600060018201613677576136776135c1565b5060010190565b60006020828403121561369057600080fd5b81518015158114612e2b57600080fd5b634e487b7160e01b600052603260045260246000fd5b6000826136c5576136c561363b565b500690565b8060005b60028110156128445781518452602093840193909101906001016136ce565b8060005b6002811015612844576137058483516136ca565b60409390930192602091909101906001016136f1565b60006102208201905061372f8284516136ca565b60208084015161374260408501826136ed565b50604084015161375560c08501826136ca565b506060840151610100840160005b600981101561378057825182529183019190830190600101613763565b5050505092915050565b60008060006060848603121561379f57600080fd5b8351925060208401519150604084015190509250925092565b60208082526022908201527f496e74656e7420776173206e6f742063726561746564206265666f72652073656040820152611b9960f21b606082015260800190565b634e487b7160e01b600052603160045260246000fd5b6000610240820190506138248284516136ca565b60208084015161383760408501826136ed565b50604084015161384a60c08501826136ca565b506060840151610100840160005b600a81101561378057825182529183019190830190600101613858565b6000806000806080858703121561388b57600080fd5b505082516020840151604085015160609095015191969095509092509050565b60006101a0820190506138bf8284516136ca565b6020808401516138d260408501826136ed565b5060408401516138e560c08501826136ca565b506060840151610100840160005b6005811015613780578251825291830191908301906001016138f356fea26469706673582212201f5e76f6cfab443d76ce0a3d3b786e1d76a7b3fb1441fbe5bfb277c84700535c64736f6c63430008120033",
  "devdoc": {
    "kind": "dev",
    "methods": {
      "addAccountToDenylist(bytes32)": {
        "params": {
          "_deniedUser": "Poseidon hash of the venmoId being banned"
        }
      },
      "cancelIntent(bytes32)": {
        "params": {
          "_intentHash": "Hash of intent being cancelled"
        }
      },
      "initialize(address,address,address)": {
        "params": {
          "_receiveProcessor": "Receive processor address",
          "_registrationProcessor": "Registration processor address",
          "_sendProcessor": "Send processor address"
        }
      },
      "offRamp(uint256[3],uint256,uint256)": {
        "params": {
          "_depositAmount": "The amount of USDC to off-ramp",
          "_packedVenmoId": "The packed venmo id of the account owner (we pack for easy use with poseidon)",
          "_receiveAmount": "The amount of USD to receive"
        }
      },
      "onRamp(uint256[2],uint256[2][2],uint256[2],uint256[10])": {
        "params": {
          "_a": "Parameter of zk proof",
          "_b": "Parameter of zk proof",
          "_c": "Parameter of zk proof",
          "_signals": "Encoded public signals of the zk proof, contains mailserverHash, fromEmail, timestamp, onRamperIdHash,                  nullifier, intentHash"
        }
      },
      "onRampWithReceiveEmail(uint256[2],uint256[2][2],uint256[2],uint256[9])": {
        "params": {
          "_a": "Parameter of zk proof",
          "_b": "Parameter of zk proof",
          "_c": "Parameter of zk proof",
          "_signals": "Encoded public signals of the zk proof, contains mailserverHash, fromEmail, timestamp, onRamperIdHash,                  nullifier, intentHash"
        }
      },
      "owner()": {
        "details": "Returns the address of the current owner."
      },
      "register(uint256[2],uint256[2][2],uint256[2],uint256[5])": {
        "params": {
          "_a": "Parameter of zk proof",
          "_b": "Parameter of zk proof",
          "_c": "Parameter of zk proof",
          "_signals": "Encoded public signals of the zk proof, contains mailserverHash, fromEmail, userIdHash"
        }
      },
      "removeAccountFromDenylist(bytes32)": {
        "params": {
          "_approvedUser": "Poseidon hash of the venmoId being approved"
        }
      },
      "renounceOwnership()": {
        "details": "Leaves the contract without owner. It will not be possible to call `onlyOwner` functions. Can only be called by the current owner. NOTE: Renouncing ownership will leave the contract without an owner, thereby disabling any functionality that is only available to the owner."
      },
      "setMinDepositAmount(uint256)": {
        "params": {
          "_minDepositAmount": "The new minimum deposit amount"
        }
      },
      "setReceiveProcessor(address)": {
        "params": {
          "_receiveProcessor": "New receive proccesor address"
        }
      },
      "setRegistrationProcessor(address)": {
        "params": {
          "_registrationProcessor": "New registration proccesor address"
        }
      },
      "setSendProcessor(address)": {
        "params": {
          "_sendProcessor": "New send proccesor address"
        }
      },
      "signalIntent(uint256,uint256,address)": {
        "params": {
          "_amount": "The amount of USDC the user wants to on-ramp",
          "_depositId": "The ID of the deposit the on-ramper intends to use for "
        }
      },
      "transferOwnership(address)": {
        "details": "Transfers ownership of the contract to a new account (`newOwner`). Can only be called by the current owner."
      },
      "withdrawDeposit(uint256[])": {
        "params": {
          "_depositIds": "Array of depositIds the depositor is attempting to withdraw"
        }
      }
    },
    "version": 1
  },
  "userdoc": {
    "kind": "user",
    "methods": {
      "addAccountToDenylist(bytes32)": {
        "notice": "Adds a venmoId to a depositor's deny list. If an address associated with the banned venmoId attempts to signal an intent on the user's deposit they will be denied."
      },
      "cancelIntent(bytes32)": {
        "notice": "Only callable by the originator of the intent. Cancels an outstanding intent thus allowing user to signal a new intent. Deposit state is updated to reflect the cancelled intent."
      },
      "initialize(address,address,address)": {
        "notice": "Initialize Ramp with the addresses of the Processors"
      },
      "offRamp(uint256[3],uint256,uint256)": {
        "notice": "Generates a deposit entry for off-rampers that can then be fulfilled by an on-ramper. This function will not add to previous deposits. Every deposit has it's own unique identifier. User must approve the contract to transfer the deposit amount of USDC."
      },
      "onRamp(uint256[2],uint256[2][2],uint256[2],uint256[10])": {
        "notice": "Upon submission the proof is validated, intent is removed, and deposit state is updated. USDC is transferred to the on-ramper."
      },
      "onRampWithReceiveEmail(uint256[2],uint256[2][2],uint256[2],uint256[9])": {
        "notice": "ONLY OFF-RAMPER: Must be submitted by off-ramper. Upon submission the proof is validated, intent is removed, and deposit state is updated. USDC is transferred to the on-ramper and the defined convenience fee is sent to the off- ramper."
      },
      "register(uint256[2],uint256[2][2],uint256[2],uint256[5])": {
        "notice": "Registers a new account by pulling the hash of the account id from the proof and assigning the account owner to the sender of the transaction."
      },
      "removeAccountFromDenylist(bytes32)": {
        "notice": "Removes a venmoId from a depositor's deny list."
      },
      "setMinDepositAmount(uint256)": {
        "notice": "GOVERNANCE ONLY: Updates the minimum deposit amount a user can specify for off-ramping."
      },
      "setReceiveProcessor(address)": {
        "notice": "GOVERNANCE ONLY: Updates the receive processor address used for validating and interpreting zk proofs."
      },
      "setRegistrationProcessor(address)": {
        "notice": "GOVERNANCE ONLY: Updates the registration processor address used for validating and interpreting zk proofs."
      },
      "setSendProcessor(address)": {
        "notice": "GOVERNANCE ONLY: Updates the send processor address used for validating and interpreting zk proofs."
      },
      "signalIntent(uint256,uint256,address)": {
        "notice": "Signals intent to pay the depositor defined in the _depositId the _amount * deposit conversionRate off-chain in order to unlock _amount of funds on-chain. Each user can only have one outstanding intent at a time regardless of address (tracked using venmoId). Caller must not be on the depositor's deny list. If there are prunable intents then they will be deleted from the deposit to be able to maintain state hygiene."
      },
      "withdrawDeposit(uint256[])": {
        "notice": "Caller must be the depositor for each depositId in the array. Depositor is returned all remaining deposits and any outstanding intents that are expired. If an intent is not expired then those funds will not be returned. Deposit will be deleted as long as there are no more outstanding intents."
      }
    },
    "version": 1
  },
  "storageLayout": {
    "storage": [
      {
        "astId": 7,
        "contract": "contracts/Ramp.sol:Ramp",
        "label": "_owner",
        "offset": 0,
        "slot": "0",
        "type": "t_address"
      },
      {
        "astId": 405,
        "contract": "contracts/Ramp.sol:Ramp",
        "label": "receiveProcessor",
        "offset": 0,
        "slot": "1",
        "type": "t_contract(IReceiveProcessor)2137"
      },
      {
        "astId": 408,
        "contract": "contracts/Ramp.sol:Ramp",
        "label": "registrationProcessor",
        "offset": 0,
        "slot": "2",
        "type": "t_contract(IRegistrationProcessor)2167"
      },
      {
        "astId": 411,
        "contract": "contracts/Ramp.sol:Ramp",
        "label": "sendProcessor",
        "offset": 0,
        "slot": "3",
        "type": "t_contract(ISendProcessor)2203"
      },
      {
        "astId": 413,
        "contract": "contracts/Ramp.sol:Ramp",
        "label": "isInitialized",
        "offset": 20,
        "slot": "3",
        "type": "t_bool"
      },
      {
        "astId": 418,
        "contract": "contracts/Ramp.sol:Ramp",
        "label": "userDenylist",
        "offset": 0,
        "slot": "4",
        "type": "t_mapping(t_bytes32,t_struct(DenyList)387_storage)"
      },
      {
        "astId": 423,
        "contract": "contracts/Ramp.sol:Ramp",
        "label": "accounts",
        "offset": 0,
        "slot": "5",
        "type": "t_mapping(t_address,t_struct(AccountInfo)336_storage)"
      },
      {
        "astId": 427,
        "contract": "contracts/Ramp.sol:Ramp",
        "label": "venmoIdIntent",
        "offset": 0,
        "slot": "6",
        "type": "t_mapping(t_bytes32,t_bytes32)"
      },
      {
        "astId": 432,
        "contract": "contracts/Ramp.sol:Ramp",
        "label": "deposits",
        "offset": 0,
        "slot": "7",
        "type": "t_mapping(t_uint256,t_struct(Deposit)354_storage)"
      },
      {
        "astId": 437,
        "contract": "contracts/Ramp.sol:Ramp",
        "label": "intents",
        "offset": 0,
        "slot": "8",
        "type": "t_mapping(t_bytes32,t_struct(Intent)373_storage)"
      },
      {
        "astId": 439,
        "contract": "contracts/Ramp.sol:Ramp",
        "label": "minDepositAmount",
        "offset": 0,
        "slot": "9",
        "type": "t_uint256"
      },
      {
        "astId": 441,
        "contract": "contracts/Ramp.sol:Ramp",
        "label": "depositCounter",
        "offset": 0,
        "slot": "10",
        "type": "t_uint256"
      }
    ],
    "types": {
      "t_address": {
        "encoding": "inplace",
        "label": "address",
        "numberOfBytes": "20"
      },
      "t_array(t_bytes32)dyn_storage": {
        "base": "t_bytes32",
        "encoding": "dynamic_array",
        "label": "bytes32[]",
        "numberOfBytes": "32"
      },
      "t_array(t_uint256)3_storage": {
        "base": "t_uint256",
        "encoding": "inplace",
        "label": "uint256[3]",
        "numberOfBytes": "96"
      },
      "t_array(t_uint256)dyn_storage": {
        "base": "t_uint256",
        "encoding": "dynamic_array",
        "label": "uint256[]",
        "numberOfBytes": "32"
      },
      "t_bool": {
        "encoding": "inplace",
        "label": "bool",
        "numberOfBytes": "1"
      },
      "t_bytes32": {
        "encoding": "inplace",
        "label": "bytes32",
        "numberOfBytes": "32"
      },
      "t_contract(IReceiveProcessor)2137": {
        "encoding": "inplace",
        "label": "contract IReceiveProcessor",
        "numberOfBytes": "20"
      },
      "t_contract(IRegistrationProcessor)2167": {
        "encoding": "inplace",
        "label": "contract IRegistrationProcessor",
        "numberOfBytes": "20"
      },
      "t_contract(ISendProcessor)2203": {
        "encoding": "inplace",
        "label": "contract ISendProcessor",
        "numberOfBytes": "20"
      },
      "t_mapping(t_address,t_struct(AccountInfo)336_storage)": {
        "encoding": "mapping",
        "key": "t_address",
        "label": "mapping(address => struct Ramp.AccountInfo)",
        "numberOfBytes": "32",
        "value": "t_struct(AccountInfo)336_storage"
      },
      "t_mapping(t_bytes32,t_bool)": {
        "encoding": "mapping",
        "key": "t_bytes32",
        "label": "mapping(bytes32 => bool)",
        "numberOfBytes": "32",
        "value": "t_bool"
      },
      "t_mapping(t_bytes32,t_bytes32)": {
        "encoding": "mapping",
        "key": "t_bytes32",
        "label": "mapping(bytes32 => bytes32)",
        "numberOfBytes": "32",
        "value": "t_bytes32"
      },
      "t_mapping(t_bytes32,t_struct(DenyList)387_storage)": {
        "encoding": "mapping",
        "key": "t_bytes32",
        "label": "mapping(bytes32 => struct Ramp.DenyList)",
        "numberOfBytes": "32",
        "value": "t_struct(DenyList)387_storage"
      },
      "t_mapping(t_bytes32,t_struct(Intent)373_storage)": {
        "encoding": "mapping",
        "key": "t_bytes32",
        "label": "mapping(bytes32 => struct Ramp.Intent)",
        "numberOfBytes": "32",
        "value": "t_struct(Intent)373_storage"
      },
      "t_mapping(t_uint256,t_struct(Deposit)354_storage)": {
        "encoding": "mapping",
        "key": "t_uint256",
        "label": "mapping(uint256 => struct Ramp.Deposit)",
        "numberOfBytes": "32",
        "value": "t_struct(Deposit)354_storage"
      },
      "t_struct(AccountInfo)336_storage": {
        "encoding": "inplace",
        "label": "struct Ramp.AccountInfo",
        "members": [
          {
            "astId": 332,
            "contract": "contracts/Ramp.sol:Ramp",
            "label": "venmoIdHash",
            "offset": 0,
            "slot": "0",
            "type": "t_bytes32"
          },
          {
            "astId": 335,
            "contract": "contracts/Ramp.sol:Ramp",
            "label": "deposits",
            "offset": 0,
            "slot": "1",
            "type": "t_array(t_uint256)dyn_storage"
          }
        ],
        "numberOfBytes": "64"
      },
      "t_struct(DenyList)387_storage": {
        "encoding": "inplace",
        "label": "struct Ramp.DenyList",
        "members": [
          {
            "astId": 382,
            "contract": "contracts/Ramp.sol:Ramp",
            "label": "deniedUsers",
            "offset": 0,
            "slot": "0",
            "type": "t_array(t_bytes32)dyn_storage"
          },
          {
            "astId": 386,
            "contract": "contracts/Ramp.sol:Ramp",
            "label": "isDenied",
            "offset": 0,
            "slot": "1",
            "type": "t_mapping(t_bytes32,t_bool)"
          }
        ],
        "numberOfBytes": "64"
      },
      "t_struct(Deposit)354_storage": {
        "encoding": "inplace",
        "label": "struct Ramp.Deposit",
        "members": [
          {
            "astId": 338,
            "contract": "contracts/Ramp.sol:Ramp",
            "label": "depositor",
            "offset": 0,
            "slot": "0",
            "type": "t_address"
          },
          {
            "astId": 342,
            "contract": "contracts/Ramp.sol:Ramp",
            "label": "packedVenmoId",
            "offset": 0,
            "slot": "1",
            "type": "t_array(t_uint256)3_storage"
          },
          {
            "astId": 344,
            "contract": "contracts/Ramp.sol:Ramp",
            "label": "depositAmount",
            "offset": 0,
            "slot": "4",
            "type": "t_uint256"
          },
          {
            "astId": 346,
            "contract": "contracts/Ramp.sol:Ramp",
            "label": "remainingDeposits",
            "offset": 0,
            "slot": "5",
            "type": "t_uint256"
          },
          {
            "astId": 348,
            "contract": "contracts/Ramp.sol:Ramp",
            "label": "outstandingIntentAmount",
            "offset": 0,
            "slot": "6",
            "type": "t_uint256"
          },
          {
            "astId": 350,
            "contract": "contracts/Ramp.sol:Ramp",
            "label": "conversionRate",
            "offset": 0,
            "slot": "7",
            "type": "t_uint256"
          },
          {
            "astId": 353,
            "contract": "contracts/Ramp.sol:Ramp",
            "label": "intentHashes",
            "offset": 0,
            "slot": "8",
            "type": "t_array(t_bytes32)dyn_storage"
          }
        ],
        "numberOfBytes": "288"
      },
      "t_struct(Intent)373_storage": {
        "encoding": "inplace",
        "label": "struct Ramp.Intent",
        "members": [
          {
            "astId": 364,
            "contract": "contracts/Ramp.sol:Ramp",
            "label": "onRamper",
            "offset": 0,
            "slot": "0",
            "type": "t_address"
          },
          {
            "astId": 366,
            "contract": "contracts/Ramp.sol:Ramp",
            "label": "to",
            "offset": 0,
            "slot": "1",
            "type": "t_address"
          },
          {
            "astId": 368,
            "contract": "contracts/Ramp.sol:Ramp",
            "label": "deposit",
            "offset": 0,
            "slot": "2",
            "type": "t_uint256"
          },
          {
            "astId": 370,
            "contract": "contracts/Ramp.sol:Ramp",
            "label": "amount",
            "offset": 0,
            "slot": "3",
            "type": "t_uint256"
          },
          {
            "astId": 372,
            "contract": "contracts/Ramp.sol:Ramp",
            "label": "intentTimestamp",
            "offset": 0,
            "slot": "4",
            "type": "t_uint256"
          }
        ],
        "numberOfBytes": "160"
      },
      "t_uint256": {
        "encoding": "inplace",
        "label": "uint256",
        "numberOfBytes": "32"
      }
    }
  }
}