{
  "address": "0x75422735DD94dfD04b7ef5D7044Aba0ce4E3a7A6",
  "abi": [
    {
      "inputs": [
        {
          "internalType": "address",
          "name": "_owner",
          "type": "address"
        },
        {
          "internalType": "contract IERC20",
          "name": "_usdc",
          "type": "address"
        },
        {
          "internalType": "contract IPoseidon",
          "name": "_poseidon",
          "type": "address"
        },
        {
          "internalType": "uint256",
          "name": "_minDepositAmount",
          "type": "uint256"
        },
        {
          "internalType": "uint256",
          "name": "_convenienceRewardTimePeriod",
          "type": "uint256"
        }
      ],
      "stateMutability": "nonpayable",
      "type": "constructor"
    },
    {
      "anonymous": false,
      "inputs": [
        {
          "indexed": true,
          "internalType": "address",
          "name": "accountOwner",
          "type": "address"
        },
        {
          "indexed": true,
          "internalType": "bytes32",
          "name": "venmoIdHash",
          "type": "bytes32"
        }
      ],
      "name": "AccountRegistered",
      "type": "event"
    },
    {
      "anonymous": false,
      "inputs": [
        {
          "indexed": false,
          "internalType": "uint256",
          "name": "convenienceRewardTimePeriod",
          "type": "uint256"
        }
      ],
      "name": "ConvenienceRewardTimePeriodSet",
      "type": "event"
    },
    {
      "anonymous": false,
      "inputs": [
        {
          "indexed": false,
          "internalType": "uint256",
          "name": "depositId",
          "type": "uint256"
        },
        {
          "indexed": false,
          "internalType": "address",
          "name": "depositor",
          "type": "address"
        }
      ],
      "name": "DepositClosed",
      "type": "event"
    },
    {
      "anonymous": false,
      "inputs": [
        {
          "indexed": true,
          "internalType": "uint256",
          "name": "depositId",
          "type": "uint256"
        },
        {
          "indexed": true,
          "internalType": "bytes32",
          "name": "venmoId",
          "type": "bytes32"
        },
        {
          "indexed": false,
          "internalType": "uint256",
          "name": "amount",
          "type": "uint256"
        },
        {
          "indexed": false,
          "internalType": "uint256",
          "name": "conversionRate",
          "type": "uint256"
        },
        {
          "indexed": false,
          "internalType": "uint256",
          "name": "convenienceFee",
          "type": "uint256"
        }
      ],
      "name": "DepositReceived",
      "type": "event"
    },
    {
      "anonymous": false,
      "inputs": [
        {
          "indexed": true,
          "internalType": "uint256",
          "name": "depositId",
          "type": "uint256"
        },
        {
          "indexed": true,
          "internalType": "address",
          "name": "depositor",
          "type": "address"
        },
        {
          "indexed": false,
          "internalType": "uint256",
          "name": "amount",
          "type": "uint256"
        }
      ],
      "name": "DepositWithdrawn",
      "type": "event"
    },
    {
      "anonymous": false,
      "inputs": [
        {
          "indexed": true,
          "internalType": "bytes32",
          "name": "intentHash",
          "type": "bytes32"
        },
        {
          "indexed": true,
          "internalType": "uint256",
          "name": "depositId",
          "type": "uint256"
        },
        {
          "indexed": true,
          "internalType": "address",
          "name": "onRamper",
          "type": "address"
        },
        {
          "indexed": false,
          "internalType": "address",
          "name": "to",
          "type": "address"
        },
        {
          "indexed": false,
          "internalType": "uint256",
          "name": "amount",
          "type": "uint256"
        },
        {
          "indexed": false,
          "internalType": "uint256",
          "name": "convenienceFee",
          "type": "uint256"
        }
      ],
      "name": "IntentFulfilled",
      "type": "event"
    },
    {
      "anonymous": false,
      "inputs": [
        {
          "indexed": true,
          "internalType": "bytes32",
          "name": "intentHash",
          "type": "bytes32"
        },
        {
          "indexed": true,
          "internalType": "uint256",
          "name": "depositId",
          "type": "uint256"
        }
      ],
      "name": "IntentPruned",
      "type": "event"
    },
    {
      "anonymous": false,
      "inputs": [
        {
          "indexed": true,
          "internalType": "bytes32",
          "name": "intentHash",
          "type": "bytes32"
        },
        {
          "indexed": true,
          "internalType": "uint256",
          "name": "depositId",
          "type": "uint256"
        },
        {
          "indexed": true,
          "internalType": "bytes32",
          "name": "venmoId",
          "type": "bytes32"
        },
        {
          "indexed": false,
          "internalType": "address",
          "name": "to",
          "type": "address"
        },
        {
          "indexed": false,
          "internalType": "uint256",
          "name": "amount",
          "type": "uint256"
        },
        {
          "indexed": false,
          "internalType": "uint256",
          "name": "timestamp",
          "type": "uint256"
        }
      ],
      "name": "IntentSignaled",
      "type": "event"
    },
    {
      "anonymous": false,
      "inputs": [
        {
          "indexed": false,
          "internalType": "uint256",
          "name": "minDepositAmount",
          "type": "uint256"
        }
      ],
      "name": "MinDepositAmountSet",
      "type": "event"
    },
    {
      "anonymous": false,
      "inputs": [
        {
          "indexed": false,
          "internalType": "address",
          "name": "receiveProcessor",
          "type": "address"
        }
      ],
      "name": "NewReceiveProcessorSet",
      "type": "event"
    },
    {
      "anonymous": false,
      "inputs": [
        {
          "indexed": false,
          "internalType": "address",
          "name": "registrationProcessor",
          "type": "address"
        }
      ],
      "name": "NewRegistrationProcessorSet",
      "type": "event"
    },
    {
      "anonymous": false,
      "inputs": [
        {
          "indexed": false,
          "internalType": "address",
          "name": "sendProcessor",
          "type": "address"
        }
      ],
      "name": "NewSendProcessorSet",
      "type": "event"
    },
    {
      "anonymous": false,
      "inputs": [
        {
          "indexed": true,
          "internalType": "address",
          "name": "previousOwner",
          "type": "address"
        },
        {
          "indexed": true,
          "internalType": "address",
          "name": "newOwner",
          "type": "address"
        }
      ],
      "name": "OwnershipTransferred",
      "type": "event"
    },
    {
      "anonymous": false,
      "inputs": [
        {
          "indexed": false,
          "internalType": "bytes32",
          "name": "listOwner",
          "type": "bytes32"
        },
        {
          "indexed": false,
          "internalType": "bytes32",
          "name": "deniedUser",
          "type": "bytes32"
        }
      ],
      "name": "UserAddedToDenylist",
      "type": "event"
    },
    {
      "anonymous": false,
      "inputs": [
        {
          "indexed": false,
          "internalType": "bytes32",
          "name": "listOwner",
          "type": "bytes32"
        },
        {
          "indexed": false,
          "internalType": "bytes32",
          "name": "approvedUser",
          "type": "bytes32"
        }
      ],
      "name": "UserRemovedFromDenylist",
      "type": "event"
    },
    {
      "inputs": [
        {
          "internalType": "bytes32",
          "name": "_deniedUser",
          "type": "bytes32"
        }
      ],
      "name": "addAccountToDenylist",
      "outputs": [],
      "stateMutability": "nonpayable",
      "type": "function"
    },
    {
      "inputs": [
        {
          "internalType": "bytes32",
          "name": "_intentHash",
          "type": "bytes32"
        }
      ],
      "name": "cancelIntent",
      "outputs": [],
      "stateMutability": "nonpayable",
      "type": "function"
    },
    {
      "inputs": [],
      "name": "convenienceRewardTimePeriod",
      "outputs": [
        {
          "internalType": "uint256",
          "name": "",
          "type": "uint256"
        }
      ],
      "stateMutability": "view",
      "type": "function"
    },
    {
      "inputs": [],
      "name": "depositCounter",
      "outputs": [
        {
          "internalType": "uint256",
          "name": "",
          "type": "uint256"
        }
      ],
      "stateMutability": "view",
      "type": "function"
    },
    {
      "inputs": [
        {
          "internalType": "uint256",
          "name": "",
          "type": "uint256"
        }
      ],
      "name": "deposits",
      "outputs": [
        {
          "internalType": "address",
          "name": "depositor",
          "type": "address"
        },
        {
          "internalType": "uint256",
          "name": "depositAmount",
          "type": "uint256"
        },
        {
          "internalType": "uint256",
          "name": "remainingDeposits",
          "type": "uint256"
        },
        {
          "internalType": "uint256",
          "name": "outstandingIntentAmount",
          "type": "uint256"
        },
        {
          "internalType": "uint256",
          "name": "conversionRate",
          "type": "uint256"
        },
        {
          "internalType": "uint256",
          "name": "convenienceFee",
          "type": "uint256"
        }
      ],
      "stateMutability": "view",
      "type": "function"
    },
    {
      "inputs": [
        {
          "internalType": "address",
          "name": "_account",
          "type": "address"
        }
      ],
      "name": "getAccountDeposits",
      "outputs": [
        {
          "components": [
            {
              "internalType": "uint256",
              "name": "depositId",
              "type": "uint256"
            },
            {
              "components": [
                {
                  "internalType": "address",
                  "name": "depositor",
                  "type": "address"
                },
                {
                  "internalType": "uint256[3]",
                  "name": "packedVenmoId",
                  "type": "uint256[3]"
                },
                {
                  "internalType": "uint256",
                  "name": "depositAmount",
                  "type": "uint256"
                },
                {
                  "internalType": "uint256",
                  "name": "remainingDeposits",
                  "type": "uint256"
                },
                {
                  "internalType": "uint256",
                  "name": "outstandingIntentAmount",
                  "type": "uint256"
                },
                {
                  "internalType": "uint256",
                  "name": "conversionRate",
                  "type": "uint256"
                },
                {
                  "internalType": "uint256",
                  "name": "convenienceFee",
                  "type": "uint256"
                },
                {
                  "internalType": "bytes32[]",
                  "name": "intentHashes",
                  "type": "bytes32[]"
                }
              ],
              "internalType": "struct Ramp.Deposit",
              "name": "deposit",
              "type": "tuple"
            },
            {
              "internalType": "uint256",
              "name": "availableLiquidity",
              "type": "uint256"
            }
          ],
          "internalType": "struct Ramp.DepositWithAvailableLiquidity[]",
          "name": "accountDeposits",
          "type": "tuple[]"
        }
      ],
      "stateMutability": "view",
      "type": "function"
    },
    {
      "inputs": [
        {
          "internalType": "address",
          "name": "_account",
          "type": "address"
        }
      ],
      "name": "getAccountInfo",
      "outputs": [
        {
          "components": [
            {
              "internalType": "bytes32",
              "name": "venmoIdHash",
              "type": "bytes32"
            },
            {
              "internalType": "uint256[]",
              "name": "deposits",
              "type": "uint256[]"
            }
          ],
          "internalType": "struct Ramp.AccountInfo",
          "name": "",
          "type": "tuple"
        }
      ],
      "stateMutability": "view",
      "type": "function"
    },
    {
      "inputs": [
        {
          "internalType": "address",
          "name": "_account",
          "type": "address"
        }
      ],
      "name": "getDeniedUsers",
      "outputs": [
        {
          "internalType": "bytes32[]",
          "name": "",
          "type": "bytes32[]"
        }
      ],
      "stateMutability": "view",
      "type": "function"
    },
    {
      "inputs": [
        {
          "internalType": "uint256",
          "name": "_depositId",
          "type": "uint256"
        }
      ],
      "name": "getDeposit",
      "outputs": [
        {
          "components": [
            {
              "internalType": "address",
              "name": "depositor",
              "type": "address"
            },
            {
              "internalType": "uint256[3]",
              "name": "packedVenmoId",
              "type": "uint256[3]"
            },
            {
              "internalType": "uint256",
              "name": "depositAmount",
              "type": "uint256"
            },
            {
              "internalType": "uint256",
              "name": "remainingDeposits",
              "type": "uint256"
            },
            {
              "internalType": "uint256",
              "name": "outstandingIntentAmount",
              "type": "uint256"
            },
            {
              "internalType": "uint256",
              "name": "conversionRate",
              "type": "uint256"
            },
            {
              "internalType": "uint256",
              "name": "convenienceFee",
              "type": "uint256"
            },
            {
              "internalType": "bytes32[]",
              "name": "intentHashes",
              "type": "bytes32[]"
            }
          ],
          "internalType": "struct Ramp.Deposit",
          "name": "",
          "type": "tuple"
        }
      ],
      "stateMutability": "view",
      "type": "function"
    },
    {
      "inputs": [
        {
          "internalType": "uint256[]",
          "name": "_depositIds",
          "type": "uint256[]"
        }
      ],
      "name": "getDepositFromIds",
      "outputs": [
        {
          "components": [
            {
              "internalType": "uint256",
              "name": "depositId",
              "type": "uint256"
            },
            {
              "components": [
                {
                  "internalType": "address",
                  "name": "depositor",
                  "type": "address"
                },
                {
                  "internalType": "uint256[3]",
                  "name": "packedVenmoId",
                  "type": "uint256[3]"
                },
                {
                  "internalType": "uint256",
                  "name": "depositAmount",
                  "type": "uint256"
                },
                {
                  "internalType": "uint256",
                  "name": "remainingDeposits",
                  "type": "uint256"
                },
                {
                  "internalType": "uint256",
                  "name": "outstandingIntentAmount",
                  "type": "uint256"
                },
                {
                  "internalType": "uint256",
                  "name": "conversionRate",
                  "type": "uint256"
                },
                {
                  "internalType": "uint256",
                  "name": "convenienceFee",
                  "type": "uint256"
                },
                {
                  "internalType": "bytes32[]",
                  "name": "intentHashes",
                  "type": "bytes32[]"
                }
              ],
              "internalType": "struct Ramp.Deposit",
              "name": "deposit",
              "type": "tuple"
            },
            {
              "internalType": "uint256",
              "name": "availableLiquidity",
              "type": "uint256"
            }
          ],
          "internalType": "struct Ramp.DepositWithAvailableLiquidity[]",
          "name": "depositArray",
          "type": "tuple[]"
        }
      ],
      "stateMutability": "view",
      "type": "function"
    },
    {
      "inputs": [
        {
          "internalType": "bytes32[]",
          "name": "_intentHashes",
          "type": "bytes32[]"
        }
      ],
      "name": "getIntentsWithOnRamperId",
      "outputs": [
        {
          "components": [
            {
              "components": [
                {
                  "internalType": "address",
                  "name": "onRamper",
                  "type": "address"
                },
                {
                  "internalType": "address",
                  "name": "to",
                  "type": "address"
                },
                {
                  "internalType": "uint256",
                  "name": "deposit",
                  "type": "uint256"
                },
                {
                  "internalType": "uint256",
                  "name": "amount",
                  "type": "uint256"
                },
                {
                  "internalType": "uint256",
                  "name": "intentTimestamp",
                  "type": "uint256"
                }
              ],
              "internalType": "struct Ramp.Intent",
              "name": "intent",
              "type": "tuple"
            },
            {
              "internalType": "bytes32",
              "name": "onRamperIdHash",
              "type": "bytes32"
            }
          ],
          "internalType": "struct Ramp.IntentWithOnRamperId[]",
          "name": "",
          "type": "tuple[]"
        }
      ],
      "stateMutability": "view",
      "type": "function"
    },
    {
      "inputs": [
        {
          "internalType": "contract IReceiveProcessor",
          "name": "_receiveProcessor",
          "type": "address"
        },
        {
          "internalType": "contract IRegistrationProcessor",
          "name": "_registrationProcessor",
          "type": "address"
        },
        {
          "internalType": "contract ISendProcessor",
          "name": "_sendProcessor",
          "type": "address"
        }
      ],
      "name": "initialize",
      "outputs": [],
      "stateMutability": "nonpayable",
      "type": "function"
    },
    {
      "inputs": [
        {
          "internalType": "bytes32",
          "name": "",
          "type": "bytes32"
        }
      ],
      "name": "intents",
      "outputs": [
        {
          "internalType": "address",
          "name": "onRamper",
          "type": "address"
        },
        {
          "internalType": "address",
          "name": "to",
          "type": "address"
        },
        {
          "internalType": "uint256",
          "name": "deposit",
          "type": "uint256"
        },
        {
          "internalType": "uint256",
          "name": "amount",
          "type": "uint256"
        },
        {
          "internalType": "uint256",
          "name": "intentTimestamp",
          "type": "uint256"
        }
      ],
      "stateMutability": "view",
      "type": "function"
    },
    {
      "inputs": [
        {
          "internalType": "address",
          "name": "_account",
          "type": "address"
        },
        {
          "internalType": "bytes32",
          "name": "_deniedUser",
          "type": "bytes32"
        }
      ],
      "name": "isDeniedUser",
      "outputs": [
        {
          "internalType": "bool",
          "name": "",
          "type": "bool"
        }
      ],
      "stateMutability": "view",
      "type": "function"
    },
    {
      "inputs": [],
      "name": "minDepositAmount",
      "outputs": [
        {
          "internalType": "uint256",
          "name": "",
          "type": "uint256"
        }
      ],
      "stateMutability": "view",
      "type": "function"
    },
    {
      "inputs": [
        {
          "internalType": "uint256[3]",
          "name": "_packedVenmoId",
          "type": "uint256[3]"
        },
        {
          "internalType": "uint256",
          "name": "_depositAmount",
          "type": "uint256"
        },
        {
          "internalType": "uint256",
          "name": "_receiveAmount",
          "type": "uint256"
        },
        {
          "internalType": "uint256",
          "name": "_convenienceFee",
          "type": "uint256"
        }
      ],
      "name": "offRamp",
      "outputs": [],
      "stateMutability": "nonpayable",
      "type": "function"
    },
    {
      "inputs": [
        {
          "internalType": "uint256[2]",
          "name": "_a",
          "type": "uint256[2]"
        },
        {
          "internalType": "uint256[2][2]",
          "name": "_b",
          "type": "uint256[2][2]"
        },
        {
          "internalType": "uint256[2]",
          "name": "_c",
          "type": "uint256[2]"
        },
        {
          "internalType": "uint256[8]",
          "name": "_signals",
          "type": "uint256[8]"
        }
      ],
      "name": "onRamp",
      "outputs": [],
      "stateMutability": "nonpayable",
      "type": "function"
    },
    {
      "inputs": [
        {
          "internalType": "uint256[2]",
          "name": "_a",
          "type": "uint256[2]"
        },
        {
          "internalType": "uint256[2][2]",
          "name": "_b",
          "type": "uint256[2][2]"
        },
        {
          "internalType": "uint256[2]",
          "name": "_c",
          "type": "uint256[2]"
        },
        {
          "internalType": "uint256[9]",
          "name": "_signals",
          "type": "uint256[9]"
        }
      ],
      "name": "onRampWithConvenience",
      "outputs": [],
      "stateMutability": "nonpayable",
      "type": "function"
    },
    {
      "inputs": [],
      "name": "owner",
      "outputs": [
        {
          "internalType": "address",
          "name": "",
          "type": "address"
        }
      ],
      "stateMutability": "view",
      "type": "function"
    },
    {
      "inputs": [],
      "name": "poseidon",
      "outputs": [
        {
          "internalType": "contract IPoseidon",
          "name": "",
          "type": "address"
        }
      ],
      "stateMutability": "view",
      "type": "function"
    },
    {
      "inputs": [],
      "name": "receiveProcessor",
      "outputs": [
        {
          "internalType": "contract IReceiveProcessor",
          "name": "",
          "type": "address"
        }
      ],
      "stateMutability": "view",
      "type": "function"
    },
    {
      "inputs": [
        {
          "internalType": "uint256[2]",
          "name": "_a",
          "type": "uint256[2]"
        },
        {
          "internalType": "uint256[2][2]",
          "name": "_b",
          "type": "uint256[2][2]"
        },
        {
          "internalType": "uint256[2]",
          "name": "_c",
          "type": "uint256[2]"
        },
        {
          "internalType": "uint256[5]",
          "name": "_signals",
          "type": "uint256[5]"
        }
      ],
      "name": "register",
      "outputs": [],
      "stateMutability": "nonpayable",
      "type": "function"
    },
    {
      "inputs": [],
      "name": "registrationProcessor",
      "outputs": [
        {
          "internalType": "contract IRegistrationProcessor",
          "name": "",
          "type": "address"
        }
      ],
      "stateMutability": "view",
      "type": "function"
    },
    {
      "inputs": [
        {
          "internalType": "bytes32",
          "name": "_approvedUser",
          "type": "bytes32"
        }
      ],
      "name": "removeAccountFromDenylist",
      "outputs": [],
      "stateMutability": "nonpayable",
      "type": "function"
    },
    {
      "inputs": [],
      "name": "renounceOwnership",
      "outputs": [],
      "stateMutability": "nonpayable",
      "type": "function"
    },
    {
      "inputs": [],
      "name": "sendProcessor",
      "outputs": [
        {
          "internalType": "contract ISendProcessor",
          "name": "",
          "type": "address"
        }
      ],
      "stateMutability": "view",
      "type": "function"
    },
    {
      "inputs": [
        {
          "internalType": "uint256",
          "name": "_convenienceRewardTimePeriod",
          "type": "uint256"
        }
      ],
      "name": "setConvenienceRewardTimePeriod",
      "outputs": [],
      "stateMutability": "nonpayable",
      "type": "function"
    },
    {
      "inputs": [
        {
          "internalType": "uint256",
          "name": "_minDepositAmount",
          "type": "uint256"
        }
      ],
      "name": "setMinDepositAmount",
      "outputs": [],
      "stateMutability": "nonpayable",
      "type": "function"
    },
    {
      "inputs": [
        {
          "internalType": "contract IReceiveProcessor",
          "name": "_receiveProcessor",
          "type": "address"
        }
      ],
      "name": "setReceiveProcessor",
      "outputs": [],
      "stateMutability": "nonpayable",
      "type": "function"
    },
    {
      "inputs": [
        {
          "internalType": "contract IRegistrationProcessor",
          "name": "_registrationProcessor",
          "type": "address"
        }
      ],
      "name": "setRegistrationProcessor",
      "outputs": [],
      "stateMutability": "nonpayable",
      "type": "function"
    },
    {
      "inputs": [
        {
          "internalType": "contract ISendProcessor",
          "name": "_sendProcessor",
          "type": "address"
        }
      ],
      "name": "setSendProcessor",
      "outputs": [],
      "stateMutability": "nonpayable",
      "type": "function"
    },
    {
      "inputs": [
        {
          "internalType": "uint256",
          "name": "_depositId",
          "type": "uint256"
        },
        {
          "internalType": "uint256",
          "name": "_amount",
          "type": "uint256"
        },
        {
          "internalType": "address",
          "name": "_to",
          "type": "address"
        }
      ],
      "name": "signalIntent",
      "outputs": [],
      "stateMutability": "nonpayable",
      "type": "function"
    },
    {
      "inputs": [
        {
          "internalType": "address",
          "name": "newOwner",
          "type": "address"
        }
      ],
      "name": "transferOwnership",
      "outputs": [],
      "stateMutability": "nonpayable",
      "type": "function"
    },
    {
      "inputs": [],
      "name": "usdc",
      "outputs": [
        {
          "internalType": "contract IERC20",
          "name": "",
          "type": "address"
        }
      ],
      "stateMutability": "view",
      "type": "function"
    },
    {
      "inputs": [
        {
          "internalType": "bytes32",
          "name": "",
          "type": "bytes32"
        }
      ],
      "name": "venmoIdIntent",
      "outputs": [
        {
          "internalType": "bytes32",
          "name": "",
          "type": "bytes32"
        }
      ],
      "stateMutability": "view",
      "type": "function"
    },
    {
      "inputs": [
        {
          "internalType": "uint256[]",
          "name": "_depositIds",
          "type": "uint256[]"
        }
      ],
      "name": "withdrawDeposit",
      "outputs": [],
      "stateMutability": "nonpayable",
      "type": "function"
    }
  ],
  "transactionHash": "0x26853059b0bcd0a81dcee55fe5ab4b8c6e39341049591fa38d55d1900ef4daea",
  "args": [
    "0x4e39cF8578698131c57404e8bc3eEC820EDa51d8",
    "0xbba5c9bd54a4293f4261b38e5ad41820ec41ed86",
    "0xd8850EC08960716725B51941348e8b3F1DC47C38",
    "20000000",
    "60"
  ],
  "numDeployments": 1,
  "solcInputHash": "0f6f733793778c923a11e6741a881b15",
  "bytecode": "0x60c06040523480156200001157600080fd5b5060405162003d3838038062003d388339810160408190526200003491620001b9565b6200003f3362000072565b6001600160a01b03808516608052831660a052600a82905560098190556200006785620000c2565b50505050506200021e565b600080546001600160a01b038381166001600160a01b0319831681178455604051919092169283917f8be0079c531659141344cd1fd0a4f28419497f9722a3daafe3b4186f6b6457e09190a35050565b620000cc62000145565b6001600160a01b038116620001375760405162461bcd60e51b815260206004820152602660248201527f4f776e61626c653a206e6577206f776e657220697320746865207a65726f206160448201526564647265737360d01b60648201526084015b60405180910390fd5b620001428162000072565b50565b6000546001600160a01b03163314620001a15760405162461bcd60e51b815260206004820181905260248201527f4f776e61626c653a2063616c6c6572206973206e6f7420746865206f776e657260448201526064016200012e565b565b6001600160a01b03811681146200014257600080fd5b600080600080600060a08688031215620001d257600080fd5b8551620001df81620001a3565b6020870151909550620001f281620001a3565b60408701519094506200020581620001a3565b6060870151608090970151959894975095949392505050565b60805160a051613aca6200026e6000396000818161053c0152611b0901526000818161028701528181610ca7015281816111da0152818161160a015281816116d80152611d6f0152613aca6000f3fe608060405234801561001057600080fd5b506004361061021c5760003560e01c806389433ad911610125578063cfe871ec116100ad578063ecd618f01161007c578063ecd618f0146105b3578063ed1692b8146105d3578063eea1d197146105e6578063f2fde38b146105f9578063fbf15b1f1461060c57600080fd5b8063cfe871ec14610571578063d55f960d14610584578063e215ad5914610597578063ecb3dc88146105aa57600080fd5b80639f9fb968116100f45780639f9fb96814610480578063b02c43d0146104a0578063c0c53b8b14610524578063c62b919e14610537578063ce523ca31461055e57600080fd5b806389433ad9146103cd5780638da5cb5b146103e05780639021578a146103f15780639b357b5a1461046d57600080fd5b80635081d952116101a85780637113476211610177578063711347621461036c578063715018a61461037f57806371a28f6914610387578063774f27f81461039a5780637b510fe8146103ad57600080fd5b80635081d95214610310578063645006ca146103305780636539299a146103395780636c39b50e1461035957600080fd5b80633adba28a116101ef5780633adba28a1461026f5780633e413bee146102825780633fd7a3e7146102c65780634595bba0146102d95780634e9d1174146102f957600080fd5b8063133de6cb14610221578063148172da146102365780632a80cda3146102495780632ff44f671461025c575b600080fd5b61023461022f366004612fb9565b610663565b005b610234610244366004612fdd565b6106c0565b610234610257366004612fdd565b6107be565b61023461026a366004612fdd565b61084b565b61023461027d366004612ff6565b6108ee565b6102a97f000000000000000000000000000000000000000000000000000000000000000081565b6040516001600160a01b0390911681526020015b60405180910390f35b6102346102d436600461313e565b610c39565b6102ec6102e7366004612fb9565b610d9e565b6040516102bd91906131f5565b61030260095481565b6040519081526020016102bd565b61032361031e366004612fb9565b610e14565b6040516102bd9190613307565b610302600a5481565b610302610347366004612fdd565b60066020526000908152604090205481565b6001546102a9906001600160a01b031681565b61023461037a366004613388565b61105c565b610234611254565b610323610395366004613388565b611268565b6102346103a8366004612fb9565b611448565b6103c06103bb366004612fb9565b61149e565b6040516102bd919061342e565b6102346103db366004613486565b611538565b6000546001600160a01b03166102a9565b61043a6103ff366004612fdd565b600860205260009081526040902080546001820154600283015460038401546004909401546001600160a01b03938416949390921692909185565b604080516001600160a01b039687168152959094166020860152928401919091526060830152608082015260a0016102bd565b61023461047b366004612fdd565b6117b9565b61049361048e366004612fdd565b611893565b6040516102bd919061353f565b6104ed6104ae366004612fdd565b60076020819052600091825260409091208054600482015460058301546006840154948401546008909401546001600160a01b03909316949193909286565b604080516001600160a01b0390971687526020870195909552938501929092526060840152608083015260a082015260c0016102bd565b610234610532366004613552565b61198a565b6102a97f000000000000000000000000000000000000000000000000000000000000000081565b61023461056c366004613592565b611a30565b61023461057f366004613607565b611aef565b610234610592366004612fdd565b611f28565b6002546102a9906001600160a01b031681565b610302600b5481565b6105c66105c1366004613698565b612079565b6040516102bd919061370d565b6102346105e1366004612fb9565b6121b2565b6003546102a9906001600160a01b031681565b610234610607366004612fb9565b612208565b61065361061a366004613791565b6001600160a01b039190911660009081526005602090815260408083205483526004825280832093835260019093019052205460ff1690565b60405190151581526020016102bd565b61066b612281565b600380546001600160a01b0319166001600160a01b0383169081179091556040519081527f6e7665a41605edc0d70f4b991d652755f380754eb092d81ef9ab93664778d59e906020015b60405180910390a150565b33600090815260056020908152604080832054808452600483528184208585526001019092529091205460ff161561073f5760405162461bcd60e51b815260206004820152601860248201527f5573657220616c7265616479206f6e2064656e796c697374000000000000000060448201526064015b60405180910390fd5b600081815260046020818152604080842086855260018181018452828620805460ff191682179055938352805493840181558452922001839055517f976c693d56f27ba17d902bda80c4fa0416b773fbf268bcb0ee71689234d769ee906107b29083908590918252602082015260400190565b60405180910390a15050565b6107c6612281565b806000036108165760405162461bcd60e51b815260206004820152601e60248201527f4d696e696d756d206465706f7369742063616e6e6f74206265207a65726f00006044820152606401610736565b600a8190556040518181527fbdde72a6d8d8b42770c9899945ccdce09d0c5c794d3326cdb2d2cca61b12a9fc906020016106b5565b610853612281565b806000036108b95760405162461bcd60e51b815260206004820152602d60248201527f436f6e76656e69656e6365207265776172642074696d6520706572696f64206360448201526c616e6e6f74206265207a65726f60981b6064820152608401610736565b60098190556040518181527fbb00abbd7e8033a8ce78bee30f093b08337e98934caf35381a1d6773bb84f456906020016106b5565b336000908152600560208181526040808420548785526007835281852080546001600160a01b03168652938352818520548086526004845282862082875260010190935293205460ff16156109855760405162461bcd60e51b815260206004820181905260248201527f4f6e72616d706572206f6e206465706f7369746f7227732064656e796c6973746044820152606401610736565b600085116109e45760405162461bcd60e51b815260206004820152602660248201527f5369676e616c656420616d6f756e74206d75737420626520677265617465722060448201526507468616e20360d41b6064820152608401610736565b60008381526006602052604090205415610a405760405162461bcd60e51b815260206004820152601860248201527f496e74656e74207374696c6c206f75747374616e64696e6700000000000000006044820152606401610736565b6000610a4c84886122db565b90508583600501541015610b0157600080610a6689612346565b9150915087818660050154610a7b91906137d3565b1015610ac05760405162461bcd60e51b81526020600482015260146024820152734e6f7420656e6f756768206c697175696469747960601b6044820152606401610736565b610aca85836124ef565b80856005016000828254610ade91906137d3565b9250508190555080856006016000828254610af991906137e6565b909155505050505b6040805160a0810182523381526001600160a01b0387811660208084019182528385018c8152606085018c81524260808701908152600089815260088552888120975188549088166001600160a01b031991821617895595516001890180549190981696169590951790955590516002860155516003850155915160049093019290925586825260069052908120829055600584018054889290610ba69084906137e6565b9250508190555085836006016000828254610bc191906137d3565b9091555050600983018054600181018255600091825260209182902001829055604080516001600160a01b038816815291820188905242908201528490889083907f1a1292e170a0f000ccf956afba79bee0f9ec1d81f3f901c1d4d11e1f336aae10906060015b60405180910390a450505050505050565b6000806000610c4a87878787612551565b925092509250610c5a828261273b565b8260600151826006016000828254610c7291906137e6565b90915550506040830151610c869083612815565b6020830151606084015160405163a9059cbb60e01b81526001600160a01b037f0000000000000000000000000000000000000000000000000000000000000000169263a9059cbb92610cee926004016001600160a01b03929092168252602082015260400190565b6020604051808303816000875af1158015610d0d573d6000803e3d6000fd5b505050506040513d601f19601f82011682018060405250810190610d3191906137f9565b5082600001516001600160a01b03168360400151827ffa03438194e61c243c6bb5349f1e1dc674431b86f119b5e3b2b327bc43446bce866020015187606001516000604051610c28939291906001600160a01b039390931683526020830191909152604082015260600190565b6001600160a01b03811660009081526005602090815260408083205483526004825291829020805483518184028101840190945280845260609392830182828015610e0857602002820191906000526020600020905b815481526020019060010190808311610df4575b50505050509050919050565b6001600160a01b0381166000908152600560209081526040808320600101805482518185028101850190935280835260609493830182828015610e7657602002820191906000526020600020905b815481526020019060010190808311610e62575b50505050509050805167ffffffffffffffff811115610e9757610e9761302f565b604051908082528060200260200182016040528015610ed057816020015b610ebd612dff565b815260200190600190039081610eb55790505b50915060005b8151811015611055576000828281518110610ef357610ef361381b565b602090810291909101810151600081815260078352604080822081516101008101835281546001600160a01b0316815282516060810190935293955091938301906001830160038282826020028201915b815481526020019060010190808311610f445750505050508152602001600482015481526020016005820154815260200160068201548152602001600782015481526020016008820154815260200160098201805480602002602001604051908101604052809291908181526020018280548015610fe157602002820191906000526020600020905b815481526020019060010190808311610fcd575b50505050508152505090506000610ff783612346565b915050604051806060016040528084815260200183815260200182846060015161102191906137d3565b8152508685815181106110365761103661381b565b60200260200101819052505050508061104e90613831565b9050610ed6565b5050919050565b6000805b82518110156111bd57600083828151811061107d5761107d61381b565b6020908102919091018101516000818152600790925260409091208054919250906001600160a01b031633146110f55760405162461bcd60e51b815260206004820152601c60248201527f53656e646572206d75737420626520746865206465706f7369746f72000000006044820152606401610736565b60008061110184612346565b9150915061110f83836124ef565b80836005015461111f91906137d3565b61112990876137d3565b95508083600601600082825461113f91906137e6565b9091555050825460058401546001600160a01b039091169085907fae1f357660ab777dcfd38c0ab6357834684ec26289ecfa07ec65dbf6c3c64312906111869085906137d3565b60405190815260200160405180910390a3600060058401556111a88484612815565b50505050806111b690613831565b9050611060565b5060405163a9059cbb60e01b8152336004820152602481018290527f00000000000000000000000000000000000000000000000000000000000000006001600160a01b03169063a9059cbb906044016020604051808303816000875af115801561122b573d6000803e3d6000fd5b505050506040513d601f19601f8201168201806040525081019061124f91906137f9565b505050565b61125c612281565b6112666000612910565b565b6060815167ffffffffffffffff8111156112845761128461302f565b6040519080825280602002602001820160405280156112bd57816020015b6112aa612dff565b8152602001906001900390816112a25790505b50905060005b82518110156114425760008382815181106112e0576112e061381b565b602090810291909101810151600081815260078352604080822081516101008101835281546001600160a01b0316815282516060810190935293955091938301906001830160038282826020028201915b81548152602001906001019080831161133157505050505081526020016004820154815260200160058201548152602001600682015481526020016007820154815260200160088201548152602001600982018054806020026020016040519081016040528092919081815260200182805480156113ce57602002820191906000526020600020905b8154815260200190600101908083116113ba575b505050505081525050905060006113e483612346565b915050604051806060016040528084815260200183815260200182846060015161140e91906137d3565b8152508585815181106114235761142361381b565b60200260200101819052505050508061143b90613831565b90506112c3565b50919050565b611450612281565b600180546001600160a01b0319166001600160a01b0383169081179091556040519081527f169d8a844bf192f95cd7f20dfed0b6e085f4c6da593d7a187b6e47b08592c395906020016106b5565b6040805180820190915260008152606060208201526001600160a01b03821660009081526005602090815260409182902082518084018452815481526001820180548551818602810186019096528086529194929385810193929083018282801561152857602002820191906000526020600020905b815481526020019060010190808311611514575b5050505050815250509050919050565b600080600061154987878787612960565b604080840151600090815260076020522080549396509194509250906001600160a01b031633146115bc5760405162461bcd60e51b815260206004820181905260248201527f53656e646572206d75737420626520746865206163636f756e74206f776e65726044820152606401610736565b6115c6818461273b565b83606001518160060160008282546115de91906137e6565b909155505060408401516115f29082612815565b600082611600576000611606565b81600801545b90507f00000000000000000000000000000000000000000000000000000000000000006001600160a01b031663a9059cbb866020015183886060015161164c91906137e6565b6040516001600160e01b031960e085901b1681526001600160a01b03909216600483015260248201526044016020604051808303816000875af1158015611697573d6000803e3d6000fd5b505050506040513d601f19601f820116820180604052508101906116bb91906137f9565b5060405163a9059cbb60e01b8152336004820152602481018290527f00000000000000000000000000000000000000000000000000000000000000006001600160a01b03169063a9059cbb906044016020604051808303816000875af1158015611729573d6000803e3d6000fd5b505050506040513d601f19601f8201168201806040525081019061174d91906137f9565b5084516040808701516020808901516060808b015185516001600160a01b0393841681529384015293820186905290931692909187917ffa03438194e61c243c6bb5349f1e1dc674431b86f119b5e3b2b327bc43446bce910160405180910390a4505050505050505050565b33600090815260056020908152604080832054808452600483528184208585526001019092529091205460ff166118295760405162461bcd60e51b8152602060048201526014602482015273155cd95c881b9bdd081bdb8819195b9e5b1a5cdd60621b6044820152606401610736565b6000818152600460208181526040808420868552600181018352908420805460ff19169055928490525261185d9083612ae0565b60408051828152602081018490527f8935205b1b382095d2d95efbb36f81a11a34c548d45af26adc1a02d2f2bb546f91016107b2565b61189b612e26565b60008281526007602090815260409182902082516101008101845281546001600160a01b031681528351606081019485905290939192840191600184019060039082845b8154815260200190600101908083116118df57505050505081526020016004820154815260200160058201548152602001600682015481526020016007820154815260200160088201548152602001600982018054806020026020016040519081016040528092919081815260200182805480156115285760200282019190600052602060002090815481526020019060010190808311611514575050505050815250509050919050565b611992612281565b600354600160a01b900460ff16156119e25760405162461bcd60e51b8152602060048201526013602482015272105b1c9958591e481a5b9a5d1a585b1a5e9959606a1b6044820152606401610736565b600180546001600160a01b039485166001600160a01b031991821617909155600280549385169390911692909217909155600380546001600160a81b0319169190921617600160a01b179055565b3360009081526005602052604090205415611a9d5760405162461bcd60e51b815260206004820152602760248201527f4163636f756e7420616c7265616479206173736f6369617465642077697468206044820152661d995b9b5bd25960ca1b6064820152608401610736565b6000611aab85858585612c09565b336000818152600560205260408082208490555192935083927f672144042732f7b1cdbf0772464ae545aedd7f41d38b8487dafd9085496a5d519190a35050505050565b6040516304b98e1d60e31b81526000906001600160a01b037f000000000000000000000000000000000000000000000000000000000000000016906325cc70e890611b3e90889060040161384a565b602060405180830381865afa158015611b5b573d6000803e3d6000fd5b505050506040513d601f19601f82011682018060405250810190611b7f9190613858565b3360009081526005602081905260409091206001015491925011611be55760405162461bcd60e51b815260206004820152601e60248201527f4d6178696d756d206465706f73697420616d6f756e74207265616368656400006044820152606401610736565b336000908152600560205260409020548114611c435760405162461bcd60e51b815260206004820181905260248201527f53656e646572206d75737420626520746865206163636f756e74206f776e65726044820152606401610736565b600a54841015611cb45760405162461bcd60e51b815260206004820152603660248201527f4465706f73697420616d6f756e74206d757374206265206772656174657220746044820152751a185b881b5a5b8819195c1bdcda5d08185b5bdd5b9d60521b6064820152608401610736565b60008311611d125760405162461bcd60e51b815260206004820152602560248201527f5265636569766520616d6f756e74206d75737420626520677265617465722074604482015264068616e20360dc1b6064820152608401610736565b600083611d27670de0b6b3a764000087613871565b611d31919061389e565b600b80549192506000919082611d4683613831565b909155506040516323b872dd60e01b8152336004820152306024820152604481018890529091507f00000000000000000000000000000000000000000000000000000000000000006001600160a01b0316906323b872dd906064016020604051808303816000875af1158015611dc0573d6000803e3d6000fd5b505050506040513d601f19601f82011682018060405250810190611de491906137f9565b50336000818152600560209081526040808320600190810180548083018255908552838520018690558151610100810183529485528483018c81528583018c9052606086018c90526080860185905260a0860188905260c086018a90528251858152808501845260e087015286855260079093529220835181546001600160a01b0319166001600160a01b0390911617815590519091611e8991908301906003612e7a565b5060408201516004820155606082015160058201556080820151600682015560a0820151600782015560c0820151600882015560e08201518051611ed7916009840191602090910190612eb8565b5050604080518881526020810185905290810186905284915082907ff59ad4f36155429cc6c084c92d47662e05da2eb78058689a58cc879fa880a4449060600160405180910390a350505050505050565b6000818152600860209081526040808320815160a08101835281546001600160a01b03908116825260018301541693810193909352600281015491830191909152600381015460608301526004015460808201819052909103611fc55760405162461bcd60e51b8152602060048201526015602482015274125b9d195b9d08191bd95cc81b9bdd08195e1a5cdd605a1b6044820152606401610736565b604080820151600090815260076020522081516001600160a01b0316331461202f5760405162461bcd60e51b815260206004820152601c60248201527f53656e646572206d75737420626520746865206f6e2d72616d706572000000006044820152606401610736565b612039818461273b565b816060015181600501600082825461205191906137d3565b9091555050606082015160068201805460009061206f9084906137e6565b9091555050505050565b606060008267ffffffffffffffff8111156120965761209661302f565b6040519080825280602002602001820160405280156120cf57816020015b6120bc612ef2565b8152602001906001900390816120b45790505b50905060005b838110156121a8576000600860008787858181106120f5576120f561381b565b602090810292909201358352508181019290925260409081016000908120825160a08101845281546001600160a01b0390811682526001830154811682870152600283015482860152600383015460608301526004909201546080820152835180850185528181528151909216835260058552929091205492810192909252845190925084908490811061218b5761218b61381b565b602002602001018190525050806121a190613831565b90506120d5565b5090505b92915050565b6121ba612281565b600280546001600160a01b0319166001600160a01b0383169081179091556040519081527f73d3ac111d5926fbfd68ade03832f0b1a4daef0cd0effc1fa0829264bcc57c41906020016106b5565b612210612281565b6001600160a01b0381166122755760405162461bcd60e51b815260206004820152602660248201527f4f776e61626c653a206e6577206f776e657220697320746865207a65726f206160448201526564647265737360d01b6064820152608401610736565b61227e81612910565b50565b6000546001600160a01b031633146112665760405162461bcd60e51b815260206004820181905260248201527f4f776e61626c653a2063616c6c6572206973206e6f7420746865206f776e65726044820152606401610736565b6040805160208101849052908101829052426060820152600090819060800160408051601f198184030181529190528051602090910120905061233e7f30644e72e131a029b85045b68181585d2833e84879b9709143e1f593f0000001826138b2565b949350505050565b600081815260076020908152604080832060090180548251818502810185019093528083526060949384939291908301828280156123a357602002820191906000526020600020905b81548152602001906001019080831161238f575b50505050509050805167ffffffffffffffff8111156123c4576123c461302f565b6040519080825280602002602001820160405280156123ed578160200160208202803683370190505b50925060005b81518110156124e8576000600860008484815181106124145761241461381b565b6020908102919091018101518252818101929092526040908101600020815160a08101835281546001600160a01b03908116825260018301541693810193909352600281015491830191909152600381015460608301526004015460808201819052909150429061248890620151806137d3565b10156124d7578282815181106124a0576124a061381b565b60200260200101518583815181106124ba576124ba61381b565b602090810291909101015260608101516124d490856137d3565b93505b506124e181613831565b90506123f3565b5050915091565b60005b815181101561124f576000801b8282815181106125115761251161381b565b60200260200101511461254157612541838383815181106125345761253461381b565b602002602001015161273b565b61254a81613831565b90506124f2565b612559612f12565b600354604080516080810182528781526020810187905280820186905260608101859052905163015f22cd60e51b815260009283928392839283926001600160a01b0390911691632be459a0916125b291600401613917565b6060604051808303816000875af11580156125d1573d6000803e3d6000fd5b505050506040513d601f19601f820116820180604052508101906125f59190613986565b6000818152600860209081526040808320815160a08101835281546001600160a01b0390811682526001830154811682860152600283015482850181905260038401546060840152600490930154608083015291855260078452828520805490921685526005909352922054949750929550909350909184146126ba5760405162461bcd60e51b815260206004820152601b60248201527f4f666672616d70657220696420646f6573206e6f74206d6174636800000000006044820152606401610736565b8060070154670de0b6b3a764000083606001516126d79190613871565b6126e1919061389e565b8510156127295760405162461bcd60e51b81526020600482015260166024820152750a0c2f2dacadce840eec2e640dcdee840cadcdeeaced60531b6044820152606401610736565b909b909a509098509650505050505050565b6000818152600860208181526040808420815160a08101835281546001600160a01b03908116808352600184018054909216838701526002840180548487015260038501805460608601526004860180546080870152928a5260058852868a20548a52600688529589208990558989529690955282546001600160a01b0319908116909355805490921690915592849055839055919091556127e06009840183612ae0565b604080820151905183907fe8a865b4bab023c399cbd1f2cdd0df2199beb6e5012a4bd2d7691cf7e4199d5a90600090a3505050565b60008160050154826006015461282b91906137d3565b90508060000361124f5781546001600160a01b0316600090815260056020526040902061285b9060010184612ca7565b8154604080518581526001600160a01b0390921660208301527f8ac07cc6e38c6222dd0309c80353c1962354bacf222b825d7401cc80e93ff3cc910160405180910390a1600083815260076020526040812080546001600160a01b031916815560018101829055600281018290556003810182905590600482016000905560058201600090556006820160009055600782016000905560088201600090556009820160006129099190612f53565b5050505050565b600080546001600160a01b038381166001600160a01b0319831681178455604051919092169283917f8be0079c531659141344cd1fd0a4f28419497f9722a3daafe3b4186f6b6457e09190a35050565b612968612f12565b60015460408051608081018252878152602081018790528082018690526060810185905290516305a0d40d60e41b815260009283928392839283926001600160a01b0390911691635a0d40d0916129c1916004016139b4565b6060604051808303816000875af11580156129e0573d6000803e3d6000fd5b505050506040513d601f19601f82011682018060405250810190612a049190613986565b6000818152600860209081526040808320815160a08101835281546001600160a01b039081168083526001840154909116828601526002830154828501526003830154606083015260049092015460808201529084526005909252909120549396509194509250908314612aba5760405162461bcd60e51b815260206004820152601a60248201527f4f6e72616d70657220696420646f6573206e6f74206d617463680000000000006044820152606401610736565b600954600090612aca86426137e6565b9298509296505010925050509450945094915050565b600080612b3c84805480602002602001604051908101604052809291908181526020018280548015612b3157602002820191906000526020600020905b815481526020019060010190808311612b1d575b505050505084612d4c565b9150915080612b855760405162461bcd60e51b8152602060048201526015602482015274313cba32b99999103737ba1034b71030b93930bc9760591b6044820152606401610736565b8354600090612b96906001906137e6565b9050808314612bdb57848181548110612bb157612bb161381b565b9060005260206000200154858481548110612bce57612bce61381b565b6000918252602090912001555b84805480612beb57612beb613a19565b60019003818190600052602060002001600090559055505b50505050565b6002546040805160808101825286815260208101869052808201859052606081018490529051630be4767960e11b815260009283926001600160a01b03909116916317c8ecf291612c5c91600401613a2f565b602060405180830381865afa158015612c79573d6000803e3d6000fd5b505050506040513d601f19601f82011682018060405250810190612c9d9190613858565b9695505050505050565b600080612d0384805480602002602001604051908101604052809291908181526020018280548015612cf857602002820191906000526020600020905b815481526020019060010190808311612ce4575b505050505084612daf565b9150915080612b855760405162461bcd60e51b81526020600482015260156024820152743ab4b73a191a9b103737ba1034b71030b93930bc9760591b6044820152606401610736565b81516000908190815b81811015612d9c5784868281518110612d7057612d7061381b565b602002602001015103612d8a57925060019150612da89050565b80612d9481613831565b915050612d55565b50600019600092509250505b9250929050565b81516000908190815b81811015612d9c5784868281518110612dd357612dd361381b565b602002602001015103612ded57925060019150612da89050565b80612df781613831565b915050612db8565b604051806060016040528060008152602001612e19612e26565b8152602001600081525090565b60405180610100016040528060006001600160a01b03168152602001612e4a612f71565b81526020016000815260200160008152602001600081526020016000815260200160008152602001606081525090565b8260038101928215612ea8579160200282015b82811115612ea8578251825591602001919060010190612e8d565b50612eb4929150612f8f565b5090565b828054828255906000526020600020908101928215612ea85791602002820182811115612ea8578251825591602001919060010190612e8d565b6040518060400160405280612f05612f12565b8152600060209091015290565b6040518060a0016040528060006001600160a01b0316815260200160006001600160a01b031681526020016000815260200160008152602001600081525090565b508054600082559060005260206000209081019061227e9190612f8f565b60405180606001604052806003906020820280368337509192915050565b5b80821115612eb45760008155600101612f90565b6001600160a01b038116811461227e57600080fd5b600060208284031215612fcb57600080fd5b8135612fd681612fa4565b9392505050565b600060208284031215612fef57600080fd5b5035919050565b60008060006060848603121561300b57600080fd5b8335925060208401359150604084013561302481612fa4565b809150509250925092565b634e487b7160e01b600052604160045260246000fd5b6040805190810167ffffffffffffffff811182821017156130685761306861302f565b60405290565b604051601f8201601f1916810167ffffffffffffffff811182821017156130975761309761302f565b604052919050565b600082601f8301126130b057600080fd5b6130b8613045565b8060408401858111156130ca57600080fd5b845b818110156130e45780358452602093840193016130cc565b509095945050505050565b600082601f83011261310057600080fd5b613108613045565b80608084018581111561311a57600080fd5b845b818110156130e45761312e878261309f565b845260209093019260400161311c565b60008060008061020080868803121561315657600080fd5b613160878761309f565b945061316f87604088016130ef565b935061317e8760c0880161309f565b92506101008761011f88011261319357600080fd5b60405181810181811067ffffffffffffffff821117156131b5576131b561302f565b6040529187019180898411156131ca57600080fd5b918801915b838310156131e75782358152602092830192016131cf565b509598949750929550505050565b6020808252825182820181905260009190848201906040850190845b8181101561322d57835183529284019291840191600101613211565b50909695505050505050565b8060005b6003811015612c0357815184526020938401939091019060010161323d565b600061014080840160018060a01b03845116855260208085015161328282880182613239565b5060408501516080870152606085015160a0870152608085015160c087015260a085015160e087015260c085015161010087015260e0850151836101208801528293508051808452610160880194508282019350600091505b808210156132fb57835185529382019392820192600191909101906132db565b50929695505050505050565b60006020808301818452808551808352604092508286019150828160051b87010184880160005b8381101561337a57603f19898403018552815160608151855288820151818a87015261335c8287018261325c565b9289015195890195909552509487019492509086019060010161332e565b509098975050505050505050565b6000602080838503121561339b57600080fd5b823567ffffffffffffffff808211156133b357600080fd5b818501915085601f8301126133c757600080fd5b8135818111156133d9576133d961302f565b8060051b91506133ea84830161306e565b818152918301840191848101908884111561340457600080fd5b938501935b8385101561342257843582529385019390850190613409565b98975050505050505050565b60208082528251828201528281015160408084015280516060840181905260009291820190839060808601905b8083101561347b578351825292840192600192909201919084019061345b565b509695505050505050565b60008060008061022080868803121561349e57600080fd5b6134a8878761309f565b94506134b787604088016130ef565b93506134c68760c0880161309f565b92508661011f8701126134d857600080fd5b604051610120810181811067ffffffffffffffff821117156134fc576134fc61302f565b60405290860190808883111561351157600080fd5b61010088015b8381101561352f578035825260209182019101613517565b5050809250505092959194509250565b602081526000612fd6602083018461325c565b60008060006060848603121561356757600080fd5b833561357281612fa4565b9250602084013561358281612fa4565b9150604084013561302481612fa4565b6000806000806101a08086880312156135aa57600080fd5b6135b4878761309f565b94506135c387604088016130ef565b93506135d28760c0880161309f565b92508661011f8701126135e457600080fd5b60405160a0810181811067ffffffffffffffff821117156134fc576134fc61302f565b60008060008060c0858703121561361d57600080fd5b85601f86011261362c57600080fd5b6040516060810181811067ffffffffffffffff8211171561364f5761364f61302f565b60405280606087018881111561366457600080fd5b875b8181101561367e578035835260209283019201613666565b509198913597505060808601359560a00135945092505050565b600080602083850312156136ab57600080fd5b823567ffffffffffffffff808211156136c357600080fd5b818501915085601f8301126136d757600080fd5b8135818111156136e657600080fd5b8660208260051b85010111156136fb57600080fd5b60209290920196919550909350505050565b602080825282518282018190526000919060409081850190868401855b82811015613784578151805180516001600160a01b0390811687528882015116888701528681015187870152606080820151908701526080908101519086015286015160a085015260c0909301929085019060010161372a565b5091979650505050505050565b600080604083850312156137a457600080fd5b82356137af81612fa4565b946020939093013593505050565b634e487b7160e01b600052601160045260246000fd5b808201808211156121ac576121ac6137bd565b818103818111156121ac576121ac6137bd565b60006020828403121561380b57600080fd5b81518015158114612fd657600080fd5b634e487b7160e01b600052603260045260246000fd5b600060018201613843576138436137bd565b5060010190565b606081016121ac8284613239565b60006020828403121561386a57600080fd5b5051919050565b80820281158282048414176121ac576121ac6137bd565b634e487b7160e01b600052601260045260246000fd5b6000826138ad576138ad613888565b500490565b6000826138c1576138c1613888565b500690565b8060005b6002811015612c035781518452602093840193909101906001016138ca565b8060005b6002811015612c03576139018483516138c6565b60409390930192602091909101906001016138ed565b60006102008201905061392b8284516138c6565b60208084015161393e60408501826138e9565b50604084015161395160c08501826138c6565b506060840151610100840160005b600881101561397c5782518252918301919083019060010161395f565b5050505092915050565b60008060006060848603121561399b57600080fd5b8351925060208401519150604084015190509250925092565b6000610220820190506139c88284516138c6565b6020808401516139db60408501826138e9565b5060408401516139ee60c08501826138c6565b506060840151610100840160005b600981101561397c578251825291830191908301906001016139fc565b634e487b7160e01b600052603160045260246000fd5b60006101a082019050613a438284516138c6565b602080840151613a5660408501826138e9565b506040840151613a6960c08501826138c6565b506060840151610100840160005b600581101561397c57825182529183019190830190600101613a7756fea26469706673582212205f9932179a938af4bdb8564fb623000a1d73a882af6963cbc3d8980fd89b5bfc64736f6c63430008120033",
  "devdoc": {
    "kind": "dev",
    "methods": {
      "addAccountToDenylist(bytes32)": {
        "params": {
          "_deniedUser": "Poseidon hash of the venmoId being banned"
        }
      },
      "cancelIntent(bytes32)": {
        "params": {
          "_intentHash": "Hash of intent being cancelled"
        }
      },
      "initialize(address,address,address)": {
        "params": {
          "_receiveProcessor": "Receive processor address",
          "_registrationProcessor": "Registration processor address",
          "_sendProcessor": "Send processor address"
        }
      },
      "offRamp(uint256[3],uint256,uint256,uint256)": {
        "params": {
          "_convenienceFee": "The amount of USDC per on-ramp transaction available to be claimed by off-ramper",
          "_depositAmount": "The amount of USDC to off-ramp",
          "_packedVenmoId": "The packed venmo id of the account owner (we pack for easy use with poseidon)",
          "_receiveAmount": "The amount of USD to receive"
        }
      },
      "onRamp(uint256[2],uint256[2][2],uint256[2],uint256[8])": {
        "params": {
          "_a": "Parameter of zk proof",
          "_b": "Parameter of zk proof",
          "_c": "Parameter of zk proof",
          "_signals": "Encoded public signals of the zk proof, contains mailserverHash, fromEmail, timestamp, onRamperIdHash,                  nullifier, intentHash"
        }
      },
      "onRampWithConvenience(uint256[2],uint256[2][2],uint256[2],uint256[9])": {
        "params": {
          "_a": "Parameter of zk proof",
          "_b": "Parameter of zk proof",
          "_c": "Parameter of zk proof",
          "_signals": "Encoded public signals of the zk proof, contains mailserverHash, fromEmail, timestamp, onRamperIdHash,                  nullifier, intentHash"
        }
      },
      "owner()": {
        "details": "Returns the address of the current owner."
      },
      "register(uint256[2],uint256[2][2],uint256[2],uint256[5])": {
        "params": {
          "_a": "Parameter of zk proof",
          "_b": "Parameter of zk proof",
          "_c": "Parameter of zk proof",
          "_signals": "Encoded public signals of the zk proof, contains mailserverHash, fromEmail, userIdHash"
        }
      },
      "removeAccountFromDenylist(bytes32)": {
        "params": {
          "_approvedUser": "Poseidon hash of the venmoId being approved"
        }
      },
      "renounceOwnership()": {
        "details": "Leaves the contract without owner. It will not be possible to call `onlyOwner` functions. Can only be called by the current owner. NOTE: Renouncing ownership will leave the contract without an owner, thereby disabling any functionality that is only available to the owner."
      },
      "setConvenienceRewardTimePeriod(uint256)": {
        "params": {
          "_convenienceRewardTimePeriod": "The new convenience reward time period"
        }
      },
      "setMinDepositAmount(uint256)": {
        "params": {
          "_minDepositAmount": "The new minimum deposit amount"
        }
      },
      "setReceiveProcessor(address)": {
        "params": {
          "_receiveProcessor": "New receive proccesor address"
        }
      },
      "setRegistrationProcessor(address)": {
        "params": {
          "_registrationProcessor": "New registration proccesor address"
        }
      },
      "setSendProcessor(address)": {
        "params": {
          "_sendProcessor": "New send proccesor address"
        }
      },
      "signalIntent(uint256,uint256,address)": {
        "params": {
          "_amount": "The amount of USDC the user wants to on-ramp",
          "_depositId": "The ID of the deposit the on-ramper intends to use for "
        }
      },
      "transferOwnership(address)": {
        "details": "Transfers ownership of the contract to a new account (`newOwner`). Can only be called by the current owner."
      },
      "withdrawDeposit(uint256[])": {
        "params": {
          "_depositIds": "Array of depositIds the depositor is attempting to withdraw"
        }
      }
    },
    "version": 1
  },
  "userdoc": {
    "kind": "user",
    "methods": {
      "addAccountToDenylist(bytes32)": {
        "notice": "Adds a venmoId to a depositor's deny list. If an address associated with the banned venmoId attempts to signal an intent on the user's deposit they will be denied."
      },
      "cancelIntent(bytes32)": {
        "notice": "Only callable by the originator of the intent. Cancels an outstanding intent thus allowing user to signal a new intent. Deposit state is updated to reflect the cancelled intent."
      },
      "initialize(address,address,address)": {
        "notice": "Initialize Ramp with the addresses of the Processors"
      },
      "offRamp(uint256[3],uint256,uint256,uint256)": {
        "notice": "Generates a deposit entry for off-rampers that can then be fulfilled by an on-ramper. This function will not add to previous deposits. Every deposit has it's own unique identifier. User must approve the contract to transfer the deposit amount of USDC."
      },
      "onRamp(uint256[2],uint256[2][2],uint256[2],uint256[8])": {
        "notice": "Upon submission the proof is validated, intent is removed, and deposit state is updated. USDC is transferred to the on-ramper."
      },
      "onRampWithConvenience(uint256[2],uint256[2][2],uint256[2],uint256[9])": {
        "notice": "ONLY OFF-RAMPER: Must be submitted by off-ramper. Upon submission the proof is validated, intent is removed, and deposit state is updated. USDC is transferred to the on-ramper and the defined convenience fee is sent to the off- ramper."
      },
      "register(uint256[2],uint256[2][2],uint256[2],uint256[5])": {
        "notice": "Registers a new account by pulling the hash of the account id from the proof and assigning the account owner to the sender of the transaction."
      },
      "removeAccountFromDenylist(bytes32)": {
        "notice": "Removes a venmoId from a depositor's deny list."
      },
      "setConvenienceRewardTimePeriod(uint256)": {
        "notice": "GOVERNANCE ONLY: Updates the convenience reward time period after which convenience rewards are no longer distributed to off rampers that submit proofs for on-rampers."
      },
      "setMinDepositAmount(uint256)": {
        "notice": "GOVERNANCE ONLY: Updates the minimum deposit amount a user can specify for off-ramping."
      },
      "setReceiveProcessor(address)": {
        "notice": "GOVERNANCE ONLY: Updates the receive processor address used for validating and interpreting zk proofs."
      },
      "setRegistrationProcessor(address)": {
        "notice": "GOVERNANCE ONLY: Updates the registration processor address used for validating and interpreting zk proofs."
      },
      "setSendProcessor(address)": {
        "notice": "GOVERNANCE ONLY: Updates the send processor address used for validating and interpreting zk proofs."
      },
      "signalIntent(uint256,uint256,address)": {
        "notice": "Signals intent to pay the depositor defined in the _depositId the _amount * deposit conversionRate off-chain in order to unlock _amount of funds on-chain. Each user can only have one outstanding intent at a time regardless of address (tracked using venmoId). Caller must not be on the depositor's deny list. If there are prunable intents then they will be deleted from the deposit to be able to maintain state hygiene."
      },
      "withdrawDeposit(uint256[])": {
        "notice": "Caller must be the depositor for each depositId in the array. Depositor is returned all remaining deposits and any outstanding intents that are expired. If an intent is not expired then those funds will not be returned. Deposit will be deleted as long as there are no more outstanding intents."
      }
    },
    "version": 1
  },
  "storageLayout": {
    "storage": [
      {
        "astId": 7,
        "contract": "contracts/Ramp.sol:Ramp",
        "label": "_owner",
        "offset": 0,
        "slot": "0",
        "type": "t_address"
      },
      {
        "astId": 1027,
        "contract": "contracts/Ramp.sol:Ramp",
        "label": "receiveProcessor",
        "offset": 0,
        "slot": "1",
        "type": "t_contract(IReceiveProcessor)2811"
      },
      {
        "astId": 1030,
        "contract": "contracts/Ramp.sol:Ramp",
        "label": "registrationProcessor",
        "offset": 0,
        "slot": "2",
        "type": "t_contract(IRegistrationProcessor)2841"
      },
      {
        "astId": 1033,
        "contract": "contracts/Ramp.sol:Ramp",
        "label": "sendProcessor",
        "offset": 0,
        "slot": "3",
        "type": "t_contract(ISendProcessor)2875"
      },
      {
        "astId": 1035,
        "contract": "contracts/Ramp.sol:Ramp",
        "label": "isInitialized",
        "offset": 20,
        "slot": "3",
        "type": "t_bool"
      },
      {
        "astId": 1040,
        "contract": "contracts/Ramp.sol:Ramp",
        "label": "userDenylist",
        "offset": 0,
        "slot": "4",
        "type": "t_mapping(t_bytes32,t_struct(DenyList)1009_storage)"
      },
      {
        "astId": 1045,
        "contract": "contracts/Ramp.sol:Ramp",
        "label": "accounts",
        "offset": 0,
        "slot": "5",
        "type": "t_mapping(t_address,t_struct(AccountInfo)956_storage)"
      },
      {
        "astId": 1049,
        "contract": "contracts/Ramp.sol:Ramp",
        "label": "venmoIdIntent",
        "offset": 0,
        "slot": "6",
        "type": "t_mapping(t_bytes32,t_bytes32)"
      },
      {
        "astId": 1054,
        "contract": "contracts/Ramp.sol:Ramp",
        "label": "deposits",
        "offset": 0,
        "slot": "7",
        "type": "t_mapping(t_uint256,t_struct(Deposit)976_storage)"
      },
      {
        "astId": 1059,
        "contract": "contracts/Ramp.sol:Ramp",
        "label": "intents",
        "offset": 0,
        "slot": "8",
        "type": "t_mapping(t_bytes32,t_struct(Intent)995_storage)"
      },
      {
        "astId": 1061,
        "contract": "contracts/Ramp.sol:Ramp",
        "label": "convenienceRewardTimePeriod",
        "offset": 0,
        "slot": "9",
        "type": "t_uint256"
      },
      {
        "astId": 1063,
        "contract": "contracts/Ramp.sol:Ramp",
        "label": "minDepositAmount",
        "offset": 0,
        "slot": "10",
        "type": "t_uint256"
      },
      {
        "astId": 1065,
        "contract": "contracts/Ramp.sol:Ramp",
        "label": "depositCounter",
        "offset": 0,
        "slot": "11",
        "type": "t_uint256"
      }
    ],
    "types": {
      "t_address": {
        "encoding": "inplace",
        "label": "address",
        "numberOfBytes": "20"
      },
      "t_array(t_bytes32)dyn_storage": {
        "base": "t_bytes32",
        "encoding": "dynamic_array",
        "label": "bytes32[]",
        "numberOfBytes": "32"
      },
      "t_array(t_uint256)3_storage": {
        "base": "t_uint256",
        "encoding": "inplace",
        "label": "uint256[3]",
        "numberOfBytes": "96"
      },
      "t_array(t_uint256)dyn_storage": {
        "base": "t_uint256",
        "encoding": "dynamic_array",
        "label": "uint256[]",
        "numberOfBytes": "32"
      },
      "t_bool": {
        "encoding": "inplace",
        "label": "bool",
        "numberOfBytes": "1"
      },
      "t_bytes32": {
        "encoding": "inplace",
        "label": "bytes32",
        "numberOfBytes": "32"
      },
      "t_contract(IReceiveProcessor)2811": {
        "encoding": "inplace",
        "label": "contract IReceiveProcessor",
        "numberOfBytes": "20"
      },
      "t_contract(IRegistrationProcessor)2841": {
        "encoding": "inplace",
        "label": "contract IRegistrationProcessor",
        "numberOfBytes": "20"
      },
      "t_contract(ISendProcessor)2875": {
        "encoding": "inplace",
        "label": "contract ISendProcessor",
        "numberOfBytes": "20"
      },
      "t_mapping(t_address,t_struct(AccountInfo)956_storage)": {
        "encoding": "mapping",
        "key": "t_address",
        "label": "mapping(address => struct Ramp.AccountInfo)",
        "numberOfBytes": "32",
        "value": "t_struct(AccountInfo)956_storage"
      },
      "t_mapping(t_bytes32,t_bool)": {
        "encoding": "mapping",
        "key": "t_bytes32",
        "label": "mapping(bytes32 => bool)",
        "numberOfBytes": "32",
        "value": "t_bool"
      },
      "t_mapping(t_bytes32,t_bytes32)": {
        "encoding": "mapping",
        "key": "t_bytes32",
        "label": "mapping(bytes32 => bytes32)",
        "numberOfBytes": "32",
        "value": "t_bytes32"
      },
      "t_mapping(t_bytes32,t_struct(DenyList)1009_storage)": {
        "encoding": "mapping",
        "key": "t_bytes32",
        "label": "mapping(bytes32 => struct Ramp.DenyList)",
        "numberOfBytes": "32",
        "value": "t_struct(DenyList)1009_storage"
      },
      "t_mapping(t_bytes32,t_struct(Intent)995_storage)": {
        "encoding": "mapping",
        "key": "t_bytes32",
        "label": "mapping(bytes32 => struct Ramp.Intent)",
        "numberOfBytes": "32",
        "value": "t_struct(Intent)995_storage"
      },
      "t_mapping(t_uint256,t_struct(Deposit)976_storage)": {
        "encoding": "mapping",
        "key": "t_uint256",
        "label": "mapping(uint256 => struct Ramp.Deposit)",
        "numberOfBytes": "32",
        "value": "t_struct(Deposit)976_storage"
      },
      "t_struct(AccountInfo)956_storage": {
        "encoding": "inplace",
        "label": "struct Ramp.AccountInfo",
        "members": [
          {
            "astId": 952,
            "contract": "contracts/Ramp.sol:Ramp",
            "label": "venmoIdHash",
            "offset": 0,
            "slot": "0",
            "type": "t_bytes32"
          },
          {
            "astId": 955,
            "contract": "contracts/Ramp.sol:Ramp",
            "label": "deposits",
            "offset": 0,
            "slot": "1",
            "type": "t_array(t_uint256)dyn_storage"
          }
        ],
        "numberOfBytes": "64"
      },
      "t_struct(DenyList)1009_storage": {
        "encoding": "inplace",
        "label": "struct Ramp.DenyList",
        "members": [
          {
            "astId": 1004,
            "contract": "contracts/Ramp.sol:Ramp",
            "label": "deniedUsers",
            "offset": 0,
            "slot": "0",
            "type": "t_array(t_bytes32)dyn_storage"
          },
          {
            "astId": 1008,
            "contract": "contracts/Ramp.sol:Ramp",
            "label": "isDenied",
            "offset": 0,
            "slot": "1",
            "type": "t_mapping(t_bytes32,t_bool)"
          }
        ],
        "numberOfBytes": "64"
      },
      "t_struct(Deposit)976_storage": {
        "encoding": "inplace",
        "label": "struct Ramp.Deposit",
        "members": [
          {
            "astId": 958,
            "contract": "contracts/Ramp.sol:Ramp",
            "label": "depositor",
            "offset": 0,
            "slot": "0",
            "type": "t_address"
          },
          {
            "astId": 962,
            "contract": "contracts/Ramp.sol:Ramp",
            "label": "packedVenmoId",
            "offset": 0,
            "slot": "1",
            "type": "t_array(t_uint256)3_storage"
          },
          {
            "astId": 964,
            "contract": "contracts/Ramp.sol:Ramp",
            "label": "depositAmount",
            "offset": 0,
            "slot": "4",
            "type": "t_uint256"
          },
          {
            "astId": 966,
            "contract": "contracts/Ramp.sol:Ramp",
            "label": "remainingDeposits",
            "offset": 0,
            "slot": "5",
            "type": "t_uint256"
          },
          {
            "astId": 968,
            "contract": "contracts/Ramp.sol:Ramp",
            "label": "outstandingIntentAmount",
            "offset": 0,
            "slot": "6",
            "type": "t_uint256"
          },
          {
            "astId": 970,
            "contract": "contracts/Ramp.sol:Ramp",
            "label": "conversionRate",
            "offset": 0,
            "slot": "7",
            "type": "t_uint256"
          },
          {
            "astId": 972,
            "contract": "contracts/Ramp.sol:Ramp",
            "label": "convenienceFee",
            "offset": 0,
            "slot": "8",
            "type": "t_uint256"
          },
          {
            "astId": 975,
            "contract": "contracts/Ramp.sol:Ramp",
            "label": "intentHashes",
            "offset": 0,
            "slot": "9",
            "type": "t_array(t_bytes32)dyn_storage"
          }
        ],
        "numberOfBytes": "320"
      },
      "t_struct(Intent)995_storage": {
        "encoding": "inplace",
        "label": "struct Ramp.Intent",
        "members": [
          {
            "astId": 986,
            "contract": "contracts/Ramp.sol:Ramp",
            "label": "onRamper",
            "offset": 0,
            "slot": "0",
            "type": "t_address"
          },
          {
            "astId": 988,
            "contract": "contracts/Ramp.sol:Ramp",
            "label": "to",
            "offset": 0,
            "slot": "1",
            "type": "t_address"
          },
          {
            "astId": 990,
            "contract": "contracts/Ramp.sol:Ramp",
            "label": "deposit",
            "offset": 0,
            "slot": "2",
            "type": "t_uint256"
          },
          {
            "astId": 992,
            "contract": "contracts/Ramp.sol:Ramp",
            "label": "amount",
            "offset": 0,
            "slot": "3",
            "type": "t_uint256"
          },
          {
            "astId": 994,
            "contract": "contracts/Ramp.sol:Ramp",
            "label": "intentTimestamp",
            "offset": 0,
            "slot": "4",
            "type": "t_uint256"
          }
        ],
        "numberOfBytes": "160"
      },
      "t_uint256": {
        "encoding": "inplace",
        "label": "uint256",
        "numberOfBytes": "32"
      }
    }
  }
}