{
  "address": "0xbCC63C904898063fB04014189Ec1fB1628F7B6E1",
  "abi": [
    {
      "inputs": [
        {
          "internalType": "address",
          "name": "_ramp",
          "type": "address"
        },
        {
          "internalType": "contract IKeyHashAdapter",
          "name": "_venmoMailserverKeyHashAdapter",
          "type": "address"
        },
        {
          "internalType": "contract INullifierRegistry",
          "name": "_nullifierRegistry",
          "type": "address"
        },
        {
          "internalType": "string",
          "name": "_emailFromAddress",
          "type": "string"
        }
      ],
      "stateMutability": "nonpayable",
      "type": "constructor"
    },
    {
      "anonymous": false,
      "inputs": [
        {
          "indexed": true,
          "internalType": "address",
          "name": "previousOwner",
          "type": "address"
        },
        {
          "indexed": true,
          "internalType": "address",
          "name": "newOwner",
          "type": "address"
        }
      ],
      "name": "OwnershipTransferred",
      "type": "event"
    },
    {
      "inputs": [],
      "name": "emailFromAddress",
      "outputs": [
        {
          "internalType": "bytes",
          "name": "",
          "type": "bytes"
        }
      ],
      "stateMutability": "view",
      "type": "function"
    },
    {
      "inputs": [],
      "name": "getEmailFromAddress",
      "outputs": [
        {
          "internalType": "bytes",
          "name": "",
          "type": "bytes"
        }
      ],
      "stateMutability": "view",
      "type": "function"
    },
    {
      "inputs": [],
      "name": "getMailserverKeyHash",
      "outputs": [
        {
          "internalType": "bytes32",
          "name": "",
          "type": "bytes32"
        }
      ],
      "stateMutability": "view",
      "type": "function"
    },
    {
      "inputs": [],
      "name": "mailserverKeyHashAdapter",
      "outputs": [
        {
          "internalType": "contract IKeyHashAdapter",
          "name": "",
          "type": "address"
        }
      ],
      "stateMutability": "view",
      "type": "function"
    },
    {
      "inputs": [],
      "name": "nullifierRegistry",
      "outputs": [
        {
          "internalType": "contract INullifierRegistry",
          "name": "",
          "type": "address"
        }
      ],
      "stateMutability": "view",
      "type": "function"
    },
    {
      "inputs": [],
      "name": "owner",
      "outputs": [
        {
          "internalType": "address",
          "name": "",
          "type": "address"
        }
      ],
      "stateMutability": "view",
      "type": "function"
    },
    {
      "inputs": [
        {
          "components": [
            {
              "internalType": "uint256[2]",
              "name": "a",
              "type": "uint256[2]"
            },
            {
              "internalType": "uint256[2][2]",
              "name": "b",
              "type": "uint256[2][2]"
            },
            {
              "internalType": "uint256[2]",
              "name": "c",
              "type": "uint256[2]"
            },
            {
              "internalType": "uint256[5]",
              "name": "signals",
              "type": "uint256[5]"
            }
          ],
          "internalType": "struct IRegistrationProcessor.RegistrationProof",
          "name": "_proof",
          "type": "tuple"
        }
      ],
      "name": "processProof",
      "outputs": [
        {
          "internalType": "bytes32",
          "name": "userIdHash",
          "type": "bytes32"
        }
      ],
      "stateMutability": "view",
      "type": "function"
    },
    {
      "inputs": [],
      "name": "ramp",
      "outputs": [
        {
          "internalType": "address",
          "name": "",
          "type": "address"
        }
      ],
      "stateMutability": "view",
      "type": "function"
    },
    {
      "inputs": [],
      "name": "renounceOwnership",
      "outputs": [],
      "stateMutability": "nonpayable",
      "type": "function"
    },
    {
      "inputs": [
        {
          "internalType": "string",
          "name": "_emailFromAddress",
          "type": "string"
        }
      ],
      "name": "setEmailFromAddress",
      "outputs": [],
      "stateMutability": "nonpayable",
      "type": "function"
    },
    {
      "inputs": [
        {
          "internalType": "contract IKeyHashAdapter",
          "name": "_mailserverKeyHashAdapter",
          "type": "address"
        }
      ],
      "name": "setMailserverKeyHashAdapter",
      "outputs": [],
      "stateMutability": "nonpayable",
      "type": "function"
    },
    {
      "inputs": [
        {
          "internalType": "address",
          "name": "newOwner",
          "type": "address"
        }
      ],
      "name": "transferOwnership",
      "outputs": [],
      "stateMutability": "nonpayable",
      "type": "function"
    },
    {
      "inputs": [
        {
          "internalType": "uint256[2]",
          "name": "_pA",
          "type": "uint256[2]"
        },
        {
          "internalType": "uint256[2][2]",
          "name": "_pB",
          "type": "uint256[2][2]"
        },
        {
          "internalType": "uint256[2]",
          "name": "_pC",
          "type": "uint256[2]"
        },
        {
          "internalType": "uint256[5]",
          "name": "_pubSignals",
          "type": "uint256[5]"
        }
      ],
      "name": "verifyProof",
      "outputs": [
        {
          "internalType": "bool",
          "name": "",
          "type": "bool"
        }
      ],
      "stateMutability": "view",
      "type": "function"
    }
  ],
  "transactionHash": "0xa0f8e5b7cb0460a0ceb269f44601311294d909e617f400265126d75b6a3a7d49",
  "args": [
    "0x3AcFEeFF0d80929f00143490af1ed7bf2836fcBD",
    "0xb49E80C678199F2c8fb2511cd4Db9357c85C987B",
    "0x5E0E4dB937364DD4B812024b277f1eb565Bd4a14",
    "venmo@venmo.com"
  ],
  "numDeployments": 1,
  "solcInputHash": "3235f00afe52b593578a06ba6b1f711c",
  "bytecode": "0x60a06040523480156200001157600080fd5b5060405162001b4538038062001b45833981016040819052620000349162000114565b83838383620000433362000095565b6001600160a01b03848116608052600180546001600160a01b031990811686841617909155600280549091169184169190911790556003620000868282620002b9565b50505050505050505062000385565b600080546001600160a01b038381166001600160a01b0319831681178455604051919092169283917f8be0079c531659141344cd1fd0a4f28419497f9722a3daafe3b4186f6b6457e09190a35050565b6001600160a01b0381168114620000fb57600080fd5b50565b634e487b7160e01b600052604160045260246000fd5b600080600080608085870312156200012b57600080fd5b84516200013881620000e5565b809450506020808601516200014d81620000e5565b60408701519094506200016081620000e5565b60608701519093506001600160401b03808211156200017e57600080fd5b818801915088601f8301126200019357600080fd5b815181811115620001a857620001a8620000fe565b604051601f8201601f19908116603f01168101908382118183101715620001d357620001d3620000fe565b816040528281528b86848701011115620001ec57600080fd5b600093505b82841015620002105784840186015181850187015292850192620001f1565b600086848301015280965050505050505092959194509250565b600181811c908216806200023f57607f821691505b6020821081036200026057634e487b7160e01b600052602260045260246000fd5b50919050565b601f821115620002b457600081815260208120601f850160051c810160208610156200028f5750805b601f850160051c820191505b81811015620002b0578281556001016200029b565b5050505b505050565b81516001600160401b03811115620002d557620002d5620000fe565b620002ed81620002e684546200022a565b8462000266565b602080601f8311600181146200032557600084156200030c5750858301515b600019600386901b1c1916600185901b178555620002b0565b600085815260208120601f198616915b82811015620003565788860151825594840194600190910190840162000335565b5085821015620003755787850151600019600388901b60f8161c191681555b5050505050600190811b01905550565b60805161179e620003a76000396000818160d90152610208015261179e6000f3fe608060405234801561001057600080fd5b50600436106100cf5760003560e01c8063a87cb6ea1161008c578063ced1e97811610066578063ced1e978146101ba578063d0b71f99146101c2578063f2fde38b146101d5578063f6c7226b146101e857600080fd5b8063a87cb6ea1461018a578063b870676c14610192578063c0d05fed146101a557600080fd5b806315d276e1146100d457806317c8ecf21461011857806334baeab914610139578063672ae5971461015c578063715018a61461016f5780638da5cb5b14610179575b600080fd5b6100fb7f000000000000000000000000000000000000000000000000000000000000000081565b6040516001600160a01b0390911681526020015b60405180910390f35b61012b610126366004611233565b6101fb565b60405190815260200161010f565b61014c61014736600461125d565b61042f565b604051901515815260200161010f565b6001546100fb906001600160a01b031681565b610177610a04565b005b6000546001600160a01b03166100fb565b61012b610a18565b6002546100fb906001600160a01b031681565b6101ad610a8b565b60405161010f91906112e7565b6101ad610b19565b6101776101d036600461132f565b610bab565b6101776101e336600461132f565b610bd5565b6101776101f6366004611369565b610c4b565b6000336001600160a01b037f0000000000000000000000000000000000000000000000000000000000000000161461027a5760405162461bcd60e51b815260206004820181905260248201527f4f6e6c792052616d702063616e2063616c6c20746869732066756e6374696f6e60448201526064015b60405180910390fd5b604080516334baeab960e01b815230916334baeab9916102ad9186919082019060c083019061010084019060040161141a565b602060405180830381865afa1580156102ca573d6000803e3d6000fd5b505050506040513d601f19601f820116820180604052508101906102ee9190611466565b61032a5760405162461bcd60e51b815260206004820152600d60248201526c24b73b30b634b210283937b7b360991b6044820152606401610271565b610332610a18565b610100830135146103855760405162461bcd60e51b815260206004820152601b60248201527f496e76616c6964206d61696c736572766572206b6579206861736800000000006044820152606401610271565b6000610398836101000160016004610c63565b905060036040516103a991906114d2565b6040518091039020816040516020016103c29190611548565b60405160208183030381529060405280519060200120146104255760405162461bcd60e51b815260206004820152601a60248201527f496e76616c696420656d61696c2066726f6d20616464726573730000000000006044820152606401610271565b5050610180013590565b6000610992565b7f30644e72e131a029b85045b68181585d97816a916871ca8d3c208c16d87cfd478110610467576000805260206000f35b50565b600060405183815284602082015285604082015260408160608360076107d05a03fa91508161049d576000805260206000f35b825160408201526020830151606082015260408360808360066107d05a03fa915050806104ce576000805260206000f35b5050505050565b7f2bdc28cf197869db34c4fbf63b9a297acd233d737b149971c2a8425b9c18652e85527f306322808e39c492479f77b7c6d9d9c96db63defd9f77e05fdb4dc71e50856c560208601526000608086018661057287357f16fecceda7a3ec24e6993b49dacb0da64a04645dc170e6e88ef8f670239b43f57f15719ff6e212cf103557222bea4166d196037fd47f2466318df3f8b38079e8ec8461046a565b6105c260208801357f25ca6dc2d5078f1df81f9cb83db1356bdc3ab88c0b909cc4303f1f719a42bbca7f148bb0919456a3967918c0836f6ce527324c03fd875e4c92cb1e47bdab168c6d8461046a565b61061260408801357f18993ebc76aecfeb0e738ea06deeb99222e3b2f54e0b0c885924b7c5a4c994627f2b2ed6baeafa361c3f7448ba9bb05ab97ca55803b2f480e6733b0470f910a8cf8461046a565b61066260608801357f093560719a998c7c85b28f437b8bc98a7de3174df77e34c962c8f4ac0617d80b7f17b8d170ced474cb0317fadbee0f815f4101a01adbf532b089c0d820040ec6cd8461046a565b6106b260808801357f1380d3bede45e22cc0f0055b07dea924f730665065249f8bc22d4304cddd67347f1682fc24321cdb3ae7a70763090061d86324a74803d0fd4bd3770a546054895d8461046a565b50823581527f30644e72e131a029b85045b68181585d97816a916871ca8d3c208c16d87cfd4760208401357f30644e72e131a029b85045b68181585d97816a916871ca8d3c208c16d87cfd4703066020820152833560408201526020840135606082015260408401356080820152606084013560a08201527f2d4d9aa7e302d9df41749d5507949d05dbea33fbb16c643b22f599a2be6df2e260c08201527f14bedd503c37ceb061d8ec60209fe345ce89830a19230301f076caff004d192660e08201527f0967032fcbf776d1afc985f88877f182d38480a653f2decaa9794cbc3bf3060c6101008201527f0e187847ad4c798374d0d6732bf501847dd68bc0e071241e0213bc7fc13db7ab6101208201527f304cfbd1e08a704a99f5e847d93f8c3caafddec46b7a0d379da69a4d112346a76101408201527f1739c1b1a457a8c7313123d24d2f9192f896b7c63eea05a9d57f06547ad0cec8610160820152600087015161018082015260206000018701516101a08201527f198e9393920d483a7260bfb731fb5d25f1aa493335a9e71297e485b7aef312c26101c08201527f1800deef121f1e76426a00665e5c4479674322d4f75edadd46debd5cd992f6ed6101e08201527f090689d0585ff075ec9e99ad690c3395bc4b313370b38ef355acdadcd122975b6102008201527f12c85ea5db8c6deb4aab71808dcb408fe3d1e7690c43d37b4ce6cc0166fa7daa610220820152843561024082015260208501356102608201527f198e9393920d483a7260bfb731fb5d25f1aa493335a9e71297e485b7aef312c26102808201527f1800deef121f1e76426a00665e5c4479674322d4f75edadd46debd5cd992f6ed6102a08201527f090689d0585ff075ec9e99ad690c3395bc4b313370b38ef355acdadcd122975b6102c08201527f12c85ea5db8c6deb4aab71808dcb408fe3d1e7690c43d37b4ce6cc0166fa7daa6102e08201526020816103008360086107d05a03fa9051169695505050505050565b60405161038081016040526109aa6000840135610436565b6109b76020840135610436565b6109c46040840135610436565b6109d16060840135610436565b6109de6080840135610436565b6109eb60a0840135610436565b6109f8818486888a6104d5565b90508060005260206000f35b610a0c610d2d565b610a166000610d87565b565b60015460408051630d901b9960e21b815290516000926001600160a01b0316916336406e649160048083019260209291908290030181865afa158015610a62573d6000803e3d6000fd5b505050506040513d601f19601f82011682018060405250810190610a869190611564565b905090565b60038054610a989061149e565b80601f0160208091040260200160405190810160405280929190818152602001828054610ac49061149e565b8015610b115780601f10610ae657610100808354040283529160200191610b11565b820191906000526020600020905b815481529060010190602001808311610af457829003601f168201915b505050505081565b606060038054610b289061149e565b80601f0160208091040260200160405190810160405280929190818152602001828054610b549061149e565b8015610ba15780601f10610b7657610100808354040283529160200191610ba1565b820191906000526020600020905b815481529060010190602001808311610b8457829003601f168201915b5050505050905090565b610bb3610d2d565b600180546001600160a01b0319166001600160a01b0392909216919091179055565b610bdd610d2d565b6001600160a01b038116610c425760405162461bcd60e51b815260206004820152602660248201527f4f776e61626c653a206e6577206f776e657220697320746865207a65726f206160448201526564647265737360d01b6064820152608401610271565b61046781610d87565b610c53610d2d565b6003610c5f82826115cc565b5050565b60606000610c7184846116a2565b60ff1667ffffffffffffffff811115610c8c57610c8c611353565b604051908082528060200260200182016040528015610cb5578160200160208202803683370190505b50905060ff84165b8360ff16811015610d1a57858160058110610cda57610cda611488565b602002013582610ced60ff8816846116bb565b81518110610cfd57610cfd611488565b602090810291909101015280610d12816116ce565b915050610cbd565b50610d2481610dd7565b95945050505050565b6000546001600160a01b03163314610a165760405162461bcd60e51b815260206004820181905260248201527f4f776e61626c653a2063616c6c6572206973206e6f7420746865206f776e65726044820152606401610271565b600080546001600160a01b038381166001600160a01b0319831681178455604051919092169283917f8be0079c531659141344cd1fd0a4f28419497f9722a3daafe3b4186f6b6457e09190a35050565b6060610df282601f8451610deb91906116e7565b601f610df8565b92915050565b6060600080838651610e0a91906116e7565b67ffffffffffffffff811115610e2257610e22611353565b6040519080825280601f01601f191660200182016040528015610e4c576020820181803683370190505b5090506000805b87518161ffff161015611003576000888261ffff1681518110610e7857610e78611488565b6020026020010151905060008767ffffffffffffffff811115610e9d57610e9d611353565b604051908082528060200260200182016040528015610ec6578160200160208202803683370190505b50905060005b88811015610f1857610edf8160086116e7565b83901c828281518110610ef457610ef4611488565b60ff9092166020928302919091019091015280610f10816116ce565b915050610ecc565b5060005b88811015610fed576000828281518110610f3857610f38611488565b602002602001015160ff16905080600014610fb0578060f81b878781518110610f6357610f63611488565b60200101906001600160f81b031916908160001a90535085610f84816116ce565b9650610f9390506002896116fe565b60ff16600003610fab57610fa860018961172e565b97505b610fd3565b610fbb6002896116fe565b60ff16600103610fd357610fd060018961172e565b97505b5060089290921c9180610fe5816116ce565b915050610f1c565b5050508080610ffb90611747565b915050610e53565b5060018360ff1610156110a45760405162461bcd60e51b815260206004820152605760248201527f4e6f207061636b656420627974657320666f756e642120496e76616c6964206660448201527f696e616c207374617465206f66207061636b656420627974657320696e20656d60648201527f61696c3b2076616c7565206973206c696b656c79203021000000000000000000608482015260a401610271565b858111156111125760405162461bcd60e51b815260206004820152603560248201527f5061636b6564206279746573206d6f7265207468616e20616c6c6f776564206d6044820152746178206e756d626572206f66207369676e616c732160581b6064820152608401610271565b600061111d83611129565b98975050505050505050565b8051606090829060005b825181101561117e5782818151811061114e5761114e611488565b01602001516001600160f81b03191660000361116c5780915061117e565b80611176816116ce565b915050611133565b5060008167ffffffffffffffff81111561119a5761119a611353565b6040519080825280601f01601f1916602001820160405280156111c4576020820181803683370190505b50905060005b8281101561122a578381815181106111e4576111e4611488565b602001015160f81c60f81b82828151811061120157611201611488565b60200101906001600160f81b031916908160001a90535080611222816116ce565b9150506111ca565b50949350505050565b60006101a0828403121561124657600080fd5b50919050565b8060408101831015610df257600080fd5b6000806000806101a080868803121561127557600080fd5b61127f878761124c565b945060c086018781111561129257600080fd5b6040870194506112a2888261124c565b9350508681870111156112b457600080fd5b50929591945092610100019150565b60005b838110156112de5781810151838201526020016112c6565b50506000910152565b60208152600082518060208401526113068160408501602087016112c3565b601f01601f19169190910160400192915050565b6001600160a01b038116811461046757600080fd5b60006020828403121561134157600080fd5b813561134c8161131a565b9392505050565b634e487b7160e01b600052604160045260246000fd5b60006020828403121561137b57600080fd5b813567ffffffffffffffff8082111561139357600080fd5b818401915084601f8301126113a757600080fd5b8135818111156113b9576113b9611353565b604051601f8201601f19908116603f011681019083821181831017156113e1576113e1611353565b816040528281528760208487010111156113fa57600080fd5b826020860160208301376000928101602001929092525095945050505050565b6101a081016040808784378083018660005b60028110156114495783828437918301919083019060010161142c565b505050808560c08501375060a08361010084013795945050505050565b60006020828403121561147857600080fd5b8151801515811461134c57600080fd5b634e487b7160e01b600052603260045260246000fd5b600181811c908216806114b257607f821691505b60208210810361124657634e487b7160e01b600052602260045260246000fd5b60008083546114e08161149e565b600182811680156114f8576001811461150d5761153c565b60ff198416875282151583028701945061153c565b8760005260208060002060005b858110156115335781548a82015290840190820161151a565b50505082870194505b50929695505050505050565b6000825161155a8184602087016112c3565b9190910192915050565b60006020828403121561157657600080fd5b5051919050565b601f8211156115c757600081815260208120601f850160051c810160208610156115a45750805b601f850160051c820191505b818110156115c3578281556001016115b0565b5050505b505050565b815167ffffffffffffffff8111156115e6576115e6611353565b6115fa816115f4845461149e565b8461157d565b602080601f83116001811461162f57600084156116175750858301515b600019600386901b1c1916600185901b1785556115c3565b600085815260208120601f198616915b8281101561165e5788860151825594840194600190910190840161163f565b508582101561167c5787850151600019600388901b60f8161c191681555b5050505050600190811b01905550565b634e487b7160e01b600052601160045260246000fd5b60ff8281168282160390811115610df257610df261168c565b81810381811115610df257610df261168c565b6000600182016116e0576116e061168c565b5060010190565b8082028115828204841417610df257610df261168c565b600060ff83168061171f57634e487b7160e01b600052601260045260246000fd5b8060ff84160691505092915050565b60ff8181168382160190811115610df257610df261168c565b600061ffff80831681810361175e5761175e61168c565b600101939250505056fea2646970667358221220aa7b95a4087db51fc32f0be288069f92dbf6b2c99a8d9d814d253ba8bb6ab77d64736f6c63430008120033",
  "devdoc": {
    "kind": "dev",
    "methods": {
      "owner()": {
        "details": "Returns the address of the current owner."
      },
      "renounceOwnership()": {
        "details": "Leaves the contract without owner. It will not be possible to call `onlyOwner` functions. Can only be called by the current owner. NOTE: Renouncing ownership will leave the contract without an owner, thereby disabling any functionality that is only available to the owner."
      },
      "setEmailFromAddress(string)": {
        "params": {
          "_emailFromAddress": "The from email address for validated emails, MUST BE PROPERLY PADDED"
        }
      },
      "transferOwnership(address)": {
        "details": "Transfers ownership of the contract to a new account (`newOwner`). Can only be called by the current owner."
      }
    },
    "version": 1
  },
  "userdoc": {
    "kind": "user",
    "methods": {
      "setEmailFromAddress(string)": {
        "notice": "ONLY OWNER: Sets the from email address for validated emails. Check that email address is properly padded (if necessary). Padding will be dependent on if unpacking functions cut trailing 0s or not."
      }
    },
    "version": 1
  },
  "storageLayout": {
    "storage": [
      {
        "astId": 7,
        "contract": "contracts/processors/VenmoRegistrationProcessor.sol:VenmoRegistrationProcessor",
        "label": "_owner",
        "offset": 0,
        "slot": "0",
        "type": "t_address"
      },
      {
        "astId": 5170,
        "contract": "contracts/processors/VenmoRegistrationProcessor.sol:VenmoRegistrationProcessor",
        "label": "mailserverKeyHashAdapter",
        "offset": 0,
        "slot": "1",
        "type": "t_contract(IKeyHashAdapter)5709"
      },
      {
        "astId": 5173,
        "contract": "contracts/processors/VenmoRegistrationProcessor.sol:VenmoRegistrationProcessor",
        "label": "nullifierRegistry",
        "offset": 0,
        "slot": "2",
        "type": "t_contract(INullifierRegistry)5761"
      },
      {
        "astId": 5175,
        "contract": "contracts/processors/VenmoRegistrationProcessor.sol:VenmoRegistrationProcessor",
        "label": "emailFromAddress",
        "offset": 0,
        "slot": "3",
        "type": "t_bytes_storage"
      }
    ],
    "types": {
      "t_address": {
        "encoding": "inplace",
        "label": "address",
        "numberOfBytes": "20"
      },
      "t_bytes_storage": {
        "encoding": "bytes",
        "label": "bytes",
        "numberOfBytes": "32"
      },
      "t_contract(IKeyHashAdapter)5709": {
        "encoding": "inplace",
        "label": "contract IKeyHashAdapter",
        "numberOfBytes": "20"
      },
      "t_contract(INullifierRegistry)5761": {
        "encoding": "inplace",
        "label": "contract INullifierRegistry",
        "numberOfBytes": "20"
      }
    }
  }
}