{
  "address": "0x0a7537A73079C45f64623D213Cd284E9b55Fe0b7",
  "abi": [
    {
      "inputs": [
        {
          "internalType": "address",
          "name": "_ramp",
          "type": "address"
        },
        {
          "internalType": "contract IKeyHashAdapter",
          "name": "_venmoMailserverKeyHashAdapter",
          "type": "address"
        },
        {
          "internalType": "string",
          "name": "_emailFromAddress",
          "type": "string"
        }
      ],
      "stateMutability": "nonpayable",
      "type": "constructor"
    },
    {
      "anonymous": false,
      "inputs": [
        {
          "indexed": true,
          "internalType": "address",
          "name": "previousOwner",
          "type": "address"
        },
        {
          "indexed": true,
          "internalType": "address",
          "name": "newOwner",
          "type": "address"
        }
      ],
      "name": "OwnershipTransferred",
      "type": "event"
    },
    {
      "inputs": [],
      "name": "emailFromAddress",
      "outputs": [
        {
          "internalType": "bytes",
          "name": "",
          "type": "bytes"
        }
      ],
      "stateMutability": "view",
      "type": "function"
    },
    {
      "inputs": [],
      "name": "getEmailFromAddress",
      "outputs": [
        {
          "internalType": "bytes",
          "name": "",
          "type": "bytes"
        }
      ],
      "stateMutability": "view",
      "type": "function"
    },
    {
      "inputs": [],
      "name": "getVenmoMailserverKeyHash",
      "outputs": [
        {
          "internalType": "bytes32",
          "name": "",
          "type": "bytes32"
        }
      ],
      "stateMutability": "view",
      "type": "function"
    },
    {
      "inputs": [
        {
          "internalType": "bytes32",
          "name": "",
          "type": "bytes32"
        }
      ],
      "name": "isEmailNullified",
      "outputs": [
        {
          "internalType": "bool",
          "name": "",
          "type": "bool"
        }
      ],
      "stateMutability": "view",
      "type": "function"
    },
    {
      "inputs": [],
      "name": "owner",
      "outputs": [
        {
          "internalType": "address",
          "name": "",
          "type": "address"
        }
      ],
      "stateMutability": "view",
      "type": "function"
    },
    {
      "inputs": [
        {
          "components": [
            {
              "internalType": "uint256[2]",
              "name": "a",
              "type": "uint256[2]"
            },
            {
              "internalType": "uint256[2][2]",
              "name": "b",
              "type": "uint256[2][2]"
            },
            {
              "internalType": "uint256[2]",
              "name": "c",
              "type": "uint256[2]"
            },
            {
              "internalType": "uint256[10]",
              "name": "signals",
              "type": "uint256[10]"
            }
          ],
          "internalType": "struct ISendProcessor.SendProof",
          "name": "_proof",
          "type": "tuple"
        }
      ],
      "name": "processProof",
      "outputs": [
        {
          "internalType": "uint256",
          "name": "amount",
          "type": "uint256"
        },
        {
          "internalType": "uint256",
          "name": "timestamp",
          "type": "uint256"
        },
        {
          "internalType": "bytes32",
          "name": "offRamperIdHash",
          "type": "bytes32"
        },
        {
          "internalType": "bytes32",
          "name": "intentHash",
          "type": "bytes32"
        }
      ],
      "stateMutability": "nonpayable",
      "type": "function"
    },
    {
      "inputs": [],
      "name": "ramp",
      "outputs": [
        {
          "internalType": "address",
          "name": "",
          "type": "address"
        }
      ],
      "stateMutability": "view",
      "type": "function"
    },
    {
      "inputs": [],
      "name": "renounceOwnership",
      "outputs": [],
      "stateMutability": "nonpayable",
      "type": "function"
    },
    {
      "inputs": [
        {
          "internalType": "string",
          "name": "_emailFromAddress",
          "type": "string"
        }
      ],
      "name": "setEmailFromAddress",
      "outputs": [],
      "stateMutability": "nonpayable",
      "type": "function"
    },
    {
      "inputs": [
        {
          "internalType": "contract IKeyHashAdapter",
          "name": "_venmoMailserverKeyHashAdapter",
          "type": "address"
        }
      ],
      "name": "setVenmoMailserverKeyHashAdapter",
      "outputs": [],
      "stateMutability": "nonpayable",
      "type": "function"
    },
    {
      "inputs": [
        {
          "internalType": "address",
          "name": "newOwner",
          "type": "address"
        }
      ],
      "name": "transferOwnership",
      "outputs": [],
      "stateMutability": "nonpayable",
      "type": "function"
    },
    {
      "inputs": [],
      "name": "venmoMailserverKeyHashAdapter",
      "outputs": [
        {
          "internalType": "contract IKeyHashAdapter",
          "name": "",
          "type": "address"
        }
      ],
      "stateMutability": "view",
      "type": "function"
    },
    {
      "inputs": [
        {
          "internalType": "uint256[2]",
          "name": "_pA",
          "type": "uint256[2]"
        },
        {
          "internalType": "uint256[2][2]",
          "name": "_pB",
          "type": "uint256[2][2]"
        },
        {
          "internalType": "uint256[2]",
          "name": "_pC",
          "type": "uint256[2]"
        },
        {
          "internalType": "uint256[10]",
          "name": "_pubSignals",
          "type": "uint256[10]"
        }
      ],
      "name": "verifyProof",
      "outputs": [
        {
          "internalType": "bool",
          "name": "",
          "type": "bool"
        }
      ],
      "stateMutability": "view",
      "type": "function"
    }
  ],
  "transactionHash": "0xbdd45521bec5d47a265ef894ae66d2e125db5b9e1bd7210fcfd0632bd98f4acd",
  "args": [
    "0x1A2dcc7AfC7Bf09bE718E54466aA18166C00E4FD",
    "0x6c90ae078d8a6009666ad061521C091f57C808db",
    "venmo@venmo.com\u0000\u0000\u0000\u0000\u0000\u0000"
  ],
  "numDeployments": 1,
  "solcInputHash": "569e9df89bd5b92f388b7102efaa2236",
  "bytecode": "0x60a06040523480156200001157600080fd5b5060405162001e4d38038062001e4d833981016040819052620000349162000166565b8282826200004233620000e7565b8051601514620000a75760405162461bcd60e51b815260206004820152602660248201527f456d61696c2066726f6d2061646472657373206e6f742070726f7065726c79206044820152651c185919195960d21b606482015260840160405180910390fd5b6001600160a01b03838116608052600180546001600160a01b0319169184169190911790556002620000da8282620002f5565b50505050505050620003c1565b600080546001600160a01b038381166001600160a01b0319831681178455604051919092169283917f8be0079c531659141344cd1fd0a4f28419497f9722a3daafe3b4186f6b6457e09190a35050565b6001600160a01b03811681146200014d57600080fd5b50565b634e487b7160e01b600052604160045260246000fd5b6000806000606084860312156200017c57600080fd5b8351620001898162000137565b809350506020808501516200019e8162000137565b60408601519093506001600160401b0380821115620001bc57600080fd5b818701915087601f830112620001d157600080fd5b815181811115620001e657620001e662000150565b604051601f8201601f19908116603f0116810190838211818310171562000211576200021162000150565b816040528281528a868487010111156200022a57600080fd5b600093505b828410156200024e57848401860151818501870152928501926200022f565b60008684830101528096505050505050509250925092565b600181811c908216806200027b57607f821691505b6020821081036200029c57634e487b7160e01b600052602260045260246000fd5b50919050565b601f821115620002f057600081815260208120601f850160051c81016020861015620002cb5750805b601f850160051c820191505b81811015620002ec57828155600101620002d7565b5050505b505050565b81516001600160401b0381111562000311576200031162000150565b620003298162000322845462000266565b84620002a2565b602080601f831160018114620003615760008415620003485750858301515b600019600386901b1c1916600185901b178555620002ec565b600085815260208120601f198616915b82811015620003925788860151825594840194600190910190840162000371565b5085821015620003b15787850151600019600388901b60f8161c191681555b5050505050600190811b01905550565b608051611a6a620003e36000396000818160d901526102ae0152611a6a6000f3fe608060405234801561001057600080fd5b50600436106100cf5760003560e01c80638da5cb5b1161008c578063ced1e97811610066578063ced1e978146101ea578063f2fde38b146101f2578063f3bb70f614610205578063f6c7226b1461021857600080fd5b80638da5cb5b146101b15780639563a257146101c2578063c0d05fed146101d557600080fd5b806315d276e1146100d457806327644b3f1461011857806355f65ba81461014b57806365cd296c14610161578063715018a61461019457806389dd2db01461019e575b600080fd5b6100fb7f000000000000000000000000000000000000000000000000000000000000000081565b6040516001600160a01b0390911681526020015b60405180910390f35b61013b6101263660046114cc565b60036020526000908152604090205460ff1681565b604051901515815260200161010f565b61015361022b565b60405190815260200161010f565b61017461016f3660046114e5565b61029e565b60408051948552602085019390935291830152606082015260800161010f565b61019c6105a0565b005b61019c6101ac366004611513565b6105b4565b6000546001600160a01b03166100fb565b6001546100fb906001600160a01b031681565b6101dd6105de565b60405161010f919061155b565b6101dd61066c565b61019c610200366004611513565b6106fe565b61013b6102133660046115a5565b610777565b61019c610226366004611621565b610f1f565b6001546040805163fe1a279160e01b815290516000926001600160a01b03169163fe1a27919160048083019260209291908290030181865afa158015610275573d6000803e3d6000fd5b505050506040513d601f19601f8201168201806040525081019061029991906116d2565b905090565b6000808080336001600160a01b037f000000000000000000000000000000000000000000000000000000000000000016146103205760405162461bcd60e51b815260206004820181905260248201527f4f6e6c792052616d702063616e2063616c6c20746869732066756e6374696f6e60448201526064015b60405180910390fd5b604080516379ddb87b60e11b8152309163f3bb70f6916103539189919082019060c08301906101008401906004016116eb565b602060405180830381865afa158015610370573d6000803e3d6000fd5b505050506040513d601f19601f820116820180604052508101906103949190611738565b6103d05760405162461bcd60e51b815260206004820152600d60248201526c24b73b30b634b210283937b7b360991b6044820152606401610317565b6103d861022b565b6101008601351461042b5760405162461bcd60e51b815260206004820152601b60248201527f496e76616c6964206d61696c736572766572206b6579206861736800000000006044820152606401610317565b600061043e866101000160016004610f97565b9050600260405161044f91906117a4565b604051809103902081604051602001610468919061181a565b60405160208183030381529060405280519060200120146104cb5760405162461bcd60e51b815260206004820152601a60248201527f496e76616c696420656d61696c2066726f6d20616464726573730000000000006044820152606401610317565b6104e46104df876101000160046005610f97565b61106f565b6104f09061271061184c565b94506105066104df876101000160056007610f97565b6102008701356000818152600360205260409020549195506101e088013594509060ff16156105775760405162461bcd60e51b815260206004820152601b60248201527f456d61696c2068617320616c7265616479206265656e207573656400000000006044820152606401610317565b6000908152600360205260409020805460ff191660011790555092949193909250610220013590565b6105a861116b565b6105b260006111c5565b565b6105bc61116b565b600180546001600160a01b0319166001600160a01b0392909216919091179055565b600280546105eb90611770565b80601f016020809104026020016040519081016040528092919081815260200182805461061790611770565b80156106645780601f1061063957610100808354040283529160200191610664565b820191906000526020600020905b81548152906001019060200180831161064757829003601f168201915b505050505081565b60606002805461067b90611770565b80601f01602080910402602001604051908101604052809291908181526020018280546106a790611770565b80156106f45780601f106106c9576101008083540402835291602001916106f4565b820191906000526020600020905b8154815290600101906020018083116106d757829003601f168201915b5050505050905090565b61070661116b565b6001600160a01b03811661076b5760405162461bcd60e51b815260206004820152602660248201527f4f776e61626c653a206e6577206f776e657220697320746865207a65726f206160448201526564647265737360d01b6064820152608401610317565b610774816111c5565b50565b6000610e69565b7f30644e72e131a029b85045b68181585d97816a916871ca8d3c208c16d87cfd478110610774576000805260206000f35b600060405183815284602082015285604082015260408160608360076107d05a03fa9150816107e2576000805260206000f35b825160408201526020830151606082015260408360808360066107d05a03fa91505080610813576000805260206000f35b5050505050565b7f0b9d69a0ce54b74c409d5f38ed1a8531415d5cb19f62a77f5d7d0033db77827185527f155cae396b1df6b00aad22b3aae5ebeab857840d914f8d2b1b530487cbb92c116020860152600060808601866108b787357f0b77d10547c45d25c9ddb7a483bf29b7ae542ea4f8303198ee4cd2abc573efcc7f2ff91f7f22fa9e5d7b79e17434d93278172f1475c92f4cf8fd9f5589f81a4b68846107af565b61090760208801357f24f7ff606f126ec3f17ae41d5f94c36dad0a9c229d5c6ccf1cfda0f5d2e3e1497f1c321b10d03ceec57e07a058969d440079a0525bc33216be5c64998a1b5954e4846107af565b61095760408801357f093dbba67ed89d6c6e2e8c247c08f08aefbb66d504cb54b64c9dcfd6e2b1b8957f2e15ba54c2b915f389c5fb22d8195e6daca4f493c77a769819ab345bb71da15c846107af565b6109a760608801357f0323528df077fc9265b0632e90a0c76462d4940cf363a93911bb1fce43fffe287f1353211795699463ad5e51abb335e09ab44c245b6e6c030fd243daa0eaad7390846107af565b6109f760808801357f1072f42e19a4b2ff987ee86889cf5ca0aa2e4edc757f977f88120bf371b545357f20d543f8e63ec796b24757a8da254d80c71c1b8615fc2e875c0fe57b8a01ad95846107af565b610a4760a08801357f14d80299afa8d5c816dda7189d1fa18f291d2f29c34a38679202ad3b584f17707f16fa34e5dae169ef821cbf6090bd5ba311631c855302997af3b17026434a3b72846107af565b610a9760c08801357f0b220bbfb69467b9c23901bea1390017c10e01ee1e4493c8d0aecf62db6cdb667f282f734b339ba716abffc54573e7034afba8afabe59000dc07f80033f9a9a7f6846107af565b610ae760e08801357f104c4d18fa9053f81f530e7bed240eee7079ef33aa69370f4fc728309d8737467f0d0c362d50e3348ecb4f3b4f99967526b8b03eb46e4746ab04daae00e4f16222846107af565b610b386101008801357f1e50b4287543b7ba89fae82c502a9e731260fb4d0a93bb67fdcea5b383b9ecd67f2cd9ea6ff08f9cd3ffb5bccdd619b503a6b7a557732085db67b6126dad163e97846107af565b610b896101208801357f29c9739c297ba9d319c99c123d1404c15965dcd4d365dfea45dd14bfbf7efaf97f10345156644e8d327e3d7ff0ac06ab950a7e944c3f230fc2af3064b24367b185846107af565b50823581527f30644e72e131a029b85045b68181585d97816a916871ca8d3c208c16d87cfd4760208401357f30644e72e131a029b85045b68181585d97816a916871ca8d3c208c16d87cfd4703066020820152833560408201526020840135606082015260408401356080820152606084013560a08201527f2d4d9aa7e302d9df41749d5507949d05dbea33fbb16c643b22f599a2be6df2e260c08201527f14bedd503c37ceb061d8ec60209fe345ce89830a19230301f076caff004d192660e08201527f0967032fcbf776d1afc985f88877f182d38480a653f2decaa9794cbc3bf3060c6101008201527f0e187847ad4c798374d0d6732bf501847dd68bc0e071241e0213bc7fc13db7ab6101208201527f304cfbd1e08a704a99f5e847d93f8c3caafddec46b7a0d379da69a4d112346a76101408201527f1739c1b1a457a8c7313123d24d2f9192f896b7c63eea05a9d57f06547ad0cec8610160820152600087015161018082015260206000018701516101a08201527f198e9393920d483a7260bfb731fb5d25f1aa493335a9e71297e485b7aef312c26101c08201527f1800deef121f1e76426a00665e5c4479674322d4f75edadd46debd5cd992f6ed6101e08201527f090689d0585ff075ec9e99ad690c3395bc4b313370b38ef355acdadcd122975b6102008201527f12c85ea5db8c6deb4aab71808dcb408fe3d1e7690c43d37b4ce6cc0166fa7daa610220820152843561024082015260208501356102608201527f198e9393920d483a7260bfb731fb5d25f1aa493335a9e71297e485b7aef312c26102808201527f1800deef121f1e76426a00665e5c4479674322d4f75edadd46debd5cd992f6ed6102a08201527f090689d0585ff075ec9e99ad690c3395bc4b313370b38ef355acdadcd122975b6102c08201527f12c85ea5db8c6deb4aab71808dcb408fe3d1e7690c43d37b4ce6cc0166fa7daa6102e08201526020816103008360086107d05a03fa9051169695505050505050565b6040516103808101604052610e81600084013561077e565b610e8e602084013561077e565b610e9b604084013561077e565b610ea8606084013561077e565b610eb5608084013561077e565b610ec260a084013561077e565b610ecf60c084013561077e565b610edc60e084013561077e565b610eea61010084013561077e565b610ef861012084013561077e565b610f0661014084013561077e565b610f13818486888a61081a565b90508060005260206000f35b610f2761116b565b8051601514610f875760405162461bcd60e51b815260206004820152602660248201527f456d61696c2066726f6d2061646472657373206e6f742070726f7065726c79206044820152651c185919195960d21b6064820152608401610317565b6002610f9382826118b2565b5050565b60606000610fa58484611972565b60ff1667ffffffffffffffff811115610fc057610fc061160b565b604051908082528060200260200182016040528015610fe9578160200160208202803683370190505b50905060ff84165b8360ff1681101561104e578581600a811061100e5761100e61175a565b60200201358261102160ff88168461198b565b815181106110315761103161175a565b6020908102919091010152806110468161199e565b915050610ff1565b5061106661105c8585611972565b829060ff16611215565b95945050505050565b6000818180805b83518110156111615760308482815181106110935761109361175a565b016020015160f81c108015906110c3575060398482815181106110b8576110b861175a565b016020015160f81c11155b1561114f5782915060308482815181106110df576110df61175a565b01602001516110f1919060f81c611972565b60ff166110ff84600a61184c565b61110991906119b7565b92508183101561114f5760405162461bcd60e51b815260206004820152601160248201527013dd995c999b1bddc819195d1958dd1959607a1b6044820152606401610317565b806111598161199e565b915050611076565b5090949350505050565b6000546001600160a01b031633146105b25760405162461bcd60e51b815260206004820181905260248201527f4f776e61626c653a2063616c6c6572206973206e6f7420746865206f776e65726044820152606401610317565b600080546001600160a01b038381166001600160a01b0319831681178455604051919092169283917f8be0079c531659141344cd1fd0a4f28419497f9722a3daafe3b4186f6b6457e09190a35050565b6060600061122460078461184c565b905060008085516007611237919061184c565b67ffffffffffffffff81111561124f5761124f61160b565b6040519080825280601f01601f191660200182016040528015611279576020820181803683370190505b5090506000805b87518161ffff161015611412576000888261ffff16815181106112a5576112a561175a565b6020908102919091018101516040805160078082526101008201909252919350600092820160e08036833701905050905060005b6007811015611326576112ed81600861184c565b83901c8282815181106113025761130261175a565b60ff909216602092830291909101909101528061131e8161199e565b9150506112d9565b5060005b60078110156113fc5760008282815181106113475761134761175a565b602002602001015160ff169050806000146113bf578060f81b8787815181106113725761137261175a565b60200101906001600160f81b031916908160001a905350856113938161199e565b96506113a290506002896119ca565b60ff166000036113ba576113b76001896119fa565b97505b6113e2565b6113ca6002896119ca565b60ff166001036113e2576113df6001896119fa565b97505b5060089290921c91806113f48161199e565b91505061132a565b505050808061140a90611a13565b915050611280565b508194508260ff1660021461147e5760405162461bcd60e51b815260206004820152602c60248201527f496e76616c69642066696e616c207374617465206f66207061636b656420627960448201526b1d195cc81a5b88195b585a5b60a21b6064820152608401610317565b838111156114c25760405162461bcd60e51b815260206004820152601160248201527056656e6d6f20696420746f6f206c6f6e6760781b6044820152606401610317565b5050505092915050565b6000602082840312156114de57600080fd5b5035919050565b600061024082840312156114f857600080fd5b50919050565b6001600160a01b038116811461077457600080fd5b60006020828403121561152557600080fd5b8135611530816114fe565b9392505050565b60005b8381101561155257818101518382015260200161153a565b50506000910152565b602081526000825180602084015261157a816040850160208701611537565b601f01601f19169190910160400192915050565b806040810183101561159f57600080fd5b92915050565b6000806000806102408086880312156115bd57600080fd5b6115c7878761158e565b945060c08601878111156115da57600080fd5b6040870194506115ea888261158e565b9350508681870111156115fc57600080fd5b50929591945092610100019150565b634e487b7160e01b600052604160045260246000fd5b60006020828403121561163357600080fd5b813567ffffffffffffffff8082111561164b57600080fd5b818401915084601f83011261165f57600080fd5b8135818111156116715761167161160b565b604051601f8201601f19908116603f011681019083821181831017156116995761169961160b565b816040528281528760208487010111156116b257600080fd5b826020860160208301376000928101602001929092525095945050505050565b6000602082840312156116e457600080fd5b5051919050565b61024081016040808784378083018660005b600281101561171a578382843791830191908301906001016116fd565b505050808560c0850137506101408361010084013795945050505050565b60006020828403121561174a57600080fd5b8151801515811461153057600080fd5b634e487b7160e01b600052603260045260246000fd5b600181811c9082168061178457607f821691505b6020821081036114f857634e487b7160e01b600052602260045260246000fd5b60008083546117b281611770565b600182811680156117ca57600181146117df5761180e565b60ff198416875282151583028701945061180e565b8760005260208060002060005b858110156118055781548a8201529084019082016117ec565b50505082870194505b50929695505050505050565b6000825161182c818460208701611537565b9190910192915050565b634e487b7160e01b600052601160045260246000fd5b808202811582820484141761159f5761159f611836565b601f8211156118ad57600081815260208120601f850160051c8101602086101561188a5750805b601f850160051c820191505b818110156118a957828155600101611896565b5050505b505050565b815167ffffffffffffffff8111156118cc576118cc61160b565b6118e0816118da8454611770565b84611863565b602080601f83116001811461191557600084156118fd5750858301515b600019600386901b1c1916600185901b1785556118a9565b600085815260208120601f198616915b8281101561194457888601518255948401946001909101908401611925565b50858210156119625787850151600019600388901b60f8161c191681555b5050505050600190811b01905550565b60ff828116828216039081111561159f5761159f611836565b8181038181111561159f5761159f611836565b6000600182016119b0576119b0611836565b5060010190565b8082018082111561159f5761159f611836565b600060ff8316806119eb57634e487b7160e01b600052601260045260246000fd5b8060ff84160691505092915050565b60ff818116838216019081111561159f5761159f611836565b600061ffff808316818103611a2a57611a2a611836565b600101939250505056fea26469706673582212200dc7b7c9968a0828cdb5223e368a3e1d9407e9a6f000454b958e5c7f525af9cb64736f6c63430008120033",
  "devdoc": {
    "kind": "dev",
    "methods": {
      "owner()": {
        "details": "Returns the address of the current owner."
      },
      "renounceOwnership()": {
        "details": "Leaves the contract without owner. It will not be possible to call `onlyOwner` functions. Can only be called by the current owner. NOTE: Renouncing ownership will leave the contract without an owner, thereby disabling any functionality that is only available to the owner."
      },
      "transferOwnership(address)": {
        "details": "Transfers ownership of the contract to a new account (`newOwner`). Can only be called by the current owner."
      }
    },
    "version": 1
  },
  "userdoc": {
    "kind": "user",
    "methods": {},
    "version": 1
  },
  "storageLayout": {
    "storage": [
      {
        "astId": 7,
        "contract": "contracts/processors/VenmoSendProcessor.sol:VenmoSendProcessor",
        "label": "_owner",
        "offset": 0,
        "slot": "0",
        "type": "t_address"
      },
      {
        "astId": 3021,
        "contract": "contracts/processors/VenmoSendProcessor.sol:VenmoSendProcessor",
        "label": "venmoMailserverKeyHashAdapter",
        "offset": 0,
        "slot": "1",
        "type": "t_contract(IKeyHashAdapter)3778"
      },
      {
        "astId": 3023,
        "contract": "contracts/processors/VenmoSendProcessor.sol:VenmoSendProcessor",
        "label": "emailFromAddress",
        "offset": 0,
        "slot": "2",
        "type": "t_bytes_storage"
      },
      {
        "astId": 3552,
        "contract": "contracts/processors/VenmoSendProcessor.sol:VenmoSendProcessor",
        "label": "isEmailNullified",
        "offset": 0,
        "slot": "3",
        "type": "t_mapping(t_bytes32,t_bool)"
      }
    ],
    "types": {
      "t_address": {
        "encoding": "inplace",
        "label": "address",
        "numberOfBytes": "20"
      },
      "t_bool": {
        "encoding": "inplace",
        "label": "bool",
        "numberOfBytes": "1"
      },
      "t_bytes32": {
        "encoding": "inplace",
        "label": "bytes32",
        "numberOfBytes": "32"
      },
      "t_bytes_storage": {
        "encoding": "bytes",
        "label": "bytes",
        "numberOfBytes": "32"
      },
      "t_contract(IKeyHashAdapter)3778": {
        "encoding": "inplace",
        "label": "contract IKeyHashAdapter",
        "numberOfBytes": "20"
      },
      "t_mapping(t_bytes32,t_bool)": {
        "encoding": "mapping",
        "key": "t_bytes32",
        "label": "mapping(bytes32 => bool)",
        "numberOfBytes": "32",
        "value": "t_bool"
      }
    }
  }
}