{
  "address": "0x951E072a8eD9ad9F8dCe89a3Be274a96966097Bb",
  "abi": [
    {
      "inputs": [
        {
          "internalType": "address",
          "name": "_ramp",
          "type": "address"
        },
        {
          "internalType": "contract IKeyHashAdapter",
          "name": "_venmoMailserverKeyHashAdapter",
          "type": "address"
        },
        {
          "internalType": "string",
          "name": "_emailFromAddress",
          "type": "string"
        }
      ],
      "stateMutability": "nonpayable",
      "type": "constructor"
    },
    {
      "anonymous": false,
      "inputs": [
        {
          "indexed": true,
          "internalType": "address",
          "name": "previousOwner",
          "type": "address"
        },
        {
          "indexed": true,
          "internalType": "address",
          "name": "newOwner",
          "type": "address"
        }
      ],
      "name": "OwnershipTransferred",
      "type": "event"
    },
    {
      "inputs": [],
      "name": "emailFromAddress",
      "outputs": [
        {
          "internalType": "bytes",
          "name": "",
          "type": "bytes"
        }
      ],
      "stateMutability": "view",
      "type": "function"
    },
    {
      "inputs": [],
      "name": "getEmailFromAddress",
      "outputs": [
        {
          "internalType": "bytes",
          "name": "",
          "type": "bytes"
        }
      ],
      "stateMutability": "view",
      "type": "function"
    },
    {
      "inputs": [],
      "name": "getVenmoMailserverKeyHash",
      "outputs": [
        {
          "internalType": "bytes32",
          "name": "",
          "type": "bytes32"
        }
      ],
      "stateMutability": "view",
      "type": "function"
    },
    {
      "inputs": [
        {
          "internalType": "bytes32",
          "name": "",
          "type": "bytes32"
        }
      ],
      "name": "isEmailNullified",
      "outputs": [
        {
          "internalType": "bool",
          "name": "",
          "type": "bool"
        }
      ],
      "stateMutability": "view",
      "type": "function"
    },
    {
      "inputs": [],
      "name": "owner",
      "outputs": [
        {
          "internalType": "address",
          "name": "",
          "type": "address"
        }
      ],
      "stateMutability": "view",
      "type": "function"
    },
    {
      "inputs": [
        {
          "components": [
            {
              "internalType": "uint256[2]",
              "name": "a",
              "type": "uint256[2]"
            },
            {
              "internalType": "uint256[2][2]",
              "name": "b",
              "type": "uint256[2][2]"
            },
            {
              "internalType": "uint256[2]",
              "name": "c",
              "type": "uint256[2]"
            },
            {
              "internalType": "uint256[8]",
              "name": "signals",
              "type": "uint256[8]"
            }
          ],
          "internalType": "struct ISendProcessor.SendProof",
          "name": "_proof",
          "type": "tuple"
        }
      ],
      "name": "processProof",
      "outputs": [
        {
          "internalType": "uint256",
          "name": "amount",
          "type": "uint256"
        },
        {
          "internalType": "bytes32",
          "name": "offRamperIdHash",
          "type": "bytes32"
        },
        {
          "internalType": "bytes32",
          "name": "intentHash",
          "type": "bytes32"
        }
      ],
      "stateMutability": "nonpayable",
      "type": "function"
    },
    {
      "inputs": [],
      "name": "ramp",
      "outputs": [
        {
          "internalType": "address",
          "name": "",
          "type": "address"
        }
      ],
      "stateMutability": "view",
      "type": "function"
    },
    {
      "inputs": [],
      "name": "renounceOwnership",
      "outputs": [],
      "stateMutability": "nonpayable",
      "type": "function"
    },
    {
      "inputs": [
        {
          "internalType": "string",
          "name": "_emailFromAddress",
          "type": "string"
        }
      ],
      "name": "setEmailFromAddress",
      "outputs": [],
      "stateMutability": "nonpayable",
      "type": "function"
    },
    {
      "inputs": [
        {
          "internalType": "contract IKeyHashAdapter",
          "name": "_venmoMailserverKeyHashAdapter",
          "type": "address"
        }
      ],
      "name": "setVenmoMailserverKeyHashAdapter",
      "outputs": [],
      "stateMutability": "nonpayable",
      "type": "function"
    },
    {
      "inputs": [
        {
          "internalType": "address",
          "name": "newOwner",
          "type": "address"
        }
      ],
      "name": "transferOwnership",
      "outputs": [],
      "stateMutability": "nonpayable",
      "type": "function"
    },
    {
      "inputs": [],
      "name": "venmoMailserverKeyHashAdapter",
      "outputs": [
        {
          "internalType": "contract IKeyHashAdapter",
          "name": "",
          "type": "address"
        }
      ],
      "stateMutability": "view",
      "type": "function"
    },
    {
      "inputs": [
        {
          "internalType": "uint256[2]",
          "name": "_pA",
          "type": "uint256[2]"
        },
        {
          "internalType": "uint256[2][2]",
          "name": "_pB",
          "type": "uint256[2][2]"
        },
        {
          "internalType": "uint256[2]",
          "name": "_pC",
          "type": "uint256[2]"
        },
        {
          "internalType": "uint256[8]",
          "name": "_pubSignals",
          "type": "uint256[8]"
        }
      ],
      "name": "verifyProof",
      "outputs": [
        {
          "internalType": "bool",
          "name": "",
          "type": "bool"
        }
      ],
      "stateMutability": "view",
      "type": "function"
    }
  ],
  "transactionHash": "0x607ceaa2f0deefc266289252e6d021664e562fcf07638a446ca0ff2eedbe8977",
  "args": [
    "0x75422735DD94dfD04b7ef5D7044Aba0ce4E3a7A6",
    "0xaF4c9cb40eAFc51E39707aCDaA4eF3e6FF6e896c",
    "venmo@venmo.com\u0000\u0000\u0000\u0000\u0000\u0000"
  ],
  "numDeployments": 1,
  "solcInputHash": "0f6f733793778c923a11e6741a881b15",
  "bytecode": "0x60a06040523480156200001157600080fd5b5060405162001d7138038062001d71833981016040819052620000349162000166565b8282826200004233620000e7565b8051601514620000a75760405162461bcd60e51b815260206004820152602660248201527f456d61696c2066726f6d2061646472657373206e6f742070726f7065726c79206044820152651c185919195960d21b606482015260840160405180910390fd5b6001600160a01b03838116608052600180546001600160a01b0319169184169190911790556002620000da8282620002f5565b50505050505050620003c1565b600080546001600160a01b038381166001600160a01b0319831681178455604051919092169283917f8be0079c531659141344cd1fd0a4f28419497f9722a3daafe3b4186f6b6457e09190a35050565b6001600160a01b03811681146200014d57600080fd5b50565b634e487b7160e01b600052604160045260246000fd5b6000806000606084860312156200017c57600080fd5b8351620001898162000137565b809350506020808501516200019e8162000137565b60408601519093506001600160401b0380821115620001bc57600080fd5b818701915087601f830112620001d157600080fd5b815181811115620001e657620001e662000150565b604051601f8201601f19908116603f0116810190838211818310171562000211576200021162000150565b816040528281528a868487010111156200022a57600080fd5b600093505b828410156200024e57848401860151818501870152928501926200022f565b60008684830101528096505050505050509250925092565b600181811c908216806200027b57607f821691505b6020821081036200029c57634e487b7160e01b600052602260045260246000fd5b50919050565b601f821115620002f057600081815260208120601f850160051c81016020861015620002cb5750805b601f850160051c820191505b81811015620002ec57828155600101620002d7565b5050505b505050565b81516001600160401b0381111562000311576200031162000150565b620003298162000322845462000266565b84620002a2565b602080601f831160018114620003615760008415620003485750858301515b600019600386901b1c1916600185901b178555620002ec565b600085815260208120601f198616915b82811015620003925788860151825594840194600190910190840162000371565b5085821015620003b15787850151600019600388901b60f8161c191681555b5050505050600190811b01905550565b60805161198e620003e36000396000818160d90152610235015261198e6000f3fe608060405234801561001057600080fd5b50600436106100cf5760003560e01c80638da5cb5b1161008c578063c9219a7a11610066578063c9219a7a146101e5578063ced1e978146101f8578063f2fde38b14610200578063f6c7226b1461021357600080fd5b80638da5cb5b146101ac5780639563a257146101bd578063c0d05fed146101d057600080fd5b806315d276e1146100d457806327644b3f146101185780632be459a01461014b57806355f65ba814610179578063715018a61461018f57806389dd2db014610199575b600080fd5b6100fb7f000000000000000000000000000000000000000000000000000000000000000081565b6040516001600160a01b0390911681526020015b60405180910390f35b61013b6101263660046113f0565b60036020526000908152604090205460ff1681565b604051901515815260200161010f565b61015e610159366004611409565b610226565b6040805193845260208401929092529082015260600161010f565b61018161050f565b60405190815260200161010f565b610197610582565b005b6101976101a7366004611437565b610596565b6000546001600160a01b03166100fb565b6001546100fb906001600160a01b031681565b6101d86105c0565b60405161010f919061147f565b61013b6101f33660046114c9565b61064e565b6101d8610d3b565b61019761020e366004611437565b610dcd565b610197610221366004611545565b610e43565b60008080336001600160a01b037f000000000000000000000000000000000000000000000000000000000000000016146102a75760405162461bcd60e51b815260206004820181905260248201527f4f6e6c792052616d702063616e2063616c6c20746869732066756e6374696f6e60448201526064015b60405180910390fd5b60408051636490cd3d60e11b8152309163c9219a7a916102da9188919082019060c08301906101008401906004016115f6565b602060405180830381865afa1580156102f7573d6000803e3d6000fd5b505050506040513d601f19601f8201168201806040525081019061031b9190611643565b6103575760405162461bcd60e51b815260206004820152600d60248201526c24b73b30b634b210283937b7b360991b604482015260640161029e565b61035f61050f565b610100850135146103b25760405162461bcd60e51b815260206004820152601b60248201527f496e76616c6964206d61696c736572766572206b657920686173680000000000604482015260640161029e565b60006103c5856101000160016004610ebb565b905060026040516103d691906116af565b6040518091039020816040516020016103ef9190611725565b60405160208183030381529060405280519060200120146104525760405162461bcd60e51b815260206004820152601a60248201527f496e76616c696420656d61696c2066726f6d2061646472657373000000000000604482015260640161029e565b61046b610466866101000160046005610ebb565b610f93565b61047790612710611757565b6101c08601356000818152600360205260409020549195506101a087013594509060ff16156104e85760405162461bcd60e51b815260206004820152601b60248201527f456d61696c2068617320616c7265616479206265656e20757365640000000000604482015260640161029e565b6000908152600360205260409020805460ff1916600117905550919390926101e001359150565b6001546040805163fe1a279160e01b815290516000926001600160a01b03169163fe1a27919160048083019260209291908290030181865afa158015610559573d6000803e3d6000fd5b505050506040513d601f19601f8201168201806040525081019061057d919061176e565b905090565b61058a61108f565b61059460006110e9565b565b61059e61108f565b600180546001600160a01b0319166001600160a01b0392909216919091179055565b600280546105cd9061167b565b80601f01602080910402602001604051908101604052809291908181526020018280546105f99061167b565b80156106465780601f1061061b57610100808354040283529160200191610646565b820191906000526020600020905b81548152906001019060200180831161062957829003601f168201915b505050505081565b6000610ca1565b7f30644e72e131a029b85045b68181585d97816a916871ca8d3c208c16d87cfd478110610686576000805260206000f35b50565b600060405183815284602082015285604082015260408160608360076107d05a03fa9150816106bc576000805260206000f35b825160408201526020830151606082015260408360808360066107d05a03fa915050806106ed576000805260206000f35b5050505050565b7f25c78ca21b4a31dfde3210ea39851f2cbdd7716ef817c170d01da5a8534b5e5f85527f1bc0730eeae207d626dfed261373f99fd7e3b425accd220df4cd88761dc070e760208601526000608086018661079187357f023a7402e2ad0bd12b1e2fa995558ad79ca4b7c5a258677f014cda70967a023d7f0e45c4e24fa0eabcf91024c70629fcf9d02724c592ea1d46190ad7a3007cb6e984610689565b6107e160208801357f07a020afd00d006dae68ef5dd993e7ecd2b39a497a8f67f64383e9494b23f9147f10bb8e1cbc1b1b2ad70827ff4842cdb9410582891c0277b78b69eb14cd26801384610689565b61083160408801357f1328d0816e763f8a147e233bff512609122d3ebd78a9205b07c4a097c49bf6d97f1affa51e07a361a2657ef22a03689bf798cbdc6d9e7756fbbf8a8e9e1ae2675484610689565b61088160608801357f013f8d50d20cd180a5ce2b1b5f9f80a14f592e3266c6ae1ace74ce93466dbfd97f14fb1eca3855a803cd1efa97dbead7d7d092c0fde69981c7c60e9b046f659b1d84610689565b6108d160808801357f2ac38ada2fff3bd26151520fd26a4c6ce48dedd00f9f2b36583a043e743802ed7f20e7a17b44dacdf128727bd718d6791b98e2703a145483f2a4cfad1bb4fa212284610689565b61092160a08801357f07b6c1121b5a9a1865f5016d848b85ed5131c8cb80985c6dd97848585fecbe247f1117e5460857a865a67d03b9ff8554bb935447b634107514d5c86a3ad1e35d2184610689565b61097160c08801357f282d345c901a61ae96d5926a0574523a4daa1964c92db469d858b27dde2c1d317f0e40cf97b021dd034c61edb1d7f141403eb4e9a8525351ffd63f7d886da24e8284610689565b6109c160e08801357f2ef3c3abcbb88a4d0638f68109d84abffb33eadb916ba38514a291ac398c414d7f2e0e29d03c1064f701d258826094c16dc6b245d549fe791ee7d9a754c49d2d1684610689565b50823581527f30644e72e131a029b85045b68181585d97816a916871ca8d3c208c16d87cfd4760208401357f30644e72e131a029b85045b68181585d97816a916871ca8d3c208c16d87cfd4703066020820152833560408201526020840135606082015260408401356080820152606084013560a08201527f2d4d9aa7e302d9df41749d5507949d05dbea33fbb16c643b22f599a2be6df2e260c08201527f14bedd503c37ceb061d8ec60209fe345ce89830a19230301f076caff004d192660e08201527f0967032fcbf776d1afc985f88877f182d38480a653f2decaa9794cbc3bf3060c6101008201527f0e187847ad4c798374d0d6732bf501847dd68bc0e071241e0213bc7fc13db7ab6101208201527f304cfbd1e08a704a99f5e847d93f8c3caafddec46b7a0d379da69a4d112346a76101408201527f1739c1b1a457a8c7313123d24d2f9192f896b7c63eea05a9d57f06547ad0cec8610160820152600087015161018082015260206000018701516101a08201527f198e9393920d483a7260bfb731fb5d25f1aa493335a9e71297e485b7aef312c26101c08201527f1800deef121f1e76426a00665e5c4479674322d4f75edadd46debd5cd992f6ed6101e08201527f090689d0585ff075ec9e99ad690c3395bc4b313370b38ef355acdadcd122975b6102008201527f12c85ea5db8c6deb4aab71808dcb408fe3d1e7690c43d37b4ce6cc0166fa7daa610220820152843561024082015260208501356102608201527f198e9393920d483a7260bfb731fb5d25f1aa493335a9e71297e485b7aef312c26102808201527f1800deef121f1e76426a00665e5c4479674322d4f75edadd46debd5cd992f6ed6102a08201527f090689d0585ff075ec9e99ad690c3395bc4b313370b38ef355acdadcd122975b6102c08201527f12c85ea5db8c6deb4aab71808dcb408fe3d1e7690c43d37b4ce6cc0166fa7daa6102e08201526020816103008360086107d05a03fa9051169695505050505050565b6040516103808101604052610cb96000840135610655565b610cc66020840135610655565b610cd36040840135610655565b610ce06060840135610655565b610ced6080840135610655565b610cfa60a0840135610655565b610d0760c0840135610655565b610d1460e0840135610655565b610d22610100840135610655565b610d2f818486888a6106f4565b90508060005260206000f35b606060028054610d4a9061167b565b80601f0160208091040260200160405190810160405280929190818152602001828054610d769061167b565b8015610dc35780601f10610d9857610100808354040283529160200191610dc3565b820191906000526020600020905b815481529060010190602001808311610da657829003601f168201915b5050505050905090565b610dd561108f565b6001600160a01b038116610e3a5760405162461bcd60e51b815260206004820152602660248201527f4f776e61626c653a206e6577206f776e657220697320746865207a65726f206160448201526564647265737360d01b606482015260840161029e565b610686816110e9565b610e4b61108f565b8051601514610eab5760405162461bcd60e51b815260206004820152602660248201527f456d61696c2066726f6d2061646472657373206e6f742070726f7065726c79206044820152651c185919195960d21b606482015260840161029e565b6002610eb782826117d6565b5050565b60606000610ec98484611896565b60ff1667ffffffffffffffff811115610ee457610ee461152f565b604051908082528060200260200182016040528015610f0d578160200160208202803683370190505b50905060ff84165b8360ff16811015610f7257858160088110610f3257610f32611665565b602002013582610f4560ff8816846118af565b81518110610f5557610f55611665565b602090810291909101015280610f6a816118c2565b915050610f15565b50610f8a610f808585611896565b829060ff16611139565b95945050505050565b6000818180805b8351811015611085576030848281518110610fb757610fb7611665565b016020015160f81c10801590610fe757506039848281518110610fdc57610fdc611665565b016020015160f81c11155b1561107357829150603084828151811061100357611003611665565b0160200151611015919060f81c611896565b60ff1661102384600a611757565b61102d91906118db565b9250818310156110735760405162461bcd60e51b815260206004820152601160248201527013dd995c999b1bddc819195d1958dd1959607a1b604482015260640161029e565b8061107d816118c2565b915050610f9a565b5090949350505050565b6000546001600160a01b031633146105945760405162461bcd60e51b815260206004820181905260248201527f4f776e61626c653a2063616c6c6572206973206e6f7420746865206f776e6572604482015260640161029e565b600080546001600160a01b038381166001600160a01b0319831681178455604051919092169283917f8be0079c531659141344cd1fd0a4f28419497f9722a3daafe3b4186f6b6457e09190a35050565b60606000611148600784611757565b90506000808551600761115b9190611757565b67ffffffffffffffff8111156111735761117361152f565b6040519080825280601f01601f19166020018201604052801561119d576020820181803683370190505b5090506000805b87518161ffff161015611336576000888261ffff16815181106111c9576111c9611665565b6020908102919091018101516040805160078082526101008201909252919350600092820160e08036833701905050905060005b600781101561124a57611211816008611757565b83901c82828151811061122657611226611665565b60ff9092166020928302919091019091015280611242816118c2565b9150506111fd565b5060005b600781101561132057600082828151811061126b5761126b611665565b602002602001015160ff169050806000146112e3578060f81b87878151811061129657611296611665565b60200101906001600160f81b031916908160001a905350856112b7816118c2565b96506112c690506002896118ee565b60ff166000036112de576112db60018961191e565b97505b611306565b6112ee6002896118ee565b60ff166001036113065761130360018961191e565b97505b5060089290921c9180611318816118c2565b91505061124e565b505050808061132e90611937565b9150506111a4565b508194508260ff166002146113a25760405162461bcd60e51b815260206004820152602c60248201527f496e76616c69642066696e616c207374617465206f66207061636b656420627960448201526b1d195cc81a5b88195b585a5b60a21b606482015260840161029e565b838111156113e65760405162461bcd60e51b815260206004820152601160248201527056656e6d6f20696420746f6f206c6f6e6760781b604482015260640161029e565b5050505092915050565b60006020828403121561140257600080fd5b5035919050565b6000610200828403121561141c57600080fd5b50919050565b6001600160a01b038116811461068657600080fd5b60006020828403121561144957600080fd5b813561145481611422565b9392505050565b60005b8381101561147657818101518382015260200161145e565b50506000910152565b602081526000825180602084015261149e81604085016020870161145b565b601f01601f19169190910160400192915050565b80604081018310156114c357600080fd5b92915050565b6000806000806102008086880312156114e157600080fd5b6114eb87876114b2565b945060c08601878111156114fe57600080fd5b60408701945061150e88826114b2565b93505086818701111561152057600080fd5b50929591945092610100019150565b634e487b7160e01b600052604160045260246000fd5b60006020828403121561155757600080fd5b813567ffffffffffffffff8082111561156f57600080fd5b818401915084601f83011261158357600080fd5b8135818111156115955761159561152f565b604051601f8201601f19908116603f011681019083821181831017156115bd576115bd61152f565b816040528281528760208487010111156115d657600080fd5b826020860160208301376000928101602001929092525095945050505050565b61020081016040808784378083018660005b600281101561162557838284379183019190830190600101611608565b505050808560c0850137506101008084828501375095945050505050565b60006020828403121561165557600080fd5b8151801515811461145457600080fd5b634e487b7160e01b600052603260045260246000fd5b600181811c9082168061168f57607f821691505b60208210810361141c57634e487b7160e01b600052602260045260246000fd5b60008083546116bd8161167b565b600182811680156116d557600181146116ea57611719565b60ff1984168752821515830287019450611719565b8760005260208060002060005b858110156117105781548a8201529084019082016116f7565b50505082870194505b50929695505050505050565b6000825161173781846020870161145b565b9190910192915050565b634e487b7160e01b600052601160045260246000fd5b80820281158282048414176114c3576114c3611741565b60006020828403121561178057600080fd5b5051919050565b601f8211156117d157600081815260208120601f850160051c810160208610156117ae5750805b601f850160051c820191505b818110156117cd578281556001016117ba565b5050505b505050565b815167ffffffffffffffff8111156117f0576117f061152f565b611804816117fe845461167b565b84611787565b602080601f83116001811461183957600084156118215750858301515b600019600386901b1c1916600185901b1785556117cd565b600085815260208120601f198616915b8281101561186857888601518255948401946001909101908401611849565b50858210156118865787850151600019600388901b60f8161c191681555b5050505050600190811b01905550565b60ff82811682821603908111156114c3576114c3611741565b818103818111156114c3576114c3611741565b6000600182016118d4576118d4611741565b5060010190565b808201808211156114c3576114c3611741565b600060ff83168061190f57634e487b7160e01b600052601260045260246000fd5b8060ff84160691505092915050565b60ff81811683821601908111156114c3576114c3611741565b600061ffff80831681810361194e5761194e611741565b600101939250505056fea2646970667358221220fb7eda9657e9745e3809846ac5cdef3e16e6901460122f1680ae7817b5c62ead64736f6c63430008120033",
  "devdoc": {
    "kind": "dev",
    "methods": {
      "owner()": {
        "details": "Returns the address of the current owner."
      },
      "renounceOwnership()": {
        "details": "Leaves the contract without owner. It will not be possible to call `onlyOwner` functions. Can only be called by the current owner. NOTE: Renouncing ownership will leave the contract without an owner, thereby disabling any functionality that is only available to the owner."
      },
      "transferOwnership(address)": {
        "details": "Transfers ownership of the contract to a new account (`newOwner`). Can only be called by the current owner."
      }
    },
    "version": 1
  },
  "userdoc": {
    "kind": "user",
    "methods": {},
    "version": 1
  },
  "storageLayout": {
    "storage": [
      {
        "astId": 7,
        "contract": "contracts/processors/VenmoSendProcessor.sol:VenmoSendProcessor",
        "label": "_owner",
        "offset": 0,
        "slot": "0",
        "type": "t_address"
      },
      {
        "astId": 3849,
        "contract": "contracts/processors/VenmoSendProcessor.sol:VenmoSendProcessor",
        "label": "venmoMailserverKeyHashAdapter",
        "offset": 0,
        "slot": "1",
        "type": "t_contract(IKeyHashAdapter)4593"
      },
      {
        "astId": 3851,
        "contract": "contracts/processors/VenmoSendProcessor.sol:VenmoSendProcessor",
        "label": "emailFromAddress",
        "offset": 0,
        "slot": "2",
        "type": "t_bytes_storage"
      },
      {
        "astId": 4380,
        "contract": "contracts/processors/VenmoSendProcessor.sol:VenmoSendProcessor",
        "label": "isEmailNullified",
        "offset": 0,
        "slot": "3",
        "type": "t_mapping(t_bytes32,t_bool)"
      }
    ],
    "types": {
      "t_address": {
        "encoding": "inplace",
        "label": "address",
        "numberOfBytes": "20"
      },
      "t_bool": {
        "encoding": "inplace",
        "label": "bool",
        "numberOfBytes": "1"
      },
      "t_bytes32": {
        "encoding": "inplace",
        "label": "bytes32",
        "numberOfBytes": "32"
      },
      "t_bytes_storage": {
        "encoding": "bytes",
        "label": "bytes",
        "numberOfBytes": "32"
      },
      "t_contract(IKeyHashAdapter)4593": {
        "encoding": "inplace",
        "label": "contract IKeyHashAdapter",
        "numberOfBytes": "20"
      },
      "t_mapping(t_bytes32,t_bool)": {
        "encoding": "mapping",
        "key": "t_bytes32",
        "label": "mapping(bytes32 => bool)",
        "numberOfBytes": "32",
        "value": "t_bool"
      }
    }
  }
}