{
  "address": "0xF05627d52F3b4b173002Ee64E90FEc169db77057",
  "abi": [
    {
      "inputs": [
        {
          "internalType": "address",
          "name": "_ramp",
          "type": "address"
        },
        {
          "internalType": "contract IKeyHashAdapter",
          "name": "_venmoMailserverKeyHashAdapter",
          "type": "address"
        },
        {
          "internalType": "string",
          "name": "_emailFromAddress",
          "type": "string"
        }
      ],
      "stateMutability": "nonpayable",
      "type": "constructor"
    },
    {
      "anonymous": false,
      "inputs": [
        {
          "indexed": true,
          "internalType": "address",
          "name": "previousOwner",
          "type": "address"
        },
        {
          "indexed": true,
          "internalType": "address",
          "name": "newOwner",
          "type": "address"
        }
      ],
      "name": "OwnershipTransferred",
      "type": "event"
    },
    {
      "inputs": [],
      "name": "emailFromAddress",
      "outputs": [
        {
          "internalType": "bytes",
          "name": "",
          "type": "bytes"
        }
      ],
      "stateMutability": "view",
      "type": "function"
    },
    {
      "inputs": [],
      "name": "getEmailFromAddress",
      "outputs": [
        {
          "internalType": "bytes",
          "name": "",
          "type": "bytes"
        }
      ],
      "stateMutability": "view",
      "type": "function"
    },
    {
      "inputs": [],
      "name": "getVenmoMailserverKeyHash",
      "outputs": [
        {
          "internalType": "bytes32",
          "name": "",
          "type": "bytes32"
        }
      ],
      "stateMutability": "view",
      "type": "function"
    },
    {
      "inputs": [
        {
          "internalType": "bytes32",
          "name": "",
          "type": "bytes32"
        }
      ],
      "name": "isEmailNullified",
      "outputs": [
        {
          "internalType": "bool",
          "name": "",
          "type": "bool"
        }
      ],
      "stateMutability": "view",
      "type": "function"
    },
    {
      "inputs": [],
      "name": "owner",
      "outputs": [
        {
          "internalType": "address",
          "name": "",
          "type": "address"
        }
      ],
      "stateMutability": "view",
      "type": "function"
    },
    {
      "inputs": [
        {
          "components": [
            {
              "internalType": "uint256[2]",
              "name": "a",
              "type": "uint256[2]"
            },
            {
              "internalType": "uint256[2][2]",
              "name": "b",
              "type": "uint256[2][2]"
            },
            {
              "internalType": "uint256[2]",
              "name": "c",
              "type": "uint256[2]"
            },
            {
              "internalType": "uint256[9]",
              "name": "signals",
              "type": "uint256[9]"
            }
          ],
          "internalType": "struct IReceiveProcessor.ReceiveProof",
          "name": "_proof",
          "type": "tuple"
        }
      ],
      "name": "processProof",
      "outputs": [
        {
          "internalType": "uint256",
          "name": "timestamp",
          "type": "uint256"
        },
        {
          "internalType": "bytes32",
          "name": "onRamperIdHash",
          "type": "bytes32"
        },
        {
          "internalType": "bytes32",
          "name": "intentHash",
          "type": "bytes32"
        }
      ],
      "stateMutability": "nonpayable",
      "type": "function"
    },
    {
      "inputs": [],
      "name": "ramp",
      "outputs": [
        {
          "internalType": "address",
          "name": "",
          "type": "address"
        }
      ],
      "stateMutability": "view",
      "type": "function"
    },
    {
      "inputs": [],
      "name": "renounceOwnership",
      "outputs": [],
      "stateMutability": "nonpayable",
      "type": "function"
    },
    {
      "inputs": [
        {
          "internalType": "string",
          "name": "_emailFromAddress",
          "type": "string"
        }
      ],
      "name": "setEmailFromAddress",
      "outputs": [],
      "stateMutability": "nonpayable",
      "type": "function"
    },
    {
      "inputs": [
        {
          "internalType": "contract IKeyHashAdapter",
          "name": "_venmoMailserverKeyHashAdapter",
          "type": "address"
        }
      ],
      "name": "setVenmoMailserverKeyHashAdapter",
      "outputs": [],
      "stateMutability": "nonpayable",
      "type": "function"
    },
    {
      "inputs": [
        {
          "internalType": "address",
          "name": "newOwner",
          "type": "address"
        }
      ],
      "name": "transferOwnership",
      "outputs": [],
      "stateMutability": "nonpayable",
      "type": "function"
    },
    {
      "inputs": [],
      "name": "venmoMailserverKeyHashAdapter",
      "outputs": [
        {
          "internalType": "contract IKeyHashAdapter",
          "name": "",
          "type": "address"
        }
      ],
      "stateMutability": "view",
      "type": "function"
    },
    {
      "inputs": [
        {
          "internalType": "uint256[2]",
          "name": "_pA",
          "type": "uint256[2]"
        },
        {
          "internalType": "uint256[2][2]",
          "name": "_pB",
          "type": "uint256[2][2]"
        },
        {
          "internalType": "uint256[2]",
          "name": "_pC",
          "type": "uint256[2]"
        },
        {
          "internalType": "uint256[9]",
          "name": "_pubSignals",
          "type": "uint256[9]"
        }
      ],
      "name": "verifyProof",
      "outputs": [
        {
          "internalType": "bool",
          "name": "",
          "type": "bool"
        }
      ],
      "stateMutability": "view",
      "type": "function"
    }
  ],
  "transactionHash": "0xb3f21d18eaa372fa066847136e9aa5dc5058e2f442c2928c946e320f1b494875",
  "args": [
    "0x75422735DD94dfD04b7ef5D7044Aba0ce4E3a7A6",
    "0xaF4c9cb40eAFc51E39707aCDaA4eF3e6FF6e896c",
    "venmo@venmo.com\u0000\u0000\u0000\u0000\u0000\u0000"
  ],
  "numDeployments": 1,
  "solcInputHash": "0f6f733793778c923a11e6741a881b15",
  "bytecode": "0x60a06040523480156200001157600080fd5b5060405162001dc438038062001dc4833981016040819052620000349162000166565b8282826200004233620000e7565b8051601514620000a75760405162461bcd60e51b815260206004820152602660248201527f456d61696c2066726f6d2061646472657373206e6f742070726f7065726c79206044820152651c185919195960d21b606482015260840160405180910390fd5b6001600160a01b03838116608052600180546001600160a01b0319169184169190911790556002620000da8282620002f5565b50505050505050620003c1565b600080546001600160a01b038381166001600160a01b0319831681178455604051919092169283917f8be0079c531659141344cd1fd0a4f28419497f9722a3daafe3b4186f6b6457e09190a35050565b6001600160a01b03811681146200014d57600080fd5b50565b634e487b7160e01b600052604160045260246000fd5b6000806000606084860312156200017c57600080fd5b8351620001898162000137565b809350506020808501516200019e8162000137565b60408601519093506001600160401b0380821115620001bc57600080fd5b818701915087601f830112620001d157600080fd5b815181811115620001e657620001e662000150565b604051601f8201601f19908116603f0116810190838211818310171562000211576200021162000150565b816040528281528a868487010111156200022a57600080fd5b600093505b828410156200024e57848401860151818501870152928501926200022f565b60008684830101528096505050505050509250925092565b600181811c908216806200027b57607f821691505b6020821081036200029c57634e487b7160e01b600052602260045260246000fd5b50919050565b601f821115620002f057600081815260208120601f850160051c81016020861015620002cb5750805b601f850160051c820191505b81811015620002ec57828155600101620002d7565b5050505b505050565b81516001600160401b0381111562000311576200031162000150565b620003298162000322845462000266565b84620002a2565b602080601f831160018114620003615760008415620003485750858301515b600019600386901b1c1916600185901b178555620002ec565b600085815260208120601f198616915b82811015620003925788860151825594840194600190910190840162000371565b5085821015620003b15787850151600019600388901b60f8161c191681555b5050505050600190811b01905550565b6080516119e1620003e36000396000818160d901526102a801526119e16000f3fe608060405234801561001057600080fd5b50600436106100cf5760003560e01c80638da5cb5b1161008c578063c542c93b11610066578063c542c93b146101e5578063ced1e978146101f8578063f2fde38b14610200578063f6c7226b1461021357600080fd5b80638da5cb5b146101ac5780639563a257146101bd578063c0d05fed146101d057600080fd5b806315d276e1146100d457806327644b3f1461011857806355f65ba81461014b5780635a0d40d014610161578063715018a61461018f57806389dd2db014610199575b600080fd5b6100fb7f000000000000000000000000000000000000000000000000000000000000000081565b6040516001600160a01b0390911681526020015b60405180910390f35b61013b610126366004611443565b60036020526000908152604090205460ff1681565b604051901515815260200161010f565b610153610226565b60405190815260200161010f565b61017461016f36600461145c565b610299565b6040805193845260208401929092529082015260600161010f565b610197610576565b005b6101976101a736600461148a565b61058a565b6000546001600160a01b03166100fb565b6001546100fb906001600160a01b031681565b6101d86105b4565b60405161010f91906114d2565b61013b6101f336600461151c565b610642565b6101d8610d8e565b61019761020e36600461148a565b610e20565b610197610221366004611598565b610e96565b6001546040805163fe1a279160e01b815290516000926001600160a01b03169163fe1a27919160048083019260209291908290030181865afa158015610270573d6000803e3d6000fd5b505050506040513d601f19601f820116820180604052508101906102949190611649565b905090565b60008080336001600160a01b037f0000000000000000000000000000000000000000000000000000000000000000161461031a5760405162461bcd60e51b815260206004820181905260248201527f4f6e6c792052616d702063616e2063616c6c20746869732066756e6374696f6e60448201526064015b60405180910390fd5b6040805163c542c93b60e01b8152309163c542c93b9161034d9188919082019060c0830190610100840190600401611662565b602060405180830381865afa15801561036a573d6000803e3d6000fd5b505050506040513d601f19601f8201168201806040525081019061038e91906116af565b6103ca5760405162461bcd60e51b815260206004820152600d60248201526c24b73b30b634b210283937b7b360991b6044820152606401610311565b6103d2610226565b610100850135146104255760405162461bcd60e51b815260206004820152601b60248201527f496e76616c6964206d61696c736572766572206b6579206861736800000000006044820152606401610311565b6000610438856101000160016004610f0e565b90506002604051610449919061171b565b6040518091039020816040516020016104629190611791565b60405160208183030381529060405280519060200120146104c55760405162461bcd60e51b815260206004820152601a60248201527f496e76616c696420656d61696c2066726f6d20616464726573730000000000006044820152606401610311565b6104de6104d9866101000160046006610f0e565b610fe6565b6101e08601356000818152600360205260409020549195506101c087013594509060ff161561054f5760405162461bcd60e51b815260206004820152601b60248201527f456d61696c2068617320616c7265616479206265656e207573656400000000006044820152606401610311565b6000908152600360205260409020805460ff19166001179055509193909261020001359150565b61057e6110e2565b610588600061113c565b565b6105926110e2565b600180546001600160a01b0319166001600160a01b0392909216919091179055565b600280546105c1906116e7565b80601f01602080910402602001604051908101604052809291908181526020018280546105ed906116e7565b801561063a5780601f1061060f5761010080835404028352916020019161063a565b820191906000526020600020905b81548152906001019060200180831161061d57829003601f168201915b505050505081565b6000610ce6565b7f30644e72e131a029b85045b68181585d97816a916871ca8d3c208c16d87cfd47811061067a576000805260206000f35b50565b600060405183815284602082015285604082015260408160608360076107d05a03fa9150816106b0576000805260206000f35b825160408201526020830151606082015260408360808360066107d05a03fa915050806106e1576000805260206000f35b5050505050565b7f046b1f6ff37f1c517167dd65f3117b65a3d504301dee0fa7803d954c4afcf75885527f16832aa8567bcea698e1156145cc2162ab777c81c0af4cbcdb79f1a89708075760208601526000608086018661078587357f1a4963f8b74ad2b68e4d35c79f61a56f7f5a79a8cc84af1d1807a3e077c6bea67f26c43c169edb64936f35b0d03566a7de5c2f5784124457feb2a1955c95268e258461067d565b6107d560208801357f25cb112258fda6375ff57c509e3a48bee3aef73fa7570be21722d1d22e146c027f1617763fb0034c0379397367bea418561184e3dca6bd1f87889929d7283203228461067d565b61082560408801357f01f3abad48c437417be02a73d05ba69ffdf74faf1e3e335da858622d19b972c77f16b4a7983e3c561dadc1ed34e34db843237c205242565f0d1c6fd943e00ca0438461067d565b61087560608801357f039db774f52b360975aaabcd5946d16e03e2cec58c5a6c5e39a5845c5448b6a67f195cb3729018cb00d3b1c244d39a8c328d1279432970ce02351da7dcff8ec7858461067d565b6108c560808801357f1d6d20046d8274a8ca0cf6bdd3e2bdac1ba08c53d0a0bd739d2c73648049968f7f0100e3301c7e55011a1d6d8a75a6e876a4360387b1c140289b486617a8d5f0628461067d565b61091560a08801357f077190781706b89508d280a15fed9d7b0119c1f86f749830b7b655f033be971a7f11191a2f646ea3aa1979997d85a8c7fb3efd89794aa99ca7202e6ca8f781d1858461067d565b61096560c08801357f28d1f6a47bab06cd55a0461d9e7a545a2ebec068187c75571abcaf7adb9254da7f02ee83e0447702d87ebebe409337b7777234076204d445a6da5e4f72cfc092f68461067d565b6109b560e08801357f3010c3cb3673b001beadca3f88ac8a3ba6e8c525103a43421a6a5223895d939d7f1c9276b622645ca8626de8a34be1e5128a1dd6fb45d2fee53d46b5915ea0c4be8461067d565b610a066101008801357f1f4c28d50901446a5c84182ed47659f13e10e13561c2ec8d93674f959a53246a7f0b5f4d84cf0b0c3394bc154ad8abf4f967973550929bc62ee8f3aed0280ebb388461067d565b50823581527f30644e72e131a029b85045b68181585d97816a916871ca8d3c208c16d87cfd4760208401357f30644e72e131a029b85045b68181585d97816a916871ca8d3c208c16d87cfd4703066020820152833560408201526020840135606082015260408401356080820152606084013560a08201527f2d4d9aa7e302d9df41749d5507949d05dbea33fbb16c643b22f599a2be6df2e260c08201527f14bedd503c37ceb061d8ec60209fe345ce89830a19230301f076caff004d192660e08201527f0967032fcbf776d1afc985f88877f182d38480a653f2decaa9794cbc3bf3060c6101008201527f0e187847ad4c798374d0d6732bf501847dd68bc0e071241e0213bc7fc13db7ab6101208201527f304cfbd1e08a704a99f5e847d93f8c3caafddec46b7a0d379da69a4d112346a76101408201527f1739c1b1a457a8c7313123d24d2f9192f896b7c63eea05a9d57f06547ad0cec8610160820152600087015161018082015260206000018701516101a08201527f198e9393920d483a7260bfb731fb5d25f1aa493335a9e71297e485b7aef312c26101c08201527f1800deef121f1e76426a00665e5c4479674322d4f75edadd46debd5cd992f6ed6101e08201527f090689d0585ff075ec9e99ad690c3395bc4b313370b38ef355acdadcd122975b6102008201527f12c85ea5db8c6deb4aab71808dcb408fe3d1e7690c43d37b4ce6cc0166fa7daa610220820152843561024082015260208501356102608201527f198e9393920d483a7260bfb731fb5d25f1aa493335a9e71297e485b7aef312c26102808201527f1800deef121f1e76426a00665e5c4479674322d4f75edadd46debd5cd992f6ed6102a08201527f090689d0585ff075ec9e99ad690c3395bc4b313370b38ef355acdadcd122975b6102c08201527f12c85ea5db8c6deb4aab71808dcb408fe3d1e7690c43d37b4ce6cc0166fa7daa6102e08201526020816103008360086107d05a03fa9051169695505050505050565b6040516103808101604052610cfe6000840135610649565b610d0b6020840135610649565b610d186040840135610649565b610d256060840135610649565b610d326080840135610649565b610d3f60a0840135610649565b610d4c60c0840135610649565b610d5960e0840135610649565b610d67610100840135610649565b610d75610120840135610649565b610d82818486888a6106e8565b90508060005260206000f35b606060028054610d9d906116e7565b80601f0160208091040260200160405190810160405280929190818152602001828054610dc9906116e7565b8015610e165780601f10610deb57610100808354040283529160200191610e16565b820191906000526020600020905b815481529060010190602001808311610df957829003601f168201915b5050505050905090565b610e286110e2565b6001600160a01b038116610e8d5760405162461bcd60e51b815260206004820152602660248201527f4f776e61626c653a206e6577206f776e657220697320746865207a65726f206160448201526564647265737360d01b6064820152608401610311565b61067a8161113c565b610e9e6110e2565b8051601514610efe5760405162461bcd60e51b815260206004820152602660248201527f456d61696c2066726f6d2061646472657373206e6f742070726f7065726c79206044820152651c185919195960d21b6064820152608401610311565b6002610f0a82826117fc565b5050565b60606000610f1c84846118d2565b60ff1667ffffffffffffffff811115610f3757610f37611582565b604051908082528060200260200182016040528015610f60578160200160208202803683370190505b50905060ff84165b8360ff16811015610fc557858160098110610f8557610f856116d1565b602002013582610f9860ff8816846118eb565b81518110610fa857610fa86116d1565b602090810291909101015280610fbd816118fe565b915050610f68565b50610fdd610fd385856118d2565b829060ff1661118c565b95945050505050565b6000818180805b83518110156110d857603084828151811061100a5761100a6116d1565b016020015160f81c1080159061103a5750603984828151811061102f5761102f6116d1565b016020015160f81c11155b156110c6578291506030848281518110611056576110566116d1565b0160200151611068919060f81c6118d2565b60ff1661107684600a611917565b611080919061192e565b9250818310156110c65760405162461bcd60e51b815260206004820152601160248201527013dd995c999b1bddc819195d1958dd1959607a1b6044820152606401610311565b806110d0816118fe565b915050610fed565b5090949350505050565b6000546001600160a01b031633146105885760405162461bcd60e51b815260206004820181905260248201527f4f776e61626c653a2063616c6c6572206973206e6f7420746865206f776e65726044820152606401610311565b600080546001600160a01b038381166001600160a01b0319831681178455604051919092169283917f8be0079c531659141344cd1fd0a4f28419497f9722a3daafe3b4186f6b6457e09190a35050565b6060600061119b600784611917565b9050600080855160076111ae9190611917565b67ffffffffffffffff8111156111c6576111c6611582565b6040519080825280601f01601f1916602001820160405280156111f0576020820181803683370190505b5090506000805b87518161ffff161015611389576000888261ffff168151811061121c5761121c6116d1565b6020908102919091018101516040805160078082526101008201909252919350600092820160e08036833701905050905060005b600781101561129d57611264816008611917565b83901c828281518110611279576112796116d1565b60ff9092166020928302919091019091015280611295816118fe565b915050611250565b5060005b60078110156113735760008282815181106112be576112be6116d1565b602002602001015160ff16905080600014611336578060f81b8787815181106112e9576112e96116d1565b60200101906001600160f81b031916908160001a9053508561130a816118fe565b96506113199050600289611941565b60ff166000036113315761132e600189611971565b97505b611359565b611341600289611941565b60ff1660010361135957611356600189611971565b97505b5060089290921c918061136b816118fe565b9150506112a1565b50505080806113819061198a565b9150506111f7565b508194508260ff166002146113f55760405162461bcd60e51b815260206004820152602c60248201527f496e76616c69642066696e616c207374617465206f66207061636b656420627960448201526b1d195cc81a5b88195b585a5b60a21b6064820152608401610311565b838111156114395760405162461bcd60e51b815260206004820152601160248201527056656e6d6f20696420746f6f206c6f6e6760781b6044820152606401610311565b5050505092915050565b60006020828403121561145557600080fd5b5035919050565b6000610220828403121561146f57600080fd5b50919050565b6001600160a01b038116811461067a57600080fd5b60006020828403121561149c57600080fd5b81356114a781611475565b9392505050565b60005b838110156114c95781810151838201526020016114b1565b50506000910152565b60208152600082518060208401526114f18160408501602087016114ae565b601f01601f19169190910160400192915050565b806040810183101561151657600080fd5b92915050565b60008060008061022080868803121561153457600080fd5b61153e8787611505565b945060c086018781111561155157600080fd5b6040870194506115618882611505565b93505086818701111561157357600080fd5b50929591945092610100019150565b634e487b7160e01b600052604160045260246000fd5b6000602082840312156115aa57600080fd5b813567ffffffffffffffff808211156115c257600080fd5b818401915084601f8301126115d657600080fd5b8135818111156115e8576115e8611582565b604051601f8201601f19908116603f0116810190838211818310171561161057611610611582565b8160405282815287602084870101111561162957600080fd5b826020860160208301376000928101602001929092525095945050505050565b60006020828403121561165b57600080fd5b5051919050565b61022081016040808784378083018660005b600281101561169157838284379183019190830190600101611674565b505050808560c0850137506101208361010084013795945050505050565b6000602082840312156116c157600080fd5b815180151581146114a757600080fd5b634e487b7160e01b600052603260045260246000fd5b600181811c908216806116fb57607f821691505b60208210810361146f57634e487b7160e01b600052602260045260246000fd5b6000808354611729816116e7565b60018281168015611741576001811461175657611785565b60ff1984168752821515830287019450611785565b8760005260208060002060005b8581101561177c5781548a820152908401908201611763565b50505082870194505b50929695505050505050565b600082516117a38184602087016114ae565b9190910192915050565b601f8211156117f757600081815260208120601f850160051c810160208610156117d45750805b601f850160051c820191505b818110156117f3578281556001016117e0565b5050505b505050565b815167ffffffffffffffff81111561181657611816611582565b61182a8161182484546116e7565b846117ad565b602080601f83116001811461185f57600084156118475750858301515b600019600386901b1c1916600185901b1785556117f3565b600085815260208120601f198616915b8281101561188e5788860151825594840194600190910190840161186f565b50858210156118ac5787850151600019600388901b60f8161c191681555b5050505050600190811b01905550565b634e487b7160e01b600052601160045260246000fd5b60ff8281168282160390811115611516576115166118bc565b81810381811115611516576115166118bc565b600060018201611910576119106118bc565b5060010190565b8082028115828204841417611516576115166118bc565b80820180821115611516576115166118bc565b600060ff83168061196257634e487b7160e01b600052601260045260246000fd5b8060ff84160691505092915050565b60ff8181168382160190811115611516576115166118bc565b600061ffff8083168181036119a1576119a16118bc565b600101939250505056fea264697066735822122089a3db271304c82f22cdca210d1fe253cbf4bd70de9f14a379f31f1582911df364736f6c63430008120033",
  "devdoc": {
    "kind": "dev",
    "methods": {
      "owner()": {
        "details": "Returns the address of the current owner."
      },
      "renounceOwnership()": {
        "details": "Leaves the contract without owner. It will not be possible to call `onlyOwner` functions. Can only be called by the current owner. NOTE: Renouncing ownership will leave the contract without an owner, thereby disabling any functionality that is only available to the owner."
      },
      "transferOwnership(address)": {
        "details": "Transfers ownership of the contract to a new account (`newOwner`). Can only be called by the current owner."
      }
    },
    "version": 1
  },
  "userdoc": {
    "kind": "user",
    "methods": {},
    "version": 1
  },
  "storageLayout": {
    "storage": [
      {
        "astId": 7,
        "contract": "contracts/processors/VenmoReceiveProcessor.sol:VenmoReceiveProcessor",
        "label": "_owner",
        "offset": 0,
        "slot": "0",
        "type": "t_address"
      },
      {
        "astId": 3849,
        "contract": "contracts/processors/VenmoReceiveProcessor.sol:VenmoReceiveProcessor",
        "label": "venmoMailserverKeyHashAdapter",
        "offset": 0,
        "slot": "1",
        "type": "t_contract(IKeyHashAdapter)4593"
      },
      {
        "astId": 3851,
        "contract": "contracts/processors/VenmoReceiveProcessor.sol:VenmoReceiveProcessor",
        "label": "emailFromAddress",
        "offset": 0,
        "slot": "2",
        "type": "t_bytes_storage"
      },
      {
        "astId": 3979,
        "contract": "contracts/processors/VenmoReceiveProcessor.sol:VenmoReceiveProcessor",
        "label": "isEmailNullified",
        "offset": 0,
        "slot": "3",
        "type": "t_mapping(t_bytes32,t_bool)"
      }
    ],
    "types": {
      "t_address": {
        "encoding": "inplace",
        "label": "address",
        "numberOfBytes": "20"
      },
      "t_bool": {
        "encoding": "inplace",
        "label": "bool",
        "numberOfBytes": "1"
      },
      "t_bytes32": {
        "encoding": "inplace",
        "label": "bytes32",
        "numberOfBytes": "32"
      },
      "t_bytes_storage": {
        "encoding": "bytes",
        "label": "bytes",
        "numberOfBytes": "32"
      },
      "t_contract(IKeyHashAdapter)4593": {
        "encoding": "inplace",
        "label": "contract IKeyHashAdapter",
        "numberOfBytes": "20"
      },
      "t_mapping(t_bytes32,t_bool)": {
        "encoding": "mapping",
        "key": "t_bytes32",
        "label": "mapping(bytes32 => bool)",
        "numberOfBytes": "32",
        "value": "t_bool"
      }
    }
  }
}