{
  "address": "0x054be4cFB6e951A7dE921A179FA323c5ea3fCf47",
  "abi": [
    {
      "inputs": [
        {
          "internalType": "address",
          "name": "_owner",
          "type": "address"
        },
        {
          "internalType": "uint256",
          "name": "_fee",
          "type": "uint256"
        },
        {
          "internalType": "address payable",
          "name": "_feeRecipient",
          "type": "address"
        },
        {
          "internalType": "uint256",
          "name": "_bidSettlementPeriod",
          "type": "uint256"
        },
        {
          "internalType": "uint256",
          "name": "_bidRefundPeriod",
          "type": "uint256"
        },
        {
          "internalType": "address[]",
          "name": "_allowedAddresses",
          "type": "address[]"
        }
      ],
      "stateMutability": "nonpayable",
      "type": "constructor"
    },
    {
      "anonymous": false,
      "inputs": [
        {
          "indexed": true,
          "internalType": "address",
          "name": "allowedAddress",
          "type": "address"
        }
      ],
      "name": "AddressAddedToAllowlist",
      "type": "event"
    },
    {
      "anonymous": false,
      "inputs": [
        {
          "indexed": true,
          "internalType": "address",
          "name": "allowedAddress",
          "type": "address"
        }
      ],
      "name": "AddressRemovedFromAllowlist",
      "type": "event"
    },
    {
      "anonymous": false,
      "inputs": [],
      "name": "AllowlistDisabled",
      "type": "event"
    },
    {
      "anonymous": false,
      "inputs": [],
      "name": "AllowlistEnabled",
      "type": "event"
    },
    {
      "anonymous": false,
      "inputs": [
        {
          "indexed": true,
          "internalType": "uint256",
          "name": "bidId",
          "type": "uint256"
        },
        {
          "indexed": true,
          "internalType": "uint256",
          "name": "listingId",
          "type": "uint256"
        },
        {
          "indexed": true,
          "internalType": "address",
          "name": "buyer",
          "type": "address"
        },
        {
          "indexed": false,
          "internalType": "uint256",
          "name": "price",
          "type": "uint256"
        }
      ],
      "name": "BidCreated",
      "type": "event"
    },
    {
      "anonymous": false,
      "inputs": [
        {
          "indexed": true,
          "internalType": "uint256",
          "name": "bidId",
          "type": "uint256"
        },
        {
          "indexed": true,
          "internalType": "address",
          "name": "buyer",
          "type": "address"
        },
        {
          "indexed": false,
          "internalType": "uint256",
          "name": "newPrice",
          "type": "uint256"
        }
      ],
      "name": "BidPriceIncreased",
      "type": "event"
    },
    {
      "anonymous": false,
      "inputs": [
        {
          "indexed": false,
          "internalType": "uint256",
          "name": "newBidRefundPeriod",
          "type": "uint256"
        }
      ],
      "name": "BidRefundPeriodUpdated",
      "type": "event"
    },
    {
      "anonymous": false,
      "inputs": [
        {
          "indexed": false,
          "internalType": "uint256",
          "name": "newBidSettlementPeriod",
          "type": "uint256"
        }
      ],
      "name": "BidSettlementPeriodUpdated",
      "type": "event"
    },
    {
      "anonymous": false,
      "inputs": [
        {
          "indexed": true,
          "internalType": "uint256",
          "name": "bidId",
          "type": "uint256"
        },
        {
          "indexed": true,
          "internalType": "address",
          "name": "buyer",
          "type": "address"
        },
        {
          "indexed": false,
          "internalType": "uint256",
          "name": "amount",
          "type": "uint256"
        }
      ],
      "name": "BidWithdrawn",
      "type": "event"
    },
    {
      "anonymous": false,
      "inputs": [
        {
          "indexed": true,
          "internalType": "address",
          "name": "newFeeRecipient",
          "type": "address"
        }
      ],
      "name": "FeeRecipientUpdated",
      "type": "event"
    },
    {
      "anonymous": false,
      "inputs": [
        {
          "indexed": false,
          "internalType": "uint256",
          "name": "newFee",
          "type": "uint256"
        }
      ],
      "name": "FeeUpdated",
      "type": "event"
    },
    {
      "anonymous": false,
      "inputs": [
        {
          "indexed": true,
          "internalType": "address",
          "name": "buyer",
          "type": "address"
        },
        {
          "indexed": false,
          "internalType": "bool",
          "name": "instantAccept",
          "type": "bool"
        }
      ],
      "name": "InstantAcceptUpdated",
      "type": "event"
    },
    {
      "anonymous": false,
      "inputs": [
        {
          "indexed": true,
          "internalType": "uint256",
          "name": "listingId",
          "type": "uint256"
        },
        {
          "indexed": true,
          "internalType": "address",
          "name": "seller",
          "type": "address"
        },
        {
          "indexed": true,
          "internalType": "bytes32",
          "name": "domainId",
          "type": "bytes32"
        },
        {
          "indexed": false,
          "internalType": "bytes32",
          "name": "dkimKeyHash",
          "type": "bytes32"
        },
        {
          "indexed": false,
          "internalType": "uint256",
          "name": "askPrice",
          "type": "uint256"
        },
        {
          "indexed": false,
          "internalType": "uint256",
          "name": "minBidPrice",
          "type": "uint256"
        },
        {
          "indexed": false,
          "internalType": "address",
          "name": "saleEthRecipient",
          "type": "address"
        }
      ],
      "name": "ListingCreated",
      "type": "event"
    },
    {
      "anonymous": false,
      "inputs": [
        {
          "indexed": true,
          "internalType": "uint256",
          "name": "listingId",
          "type": "uint256"
        },
        {
          "indexed": true,
          "internalType": "address",
          "name": "seller",
          "type": "address"
        }
      ],
      "name": "ListingDeleted",
      "type": "event"
    },
    {
      "anonymous": false,
      "inputs": [
        {
          "indexed": true,
          "internalType": "uint256",
          "name": "listingId",
          "type": "uint256"
        }
      ],
      "name": "ListingDeletedByRegistry",
      "type": "event"
    },
    {
      "anonymous": false,
      "inputs": [
        {
          "indexed": true,
          "internalType": "uint256",
          "name": "listingId",
          "type": "uint256"
        },
        {
          "indexed": true,
          "internalType": "address",
          "name": "seller",
          "type": "address"
        },
        {
          "indexed": false,
          "internalType": "uint256",
          "name": "newAskPrice",
          "type": "uint256"
        },
        {
          "indexed": false,
          "internalType": "address",
          "name": "saleEthRecipient",
          "type": "address"
        }
      ],
      "name": "ListingUpdated",
      "type": "event"
    },
    {
      "anonymous": false,
      "inputs": [
        {
          "indexed": true,
          "internalType": "contract IKeyHashAdapterV2",
          "name": "newMailServerKeyHashAdapter",
          "type": "address"
        }
      ],
      "name": "MailServerKeyHashAdapterUpdated",
      "type": "event"
    },
    {
      "anonymous": false,
      "inputs": [
        {
          "indexed": true,
          "internalType": "address",
          "name": "previousOwner",
          "type": "address"
        },
        {
          "indexed": true,
          "internalType": "address",
          "name": "newOwner",
          "type": "address"
        }
      ],
      "name": "OwnershipTransferred",
      "type": "event"
    },
    {
      "anonymous": false,
      "inputs": [
        {
          "indexed": false,
          "internalType": "address",
          "name": "account",
          "type": "address"
        }
      ],
      "name": "Paused",
      "type": "event"
    },
    {
      "anonymous": false,
      "inputs": [
        {
          "indexed": true,
          "internalType": "uint256",
          "name": "bidId",
          "type": "uint256"
        },
        {
          "indexed": true,
          "internalType": "address",
          "name": "buyer",
          "type": "address"
        }
      ],
      "name": "RefundInitiated",
      "type": "event"
    },
    {
      "anonymous": false,
      "inputs": [
        {
          "indexed": true,
          "internalType": "uint256",
          "name": "bidId",
          "type": "uint256"
        },
        {
          "indexed": true,
          "internalType": "uint256",
          "name": "listingId",
          "type": "uint256"
        },
        {
          "indexed": false,
          "internalType": "uint256",
          "name": "priceNetFees",
          "type": "uint256"
        },
        {
          "indexed": false,
          "internalType": "uint256",
          "name": "fees",
          "type": "uint256"
        }
      ],
      "name": "SaleFinalized",
      "type": "event"
    },
    {
      "anonymous": false,
      "inputs": [
        {
          "indexed": true,
          "internalType": "contract ITransferDomainProcessor",
          "name": "newTransferDomainProcessor",
          "type": "address"
        }
      ],
      "name": "TransferDomainProcessorUpdated",
      "type": "event"
    },
    {
      "anonymous": false,
      "inputs": [
        {
          "indexed": false,
          "internalType": "address",
          "name": "account",
          "type": "address"
        }
      ],
      "name": "Unpaused",
      "type": "event"
    },
    {
      "inputs": [
        {
          "internalType": "address[]",
          "name": "_allowedAddresses",
          "type": "address[]"
        }
      ],
      "name": "addAddressesToAllowlist",
      "outputs": [],
      "stateMutability": "nonpayable",
      "type": "function"
    },
    {
      "inputs": [
        {
          "internalType": "uint256",
          "name": "",
          "type": "uint256"
        }
      ],
      "name": "allowedAddresses",
      "outputs": [
        {
          "internalType": "address",
          "name": "",
          "type": "address"
        }
      ],
      "stateMutability": "view",
      "type": "function"
    },
    {
      "inputs": [],
      "name": "bidCounter",
      "outputs": [
        {
          "internalType": "uint256",
          "name": "",
          "type": "uint256"
        }
      ],
      "stateMutability": "view",
      "type": "function"
    },
    {
      "inputs": [],
      "name": "bidRefundPeriod",
      "outputs": [
        {
          "internalType": "uint256",
          "name": "",
          "type": "uint256"
        }
      ],
      "stateMutability": "view",
      "type": "function"
    },
    {
      "inputs": [],
      "name": "bidSettlementPeriod",
      "outputs": [
        {
          "internalType": "uint256",
          "name": "",
          "type": "uint256"
        }
      ],
      "stateMutability": "view",
      "type": "function"
    },
    {
      "inputs": [
        {
          "internalType": "uint256",
          "name": "",
          "type": "uint256"
        }
      ],
      "name": "bids",
      "outputs": [
        {
          "internalType": "address",
          "name": "buyer",
          "type": "address"
        },
        {
          "internalType": "uint256",
          "name": "listingId",
          "type": "uint256"
        },
        {
          "internalType": "string",
          "name": "encryptedBuyerId",
          "type": "string"
        },
        {
          "internalType": "bytes32",
          "name": "buyerIdHash",
          "type": "bytes32"
        },
        {
          "internalType": "uint256",
          "name": "createdAt",
          "type": "uint256"
        },
        {
          "internalType": "uint256",
          "name": "expiryTimestamp",
          "type": "uint256"
        },
        {
          "internalType": "uint256",
          "name": "price",
          "type": "uint256"
        },
        {
          "internalType": "bool",
          "name": "refundInitiated",
          "type": "bool"
        }
      ],
      "stateMutability": "view",
      "type": "function"
    },
    {
      "inputs": [
        {
          "internalType": "uint256",
          "name": "_bidId",
          "type": "uint256"
        }
      ],
      "name": "buyerReleaseFunds",
      "outputs": [],
      "stateMutability": "nonpayable",
      "type": "function"
    },
    {
      "inputs": [
        {
          "internalType": "uint256",
          "name": "_listingId",
          "type": "uint256"
        },
        {
          "internalType": "bytes32",
          "name": "_buyerIdHash",
          "type": "bytes32"
        },
        {
          "internalType": "string",
          "name": "_encryptedBuyerId",
          "type": "string"
        }
      ],
      "name": "createBid",
      "outputs": [],
      "stateMutability": "payable",
      "type": "function"
    },
    {
      "inputs": [
        {
          "internalType": "bytes32",
          "name": "_domainId",
          "type": "bytes32"
        },
        {
          "internalType": "uint256",
          "name": "_askPrice",
          "type": "uint256"
        },
        {
          "internalType": "uint256",
          "name": "_minBidPrice",
          "type": "uint256"
        },
        {
          "internalType": "address payable",
          "name": "_saleEthRecipient",
          "type": "address"
        },
        {
          "internalType": "bytes",
          "name": "_encryptionKey",
          "type": "bytes"
        },
        {
          "internalType": "bytes32",
          "name": "_dkimKeyHash",
          "type": "bytes32"
        }
      ],
      "name": "createListing",
      "outputs": [],
      "stateMutability": "nonpayable",
      "type": "function"
    },
    {
      "inputs": [
        {
          "internalType": "uint256",
          "name": "_listingId",
          "type": "uint256"
        }
      ],
      "name": "deleteListing",
      "outputs": [],
      "stateMutability": "nonpayable",
      "type": "function"
    },
    {
      "inputs": [],
      "name": "disableAllowlist",
      "outputs": [],
      "stateMutability": "nonpayable",
      "type": "function"
    },
    {
      "inputs": [],
      "name": "disableInstantAccept",
      "outputs": [],
      "stateMutability": "nonpayable",
      "type": "function"
    },
    {
      "inputs": [],
      "name": "enableAllowlist",
      "outputs": [],
      "stateMutability": "nonpayable",
      "type": "function"
    },
    {
      "inputs": [],
      "name": "enableInstantAccept",
      "outputs": [],
      "stateMutability": "nonpayable",
      "type": "function"
    },
    {
      "inputs": [],
      "name": "fee",
      "outputs": [
        {
          "internalType": "uint256",
          "name": "",
          "type": "uint256"
        }
      ],
      "stateMutability": "view",
      "type": "function"
    },
    {
      "inputs": [],
      "name": "feeRecipient",
      "outputs": [
        {
          "internalType": "address payable",
          "name": "",
          "type": "address"
        }
      ],
      "stateMutability": "view",
      "type": "function"
    },
    {
      "inputs": [
        {
          "components": [
            {
              "internalType": "uint256[2]",
              "name": "a",
              "type": "uint256[2]"
            },
            {
              "internalType": "uint256[2][2]",
              "name": "b",
              "type": "uint256[2][2]"
            },
            {
              "internalType": "uint256[2]",
              "name": "c",
              "type": "uint256[2]"
            },
            {
              "internalType": "uint256[10]",
              "name": "signals",
              "type": "uint256[10]"
            }
          ],
          "internalType": "struct ITransferDomainProcessor.TransferProof",
          "name": "_proof",
          "type": "tuple"
        }
      ],
      "name": "finalizeSale",
      "outputs": [],
      "stateMutability": "nonpayable",
      "type": "function"
    },
    {
      "inputs": [],
      "name": "getAllowedSellers",
      "outputs": [
        {
          "internalType": "address[]",
          "name": "",
          "type": "address[]"
        }
      ],
      "stateMutability": "view",
      "type": "function"
    },
    {
      "inputs": [
        {
          "internalType": "uint256[]",
          "name": "_listingIds",
          "type": "uint256[]"
        }
      ],
      "name": "getListingBids",
      "outputs": [
        {
          "components": [
            {
              "internalType": "uint256",
              "name": "bidId",
              "type": "uint256"
            },
            {
              "components": [
                {
                  "internalType": "address",
                  "name": "buyer",
                  "type": "address"
                },
                {
                  "internalType": "uint256",
                  "name": "listingId",
                  "type": "uint256"
                },
                {
                  "internalType": "string",
                  "name": "encryptedBuyerId",
                  "type": "string"
                },
                {
                  "internalType": "bytes32",
                  "name": "buyerIdHash",
                  "type": "bytes32"
                },
                {
                  "internalType": "uint256",
                  "name": "createdAt",
                  "type": "uint256"
                },
                {
                  "internalType": "uint256",
                  "name": "expiryTimestamp",
                  "type": "uint256"
                },
                {
                  "internalType": "uint256",
                  "name": "price",
                  "type": "uint256"
                },
                {
                  "internalType": "bool",
                  "name": "refundInitiated",
                  "type": "bool"
                }
              ],
              "internalType": "struct DomainExchange.Bid",
              "name": "bid",
              "type": "tuple"
            },
            {
              "internalType": "bool",
              "name": "buyerInstantAcceptEnabled",
              "type": "bool"
            }
          ],
          "internalType": "struct DomainExchange.BidDetailsWithId[][]",
          "name": "bidInfo",
          "type": "tuple[][]"
        }
      ],
      "stateMutability": "view",
      "type": "function"
    },
    {
      "inputs": [
        {
          "internalType": "uint256[]",
          "name": "_listingIds",
          "type": "uint256[]"
        }
      ],
      "name": "getListings",
      "outputs": [
        {
          "components": [
            {
              "internalType": "uint256",
              "name": "listingId",
              "type": "uint256"
            },
            {
              "components": [
                {
                  "internalType": "address",
                  "name": "seller",
                  "type": "address"
                },
                {
                  "internalType": "address payable",
                  "name": "saleEthRecipient",
                  "type": "address"
                },
                {
                  "internalType": "bytes32",
                  "name": "dkimKeyHash",
                  "type": "bytes32"
                },
                {
                  "internalType": "bytes",
                  "name": "encryptionKey",
                  "type": "bytes"
                },
                {
                  "internalType": "bytes32",
                  "name": "domainId",
                  "type": "bytes32"
                },
                {
                  "internalType": "uint256",
                  "name": "createdAt",
                  "type": "uint256"
                },
                {
                  "internalType": "uint256",
                  "name": "askPrice",
                  "type": "uint256"
                },
                {
                  "internalType": "uint256",
                  "name": "minBidPrice",
                  "type": "uint256"
                },
                {
                  "internalType": "bool",
                  "name": "isActive",
                  "type": "bool"
                },
                {
                  "internalType": "uint256[]",
                  "name": "bids",
                  "type": "uint256[]"
                }
              ],
              "internalType": "struct DomainExchange.Listing",
              "name": "listing",
              "type": "tuple"
            }
          ],
          "internalType": "struct DomainExchange.ListingWithId[]",
          "name": "listingInfo",
          "type": "tuple[]"
        }
      ],
      "stateMutability": "view",
      "type": "function"
    },
    {
      "inputs": [
        {
          "internalType": "address",
          "name": "_user",
          "type": "address"
        }
      ],
      "name": "getUserBids",
      "outputs": [
        {
          "components": [
            {
              "internalType": "uint256",
              "name": "bidId",
              "type": "uint256"
            },
            {
              "components": [
                {
                  "internalType": "address",
                  "name": "buyer",
                  "type": "address"
                },
                {
                  "internalType": "uint256",
                  "name": "listingId",
                  "type": "uint256"
                },
                {
                  "internalType": "string",
                  "name": "encryptedBuyerId",
                  "type": "string"
                },
                {
                  "internalType": "bytes32",
                  "name": "buyerIdHash",
                  "type": "bytes32"
                },
                {
                  "internalType": "uint256",
                  "name": "createdAt",
                  "type": "uint256"
                },
                {
                  "internalType": "uint256",
                  "name": "expiryTimestamp",
                  "type": "uint256"
                },
                {
                  "internalType": "uint256",
                  "name": "price",
                  "type": "uint256"
                },
                {
                  "internalType": "bool",
                  "name": "refundInitiated",
                  "type": "bool"
                }
              ],
              "internalType": "struct DomainExchange.Bid",
              "name": "bid",
              "type": "tuple"
            },
            {
              "internalType": "bool",
              "name": "buyerInstantAcceptEnabled",
              "type": "bool"
            }
          ],
          "internalType": "struct DomainExchange.BidDetailsWithId[]",
          "name": "bidInfo",
          "type": "tuple[]"
        }
      ],
      "stateMutability": "view",
      "type": "function"
    },
    {
      "inputs": [
        {
          "internalType": "address",
          "name": "_user",
          "type": "address"
        }
      ],
      "name": "getUserListings",
      "outputs": [
        {
          "components": [
            {
              "internalType": "uint256",
              "name": "listingId",
              "type": "uint256"
            },
            {
              "components": [
                {
                  "internalType": "address",
                  "name": "seller",
                  "type": "address"
                },
                {
                  "internalType": "address payable",
                  "name": "saleEthRecipient",
                  "type": "address"
                },
                {
                  "internalType": "bytes32",
                  "name": "dkimKeyHash",
                  "type": "bytes32"
                },
                {
                  "internalType": "bytes",
                  "name": "encryptionKey",
                  "type": "bytes"
                },
                {
                  "internalType": "bytes32",
                  "name": "domainId",
                  "type": "bytes32"
                },
                {
                  "internalType": "uint256",
                  "name": "createdAt",
                  "type": "uint256"
                },
                {
                  "internalType": "uint256",
                  "name": "askPrice",
                  "type": "uint256"
                },
                {
                  "internalType": "uint256",
                  "name": "minBidPrice",
                  "type": "uint256"
                },
                {
                  "internalType": "bool",
                  "name": "isActive",
                  "type": "bool"
                },
                {
                  "internalType": "uint256[]",
                  "name": "bids",
                  "type": "uint256[]"
                }
              ],
              "internalType": "struct DomainExchange.Listing",
              "name": "listing",
              "type": "tuple"
            }
          ],
          "internalType": "struct DomainExchange.ListingWithId[]",
          "name": "listingInfo",
          "type": "tuple[]"
        }
      ],
      "stateMutability": "view",
      "type": "function"
    },
    {
      "inputs": [
        {
          "internalType": "uint256",
          "name": "_bidId",
          "type": "uint256"
        },
        {
          "internalType": "uint256",
          "name": "_newPrice",
          "type": "uint256"
        }
      ],
      "name": "increaseBidPrice",
      "outputs": [],
      "stateMutability": "payable",
      "type": "function"
    },
    {
      "inputs": [
        {
          "internalType": "contract ITransferDomainProcessor",
          "name": "_transferDomainProcessor",
          "type": "address"
        },
        {
          "internalType": "contract IVerifiedDomainRegistry",
          "name": "_verifiedDomainRegistry",
          "type": "address"
        },
        {
          "internalType": "contract IKeyHashAdapterV2",
          "name": "_mailServerKeyHashAdapter",
          "type": "address"
        }
      ],
      "name": "initialize",
      "outputs": [],
      "stateMutability": "nonpayable",
      "type": "function"
    },
    {
      "inputs": [
        {
          "internalType": "uint256",
          "name": "_bidId",
          "type": "uint256"
        }
      ],
      "name": "initiateRefund",
      "outputs": [],
      "stateMutability": "nonpayable",
      "type": "function"
    },
    {
      "inputs": [
        {
          "internalType": "address",
          "name": "",
          "type": "address"
        }
      ],
      "name": "instantAcceptEnabled",
      "outputs": [
        {
          "internalType": "bool",
          "name": "",
          "type": "bool"
        }
      ],
      "stateMutability": "view",
      "type": "function"
    },
    {
      "inputs": [
        {
          "internalType": "address",
          "name": "",
          "type": "address"
        }
      ],
      "name": "isAllowed",
      "outputs": [
        {
          "internalType": "bool",
          "name": "",
          "type": "bool"
        }
      ],
      "stateMutability": "view",
      "type": "function"
    },
    {
      "inputs": [],
      "name": "isEnabled",
      "outputs": [
        {
          "internalType": "bool",
          "name": "",
          "type": "bool"
        }
      ],
      "stateMutability": "view",
      "type": "function"
    },
    {
      "inputs": [],
      "name": "isInitialized",
      "outputs": [
        {
          "internalType": "bool",
          "name": "",
          "type": "bool"
        }
      ],
      "stateMutability": "view",
      "type": "function"
    },
    {
      "inputs": [],
      "name": "listingCounter",
      "outputs": [
        {
          "internalType": "uint256",
          "name": "",
          "type": "uint256"
        }
      ],
      "stateMutability": "view",
      "type": "function"
    },
    {
      "inputs": [
        {
          "internalType": "uint256",
          "name": "",
          "type": "uint256"
        }
      ],
      "name": "listings",
      "outputs": [
        {
          "internalType": "address",
          "name": "seller",
          "type": "address"
        },
        {
          "internalType": "address payable",
          "name": "saleEthRecipient",
          "type": "address"
        },
        {
          "internalType": "bytes32",
          "name": "dkimKeyHash",
          "type": "bytes32"
        },
        {
          "internalType": "bytes",
          "name": "encryptionKey",
          "type": "bytes"
        },
        {
          "internalType": "bytes32",
          "name": "domainId",
          "type": "bytes32"
        },
        {
          "internalType": "uint256",
          "name": "createdAt",
          "type": "uint256"
        },
        {
          "internalType": "uint256",
          "name": "askPrice",
          "type": "uint256"
        },
        {
          "internalType": "uint256",
          "name": "minBidPrice",
          "type": "uint256"
        },
        {
          "internalType": "bool",
          "name": "isActive",
          "type": "bool"
        }
      ],
      "stateMutability": "view",
      "type": "function"
    },
    {
      "inputs": [],
      "name": "mailServerKeyHashAdapter",
      "outputs": [
        {
          "internalType": "contract IKeyHashAdapterV2",
          "name": "",
          "type": "address"
        }
      ],
      "stateMutability": "view",
      "type": "function"
    },
    {
      "inputs": [],
      "name": "owner",
      "outputs": [
        {
          "internalType": "address",
          "name": "",
          "type": "address"
        }
      ],
      "stateMutability": "view",
      "type": "function"
    },
    {
      "inputs": [],
      "name": "pauseMarketplace",
      "outputs": [],
      "stateMutability": "nonpayable",
      "type": "function"
    },
    {
      "inputs": [],
      "name": "paused",
      "outputs": [
        {
          "internalType": "bool",
          "name": "",
          "type": "bool"
        }
      ],
      "stateMutability": "view",
      "type": "function"
    },
    {
      "inputs": [
        {
          "internalType": "uint256",
          "name": "_listingId",
          "type": "uint256"
        }
      ],
      "name": "registryRemoveListing",
      "outputs": [],
      "stateMutability": "nonpayable",
      "type": "function"
    },
    {
      "inputs": [
        {
          "internalType": "address[]",
          "name": "_disallowedAddresses",
          "type": "address[]"
        }
      ],
      "name": "removeAddressesFromAllowlist",
      "outputs": [],
      "stateMutability": "nonpayable",
      "type": "function"
    },
    {
      "inputs": [],
      "name": "renounceOwnership",
      "outputs": [],
      "stateMutability": "nonpayable",
      "type": "function"
    },
    {
      "inputs": [],
      "name": "transferDomainProcessor",
      "outputs": [
        {
          "internalType": "contract ITransferDomainProcessor",
          "name": "",
          "type": "address"
        }
      ],
      "stateMutability": "view",
      "type": "function"
    },
    {
      "inputs": [
        {
          "internalType": "address",
          "name": "newOwner",
          "type": "address"
        }
      ],
      "name": "transferOwnership",
      "outputs": [],
      "stateMutability": "nonpayable",
      "type": "function"
    },
    {
      "inputs": [],
      "name": "unpauseMarketplace",
      "outputs": [],
      "stateMutability": "nonpayable",
      "type": "function"
    },
    {
      "inputs": [
        {
          "internalType": "uint256",
          "name": "_newBidRefundPeriod",
          "type": "uint256"
        }
      ],
      "name": "updateBidRefundPeriod",
      "outputs": [],
      "stateMutability": "nonpayable",
      "type": "function"
    },
    {
      "inputs": [
        {
          "internalType": "uint256",
          "name": "_newBidSettlementPeriod",
          "type": "uint256"
        }
      ],
      "name": "updateBidSettlementPeriod",
      "outputs": [],
      "stateMutability": "nonpayable",
      "type": "function"
    },
    {
      "inputs": [
        {
          "internalType": "uint256",
          "name": "_newFee",
          "type": "uint256"
        }
      ],
      "name": "updateFee",
      "outputs": [],
      "stateMutability": "nonpayable",
      "type": "function"
    },
    {
      "inputs": [
        {
          "internalType": "address payable",
          "name": "_newFeeRecipient",
          "type": "address"
        }
      ],
      "name": "updateFeeRecipient",
      "outputs": [],
      "stateMutability": "nonpayable",
      "type": "function"
    },
    {
      "inputs": [
        {
          "internalType": "uint256",
          "name": "_listingId",
          "type": "uint256"
        },
        {
          "internalType": "uint256",
          "name": "_newAskPrice",
          "type": "uint256"
        },
        {
          "internalType": "address payable",
          "name": "_saleEthRecipient",
          "type": "address"
        }
      ],
      "name": "updateListing",
      "outputs": [],
      "stateMutability": "nonpayable",
      "type": "function"
    },
    {
      "inputs": [
        {
          "internalType": "contract IKeyHashAdapterV2",
          "name": "_mailServerKeyHashAdapter",
          "type": "address"
        }
      ],
      "name": "updateMailServerKeyHashAdapter",
      "outputs": [],
      "stateMutability": "nonpayable",
      "type": "function"
    },
    {
      "inputs": [
        {
          "internalType": "contract ITransferDomainProcessor",
          "name": "_transferDomainProcessor",
          "type": "address"
        }
      ],
      "name": "updateTransferDomainProcessor",
      "outputs": [],
      "stateMutability": "nonpayable",
      "type": "function"
    },
    {
      "inputs": [
        {
          "internalType": "address",
          "name": "",
          "type": "address"
        },
        {
          "internalType": "uint256",
          "name": "",
          "type": "uint256"
        }
      ],
      "name": "userBids",
      "outputs": [
        {
          "internalType": "uint256",
          "name": "",
          "type": "uint256"
        }
      ],
      "stateMutability": "view",
      "type": "function"
    },
    {
      "inputs": [
        {
          "internalType": "address",
          "name": "",
          "type": "address"
        },
        {
          "internalType": "uint256",
          "name": "",
          "type": "uint256"
        }
      ],
      "name": "userListings",
      "outputs": [
        {
          "internalType": "uint256",
          "name": "",
          "type": "uint256"
        }
      ],
      "stateMutability": "view",
      "type": "function"
    },
    {
      "inputs": [],
      "name": "verifiedDomainRegistry",
      "outputs": [
        {
          "internalType": "contract IVerifiedDomainRegistry",
          "name": "",
          "type": "address"
        }
      ],
      "stateMutability": "view",
      "type": "function"
    },
    {
      "inputs": [
        {
          "internalType": "uint256",
          "name": "_bidId",
          "type": "uint256"
        }
      ],
      "name": "withdrawBid",
      "outputs": [],
      "stateMutability": "nonpayable",
      "type": "function"
    }
  ],
  "transactionHash": "0xc81076859575e189614ebfe3a69229523356c7b0de46c59cd74c7d6c63ad0fd4",
  "args": [
    "0x84e113087C97Cd80eA9D78983D4B8Ff61ECa1929",
    "25000000000000000",
    "0x0bC26FF515411396DD588Abd6Ef6846E04470227",
    "1800",
    "1800",
    []
  ],
  "numDeployments": 1,
  "solcInputHash": "d865a6f49eab8c58036d78b72f5cb448",
  "bytecode": "0x60806040523462000037576200002562000018620001e5565b94939093929192620002cd565b6040516154ee6200089382396154ee90f35b600080fd5b634e487b7160e01b600052604160045260246000fd5b90601f01601f191681019081106001600160401b038211176200007457604052565b6200003c565b90620000916200008960405190565b928362000052565b565b6001600160a01b031690565b90565b6001600160a01b0381165b036200003757565b905051906200009182620000a2565b80620000ad565b905051906200009182620000c4565b6001600160401b038111620000745760208091020190565b909291926200010b6200010582620000da565b6200007a565b93818552602080860192028301928184116200003757915b838310620001315750505050565b60208091620001418486620000b5565b81520192019162000123565b9080601f83011215620000375781516200009f92602001620000f2565b91909160c0818403126200003757620001848382620000b5565b92620001948160208401620000cb565b92604090620001a683838601620000b5565b93620001b68460608301620000cb565b93620001c68160808401620000cb565b9360018060a0850151921b03811162000037576200009f92016200014d565b6200020862005d8180380380620001fc816200007a565b9283398101906200016a565b909192939495565b90600019905b9181191691161790565b6200009f6200009f6200009f9290565b90620002446200009f6200024c9262000220565b825462000210565b9055565b906001600160a01b039062000216565b6200009f9062000093906001600160a01b031682565b6200009f9062000260565b6200009f9062000276565b90620002a06200009f6200024c9262000281565b825462000250565b9060ff9062000216565b90620002c56200009f6200024c92151590565b8254620002a8565b939192620003016200031194620002f96200030994620002f1620000919a6200034a565b600a62000230565b600b6200028c565b600e62000230565b600f62000230565b6200033662000321600162000220565b6200032e81600c62000230565b600d62000230565b6200034460006010620002b2565b6200077f565b62000355906200036f565b6200009160006004620002b2565b6200009f600162000220565b6200037a90620005c2565b620000916200038862000363565b600362000230565b634e487b7160e01b600052601160045260246000fd5b6000198114620003b65760010190565b62000390565b634e487b7160e01b600052603260045260246000fd5b90620003dc825190565b811015620003ee576020809102010190565b620003bc565b90620004009062000281565b600052602052604060002090565b156200041657565b60405162461bcd60e51b815260206004820152601a60248201527f4164647265737320697320616c726561647920616c6c6f7765640000000000006044820152606490fd5b0390fd5b9160001960089290920291821b911b62000216565b9190620004896200009f6200024c9362000220565b9083546200045f565b620000919160009162000474565b818110620004ac575050565b80620004bc600060019362000492565b01620004a0565b9091828110620004d257505050565b620000919290620004ea905b92600052602060002090565b9081019101620004a0565b906801000000000000000081116200007457816200051562000091935490565b90828155620004c3565b8151916001600160401b03831162000074576200054e620004de600192620005488686620004f5565b60200190565b92049160005b838110620005625750505050565b60019060206200057d6200009f86516001600160a01b031690565b940193818401550162000554565b9062000091916200051f565b9060ff60a01b9060a01b62000216565b90620005ba6200009f6200024c92151590565b825462000597565b620005cc620006b7565b600091620005da8362000220565b620005e76200009f845190565b8110156200069b57806200061162000604620006959386620003d2565b516001600160a01b031690565b620006546002620006406200063a620006366200062f8685620003f4565b5460ff1690565b1590565b6200040e565b6200064e83600192620003f4565b620002b2565b620006807f41f4a012571b6bf21f3c6557be5d1a28851ce415203203b84c14099b84fe97379162000281565b906200068b60405190565b600090a2620003a6565b620005da565b5091620006ae620000919260016200058b565b600190620005a7565b620000913362000830565b62000830565b6200009190620006d7620007dc565b62000754565b620000936200009f6200009f9290565b6200009f90620006dd565b156200070057565b60405162461bcd60e51b815260206004820152602660248201527f4f776e61626c653a206e6577206f776e657220697320746865207a65726f206160448201526564647265737360d01b6064820152608490fd5b6200009190620006c26200076d620000936000620006ed565b6001600160a01b0383161415620006f8565b6200009190620006c8565b156200079257565b60405162461bcd60e51b8152806200045b600482016020808252818101527f4f776e61626c653a2063616c6c6572206973206e6f7420746865206f776e6572604082015260600190565b62000091620007ea62000824565b62000806620007f93362000093565b916001600160a01b031690565b146200078a565b6200009f9062000093565b6200009f90546200080d565b6200009f600062000818565b6200083c600062000818565b906200084a8160006200028c565b620008816200087a7f8be0079c531659141344cd1fd0a4f28419497f9722a3daafe3b4186f6b6457e09362000281565b9162000281565b916200088c60405190565b600090a356fe6080604052600436101561001257600080fd5b60003560e01c80630373c0bf1461035257806303f693541461034d5780630d81539c146103485780630eaaf4c8146103435780630f2bc8b31461033e5780631756c30e146103395780631ce59f811461033457806321f67fbb1461032f5780632ac44f121461032a5780632f6db23814610325578063392e53cd146103205780633ec622791461031b5780634423c5f11461031657806346904840146103115780634f20fe5d1461030c5780635c975abb1461030757806364b55bed146103025780636759789f146102fd5780636aa633b6146102f85780636c2c9c7d146102f35780636caacbe7146102ee578063715018a6146102e95780637e064092146102e45780637e7a9c6c146102df5780637f17caa7146102da57806381c14314146102d557806386cfa7d3146102d057806387547367146102cb578063887f495a146102c65780638da5cb5b146102c15780639012c4a8146102bc578063944b8b2e146102b757806396ec50c3146102b25780639d8717a8146102ad578063a15ce280146102a8578063a8ef333f146102a3578063ad9287631461029e578063babcc53914610299578063bb46acd314610294578063bca0b9101461028f578063c0c53b8b1461028a578063c6a2aac814610285578063cf8e629a14610280578063ddca3f431461027b578063de74e57b14610276578063e38df96d14610271578063e6282c6e1461026c578063eb18a9d814610267578063f15851e614610262578063f160d3691461025d578063f2fde38b146102585763f6cda469036103c9576116f3565b6116db565b6116c3565b6116ab565b611690565b611678565b61165d565b61161a565b611474565b611450565b611438565b61141f565b6113dd565b6113b7565b611382565b611353565b611338565b611318565b6112b0565b6111c3565b61118e565b611151565b61112c565b611113565b6110cb565b6110af565b611012565b610ffa565b610fdf565b610fbb565b610fa3565b610f8b565b610ee3565b610ebc565b610e89565b610d31565b610cae565b610c87565b610bf9565b610b9e565b610963565b610935565b6108f7565b6108bb565b6108a3565b61088b565b610873565b610858565b610834565b6107fc565b6106da565b610682565b634e487b7160e01b600052604160045260246000fd5b90601f01601f191681019081106001600160401b0382111761038e57604052565b610357565b906103a76103a060405190565b928361036d565b565b6001600160401b03811161038e5760208091020190565b805b036103c957565b600080fd5b905035906103a7826103c0565b909291926103f06103eb826103a9565b610393565b93818552602080860192028301928184116103c957915b8383106104145750505050565b6020809161042284866103ce565b815201920191610407565b9080601f830112156103c957816020610448933591016103db565b90565b906020828203126103c95781356001600160401b0381116103c957610448920161042d565b9052565b6001600160a01b031690565b60005b8381106104935750506000910152565b8181015183820152602001610483565b6104c46104cd6020936104d7936104b8815190565b80835293849260200190565b95869101610480565b601f01601f191690565b0190565b906104fb6104f46104ea845190565b8084529260200190565b9260200190565b9060005b81811061050c5750505090565b9091926105296105226001928651815260200190565b9460200190565b9291016104ff565b80516001600160a01b031682526104489161012061058161014083016020858101516001600160a01b03169085015261056f60408601516040860152565b606085015184820360608601526104a3565b9261059160808201516080850152565b6105a060a082015160a0850152565b6105af60c082015160c0850152565b6105be60e082015160e0850152565b610100818101511515908401520151906101208184039101526104db565b8051825261044891604081019160200151906020818403910152610531565b90610448916105dc565b9061061b610611835190565b8083529160200190565b908161062d6020830284019460200190565b926000915b83831061064157505050505090565b9091929394602061066461065d838560019503875289516105fb565b9760200190565b9301930191939290610632565b602080825261044892910190610605565b346103c9576106a961069d61069836600461044b565b613266565b60405191829182610671565b0390f35b60009103126103c957565b610448916008021c81565b9061044891546106b8565b6104486000600c6106c3565b346103c9576106ea3660046106ad565b6106a96106f56106ce565b6040515b9182918290815260200190565b6001600160a01b0381166103c2565b905035906103a782610706565b6001600160401b03811161038e57602090601f01601f19160190565b90826000939282370152565b9092919261075a6103eb82610722565b938185526020850190828401116103c9576103a79261073e565b9080601f830112156103c9578160206104489335910161074a565b909160c0828403126103c9576107a583836103ce565b926107b381602085016103ce565b926107c182604083016103ce565b926107cf8360608401610715565b926080830135906001600160401b0382116103c9576107f381610448938601610774565b9360a0016103ce565b346103c95761081b61080f36600461078f565b94939093929192611b75565b604051005b906020828203126103c957610448916103ce565b346103c95761081b610847366004610820565b612961565b6104486000600f6106c3565b346103c9576108683660046106ad565b6106a96106f561084c565b346103c95761081b610886366004610820565b61258d565b346103c95761089b3660046106ad565b61081b61281a565b346103c9576108b33660046106ad565b61081b612be6565b346103c95761081b6108ce366004610820565b61282f565b90816102409103126103c95790565b90610240828203126103c957610448916108d3565b346103c95761081b61090a3660046108e2565b612106565b610448916008021c5b60ff1690565b90610448915461090f565b6104486000601061091e565b346103c9576109453660046106ad565b6106a9610950610929565b6040515b91829182901515815260200190565b346103c9576109733660046106ad565b61081b612b78565b6104486104486104489290565b906109929061097b565b600052602052604060002090565b6104489081565b61044890546109a0565b634e487b7160e01b600052602260045260246000fd5b90600160028304921680156109e7575b60208310146109e257565b6109b1565b91607f16916109d7565b80546000939291610a0e610a04836109c7565b8085529360200190565b9160018116908115610a605750600114610a2757505050565b610a3a9192939450600052602060002090565b916000925b818410610a4c5750500190565b805484840152602090930192600101610a3f565b92949550505060ff1916825215156020020190565b90610448916109f1565b906103a7610a9992610a9060405190565b93848092610a75565b038361036d565b61044890610918565b6104489054610aa0565b610abe906007610988565b90610ad082546001600160a01b031690565b91610add600182016109a7565b91610aea60028301610a7f565b91610af7600382016109a7565b91610b04600483016109a7565b91610b11600582016109a7565b916104486007610b23600685016109a7565b9301610aa9565b93989795610b8860e096610b81610b7988610b9698610b6c6103a79e99610b65610b8f9a600061010087019601906001600160a01b03169052565b60208d0152565b8a820360408c01526104a3565b9c6060890152565b6080870152565b60a0850152565b60c0830152565b019015159052565b346103c9576106a9610bb9610bb4366004610820565b610ab3565b94610bcc98969894919493929360405190565b98899889610b2a565b610448916008021c610474565b906104489154610bd5565b6104486000600b610be2565b346103c957610c093660046106ad565b6106a9610c14610bed565b6040515b918291826001600160a01b03909116815260200190565b90610c3e6104f46104ea845190565b9060005b818110610c4f5750505090565b909192610c6e61052260019286516001600160a01b0316815260200190565b929101610c42565b602080825261044892910190610c2f565b346103c957610c973660046106ad565b6106a9610ca26136f8565b60405191829182610c76565b346103c957610cbe3660046106ad565b6106a96109506118fa565b634e487b7160e01b600052603260045260246000fd5b8054821015610d0257610cf9600191600052602060002090565b91020190600090565b610cc9565b60016000610d13825490565b831015610d2e575061044891610d2891610cdf565b90610be2565b80fd5b346103c9576106a9610c14610d47366004610820565b610d07565b906020828203126103c95761044891610715565b80516001600160a01b03168252906104489060e080610d9e6101008401610d8c60208801516020870152565b604087015185820360408701526104a3565b94610dae60608201516060860152565b610dbd60808201516080860152565b610dcc60a082015160a0860152565b610ddb60c082015160c0860152565b01511515910152565b805182529061044890604080610e096060840160208701518582036020870152610d60565b9401511515910152565b9061044891610de4565b90610e29610611835190565b9081610e3b6020830284019460200190565b926000915b838310610e4f57505050505090565b90919293946020610e6b61065d83856001950387528951610e13565b9301930191939290610e40565b602080825261044892910190610e1d565b346103c9576106a9610ea4610e9f366004610d4c565b6134df565b60405191829182610e78565b6104486014600061091e565b346103c957610ecc3660046106ad565b6106a9610950610eb0565b6104486000600d6106c3565b346103c957610ef33660046106ad565b6106a96106f5610ed7565b90929192610f0e6103eb826103a9565b93818552602080860192028301928184116103c957915b838310610f325750505050565b60208091610f408486610715565b815201920191610f25565b9080601f830112156103c95781602061044893359101610efe565b906020828203126103c95781356001600160401b0381116103c9576104489201610f4b565b346103c95761081b610f9e366004610f66565b614f6c565b346103c957610fb33660046106ad565b61081b611743565b346103c95761081b610fce366004610820565b612f05565b6104486000600e6106c3565b346103c957610fef3660046106ad565b6106a96106f5610fd3565b346103c95761081b61100d366004610f66565b614e73565b346103c9576110223660046106ad565b61081b612788565b91906040838203126103c957610448906110448185610715565b936020016103ce565b61044890610474906001600160a01b031682565b6104489061104d565b61044890611061565b906109929061106a565b61108b600691600092611073565b90611094825490565b831015610d2e5750610448916110a991610cdf565b906106c3565b346103c9576106a96106f56110c536600461102a565b9061107d565b346103c95761081b6110de366004610d4c565b612d36565b90916060828403126103c9576104486110fc84846103ce565b9361110a81602086016103ce565b93604001610715565b346103c95761081b6111263660046110e3565b91612449565b346103c95761113c3660046106ad565b6106a9610c146000546001600160a01b031690565b346103c95761081b611164366004610820565b612dda565b61044860006011610be2565b6104709061106a565b6020810192916103a79190611175565b346103c95761119e3660046106ad565b6106a96111a9611169565b6040519182918261117e565b61108b600891600092611073565b346103c9576106a96106f56111d936600461102a565b906111b5565b906111eb610611835190565b90816111fd6020830284019460200190565b926000915b83831061121157505050505090565b9091929394602061122d61065d83856001950387528951610e13565b9301930191939290611202565b90610448916111df565b90611250610611835190565b90816112626020830284019460200190565b926000915b83831061127657505050505090565b9091929394602061129261065d8385600195038752895161123a565b9301930191939290611267565b602080825261044892910190611244565b346103c9576106a96112cb6112c636600461044b565b6135ce565b6040519182918261129f565b916060838303126103c9576112ec82846103ce565b926112fa83602083016103ce565b9260408201356001600160401b0381116103c9576104489201610774565b61081b6113263660046112d7565b91611c76565b61044860006012610be2565b346103c9576113483660046106ad565b6106a96111a961132c565b346103c95761081b611366366004610820565b612fc9565b6104489061137d600291600092611073565b61091e565b346103c9576106a9610950611398366004610d4c565b61136b565b91906040838203126103c9576104489061104481856103ce565b61081b6113c536600461139d565b90612695565b6104489061137d600991600092611073565b346103c9576106a96109506113f3366004610d4c565b6113cb565b90916060828403126103c9576104486114118484610715565b9361110a8160208601610715565b346103c95761081b6114323660046113f8565b91612b5a565b346103c9576114483660046106ad565b61081b615049565b346103c9576114603660046106ad565b61081b6150f4565b6104486000600a6106c3565b346103c9576114843660046106ad565b6106a96106f5611468565b805460009392916114a2610a04836109c7565b9160018116908115610a6057506001146114bb57505050565b6114ce9192939450600052602060002090565b916000925b8184106114e05750500190565b8054848401526020909301926001016114d3565b906104489161148f565b906103a7610a999261150f60405190565b938480926114f4565b611523906005610988565b80546001600160a01b03169161154360018301546001600160a01b031690565b91611550600282016109a7565b9161155d600383016114fe565b9161156a600482016109a7565b91611577600583016109a7565b91611584600682016109a7565b916104486008610b23600785016109a7565b9499989690610100966116056115fd61160c93610b96986115f06103a79e996115e96116139a60208f6115da61012082019860008301906001600160a01b03169052565b01906001600160a01b03169052565b60408d0152565b8a820360608c01526104a3565b9c6080890152565b60a0870152565b60c0850152565b60e0830152565b346103c9576106a9611635611630366004610820565b611518565b9561164899979995919594929460405190565b998a998a611596565b61044860016010610be2565b346103c95761166d3660046106ad565b6106a96111a9611651565b346103c95761081b61168b366004610820565b612454565b346103c9576106a961069d6116a6366004610d4c565b613312565b346103c95761081b6116be366004610820565b612243565b346103c95761081b6116d6366004610d4c565b612e3d565b346103c95761081b6116ee366004610d4c565b611864565b346103c95761081b611706366004610d4c565b612d8c565b61171361179f565b6103a7611731565b6104746104486104489290565b6104489061171b565b6103a761173e6000611728565b61189d565b6103a761170b565b1561175257565b60405162461bcd60e51b81528061179b600482016020808252818101527f4f776e61626c653a2063616c6c6572206973206e6f7420746865206f776e6572604082015260600190565b0390fd5b6103a76117b46000546001600160a01b031690565b6117cd6117c033610474565b916001600160a01b031690565b1461174b565b6103a7906117df61179f565b61183f565b156117eb57565b60405162461bcd60e51b815260206004820152602660248201527f4f776e61626c653a206e6577206f776e657220697320746865207a65726f206160448201526564647265737360d01b6064820152608490fd5b6103a79061173e6118536104746000611728565b6001600160a01b03831614156117e4565b6103a7906117d3565b906001600160a01b03905b9181191691161790565b906118926104486118999261106a565b825461186d565b9055565b6000546001600160a01b0316906118b5816000611882565b6118e86118e27f8be0079c531659141344cd1fd0a4f28419497f9722a3daafe3b4186f6b6457e09361106a565b9161106a565b916118f260405190565b80805b0390a3565b6104486004610aa9565b6104489060a01c610918565b6104489054611904565b1561192157565b60405162461bcd60e51b81526020600482015260166024820152751059191c995cdcc81a5cc81b9bdd08185b1b1bddd95960521b6044820152606490fd5b906103a795949392916119726000611910565b156119975761199261198d611988336002611073565b610aa9565b61191a565b6119ed565b611992600161191a565b156119a857565b60405162461bcd60e51b815260206004820152601c60248201527f436f6e7472616374206d75737420626520696e697469616c697a6564000000006044820152606490fd5b906103a79594939291611a08611a036010610aa9565b6119a1565b906103a79594939291611a19611bc2565b611a71565b9081526040810192916103a79160200152565b6040513d6000823e3d90fd5b611a6a6103a794611a63606094989795611a5c608086019a6000870152565b6020850152565b6040830152565b0190611175565b9385611a9791969396611a8e611a868761106a565b858a8a6138e9565b85888589613dc3565b91611ab2611aad6011546001600160a01b031690565b61106a565b6327d335a890803b156103c957611ad891600091611acf60405190565b93849260e01b90565b8252818381611aeb8a8d60048401611a1e565b03925af18015611b7057611b52575b50611b4d3394611b3a611b36611b307f77a8be0890be6d79729c684636469d83d455e267a0bf0c9bc2463d8db867a5419761097b565b9761106a565b9790565b97611b4460405190565b94859485611a3d565b0390a4565b611b6a906000611b62818361036d565b8101906106ad565b38611afa565b611a31565b906103a7959493929161195f565b15611b8a57565b60405162461bcd60e51b815260206004820152601060248201526f14185d5cd8589b194e881c185d5cd95960821b6044820152606490fd5b6103a7611bd4611bd06118fa565b1590565b611b83565b90611bec9291611be7611cf8565b611bf4565b6103a7611d34565b906103a79291611c02611bc2565b9091611c2a9034938484611c1a610448826005610988565b611c25848483613f91565b61414e565b903391611b4d611c6c611c66611c607f6d2b783673dbbf046f2e5a1f3c92ce62c29a0f5385f2b1f0eaf19019ef28cb559461097b565b9461097b565b9461106a565b946106f960405190565b906103a79291611bd9565b610448600261097b565b15611c9257565b60405162461bcd60e51b815260206004820152601f60248201527f5265656e7472616e637947756172643a207265656e7472616e742063616c6c006044820152606490fd5b9060001990611878565b90611cf16104486118999261097b565b8254611cd7565b6103a7611d0560036109a7565b611d23611d10611c81565b918290611d1c565b9190565b1415611c8b565b6003611ce1565b610448600161097b565b6103a7611d23611d2a565b6103a790611d50611a036010610aa9565b611bec90611d5c611cf8565b6103a790611d68611bc2565b611f2e565b6104489060081c610474565b6104489054611d6d565b905051906103a7826103c0565b90929192611da06103eb82610722565b938185526020850190828401116103c9576103a792610480565b9080601f830112156103c957815161044892602001611d90565b6080818303126103c957611de88282611d83565b92611df68360208401611d83565b926040830151906001600160401b0382116103c957611e1a81610448938601611dba565b93606001611d83565b9037565b6103a791604091611e23565b906104d781604093611e27565b611e4c611d1860029390565b806000925b848410611e5f575050505050565b611e7b611e74600192611e6f8690565b611e33565b9360400190565b93019291611e51565b6103a79161014091611e23565b6103a7919061010090611ecf90611ea88482611e27565b611eb9604082016040860190611e40565b611eca60c0820160c0860190611e27565b820190565b910190611e84565b610240810192916103a79190611e91565b9081526040810192916103a7916020906115da565b634e487b7160e01b600052601160045260246000fd5b9190611f1e565b9290565b8203918211611f2957565b611efd565b6000611f6b91611f41611aad6010611d79565b611f60836365cd296c611f5360405190565b9687958694859360e01b90565b835260048301611ed7565b03925af18015611b70576000918291829182916120dd575b50611fbb611f95610448846007610988565b93600595611fb36104486001880198611fad8a6109a7565b90610988565b9384876143af565b611fd0611aad6011546001600160a01b031690565b90632b8a8002611fe2600483016109a7565b85546001600160a01b03165b93803b156103c9576120166000809461202161200960405190565b9889968795869460e01b90565b845260048401611ee8565b03925af1908115611b70576120719561207d93612076936120c7575b5061204a600687016109a7565b96828661206b61206560018c9701546001600160a01b031690565b946109a7565b98614557565b6148fd565b8094611f13565b926120b16120ab7f3247261fffac93019b3a34aa6692df18a5ddea75a12bf8ec4539903a608a6e4c9361097b565b9361097b565b936118f56120be60405190565b92839283611a1e565b6120d7906000611b62818361036d565b3861203d565b925090506120fd92503d8091833e6120f5818361036d565b810190611dd4565b90919238611f83565b6103a790611d3f565b611bec9061211b611cf8565b6121ad565b1561212757565b60405162461bcd60e51b815260206004820152601760248201527f43616c6c6572206973206e6f7420626964206f776e65720000000000000000006044820152606490fd5b1561217357565b60405162461bcd60e51b81526020600482015260126024820152714c697374696e67206e6f742061637469766560701b6044820152606490fd5b6121bb610448826007610988565b60018101916121d16104486005611fad866109a7565b82906121f66121e783546001600160a01b031690565b6121f0336117c0565b14612120565b61220a61220560088301610aa9565b61216c565b61221f611aad6011546001600160a01b031690565b91632b8a800290611fee612235600485016109a7565b91546001600160a01b031690565b6103a79061210f565b906103a7929161225a611bc2565b612364565b1561226657565b60405162461bcd60e51b815260206004820152601b60248201527f43616c6c6572206973206e6f74206c697374696e67206f776e657200000000006044820152606490fd5b156122b257565b60405162461bcd60e51b8152602060048201526024808201527f41736b207072696365206973206c657373207468616e206d696e2062696420706044820152637269636560e01b6064820152608490fd5b1561230a57565b60405162461bcd60e51b815260206004820152601a60248201527f496e76616c69642073616c652045544820726563697069656e740000000000006044820152606490fd5b9081526040810192916103a791602090611a6a565b919091612375610448826005610988565b9161240081600161238d86546001600160a01b031690565b3396906123a39061239d896117c0565b1461225f565b6123b261220560088301610aa9565b6123cd6123c4610448600784016109a7565b895b10156122ab565b6123ed6123dd6104746000611728565b6123e68561106a565b1415612303565b6123fa8860068301611ce1565b01611882565b61243361242d7f6df0cec5e0539cca31fe823df048a8d5834ba5dc079fa1d38e5157f00f9d085b9361097b565b9361106a565b936118f561244060405190565b9283928361234f565b906103a7929161224c565b612462610448826005610988565b80546001600160a01b031633919061247d9061239d846117c0565b61248c61220560088301610aa9565b6124a1611aad6011546001600160a01b031690565b90636e74da686124b3600483016109a7565b833b156103c9576124e9936124db600080946124ce60405190565b9788958694859360e01b90565b835260048301526024820190565b03925af1908115611b7057612505928592612532575b50614ca6565b6118e86118e27f5832f888aea12cc23bd891f2d9fd4bd01b8ce0e22898b6e7cee1519f5bd469549361097b565b612542906000611b62818361036d565b386124ff565b1561254f57565b60405162461bcd60e51b815260206004820152601660248201527543616c6c6572206973206e6f7420726567697374727960501b6044820152606490fd5b6125cb8161259f610448826005610988565b6125c66125b7611aad6011546001600160a01b031690565b6125c0336117c0565b14612548565b614ca6565b6125f57ff7504a55c42715ea3e852b679d6453ecfe02acbddb4d0652aa251d4458b7cc219161097b565b906125ff60405190565b80805b0390a2565b90611bec91612614611cf8565b906103a791612621611bc2565b612659826006612635610448856007610988565b6126538361264d6104486005611fad600187016109a7565b8361465d565b01611ce1565b33906118f561268b61242d7f8283dd04c4a2b6691bd80232f254e0ad876b8bb149938d3e7ced5c6e8a35b6149361097b565b936106f960405190565b906103a791612607565b6126ac611a036010610aa9565b6103a7612720565b156126bb57565b60405162461bcd60e51b815260206004820152601e60248201527f496e7374616e742061636365707420616c726561647920656e61626c656400006044820152606490fd5b9060ff90611878565b9061271961044861189992151590565b8254612700565b3380612751600961273f61273a611bd06119888685611073565b6126b4565b61274c6001948592611073565b612709565b61260261277e7f2e259e0564e75f0e10ce0e012a5ce2528ae513b0188b619bcc581b8ba8db70329261106a565b9261095460405190565b6103a761269f565b61279d611a036010610aa9565b6103a76127f1565b156127ac57565b60405162461bcd60e51b815260206004820152601f60248201527f496e7374616e742061636365707420616c72656164792064697361626c6564006044820152606490fd5b3380612751600961280d6128086119888584611073565b6127a5565b61274c6000948592611073565b6103a7612790565b91908201809211611f2957565b6128a1600060076128936128466104488684610988565b91612889600561286d612867610448612861600189016109a7565b84610988565b86614781565b6128814261287b600f6109a7565b90612822565b908501611ce1565b6001908301612709565b01546001600160a01b031690565b6118e86118e27f9da9db6af7fcfa5edbaa006b61a744d33fe4651a4c594cddd3e9a7e757ecd8d59361097b565b611bec906128da611cf8565b6128e8610448826007610988565b9061291d6129006104486005611fad600187016109a7565b61290a8185614872565b82612917600686016109a7565b94614c0b565b33906129318361292c8461106a565b612a59565b6118f561268b61242d7f8f8619524e8d462cead34604bd2247ede24175801481e4d0b8059ac8aa41c3019361097b565b6103a7906128ce565b1561297157565b60405162461bcd60e51b815260206004820152601d60248201527f416464726573733a20696e73756666696369656e742062616c616e63650000006044820152606490fd5b906129c36103eb83610722565b918252565b3d156129e2576129d73d6129b6565b903d6000602084013e565b606090565b156129ee57565b60405162461bcd60e51b815260206004820152603a60248201527f416464726573733a20756e61626c6520746f2073656e642076616c75652c207260448201527f6563697069656e74206d617920686176652072657665727465640000000000006064820152608490fd5b60006103a792612a7a8293611aad612a703061106a565b849031101561296a565b90612a8460405190565b90818003925af1612a936129c8565b506129e7565b906103a79291612aa761179f565b612b18565b15612ab357565b60405162461bcd60e51b8152602060048201526013602482015272105b1c9958591e481a5b9a5d1a585b1a5e9959606a1b6044820152606490fd5b90610100600160a81b039060081b611878565b90612b116104486118999261106a565b8254612aee565b612b4e9291612b40612b4792612b39612b34611bd06010610aa9565b612aac565b6010612b01565b6011611882565b6012611882565b6103a760016010612709565b906103a79291612a99565b612b6d61179f565b6103a76103a7612bcb565b6103a7612b65565b612b88611bc2565b6103a7612b9760016004612709565b33612bc67f62e78cea01bee320cd4e420270b5ea74000d11b0c9f74754ebdbfc544b05a25891610c1860405190565b0390a1565b6103a7612b80565b612bdb61179f565b6103a76103a7612c34565b6103a7612bd3565b612bf6612c7f565b6103a7612c0560006004612709565b33612bc67f5db9ee0a495bf2e6ff9c91a7834c1ba4fdd244a5e8aa4e537bd38aeae4b073aa91610c1860405190565b6103a7612bee565b15612c4357565b60405162461bcd60e51b815260206004820152601460248201527314185d5cd8589b194e881b9bdd081c185d5cd95960621b6044820152606490fd5b6103a7612c8a6118fa565b612c3c565b6103a790612c9b61179f565b612cde565b15612ca757565b60405162461bcd60e51b815260206004820152600f60248201526e496e76616c6964206164647265737360881b6044820152606490fd5b612d01612cea8261106a565b612cfa6117c06104746000611728565b1415612ca0565b612d0c816010612b01565b6125f57f9106eb309cc633a951e77bd36af34646a9df8e6ade485938c34e3844a37b79da9161106a565b6103a790612c8f565b6103a790612d4b61179f565b612d57612cea8261106a565b612d62816012611882565b6125f57f9d3407c7200ba4f49e97f3d3f8250ec01c24b0ada6fa31053d71850793b739539161106a565b6103a790612d3f565b6103a790612da161179f565b612dac81600a611ce1565b612bc67f8c4d35e54a3f2ef1134138fd8ea3daee6a3c89e10d2665996babdf70261e2c76916106f960405190565b6103a790612d95565b6103a790612def61179f565b612e08612dff6104746000611728565b612cfa8361106a565b612e1381600b611882565b6125f57f7a7b5a0a132f9e0581eb8527f66eae9ee89c2a3e79d4ac7e41a1f1f4d48a7fc29161106a565b6103a790612de3565b6103a790612e5261179f565b612eb8565b15612e5e57565b60405162461bcd60e51b815260206004820152602c60248201527f42696420736574746c656d656e7420706572696f64206d75737420626520677260448201526b06561746572207468616e20360a41b6064820152608490fd5b612ecc612ec5600061097b565b8211612e57565b612ed781600e611ce1565b612bc67f09a165ff77cf0f319f9ece89bc6dbe2a469a0da2640c9e6b501132846843daf5916106f960405190565b6103a790612e46565b6103a790612f1a61179f565b612f7c565b15612f2657565b60405162461bcd60e51b815260206004820152602860248201527f42696420726566756e6420706572696f64206d75737420626520677265617465604482015267072207468616e20360c41b6064820152608490fd5b612f90612f89600061097b565b8211612f1f565b612f9b81600f611ce1565b612bc67f90e0312fddcd5cbec358d5c7d63976e5c97d71dfb8d6cd5f2c53b0a1a043ccf0916106f960405190565b6103a790612f0e565b906129c36103eb836103a9565b6104486040610393565b610448610140610393565b612ffc612fe9565b906000825260208080808080808080808b01600081520160008152016060815201600081520160008152016000815201600081520160008152016060905250565b905250565b610448612ff4565b613052612fdf565b9060008252602080830161303d613042565b61044861304a565b60005b82811061307b57505050565b602090613086613064565b818401520161306f565b906103a76130a66130a084612fd2565b936103a9565b601f19016020840161306c565b6000198114611f295760010190565b906130cb825190565b811015610d02576020809102010190565b906130f76130eb6104ea845490565b92600052602060002090565b9060005b8181106131085750505090565b90919261312c61312560019261311d876109a7565b815260200190565b9460010190565b9291016130fb565b90610448916130dc565b906103a7610a999261314f60405190565b93848092613134565b906103a76132556009613169612fe9565b9461318b61317e82546001600160a01b031690565b6001600160a01b03168752565b6131b26131a260018301546001600160a01b031690565b6001600160a01b03166020880152565b6131c86131c1600283016109a7565b6040880152565b6131de6131d7600383016114fe565b6060880152565b6131f46131ed600483016109a7565b6080880152565b61320a613203600583016109a7565b60a0880152565b613220613219600683016109a7565b60c0880152565b61323661322f600783016109a7565b60e0880152565b61324f61324560088301610aa9565b1515610100880152565b0161313e565b610120840152565b61044890613158565b90613277613272835190565b613090565b91600090836132858361097b565b613290610448845190565b81101561330257806132ac6132a86132fd93866130c2565b5190565b6132e26132db6132c46005611fad6132a8878b6130c2565b6132d66132cf612fdf565b948a860152565b61325d565b6020830152565b6132ec82896130c2565b526132f781886130c2565b506130b3565b613285565b5093505050565b6104489061313e565b61332961332e91613321606090565b506006611073565b613309565b9061333a613272835190565b91600090836133488361097b565b613353610448845190565b811015613302578061336b6132a861337c93866130c2565b6132e26132db6132c4836005610988565b613348565b6104486060610393565b610448610100610393565b61339e61338b565b906000825260208080808080808089016000815201606081520160008152016000815201600081520160005b8152016000905250565b610448613396565b6133e4613381565b90600082526020808084016133ca6133d4565b6104486133dc565b60005b82811061340e57505050565b6020906134196133f7565b8184015201613402565b906103a76134336130a084612fd2565b601f1901602084016133ff565b906103a76134cd600761345161338b565b9461346661317e82546001600160a01b031690565b61347c613475600183016109a7565b6020880152565b61348b6131c160028301610a7f565b61349a6131d7600383016109a7565b6134a96131ed600483016109a7565b6134b8613203600583016109a7565b6134c7613219600683016109a7565b01610aa9565b151560e0840152565b61044890613440565b906134ee613329836008611073565b6134fe6134f9825190565b613423565b926000918461350c8461097b565b613517610448845190565b81101561358c578061352f6132a861358793866130c2565b61357261353d826007610988565b613569611a5c6135516119888b6009611073565b9261356461355d613381565b968d880152565b6134d6565b15156040830152565b61357c828a6130c2565b526132f781896130c2565b61350c565b509450505050565b60005b8281106135a357505050565b606082820152602001613597565b906103a76135c16130a084612fd2565b601f190160208401613594565b6135de6135d9825190565b6135b1565b806000916135eb8361097b565b945b6135f8610448865190565b8610156136f057613621600961361b6136146132a88a8a6130c2565b6005610988565b01613309565b9461362d6134f9875190565b61363788866130c2565b5261364287856130c2565b5061364c8561097b565b613657610448885190565b8110156136d957806132f781886136b86136776132a86136d4978e6130c2565b613569611a5c60076135646136a96119886136928785610988565b936136a38a6128938a600994610988565b90611073565b946136b2613381565b97880152565b6136c28c8a6130c2565b51906136ce83836130c2565b526130c2565b61364c565b50929450946136e7906130b3565b949391936135ed565b935093505050565b61044861517f565b905051906103a782610706565b91909160a0818403126103c95761372460a0610393565b9260006137318284613700565b908501526020820151906001600160401b0382116103c9576137588161378b938501611dba565b6020860152604061376b82828601611d83565b90860152606061377d82828601613700565b908601526080809301611d83565b90830152565b9190916040818403126103c9576137a86040610393565b9260006137b58284611d83565b9085015260208201516001600160401b0381116103c9576132db920161370d565b906020828203126103c95781516001600160401b0381116103c9576104489201613791565b1561380257565b60405162461bcd60e51b815260206004820152601a60248201527f43616c6c6572206973206e6f7420646f6d61696e206f776e65720000000000006044820152606490fd5b1561384e57565b60405162461bcd60e51b815260206004820152602160248201527f446f6d61696e20616c7265616479206c6973746564206f6e20726567697374726044820152607960f81b6064820152608490fd5b156138a457565b60405162461bcd60e51b815260206004820152601960248201527f4d696e696d756d20626964207072696365206973207a65726f000000000000006044820152606490fd5b60006139269194939294613908611aad6011546001600160a01b031690565b6124db631a24254761391960405190565b9586948593849360e01b90565b03915afa938415611b70576104746123e6936123c6611d18613985606060206103a79b6117c0996000916139bf575b5001805151613976906001600160a01b0316613970336117c0565b146137fb565b5101516001600160a01b031690565b946104486139b860006139b361399a82611728565b996139ad6001600160a01b038c166117c0565b14613847565b61097b565b821161389d565b6139da913d8091833e6139d2818361036d565b8101906137d6565b38613955565b369037565b906103a76139f56130a084612fd2565b601f1901602084016139e0565b634e487b7160e01b600052600060045260246000fd5b90611cf16104486118999290565b9160001960089290920291821b911b611878565b9190613a4b6104486118999361097b565b908354613a26565b6103a791600091613a3a565b818110613a6a575050565b80613a786000600193613a53565b01613a5f565b9190601f8111613a8d57505050565b613a9f6103a793600052602060002090565b906020601f840181900483019310613ac2575b6020601f909101045b0190613a5f565b9091508190613ab2565b600019600883021c1916906002021790565b90613ae7815190565b906001600160401b03821161038e57613b0a82613b0485546109c7565b85613a7e565b602090601f8311600114613b3857611899929160009183613b2d575b5050613acc565b015190503880613b26565b601f19831691613b4d85600052602060002090565b9260005b818110613b8b57509160029391856001969410613b72575b50505002019055565b01516000196008601f8516021c19169055388080613b69565b91936020600181928787015181550195019201613b51565b906103a791613ade565b81810292918115918404141715611f2957565b818110613bcb575050565b80613bd96000600193613a53565b01613bc0565b90613bf290600019906020036008021c90565b8154169055565b9091828110613c0757505050565b6103a79290613c15906130eb565b9081019101613bc0565b90600160401b811161038e5781613c376103a7935490565b90828155613bf9565b8151916001600160401b03831161038e57613c6a6130eb600192613c648686613c1f565b60200190565b92049160005b838110613c7d5750505050565b6001906020613c8d610448865190565b9401938184015501613c70565b906103a791613c40565b6103a79190613d8a9061012090600990613ccf81613cc987516001600160a01b031690565b90611882565b613cea60018201613cc960208801516001600160a01b031690565b613d0260028201613cfc604088015190565b90613a18565b613d1a60038201613d14606088015190565b90613ba3565b613d2c60048201613cfc608088015190565b613d4460058201613d3e60a088015190565b90611ce1565b613d5660068201613d3e60c088015190565b613d6860078201613d3e60e088015190565b613d8360088201613d7d610100880151151590565b90612709565b0192015190565b90613c9a565b906103a791613ca4565b90815491600160401b83101561038e5782613dbd9160016103a795018155610cdf565b90613a3a565b919295949095613dd1600090565b50613ddc600d6109a7565b93849733944290600198600096613df28861097b565b613dfb906139e5565b9689613e05612fe9565b998a0190613e1b91906001600160a01b03169052565b6001600160a01b0316602089015260408801526060870152608086015260a085015260c084015260e0830152841515610100830152610120820152613e61836005610988565b90613e6b91613d90565b613e76906006611073565b90613e8091613d9a565b613e8a600d6109a7565b90613e949061097b565b613e9d91612822565b6103a790600d611ce1565b15613eaf57565b60405162461bcd60e51b8152602060048201526016602482015275131a5cdd1a5b99c8191bd95cc81b9bdd08195e1a5cdd60521b6044820152606490fd5b15613ef457565b60405162461bcd60e51b8152602060048201526024808201527f426964207072696365206973206c657373207468616e206d696e2062696420706044820152637269636560e01b6064820152608490fd5b15613f4c57565b60405162461bcd60e51b815260206004820152601d60248201527f427579657220494420686173682063616e6e6f7420626520656d7074790000006044820152606490fd5b611d18610448613ffb926139b36103a79695613ff4611d186104486007613fc260008801546001600160a01b031690565b96613fdf600098613fd86117c06104748c611728565b1415613ea8565b613fee61220560088301610aa9565b016109a7565b1015613eed565b1415613f45565b9061400b815190565b906001600160401b03821161038e5761402882613b0485546109c7565b602090601f831160011461404a57611899929160009183613b2d575050613acc565b601f1983169161405f85600052602060002090565b9260005b81811061408357509160029391856001969410613b725750505002019055565b91936020600181928787015181550195019201614063565b906103a791614002565b6103a79190613d7d9060e0906007906140c981613cc987516001600160a01b031690565b6140db60018201613d3e602088015190565b6140f3600282016140ed604088015190565b9061409b565b61410560038201613cfc606088015190565b61411760048201613d3e608088015190565b61412960058201613d3e60a088015190565b61413b60068201613d3e60c088015190565b01920151151590565b906103a7916140a5565b919493909261415d600c6109a7565b93849283973393426000199160009461417461338b565b6001600160a01b0389168782015296602088015260408701526060860152608085015260a084015260c0830152151560e08201526141b3836007610988565b906141bd91614144565b6141c8906008611073565b906141d291613d9a565b600901906141df91613d9a565b6141e9600c6109a7565b6141f3600161097b565b6141fc91612822565b6103a790600c611ce1565b1561420e57565b60405162461bcd60e51b8152602060048201526012602482015271109a5908191bd95cc81b9bdd08195e1a5cdd60721b6044820152606490fd5b8015156103c2565b905051906103a782614248565b906020828203126103c95761044891614250565b1561427857565b60405162461bcd60e51b815260206004820152601d60248201527f496e76616c6964206d616e6167656420444b494d206b657920686173680000006044820152606490fd5b156142c457565b60405162461bcd60e51b815260206004820152601c60248201527f496e76616c696420637573746f6d20444b494d206b65792068617368000000006044820152606490fd5b6104d76143219260209261431b815190565b94859290565b93849101610480565b61044891614309565b1561433a57565b60405162461bcd60e51b815260206004820152601060248201526f24b73b30b634b2103932b1b2b4bb32b960811b6044820152606490fd5b1561437957565b60405162461bcd60e51b815260206004820152600e60248201526d24b73b30b634b2103237b6b0b4b760911b6044820152606490fd5b80549294909391926001600160a01b03166143dc6000916143d56117c061047485611728565b1415614207565b6143fb6143f2828601546001600160a01b031690565b61239d336117c0565b61440a61220560088601610aa9565b6002840190614421611d186104486120ab856109a7565b146144ac576144a693613fee611d18946144a0611d18611f1a6003611f1a9861445e6103a79e614458611d1861044860049d6109a7565b146142bd565b61448661446a60405190565b809261447a60208301918261432a565b9081038252038261036d565b614498614491825190565b9160200190565b209b016109a7565b14614333565b14614372565b5060206144e793956144c9611aad6012546001600160a01b031690565b6124db6319d091526144da60405190565b9788948593849360e01b90565b03915afa908115611b70576103a795613fee611d18946144a0611d18611f1a6003600497614524611f1a9a6144a69d600091614529575b50614271565b61445e565b61454a915060203d8111614550575b614542818361036d565b81019061425d565b3861451e565b503d614538565b90916125c6816103a794612917600186016109a7565b1561457457565b60405162461bcd60e51b815260206004820152601860248201527f526566756e6420616c726561647920696e6974696174656400000000000000006044820152606490fd5b156145c057565b60405162461bcd60e51b8152602060048201526024808201527f4e6577207072696365206e6f742067726561746572207468616e206f6c6420706044820152637269636560e01b6064820152608490fd5b1561461857565b60405162461bcd60e51b815260206004820152601c60248201527f496e636f727265637420616d6f756e74206f66204554482073656e74000000006044820152606490fd5b611d1861044860066146cc936146a461220560086103a7999861468d6121e760008701546001600160a01b031690565b6134c761469f611bd060078801610aa9565b61456d565b01936146bc6146b5610448876109a7565b82116145b9565b6146c634956109a7565b90611f13565b14614611565b156146d957565b60405162461bcd60e51b815260206004820152601960248201527f526566756e6420706572696f64206e6f742073746172746564000000000000006044820152606490fd5b1561472557565b60405162461bcd60e51b815260206004820152602e60248201527f4c697374696e6720657870697265642e204269642063616e206265207769746860448201526d647261776e206469726563746c7960901b6064820152608490fd5b60086103a7926134c76147de936147a56121e760008301546001600160a01b031690565b6147b761469f611bd060078401610aa9565b6147d8611d18610448429361287b60046147d1600e6109a7565b92016109a7565b116146d2565b61471e565b156147ea57565b60405162461bcd60e51b81526020600482015260146024820152731499599d5b99081b9bdd081a5b9a5d1a585d195960621b6044820152606490fd5b1561482d57565b60405162461bcd60e51b815260206004820152601760248201527f526566756e6420706572696f64206e6f7420656e6465640000000000000000006044820152606490fd5b9061488e906008906134c76121e785546001600160a01b031690565b6148955750565b806148ad6148a860076103a79401610aa9565b6147e3565b6148c0611d1861044860054294016109a7565b1015614826565b610448670de0b6b3a764000061097b565b634e487b7160e01b600052601260045260246000fd5b81156148f8570490565b6148d8565b909190614939614927614919614913600a6109a7565b86613bad565b6149216148c7565b906148ee565b91614933838096611f13565b90612a59565b614943600061097b565b811161494c5750565b6103a79061292c600b546001600160a01b031690565b9190613a4b6104486118999390565b6103a791600091614962565b9060009161499b61499382600052602060002090565b928354613acc565b905555565b91929060208210156149f857601f84116001146149c257611899929350613acc565b50906149f36103a79360016149ea6149df85600052602060002090565b92601f602091010490565b82019101613a5f565b61497d565b50614a318293614a0f600194600052602060002090565b613abb6020601f860104820192601f861680614a39575b50601f602091010490565b600202179055565b614a4590888603613bdf565b38614a26565b929091600160401b821161038e5760201115614a92576020811015614a735761189991613acc565b60019160ff1916614a8984600052602060002090565b55600202019055565b60019150600202019055565b908154614aaa816109c7565b90818311614ad3575b818310614ac1575b50505050565b614aca936149a0565b38808080614abb565b614adf83838387614a4b565b614ab3565b60006103a791614a9e565b90600003614b00576103a790614ae4565b613a02565b60006103a791613c1f565b90600003614b00576103a790614b05565b600060096103a7928280820155826001820155614b418360028301614971565b614b4e8360038301614aef565b614b5b8360048301614971565b614b688360058301613a53565b614b758360068301613a53565b614b828360078301613a53565b82600882015501614b10565b90600003614b00576103a790614b21565b600080825590600790614bb58360018301613a53565b614bc28360028301614aef565b614bcf8360038301614971565b614bdc8360048301613a53565b614be98360058301613a53565b614bf68360068301613a53565b0155565b90600003614b00576103a790614b9f565b600091614c6a916103a794614c55611bd06008614c4686614c41610448614c3b8c8a01546001600160a01b031690565b85611073565b6153e9565b60098401936134c787866153e9565b9081614c90575b50614c6f575b506007610988565b614bfa565b83614c85614c8a92611fad6001600592016109a7565b614b8e565b38614c62565b549050614c9f611d188661097b565b1438614c5c565b614cdf6009600092614cbb8460088301612709565b614cda85614c4161044860066136a3898701546001600160a01b031690565b015490565b614ceb611d188361097b565b14614cf4575050565b614c856103a7926005610988565b6103a790614d0e61179f565b614dba565b15614d1a57565b60405162461bcd60e51b815260206004820152601c60248201527f4164647265737320616c7265616479206f6e20616c6c6f776c697374000000006044820152606490fd5b916001600160a01b0360089290920291821b911b611878565b9190614d896104486118999361106a565b908354614d5f565b90815491600160401b83101561038e5782614db49160016103a795018155610cdf565b90614d78565b90614dc5600061097b565b614dd0610448845190565b811015614e6e5780614df5614de8614e6993866130c2565b516001600160a01b031690565b614e2c81614e27816104486002614e1a614e15611bd06119888685611073565b614d13565b61274c6001938492611073565b614d91565b614e567f41f4a012571b6bf21f3c6557be5d1a28851ce415203203b84c14099b84fe97379161106a565b90614e6060405190565b600090a26130b3565b614dc5565b509050565b6103a790614d02565b6103a790614e8861179f565b614ed9565b15614e9457565b60405162461bcd60e51b815260206004820152601a60248201527f4164647265737320616c726561647920646973616c6c6f7765640000000000006044820152606490fd5b906000614ee58161097b565b614ef0610448855190565b811015614f665780614f08614de8614f6193876130c2565b614f2c8461274c836002614f27614f226119888484611073565b614e8d565b611073565b614f37816001615245565b614e567ff27dccb929dd3f4dba2d3ffc29a7c74e35995e051a268a7c466f9ddabdf81eac9161106a565b614ee5565b50509050565b6103a790614e7c565b614f7d61179f565b6103a7614ff7565b15614f8c57565b60405162461bcd60e51b815260206004820152601d60248201527f416c6c6f77206c69737420697320616c726561647920656e61626c65640000006044820152606490fd5b9060ff60a01b9060a01b611878565b90614ff061044861189992151590565b8254614fd1565b61500c615007611bd06000611910565b614f85565b61501860016000614fe0565b7f8a943acd5f4e6d3df7565a4a08a93f6b04cc31bb6c01ca4aef7abd6baf455ec361504260405190565b8080612bc6565b6103a7614f75565b61505961179f565b6103a76150ad565b1561506857565b60405162461bcd60e51b815260206004820152601e60248201527f416c6c6f77206c69737420697320616c72656164792064697361626c656400006044820152606490fd5b6150bf6150ba6000611910565b615061565b6150ca600080614fe0565b7f2d35c8d348a345fd7b3b03b7cfcf7ad0b60c2d46742d5ca536342e4185becb0761504260405190565b6103a7615051565b9061510b6130eb6104ea845490565b9060005b81811061511c5750505090565b90919261514a61312560019261513987546001600160a01b031690565b6001600160a01b0316815260200190565b92910161510f565b90610448916150fc565b906103a7610a999261516d60405190565b93848092615152565b6104489061515c565b6104486001615176565b906151986130eb6104ea845490565b9060005b8181106151a95750505090565b9091926151c661312560019261513987546001600160a01b031690565b92910161519c565b9061044891615189565b906103a7610a99926151e960405190565b938480926151ce565b610448906151d8565b634e487b7160e01b600052603160045260246000fd5b6103a791600091614d78565b8054801561524057600019019061523d6152378383610cdf565b90615211565b55565b6151fb565b61525a61526192615255836151f2565b6152f8565b9092901590565b156152a35760405162461bcd60e51b815260206004820152601560248201527420b2323932b9b9903737ba1034b71030b93930bc9760591b6044820152606490fd5b6103a7916152bc6152b2835490565b6146c6600161097b565b908181036152cc575b505061521d565b614db46152df610d286152e69486610cdf565b9184610cdf565b38806152c5565b61044860001961097b565b919082519260006153088161097b565b855b8110156153525761531e614de882856130c2565b6153306001600160a01b0386166117c0565b146153485761534161530a916130b3565b9050615308565b9450505050600190565b5093505050611d186152ed565b9061536e6130eb6104ea845490565b9060005b81811061537f5750505090565b90919261539461312560019261311d876109a7565b929101615372565b906104489161535f565b906103a7610a99926153b760405190565b9384809261539c565b610448906153a6565b8054801561524057600019019061523d6153e38383610cdf565b90613a53565b61525a6153fe926153f9836153c0565b615479565b156154405760405162461bcd60e51b81526020600482015260156024820152743ab4b73a191a9b103737ba1034b71030b93930bc9760591b6044820152606490fd5b6103a79161544f6152b2835490565b9081810361545f575b50506153c9565b613dbd6152df6110a96154729486610cdf565b3880615458565b919082519260006154898161097b565b855b8110156153525761549f6132a882856130c2565b8414615348576154b161548b916130b3565b905061548956fea264697066735822122003aeb335a6d381b0a582f93c9d1aab7b6e89b54509710141d9511d69f98051bd64736f6c63430008120033",
  "devdoc": {
    "events": {
      "Paused(address)": {
        "details": "Emitted when the pause is triggered by `account`."
      },
      "Unpaused(address)": {
        "details": "Emitted when the pause is lifted by `account`."
      }
    },
    "kind": "dev",
    "methods": {
      "addAddressesToAllowlist(address[])": {
        "params": {
          "_allowedAddresses": "List of addresses allowed to call allow listed functions"
        }
      },
      "buyerReleaseFunds(uint256)": {
        "params": {
          "_bidId": "The unique identifier of the bid to release funds for"
        }
      },
      "createBid(uint256,bytes32,string)": {
        "params": {
          "_buyerIdHash": "The hashed buyerId which is also output as part of the transfer proof later",
          "_encryptedBuyerId": "The encrypted buyerId. Should be the same as the buyerId hashed",
          "_listingId": "The unique identifier of the listing to bid on"
        }
      },
      "createListing(bytes32,uint256,uint256,address,bytes,bytes32)": {
        "params": {
          "_askPrice": "An asking price for the domain",
          "_dkimKeyHash": "The custom DKIM key hash. If empty, the managed DKIM key hash will be used",
          "_domainId": "The unique identifier of the domain",
          "_encryptionKey": "The encryption key for buyers to encrypt the buyerId to",
          "_minBidPrice": "The minimum bid price for the domain",
          "_saleEthRecipient": "The address to receive the ETH from the sale; must be a contract that can                          receive ETH or an EOA"
        }
      },
      "deleteListing(uint256)": {
        "params": {
          "_listingId": "The unique identifier of the listing to delete"
        }
      },
      "finalizeSale((uint256[2],uint256[2][2],uint256[2],uint256[10]))": {
        "params": {
          "_proof": "The zk-email proof of domain transfer"
        }
      },
      "getListingBids(uint256[])": {
        "params": {
          "_listingIds": "An array of listingIds to fetch bids for"
        }
      },
      "getListings(uint256[])": {
        "params": {
          "_listingIds": "An array of listingIds to fetch details for"
        }
      },
      "getUserBids(address)": {
        "params": {
          "_user": "The address of the user to fetch bids for"
        }
      },
      "getUserListings(address)": {
        "params": {
          "_user": "The address of the user to fetch listings for"
        }
      },
      "increaseBidPrice(uint256,uint256)": {
        "params": {
          "_bidId": "The unique identifier of the bid to increase the price for",
          "_newPrice": "The new price for the bid"
        }
      },
      "initialize(address,address,address)": {
        "params": {
          "_mailServerKeyHashAdapter": "The address of the mail server key hash adapter contract",
          "_transferDomainProcessor": "The address of the domain transfer processor contract",
          "_verifiedDomainRegistry": "The address of the verified domain registry contract"
        }
      },
      "initiateRefund(uint256)": {
        "params": {
          "_bidId": "The unique identifier of the bid to initiate refund for"
        }
      },
      "owner()": {
        "details": "Returns the address of the current owner."
      },
      "paused()": {
        "details": "Returns true if the contract is paused, and false otherwise."
      },
      "registryRemoveListing(uint256)": {
        "params": {
          "_listingId": "Listing Id to remove"
        }
      },
      "removeAddressesFromAllowlist(address[])": {
        "params": {
          "_disallowedAddresses": "List of addresses being disallowed from calling allow listed functions"
        }
      },
      "renounceOwnership()": {
        "details": "Leaves the contract without owner. It will not be possible to call `onlyOwner` functions. Can only be called by the current owner. NOTE: Renouncing ownership will leave the contract without an owner, thereby disabling any functionality that is only available to the owner."
      },
      "transferOwnership(address)": {
        "details": "Transfers ownership of the contract to a new account (`newOwner`). Can only be called by the current owner."
      },
      "updateBidRefundPeriod(uint256)": {
        "params": {
          "_newBidRefundPeriod": "The new bid refund period in seconds"
        }
      },
      "updateBidSettlementPeriod(uint256)": {
        "params": {
          "_newBidSettlementPeriod": "The new bid settlement period in seconds"
        }
      },
      "updateFee(uint256)": {
        "params": {
          "_newFee": "The new fee percentage (in basis points)"
        }
      },
      "updateFeeRecipient(address)": {
        "params": {
          "_newFeeRecipient": "The new address to receive fees"
        }
      },
      "updateListing(uint256,uint256,address)": {
        "params": {
          "_listingId": "The unique identifier of the listing to update",
          "_newAskPrice": "The new asking price for the listing",
          "_saleEthRecipient": "The new address to receive the ETH from the sale; must be a contract that can                          receive ETH or an EOA"
        }
      },
      "updateMailServerKeyHashAdapter(address)": {
        "params": {
          "_mailServerKeyHashAdapter": "The new mail server key hash adapter"
        }
      },
      "updateTransferDomainProcessor(address)": {
        "params": {
          "_transferDomainProcessor": "The new transfer domain processor"
        }
      },
      "withdrawBid(uint256)": {
        "params": {
          "_bidId": "The unique identifier of the bid to withdraw"
        }
      }
    },
    "version": 1
  },
  "userdoc": {
    "kind": "user",
    "methods": {
      "addAddressesToAllowlist(address[])": {
        "notice": "Adds passed addresses to an allow list. Addresses on the allow list are able to call allow listed functions."
      },
      "buyerReleaseFunds(uint256)": {
        "notice": "ONLY BUYER: Finalize a sale by releasing funds to the seller. Proof of transfer is not required because it is not in the buyer's interest to release funds unless they have received the domain. Note that the bid can be in ANY STATE when this function is called. Upon calling this function funds will be transferred to the seller and fees will be taken by the protocol. The listing and the bid will be deleted. The function will revert if: - The bid is not owned by the caller - The listing is not active (sold or withdrawn)"
      },
      "createBid(uint256,bytes32,string)": {
        "notice": "Creates a new bid for a listing. Transfers ETH from the buyer to the contract. Every buyer has a unique identifier, for Namecheap it's their username. The seller needs the raw buyerId to transfer the domain off-chain. To facilitate this, the buyer encrypts their buyerId using the  seller's encryption key and sends it along with the bid. The seller then decrypts the buyerId  using their private key to get the raw buyerId. DEV NOTE: We do not check that the encrypted buyerId is the same as the hashed buyerId. This must be done in the client! This does not affect the security of the protocol as the encrypted buyerId is only  used for communication between the buyer and the seller while maintaining privacy."
      },
      "createListing(bytes32,uint256,uint256,address,bytes,bytes32)": {
        "notice": "Creates listing for a domain. If ownership of domain changes offchain, the new owner will have to first register the domain on the domain registry contract. Then the new owner can create a listing for the domain. The old listing will be deleted from the old owner's  listings and the old listing is marked as NOT active, which prevents any new bids from being created on it and makes the old bids immediately withdrawable. We also allow the seller to specify a custom DKIM key hash for Namecheap if they want to opt out of using the managed DKIM key hash set in the transferDomainProcessor contract. The managed DKIM key hash *can* be  updated by us whenever Namecheap rotates their DKIM key. Function reverts if: - Caller is not domain owner on the domain registry contract - Ask price is less than min bid price - Sale ETH recipient is the zero address"
      },
      "deleteListing(uint256)": {
        "notice": "ONLY SELLER: Marks a listing as NOT active. Removes the listing from the seller's listings array and domain listing. If the listing has no bids, it is deleted from the exchange. Bids against the listing are left as is to allow the buyer to withdraw the bid."
      },
      "disableAllowlist()": {
        "notice": "Disable the allow list. When the allow list is disabled, any address is allowed to call functions with onlyAllowed modifier."
      },
      "disableInstantAccept()": {
        "notice": "Disables the instant accept flag for the buyer."
      },
      "enableAllowlist()": {
        "notice": "Enable the allow list. When the allow list is enabled, only approved addresses are allowed to functions with onlyAllowed modifier."
      },
      "enableInstantAccept()": {
        "notice": "Enables the instant accept flag for the buyer. This flag is used to indicate if the buyer has  configured their Namecheap account to accept ownership of domains immediately upon transfer.  DEV NOTE: We can not check that the buyer has actually enabled instant accept on Namecheap. It is only  an indicative flag to help the seller know if they can finalize the sale immediately or not. The seller may get tricked by a malicious buyer to initiate a transfer to them assuming instant accept is on. But if the buyer does not have instant accept enabled, the seller will get immediate feedback and they can  cancel the transfer immediately."
      },
      "finalizeSale((uint256[2],uint256[2][2],uint256[2],uint256[10]))": {
        "notice": "ONLY SELLER: Finalizes a sale by verifying the domain transfer and unlocking bid funds to  the listing owner. The seller can also finalize the sale with bids that have initiated a refund  including the ones that have expired based on timestamp but not withdrawn yet."
      },
      "getAllowedSellers()": {
        "notice": "Get all allowed sellers"
      },
      "getListingBids(uint256[])": {
        "notice": "Returns the bids for given listingIds"
      },
      "getListings(uint256[])": {
        "notice": "Get listing information with listingId for a list of listingIds"
      },
      "getUserBids(address)": {
        "notice": "Returns the bids created by a user"
      },
      "getUserListings(address)": {
        "notice": "Returns all listings created by a user"
      },
      "increaseBidPrice(uint256,uint256)": {
        "notice": "ONLY BUYER: Increases the price of an existing bid. The new price can ONLY be higher  than the old price. The buyer must send the additional amount of ETH. The function reverts if - bid has initiated refund, caller is not bid owner or listing is not active - the new price is less than old price - msg.value is NOT STRICTLY EQUAL to than new price - old price"
      },
      "initialize(address,address,address)": {
        "notice": "Initializes the contract with domain verification and transfer processors. Can  only be called once by the contract owner "
      },
      "initiateRefund(uint256)": {
        "notice": "ONLY BUYER: Initiates the refund process for a bid. Can only be called by the bid owner  after the initial bid expiry period has passed."
      },
      "pauseMarketplace()": {
        "notice": "ONLY OWNER: Pauses listing and proof submission functionality for the marketplace.  Functionalites that are paused: - Listing creation and update - Bid creation and update - Sale finalization  Functinonalites that remain unpaused to allow users to retrieve funds in contract: - Bid refund initiation and withdrawal - Listing deletion - Manual settlement between buyer and seller"
      },
      "registryRemoveListing(uint256)": {
        "notice": "ONLY EXCHANGE: Remove a listing for domain when ownership changes on the registry. "
      },
      "removeAddressesFromAllowlist(address[])": {
        "notice": "Removes passed addresses from an allow list. Addresses not on the allow list are unable to call allow listed functions."
      },
      "unpauseMarketplace()": {
        "notice": "ONLY OWNER: Restarts paused functionality for the marketplace."
      },
      "updateBidRefundPeriod(uint256)": {
        "notice": "ONLY OWNER: Updates the bid refund period"
      },
      "updateBidSettlementPeriod(uint256)": {
        "notice": "ONLY OWNER: Updates the minimum bid active period"
      },
      "updateFee(uint256)": {
        "notice": "ONLY OWNER: Updates the fee percentage for the marketplace"
      },
      "updateFeeRecipient(address)": {
        "notice": "ONLY OWNER: Updates the fee recipient address"
      },
      "updateListing(uint256,uint256,address)": {
        "notice": "ONLY SELLER: Updates the asking price of an existing listing. We don't update the existing bids against the listing because the newAskPrice is an indicative value. The new ask price must be greater than or equal to the existing min bid price. If seller wants to update the min bid price, they should delete the listing and create a new one with the new min bid price."
      },
      "updateMailServerKeyHashAdapter(address)": {
        "notice": "ONLY OWNER: Update the managed mail server key hash adapter"
      },
      "updateTransferDomainProcessor(address)": {
        "notice": "ONLY OWNER: Update the transfer domain processor"
      },
      "withdrawBid(uint256)": {
        "notice": "ONLY BUYER: Withdraws a bid after the refund period has ended. Transfers ETH back to the buyer."
      }
    },
    "version": 1
  },
  "storageLayout": {
    "storage": [
      {
        "astId": 7,
        "contract": "contracts/DomainExchange.sol:DomainExchange",
        "label": "_owner",
        "offset": 0,
        "slot": "0",
        "type": "t_address"
      },
      {
        "astId": 8064,
        "contract": "contracts/DomainExchange.sol:DomainExchange",
        "label": "isEnabled",
        "offset": 20,
        "slot": "0",
        "type": "t_bool"
      },
      {
        "astId": 8067,
        "contract": "contracts/DomainExchange.sol:DomainExchange",
        "label": "allowedAddresses",
        "offset": 0,
        "slot": "1",
        "type": "t_array(t_address)dyn_storage"
      },
      {
        "astId": 8071,
        "contract": "contracts/DomainExchange.sol:DomainExchange",
        "label": "isAllowed",
        "offset": 0,
        "slot": "2",
        "type": "t_mapping(t_address,t_bool)"
      },
      {
        "astId": 231,
        "contract": "contracts/DomainExchange.sol:DomainExchange",
        "label": "_status",
        "offset": 0,
        "slot": "3",
        "type": "t_uint256"
      },
      {
        "astId": 130,
        "contract": "contracts/DomainExchange.sol:DomainExchange",
        "label": "_paused",
        "offset": 0,
        "slot": "4",
        "type": "t_bool"
      },
      {
        "astId": 4981,
        "contract": "contracts/DomainExchange.sol:DomainExchange",
        "label": "listings",
        "offset": 0,
        "slot": "5",
        "type": "t_mapping(t_uint256,t_struct(Listing)4936_storage)"
      },
      {
        "astId": 4986,
        "contract": "contracts/DomainExchange.sol:DomainExchange",
        "label": "userListings",
        "offset": 0,
        "slot": "6",
        "type": "t_mapping(t_address,t_array(t_uint256)dyn_storage)"
      },
      {
        "astId": 4991,
        "contract": "contracts/DomainExchange.sol:DomainExchange",
        "label": "bids",
        "offset": 0,
        "slot": "7",
        "type": "t_mapping(t_uint256,t_struct(Bid)4959_storage)"
      },
      {
        "astId": 4996,
        "contract": "contracts/DomainExchange.sol:DomainExchange",
        "label": "userBids",
        "offset": 0,
        "slot": "8",
        "type": "t_mapping(t_address,t_array(t_uint256)dyn_storage)"
      },
      {
        "astId": 5000,
        "contract": "contracts/DomainExchange.sol:DomainExchange",
        "label": "instantAcceptEnabled",
        "offset": 0,
        "slot": "9",
        "type": "t_mapping(t_address,t_bool)"
      },
      {
        "astId": 5002,
        "contract": "contracts/DomainExchange.sol:DomainExchange",
        "label": "fee",
        "offset": 0,
        "slot": "10",
        "type": "t_uint256"
      },
      {
        "astId": 5004,
        "contract": "contracts/DomainExchange.sol:DomainExchange",
        "label": "feeRecipient",
        "offset": 0,
        "slot": "11",
        "type": "t_address_payable"
      },
      {
        "astId": 5006,
        "contract": "contracts/DomainExchange.sol:DomainExchange",
        "label": "bidCounter",
        "offset": 0,
        "slot": "12",
        "type": "t_uint256"
      },
      {
        "astId": 5008,
        "contract": "contracts/DomainExchange.sol:DomainExchange",
        "label": "listingCounter",
        "offset": 0,
        "slot": "13",
        "type": "t_uint256"
      },
      {
        "astId": 5010,
        "contract": "contracts/DomainExchange.sol:DomainExchange",
        "label": "bidSettlementPeriod",
        "offset": 0,
        "slot": "14",
        "type": "t_uint256"
      },
      {
        "astId": 5012,
        "contract": "contracts/DomainExchange.sol:DomainExchange",
        "label": "bidRefundPeriod",
        "offset": 0,
        "slot": "15",
        "type": "t_uint256"
      },
      {
        "astId": 5014,
        "contract": "contracts/DomainExchange.sol:DomainExchange",
        "label": "isInitialized",
        "offset": 0,
        "slot": "16",
        "type": "t_bool"
      },
      {
        "astId": 5017,
        "contract": "contracts/DomainExchange.sol:DomainExchange",
        "label": "transferDomainProcessor",
        "offset": 1,
        "slot": "16",
        "type": "t_contract(ITransferDomainProcessor)11791"
      },
      {
        "astId": 5020,
        "contract": "contracts/DomainExchange.sol:DomainExchange",
        "label": "verifiedDomainRegistry",
        "offset": 0,
        "slot": "17",
        "type": "t_contract(IVerifiedDomainRegistry)11871"
      },
      {
        "astId": 5023,
        "contract": "contracts/DomainExchange.sol:DomainExchange",
        "label": "mailServerKeyHashAdapter",
        "offset": 0,
        "slot": "18",
        "type": "t_contract(IKeyHashAdapterV2)9595"
      }
    ],
    "types": {
      "t_address": {
        "encoding": "inplace",
        "label": "address",
        "numberOfBytes": "20"
      },
      "t_address_payable": {
        "encoding": "inplace",
        "label": "address payable",
        "numberOfBytes": "20"
      },
      "t_array(t_address)dyn_storage": {
        "base": "t_address",
        "encoding": "dynamic_array",
        "label": "address[]",
        "numberOfBytes": "32"
      },
      "t_array(t_uint256)dyn_storage": {
        "base": "t_uint256",
        "encoding": "dynamic_array",
        "label": "uint256[]",
        "numberOfBytes": "32"
      },
      "t_bool": {
        "encoding": "inplace",
        "label": "bool",
        "numberOfBytes": "1"
      },
      "t_bytes32": {
        "encoding": "inplace",
        "label": "bytes32",
        "numberOfBytes": "32"
      },
      "t_bytes_storage": {
        "encoding": "bytes",
        "label": "bytes",
        "numberOfBytes": "32"
      },
      "t_contract(IKeyHashAdapterV2)9595": {
        "encoding": "inplace",
        "label": "contract IKeyHashAdapterV2",
        "numberOfBytes": "20"
      },
      "t_contract(ITransferDomainProcessor)11791": {
        "encoding": "inplace",
        "label": "contract ITransferDomainProcessor",
        "numberOfBytes": "20"
      },
      "t_contract(IVerifiedDomainRegistry)11871": {
        "encoding": "inplace",
        "label": "contract IVerifiedDomainRegistry",
        "numberOfBytes": "20"
      },
      "t_mapping(t_address,t_array(t_uint256)dyn_storage)": {
        "encoding": "mapping",
        "key": "t_address",
        "label": "mapping(address => uint256[])",
        "numberOfBytes": "32",
        "value": "t_array(t_uint256)dyn_storage"
      },
      "t_mapping(t_address,t_bool)": {
        "encoding": "mapping",
        "key": "t_address",
        "label": "mapping(address => bool)",
        "numberOfBytes": "32",
        "value": "t_bool"
      },
      "t_mapping(t_uint256,t_struct(Bid)4959_storage)": {
        "encoding": "mapping",
        "key": "t_uint256",
        "label": "mapping(uint256 => struct DomainExchange.Bid)",
        "numberOfBytes": "32",
        "value": "t_struct(Bid)4959_storage"
      },
      "t_mapping(t_uint256,t_struct(Listing)4936_storage)": {
        "encoding": "mapping",
        "key": "t_uint256",
        "label": "mapping(uint256 => struct DomainExchange.Listing)",
        "numberOfBytes": "32",
        "value": "t_struct(Listing)4936_storage"
      },
      "t_string_storage": {
        "encoding": "bytes",
        "label": "string",
        "numberOfBytes": "32"
      },
      "t_struct(Bid)4959_storage": {
        "encoding": "inplace",
        "label": "struct DomainExchange.Bid",
        "members": [
          {
            "astId": 4944,
            "contract": "contracts/DomainExchange.sol:DomainExchange",
            "label": "buyer",
            "offset": 0,
            "slot": "0",
            "type": "t_address"
          },
          {
            "astId": 4946,
            "contract": "contracts/DomainExchange.sol:DomainExchange",
            "label": "listingId",
            "offset": 0,
            "slot": "1",
            "type": "t_uint256"
          },
          {
            "astId": 4948,
            "contract": "contracts/DomainExchange.sol:DomainExchange",
            "label": "encryptedBuyerId",
            "offset": 0,
            "slot": "2",
            "type": "t_string_storage"
          },
          {
            "astId": 4950,
            "contract": "contracts/DomainExchange.sol:DomainExchange",
            "label": "buyerIdHash",
            "offset": 0,
            "slot": "3",
            "type": "t_bytes32"
          },
          {
            "astId": 4952,
            "contract": "contracts/DomainExchange.sol:DomainExchange",
            "label": "createdAt",
            "offset": 0,
            "slot": "4",
            "type": "t_uint256"
          },
          {
            "astId": 4954,
            "contract": "contracts/DomainExchange.sol:DomainExchange",
            "label": "expiryTimestamp",
            "offset": 0,
            "slot": "5",
            "type": "t_uint256"
          },
          {
            "astId": 4956,
            "contract": "contracts/DomainExchange.sol:DomainExchange",
            "label": "price",
            "offset": 0,
            "slot": "6",
            "type": "t_uint256"
          },
          {
            "astId": 4958,
            "contract": "contracts/DomainExchange.sol:DomainExchange",
            "label": "refundInitiated",
            "offset": 0,
            "slot": "7",
            "type": "t_bool"
          }
        ],
        "numberOfBytes": "256"
      },
      "t_struct(Listing)4936_storage": {
        "encoding": "inplace",
        "label": "struct DomainExchange.Listing",
        "members": [
          {
            "astId": 4916,
            "contract": "contracts/DomainExchange.sol:DomainExchange",
            "label": "seller",
            "offset": 0,
            "slot": "0",
            "type": "t_address"
          },
          {
            "astId": 4918,
            "contract": "contracts/DomainExchange.sol:DomainExchange",
            "label": "saleEthRecipient",
            "offset": 0,
            "slot": "1",
            "type": "t_address_payable"
          },
          {
            "astId": 4920,
            "contract": "contracts/DomainExchange.sol:DomainExchange",
            "label": "dkimKeyHash",
            "offset": 0,
            "slot": "2",
            "type": "t_bytes32"
          },
          {
            "astId": 4922,
            "contract": "contracts/DomainExchange.sol:DomainExchange",
            "label": "encryptionKey",
            "offset": 0,
            "slot": "3",
            "type": "t_bytes_storage"
          },
          {
            "astId": 4924,
            "contract": "contracts/DomainExchange.sol:DomainExchange",
            "label": "domainId",
            "offset": 0,
            "slot": "4",
            "type": "t_bytes32"
          },
          {
            "astId": 4926,
            "contract": "contracts/DomainExchange.sol:DomainExchange",
            "label": "createdAt",
            "offset": 0,
            "slot": "5",
            "type": "t_uint256"
          },
          {
            "astId": 4928,
            "contract": "contracts/DomainExchange.sol:DomainExchange",
            "label": "askPrice",
            "offset": 0,
            "slot": "6",
            "type": "t_uint256"
          },
          {
            "astId": 4930,
            "contract": "contracts/DomainExchange.sol:DomainExchange",
            "label": "minBidPrice",
            "offset": 0,
            "slot": "7",
            "type": "t_uint256"
          },
          {
            "astId": 4932,
            "contract": "contracts/DomainExchange.sol:DomainExchange",
            "label": "isActive",
            "offset": 0,
            "slot": "8",
            "type": "t_bool"
          },
          {
            "astId": 4935,
            "contract": "contracts/DomainExchange.sol:DomainExchange",
            "label": "bids",
            "offset": 0,
            "slot": "9",
            "type": "t_array(t_uint256)dyn_storage"
          }
        ],
        "numberOfBytes": "320"
      },
      "t_uint256": {
        "encoding": "inplace",
        "label": "uint256",
        "numberOfBytes": "32"
      }
    }
  }
}