{
  "address": "0x09635F643e140090A9A8Dcd712eD6285858ceBef",
  "abi": [
    {
      "inputs": [
        {
          "internalType": "address",
          "name": "_ramp",
          "type": "address"
        },
        {
          "internalType": "contract IKeyHashAdapterV2",
          "name": "_garantiMailserverKeyHashAdapter",
          "type": "address"
        },
        {
          "internalType": "contract INullifierRegistry",
          "name": "_nullifierRegistry",
          "type": "address"
        },
        {
          "internalType": "contract IGarantiBodySuffixHashVerifier",
          "name": "_bodyHashVerifier",
          "type": "address"
        },
        {
          "internalType": "string",
          "name": "_emailFromAddress",
          "type": "string"
        },
        {
          "internalType": "uint256",
          "name": "_timestampBuffer",
          "type": "uint256"
        }
      ],
      "stateMutability": "nonpayable",
      "type": "constructor"
    },
    {
      "anonymous": false,
      "inputs": [
        {
          "indexed": true,
          "internalType": "address",
          "name": "previousOwner",
          "type": "address"
        },
        {
          "indexed": true,
          "internalType": "address",
          "name": "newOwner",
          "type": "address"
        }
      ],
      "name": "OwnershipTransferred",
      "type": "event"
    },
    {
      "inputs": [],
      "name": "PACK_SIZE",
      "outputs": [
        {
          "internalType": "uint256",
          "name": "",
          "type": "uint256"
        }
      ],
      "stateMutability": "view",
      "type": "function"
    },
    {
      "inputs": [],
      "name": "bodyHashVerifier",
      "outputs": [
        {
          "internalType": "contract IGarantiBodySuffixHashVerifier",
          "name": "",
          "type": "address"
        }
      ],
      "stateMutability": "view",
      "type": "function"
    },
    {
      "inputs": [],
      "name": "emailFromAddress",
      "outputs": [
        {
          "internalType": "bytes",
          "name": "",
          "type": "bytes"
        }
      ],
      "stateMutability": "view",
      "type": "function"
    },
    {
      "inputs": [],
      "name": "getEmailFromAddress",
      "outputs": [
        {
          "internalType": "bytes",
          "name": "",
          "type": "bytes"
        }
      ],
      "stateMutability": "view",
      "type": "function"
    },
    {
      "inputs": [
        {
          "internalType": "bytes32",
          "name": "_keyHash",
          "type": "bytes32"
        }
      ],
      "name": "isMailServerKeyHash",
      "outputs": [
        {
          "internalType": "bool",
          "name": "",
          "type": "bool"
        }
      ],
      "stateMutability": "view",
      "type": "function"
    },
    {
      "inputs": [],
      "name": "mailServerKeyHashAdapter",
      "outputs": [
        {
          "internalType": "contract IKeyHashAdapterV2",
          "name": "",
          "type": "address"
        }
      ],
      "stateMutability": "view",
      "type": "function"
    },
    {
      "inputs": [],
      "name": "nullifierRegistry",
      "outputs": [
        {
          "internalType": "contract INullifierRegistry",
          "name": "",
          "type": "address"
        }
      ],
      "stateMutability": "view",
      "type": "function"
    },
    {
      "inputs": [],
      "name": "owner",
      "outputs": [
        {
          "internalType": "address",
          "name": "",
          "type": "address"
        }
      ],
      "stateMutability": "view",
      "type": "function"
    },
    {
      "inputs": [
        {
          "components": [
            {
              "internalType": "uint256[2]",
              "name": "a",
              "type": "uint256[2]"
            },
            {
              "internalType": "uint256[2][2]",
              "name": "b",
              "type": "uint256[2][2]"
            },
            {
              "internalType": "uint256[2]",
              "name": "c",
              "type": "uint256[2]"
            },
            {
              "internalType": "uint256[11]",
              "name": "signals",
              "type": "uint256[11]"
            }
          ],
          "internalType": "struct IGarantiRegistrationProcessor.RegistrationProof",
          "name": "_proof",
          "type": "tuple"
        },
        {
          "components": [
            {
              "internalType": "uint256[2]",
              "name": "a",
              "type": "uint256[2]"
            },
            {
              "internalType": "uint256[2][2]",
              "name": "b",
              "type": "uint256[2][2]"
            },
            {
              "internalType": "uint256[2]",
              "name": "c",
              "type": "uint256[2]"
            },
            {
              "internalType": "uint256[4]",
              "name": "signals",
              "type": "uint256[4]"
            }
          ],
          "internalType": "struct IGarantiBodySuffixHashVerifier.BodySuffixHashProof",
          "name": "_bodyHashProof",
          "type": "tuple"
        }
      ],
      "name": "processProof",
      "outputs": [
        {
          "internalType": "bytes32",
          "name": "userIdHash",
          "type": "bytes32"
        }
      ],
      "stateMutability": "nonpayable",
      "type": "function"
    },
    {
      "inputs": [],
      "name": "ramp",
      "outputs": [
        {
          "internalType": "address",
          "name": "",
          "type": "address"
        }
      ],
      "stateMutability": "view",
      "type": "function"
    },
    {
      "inputs": [],
      "name": "renounceOwnership",
      "outputs": [],
      "stateMutability": "nonpayable",
      "type": "function"
    },
    {
      "inputs": [
        {
          "internalType": "string",
          "name": "_emailFromAddress",
          "type": "string"
        }
      ],
      "name": "setEmailFromAddress",
      "outputs": [],
      "stateMutability": "nonpayable",
      "type": "function"
    },
    {
      "inputs": [
        {
          "internalType": "contract IKeyHashAdapterV2",
          "name": "_mailServerKeyHashAdapter",
          "type": "address"
        }
      ],
      "name": "setMailserverKeyHashAdapter",
      "outputs": [],
      "stateMutability": "nonpayable",
      "type": "function"
    },
    {
      "inputs": [
        {
          "internalType": "uint256",
          "name": "_timestampBuffer",
          "type": "uint256"
        }
      ],
      "name": "setTimestampBuffer",
      "outputs": [],
      "stateMutability": "nonpayable",
      "type": "function"
    },
    {
      "inputs": [],
      "name": "timestampBuffer",
      "outputs": [
        {
          "internalType": "uint256",
          "name": "",
          "type": "uint256"
        }
      ],
      "stateMutability": "view",
      "type": "function"
    },
    {
      "inputs": [
        {
          "internalType": "address",
          "name": "newOwner",
          "type": "address"
        }
      ],
      "name": "transferOwnership",
      "outputs": [],
      "stateMutability": "nonpayable",
      "type": "function"
    },
    {
      "inputs": [
        {
          "internalType": "uint256[2]",
          "name": "_pA",
          "type": "uint256[2]"
        },
        {
          "internalType": "uint256[2][2]",
          "name": "_pB",
          "type": "uint256[2][2]"
        },
        {
          "internalType": "uint256[2]",
          "name": "_pC",
          "type": "uint256[2]"
        },
        {
          "internalType": "uint256[11]",
          "name": "_pubSignals",
          "type": "uint256[11]"
        }
      ],
      "name": "verifyProof",
      "outputs": [
        {
          "internalType": "bool",
          "name": "",
          "type": "bool"
        }
      ],
      "stateMutability": "view",
      "type": "function"
    }
  ],
  "transactionHash": "0x8213f6d2078471699228bdedd9d0c981a0fcc7713e29caa573de5649b7c0376c",
  "args": [
    "0xa85233C63b9Ee964Add6F2cffe00Fd84eb32338f",
    "0x4A679253410272dd5232B3Ff7cF5dbB88f295319",
    "0xDc64a140Aa3E981100a9becA4E685f962f0cF6C9",
    "0x7a2088a1bFc9d81c55368AE168C2C02570cB814F",
    "garanti@info.garantibbva.com.tr",
    "0"
  ],
  "numDeployments": 1,
  "solcInputHash": "653f1628715067b7cbdbe74d0cc4d947",
  "bytecode": "0x60a060405234801562000010575f80fd5b506040516200212e3803806200212e833981016040819052620000339162000136565b85858584846200004333620000bb565b6001600160a01b03858116608052600180546001600160a01b031990811687841617909155600280549091169185169190911790556003620000868382620002eb565b506004555050600580546001600160a01b0319166001600160a01b03969096169590951790945550620003b795505050505050565b5f80546001600160a01b038381166001600160a01b0319831681178455604051919092169283917f8be0079c531659141344cd1fd0a4f28419497f9722a3daafe3b4186f6b6457e09190a35050565b6001600160a01b03811681146200011f575f80fd5b50565b634e487b7160e01b5f52604160045260245ffd5b5f805f805f8060c087890312156200014c575f80fd5b865162000159816200010a565b809650506020808801516200016e816200010a565b604089015190965062000181816200010a565b606089015190955062000194816200010a565b60808901519094506001600160401b0380821115620001b1575f80fd5b818a0191508a601f830112620001c5575f80fd5b815181811115620001da57620001da62000122565b604051601f8201601f19908116603f0116810190838211818310171562000205576200020562000122565b816040528281528d868487010111156200021d575f80fd5b5f93505b8284101562000240578484018601518185018701529285019262000221565b5f86848301015280975050505050505060a087015190509295509295509295565b600181811c908216806200027657607f821691505b6020821081036200029557634e487b7160e01b5f52602260045260245ffd5b50919050565b601f821115620002e657805f5260205f20601f840160051c81016020851015620002c25750805b601f840160051c820191505b81811015620002e3575f8155600101620002ce565b50505b505050565b81516001600160401b0381111562000307576200030762000122565b6200031f8162000318845462000261565b846200029b565b602080601f83116001811462000355575f84156200033d5750858301515b5f19600386901b1c1916600185901b178555620003af565b5f85815260208120601f198616915b82811015620003855788860151825594840194600190910190840162000364565b5085821015620003a357878501515f19600388901b60f8161c191681555b505060018460011b0185555b505050505050565b608051611d57620003d75f395f818161010f0152610c510152611d575ff3fe608060405234801561000f575f80fd5b5060043610610106575f3560e01c8063b870676c1161009e578063d0b71f991161006e578063d0b71f991461021d578063dbac582114610230578063dc28b2bf14610239578063f2fde38b1461024c578063f6c7226b1461025f575f80fd5b8063b870676c146101da578063b9c6ea87146101ed578063c0d05fed14610200578063ced1e97814610215575f80fd5b80638da5cb5b116100d95780638da5cb5b146101915780639895e5b7146101a1578063a8ef333f146101b4578063b2a3fda4146101c7575f80fd5b806315d276e11461010a57806319d091521461014e5780633d0c9cc414610171578063715018a614610187575b5f80fd5b6101317f000000000000000000000000000000000000000000000000000000000000000081565b6040516001600160a01b0390911681526020015b60405180910390f35b61016161015c366004611777565b610272565b6040519015158152602001610145565b610179600781565b604051908152602001610145565b61018f6102e3565b005b5f546001600160a01b0316610131565b600554610131906001600160a01b031681565b600154610131906001600160a01b031681565b61018f6101d5366004611777565b6102f6565b600254610131906001600160a01b031681565b6101616101fb36600461179e565b610303565b610208610aff565b6040516101459190611821565b610208610b8b565b61018f61022b366004611867565b610c1b565b61017960045481565b610179610247366004611889565b610c45565b61018f61025a366004611867565b610f80565b61018f61026d3660046118e1565b610ff6565b600154604051630ce848a960e11b8152600481018390525f916001600160a01b0316906319d0915290602401602060405180830381865afa1580156102b9573d5f803e3d5ffd5b505050506040513d601f19601f820116820180604052508101906102dd919061198c565b92915050565b6102eb61100e565b6102f45f611067565b565b6102fe61100e565b600455565b5f610a3e565b7f30644e72e131a029b85045b68181585d97816a916871ca8d3c208c16d87cfd478110610338575f805260205ff35b50565b5f60405183815284602082015285604082015260408160608360076107d05a03fa91508161036b575f805260205ff35b825160408201526020830151606082015260408360808360066107d05a03fa9150508061039a575f805260205ff35b5050505050565b7f152dbeb8b8ab5eac60f4eef36d566fc91e5bb94e9ef0a08ec6c32127b1e5a5f285527f141de924cf08572281bf199f2e95a5e4b2573700ac3bf62f391ea2c4fbf78cee60208601525f608086018661043d87357f053ddcea331e82cb4f9383d3df2ceb5d593bd9818ac8fc8bb1067ba10e629aa37f25041758d837741ae0d2ef251976f958e3c2705396cea1e9274039c0b18e8d7c8461033b565b61048d60208801357f03c565627ff60ffc102246e6011808710c2ded87eb016e91cb18da96b1f3133b7f02a65c41c7e83b0c9f02b9370500a2f8355a6bbd5b1d9b06c4aa66f8799a40b28461033b565b6104dd60408801357f2c5b5bbde6c28b0991602a967c1fe5e32c2246d7d2880808e48265fb448e8f127f1230e04a6fd464834afed47a0ceaaaf77075c298e0db455136f4c2e218552d2b8461033b565b61052d60608801357f120c68be04314a872c0c388ec55c9cf3b368684ba8a50dab6d2abfb8996527827f0fc0e7d2a54f0a5a5133c038fc67a6d078b688e3c7ce78d00afb06e5b79527328461033b565b61057d60808801357f23819bc7be63a25573e216a2fc729f78d4bd4733558a6a6a4e98d2e175497ab27f2e6c0c05c2879447c6a65803421ba7ec6b6ba7c636f85f8e6a9ea529716abd178461033b565b6105cd60a08801357f0ba21ee1f8053b9ff0fb5e743a04ec8ea70d255d0da0cbeb96556b0744a9a19c7f25a1bb0f9d263a96e44514dcba335f1991134fb33e77bf8a98e400a14ba6724b8461033b565b61061d60c08801357f20ac36f76fb33007fe57317ad2a6f39b907fe7da3d0c817d30ef35869d9dc4fb7f181a3c6101a924a62e0423a93c5a8ee369634777d8c4d38a4e4f9f19c0c219838461033b565b61066d60e08801357f07dea76d67502b94bb38d5cd0a11ffff409213105254477105eae49a52f4ea217f1ef2ffedde9413306e78a2d35b9e6ca44cc080626abd82b44da4a9abad937cfb8461033b565b6106be6101008801357f2b4a0f65746c64cfdf33690e101dc7ad6ab74e9269f2fca0a3d102d7a074a8167f01f3543d78cc7400d2d3581aaea774bb4ef7529860d8fd1c25db5a5d9cf9e0738461033b565b61070f6101208801357f059775a03288dbaecef98e8bbbf58b3b18cbddab69166669fde01f14460255157f2858e3c69ac92153a24e1bca97f59caecbce8d6f6d7100c615b4262a4cce61948461033b565b6107606101408801357f101766538ecad8f3ad02975172f78d4a1b68dfe85762b81cfc20b5c15aedce857f1b846bd35a2b1db5876801ef17b9c07aa4be33cbf19511eada4a1d6a6ae42ef28461033b565b50823581527f30644e72e131a029b85045b68181585d97816a916871ca8d3c208c16d87cfd4760208401357f30644e72e131a029b85045b68181585d97816a916871ca8d3c208c16d87cfd4703066020820152833560408201526020840135606082015260408401356080820152606084013560a08201527f2d4d9aa7e302d9df41749d5507949d05dbea33fbb16c643b22f599a2be6df2e260c08201527f14bedd503c37ceb061d8ec60209fe345ce89830a19230301f076caff004d192660e08201527f0967032fcbf776d1afc985f88877f182d38480a653f2decaa9794cbc3bf3060c6101008201527f0e187847ad4c798374d0d6732bf501847dd68bc0e071241e0213bc7fc13db7ab6101208201527f304cfbd1e08a704a99f5e847d93f8c3caafddec46b7a0d379da69a4d112346a76101408201527f1739c1b1a457a8c7313123d24d2f9192f896b7c63eea05a9d57f06547ad0cec86101608201525f87015161018082015260205f018701516101a08201527f198e9393920d483a7260bfb731fb5d25f1aa493335a9e71297e485b7aef312c26101c08201527f1800deef121f1e76426a00665e5c4479674322d4f75edadd46debd5cd992f6ed6101e08201527f090689d0585ff075ec9e99ad690c3395bc4b313370b38ef355acdadcd122975b6102008201527f12c85ea5db8c6deb4aab71808dcb408fe3d1e7690c43d37b4ce6cc0166fa7daa610220820152843561024082015260208501356102608201527f29f725293b71250bc0726fa86bb992cef8d0f14621c9e6f3406e5fcf75cf313b6102808201527f28490d221f4d7ac575e80205e97ce102920dd9df55b2a60d06b8f6a3e05da29d6102a08201527f1d24e4a220ebcbcac369fb98e10d1376e7e30320cb514e0c5ca30fa009196abd6102c08201527f0255acb82ef4a2aa399db24ba36decb1a273a6461348d19bb4dc2da8e8c816ca6102e08201526020816103008360086107d05a03fa9051169695505050505050565b6040516103808101604052610a555f840135610309565b610a626020840135610309565b610a6f6040840135610309565b610a7c6060840135610309565b610a896080840135610309565b610a9660a0840135610309565b610aa360c0840135610309565b610ab060e0840135610309565b610abe610100840135610309565b610acc610120840135610309565b610ada610140840135610309565b610ae8610160840135610309565b610af5818486888a6103a1565b9050805f5260205ff35b60038054610b0c906119ab565b80601f0160208091040260200160405190810160405280929190818152602001828054610b38906119ab565b8015610b835780601f10610b5a57610100808354040283529160200191610b83565b820191905f5260205f20905b815481529060010190602001808311610b6657829003601f168201915b505050505081565b606060038054610b9a906119ab565b80601f0160208091040260200160405190810160405280929190818152602001828054610bc6906119ab565b8015610c115780601f10610be857610100808354040283529160200191610c11565b820191905f5260205f20905b815481529060010190602001808311610bf457829003601f168201915b5050505050905090565b610c2361100e565b600180546001600160a01b0319166001600160a01b0392909216919091179055565b5f336001600160a01b037f00000000000000000000000000000000000000000000000000000000000000001614610cc35760405162461bcd60e51b815260206004820181905260248201527f4f6e6c792052616d702063616e2063616c6c20746869732066756e6374696f6e60448201526064015b60405180910390fd5b6040805163b9c6ea8760e01b8152309163b9c6ea8791610cf69187919082019060c0830190610100840190600401611a06565b602060405180830381865afa158015610d11573d5f803e3d5ffd5b505050506040513d601f19601f82011682018060405250810190610d35919061198c565b610d715760405162461bcd60e51b815260206004820152600d60248201526c24b73b30b634b210283937b7b360991b6044820152606401610cba565b60055460408051635fe8c13b60e01b81526001600160a01b0390921691635fe8c13b91610db091869182019060c0830190610100840190600401611a38565b602060405180830381865afa158015610dcb573d5f803e3d5ffd5b505050506040513d601f19601f82011682018060405250810190610def919061198c565b610e3b5760405162461bcd60e51b815260206004820152601760248201527f496e76616c696420626f647920686173682070726f6f660000000000000000006044820152606401610cba565b610e4d836101000183610100016110b6565b610e5b610100840135610272565b610ea75760405162461bcd60e51b815260206004820152601b60248201527f496e76616c6964206d61696c736572766572206b6579206861736800000000006044820152606401610cba565b5f610eb984610100016005600a611197565b90506003604051610eca9190611a7d565b604051809103902081604051602001610ee39190611aef565b6040516020818303038152906040528051906020012014610f465760405162461bcd60e51b815260206004820152601a60248201527f496e76616c696420656d61696c2066726f6d20616464726573730000000000006044820152606401610cba565b610f7584604051602001610f5a9190611b0a565b60405160208183030381529060405280519060200120611267565b505050610240013590565b610f8861100e565b6001600160a01b038116610fed5760405162461bcd60e51b815260206004820152602660248201527f4f776e61626c653a206e6577206f776e657220697320746865207a65726f206160448201526564647265737360d01b6064820152608401610cba565b61033881611067565b610ffe61100e565b600361100a8282611b8c565b5050565b5f546001600160a01b031633146102f45760405162461bcd60e51b815260206004820181905260248201527f4f776e61626c653a2063616c6c6572206973206e6f7420746865206f776e65726044820152606401610cba565b5f80546001600160a01b038381166001600160a01b0319831681178455604051919092169283917f8be0079c531659141344cd1fd0a4f28419497f9722a3daafe3b4186f6b6457e09190a35050565b6040805160208481013581830152848301358284015260608086013581840152608080870135818501528451808503909101815260a084018552805190830120853560c08501528583013560e08501528585013561010085015290850135610120808501919091528451808503909101815261014090930190935281519101208082146111915760405162461bcd60e51b815260206004820152602360248201527f496e76616c696420696e7465726d656469617465206f72206f757470757420686044820152620c2e6d60eb1b6064820152608401610cba565b50505050565b60605f6111a48484611c60565b60ff1667ffffffffffffffff8111156111bf576111bf6118cd565b6040519080825280602002602001820160405280156111e8578160200160208202803683370190505b50905060ff84165b8360ff16811015611243578581600b811061120d5761120d611a69565b60200201358261122060ff881684611c79565b8151811061123057611230611a69565b60209081029190910101526001016111f0565b5061125e600782516112559190611c8c565b82906007611374565b95945050505050565b60025460405163169394bb60e01b8152600481018390526001600160a01b039091169063169394bb90602401602060405180830381865afa1580156112ae573d5f803e3d5ffd5b505050506040513d601f19601f820116820180604052508101906112d2919061198c565b1561131f5760405162461bcd60e51b815260206004820152601f60248201527f4e756c6c69666965722068617320616c7265616479206265656e2075736564006044820152606401610cba565b600254604051632dea6f9960e11b8152600481018390526001600160a01b0390911690635bd4df32906024015f604051808303815f87803b158015611362575f80fd5b505af115801561039a573d5f803e3d5ffd5b60605f808386516113859190611c8c565b67ffffffffffffffff81111561139d5761139d6118cd565b6040519080825280601f01601f1916602001820160405280156113c7576020820181803683370190505b5090505f805b87518161ffff161015611561575f888261ffff16815181106113f1576113f1611a69565b602002602001015190505f8767ffffffffffffffff811115611415576114156118cd565b60405190808252806020026020018201604052801561143e578160200160208202803683370190505b5090505f5b8881101561148557611456816008611c8c565b83901c82828151811061146b5761146b611a69565b60ff90921660209283029190910190910152600101611443565b505f5b8881101561154b575f8282815181106114a3576114a3611a69565b602002602001015160ff169050805f14611518578060f81b8787815181106114cd576114cd611a69565b60200101906001600160f81b03191690815f1a905350856114ed81611ca3565b96506114fc9050600289611cbb565b60ff165f0361151357611510600189611ce8565b97505b61153b565b611523600289611cbb565b60ff1660010361153b57611538600189611ce8565b97505b5060089290921c91600101611488565b505050808061155990611d01565b9150506113cd565b5060018360ff1610156116025760405162461bcd60e51b815260206004820152605760248201527f4e6f207061636b656420627974657320666f756e642120496e76616c6964206660448201527f696e616c207374617465206f66207061636b656420627974657320696e20656d60648201527f61696c3b2076616c7565206973206c696b656c79203021000000000000000000608482015260a401610cba565b858111156116705760405162461bcd60e51b815260206004820152603560248201527f5061636b6564206279746573206d6f7265207468616e20616c6c6f776564206d6044820152746178206e756d626572206f66207369676e616c732160581b6064820152608401610cba565b5f61167a83611686565b98975050505050505050565b805160609082905f5b82518110156116cf578281815181106116aa576116aa611a69565b01602001516001600160f81b0319165f036116c7578091506116cf565b60010161168f565b505f8167ffffffffffffffff8111156116ea576116ea6118cd565b6040519080825280601f01601f191660200182016040528015611714576020820181803683370190505b5090505f5b8281101561176e5783818151811061173357611733611a69565b602001015160f81c60f81b82828151811061175057611750611a69565b60200101906001600160f81b03191690815f1a905350600101611719565b50949350505050565b5f60208284031215611787575f80fd5b5035919050565b80604081018310156102dd575f80fd5b5f805f806102608086880312156117b3575f80fd5b6117bd878761178e565b945060c08601878111156117cf575f80fd5b6040870194506117df888261178e565b9350508681870111156117f0575f80fd5b50929591945092610100019150565b5f5b83811015611819578181015183820152602001611801565b50505f910152565b602081525f825180602084015261183f8160408501602087016117ff565b601f01601f19169190910160400192915050565b6001600160a01b0381168114610338575f80fd5b5f60208284031215611877575f80fd5b813561188281611853565b9392505050565b5f808284036103e081121561189c575f80fd5b610260808212156118ab575f80fd5b84935061018061025f19830112156118c1575f80fd5b92959390920193505050565b634e487b7160e01b5f52604160045260245ffd5b5f602082840312156118f1575f80fd5b813567ffffffffffffffff80821115611908575f80fd5b818401915084601f83011261191b575f80fd5b81358181111561192d5761192d6118cd565b604051601f8201601f19908116603f01168101908382118183101715611955576119556118cd565b8160405282815287602084870101111561196d575f80fd5b826020860160208301375f928101602001929092525095945050505050565b5f6020828403121561199c575f80fd5b81518015158114611882575f80fd5b600181811c908216806119bf57607f821691505b6020821081036119dd57634e487b7160e01b5f52602260045260245ffd5b50919050565b805f5b6002811015611191576040808386379384019391909101906001016119e6565b61026081016040868337611a1d60408301866119e3565b60408460c08401376101608361010084013795945050505050565b61018081016040868337611a4f60408301866119e3565b60408460c084013760808361010084013795945050505050565b634e487b7160e01b5f52603260045260245ffd5b5f808354611a8a816119ab565b60018281168015611aa25760018114611ab757611ae3565b60ff1984168752821515830287019450611ae3565b875f526020805f205f5b85811015611ada5781548a820152908401908201611ac1565b50505082870194505b50929695505050505050565b5f8251611b008184602087016117ff565b9190910192915050565b61026081016040838337611b2460408301604085016119e3565b604060c0840160c0840137610100610160818501828501375092915050565b601f821115611b8757805f5260205f20601f840160051c81016020851015611b685750805b601f840160051c820191505b8181101561039a575f8155600101611b74565b505050565b815167ffffffffffffffff811115611ba657611ba66118cd565b611bba81611bb484546119ab565b84611b43565b602080601f831160018114611bed575f8415611bd65750858301515b5f19600386901b1c1916600185901b178555611c44565b5f85815260208120601f198616915b82811015611c1b57888601518255948401946001909101908401611bfc565b5085821015611c3857878501515f19600388901b60f8161c191681555b505060018460011b0185555b505050505050565b634e487b7160e01b5f52601160045260245ffd5b60ff82811682821603908111156102dd576102dd611c4c565b818103818111156102dd576102dd611c4c565b80820281158282048414176102dd576102dd611c4c565b5f60018201611cb457611cb4611c4c565b5060010190565b5f60ff831680611cd957634e487b7160e01b5f52601260045260245ffd5b8060ff84160691505092915050565b60ff81811683821601908111156102dd576102dd611c4c565b5f61ffff808316818103611d1757611d17611c4c565b600101939250505056fea26469706673582212208534b2d4c58802be40f868c873108b2a05bd8c1c1760a1e9bfb7bc5303a0b97564736f6c63430008180033",
  "devdoc": {
    "kind": "dev",
    "methods": {
      "owner()": {
        "details": "Returns the address of the current owner."
      },
      "renounceOwnership()": {
        "details": "Leaves the contract without owner. It will not be possible to call `onlyOwner` functions. Can only be called by the current owner. NOTE: Renouncing ownership will leave the contract without an owner, thereby disabling any functionality that is only available to the owner."
      },
      "setEmailFromAddress(string)": {
        "params": {
          "_emailFromAddress": "The from email address for validated emails, MUST BE PROPERLY PADDED"
        }
      },
      "setTimestampBuffer(uint256)": {
        "params": {
          "_timestampBuffer": "The timestamp buffer for validated emails"
        }
      },
      "transferOwnership(address)": {
        "details": "Transfers ownership of the contract to a new account (`newOwner`). Can only be called by the current owner."
      }
    },
    "version": 1
  },
  "userdoc": {
    "kind": "user",
    "methods": {
      "setEmailFromAddress(string)": {
        "notice": "ONLY OWNER: Sets the from email address for validated emails. Check that email address is properly padded (if necessary). Padding will be dependent on if unpacking functions cut trailing 0s or not."
      },
      "setTimestampBuffer(uint256)": {
        "notice": "ONLY OWNER: Sets the timestamp buffer for validated emails. This is the amount of time in seconds that the timestamp can be off by and still be considered valid. Necessary to build in flexibility with L2 timestamps."
      }
    },
    "version": 1
  },
  "storageLayout": {
    "storage": [
      {
        "astId": 7,
        "contract": "contracts/ramps/garanti/GarantiRegistrationProcessor.sol:GarantiRegistrationProcessor",
        "label": "_owner",
        "offset": 0,
        "slot": "0",
        "type": "t_address"
      },
      {
        "astId": 5388,
        "contract": "contracts/ramps/garanti/GarantiRegistrationProcessor.sol:GarantiRegistrationProcessor",
        "label": "mailServerKeyHashAdapter",
        "offset": 0,
        "slot": "1",
        "type": "t_contract(IKeyHashAdapterV2)5751"
      },
      {
        "astId": 5391,
        "contract": "contracts/ramps/garanti/GarantiRegistrationProcessor.sol:GarantiRegistrationProcessor",
        "label": "nullifierRegistry",
        "offset": 0,
        "slot": "2",
        "type": "t_contract(INullifierRegistry)5956"
      },
      {
        "astId": 5393,
        "contract": "contracts/ramps/garanti/GarantiRegistrationProcessor.sol:GarantiRegistrationProcessor",
        "label": "emailFromAddress",
        "offset": 0,
        "slot": "3",
        "type": "t_bytes_storage"
      },
      {
        "astId": 5395,
        "contract": "contracts/ramps/garanti/GarantiRegistrationProcessor.sol:GarantiRegistrationProcessor",
        "label": "timestampBuffer",
        "offset": 0,
        "slot": "4",
        "type": "t_uint256"
      },
      {
        "astId": 8354,
        "contract": "contracts/ramps/garanti/GarantiRegistrationProcessor.sol:GarantiRegistrationProcessor",
        "label": "bodyHashVerifier",
        "offset": 0,
        "slot": "5",
        "type": "t_contract(IGarantiBodySuffixHashVerifier)9026"
      }
    ],
    "types": {
      "t_address": {
        "encoding": "inplace",
        "label": "address",
        "numberOfBytes": "20"
      },
      "t_bytes_storage": {
        "encoding": "bytes",
        "label": "bytes",
        "numberOfBytes": "32"
      },
      "t_contract(IGarantiBodySuffixHashVerifier)9026": {
        "encoding": "inplace",
        "label": "contract IGarantiBodySuffixHashVerifier",
        "numberOfBytes": "20"
      },
      "t_contract(IKeyHashAdapterV2)5751": {
        "encoding": "inplace",
        "label": "contract IKeyHashAdapterV2",
        "numberOfBytes": "20"
      },
      "t_contract(INullifierRegistry)5956": {
        "encoding": "inplace",
        "label": "contract INullifierRegistry",
        "numberOfBytes": "20"
      },
      "t_uint256": {
        "encoding": "inplace",
        "label": "uint256",
        "numberOfBytes": "32"
      }
    }
  }
}