{
  "address": "0x25C74B7124baE93364213a6124a5e45bB0e98889",
  "abi": [
    {
      "inputs": [
        {
          "internalType": "address",
          "name": "_owner",
          "type": "address"
        },
        {
          "internalType": "contract IERC20",
          "name": "_usdc",
          "type": "address"
        },
        {
          "internalType": "uint256",
          "name": "_minDepositAmount",
          "type": "uint256"
        },
        {
          "internalType": "uint256",
          "name": "_maxOnRampAmount",
          "type": "uint256"
        },
        {
          "internalType": "uint256",
          "name": "_intentExpirationPeriod",
          "type": "uint256"
        },
        {
          "internalType": "uint256",
          "name": "_onRampCooldownPeriod",
          "type": "uint256"
        },
        {
          "internalType": "uint256",
          "name": "_sustainabilityFee",
          "type": "uint256"
        },
        {
          "internalType": "address",
          "name": "_sustainabilityFeeRecipient",
          "type": "address"
        }
      ],
      "stateMutability": "nonpayable",
      "type": "constructor"
    },
    {
      "anonymous": false,
      "inputs": [
        {
          "indexed": true,
          "internalType": "address",
          "name": "accountOwner",
          "type": "address"
        },
        {
          "indexed": true,
          "internalType": "bytes32",
          "name": "idHash",
          "type": "bytes32"
        }
      ],
      "name": "AccountRegistered",
      "type": "event"
    },
    {
      "anonymous": false,
      "inputs": [
        {
          "indexed": false,
          "internalType": "uint256",
          "name": "depositId",
          "type": "uint256"
        },
        {
          "indexed": false,
          "internalType": "address",
          "name": "depositor",
          "type": "address"
        }
      ],
      "name": "DepositClosed",
      "type": "event"
    },
    {
      "anonymous": false,
      "inputs": [
        {
          "indexed": true,
          "internalType": "uint256",
          "name": "depositId",
          "type": "uint256"
        },
        {
          "indexed": true,
          "internalType": "bytes32",
          "name": "idHash",
          "type": "bytes32"
        },
        {
          "indexed": false,
          "internalType": "uint256",
          "name": "amount",
          "type": "uint256"
        },
        {
          "indexed": false,
          "internalType": "uint256",
          "name": "conversionRate",
          "type": "uint256"
        }
      ],
      "name": "DepositReceived",
      "type": "event"
    },
    {
      "anonymous": false,
      "inputs": [
        {
          "indexed": true,
          "internalType": "uint256",
          "name": "depositId",
          "type": "uint256"
        },
        {
          "indexed": true,
          "internalType": "address",
          "name": "depositor",
          "type": "address"
        },
        {
          "indexed": false,
          "internalType": "uint256",
          "name": "amount",
          "type": "uint256"
        }
      ],
      "name": "DepositWithdrawn",
      "type": "event"
    },
    {
      "anonymous": false,
      "inputs": [
        {
          "indexed": false,
          "internalType": "uint256",
          "name": "intentExpirationPeriod",
          "type": "uint256"
        }
      ],
      "name": "IntentExpirationPeriodSet",
      "type": "event"
    },
    {
      "anonymous": false,
      "inputs": [
        {
          "indexed": true,
          "internalType": "bytes32",
          "name": "intentHash",
          "type": "bytes32"
        },
        {
          "indexed": true,
          "internalType": "uint256",
          "name": "depositId",
          "type": "uint256"
        },
        {
          "indexed": true,
          "internalType": "address",
          "name": "onRamper",
          "type": "address"
        },
        {
          "indexed": false,
          "internalType": "address",
          "name": "to",
          "type": "address"
        },
        {
          "indexed": false,
          "internalType": "uint256",
          "name": "amount",
          "type": "uint256"
        },
        {
          "indexed": false,
          "internalType": "uint256",
          "name": "feeAmount",
          "type": "uint256"
        }
      ],
      "name": "IntentFulfilled",
      "type": "event"
    },
    {
      "anonymous": false,
      "inputs": [
        {
          "indexed": true,
          "internalType": "bytes32",
          "name": "intentHash",
          "type": "bytes32"
        },
        {
          "indexed": true,
          "internalType": "uint256",
          "name": "depositId",
          "type": "uint256"
        }
      ],
      "name": "IntentPruned",
      "type": "event"
    },
    {
      "anonymous": false,
      "inputs": [
        {
          "indexed": true,
          "internalType": "bytes32",
          "name": "intentHash",
          "type": "bytes32"
        },
        {
          "indexed": true,
          "internalType": "uint256",
          "name": "depositId",
          "type": "uint256"
        },
        {
          "indexed": true,
          "internalType": "bytes32",
          "name": "idHash",
          "type": "bytes32"
        },
        {
          "indexed": false,
          "internalType": "address",
          "name": "to",
          "type": "address"
        },
        {
          "indexed": false,
          "internalType": "uint256",
          "name": "amount",
          "type": "uint256"
        },
        {
          "indexed": false,
          "internalType": "uint256",
          "name": "timestamp",
          "type": "uint256"
        }
      ],
      "name": "IntentSignaled",
      "type": "event"
    },
    {
      "anonymous": false,
      "inputs": [
        {
          "indexed": false,
          "internalType": "uint256",
          "name": "maxOnRampAmount",
          "type": "uint256"
        }
      ],
      "name": "MaxOnRampAmountSet",
      "type": "event"
    },
    {
      "anonymous": false,
      "inputs": [
        {
          "indexed": false,
          "internalType": "uint256",
          "name": "minDepositAmount",
          "type": "uint256"
        }
      ],
      "name": "MinDepositAmountSet",
      "type": "event"
    },
    {
      "anonymous": false,
      "inputs": [
        {
          "indexed": false,
          "internalType": "address",
          "name": "receiveProcessor",
          "type": "address"
        }
      ],
      "name": "NewReceiveProcessorSet",
      "type": "event"
    },
    {
      "anonymous": false,
      "inputs": [
        {
          "indexed": false,
          "internalType": "address",
          "name": "registrationProcessor",
          "type": "address"
        }
      ],
      "name": "NewRegistrationProcessorSet",
      "type": "event"
    },
    {
      "anonymous": false,
      "inputs": [
        {
          "indexed": false,
          "internalType": "address",
          "name": "sendProcessor",
          "type": "address"
        }
      ],
      "name": "NewSendProcessorSet",
      "type": "event"
    },
    {
      "anonymous": false,
      "inputs": [
        {
          "indexed": false,
          "internalType": "uint256",
          "name": "onRampCooldownPeriod",
          "type": "uint256"
        }
      ],
      "name": "OnRampCooldownPeriodSet",
      "type": "event"
    },
    {
      "anonymous": false,
      "inputs": [
        {
          "indexed": true,
          "internalType": "address",
          "name": "previousOwner",
          "type": "address"
        },
        {
          "indexed": true,
          "internalType": "address",
          "name": "newOwner",
          "type": "address"
        }
      ],
      "name": "OwnershipTransferred",
      "type": "event"
    },
    {
      "anonymous": false,
      "inputs": [
        {
          "indexed": false,
          "internalType": "address",
          "name": "feeRecipient",
          "type": "address"
        }
      ],
      "name": "SustainabilityFeeRecipientUpdated",
      "type": "event"
    },
    {
      "anonymous": false,
      "inputs": [
        {
          "indexed": false,
          "internalType": "uint256",
          "name": "fee",
          "type": "uint256"
        }
      ],
      "name": "SustainabilityFeeUpdated",
      "type": "event"
    },
    {
      "anonymous": false,
      "inputs": [
        {
          "indexed": false,
          "internalType": "bytes32",
          "name": "listOwner",
          "type": "bytes32"
        },
        {
          "indexed": false,
          "internalType": "bytes32",
          "name": "deniedUser",
          "type": "bytes32"
        }
      ],
      "name": "UserAddedToDenylist",
      "type": "event"
    },
    {
      "anonymous": false,
      "inputs": [
        {
          "indexed": false,
          "internalType": "bytes32",
          "name": "listOwner",
          "type": "bytes32"
        },
        {
          "indexed": false,
          "internalType": "bytes32",
          "name": "approvedUser",
          "type": "bytes32"
        }
      ],
      "name": "UserRemovedFromDenylist",
      "type": "event"
    },
    {
      "inputs": [
        {
          "internalType": "bytes32",
          "name": "_deniedUser",
          "type": "bytes32"
        }
      ],
      "name": "addAccountToDenylist",
      "outputs": [],
      "stateMutability": "nonpayable",
      "type": "function"
    },
    {
      "inputs": [
        {
          "internalType": "bytes32",
          "name": "_intentHash",
          "type": "bytes32"
        }
      ],
      "name": "cancelIntent",
      "outputs": [],
      "stateMutability": "nonpayable",
      "type": "function"
    },
    {
      "inputs": [],
      "name": "depositCounter",
      "outputs": [
        {
          "internalType": "uint256",
          "name": "",
          "type": "uint256"
        }
      ],
      "stateMutability": "view",
      "type": "function"
    },
    {
      "inputs": [
        {
          "internalType": "uint256",
          "name": "",
          "type": "uint256"
        }
      ],
      "name": "deposits",
      "outputs": [
        {
          "internalType": "address",
          "name": "depositor",
          "type": "address"
        },
        {
          "internalType": "string",
          "name": "garantiIban",
          "type": "string"
        },
        {
          "internalType": "string",
          "name": "garantiName",
          "type": "string"
        },
        {
          "internalType": "uint256",
          "name": "depositAmount",
          "type": "uint256"
        },
        {
          "internalType": "uint256",
          "name": "remainingDeposits",
          "type": "uint256"
        },
        {
          "internalType": "uint256",
          "name": "outstandingIntentAmount",
          "type": "uint256"
        },
        {
          "internalType": "uint256",
          "name": "conversionRate",
          "type": "uint256"
        }
      ],
      "stateMutability": "view",
      "type": "function"
    },
    {
      "inputs": [
        {
          "internalType": "address",
          "name": "_account",
          "type": "address"
        }
      ],
      "name": "getAccountDeposits",
      "outputs": [
        {
          "components": [
            {
              "internalType": "uint256",
              "name": "depositId",
              "type": "uint256"
            },
            {
              "internalType": "bytes32",
              "name": "depositorIdHash",
              "type": "bytes32"
            },
            {
              "components": [
                {
                  "internalType": "address",
                  "name": "depositor",
                  "type": "address"
                },
                {
                  "internalType": "string",
                  "name": "garantiIban",
                  "type": "string"
                },
                {
                  "internalType": "string",
                  "name": "garantiName",
                  "type": "string"
                },
                {
                  "internalType": "uint256",
                  "name": "depositAmount",
                  "type": "uint256"
                },
                {
                  "internalType": "uint256",
                  "name": "remainingDeposits",
                  "type": "uint256"
                },
                {
                  "internalType": "uint256",
                  "name": "outstandingIntentAmount",
                  "type": "uint256"
                },
                {
                  "internalType": "uint256",
                  "name": "conversionRate",
                  "type": "uint256"
                },
                {
                  "internalType": "bytes32[]",
                  "name": "intentHashes",
                  "type": "bytes32[]"
                }
              ],
              "internalType": "struct GarantiRamp.Deposit",
              "name": "deposit",
              "type": "tuple"
            },
            {
              "internalType": "uint256",
              "name": "availableLiquidity",
              "type": "uint256"
            }
          ],
          "internalType": "struct GarantiRamp.DepositWithAvailableLiquidity[]",
          "name": "accountDeposits",
          "type": "tuple[]"
        }
      ],
      "stateMutability": "view",
      "type": "function"
    },
    {
      "inputs": [
        {
          "internalType": "address",
          "name": "_account",
          "type": "address"
        }
      ],
      "name": "getAccountInfo",
      "outputs": [
        {
          "components": [
            {
              "internalType": "bytes32",
              "name": "idHash",
              "type": "bytes32"
            },
            {
              "internalType": "uint256[]",
              "name": "deposits",
              "type": "uint256[]"
            }
          ],
          "internalType": "struct GarantiRamp.AccountInfo",
          "name": "",
          "type": "tuple"
        }
      ],
      "stateMutability": "view",
      "type": "function"
    },
    {
      "inputs": [
        {
          "internalType": "address",
          "name": "_account",
          "type": "address"
        }
      ],
      "name": "getDeniedUsers",
      "outputs": [
        {
          "internalType": "bytes32[]",
          "name": "",
          "type": "bytes32[]"
        }
      ],
      "stateMutability": "view",
      "type": "function"
    },
    {
      "inputs": [
        {
          "internalType": "uint256",
          "name": "_depositId",
          "type": "uint256"
        }
      ],
      "name": "getDeposit",
      "outputs": [
        {
          "components": [
            {
              "internalType": "address",
              "name": "depositor",
              "type": "address"
            },
            {
              "internalType": "string",
              "name": "garantiIban",
              "type": "string"
            },
            {
              "internalType": "string",
              "name": "garantiName",
              "type": "string"
            },
            {
              "internalType": "uint256",
              "name": "depositAmount",
              "type": "uint256"
            },
            {
              "internalType": "uint256",
              "name": "remainingDeposits",
              "type": "uint256"
            },
            {
              "internalType": "uint256",
              "name": "outstandingIntentAmount",
              "type": "uint256"
            },
            {
              "internalType": "uint256",
              "name": "conversionRate",
              "type": "uint256"
            },
            {
              "internalType": "bytes32[]",
              "name": "intentHashes",
              "type": "bytes32[]"
            }
          ],
          "internalType": "struct GarantiRamp.Deposit",
          "name": "",
          "type": "tuple"
        }
      ],
      "stateMutability": "view",
      "type": "function"
    },
    {
      "inputs": [
        {
          "internalType": "uint256[]",
          "name": "_depositIds",
          "type": "uint256[]"
        }
      ],
      "name": "getDepositFromIds",
      "outputs": [
        {
          "components": [
            {
              "internalType": "uint256",
              "name": "depositId",
              "type": "uint256"
            },
            {
              "internalType": "bytes32",
              "name": "depositorIdHash",
              "type": "bytes32"
            },
            {
              "components": [
                {
                  "internalType": "address",
                  "name": "depositor",
                  "type": "address"
                },
                {
                  "internalType": "string",
                  "name": "garantiIban",
                  "type": "string"
                },
                {
                  "internalType": "string",
                  "name": "garantiName",
                  "type": "string"
                },
                {
                  "internalType": "uint256",
                  "name": "depositAmount",
                  "type": "uint256"
                },
                {
                  "internalType": "uint256",
                  "name": "remainingDeposits",
                  "type": "uint256"
                },
                {
                  "internalType": "uint256",
                  "name": "outstandingIntentAmount",
                  "type": "uint256"
                },
                {
                  "internalType": "uint256",
                  "name": "conversionRate",
                  "type": "uint256"
                },
                {
                  "internalType": "bytes32[]",
                  "name": "intentHashes",
                  "type": "bytes32[]"
                }
              ],
              "internalType": "struct GarantiRamp.Deposit",
              "name": "deposit",
              "type": "tuple"
            },
            {
              "internalType": "uint256",
              "name": "availableLiquidity",
              "type": "uint256"
            }
          ],
          "internalType": "struct GarantiRamp.DepositWithAvailableLiquidity[]",
          "name": "depositArray",
          "type": "tuple[]"
        }
      ],
      "stateMutability": "view",
      "type": "function"
    },
    {
      "inputs": [
        {
          "internalType": "address",
          "name": "_account",
          "type": "address"
        }
      ],
      "name": "getIdCurrentIntentHash",
      "outputs": [
        {
          "internalType": "bytes32",
          "name": "",
          "type": "bytes32"
        }
      ],
      "stateMutability": "view",
      "type": "function"
    },
    {
      "inputs": [
        {
          "internalType": "bytes32[]",
          "name": "_intentHashes",
          "type": "bytes32[]"
        }
      ],
      "name": "getIntentsWithOnRamperId",
      "outputs": [
        {
          "components": [
            {
              "internalType": "bytes32",
              "name": "intentHash",
              "type": "bytes32"
            },
            {
              "components": [
                {
                  "internalType": "address",
                  "name": "onRamper",
                  "type": "address"
                },
                {
                  "internalType": "address",
                  "name": "to",
                  "type": "address"
                },
                {
                  "internalType": "uint256",
                  "name": "deposit",
                  "type": "uint256"
                },
                {
                  "internalType": "uint256",
                  "name": "amount",
                  "type": "uint256"
                },
                {
                  "internalType": "uint256",
                  "name": "intentTimestamp",
                  "type": "uint256"
                }
              ],
              "internalType": "struct GarantiRamp.Intent",
              "name": "intent",
              "type": "tuple"
            },
            {
              "internalType": "bytes32",
              "name": "onRamperIdHash",
              "type": "bytes32"
            }
          ],
          "internalType": "struct GarantiRamp.IntentWithOnRamperId[]",
          "name": "",
          "type": "tuple[]"
        }
      ],
      "stateMutability": "view",
      "type": "function"
    },
    {
      "inputs": [
        {
          "internalType": "address",
          "name": "_account",
          "type": "address"
        }
      ],
      "name": "getLastOnRampTimestamp",
      "outputs": [
        {
          "internalType": "uint256",
          "name": "",
          "type": "uint256"
        }
      ],
      "stateMutability": "view",
      "type": "function"
    },
    {
      "inputs": [
        {
          "internalType": "contract IGarantiRegistrationProcessor",
          "name": "_registrationProcessor",
          "type": "address"
        },
        {
          "internalType": "contract IGarantiSendProcessor",
          "name": "_sendProcessor",
          "type": "address"
        }
      ],
      "name": "initialize",
      "outputs": [],
      "stateMutability": "nonpayable",
      "type": "function"
    },
    {
      "inputs": [],
      "name": "intentExpirationPeriod",
      "outputs": [
        {
          "internalType": "uint256",
          "name": "",
          "type": "uint256"
        }
      ],
      "stateMutability": "view",
      "type": "function"
    },
    {
      "inputs": [
        {
          "internalType": "bytes32",
          "name": "",
          "type": "bytes32"
        }
      ],
      "name": "intents",
      "outputs": [
        {
          "internalType": "address",
          "name": "onRamper",
          "type": "address"
        },
        {
          "internalType": "address",
          "name": "to",
          "type": "address"
        },
        {
          "internalType": "uint256",
          "name": "deposit",
          "type": "uint256"
        },
        {
          "internalType": "uint256",
          "name": "amount",
          "type": "uint256"
        },
        {
          "internalType": "uint256",
          "name": "intentTimestamp",
          "type": "uint256"
        }
      ],
      "stateMutability": "view",
      "type": "function"
    },
    {
      "inputs": [
        {
          "internalType": "address",
          "name": "_account",
          "type": "address"
        },
        {
          "internalType": "bytes32",
          "name": "_deniedUser",
          "type": "bytes32"
        }
      ],
      "name": "isDeniedUser",
      "outputs": [
        {
          "internalType": "bool",
          "name": "",
          "type": "bool"
        }
      ],
      "stateMutability": "view",
      "type": "function"
    },
    {
      "inputs": [],
      "name": "isInitialized",
      "outputs": [
        {
          "internalType": "bool",
          "name": "",
          "type": "bool"
        }
      ],
      "stateMutability": "view",
      "type": "function"
    },
    {
      "inputs": [
        {
          "internalType": "string",
          "name": "_iban",
          "type": "string"
        }
      ],
      "name": "isValidIban",
      "outputs": [
        {
          "internalType": "bool",
          "name": "",
          "type": "bool"
        }
      ],
      "stateMutability": "pure",
      "type": "function"
    },
    {
      "inputs": [],
      "name": "maxOnRampAmount",
      "outputs": [
        {
          "internalType": "uint256",
          "name": "",
          "type": "uint256"
        }
      ],
      "stateMutability": "view",
      "type": "function"
    },
    {
      "inputs": [],
      "name": "minDepositAmount",
      "outputs": [
        {
          "internalType": "uint256",
          "name": "",
          "type": "uint256"
        }
      ],
      "stateMutability": "view",
      "type": "function"
    },
    {
      "inputs": [
        {
          "internalType": "string",
          "name": "_garantiIban",
          "type": "string"
        },
        {
          "internalType": "string",
          "name": "_garantiName",
          "type": "string"
        },
        {
          "internalType": "uint256",
          "name": "_depositAmount",
          "type": "uint256"
        },
        {
          "internalType": "uint256",
          "name": "_receiveAmount",
          "type": "uint256"
        }
      ],
      "name": "offRamp",
      "outputs": [],
      "stateMutability": "nonpayable",
      "type": "function"
    },
    {
      "inputs": [
        {
          "components": [
            {
              "internalType": "uint256[2]",
              "name": "a",
              "type": "uint256[2]"
            },
            {
              "internalType": "uint256[2][2]",
              "name": "b",
              "type": "uint256[2][2]"
            },
            {
              "internalType": "uint256[2]",
              "name": "c",
              "type": "uint256[2]"
            },
            {
              "internalType": "uint256[28]",
              "name": "signals",
              "type": "uint256[28]"
            }
          ],
          "internalType": "struct IGarantiSendProcessor.SendProof",
          "name": "_proof",
          "type": "tuple"
        },
        {
          "components": [
            {
              "internalType": "uint256[2]",
              "name": "a",
              "type": "uint256[2]"
            },
            {
              "internalType": "uint256[2][2]",
              "name": "b",
              "type": "uint256[2][2]"
            },
            {
              "internalType": "uint256[2]",
              "name": "c",
              "type": "uint256[2]"
            },
            {
              "internalType": "uint256[4]",
              "name": "signals",
              "type": "uint256[4]"
            }
          ],
          "internalType": "struct IGarantiBodySuffixHashVerifier.BodySuffixHashProof",
          "name": "_bodyHashProof",
          "type": "tuple"
        }
      ],
      "name": "onRamp",
      "outputs": [],
      "stateMutability": "nonpayable",
      "type": "function"
    },
    {
      "inputs": [],
      "name": "onRampCooldownPeriod",
      "outputs": [
        {
          "internalType": "uint256",
          "name": "",
          "type": "uint256"
        }
      ],
      "stateMutability": "view",
      "type": "function"
    },
    {
      "inputs": [],
      "name": "owner",
      "outputs": [
        {
          "internalType": "address",
          "name": "",
          "type": "address"
        }
      ],
      "stateMutability": "view",
      "type": "function"
    },
    {
      "inputs": [
        {
          "components": [
            {
              "internalType": "uint256[2]",
              "name": "a",
              "type": "uint256[2]"
            },
            {
              "internalType": "uint256[2][2]",
              "name": "b",
              "type": "uint256[2][2]"
            },
            {
              "internalType": "uint256[2]",
              "name": "c",
              "type": "uint256[2]"
            },
            {
              "internalType": "uint256[11]",
              "name": "signals",
              "type": "uint256[11]"
            }
          ],
          "internalType": "struct IGarantiRegistrationProcessor.RegistrationProof",
          "name": "_proof",
          "type": "tuple"
        },
        {
          "components": [
            {
              "internalType": "uint256[2]",
              "name": "a",
              "type": "uint256[2]"
            },
            {
              "internalType": "uint256[2][2]",
              "name": "b",
              "type": "uint256[2][2]"
            },
            {
              "internalType": "uint256[2]",
              "name": "c",
              "type": "uint256[2]"
            },
            {
              "internalType": "uint256[4]",
              "name": "signals",
              "type": "uint256[4]"
            }
          ],
          "internalType": "struct IGarantiBodySuffixHashVerifier.BodySuffixHashProof",
          "name": "_bodyHashProof",
          "type": "tuple"
        }
      ],
      "name": "register",
      "outputs": [],
      "stateMutability": "nonpayable",
      "type": "function"
    },
    {
      "inputs": [],
      "name": "registrationProcessor",
      "outputs": [
        {
          "internalType": "contract IGarantiRegistrationProcessor",
          "name": "",
          "type": "address"
        }
      ],
      "stateMutability": "view",
      "type": "function"
    },
    {
      "inputs": [
        {
          "internalType": "bytes32",
          "name": "_intentHash",
          "type": "bytes32"
        }
      ],
      "name": "releaseFundsToOnramper",
      "outputs": [],
      "stateMutability": "nonpayable",
      "type": "function"
    },
    {
      "inputs": [
        {
          "internalType": "bytes32",
          "name": "_approvedUser",
          "type": "bytes32"
        }
      ],
      "name": "removeAccountFromDenylist",
      "outputs": [],
      "stateMutability": "nonpayable",
      "type": "function"
    },
    {
      "inputs": [],
      "name": "renounceOwnership",
      "outputs": [],
      "stateMutability": "nonpayable",
      "type": "function"
    },
    {
      "inputs": [],
      "name": "sendProcessor",
      "outputs": [
        {
          "internalType": "contract IGarantiSendProcessor",
          "name": "",
          "type": "address"
        }
      ],
      "stateMutability": "view",
      "type": "function"
    },
    {
      "inputs": [
        {
          "internalType": "uint256",
          "name": "_intentExpirationPeriod",
          "type": "uint256"
        }
      ],
      "name": "setIntentExpirationPeriod",
      "outputs": [],
      "stateMutability": "nonpayable",
      "type": "function"
    },
    {
      "inputs": [
        {
          "internalType": "uint256",
          "name": "_maxOnRampAmount",
          "type": "uint256"
        }
      ],
      "name": "setMaxOnRampAmount",
      "outputs": [],
      "stateMutability": "nonpayable",
      "type": "function"
    },
    {
      "inputs": [
        {
          "internalType": "uint256",
          "name": "_minDepositAmount",
          "type": "uint256"
        }
      ],
      "name": "setMinDepositAmount",
      "outputs": [],
      "stateMutability": "nonpayable",
      "type": "function"
    },
    {
      "inputs": [
        {
          "internalType": "uint256",
          "name": "_onRampCooldownPeriod",
          "type": "uint256"
        }
      ],
      "name": "setOnRampCooldownPeriod",
      "outputs": [],
      "stateMutability": "nonpayable",
      "type": "function"
    },
    {
      "inputs": [
        {
          "internalType": "contract IGarantiRegistrationProcessor",
          "name": "_registrationProcessor",
          "type": "address"
        }
      ],
      "name": "setRegistrationProcessor",
      "outputs": [],
      "stateMutability": "nonpayable",
      "type": "function"
    },
    {
      "inputs": [
        {
          "internalType": "contract IGarantiSendProcessor",
          "name": "_sendProcessor",
          "type": "address"
        }
      ],
      "name": "setSendProcessor",
      "outputs": [],
      "stateMutability": "nonpayable",
      "type": "function"
    },
    {
      "inputs": [
        {
          "internalType": "uint256",
          "name": "_fee",
          "type": "uint256"
        }
      ],
      "name": "setSustainabilityFee",
      "outputs": [],
      "stateMutability": "nonpayable",
      "type": "function"
    },
    {
      "inputs": [
        {
          "internalType": "address",
          "name": "_feeRecipient",
          "type": "address"
        }
      ],
      "name": "setSustainabilityFeeRecipient",
      "outputs": [],
      "stateMutability": "nonpayable",
      "type": "function"
    },
    {
      "inputs": [
        {
          "internalType": "uint256",
          "name": "_depositId",
          "type": "uint256"
        },
        {
          "internalType": "uint256",
          "name": "_amount",
          "type": "uint256"
        },
        {
          "internalType": "address",
          "name": "_to",
          "type": "address"
        }
      ],
      "name": "signalIntent",
      "outputs": [],
      "stateMutability": "nonpayable",
      "type": "function"
    },
    {
      "inputs": [],
      "name": "sustainabilityFee",
      "outputs": [
        {
          "internalType": "uint256",
          "name": "",
          "type": "uint256"
        }
      ],
      "stateMutability": "view",
      "type": "function"
    },
    {
      "inputs": [],
      "name": "sustainabilityFeeRecipient",
      "outputs": [
        {
          "internalType": "address",
          "name": "",
          "type": "address"
        }
      ],
      "stateMutability": "view",
      "type": "function"
    },
    {
      "inputs": [
        {
          "internalType": "address",
          "name": "newOwner",
          "type": "address"
        }
      ],
      "name": "transferOwnership",
      "outputs": [],
      "stateMutability": "nonpayable",
      "type": "function"
    },
    {
      "inputs": [],
      "name": "usdc",
      "outputs": [
        {
          "internalType": "contract IERC20",
          "name": "",
          "type": "address"
        }
      ],
      "stateMutability": "view",
      "type": "function"
    },
    {
      "inputs": [
        {
          "internalType": "uint256[]",
          "name": "_depositIds",
          "type": "uint256[]"
        }
      ],
      "name": "withdrawDeposit",
      "outputs": [],
      "stateMutability": "nonpayable",
      "type": "function"
    }
  ],
  "transactionHash": "0x145a70dc247a97173246ca3fa22d7ea725fa7b7a5765ef7a152aa573d2da6426",
  "args": [
    "0xa0Ee7A142d267C1f36714E4a8F75612F20a79720",
    "0x04fc820176617A99AE134904935Bc854b2e51628",
    "10000000",
    "999000000",
    "180",
    "180",
    "1000000000000000",
    "0xa0Ee7A142d267C1f36714E4a8F75612F20a79720"
  ],
  "numDeployments": 1,
  "solcInputHash": "75b8f55da346d7ed99a350632554d2fb",
  "bytecode": "0x60a060405234801562000010575f80fd5b50604051620045fd380380620045fd8339810160408190526200003391620001d9565b6200003e3362000095565b6001600160a01b0387811660805260078790556008869055600a8590556009849055600b839055600c80546001600160a01b0319169183169190911790556200008788620000e4565b50505050505050506200025a565b5f80546001600160a01b038381166001600160a01b0319831681178455604051919092169283917f8be0079c531659141344cd1fd0a4f28419497f9722a3daafe3b4186f6b6457e09190a35050565b620000ee62000167565b6001600160a01b038116620001595760405162461bcd60e51b815260206004820152602660248201527f4f776e61626c653a206e6577206f776e657220697320746865207a65726f206160448201526564647265737360d01b60648201526084015b60405180910390fd5b620001648162000095565b50565b5f546001600160a01b03163314620001c25760405162461bcd60e51b815260206004820181905260248201527f4f776e61626c653a2063616c6c6572206973206e6f7420746865206f776e6572604482015260640162000150565b565b6001600160a01b038116811462000164575f80fd5b5f805f805f805f80610100898b031215620001f2575f80fd5b8851620001ff81620001c4565b60208a01519098506200021281620001c4565b8097505060408901519550606089015194506080890151935060a0890151925060c0890151915060e08901516200024981620001c4565b809150509295985092959890939650565b60805161436e6200028f5f395f818161039501528181611964015281816123d2015281816132870152613332015261436e5ff3fe608060405234801561000f575f80fd5b506004361061026b575f3560e01c8063715018a61161014b578063b3fa4c01116100bf578063ecb3dc8811610084578063ecb3dc8814610649578063ecd618f014610652578063ed1692b814610672578063eea1d19714610685578063f2fde38b14610698578063fbf15b1f146106ab575f80fd5b8063b3fa4c01146105f4578063d55f960d14610607578063d9478d201461061a578063e215ad591461062d578063e279d96414610640575f80fd5b80639087beff116101105780639087beff1461056c5780639b357b5a1461057f5780639f9fb96814610592578063a00555b3146105b2578063a1a954b7146105c5578063b02c43d0146105ce575f80fd5b8063715018a6146104a657806371a28f69146104ae5780637b510fe8146104c15780638da5cb5b146104e15780639021578a146104f1575f80fd5b806342987349116101e25780635081d952116101a75780635081d952146104315780635dd765151461045157806360e0d21e14610464578063645006ca1461047757806366ec8419146104805780637113476214610493575f80fd5b806342987349146103cf57806343a170e6146103e25780634595bba0146103f5578063485cc95514610415578063495223e714610428575f80fd5b80632a80cda3116102335780632a80cda314610320578063317dcc96146103335780633389d5d514610346578063392e53cd146103695780633adba28a1461037d5780633e413bee14610390575f80fd5b80630f1ef98c1461026f578063133de6cb146102ba578063148172da146102cf57806314ec32fa146102e2578063238c849414610317575b5f80fd5b6102a761027d366004613840565b6001600160a01b03165f908152600460209081526040808320548352600390915290206001015490565b6040519081526020015b60405180910390f35b6102cd6102c8366004613840565b6106f1565b005b6102cd6102dd366004613862565b61074e565b6102a76102f0366004613840565b6001600160a01b03165f908152600460209081526040808320548352600390915290205490565b6102a7600b5481565b6102cd61032e366004613862565b61087d565b6102cd610341366004613862565b610909565b61035961035436600461392a565b610946565b60405190151581526020016102b1565b60025461035990600160a01b900460ff1681565b6102cd61038b36600461395c565b610a93565b6103b77f000000000000000000000000000000000000000000000000000000000000000081565b6040516001600160a01b0390911681526020016102b1565b6102cd6103dd366004613862565b610fd8565b6102cd6103f03660046139a3565b611078565b610408610403366004613840565b61112f565b6040516102b191906139df565b6102cd610423366004613a22565b6111a5565b6102a760095481565b61044461043f366004613840565b611238565b6040516102b19190613b62565b6102cd61045f366004613862565b611586565b6102cd610472366004613bee565b611625565b6102a760075481565b6102cd61048e366004613862565b6116aa565b6102cd6104a1366004613c10565b6117f2565b6102cd6119d6565b6104446104bc366004613c10565b6119e9565b6104d46104cf366004613840565b611cd2565b6040516102b19190613cb1565b5f546001600160a01b03166103b7565b6105396104ff366004613862565b60066020525f9081526040902080546001820154600283015460038401546004909401546001600160a01b03938416949390921692909185565b604080516001600160a01b039687168152959094166020860152928401919091526060830152608082015260a0016102b1565b6102cd61057a366004613862565b611d68565b6102cd61058d366004613862565b611dfe565b6105a56105a0366004613862565b611f02565b6040516102b19190613d08565b6102cd6105c0366004613d1a565b6120d9565b6102a7600a5481565b6105e16105dc366004613862565b61248c565b6040516102b19796959493929190613d89565b6102cd610602366004613840565b6125dc565b6102cd610615366004613862565b612694565b600c546103b7906001600160a01b031681565b6001546103b7906001600160a01b031681565b6102a760085481565b6102a7600d5481565b610665610660366004613de5565b6127cd565b6040516102b19190613e54565b6102cd610680366004613840565b612924565b6002546103b7906001600160a01b031681565b6102cd6106a6366004613840565b61297a565b6103596106b9366004613ee3565b6001600160a01b0382165f90815260046020908152604080832054835260038083528184208585520190915290205460ff1692915050565b6106f96129f3565b600280546001600160a01b0319166001600160a01b0383169081179091556040519081527f6e7665a41605edc0d70f4b991d652755f380754eb092d81ef9ab93664778d59e906020015b60405180910390a150565b335f908152600460205260409020546107825760405162461bcd60e51b815260040161077990613f0d565b60405180910390fd5b335f908152600460209081526040808320548084526003808452828520868652019092529091205460ff16156107fa5760405162461bcd60e51b815260206004820152601860248201527f5573657220616c7265616479206f6e2064656e796c69737400000000000000006044820152606401610779565b5f8181526003602081815260408084208685528084018352818520805460ff19166001908117909155938352600201805493840181558452922001839055517f976c693d56f27ba17d902bda80c4fa0416b773fbf268bcb0ee71689234d769ee906108719083908590918252602082015260400190565b60405180910390a15050565b6108856129f3565b805f036108d45760405162461bcd60e51b815260206004820152601e60248201527f4d696e696d756d206465706f7369742063616e6e6f74206265207a65726f00006044820152606401610779565b60078190556040518181527fbdde72a6d8d8b42770c9899945ccdce09d0c5c794d3326cdb2d2cca61b12a9fc90602001610743565b6109116129f3565b60098190556040518181527f88397975d177ce5e18abf3a5fdb8de773e80673d85eeb54f48cfaf688b3d2c3e90602001610743565b80515f90829060201461095b57505f92915050565b5f5b8151811015610a895760028110156109d757604160f81b82828151811061098657610986613f44565b01602001516001600160f81b03191610806109c45750605a60f81b8282815181106109b3576109b3613f44565b01602001516001600160f81b031916115b156109d257505f9392505050565b610a81565b6109e2600582613f6c565b600403610a1e578181815181106109fb576109fb613f44565b6020910101516001600160f81b031916600160fd1b146109d257505f9392505050565b603060f81b828281518110610a3557610a35613f44565b01602001516001600160f81b0319161080610a735750603960f81b828281518110610a6257610a62613f44565b01602001516001600160f81b031916115b15610a8157505f9392505050565b60010161095d565b5060019392505050565b335f90815260046020526040902054610abe5760405162461bcd60e51b815260040161077990613f0d565b335f908152600460208181526040808420548785526005835281852080546001600160a01b031686529383528185205480865260038085528387208388520190935293205460ff1615610b535760405162461bcd60e51b815260206004820181905260248201527f4f6e72616d706572206f6e206465706f7369746f7227732064656e796c6973746044820152606401610779565b6009545f848152600360205260409020600101544291610b7291613f93565b1115610bcc5760405162461bcd60e51b8152602060048201526024808201527f4f6e2072616d7020636f6f6c20646f776e20706572696f64206e6f7420656c616044820152631c1cd95960e21b6064820152608401610779565b5f8381526003602052604090205415610c275760405162461bcd60e51b815260206004820152601860248201527f496e74656e74207374696c6c206f75747374616e64696e6700000000000000006044820152606401610779565b828103610c765760405162461bcd60e51b815260206004820152601e60248201527f53656e6465722063616e6e6f7420626520746865206465706f7369746f7200006044820152606401610779565b81546001600160a01b0316610cc65760405162461bcd60e51b815260206004820152601660248201527511195c1bdcda5d08191bd95cc81b9bdd08195e1a5cdd60521b6044820152606401610779565b5f8511610d245760405162461bcd60e51b815260206004820152602660248201527f5369676e616c656420616d6f756e74206d75737420626520677265617465722060448201526507468616e20360d41b6064820152608401610779565b600854851115610d935760405162461bcd60e51b815260206004820152603460248201527f5369676e616c656420616d6f756e74206d757374206265206c657373207468616044820152731b881b585e081bdb8b5c985b5c08185b5bdd5b9d60621b6064820152608401610779565b6001600160a01b038416610de95760405162461bcd60e51b815260206004820152601b60248201527f43616e6e6f742073656e6420746f207a65726f206164647265737300000000006044820152606401610779565b5f610df48488612a4c565b90508583600401541015610ea6575f80610e0d89612ab6565b9150915087818660040154610e229190613f93565b1015610e675760405162461bcd60e51b81526020600482015260146024820152734e6f7420656e6f756768206c697175696469747960601b6044820152606401610779565b610e718583612c4f565b80856004015f828254610e849190613f93565b9250508190555080856005015f828254610e9e9190613fa6565b909155505050505b6040805160a0810182523381526001600160a01b0387811660208084019182528385018c8152606085018c815242608087019081525f89815260068552888120975188546001600160a01b03199081169189169190911789559551600189018054909716971696909617909455905160028601555160038086019190915591516004948501558883525291822083905584018054889290610f48908490613fa6565b9250508190555085836005015f828254610f629190613f93565b90915550506007830180546001810182555f91825260209182902001829055604080516001600160a01b038816815291820188905242908201528490889083907f1a1292e170a0f000ccf956afba79bee0f9ec1d81f3f901c1d4d11e1f336aae109060600160405180910390a450505050505050565b610fe06129f3565b805f036110435760405162461bcd60e51b815260206004820152602b60248201527f4d617820696e74656e742065787069726174696f6e20706572696f642063616e60448201526a6e6f74206265207a65726f60a81b6064820152608401610779565b600a8190556040518181527f55e3f6b95de9a0ec782f892e93fafe4e56be0696df204ddf8e0a40a9a713a80390602001610743565b335f90815260046020526040902054156110e35760405162461bcd60e51b815260206004820152602660248201527f4163636f756e7420616c7265616479206173736f6369617465642077697468206044820152650d2c890c2e6d60d31b6064820152608401610779565b5f6110ee8383612ca7565b335f818152600460205260408082208490555192935083927f672144042732f7b1cdbf0772464ae545aedd7f41d38b8487dafd9085496a5d519190a3505050565b6001600160a01b0381165f908152600460209081526040808320548352600382529182902060020180548351818402810184019094528084526060939283018282801561119957602002820191905f5260205f20905b815481526020019060010190808311611185575b50505050509050919050565b6111ad6129f3565b600254600160a01b900460ff16156111fd5760405162461bcd60e51b8152602060048201526013602482015272105b1c9958591e481a5b9a5d1a585b1a5e9959606a1b6044820152606401610779565b600180546001600160a01b039384166001600160a01b0319909116179055600280546001600160a81b0319169190921617600160a01b179055565b6001600160a01b0381165f90815260046020908152604080832060010180548251818502810185019093528083526060949383018282801561129757602002820191905f5260205f20905b815481526020019060010190808311611283575b50505050509050805167ffffffffffffffff8111156112b8576112b8613879565b6040519080825280602002602001820160405280156112f157816020015b6112de6136ac565b8152602001906001900390816112d65790505b5091505f5b815181101561157f575f82828151811061131257611312613f44565b6020908102919091018101515f8181526005835260408082208151610100810190925280546001600160a01b03168252600181018054949650929491939092918401919061135f90613fb9565b80601f016020809104026020016040519081016040528092919081815260200182805461138b90613fb9565b80156113d65780601f106113ad576101008083540402835291602001916113d6565b820191905f5260205f20905b8154815290600101906020018083116113b957829003601f168201915b505050505081526020016002820180546113ef90613fb9565b80601f016020809104026020016040519081016040528092919081815260200182805461141b90613fb9565b80156114665780601f1061143d57610100808354040283529160200191611466565b820191905f5260205f20905b81548152906001019060200180831161144957829003601f168201915b5050505050815260200160038201548152602001600482015481526020016005820154815260200160068201548152602001600782018054806020026020016040519081016040528092919081815260200182805480156114e457602002820191905f5260205f20905b8154815260200190600101908083116114d0575b50505050508152505090505f6114f983612ab6565b915050604051806080016040528084815260200160045f855f01516001600160a01b03166001600160a01b031681526020019081526020015f205f015481526020018381526020018284608001516115519190613f93565b81525086858151811061156657611566613f44565b60200260200101819052505050508060010190506112f6565b5050919050565b61158e6129f3565b66b1a2bc2ec500008111156115f05760405162461bcd60e51b815260206004820152602260248201527f4665652063616e6e6f742062652067726561746572207468616e206d61782066604482015261656560f01b6064820152608401610779565b600b8190556040518181527f44f48e1b871e6db1e909a7b253b054b7150a0b4ddf4d59b159c827d82e72567090602001610743565b5f805f6116328585612d1d565b925092509250611642828261306d565b8260600151826005015f8282546116599190613fa6565b909155505082516001600160a01b03165f908152600460209081526040808320548352600390915290819020426001909101558301516116999083613144565b6116a3818461322c565b5050505050565b5f818152600660209081526040808320815160a08101835281546001600160a01b0390811682526001830154811682860152600283015482850181905260038401546060840152600490930154608083015291855260059093529220815191929091166117295760405162461bcd60e51b815260040161077990613feb565b80546001600160a01b031633146117825760405162461bcd60e51b815260206004820152601c60248201527f43616c6c6572206d75737420626520746865206465706f7369746f72000000006044820152606401610779565b61178c818461306d565b8160600151816005015f8282546117a39190613fa6565b909155505081516001600160a01b03165f908152600460209081526040808320548352600390915290819020426001909101558201516117e39082613144565b6117ed838361322c565b505050565b5f805b8251811015611947575f83828151811061181157611811613f44565b6020908102919091018101515f818152600590925260409091208054919250906001600160a01b031633146118885760405162461bcd60e51b815260206004820152601c60248201527f53656e646572206d75737420626520746865206465706f7369746f72000000006044820152606401610779565b5f8061189384612ab6565b915091506118a18383612c4f565b8083600401546118b19190613f93565b6118bb9087613f93565b955080836005015f8282546118d09190613fa6565b9091555050825460048401546001600160a01b039091169085907fae1f357660ab777dcfd38c0ab6357834684ec26289ecfa07ec65dbf6c3c6431290611917908590613f93565b60405190815260200160405180910390a35f60048401556119388484613144565b505050508060010190506117f5565b5060405163a9059cbb60e01b8152336004820152602481018290527f00000000000000000000000000000000000000000000000000000000000000006001600160a01b03169063a9059cbb906044016020604051808303815f875af11580156119b2573d5f803e3d5ffd5b505050506040513d601f19601f820116820180604052508101906117ed919061401a565b6119de6129f3565b6119e75f613401565b565b6060815167ffffffffffffffff811115611a0557611a05613879565b604051908082528060200260200182016040528015611a3e57816020015b611a2b6136ac565b815260200190600190039081611a235790505b5090505f5b8251811015611ccc575f838281518110611a5f57611a5f613f44565b6020908102919091018101515f8181526005835260408082208151610100810190925280546001600160a01b031682526001810180549496509294919390929184019190611aac90613fb9565b80601f0160208091040260200160405190810160405280929190818152602001828054611ad890613fb9565b8015611b235780601f10611afa57610100808354040283529160200191611b23565b820191905f5260205f20905b815481529060010190602001808311611b0657829003601f168201915b50505050508152602001600282018054611b3c90613fb9565b80601f0160208091040260200160405190810160405280929190818152602001828054611b6890613fb9565b8015611bb35780601f10611b8a57610100808354040283529160200191611bb3565b820191905f5260205f20905b815481529060010190602001808311611b9657829003601f168201915b505050505081526020016003820154815260200160048201548152602001600582015481526020016006820154815260200160078201805480602002602001604051908101604052809291908181526020018280548015611c3157602002820191905f5260205f20905b815481526020019060010190808311611c1d575b50505050508152505090505f611c4683612ab6565b915050604051806080016040528084815260200160045f855f01516001600160a01b03166001600160a01b031681526020019081526020015f205f01548152602001838152602001828460800151611c9e9190613f93565b815250858581518110611cb357611cb3613f44565b6020026020010181905250505050806001019050611a43565b50919050565b604080518082019091525f8152606060208201526001600160a01b0382165f90815260046020908152604091829020825180840184528154815260018201805485518186028101860190965280865291949293858101939290830182828015611d5857602002820191905f5260205f20905b815481526020019060010190808311611d44575b5050505050815250509050919050565b611d706129f3565b805f03611dc95760405162461bcd60e51b815260206004820152602160248201527f4d6178206f6e2072616d7020616d6f756e742063616e6e6f74206265207a65726044820152606f60f81b6064820152608401610779565b60088190556040518181527fcab6b49ca21dd111cf4a55d507bbe89dd12d69216e28247060d4b2163ca41b3990602001610743565b335f90815260046020526040902054611e295760405162461bcd60e51b815260040161077990613f0d565b335f908152600460209081526040808320548084526003808452828520868652019092529091205460ff16611e975760405162461bcd60e51b8152602060048201526014602482015273155cd95c881b9bdd081bdb8819195b9e5b1a5cdd60621b6044820152606401610779565b5f8181526003602081815260408084208685528084018352908420805460ff191690559284905252611ecc9060020183613450565b60408051828152602081018490527f8935205b1b382095d2d95efbb36f81a11a34c548d45af26adc1a02d2f2bb546f9101610871565b611f0a6136d6565b5f828152600560209081526040918290208251610100810190935280546001600160a01b031683526001810180549192840191611f4690613fb9565b80601f0160208091040260200160405190810160405280929190818152602001828054611f7290613fb9565b8015611fbd5780601f10611f9457610100808354040283529160200191611fbd565b820191905f5260205f20905b815481529060010190602001808311611fa057829003601f168201915b50505050508152602001600282018054611fd690613fb9565b80601f016020809104026020016040519081016040528092919081815260200182805461200290613fb9565b801561204d5780601f106120245761010080835404028352916020019161204d565b820191905f5260205f20905b81548152906001019060200180831161203057829003601f168201915b505050505081526020016003820154815260200160048201548152602001600582015481526020016006820154815260200160078201805480602002602001604051908101604052809291908181526020018280548015611d5857602002820191905f5260205f2090815481526020019060010190808311611d44575050505050815250509050919050565b335f908152600460205260409020546121045760405162461bcd60e51b815260040161077990613f0d565b61210d84610946565b6121485760405162461bcd60e51b815260206004820152600c60248201526b24b73b30b634b21024a120a760a11b6044820152606401610779565b335f908152600460205260409020600101546005116121a95760405162461bcd60e51b815260206004820152601e60248201527f4d6178696d756d206465706f73697420616d6f756e74207265616368656400006044820152606401610779565b60075482101561221a5760405162461bcd60e51b815260206004820152603660248201527f4465706f73697420616d6f756e74206d757374206265206772656174657220746044820152751a185b881b5a5b8819195c1bdcda5d08185b5bdd5b9d60521b6064820152608401610779565b5f81116122775760405162461bcd60e51b815260206004820152602560248201527f5265636569766520616d6f756e74206d75737420626520677265617465722074604482015264068616e20360dc1b6064820152608401610779565b5f8161228b670de0b6b3a764000085614039565b6122959190614050565b600d80549192505f9190826122a983614063565b90915550335f818152600460209081526040808320600180820180548083018255908652848620018790558251610100810184529586528584018d81528684018d9052606087018c9052608087018c905260a0870186905260c087018a90528351868152808601855260e0880152878652600590945291909320845181546001600160a01b0319166001600160a01b0390911617815591519495509193909182019061235590826140bf565b506040820151600282019061236a90826140bf565b50606082015160038201556080820151600482015560a0820151600582015560c0820151600682015560e082015180516123ae91600784019160209091019061371f565b50506040516323b872dd60e01b8152336004820152306024820152604481018790527f00000000000000000000000000000000000000000000000000000000000000006001600160a01b031691506323b872dd906064016020604051808303815f875af1158015612421573d5f803e3d5ffd5b505050506040513d601f19601f82011682018060405250810190612445919061401a565b508054604080518781526020810186905284917f36b046df2c296f2a5a78570d5e52a92773cbb616825b1af59a49a4d02df2b109910160405180910390a350505050505050565b60056020525f9081526040902080546001820180546001600160a01b0390921692916124b790613fb9565b80601f01602080910402602001604051908101604052809291908181526020018280546124e390613fb9565b801561252e5780601f106125055761010080835404028352916020019161252e565b820191905f5260205f20905b81548152906001019060200180831161251157829003601f168201915b50505050509080600201805461254390613fb9565b80601f016020809104026020016040519081016040528092919081815260200182805461256f90613fb9565b80156125ba5780601f10612591576101008083540402835291602001916125ba565b820191905f5260205f20905b81548152906001019060200180831161259d57829003601f168201915b5050505050908060030154908060040154908060050154908060060154905087565b6125e46129f3565b6001600160a01b0381166126465760405162461bcd60e51b8152602060048201526024808201527f46656520726563697069656e742063616e6e6f74206265207a65726f206164646044820152637265737360e01b6064820152608401610779565b600c80546001600160a01b0319166001600160a01b0383169081179091556040519081527f594ad6ee98bfc0c73e6d15fd4e762502f359e05d26907b7fa1ff82eb5e99f6e490602001610743565b5f818152600660209081526040808320815160a08101835281546001600160a01b039081168252600183015416938101939093526002810154918301919091526003810154606083015260040154608082018190529091036127085760405162461bcd60e51b815260040161077990613feb565b335f908152600460205260408082205483516001600160a01b03168352912054146127755760405162461bcd60e51b815260206004820152601c60248201527f53656e646572206d75737420626520746865206f6e2d72616d706572000000006044820152606401610779565b6040808201515f90815260056020522061278f818461306d565b8160600151816004015f8282546127a69190613f93565b909155505060608201516005820180545f906127c3908490613fa6565b9091555050505050565b60605f8267ffffffffffffffff8111156127e9576127e9613879565b60405190808252806020026020018201604052801561282257816020015b61280f613768565b8152602001906001900390816128075790505b5090505f5b8381101561291a575f85858381811061284257612842613f44565b602090810292909201355f81815260068452604090819020815160a08101835281546001600160a01b039081168252600183015416958101959095526002810154858301526003810154606080870191909152600490910154608086015281519081019091529093509050808888868181106128c0576128c0613f44565b6020908102929092013583525081810184905283516001600160a01b03165f908152600490915260409081902054910152845185908590811061290557612905613f44565b60209081029190910101525050600101612827565b5090505b92915050565b61292c6129f3565b600180546001600160a01b0319166001600160a01b0383169081179091556040519081527f73d3ac111d5926fbfd68ade03832f0b1a4daef0cd0effc1fa0829264bcc57c4190602001610743565b6129826129f3565b6001600160a01b0381166129e75760405162461bcd60e51b815260206004820152602660248201527f4f776e61626c653a206e6577206f776e657220697320746865207a65726f206160448201526564647265737360d01b6064820152608401610779565b6129f081613401565b50565b5f546001600160a01b031633146119e75760405162461bcd60e51b815260206004820181905260248201527f4f776e61626c653a2063616c6c6572206973206e6f7420746865206f776e65726044820152606401610779565b60408051602081018490529081018290524260608201525f90819060800160408051601f1981840301815291905280516020909101209050612aae7f30644e72e131a029b85045b68181585d2833e84879b9709143e1f593f000000182613f6c565b949350505050565b5f8181526005602090815260408083206007018054825181850281018501909352808352606094938493929190830182828015612b1057602002820191905f5260205f20905b815481526020019060010190808311612afc575b50505050509050805167ffffffffffffffff811115612b3157612b31613879565b604051908082528060200260200182016040528015612b5a578160200160208202803683370190505b5092505f5b8151811015612c48575f60065f848481518110612b7e57612b7e613f44565b60209081029190910181015182528181019290925260409081015f20815160a08101835281546001600160a01b03908116825260018301541693810193909352600281015491830191909152600381015460608301526004015460808201819052600a549192504291612bf091613f93565b1015612c3f57828281518110612c0857612c08613f44565b6020026020010151858381518110612c2257612c22613f44565b60209081029190910101526060810151612c3c9085613f93565b93505b50600101612b5f565b5050915091565b5f5b81518110156117ed575f801b828281518110612c6f57612c6f613f44565b602002602001015114612c9f57612c9f83838381518110612c9257612c92613f44565b602002602001015161306d565b600101612c51565b60015460405163dc28b2bf60e01b81525f9182916001600160a01b039091169063dc28b2bf90612cdd90879087906004016141d3565b6020604051808303815f875af1158015612cf9573d5f803e3d5ffd5b505050506040513d601f19601f82011682018060405250810190612aae9190614214565b612d2561378e565b600254604051630c44b27760e01b81525f9182918291829182918291829182916001600160a01b0390911690630c44b27790612d67908e908e9060040161422b565b60c0604051808303815f875af1158015612d83573d5f803e3d5ffd5b505050506040513d601f19601f82011682018060405250810190612da7919061426c565b5f818152600660209081526040808320815160a08101835281546001600160a01b03908116825260018301548116828601526002830154828501819052600384015460608401526004909301546080830152918552600590935292208151989e50969c50949a509298509096509450909216612e355760405162461bcd60e51b815260040161077990613feb565b8682608001511115612e945760405162461bcd60e51b815260206004820152602260248201527f496e74656e7420776173206e6f742063726561746564206265666f72652073656044820152611b9960f21b6064820152608401610779565b8581600201604051602001612ea991906142b2565b6040516020818303038152906040528051906020012014612f0c5760405162461bcd60e51b815260206004820152601b60248201527f4f666672616d70657220696420646f6573206e6f74206d6174636800000000006044820152606401610779565b8481600101604051602001612f2191906142b2565b6040516020818303038152906040528051906020012014612f845760405162461bcd60e51b815260206004820152601b60248201527f4f666672616d70657220696420646f6573206e6f74206d6174636800000000006044820152606401610779565b81516001600160a01b03165f908152600460205260409020548414612feb5760405162461bcd60e51b815260206004820152601a60248201527f4f6e72616d70657220696420646f6573206e6f74206d617463680000000000006044820152606401610779565b8060060154670de0b6b3a764000083606001516130089190614039565b6130129190614050565b88101561305a5760405162461bcd60e51b81526020600482015260166024820152750a0c2f2dacadce840eec2e640dcdee840cadcdeeaced60531b6044820152606401610779565b9099509750955050505050509250925092565b5f818152600660208181526040808420815160a08101835281546001600160a01b039081168083526001840180549092168387015260028401805484870152600380860180546060870152600480880180546080890152948c528952878b20548b529088529589208990558989529690955282546001600160a01b0319908116909355805490921690915592849055839055919091556131106007840183613450565b604080820151905183907fe8a865b4bab023c399cbd1f2cdd0df2199beb6e5012a4bd2d7691cf7e4199d5a905f90a3505050565b5f816004015482600501546131599190613f93565b9050805f036117ed5781546001600160a01b03165f908152600460205260409020613187906001018461356f565b8154604080518581526001600160a01b0390921660208301527f8ac07cc6e38c6222dd0309c80353c1962354bacf222b825d7401cc80e93ff3cc910160405180910390a15f83815260056020526040812080546001600160a01b0319168155906131f460018301826137ca565b613201600283015f6137ca565b600382015f9055600482015f9055600582015f9055600682015f9055600782015f6116a39190613801565b5f600b545f146132f357670de0b6b3a7640000600b5483606001516132519190614039565b61325b9190614050565b600c5460405163a9059cbb60e01b81526001600160a01b039182166004820152602481018390529192507f0000000000000000000000000000000000000000000000000000000000000000169063a9059cbb906044016020604051808303815f875af11580156132cd573d5f803e3d5ffd5b505050506040513d601f19601f820116820180604052508101906132f1919061401a565b505b5f8183606001516133049190613fa6565b602084015160405163a9059cbb60e01b81526001600160a01b039182166004820152602481018390529192507f0000000000000000000000000000000000000000000000000000000000000000169063a9059cbb906044016020604051808303815f875af1158015613378573d5f803e3d5ffd5b505050506040513d601f19601f8201168201806040525081019061339c919061401a565b50825160408085015160208087015183516001600160a01b03918216815291820186905292810186905291909216919086907ffa03438194e61c243c6bb5349f1e1dc674431b86f119b5e3b2b327bc43446bce9060600160405180910390a450505050565b5f80546001600160a01b038381166001600160a01b0319831681178455604051919092169283917f8be0079c531659141344cd1fd0a4f28419497f9722a3daafe3b4186f6b6457e09190a35050565b5f806134a98480548060200260200160405190810160405280929190818152602001828054801561349e57602002820191905f5260205f20905b81548152602001906001019080831161348a575b505050505084613611565b91509150806134f25760405162461bcd60e51b8152602060048201526015602482015274313cba32b99999103737ba1034b71030b93930bc9760591b6044820152606401610779565b83545f9061350290600190613fa6565b90508083146135445784818154811061351d5761351d613f44565b905f5260205f20015485848154811061353857613538613f44565b5f918252602090912001555b8480548061355457613554614324565b600190038181905f5260205f20015f90559055505b50505050565b5f806135c8848054806020026020016040519081016040528092919081815260200182805480156135bd57602002820191905f5260205f20905b8154815260200190600101908083116135a9575b505050505084613667565b91509150806134f25760405162461bcd60e51b81526020600482015260156024820152743ab4b73a191a9b103737ba1034b71030b93930bc9760591b6044820152606401610779565b81515f908190815b81811015613656578486828151811061363457613634613f44565b60200260200101510361364e579250600191506136609050565b600101613619565b505f195f92509250505b9250929050565b81515f908190815b81811015613656578486828151811061368a5761368a613f44565b6020026020010151036136a4579250600191506136609050565b60010161366f565b604080516080810182525f80825260208201529081016136ca6136d6565b81526020015f81525090565b6040518061010001604052805f6001600160a01b0316815260200160608152602001606081526020015f81526020015f81526020015f81526020015f8152602001606081525090565b828054828255905f5260205f20908101928215613758579160200282015b8281111561375857825182559160200191906001019061373d565b50613764929150613818565b5090565b60408051606081019091525f81526020810161378261378e565b81525f60209091015290565b6040518060a001604052805f6001600160a01b031681526020015f6001600160a01b031681526020015f81526020015f81526020015f81525090565b5080546137d690613fb9565b5f825580601f106137e5575050565b601f0160209004905f5260205f20908101906129f09190613818565b5080545f8255905f5260205f20908101906129f091905b5b80821115613764575f8155600101613819565b6001600160a01b03811681146129f0575f80fd5b5f60208284031215613850575f80fd5b813561385b8161382c565b9392505050565b5f60208284031215613872575f80fd5b5035919050565b634e487b7160e01b5f52604160045260245ffd5b604051601f8201601f1916810167ffffffffffffffff811182821017156138b6576138b6613879565b604052919050565b5f82601f8301126138cd575f80fd5b813567ffffffffffffffff8111156138e7576138e7613879565b6138fa601f8201601f191660200161388d565b81815284602083860101111561390e575f80fd5b816020850160208301375f918101602001919091529392505050565b5f6020828403121561393a575f80fd5b813567ffffffffffffffff811115613950575f80fd5b612aae848285016138be565b5f805f6060848603121561396e575f80fd5b833592506020840135915060408401356139878161382c565b809150509250925092565b5f6101808284031215611ccc575f80fd5b5f808284036103e08112156139b6575f80fd5b610260808212156139c5575f80fd5b8493506139d486828701613992565b925050509250929050565b602080825282518282018190525f9190848201906040850190845b81811015613a16578351835292840192918401916001016139fa565b50909695505050505050565b5f8060408385031215613a33575f80fd5b8235613a3e8161382c565b91506020830135613a4e8161382c565b809150509250929050565b5f81518084525f5b81811015613a7d57602081850181015186830182015201613a61565b505f602082860101526020601f19601f83011685010191505092915050565b5f815180845260208085019450602084015f5b83811015613acb57815187529582019590820190600101613aaf565b509495945050505050565b5f61010060018060a01b0383511684526020830151816020860152613afd82860182613a59565b91505060408301518482036040860152613b178282613a59565b915050606083015160608501526080830151608085015260a083015160a085015260c083015160c085015260e083015184820360e0860152613b598282613a9c565b95945050505050565b5f60208083018184528085518083526040925060408601915060408160051b8701018488015f5b83811015613be057603f1989840301855281516080815185528882015189860152878201518189870152613bbf82870182613ad6565b60609384015196909301959095525094870194925090860190600101613b89565b509098975050505050505050565b5f80828403610600811215613c01575f80fd5b610480808212156139c5575f80fd5b5f6020808385031215613c21575f80fd5b823567ffffffffffffffff80821115613c38575f80fd5b818501915085601f830112613c4b575f80fd5b813581811115613c5d57613c5d613879565b8060051b9150613c6e84830161388d565b8181529183018401918481019088841115613c87575f80fd5b938501935b83851015613ca557843582529385019390850190613c8c565b98975050505050505050565b6020808252825182820152828101516040808401528051606084018190525f9291820190839060808601905b80831015613cfd5783518252928401926001929092019190840190613cdd565b509695505050505050565b602081525f61385b6020830184613ad6565b5f805f8060808587031215613d2d575f80fd5b843567ffffffffffffffff80821115613d44575f80fd5b613d50888389016138be565b95506020870135915080821115613d65575f80fd5b50613d72878288016138be565b949794965050505060408301359260600135919050565b6001600160a01b038816815260e0602082018190525f90613dac90830189613a59565b8281036040840152613dbe8189613a59565b9150508560608301528460808301528360a08301528260c083015298975050505050505050565b5f8060208385031215613df6575f80fd5b823567ffffffffffffffff80821115613e0d575f80fd5b818501915085601f830112613e20575f80fd5b813581811115613e2e575f80fd5b8660208260051b8501011115613e42575f80fd5b60209290920196919550909350505050565b602080825282518282018190525f919060409081850190868401855b82811015613ed6578151805185528681015180516001600160a01b039081168988015281890151168787015286810151606080880191909152810151608080880191909152015160a086015285015160c085015260e09093019290850190600101613e70565b5091979650505050505050565b5f8060408385031215613ef4575f80fd5b8235613eff8161382c565b946020939093013593505050565b6020808252601e908201527f43616c6c6572206d757374206265207265676973746572656420757365720000604082015260600190565b634e487b7160e01b5f52603260045260245ffd5b634e487b7160e01b5f52601260045260245ffd5b5f82613f7a57613f7a613f58565b500690565b634e487b7160e01b5f52601160045260245ffd5b8082018082111561291e5761291e613f7f565b8181038181111561291e5761291e613f7f565b600181811c90821680613fcd57607f821691505b602082108103611ccc57634e487b7160e01b5f52602260045260245ffd5b602080825260159082015274125b9d195b9d08191bd95cc81b9bdd08195e1a5cdd605a1b604082015260600190565b5f6020828403121561402a575f80fd5b8151801515811461385b575f80fd5b808202811582820484141761291e5761291e613f7f565b5f8261405e5761405e613f58565b500490565b5f6001820161407457614074613f7f565b5060010190565b601f8211156117ed57805f5260205f20601f840160051c810160208510156140a05750805b601f840160051c820191505b818110156116a3575f81556001016140ac565b815167ffffffffffffffff8111156140d9576140d9613879565b6140ed816140e78454613fb9565b8461407b565b602080601f831160018114614120575f84156141095750858301515b5f19600386901b1c1916600185901b178555614177565b5f85815260208120601f198616915b8281101561414e5788860151825594840194600190910190840161412f565b508582101561416b57878501515f19600388901b60f8161c191681555b505060018460011b0185555b505050505050565b805f5b600281101561356957604080838637938401939190910190600101614182565b60408183376141b7604083016040830161417f565b604060c0820160c0840137610100608081830182850137505050565b6103e0810160408483376141ed604083016040860161417f565b604060c0850160c0840137610100610160818601828501375061385b6102608301846141a2565b5f60208284031215614224575f80fd5b5051919050565b61060081016040848337614245604083016040860161417f565b604060c0850160c0840137610100610380818601828501375061385b6104808301846141a2565b5f805f805f8060c08789031215614281575f80fd5b865195506020870151945060408701519350606087015192506080870151915060a087015190509295509295509295565b5f8083546142bf81613fb9565b600182811680156142d757600181146142ec57614318565b60ff1984168752821515830287019450614318565b875f526020805f205f5b8581101561430f5781548a8201529084019082016142f6565b50505082870194505b50929695505050505050565b634e487b7160e01b5f52603160045260245ffdfea26469706673582212208fb4e210ebf703ecb4bcbe28e30d16afbe87747ef3a60413a39e088f937844b564736f6c63430008180033",
  "devdoc": {
    "kind": "dev",
    "methods": {
      "addAccountToDenylist(bytes32)": {
        "params": {
          "_deniedUser": "Poseidon hash of the idHash being banned"
        }
      },
      "cancelIntent(bytes32)": {
        "params": {
          "_intentHash": "Hash of intent being cancelled"
        }
      },
      "initialize(address,address)": {
        "params": {
          "_registrationProcessor": "Registration processor address",
          "_sendProcessor": "Send processor address"
        }
      },
      "offRamp(string,string,uint256,uint256)": {
        "params": {
          "_depositAmount": "The amount of USDC to off-ramp",
          "_garantiIban": "IBAN number of the depositor with spacing as such: \"TR## #### #### #### #### #### ##\"",
          "_garantiName": "Name given for Garanti IBAN account, necessary for on-rampers to complete on-ramp",
          "_receiveAmount": "The amount of USD to receive"
        }
      },
      "onRamp((uint256[2],uint256[2][2],uint256[2],uint256[28]),(uint256[2],uint256[2][2],uint256[2],uint256[4]))": {
        "params": {
          "_bodyHashProof": "Parameters and signals for body hash proof",
          "_proof": "Parameters and signals for send email proof"
        }
      },
      "owner()": {
        "details": "Returns the address of the current owner."
      },
      "register((uint256[2],uint256[2][2],uint256[2],uint256[11]),(uint256[2],uint256[2][2],uint256[2],uint256[4]))": {
        "params": {
          "_bodyHashProof": "Parameters and signals for body hash proof",
          "_proof": "Parameters and signals for registration email proof"
        }
      },
      "releaseFundsToOnramper(bytes32)": {
        "params": {
          "_intentHash": "Hash of intent to resolve by releasing the funds"
        }
      },
      "removeAccountFromDenylist(bytes32)": {
        "params": {
          "_approvedUser": "Poseidon hash of the idHash being approved"
        }
      },
      "renounceOwnership()": {
        "details": "Leaves the contract without owner. It will not be possible to call `onlyOwner` functions. Can only be called by the current owner. NOTE: Renouncing ownership will leave the contract without an owner, thereby disabling any functionality that is only available to the owner."
      },
      "setIntentExpirationPeriod(uint256)": {
        "params": {
          "_intentExpirationPeriod": "New intent expiration period"
        }
      },
      "setMaxOnRampAmount(uint256)": {
        "params": {
          "_maxOnRampAmount": "The new max on ramp amount"
        }
      },
      "setMinDepositAmount(uint256)": {
        "params": {
          "_minDepositAmount": "The new minimum deposit amount"
        }
      },
      "setOnRampCooldownPeriod(uint256)": {
        "params": {
          "_onRampCooldownPeriod": "New on-ramp cooldown period"
        }
      },
      "setRegistrationProcessor(address)": {
        "params": {
          "_registrationProcessor": "New registration proccesor address"
        }
      },
      "setSendProcessor(address)": {
        "params": {
          "_sendProcessor": "New send proccesor address"
        }
      },
      "setSustainabilityFee(uint256)": {
        "params": {
          "_fee": "The new sustainability fee in precise units (10**18, ie 10% = 1e17)"
        }
      },
      "setSustainabilityFeeRecipient(address)": {
        "params": {
          "_feeRecipient": "The new fee recipient address"
        }
      },
      "signalIntent(uint256,uint256,address)": {
        "params": {
          "_amount": "The amount of USDC the user wants to on-ramp",
          "_depositId": "The ID of the deposit the on-ramper intends to use for ",
          "_to": "Address to forward funds to (can be same as onRamper)"
        }
      },
      "transferOwnership(address)": {
        "details": "Transfers ownership of the contract to a new account (`newOwner`). Can only be called by the current owner."
      },
      "withdrawDeposit(uint256[])": {
        "params": {
          "_depositIds": "Array of depositIds the depositor is attempting to withdraw"
        }
      }
    },
    "version": 1
  },
  "userdoc": {
    "kind": "user",
    "methods": {
      "addAccountToDenylist(bytes32)": {
        "notice": "Adds an idHash to a depositor's deny list. If an address associated with the banned idHash attempts to signal an intent on the user's deposit they will be denied."
      },
      "cancelIntent(bytes32)": {
        "notice": "Only callable by the originator of the intent. Cancels an outstanding intent thus allowing user to signal a new intent. Deposit state is updated to reflect the cancelled intent."
      },
      "initialize(address,address)": {
        "notice": "Initialize Ramp with the addresses of the Processors"
      },
      "offRamp(string,string,uint256,uint256)": {
        "notice": "Generates a deposit entry for off-rampers that can then be fulfilled by an on-ramper. This function will not add to previous deposits. Every deposit has it's own unique identifier. User must approve the contract to transfer the deposit amount of USDC."
      },
      "onRamp((uint256[2],uint256[2][2],uint256[2],uint256[28]),(uint256[2],uint256[2][2],uint256[2],uint256[4]))": {
        "notice": "Anyone can submit an on-ramp transaction, even if caller isn't on-ramper. Upon submission the proof is validated, intent is removed, and deposit state is updated. USDC is transferred to the on-ramper."
      },
      "register((uint256[2],uint256[2][2],uint256[2],uint256[11]),(uint256[2],uint256[2][2],uint256[2],uint256[4]))": {
        "notice": "Registers a new account by pulling the hash of the account id from the proof and assigning the account owner to the sender of the transaction. One Garanti account can be registered to multiple Ethereum addresses."
      },
      "releaseFundsToOnramper(bytes32)": {
        "notice": "Allows off-ramper to release funds to the on-ramper in case of a failed on-ramp or because of some other arrangement between the two parties. Upon submission we check to make sure the msg.sender is the depositor, the  intent is removed, and  deposit state is updated. USDC is transferred to the on-ramper."
      },
      "removeAccountFromDenylist(bytes32)": {
        "notice": "Removes a idHash from a depositor's deny list."
      },
      "setIntentExpirationPeriod(uint256)": {
        "notice": "GOVERNANCE ONLY: Updates the intent expiration period, after this period elapses an intent can be pruned to prevent locking up a depositor's funds."
      },
      "setMaxOnRampAmount(uint256)": {
        "notice": "GOVERNANCE ONLY: Updates the max amount allowed to be on-ramped in each transaction. To on-ramp more than this amount a user must make multiple transactions."
      },
      "setMinDepositAmount(uint256)": {
        "notice": "GOVERNANCE ONLY: Updates the minimum deposit amount a user can specify for off-ramping."
      },
      "setOnRampCooldownPeriod(uint256)": {
        "notice": "GOVERNANCE ONLY: Updates the on-ramp cooldown period, once an on-ramp transaction is completed the user must wait this amount of time before they can signalIntent to on-ramp again."
      },
      "setRegistrationProcessor(address)": {
        "notice": "GOVERNANCE ONLY: Updates the registration processor address used for validating and interpreting zk proofs."
      },
      "setSendProcessor(address)": {
        "notice": "GOVERNANCE ONLY: Updates the send processor address used for validating and interpreting zk proofs."
      },
      "setSustainabilityFee(uint256)": {
        "notice": "GOVERNANCE ONLY: Updates the sustainability fee. This fee is charged to on-rampers upon a successful on-ramp."
      },
      "setSustainabilityFeeRecipient(address)": {
        "notice": "GOVERNANCE ONLY: Updates the recepient of sustainability fees."
      },
      "signalIntent(uint256,uint256,address)": {
        "notice": "Signals intent to pay the depositor defined in the _depositId the _amount * deposit conversionRate off-chain in order to unlock _amount of funds on-chain. Each user can only have one outstanding intent at a time regardless of address (tracked using idHash). Caller must not be on the depositor's deny list. If there are prunable intents then they will be deleted from the deposit to be able to maintain state hygiene."
      },
      "withdrawDeposit(uint256[])": {
        "notice": "Caller must be the depositor for each depositId in the array, if not whole function fails. Depositor is returned all remaining deposits and any outstanding intents that are expired. If an intent is not expired then those funds will not be returned. Deposit will be deleted as long as there are no more outstanding intents."
      }
    },
    "version": 1
  },
  "storageLayout": {
    "storage": [
      {
        "astId": 7,
        "contract": "contracts/ramps/garanti/GarantiRamp.sol:GarantiRamp",
        "label": "_owner",
        "offset": 0,
        "slot": "0",
        "type": "t_address"
      },
      {
        "astId": 7046,
        "contract": "contracts/ramps/garanti/GarantiRamp.sol:GarantiRamp",
        "label": "registrationProcessor",
        "offset": 0,
        "slot": "1",
        "type": "t_contract(IGarantiRegistrationProcessor)9741"
      },
      {
        "astId": 7049,
        "contract": "contracts/ramps/garanti/GarantiRamp.sol:GarantiRamp",
        "label": "sendProcessor",
        "offset": 0,
        "slot": "2",
        "type": "t_contract(IGarantiSendProcessor)9786"
      },
      {
        "astId": 7051,
        "contract": "contracts/ramps/garanti/GarantiRamp.sol:GarantiRamp",
        "label": "isInitialized",
        "offset": 20,
        "slot": "2",
        "type": "t_bool"
      },
      {
        "astId": 7056,
        "contract": "contracts/ramps/garanti/GarantiRamp.sol:GarantiRamp",
        "label": "globalAccount",
        "offset": 0,
        "slot": "3",
        "type": "t_mapping(t_bytes32,t_struct(GlobalAccountInfo)7010_storage)"
      },
      {
        "astId": 7061,
        "contract": "contracts/ramps/garanti/GarantiRamp.sol:GarantiRamp",
        "label": "accounts",
        "offset": 0,
        "slot": "4",
        "type": "t_mapping(t_address,t_struct(AccountInfo)6947_storage)"
      },
      {
        "astId": 7066,
        "contract": "contracts/ramps/garanti/GarantiRamp.sol:GarantiRamp",
        "label": "deposits",
        "offset": 0,
        "slot": "5",
        "type": "t_mapping(t_uint256,t_struct(Deposit)6965_storage)"
      },
      {
        "astId": 7071,
        "contract": "contracts/ramps/garanti/GarantiRamp.sol:GarantiRamp",
        "label": "intents",
        "offset": 0,
        "slot": "6",
        "type": "t_mapping(t_bytes32,t_struct(Intent)6986_storage)"
      },
      {
        "astId": 7073,
        "contract": "contracts/ramps/garanti/GarantiRamp.sol:GarantiRamp",
        "label": "minDepositAmount",
        "offset": 0,
        "slot": "7",
        "type": "t_uint256"
      },
      {
        "astId": 7075,
        "contract": "contracts/ramps/garanti/GarantiRamp.sol:GarantiRamp",
        "label": "maxOnRampAmount",
        "offset": 0,
        "slot": "8",
        "type": "t_uint256"
      },
      {
        "astId": 7077,
        "contract": "contracts/ramps/garanti/GarantiRamp.sol:GarantiRamp",
        "label": "onRampCooldownPeriod",
        "offset": 0,
        "slot": "9",
        "type": "t_uint256"
      },
      {
        "astId": 7079,
        "contract": "contracts/ramps/garanti/GarantiRamp.sol:GarantiRamp",
        "label": "intentExpirationPeriod",
        "offset": 0,
        "slot": "10",
        "type": "t_uint256"
      },
      {
        "astId": 7081,
        "contract": "contracts/ramps/garanti/GarantiRamp.sol:GarantiRamp",
        "label": "sustainabilityFee",
        "offset": 0,
        "slot": "11",
        "type": "t_uint256"
      },
      {
        "astId": 7083,
        "contract": "contracts/ramps/garanti/GarantiRamp.sol:GarantiRamp",
        "label": "sustainabilityFeeRecipient",
        "offset": 0,
        "slot": "12",
        "type": "t_address"
      },
      {
        "astId": 7085,
        "contract": "contracts/ramps/garanti/GarantiRamp.sol:GarantiRamp",
        "label": "depositCounter",
        "offset": 0,
        "slot": "13",
        "type": "t_uint256"
      }
    ],
    "types": {
      "t_address": {
        "encoding": "inplace",
        "label": "address",
        "numberOfBytes": "20"
      },
      "t_array(t_bytes32)dyn_storage": {
        "base": "t_bytes32",
        "encoding": "dynamic_array",
        "label": "bytes32[]",
        "numberOfBytes": "32"
      },
      "t_array(t_uint256)dyn_storage": {
        "base": "t_uint256",
        "encoding": "dynamic_array",
        "label": "uint256[]",
        "numberOfBytes": "32"
      },
      "t_bool": {
        "encoding": "inplace",
        "label": "bool",
        "numberOfBytes": "1"
      },
      "t_bytes32": {
        "encoding": "inplace",
        "label": "bytes32",
        "numberOfBytes": "32"
      },
      "t_contract(IGarantiRegistrationProcessor)9741": {
        "encoding": "inplace",
        "label": "contract IGarantiRegistrationProcessor",
        "numberOfBytes": "20"
      },
      "t_contract(IGarantiSendProcessor)9786": {
        "encoding": "inplace",
        "label": "contract IGarantiSendProcessor",
        "numberOfBytes": "20"
      },
      "t_mapping(t_address,t_struct(AccountInfo)6947_storage)": {
        "encoding": "mapping",
        "key": "t_address",
        "label": "mapping(address => struct GarantiRamp.AccountInfo)",
        "numberOfBytes": "32",
        "value": "t_struct(AccountInfo)6947_storage"
      },
      "t_mapping(t_bytes32,t_bool)": {
        "encoding": "mapping",
        "key": "t_bytes32",
        "label": "mapping(bytes32 => bool)",
        "numberOfBytes": "32",
        "value": "t_bool"
      },
      "t_mapping(t_bytes32,t_struct(GlobalAccountInfo)7010_storage)": {
        "encoding": "mapping",
        "key": "t_bytes32",
        "label": "mapping(bytes32 => struct GarantiRamp.GlobalAccountInfo)",
        "numberOfBytes": "32",
        "value": "t_struct(GlobalAccountInfo)7010_storage"
      },
      "t_mapping(t_bytes32,t_struct(Intent)6986_storage)": {
        "encoding": "mapping",
        "key": "t_bytes32",
        "label": "mapping(bytes32 => struct GarantiRamp.Intent)",
        "numberOfBytes": "32",
        "value": "t_struct(Intent)6986_storage"
      },
      "t_mapping(t_uint256,t_struct(Deposit)6965_storage)": {
        "encoding": "mapping",
        "key": "t_uint256",
        "label": "mapping(uint256 => struct GarantiRamp.Deposit)",
        "numberOfBytes": "32",
        "value": "t_struct(Deposit)6965_storage"
      },
      "t_string_storage": {
        "encoding": "bytes",
        "label": "string",
        "numberOfBytes": "32"
      },
      "t_struct(AccountInfo)6947_storage": {
        "encoding": "inplace",
        "label": "struct GarantiRamp.AccountInfo",
        "members": [
          {
            "astId": 6943,
            "contract": "contracts/ramps/garanti/GarantiRamp.sol:GarantiRamp",
            "label": "idHash",
            "offset": 0,
            "slot": "0",
            "type": "t_bytes32"
          },
          {
            "astId": 6946,
            "contract": "contracts/ramps/garanti/GarantiRamp.sol:GarantiRamp",
            "label": "deposits",
            "offset": 0,
            "slot": "1",
            "type": "t_array(t_uint256)dyn_storage"
          }
        ],
        "numberOfBytes": "64"
      },
      "t_struct(DenyList)7002_storage": {
        "encoding": "inplace",
        "label": "struct GarantiRamp.DenyList",
        "members": [
          {
            "astId": 6997,
            "contract": "contracts/ramps/garanti/GarantiRamp.sol:GarantiRamp",
            "label": "deniedUsers",
            "offset": 0,
            "slot": "0",
            "type": "t_array(t_bytes32)dyn_storage"
          },
          {
            "astId": 7001,
            "contract": "contracts/ramps/garanti/GarantiRamp.sol:GarantiRamp",
            "label": "isDenied",
            "offset": 0,
            "slot": "1",
            "type": "t_mapping(t_bytes32,t_bool)"
          }
        ],
        "numberOfBytes": "64"
      },
      "t_struct(Deposit)6965_storage": {
        "encoding": "inplace",
        "label": "struct GarantiRamp.Deposit",
        "members": [
          {
            "astId": 6949,
            "contract": "contracts/ramps/garanti/GarantiRamp.sol:GarantiRamp",
            "label": "depositor",
            "offset": 0,
            "slot": "0",
            "type": "t_address"
          },
          {
            "astId": 6951,
            "contract": "contracts/ramps/garanti/GarantiRamp.sol:GarantiRamp",
            "label": "garantiIban",
            "offset": 0,
            "slot": "1",
            "type": "t_string_storage"
          },
          {
            "astId": 6953,
            "contract": "contracts/ramps/garanti/GarantiRamp.sol:GarantiRamp",
            "label": "garantiName",
            "offset": 0,
            "slot": "2",
            "type": "t_string_storage"
          },
          {
            "astId": 6955,
            "contract": "contracts/ramps/garanti/GarantiRamp.sol:GarantiRamp",
            "label": "depositAmount",
            "offset": 0,
            "slot": "3",
            "type": "t_uint256"
          },
          {
            "astId": 6957,
            "contract": "contracts/ramps/garanti/GarantiRamp.sol:GarantiRamp",
            "label": "remainingDeposits",
            "offset": 0,
            "slot": "4",
            "type": "t_uint256"
          },
          {
            "astId": 6959,
            "contract": "contracts/ramps/garanti/GarantiRamp.sol:GarantiRamp",
            "label": "outstandingIntentAmount",
            "offset": 0,
            "slot": "5",
            "type": "t_uint256"
          },
          {
            "astId": 6961,
            "contract": "contracts/ramps/garanti/GarantiRamp.sol:GarantiRamp",
            "label": "conversionRate",
            "offset": 0,
            "slot": "6",
            "type": "t_uint256"
          },
          {
            "astId": 6964,
            "contract": "contracts/ramps/garanti/GarantiRamp.sol:GarantiRamp",
            "label": "intentHashes",
            "offset": 0,
            "slot": "7",
            "type": "t_array(t_bytes32)dyn_storage"
          }
        ],
        "numberOfBytes": "256"
      },
      "t_struct(GlobalAccountInfo)7010_storage": {
        "encoding": "inplace",
        "label": "struct GarantiRamp.GlobalAccountInfo",
        "members": [
          {
            "astId": 7004,
            "contract": "contracts/ramps/garanti/GarantiRamp.sol:GarantiRamp",
            "label": "currentIntentHash",
            "offset": 0,
            "slot": "0",
            "type": "t_bytes32"
          },
          {
            "astId": 7006,
            "contract": "contracts/ramps/garanti/GarantiRamp.sol:GarantiRamp",
            "label": "lastOnrampTimestamp",
            "offset": 0,
            "slot": "1",
            "type": "t_uint256"
          },
          {
            "astId": 7009,
            "contract": "contracts/ramps/garanti/GarantiRamp.sol:GarantiRamp",
            "label": "denyList",
            "offset": 0,
            "slot": "2",
            "type": "t_struct(DenyList)7002_storage"
          }
        ],
        "numberOfBytes": "128"
      },
      "t_struct(Intent)6986_storage": {
        "encoding": "inplace",
        "label": "struct GarantiRamp.Intent",
        "members": [
          {
            "astId": 6977,
            "contract": "contracts/ramps/garanti/GarantiRamp.sol:GarantiRamp",
            "label": "onRamper",
            "offset": 0,
            "slot": "0",
            "type": "t_address"
          },
          {
            "astId": 6979,
            "contract": "contracts/ramps/garanti/GarantiRamp.sol:GarantiRamp",
            "label": "to",
            "offset": 0,
            "slot": "1",
            "type": "t_address"
          },
          {
            "astId": 6981,
            "contract": "contracts/ramps/garanti/GarantiRamp.sol:GarantiRamp",
            "label": "deposit",
            "offset": 0,
            "slot": "2",
            "type": "t_uint256"
          },
          {
            "astId": 6983,
            "contract": "contracts/ramps/garanti/GarantiRamp.sol:GarantiRamp",
            "label": "amount",
            "offset": 0,
            "slot": "3",
            "type": "t_uint256"
          },
          {
            "astId": 6985,
            "contract": "contracts/ramps/garanti/GarantiRamp.sol:GarantiRamp",
            "label": "intentTimestamp",
            "offset": 0,
            "slot": "4",
            "type": "t_uint256"
          }
        ],
        "numberOfBytes": "160"
      },
      "t_uint256": {
        "encoding": "inplace",
        "label": "uint256",
        "numberOfBytes": "32"
      }
    }
  }
}