{
  "address": "0x38381D63418Ff752Dba93eE018e36a6814388FA7",
  "abi": [
    {
      "inputs": [
        {
          "internalType": "address",
          "name": "_ramp",
          "type": "address"
        },
        {
          "internalType": "contract IKeyHashAdapterV2",
          "name": "_hdfcMailserverKeyHashAdapter",
          "type": "address"
        },
        {
          "internalType": "contract INullifierRegistry",
          "name": "_nullifierRegistry",
          "type": "address"
        },
        {
          "internalType": "string",
          "name": "_emailFromAddress",
          "type": "string"
        },
        {
          "internalType": "uint256",
          "name": "_timestampBuffer",
          "type": "uint256"
        }
      ],
      "stateMutability": "nonpayable",
      "type": "constructor"
    },
    {
      "anonymous": false,
      "inputs": [
        {
          "indexed": true,
          "internalType": "address",
          "name": "previousOwner",
          "type": "address"
        },
        {
          "indexed": true,
          "internalType": "address",
          "name": "newOwner",
          "type": "address"
        }
      ],
      "name": "OwnershipTransferred",
      "type": "event"
    },
    {
      "inputs": [],
      "name": "emailFromAddress",
      "outputs": [
        {
          "internalType": "bytes",
          "name": "",
          "type": "bytes"
        }
      ],
      "stateMutability": "view",
      "type": "function"
    },
    {
      "inputs": [],
      "name": "getEmailFromAddress",
      "outputs": [
        {
          "internalType": "bytes",
          "name": "",
          "type": "bytes"
        }
      ],
      "stateMutability": "view",
      "type": "function"
    },
    {
      "inputs": [
        {
          "internalType": "bytes32",
          "name": "_keyHash",
          "type": "bytes32"
        }
      ],
      "name": "isMailServerKeyHash",
      "outputs": [
        {
          "internalType": "bool",
          "name": "",
          "type": "bool"
        }
      ],
      "stateMutability": "view",
      "type": "function"
    },
    {
      "inputs": [],
      "name": "mailServerKeyHashAdapter",
      "outputs": [
        {
          "internalType": "contract IKeyHashAdapterV2",
          "name": "",
          "type": "address"
        }
      ],
      "stateMutability": "view",
      "type": "function"
    },
    {
      "inputs": [],
      "name": "nullifierRegistry",
      "outputs": [
        {
          "internalType": "contract INullifierRegistry",
          "name": "",
          "type": "address"
        }
      ],
      "stateMutability": "view",
      "type": "function"
    },
    {
      "inputs": [],
      "name": "owner",
      "outputs": [
        {
          "internalType": "address",
          "name": "",
          "type": "address"
        }
      ],
      "stateMutability": "view",
      "type": "function"
    },
    {
      "inputs": [
        {
          "components": [
            {
              "internalType": "uint256[2]",
              "name": "a",
              "type": "uint256[2]"
            },
            {
              "internalType": "uint256[2][2]",
              "name": "b",
              "type": "uint256[2][2]"
            },
            {
              "internalType": "uint256[2]",
              "name": "c",
              "type": "uint256[2]"
            },
            {
              "internalType": "uint256[15]",
              "name": "signals",
              "type": "uint256[15]"
            }
          ],
          "internalType": "struct IHDFCSendProcessor.SendProof",
          "name": "_proof",
          "type": "tuple"
        }
      ],
      "name": "processProof",
      "outputs": [
        {
          "internalType": "uint256",
          "name": "amount",
          "type": "uint256"
        },
        {
          "internalType": "uint256",
          "name": "timestamp",
          "type": "uint256"
        },
        {
          "internalType": "bytes32",
          "name": "offRamperIdHash",
          "type": "bytes32"
        },
        {
          "internalType": "bytes32",
          "name": "onRamperIdHash",
          "type": "bytes32"
        },
        {
          "internalType": "bytes32",
          "name": "intentHash",
          "type": "bytes32"
        }
      ],
      "stateMutability": "nonpayable",
      "type": "function"
    },
    {
      "inputs": [],
      "name": "ramp",
      "outputs": [
        {
          "internalType": "address",
          "name": "",
          "type": "address"
        }
      ],
      "stateMutability": "view",
      "type": "function"
    },
    {
      "inputs": [],
      "name": "renounceOwnership",
      "outputs": [],
      "stateMutability": "nonpayable",
      "type": "function"
    },
    {
      "inputs": [
        {
          "internalType": "string",
          "name": "_emailFromAddress",
          "type": "string"
        }
      ],
      "name": "setEmailFromAddress",
      "outputs": [],
      "stateMutability": "nonpayable",
      "type": "function"
    },
    {
      "inputs": [
        {
          "internalType": "contract IKeyHashAdapterV2",
          "name": "_mailServerKeyHashAdapter",
          "type": "address"
        }
      ],
      "name": "setMailserverKeyHashAdapter",
      "outputs": [],
      "stateMutability": "nonpayable",
      "type": "function"
    },
    {
      "inputs": [
        {
          "internalType": "uint256",
          "name": "_timestampBuffer",
          "type": "uint256"
        }
      ],
      "name": "setTimestampBuffer",
      "outputs": [],
      "stateMutability": "nonpayable",
      "type": "function"
    },
    {
      "inputs": [],
      "name": "timestampBuffer",
      "outputs": [
        {
          "internalType": "uint256",
          "name": "",
          "type": "uint256"
        }
      ],
      "stateMutability": "view",
      "type": "function"
    },
    {
      "inputs": [
        {
          "internalType": "address",
          "name": "newOwner",
          "type": "address"
        }
      ],
      "name": "transferOwnership",
      "outputs": [],
      "stateMutability": "nonpayable",
      "type": "function"
    },
    {
      "inputs": [
        {
          "internalType": "uint256[2]",
          "name": "_pA",
          "type": "uint256[2]"
        },
        {
          "internalType": "uint256[2][2]",
          "name": "_pB",
          "type": "uint256[2][2]"
        },
        {
          "internalType": "uint256[2]",
          "name": "_pC",
          "type": "uint256[2]"
        },
        {
          "internalType": "uint256[15]",
          "name": "_pubSignals",
          "type": "uint256[15]"
        }
      ],
      "name": "verifyProof",
      "outputs": [
        {
          "internalType": "bool",
          "name": "",
          "type": "bool"
        }
      ],
      "stateMutability": "view",
      "type": "function"
    }
  ],
  "transactionHash": "0xcb1c4c234a724981fb7ff1b96c7c5b6e2c269b33ac6f2be55825cbd79fd3da84",
  "args": [
    "0xb1527802E7800034D6887b0a99a5Ad2683184b95",
    "0x4C073a92B1C8Fb55313102Ab412fb7F1704bcBdD",
    "0x4d8E02BBfCf205828A8352Af4376b165E123D7b0",
    "alerts@hdfcbank.net",
    "30"
  ],
  "numDeployments": 1,
  "solcInputHash": "75b8f55da346d7ed99a350632554d2fb",
  "bytecode": "0x60a060405234801562000010575f80fd5b5060405162002d0738038062002d07833981016040819052620000339162000115565b848484848462000043336200009a565b6001600160a01b03858116608052600180546001600160a01b031990811687841617909155600280549091169185169190911790556003620000868382620002b6565b506004555062000382975050505050505050565b5f80546001600160a01b038381166001600160a01b0319831681178455604051919092169283917f8be0079c531659141344cd1fd0a4f28419497f9722a3daafe3b4186f6b6457e09190a35050565b6001600160a01b0381168114620000fe575f80fd5b50565b634e487b7160e01b5f52604160045260245ffd5b5f805f805f60a086880312156200012a575f80fd5b85516200013781620000e9565b809550506020808701516200014c81620000e9565b60408801519095506200015f81620000e9565b60608801519094506001600160401b03808211156200017c575f80fd5b818901915089601f83011262000190575f80fd5b815181811115620001a557620001a562000101565b604051601f8201601f19908116603f01168101908382118183101715620001d057620001d062000101565b816040528281528c86848701011115620001e8575f80fd5b5f93505b828410156200020b5784840186015181850187015292850192620001ec565b5f868483010152809750505050505050608086015190509295509295909350565b600181811c908216806200024157607f821691505b6020821081036200026057634e487b7160e01b5f52602260045260245ffd5b50919050565b601f821115620002b157805f5260205f20601f840160051c810160208510156200028d5750805b601f840160051c820191505b81811015620002ae575f815560010162000299565b50505b505050565b81516001600160401b03811115620002d257620002d262000101565b620002ea81620002e384546200022c565b8462000266565b602080601f83116001811462000320575f8415620003085750858301515b5f19600386901b1c1916600185901b1785556200037a565b5f85815260208120601f198616915b8281101562000350578886015182559484019460019091019084016200032f565b50858210156200036e57878501515f19600388901b60f8161c191681555b505060018460011b0185555b505050505050565b608051612966620003a15f395f818160f9015261030a01526129665ff3fe608060405234801561000f575f80fd5b50600436106100f0575f3560e01c8063bf93fde111610093578063dbac582111610063578063dbac582114610219578063f054a9a314610230578063f2fde38b14610243578063f6c7226b14610256575f80fd5b8063bf93fde1146101ae578063c0d05fed146101e9578063ced1e978146101fe578063d0b71f9914610206575f80fd5b80638da5cb5b116100ce5780638da5cb5b14610165578063a8ef333f14610175578063b2a3fda414610188578063b870676c1461019b575f80fd5b806315d276e1146100f457806319d0915214610138578063715018a61461015b575b5f80fd5b61011b7f000000000000000000000000000000000000000000000000000000000000000081565b6040516001600160a01b0390911681526020015b60405180910390f35b61014b610146366004612285565b610269565b604051901515815260200161012f565b6101636102da565b005b5f546001600160a01b031661011b565b60015461011b906001600160a01b031681565b610163610196366004612285565b6102ed565b60025461011b906001600160a01b031681565b6101c16101bc36600461229c565b6102fa565b604080519586526020860194909452928401919091526060830152608082015260a00161012f565b6101f16105a1565b60405161012f91906122d5565b6101f161062d565b61016361021436600461231b565b6106bd565b61022260045481565b60405190815260200161012f565b61014b61023e366004612346565b6106e7565b61016361025136600461231b565b61105f565b6101636102643660046123bb565b6110d5565b600154604051630ce848a960e11b8152600481018390525f916001600160a01b0316906319d0915290602401602060405180830381865afa1580156102b0573d5f803e3d5ffd5b505050506040513d601f19601f820116820180604052508101906102d49190612466565b92915050565b6102e26110ed565b6102eb5f611146565b565b6102f56110ed565b600455565b5f80808080336001600160a01b037f0000000000000000000000000000000000000000000000000000000000000000161461037c5760405162461bcd60e51b815260206004820181905260248201527f4f6e6c792052616d702063616e2063616c6c20746869732066756e6374696f6e60448201526064015b60405180910390fd5b6040805163f054a9a360e01b8152309163f054a9a3916103af918a919082019060c0830190610100840190600401612485565b602060405180830381865afa1580156103ca573d5f803e3d5ffd5b505050506040513d601f19601f820116820180604052508101906103ee9190612466565b61042a5760405162461bcd60e51b815260206004820152600d60248201526c24b73b30b634b210283937b7b360991b6044820152606401610373565b610438610100870135610269565b6104845760405162461bcd60e51b815260206004820152601b60248201527f496e76616c6964206d61696c736572766572206b6579206861736800000000006044820152606401610373565b5f610496876101000160016004611195565b905060036040516104a79190612517565b6040518091039020816040516020016104c09190612589565b60405160208183030381529060405280519060200120146105235760405162461bcd60e51b815260206004820152601a60248201527f496e76616c696420656d61696c2066726f6d20616464726573730000000000006044820152606401610373565b61053f6006610539896101000160046006611195565b90611265565b95505f61055388610100016006600b611195565b90506004546105618261127c565b61056b91906125b8565b95506102808801359450610260880135935061058b6102a0890135611417565b509496939592945090926102c090920135919050565b600380546105ae906124e5565b80601f01602080910402602001604051908101604052809291908181526020018280546105da906124e5565b80156106255780601f106105fc57610100808354040283529160200191610625565b820191905f5260205f20905b81548152906001019060200180831161060857829003601f168201915b505050505081565b60606003805461063c906124e5565b80601f0160208091040260200160405190810160405280929190818152602001828054610668906124e5565b80156106b35780601f1061068a576101008083540402835291602001916106b3565b820191905f5260205f20905b81548152906001019060200180831161069657829003601f168201915b5050505050905090565b6106c56110ed565b600180546001600160a01b0319166001600160a01b0392909216919091179055565b5f610f66565b7f30644e72e131a029b85045b68181585d97816a916871ca8d3c208c16d87cfd47811061071c575f805260205ff35b50565b5f60405183815284602082015285604082015260408160608360076107d05a03fa91508161074f575f805260205ff35b825160408201526020830151606082015260408360808360066107d05a03fa9150508061077e575f805260205ff35b5050505050565b7f11c0fa536785a14ea232244faf4db797ed78290ed4fb27d5038cac6ae9a3915285527f25d09a0e68aa815305c2995cc88de47499c6bf8dd88aebc829db24846944696160208601525f608086018661082187357f06e757dafa88a886ce63a8c2b453fedcc71a0eb31f0131a905a4913207355d4c7f1364e9163e5b15b2805a6aac65afcb4001017d5343017c737564a23b6d0842868461071f565b61087160208801357f29ca5087e79a2d1fb754d59033fec517f164dfd734b75a8cc89c6e2894cec0687f15d07987dd5b551b72857cefaed299e7a1989a2927f859a6d0ad593beba936138461071f565b6108c160408801357f2b6a88b3112d75e15c1fc7f737cf28da3a22df26156e80d1dceb1d792aa6f5697f24580e32cd5353fa5aa622fec5d0cb8834ad9a35a5d7ed3de960648f39fa42af8461071f565b61091160608801357f24a9fdbfeb9e558ea7eb1c0f9d2f59adb3e19fee489181e0649cac9968d92c3d7f23ea51f6d35583a15c0e0f0bb44cdb055ddccb3109365d0feb10559bce3f68248461071f565b61096160808801357f083b0d8149f542f7d51ff78dd5bd947ac228adf4765f13cbb8ae4b0c9de33d197f04282c6bb25a8a05b9d698fa726e427251a636a05ae11f8178ed74ce70c7b3838461071f565b6109b160a08801357f1803098aec4fded4fc5b2bab68cf7fb1f5cdfc173e8b4c2d6f3ad5ae8b7d5ce47f02cf06b9216abdbe0d145ee6ba106240740f6554ba338900ae157bc1d11361238461071f565b610a0160c08801357f2e7c4cf7b58d9b12bb9cee35f053430f80678fe1885b216886c042d0cde497487f12a5802440d5b5d29b299b8818078e7c2165b5d2f49776e55ac4c8da11581e2f8461071f565b610a5160e08801357f1d78c8b32944313d7e911c1c721109f4a04d0879fe1e1802e3ddf943612a4ddd7f245b7127d480d0e750564b78818a037a57e3a17f889b15dbb01e9e243ad421808461071f565b610aa26101008801357f2568c716b634adaf4106a56b42776b724d5ef21e52864a1347088de129b478fe7f17565054db4aa08be111cfc14344b79875bc704e563362d7a9d3992271be35098461071f565b610af36101208801357f0400bd816ec371a36d4594b5466ba7a092139238746fcee0f5e254b7944c51617f013d5ee8b0b9e671e5bde7130e47682c47ca38dd479db7331ca393bf5edfa0248461071f565b610b446101408801357f10444a550566f8186e8fd121fe8a929e92f66e479515b67833a3d4bc07e5eeb77f24042e12cbcf48ac6d7b05da02753790ed095694fe2b3184239ec60500d3a86a8461071f565b610b956101608801357f29d1fba93734715a1dee7b66433894a2fb3304bcc7784a98f5f54b57c5f31f9e7f297559c6982845ac8cbc9d10c68703d05fff58f59bd022718930361da7d624058461071f565b610be66101808801357f01fbfd0d8299e28fe5b7b1e44840e0e49175cd784ea29456a5544d41ec56ed4f7f0120f0145b0c23de99655163334fafda2296421f9ff6d616a4381b731bcf8e928461071f565b610c376101a08801357f272e3f68e4dde921f3fecbf1da3e48be0375066071f79cf60d12a94909b013137f1c172fb9ad177d1f52f6f867020a4fd1d20819d027b26b5306eabd3d6a2da4488461071f565b610c886101c08801357f29bf2dd28bddc6677bfc29ae10bc2fc88614c805470de8f9c3bd943ef5b56b477f0bbe36a822bf94a2563eccdcdf022dce00eb8770630efa37084f7dabe6ec84f38461071f565b50823581527f30644e72e131a029b85045b68181585d97816a916871ca8d3c208c16d87cfd4760208401357f30644e72e131a029b85045b68181585d97816a916871ca8d3c208c16d87cfd4703066020820152833560408201526020840135606082015260408401356080820152606084013560a08201527f2d4d9aa7e302d9df41749d5507949d05dbea33fbb16c643b22f599a2be6df2e260c08201527f14bedd503c37ceb061d8ec60209fe345ce89830a19230301f076caff004d192660e08201527f0967032fcbf776d1afc985f88877f182d38480a653f2decaa9794cbc3bf3060c6101008201527f0e187847ad4c798374d0d6732bf501847dd68bc0e071241e0213bc7fc13db7ab6101208201527f304cfbd1e08a704a99f5e847d93f8c3caafddec46b7a0d379da69a4d112346a76101408201527f1739c1b1a457a8c7313123d24d2f9192f896b7c63eea05a9d57f06547ad0cec86101608201525f87015161018082015260205f018701516101a08201527f198e9393920d483a7260bfb731fb5d25f1aa493335a9e71297e485b7aef312c26101c08201527f1800deef121f1e76426a00665e5c4479674322d4f75edadd46debd5cd992f6ed6101e08201527f090689d0585ff075ec9e99ad690c3395bc4b313370b38ef355acdadcd122975b6102008201527f12c85ea5db8c6deb4aab71808dcb408fe3d1e7690c43d37b4ce6cc0166fa7daa610220820152843561024082015260208501356102608201527f0a656bd3ce0f460dfb7f25d7c71d52fecdc0eb363d413b2585775d8283eb0b046102808201527f0717de189821c8fd7338c4b95469c6dd47ee1aad6c8510dc9bcd7983852514eb6102a08201527f2d5f46e1cbebc83f7340eecebc2fff23e5da01cab367c8f7ec52c1bd3f6a2bc36102c08201527f1c0356f78812a13151f9212f9c69e8a7a9b2a7634c2b43617adda632ce9954d86102e08201526020816103008360086107d05a03fa9051169695505050505050565b6040516103808101604052610f7d5f8401356106ed565b610f8a60208401356106ed565b610f9760408401356106ed565b610fa460608401356106ed565b610fb160808401356106ed565b610fbe60a08401356106ed565b610fcb60c08401356106ed565b610fd860e08401356106ed565b610fe66101008401356106ed565b610ff46101208401356106ed565b6110026101408401356106ed565b6110106101608401356106ed565b61101e6101808401356106ed565b61102c6101a08401356106ed565b61103a6101c08401356106ed565b6110486101e08401356106ed565b611055818486888a610785565b9050805f5260205ff35b6110676110ed565b6001600160a01b0381166110cc5760405162461bcd60e51b815260206004820152602660248201527f4f776e61626c653a206e6577206f776e657220697320746865207a65726f206160448201526564647265737360d01b6064820152608401610373565b61071c81611146565b6110dd6110ed565b60036110e98282612614565b5050565b5f546001600160a01b031633146102eb5760405162461bcd60e51b815260206004820181905260248201527f4f776e61626c653a2063616c6c6572206973206e6f7420746865206f776e65726044820152606401610373565b5f80546001600160a01b038381166001600160a01b0319831681178455604051919092169283917f8be0079c531659141344cd1fd0a4f28419497f9722a3daafe3b4186f6b6457e09190a35050565b60605f6111a284846126d4565b60ff1667ffffffffffffffff8111156111bd576111bd6123a7565b6040519080825280602002602001820160405280156111e6578160200160208202803683370190505b50905060ff84165b8360ff16811015611241578581600f811061120b5761120b6124d1565b60200201358261121e60ff8816846126ed565b8151811061122e5761122e6124d1565b60209081029190910101526001016111ee565b5061125c600782516112539190612700565b82906007611524565b95945050505050565b5f61127583601760f91b84611836565b9392505050565b5f61128561225d565b5f805f5b8551811015611333578581815181106112a4576112a46124d1565b6020910101516001600160f81b031916600160fd1b14806112e957508581815181106112d2576112d26124d1565b6020910101516001600160f81b031916601d60f91b145b1561132b576112f98683836119fc565b84846008811061130b5761130b6124d1565b602002015261131b8160016125b8565b91508261132781612717565b9350505b600101611289565b50845161134390869083906119fc565b838360088110611355576113556124d1565b6020020152600782146113a05760405162461bcd60e51b8152602060048201526013602482015272496e76616c6964206461746520737472696e6760681b6044820152606401610373565b5f6113fa6113b7828660035b602002015190611265565b60408601516113c590611abd565b6113d15f8860016113ac565b6113dd5f8960046113ac565b6113e95f8a60056113ac565b6113f55f8b60066113ac565b611ef2565b905061140d818560076020020151611f4d565b9695505050505050565b60025460405163169394bb60e01b8152600481018390526001600160a01b039091169063169394bb90602401602060405180830381865afa15801561145e573d5f803e3d5ffd5b505050506040513d601f19601f820116820180604052508101906114829190612466565b156114cf5760405162461bcd60e51b815260206004820152601f60248201527f4e756c6c69666965722068617320616c7265616479206265656e2075736564006044820152606401610373565b600254604051632dea6f9960e11b8152600481018390526001600160a01b0390911690635bd4df32906024015f604051808303815f87803b158015611512575f80fd5b505af115801561077e573d5f803e3d5ffd5b60605f808386516115359190612700565b67ffffffffffffffff81111561154d5761154d6123a7565b6040519080825280601f01601f191660200182016040528015611577576020820181803683370190505b5090505f805b87518161ffff161015611711575f888261ffff16815181106115a1576115a16124d1565b602002602001015190505f8767ffffffffffffffff8111156115c5576115c56123a7565b6040519080825280602002602001820160405280156115ee578160200160208202803683370190505b5090505f5b8881101561163557611606816008612700565b83901c82828151811061161b5761161b6124d1565b60ff909216602092830291909101909101526001016115f3565b505f5b888110156116fb575f828281518110611653576116536124d1565b602002602001015160ff169050805f146116c8578060f81b87878151811061167d5761167d6124d1565b60200101906001600160f81b03191690815f1a9053508561169d81612717565b96506116ac9050600289612743565b60ff165f036116c3576116c0600189612764565b97505b6116eb565b6116d3600289612743565b60ff166001036116eb576116e8600189612764565b97505b5060089290921c91600101611638565b50505080806117099061277d565b91505061157d565b5060018360ff1610156117b25760405162461bcd60e51b815260206004820152605760248201527f4e6f207061636b656420627974657320666f756e642120496e76616c6964206660448201527f696e616c207374617465206f66207061636b656420627974657320696e20656d60648201527f61696c3b2076616c7565206973206c696b656c79203021000000000000000000608482015260a401610373565b858111156118205760405162461bcd60e51b815260206004820152603560248201527f5061636b6564206279746573206d6f7265207468616e20616c6c6f776564206d6044820152746178206e756d626572206f66207369676e616c732160581b6064820152608401610373565b5f61182a8361203e565b98975050505050505050565b5f83818080805b845181101561198157603060f81b85828151811061185d5761185d6124d1565b01602001516001600160f81b0319161080159061189e5750603960f81b85828151811061188c5761188c6124d1565b01602001516001600160f81b03191611155b156118e15760308582815181106118b7576118b76124d1565b01602001516118c9919060f81c6126ed565b6118d485600a612700565b6118de91906125b8565b93505b81156118f557826118f181612717565b9350505b876001600160f81b031916858281518110611912576119126124d1565b01602001516001600160f81b031916036119795781156119745760405162461bcd60e51b815260206004820152601c60248201527f537472696e6720686173206d756c7469706c6520646563696d616c73000000006044820152606401610373565b600191505b60010161183d565b50858211156119dd5760405162461bcd60e51b815260206004820152602260248201527f537472696e672068617320746f6f206d616e7920646563696d616c20706c6163604482015261657360f01b6064820152608401610373565b6119e782876126ed565b6119f290600a61287d565b61182a9084612700565b6060835f611a0a85856126ed565b67ffffffffffffffff811115611a2257611a226123a7565b6040519080825280601f01601f191660200182016040528015611a4c576020820181803683370190505b509050845b84811015611ab357828181518110611a6b57611a6b6124d1565b01602001516001600160f81b03191682611a8588846126ed565b81518110611a9557611a956124d1565b60200101906001600160f81b03191690815f1a905350600101611a51565b5095945050505050565b5f7f4a18c9083b936e0757952a5d9d34b5575d427661506fbe9908c2a1da3f3e80d982604051602001611af09190612589565b6040516020818303038152906040528051906020012003611b1357506001919050565b7f78ec83563b948f0ac242d7eaefd592adf65964e11cc27f11ae41faa99a1e990a82604051602001611b459190612589565b6040516020818303038152906040528051906020012003611b6857506002919050565b7f2bab7d3f253ae0e3722abcc2571faced288946968116996ffc3de31fb7348ec382604051602001611b9a9190612589565b6040516020818303038152906040528051906020012003611bbd57506003919050565b7fc6f33aba2381b69f05afc78835e501547a9daffa08d674623068c378423ac18882604051602001611bef9190612589565b6040516020818303038152906040528051906020012003611c1257506004919050565b7fdb5ee1006003349b29eda5be5fe34f728659f836a948d4ec595114aebbb159d382604051602001611c449190612589565b6040516020818303038152906040528051906020012003611c6757506005919050565b7f44a0046ab54c1458fc3c39dfcadc52509ad809730ec301470d2d747dbe77242d82604051602001611c999190612589565b6040516020818303038152906040528051906020012003611cbc57506006919050565b7f74d9e46f10329e61dc333ff1800274be516163110de31961b4e0c61de3e90c5c82604051602001611cee9190612589565b6040516020818303038152906040528051906020012003611d1157506007919050565b7fed40c08ab6f3d9c5d71155e25b1271d5b9eca8c27bf89e1d2293fcb77c5abf6482604051602001611d439190612589565b6040516020818303038152906040528051906020012003611d6657506008919050565b7f7d801199c77197eb9933a633741db90c2c6f3d7d14aca35f5f80a41b4a8863ac82604051602001611d989190612589565b6040516020818303038152906040528051906020012003611dbb57506009919050565b7fb7841ed82fc96483f061ddc0b19846855df22558c4aea3b3b058ce0d9f1f516482604051602001611ded9190612589565b6040516020818303038152906040528051906020012003611e105750600a919050565b7f487851233e540dddea8f904d6802590aead5463b1c44965d68348bb7def25cf482604051602001611e429190612589565b6040516020818303038152906040528051906020012003611e655750600b919050565b7f3bd971d8758c58fe0c4d635451404450c5edda87d624a89819e0be5a122933dc82604051602001611e979190612589565b6040516020818303038152906040528051906020012003611eba5750600c919050565b60405162461bcd60e51b815260206004820152600d60248201526c092dcecc2d8d2c840dadedce8d609b1b6044820152606401610373565b5f81611eff603c85612700565b611f0b610e1087612700565b62015180611f1a8b8b8b61212f565b611f249190612700565b611f2e91906125b8565b611f3891906125b8565b611f4291906125b8565b979650505050505050565b5f8151600514611f9f5760405162461bcd60e51b815260206004820152601760248201527f496e76616c69642074696d657a6f6e65206f66667365740000000000000000006044820152606401610373565b5f611fb18161053985600160036119fc565b90505f611fc58161053986600360056119fc565b90505f611fd382603c612700565b611fdf84610e10612700565b611fe991906125b8565b90505f611ff8868260016119fc565b5f81518110612009576120096124d1565b01602001516001600160f81b0319169050602b60f81b81146120345761202f82886125b8565b611f42565b611f4282886126ed565b805160609082905f5b825181101561208757828181518110612062576120626124d1565b01602001516001600160f81b0319165f0361207f57809150612087565b600101612047565b505f8167ffffffffffffffff8111156120a2576120a26123a7565b6040519080825280601f01601f1916602001820160405280156120cc576020820181803683370190505b5090505f5b82811015612126578381815181106120eb576120eb6124d1565b602001015160f81c60f81b828281518110612108576121086124d1565b60200101906001600160f81b03191690815f1a9053506001016120d1565b50949350505050565b5f6107b284101561213e575f80fd5b8383835f62253d8c60046064600c612157600e88612888565b61216191906128ae565b61216d886113246128da565b61217791906128da565b61218191906128ae565b61218c906003612901565b61219691906128ae565b600c806121a4600e88612888565b6121ae91906128ae565b6121b990600c612901565b6121c4600288612888565b6121ce9190612888565b6121da9061016f612901565b6121e491906128ae565b6004600c6121f3600e89612888565b6121fd91906128ae565b612209896112c06128da565b61221391906128da565b61221f906105b5612901565b61222991906128ae565b612235617d4b87612888565b61223f91906128da565b61224991906128da565b6122539190612888565b61182a9190612888565b6040518061010001604052806008905b606081526020019060019003908161226d5790505090565b5f60208284031215612295575f80fd5b5035919050565b5f6102e082840312156122ad575f80fd5b50919050565b5f5b838110156122cd5781810151838201526020016122b5565b50505f910152565b602081525f82518060208401526122f38160408501602087016122b3565b601f01601f19169190910160400192915050565b6001600160a01b038116811461071c575f80fd5b5f6020828403121561232b575f80fd5b813561127581612307565b80604081018310156102d4575f80fd5b5f805f806102e080868803121561235b575f80fd5b6123658787612336565b945060c0860187811115612377575f80fd5b6040870194506123878882612336565b935050868187011115612398575f80fd5b50929591945092610100019150565b634e487b7160e01b5f52604160045260245ffd5b5f602082840312156123cb575f80fd5b813567ffffffffffffffff808211156123e2575f80fd5b818401915084601f8301126123f5575f80fd5b813581811115612407576124076123a7565b604051601f8201601f19908116603f0116810190838211818310171561242f5761242f6123a7565b81604052828152876020848701011115612447575f80fd5b826020860160208301375f928101602001929092525095945050505050565b5f60208284031215612476575f80fd5b81518015158114611275575f80fd5b6102e08101604080878437808301865f5b60028110156124b357838284379183019190830190600101612496565b505050808560c0850137506101e08361010084013795945050505050565b634e487b7160e01b5f52603260045260245ffd5b600181811c908216806124f957607f821691505b6020821081036122ad57634e487b7160e01b5f52602260045260245ffd5b5f808354612524816124e5565b6001828116801561253c57600181146125515761257d565b60ff198416875282151583028701945061257d565b875f526020805f205f5b858110156125745781548a82015290840190820161255b565b50505082870194505b50929695505050505050565b5f825161259a8184602087016122b3565b9190910192915050565b634e487b7160e01b5f52601160045260245ffd5b808201808211156102d4576102d46125a4565b601f82111561260f57805f5260205f20601f840160051c810160208510156125f05750805b601f840160051c820191505b8181101561077e575f81556001016125fc565b505050565b815167ffffffffffffffff81111561262e5761262e6123a7565b6126428161263c84546124e5565b846125cb565b602080601f831160018114612675575f841561265e5750858301515b5f19600386901b1c1916600185901b1785556126cc565b5f85815260208120601f198616915b828110156126a357888601518255948401946001909101908401612684565b50858210156126c057878501515f19600388901b60f8161c191681555b505060018460011b0185555b505050505050565b60ff82811682821603908111156102d4576102d46125a4565b818103818111156102d4576102d46125a4565b80820281158282048414176102d4576102d46125a4565b5f60018201612728576127286125a4565b5060010190565b634e487b7160e01b5f52601260045260245ffd5b5f60ff8316806127555761275561272f565b8060ff84160691505092915050565b60ff81811683821601908111156102d4576102d46125a4565b5f61ffff808316818103612793576127936125a4565b6001019392505050565b600181815b808511156127d757815f19048211156127bd576127bd6125a4565b808516156127ca57918102915b93841c93908002906127a2565b509250929050565b5f826127ed575060016102d4565b816127f957505f6102d4565b816001811461280f576002811461281957612835565b60019150506102d4565b60ff84111561282a5761282a6125a4565b50506001821b6102d4565b5060208310610133831016604e8410600b8410161715612858575081810a6102d4565b612862838361279d565b805f1904821115612875576128756125a4565b029392505050565b5f61127583836127df565b8181035f8312801583831316838312821617156128a7576128a76125a4565b5092915050565b5f826128bc576128bc61272f565b600160ff1b82145f19841416156128d5576128d56125a4565b500590565b8082018281125f8312801582168215821617156128f9576128f96125a4565b505092915050565b8082025f8212600160ff1b8414161561291c5761291c6125a4565b81810583148215176102d4576102d46125a456fea26469706673582212203ccd4a35386f7e621857328986ffd9e421258a15f9bd4cad5efa73430d11305064736f6c63430008180033",
  "devdoc": {
    "kind": "dev",
    "methods": {
      "owner()": {
        "details": "Returns the address of the current owner."
      },
      "renounceOwnership()": {
        "details": "Leaves the contract without owner. It will not be possible to call `onlyOwner` functions. Can only be called by the current owner. NOTE: Renouncing ownership will leave the contract without an owner, thereby disabling any functionality that is only available to the owner."
      },
      "setEmailFromAddress(string)": {
        "params": {
          "_emailFromAddress": "The from email address for validated emails, MUST BE PROPERLY PADDED"
        }
      },
      "setTimestampBuffer(uint256)": {
        "params": {
          "_timestampBuffer": "The timestamp buffer for validated emails"
        }
      },
      "transferOwnership(address)": {
        "details": "Transfers ownership of the contract to a new account (`newOwner`). Can only be called by the current owner."
      }
    },
    "version": 1
  },
  "userdoc": {
    "kind": "user",
    "methods": {
      "setEmailFromAddress(string)": {
        "notice": "ONLY OWNER: Sets the from email address for validated emails. Check that email address is properly padded (if necessary). Padding will be dependent on if unpacking functions cut trailing 0s or not."
      },
      "setTimestampBuffer(uint256)": {
        "notice": "ONLY OWNER: Sets the timestamp buffer for validated emails. This is the amount of time in seconds that the timestamp can be off by and still be considered valid. Necessary to build in flexibility with L2 timestamps."
      }
    },
    "version": 1
  },
  "storageLayout": {
    "storage": [
      {
        "astId": 7,
        "contract": "contracts/ramps/hdfc/HDFCSendProcessor.sol:HDFCSendProcessor",
        "label": "_owner",
        "offset": 0,
        "slot": "0",
        "type": "t_address"
      },
      {
        "astId": 6068,
        "contract": "contracts/ramps/hdfc/HDFCSendProcessor.sol:HDFCSendProcessor",
        "label": "mailServerKeyHashAdapter",
        "offset": 0,
        "slot": "1",
        "type": "t_contract(IKeyHashAdapterV2)6431"
      },
      {
        "astId": 6071,
        "contract": "contracts/ramps/hdfc/HDFCSendProcessor.sol:HDFCSendProcessor",
        "label": "nullifierRegistry",
        "offset": 0,
        "slot": "2",
        "type": "t_contract(INullifierRegistry)6636"
      },
      {
        "astId": 6073,
        "contract": "contracts/ramps/hdfc/HDFCSendProcessor.sol:HDFCSendProcessor",
        "label": "emailFromAddress",
        "offset": 0,
        "slot": "3",
        "type": "t_bytes_storage"
      },
      {
        "astId": 6075,
        "contract": "contracts/ramps/hdfc/HDFCSendProcessor.sol:HDFCSendProcessor",
        "label": "timestampBuffer",
        "offset": 0,
        "slot": "4",
        "type": "t_uint256"
      }
    ],
    "types": {
      "t_address": {
        "encoding": "inplace",
        "label": "address",
        "numberOfBytes": "20"
      },
      "t_bytes_storage": {
        "encoding": "bytes",
        "label": "bytes",
        "numberOfBytes": "32"
      },
      "t_contract(IKeyHashAdapterV2)6431": {
        "encoding": "inplace",
        "label": "contract IKeyHashAdapterV2",
        "numberOfBytes": "20"
      },
      "t_contract(INullifierRegistry)6636": {
        "encoding": "inplace",
        "label": "contract INullifierRegistry",
        "numberOfBytes": "20"
      },
      "t_uint256": {
        "encoding": "inplace",
        "label": "uint256",
        "numberOfBytes": "32"
      }
    }
  }
}