{
  "address": "0xb1527802E7800034D6887b0a99a5Ad2683184b95",
  "abi": [
    {
      "inputs": [
        {
          "internalType": "address",
          "name": "_owner",
          "type": "address"
        },
        {
          "internalType": "contract IERC20",
          "name": "_usdc",
          "type": "address"
        },
        {
          "internalType": "contract IeERC20",
          "name": "_eusdc",
          "type": "address"
        },
        {
          "internalType": "contract IPoseidon3",
          "name": "_poseidon3",
          "type": "address"
        },
        {
          "internalType": "contract IPoseidon6",
          "name": "_poseidon6",
          "type": "address"
        },
        {
          "internalType": "uint256",
          "name": "_minDepositAmount",
          "type": "uint256"
        },
        {
          "internalType": "uint256",
          "name": "_maxOnRampAmount",
          "type": "uint256"
        },
        {
          "internalType": "uint256",
          "name": "_intentExpirationPeriod",
          "type": "uint256"
        },
        {
          "internalType": "uint256",
          "name": "_onRampCooldownPeriod",
          "type": "uint256"
        },
        {
          "internalType": "uint256",
          "name": "_sustainabilityFee",
          "type": "uint256"
        },
        {
          "internalType": "address",
          "name": "_sustainabilityFeeRecipient",
          "type": "address"
        }
      ],
      "stateMutability": "nonpayable",
      "type": "constructor"
    },
    {
      "anonymous": false,
      "inputs": [
        {
          "indexed": true,
          "internalType": "address",
          "name": "accountOwner",
          "type": "address"
        },
        {
          "indexed": true,
          "internalType": "bytes32",
          "name": "idHash",
          "type": "bytes32"
        }
      ],
      "name": "AccountRegistered",
      "type": "event"
    },
    {
      "anonymous": false,
      "inputs": [
        {
          "indexed": false,
          "internalType": "uint256",
          "name": "depositId",
          "type": "uint256"
        },
        {
          "indexed": false,
          "internalType": "address",
          "name": "depositor",
          "type": "address"
        }
      ],
      "name": "DepositClosed",
      "type": "event"
    },
    {
      "anonymous": false,
      "inputs": [
        {
          "indexed": true,
          "internalType": "uint256",
          "name": "depositId",
          "type": "uint256"
        },
        {
          "indexed": true,
          "internalType": "bytes32",
          "name": "idHash",
          "type": "bytes32"
        },
        {
          "indexed": false,
          "internalType": "uint256",
          "name": "amount",
          "type": "uint256"
        },
        {
          "indexed": false,
          "internalType": "uint256",
          "name": "conversionRate",
          "type": "uint256"
        }
      ],
      "name": "DepositReceived",
      "type": "event"
    },
    {
      "anonymous": false,
      "inputs": [
        {
          "indexed": true,
          "internalType": "uint256",
          "name": "depositId",
          "type": "uint256"
        },
        {
          "indexed": true,
          "internalType": "address",
          "name": "depositor",
          "type": "address"
        },
        {
          "indexed": false,
          "internalType": "uint256",
          "name": "amount",
          "type": "uint256"
        }
      ],
      "name": "DepositWithdrawn",
      "type": "event"
    },
    {
      "anonymous": false,
      "inputs": [
        {
          "indexed": true,
          "internalType": "uint256",
          "name": "depositId",
          "type": "uint256"
        },
        {
          "indexed": true,
          "internalType": "bytes32",
          "name": "idHash",
          "type": "bytes32"
        },
        {
          "indexed": false,
          "internalType": "euint32",
          "name": "amount",
          "type": "uint256"
        },
        {
          "indexed": false,
          "internalType": "euint32",
          "name": "conversionRate",
          "type": "uint256"
        }
      ],
      "name": "EncryptedDepositReceived",
      "type": "event"
    },
    {
      "anonymous": false,
      "inputs": [
        {
          "indexed": false,
          "internalType": "uint256",
          "name": "intentExpirationPeriod",
          "type": "uint256"
        }
      ],
      "name": "IntentExpirationPeriodSet",
      "type": "event"
    },
    {
      "anonymous": false,
      "inputs": [
        {
          "indexed": true,
          "internalType": "bytes32",
          "name": "intentHash",
          "type": "bytes32"
        },
        {
          "indexed": true,
          "internalType": "uint256",
          "name": "depositId",
          "type": "uint256"
        },
        {
          "indexed": true,
          "internalType": "address",
          "name": "onRamper",
          "type": "address"
        },
        {
          "indexed": false,
          "internalType": "address",
          "name": "to",
          "type": "address"
        },
        {
          "indexed": false,
          "internalType": "uint256",
          "name": "amount",
          "type": "uint256"
        },
        {
          "indexed": false,
          "internalType": "uint256",
          "name": "feeAmount",
          "type": "uint256"
        }
      ],
      "name": "IntentFulfilled",
      "type": "event"
    },
    {
      "anonymous": false,
      "inputs": [
        {
          "indexed": true,
          "internalType": "bytes32",
          "name": "intentHash",
          "type": "bytes32"
        },
        {
          "indexed": true,
          "internalType": "uint256",
          "name": "depositId",
          "type": "uint256"
        }
      ],
      "name": "IntentPruned",
      "type": "event"
    },
    {
      "anonymous": false,
      "inputs": [
        {
          "indexed": true,
          "internalType": "bytes32",
          "name": "intentHash",
          "type": "bytes32"
        },
        {
          "indexed": true,
          "internalType": "uint256",
          "name": "depositId",
          "type": "uint256"
        },
        {
          "indexed": true,
          "internalType": "bytes32",
          "name": "idHash",
          "type": "bytes32"
        },
        {
          "indexed": false,
          "internalType": "address",
          "name": "to",
          "type": "address"
        },
        {
          "indexed": false,
          "internalType": "uint256",
          "name": "amount",
          "type": "uint256"
        },
        {
          "indexed": false,
          "internalType": "uint256",
          "name": "timestamp",
          "type": "uint256"
        }
      ],
      "name": "IntentSignaled",
      "type": "event"
    },
    {
      "anonymous": false,
      "inputs": [
        {
          "indexed": false,
          "internalType": "uint256",
          "name": "maxOnRampAmount",
          "type": "uint256"
        }
      ],
      "name": "MaxOnRampAmountSet",
      "type": "event"
    },
    {
      "anonymous": false,
      "inputs": [
        {
          "indexed": false,
          "internalType": "uint256",
          "name": "minDepositAmount",
          "type": "uint256"
        }
      ],
      "name": "MinDepositAmountSet",
      "type": "event"
    },
    {
      "anonymous": false,
      "inputs": [
        {
          "indexed": false,
          "internalType": "address",
          "name": "receiveProcessor",
          "type": "address"
        }
      ],
      "name": "NewReceiveProcessorSet",
      "type": "event"
    },
    {
      "anonymous": false,
      "inputs": [
        {
          "indexed": false,
          "internalType": "address",
          "name": "registrationProcessor",
          "type": "address"
        }
      ],
      "name": "NewRegistrationProcessorSet",
      "type": "event"
    },
    {
      "anonymous": false,
      "inputs": [
        {
          "indexed": false,
          "internalType": "address",
          "name": "sendProcessor",
          "type": "address"
        }
      ],
      "name": "NewSendProcessorSet",
      "type": "event"
    },
    {
      "anonymous": false,
      "inputs": [
        {
          "indexed": false,
          "internalType": "uint256",
          "name": "onRampCooldownPeriod",
          "type": "uint256"
        }
      ],
      "name": "OnRampCooldownPeriodSet",
      "type": "event"
    },
    {
      "anonymous": false,
      "inputs": [
        {
          "indexed": true,
          "internalType": "address",
          "name": "previousOwner",
          "type": "address"
        },
        {
          "indexed": true,
          "internalType": "address",
          "name": "newOwner",
          "type": "address"
        }
      ],
      "name": "OwnershipTransferred",
      "type": "event"
    },
    {
      "anonymous": false,
      "inputs": [
        {
          "indexed": false,
          "internalType": "address",
          "name": "feeRecipient",
          "type": "address"
        }
      ],
      "name": "SustainabilityFeeRecipientUpdated",
      "type": "event"
    },
    {
      "anonymous": false,
      "inputs": [
        {
          "indexed": false,
          "internalType": "uint256",
          "name": "fee",
          "type": "uint256"
        }
      ],
      "name": "SustainabilityFeeUpdated",
      "type": "event"
    },
    {
      "anonymous": false,
      "inputs": [
        {
          "indexed": false,
          "internalType": "bytes32",
          "name": "listOwner",
          "type": "bytes32"
        },
        {
          "indexed": false,
          "internalType": "bytes32",
          "name": "deniedUser",
          "type": "bytes32"
        }
      ],
      "name": "UserAddedToDenylist",
      "type": "event"
    },
    {
      "anonymous": false,
      "inputs": [
        {
          "indexed": false,
          "internalType": "bytes32",
          "name": "listOwner",
          "type": "bytes32"
        },
        {
          "indexed": false,
          "internalType": "bytes32",
          "name": "approvedUser",
          "type": "bytes32"
        }
      ],
      "name": "UserRemovedFromDenylist",
      "type": "event"
    },
    {
      "inputs": [
        {
          "internalType": "bytes32",
          "name": "_deniedUser",
          "type": "bytes32"
        }
      ],
      "name": "addAccountToDenylist",
      "outputs": [],
      "stateMutability": "nonpayable",
      "type": "function"
    },
    {
      "inputs": [
        {
          "internalType": "bytes32",
          "name": "_intentHash",
          "type": "bytes32"
        }
      ],
      "name": "cancelIntent",
      "outputs": [],
      "stateMutability": "nonpayable",
      "type": "function"
    },
    {
      "inputs": [],
      "name": "depositCounter",
      "outputs": [
        {
          "internalType": "uint256",
          "name": "",
          "type": "uint256"
        }
      ],
      "stateMutability": "view",
      "type": "function"
    },
    {
      "inputs": [
        {
          "internalType": "uint256",
          "name": "",
          "type": "uint256"
        }
      ],
      "name": "deposits",
      "outputs": [
        {
          "internalType": "address",
          "name": "depositor",
          "type": "address"
        },
        {
          "internalType": "uint256",
          "name": "depositAmount",
          "type": "uint256"
        },
        {
          "internalType": "uint256",
          "name": "remainingDeposits",
          "type": "uint256"
        },
        {
          "internalType": "uint256",
          "name": "outstandingIntentAmount",
          "type": "uint256"
        },
        {
          "internalType": "uint256",
          "name": "conversionRate",
          "type": "uint256"
        }
      ],
      "stateMutability": "view",
      "type": "function"
    },
    {
      "inputs": [
        {
          "internalType": "uint256",
          "name": "",
          "type": "uint256"
        }
      ],
      "name": "encryptedDeposits",
      "outputs": [
        {
          "internalType": "address",
          "name": "despositor",
          "type": "address"
        },
        {
          "internalType": "euint32",
          "name": "depositAmount",
          "type": "uint256"
        },
        {
          "internalType": "euint32",
          "name": "remainingDeposits",
          "type": "uint256"
        },
        {
          "internalType": "euint32",
          "name": "outstandingIntentAmount",
          "type": "uint256"
        },
        {
          "internalType": "euint32",
          "name": "conversionRate",
          "type": "uint256"
        }
      ],
      "stateMutability": "view",
      "type": "function"
    },
    {
      "inputs": [],
      "name": "eusdc",
      "outputs": [
        {
          "internalType": "contract IeERC20",
          "name": "",
          "type": "address"
        }
      ],
      "stateMutability": "view",
      "type": "function"
    },
    {
      "inputs": [
        {
          "internalType": "address",
          "name": "_account",
          "type": "address"
        }
      ],
      "name": "getAccountDeposits",
      "outputs": [
        {
          "components": [
            {
              "internalType": "uint256",
              "name": "depositId",
              "type": "uint256"
            },
            {
              "internalType": "bytes32",
              "name": "depositorIdHash",
              "type": "bytes32"
            },
            {
              "components": [
                {
                  "internalType": "address",
                  "name": "depositor",
                  "type": "address"
                },
                {
                  "internalType": "uint256[8]",
                  "name": "upiId",
                  "type": "uint256[8]"
                },
                {
                  "internalType": "uint256",
                  "name": "depositAmount",
                  "type": "uint256"
                },
                {
                  "internalType": "uint256",
                  "name": "remainingDeposits",
                  "type": "uint256"
                },
                {
                  "internalType": "uint256",
                  "name": "outstandingIntentAmount",
                  "type": "uint256"
                },
                {
                  "internalType": "uint256",
                  "name": "conversionRate",
                  "type": "uint256"
                },
                {
                  "internalType": "bytes32[]",
                  "name": "intentHashes",
                  "type": "bytes32[]"
                }
              ],
              "internalType": "struct HDFCRamp.Deposit",
              "name": "deposit",
              "type": "tuple"
            },
            {
              "internalType": "uint256",
              "name": "availableLiquidity",
              "type": "uint256"
            }
          ],
          "internalType": "struct HDFCRamp.DepositWithAvailableLiquidity[]",
          "name": "accountDeposits",
          "type": "tuple[]"
        }
      ],
      "stateMutability": "view",
      "type": "function"
    },
    {
      "inputs": [
        {
          "internalType": "address",
          "name": "_account",
          "type": "address"
        }
      ],
      "name": "getAccountInfo",
      "outputs": [
        {
          "components": [
            {
              "internalType": "bytes32",
              "name": "idHash",
              "type": "bytes32"
            },
            {
              "internalType": "uint256[]",
              "name": "deposits",
              "type": "uint256[]"
            }
          ],
          "internalType": "struct HDFCRamp.AccountInfo",
          "name": "",
          "type": "tuple"
        }
      ],
      "stateMutability": "view",
      "type": "function"
    },
    {
      "inputs": [
        {
          "internalType": "address",
          "name": "_account",
          "type": "address"
        }
      ],
      "name": "getDeniedUsers",
      "outputs": [
        {
          "internalType": "bytes32[]",
          "name": "",
          "type": "bytes32[]"
        }
      ],
      "stateMutability": "view",
      "type": "function"
    },
    {
      "inputs": [
        {
          "internalType": "uint256",
          "name": "_depositId",
          "type": "uint256"
        }
      ],
      "name": "getDeposit",
      "outputs": [
        {
          "components": [
            {
              "internalType": "address",
              "name": "depositor",
              "type": "address"
            },
            {
              "internalType": "uint256[8]",
              "name": "upiId",
              "type": "uint256[8]"
            },
            {
              "internalType": "uint256",
              "name": "depositAmount",
              "type": "uint256"
            },
            {
              "internalType": "uint256",
              "name": "remainingDeposits",
              "type": "uint256"
            },
            {
              "internalType": "uint256",
              "name": "outstandingIntentAmount",
              "type": "uint256"
            },
            {
              "internalType": "uint256",
              "name": "conversionRate",
              "type": "uint256"
            },
            {
              "internalType": "bytes32[]",
              "name": "intentHashes",
              "type": "bytes32[]"
            }
          ],
          "internalType": "struct HDFCRamp.Deposit",
          "name": "",
          "type": "tuple"
        }
      ],
      "stateMutability": "view",
      "type": "function"
    },
    {
      "inputs": [
        {
          "internalType": "uint256[]",
          "name": "_depositIds",
          "type": "uint256[]"
        }
      ],
      "name": "getDepositFromIds",
      "outputs": [
        {
          "components": [
            {
              "internalType": "uint256",
              "name": "depositId",
              "type": "uint256"
            },
            {
              "internalType": "bytes32",
              "name": "depositorIdHash",
              "type": "bytes32"
            },
            {
              "components": [
                {
                  "internalType": "address",
                  "name": "depositor",
                  "type": "address"
                },
                {
                  "internalType": "uint256[8]",
                  "name": "upiId",
                  "type": "uint256[8]"
                },
                {
                  "internalType": "uint256",
                  "name": "depositAmount",
                  "type": "uint256"
                },
                {
                  "internalType": "uint256",
                  "name": "remainingDeposits",
                  "type": "uint256"
                },
                {
                  "internalType": "uint256",
                  "name": "outstandingIntentAmount",
                  "type": "uint256"
                },
                {
                  "internalType": "uint256",
                  "name": "conversionRate",
                  "type": "uint256"
                },
                {
                  "internalType": "bytes32[]",
                  "name": "intentHashes",
                  "type": "bytes32[]"
                }
              ],
              "internalType": "struct HDFCRamp.Deposit",
              "name": "deposit",
              "type": "tuple"
            },
            {
              "internalType": "uint256",
              "name": "availableLiquidity",
              "type": "uint256"
            }
          ],
          "internalType": "struct HDFCRamp.DepositWithAvailableLiquidity[]",
          "name": "depositArray",
          "type": "tuple[]"
        }
      ],
      "stateMutability": "view",
      "type": "function"
    },
    {
      "inputs": [
        {
          "internalType": "address",
          "name": "_account",
          "type": "address"
        }
      ],
      "name": "getIdCurrentIntentHash",
      "outputs": [
        {
          "internalType": "bytes32",
          "name": "",
          "type": "bytes32"
        }
      ],
      "stateMutability": "view",
      "type": "function"
    },
    {
      "inputs": [
        {
          "internalType": "bytes32[]",
          "name": "_intentHashes",
          "type": "bytes32[]"
        }
      ],
      "name": "getIntentsWithOnRamperId",
      "outputs": [
        {
          "components": [
            {
              "internalType": "bytes32",
              "name": "intentHash",
              "type": "bytes32"
            },
            {
              "components": [
                {
                  "internalType": "address",
                  "name": "onRamper",
                  "type": "address"
                },
                {
                  "internalType": "address",
                  "name": "to",
                  "type": "address"
                },
                {
                  "internalType": "uint256",
                  "name": "deposit",
                  "type": "uint256"
                },
                {
                  "internalType": "uint256",
                  "name": "amount",
                  "type": "uint256"
                },
                {
                  "internalType": "uint256",
                  "name": "intentTimestamp",
                  "type": "uint256"
                }
              ],
              "internalType": "struct HDFCRamp.Intent",
              "name": "intent",
              "type": "tuple"
            },
            {
              "internalType": "bytes32",
              "name": "onRamperIdHash",
              "type": "bytes32"
            }
          ],
          "internalType": "struct HDFCRamp.IntentWithOnRamperId[]",
          "name": "",
          "type": "tuple[]"
        }
      ],
      "stateMutability": "view",
      "type": "function"
    },
    {
      "inputs": [
        {
          "internalType": "address",
          "name": "_account",
          "type": "address"
        }
      ],
      "name": "getLastOnRampTimestamp",
      "outputs": [
        {
          "internalType": "uint256",
          "name": "",
          "type": "uint256"
        }
      ],
      "stateMutability": "view",
      "type": "function"
    },
    {
      "inputs": [
        {
          "internalType": "contract IRegistrationProcessor",
          "name": "_registrationProcessor",
          "type": "address"
        },
        {
          "internalType": "contract IHDFCSendProcessor",
          "name": "_sendProcessor",
          "type": "address"
        }
      ],
      "name": "initialize",
      "outputs": [],
      "stateMutability": "nonpayable",
      "type": "function"
    },
    {
      "inputs": [],
      "name": "intentExpirationPeriod",
      "outputs": [
        {
          "internalType": "uint256",
          "name": "",
          "type": "uint256"
        }
      ],
      "stateMutability": "view",
      "type": "function"
    },
    {
      "inputs": [
        {
          "internalType": "bytes32",
          "name": "",
          "type": "bytes32"
        }
      ],
      "name": "intents",
      "outputs": [
        {
          "internalType": "address",
          "name": "onRamper",
          "type": "address"
        },
        {
          "internalType": "address",
          "name": "to",
          "type": "address"
        },
        {
          "internalType": "uint256",
          "name": "deposit",
          "type": "uint256"
        },
        {
          "internalType": "uint256",
          "name": "amount",
          "type": "uint256"
        },
        {
          "internalType": "uint256",
          "name": "intentTimestamp",
          "type": "uint256"
        }
      ],
      "stateMutability": "view",
      "type": "function"
    },
    {
      "inputs": [
        {
          "internalType": "address",
          "name": "_account",
          "type": "address"
        },
        {
          "internalType": "bytes32",
          "name": "_deniedUser",
          "type": "bytes32"
        }
      ],
      "name": "isDeniedUser",
      "outputs": [
        {
          "internalType": "bool",
          "name": "",
          "type": "bool"
        }
      ],
      "stateMutability": "view",
      "type": "function"
    },
    {
      "inputs": [],
      "name": "isInitialized",
      "outputs": [
        {
          "internalType": "bool",
          "name": "",
          "type": "bool"
        }
      ],
      "stateMutability": "view",
      "type": "function"
    },
    {
      "inputs": [],
      "name": "maxOnRampAmount",
      "outputs": [
        {
          "internalType": "uint256",
          "name": "",
          "type": "uint256"
        }
      ],
      "stateMutability": "view",
      "type": "function"
    },
    {
      "inputs": [],
      "name": "minDepositAmount",
      "outputs": [
        {
          "internalType": "uint256",
          "name": "",
          "type": "uint256"
        }
      ],
      "stateMutability": "view",
      "type": "function"
    },
    {
      "inputs": [
        {
          "internalType": "uint256[8]",
          "name": "_upiId",
          "type": "uint256[8]"
        },
        {
          "internalType": "uint256",
          "name": "_depositAmount",
          "type": "uint256"
        },
        {
          "internalType": "uint256",
          "name": "_receiveAmount",
          "type": "uint256"
        }
      ],
      "name": "offRamp",
      "outputs": [],
      "stateMutability": "nonpayable",
      "type": "function"
    },
    {
      "inputs": [
        {
          "internalType": "uint256[2]",
          "name": "_a",
          "type": "uint256[2]"
        },
        {
          "internalType": "uint256[2][2]",
          "name": "_b",
          "type": "uint256[2][2]"
        },
        {
          "internalType": "uint256[2]",
          "name": "_c",
          "type": "uint256[2]"
        },
        {
          "internalType": "uint256[15]",
          "name": "_signals",
          "type": "uint256[15]"
        }
      ],
      "name": "onRamp",
      "outputs": [],
      "stateMutability": "nonpayable",
      "type": "function"
    },
    {
      "inputs": [],
      "name": "onRampCooldownPeriod",
      "outputs": [
        {
          "internalType": "uint256",
          "name": "",
          "type": "uint256"
        }
      ],
      "stateMutability": "view",
      "type": "function"
    },
    {
      "inputs": [],
      "name": "owner",
      "outputs": [
        {
          "internalType": "address",
          "name": "",
          "type": "address"
        }
      ],
      "stateMutability": "view",
      "type": "function"
    },
    {
      "inputs": [],
      "name": "poseidon3",
      "outputs": [
        {
          "internalType": "contract IPoseidon3",
          "name": "",
          "type": "address"
        }
      ],
      "stateMutability": "view",
      "type": "function"
    },
    {
      "inputs": [],
      "name": "poseidon6",
      "outputs": [
        {
          "internalType": "contract IPoseidon6",
          "name": "",
          "type": "address"
        }
      ],
      "stateMutability": "view",
      "type": "function"
    },
    {
      "inputs": [
        {
          "internalType": "uint256[8]",
          "name": "_upiId",
          "type": "uint256[8]"
        },
        {
          "internalType": "einput",
          "name": "_encryptedDepositAmount",
          "type": "bytes32"
        },
        {
          "internalType": "einput",
          "name": "_encryptedReceiveAmount",
          "type": "bytes32"
        },
        {
          "internalType": "bytes",
          "name": "_inputProof",
          "type": "bytes"
        },
        {
          "internalType": "uint256",
          "name": "_depositAmount",
          "type": "uint256"
        },
        {
          "internalType": "uint256",
          "name": "_receiveAmount",
          "type": "uint256"
        }
      ],
      "name": "privateOffRamp",
      "outputs": [],
      "stateMutability": "nonpayable",
      "type": "function"
    },
    {
      "inputs": [
        {
          "internalType": "uint256[2]",
          "name": "_a",
          "type": "uint256[2]"
        },
        {
          "internalType": "uint256[2][2]",
          "name": "_b",
          "type": "uint256[2][2]"
        },
        {
          "internalType": "uint256[2]",
          "name": "_c",
          "type": "uint256[2]"
        },
        {
          "internalType": "uint256[5]",
          "name": "_signals",
          "type": "uint256[5]"
        }
      ],
      "name": "register",
      "outputs": [],
      "stateMutability": "nonpayable",
      "type": "function"
    },
    {
      "inputs": [],
      "name": "registrationProcessor",
      "outputs": [
        {
          "internalType": "contract IRegistrationProcessor",
          "name": "",
          "type": "address"
        }
      ],
      "stateMutability": "view",
      "type": "function"
    },
    {
      "inputs": [
        {
          "internalType": "bytes32",
          "name": "_intentHash",
          "type": "bytes32"
        }
      ],
      "name": "releaseFundsToOnramper",
      "outputs": [],
      "stateMutability": "nonpayable",
      "type": "function"
    },
    {
      "inputs": [
        {
          "internalType": "bytes32",
          "name": "_approvedUser",
          "type": "bytes32"
        }
      ],
      "name": "removeAccountFromDenylist",
      "outputs": [],
      "stateMutability": "nonpayable",
      "type": "function"
    },
    {
      "inputs": [],
      "name": "renounceOwnership",
      "outputs": [],
      "stateMutability": "nonpayable",
      "type": "function"
    },
    {
      "inputs": [],
      "name": "sendProcessor",
      "outputs": [
        {
          "internalType": "contract IHDFCSendProcessor",
          "name": "",
          "type": "address"
        }
      ],
      "stateMutability": "view",
      "type": "function"
    },
    {
      "inputs": [
        {
          "internalType": "uint256",
          "name": "_intentExpirationPeriod",
          "type": "uint256"
        }
      ],
      "name": "setIntentExpirationPeriod",
      "outputs": [],
      "stateMutability": "nonpayable",
      "type": "function"
    },
    {
      "inputs": [
        {
          "internalType": "uint256",
          "name": "_maxOnRampAmount",
          "type": "uint256"
        }
      ],
      "name": "setMaxOnRampAmount",
      "outputs": [],
      "stateMutability": "nonpayable",
      "type": "function"
    },
    {
      "inputs": [
        {
          "internalType": "uint256",
          "name": "_minDepositAmount",
          "type": "uint256"
        }
      ],
      "name": "setMinDepositAmount",
      "outputs": [],
      "stateMutability": "nonpayable",
      "type": "function"
    },
    {
      "inputs": [
        {
          "internalType": "uint256",
          "name": "_onRampCooldownPeriod",
          "type": "uint256"
        }
      ],
      "name": "setOnRampCooldownPeriod",
      "outputs": [],
      "stateMutability": "nonpayable",
      "type": "function"
    },
    {
      "inputs": [
        {
          "internalType": "contract IRegistrationProcessor",
          "name": "_registrationProcessor",
          "type": "address"
        }
      ],
      "name": "setRegistrationProcessor",
      "outputs": [],
      "stateMutability": "nonpayable",
      "type": "function"
    },
    {
      "inputs": [
        {
          "internalType": "contract IHDFCSendProcessor",
          "name": "_sendProcessor",
          "type": "address"
        }
      ],
      "name": "setSendProcessor",
      "outputs": [],
      "stateMutability": "nonpayable",
      "type": "function"
    },
    {
      "inputs": [
        {
          "internalType": "uint256",
          "name": "_fee",
          "type": "uint256"
        }
      ],
      "name": "setSustainabilityFee",
      "outputs": [],
      "stateMutability": "nonpayable",
      "type": "function"
    },
    {
      "inputs": [
        {
          "internalType": "address",
          "name": "_feeRecipient",
          "type": "address"
        }
      ],
      "name": "setSustainabilityFeeRecipient",
      "outputs": [],
      "stateMutability": "nonpayable",
      "type": "function"
    },
    {
      "inputs": [
        {
          "internalType": "uint256",
          "name": "_depositId",
          "type": "uint256"
        },
        {
          "internalType": "uint256",
          "name": "_amount",
          "type": "uint256"
        },
        {
          "internalType": "address",
          "name": "_to",
          "type": "address"
        }
      ],
      "name": "signalIntent",
      "outputs": [],
      "stateMutability": "nonpayable",
      "type": "function"
    },
    {
      "inputs": [],
      "name": "sustainabilityFee",
      "outputs": [
        {
          "internalType": "uint256",
          "name": "",
          "type": "uint256"
        }
      ],
      "stateMutability": "view",
      "type": "function"
    },
    {
      "inputs": [],
      "name": "sustainabilityFeeRecipient",
      "outputs": [
        {
          "internalType": "address",
          "name": "",
          "type": "address"
        }
      ],
      "stateMutability": "view",
      "type": "function"
    },
    {
      "inputs": [
        {
          "internalType": "address",
          "name": "newOwner",
          "type": "address"
        }
      ],
      "name": "transferOwnership",
      "outputs": [],
      "stateMutability": "nonpayable",
      "type": "function"
    },
    {
      "inputs": [],
      "name": "usdc",
      "outputs": [
        {
          "internalType": "contract IERC20",
          "name": "",
          "type": "address"
        }
      ],
      "stateMutability": "view",
      "type": "function"
    },
    {
      "inputs": [
        {
          "internalType": "uint256[]",
          "name": "_depositIds",
          "type": "uint256[]"
        }
      ],
      "name": "withdrawDeposit",
      "outputs": [],
      "stateMutability": "nonpayable",
      "type": "function"
    }
  ],
  "transactionHash": "0xa0645d092d24aee1550d0e2cc9193f9f00dcc7c1ba2c1e2f533a3647211cd035",
  "args": [
    "0xa0Ee7A142d267C1f36714E4a8F75612F20a79720",
    "0x04fc820176617A99AE134904935Bc854b2e51628",
    "0x04fc820176617A99AE134904935Bc854b2e51628",
    "0xF1078fD568Ad76E49E6F88D1fF485402a086976b",
    "0x3A1D75769758705caB1385377d4D88b8193A5f37",
    "10000000",
    "999000000",
    "180",
    "180",
    "1000000000000000",
    "0xa0Ee7A142d267C1f36714E4a8F75612F20a79720"
  ],
  "numDeployments": 1,
  "solcInputHash": "75b8f55da346d7ed99a350632554d2fb",
  "bytecode": "0x61010060405234801562000011575f80fd5b50604051620048e1380380620048e18339810160408190526200003491620001ef565b6200003f33620000ab565b6001600160a01b038a811660805289811660a05288811660c05287811660e05260088790556009869055600b859055600a849055600c839055600d80546001600160a01b0319169183169190911790556200009a8b620000fa565b5050505050505050505050620002b2565b5f80546001600160a01b038381166001600160a01b0319831681178455604051919092169283917f8be0079c531659141344cd1fd0a4f28419497f9722a3daafe3b4186f6b6457e09190a35050565b620001046200017d565b6001600160a01b0381166200016f5760405162461bcd60e51b815260206004820152602660248201527f4f776e61626c653a206e6577206f776e657220697320746865207a65726f206160448201526564647265737360d01b60648201526084015b60405180910390fd5b6200017a81620000ab565b50565b5f546001600160a01b03163314620001d85760405162461bcd60e51b815260206004820181905260248201527f4f776e61626c653a2063616c6c6572206973206e6f7420746865206f776e6572604482015260640162000166565b565b6001600160a01b03811681146200017a575f80fd5b5f805f805f805f805f805f6101608c8e0312156200020b575f80fd5b8b516200021881620001da565b60208d0151909b506200022b81620001da565b60408d0151909a506200023e81620001da565b60608d01519099506200025181620001da565b60808d01519098506200026481620001da565b8097505060a08c0151955060c08c0151945060e08c015193506101008c015192506101208c015191506101408c01516200029e81620001da565b809150509295989b509295989b9093969950565b60805160a05160c05160e0516145ca620003175f395f818161039b015261341c01525f81816106f801526134b701525f8181610496015261276701525f81816103ed015281816117b001528181611df30152818161300e01526130b901526145ca5ff3fe608060405234801561000f575f80fd5b5060043610610297575f3560e01c80637b510fe811610161578063ce523ca3116100ca578063ecd618f011610084578063ecd618f014610778578063ed1692b814610798578063eea1d197146107ab578063f2fde38b146107be578063f8a41987146107d1578063fbf15b1f146107e4575f80fd5b8063ce523ca31461071a578063d55f960d1461072d578063d9478d2014610740578063e215ad5914610753578063e279d96414610766578063ecb3dc881461076f575f80fd5b80639b357b5a1161011b5780639b357b5a1461065e5780639f9fb96814610671578063a1a954b714610691578063b02c43d01461069a578063b3fa4c01146106e0578063cce3e038146106f3575f80fd5b80637b510fe81461051557806389de3063146105355780638da5cb5b146105ad5780639021578a146105bd5780639087beff14610638578063985ade151461064b575f80fd5b806342987349116102035780635dd76515116101bd5780635dd76515146104b8578063645006ca146104cb57806366ec8419146104d457806371134762146104e7578063715018a6146104fa57806371a28f6914610502575f80fd5b806342987349146104225780634595bba014610435578063485cc95514610455578063495223e7146104685780635081d9521461047157806353acdbd914610491575f80fd5b8063317dcc9611610254578063317dcc961461035f578063392e53cd146103725780633930a439146103965780633adba28a146103d55780633e413bee146103e85780633f838d0d1461040f575f80fd5b80630f1ef98c1461029b578063133de6cb146102e6578063148172da146102fb57806314ec32fa1461030e578063238c8494146103435780632a80cda31461034c575b5f80fd5b6102d36102a93660046139e2565b6001600160a01b03165f908152600460209081526040808320548352600390915290206001015490565b6040519081526020015b60405180910390f35b6102f96102f43660046139e2565b61082a565b005b6102f96103093660046139fd565b610887565b6102d361031c3660046139e2565b6001600160a01b03165f908152600460209081526040808320548352600390915290205490565b6102d3600c5481565b6102f961035a3660046139fd565b6109b6565b6102f961036d3660046139fd565b610a42565b60025461038690600160a01b900460ff1681565b60405190151581526020016102dd565b6103bd7f000000000000000000000000000000000000000000000000000000000000000081565b6040516001600160a01b0390911681526020016102dd565b6102f96103e3366004613a14565b610a7f565b6103bd7f000000000000000000000000000000000000000000000000000000000000000081565b6102f961041d366004613b51565b610fc8565b6102f96104303660046139fd565b611051565b6104486104433660046139e2565b6110f1565b6040516102dd9190613c05565b6102f9610463366004613c48565b611167565b6102d3600a5481565b61048461047f3660046139e2565b6111fa565b6040516102dd9190613d45565b6103bd7f000000000000000000000000000000000000000000000000000000000000000081565b6102f96104c63660046139fd565b611457565b6102d360085481565b6102f96104e23660046139fd565b6114f6565b6102f96104f5366004613dd1565b61163e565b6102f9611822565b610484610510366004613dd1565b611835565b6105286105233660046139e2565b611a2d565b6040516102dd9190613e72565b61057b6105433660046139fd565b60066020525f9081526040902080546009820154600a830154600b840154600c909401546001600160a01b0390931693919290919085565b604080516001600160a01b0390961686526020860194909452928401919091526060830152608082015260a0016102dd565b5f546001600160a01b03166103bd565b6106056105cb3660046139fd565b60076020525f9081526040902080546001820154600283015460038401546004909401546001600160a01b03938416949390921692909185565b604080516001600160a01b039687168152959094166020860152928401919091526060830152608082015260a0016102dd565b6102f96106463660046139fd565b611ac3565b6102f9610659366004613f34565b611b59565b6102f961066c3660046139fd565b611eac565b61068461067f3660046139fd565b611fb0565b6040516102dd9190613f68565b6102d3600b5481565b61057b6106a83660046139fd565b60056020525f9081526040902080546009820154600a830154600b840154600c909401546001600160a01b0390931693919290919085565b6102f96106ee3660046139e2565b61209a565b6103bd7f000000000000000000000000000000000000000000000000000000000000000081565b6102f9610728366004613f7a565b612152565b6102f961073b3660046139fd565b61220d565b600d546103bd906001600160a01b031681565b6001546103bd906001600160a01b031681565b6102d360095481565b6102d3600e5481565b61078b610786366004613feb565b612346565b6040516102dd919061405a565b6102f96107a63660046139e2565b61249d565b6002546103bd906001600160a01b031681565b6102f96107cc3660046139e2565b6124f3565b6102f96107df3660046140e9565b61256c565b6103866107f236600461418f565b6001600160a01b0382165f90815260046020908152604080832054835260038083528184208585520190915290205460ff1692915050565b610832612846565b600280546001600160a01b0319166001600160a01b0383169081179091556040519081527f6e7665a41605edc0d70f4b991d652755f380754eb092d81ef9ab93664778d59e906020015b60405180910390a150565b335f908152600460205260409020546108bb5760405162461bcd60e51b81526004016108b2906141b9565b60405180910390fd5b335f908152600460209081526040808320548084526003808452828520868652019092529091205460ff16156109335760405162461bcd60e51b815260206004820152601860248201527f5573657220616c7265616479206f6e2064656e796c697374000000000000000060448201526064016108b2565b5f8181526003602081815260408084208685528084018352818520805460ff19166001908117909155938352600201805493840181558452922001839055517f976c693d56f27ba17d902bda80c4fa0416b773fbf268bcb0ee71689234d769ee906109aa9083908590918252602082015260400190565b60405180910390a15050565b6109be612846565b805f03610a0d5760405162461bcd60e51b815260206004820152601e60248201527f4d696e696d756d206465706f7369742063616e6e6f74206265207a65726f000060448201526064016108b2565b60088190556040518181527fbdde72a6d8d8b42770c9899945ccdce09d0c5c794d3326cdb2d2cca61b12a9fc9060200161087c565b610a4a612846565b600a8190556040518181527f88397975d177ce5e18abf3a5fdb8de773e80673d85eeb54f48cfaf688b3d2c3e9060200161087c565b335f90815260046020526040902054610aaa5760405162461bcd60e51b81526004016108b2906141b9565b335f908152600460208181526040808420548785526005835281852080546001600160a01b031686529383528185205480865260038085528387208388520190935293205460ff1615610b3f5760405162461bcd60e51b815260206004820181905260248201527f4f6e72616d706572206f6e206465706f7369746f7227732064656e796c69737460448201526064016108b2565b600a545f848152600360205260409020600101544291610b5e91614204565b1115610bb85760405162461bcd60e51b8152602060048201526024808201527f4f6e2072616d7020636f6f6c20646f776e20706572696f64206e6f7420656c616044820152631c1cd95960e21b60648201526084016108b2565b5f8381526003602052604090205415610c135760405162461bcd60e51b815260206004820152601860248201527f496e74656e74207374696c6c206f75747374616e64696e67000000000000000060448201526064016108b2565b828103610c625760405162461bcd60e51b815260206004820152601e60248201527f53656e6465722063616e6e6f7420626520746865206465706f7369746f72000060448201526064016108b2565b81546001600160a01b0316610cb25760405162461bcd60e51b815260206004820152601660248201527511195c1bdcda5d08191bd95cc81b9bdd08195e1a5cdd60521b60448201526064016108b2565b5f8511610d105760405162461bcd60e51b815260206004820152602660248201527f5369676e616c656420616d6f756e74206d75737420626520677265617465722060448201526507468616e20360d41b60648201526084016108b2565b600954851115610d7f5760405162461bcd60e51b815260206004820152603460248201527f5369676e616c656420616d6f756e74206d757374206265206c657373207468616044820152731b881b585e081bdb8b5c985b5c08185b5bdd5b9d60621b60648201526084016108b2565b6001600160a01b038416610dd55760405162461bcd60e51b815260206004820152601b60248201527f43616e6e6f742073656e6420746f207a65726f2061646472657373000000000060448201526064016108b2565b5f610de0848861289f565b90508583600a01541015610e92575f80610df989612909565b91509150878186600a0154610e0e9190614204565b1015610e535760405162461bcd60e51b81526020600482015260146024820152734e6f7420656e6f756768206c697175696469747960601b60448201526064016108b2565b610e5d8583612aa2565b8085600a015f828254610e709190614204565b925050819055508085600b015f828254610e8a9190614217565b909155505050505b6040805160a0810182523381526001600160a01b0387811660208084019182528385018c8152606085018c815242608087019081525f89815260078552888120975188549088166001600160a01b0319918216178955955160018901805491909816961695909517909555905160028601555160038086019190915592516004909401939093558781529152908120829055600a84018054889290610f38908490614217565b925050819055508583600b015f828254610f529190614204565b9091555050600d830180546001810182555f91825260209182902001829055604080516001600160a01b038816815291820188905242908201528490889083907f1a1292e170a0f000ccf956afba79bee0f9ec1d81f3f901c1d4d11e1f336aae109060600160405180910390a450505050505050565b5f805f610fd787878787612afa565b925092509250610fe78282612dfa565b826060015182600b015f828254610ffe9190614217565b909155505082516001600160a01b03165f9081526004602090815260408083205483526003909152908190204260019091015583015161103e9083612ed1565b6110488184612fb3565b50505050505050565b611059612846565b805f036110bc5760405162461bcd60e51b815260206004820152602b60248201527f4d617820696e74656e742065787069726174696f6e20706572696f642063616e60448201526a6e6f74206265207a65726f60a81b60648201526084016108b2565b600b8190556040518181527f55e3f6b95de9a0ec782f892e93fafe4e56be0696df204ddf8e0a40a9a713a8039060200161087c565b6001600160a01b0381165f908152600460209081526040808320548352600382529182902060020180548351818402810184019094528084526060939283018282801561115b57602002820191905f5260205f20905b815481526020019060010190808311611147575b50505050509050919050565b61116f612846565b600254600160a01b900460ff16156111bf5760405162461bcd60e51b8152602060048201526013602482015272105b1c9958591e481a5b9a5d1a585b1a5e9959606a1b60448201526064016108b2565b600180546001600160a01b039384166001600160a01b0319909116179055600280546001600160a81b0319169190921617600160a01b179055565b6001600160a01b0381165f90815260046020908152604080832060010180548251818502810185019093528083526060949383018282801561125957602002820191905f5260205f20905b815481526020019060010190808311611245575b50505050509050805167ffffffffffffffff81111561127a5761127a613a4a565b6040519080825280602002602001820160405280156112b357816020015b6112a06137ec565b8152602001906001900390816112985790505b5091505f5b8151811015611450575f8282815181106112d4576112d461422a565b6020908102919091018101515f818152600583526040808220815160e08101835281546001600160a01b031681528251610100810190935293955091938301906001830160088282826020028201915b815481526020019060010190808311611324575050505050815260200160098201548152602001600a8201548152602001600b8201548152602001600c8201548152602001600d82018054806020026020016040519081016040528092919081815260200182805480156113b557602002820191905f5260205f20905b8154815260200190600101908083116113a1575b50505050508152505090505f6113ca83612909565b915050604051806080016040528084815260200160045f855f01516001600160a01b03166001600160a01b031681526020019081526020015f205f015481526020018381526020018284606001516114229190614204565b8152508685815181106114375761143761422a565b60200260200101819052505050508060010190506112b8565b5050919050565b61145f612846565b66b1a2bc2ec500008111156114c15760405162461bcd60e51b815260206004820152602260248201527f4665652063616e6e6f742062652067726561746572207468616e206d61782066604482015261656560f01b60648201526084016108b2565b600c8190556040518181527f44f48e1b871e6db1e909a7b253b054b7150a0b4ddf4d59b159c827d82e7256709060200161087c565b5f818152600760209081526040808320815160a08101835281546001600160a01b0390811682526001830154811682860152600283015482850181905260038401546060840152600490930154608083015291855260059093529220815191929091166115755760405162461bcd60e51b81526004016108b29061423e565b80546001600160a01b031633146115ce5760405162461bcd60e51b815260206004820152601c60248201527f43616c6c6572206d75737420626520746865206465706f7369746f720000000060448201526064016108b2565b6115d88184612dfa565b816060015181600b015f8282546115ef9190614217565b909155505081516001600160a01b03165f9081526004602090815260408083205483526003909152908190204260019091015582015161162f9082612ed1565b6116398383612fb3565b505050565b5f805b8251811015611793575f83828151811061165d5761165d61422a565b6020908102919091018101515f818152600590925260409091208054919250906001600160a01b031633146116d45760405162461bcd60e51b815260206004820152601c60248201527f53656e646572206d75737420626520746865206465706f7369746f720000000060448201526064016108b2565b5f806116df84612909565b915091506116ed8383612aa2565b8083600a01546116fd9190614204565b6117079087614204565b95508083600b015f82825461171c9190614217565b90915550508254600a8401546001600160a01b039091169085907fae1f357660ab777dcfd38c0ab6357834684ec26289ecfa07ec65dbf6c3c6431290611763908590614204565b60405190815260200160405180910390a35f600a8401556117848484612ed1565b50505050806001019050611641565b5060405163a9059cbb60e01b8152336004820152602481018290527f00000000000000000000000000000000000000000000000000000000000000006001600160a01b03169063a9059cbb906044016020604051808303815f875af11580156117fe573d5f803e3d5ffd5b505050506040513d601f19601f82011682018060405250810190611639919061426d565b61182a612846565b6118335f613188565b565b6060815167ffffffffffffffff81111561185157611851613a4a565b60405190808252806020026020018201604052801561188a57816020015b6118776137ec565b81526020019060019003908161186f5790505b5090505f5b8251811015611a27575f8382815181106118ab576118ab61422a565b6020908102919091018101515f818152600583526040808220815160e08101835281546001600160a01b031681528251610100810190935293955091938301906001830160088282826020028201915b8154815260200190600101908083116118fb575050505050815260200160098201548152602001600a8201548152602001600b8201548152602001600c8201548152602001600d820180548060200260200160405190810160405280929190818152602001828054801561198c57602002820191905f5260205f20905b815481526020019060010190808311611978575b50505050508152505090505f6119a183612909565b915050604051806080016040528084815260200160045f855f01516001600160a01b03166001600160a01b031681526020019081526020015f205f015481526020018381526020018284606001516119f99190614204565b815250858581518110611a0e57611a0e61422a565b602002602001018190525050505080600101905061188f565b50919050565b604080518082019091525f8152606060208201526001600160a01b0382165f90815260046020908152604091829020825180840184528154815260018201805485518186028101860190965280865291949293858101939290830182828015611ab357602002820191905f5260205f20905b815481526020019060010190808311611a9f575b5050505050815250509050919050565b611acb612846565b805f03611b245760405162461bcd60e51b815260206004820152602160248201527f4d6178206f6e2072616d7020616d6f756e742063616e6e6f74206265207a65726044820152606f60f81b60648201526084016108b2565b60098190556040518181527fcab6b49ca21dd111cf4a55d507bbe89dd12d69216e28247060d4b2163ca41b399060200161087c565b335f90815260046020526040902054611b845760405162461bcd60e51b81526004016108b2906141b9565b335f90815260046020526040902060010154600511611be55760405162461bcd60e51b815260206004820152601e60248201527f4d6178696d756d206465706f73697420616d6f756e742072656163686564000060448201526064016108b2565b600854821015611c565760405162461bcd60e51b815260206004820152603660248201527f4465706f73697420616d6f756e74206d757374206265206772656174657220746044820152751a185b881b5a5b8819195c1bdcda5d08185b5bdd5b9d60521b60648201526084016108b2565b5f8111611cb35760405162461bcd60e51b815260206004820152602560248201527f5265636569766520616d6f756e74206d75737420626520677265617465722074604482015264068616e20360dc1b60648201526084016108b2565b5f81611cc7670de0b6b3a76400008561428c565b611cd191906142b7565b600e80549192505f919082611ce5836142ca565b90915550335f81815260046020908152604080832060018082018054808301825590865284862001879055825160e0810184529586528584018c81528684018c9052606087018c90526080870186905260a087018a90528351868152808601855260c0880152878652600590945291909320845181546001600160a01b0319166001600160a01b03909116178155915194955091939091611d8b91908301906008613816565b50604082015160098201556060820151600a8201556080820151600b82015560a0820151600c82015560c08201518051611dcf91600d840191602090910190613854565b50506040516323b872dd60e01b8152336004820152306024820152604481018790527f00000000000000000000000000000000000000000000000000000000000000006001600160a01b031691506323b872dd906064016020604051808303815f875af1158015611e42573d5f803e3d5ffd5b505050506040513d601f19601f82011682018060405250810190611e66919061426d565b508054604080518781526020810186905284917f36b046df2c296f2a5a78570d5e52a92773cbb616825b1af59a49a4d02df2b109910160405180910390a3505050505050565b335f90815260046020526040902054611ed75760405162461bcd60e51b81526004016108b2906141b9565b335f908152600460209081526040808320548084526003808452828520868652019092529091205460ff16611f455760405162461bcd60e51b8152602060048201526014602482015273155cd95c881b9bdd081bdb8819195b9e5b1a5cdd60621b60448201526064016108b2565b5f8181526003602081815260408084208685528084018352908420805460ff191690559284905252611f7a90600201836131d7565b60408051828152602081018490527f8935205b1b382095d2d95efbb36f81a11a34c548d45af26adc1a02d2f2bb546f91016109aa565b611fb861388c565b5f82815260056020908152604091829020825160e08101845281546001600160a01b03168152835161010081019485905290939192840191600184019060089082845b815481526020019060010190808311611ffb575050505050815260200160098201548152602001600a8201548152602001600b8201548152602001600c8201548152602001600d8201805480602002602001604051908101604052809291908181526020018280548015611ab357602002820191905f5260205f2090815481526020019060010190808311611a9f575050505050815250509050919050565b6120a2612846565b6001600160a01b0381166121045760405162461bcd60e51b8152602060048201526024808201527f46656520726563697069656e742063616e6e6f74206265207a65726f206164646044820152637265737360e01b60648201526084016108b2565b600d80546001600160a01b0319166001600160a01b0383169081179091556040519081527f594ad6ee98bfc0c73e6d15fd4e762502f359e05d26907b7fa1ff82eb5e99f6e49060200161087c565b335f90815260046020526040902054156121bd5760405162461bcd60e51b815260206004820152602660248201527f4163636f756e7420616c7265616479206173736f6369617465642077697468206044820152650d2c890c2e6d60d31b60648201526084016108b2565b5f6121ca858585856132f6565b335f818152600460205260408082208490555192935083927f672144042732f7b1cdbf0772464ae545aedd7f41d38b8487dafd9085496a5d519190a35050505050565b5f818152600760209081526040808320815160a08101835281546001600160a01b039081168252600183015416938101939093526002810154918301919091526003810154606083015260040154608082018190529091036122815760405162461bcd60e51b81526004016108b29061423e565b335f908152600460205260408082205483516001600160a01b03168352912054146122ee5760405162461bcd60e51b815260206004820152601c60248201527f53656e646572206d75737420626520746865206f6e2d72616d7065720000000060448201526064016108b2565b6040808201515f9081526005602052206123088184612dfa565b816060015181600a015f82825461231f9190614204565b90915550506060820151600b820180545f9061233c908490614217565b9091555050505050565b60605f8267ffffffffffffffff81111561236257612362613a4a565b60405190808252806020026020018201604052801561239b57816020015b6123886138d3565b8152602001906001900390816123805790505b5090505f5b83811015612493575f8585838181106123bb576123bb61422a565b602090810292909201355f81815260078452604090819020815160a08101835281546001600160a01b039081168252600183015416958101959095526002810154858301526003810154606080870191909152600490910154608086015281519081019091529093509050808888868181106124395761243961422a565b6020908102929092013583525081810184905283516001600160a01b03165f908152600490915260409081902054910152845185908590811061247e5761247e61422a565b602090810291909101015250506001016123a0565b5090505b92915050565b6124a5612846565b600180546001600160a01b0319166001600160a01b0383169081179091556040519081527f73d3ac111d5926fbfd68ade03832f0b1a4daef0cd0effc1fa0829264bcc57c419060200161087c565b6124fb612846565b6001600160a01b0381166125605760405162461bcd60e51b815260206004820152602660248201527f4f776e61626c653a206e6577206f776e657220697320746865207a65726f206160448201526564647265737360d01b60648201526084016108b2565b61256981613188565b50565b335f908152600460205260409020546125975760405162461bcd60e51b81526004016108b2906141b9565b5f6125d78786868080601f0160208091040260200160405190810160405280939291908181526020018383808284375f9201919091525061339292505050565b90505f6126198787878080601f0160208091040260200160405190810160405280939291908181526020018383808284375f9201919091525061339292505050565b9050633b9aca005f61262b60016133a6565b600e80549192505f91908261263f836142ca565b9190505590505f60045f336001600160a01b03166001600160a01b031681526020019081526020015f2090508060010182908060018154018082558091505060019003905f5260205f20015f90919091909150556040518060e00160405280336001600160a01b031681526020018e81526020018781526020018781526020016126c85f6133a6565b81526020808201869052604080515f80825281840183529382015285835260068252909120825181546001600160a01b0319166001600160a01b039091161781559082015161271d9060018301906008613816565b50604082015160098201556060820151600a8201556080820151600b82015560a0820151600c82015560c0820151805161276191600d840191602090910190613854565b509050507f00000000000000000000000000000000000000000000000000000000000000006001600160a01b0316639a09435233308f8e8e6040518663ffffffff1660e01b81526004016127b99594939291906142e2565b6020604051808303815f875af11580156127d5573d5f803e3d5ffd5b505050506040513d601f19601f820116820180604052508101906127f9919061426d565b508054604080518881526020810186905284917f9ec9ac5dfd03d0cd2bccc0fab8292cc7193382480f66a4b462607e781621ae55910160405180910390a350505050505050505050505050565b5f546001600160a01b031633146118335760405162461bcd60e51b815260206004820181905260248201527f4f776e61626c653a2063616c6c6572206973206e6f7420746865206f776e657260448201526064016108b2565b60408051602081018490529081018290524260608201525f90819060800160408051601f19818403018152919052805160209091012090506129017f30644e72e131a029b85045b68181585d2833e84879b9709143e1f593f000000182614334565b949350505050565b5f818152600560209081526040808320600d01805482518185028101850190935280835260609493849392919083018282801561296357602002820191905f5260205f20905b81548152602001906001019080831161294f575b50505050509050805167ffffffffffffffff81111561298457612984613a4a565b6040519080825280602002602001820160405280156129ad578160200160208202803683370190505b5092505f5b8151811015612a9b575f60075f8484815181106129d1576129d161422a565b60209081029190910181015182528181019290925260409081015f20815160a08101835281546001600160a01b03908116825260018301541693810193909352600281015491830191909152600381015460608301526004015460808201819052600b549192504291612a4391614204565b1015612a9257828281518110612a5b57612a5b61422a565b6020026020010151858381518110612a7557612a7561422a565b60209081029190910101526060810151612a8f9085614204565b93505b506001016129b2565b5050915091565b5f5b8151811015611639575f801b828281518110612ac257612ac261422a565b602002602001015114612af257612af283838381518110612ae557612ae561422a565b6020026020010151612dfa565b600101612aa4565b612b026138f9565b600254604080516080810182528781526020810187905280820186905260608101859052905163bf93fde160e01b81525f928392839283928392839283926001600160a01b03169163bf93fde191612b5d9190600401614396565b60a0604051808303815f875af1158015612b79573d5f803e3d5ffd5b505050506040513d601f19601f82011682018060405250810190612b9d9190614403565b5f818152600760209081526040808320815160a08101835281546001600160a01b03908116825260018301548116828601526002830154828501819052600384015460608401526004909301546080830152918552600590935292208151979c50959a509398509196509450909216612c285760405162461bcd60e51b81526004016108b29061423e565b8582608001511115612c875760405162461bcd60e51b815260206004820152602260248201527f496e74656e7420776173206e6f742063726561746564206265666f72652073656044820152611b9960f21b60648201526084016108b2565b604080516101008101918290528691612cc39190600185019060089082845b815481526020019060010190808311612ca65750505050506133b2565b14612d105760405162461bcd60e51b815260206004820152601b60248201527f4f666672616d70657220696420646f6573206e6f74206d61746368000000000060448201526064016108b2565b81516001600160a01b03165f908152600460205260409020548414612d775760405162461bcd60e51b815260206004820152601a60248201527f4f6e72616d70657220696420646f6573206e6f74206d6174636800000000000060448201526064016108b2565b80600c0154670de0b6b3a76400008360600151612d94919061428c565b612d9e91906142b7565b871015612de65760405162461bcd60e51b81526020600482015260166024820152750a0c2f2dacadce840eec2e640dcdee840cadcdeeaced60531b60448201526064016108b2565b909d909c50909a5098505050505050505050565b5f818152600760208181526040808420815160a08101835281546001600160a01b039081168083526001840180549092168387015260028401805484870152600380860180546060870152600480880180546080890152948c528952878b20548b529088529589208990558989529690955282546001600160a01b031990811690935580549092169091559284905583905591909155612e9d600d8401836131d7565b604080820151905183907fe8a865b4bab023c399cbd1f2cdd0df2199beb6e5012a4bd2d7691cf7e4199d5a905f90a3505050565b5f81600a015482600b0154612ee69190614204565b9050805f036116395781546001600160a01b03165f908152600460205260409020612f149060010184613533565b8154604080518581526001600160a01b0390921660208301527f8ac07cc6e38c6222dd0309c80353c1962354bacf222b825d7401cc80e93ff3cc910160405180910390a15f83815260056020526040812080546001600160a01b031916815590612f816001830182613935565b600982015f9055600a82015f9055600b82015f9055600c82015f9055600d82015f612fac9190613944565b5050505050565b5f600c545f1461307a57670de0b6b3a7640000600c548360600151612fd8919061428c565b612fe291906142b7565b600d5460405163a9059cbb60e01b81526001600160a01b039182166004820152602481018390529192507f0000000000000000000000000000000000000000000000000000000000000000169063a9059cbb906044016020604051808303815f875af1158015613054573d5f803e3d5ffd5b505050506040513d601f19601f82011682018060405250810190613078919061426d565b505b5f81836060015161308b9190614217565b602084015160405163a9059cbb60e01b81526001600160a01b039182166004820152602481018390529192507f0000000000000000000000000000000000000000000000000000000000000000169063a9059cbb906044016020604051808303815f875af11580156130ff573d5f803e3d5ffd5b505050506040513d601f19601f82011682018060405250810190613123919061426d565b50825160408085015160208087015183516001600160a01b03918216815291820186905292810186905291909216919086907ffa03438194e61c243c6bb5349f1e1dc674431b86f119b5e3b2b327bc43446bce9060600160405180910390a450505050565b5f80546001600160a01b038381166001600160a01b0319831681178455604051919092169283917f8be0079c531659141344cd1fd0a4f28419497f9722a3daafe3b4186f6b6457e09190a35050565b5f806132308480548060200260200160405190810160405280929190818152602001828054801561322557602002820191905f5260205f20905b815481526020019060010190808311613211575b5050505050846135d5565b91509150806132795760405162461bcd60e51b8152602060048201526015602482015274313cba32b99999103737ba1034b71030b93930bc9760591b60448201526064016108b2565b83545f9061328990600190614217565b90508083146132cb578481815481106132a4576132a461422a565b905f5260205f2001548584815481106132bf576132bf61422a565b5f918252602090912001555b848054806132db576132db61443f565b600190038181905f5260205f20015f90559055505b50505050565b6001546040805160808101825286815260208101869052808201859052606081018490529051630be4767960e11b81525f9283926001600160a01b03909116916317c8ecf29161334891600401614453565b6020604051808303815f875af1158015613364573d5f803e3d5ffd5b505050506040513d601f19601f8201168201806040525081019061338891906144b6565b9695505050505050565b5f61339f8383600461362b565b9392505050565b5f61249782600461371e565b5f6133bb61395f565b6133c361397d565b5f5b6006811015613404578481600881106133e0576133e061422a565b60200201518382600681106133f7576133f761422a565b60200201526001016133c5565b50604051631eb694f160e31b81526001600160a01b037f0000000000000000000000000000000000000000000000000000000000000000169063f5b4a788906134519085906004016144cd565b602060405180830381865afa15801561346c573d5f803e3d5ffd5b505050506040513d601f19601f8201168201806040525081019061349091906144b6565b815260c0840151602082015260e0840151604080830191909152516304b98e1d60e31b81527f00000000000000000000000000000000000000000000000000000000000000006001600160a01b0316906325cc70e8906134f49084906004016144fd565b602060405180830381865afa15801561350f573d5f803e3d5ffd5b505050506040513d601f19601f8201168201806040525081019061290191906144b6565b5f8061358c8480548060200260200160405190810160405280929190818152602001828054801561358157602002820191905f5260205f20905b81548152602001906001019080831161356d575b5050505050846137a7565b91509150806132795760405162461bcd60e51b81526020600482015260156024820152743ab4b73a191a9b103737ba1034b71030b93930bc9760591b60448201526064016108b2565b81515f908190815b8181101561361a57848682815181106135f8576135f861422a565b602002602001015103613612579250600191506136249050565b6001016135dd565b505f195f92509250505b9250929050565b6040516302e817ff60e41b81525f907305fd9b5efe0a996095f42ed7e77c390810cf660c90632e817ff09061366e9087903390889060f889901b90600401614524565b6020604051808303815f875af115801561368a573d5f803e3d5ffd5b505050506040513d601f19601f820116820180604052508101906136ae91906144b6565b6040516346ce4e4960e11b815260048101829052336024820152909150732fb4341027eb1d2ad8b5d9708187df8633cafa9290638d9c9c92906044015f604051808303815f87803b158015613701575f80fd5b505af1158015613713573d5f803e3d5ffd5b505050509392505050565b604051631ce2e8d760e31b8152600481018390526001600160f81b031960f883901b1660248201525f907305fd9b5efe0a996095f42ed7e77c390810cf660c9063e71746b8906044016020604051808303815f875af1158015613783573d5f803e3d5ffd5b505050506040513d601f19601f8201168201806040525081019061339f91906144b6565b81515f908190815b8181101561361a57848682815181106137ca576137ca61422a565b6020026020010151036137e4579250600191506136249050565b6001016137af565b604080516080810182525f808252602082015290810161380a61388c565b81526020015f81525090565b8260088101928215613844579160200282015b82811115613844578251825591602001919060010190613829565b5061385092915061399b565b5090565b828054828255905f5260205f209081019282156138445791602002820182811115613844578251825591602001919060010190613829565b6040518060e001604052805f6001600160a01b031681526020016138ae6139af565b81526020015f81526020015f81526020015f81526020015f8152602001606081525090565b60408051606081019091525f8152602081016138ed6138f9565b81525f60209091015290565b6040518060a001604052805f6001600160a01b031681526020015f6001600160a01b031681526020015f81526020015f81526020015f81525090565b5061256990600881019061399b565b5080545f8255905f5260205f2090810190612569919061399b565b6040518060c001604052806006906020820280368337509192915050565b60405180606001604052806003906020820280368337509192915050565b5b80821115613850575f815560010161399c565b6040518061010001604052806008906020820280368337509192915050565b6001600160a01b0381168114612569575f80fd5b5f602082840312156139f2575f80fd5b813561339f816139ce565b5f60208284031215613a0d575f80fd5b5035919050565b5f805f60608486031215613a26575f80fd5b83359250602084013591506040840135613a3f816139ce565b809150509250925092565b634e487b7160e01b5f52604160045260245ffd5b6040805190810167ffffffffffffffff81118282101715613a8157613a81613a4a565b60405290565b604051601f8201601f1916810167ffffffffffffffff81118282101715613ab057613ab0613a4a565b604052919050565b5f82601f830112613ac7575f80fd5b613acf613a5e565b806040840185811115613ae0575f80fd5b845b81811015613afa578035845260209384019301613ae2565b509095945050505050565b5f82601f830112613b14575f80fd5b613b1c613a5e565b806080840185811115613b2d575f80fd5b845b81811015613afa57613b418782613ab8565b8452602090930192604001613b2f565b5f805f806102e0808688031215613b66575f80fd5b613b708787613ab8565b9450613b7f8760408801613b05565b9350613b8e8760c08801613ab8565b92508661011f870112613b9f575f80fd5b6040516101e0810181811067ffffffffffffffff82111715613bc357613bc3613a4a565b604052908601908088831115613bd7575f80fd5b61010088015b83811015613bf5578035825260209182019101613bdd565b5050809250505092959194509250565b602080825282518282018190525f9190848201906040850190845b81811015613c3c57835183529284019291840191600101613c20565b50909695505050505050565b5f8060408385031215613c59575f80fd5b8235613c64816139ce565b91506020830135613c74816139ce565b809150509250929050565b5f815180845260208085019450602084015f5b83811015613cae57815187529582019590820190600101613c92565b509495945050505050565b80516001600160a01b031682526020808201515f916101c091818601845b6008811015613cf457825182529183019190830190600101613cd7565b5050505060408301516101208501526060830151610140850152608083015161016085015260a083015161018085015260c0830151816101a0860152613d3c82860182613c7f565b95945050505050565b5f60208083018184528085518083526040925060408601915060408160051b8701018488015f5b83811015613dc357603f1989840301855281516080815185528882015189860152878201518189870152613da282870182613cb9565b60609384015196909301959095525094870194925090860190600101613d6c565b509098975050505050505050565b5f6020808385031215613de2575f80fd5b823567ffffffffffffffff80821115613df9575f80fd5b818501915085601f830112613e0c575f80fd5b813581811115613e1e57613e1e613a4a565b8060051b9150613e2f848301613a87565b8181529183018401918481019088841115613e48575f80fd5b938501935b83851015613e6657843582529385019390850190613e4d565b98975050505050505050565b6020808252825182820152828101516040808401528051606084018190525f9291820190839060808601905b80831015613ebe5783518252928401926001929092019190840190613e9e565b509695505050505050565b5f82601f830112613ed8575f80fd5b60405161010080820182811067ffffffffffffffff82111715613efd57613efd613a4a565b60405283018185821115613f0f575f80fd5b845b82811015613f29578035825260209182019101613f11565b509195945050505050565b5f805f6101408486031215613f47575f80fd5b613f518585613ec9565b956101008501359550610120909401359392505050565b602081525f61339f6020830184613cb9565b5f805f806101a0808688031215613f8f575f80fd5b613f998787613ab8565b9450613fa88760408801613b05565b9350613fb78760c08801613ab8565b92508661011f870112613fc8575f80fd5b60405160a0810181811067ffffffffffffffff82111715613bc357613bc3613a4a565b5f8060208385031215613ffc575f80fd5b823567ffffffffffffffff80821115614013575f80fd5b818501915085601f830112614026575f80fd5b813581811115614034575f80fd5b8660208260051b8501011115614048575f80fd5b60209290920196919550909350505050565b602080825282518282018190525f919060409081850190868401855b828110156140dc578151805185528681015180516001600160a01b039081168988015281890151168787015286810151606080880191909152810151608080880191909152015160a086015285015160c085015260e09093019290850190600101614076565b5091979650505050505050565b5f805f805f805f6101a0888a031215614100575f80fd5b61410a8989613ec9565b96506101008801359550610120880135945061014088013567ffffffffffffffff80821115614137575f80fd5b818a0191508a601f83011261414a575f80fd5b813581811115614158575f80fd5b8b6020828501011115614169575f80fd5b989b979a5095986020919091019796610160820135965061018090910135945092505050565b5f80604083850312156141a0575f80fd5b82356141ab816139ce565b946020939093013593505050565b6020808252601e908201527f43616c6c6572206d757374206265207265676973746572656420757365720000604082015260600190565b634e487b7160e01b5f52601160045260245ffd5b80820180821115612497576124976141f0565b81810381811115612497576124976141f0565b634e487b7160e01b5f52603260045260245ffd5b602080825260159082015274125b9d195b9d08191bd95cc81b9bdd08195e1a5cdd605a1b604082015260600190565b5f6020828403121561427d575f80fd5b8151801515811461339f575f80fd5b8082028115828204841417612497576124976141f0565b634e487b7160e01b5f52601260045260245ffd5b5f826142c5576142c56142a3565b500490565b5f600182016142db576142db6141f0565b5060010190565b6001600160a01b038681168252851660208201526040810184905260806060820181905281018290525f828460a08401375f60a0848401015260a0601f19601f85011683010190509695505050505050565b5f82614342576143426142a3565b500690565b805f5b60028110156132f057815184526020938401939091019060010161434a565b805f5b60028110156132f057614380848351614347565b604093909301926020919091019060010161436c565b5f6102e0820190506143a9828451614347565b6020808401516143bc6040850182614369565b5060408401516143cf60c0850182614347565b50606084015161010084015f5b600f8110156143f9578251825291830191908301906001016143dc565b5050505092915050565b5f805f805f60a08688031215614417575f80fd5b5050835160208501516040860151606087015160809097015192989197509594509092509050565b634e487b7160e01b5f52603160045260245ffd5b5f6101a082019050614466828451614347565b6020808401516144796040850182614369565b50604084015161448c60c0850182614347565b50606084015161010084015f5b60058110156143f957825182529183019190830190600101614499565b5f602082840312156144c6575f80fd5b5051919050565b60c0810181835f5b60068110156144f45781518352602092830192909101906001016144d5565b50505092915050565b6060810181835f5b60038110156144f4578151835260209283019290910190600101614505565b8481525f602060018060a01b03861660208401526080604084015284518060808501525f5b818110156145655786810183015185820160a001528201614549565b505f60a0828601015260a0601f19601f8301168501019250505060ff60f81b831660608301529594505050505056fea2646970667358221220926106a0d46788a089c6e9fb8e309b47b7e48677db255486f6ea7517ec87434364736f6c63430008180033",
  "devdoc": {
    "kind": "dev",
    "methods": {
      "addAccountToDenylist(bytes32)": {
        "params": {
          "_deniedUser": "Poseidon hash of the idHash being banned"
        }
      },
      "cancelIntent(bytes32)": {
        "params": {
          "_intentHash": "Hash of intent being cancelled"
        }
      },
      "initialize(address,address)": {
        "params": {
          "_registrationProcessor": "Registration processor address",
          "_sendProcessor": "Send processor address"
        }
      },
      "offRamp(uint256[8],uint256,uint256)": {
        "params": {
          "_depositAmount": "The amount of USDC to off-ramp",
          "_receiveAmount": "The amount of USD to receive",
          "_upiId": "The packed upi ID of the depositor"
        }
      },
      "onRamp(uint256[2],uint256[2][2],uint256[2],uint256[15])": {
        "params": {
          "_a": "Parameter of zk proof",
          "_b": "Parameter of zk proof",
          "_c": "Parameter of zk proof",
          "_signals": "Encoded public signals of the zk proof, contains mailserverHash, fromEmail, timestamp, onRamperIdHash,                  nullifier, intentHash"
        }
      },
      "owner()": {
        "details": "Returns the address of the current owner."
      },
      "register(uint256[2],uint256[2][2],uint256[2],uint256[5])": {
        "params": {
          "_a": "Parameter of zk proof",
          "_b": "Parameter of zk proof",
          "_c": "Parameter of zk proof",
          "_signals": "Encoded public signals of the zk proof, contains mailserverHash, fromEmail, userIdHash"
        }
      },
      "releaseFundsToOnramper(bytes32)": {
        "params": {
          "_intentHash": "Hash of intent to resolve by releasing the funds"
        }
      },
      "removeAccountFromDenylist(bytes32)": {
        "params": {
          "_approvedUser": "Poseidon hash of the idHash being approved"
        }
      },
      "renounceOwnership()": {
        "details": "Leaves the contract without owner. It will not be possible to call `onlyOwner` functions. Can only be called by the current owner. NOTE: Renouncing ownership will leave the contract without an owner, thereby disabling any functionality that is only available to the owner."
      },
      "setIntentExpirationPeriod(uint256)": {
        "params": {
          "_intentExpirationPeriod": "New intent expiration period"
        }
      },
      "setMaxOnRampAmount(uint256)": {
        "params": {
          "_maxOnRampAmount": "The new max on ramp amount"
        }
      },
      "setMinDepositAmount(uint256)": {
        "params": {
          "_minDepositAmount": "The new minimum deposit amount"
        }
      },
      "setOnRampCooldownPeriod(uint256)": {
        "params": {
          "_onRampCooldownPeriod": "New on-ramp cooldown period"
        }
      },
      "setRegistrationProcessor(address)": {
        "params": {
          "_registrationProcessor": "New registration proccesor address"
        }
      },
      "setSendProcessor(address)": {
        "params": {
          "_sendProcessor": "New send proccesor address"
        }
      },
      "setSustainabilityFee(uint256)": {
        "params": {
          "_fee": "The new sustainability fee in precise units (10**18, ie 10% = 1e17)"
        }
      },
      "setSustainabilityFeeRecipient(address)": {
        "params": {
          "_feeRecipient": "The new fee recipient address"
        }
      },
      "signalIntent(uint256,uint256,address)": {
        "params": {
          "_amount": "The amount of USDC the user wants to on-ramp",
          "_depositId": "The ID of the deposit the on-ramper intends to use for ",
          "_to": "Address to forward funds to (can be same as onRamper)"
        }
      },
      "transferOwnership(address)": {
        "details": "Transfers ownership of the contract to a new account (`newOwner`). Can only be called by the current owner."
      },
      "withdrawDeposit(uint256[])": {
        "params": {
          "_depositIds": "Array of depositIds the depositor is attempting to withdraw"
        }
      }
    },
    "version": 1
  },
  "userdoc": {
    "kind": "user",
    "methods": {
      "addAccountToDenylist(bytes32)": {
        "notice": "Adds an idHash to a depositor's deny list. If an address associated with the banned idHash attempts to signal an intent on the user's deposit they will be denied."
      },
      "cancelIntent(bytes32)": {
        "notice": "Only callable by the originator of the intent. Cancels an outstanding intent thus allowing user to signal a new intent. Deposit state is updated to reflect the cancelled intent."
      },
      "initialize(address,address)": {
        "notice": "Initialize Ramp with the addresses of the Processors"
      },
      "offRamp(uint256[8],uint256,uint256)": {
        "notice": "Generates a deposit entry for off-rampers that can then be fulfilled by an on-ramper. This function will not add to previous deposits. Every deposit has it's own unique identifier. User must approve the contract to transfer the deposit amount of USDC."
      },
      "onRamp(uint256[2],uint256[2][2],uint256[2],uint256[15])": {
        "notice": "Anyone can submit an on-ramp transaction, even if caller isn't on-ramper. Upon submission the proof is validated, intent is removed, and deposit state is updated. USDC is transferred to the on-ramper."
      },
      "register(uint256[2],uint256[2][2],uint256[2],uint256[5])": {
        "notice": "Registers a new account by pulling the hash of the account id from the proof and assigning the account owner to the sender of the transaction. One HDFC account can be registered to multiple Ethereum addresses."
      },
      "releaseFundsToOnramper(bytes32)": {
        "notice": "Allows off-ramper to release funds to the on-ramper in case of a failed on-ramp or because of some other arrangement between the two parties. Upon submission we check to make sure the msg.sender is the depositor, the  intent is removed, and  deposit state is updated. USDC is transferred to the on-ramper."
      },
      "removeAccountFromDenylist(bytes32)": {
        "notice": "Removes a idHash from a depositor's deny list."
      },
      "setIntentExpirationPeriod(uint256)": {
        "notice": "GOVERNANCE ONLY: Updates the intent expiration period, after this period elapses an intent can be pruned to prevent locking up a depositor's funds."
      },
      "setMaxOnRampAmount(uint256)": {
        "notice": "GOVERNANCE ONLY: Updates the max amount allowed to be on-ramped in each transaction. To on-ramp more than this amount a user must make multiple transactions."
      },
      "setMinDepositAmount(uint256)": {
        "notice": "GOVERNANCE ONLY: Updates the minimum deposit amount a user can specify for off-ramping."
      },
      "setOnRampCooldownPeriod(uint256)": {
        "notice": "GOVERNANCE ONLY: Updates the on-ramp cooldown period, once an on-ramp transaction is completed the user must wait this amount of time before they can signalIntent to on-ramp again."
      },
      "setRegistrationProcessor(address)": {
        "notice": "GOVERNANCE ONLY: Updates the registration processor address used for validating and interpreting zk proofs."
      },
      "setSendProcessor(address)": {
        "notice": "GOVERNANCE ONLY: Updates the send processor address used for validating and interpreting zk proofs."
      },
      "setSustainabilityFee(uint256)": {
        "notice": "GOVERNANCE ONLY: Updates the sustainability fee. This fee is charged to on-rampers upon a successful on-ramp."
      },
      "setSustainabilityFeeRecipient(address)": {
        "notice": "GOVERNANCE ONLY: Updates the recepient of sustainability fees."
      },
      "signalIntent(uint256,uint256,address)": {
        "notice": "Signals intent to pay the depositor defined in the _depositId the _amount * deposit conversionRate off-chain in order to unlock _amount of funds on-chain. Each user can only have one outstanding intent at a time regardless of address (tracked using idHash). Caller must not be on the depositor's deny list. If there are prunable intents then they will be deleted from the deposit to be able to maintain state hygiene."
      },
      "withdrawDeposit(uint256[])": {
        "notice": "Caller must be the depositor for each depositId in the array, if not whole function fails. Depositor is returned all remaining deposits and any outstanding intents that are expired. If an intent is not expired then those funds will not be returned. Deposit will be deleted as long as there are no more outstanding intents."
      }
    },
    "version": 1
  },
  "storageLayout": {
    "storage": [
      {
        "astId": 7,
        "contract": "contracts/ramps/hdfc/HDFCRamp.sol:HDFCRamp",
        "label": "_owner",
        "offset": 0,
        "slot": "0",
        "type": "t_address"
      },
      {
        "astId": 10186,
        "contract": "contracts/ramps/hdfc/HDFCRamp.sol:HDFCRamp",
        "label": "registrationProcessor",
        "offset": 0,
        "slot": "1",
        "type": "t_contract(IRegistrationProcessor)12831"
      },
      {
        "astId": 10189,
        "contract": "contracts/ramps/hdfc/HDFCRamp.sol:HDFCRamp",
        "label": "sendProcessor",
        "offset": 0,
        "slot": "2",
        "type": "t_contract(IHDFCSendProcessor)12801"
      },
      {
        "astId": 10191,
        "contract": "contracts/ramps/hdfc/HDFCRamp.sol:HDFCRamp",
        "label": "isInitialized",
        "offset": 20,
        "slot": "2",
        "type": "t_bool"
      },
      {
        "astId": 10196,
        "contract": "contracts/ramps/hdfc/HDFCRamp.sol:HDFCRamp",
        "label": "globalAccount",
        "offset": 0,
        "slot": "3",
        "type": "t_mapping(t_bytes32,t_struct(GlobalAccountInfo)10141_storage)"
      },
      {
        "astId": 10201,
        "contract": "contracts/ramps/hdfc/HDFCRamp.sol:HDFCRamp",
        "label": "accounts",
        "offset": 0,
        "slot": "4",
        "type": "t_mapping(t_address,t_struct(AccountInfo)10056_storage)"
      },
      {
        "astId": 10206,
        "contract": "contracts/ramps/hdfc/HDFCRamp.sol:HDFCRamp",
        "label": "deposits",
        "offset": 0,
        "slot": "5",
        "type": "t_mapping(t_uint256,t_struct(Deposit)10074_storage)"
      },
      {
        "astId": 10211,
        "contract": "contracts/ramps/hdfc/HDFCRamp.sol:HDFCRamp",
        "label": "encryptedDeposits",
        "offset": 0,
        "slot": "6",
        "type": "t_mapping(t_uint256,t_struct(EncryptedDeposit)10096_storage)"
      },
      {
        "astId": 10216,
        "contract": "contracts/ramps/hdfc/HDFCRamp.sol:HDFCRamp",
        "label": "intents",
        "offset": 0,
        "slot": "7",
        "type": "t_mapping(t_bytes32,t_struct(Intent)10117_storage)"
      },
      {
        "astId": 10218,
        "contract": "contracts/ramps/hdfc/HDFCRamp.sol:HDFCRamp",
        "label": "minDepositAmount",
        "offset": 0,
        "slot": "8",
        "type": "t_uint256"
      },
      {
        "astId": 10220,
        "contract": "contracts/ramps/hdfc/HDFCRamp.sol:HDFCRamp",
        "label": "maxOnRampAmount",
        "offset": 0,
        "slot": "9",
        "type": "t_uint256"
      },
      {
        "astId": 10222,
        "contract": "contracts/ramps/hdfc/HDFCRamp.sol:HDFCRamp",
        "label": "onRampCooldownPeriod",
        "offset": 0,
        "slot": "10",
        "type": "t_uint256"
      },
      {
        "astId": 10224,
        "contract": "contracts/ramps/hdfc/HDFCRamp.sol:HDFCRamp",
        "label": "intentExpirationPeriod",
        "offset": 0,
        "slot": "11",
        "type": "t_uint256"
      },
      {
        "astId": 10226,
        "contract": "contracts/ramps/hdfc/HDFCRamp.sol:HDFCRamp",
        "label": "sustainabilityFee",
        "offset": 0,
        "slot": "12",
        "type": "t_uint256"
      },
      {
        "astId": 10228,
        "contract": "contracts/ramps/hdfc/HDFCRamp.sol:HDFCRamp",
        "label": "sustainabilityFeeRecipient",
        "offset": 0,
        "slot": "13",
        "type": "t_address"
      },
      {
        "astId": 10230,
        "contract": "contracts/ramps/hdfc/HDFCRamp.sol:HDFCRamp",
        "label": "depositCounter",
        "offset": 0,
        "slot": "14",
        "type": "t_uint256"
      }
    ],
    "types": {
      "t_address": {
        "encoding": "inplace",
        "label": "address",
        "numberOfBytes": "20"
      },
      "t_array(t_bytes32)dyn_storage": {
        "base": "t_bytes32",
        "encoding": "dynamic_array",
        "label": "bytes32[]",
        "numberOfBytes": "32"
      },
      "t_array(t_uint256)8_storage": {
        "base": "t_uint256",
        "encoding": "inplace",
        "label": "uint256[8]",
        "numberOfBytes": "256"
      },
      "t_array(t_uint256)dyn_storage": {
        "base": "t_uint256",
        "encoding": "dynamic_array",
        "label": "uint256[]",
        "numberOfBytes": "32"
      },
      "t_bool": {
        "encoding": "inplace",
        "label": "bool",
        "numberOfBytes": "1"
      },
      "t_bytes32": {
        "encoding": "inplace",
        "label": "bytes32",
        "numberOfBytes": "32"
      },
      "t_contract(IHDFCSendProcessor)12801": {
        "encoding": "inplace",
        "label": "contract IHDFCSendProcessor",
        "numberOfBytes": "20"
      },
      "t_contract(IRegistrationProcessor)12831": {
        "encoding": "inplace",
        "label": "contract IRegistrationProcessor",
        "numberOfBytes": "20"
      },
      "t_mapping(t_address,t_struct(AccountInfo)10056_storage)": {
        "encoding": "mapping",
        "key": "t_address",
        "label": "mapping(address => struct HDFCRamp.AccountInfo)",
        "numberOfBytes": "32",
        "value": "t_struct(AccountInfo)10056_storage"
      },
      "t_mapping(t_bytes32,t_bool)": {
        "encoding": "mapping",
        "key": "t_bytes32",
        "label": "mapping(bytes32 => bool)",
        "numberOfBytes": "32",
        "value": "t_bool"
      },
      "t_mapping(t_bytes32,t_struct(GlobalAccountInfo)10141_storage)": {
        "encoding": "mapping",
        "key": "t_bytes32",
        "label": "mapping(bytes32 => struct HDFCRamp.GlobalAccountInfo)",
        "numberOfBytes": "32",
        "value": "t_struct(GlobalAccountInfo)10141_storage"
      },
      "t_mapping(t_bytes32,t_struct(Intent)10117_storage)": {
        "encoding": "mapping",
        "key": "t_bytes32",
        "label": "mapping(bytes32 => struct HDFCRamp.Intent)",
        "numberOfBytes": "32",
        "value": "t_struct(Intent)10117_storage"
      },
      "t_mapping(t_uint256,t_struct(Deposit)10074_storage)": {
        "encoding": "mapping",
        "key": "t_uint256",
        "label": "mapping(uint256 => struct HDFCRamp.Deposit)",
        "numberOfBytes": "32",
        "value": "t_struct(Deposit)10074_storage"
      },
      "t_mapping(t_uint256,t_struct(EncryptedDeposit)10096_storage)": {
        "encoding": "mapping",
        "key": "t_uint256",
        "label": "mapping(uint256 => struct HDFCRamp.EncryptedDeposit)",
        "numberOfBytes": "32",
        "value": "t_struct(EncryptedDeposit)10096_storage"
      },
      "t_struct(AccountInfo)10056_storage": {
        "encoding": "inplace",
        "label": "struct HDFCRamp.AccountInfo",
        "members": [
          {
            "astId": 10052,
            "contract": "contracts/ramps/hdfc/HDFCRamp.sol:HDFCRamp",
            "label": "idHash",
            "offset": 0,
            "slot": "0",
            "type": "t_bytes32"
          },
          {
            "astId": 10055,
            "contract": "contracts/ramps/hdfc/HDFCRamp.sol:HDFCRamp",
            "label": "deposits",
            "offset": 0,
            "slot": "1",
            "type": "t_array(t_uint256)dyn_storage"
          }
        ],
        "numberOfBytes": "64"
      },
      "t_struct(DenyList)10133_storage": {
        "encoding": "inplace",
        "label": "struct HDFCRamp.DenyList",
        "members": [
          {
            "astId": 10128,
            "contract": "contracts/ramps/hdfc/HDFCRamp.sol:HDFCRamp",
            "label": "deniedUsers",
            "offset": 0,
            "slot": "0",
            "type": "t_array(t_bytes32)dyn_storage"
          },
          {
            "astId": 10132,
            "contract": "contracts/ramps/hdfc/HDFCRamp.sol:HDFCRamp",
            "label": "isDenied",
            "offset": 0,
            "slot": "1",
            "type": "t_mapping(t_bytes32,t_bool)"
          }
        ],
        "numberOfBytes": "64"
      },
      "t_struct(Deposit)10074_storage": {
        "encoding": "inplace",
        "label": "struct HDFCRamp.Deposit",
        "members": [
          {
            "astId": 10058,
            "contract": "contracts/ramps/hdfc/HDFCRamp.sol:HDFCRamp",
            "label": "depositor",
            "offset": 0,
            "slot": "0",
            "type": "t_address"
          },
          {
            "astId": 10062,
            "contract": "contracts/ramps/hdfc/HDFCRamp.sol:HDFCRamp",
            "label": "upiId",
            "offset": 0,
            "slot": "1",
            "type": "t_array(t_uint256)8_storage"
          },
          {
            "astId": 10064,
            "contract": "contracts/ramps/hdfc/HDFCRamp.sol:HDFCRamp",
            "label": "depositAmount",
            "offset": 0,
            "slot": "9",
            "type": "t_uint256"
          },
          {
            "astId": 10066,
            "contract": "contracts/ramps/hdfc/HDFCRamp.sol:HDFCRamp",
            "label": "remainingDeposits",
            "offset": 0,
            "slot": "10",
            "type": "t_uint256"
          },
          {
            "astId": 10068,
            "contract": "contracts/ramps/hdfc/HDFCRamp.sol:HDFCRamp",
            "label": "outstandingIntentAmount",
            "offset": 0,
            "slot": "11",
            "type": "t_uint256"
          },
          {
            "astId": 10070,
            "contract": "contracts/ramps/hdfc/HDFCRamp.sol:HDFCRamp",
            "label": "conversionRate",
            "offset": 0,
            "slot": "12",
            "type": "t_uint256"
          },
          {
            "astId": 10073,
            "contract": "contracts/ramps/hdfc/HDFCRamp.sol:HDFCRamp",
            "label": "intentHashes",
            "offset": 0,
            "slot": "13",
            "type": "t_array(t_bytes32)dyn_storage"
          }
        ],
        "numberOfBytes": "448"
      },
      "t_struct(EncryptedDeposit)10096_storage": {
        "encoding": "inplace",
        "label": "struct HDFCRamp.EncryptedDeposit",
        "members": [
          {
            "astId": 10076,
            "contract": "contracts/ramps/hdfc/HDFCRamp.sol:HDFCRamp",
            "label": "despositor",
            "offset": 0,
            "slot": "0",
            "type": "t_address"
          },
          {
            "astId": 10080,
            "contract": "contracts/ramps/hdfc/HDFCRamp.sol:HDFCRamp",
            "label": "upiId",
            "offset": 0,
            "slot": "1",
            "type": "t_array(t_uint256)8_storage"
          },
          {
            "astId": 10083,
            "contract": "contracts/ramps/hdfc/HDFCRamp.sol:HDFCRamp",
            "label": "depositAmount",
            "offset": 0,
            "slot": "9",
            "type": "t_userDefinedValueType(euint32)28479"
          },
          {
            "astId": 10086,
            "contract": "contracts/ramps/hdfc/HDFCRamp.sol:HDFCRamp",
            "label": "remainingDeposits",
            "offset": 0,
            "slot": "10",
            "type": "t_userDefinedValueType(euint32)28479"
          },
          {
            "astId": 10089,
            "contract": "contracts/ramps/hdfc/HDFCRamp.sol:HDFCRamp",
            "label": "outstandingIntentAmount",
            "offset": 0,
            "slot": "11",
            "type": "t_userDefinedValueType(euint32)28479"
          },
          {
            "astId": 10092,
            "contract": "contracts/ramps/hdfc/HDFCRamp.sol:HDFCRamp",
            "label": "conversionRate",
            "offset": 0,
            "slot": "12",
            "type": "t_userDefinedValueType(euint32)28479"
          },
          {
            "astId": 10095,
            "contract": "contracts/ramps/hdfc/HDFCRamp.sol:HDFCRamp",
            "label": "intentHashes",
            "offset": 0,
            "slot": "13",
            "type": "t_array(t_bytes32)dyn_storage"
          }
        ],
        "numberOfBytes": "448"
      },
      "t_struct(GlobalAccountInfo)10141_storage": {
        "encoding": "inplace",
        "label": "struct HDFCRamp.GlobalAccountInfo",
        "members": [
          {
            "astId": 10135,
            "contract": "contracts/ramps/hdfc/HDFCRamp.sol:HDFCRamp",
            "label": "currentIntentHash",
            "offset": 0,
            "slot": "0",
            "type": "t_bytes32"
          },
          {
            "astId": 10137,
            "contract": "contracts/ramps/hdfc/HDFCRamp.sol:HDFCRamp",
            "label": "lastOnrampTimestamp",
            "offset": 0,
            "slot": "1",
            "type": "t_uint256"
          },
          {
            "astId": 10140,
            "contract": "contracts/ramps/hdfc/HDFCRamp.sol:HDFCRamp",
            "label": "denyList",
            "offset": 0,
            "slot": "2",
            "type": "t_struct(DenyList)10133_storage"
          }
        ],
        "numberOfBytes": "128"
      },
      "t_struct(Intent)10117_storage": {
        "encoding": "inplace",
        "label": "struct HDFCRamp.Intent",
        "members": [
          {
            "astId": 10108,
            "contract": "contracts/ramps/hdfc/HDFCRamp.sol:HDFCRamp",
            "label": "onRamper",
            "offset": 0,
            "slot": "0",
            "type": "t_address"
          },
          {
            "astId": 10110,
            "contract": "contracts/ramps/hdfc/HDFCRamp.sol:HDFCRamp",
            "label": "to",
            "offset": 0,
            "slot": "1",
            "type": "t_address"
          },
          {
            "astId": 10112,
            "contract": "contracts/ramps/hdfc/HDFCRamp.sol:HDFCRamp",
            "label": "deposit",
            "offset": 0,
            "slot": "2",
            "type": "t_uint256"
          },
          {
            "astId": 10114,
            "contract": "contracts/ramps/hdfc/HDFCRamp.sol:HDFCRamp",
            "label": "amount",
            "offset": 0,
            "slot": "3",
            "type": "t_uint256"
          },
          {
            "astId": 10116,
            "contract": "contracts/ramps/hdfc/HDFCRamp.sol:HDFCRamp",
            "label": "intentTimestamp",
            "offset": 0,
            "slot": "4",
            "type": "t_uint256"
          }
        ],
        "numberOfBytes": "160"
      },
      "t_uint256": {
        "encoding": "inplace",
        "label": "uint256",
        "numberOfBytes": "32"
      },
      "t_userDefinedValueType(euint32)28479": {
        "encoding": "inplace",
        "label": "euint32",
        "numberOfBytes": "32"
      }
    }
  }
}