{
  "address": "0x4d8E02BBfCf205828A8352Af4376b165E123D7b0",
  "abi": [
    {
      "inputs": [],
      "stateMutability": "nonpayable",
      "type": "constructor"
    },
    {
      "anonymous": false,
      "inputs": [
        {
          "indexed": false,
          "internalType": "bytes32",
          "name": "nullifier",
          "type": "bytes32"
        },
        {
          "indexed": true,
          "internalType": "address",
          "name": "writer",
          "type": "address"
        }
      ],
      "name": "NullifierAdded",
      "type": "event"
    },
    {
      "anonymous": false,
      "inputs": [
        {
          "indexed": true,
          "internalType": "address",
          "name": "previousOwner",
          "type": "address"
        },
        {
          "indexed": true,
          "internalType": "address",
          "name": "newOwner",
          "type": "address"
        }
      ],
      "name": "OwnershipTransferred",
      "type": "event"
    },
    {
      "anonymous": false,
      "inputs": [
        {
          "indexed": false,
          "internalType": "address",
          "name": "writer",
          "type": "address"
        }
      ],
      "name": "WriterAdded",
      "type": "event"
    },
    {
      "anonymous": false,
      "inputs": [
        {
          "indexed": false,
          "internalType": "address",
          "name": "writer",
          "type": "address"
        }
      ],
      "name": "WriterRemoved",
      "type": "event"
    },
    {
      "inputs": [
        {
          "internalType": "bytes32",
          "name": "_nullifier",
          "type": "bytes32"
        }
      ],
      "name": "addNullifier",
      "outputs": [],
      "stateMutability": "nonpayable",
      "type": "function"
    },
    {
      "inputs": [
        {
          "internalType": "address",
          "name": "_newWriter",
          "type": "address"
        }
      ],
      "name": "addWritePermission",
      "outputs": [],
      "stateMutability": "nonpayable",
      "type": "function"
    },
    {
      "inputs": [],
      "name": "getWriters",
      "outputs": [
        {
          "internalType": "address[]",
          "name": "",
          "type": "address[]"
        }
      ],
      "stateMutability": "view",
      "type": "function"
    },
    {
      "inputs": [
        {
          "internalType": "bytes32",
          "name": "",
          "type": "bytes32"
        }
      ],
      "name": "isNullified",
      "outputs": [
        {
          "internalType": "bool",
          "name": "",
          "type": "bool"
        }
      ],
      "stateMutability": "view",
      "type": "function"
    },
    {
      "inputs": [
        {
          "internalType": "address",
          "name": "",
          "type": "address"
        }
      ],
      "name": "isWriter",
      "outputs": [
        {
          "internalType": "bool",
          "name": "",
          "type": "bool"
        }
      ],
      "stateMutability": "view",
      "type": "function"
    },
    {
      "inputs": [],
      "name": "owner",
      "outputs": [
        {
          "internalType": "address",
          "name": "",
          "type": "address"
        }
      ],
      "stateMutability": "view",
      "type": "function"
    },
    {
      "inputs": [
        {
          "internalType": "address",
          "name": "_removedWriter",
          "type": "address"
        }
      ],
      "name": "removeWritePermission",
      "outputs": [],
      "stateMutability": "nonpayable",
      "type": "function"
    },
    {
      "inputs": [],
      "name": "renounceOwnership",
      "outputs": [],
      "stateMutability": "nonpayable",
      "type": "function"
    },
    {
      "inputs": [
        {
          "internalType": "address",
          "name": "newOwner",
          "type": "address"
        }
      ],
      "name": "transferOwnership",
      "outputs": [],
      "stateMutability": "nonpayable",
      "type": "function"
    },
    {
      "inputs": [
        {
          "internalType": "uint256",
          "name": "",
          "type": "uint256"
        }
      ],
      "name": "writers",
      "outputs": [
        {
          "internalType": "address",
          "name": "",
          "type": "address"
        }
      ],
      "stateMutability": "view",
      "type": "function"
    }
  ],
  "transactionHash": "0x8240b4f7b9850482e7edc2b34a5d9fe3e62fbb2f0efe49cb35022cdfe922f30e",
  "args": [],
  "numDeployments": 1,
  "solcInputHash": "75b8f55da346d7ed99a350632554d2fb",
  "bytecode": "0x608060405234801561000f575f80fd5b506100193361001e565b61006d565b5f80546001600160a01b038381166001600160a01b0319831681178455604051919092169283917f8be0079c531659141344cd1fd0a4f28419497f9722a3daafe3b4186f6b6457e09190a35050565b6109448061007a5f395ff3fe608060405234801561000f575f80fd5b506004361061009b575f3560e01c8063715018a611610063578063715018a61461014b5780638da5cb5b14610153578063cb01316c14610163578063d6da032614610178578063f2fde38b1461018b575f80fd5b8063169394bb1461009f578063286f9201146100d65780632b29ba23146100eb5780635bd4df321461010d57806366a5267214610120575b5f80fd5b6100c16100ad366004610831565b60016020525f908152604090205460ff1681565b60405190151581526020015b60405180910390f35b6100e96100e4366004610848565b61019e565b005b6100c16100f9366004610848565b60026020525f908152604090205460ff1681565b6100e961011b366004610831565b61027c565b61013361012e366004610831565b6103a1565b6040516001600160a01b0390911681526020016100cd565b6100e96103c9565b5f546001600160a01b0316610133565b61016b6103dc565b6040516100cd9190610875565b6100e9610186366004610848565b61043c565b6100e9610199366004610848565b610541565b6101a66105ba565b6001600160a01b0381165f9081526002602052604090205460ff166102125760405162461bcd60e51b815260206004820152601760248201527f41646472657373206973206e6f7420612077726974657200000000000000000060448201526064015b60405180910390fd5b6001600160a01b0381165f908152600260205260409020805460ff1916905561023c600382610613565b6040516001600160a01b03821681527f86e5bbceda94081c32220d685f37cc4e3ea7bb0be2dfbf0cb703579505a5390e906020015b60405180910390a150565b335f9081526002602052604090205460ff166102f15760405162461bcd60e51b815260206004820152602e60248201527f4f6e6c79206164647265737365732077697468207772697465207065726d697360448201526d1cda5bdb9cc818d85b8818d85b1b60921b6064820152608401610209565b5f8181526001602052604090205460ff161561034f5760405162461bcd60e51b815260206004820152601860248201527f4e756c6c696669657220616c72656164792065786973747300000000000000006044820152606401610209565b5f81815260016020818152604092839020805460ff1916909217909155905182815233917f57d64412939564693aa1e17d56c93933396b3a990f47c84dfc16a201fc2f3f83910160405180910390a250565b600381815481106103b0575f80fd5b5f918252602090912001546001600160a01b0316905081565b6103d16105ba565b6103da5f61077a565b565b6060600380548060200260200160405190810160405280929190818152602001828054801561043257602002820191905f5260205f20905b81546001600160a01b03168152600190910190602001808311610414575b5050505050905090565b6104446105ba565b6001600160a01b0381165f9081526002602052604090205460ff16156104ac5760405162461bcd60e51b815260206004820152601b60248201527f4164647265737320697320616c726561647920612077726974657200000000006044820152606401610209565b6001600160a01b0381165f818152600260209081526040808320805460ff191660019081179091556003805491820181559093527fc2575a0e9e593c00f959f8c92f12db2869c3395a3b0502d05e2516446f71f85b90920180546001600160a01b0319168417905590519182527f6ff3aa2ea7b53070f6d9d07a445d338d89e8edef44250ffa8be19f53910d4a2e9101610271565b6105496105ba565b6001600160a01b0381166105ae5760405162461bcd60e51b815260206004820152602660248201527f4f776e61626c653a206e6577206f776e657220697320746865207a65726f206160448201526564647265737360d01b6064820152608401610209565b6105b78161077a565b50565b5f546001600160a01b031633146103da5760405162461bcd60e51b815260206004820181905260248201527f4f776e61626c653a2063616c6c6572206973206e6f7420746865206f776e65726044820152606401610209565b5f806106768480548060200260200160405190810160405280929190818152602001828054801561066b57602002820191905f5260205f20905b81546001600160a01b0316815260019091019060200180831161064d575b5050505050846107c9565b91509150806106bf5760405162461bcd60e51b815260206004820152601560248201527420b2323932b9b9903737ba1034b71030b93930bc9760591b6044820152606401610209565b83545f906106cf906001906108c1565b9050808314610743578481815481106106ea576106ea6108e6565b905f5260205f20015f9054906101000a90046001600160a01b0316858481548110610717576107176108e6565b905f5260205f20015f6101000a8154816001600160a01b0302191690836001600160a01b031602179055505b84805480610753576107536108fa565b5f8281526020902081015f1990810180546001600160a01b03191690550190555050505050565b5f80546001600160a01b038381166001600160a01b0319831681178455604051919092169283917f8be0079c531659141344cd1fd0a4f28419497f9722a3daafe3b4186f6b6457e09190a35050565b81515f908190815b8181101561082057846001600160a01b03168682815181106107f5576107f56108e6565b60200260200101516001600160a01b0316036108185792506001915061082a9050565b6001016107d1565b505f195f92509250505b9250929050565b5f60208284031215610841575f80fd5b5035919050565b5f60208284031215610858575f80fd5b81356001600160a01b038116811461086e575f80fd5b9392505050565b602080825282518282018190525f9190848201906040850190845b818110156108b55783516001600160a01b031683529284019291840191600101610890565b50909695505050505050565b818103818111156108e057634e487b7160e01b5f52601160045260245ffd5b92915050565b634e487b7160e01b5f52603260045260245ffd5b634e487b7160e01b5f52603160045260245ffdfea2646970667358221220cf01549a96d6aae5959c3dd81f96fd58d7783fde4cca15aa1b5257de686971aa64736f6c63430008180033",
  "devdoc": {
    "kind": "dev",
    "methods": {
      "addNullifier(bytes32)": {
        "params": {
          "_nullifier": "The nullifier to store"
        }
      },
      "addWritePermission(address)": {
        "params": {
          "_newWriter": "The nullifier to store"
        }
      },
      "owner()": {
        "details": "Returns the address of the current owner."
      },
      "removeWritePermission(address)": {
        "params": {
          "_removedWriter": "The nullifier to store"
        }
      },
      "renounceOwnership()": {
        "details": "Leaves the contract without owner. It will not be possible to call `onlyOwner` functions. Can only be called by the current owner. NOTE: Renouncing ownership will leave the contract without an owner, thereby disabling any functionality that is only available to the owner."
      },
      "transferOwnership(address)": {
        "details": "Transfers ownership of the contract to a new account (`newOwner`). Can only be called by the current owner."
      }
    },
    "version": 1
  },
  "userdoc": {
    "kind": "user",
    "methods": {
      "addNullifier(bytes32)": {
        "notice": "ONLY WRITER: Only addresses with permission to write to this contract can call. Stores a nullifier for an email."
      },
      "addWritePermission(address)": {
        "notice": "ONLY OWNER: Add address that has write permissions to the registry. Writer must not have been previously added."
      },
      "removeWritePermission(address)": {
        "notice": "ONLY OWNER: Remove address that has write permissions to the registry. Writer must have been previously added."
      }
    },
    "version": 1
  },
  "storageLayout": {
    "storage": [
      {
        "astId": 7,
        "contract": "contracts/processors/nullifierRegistries/NullifierRegistry.sol:NullifierRegistry",
        "label": "_owner",
        "offset": 0,
        "slot": "0",
        "type": "t_address"
      },
      {
        "astId": 6682,
        "contract": "contracts/processors/nullifierRegistries/NullifierRegistry.sol:NullifierRegistry",
        "label": "isNullified",
        "offset": 0,
        "slot": "1",
        "type": "t_mapping(t_bytes32,t_bool)"
      },
      {
        "astId": 6686,
        "contract": "contracts/processors/nullifierRegistries/NullifierRegistry.sol:NullifierRegistry",
        "label": "isWriter",
        "offset": 0,
        "slot": "2",
        "type": "t_mapping(t_address,t_bool)"
      },
      {
        "astId": 6689,
        "contract": "contracts/processors/nullifierRegistries/NullifierRegistry.sol:NullifierRegistry",
        "label": "writers",
        "offset": 0,
        "slot": "3",
        "type": "t_array(t_address)dyn_storage"
      }
    ],
    "types": {
      "t_address": {
        "encoding": "inplace",
        "label": "address",
        "numberOfBytes": "20"
      },
      "t_array(t_address)dyn_storage": {
        "base": "t_address",
        "encoding": "dynamic_array",
        "label": "address[]",
        "numberOfBytes": "32"
      },
      "t_bool": {
        "encoding": "inplace",
        "label": "bool",
        "numberOfBytes": "1"
      },
      "t_bytes32": {
        "encoding": "inplace",
        "label": "bytes32",
        "numberOfBytes": "32"
      },
      "t_mapping(t_address,t_bool)": {
        "encoding": "mapping",
        "key": "t_address",
        "label": "mapping(address => bool)",
        "numberOfBytes": "32",
        "value": "t_bool"
      },
      "t_mapping(t_bytes32,t_bool)": {
        "encoding": "mapping",
        "key": "t_bytes32",
        "label": "mapping(bytes32 => bool)",
        "numberOfBytes": "32",
        "value": "t_bool"
      }
    }
  }
}