{
  "address": "0x9fE46736679d2D9a65F0992F2272dE9f3c7fa6e0",
  "abi": [
    {
      "inputs": [
        {
          "internalType": "address",
          "name": "_owner",
          "type": "address"
        },
        {
          "internalType": "contract IERC20",
          "name": "_usdc",
          "type": "address"
        },
        {
          "internalType": "contract IPoseidon",
          "name": "_poseidon",
          "type": "address"
        },
        {
          "internalType": "uint256",
          "name": "_minDepositAmount",
          "type": "uint256"
        },
        {
          "internalType": "uint256",
          "name": "_maxOnRampAmount",
          "type": "uint256"
        },
        {
          "internalType": "uint256",
          "name": "_intentExpirationPeriod",
          "type": "uint256"
        },
        {
          "internalType": "uint256",
          "name": "_onRampCooldownPeriod",
          "type": "uint256"
        },
        {
          "internalType": "uint256",
          "name": "_sustainabilityFee",
          "type": "uint256"
        },
        {
          "internalType": "address",
          "name": "_sustainabilityFeeRecipient",
          "type": "address"
        }
      ],
      "stateMutability": "nonpayable",
      "type": "constructor"
    },
    {
      "anonymous": false,
      "inputs": [
        {
          "indexed": true,
          "internalType": "address",
          "name": "accountOwner",
          "type": "address"
        },
        {
          "indexed": true,
          "internalType": "bytes32",
          "name": "venmoIdHash",
          "type": "bytes32"
        }
      ],
      "name": "AccountRegistered",
      "type": "event"
    },
    {
      "anonymous": false,
      "inputs": [
        {
          "indexed": false,
          "internalType": "uint256",
          "name": "depositId",
          "type": "uint256"
        },
        {
          "indexed": false,
          "internalType": "address",
          "name": "depositor",
          "type": "address"
        }
      ],
      "name": "DepositClosed",
      "type": "event"
    },
    {
      "anonymous": false,
      "inputs": [
        {
          "indexed": true,
          "internalType": "uint256",
          "name": "depositId",
          "type": "uint256"
        },
        {
          "indexed": true,
          "internalType": "bytes32",
          "name": "venmoId",
          "type": "bytes32"
        },
        {
          "indexed": false,
          "internalType": "uint256",
          "name": "amount",
          "type": "uint256"
        },
        {
          "indexed": false,
          "internalType": "uint256",
          "name": "conversionRate",
          "type": "uint256"
        }
      ],
      "name": "DepositReceived",
      "type": "event"
    },
    {
      "anonymous": false,
      "inputs": [
        {
          "indexed": true,
          "internalType": "uint256",
          "name": "depositId",
          "type": "uint256"
        },
        {
          "indexed": true,
          "internalType": "address",
          "name": "depositor",
          "type": "address"
        },
        {
          "indexed": false,
          "internalType": "uint256",
          "name": "amount",
          "type": "uint256"
        }
      ],
      "name": "DepositWithdrawn",
      "type": "event"
    },
    {
      "anonymous": false,
      "inputs": [
        {
          "indexed": false,
          "internalType": "uint256",
          "name": "intentExpirationPeriod",
          "type": "uint256"
        }
      ],
      "name": "IntentExpirationPeriodSet",
      "type": "event"
    },
    {
      "anonymous": false,
      "inputs": [
        {
          "indexed": true,
          "internalType": "bytes32",
          "name": "intentHash",
          "type": "bytes32"
        },
        {
          "indexed": true,
          "internalType": "uint256",
          "name": "depositId",
          "type": "uint256"
        },
        {
          "indexed": true,
          "internalType": "address",
          "name": "onRamper",
          "type": "address"
        },
        {
          "indexed": false,
          "internalType": "address",
          "name": "to",
          "type": "address"
        },
        {
          "indexed": false,
          "internalType": "uint256",
          "name": "amount",
          "type": "uint256"
        },
        {
          "indexed": false,
          "internalType": "uint256",
          "name": "feeAmount",
          "type": "uint256"
        }
      ],
      "name": "IntentFulfilled",
      "type": "event"
    },
    {
      "anonymous": false,
      "inputs": [
        {
          "indexed": true,
          "internalType": "bytes32",
          "name": "intentHash",
          "type": "bytes32"
        },
        {
          "indexed": true,
          "internalType": "uint256",
          "name": "depositId",
          "type": "uint256"
        }
      ],
      "name": "IntentPruned",
      "type": "event"
    },
    {
      "anonymous": false,
      "inputs": [
        {
          "indexed": true,
          "internalType": "bytes32",
          "name": "intentHash",
          "type": "bytes32"
        },
        {
          "indexed": true,
          "internalType": "uint256",
          "name": "depositId",
          "type": "uint256"
        },
        {
          "indexed": true,
          "internalType": "bytes32",
          "name": "venmoId",
          "type": "bytes32"
        },
        {
          "indexed": false,
          "internalType": "address",
          "name": "to",
          "type": "address"
        },
        {
          "indexed": false,
          "internalType": "uint256",
          "name": "amount",
          "type": "uint256"
        },
        {
          "indexed": false,
          "internalType": "uint256",
          "name": "timestamp",
          "type": "uint256"
        }
      ],
      "name": "IntentSignaled",
      "type": "event"
    },
    {
      "anonymous": false,
      "inputs": [
        {
          "indexed": false,
          "internalType": "uint256",
          "name": "maxOnRampAmount",
          "type": "uint256"
        }
      ],
      "name": "MaxOnRampAmountSet",
      "type": "event"
    },
    {
      "anonymous": false,
      "inputs": [
        {
          "indexed": false,
          "internalType": "uint256",
          "name": "minDepositAmount",
          "type": "uint256"
        }
      ],
      "name": "MinDepositAmountSet",
      "type": "event"
    },
    {
      "anonymous": false,
      "inputs": [
        {
          "indexed": false,
          "internalType": "address",
          "name": "receiveProcessor",
          "type": "address"
        }
      ],
      "name": "NewReceiveProcessorSet",
      "type": "event"
    },
    {
      "anonymous": false,
      "inputs": [
        {
          "indexed": false,
          "internalType": "address",
          "name": "registrationProcessor",
          "type": "address"
        }
      ],
      "name": "NewRegistrationProcessorSet",
      "type": "event"
    },
    {
      "anonymous": false,
      "inputs": [
        {
          "indexed": false,
          "internalType": "address",
          "name": "sendProcessor",
          "type": "address"
        }
      ],
      "name": "NewSendProcessorSet",
      "type": "event"
    },
    {
      "anonymous": false,
      "inputs": [
        {
          "indexed": false,
          "internalType": "uint256",
          "name": "onRampCooldownPeriod",
          "type": "uint256"
        }
      ],
      "name": "OnRampCooldownPeriodSet",
      "type": "event"
    },
    {
      "anonymous": false,
      "inputs": [
        {
          "indexed": true,
          "internalType": "address",
          "name": "previousOwner",
          "type": "address"
        },
        {
          "indexed": true,
          "internalType": "address",
          "name": "newOwner",
          "type": "address"
        }
      ],
      "name": "OwnershipTransferred",
      "type": "event"
    },
    {
      "anonymous": false,
      "inputs": [
        {
          "indexed": false,
          "internalType": "address",
          "name": "feeRecipient",
          "type": "address"
        }
      ],
      "name": "SustainabilityFeeRecipientUpdated",
      "type": "event"
    },
    {
      "anonymous": false,
      "inputs": [
        {
          "indexed": false,
          "internalType": "uint256",
          "name": "fee",
          "type": "uint256"
        }
      ],
      "name": "SustainabilityFeeUpdated",
      "type": "event"
    },
    {
      "anonymous": false,
      "inputs": [
        {
          "indexed": false,
          "internalType": "bytes32",
          "name": "listOwner",
          "type": "bytes32"
        },
        {
          "indexed": false,
          "internalType": "bytes32",
          "name": "deniedUser",
          "type": "bytes32"
        }
      ],
      "name": "UserAddedToDenylist",
      "type": "event"
    },
    {
      "anonymous": false,
      "inputs": [
        {
          "indexed": false,
          "internalType": "bytes32",
          "name": "listOwner",
          "type": "bytes32"
        },
        {
          "indexed": false,
          "internalType": "bytes32",
          "name": "approvedUser",
          "type": "bytes32"
        }
      ],
      "name": "UserRemovedFromDenylist",
      "type": "event"
    },
    {
      "inputs": [
        {
          "internalType": "bytes32",
          "name": "_deniedUser",
          "type": "bytes32"
        }
      ],
      "name": "addAccountToDenylist",
      "outputs": [],
      "stateMutability": "nonpayable",
      "type": "function"
    },
    {
      "inputs": [
        {
          "internalType": "bytes32",
          "name": "_intentHash",
          "type": "bytes32"
        }
      ],
      "name": "cancelIntent",
      "outputs": [],
      "stateMutability": "nonpayable",
      "type": "function"
    },
    {
      "inputs": [],
      "name": "depositCounter",
      "outputs": [
        {
          "internalType": "uint256",
          "name": "",
          "type": "uint256"
        }
      ],
      "stateMutability": "view",
      "type": "function"
    },
    {
      "inputs": [
        {
          "internalType": "uint256",
          "name": "",
          "type": "uint256"
        }
      ],
      "name": "deposits",
      "outputs": [
        {
          "internalType": "address",
          "name": "depositor",
          "type": "address"
        },
        {
          "internalType": "uint256",
          "name": "depositAmount",
          "type": "uint256"
        },
        {
          "internalType": "uint256",
          "name": "remainingDeposits",
          "type": "uint256"
        },
        {
          "internalType": "uint256",
          "name": "outstandingIntentAmount",
          "type": "uint256"
        },
        {
          "internalType": "uint256",
          "name": "conversionRate",
          "type": "uint256"
        }
      ],
      "stateMutability": "view",
      "type": "function"
    },
    {
      "inputs": [
        {
          "internalType": "address",
          "name": "_account",
          "type": "address"
        }
      ],
      "name": "getAccountDeposits",
      "outputs": [
        {
          "components": [
            {
              "internalType": "uint256",
              "name": "depositId",
              "type": "uint256"
            },
            {
              "components": [
                {
                  "internalType": "address",
                  "name": "depositor",
                  "type": "address"
                },
                {
                  "internalType": "uint256[3]",
                  "name": "packedVenmoId",
                  "type": "uint256[3]"
                },
                {
                  "internalType": "uint256",
                  "name": "depositAmount",
                  "type": "uint256"
                },
                {
                  "internalType": "uint256",
                  "name": "remainingDeposits",
                  "type": "uint256"
                },
                {
                  "internalType": "uint256",
                  "name": "outstandingIntentAmount",
                  "type": "uint256"
                },
                {
                  "internalType": "uint256",
                  "name": "conversionRate",
                  "type": "uint256"
                },
                {
                  "internalType": "bytes32[]",
                  "name": "intentHashes",
                  "type": "bytes32[]"
                }
              ],
              "internalType": "struct Ramp.Deposit",
              "name": "deposit",
              "type": "tuple"
            },
            {
              "internalType": "uint256",
              "name": "availableLiquidity",
              "type": "uint256"
            }
          ],
          "internalType": "struct Ramp.DepositWithAvailableLiquidity[]",
          "name": "accountDeposits",
          "type": "tuple[]"
        }
      ],
      "stateMutability": "view",
      "type": "function"
    },
    {
      "inputs": [
        {
          "internalType": "address",
          "name": "_account",
          "type": "address"
        }
      ],
      "name": "getAccountInfo",
      "outputs": [
        {
          "components": [
            {
              "internalType": "bytes32",
              "name": "venmoIdHash",
              "type": "bytes32"
            },
            {
              "internalType": "uint256[]",
              "name": "deposits",
              "type": "uint256[]"
            }
          ],
          "internalType": "struct Ramp.AccountInfo",
          "name": "",
          "type": "tuple"
        }
      ],
      "stateMutability": "view",
      "type": "function"
    },
    {
      "inputs": [
        {
          "internalType": "address",
          "name": "_account",
          "type": "address"
        }
      ],
      "name": "getDeniedUsers",
      "outputs": [
        {
          "internalType": "bytes32[]",
          "name": "",
          "type": "bytes32[]"
        }
      ],
      "stateMutability": "view",
      "type": "function"
    },
    {
      "inputs": [
        {
          "internalType": "uint256",
          "name": "_depositId",
          "type": "uint256"
        }
      ],
      "name": "getDeposit",
      "outputs": [
        {
          "components": [
            {
              "internalType": "address",
              "name": "depositor",
              "type": "address"
            },
            {
              "internalType": "uint256[3]",
              "name": "packedVenmoId",
              "type": "uint256[3]"
            },
            {
              "internalType": "uint256",
              "name": "depositAmount",
              "type": "uint256"
            },
            {
              "internalType": "uint256",
              "name": "remainingDeposits",
              "type": "uint256"
            },
            {
              "internalType": "uint256",
              "name": "outstandingIntentAmount",
              "type": "uint256"
            },
            {
              "internalType": "uint256",
              "name": "conversionRate",
              "type": "uint256"
            },
            {
              "internalType": "bytes32[]",
              "name": "intentHashes",
              "type": "bytes32[]"
            }
          ],
          "internalType": "struct Ramp.Deposit",
          "name": "",
          "type": "tuple"
        }
      ],
      "stateMutability": "view",
      "type": "function"
    },
    {
      "inputs": [
        {
          "internalType": "uint256[]",
          "name": "_depositIds",
          "type": "uint256[]"
        }
      ],
      "name": "getDepositFromIds",
      "outputs": [
        {
          "components": [
            {
              "internalType": "uint256",
              "name": "depositId",
              "type": "uint256"
            },
            {
              "components": [
                {
                  "internalType": "address",
                  "name": "depositor",
                  "type": "address"
                },
                {
                  "internalType": "uint256[3]",
                  "name": "packedVenmoId",
                  "type": "uint256[3]"
                },
                {
                  "internalType": "uint256",
                  "name": "depositAmount",
                  "type": "uint256"
                },
                {
                  "internalType": "uint256",
                  "name": "remainingDeposits",
                  "type": "uint256"
                },
                {
                  "internalType": "uint256",
                  "name": "outstandingIntentAmount",
                  "type": "uint256"
                },
                {
                  "internalType": "uint256",
                  "name": "conversionRate",
                  "type": "uint256"
                },
                {
                  "internalType": "bytes32[]",
                  "name": "intentHashes",
                  "type": "bytes32[]"
                }
              ],
              "internalType": "struct Ramp.Deposit",
              "name": "deposit",
              "type": "tuple"
            },
            {
              "internalType": "uint256",
              "name": "availableLiquidity",
              "type": "uint256"
            }
          ],
          "internalType": "struct Ramp.DepositWithAvailableLiquidity[]",
          "name": "depositArray",
          "type": "tuple[]"
        }
      ],
      "stateMutability": "view",
      "type": "function"
    },
    {
      "inputs": [
        {
          "internalType": "bytes32[]",
          "name": "_intentHashes",
          "type": "bytes32[]"
        }
      ],
      "name": "getIntentsWithOnRamperId",
      "outputs": [
        {
          "components": [
            {
              "components": [
                {
                  "internalType": "address",
                  "name": "onRamper",
                  "type": "address"
                },
                {
                  "internalType": "address",
                  "name": "to",
                  "type": "address"
                },
                {
                  "internalType": "uint256",
                  "name": "deposit",
                  "type": "uint256"
                },
                {
                  "internalType": "uint256",
                  "name": "amount",
                  "type": "uint256"
                },
                {
                  "internalType": "uint256",
                  "name": "intentTimestamp",
                  "type": "uint256"
                }
              ],
              "internalType": "struct Ramp.Intent",
              "name": "intent",
              "type": "tuple"
            },
            {
              "internalType": "bytes32",
              "name": "onRamperIdHash",
              "type": "bytes32"
            }
          ],
          "internalType": "struct Ramp.IntentWithOnRamperId[]",
          "name": "",
          "type": "tuple[]"
        }
      ],
      "stateMutability": "view",
      "type": "function"
    },
    {
      "inputs": [
        {
          "internalType": "address",
          "name": "_account",
          "type": "address"
        }
      ],
      "name": "getLastOnRampTimestamp",
      "outputs": [
        {
          "internalType": "uint256",
          "name": "",
          "type": "uint256"
        }
      ],
      "stateMutability": "view",
      "type": "function"
    },
    {
      "inputs": [
        {
          "internalType": "address",
          "name": "_account",
          "type": "address"
        }
      ],
      "name": "getVenmoIdCurrentIntentHash",
      "outputs": [
        {
          "internalType": "bytes32",
          "name": "",
          "type": "bytes32"
        }
      ],
      "stateMutability": "view",
      "type": "function"
    },
    {
      "inputs": [
        {
          "internalType": "contract IRegistrationProcessor",
          "name": "_registrationProcessor",
          "type": "address"
        },
        {
          "internalType": "contract ISendProcessor",
          "name": "_sendProcessor",
          "type": "address"
        }
      ],
      "name": "initialize",
      "outputs": [],
      "stateMutability": "nonpayable",
      "type": "function"
    },
    {
      "inputs": [],
      "name": "intentExpirationPeriod",
      "outputs": [
        {
          "internalType": "uint256",
          "name": "",
          "type": "uint256"
        }
      ],
      "stateMutability": "view",
      "type": "function"
    },
    {
      "inputs": [
        {
          "internalType": "bytes32",
          "name": "",
          "type": "bytes32"
        }
      ],
      "name": "intents",
      "outputs": [
        {
          "internalType": "address",
          "name": "onRamper",
          "type": "address"
        },
        {
          "internalType": "address",
          "name": "to",
          "type": "address"
        },
        {
          "internalType": "uint256",
          "name": "deposit",
          "type": "uint256"
        },
        {
          "internalType": "uint256",
          "name": "amount",
          "type": "uint256"
        },
        {
          "internalType": "uint256",
          "name": "intentTimestamp",
          "type": "uint256"
        }
      ],
      "stateMutability": "view",
      "type": "function"
    },
    {
      "inputs": [
        {
          "internalType": "address",
          "name": "_account",
          "type": "address"
        },
        {
          "internalType": "bytes32",
          "name": "_deniedUser",
          "type": "bytes32"
        }
      ],
      "name": "isDeniedUser",
      "outputs": [
        {
          "internalType": "bool",
          "name": "",
          "type": "bool"
        }
      ],
      "stateMutability": "view",
      "type": "function"
    },
    {
      "inputs": [],
      "name": "maxOnRampAmount",
      "outputs": [
        {
          "internalType": "uint256",
          "name": "",
          "type": "uint256"
        }
      ],
      "stateMutability": "view",
      "type": "function"
    },
    {
      "inputs": [],
      "name": "minDepositAmount",
      "outputs": [
        {
          "internalType": "uint256",
          "name": "",
          "type": "uint256"
        }
      ],
      "stateMutability": "view",
      "type": "function"
    },
    {
      "inputs": [
        {
          "internalType": "uint256[3]",
          "name": "_packedVenmoId",
          "type": "uint256[3]"
        },
        {
          "internalType": "uint256",
          "name": "_depositAmount",
          "type": "uint256"
        },
        {
          "internalType": "uint256",
          "name": "_receiveAmount",
          "type": "uint256"
        }
      ],
      "name": "offRamp",
      "outputs": [],
      "stateMutability": "nonpayable",
      "type": "function"
    },
    {
      "inputs": [
        {
          "internalType": "uint256[2]",
          "name": "_a",
          "type": "uint256[2]"
        },
        {
          "internalType": "uint256[2][2]",
          "name": "_b",
          "type": "uint256[2][2]"
        },
        {
          "internalType": "uint256[2]",
          "name": "_c",
          "type": "uint256[2]"
        },
        {
          "internalType": "uint256[12]",
          "name": "_signals",
          "type": "uint256[12]"
        }
      ],
      "name": "onRamp",
      "outputs": [],
      "stateMutability": "nonpayable",
      "type": "function"
    },
    {
      "inputs": [],
      "name": "onRampCooldownPeriod",
      "outputs": [
        {
          "internalType": "uint256",
          "name": "",
          "type": "uint256"
        }
      ],
      "stateMutability": "view",
      "type": "function"
    },
    {
      "inputs": [],
      "name": "owner",
      "outputs": [
        {
          "internalType": "address",
          "name": "",
          "type": "address"
        }
      ],
      "stateMutability": "view",
      "type": "function"
    },
    {
      "inputs": [],
      "name": "poseidon",
      "outputs": [
        {
          "internalType": "contract IPoseidon",
          "name": "",
          "type": "address"
        }
      ],
      "stateMutability": "view",
      "type": "function"
    },
    {
      "inputs": [
        {
          "internalType": "uint256[2]",
          "name": "_a",
          "type": "uint256[2]"
        },
        {
          "internalType": "uint256[2][2]",
          "name": "_b",
          "type": "uint256[2][2]"
        },
        {
          "internalType": "uint256[2]",
          "name": "_c",
          "type": "uint256[2]"
        },
        {
          "internalType": "uint256[5]",
          "name": "_signals",
          "type": "uint256[5]"
        }
      ],
      "name": "register",
      "outputs": [],
      "stateMutability": "nonpayable",
      "type": "function"
    },
    {
      "inputs": [],
      "name": "registrationProcessor",
      "outputs": [
        {
          "internalType": "contract IRegistrationProcessor",
          "name": "",
          "type": "address"
        }
      ],
      "stateMutability": "view",
      "type": "function"
    },
    {
      "inputs": [
        {
          "internalType": "bytes32",
          "name": "_approvedUser",
          "type": "bytes32"
        }
      ],
      "name": "removeAccountFromDenylist",
      "outputs": [],
      "stateMutability": "nonpayable",
      "type": "function"
    },
    {
      "inputs": [],
      "name": "renounceOwnership",
      "outputs": [],
      "stateMutability": "nonpayable",
      "type": "function"
    },
    {
      "inputs": [],
      "name": "sendProcessor",
      "outputs": [
        {
          "internalType": "contract ISendProcessor",
          "name": "",
          "type": "address"
        }
      ],
      "stateMutability": "view",
      "type": "function"
    },
    {
      "inputs": [
        {
          "internalType": "uint256",
          "name": "_intentExpirationPeriod",
          "type": "uint256"
        }
      ],
      "name": "setIntentExpirationPeriod",
      "outputs": [],
      "stateMutability": "nonpayable",
      "type": "function"
    },
    {
      "inputs": [
        {
          "internalType": "uint256",
          "name": "_maxOnRampAmount",
          "type": "uint256"
        }
      ],
      "name": "setMaxOnRampAmount",
      "outputs": [],
      "stateMutability": "nonpayable",
      "type": "function"
    },
    {
      "inputs": [
        {
          "internalType": "uint256",
          "name": "_minDepositAmount",
          "type": "uint256"
        }
      ],
      "name": "setMinDepositAmount",
      "outputs": [],
      "stateMutability": "nonpayable",
      "type": "function"
    },
    {
      "inputs": [
        {
          "internalType": "uint256",
          "name": "_onRampCooldownPeriod",
          "type": "uint256"
        }
      ],
      "name": "setOnRampCooldownPeriod",
      "outputs": [],
      "stateMutability": "nonpayable",
      "type": "function"
    },
    {
      "inputs": [
        {
          "internalType": "contract IRegistrationProcessor",
          "name": "_registrationProcessor",
          "type": "address"
        }
      ],
      "name": "setRegistrationProcessor",
      "outputs": [],
      "stateMutability": "nonpayable",
      "type": "function"
    },
    {
      "inputs": [
        {
          "internalType": "contract ISendProcessor",
          "name": "_sendProcessor",
          "type": "address"
        }
      ],
      "name": "setSendProcessor",
      "outputs": [],
      "stateMutability": "nonpayable",
      "type": "function"
    },
    {
      "inputs": [
        {
          "internalType": "uint256",
          "name": "_fee",
          "type": "uint256"
        }
      ],
      "name": "setSustainabilityFee",
      "outputs": [],
      "stateMutability": "nonpayable",
      "type": "function"
    },
    {
      "inputs": [
        {
          "internalType": "address",
          "name": "_feeRecipient",
          "type": "address"
        }
      ],
      "name": "setSustainabilityFeeRecipient",
      "outputs": [],
      "stateMutability": "nonpayable",
      "type": "function"
    },
    {
      "inputs": [
        {
          "internalType": "uint256",
          "name": "_depositId",
          "type": "uint256"
        },
        {
          "internalType": "uint256",
          "name": "_amount",
          "type": "uint256"
        },
        {
          "internalType": "address",
          "name": "_to",
          "type": "address"
        }
      ],
      "name": "signalIntent",
      "outputs": [],
      "stateMutability": "nonpayable",
      "type": "function"
    },
    {
      "inputs": [],
      "name": "sustainabilityFee",
      "outputs": [
        {
          "internalType": "uint256",
          "name": "",
          "type": "uint256"
        }
      ],
      "stateMutability": "view",
      "type": "function"
    },
    {
      "inputs": [],
      "name": "sustainabilityFeeRecipient",
      "outputs": [
        {
          "internalType": "address",
          "name": "",
          "type": "address"
        }
      ],
      "stateMutability": "view",
      "type": "function"
    },
    {
      "inputs": [
        {
          "internalType": "address",
          "name": "newOwner",
          "type": "address"
        }
      ],
      "name": "transferOwnership",
      "outputs": [],
      "stateMutability": "nonpayable",
      "type": "function"
    },
    {
      "inputs": [],
      "name": "usdc",
      "outputs": [
        {
          "internalType": "contract IERC20",
          "name": "",
          "type": "address"
        }
      ],
      "stateMutability": "view",
      "type": "function"
    },
    {
      "inputs": [
        {
          "internalType": "uint256[]",
          "name": "_depositIds",
          "type": "uint256[]"
        }
      ],
      "name": "withdrawDeposit",
      "outputs": [],
      "stateMutability": "nonpayable",
      "type": "function"
    }
  ],
  "transactionHash": "0xbc69aeaf9abf54099e659e0fce11b8e0d230e0fbe3fd9a45d72ed6de4f112b6d",
  "args": [
    "0xf39Fd6e51aad88F6F4ce6aB8827279cffFb92266",
    "0x5FbDB2315678afecb367f032d93F642f64180aa3",
    "0xe7f1725E7734CE288F8367e1Bb143E90bb3F0512",
    "10000000",
    "999000000",
    "180",
    "180",
    "1000000000000000",
    "0xf39Fd6e51aad88F6F4ce6aB8827279cffFb92266"
  ],
  "numDeployments": 1,
  "solcInputHash": "653f1628715067b7cbdbe74d0cc4d947",
  "bytecode": "0x60c060405234801562000010575f80fd5b5060405162003e5538038062003e558339810160408190526200003391620001e0565b6200003e336200009c565b6001600160a01b0388811660805287811660a05260078790556008869055600a8590556009849055600b839055600c80546001600160a01b0319169183169190911790556200008d89620000eb565b50505050505050505062000276565b5f80546001600160a01b038381166001600160a01b0319831681178455604051919092169283917f8be0079c531659141344cd1fd0a4f28419497f9722a3daafe3b4186f6b6457e09190a35050565b620000f56200016e565b6001600160a01b038116620001605760405162461bcd60e51b815260206004820152602660248201527f4f776e61626c653a206e6577206f776e657220697320746865207a65726f206160448201526564647265737360d01b60648201526084015b60405180910390fd5b6200016b816200009c565b50565b5f546001600160a01b03163314620001c95760405162461bcd60e51b815260206004820181905260248201527f4f776e61626c653a2063616c6c6572206973206e6f7420746865206f776e6572604482015260640162000157565b565b6001600160a01b03811681146200016b575f80fd5b5f805f805f805f805f6101208a8c031215620001fa575f80fd5b89516200020781620001cb565b60208b01519099506200021a81620001cb565b60408b01519098506200022d81620001cb565b8097505060608a0151955060808a0151945060a08a0151935060c08a0151925060e08a015191506101008a01516200026581620001cb565b809150509295985092959850929598565b60805160a051613b9a620002bb5f395f81816105d801526110a501525f8181610348015281816113e3015281816118db01528181612d690152612e140152613b9a5ff3fe608060405234801561000f575f80fd5b5060043610610255575f3560e01c80638da5cb5b11610140578063d55f960d116100bf578063ecb3dc8811610084578063ecb3dc8814610662578063ecd618f01461066b578063ed1692b81461068b578063eea1d1971461069e578063f2fde38b146106b1578063fbf15b1f146106c4575f80fd5b8063d55f960d1461060d578063d9478d2014610620578063da26c18914610633578063e215ad5914610646578063e279d96414610659575f80fd5b8063a1a954b711610105578063a1a954b71461053f578063b02c43d014610548578063b3fa4c01146105c0578063c62b919e146105d3578063ce523ca3146105fa575f80fd5b80638da5cb5b1461046e5780639021578a1461047e5780639087beff146104f95780639b357b5a1461050c5780639f9fb9681461051f575f80fd5b80634595bba0116101d75780635dd765151161019c5780635dd7651514610404578063645006ca146104175780637113476214610420578063715018a61461043357806371a28f691461043b5780637b510fe81461044e575f80fd5b80634595bba014610395578063485cc955146103b55780634877b7b6146103c8578063495223e7146103db5780635081d952146103e4575f80fd5b80632a80cda31161021d5780632a80cda31461030a578063317dcc961461031d5780633adba28a146103305780633e413bee146103435780634298734914610382575f80fd5b80630f1ef98c14610259578063123a11e4146102a4578063133de6cb146102d9578063148172da146102ee578063238c849414610301575b5f80fd5b6102916102673660046131be565b6001600160a01b03165f908152600460209081526040808320548352600390915290206001015490565b6040519081526020015b60405180910390f35b6102916102b23660046131be565b6001600160a01b03165f908152600460209081526040808320548352600390915290205490565b6102ec6102e73660046131be565b61071a565b005b6102ec6102fc3660046131e0565b610777565b610291600b5481565b6102ec6103183660046131e0565b6108a6565b6102ec61032b3660046131e0565b610932565b6102ec61033e3660046131f7565b61096f565b61036a7f000000000000000000000000000000000000000000000000000000000000000081565b6040516001600160a01b03909116815260200161029b565b6102ec6103903660046131e0565b610eb8565b6103a86103a33660046131be565b610f58565b60405161029b919061322d565b6102ec6103c3366004613270565b610fce565b6102ec6103d6366004613315565b611061565b61029160095481565b6103f76103f23660046131be565b61149c565b60405161029b919061345e565b6102ec6104123660046131e0565b6116ca565b61029160075481565b6102ec61042e3660046134df565b611769565b6102ec611952565b6103f76104493660046134df565b611965565b61046161045c3660046131be565b611b2e565b60405161029b9190613580565b5f546001600160a01b031661036a565b6104c661048c3660046131e0565b60066020525f9081526040902080546001820154600283015460038401546004909401546001600160a01b03938416949390921692909185565b604080516001600160a01b039687168152959094166020860152928401919091526060830152608082015260a00161029b565b6102ec6105073660046131e0565b611bc4565b6102ec61051a3660046131e0565b611c5a565b61053261052d3660046131e0565b611d5e565b60405161029b91906135d7565b610291600a5481565b61058e6105563660046131e0565b600560208190525f9182526040909120805460048201549282015460068301546007909301546001600160a01b039092169392909185565b604080516001600160a01b0390961686526020860194909452928401919091526060830152608082015260a00161029b565b6102ec6105ce3660046131be565b611e47565b61036a7f000000000000000000000000000000000000000000000000000000000000000081565b6102ec610608366004613682565b611eff565b6102ec61061b3660046131e0565b611fbb565b600c5461036a906001600160a01b031681565b6102ec610641366004613735565b612108565b60015461036a906001600160a01b031681565b61029160085481565b610291600d5481565b61067e6106793660046137a7565b612191565b60405161029b9190613816565b6102ec6106993660046131be565b6122bb565b60025461036a906001600160a01b031681565b6102ec6106bf3660046131be565b612311565b61070a6106d2366004613899565b6001600160a01b0382165f90815260046020908152604080832054835260038083528184208585520190915290205460ff1692915050565b604051901515815260200161029b565b61072261238a565b600280546001600160a01b0319166001600160a01b0383169081179091556040519081527f6e7665a41605edc0d70f4b991d652755f380754eb092d81ef9ab93664778d59e906020015b60405180910390a150565b335f908152600460205260409020546107ab5760405162461bcd60e51b81526004016107a2906138c3565b60405180910390fd5b335f908152600460209081526040808320548084526003808452828520868652019092529091205460ff16156108235760405162461bcd60e51b815260206004820152601860248201527f5573657220616c7265616479206f6e2064656e796c697374000000000000000060448201526064016107a2565b5f8181526003602081815260408084208685528084018352818520805460ff19166001908117909155938352600201805493840181558452922001839055517f976c693d56f27ba17d902bda80c4fa0416b773fbf268bcb0ee71689234d769ee9061089a9083908590918252602082015260400190565b60405180910390a15050565b6108ae61238a565b805f036108fd5760405162461bcd60e51b815260206004820152601e60248201527f4d696e696d756d206465706f7369742063616e6e6f74206265207a65726f000060448201526064016107a2565b60078190556040518181527fbdde72a6d8d8b42770c9899945ccdce09d0c5c794d3326cdb2d2cca61b12a9fc9060200161076c565b61093a61238a565b60098190556040518181527f88397975d177ce5e18abf3a5fdb8de773e80673d85eeb54f48cfaf688b3d2c3e9060200161076c565b335f9081526004602052604090205461099a5760405162461bcd60e51b81526004016107a2906138c3565b335f908152600460208181526040808420548785526005835281852080546001600160a01b031686529383528185205480865260038085528387208388520190935293205460ff1615610a2f5760405162461bcd60e51b815260206004820181905260248201527f4f6e72616d706572206f6e206465706f7369746f7227732064656e796c69737460448201526064016107a2565b6009545f848152600360205260409020600101544291610a4e9161390e565b1115610aa85760405162461bcd60e51b8152602060048201526024808201527f4f6e2072616d7020636f6f6c20646f776e20706572696f64206e6f7420656c616044820152631c1cd95960e21b60648201526084016107a2565b5f8381526003602052604090205415610b035760405162461bcd60e51b815260206004820152601860248201527f496e74656e74207374696c6c206f75747374616e64696e67000000000000000060448201526064016107a2565b828103610b525760405162461bcd60e51b815260206004820152601e60248201527f53656e6465722063616e6e6f7420626520746865206465706f7369746f72000060448201526064016107a2565b81546001600160a01b0316610ba25760405162461bcd60e51b815260206004820152601660248201527511195c1bdcda5d08191bd95cc81b9bdd08195e1a5cdd60521b60448201526064016107a2565b5f8511610c005760405162461bcd60e51b815260206004820152602660248201527f5369676e616c656420616d6f756e74206d75737420626520677265617465722060448201526507468616e20360d41b60648201526084016107a2565b600854851115610c6f5760405162461bcd60e51b815260206004820152603460248201527f5369676e616c656420616d6f756e74206d757374206265206c657373207468616044820152731b881b585e081bdb8b5c985b5c08185b5bdd5b9d60621b60648201526084016107a2565b6001600160a01b038416610cc55760405162461bcd60e51b815260206004820152601b60248201527f43616e6e6f742073656e6420746f207a65726f2061646472657373000000000060448201526064016107a2565b5f610cd084886123e3565b90508583600501541015610d82575f80610ce98961244d565b9150915087818660050154610cfe919061390e565b1015610d435760405162461bcd60e51b81526020600482015260146024820152734e6f7420656e6f756768206c697175696469747960601b60448201526064016107a2565b610d4d85836125e6565b80856005015f828254610d60919061390e565b9250508190555080856006015f828254610d7a9190613921565b909155505050505b6040805160a0810182523381526001600160a01b0387811660208084019182528385018c8152606085018c815242608087019081525f89815260068552888120975188549088166001600160a01b0319918216178955955160018901805491909816961695909517909555905160028601555160038086019190915592516004909401939093558781529152908120829055600584018054889290610e28908490613921565b9250508190555085836006015f828254610e42919061390e565b90915550506008830180546001810182555f91825260209182902001829055604080516001600160a01b038816815291820188905242908201528490889083907f1a1292e170a0f000ccf956afba79bee0f9ec1d81f3f901c1d4d11e1f336aae109060600160405180910390a450505050505050565b610ec061238a565b805f03610f235760405162461bcd60e51b815260206004820152602b60248201527f4d617820696e74656e742065787069726174696f6e20706572696f642063616e60448201526a6e6f74206265207a65726f60a81b60648201526084016107a2565b600a8190556040518181527f55e3f6b95de9a0ec782f892e93fafe4e56be0696df204ddf8e0a40a9a713a8039060200161076c565b6001600160a01b0381165f9081526004602090815260408083205483526003825291829020600201805483518184028101840190945280845260609392830182828015610fc257602002820191905f5260205f20905b815481526020019060010190808311610fae575b50505050509050919050565b610fd661238a565b600254600160a01b900460ff16156110265760405162461bcd60e51b8152602060048201526013602482015272105b1c9958591e481a5b9a5d1a585b1a5e9959606a1b60448201526064016107a2565b600180546001600160a01b039384166001600160a01b0319909116179055600280546001600160a81b0319169190921617600160a01b179055565b335f9081526004602052604090205461108c5760405162461bcd60e51b81526004016107a2906138c3565b6040516304b98e1d60e31b81525f906001600160a01b037f000000000000000000000000000000000000000000000000000000000000000016906325cc70e8906110da908790600401613934565b602060405180830381865afa1580156110f5573d5f803e3d5ffd5b505050506040513d601f19601f820116820180604052508101906111199190613942565b335f9081526004602052604090205490915081146111795760405162461bcd60e51b815260206004820181905260248201527f53656e646572206d75737420626520746865206163636f756e74206f776e657260448201526064016107a2565b335f908152600460205260409020600101546005116111da5760405162461bcd60e51b815260206004820152601e60248201527f4d6178696d756d206465706f73697420616d6f756e742072656163686564000060448201526064016107a2565b60075483101561124b5760405162461bcd60e51b815260206004820152603660248201527f4465706f73697420616d6f756e74206d757374206265206772656174657220746044820152751a185b881b5a5b8819195c1bdcda5d08185b5bdd5b9d60521b60648201526084016107a2565b5f82116112a85760405162461bcd60e51b815260206004820152602560248201527f5265636569766520616d6f756e74206d75737420626520677265617465722074604482015264068616e20360dc1b60648201526084016107a2565b5f826112bc670de0b6b3a764000086613959565b6112c69190613984565b600d80549192505f9190826112da83613997565b90915550335f81815260046020908152604080832060019081018054808301825590855283852001869055815160e0810183529485528483018c81528583018c9052606086018c90526080860185905260a086018990528251858152808501845260c087015286855260059093529220835181546001600160a01b0319166001600160a01b039091161781559051939450919261137b918301906003613020565b5060408201516004820155606082015160058201556080820151600682015560a0820151600782015560c082015180516113bf91600884019160209091019061305e565b50506040516323b872dd60e01b8152336004820152306024820152604481018790527f00000000000000000000000000000000000000000000000000000000000000006001600160a01b031691506323b872dd906064016020604051808303815f875af1158015611432573d5f803e3d5ffd5b505050506040513d601f19601f8201168201806040525081019061145691906139af565b506040805186815260208101849052849183917f36b046df2c296f2a5a78570d5e52a92773cbb616825b1af59a49a4d02df2b109910160405180910390a3505050505050565b6001600160a01b0381165f9081526004602090815260408083206001018054825181850281018501909352808352606094938301828280156114fb57602002820191905f5260205f20905b8154815260200190600101908083116114e7575b50505050509050805167ffffffffffffffff81111561151c5761151c6132a7565b60405190808252806020026020018201604052801561155557816020015b611542613096565b81526020019060019003908161153a5790505b5091505f5b81518110156116c3575f828281518110611576576115766139ce565b6020908102919091018101515f818152600583526040808220815160e08101835281546001600160a01b0316815282516060810190935293955091938301906001830160038282826020028201915b8154815260200190600101908083116115c55750505050508152602001600482015481526020016005820154815260200160068201548152602001600782015481526020016008820180548060200260200160405190810160405280929190818152602001828054801561165657602002820191905f5260205f20905b815481526020019060010190808311611642575b50505050508152505090505f61166b8361244d565b9150506040518060600160405280848152602001838152602001828460600151611695919061390e565b8152508685815181106116aa576116aa6139ce565b602002602001018190525050505080600101905061155a565b5050919050565b6116d261238a565b66b1a2bc2ec500008111156117345760405162461bcd60e51b815260206004820152602260248201527f4665652063616e6e6f742062652067726561746572207468616e206d61782066604482015261656560f01b60648201526084016107a2565b600b8190556040518181527f44f48e1b871e6db1e909a7b253b054b7150a0b4ddf4d59b159c827d82e7256709060200161076c565b5f805b82518110156118be575f838281518110611788576117886139ce565b6020908102919091018101515f818152600590925260409091208054919250906001600160a01b031633146117ff5760405162461bcd60e51b815260206004820152601c60248201527f53656e646572206d75737420626520746865206465706f7369746f720000000060448201526064016107a2565b5f8061180a8461244d565b9150915061181883836125e6565b808360050154611828919061390e565b611832908761390e565b955080836006015f8282546118479190613921565b9091555050825460058401546001600160a01b039091169085907fae1f357660ab777dcfd38c0ab6357834684ec26289ecfa07ec65dbf6c3c643129061188e90859061390e565b60405190815260200160405180910390a35f60058401556118af848461263e565b5050505080600101905061176c565b5060405163a9059cbb60e01b8152336004820152602481018290527f00000000000000000000000000000000000000000000000000000000000000006001600160a01b03169063a9059cbb906044016020604051808303815f875af1158015611929573d5f803e3d5ffd5b505050506040513d601f19601f8201168201806040525081019061194d91906139af565b505050565b61195a61238a565b6119635f612728565b565b6060815167ffffffffffffffff811115611981576119816132a7565b6040519080825280602002602001820160405280156119ba57816020015b6119a7613096565b81526020019060019003908161199f5790505b5090505f5b8251811015611b28575f8382815181106119db576119db6139ce565b6020908102919091018101515f818152600583526040808220815160e08101835281546001600160a01b0316815282516060810190935293955091938301906001830160038282826020028201915b815481526020019060010190808311611a2a57505050505081526020016004820154815260200160058201548152602001600682015481526020016007820154815260200160088201805480602002602001604051908101604052809291908181526020018280548015611abb57602002820191905f5260205f20905b815481526020019060010190808311611aa7575b50505050508152505090505f611ad08361244d565b9150506040518060600160405280848152602001838152602001828460600151611afa919061390e565b815250858581518110611b0f57611b0f6139ce565b60200260200101819052505050508060010190506119bf565b50919050565b604080518082019091525f8152606060208201526001600160a01b0382165f90815260046020908152604091829020825180840184528154815260018201805485518186028101860190965280865291949293858101939290830182828015611bb457602002820191905f5260205f20905b815481526020019060010190808311611ba0575b5050505050815250509050919050565b611bcc61238a565b805f03611c255760405162461bcd60e51b815260206004820152602160248201527f4d6178206f6e2072616d7020616d6f756e742063616e6e6f74206265207a65726044820152606f60f81b60648201526084016107a2565b60088190556040518181527fcab6b49ca21dd111cf4a55d507bbe89dd12d69216e28247060d4b2163ca41b399060200161076c565b335f90815260046020526040902054611c855760405162461bcd60e51b81526004016107a2906138c3565b335f908152600460209081526040808320548084526003808452828520868652019092529091205460ff16611cf35760405162461bcd60e51b8152602060048201526014602482015273155cd95c881b9bdd081bdb8819195b9e5b1a5cdd60621b60448201526064016107a2565b5f8181526003602081815260408084208685528084018352908420805460ff191690559284905252611d289060020183612777565b60408051828152602081018490527f8935205b1b382095d2d95efbb36f81a11a34c548d45af26adc1a02d2f2bb546f910161089a565b611d666130bb565b5f82815260056020908152604091829020825160e08101845281546001600160a01b031681528351606081019485905290939192840191600184019060039082845b815481526020019060010190808311611da857505050505081526020016004820154815260200160058201548152602001600682015481526020016007820154815260200160088201805480602002602001604051908101604052809291908181526020018280548015611bb457602002820191905f5260205f2090815481526020019060010190808311611ba0575050505050815250509050919050565b611e4f61238a565b6001600160a01b038116611eb15760405162461bcd60e51b8152602060048201526024808201527f46656520726563697069656e742063616e6e6f74206265207a65726f206164646044820152637265737360e01b60648201526084016107a2565b600c80546001600160a01b0319166001600160a01b0383169081179091556040519081527f594ad6ee98bfc0c73e6d15fd4e762502f359e05d26907b7fa1ff82eb5e99f6e49060200161076c565b335f9081526004602052604090205415611f6b5760405162461bcd60e51b815260206004820152602760248201527f4163636f756e7420616c7265616479206173736f6369617465642077697468206044820152661d995b9b5bd25960ca1b60648201526084016107a2565b5f611f7885858585612896565b335f818152600460205260408082208490555192935083927f672144042732f7b1cdbf0772464ae545aedd7f41d38b8487dafd9085496a5d519190a35050505050565b5f818152600660209081526040808320815160a08101835281546001600160a01b039081168252600183015416938101939093526002810154918301919091526003810154606083015260040154608082018190529091036120575760405162461bcd60e51b8152602060048201526015602482015274125b9d195b9d08191bd95cc81b9bdd08195e1a5cdd605a1b60448201526064016107a2565b80516001600160a01b031633146120b05760405162461bcd60e51b815260206004820152601c60248201527f53656e646572206d75737420626520746865206f6e2d72616d7065720000000060448201526064016107a2565b6040808201515f9081526005602052206120ca8184612931565b8160600151816005015f8282546120e1919061390e565b909155505060608201516006820180545f906120fe908490613921565b9091555050505050565b5f805f61211787878787612a08565b9250925092506121278282612931565b8260600151826006015f82825461213e9190613921565b909155505082516001600160a01b03165f9081526004602090815260408083205483526003909152908190204260019091015583015161217e908361263e565b6121888184612d0e565b50505050505050565b60605f8267ffffffffffffffff8111156121ad576121ad6132a7565b6040519080825280602002602001820160405280156121e657816020015b6121d3613102565b8152602001906001900390816121cb5790505b5090505f5b838110156122b1575f60065f878785818110612209576122096139ce565b602090810292909201358352508181019290925260409081015f908120825160a08101845281546001600160a01b03908116825260018301548116828701526002830154828601526003830154606083015260049283015460808301528451808601865282815282519091168452918552929091205492810192909252845190925084908490811061229d5761229d6139ce565b6020908102919091010152506001016121eb565b5090505b92915050565b6122c361238a565b600180546001600160a01b0319166001600160a01b0383169081179091556040519081527f73d3ac111d5926fbfd68ade03832f0b1a4daef0cd0effc1fa0829264bcc57c419060200161076c565b61231961238a565b6001600160a01b03811661237e5760405162461bcd60e51b815260206004820152602660248201527f4f776e61626c653a206e6577206f776e657220697320746865207a65726f206160448201526564647265737360d01b60648201526084016107a2565b61238781612728565b50565b5f546001600160a01b031633146119635760405162461bcd60e51b815260206004820181905260248201527f4f776e61626c653a2063616c6c6572206973206e6f7420746865206f776e657260448201526064016107a2565b60408051602081018490529081018290524260608201525f90819060800160408051601f19818403018152919052805160209091012090506124457f30644e72e131a029b85045b68181585d2833e84879b9709143e1f593f0000001826139e2565b949350505050565b5f81815260056020908152604080832060080180548251818502810185019093528083526060949384939291908301828280156124a757602002820191905f5260205f20905b815481526020019060010190808311612493575b50505050509050805167ffffffffffffffff8111156124c8576124c86132a7565b6040519080825280602002602001820160405280156124f1578160200160208202803683370190505b5092505f5b81518110156125df575f60065f848481518110612515576125156139ce565b60209081029190910181015182528181019290925260409081015f20815160a08101835281546001600160a01b03908116825260018301541693810193909352600281015491830191909152600381015460608301526004015460808201819052600a5491925042916125879161390e565b10156125d65782828151811061259f5761259f6139ce565b60200260200101518583815181106125b9576125b96139ce565b602090810291909101015260608101516125d3908561390e565b93505b506001016124f6565b5050915091565b5f5b815181101561194d575f801b828281518110612606576126066139ce565b6020026020010151146126365761263683838381518110612629576126296139ce565b6020026020010151612931565b6001016125e8565b5f81600501548260060154612653919061390e565b9050805f0361194d5781546001600160a01b03165f9081526004602052604090206126819060010184612ee3565b8154604080518581526001600160a01b0390921660208301527f8ac07cc6e38c6222dd0309c80353c1962354bacf222b825d7401cc80e93ff3cc910160405180910390a15f83815260056020526040812080546001600160a01b031916815560018101829055600281018290556003810182905590600482015f9055600582015f9055600682015f9055600782015f9055600882015f6127219190613121565b5050505050565b5f80546001600160a01b038381166001600160a01b0319831681178455604051919092169283917f8be0079c531659141344cd1fd0a4f28419497f9722a3daafe3b4186f6b6457e09190a35050565b5f806127d0848054806020026020016040519081016040528092919081815260200182805480156127c557602002820191905f5260205f20905b8154815260200190600101908083116127b1575b505050505084612f85565b91509150806128195760405162461bcd60e51b8152602060048201526015602482015274313cba32b99999103737ba1034b71030b93930bc9760591b60448201526064016107a2565b83545f9061282990600190613921565b905080831461286b57848181548110612844576128446139ce565b905f5260205f20015485848154811061285f5761285f6139ce565b5f918252602090912001555b8480548061287b5761287b6139f5565b600190038181905f5260205f20015f90559055505b50505050565b6001546040805160808101825286815260208101869052808201859052606081018490529051630be4767960e11b81525f9283926001600160a01b03909116916317c8ecf2916128e891600401613a58565b602060405180830381865afa158015612903573d5f803e3d5ffd5b505050506040513d601f19601f820116820180604052508101906129279190613942565b9695505050505050565b5f818152600660208181526040808420815160a08101835281546001600160a01b039081168083526001840180549092168387015260028401805484870152600380860180546060870152600480880180546080890152948c528952878b20548b529088529589208990558989529690955282546001600160a01b0319908116909355805490921690915592849055839055919091556129d46008840183612777565b604080820151905183907fe8a865b4bab023c399cbd1f2cdd0df2199beb6e5012a4bd2d7691cf7e4199d5a905f90a3505050565b612a1061313c565b60025460408051608081018252878152602081018790528082018690526060810185905290516347f055c760e11b81525f928392839283928392839283926001600160a01b031691638fe0ab8e91612a6b9190600401613ac5565b60a0604051808303815f875af1158015612a87573d5f803e3d5ffd5b505050506040513d601f19601f82011682018060405250810190612aab9190613b28565b5f818152600660209081526040808320815160a08101835281546001600160a01b03908116825260018301548116828601526002830154828501819052600384015460608401526004909301546080830152918552600590935292208151979c50959a509398509196509450909216612b5e5760405162461bcd60e51b8152602060048201526015602482015274125b9d195b9d08191bd95cc81b9bdd08195e1a5cdd605a1b60448201526064016107a2565b8582608001511115612bbd5760405162461bcd60e51b815260206004820152602260248201527f496e74656e7420776173206e6f742063726561746564206265666f72652073656044820152611b9960f21b60648201526084016107a2565b80546001600160a01b03165f908152600460205260409020548514612c245760405162461bcd60e51b815260206004820152601b60248201527f4f666672616d70657220696420646f6573206e6f74206d61746368000000000060448201526064016107a2565b81516001600160a01b03165f908152600460205260409020548414612c8b5760405162461bcd60e51b815260206004820152601a60248201527f4f6e72616d70657220696420646f6573206e6f74206d6174636800000000000060448201526064016107a2565b8060070154670de0b6b3a76400008360600151612ca89190613959565b612cb29190613984565b871015612cfa5760405162461bcd60e51b81526020600482015260166024820152750a0c2f2dacadce840eec2e640dcdee840cadcdeeaced60531b60448201526064016107a2565b909d909c50909a5098505050505050505050565b5f600b545f14612dd557670de0b6b3a7640000600b548360600151612d339190613959565b612d3d9190613984565b600c5460405163a9059cbb60e01b81526001600160a01b039182166004820152602481018390529192507f0000000000000000000000000000000000000000000000000000000000000000169063a9059cbb906044016020604051808303815f875af1158015612daf573d5f803e3d5ffd5b505050506040513d601f19601f82011682018060405250810190612dd391906139af565b505b5f818360600151612de69190613921565b602084015160405163a9059cbb60e01b81526001600160a01b039182166004820152602481018390529192507f0000000000000000000000000000000000000000000000000000000000000000169063a9059cbb906044016020604051808303815f875af1158015612e5a573d5f803e3d5ffd5b505050506040513d601f19601f82011682018060405250810190612e7e91906139af565b50825160408085015160208087015183516001600160a01b03918216815291820186905292810186905291909216919086907ffa03438194e61c243c6bb5349f1e1dc674431b86f119b5e3b2b327bc43446bce9060600160405180910390a450505050565b5f80612f3c84805480602002602001604051908101604052809291908181526020018280548015612f3157602002820191905f5260205f20905b815481526020019060010190808311612f1d575b505050505084612fdb565b91509150806128195760405162461bcd60e51b81526020600482015260156024820152743ab4b73a191a9b103737ba1034b71030b93930bc9760591b60448201526064016107a2565b81515f908190815b81811015612fca5784868281518110612fa857612fa86139ce565b602002602001015103612fc257925060019150612fd49050565b600101612f8d565b505f195f92509250505b9250929050565b81515f908190815b81811015612fca5784868281518110612ffe57612ffe6139ce565b60200260200101510361301857925060019150612fd49050565b600101612fe3565b826003810192821561304e579160200282015b8281111561304e578251825591602001919060010190613033565b5061305a929150613178565b5090565b828054828255905f5260205f2090810192821561304e579160200282018281111561304e578251825591602001919060010190613033565b60405180606001604052805f81526020016130af6130bb565b81526020015f81525090565b6040518060e001604052805f6001600160a01b031681526020016130dd61318c565b81526020015f81526020015f81526020015f81526020015f8152602001606081525090565b604051806040016040528061311561313c565b81525f60209091015290565b5080545f8255905f5260205f20908101906123879190613178565b6040518060a001604052805f6001600160a01b031681526020015f6001600160a01b031681526020015f81526020015f81526020015f81525090565b5b8082111561305a575f8155600101613179565b60405180606001604052806003906020820280368337509192915050565b6001600160a01b0381168114612387575f80fd5b5f602082840312156131ce575f80fd5b81356131d9816131aa565b9392505050565b5f602082840312156131f0575f80fd5b5035919050565b5f805f60608486031215613209575f80fd5b83359250602084013591506040840135613222816131aa565b809150509250925092565b602080825282518282018190525f9190848201906040850190845b8181101561326457835183529284019291840191600101613248565b50909695505050505050565b5f8060408385031215613281575f80fd5b823561328c816131aa565b9150602083013561329c816131aa565b809150509250929050565b634e487b7160e01b5f52604160045260245ffd5b6040805190810167ffffffffffffffff811182821017156132de576132de6132a7565b60405290565b604051601f8201601f1916810167ffffffffffffffff8111828210171561330d5761330d6132a7565b604052919050565b5f805f60a08486031215613327575f80fd5b84601f850112613335575f80fd5b6040516060810181811067ffffffffffffffff82111715613358576133586132a7565b60405280606086018781111561336c575f80fd5b865b8181101561338657803583526020928301920161336e565b5091979135965050608094909401359392505050565b805f5b600381101561289057815184526020938401939091019060010161339f565b5f61012080840160018060a01b0384511685526020808501516133e4602088018261339c565b5060408501516080870152606085015160a0870152608085015160c087015260a085015160e087015260c0850151836101008801528293508051808452610140880194506020820193505f91505b808210156134525783518552938201939282019260019190910190613432565b50929695505050505050565b5f60208083018184528085518083526040925060408601915060408160051b8701018488015f5b838110156134d157603f19898403018552815160608151855288820151818a8701526134b3828701826133be565b92890151958901959095525094870194925090860190600101613485565b509098975050505050505050565b5f60208083850312156134f0575f80fd5b823567ffffffffffffffff80821115613507575f80fd5b818501915085601f83011261351a575f80fd5b81358181111561352c5761352c6132a7565b8060051b915061353d8483016132e4565b8181529183018401918481019088841115613556575f80fd5b938501935b838510156135745784358252938501939085019061355b565b98975050505050505050565b6020808252825182820152828101516040808401528051606084018190525f9291820190839060808601905b808310156135cc57835182529284019260019290920191908401906135ac565b509695505050505050565b602081525f6131d960208301846133be565b5f82601f8301126135f8575f80fd5b6136006132bb565b806040840185811115613611575f80fd5b845b8181101561362b578035845260209384019301613613565b509095945050505050565b5f82601f830112613645575f80fd5b61364d6132bb565b80608084018581111561365e575f80fd5b845b8181101561362b5761367287826135e9565b8452602090930192604001613660565b5f805f806101a0808688031215613697575f80fd5b6136a187876135e9565b94506136b08760408801613636565b93506136bf8760c088016135e9565b92508661011f8701126136d0575f80fd5b60405160a0810181811067ffffffffffffffff821117156136f3576136f36132a7565b604052908601908088831115613707575f80fd5b61010088015b8381101561372557803582526020918201910161370d565b5050809250505092959194509250565b5f805f8061028080868803121561374a575f80fd5b61375487876135e9565b94506137638760408801613636565b93506137728760c088016135e9565b92508661011f870112613783575f80fd5b604051610180810181811067ffffffffffffffff821117156136f3576136f36132a7565b5f80602083850312156137b8575f80fd5b823567ffffffffffffffff808211156137cf575f80fd5b818501915085601f8301126137e2575f80fd5b8135818111156137f0575f80fd5b8660208260051b8501011115613804575f80fd5b60209290920196919550909350505050565b602080825282518282018190525f919060409081850190868401855b8281101561388c578151805180516001600160a01b0390811687528882015116888701528681015187870152606080820151908701526080908101519086015286015160a085015260c09093019290850190600101613832565b5091979650505050505050565b5f80604083850312156138aa575f80fd5b82356138b5816131aa565b946020939093013593505050565b6020808252601e908201527f43616c6c6572206d757374206265207265676973746572656420757365720000604082015260600190565b634e487b7160e01b5f52601160045260245ffd5b808201808211156122b5576122b56138fa565b818103818111156122b5576122b56138fa565b606081016122b5828461339c565b5f60208284031215613952575f80fd5b5051919050565b80820281158282048414176122b5576122b56138fa565b634e487b7160e01b5f52601260045260245ffd5b5f8261399257613992613970565b500490565b5f600182016139a8576139a86138fa565b5060010190565b5f602082840312156139bf575f80fd5b815180151581146131d9575f80fd5b634e487b7160e01b5f52603260045260245ffd5b5f826139f0576139f0613970565b500690565b634e487b7160e01b5f52603160045260245ffd5b805f5b6002811015612890578151845260209384019390910190600101613a0c565b805f5b600281101561289057613a42848351613a09565b6040939093019260209190910190600101613a2e565b5f6101a082019050613a6b828451613a09565b602080840151613a7e6040850182613a2b565b506040840151613a9160c0850182613a09565b50606084015161010084015f5b6005811015613abb57825182529183019190830190600101613a9e565b5050505092915050565b5f61028082019050613ad8828451613a09565b602080840151613aeb6040850182613a2b565b506040840151613afe60c0850182613a09565b50606084015161010084015f5b600c811015613abb57825182529183019190830190600101613b0b565b5f805f805f60a08688031215613b3c575f80fd5b505083516020850151604086015160608701516080909701519298919750959450909250905056fea2646970667358221220815393abb3a4eb1674544182ab9554bb2f00aea3631e73303e65e6cdb62c2c3764736f6c63430008180033",
  "devdoc": {
    "kind": "dev",
    "methods": {
      "addAccountToDenylist(bytes32)": {
        "params": {
          "_deniedUser": "Poseidon hash of the venmoId being banned"
        }
      },
      "cancelIntent(bytes32)": {
        "params": {
          "_intentHash": "Hash of intent being cancelled"
        }
      },
      "initialize(address,address)": {
        "params": {
          "_registrationProcessor": "Registration processor address",
          "_sendProcessor": "Send processor address"
        }
      },
      "offRamp(uint256[3],uint256,uint256)": {
        "params": {
          "_depositAmount": "The amount of USDC to off-ramp",
          "_packedVenmoId": "The packed venmo id of the account owner (we pack for easy use with poseidon)",
          "_receiveAmount": "The amount of USD to receive"
        }
      },
      "onRamp(uint256[2],uint256[2][2],uint256[2],uint256[12])": {
        "params": {
          "_a": "Parameter of zk proof",
          "_b": "Parameter of zk proof",
          "_c": "Parameter of zk proof",
          "_signals": "Encoded public signals of the zk proof, contains mailserverHash, fromEmail, timestamp, onRamperIdHash,                  nullifier, intentHash"
        }
      },
      "owner()": {
        "details": "Returns the address of the current owner."
      },
      "register(uint256[2],uint256[2][2],uint256[2],uint256[5])": {
        "params": {
          "_a": "Parameter of zk proof",
          "_b": "Parameter of zk proof",
          "_c": "Parameter of zk proof",
          "_signals": "Encoded public signals of the zk proof, contains mailserverHash, fromEmail, userIdHash"
        }
      },
      "removeAccountFromDenylist(bytes32)": {
        "params": {
          "_approvedUser": "Poseidon hash of the venmoId being approved"
        }
      },
      "renounceOwnership()": {
        "details": "Leaves the contract without owner. It will not be possible to call `onlyOwner` functions. Can only be called by the current owner. NOTE: Renouncing ownership will leave the contract without an owner, thereby disabling any functionality that is only available to the owner."
      },
      "setIntentExpirationPeriod(uint256)": {
        "params": {
          "_intentExpirationPeriod": "New intent expiration period"
        }
      },
      "setMaxOnRampAmount(uint256)": {
        "params": {
          "_maxOnRampAmount": "The new max on ramp amount"
        }
      },
      "setMinDepositAmount(uint256)": {
        "params": {
          "_minDepositAmount": "The new minimum deposit amount"
        }
      },
      "setOnRampCooldownPeriod(uint256)": {
        "params": {
          "_onRampCooldownPeriod": "New on-ramp cooldown period"
        }
      },
      "setRegistrationProcessor(address)": {
        "params": {
          "_registrationProcessor": "New registration proccesor address"
        }
      },
      "setSendProcessor(address)": {
        "params": {
          "_sendProcessor": "New send proccesor address"
        }
      },
      "setSustainabilityFee(uint256)": {
        "params": {
          "_fee": "The new sustainability fee in precise units (10**18, ie 10% = 1e17)"
        }
      },
      "setSustainabilityFeeRecipient(address)": {
        "params": {
          "_feeRecipient": "The new fee recipient address"
        }
      },
      "signalIntent(uint256,uint256,address)": {
        "params": {
          "_amount": "The amount of USDC the user wants to on-ramp",
          "_depositId": "The ID of the deposit the on-ramper intends to use for ",
          "_to": "Address to forward funds to (can be same as onRamper)"
        }
      },
      "transferOwnership(address)": {
        "details": "Transfers ownership of the contract to a new account (`newOwner`). Can only be called by the current owner."
      },
      "withdrawDeposit(uint256[])": {
        "params": {
          "_depositIds": "Array of depositIds the depositor is attempting to withdraw"
        }
      }
    },
    "version": 1
  },
  "userdoc": {
    "kind": "user",
    "methods": {
      "addAccountToDenylist(bytes32)": {
        "notice": "Adds a venmoId to a depositor's deny list. If an address associated with the banned venmoId attempts to signal an intent on the user's deposit they will be denied."
      },
      "cancelIntent(bytes32)": {
        "notice": "Only callable by the originator of the intent. Cancels an outstanding intent thus allowing user to signal a new intent. Deposit state is updated to reflect the cancelled intent."
      },
      "initialize(address,address)": {
        "notice": "Initialize Ramp with the addresses of the Processors"
      },
      "offRamp(uint256[3],uint256,uint256)": {
        "notice": "Generates a deposit entry for off-rampers that can then be fulfilled by an on-ramper. This function will not add to previous deposits. Every deposit has it's own unique identifier. User must approve the contract to transfer the deposit amount of USDC."
      },
      "onRamp(uint256[2],uint256[2][2],uint256[2],uint256[12])": {
        "notice": "Anyone can submit an on-ramp transaction, even if caller isn't on-ramper. Upon submission the proof is validated, intent is removed, and deposit state is updated. USDC is transferred to the on-ramper."
      },
      "register(uint256[2],uint256[2][2],uint256[2],uint256[5])": {
        "notice": "Registers a new account by pulling the hash of the account id from the proof and assigning the account owner to the sender of the transaction. One venmo account can be registered to multiple Ethereum addresses."
      },
      "removeAccountFromDenylist(bytes32)": {
        "notice": "Removes a venmoId from a depositor's deny list."
      },
      "setIntentExpirationPeriod(uint256)": {
        "notice": "GOVERNANCE ONLY: Updates the intent expiration period, after this period elapses an intent can be pruned to prevent locking up a depositor's funds."
      },
      "setMaxOnRampAmount(uint256)": {
        "notice": "GOVERNANCE ONLY: Updates the max amount allowed to be on-ramped in each transaction. To on-ramp more than this amount a user must make multiple transactions."
      },
      "setMinDepositAmount(uint256)": {
        "notice": "GOVERNANCE ONLY: Updates the minimum deposit amount a user can specify for off-ramping."
      },
      "setOnRampCooldownPeriod(uint256)": {
        "notice": "GOVERNANCE ONLY: Updates the on-ramp cooldown period, once an on-ramp transaction is completed the user must wait this amount of time before they can signalIntent to on-ramp again."
      },
      "setRegistrationProcessor(address)": {
        "notice": "GOVERNANCE ONLY: Updates the registration processor address used for validating and interpreting zk proofs."
      },
      "setSendProcessor(address)": {
        "notice": "GOVERNANCE ONLY: Updates the send processor address used for validating and interpreting zk proofs."
      },
      "setSustainabilityFee(uint256)": {
        "notice": "GOVERNANCE ONLY: Updates the sustainability fee. This fee is charged to on-rampers upon a successful on-ramp."
      },
      "setSustainabilityFeeRecipient(address)": {
        "notice": "GOVERNANCE ONLY: Updates the recepient of sustainability fees."
      },
      "signalIntent(uint256,uint256,address)": {
        "notice": "Signals intent to pay the depositor defined in the _depositId the _amount * deposit conversionRate off-chain in order to unlock _amount of funds on-chain. Each user can only have one outstanding intent at a time regardless of address (tracked using venmoId). Caller must not be on the depositor's deny list. If there are prunable intents then they will be deleted from the deposit to be able to maintain state hygiene."
      },
      "withdrawDeposit(uint256[])": {
        "notice": "Caller must be the depositor for each depositId in the array, if not whole function fails. Depositor is returned all remaining deposits and any outstanding intents that are expired. If an intent is not expired then those funds will not be returned. Deposit will be deleted as long as there are no more outstanding intents."
      }
    },
    "version": 1
  },
  "storageLayout": {
    "storage": [
      {
        "astId": 7,
        "contract": "contracts/ramps/venmo-v1/Ramp.sol:Ramp",
        "label": "_owner",
        "offset": 0,
        "slot": "0",
        "type": "t_address"
      },
      {
        "astId": 15948,
        "contract": "contracts/ramps/venmo-v1/Ramp.sol:Ramp",
        "label": "registrationProcessor",
        "offset": 0,
        "slot": "1",
        "type": "t_contract(IRegistrationProcessor)18232"
      },
      {
        "astId": 15951,
        "contract": "contracts/ramps/venmo-v1/Ramp.sol:Ramp",
        "label": "sendProcessor",
        "offset": 0,
        "slot": "2",
        "type": "t_contract(ISendProcessor)18270"
      },
      {
        "astId": 15953,
        "contract": "contracts/ramps/venmo-v1/Ramp.sol:Ramp",
        "label": "isInitialized",
        "offset": 20,
        "slot": "2",
        "type": "t_bool"
      },
      {
        "astId": 15958,
        "contract": "contracts/ramps/venmo-v1/Ramp.sol:Ramp",
        "label": "globalAccount",
        "offset": 0,
        "slot": "3",
        "type": "t_mapping(t_bytes32,t_struct(GlobalAccountInfo)15909_storage)"
      },
      {
        "astId": 15963,
        "contract": "contracts/ramps/venmo-v1/Ramp.sol:Ramp",
        "label": "accounts",
        "offset": 0,
        "slot": "4",
        "type": "t_mapping(t_address,t_struct(AccountInfo)15850_storage)"
      },
      {
        "astId": 15968,
        "contract": "contracts/ramps/venmo-v1/Ramp.sol:Ramp",
        "label": "deposits",
        "offset": 0,
        "slot": "5",
        "type": "t_mapping(t_uint256,t_struct(Deposit)15868_storage)"
      },
      {
        "astId": 15973,
        "contract": "contracts/ramps/venmo-v1/Ramp.sol:Ramp",
        "label": "intents",
        "offset": 0,
        "slot": "6",
        "type": "t_mapping(t_bytes32,t_struct(Intent)15887_storage)"
      },
      {
        "astId": 15975,
        "contract": "contracts/ramps/venmo-v1/Ramp.sol:Ramp",
        "label": "minDepositAmount",
        "offset": 0,
        "slot": "7",
        "type": "t_uint256"
      },
      {
        "astId": 15977,
        "contract": "contracts/ramps/venmo-v1/Ramp.sol:Ramp",
        "label": "maxOnRampAmount",
        "offset": 0,
        "slot": "8",
        "type": "t_uint256"
      },
      {
        "astId": 15979,
        "contract": "contracts/ramps/venmo-v1/Ramp.sol:Ramp",
        "label": "onRampCooldownPeriod",
        "offset": 0,
        "slot": "9",
        "type": "t_uint256"
      },
      {
        "astId": 15981,
        "contract": "contracts/ramps/venmo-v1/Ramp.sol:Ramp",
        "label": "intentExpirationPeriod",
        "offset": 0,
        "slot": "10",
        "type": "t_uint256"
      },
      {
        "astId": 15983,
        "contract": "contracts/ramps/venmo-v1/Ramp.sol:Ramp",
        "label": "sustainabilityFee",
        "offset": 0,
        "slot": "11",
        "type": "t_uint256"
      },
      {
        "astId": 15985,
        "contract": "contracts/ramps/venmo-v1/Ramp.sol:Ramp",
        "label": "sustainabilityFeeRecipient",
        "offset": 0,
        "slot": "12",
        "type": "t_address"
      },
      {
        "astId": 15987,
        "contract": "contracts/ramps/venmo-v1/Ramp.sol:Ramp",
        "label": "depositCounter",
        "offset": 0,
        "slot": "13",
        "type": "t_uint256"
      }
    ],
    "types": {
      "t_address": {
        "encoding": "inplace",
        "label": "address",
        "numberOfBytes": "20"
      },
      "t_array(t_bytes32)dyn_storage": {
        "base": "t_bytes32",
        "encoding": "dynamic_array",
        "label": "bytes32[]",
        "numberOfBytes": "32"
      },
      "t_array(t_uint256)3_storage": {
        "base": "t_uint256",
        "encoding": "inplace",
        "label": "uint256[3]",
        "numberOfBytes": "96"
      },
      "t_array(t_uint256)dyn_storage": {
        "base": "t_uint256",
        "encoding": "dynamic_array",
        "label": "uint256[]",
        "numberOfBytes": "32"
      },
      "t_bool": {
        "encoding": "inplace",
        "label": "bool",
        "numberOfBytes": "1"
      },
      "t_bytes32": {
        "encoding": "inplace",
        "label": "bytes32",
        "numberOfBytes": "32"
      },
      "t_contract(IRegistrationProcessor)18232": {
        "encoding": "inplace",
        "label": "contract IRegistrationProcessor",
        "numberOfBytes": "20"
      },
      "t_contract(ISendProcessor)18270": {
        "encoding": "inplace",
        "label": "contract ISendProcessor",
        "numberOfBytes": "20"
      },
      "t_mapping(t_address,t_struct(AccountInfo)15850_storage)": {
        "encoding": "mapping",
        "key": "t_address",
        "label": "mapping(address => struct Ramp.AccountInfo)",
        "numberOfBytes": "32",
        "value": "t_struct(AccountInfo)15850_storage"
      },
      "t_mapping(t_bytes32,t_bool)": {
        "encoding": "mapping",
        "key": "t_bytes32",
        "label": "mapping(bytes32 => bool)",
        "numberOfBytes": "32",
        "value": "t_bool"
      },
      "t_mapping(t_bytes32,t_struct(GlobalAccountInfo)15909_storage)": {
        "encoding": "mapping",
        "key": "t_bytes32",
        "label": "mapping(bytes32 => struct Ramp.GlobalAccountInfo)",
        "numberOfBytes": "32",
        "value": "t_struct(GlobalAccountInfo)15909_storage"
      },
      "t_mapping(t_bytes32,t_struct(Intent)15887_storage)": {
        "encoding": "mapping",
        "key": "t_bytes32",
        "label": "mapping(bytes32 => struct Ramp.Intent)",
        "numberOfBytes": "32",
        "value": "t_struct(Intent)15887_storage"
      },
      "t_mapping(t_uint256,t_struct(Deposit)15868_storage)": {
        "encoding": "mapping",
        "key": "t_uint256",
        "label": "mapping(uint256 => struct Ramp.Deposit)",
        "numberOfBytes": "32",
        "value": "t_struct(Deposit)15868_storage"
      },
      "t_struct(AccountInfo)15850_storage": {
        "encoding": "inplace",
        "label": "struct Ramp.AccountInfo",
        "members": [
          {
            "astId": 15846,
            "contract": "contracts/ramps/venmo-v1/Ramp.sol:Ramp",
            "label": "venmoIdHash",
            "offset": 0,
            "slot": "0",
            "type": "t_bytes32"
          },
          {
            "astId": 15849,
            "contract": "contracts/ramps/venmo-v1/Ramp.sol:Ramp",
            "label": "deposits",
            "offset": 0,
            "slot": "1",
            "type": "t_array(t_uint256)dyn_storage"
          }
        ],
        "numberOfBytes": "64"
      },
      "t_struct(DenyList)15901_storage": {
        "encoding": "inplace",
        "label": "struct Ramp.DenyList",
        "members": [
          {
            "astId": 15896,
            "contract": "contracts/ramps/venmo-v1/Ramp.sol:Ramp",
            "label": "deniedUsers",
            "offset": 0,
            "slot": "0",
            "type": "t_array(t_bytes32)dyn_storage"
          },
          {
            "astId": 15900,
            "contract": "contracts/ramps/venmo-v1/Ramp.sol:Ramp",
            "label": "isDenied",
            "offset": 0,
            "slot": "1",
            "type": "t_mapping(t_bytes32,t_bool)"
          }
        ],
        "numberOfBytes": "64"
      },
      "t_struct(Deposit)15868_storage": {
        "encoding": "inplace",
        "label": "struct Ramp.Deposit",
        "members": [
          {
            "astId": 15852,
            "contract": "contracts/ramps/venmo-v1/Ramp.sol:Ramp",
            "label": "depositor",
            "offset": 0,
            "slot": "0",
            "type": "t_address"
          },
          {
            "astId": 15856,
            "contract": "contracts/ramps/venmo-v1/Ramp.sol:Ramp",
            "label": "packedVenmoId",
            "offset": 0,
            "slot": "1",
            "type": "t_array(t_uint256)3_storage"
          },
          {
            "astId": 15858,
            "contract": "contracts/ramps/venmo-v1/Ramp.sol:Ramp",
            "label": "depositAmount",
            "offset": 0,
            "slot": "4",
            "type": "t_uint256"
          },
          {
            "astId": 15860,
            "contract": "contracts/ramps/venmo-v1/Ramp.sol:Ramp",
            "label": "remainingDeposits",
            "offset": 0,
            "slot": "5",
            "type": "t_uint256"
          },
          {
            "astId": 15862,
            "contract": "contracts/ramps/venmo-v1/Ramp.sol:Ramp",
            "label": "outstandingIntentAmount",
            "offset": 0,
            "slot": "6",
            "type": "t_uint256"
          },
          {
            "astId": 15864,
            "contract": "contracts/ramps/venmo-v1/Ramp.sol:Ramp",
            "label": "conversionRate",
            "offset": 0,
            "slot": "7",
            "type": "t_uint256"
          },
          {
            "astId": 15867,
            "contract": "contracts/ramps/venmo-v1/Ramp.sol:Ramp",
            "label": "intentHashes",
            "offset": 0,
            "slot": "8",
            "type": "t_array(t_bytes32)dyn_storage"
          }
        ],
        "numberOfBytes": "288"
      },
      "t_struct(GlobalAccountInfo)15909_storage": {
        "encoding": "inplace",
        "label": "struct Ramp.GlobalAccountInfo",
        "members": [
          {
            "astId": 15903,
            "contract": "contracts/ramps/venmo-v1/Ramp.sol:Ramp",
            "label": "currentIntentHash",
            "offset": 0,
            "slot": "0",
            "type": "t_bytes32"
          },
          {
            "astId": 15905,
            "contract": "contracts/ramps/venmo-v1/Ramp.sol:Ramp",
            "label": "lastOnrampTimestamp",
            "offset": 0,
            "slot": "1",
            "type": "t_uint256"
          },
          {
            "astId": 15908,
            "contract": "contracts/ramps/venmo-v1/Ramp.sol:Ramp",
            "label": "denyList",
            "offset": 0,
            "slot": "2",
            "type": "t_struct(DenyList)15901_storage"
          }
        ],
        "numberOfBytes": "128"
      },
      "t_struct(Intent)15887_storage": {
        "encoding": "inplace",
        "label": "struct Ramp.Intent",
        "members": [
          {
            "astId": 15878,
            "contract": "contracts/ramps/venmo-v1/Ramp.sol:Ramp",
            "label": "onRamper",
            "offset": 0,
            "slot": "0",
            "type": "t_address"
          },
          {
            "astId": 15880,
            "contract": "contracts/ramps/venmo-v1/Ramp.sol:Ramp",
            "label": "to",
            "offset": 0,
            "slot": "1",
            "type": "t_address"
          },
          {
            "astId": 15882,
            "contract": "contracts/ramps/venmo-v1/Ramp.sol:Ramp",
            "label": "deposit",
            "offset": 0,
            "slot": "2",
            "type": "t_uint256"
          },
          {
            "astId": 15884,
            "contract": "contracts/ramps/venmo-v1/Ramp.sol:Ramp",
            "label": "amount",
            "offset": 0,
            "slot": "3",
            "type": "t_uint256"
          },
          {
            "astId": 15886,
            "contract": "contracts/ramps/venmo-v1/Ramp.sol:Ramp",
            "label": "intentTimestamp",
            "offset": 0,
            "slot": "4",
            "type": "t_uint256"
          }
        ],
        "numberOfBytes": "160"
      },
      "t_uint256": {
        "encoding": "inplace",
        "label": "uint256",
        "numberOfBytes": "32"
      }
    }
  }
}