{
  "address": "0x270fBc6A0f1007eB41863237Eefb773795fd1F9C",
  "abi": [
    {
      "inputs": [
        {
          "internalType": "address",
          "name": "_ramp",
          "type": "address"
        },
        {
          "internalType": "contract INullifierRegistry",
          "name": "_nullifierRegistry",
          "type": "address"
        },
        {
          "internalType": "uint256",
          "name": "_timestampBuffer",
          "type": "uint256"
        },
        {
          "internalType": "string",
          "name": "_endpoint",
          "type": "string"
        },
        {
          "internalType": "string",
          "name": "_host",
          "type": "string"
        }
      ],
      "stateMutability": "nonpayable",
      "type": "constructor"
    },
    {
      "anonymous": false,
      "inputs": [
        {
          "indexed": true,
          "internalType": "address",
          "name": "previousOwner",
          "type": "address"
        },
        {
          "indexed": true,
          "internalType": "address",
          "name": "newOwner",
          "type": "address"
        }
      ],
      "name": "OwnershipTransferred",
      "type": "event"
    },
    {
      "inputs": [],
      "name": "PAYMENT_STATUS",
      "outputs": [
        {
          "internalType": "bytes32",
          "name": "",
          "type": "bytes32"
        }
      ],
      "stateMutability": "view",
      "type": "function"
    },
    {
      "inputs": [],
      "name": "endpoint",
      "outputs": [
        {
          "internalType": "string",
          "name": "",
          "type": "string"
        }
      ],
      "stateMutability": "view",
      "type": "function"
    },
    {
      "inputs": [],
      "name": "host",
      "outputs": [
        {
          "internalType": "string",
          "name": "",
          "type": "string"
        }
      ],
      "stateMutability": "view",
      "type": "function"
    },
    {
      "inputs": [],
      "name": "nullifierRegistry",
      "outputs": [
        {
          "internalType": "contract INullifierRegistry",
          "name": "",
          "type": "address"
        }
      ],
      "stateMutability": "view",
      "type": "function"
    },
    {
      "inputs": [],
      "name": "owner",
      "outputs": [
        {
          "internalType": "address",
          "name": "",
          "type": "address"
        }
      ],
      "stateMutability": "view",
      "type": "function"
    },
    {
      "inputs": [
        {
          "components": [
            {
              "components": [
                {
                  "internalType": "string",
                  "name": "endpoint",
                  "type": "string"
                },
                {
                  "internalType": "string",
                  "name": "host",
                  "type": "string"
                },
                {
                  "internalType": "string",
                  "name": "transferId",
                  "type": "string"
                },
                {
                  "internalType": "string",
                  "name": "recipientId",
                  "type": "string"
                },
                {
                  "internalType": "string",
                  "name": "amount",
                  "type": "string"
                },
                {
                  "internalType": "string",
                  "name": "currencyId",
                  "type": "string"
                },
                {
                  "internalType": "string",
                  "name": "status",
                  "type": "string"
                },
                {
                  "internalType": "string",
                  "name": "timestamp",
                  "type": "string"
                },
                {
                  "internalType": "uint256",
                  "name": "intentHash",
                  "type": "uint256"
                },
                {
                  "internalType": "uint256",
                  "name": "notaryKeyHash",
                  "type": "uint256"
                }
              ],
              "internalType": "struct IRevolutSendProcessor.SendData",
              "name": "public_values",
              "type": "tuple"
            },
            {
              "internalType": "bytes",
              "name": "proof",
              "type": "bytes"
            }
          ],
          "internalType": "struct IRevolutSendProcessor.SendProof",
          "name": "_proof",
          "type": "tuple"
        },
        {
          "internalType": "address",
          "name": "_verifierSigningKey",
          "type": "address"
        }
      ],
      "name": "processProof",
      "outputs": [
        {
          "internalType": "uint256",
          "name": "amount",
          "type": "uint256"
        },
        {
          "internalType": "uint256",
          "name": "timestamp",
          "type": "uint256"
        },
        {
          "internalType": "bytes32",
          "name": "offRamperId",
          "type": "bytes32"
        },
        {
          "internalType": "bytes32",
          "name": "currencyId",
          "type": "bytes32"
        },
        {
          "internalType": "bytes32",
          "name": "notaryKeyHash",
          "type": "bytes32"
        }
      ],
      "stateMutability": "nonpayable",
      "type": "function"
    },
    {
      "inputs": [],
      "name": "ramp",
      "outputs": [
        {
          "internalType": "address",
          "name": "",
          "type": "address"
        }
      ],
      "stateMutability": "view",
      "type": "function"
    },
    {
      "inputs": [],
      "name": "renounceOwnership",
      "outputs": [],
      "stateMutability": "nonpayable",
      "type": "function"
    },
    {
      "inputs": [
        {
          "internalType": "uint256",
          "name": "_timestampBuffer",
          "type": "uint256"
        }
      ],
      "name": "setTimestampBuffer",
      "outputs": [],
      "stateMutability": "nonpayable",
      "type": "function"
    },
    {
      "inputs": [],
      "name": "timestampBuffer",
      "outputs": [
        {
          "internalType": "uint256",
          "name": "",
          "type": "uint256"
        }
      ],
      "stateMutability": "view",
      "type": "function"
    },
    {
      "inputs": [
        {
          "internalType": "address",
          "name": "newOwner",
          "type": "address"
        }
      ],
      "name": "transferOwnership",
      "outputs": [],
      "stateMutability": "nonpayable",
      "type": "function"
    }
  ],
  "transactionHash": "0x354f7670b1d5e73f0b8b475b1e37472591c395c02949e5fc5fcc467905d027f5",
  "args": [
    "0x49EA5126fD67f877b62dDC0144DBeb42591DF7bb",
    "0x4d8E02BBfCf205828A8352Af4376b165E123D7b0",
    "30",
    "GET https://app.revolut.com/api/retail/transaction/*",
    "app.revolut.com"
  ],
  "numDeployments": 1,
  "solcInputHash": "75b8f55da346d7ed99a350632554d2fb",
  "bytecode": "0x60a060405234801562000010575f80fd5b5060405162001e4438038062001e448339810160408190526200003391620001c9565b84848484846200004333620000a1565b6001600160a01b03851660805260016200005e8382620002ec565b5060026200006d8282620002ec565b5050600380546001600160a01b0319166001600160a01b03949094169390931790925560045550620003b895505050505050565b5f80546001600160a01b038381166001600160a01b0319831681178455604051919092169283917f8be0079c531659141344cd1fd0a4f28419497f9722a3daafe3b4186f6b6457e09190a35050565b6001600160a01b038116811462000105575f80fd5b50565b634e487b7160e01b5f52604160045260245ffd5b5f82601f8301126200012c575f80fd5b81516001600160401b038082111562000149576200014962000108565b604051601f8301601f19908116603f0116810190828211818310171562000174576200017462000108565b816040528381526020925086602085880101111562000191575f80fd5b5f91505b83821015620001b4578582018301518183018401529082019062000195565b5f602085830101528094505050505092915050565b5f805f805f60a08688031215620001de575f80fd5b8551620001eb81620000f0565b6020870151909550620001fe81620000f0565b6040870151606088015191955093506001600160401b038082111562000222575f80fd5b6200023089838a016200011c565b9350608088015191508082111562000246575f80fd5b5062000255888289016200011c565b9150509295509295909350565b600181811c908216806200027757607f821691505b6020821081036200029657634e487b7160e01b5f52602260045260245ffd5b50919050565b601f821115620002e757805f5260205f20601f840160051c81016020851015620002c35750805b601f840160051c820191505b81811015620002e4575f8155600101620002cf565b50505b505050565b81516001600160401b0381111562000308576200030862000108565b620003208162000319845462000262565b846200029c565b602080601f83116001811462000356575f84156200033e5750858301515b5f19600386901b1c1916600185901b178555620003b0565b5f85815260208120601f198616915b82811015620003865788860151825594840194600190910190840162000365565b5085821015620003a457878501515f19600388901b60f8161c191681555b505060018460011b0185555b505050505050565b608051611a6d620003d75f395f818160ef01526101f40152611a6d5ff3fe608060405234801561000f575f80fd5b50600436106100a6575f3560e01c8063b2a3fda41161006e578063b2a3fda414610158578063b870676c1461016b578063dbac58211461017e578063f2fde38b14610195578063f437bc59146101a8578063faec91e0146101b0575f80fd5b80630f2d076d146100aa57806315d276e1146100ea5780635e280f1114610129578063715018a61461013e5780638da5cb5b14610148575b5f80fd5b6100bd6100b836600461136f565b6101e4565b604080519586526020860194909452928401919091526060830152608082015260a0015b60405180910390f35b6101117f000000000000000000000000000000000000000000000000000000000000000081565b6040516001600160a01b0390911681526020016100e1565b610131610773565b6040516100e1919061140b565b6101466107ff565b005b5f546001600160a01b0316610111565b61014661016636600461141d565b610812565b600354610111906001600160a01b031681565b61018760045481565b6040519081526020016100e1565b6101466101a3366004611434565b61081f565b610131610898565b6101876040516810d3d354131155115160ba1b60208201526029016040516020818303038152906040528051906020012081565b5f80808080336001600160a01b037f000000000000000000000000000000000000000000000000000000000000000016146102665760405162461bcd60e51b815260206004820181905260248201527f4f6e6c792052616d702063616e2063616c6c20746869732066756e6374696f6e60448201526064015b60405180910390fd5b6102c386610274898061144d565b61027d90611533565b61028a60208b018b61168c565b8080601f0160208091040260200160405190810160405280939291908181526020018383808284375f920191909152506108a592505050565b6040805180820190915260018152601560f91b6020820152610415906103c8906102ed8a8061144d565b6102fb90604081019061168c565b8080601f0160208091040260200160405190810160405280939291908181526020018383808284375f92019190915250506001805490925061033d91506116cf565b80601f0160208091040260200160405190810160405280929190818152602001828054610369906116cf565b80156103b45780601f1061038b576101008083540402835291602001916103b4565b820191905f5260205f20905b81548152906001019060200180831161039757829003601f168201915b50505050506108f19092919063ffffffff16565b6103d2898061144d565b6103dc908061168c565b8080601f0160208091040260200160405190810160405280939291908181526020018383808284375f9201919091525061097192505050565b6104f660028054610425906116cf565b80601f0160208091040260200160405190810160405280929190818152602001828054610451906116cf565b801561049c5780601f106104735761010080835404028352916020019161049c565b820191905f5260205f20905b81548152906001019060200180831161047f57829003601f168201915b506104af93508c925082915061144d9050565b6104bd90602081019061168c565b8080601f0160208091040260200160405190810160405280939291908181526020018383808284375f92019190915250610a1092505050565b6040516810d3d354131155115160ba1b602082015260290160408051601f198184030181529190528051602090910120610530888061144d565b61053e9060c081019061168c565b60405160200161054f929190611707565b60405160208183030381529060405280519060200120146105be5760405162461bcd60e51b8152602060048201526024808201527f5061796d656e7420737461747573206e6f7420636f6e6669726d6564206173206044820152631cd95b9d60e21b606482015260840161025d565b6106056105cb888061144d565b6105d990604081019061168c565b6040516020016105ea929190611716565b60405160208183030381529060405280519060200120610aab565b610659610612888061144d565b61062090608081019061168c565b8080601f0160208091040260200160405190810160405280939291908181526020018383808284375f92019190915250610bbf92505050565b6004549095506103e86106ba5f6106708b8061144d565b61067e9060e081019061168c565b8080601f0160208091040260200160405190810160405280939291908181526020018383808284375f920191909152509293925050610c3e9050565b6106c4919061174c565b6106ce919061176b565b93506106da878061144d565b6106e890606081019061168c565b6040516020016106f9929190611707565b60408051601f198184030181529190528051602090910120925061071d878061144d565b61072b9060a081019061168c565b60405160200161073c929190611707565b60408051601f1981840301815291905280516020909101209150610760878061144d565b61012001355f1b90509295509295909350565b60018054610780906116cf565b80601f01602080910402602001604051908101604052809291908181526020018280546107ac906116cf565b80156107f75780601f106107ce576101008083540402835291602001916107f7565b820191905f5260205f20905b8154815290600101906020018083116107da57829003601f168201915b505050505081565b610807610c4e565b6108105f610ca7565b565b61081a610c4e565b600455565b610827610c4e565b6001600160a01b03811661088c5760405162461bcd60e51b815260206004820152602660248201527f4f776e61626c653a206e6577206f776e657220697320746865207a65726f206160448201526564647265737360d01b606482015260840161025d565b61089581610ca7565b50565b60028054610780906116cf565b6108b0838383610cf6565b6108ec5760405162461bcd60e51b815260206004820152600d60248201526c24b73b30b634b210383937b7b360991b604482015260640161025d565b505050565b606083835f6109008383610d69565b90505f1981036109155786935050505061096a565b5f610921885f84610e38565b90505f61093c89855185610935919061176b565b8751610e38565b90508187826040516020016109539392919061177e565b604051602081830303815290604052955050505050505b9392505050565b80604051602001610982919061140b565b60405160208183030381529060405280519060200120826040516020016109a9919061140b565b6040516020818303038152906040528051906020012014610a0c5760405162461bcd60e51b815260206004820181905260248201527f456e64706f696e7420646f6573206e6f74206d61746368206578706563746564604482015260640161025d565b5050565b80604051602001610a21919061140b565b6040516020818303038152906040528051906020012082604051602001610a48919061140b565b6040516020818303038152906040528051906020012014610a0c5760405162461bcd60e51b815260206004820152601c60248201527f486f737420646f6573206e6f74206d6174636820657870656374656400000000604482015260640161025d565b60035460405163169394bb60e01b8152600481018390526001600160a01b039091169063169394bb90602401602060405180830381865afa158015610af2573d5f803e3d5ffd5b505050506040513d601f19601f82011682018060405250810190610b1691906117c0565b15610b635760405162461bcd60e51b815260206004820152601f60248201527f4e756c6c69666965722068617320616c7265616479206265656e207573656400604482015260640161025d565b600354604051632dea6f9960e11b8152600481018390526001600160a01b0390911690635bd4df32906024015f604051808303815f87803b158015610ba6575f80fd5b505af1158015610bb8573d5f803e3d5ffd5b5050505050565b5f815f81518110610bd257610bd26117df565b6020910101516001600160f81b031916602d60f81b14610c2d5760405162461bcd60e51b81526020600482015260166024820152752737ba10309039b2b732103a3930b739b0b1ba34b7b760511b604482015260640161025d565b610c38826006610c3e565b92915050565b5f61096a83601760f91b84610ef9565b5f546001600160a01b031633146108105760405162461bcd60e51b815260206004820181905260248201527f4f776e61626c653a2063616c6c6572206973206e6f7420746865206f776e6572604482015260640161025d565b5f80546001600160a01b038381166001600160a01b0319831681178455604051919092169283917f8be0079c531659141344cd1fd0a4f28419497f9722a3daafe3b4186f6b6457e09190a35050565b5f80835f015184602001518560400151866060015187608001518860a001518960c001518a60e001518b61010001518c6101200151604051602001610d449a999897969594939291906117f3565b6040516020818303038152906040529050610d608184876110cb565b95945050505050565b805182515f91849184911115610d84575f1992505050610c38565b5f5b81518351610d9491906118ae565b8111610e2c5760015f5b8351811015610e0757838181518110610db957610db96117df565b01602001516001600160f81b03191685610dd3838661176b565b81518110610de357610de36117df565b01602001516001600160f81b03191614610dff575f9150610e07565b600101610d9e565b508015610e1957509250610c38915050565b5080610e24816118c1565b915050610d86565b505f1995945050505050565b6060835f610e4685856118ae565b67ffffffffffffffff811115610e5e57610e5e61146c565b6040519080825280601f01601f191660200182016040528015610e88576020820181803683370190505b509050845b84811015610eef57828181518110610ea757610ea76117df565b01602001516001600160f81b03191682610ec188846118ae565b81518110610ed157610ed16117df565b60200101906001600160f81b03191690815f1a905350600101610e8d565b5095945050505050565b5f83818080805b845181101561104457603060f81b858281518110610f2057610f206117df565b01602001516001600160f81b03191610801590610f615750603960f81b858281518110610f4f57610f4f6117df565b01602001516001600160f81b03191611155b15610fa4576030858281518110610f7a57610f7a6117df565b0160200151610f8c919060f81c6118ae565b610f9785600a6118d9565b610fa1919061176b565b93505b8115610fb85782610fb4816118c1565b9350505b876001600160f81b031916858281518110610fd557610fd56117df565b01602001516001600160f81b0319160361103c5781156110375760405162461bcd60e51b815260206004820152601c60248201527f537472696e6720686173206d756c7469706c6520646563696d616c7300000000604482015260640161025d565b600191505b600101610f00565b50858211156110a05760405162461bcd60e51b815260206004820152602260248201527f537472696e672068617320746f6f206d616e7920646563696d616c20706c6163604482015261657360f01b606482015260840161025d565b6110aa82876118ae565b6110b590600a6119d0565b6110bf90846118d9565b98975050505050505050565b825160208401207f19457468657265756d205369676e6564204d6573736167653a0a3332000000005f908152601c91909152603c8120610d606001600160a01b03841682865f805f61111d858561116e565b90925090505f816004811115611135576111356119db565b1480156111535750856001600160a01b0316826001600160a01b0316145b8061116457506111648686866111b0565b9695505050505050565b5f8082516041036111a2576020830151604084015160608501515f1a61119687828585611297565b945094505050506111a9565b505f905060025b9250929050565b5f805f856001600160a01b0316631626ba7e60e01b86866040516024016111d89291906119ef565b60408051601f198184030181529181526020820180516001600160e01b03166001600160e01b03199094169390931790925290516112169190611a0f565b5f60405180830381855afa9150503d805f811461124e576040519150601f19603f3d011682016040523d82523d5f602084013e611253565b606091505b509150915081801561126757506020815110155b801561116457508051630b135d3f60e11b9061128c9083016020908101908401611a20565b149695505050505050565b5f807f7fffffffffffffffffffffffffffffff5d576e7357a4501ddfe92f46681b20a08311156112cc57505f9050600361134b565b604080515f8082526020820180845289905260ff881692820192909252606081018690526080810185905260019060a0016020604051602081039080840390855afa15801561131d573d5f803e3d5ffd5b5050604051601f1901519150506001600160a01b038116611345575f6001925092505061134b565b91505f90505b94509492505050565b80356001600160a01b038116811461136a575f80fd5b919050565b5f8060408385031215611380575f80fd5b823567ffffffffffffffff811115611396575f80fd5b8301604081860312156113a7575f80fd5b91506113b560208401611354565b90509250929050565b5f5b838110156113d85781810151838201526020016113c0565b50505f910152565b5f81518084526113f78160208601602086016113be565b601f01601f19169290920160200192915050565b602081525f61096a60208301846113e0565b5f6020828403121561142d575f80fd5b5035919050565b5f60208284031215611444575f80fd5b61096a82611354565b5f823561013e19833603018112611462575f80fd5b9190910192915050565b634e487b7160e01b5f52604160045260245ffd5b604051610140810167ffffffffffffffff811182821017156114a4576114a461146c565b60405290565b5f82601f8301126114b9575f80fd5b813567ffffffffffffffff808211156114d4576114d461146c565b604051601f8301601f19908116603f011681019082821181831017156114fc576114fc61146c565b81604052838152866020858801011115611514575f80fd5b836020870160208301375f602085830101528094505050505092915050565b5f6101408236031215611544575f80fd5b61154c611480565b823567ffffffffffffffff80821115611563575f80fd5b61156f368387016114aa565b83526020850135915080821115611584575f80fd5b611590368387016114aa565b602084015260408501359150808211156115a8575f80fd5b6115b4368387016114aa565b604084015260608501359150808211156115cc575f80fd5b6115d8368387016114aa565b606084015260808501359150808211156115f0575f80fd5b6115fc368387016114aa565b608084015260a0850135915080821115611614575f80fd5b611620368387016114aa565b60a084015260c0850135915080821115611638575f80fd5b611644368387016114aa565b60c084015260e085013591508082111561165c575f80fd5b50611669368286016114aa565b60e083015250610100838101359082015261012092830135928101929092525090565b5f808335601e198436030181126116a1575f80fd5b83018035915067ffffffffffffffff8211156116bb575f80fd5b6020019150368190038213156111a9575f80fd5b600181811c908216806116e357607f821691505b60208210810361170157634e487b7160e01b5f52602260045260245ffd5b50919050565b818382375f9101908152919050565b6614995d9bdb1d5d60ca1b8152818360078301375f9101600701908152919050565b634e487b7160e01b5f52601160045260245ffd5b5f8261176657634e487b7160e01b5f52601260045260245ffd5b500490565b80820180821115610c3857610c38611738565b5f845161178f8184602089016113be565b8451908301906117a38183602089016113be565b84519101906117b68183602088016113be565b0195945050505050565b5f602082840312156117d0575f80fd5b8151801515811461096a575f80fd5b634e487b7160e01b5f52603260045260245ffd5b5f6101408083526118068184018e6113e0565b9050828103602084015261181a818d6113e0565b9050828103604084015261182e818c6113e0565b90508281036060840152611842818b6113e0565b90508281036080840152611856818a6113e0565b905082810360a084015261186a81896113e0565b905082810360c084015261187e81886113e0565b905082810360e084015261189281876113e0565b6101008401959095525050610120015298975050505050505050565b81810381811115610c3857610c38611738565b5f600182016118d2576118d2611738565b5060010190565b8082028115828204841417610c3857610c38611738565b600181815b8085111561192a57815f190482111561191057611910611738565b8085161561191d57918102915b93841c93908002906118f5565b509250929050565b5f8261194057506001610c38565b8161194c57505f610c38565b8160018114611962576002811461196c57611988565b6001915050610c38565b60ff84111561197d5761197d611738565b50506001821b610c38565b5060208310610133831016604e8410600b84101617156119ab575081810a610c38565b6119b583836118f0565b805f19048211156119c8576119c8611738565b029392505050565b5f61096a8383611932565b634e487b7160e01b5f52602160045260245ffd5b828152604060208201525f611a0760408301846113e0565b949350505050565b5f82516114628184602087016113be565b5f60208284031215611a30575f80fd5b505191905056fea264697066735822122007d18c37d8aec99eeec6d2ab9121c3793bac7a3af5fe95ec5a8994ee995b906964736f6c63430008180033",
  "devdoc": {
    "kind": "dev",
    "methods": {
      "owner()": {
        "details": "Returns the address of the current owner."
      },
      "renounceOwnership()": {
        "details": "Leaves the contract without owner. It will not be possible to call `onlyOwner` functions. Can only be called by the current owner. NOTE: Renouncing ownership will leave the contract without an owner, thereby disabling any functionality that is only available to the owner."
      },
      "setTimestampBuffer(uint256)": {
        "params": {
          "_timestampBuffer": "The timestamp buffer for validated TLS calls"
        }
      },
      "transferOwnership(address)": {
        "details": "Transfers ownership of the contract to a new account (`newOwner`). Can only be called by the current owner."
      }
    },
    "version": 1
  },
  "userdoc": {
    "kind": "user",
    "methods": {
      "setTimestampBuffer(uint256)": {
        "notice": "ONLY OWNER: Sets the timestamp buffer for validated TLS calls. This is the amount of time in seconds that the timestamp can be off by and still be considered valid. Necessary to build in flexibility with L2 timestamps."
      }
    },
    "version": 1
  },
  "storageLayout": {
    "storage": [
      {
        "astId": 7,
        "contract": "contracts/ramps/revolut/RevolutSendProcessor.sol:RevolutSendProcessor",
        "label": "_owner",
        "offset": 0,
        "slot": "0",
        "type": "t_address"
      },
      {
        "astId": 6237,
        "contract": "contracts/ramps/revolut/RevolutSendProcessor.sol:RevolutSendProcessor",
        "label": "endpoint",
        "offset": 0,
        "slot": "1",
        "type": "t_string_storage"
      },
      {
        "astId": 6239,
        "contract": "contracts/ramps/revolut/RevolutSendProcessor.sol:RevolutSendProcessor",
        "label": "host",
        "offset": 0,
        "slot": "2",
        "type": "t_string_storage"
      },
      {
        "astId": 6242,
        "contract": "contracts/ramps/revolut/RevolutSendProcessor.sol:RevolutSendProcessor",
        "label": "nullifierRegistry",
        "offset": 0,
        "slot": "3",
        "type": "t_contract(INullifierRegistry)6636"
      },
      {
        "astId": 6244,
        "contract": "contracts/ramps/revolut/RevolutSendProcessor.sol:RevolutSendProcessor",
        "label": "timestampBuffer",
        "offset": 0,
        "slot": "4",
        "type": "t_uint256"
      }
    ],
    "types": {
      "t_address": {
        "encoding": "inplace",
        "label": "address",
        "numberOfBytes": "20"
      },
      "t_contract(INullifierRegistry)6636": {
        "encoding": "inplace",
        "label": "contract INullifierRegistry",
        "numberOfBytes": "20"
      },
      "t_string_storage": {
        "encoding": "bytes",
        "label": "string",
        "numberOfBytes": "32"
      },
      "t_uint256": {
        "encoding": "inplace",
        "label": "uint256",
        "numberOfBytes": "32"
      }
    }
  }
}