{
  "address": "0x3EBD66861C1d8F298c20ED56506b063206103227",
  "abi": [
    {
      "inputs": [
        {
          "internalType": "address",
          "name": "_ramp",
          "type": "address"
        },
        {
          "internalType": "contract IKeyHashAdapterV2",
          "name": "_venmoMailserverKeyHashAdapter",
          "type": "address"
        },
        {
          "internalType": "contract INullifierRegistry",
          "name": "_nullifierRegistry",
          "type": "address"
        },
        {
          "internalType": "string",
          "name": "_emailFromAddress",
          "type": "string"
        },
        {
          "internalType": "uint256",
          "name": "_timestampBuffer",
          "type": "uint256"
        }
      ],
      "stateMutability": "nonpayable",
      "type": "constructor"
    },
    {
      "anonymous": false,
      "inputs": [
        {
          "indexed": true,
          "internalType": "address",
          "name": "previousOwner",
          "type": "address"
        },
        {
          "indexed": true,
          "internalType": "address",
          "name": "newOwner",
          "type": "address"
        }
      ],
      "name": "OwnershipTransferred",
      "type": "event"
    },
    {
      "inputs": [],
      "name": "PACK_SIZE",
      "outputs": [
        {
          "internalType": "uint256",
          "name": "",
          "type": "uint256"
        }
      ],
      "stateMutability": "view",
      "type": "function"
    },
    {
      "inputs": [],
      "name": "emailFromAddress",
      "outputs": [
        {
          "internalType": "bytes",
          "name": "",
          "type": "bytes"
        }
      ],
      "stateMutability": "view",
      "type": "function"
    },
    {
      "inputs": [],
      "name": "getEmailFromAddress",
      "outputs": [
        {
          "internalType": "bytes",
          "name": "",
          "type": "bytes"
        }
      ],
      "stateMutability": "view",
      "type": "function"
    },
    {
      "inputs": [
        {
          "internalType": "bytes32",
          "name": "_keyHash",
          "type": "bytes32"
        }
      ],
      "name": "isMailServerKeyHash",
      "outputs": [
        {
          "internalType": "bool",
          "name": "",
          "type": "bool"
        }
      ],
      "stateMutability": "view",
      "type": "function"
    },
    {
      "inputs": [],
      "name": "mailServerKeyHashAdapter",
      "outputs": [
        {
          "internalType": "contract IKeyHashAdapterV2",
          "name": "",
          "type": "address"
        }
      ],
      "stateMutability": "view",
      "type": "function"
    },
    {
      "inputs": [],
      "name": "nullifierRegistry",
      "outputs": [
        {
          "internalType": "contract INullifierRegistry",
          "name": "",
          "type": "address"
        }
      ],
      "stateMutability": "view",
      "type": "function"
    },
    {
      "inputs": [],
      "name": "owner",
      "outputs": [
        {
          "internalType": "address",
          "name": "",
          "type": "address"
        }
      ],
      "stateMutability": "view",
      "type": "function"
    },
    {
      "inputs": [
        {
          "components": [
            {
              "internalType": "uint256[2]",
              "name": "a",
              "type": "uint256[2]"
            },
            {
              "internalType": "uint256[2][2]",
              "name": "b",
              "type": "uint256[2][2]"
            },
            {
              "internalType": "uint256[2]",
              "name": "c",
              "type": "uint256[2]"
            },
            {
              "internalType": "uint256[5]",
              "name": "signals",
              "type": "uint256[5]"
            }
          ],
          "internalType": "struct IRegistrationProcessorV2.RegistrationProof",
          "name": "_proof",
          "type": "tuple"
        }
      ],
      "name": "processProof",
      "outputs": [
        {
          "internalType": "bytes32",
          "name": "userIdHash",
          "type": "bytes32"
        }
      ],
      "stateMutability": "nonpayable",
      "type": "function"
    },
    {
      "inputs": [],
      "name": "ramp",
      "outputs": [
        {
          "internalType": "address",
          "name": "",
          "type": "address"
        }
      ],
      "stateMutability": "view",
      "type": "function"
    },
    {
      "inputs": [],
      "name": "renounceOwnership",
      "outputs": [],
      "stateMutability": "nonpayable",
      "type": "function"
    },
    {
      "inputs": [
        {
          "internalType": "string",
          "name": "_emailFromAddress",
          "type": "string"
        }
      ],
      "name": "setEmailFromAddress",
      "outputs": [],
      "stateMutability": "nonpayable",
      "type": "function"
    },
    {
      "inputs": [
        {
          "internalType": "contract IKeyHashAdapterV2",
          "name": "_mailServerKeyHashAdapter",
          "type": "address"
        }
      ],
      "name": "setMailserverKeyHashAdapter",
      "outputs": [],
      "stateMutability": "nonpayable",
      "type": "function"
    },
    {
      "inputs": [
        {
          "internalType": "uint256",
          "name": "_timestampBuffer",
          "type": "uint256"
        }
      ],
      "name": "setTimestampBuffer",
      "outputs": [],
      "stateMutability": "nonpayable",
      "type": "function"
    },
    {
      "inputs": [],
      "name": "timestampBuffer",
      "outputs": [
        {
          "internalType": "uint256",
          "name": "",
          "type": "uint256"
        }
      ],
      "stateMutability": "view",
      "type": "function"
    },
    {
      "inputs": [
        {
          "internalType": "address",
          "name": "newOwner",
          "type": "address"
        }
      ],
      "name": "transferOwnership",
      "outputs": [],
      "stateMutability": "nonpayable",
      "type": "function"
    },
    {
      "inputs": [
        {
          "internalType": "uint256[2]",
          "name": "_pA",
          "type": "uint256[2]"
        },
        {
          "internalType": "uint256[2][2]",
          "name": "_pB",
          "type": "uint256[2][2]"
        },
        {
          "internalType": "uint256[2]",
          "name": "_pC",
          "type": "uint256[2]"
        },
        {
          "internalType": "uint256[5]",
          "name": "_pubSignals",
          "type": "uint256[5]"
        }
      ],
      "name": "verifyProof",
      "outputs": [
        {
          "internalType": "bool",
          "name": "",
          "type": "bool"
        }
      ],
      "stateMutability": "view",
      "type": "function"
    }
  ],
  "transactionHash": "0x6be5d23e27ecc010221250634d1fc7ac575c29243fb54560f68cf0ea7f6f4fe8",
  "args": [
    "0x67f65B834aaAc92C15c2EBa9FF7E81f2d33a1cFD",
    "0xa7B987f505366630109De019862c183E690a040B",
    "0x4d8E02BBfCf205828A8352Af4376b165E123D7b0",
    "venmo@venmo.com",
    "0"
  ],
  "numDeployments": 1,
  "solcInputHash": "75b8f55da346d7ed99a350632554d2fb",
  "bytecode": "0x60a060405234801562000010575f80fd5b5060405162001c8738038062001c87833981016040819052620000339162000115565b848484848462000043336200009a565b6001600160a01b03858116608052600180546001600160a01b031990811687841617909155600280549091169185169190911790556003620000868382620002b6565b506004555062000382975050505050505050565b5f80546001600160a01b038381166001600160a01b0319831681178455604051919092169283917f8be0079c531659141344cd1fd0a4f28419497f9722a3daafe3b4186f6b6457e09190a35050565b6001600160a01b0381168114620000fe575f80fd5b50565b634e487b7160e01b5f52604160045260245ffd5b5f805f805f60a086880312156200012a575f80fd5b85516200013781620000e9565b809550506020808701516200014c81620000e9565b60408801519095506200015f81620000e9565b60608801519094506001600160401b03808211156200017c575f80fd5b818901915089601f83011262000190575f80fd5b815181811115620001a557620001a562000101565b604051601f8201601f19908116603f01168101908382118183101715620001d057620001d062000101565b816040528281528c86848701011115620001e8575f80fd5b5f93505b828410156200020b5784840186015181850187015292850192620001ec565b5f868483010152809750505050505050608086015190509295509295909350565b600181811c908216806200024157607f821691505b6020821081036200026057634e487b7160e01b5f52602260045260245ffd5b50919050565b601f821115620002b157805f5260205f20601f840160051c810160208510156200028d5750805b601f840160051c820191505b81811015620002ae575f815560010162000299565b50505b505050565b81516001600160401b03811115620002d257620002d262000101565b620002ea81620002e384546200022c565b8462000266565b602080601f83116001811462000320575f8415620003085750858301515b5f19600386901b1c1916600185901b1785556200037a565b5f85815260208120601f198616915b8281101562000350578886015182559484019460019091019084016200032f565b50858210156200036e57878501515f19600388901b60f8161c191681555b505060018460011b0185555b505050505050565b6080516118e5620003a25f395f8181610104015261026001526118e55ff3fe608060405234801561000f575f80fd5b50600436106100fb575f3560e01c8063b2a3fda411610093578063d0b71f9911610063578063d0b71f9914610212578063dbac582114610225578063f2fde38b1461022e578063f6c7226b14610241575f80fd5b8063b2a3fda4146101cf578063b870676c146101e2578063c0d05fed146101f5578063ced1e9781461020a575f80fd5b80633d0c9cc4116100ce5780633d0c9cc41461019a578063715018a6146101a25780638da5cb5b146101ac578063a8ef333f146101bc575f80fd5b806315d276e1146100ff57806317c8ecf21461014357806319d091521461016457806334baeab914610187575b5f80fd5b6101267f000000000000000000000000000000000000000000000000000000000000000081565b6040516001600160a01b0390911681526020015b60405180910390f35b610156610151366004611365565b610254565b60405190815260200161013a565b61017761017236600461137c565b6104b2565b604051901515815260200161013a565b6101776101953660046113a3565b610523565b610156600781565b6101aa610ae9565b005b5f546001600160a01b0316610126565b600154610126906001600160a01b031681565b6101aa6101dd36600461137c565b610afc565b600254610126906001600160a01b031681565b6101fd610b09565b60405161013a9190611426565b6101fd610b95565b6101aa61022036600461146c565b610c25565b61015660045481565b6101aa61023c36600461146c565b610c4f565b6101aa61024f3660046114a2565b610cc5565b5f336001600160a01b037f000000000000000000000000000000000000000000000000000000000000000016146102d25760405162461bcd60e51b815260206004820181905260248201527f4f6e6c792052616d702063616e2063616c6c20746869732066756e6374696f6e60448201526064015b60405180910390fd5b604080516334baeab960e01b815230916334baeab9916103059186919082019060c0830190610100840190600401611576565b602060405180830381865afa158015610320573d5f803e3d5ffd5b505050506040513d601f19601f8201168201806040525081019061034491906115a7565b6103805760405162461bcd60e51b815260206004820152600d60248201526c24b73b30b634b210283937b7b360991b60448201526064016102c9565b61038e6101008301356104b2565b6103da5760405162461bcd60e51b815260206004820152601b60248201527f496e76616c6964206d61696c736572766572206b65792068617368000000000060448201526064016102c9565b5f6103ec836101000160016004610cdd565b905060036040516103fd919061160c565b604051809103902081604051602001610416919061167e565b60405160208183030381529060405280519060200120146104795760405162461bcd60e51b815260206004820152601a60248201527f496e76616c696420656d61696c2066726f6d206164647265737300000000000060448201526064016102c9565b6104a88360405160200161048d9190611699565b60405160208183030381529060405280519060200120610dad565b5050610180013590565b600154604051630ce848a960e11b8152600481018390525f916001600160a01b0316906319d0915290602401602060405180830381865afa1580156104f9573d5f803e3d5ffd5b505050506040513d601f19601f8201168201806040525081019061051d91906115a7565b92915050565b5f610a7a565b7f30644e72e131a029b85045b68181585d97816a916871ca8d3c208c16d87cfd478110610558575f805260205ff35b50565b5f60405183815284602082015285604082015260408160608360076107d05a03fa91508161058b575f805260205ff35b825160408201526020830151606082015260408360808360066107d05a03fa915050806105ba575f805260205ff35b5050505050565b7f12ab5a9624956b76265fc0eec1d900b529add7b70792dbf4e5a843dd604b268685527e9d18fb29076cc91333c58ed5efb1c16e4c4895b9f4163f7d1b3f7c8d4026a660208601525f608086018661065c87357f160d02be8268c1b255c0a0ebde2da936232ed0e153d6f8996f1defac51f930477f1a0354875e82d8f0ac2ac8aeb2dd4fc16d0da2df59f5071140d037af419e2a748461055b565b6106ac60208801357f30247428f688b9e3e1d9a0b69811eac6c928394e70e275120108106592076ba07f2e71a076d6490c2f15b995d8b68ad3a0bfa3eb68a58fa33df69c0cfc955a8bd38461055b565b6106fc60408801357f15db0918919bf88282f6a317b654c06195e674b6d4d833681dab4bd774d036cf7f2b37f6e04a0bca3b2cdcaa0a9f8c2d544a3c5b360d4874c9c1894c59225bc0828461055b565b61074c60608801357f0fe29eea9c50213502ef28c871f902b18884958f4eb0596758a1f8389a9cce5e7f2d3bc5feca96b1abbee7368fbcb0ade12a856a5785d8fc3cfb0ac8215850f1a68461055b565b61079c60808801357f1d002702c6a69936e861d6e2a0d8e2ac85847afea1277294beebdb36af9cc91a7f226a60872afad35dabefcc99fd4f84eb93add0df114af28147b4dd2770793bbb8461055b565b50823581527f30644e72e131a029b85045b68181585d97816a916871ca8d3c208c16d87cfd4760208401357f30644e72e131a029b85045b68181585d97816a916871ca8d3c208c16d87cfd4703066020820152833560408201526020840135606082015260408401356080820152606084013560a08201527f2d4d9aa7e302d9df41749d5507949d05dbea33fbb16c643b22f599a2be6df2e260c08201527f14bedd503c37ceb061d8ec60209fe345ce89830a19230301f076caff004d192660e08201527f0967032fcbf776d1afc985f88877f182d38480a653f2decaa9794cbc3bf3060c6101008201527f0e187847ad4c798374d0d6732bf501847dd68bc0e071241e0213bc7fc13db7ab6101208201527f304cfbd1e08a704a99f5e847d93f8c3caafddec46b7a0d379da69a4d112346a76101408201527f1739c1b1a457a8c7313123d24d2f9192f896b7c63eea05a9d57f06547ad0cec86101608201525f87015161018082015260205f018701516101a08201527f198e9393920d483a7260bfb731fb5d25f1aa493335a9e71297e485b7aef312c26101c08201527f1800deef121f1e76426a00665e5c4479674322d4f75edadd46debd5cd992f6ed6101e08201527f090689d0585ff075ec9e99ad690c3395bc4b313370b38ef355acdadcd122975b6102008201527f12c85ea5db8c6deb4aab71808dcb408fe3d1e7690c43d37b4ce6cc0166fa7daa610220820152843561024082015260208501356102608201527f24e7ce3cf2d75f0b3bc44ddeeceef45d789f7c66da38ae223ef2eed52d894f1a6102808201527f170d835b2c98451e8b4e152ee67a3ceda06bbed8e6c68adc4a5c6f4342fec55c6102a08201527f1b2d30c8edee55fa0308f573fe5d1737f2e76ae12c5263f338e3b68e62911e4a6102c08201527f2ddcd10acc578091831b7e1a6edb36fb628c81b530513c55ffba19948e2004f66102e08201526020816103008360086107d05a03fa9051169695505050505050565b6040516103808101604052610a915f840135610529565b610a9e6020840135610529565b610aab6040840135610529565b610ab86060840135610529565b610ac56080840135610529565b610ad260a0840135610529565b610adf818486888a6105c1565b9050805f5260205ff35b610af1610eba565b610afa5f610f13565b565b610b04610eba565b600455565b60038054610b16906115da565b80601f0160208091040260200160405190810160405280929190818152602001828054610b42906115da565b8015610b8d5780601f10610b6457610100808354040283529160200191610b8d565b820191905f5260205f20905b815481529060010190602001808311610b7057829003601f168201915b505050505081565b606060038054610ba4906115da565b80601f0160208091040260200160405190810160405280929190818152602001828054610bd0906115da565b8015610c1b5780601f10610bf257610100808354040283529160200191610c1b565b820191905f5260205f20905b815481529060010190602001808311610bfe57829003601f168201915b5050505050905090565b610c2d610eba565b600180546001600160a01b0319166001600160a01b0392909216919091179055565b610c57610eba565b6001600160a01b038116610cbc5760405162461bcd60e51b815260206004820152602660248201527f4f776e61626c653a206e6577206f776e657220697320746865207a65726f206160448201526564647265737360d01b60648201526084016102c9565b61055881610f13565b610ccd610eba565b6003610cd9828261171a565b5050565b60605f610cea84846117ee565b60ff1667ffffffffffffffff811115610d0557610d0561148e565b604051908082528060200260200182016040528015610d2e578160200160208202803683370190505b50905060ff84165b8360ff16811015610d8957858160058110610d5357610d536115c6565b602002013582610d6660ff881684611807565b81518110610d7657610d766115c6565b6020908102919091010152600101610d36565b50610da460078251610d9b919061181a565b82906007610f62565b95945050505050565b60025460405163169394bb60e01b8152600481018390526001600160a01b039091169063169394bb90602401602060405180830381865afa158015610df4573d5f803e3d5ffd5b505050506040513d601f19601f82011682018060405250810190610e1891906115a7565b15610e655760405162461bcd60e51b815260206004820152601f60248201527f4e756c6c69666965722068617320616c7265616479206265656e20757365640060448201526064016102c9565b600254604051632dea6f9960e11b8152600481018390526001600160a01b0390911690635bd4df32906024015f604051808303815f87803b158015610ea8575f80fd5b505af11580156105ba573d5f803e3d5ffd5b5f546001600160a01b03163314610afa5760405162461bcd60e51b815260206004820181905260248201527f4f776e61626c653a2063616c6c6572206973206e6f7420746865206f776e657260448201526064016102c9565b5f80546001600160a01b038381166001600160a01b0319831681178455604051919092169283917f8be0079c531659141344cd1fd0a4f28419497f9722a3daafe3b4186f6b6457e09190a35050565b60605f80838651610f73919061181a565b67ffffffffffffffff811115610f8b57610f8b61148e565b6040519080825280601f01601f191660200182016040528015610fb5576020820181803683370190505b5090505f805b87518161ffff16101561114f575f888261ffff1681518110610fdf57610fdf6115c6565b602002602001015190505f8767ffffffffffffffff8111156110035761100361148e565b60405190808252806020026020018201604052801561102c578160200160208202803683370190505b5090505f5b888110156110735761104481600861181a565b83901c828281518110611059576110596115c6565b60ff90921660209283029190910190910152600101611031565b505f5b88811015611139575f828281518110611091576110916115c6565b602002602001015160ff169050805f14611106578060f81b8787815181106110bb576110bb6115c6565b60200101906001600160f81b03191690815f1a905350856110db81611831565b96506110ea9050600289611849565b60ff165f03611101576110fe600189611876565b97505b611129565b611111600289611849565b60ff1660010361112957611126600189611876565b97505b5060089290921c91600101611076565b50505080806111479061188f565b915050610fbb565b5060018360ff1610156111f05760405162461bcd60e51b815260206004820152605760248201527f4e6f207061636b656420627974657320666f756e642120496e76616c6964206660448201527f696e616c207374617465206f66207061636b656420627974657320696e20656d60648201527f61696c3b2076616c7565206973206c696b656c79203021000000000000000000608482015260a4016102c9565b8581111561125e5760405162461bcd60e51b815260206004820152603560248201527f5061636b6564206279746573206d6f7265207468616e20616c6c6f776564206d6044820152746178206e756d626572206f66207369676e616c732160581b60648201526084016102c9565b5f61126883611274565b98975050505050505050565b805160609082905f5b82518110156112bd57828181518110611298576112986115c6565b01602001516001600160f81b0319165f036112b5578091506112bd565b60010161127d565b505f8167ffffffffffffffff8111156112d8576112d861148e565b6040519080825280601f01601f191660200182016040528015611302576020820181803683370190505b5090505f5b8281101561135c57838181518110611321576113216115c6565b602001015160f81c60f81b82828151811061133e5761133e6115c6565b60200101906001600160f81b03191690815f1a905350600101611307565b50949350505050565b5f6101a08284031215611376575f80fd5b50919050565b5f6020828403121561138c575f80fd5b5035919050565b806040810183101561051d575f80fd5b5f805f806101a08086880312156113b8575f80fd5b6113c28787611393565b945060c08601878111156113d4575f80fd5b6040870194506113e48882611393565b9350508681870111156113f5575f80fd5b50929591945092610100019150565b5f5b8381101561141e578181015183820152602001611406565b50505f910152565b602081525f8251806020840152611444816040850160208701611404565b601f01601f19169190910160400192915050565b6001600160a01b0381168114610558575f80fd5b5f6020828403121561147c575f80fd5b813561148781611458565b9392505050565b634e487b7160e01b5f52604160045260245ffd5b5f602082840312156114b2575f80fd5b813567ffffffffffffffff808211156114c9575f80fd5b818401915084601f8301126114dc575f80fd5b8135818111156114ee576114ee61148e565b604051601f8201601f19908116603f011681019083821181831017156115165761151661148e565b8160405282815287602084870101111561152e575f80fd5b826020860160208301375f928101602001929092525095945050505050565b805f5b600281101561157057604080838637938401939190910190600101611550565b50505050565b6101a08101604086833761158d604083018661154d565b60408460c084013760a08361010084013795945050505050565b5f602082840312156115b7575f80fd5b81518015158114611487575f80fd5b634e487b7160e01b5f52603260045260245ffd5b600181811c908216806115ee57607f821691505b60208210810361137657634e487b7160e01b5f52602260045260245ffd5b5f808354611619816115da565b60018281168015611631576001811461164657611672565b60ff1984168752821515830287019450611672565b875f526020805f205f5b858110156116695781548a820152908401908201611650565b50505082870194505b50929695505050505050565b5f825161168f818460208701611404565b9190910192915050565b6101a0810160408383376116b3604083016040850161154d565b604060c0840160c084013761010060a0818501828501375092915050565b601f82111561171557805f5260205f20601f840160051c810160208510156116f65750805b601f840160051c820191505b818110156105ba575f8155600101611702565b505050565b815167ffffffffffffffff8111156117345761173461148e565b6117488161174284546115da565b846116d1565b602080601f83116001811461177b575f84156117645750858301515b5f19600386901b1c1916600185901b1785556117d2565b5f85815260208120601f198616915b828110156117a95788860151825594840194600190910190840161178a565b50858210156117c657878501515f19600388901b60f8161c191681555b505060018460011b0185555b505050505050565b634e487b7160e01b5f52601160045260245ffd5b60ff828116828216039081111561051d5761051d6117da565b8181038181111561051d5761051d6117da565b808202811582820484141761051d5761051d6117da565b5f60018201611842576118426117da565b5060010190565b5f60ff83168061186757634e487b7160e01b5f52601260045260245ffd5b8060ff84160691505092915050565b60ff818116838216019081111561051d5761051d6117da565b5f61ffff8083168181036118a5576118a56117da565b600101939250505056fea2646970667358221220663fc2aa33edceffa6324dfb75f792137bc3f7aff8dac0b00dd21eed668c580364736f6c63430008180033",
  "devdoc": {
    "kind": "dev",
    "methods": {
      "owner()": {
        "details": "Returns the address of the current owner."
      },
      "renounceOwnership()": {
        "details": "Leaves the contract without owner. It will not be possible to call `onlyOwner` functions. Can only be called by the current owner. NOTE: Renouncing ownership will leave the contract without an owner, thereby disabling any functionality that is only available to the owner."
      },
      "setEmailFromAddress(string)": {
        "params": {
          "_emailFromAddress": "The from email address for validated emails, MUST BE PROPERLY PADDED"
        }
      },
      "setTimestampBuffer(uint256)": {
        "params": {
          "_timestampBuffer": "The timestamp buffer for validated emails"
        }
      },
      "transferOwnership(address)": {
        "details": "Transfers ownership of the contract to a new account (`newOwner`). Can only be called by the current owner."
      }
    },
    "version": 1
  },
  "userdoc": {
    "kind": "user",
    "methods": {
      "setEmailFromAddress(string)": {
        "notice": "ONLY OWNER: Sets the from email address for validated emails. Check that email address is properly padded (if necessary). Padding will be dependent on if unpacking functions cut trailing 0s or not."
      },
      "setTimestampBuffer(uint256)": {
        "notice": "ONLY OWNER: Sets the timestamp buffer for validated emails. This is the amount of time in seconds that the timestamp can be off by and still be considered valid. Necessary to build in flexibility with L2 timestamps."
      }
    },
    "version": 1
  },
  "storageLayout": {
    "storage": [
      {
        "astId": 7,
        "contract": "contracts/ramps/venmo-v2/VenmoRegistrationProcessorV2.sol:VenmoRegistrationProcessorV2",
        "label": "_owner",
        "offset": 0,
        "slot": "0",
        "type": "t_address"
      },
      {
        "astId": 6068,
        "contract": "contracts/ramps/venmo-v2/VenmoRegistrationProcessorV2.sol:VenmoRegistrationProcessorV2",
        "label": "mailServerKeyHashAdapter",
        "offset": 0,
        "slot": "1",
        "type": "t_contract(IKeyHashAdapterV2)6431"
      },
      {
        "astId": 6071,
        "contract": "contracts/ramps/venmo-v2/VenmoRegistrationProcessorV2.sol:VenmoRegistrationProcessorV2",
        "label": "nullifierRegistry",
        "offset": 0,
        "slot": "2",
        "type": "t_contract(INullifierRegistry)6636"
      },
      {
        "astId": 6073,
        "contract": "contracts/ramps/venmo-v2/VenmoRegistrationProcessorV2.sol:VenmoRegistrationProcessorV2",
        "label": "emailFromAddress",
        "offset": 0,
        "slot": "3",
        "type": "t_bytes_storage"
      },
      {
        "astId": 6075,
        "contract": "contracts/ramps/venmo-v2/VenmoRegistrationProcessorV2.sol:VenmoRegistrationProcessorV2",
        "label": "timestampBuffer",
        "offset": 0,
        "slot": "4",
        "type": "t_uint256"
      }
    ],
    "types": {
      "t_address": {
        "encoding": "inplace",
        "label": "address",
        "numberOfBytes": "20"
      },
      "t_bytes_storage": {
        "encoding": "bytes",
        "label": "bytes",
        "numberOfBytes": "32"
      },
      "t_contract(IKeyHashAdapterV2)6431": {
        "encoding": "inplace",
        "label": "contract IKeyHashAdapterV2",
        "numberOfBytes": "20"
      },
      "t_contract(INullifierRegistry)6636": {
        "encoding": "inplace",
        "label": "contract INullifierRegistry",
        "numberOfBytes": "20"
      },
      "t_uint256": {
        "encoding": "inplace",
        "label": "uint256",
        "numberOfBytes": "32"
      }
    }
  }
}