{
  "address": "0xd5F2a19d32831366Fb1744eBA7c459ED75291cf2",
  "abi": [
    {
      "inputs": [
        {
          "internalType": "bytes32",
          "name": "_mailserverKeyHash",
          "type": "bytes32"
        }
      ],
      "stateMutability": "nonpayable",
      "type": "constructor"
    },
    {
      "anonymous": false,
      "inputs": [
        {
          "indexed": true,
          "internalType": "address",
          "name": "previousOwner",
          "type": "address"
        },
        {
          "indexed": true,
          "internalType": "address",
          "name": "newOwner",
          "type": "address"
        }
      ],
      "name": "OwnershipTransferred",
      "type": "event"
    },
    {
      "inputs": [],
      "name": "mailserverKeyHash",
      "outputs": [
        {
          "internalType": "bytes32",
          "name": "",
          "type": "bytes32"
        }
      ],
      "stateMutability": "view",
      "type": "function"
    },
    {
      "inputs": [],
      "name": "owner",
      "outputs": [
        {
          "internalType": "address",
          "name": "",
          "type": "address"
        }
      ],
      "stateMutability": "view",
      "type": "function"
    },
    {
      "inputs": [],
      "name": "renounceOwnership",
      "outputs": [],
      "stateMutability": "nonpayable",
      "type": "function"
    },
    {
      "inputs": [
        {
          "internalType": "bytes32",
          "name": "_mailserverKeyHash",
          "type": "bytes32"
        }
      ],
      "name": "setMailserverKeyHash",
      "outputs": [],
      "stateMutability": "nonpayable",
      "type": "function"
    },
    {
      "inputs": [
        {
          "internalType": "address",
          "name": "newOwner",
          "type": "address"
        }
      ],
      "name": "transferOwnership",
      "outputs": [],
      "stateMutability": "nonpayable",
      "type": "function"
    }
  ],
  "transactionHash": "0x93696e1ad27f76ffbc7364f849bb64cad6ac09886d4476105fff3a7697bf6192",
  "args": [
    "0x2ea3f223adbee4865e0cbfa3a6e748b1505a0094fd92c53d3d0dd2d4b0cd19d3"
  ],
  "numDeployments": 1,
  "solcInputHash": "653f1628715067b7cbdbe74d0cc4d947",
  "bytecode": "0x608060405234801561000f575f80fd5b5060405161033138038061033183398101604081905261002e9161008e565b6100373361003f565b6001556100a5565b5f80546001600160a01b038381166001600160a01b0319831681178455604051919092169283917f8be0079c531659141344cd1fd0a4f28419497f9722a3daafe3b4186f6b6457e09190a35050565b5f6020828403121561009e575f80fd5b5051919050565b61027f806100b25f395ff3fe608060405234801561000f575f80fd5b5060043610610055575f3560e01c806336406e6414610059578063715018a6146100755780638da5cb5b1461007f5780638f06c5df14610099578063f2fde38b146100ac575b5f80fd5b61006260015481565b6040519081526020015b60405180910390f35b61007d6100bf565b005b5f546040516001600160a01b03909116815260200161006c565b61007d6100a7366004610205565b6100d2565b61007d6100ba36600461021c565b6100df565b6100c761015d565b6100d05f6101b6565b565b6100da61015d565b600155565b6100e761015d565b6001600160a01b0381166101515760405162461bcd60e51b815260206004820152602660248201527f4f776e61626c653a206e6577206f776e657220697320746865207a65726f206160448201526564647265737360d01b60648201526084015b60405180910390fd5b61015a816101b6565b50565b5f546001600160a01b031633146100d05760405162461bcd60e51b815260206004820181905260248201527f4f776e61626c653a2063616c6c6572206973206e6f7420746865206f776e65726044820152606401610148565b5f80546001600160a01b038381166001600160a01b0319831681178455604051919092169283917f8be0079c531659141344cd1fd0a4f28419497f9722a3daafe3b4186f6b6457e09190a35050565b5f60208284031215610215575f80fd5b5035919050565b5f6020828403121561022c575f80fd5b81356001600160a01b0381168114610242575f80fd5b939250505056fea26469706673582212200be6ba4c84754329576d13be98c31a501ecd675dcf7b4f2a3dde48171bb33f0264736f6c63430008180033",
  "devdoc": {
    "kind": "dev",
    "methods": {
      "owner()": {
        "details": "Returns the address of the current owner."
      },
      "renounceOwnership()": {
        "details": "Leaves the contract without owner. It will not be possible to call `onlyOwner` functions. Can only be called by the current owner. NOTE: Renouncing ownership will leave the contract without an owner, thereby disabling any functionality that is only available to the owner."
      },
      "transferOwnership(address)": {
        "details": "Transfers ownership of the contract to a new account (`newOwner`). Can only be called by the current owner."
      }
    },
    "version": 1
  },
  "userdoc": {
    "kind": "user",
    "methods": {},
    "version": 1
  },
  "storageLayout": {
    "storage": [
      {
        "astId": 7,
        "contract": "contracts/processors/keyHashAdapters/ManagedKeyHashAdapter.sol:ManagedKeyHashAdapter",
        "label": "_owner",
        "offset": 0,
        "slot": "0",
        "type": "t_address"
      },
      {
        "astId": 5763,
        "contract": "contracts/processors/keyHashAdapters/ManagedKeyHashAdapter.sol:ManagedKeyHashAdapter",
        "label": "mailserverKeyHash",
        "offset": 0,
        "slot": "1",
        "type": "t_bytes32"
      }
    ],
    "types": {
      "t_address": {
        "encoding": "inplace",
        "label": "address",
        "numberOfBytes": "20"
      },
      "t_bytes32": {
        "encoding": "inplace",
        "label": "bytes32",
        "numberOfBytes": "32"
      }
    }
  }
}