{
  "address": "0xc6e7DF5E7b4f2A278906862b61205850344D4e7d",
  "abi": [
    {
      "inputs": [
        {
          "internalType": "address",
          "name": "_ramp",
          "type": "address"
        },
        {
          "internalType": "contract IKeyHashAdapterV2",
          "name": "_venmoMailserverKeyHashAdapter",
          "type": "address"
        },
        {
          "internalType": "contract INullifierRegistry",
          "name": "_nullifierRegistry",
          "type": "address"
        },
        {
          "internalType": "string",
          "name": "_emailFromAddress",
          "type": "string"
        },
        {
          "internalType": "uint256",
          "name": "_timestampBuffer",
          "type": "uint256"
        }
      ],
      "stateMutability": "nonpayable",
      "type": "constructor"
    },
    {
      "anonymous": false,
      "inputs": [
        {
          "indexed": true,
          "internalType": "address",
          "name": "previousOwner",
          "type": "address"
        },
        {
          "indexed": true,
          "internalType": "address",
          "name": "newOwner",
          "type": "address"
        }
      ],
      "name": "OwnershipTransferred",
      "type": "event"
    },
    {
      "inputs": [],
      "name": "PACK_SIZE",
      "outputs": [
        {
          "internalType": "uint256",
          "name": "",
          "type": "uint256"
        }
      ],
      "stateMutability": "view",
      "type": "function"
    },
    {
      "inputs": [],
      "name": "emailFromAddress",
      "outputs": [
        {
          "internalType": "bytes",
          "name": "",
          "type": "bytes"
        }
      ],
      "stateMutability": "view",
      "type": "function"
    },
    {
      "inputs": [],
      "name": "getEmailFromAddress",
      "outputs": [
        {
          "internalType": "bytes",
          "name": "",
          "type": "bytes"
        }
      ],
      "stateMutability": "view",
      "type": "function"
    },
    {
      "inputs": [
        {
          "internalType": "bytes32",
          "name": "_keyHash",
          "type": "bytes32"
        }
      ],
      "name": "isMailServerKeyHash",
      "outputs": [
        {
          "internalType": "bool",
          "name": "",
          "type": "bool"
        }
      ],
      "stateMutability": "view",
      "type": "function"
    },
    {
      "inputs": [],
      "name": "mailServerKeyHashAdapter",
      "outputs": [
        {
          "internalType": "contract IKeyHashAdapterV2",
          "name": "",
          "type": "address"
        }
      ],
      "stateMutability": "view",
      "type": "function"
    },
    {
      "inputs": [],
      "name": "nullifierRegistry",
      "outputs": [
        {
          "internalType": "contract INullifierRegistry",
          "name": "",
          "type": "address"
        }
      ],
      "stateMutability": "view",
      "type": "function"
    },
    {
      "inputs": [],
      "name": "owner",
      "outputs": [
        {
          "internalType": "address",
          "name": "",
          "type": "address"
        }
      ],
      "stateMutability": "view",
      "type": "function"
    },
    {
      "inputs": [
        {
          "components": [
            {
              "internalType": "uint256[2]",
              "name": "a",
              "type": "uint256[2]"
            },
            {
              "internalType": "uint256[2][2]",
              "name": "b",
              "type": "uint256[2][2]"
            },
            {
              "internalType": "uint256[2]",
              "name": "c",
              "type": "uint256[2]"
            },
            {
              "internalType": "uint256[12]",
              "name": "signals",
              "type": "uint256[12]"
            }
          ],
          "internalType": "struct ISendProcessor.SendProof",
          "name": "_proof",
          "type": "tuple"
        }
      ],
      "name": "processProof",
      "outputs": [
        {
          "internalType": "uint256",
          "name": "amount",
          "type": "uint256"
        },
        {
          "internalType": "uint256",
          "name": "timestamp",
          "type": "uint256"
        },
        {
          "internalType": "bytes32",
          "name": "offRamperIdHash",
          "type": "bytes32"
        },
        {
          "internalType": "bytes32",
          "name": "onRamperIdHash",
          "type": "bytes32"
        },
        {
          "internalType": "bytes32",
          "name": "intentHash",
          "type": "bytes32"
        }
      ],
      "stateMutability": "nonpayable",
      "type": "function"
    },
    {
      "inputs": [],
      "name": "ramp",
      "outputs": [
        {
          "internalType": "address",
          "name": "",
          "type": "address"
        }
      ],
      "stateMutability": "view",
      "type": "function"
    },
    {
      "inputs": [],
      "name": "renounceOwnership",
      "outputs": [],
      "stateMutability": "nonpayable",
      "type": "function"
    },
    {
      "inputs": [
        {
          "internalType": "string",
          "name": "_emailFromAddress",
          "type": "string"
        }
      ],
      "name": "setEmailFromAddress",
      "outputs": [],
      "stateMutability": "nonpayable",
      "type": "function"
    },
    {
      "inputs": [
        {
          "internalType": "contract IKeyHashAdapterV2",
          "name": "_mailServerKeyHashAdapter",
          "type": "address"
        }
      ],
      "name": "setMailserverKeyHashAdapter",
      "outputs": [],
      "stateMutability": "nonpayable",
      "type": "function"
    },
    {
      "inputs": [
        {
          "internalType": "uint256",
          "name": "_timestampBuffer",
          "type": "uint256"
        }
      ],
      "name": "setTimestampBuffer",
      "outputs": [],
      "stateMutability": "nonpayable",
      "type": "function"
    },
    {
      "inputs": [],
      "name": "timestampBuffer",
      "outputs": [
        {
          "internalType": "uint256",
          "name": "",
          "type": "uint256"
        }
      ],
      "stateMutability": "view",
      "type": "function"
    },
    {
      "inputs": [
        {
          "internalType": "address",
          "name": "newOwner",
          "type": "address"
        }
      ],
      "name": "transferOwnership",
      "outputs": [],
      "stateMutability": "nonpayable",
      "type": "function"
    },
    {
      "inputs": [
        {
          "internalType": "uint256[2]",
          "name": "_pA",
          "type": "uint256[2]"
        },
        {
          "internalType": "uint256[2][2]",
          "name": "_pB",
          "type": "uint256[2][2]"
        },
        {
          "internalType": "uint256[2]",
          "name": "_pC",
          "type": "uint256[2]"
        },
        {
          "internalType": "uint256[12]",
          "name": "_pubSignals",
          "type": "uint256[12]"
        }
      ],
      "name": "verifyProof",
      "outputs": [
        {
          "internalType": "bool",
          "name": "",
          "type": "bool"
        }
      ],
      "stateMutability": "view",
      "type": "function"
    }
  ],
  "transactionHash": "0x91634c78a1217dddd6e79a1b8ffbeabb6c8e7c936d361a3df0e41e61d250f60d",
  "args": [
    "0x9A9f2CCfdE556A7E9Ff0848998Aa4a0CFD8863AE",
    "0x68B1D87F95878fE05B998F19b66F4baba5De1aed",
    "0xDc64a140Aa3E981100a9becA4E685f962f0cF6C9",
    "venmo@venmo.com",
    "30"
  ],
  "numDeployments": 1,
  "solcInputHash": "653f1628715067b7cbdbe74d0cc4d947",
  "bytecode": "0x60a060405234801562000010575f80fd5b506040516200221038038062002210833981016040819052620000339162000115565b848484848462000043336200009a565b6001600160a01b03858116608052600180546001600160a01b031990811687841617909155600280549091169185169190911790556003620000868382620002b6565b506004555062000382975050505050505050565b5f80546001600160a01b038381166001600160a01b0319831681178455604051919092169283917f8be0079c531659141344cd1fd0a4f28419497f9722a3daafe3b4186f6b6457e09190a35050565b6001600160a01b0381168114620000fe575f80fd5b50565b634e487b7160e01b5f52604160045260245ffd5b5f805f805f60a086880312156200012a575f80fd5b85516200013781620000e9565b809550506020808701516200014c81620000e9565b60408801519095506200015f81620000e9565b60608801519094506001600160401b03808211156200017c575f80fd5b818901915089601f83011262000190575f80fd5b815181811115620001a557620001a562000101565b604051601f8201601f19908116603f01168101908382118183101715620001d057620001d062000101565b816040528281528c86848701011115620001e8575f80fd5b5f93505b828410156200020b5784840186015181850187015292850192620001ec565b5f868483010152809750505050505050608086015190509295509295909350565b600181811c908216806200024157607f821691505b6020821081036200026057634e487b7160e01b5f52602260045260245ffd5b50919050565b601f821115620002b157805f5260205f20601f840160051c810160208510156200028d5750805b601f840160051c820191505b81811015620002ae575f815560010162000299565b50505b505050565b81516001600160401b03811115620002d257620002d262000101565b620002ea81620002e384546200022c565b8462000266565b602080601f83116001811462000320575f8415620003085750858301515b5f19600386901b1c1916600185901b1785556200037a565b5f85815260208120601f198616915b8281101562000350578886015182559484019460019091019084016200032f565b50858210156200036e57878501515f19600388901b60f8161c191681555b505060018460011b0185555b505050505050565b608051611e6e620003a25f395f81816101040152610b6b0152611e6e5ff3fe608060405234801561000f575f80fd5b50600436106100fb575f3560e01c8063b2a3fda411610093578063d0b71f9911610063578063d0b71f991461023a578063dbac58211461024d578063f2fde38b14610256578063f6c7226b14610269575f80fd5b8063b2a3fda4146101f7578063b870676c1461020a578063c0d05fed1461021d578063ced1e97814610232575f80fd5b80638cbac0fa116100ce5780638cbac0fa146101865780638da5cb5b146101995780638fe0ab8e146101a9578063a8ef333f146101e4575f80fd5b806315d276e1146100ff57806319d09152146101435780633d0c9cc414610166578063715018a61461017c575b5f80fd5b6101267f000000000000000000000000000000000000000000000000000000000000000081565b6040516001600160a01b0390911681526020015b60405180910390f35b61015661015136600461183d565b61027c565b604051901515815260200161013a565b61016e600781565b60405190815260200161013a565b6101846102ed565b005b610156610194366004611864565b610300565b5f546001600160a01b0316610126565b6101bc6101b73660046118c5565b610b5b565b604080519586526020860194909452928401919091526060830152608082015260a00161013a565b600154610126906001600160a01b031681565b61018461020536600461183d565b610df7565b600254610126906001600160a01b031681565b610225610e04565b60405161013a91906118fe565b610225610e90565b610184610248366004611944565b610f20565b61016e60045481565b610184610264366004611944565b610f4a565b610184610277366004611973565b610fc0565b600154604051630ce848a960e11b8152600481018390525f916001600160a01b0316906319d0915290602401602060405180830381865afa1580156102c3573d5f803e3d5ffd5b505050506040513d601f19601f820116820180604052508101906102e79190611a1e565b92915050565b6102f5610fd8565b6102fe5f611031565b565b5f610a8c565b7f30644e72e131a029b85045b68181585d97816a916871ca8d3c208c16d87cfd478110610335575f805260205ff35b50565b5f60405183815284602082015285604082015260408160608360076107d05a03fa915081610368575f805260205ff35b825160408201526020830151606082015260408360808360066107d05a03fa91505080610397575f805260205ff35b5050505050565b7f0804d19f43c6e0aa984ef2d1e375b431a8fe0835289c656e6bba9441f166c66485527f25040db85863a4bb8731ec62d2c93ad23ff5aeba9f07860c47e85bd014a20c0f60208601525f608086018661043a87357f2eae64f73b7738369e069525e66cfe0748a4ff7a2278be1c2ff348129e5cc6757f03377031a6d2d0e51c3ba8115124ff36fbec49d2cf074f1317f2b0797133c8aa84610338565b61048a60208801357f07991a9f64c6f476627d8224834870d0468de2a4dda39e3f640486598d9d6feb7f21a357e17fb9c4a2035b9157f3ee366a49b2ddf8f741b8bc295664ce3d74f33984610338565b6104da60408801357f1127304267d4dc4109446b0bc64adf5d2fc1b09e30d6bb5172b9e6237793687c7f0a070bc6e9c8f2337f5e496e80a7dfb2f7d8120e051f6e7a82431cd477768a7484610338565b61052a60608801357f022ea8551762fb0d484eaf5dbaa9ebfc61570969e16c50553fc5256593dca66a7f01eed55a356e1365ecafc63de65edc7ed13717958ea0c4749452d7e393812e2684610338565b61057a60808801357f05e98f216225c8fd66611cf79935b4df8b4e1c1fffb6ede6384de90c66eb32c87f2ea2635dac52a7d0d21dfd61ef9bb70c5e6c969cfa3a53de181fd4ea568c4cd784610338565b6105ca60a08801357f11b99f617cbc07d59b321ae93d4fb398afc90fa19aea298eb111c4f62c8e2d297f1e9cf276628411884bf183a85eeccacbb63bf25d35a6d4554f87f4efc6cce1b384610338565b61061a60c08801357f2bd94c1e4213428e3647ba827fb2e473dd95460a9b8b0879693fb8c0a9b061557f1d0995553f2d35c98c8945170ee69c13085388df1221105c8ef10e7086426c2584610338565b61066a60e08801357f18bb9e91ce7be822a53d86b569077a4a12059e6923182dd5813951c1c6de62d27f22c7594a5e07dd0ac0bcfd42e3865beeb3b8996939e882e48c172393ec06a0e584610338565b6106bb6101008801357f2eb8899ac4d9f3c81edff23c8e14363a0e8998432c3e72bd886cd5e7fe16e9da7f2af58f6b609a74fe1a52d27026ef1fd8e719145496bc31704cc23c8144772fba84610338565b61070c6101208801357f1960888dce35e4417f924cafc664f31501a7a0e0bb584179b7d0de2402783e197f0a14b5795fc594ff84bacee8fa1e316c5cf9b9dfff5f16ed5d4c8cd1d7e2ee8b84610338565b61075d6101408801357f01c05eb851284bf3d8d069756a0a26c55d0b53ccd29b1be951cda7061c8f7a2b7f248946469d2ca9a1b04005223ad17489f4a081ae906286952ac7ebb5308349a084610338565b6107ae6101608801357f1841411f17ad3fbb997447e9f644114194d820241b5ad22e424a8e79340ad1107f1745012c998ad198581a529c8ad6dacca6372bf1b865978299698c2716fb848684610338565b50823581527f30644e72e131a029b85045b68181585d97816a916871ca8d3c208c16d87cfd4760208401357f30644e72e131a029b85045b68181585d97816a916871ca8d3c208c16d87cfd4703066020820152833560408201526020840135606082015260408401356080820152606084013560a08201527f2d4d9aa7e302d9df41749d5507949d05dbea33fbb16c643b22f599a2be6df2e260c08201527f14bedd503c37ceb061d8ec60209fe345ce89830a19230301f076caff004d192660e08201527f0967032fcbf776d1afc985f88877f182d38480a653f2decaa9794cbc3bf3060c6101008201527f0e187847ad4c798374d0d6732bf501847dd68bc0e071241e0213bc7fc13db7ab6101208201527f304cfbd1e08a704a99f5e847d93f8c3caafddec46b7a0d379da69a4d112346a76101408201527f1739c1b1a457a8c7313123d24d2f9192f896b7c63eea05a9d57f06547ad0cec86101608201525f87015161018082015260205f018701516101a08201527f198e9393920d483a7260bfb731fb5d25f1aa493335a9e71297e485b7aef312c26101c08201527f1800deef121f1e76426a00665e5c4479674322d4f75edadd46debd5cd992f6ed6101e08201527f090689d0585ff075ec9e99ad690c3395bc4b313370b38ef355acdadcd122975b6102008201527f12c85ea5db8c6deb4aab71808dcb408fe3d1e7690c43d37b4ce6cc0166fa7daa610220820152843561024082015260208501356102608201527f0ca01a01b0e88539a2eb8751fa5a97c62e0c0d170309c2a63cdbf4d824bc50c46102808201527f0230b1261f6ff569ba908e8b64b3457d4457f211379daf0d8bdf40230ed4575c6102a08201527f01955d97b88498fecafedeaacfddd0d70ef179ff31d1a88f9ea74d1e9f45a02c6102c08201527f226aa6afbcf630c798ca6ef7896ed4b17694d0ec43e17e74fc5a68b68e9a339f6102e08201526020816103008360086107d05a03fa9051169695505050505050565b6040516103808101604052610aa35f840135610306565b610ab06020840135610306565b610abd6040840135610306565b610aca6060840135610306565b610ad76080840135610306565b610ae460a0840135610306565b610af160c0840135610306565b610afe60e0840135610306565b610b0c610100840135610306565b610b1a610120840135610306565b610b28610140840135610306565b610b36610160840135610306565b610b44610180840135610306565b610b51818486888a61039e565b9050805f5260205ff35b5f80808080336001600160a01b037f00000000000000000000000000000000000000000000000000000000000000001614610bdd5760405162461bcd60e51b815260206004820181905260248201527f4f6e6c792052616d702063616e2063616c6c20746869732066756e6374696f6e60448201526064015b60405180910390fd5b6040805163465d607d60e11b81523091638cbac0fa91610c10918a919082019060c0830190610100840190600401611a3d565b602060405180830381865afa158015610c2b573d5f803e3d5ffd5b505050506040513d601f19601f82011682018060405250810190610c4f9190611a1e565b610c8b5760405162461bcd60e51b815260206004820152600d60248201526c24b73b30b634b210283937b7b360991b6044820152606401610bd4565b610c9961010087013561027c565b610ce55760405162461bcd60e51b815260206004820152601b60248201527f496e76616c6964206d61696c736572766572206b6579206861736800000000006044820152606401610bd4565b5f610cf7876101000160016004611080565b90506003604051610d089190611acf565b604051809103902081604051602001610d219190611b41565b6040516020818303038152906040528051906020012014610d845760405162461bcd60e51b815260206004820152601a60248201527f496e76616c696420656d61696c2066726f6d20616464726573730000000000006044820152606401610bd4565b610da06006610d9a896101000160046006611080565b90611150565b9550600454610dba5f610d9a8a6101000160066008611080565b610dc49190611b70565b945061020087013593506102208701359250610de4610240880135611167565b5093959294919350916102609091013590565b610dff610fd8565b600455565b60038054610e1190611a9d565b80601f0160208091040260200160405190810160405280929190818152602001828054610e3d90611a9d565b8015610e885780601f10610e5f57610100808354040283529160200191610e88565b820191905f5260205f20905b815481529060010190602001808311610e6b57829003601f168201915b505050505081565b606060038054610e9f90611a9d565b80601f0160208091040260200160405190810160405280929190818152602001828054610ecb90611a9d565b8015610f165780601f10610eed57610100808354040283529160200191610f16565b820191905f5260205f20905b815481529060010190602001808311610ef957829003601f168201915b5050505050905090565b610f28610fd8565b600180546001600160a01b0319166001600160a01b0392909216919091179055565b610f52610fd8565b6001600160a01b038116610fb75760405162461bcd60e51b815260206004820152602660248201527f4f776e61626c653a206e6577206f776e657220697320746865207a65726f206160448201526564647265737360d01b6064820152608401610bd4565b61033581611031565b610fc8610fd8565b6003610fd48282611bcc565b5050565b5f546001600160a01b031633146102fe5760405162461bcd60e51b815260206004820181905260248201527f4f776e61626c653a2063616c6c6572206973206e6f7420746865206f776e65726044820152606401610bd4565b5f80546001600160a01b038381166001600160a01b0319831681178455604051919092169283917f8be0079c531659141344cd1fd0a4f28419497f9722a3daafe3b4186f6b6457e09190a35050565b60605f61108d8484611c8c565b60ff1667ffffffffffffffff8111156110a8576110a861195f565b6040519080825280602002602001820160405280156110d1578160200160208202803683370190505b50905060ff84165b8360ff1681101561112c578581600c81106110f6576110f6611a89565b60200201358261110960ff881684611ca5565b8151811061111957611119611a89565b60209081029190910101526001016110d9565b506111476007825161113e9190611cb8565b82906007611274565b95945050505050565b5f61116083601760f91b84611586565b9392505050565b60025460405163169394bb60e01b8152600481018390526001600160a01b039091169063169394bb90602401602060405180830381865afa1580156111ae573d5f803e3d5ffd5b505050506040513d601f19601f820116820180604052508101906111d29190611a1e565b1561121f5760405162461bcd60e51b815260206004820152601f60248201527f4e756c6c69666965722068617320616c7265616479206265656e2075736564006044820152606401610bd4565b600254604051632dea6f9960e11b8152600481018390526001600160a01b0390911690635bd4df32906024015f604051808303815f87803b158015611262575f80fd5b505af1158015610397573d5f803e3d5ffd5b60605f808386516112859190611cb8565b67ffffffffffffffff81111561129d5761129d61195f565b6040519080825280601f01601f1916602001820160405280156112c7576020820181803683370190505b5090505f805b87518161ffff161015611461575f888261ffff16815181106112f1576112f1611a89565b602002602001015190505f8767ffffffffffffffff8111156113155761131561195f565b60405190808252806020026020018201604052801561133e578160200160208202803683370190505b5090505f5b8881101561138557611356816008611cb8565b83901c82828151811061136b5761136b611a89565b60ff90921660209283029190910190910152600101611343565b505f5b8881101561144b575f8282815181106113a3576113a3611a89565b602002602001015160ff169050805f14611418578060f81b8787815181106113cd576113cd611a89565b60200101906001600160f81b03191690815f1a905350856113ed81611ccf565b96506113fc9050600289611ce7565b60ff165f0361141357611410600189611d14565b97505b61143b565b611423600289611ce7565b60ff1660010361143b57611438600189611d14565b97505b5060089290921c91600101611388565b505050808061145990611d2d565b9150506112cd565b5060018360ff1610156115025760405162461bcd60e51b815260206004820152605760248201527f4e6f207061636b656420627974657320666f756e642120496e76616c6964206660448201527f696e616c207374617465206f66207061636b656420627974657320696e20656d60648201527f61696c3b2076616c7565206973206c696b656c79203021000000000000000000608482015260a401610bd4565b858111156115705760405162461bcd60e51b815260206004820152603560248201527f5061636b6564206279746573206d6f7265207468616e20616c6c6f776564206d6044820152746178206e756d626572206f66207369676e616c732160581b6064820152608401610bd4565b5f61157a8361174c565b98975050505050505050565b5f83818080805b84518110156116d157603060f81b8582815181106115ad576115ad611a89565b01602001516001600160f81b031916108015906115ee5750603960f81b8582815181106115dc576115dc611a89565b01602001516001600160f81b03191611155b1561163157603085828151811061160757611607611a89565b0160200151611619919060f81c611ca5565b61162485600a611cb8565b61162e9190611b70565b93505b8115611645578261164181611ccf565b9350505b876001600160f81b03191685828151811061166257611662611a89565b01602001516001600160f81b031916036116c95781156116c45760405162461bcd60e51b815260206004820152601c60248201527f537472696e6720686173206d756c7469706c6520646563696d616c73000000006044820152606401610bd4565b600191505b60010161158d565b508582111561172d5760405162461bcd60e51b815260206004820152602260248201527f537472696e672068617320746f6f206d616e7920646563696d616c20706c6163604482015261657360f01b6064820152608401610bd4565b6117378287611ca5565b61174290600a611e2d565b61157a9084611cb8565b805160609082905f5b82518110156117955782818151811061177057611770611a89565b01602001516001600160f81b0319165f0361178d57809150611795565b600101611755565b505f8167ffffffffffffffff8111156117b0576117b061195f565b6040519080825280601f01601f1916602001820160405280156117da576020820181803683370190505b5090505f5b82811015611834578381815181106117f9576117f9611a89565b602001015160f81c60f81b82828151811061181657611816611a89565b60200101906001600160f81b03191690815f1a9053506001016117df565b50949350505050565b5f6020828403121561184d575f80fd5b5035919050565b80604081018310156102e7575f80fd5b5f805f80610280808688031215611879575f80fd5b6118838787611854565b945060c0860187811115611895575f80fd5b6040870194506118a58882611854565b9350508681870111156118b6575f80fd5b50929591945092610100019150565b5f61028082840312156118d6575f80fd5b50919050565b5f5b838110156118f65781810151838201526020016118de565b50505f910152565b602081525f825180602084015261191c8160408501602087016118dc565b601f01601f19169190910160400192915050565b6001600160a01b0381168114610335575f80fd5b5f60208284031215611954575f80fd5b813561116081611930565b634e487b7160e01b5f52604160045260245ffd5b5f60208284031215611983575f80fd5b813567ffffffffffffffff8082111561199a575f80fd5b818401915084601f8301126119ad575f80fd5b8135818111156119bf576119bf61195f565b604051601f8201601f19908116603f011681019083821181831017156119e7576119e761195f565b816040528281528760208487010111156119ff575f80fd5b826020860160208301375f928101602001929092525095945050505050565b5f60208284031215611a2e575f80fd5b81518015158114611160575f80fd5b6102808101604080878437808301865f5b6002811015611a6b57838284379183019190830190600101611a4e565b505050808560c0850137506101808361010084013795945050505050565b634e487b7160e01b5f52603260045260245ffd5b600181811c90821680611ab157607f821691505b6020821081036118d657634e487b7160e01b5f52602260045260245ffd5b5f808354611adc81611a9d565b60018281168015611af45760018114611b0957611b35565b60ff1984168752821515830287019450611b35565b875f526020805f205f5b85811015611b2c5781548a820152908401908201611b13565b50505082870194505b50929695505050505050565b5f8251611b528184602087016118dc565b9190910192915050565b634e487b7160e01b5f52601160045260245ffd5b808201808211156102e7576102e7611b5c565b601f821115611bc757805f5260205f20601f840160051c81016020851015611ba85750805b601f840160051c820191505b81811015610397575f8155600101611bb4565b505050565b815167ffffffffffffffff811115611be657611be661195f565b611bfa81611bf48454611a9d565b84611b83565b602080601f831160018114611c2d575f8415611c165750858301515b5f19600386901b1c1916600185901b178555611c84565b5f85815260208120601f198616915b82811015611c5b57888601518255948401946001909101908401611c3c565b5085821015611c7857878501515f19600388901b60f8161c191681555b505060018460011b0185555b505050505050565b60ff82811682821603908111156102e7576102e7611b5c565b818103818111156102e7576102e7611b5c565b80820281158282048414176102e7576102e7611b5c565b5f60018201611ce057611ce0611b5c565b5060010190565b5f60ff831680611d0557634e487b7160e01b5f52601260045260245ffd5b8060ff84160691505092915050565b60ff81811683821601908111156102e7576102e7611b5c565b5f61ffff808316818103611d4357611d43611b5c565b6001019392505050565b600181815b80851115611d8757815f1904821115611d6d57611d6d611b5c565b80851615611d7a57918102915b93841c9390800290611d52565b509250929050565b5f82611d9d575060016102e7565b81611da957505f6102e7565b8160018114611dbf5760028114611dc957611de5565b60019150506102e7565b60ff841115611dda57611dda611b5c565b50506001821b6102e7565b5060208310610133831016604e8410600b8410161715611e08575081810a6102e7565b611e128383611d4d565b805f1904821115611e2557611e25611b5c565b029392505050565b5f6111608383611d8f56fea2646970667358221220d228ec6eaddbb42a04c53cafc69eb1d37036333c85a39e207cfd76959c3b76e064736f6c63430008180033",
  "devdoc": {
    "kind": "dev",
    "methods": {
      "owner()": {
        "details": "Returns the address of the current owner."
      },
      "renounceOwnership()": {
        "details": "Leaves the contract without owner. It will not be possible to call `onlyOwner` functions. Can only be called by the current owner. NOTE: Renouncing ownership will leave the contract without an owner, thereby disabling any functionality that is only available to the owner."
      },
      "setEmailFromAddress(string)": {
        "params": {
          "_emailFromAddress": "The from email address for validated emails, MUST BE PROPERLY PADDED"
        }
      },
      "setTimestampBuffer(uint256)": {
        "params": {
          "_timestampBuffer": "The timestamp buffer for validated emails"
        }
      },
      "transferOwnership(address)": {
        "details": "Transfers ownership of the contract to a new account (`newOwner`). Can only be called by the current owner."
      }
    },
    "version": 1
  },
  "userdoc": {
    "kind": "user",
    "methods": {
      "setEmailFromAddress(string)": {
        "notice": "ONLY OWNER: Sets the from email address for validated emails. Check that email address is properly padded (if necessary). Padding will be dependent on if unpacking functions cut trailing 0s or not."
      },
      "setTimestampBuffer(uint256)": {
        "notice": "ONLY OWNER: Sets the timestamp buffer for validated emails. This is the amount of time in seconds that the timestamp can be off by and still be considered valid. Necessary to build in flexibility with L2 timestamps."
      }
    },
    "version": 1
  },
  "storageLayout": {
    "storage": [
      {
        "astId": 7,
        "contract": "contracts/ramps/venmo-v2/VenmoSendProcessorV2.sol:VenmoSendProcessorV2",
        "label": "_owner",
        "offset": 0,
        "slot": "0",
        "type": "t_address"
      },
      {
        "astId": 5388,
        "contract": "contracts/ramps/venmo-v2/VenmoSendProcessorV2.sol:VenmoSendProcessorV2",
        "label": "mailServerKeyHashAdapter",
        "offset": 0,
        "slot": "1",
        "type": "t_contract(IKeyHashAdapterV2)5751"
      },
      {
        "astId": 5391,
        "contract": "contracts/ramps/venmo-v2/VenmoSendProcessorV2.sol:VenmoSendProcessorV2",
        "label": "nullifierRegistry",
        "offset": 0,
        "slot": "2",
        "type": "t_contract(INullifierRegistry)5956"
      },
      {
        "astId": 5393,
        "contract": "contracts/ramps/venmo-v2/VenmoSendProcessorV2.sol:VenmoSendProcessorV2",
        "label": "emailFromAddress",
        "offset": 0,
        "slot": "3",
        "type": "t_bytes_storage"
      },
      {
        "astId": 5395,
        "contract": "contracts/ramps/venmo-v2/VenmoSendProcessorV2.sol:VenmoSendProcessorV2",
        "label": "timestampBuffer",
        "offset": 0,
        "slot": "4",
        "type": "t_uint256"
      }
    ],
    "types": {
      "t_address": {
        "encoding": "inplace",
        "label": "address",
        "numberOfBytes": "20"
      },
      "t_bytes_storage": {
        "encoding": "bytes",
        "label": "bytes",
        "numberOfBytes": "32"
      },
      "t_contract(IKeyHashAdapterV2)5751": {
        "encoding": "inplace",
        "label": "contract IKeyHashAdapterV2",
        "numberOfBytes": "20"
      },
      "t_contract(INullifierRegistry)5956": {
        "encoding": "inplace",
        "label": "contract INullifierRegistry",
        "numberOfBytes": "20"
      },
      "t_uint256": {
        "encoding": "inplace",
        "label": "uint256",
        "numberOfBytes": "32"
      }
    }
  }
}