{
  "address": "0x5ca44163d25d09198a3eb89c9AB82fA8074f6C0D",
  "abi": [
    {
      "inputs": [
        {
          "internalType": "address",
          "name": "_ramp",
          "type": "address"
        },
        {
          "internalType": "contract IKeyHashAdapterV2",
          "name": "_garantiMailserverKeyHashAdapter",
          "type": "address"
        },
        {
          "internalType": "contract INullifierRegistry",
          "name": "_nullifierRegistry",
          "type": "address"
        },
        {
          "internalType": "contract IGarantiBodySuffixHashVerifier",
          "name": "_bodyHashVerifier",
          "type": "address"
        },
        {
          "internalType": "string",
          "name": "_emailFromAddress",
          "type": "string"
        },
        {
          "internalType": "uint256",
          "name": "_timestampBuffer",
          "type": "uint256"
        }
      ],
      "stateMutability": "nonpayable",
      "type": "constructor"
    },
    {
      "anonymous": false,
      "inputs": [
        {
          "indexed": true,
          "internalType": "address",
          "name": "previousOwner",
          "type": "address"
        },
        {
          "indexed": true,
          "internalType": "address",
          "name": "newOwner",
          "type": "address"
        }
      ],
      "name": "OwnershipTransferred",
      "type": "event"
    },
    {
      "inputs": [],
      "name": "PACK_SIZE",
      "outputs": [
        {
          "internalType": "uint256",
          "name": "",
          "type": "uint256"
        }
      ],
      "stateMutability": "view",
      "type": "function"
    },
    {
      "inputs": [],
      "name": "bodyHashVerifier",
      "outputs": [
        {
          "internalType": "contract IGarantiBodySuffixHashVerifier",
          "name": "",
          "type": "address"
        }
      ],
      "stateMutability": "view",
      "type": "function"
    },
    {
      "inputs": [],
      "name": "emailFromAddress",
      "outputs": [
        {
          "internalType": "bytes",
          "name": "",
          "type": "bytes"
        }
      ],
      "stateMutability": "view",
      "type": "function"
    },
    {
      "inputs": [],
      "name": "getEmailFromAddress",
      "outputs": [
        {
          "internalType": "bytes",
          "name": "",
          "type": "bytes"
        }
      ],
      "stateMutability": "view",
      "type": "function"
    },
    {
      "inputs": [
        {
          "internalType": "bytes32",
          "name": "_keyHash",
          "type": "bytes32"
        }
      ],
      "name": "isMailServerKeyHash",
      "outputs": [
        {
          "internalType": "bool",
          "name": "",
          "type": "bool"
        }
      ],
      "stateMutability": "view",
      "type": "function"
    },
    {
      "inputs": [],
      "name": "mailServerKeyHashAdapter",
      "outputs": [
        {
          "internalType": "contract IKeyHashAdapterV2",
          "name": "",
          "type": "address"
        }
      ],
      "stateMutability": "view",
      "type": "function"
    },
    {
      "inputs": [],
      "name": "nullifierRegistry",
      "outputs": [
        {
          "internalType": "contract INullifierRegistry",
          "name": "",
          "type": "address"
        }
      ],
      "stateMutability": "view",
      "type": "function"
    },
    {
      "inputs": [],
      "name": "owner",
      "outputs": [
        {
          "internalType": "address",
          "name": "",
          "type": "address"
        }
      ],
      "stateMutability": "view",
      "type": "function"
    },
    {
      "inputs": [
        {
          "components": [
            {
              "internalType": "uint256[2]",
              "name": "a",
              "type": "uint256[2]"
            },
            {
              "internalType": "uint256[2][2]",
              "name": "b",
              "type": "uint256[2][2]"
            },
            {
              "internalType": "uint256[2]",
              "name": "c",
              "type": "uint256[2]"
            },
            {
              "internalType": "uint256[11]",
              "name": "signals",
              "type": "uint256[11]"
            }
          ],
          "internalType": "struct IGarantiRegistrationProcessor.RegistrationProof",
          "name": "_proof",
          "type": "tuple"
        },
        {
          "components": [
            {
              "internalType": "uint256[2]",
              "name": "a",
              "type": "uint256[2]"
            },
            {
              "internalType": "uint256[2][2]",
              "name": "b",
              "type": "uint256[2][2]"
            },
            {
              "internalType": "uint256[2]",
              "name": "c",
              "type": "uint256[2]"
            },
            {
              "internalType": "uint256[4]",
              "name": "signals",
              "type": "uint256[4]"
            }
          ],
          "internalType": "struct IGarantiBodySuffixHashVerifier.BodySuffixHashProof",
          "name": "_bodyHashProof",
          "type": "tuple"
        }
      ],
      "name": "processProof",
      "outputs": [
        {
          "internalType": "bytes32",
          "name": "userIdHash",
          "type": "bytes32"
        }
      ],
      "stateMutability": "nonpayable",
      "type": "function"
    },
    {
      "inputs": [],
      "name": "ramp",
      "outputs": [
        {
          "internalType": "address",
          "name": "",
          "type": "address"
        }
      ],
      "stateMutability": "view",
      "type": "function"
    },
    {
      "inputs": [],
      "name": "renounceOwnership",
      "outputs": [],
      "stateMutability": "nonpayable",
      "type": "function"
    },
    {
      "inputs": [
        {
          "internalType": "string",
          "name": "_emailFromAddress",
          "type": "string"
        }
      ],
      "name": "setEmailFromAddress",
      "outputs": [],
      "stateMutability": "nonpayable",
      "type": "function"
    },
    {
      "inputs": [
        {
          "internalType": "contract IKeyHashAdapterV2",
          "name": "_mailServerKeyHashAdapter",
          "type": "address"
        }
      ],
      "name": "setMailserverKeyHashAdapter",
      "outputs": [],
      "stateMutability": "nonpayable",
      "type": "function"
    },
    {
      "inputs": [
        {
          "internalType": "uint256",
          "name": "_timestampBuffer",
          "type": "uint256"
        }
      ],
      "name": "setTimestampBuffer",
      "outputs": [],
      "stateMutability": "nonpayable",
      "type": "function"
    },
    {
      "inputs": [],
      "name": "timestampBuffer",
      "outputs": [
        {
          "internalType": "uint256",
          "name": "",
          "type": "uint256"
        }
      ],
      "stateMutability": "view",
      "type": "function"
    },
    {
      "inputs": [
        {
          "internalType": "address",
          "name": "newOwner",
          "type": "address"
        }
      ],
      "name": "transferOwnership",
      "outputs": [],
      "stateMutability": "nonpayable",
      "type": "function"
    },
    {
      "inputs": [
        {
          "internalType": "uint256[2]",
          "name": "_pA",
          "type": "uint256[2]"
        },
        {
          "internalType": "uint256[2][2]",
          "name": "_pB",
          "type": "uint256[2][2]"
        },
        {
          "internalType": "uint256[2]",
          "name": "_pC",
          "type": "uint256[2]"
        },
        {
          "internalType": "uint256[11]",
          "name": "_pubSignals",
          "type": "uint256[11]"
        }
      ],
      "name": "verifyProof",
      "outputs": [
        {
          "internalType": "bool",
          "name": "",
          "type": "bool"
        }
      ],
      "stateMutability": "view",
      "type": "function"
    }
  ],
  "transactionHash": "0xf171c86583a35694a3464ac34dbfe61c37bc886896c5ff4dc53768b9b1a2ac50",
  "args": [
    "0x27a6Ecb917B4BbCb6450f50Fa873510Ac3077171",
    "0xB68b9bCBEA54540F41c8F597aC6415F33114016f",
    "0x3DD68Da97Eaf62Dd5cdD0767AA20b5AF665D0a34",
    "0x6904E887086C30598E942828C70C8f4724d8dc27",
    "garanti@info.garantibbva.com.tr",
    "0"
  ],
  "numDeployments": 1,
  "solcInputHash": "fddf950e5f6f8abf0d9e29e0433009ae",
  "bytecode": "0x60a06040523480156200001157600080fd5b50604051620021e7380380620021e783398101604081905262000034916200013b565b85858584846200004433620000bc565b6001600160a01b03858116608052600180546001600160a01b031990811687841617909155600280549091169185169190911790556003620000878382620002fe565b506004555050600580546001600160a01b0319166001600160a01b03969096169590951790945550620003ca95505050505050565b600080546001600160a01b038381166001600160a01b0319831681178455604051919092169283917f8be0079c531659141344cd1fd0a4f28419497f9722a3daafe3b4186f6b6457e09190a35050565b6001600160a01b03811681146200012257600080fd5b50565b634e487b7160e01b600052604160045260246000fd5b60008060008060008060c087890312156200015557600080fd5b865162000162816200010c565b8096505060208088015162000177816200010c565b60408901519096506200018a816200010c565b60608901519095506200019d816200010c565b60808901519094506001600160401b0380821115620001bb57600080fd5b818a0191508a601f830112620001d057600080fd5b815181811115620001e557620001e562000125565b604051601f8201601f19908116603f0116810190838211818310171562000210576200021062000125565b816040528281528d868487010111156200022957600080fd5b600093505b828410156200024d57848401860151818501870152928501926200022e565b600086848301015280975050505050505060a087015190509295509295509295565b600181811c908216806200028457607f821691505b602082108103620002a557634e487b7160e01b600052602260045260246000fd5b50919050565b601f821115620002f957600081815260208120601f850160051c81016020861015620002d45750805b601f850160051c820191505b81811015620002f557828155600101620002e0565b5050505b505050565b81516001600160401b038111156200031a576200031a62000125565b62000332816200032b84546200026f565b84620002ab565b602080601f8311600181146200036a5760008415620003515750858301515b600019600386901b1c1916600185901b178555620002f5565b600085815260208120601f198616915b828110156200039b578886015182559484019460019091019084016200037a565b5085821015620003ba5787850151600019600388901b60f8161c191681555b5050505050600190811b01905550565b608051611dfa620003ed600039600081816101150152610c6f0152611dfa6000f3fe608060405234801561001057600080fd5b506004361061010b5760003560e01c8063b870676c116100a2578063d0b71f9911610071578063d0b71f9914610224578063dbac582114610237578063dc28b2bf14610240578063f2fde38b14610253578063f6c7226b1461026657600080fd5b8063b870676c146101e1578063b9c6ea87146101f4578063c0d05fed14610207578063ced1e9781461021c57600080fd5b80638da5cb5b116100de5780638da5cb5b146101975780639895e5b7146101a8578063a8ef333f146101bb578063b2a3fda4146101ce57600080fd5b806315d276e11461011057806319d09152146101545780633d0c9cc414610177578063715018a61461018d575b600080fd5b6101377f000000000000000000000000000000000000000000000000000000000000000081565b6040516001600160a01b0390911681526020015b60405180910390f35b6101676101623660046117e6565b610279565b604051901515815260200161014b565b61017f600781565b60405190815260200161014b565b6101956102ed565b005b6000546001600160a01b0316610137565b600554610137906001600160a01b031681565b600154610137906001600160a01b031681565b6101956101dc3660046117e6565b610301565b600254610137906001600160a01b031681565b610167610202366004611810565b61030e565b61020f610b18565b60405161014b919061189a565b61020f610ba6565b6101956102323660046118e2565b610c38565b61017f60045481565b61017f61024e366004611906565b610c62565b6101956102613660046118e2565b610fa3565b610195610274366004611964565b611019565b600154604051630ce848a960e11b8152600481018390526000916001600160a01b0316906319d0915290602401602060405180830381865afa1580156102c3573d6000803e3d6000fd5b505050506040513d601f19601f820116820180604052508101906102e79190611a15565b92915050565b6102f5611031565b6102ff600061108b565b565b610309611031565b600455565b6000610a54565b7f30644e72e131a029b85045b68181585d97816a916871ca8d3c208c16d87cfd478110610346576000805260206000f35b50565b600060405183815284602082015285604082015260408160608360076107d05a03fa91508161037c576000805260206000f35b825160408201526020830151606082015260408360808360066107d05a03fa915050806103ad576000805260206000f35b5050505050565b7f152dbeb8b8ab5eac60f4eef36d566fc91e5bb94e9ef0a08ec6c32127b1e5a5f285527f141de924cf08572281bf199f2e95a5e4b2573700ac3bf62f391ea2c4fbf78cee60208601526000608086018661045187357f053ddcea331e82cb4f9383d3df2ceb5d593bd9818ac8fc8bb1067ba10e629aa37f25041758d837741ae0d2ef251976f958e3c2705396cea1e9274039c0b18e8d7c84610349565b6104a160208801357f03c565627ff60ffc102246e6011808710c2ded87eb016e91cb18da96b1f3133b7f02a65c41c7e83b0c9f02b9370500a2f8355a6bbd5b1d9b06c4aa66f8799a40b284610349565b6104f160408801357f2c5b5bbde6c28b0991602a967c1fe5e32c2246d7d2880808e48265fb448e8f127f1230e04a6fd464834afed47a0ceaaaf77075c298e0db455136f4c2e218552d2b84610349565b61054160608801357f120c68be04314a872c0c388ec55c9cf3b368684ba8a50dab6d2abfb8996527827f0fc0e7d2a54f0a5a5133c038fc67a6d078b688e3c7ce78d00afb06e5b795273284610349565b61059160808801357f23819bc7be63a25573e216a2fc729f78d4bd4733558a6a6a4e98d2e175497ab27f2e6c0c05c2879447c6a65803421ba7ec6b6ba7c636f85f8e6a9ea529716abd1784610349565b6105e160a08801357f0ba21ee1f8053b9ff0fb5e743a04ec8ea70d255d0da0cbeb96556b0744a9a19c7f25a1bb0f9d263a96e44514dcba335f1991134fb33e77bf8a98e400a14ba6724b84610349565b61063160c08801357f20ac36f76fb33007fe57317ad2a6f39b907fe7da3d0c817d30ef35869d9dc4fb7f181a3c6101a924a62e0423a93c5a8ee369634777d8c4d38a4e4f9f19c0c2198384610349565b61068160e08801357f07dea76d67502b94bb38d5cd0a11ffff409213105254477105eae49a52f4ea217f1ef2ffedde9413306e78a2d35b9e6ca44cc080626abd82b44da4a9abad937cfb84610349565b6106d26101008801357f2b4a0f65746c64cfdf33690e101dc7ad6ab74e9269f2fca0a3d102d7a074a8167f01f3543d78cc7400d2d3581aaea774bb4ef7529860d8fd1c25db5a5d9cf9e07384610349565b6107236101208801357f059775a03288dbaecef98e8bbbf58b3b18cbddab69166669fde01f14460255157f2858e3c69ac92153a24e1bca97f59caecbce8d6f6d7100c615b4262a4cce619484610349565b6107746101408801357f101766538ecad8f3ad02975172f78d4a1b68dfe85762b81cfc20b5c15aedce857f1b846bd35a2b1db5876801ef17b9c07aa4be33cbf19511eada4a1d6a6ae42ef284610349565b50823581527f30644e72e131a029b85045b68181585d97816a916871ca8d3c208c16d87cfd4760208401357f30644e72e131a029b85045b68181585d97816a916871ca8d3c208c16d87cfd4703066020820152833560408201526020840135606082015260408401356080820152606084013560a08201527f2d4d9aa7e302d9df41749d5507949d05dbea33fbb16c643b22f599a2be6df2e260c08201527f14bedd503c37ceb061d8ec60209fe345ce89830a19230301f076caff004d192660e08201527f0967032fcbf776d1afc985f88877f182d38480a653f2decaa9794cbc3bf3060c6101008201527f0e187847ad4c798374d0d6732bf501847dd68bc0e071241e0213bc7fc13db7ab6101208201527f304cfbd1e08a704a99f5e847d93f8c3caafddec46b7a0d379da69a4d112346a76101408201527f1739c1b1a457a8c7313123d24d2f9192f896b7c63eea05a9d57f06547ad0cec8610160820152600087015161018082015260206000018701516101a08201527f198e9393920d483a7260bfb731fb5d25f1aa493335a9e71297e485b7aef312c26101c08201527f1800deef121f1e76426a00665e5c4479674322d4f75edadd46debd5cd992f6ed6101e08201527f090689d0585ff075ec9e99ad690c3395bc4b313370b38ef355acdadcd122975b6102008201527f12c85ea5db8c6deb4aab71808dcb408fe3d1e7690c43d37b4ce6cc0166fa7daa610220820152843561024082015260208501356102608201527f198e9393920d483a7260bfb731fb5d25f1aa493335a9e71297e485b7aef312c26102808201527f1800deef121f1e76426a00665e5c4479674322d4f75edadd46debd5cd992f6ed6102a08201527f090689d0585ff075ec9e99ad690c3395bc4b313370b38ef355acdadcd122975b6102c08201527f12c85ea5db8c6deb4aab71808dcb408fe3d1e7690c43d37b4ce6cc0166fa7daa6102e08201526020816103008360086107d05a03fa9051169695505050505050565b6040516103808101604052610a6c6000840135610315565b610a796020840135610315565b610a866040840135610315565b610a936060840135610315565b610aa06080840135610315565b610aad60a0840135610315565b610aba60c0840135610315565b610ac760e0840135610315565b610ad5610100840135610315565b610ae3610120840135610315565b610af1610140840135610315565b610aff610160840135610315565b610b0c818486888a6103b4565b90508060005260206000f35b60038054610b2590611a37565b80601f0160208091040260200160405190810160405280929190818152602001828054610b5190611a37565b8015610b9e5780601f10610b7357610100808354040283529160200191610b9e565b820191906000526020600020905b815481529060010190602001808311610b8157829003601f168201915b505050505081565b606060038054610bb590611a37565b80601f0160208091040260200160405190810160405280929190818152602001828054610be190611a37565b8015610c2e5780601f10610c0357610100808354040283529160200191610c2e565b820191906000526020600020905b815481529060010190602001808311610c1157829003601f168201915b5050505050905090565b610c40611031565b600180546001600160a01b0319166001600160a01b0392909216919091179055565b6000336001600160a01b037f00000000000000000000000000000000000000000000000000000000000000001614610ce15760405162461bcd60e51b815260206004820181905260248201527f4f6e6c792052616d702063616e2063616c6c20746869732066756e6374696f6e60448201526064015b60405180910390fd5b6040805163b9c6ea8760e01b8152309163b9c6ea8791610d149187919082019060c0830190610100840190600401611a95565b602060405180830381865afa158015610d31573d6000803e3d6000fd5b505050506040513d601f19601f82011682018060405250810190610d559190611a15565b610d915760405162461bcd60e51b815260206004820152600d60248201526c24b73b30b634b210283937b7b360991b6044820152606401610cd8565b60055460408051635fe8c13b60e01b81526001600160a01b0390921691635fe8c13b91610dd091869182019060c0830190610100840190600401611ac7565b602060405180830381865afa158015610ded573d6000803e3d6000fd5b505050506040513d601f19601f82011682018060405250810190610e119190611a15565b610e5d5760405162461bcd60e51b815260206004820152601760248201527f496e76616c696420626f647920686173682070726f6f660000000000000000006044820152606401610cd8565b610e6f836101000183610100016110db565b610e7d610100840135610279565b610ec95760405162461bcd60e51b815260206004820152601b60248201527f496e76616c6964206d61696c736572766572206b6579206861736800000000006044820152606401610cd8565b6000610edc84610100016005600a6111bc565b90506003604051610eed9190611b0e565b604051809103902081604051602001610f069190611b84565b6040516020818303038152906040528051906020012014610f695760405162461bcd60e51b815260206004820152601a60248201527f496e76616c696420656d61696c2066726f6d20616464726573730000000000006044820152606401610cd8565b610f9884604051602001610f7d9190611ba0565b60405160208183030381529060405280519060200120611297565b505050610240013590565b610fab611031565b6001600160a01b0381166110105760405162461bcd60e51b815260206004820152602660248201527f4f776e61626c653a206e6577206f776e657220697320746865207a65726f206160448201526564647265737360d01b6064820152608401610cd8565b6103468161108b565b611021611031565b600361102d8282611c28565b5050565b6000546001600160a01b031633146102ff5760405162461bcd60e51b815260206004820181905260248201527f4f776e61626c653a2063616c6c6572206973206e6f7420746865206f776e65726044820152606401610cd8565b600080546001600160a01b038381166001600160a01b0319831681178455604051919092169283917f8be0079c531659141344cd1fd0a4f28419497f9722a3daafe3b4186f6b6457e09190a35050565b6040805160208481013581830152848301358284015260608086013581840152608080870135818501528451808503909101815260a084018552805190830120853560c08501528583013560e08501528585013561010085015290850135610120808501919091528451808503909101815261014090930190935281519101208082146111b65760405162461bcd60e51b815260206004820152602360248201527f496e76616c696420696e7465726d656469617465206f72206f757470757420686044820152620c2e6d60eb1b6064820152608401610cd8565b50505050565b606060006111ca8484611cfe565b60ff1667ffffffffffffffff8111156111e5576111e561194e565b60405190808252806020026020018201604052801561120e578160200160208202803683370190505b50905060ff84165b8360ff16811015611273578581600b811061123357611233611af8565b60200201358261124660ff881684611d17565b8151811061125657611256611af8565b60209081029190910101528061126b81611d2a565b915050611216565b5061128e600782516112859190611d43565b829060076113ab565b95945050505050565b60025460405163169394bb60e01b8152600481018390526001600160a01b039091169063169394bb90602401602060405180830381865afa1580156112e0573d6000803e3d6000fd5b505050506040513d601f19601f820116820180604052508101906113049190611a15565b156113515760405162461bcd60e51b815260206004820152601f60248201527f4e756c6c69666965722068617320616c7265616479206265656e2075736564006044820152606401610cd8565b600254604051632dea6f9960e11b8152600481018390526001600160a01b0390911690635bd4df3290602401600060405180830381600087803b15801561139757600080fd5b505af11580156103ad573d6000803e3d6000fd5b60606000808386516113bd9190611d43565b67ffffffffffffffff8111156113d5576113d561194e565b6040519080825280601f01601f1916602001820160405280156113ff576020820181803683370190505b5090506000805b87518161ffff1610156115b6576000888261ffff168151811061142b5761142b611af8565b6020026020010151905060008767ffffffffffffffff8111156114505761145061194e565b604051908082528060200260200182016040528015611479578160200160208202803683370190505b50905060005b888110156114cb57611492816008611d43565b83901c8282815181106114a7576114a7611af8565b60ff90921660209283029190910190910152806114c381611d2a565b91505061147f565b5060005b888110156115a05760008282815181106114eb576114eb611af8565b602002602001015160ff16905080600014611563578060f81b87878151811061151657611516611af8565b60200101906001600160f81b031916908160001a9053508561153781611d2a565b96506115469050600289611d5a565b60ff1660000361155e5761155b600189611d8a565b97505b611586565b61156e600289611d5a565b60ff1660010361158657611583600189611d8a565b97505b5060089290921c918061159881611d2a565b9150506114cf565b50505080806115ae90611da3565b915050611406565b5060018360ff1610156116575760405162461bcd60e51b815260206004820152605760248201527f4e6f207061636b656420627974657320666f756e642120496e76616c6964206660448201527f696e616c207374617465206f66207061636b656420627974657320696e20656d60648201527f61696c3b2076616c7565206973206c696b656c79203021000000000000000000608482015260a401610cd8565b858111156116c55760405162461bcd60e51b815260206004820152603560248201527f5061636b6564206279746573206d6f7265207468616e20616c6c6f776564206d6044820152746178206e756d626572206f66207369676e616c732160581b6064820152608401610cd8565b60006116d0836116dc565b98975050505050505050565b8051606090829060005b82518110156117315782818151811061170157611701611af8565b01602001516001600160f81b03191660000361171f57809150611731565b8061172981611d2a565b9150506116e6565b5060008167ffffffffffffffff81111561174d5761174d61194e565b6040519080825280601f01601f191660200182016040528015611777576020820181803683370190505b50905060005b828110156117dd5783818151811061179757611797611af8565b602001015160f81c60f81b8282815181106117b4576117b4611af8565b60200101906001600160f81b031916908160001a905350806117d581611d2a565b91505061177d565b50949350505050565b6000602082840312156117f857600080fd5b5035919050565b80604081018310156102e757600080fd5b60008060008061026080868803121561182857600080fd5b61183287876117ff565b945060c086018781111561184557600080fd5b60408701945061185588826117ff565b93505086818701111561186757600080fd5b50929591945092610100019150565b60005b83811015611891578181015183820152602001611879565b50506000910152565b60208152600082518060208401526118b9816040850160208701611876565b601f01601f19169190910160400192915050565b6001600160a01b038116811461034657600080fd5b6000602082840312156118f457600080fd5b81356118ff816118cd565b9392505050565b6000808284036103e081121561191b57600080fd5b6102608082121561192b57600080fd5b84935061018061025f198301121561194257600080fd5b92959390920193505050565b634e487b7160e01b600052604160045260246000fd5b60006020828403121561197657600080fd5b813567ffffffffffffffff8082111561198e57600080fd5b818401915084601f8301126119a257600080fd5b8135818111156119b4576119b461194e565b604051601f8201601f19908116603f011681019083821181831017156119dc576119dc61194e565b816040528281528760208487010111156119f557600080fd5b826020860160208301376000928101602001929092525095945050505050565b600060208284031215611a2757600080fd5b815180151581146118ff57600080fd5b600181811c90821680611a4b57607f821691505b602082108103611a6b57634e487b7160e01b600052602260045260246000fd5b50919050565b8060005b60028110156111b657604080838637938401939190910190600101611a75565b61026081016040868337611aac6040830186611a71565b60408460c08401376101608361010084013795945050505050565b61018081016040868337611ade6040830186611a71565b60408460c084013760808361010084013795945050505050565b634e487b7160e01b600052603260045260246000fd5b6000808354611b1c81611a37565b60018281168015611b345760018114611b4957611b78565b60ff1984168752821515830287019450611b78565b8760005260208060002060005b85811015611b6f5781548a820152908401908201611b56565b50505082870194505b50929695505050505050565b60008251611b96818460208701611876565b9190910192915050565b61026081016040838337611bba6040830160408501611a71565b604060c0840160c0840137610100610160818501828501375092915050565b601f821115611c2357600081815260208120601f850160051c81016020861015611c005750805b601f850160051c820191505b81811015611c1f57828155600101611c0c565b5050505b505050565b815167ffffffffffffffff811115611c4257611c4261194e565b611c5681611c508454611a37565b84611bd9565b602080601f831160018114611c8b5760008415611c735750858301515b600019600386901b1c1916600185901b178555611c1f565b600085815260208120601f198616915b82811015611cba57888601518255948401946001909101908401611c9b565b5085821015611cd85787850151600019600388901b60f8161c191681555b5050505050600190811b01905550565b634e487b7160e01b600052601160045260246000fd5b60ff82811682821603908111156102e7576102e7611ce8565b818103818111156102e7576102e7611ce8565b600060018201611d3c57611d3c611ce8565b5060010190565b80820281158282048414176102e7576102e7611ce8565b600060ff831680611d7b57634e487b7160e01b600052601260045260246000fd5b8060ff84160691505092915050565b60ff81811683821601908111156102e7576102e7611ce8565b600061ffff808316818103611dba57611dba611ce8565b600101939250505056fea2646970667358221220443e0fcd4400904de06631c587525d0efb294c3850dcd37e7ae7b03e227b650d64736f6c63430008120033",
  "devdoc": {
    "kind": "dev",
    "methods": {
      "owner()": {
        "details": "Returns the address of the current owner."
      },
      "renounceOwnership()": {
        "details": "Leaves the contract without owner. It will not be possible to call `onlyOwner` functions. Can only be called by the current owner. NOTE: Renouncing ownership will leave the contract without an owner, thereby disabling any functionality that is only available to the owner."
      },
      "setEmailFromAddress(string)": {
        "params": {
          "_emailFromAddress": "The from email address for validated emails, MUST BE PROPERLY PADDED"
        }
      },
      "setTimestampBuffer(uint256)": {
        "params": {
          "_timestampBuffer": "The timestamp buffer for validated emails"
        }
      },
      "transferOwnership(address)": {
        "details": "Transfers ownership of the contract to a new account (`newOwner`). Can only be called by the current owner."
      }
    },
    "version": 1
  },
  "userdoc": {
    "kind": "user",
    "methods": {
      "setEmailFromAddress(string)": {
        "notice": "ONLY OWNER: Sets the from email address for validated emails. Check that email address is properly padded (if necessary). Padding will be dependent on if unpacking functions cut trailing 0s or not."
      },
      "setTimestampBuffer(uint256)": {
        "notice": "ONLY OWNER: Sets the timestamp buffer for validated emails. This is the amount of time in seconds that the timestamp can be off by and still be considered valid. Necessary to build in flexibility with L2 timestamps."
      }
    },
    "version": 1
  },
  "storageLayout": {
    "storage": [
      {
        "astId": 7,
        "contract": "contracts/ramps/garanti/GarantiRegistrationProcessor.sol:GarantiRegistrationProcessor",
        "label": "_owner",
        "offset": 0,
        "slot": "0",
        "type": "t_address"
      },
      {
        "astId": 3392,
        "contract": "contracts/ramps/garanti/GarantiRegistrationProcessor.sol:GarantiRegistrationProcessor",
        "label": "mailServerKeyHashAdapter",
        "offset": 0,
        "slot": "1",
        "type": "t_contract(IKeyHashAdapterV2)3566"
      },
      {
        "astId": 3395,
        "contract": "contracts/ramps/garanti/GarantiRegistrationProcessor.sol:GarantiRegistrationProcessor",
        "label": "nullifierRegistry",
        "offset": 0,
        "slot": "2",
        "type": "t_contract(INullifierRegistry)3771"
      },
      {
        "astId": 3397,
        "contract": "contracts/ramps/garanti/GarantiRegistrationProcessor.sol:GarantiRegistrationProcessor",
        "label": "emailFromAddress",
        "offset": 0,
        "slot": "3",
        "type": "t_bytes_storage"
      },
      {
        "astId": 3399,
        "contract": "contracts/ramps/garanti/GarantiRegistrationProcessor.sol:GarantiRegistrationProcessor",
        "label": "timestampBuffer",
        "offset": 0,
        "slot": "4",
        "type": "t_uint256"
      },
      {
        "astId": 6169,
        "contract": "contracts/ramps/garanti/GarantiRegistrationProcessor.sol:GarantiRegistrationProcessor",
        "label": "bodyHashVerifier",
        "offset": 0,
        "slot": "5",
        "type": "t_contract(IGarantiBodySuffixHashVerifier)6841"
      }
    ],
    "types": {
      "t_address": {
        "encoding": "inplace",
        "label": "address",
        "numberOfBytes": "20"
      },
      "t_bytes_storage": {
        "encoding": "bytes",
        "label": "bytes",
        "numberOfBytes": "32"
      },
      "t_contract(IGarantiBodySuffixHashVerifier)6841": {
        "encoding": "inplace",
        "label": "contract IGarantiBodySuffixHashVerifier",
        "numberOfBytes": "20"
      },
      "t_contract(IKeyHashAdapterV2)3566": {
        "encoding": "inplace",
        "label": "contract IKeyHashAdapterV2",
        "numberOfBytes": "20"
      },
      "t_contract(INullifierRegistry)3771": {
        "encoding": "inplace",
        "label": "contract INullifierRegistry",
        "numberOfBytes": "20"
      },
      "t_uint256": {
        "encoding": "inplace",
        "label": "uint256",
        "numberOfBytes": "32"
      }
    }
  }
}