{
  "address": "0x1048dd39f95aBE7712291752B63f61BD397c695E",
  "abi": [
    {
      "inputs": [
        {
          "internalType": "address",
          "name": "_ramp",
          "type": "address"
        },
        {
          "internalType": "contract IKeyHashAdapterV2",
          "name": "_garantiMailserverKeyHashAdapter",
          "type": "address"
        },
        {
          "internalType": "contract INullifierRegistry",
          "name": "_nullifierRegistry",
          "type": "address"
        },
        {
          "internalType": "contract IGarantiBodySuffixHashVerifier",
          "name": "_bodyHashVerifier",
          "type": "address"
        },
        {
          "internalType": "string",
          "name": "_emailFromAddress",
          "type": "string"
        },
        {
          "internalType": "uint256",
          "name": "_timestampBuffer",
          "type": "uint256"
        }
      ],
      "stateMutability": "nonpayable",
      "type": "constructor"
    },
    {
      "anonymous": false,
      "inputs": [
        {
          "indexed": true,
          "internalType": "address",
          "name": "previousOwner",
          "type": "address"
        },
        {
          "indexed": true,
          "internalType": "address",
          "name": "newOwner",
          "type": "address"
        }
      ],
      "name": "OwnershipTransferred",
      "type": "event"
    },
    {
      "inputs": [],
      "name": "bodyHashVerifier",
      "outputs": [
        {
          "internalType": "contract IGarantiBodySuffixHashVerifier",
          "name": "",
          "type": "address"
        }
      ],
      "stateMutability": "view",
      "type": "function"
    },
    {
      "inputs": [],
      "name": "emailFromAddress",
      "outputs": [
        {
          "internalType": "bytes",
          "name": "",
          "type": "bytes"
        }
      ],
      "stateMutability": "view",
      "type": "function"
    },
    {
      "inputs": [],
      "name": "getEmailFromAddress",
      "outputs": [
        {
          "internalType": "bytes",
          "name": "",
          "type": "bytes"
        }
      ],
      "stateMutability": "view",
      "type": "function"
    },
    {
      "inputs": [
        {
          "internalType": "bytes32",
          "name": "_keyHash",
          "type": "bytes32"
        }
      ],
      "name": "isMailServerKeyHash",
      "outputs": [
        {
          "internalType": "bool",
          "name": "",
          "type": "bool"
        }
      ],
      "stateMutability": "view",
      "type": "function"
    },
    {
      "inputs": [],
      "name": "mailServerKeyHashAdapter",
      "outputs": [
        {
          "internalType": "contract IKeyHashAdapterV2",
          "name": "",
          "type": "address"
        }
      ],
      "stateMutability": "view",
      "type": "function"
    },
    {
      "inputs": [],
      "name": "nullifierRegistry",
      "outputs": [
        {
          "internalType": "contract INullifierRegistry",
          "name": "",
          "type": "address"
        }
      ],
      "stateMutability": "view",
      "type": "function"
    },
    {
      "inputs": [],
      "name": "owner",
      "outputs": [
        {
          "internalType": "address",
          "name": "",
          "type": "address"
        }
      ],
      "stateMutability": "view",
      "type": "function"
    },
    {
      "inputs": [
        {
          "components": [
            {
              "internalType": "uint256[2]",
              "name": "a",
              "type": "uint256[2]"
            },
            {
              "internalType": "uint256[2][2]",
              "name": "b",
              "type": "uint256[2][2]"
            },
            {
              "internalType": "uint256[2]",
              "name": "c",
              "type": "uint256[2]"
            },
            {
              "internalType": "uint256[28]",
              "name": "signals",
              "type": "uint256[28]"
            }
          ],
          "internalType": "struct IGarantiSendProcessor.SendProof",
          "name": "_proof",
          "type": "tuple"
        },
        {
          "components": [
            {
              "internalType": "uint256[2]",
              "name": "a",
              "type": "uint256[2]"
            },
            {
              "internalType": "uint256[2][2]",
              "name": "b",
              "type": "uint256[2][2]"
            },
            {
              "internalType": "uint256[2]",
              "name": "c",
              "type": "uint256[2]"
            },
            {
              "internalType": "uint256[4]",
              "name": "signals",
              "type": "uint256[4]"
            }
          ],
          "internalType": "struct IGarantiBodySuffixHashVerifier.BodySuffixHashProof",
          "name": "_bodyHashProof",
          "type": "tuple"
        }
      ],
      "name": "processProof",
      "outputs": [
        {
          "internalType": "uint256",
          "name": "amount",
          "type": "uint256"
        },
        {
          "internalType": "uint256",
          "name": "timestamp",
          "type": "uint256"
        },
        {
          "internalType": "bytes32",
          "name": "offRamperNameHash",
          "type": "bytes32"
        },
        {
          "internalType": "bytes32",
          "name": "offRamperIdHash",
          "type": "bytes32"
        },
        {
          "internalType": "bytes32",
          "name": "onRamperIdHash",
          "type": "bytes32"
        },
        {
          "internalType": "bytes32",
          "name": "intentHash",
          "type": "bytes32"
        }
      ],
      "stateMutability": "nonpayable",
      "type": "function"
    },
    {
      "inputs": [],
      "name": "ramp",
      "outputs": [
        {
          "internalType": "address",
          "name": "",
          "type": "address"
        }
      ],
      "stateMutability": "view",
      "type": "function"
    },
    {
      "inputs": [],
      "name": "renounceOwnership",
      "outputs": [],
      "stateMutability": "nonpayable",
      "type": "function"
    },
    {
      "inputs": [
        {
          "internalType": "string",
          "name": "_emailFromAddress",
          "type": "string"
        }
      ],
      "name": "setEmailFromAddress",
      "outputs": [],
      "stateMutability": "nonpayable",
      "type": "function"
    },
    {
      "inputs": [
        {
          "internalType": "contract IKeyHashAdapterV2",
          "name": "_mailServerKeyHashAdapter",
          "type": "address"
        }
      ],
      "name": "setMailserverKeyHashAdapter",
      "outputs": [],
      "stateMutability": "nonpayable",
      "type": "function"
    },
    {
      "inputs": [
        {
          "internalType": "uint256",
          "name": "_timestampBuffer",
          "type": "uint256"
        }
      ],
      "name": "setTimestampBuffer",
      "outputs": [],
      "stateMutability": "nonpayable",
      "type": "function"
    },
    {
      "inputs": [],
      "name": "timestampBuffer",
      "outputs": [
        {
          "internalType": "uint256",
          "name": "",
          "type": "uint256"
        }
      ],
      "stateMutability": "view",
      "type": "function"
    },
    {
      "inputs": [
        {
          "internalType": "address",
          "name": "newOwner",
          "type": "address"
        }
      ],
      "name": "transferOwnership",
      "outputs": [],
      "stateMutability": "nonpayable",
      "type": "function"
    },
    {
      "inputs": [
        {
          "internalType": "uint256[2]",
          "name": "_pA",
          "type": "uint256[2]"
        },
        {
          "internalType": "uint256[2][2]",
          "name": "_pB",
          "type": "uint256[2][2]"
        },
        {
          "internalType": "uint256[2]",
          "name": "_pC",
          "type": "uint256[2]"
        },
        {
          "internalType": "uint256[28]",
          "name": "_pubSignals",
          "type": "uint256[28]"
        }
      ],
      "name": "verifyProof",
      "outputs": [
        {
          "internalType": "bool",
          "name": "",
          "type": "bool"
        }
      ],
      "stateMutability": "view",
      "type": "function"
    }
  ],
  "transactionHash": "0x782731909cf46e1c7e7b06e22c7dfb28c36446608535a6693304f5d293fb5505",
  "args": [
    "0x27a6Ecb917B4BbCb6450f50Fa873510Ac3077171",
    "0xB68b9bCBEA54540F41c8F597aC6415F33114016f",
    "0x3DD68Da97Eaf62Dd5cdD0767AA20b5AF665D0a34",
    "0xA52E53Efa715a2909328Bffb3d7f2eE2B84A5Cb7",
    "garanti@info.garantibbva.com.tr",
    "30"
  ],
  "numDeployments": 1,
  "solcInputHash": "b37c1ae3295cdbee97a5fae6e06eede9",
  "bytecode": "0x60a06040523480156200001157600080fd5b5060405162002bae38038062002bae83398101604081905262000034916200013b565b85858584846200004433620000bc565b6001600160a01b03858116608052600180546001600160a01b031990811687841617909155600280549091169185169190911790556003620000878382620002fe565b506004555050600580546001600160a01b0319166001600160a01b03969096169590951790945550620003ca95505050505050565b600080546001600160a01b038381166001600160a01b0319831681178455604051919092169283917f8be0079c531659141344cd1fd0a4f28419497f9722a3daafe3b4186f6b6457e09190a35050565b6001600160a01b03811681146200012257600080fd5b50565b634e487b7160e01b600052604160045260246000fd5b60008060008060008060c087890312156200015557600080fd5b865162000162816200010c565b8096505060208088015162000177816200010c565b60408901519096506200018a816200010c565b60608901519095506200019d816200010c565b60808901519094506001600160401b0380821115620001bb57600080fd5b818a0191508a601f830112620001d057600080fd5b815181811115620001e557620001e562000125565b604051601f8201601f19908116603f0116810190838211818310171562000210576200021062000125565b816040528281528d868487010111156200022957600080fd5b600093505b828410156200024d57848401860151818501870152928501926200022e565b600086848301015280975050505050505060a087015190509295509295509295565b600181811c908216806200028457607f821691505b602082108103620002a557634e487b7160e01b600052602260045260246000fd5b50919050565b601f821115620002f957600081815260208120601f850160051c81016020861015620002d45750805b601f850160051c820191505b81811015620002f557828155600101620002e0565b5050505b505050565b81516001600160401b038111156200031a576200031a62000125565b62000332816200032b84546200026f565b84620002ab565b602080601f8311600181146200036a5760008415620003515750858301515b600019600386901b1c1916600185901b178555620002f5565b600085815260208120601f198616915b828110156200039b578886015182559484019460019091019084016200037a565b5085821015620003ba5787850151600019600388901b60f8161c191681555b5050505050600190811b01905550565b6080516127c1620003ed6000396000818161014f01526102a501526127c16000f3fe608060405234801561001057600080fd5b50600436106101005760003560e01c8063b2a3fda411610097578063d0b71f9911610066578063d0b71f9914610243578063dbac582114610256578063f2fde38b1461026d578063f6c7226b1461028057600080fd5b8063b2a3fda414610200578063b870676c14610213578063c0d05fed14610226578063ced1e9781461023b57600080fd5b8063715018a6116100d3578063715018a6146101bf5780638da5cb5b146101c95780639895e5b7146101da578063a8ef333f146101ed57600080fd5b80630c44b2771461010557806315d276e11461014a57806319d09152146101895780635b2d12ea146101ac575b600080fd5b6101186101133660046120ea565b610293565b604080519687526020870195909552938501929092526060840152608083015260a082015260c0015b60405180910390f35b6101717f000000000000000000000000000000000000000000000000000000000000000081565b6040516001600160a01b039091168152602001610141565b61019c610197366004612132565b61068e565b6040519015158152602001610141565b61019c6101ba36600461215c565b610702565b6101c7611558565b005b6000546001600160a01b0316610171565b600554610171906001600160a01b031681565b600154610171906001600160a01b031681565b6101c761020e366004612132565b61156c565b600254610171906001600160a01b031681565b61022e611579565b60405161014191906121e6565b61022e611607565b6101c761025136600461222e565b611699565b61025f60045481565b604051908152602001610141565b6101c761027b36600461222e565b6116c3565b6101c761028e366004612261565b611739565b60008080808080336001600160a01b037f000000000000000000000000000000000000000000000000000000000000000016146103175760405162461bcd60e51b815260206004820181905260248201527f4f6e6c792052616d702063616e2063616c6c20746869732066756e6374696f6e60448201526064015b60405180910390fd5b60408051632d96897560e11b81523091635b2d12ea9161034a918c919082019060c0830190610100840190600401612336565b602060405180830381865afa158015610367573d6000803e3d6000fd5b505050506040513d601f19601f8201168201806040525081019061038b9190612368565b6103c75760405162461bcd60e51b815260206004820152600d60248201526c24b73b30b634b210283937b7b360991b604482015260640161030e565b60055460408051635fe8c13b60e01b81526001600160a01b0390921691635fe8c13b91610406918b9182019060c083019061010084019060040161238a565b602060405180830381865afa158015610423573d6000803e3d6000fd5b505050506040513d601f19601f820116820180604052508101906104479190612368565b6104935760405162461bcd60e51b815260206004820152601760248201527f496e76616c696420626f647920686173682070726f6f66000000000000000000604482015260640161030e565b6104a588610100018861010001611751565b6104b361010089013561068e565b6104ff5760405162461bcd60e51b815260206004820152601b60248201527f496e76616c6964206d61696c736572766572206b657920686173680000000000604482015260640161030e565b600061051289610100016005600a611832565b90506003604051610523919061240b565b60405180910390208160405160200161053c9190612481565b604051602081830303815290604052805190602001201461059f5760405162461bcd60e51b815260206004820152601a60248201527f496e76616c696420656d61696c2066726f6d2061646472657373000000000000604482015260640161030e565b6105c1600b60fa1b60066105ba6101008d0160176019611832565b919061190d565b96506004546105e260006105dc8c61010001600a600c611832565b90611aea565b6105ec91906124b3565b955061042089013592506106076101008a01600c6012611832565b6040516020016106179190612481565b604051602081830303815290604052805190602001209450610640896101000160126017611832565b6040516020016106509190612481565b60408051808303601f19018152919052805160209091012093506106786104408a0135611b02565b5094979396929550909350916104609091013590565b600154604051630ce848a960e11b8152600481018390526000916001600160a01b0316906319d0915290602401602060405180830381865afa1580156106d8573d6000803e3d6000fd5b505050506040513d601f19601f820116820180604052508101906106fc9190612368565b92915050565b60006113a6565b7f30644e72e131a029b85045b68181585d97816a916871ca8d3c208c16d87cfd47811061073a576000805260206000f35b50565b600060405183815284602082015285604082015260408160608360076107d05a03fa915081610770576000805260206000f35b825160408201526020830151606082015260408360808360066107d05a03fa915050806107a1576000805260206000f35b5050505050565b7f23fe0119e0d86d98fef3296d3987953338f409989ee0d25c2e6f65f1ac69a0ce85527f01c6e591e4f2be7957d3c4d6e6a4bc56531b0b5853fae4cbbb9979dc3fb4054760208601526000608086018661084587357f22ab60c4aec5bc92a88fb158ea2f8650a673a4c6b22d1129ac1d00be9390f9b47f0c6c5c5e9cd44842f22ea4148cb673cd03856d7a1470fcbadeedfc16e4fdeada8461073d565b61089560208801357f101cf9529c1420aba7bd89319bbe0a2d90c912fdfc582d65c26d563341eb4e047f0ca42b1575a9a329c09d91b81f8b84c130808565de3467e32e109ac740ab9b6e8461073d565b6108e560408801357f089d945945e413f66f09d7d05eced536c1b1c76af63307988e5602c5fa18a2647f19e936c17e4e70f8d4a74a0c5d3c0b6ca8882523a94617e4a8eed449efe2d63e8461073d565b61093560608801357f2a7d9db6e93fe306547d1509e3152be1ad664b5a56700e6d01e1b0ad177562227f2570aa6d600dcb3626e9bdedd465d8f4d67f1662ea70e514fcccdc37dbeb30628461073d565b61098560808801357f22441bd33d5f7d352f09f043001ead6d8dce01fe4f1e06f6d52a3ec025a50e477f2f62d4ab058625a42df361a06e432ea669df600b018d57a3cc9e06d3b32352908461073d565b6109d560a08801357f2bd98244eb34f527cddde82bc7ecd3d82572341b6723c7e204b4b13b4483a0067f2bc1835204d308c4560a3db92bffeb83d72eee6fcc8c286c5f46b11ff20819718461073d565b610a2560c08801357f076ee4439bed6ba9c0363880a2a678899b2ca3f4a8b60c954e4ef908658a959a7f1a1de9f43ef35c391fcc525fe1350dbf6158cb4b977402b318e7a69646b4d9038461073d565b610a7560e08801357f0ff1e251abd89fcb1a7d7933e30545ed1d70fdaa8aefaf38e4f0a8d7a03bc41e7f08162360d15cfd2c53d5ed4f2a5ced2cddc4ca82ce6094b2155d53bc934317798461073d565b610ac66101008801357f2675a0ba71a63d06d61dd6379583ad1c910138768349d0028ab3341a9ddd97c67f061570d382129dff2bac14d938281bc6c434663611bffd8ebae841e89b3a91438461073d565b610b176101208801357f2e7ee0dfebd18a5dce23ca2c9281caadd1e64d18a299c052a315130f01acd7857f198da0e315822dc430064816fa30bff8dc44b12dcaf3bb1f7969e1ed3d1f123c8461073d565b610b676101408801357f1f1dbe73fe0b80437353249d8a85e029446996809fc833c20d4f2ce5298fc0397e7795fe454ffc3f3e74f9da55cdce061a5e0b00097ddc642b0ce7246bbd5c468461073d565b610bb86101608801357f12273cff18addf941caf2bfcca416d3ff48b65a5c23f2470379ccc91c1a1988a7f0b125c630f757966a1277c4ba48ee8f917dc2355c9b0ae1e344611c66de4f6c08461073d565b610c096101808801357f128f40c4e75ffaad2b197a6a59752a2a47c91a4cca174dc0efab9f0286c52d5d7f1d63fa7d27b65bae515baf04e661a140a4f6c0429067223beb3b7ab4c36d2ffe8461073d565b610c5a6101a08801357f2ca69ffae97a540015d7c340ba9d751bdddd22c1226e850f47b86fba3bc9c4ee7f2776a05d98ee9432c323b360cae02e275acf2a8d0af78ac0fee9e017c63c60c98461073d565b610cab6101c08801357f2b6af433c35897a0f9458c8c8dc529ae00bd2f485e0fd1eb1aa9c33510d8b5af7f26668060050e6db758e60e3b944075a05b1708c45c0a7b74609ddcf2e78396658461073d565b610cfc6101e08801357f087083b6345e3b3a634f91ebac116834623185ce32bee1b57b80bf249e5082dc7f2b742c812404bde4218c3c0d3830669c3bdaf023717c8c6e16342dcd7fae8dcb8461073d565b610d4d6102008801357f0613ef91c62c4fe8695af930288e88015cb0db3f9421f9bd29da3675aa6403177f110e8f6a568e37356c1f05b9f063142461b41e4869e76784d10ef0c52c1422308461073d565b610d9e6102208801357f14420a530bff2b7dbc9956771e90b019ca0035fcd22623c064145c7de21d64127f029819dce317f0ed390d1e4525fb803cd0594a5fc1cd708cc118bf8b46d906d78461073d565b610def6102408801357f08d51bc7ed9e0fa0a16095a14d1f08e59a542a37610dc382c154dba6021eb65e7f12f54cc9fc215b9665fcec7f0ea84278ccfdec9ce0721b3d54c8aad79dadaf2e8461073d565b610e406102608801357f1a5601de789a9b9676133a0ca9c5db25d5a96113c9c975e7a102cec68848a4b07f23fd9af7d041dbb03d11a3431c72b5a460a1d36c9c8794d2d3b76093d6dbba3f8461073d565b610e916102808801357f1f20e53fb46193851de0c5290fe68ef454d2c0aee9d718d3a26dc1b9a0d1fbf37f0119d365c9bd85d15ae0cfd05222329bedbd2b5af1152bb01a06fd6e927d72df8461073d565b610ee16102a08801357e3c7a3b50dc6c29bbecafaf5c20327657603b3f5cdf7e1cfe0b9a872c8937557f0573d6da8283a957bede0e1d662a7826475a7f3503b61ce6731cda9e05b9061f8461073d565b610f326102c08801357f17899f38cd9c61264b3a0b6bd8849bccb8d7752a18e26ac11d755f3dde8b61097f169a46074f60fe92e7e2f51c1cb9f1ef137bd9a056c3391eb9f6a7c656ce6f3e8461073d565b610f836102e08801357f288723a08481f3ba64b49862bb693af72875ed303cba67d71d79ac19605ebb067f100e99c7a85374b98df7f70dee671d985be259cf23b941d97c9903742aec653d8461073d565b610fd46103008801357f094162cf3f32de9b93a59ef13c9a33ac297fd5b803cd9a6b7c888510375d67207f1df59b2a12d7a478bb3abc00b26d86973722485658d0466c5bcb7136b8d00ee88461073d565b6110256103208801357f26d2dd8bcb721ddddf7a89fce7a8174360bfde331abacdcc4e95a544437623c97f222355ee8b12fd4b953be489ce7ac9e0c45c41ae9f9a3e818018a2ef27c8fe868461073d565b6110766103408801357f0ac9b2a5b59662bfe8d866a43ff5280402ceaff7bf4d0d3321bd5cffb8238cbf7f118feff08485cffea53d0e5750f0cfad7d5f6415985d002708c0ba4cdb806d778461073d565b6110c66103608801357f1ef601660e69a4d6b550f31e03b229bc114ae46a0dbc611a88c5f2b9da5d67637e2b50469bb49cfb2b946d134a99c282cb9ae18a70ce144bf7bbbe74be9e5cd48461073d565b50823581527f30644e72e131a029b85045b68181585d97816a916871ca8d3c208c16d87cfd4760208401357f30644e72e131a029b85045b68181585d97816a916871ca8d3c208c16d87cfd4703066020820152833560408201526020840135606082015260408401356080820152606084013560a08201527f2d4d9aa7e302d9df41749d5507949d05dbea33fbb16c643b22f599a2be6df2e260c08201527f14bedd503c37ceb061d8ec60209fe345ce89830a19230301f076caff004d192660e08201527f0967032fcbf776d1afc985f88877f182d38480a653f2decaa9794cbc3bf3060c6101008201527f0e187847ad4c798374d0d6732bf501847dd68bc0e071241e0213bc7fc13db7ab6101208201527f304cfbd1e08a704a99f5e847d93f8c3caafddec46b7a0d379da69a4d112346a76101408201527f1739c1b1a457a8c7313123d24d2f9192f896b7c63eea05a9d57f06547ad0cec8610160820152600087015161018082015260206000018701516101a08201527f198e9393920d483a7260bfb731fb5d25f1aa493335a9e71297e485b7aef312c26101c08201527f1800deef121f1e76426a00665e5c4479674322d4f75edadd46debd5cd992f6ed6101e08201527f090689d0585ff075ec9e99ad690c3395bc4b313370b38ef355acdadcd122975b6102008201527f12c85ea5db8c6deb4aab71808dcb408fe3d1e7690c43d37b4ce6cc0166fa7daa610220820152843561024082015260208501356102608201527f2421d5e11b841e97bba6ebf4f6c52f5e7068b4cac03cfe14b850dab7b03cb7416102808201527f16cda08f8f6fd30da8c340e73ad4829d593f0b6e9adddda9cf9e7992704f60b46102a08201527f29b8959bb7032f74cf68b6fd6b3ae134f46034af7754bff13dd000fb177fad8f6102c08201527f2e43943d84a2aa708872610f2ad74308fe43ac6599953f160297ad9fdac814776102e08201526020816103008360086107d05a03fa9051169695505050505050565b60405161038081016040526113be6000840135610709565b6113cb6020840135610709565b6113d86040840135610709565b6113e56060840135610709565b6113f26080840135610709565b6113ff60a0840135610709565b61140c60c0840135610709565b61141960e0840135610709565b611427610100840135610709565b611435610120840135610709565b611443610140840135610709565b611451610160840135610709565b61145f610180840135610709565b61146d6101a0840135610709565b61147b6101c0840135610709565b6114896101e0840135610709565b611497610200840135610709565b6114a5610220840135610709565b6114b3610240840135610709565b6114c1610260840135610709565b6114cf610280840135610709565b6114dd6102a0840135610709565b6114eb6102c0840135610709565b6114f96102e0840135610709565b611507610300840135610709565b611515610320840135610709565b611523610340840135610709565b611531610360840135610709565b61153f610380840135610709565b61154c818486888a6107a8565b90508060005260206000f35b611560611c16565b61156a6000611c70565b565b611574611c16565b600455565b60038054611586906123d1565b80601f01602080910402602001604051908101604052809291908181526020018280546115b2906123d1565b80156115ff5780601f106115d4576101008083540402835291602001916115ff565b820191906000526020600020905b8154815290600101906020018083116115e257829003601f168201915b505050505081565b606060038054611616906123d1565b80601f0160208091040260200160405190810160405280929190818152602001828054611642906123d1565b801561168f5780601f106116645761010080835404028352916020019161168f565b820191906000526020600020905b81548152906001019060200180831161167257829003601f168201915b5050505050905090565b6116a1611c16565b600180546001600160a01b0319166001600160a01b0392909216919091179055565b6116cb611c16565b6001600160a01b0381166117305760405162461bcd60e51b815260206004820152602660248201527f4f776e61626c653a206e6577206f776e657220697320746865207a65726f206160448201526564647265737360d01b606482015260840161030e565b61073a81611c70565b611741611c16565b600361174d8282612515565b5050565b6040805160208481013581830152848301358284015260608086013581840152608080870135818501528451808503909101815260a084018552805190830120853560c08501528583013560e085015285850135610100850152908501356101208085019190915284518085039091018152610140909301909352815191012080821461182c5760405162461bcd60e51b815260206004820152602360248201527f496e76616c696420696e7465726d656469617465206f72206f757470757420686044820152620c2e6d60eb1b606482015260840161030e565b50505050565b6060600061184084846125d5565b60ff1667ffffffffffffffff81111561185b5761185b61224b565b604051908082528060200260200182016040528015611884578160200160208202803683370190505b50905060ff84165b8360ff168110156118e9578581601c81106118a9576118a96123bb565b6020020135826118bc60ff8816846125ee565b815181106118cc576118cc6123bb565b6020908102919091010152806118e181612601565b91505061188c565b50611904600782516118fb919061261a565b82906007611cc0565b95945050505050565b600083818080805b8451811015611a6357603060f81b858281518110611935576119356123bb565b01602001516001600160f81b031916108015906119765750603960f81b858281518110611964576119646123bb565b01602001516001600160f81b03191611155b156119b957603085828151811061198f5761198f6123bb565b01602001516119a1919060f81c6125ee565b6119ac85600a61261a565b6119b691906124b3565b93505b81156119cd57826119c981612601565b9350505b876001600160f81b0319168582815181106119ea576119ea6123bb565b01602001516001600160f81b03191603611a51578115611a4c5760405162461bcd60e51b815260206004820152601c60248201527f537472696e6720686173206d756c7469706c6520646563696d616c7300000000604482015260640161030e565b600191505b80611a5b81612601565b915050611915565b5085821115611abf5760405162461bcd60e51b815260206004820152602260248201527f537472696e672068617320746f6f206d616e7920646563696d616c20706c6163604482015261657360f01b606482015260840161030e565b611ac982876125ee565b611ad490600a612715565b611ade908461261a565b98975050505050505050565b6000611afb83601760f91b8461190d565b9392505050565b60025460405163169394bb60e01b8152600481018390526001600160a01b039091169063169394bb90602401602060405180830381865afa158015611b4b573d6000803e3d6000fd5b505050506040513d601f19601f82011682018060405250810190611b6f9190612368565b15611bbc5760405162461bcd60e51b815260206004820152601f60248201527f4e756c6c69666965722068617320616c7265616479206265656e207573656400604482015260640161030e565b600254604051632dea6f9960e11b8152600481018390526001600160a01b0390911690635bd4df3290602401600060405180830381600087803b158015611c0257600080fd5b505af11580156107a1573d6000803e3d6000fd5b6000546001600160a01b0316331461156a5760405162461bcd60e51b815260206004820181905260248201527f4f776e61626c653a2063616c6c6572206973206e6f7420746865206f776e6572604482015260640161030e565b600080546001600160a01b038381166001600160a01b0319831681178455604051919092169283917f8be0079c531659141344cd1fd0a4f28419497f9722a3daafe3b4186f6b6457e09190a35050565b6060600080838651611cd2919061261a565b67ffffffffffffffff811115611cea57611cea61224b565b6040519080825280601f01601f191660200182016040528015611d14576020820181803683370190505b5090506000805b87518161ffff161015611ecb576000888261ffff1681518110611d4057611d406123bb565b6020026020010151905060008767ffffffffffffffff811115611d6557611d6561224b565b604051908082528060200260200182016040528015611d8e578160200160208202803683370190505b50905060005b88811015611de057611da781600861261a565b83901c828281518110611dbc57611dbc6123bb565b60ff9092166020928302919091019091015280611dd881612601565b915050611d94565b5060005b88811015611eb5576000828281518110611e0057611e006123bb565b602002602001015160ff16905080600014611e78578060f81b878781518110611e2b57611e2b6123bb565b60200101906001600160f81b031916908160001a90535085611e4c81612601565b9650611e5b9050600289612721565b60ff16600003611e7357611e70600189612751565b97505b611e9b565b611e83600289612721565b60ff16600103611e9b57611e98600189612751565b97505b5060089290921c9180611ead81612601565b915050611de4565b5050508080611ec39061276a565b915050611d1b565b5060018360ff161015611f6c5760405162461bcd60e51b815260206004820152605760248201527f4e6f207061636b656420627974657320666f756e642120496e76616c6964206660448201527f696e616c207374617465206f66207061636b656420627974657320696e20656d60648201527f61696c3b2076616c7565206973206c696b656c79203021000000000000000000608482015260a40161030e565b85811115611fda5760405162461bcd60e51b815260206004820152603560248201527f5061636b6564206279746573206d6f7265207468616e20616c6c6f776564206d6044820152746178206e756d626572206f66207369676e616c732160581b606482015260840161030e565b6000611ade838051606090829060005b825181101561203557828181518110612005576120056123bb565b01602001516001600160f81b03191660000361202357809150612035565b8061202d81612601565b915050611fea565b5060008167ffffffffffffffff8111156120515761205161224b565b6040519080825280601f01601f19166020018201604052801561207b576020820181803683370190505b50905060005b828110156120e15783818151811061209b5761209b6123bb565b602001015160f81c60f81b8282815181106120b8576120b86123bb565b60200101906001600160f81b031916908160001a905350806120d981612601565b915050612081565b50949350505050565b6000808284036106008112156120ff57600080fd5b6104808082121561210f57600080fd5b84935061018061047f198301121561212657600080fd5b92959390920193505050565b60006020828403121561214457600080fd5b5035919050565b80604081018310156106fc57600080fd5b60008060008061048080868803121561217457600080fd5b61217e878761214b565b945060c086018781111561219157600080fd5b6040870194506121a1888261214b565b9350508681870111156121b357600080fd5b50929591945092610100019150565b60005b838110156121dd5781810151838201526020016121c5565b50506000910152565b60208152600082518060208401526122058160408501602087016121c2565b601f01601f19169190910160400192915050565b6001600160a01b038116811461073a57600080fd5b60006020828403121561224057600080fd5b8135611afb81612219565b634e487b7160e01b600052604160045260246000fd5b60006020828403121561227357600080fd5b813567ffffffffffffffff8082111561228b57600080fd5b818401915084601f83011261229f57600080fd5b8135818111156122b1576122b161224b565b604051601f8201601f19908116603f011681019083821181831017156122d9576122d961224b565b816040528281528760208487010111156122f257600080fd5b826020860160208301376000928101602001929092525095945050505050565b8060005b600281101561182c57604080838637938401939190910190600101612316565b6104808101604086833761234d6040830186612312565b60408460c08401376103808361010084013795945050505050565b60006020828403121561237a57600080fd5b81518015158114611afb57600080fd5b610180810160408683376123a16040830186612312565b60408460c084013760808361010084013795945050505050565b634e487b7160e01b600052603260045260246000fd5b600181811c908216806123e557607f821691505b60208210810361240557634e487b7160e01b600052602260045260246000fd5b50919050565b6000808354612419816123d1565b60018281168015612431576001811461244657612475565b60ff1984168752821515830287019450612475565b8760005260208060002060005b8581101561246c5781548a820152908401908201612453565b50505082870194505b50929695505050505050565b600082516124938184602087016121c2565b9190910192915050565b634e487b7160e01b600052601160045260246000fd5b808201808211156106fc576106fc61249d565b601f82111561251057600081815260208120601f850160051c810160208610156124ed5750805b601f850160051c820191505b8181101561250c578281556001016124f9565b5050505b505050565b815167ffffffffffffffff81111561252f5761252f61224b565b6125438161253d84546123d1565b846124c6565b602080601f83116001811461257857600084156125605750858301515b600019600386901b1c1916600185901b17855561250c565b600085815260208120601f198616915b828110156125a757888601518255948401946001909101908401612588565b50858210156125c55787850151600019600388901b60f8161c191681555b5050505050600190811b01905550565b60ff82811682821603908111156106fc576106fc61249d565b818103818111156106fc576106fc61249d565b6000600182016126135761261361249d565b5060010190565b80820281158282048414176106fc576106fc61249d565b600181815b8085111561266c5781600019048211156126525761265261249d565b8085161561265f57918102915b93841c9390800290612636565b509250929050565b600082612683575060016106fc565b81612690575060006106fc565b81600181146126a657600281146126b0576126cc565b60019150506106fc565b60ff8411156126c1576126c161249d565b50506001821b6106fc565b5060208310610133831016604e8410600b84101617156126ef575081810a6106fc565b6126f98383612631565b806000190482111561270d5761270d61249d565b029392505050565b6000611afb8383612674565b600060ff83168061274257634e487b7160e01b600052601260045260246000fd5b8060ff84160691505092915050565b60ff81811683821601908111156106fc576106fc61249d565b600061ffff8083168181036127815761278161249d565b600101939250505056fea2646970667358221220b68d775d23695c7993f4e8191809ed6a550eea8e913da4fdcf02358fa5577a5c64736f6c63430008120033",
  "devdoc": {
    "kind": "dev",
    "methods": {
      "owner()": {
        "details": "Returns the address of the current owner."
      },
      "renounceOwnership()": {
        "details": "Leaves the contract without owner. It will not be possible to call `onlyOwner` functions. Can only be called by the current owner. NOTE: Renouncing ownership will leave the contract without an owner, thereby disabling any functionality that is only available to the owner."
      },
      "setEmailFromAddress(string)": {
        "params": {
          "_emailFromAddress": "The from email address for validated emails, MUST BE PROPERLY PADDED"
        }
      },
      "setTimestampBuffer(uint256)": {
        "params": {
          "_timestampBuffer": "The timestamp buffer for validated emails"
        }
      },
      "transferOwnership(address)": {
        "details": "Transfers ownership of the contract to a new account (`newOwner`). Can only be called by the current owner."
      }
    },
    "version": 1
  },
  "userdoc": {
    "kind": "user",
    "methods": {
      "setEmailFromAddress(string)": {
        "notice": "ONLY OWNER: Sets the from email address for validated emails. Check that email address is properly padded (if necessary). Padding will be dependent on if unpacking functions cut trailing 0s or not."
      },
      "setTimestampBuffer(uint256)": {
        "notice": "ONLY OWNER: Sets the timestamp buffer for validated emails. This is the amount of time in seconds that the timestamp can be off by and still be considered valid. Necessary to build in flexibility with L2 timestamps."
      }
    },
    "version": 1
  },
  "storageLayout": {
    "storage": [
      {
        "astId": 7,
        "contract": "contracts/ramps/garanti/GarantiSendProcessor.sol:GarantiSendProcessor",
        "label": "_owner",
        "offset": 0,
        "slot": "0",
        "type": "t_address"
      },
      {
        "astId": 3392,
        "contract": "contracts/ramps/garanti/GarantiSendProcessor.sol:GarantiSendProcessor",
        "label": "mailServerKeyHashAdapter",
        "offset": 0,
        "slot": "1",
        "type": "t_contract(IKeyHashAdapterV2)3566"
      },
      {
        "astId": 3395,
        "contract": "contracts/ramps/garanti/GarantiSendProcessor.sol:GarantiSendProcessor",
        "label": "nullifierRegistry",
        "offset": 0,
        "slot": "2",
        "type": "t_contract(INullifierRegistry)3771"
      },
      {
        "astId": 3397,
        "contract": "contracts/ramps/garanti/GarantiSendProcessor.sol:GarantiSendProcessor",
        "label": "emailFromAddress",
        "offset": 0,
        "slot": "3",
        "type": "t_bytes_storage"
      },
      {
        "astId": 3399,
        "contract": "contracts/ramps/garanti/GarantiSendProcessor.sol:GarantiSendProcessor",
        "label": "timestampBuffer",
        "offset": 0,
        "slot": "4",
        "type": "t_uint256"
      },
      {
        "astId": 6463,
        "contract": "contracts/ramps/garanti/GarantiSendProcessor.sol:GarantiSendProcessor",
        "label": "bodyHashVerifier",
        "offset": 0,
        "slot": "5",
        "type": "t_contract(IGarantiBodySuffixHashVerifier)6841"
      }
    ],
    "types": {
      "t_address": {
        "encoding": "inplace",
        "label": "address",
        "numberOfBytes": "20"
      },
      "t_bytes_storage": {
        "encoding": "bytes",
        "label": "bytes",
        "numberOfBytes": "32"
      },
      "t_contract(IGarantiBodySuffixHashVerifier)6841": {
        "encoding": "inplace",
        "label": "contract IGarantiBodySuffixHashVerifier",
        "numberOfBytes": "20"
      },
      "t_contract(IKeyHashAdapterV2)3566": {
        "encoding": "inplace",
        "label": "contract IKeyHashAdapterV2",
        "numberOfBytes": "20"
      },
      "t_contract(INullifierRegistry)3771": {
        "encoding": "inplace",
        "label": "contract INullifierRegistry",
        "numberOfBytes": "20"
      },
      "t_uint256": {
        "encoding": "inplace",
        "label": "uint256",
        "numberOfBytes": "32"
      }
    }
  }
}