{
  "address": "0x84268621B45C24A7A2A3fb700156B0D5Ac75Ee0b",
  "abi": [
    {
      "inputs": [
        {
          "internalType": "address",
          "name": "_owner",
          "type": "address"
        },
        {
          "internalType": "contract IERC20",
          "name": "_usdc",
          "type": "address"
        },
        {
          "internalType": "uint256",
          "name": "_minDepositAmount",
          "type": "uint256"
        },
        {
          "internalType": "uint256",
          "name": "_maxOnRampAmount",
          "type": "uint256"
        },
        {
          "internalType": "uint256",
          "name": "_intentExpirationPeriod",
          "type": "uint256"
        },
        {
          "internalType": "uint256",
          "name": "_onRampCooldownPeriod",
          "type": "uint256"
        },
        {
          "internalType": "uint256",
          "name": "_sustainabilityFee",
          "type": "uint256"
        },
        {
          "internalType": "address",
          "name": "_sustainabilityFeeRecipient",
          "type": "address"
        }
      ],
      "stateMutability": "nonpayable",
      "type": "constructor"
    },
    {
      "anonymous": false,
      "inputs": [
        {
          "indexed": false,
          "internalType": "uint256",
          "name": "depositId",
          "type": "uint256"
        },
        {
          "indexed": false,
          "internalType": "address",
          "name": "depositor",
          "type": "address"
        }
      ],
      "name": "DepositClosed",
      "type": "event"
    },
    {
      "anonymous": false,
      "inputs": [
        {
          "indexed": true,
          "internalType": "uint256",
          "name": "depositId",
          "type": "uint256"
        },
        {
          "indexed": true,
          "internalType": "bytes32",
          "name": "offRampId",
          "type": "bytes32"
        },
        {
          "indexed": true,
          "internalType": "bytes32",
          "name": "currencyId",
          "type": "bytes32"
        },
        {
          "indexed": false,
          "internalType": "uint256",
          "name": "amount",
          "type": "uint256"
        },
        {
          "indexed": false,
          "internalType": "uint256",
          "name": "conversionRate",
          "type": "uint256"
        }
      ],
      "name": "DepositReceived",
      "type": "event"
    },
    {
      "anonymous": false,
      "inputs": [
        {
          "indexed": true,
          "internalType": "uint256",
          "name": "depositId",
          "type": "uint256"
        },
        {
          "indexed": true,
          "internalType": "address",
          "name": "depositor",
          "type": "address"
        },
        {
          "indexed": false,
          "internalType": "uint256",
          "name": "amount",
          "type": "uint256"
        }
      ],
      "name": "DepositWithdrawn",
      "type": "event"
    },
    {
      "anonymous": false,
      "inputs": [
        {
          "indexed": false,
          "internalType": "uint256",
          "name": "intentExpirationPeriod",
          "type": "uint256"
        }
      ],
      "name": "IntentExpirationPeriodSet",
      "type": "event"
    },
    {
      "anonymous": false,
      "inputs": [
        {
          "indexed": true,
          "internalType": "bytes32",
          "name": "intentHash",
          "type": "bytes32"
        },
        {
          "indexed": true,
          "internalType": "uint256",
          "name": "depositId",
          "type": "uint256"
        },
        {
          "indexed": true,
          "internalType": "address",
          "name": "onRamper",
          "type": "address"
        },
        {
          "indexed": false,
          "internalType": "address",
          "name": "to",
          "type": "address"
        },
        {
          "indexed": false,
          "internalType": "uint256",
          "name": "amount",
          "type": "uint256"
        },
        {
          "indexed": false,
          "internalType": "uint256",
          "name": "feeAmount",
          "type": "uint256"
        }
      ],
      "name": "IntentFulfilled",
      "type": "event"
    },
    {
      "anonymous": false,
      "inputs": [
        {
          "indexed": true,
          "internalType": "bytes32",
          "name": "intentHash",
          "type": "bytes32"
        },
        {
          "indexed": true,
          "internalType": "uint256",
          "name": "depositId",
          "type": "uint256"
        }
      ],
      "name": "IntentPruned",
      "type": "event"
    },
    {
      "anonymous": false,
      "inputs": [
        {
          "indexed": true,
          "internalType": "bytes32",
          "name": "intentHash",
          "type": "bytes32"
        },
        {
          "indexed": true,
          "internalType": "uint256",
          "name": "depositId",
          "type": "uint256"
        },
        {
          "indexed": true,
          "internalType": "bytes32",
          "name": "accountId",
          "type": "bytes32"
        },
        {
          "indexed": false,
          "internalType": "address",
          "name": "to",
          "type": "address"
        },
        {
          "indexed": false,
          "internalType": "uint256",
          "name": "amount",
          "type": "uint256"
        },
        {
          "indexed": false,
          "internalType": "uint256",
          "name": "timestamp",
          "type": "uint256"
        }
      ],
      "name": "IntentSignaled",
      "type": "event"
    },
    {
      "anonymous": false,
      "inputs": [
        {
          "indexed": false,
          "internalType": "uint256",
          "name": "maxOnRampAmount",
          "type": "uint256"
        }
      ],
      "name": "MaxOnRampAmountSet",
      "type": "event"
    },
    {
      "anonymous": false,
      "inputs": [
        {
          "indexed": false,
          "internalType": "uint256",
          "name": "minDepositAmount",
          "type": "uint256"
        }
      ],
      "name": "MinDepositAmountSet",
      "type": "event"
    },
    {
      "anonymous": false,
      "inputs": [
        {
          "indexed": false,
          "internalType": "address",
          "name": "sendProcessor",
          "type": "address"
        }
      ],
      "name": "NewSendProcessorSet",
      "type": "event"
    },
    {
      "anonymous": false,
      "inputs": [
        {
          "indexed": false,
          "internalType": "uint256",
          "name": "onRampCooldownPeriod",
          "type": "uint256"
        }
      ],
      "name": "OnRampCooldownPeriodSet",
      "type": "event"
    },
    {
      "anonymous": false,
      "inputs": [
        {
          "indexed": true,
          "internalType": "address",
          "name": "previousOwner",
          "type": "address"
        },
        {
          "indexed": true,
          "internalType": "address",
          "name": "newOwner",
          "type": "address"
        }
      ],
      "name": "OwnershipTransferred",
      "type": "event"
    },
    {
      "anonymous": false,
      "inputs": [
        {
          "indexed": false,
          "internalType": "address",
          "name": "feeRecipient",
          "type": "address"
        }
      ],
      "name": "SustainabilityFeeRecipientUpdated",
      "type": "event"
    },
    {
      "anonymous": false,
      "inputs": [
        {
          "indexed": false,
          "internalType": "uint256",
          "name": "fee",
          "type": "uint256"
        }
      ],
      "name": "SustainabilityFeeUpdated",
      "type": "event"
    },
    {
      "inputs": [],
      "name": "accountRegistry",
      "outputs": [
        {
          "internalType": "contract IRevolutAccountRegistry",
          "name": "",
          "type": "address"
        }
      ],
      "stateMutability": "view",
      "type": "function"
    },
    {
      "inputs": [
        {
          "internalType": "bytes32",
          "name": "_intentHash",
          "type": "bytes32"
        }
      ],
      "name": "cancelIntent",
      "outputs": [],
      "stateMutability": "nonpayable",
      "type": "function"
    },
    {
      "inputs": [],
      "name": "depositCounter",
      "outputs": [
        {
          "internalType": "uint256",
          "name": "",
          "type": "uint256"
        }
      ],
      "stateMutability": "view",
      "type": "function"
    },
    {
      "inputs": [
        {
          "internalType": "uint256",
          "name": "",
          "type": "uint256"
        }
      ],
      "name": "deposits",
      "outputs": [
        {
          "internalType": "address",
          "name": "depositor",
          "type": "address"
        },
        {
          "internalType": "string",
          "name": "revolutTag",
          "type": "string"
        },
        {
          "internalType": "address",
          "name": "verifierSigningKey",
          "type": "address"
        },
        {
          "internalType": "bytes32",
          "name": "notaryKeyHash",
          "type": "bytes32"
        },
        {
          "internalType": "uint256",
          "name": "depositAmount",
          "type": "uint256"
        },
        {
          "internalType": "bytes32",
          "name": "receiveCurrencyId",
          "type": "bytes32"
        },
        {
          "internalType": "uint256",
          "name": "remainingDeposits",
          "type": "uint256"
        },
        {
          "internalType": "uint256",
          "name": "outstandingIntentAmount",
          "type": "uint256"
        },
        {
          "internalType": "uint256",
          "name": "conversionRate",
          "type": "uint256"
        }
      ],
      "stateMutability": "view",
      "type": "function"
    },
    {
      "inputs": [
        {
          "internalType": "address",
          "name": "_account",
          "type": "address"
        }
      ],
      "name": "getAccountDeposits",
      "outputs": [
        {
          "components": [
            {
              "internalType": "uint256",
              "name": "depositId",
              "type": "uint256"
            },
            {
              "internalType": "bytes32",
              "name": "depositorId",
              "type": "bytes32"
            },
            {
              "components": [
                {
                  "internalType": "address",
                  "name": "depositor",
                  "type": "address"
                },
                {
                  "internalType": "string",
                  "name": "revolutTag",
                  "type": "string"
                },
                {
                  "internalType": "address",
                  "name": "verifierSigningKey",
                  "type": "address"
                },
                {
                  "internalType": "bytes32",
                  "name": "notaryKeyHash",
                  "type": "bytes32"
                },
                {
                  "internalType": "uint256",
                  "name": "depositAmount",
                  "type": "uint256"
                },
                {
                  "internalType": "bytes32",
                  "name": "receiveCurrencyId",
                  "type": "bytes32"
                },
                {
                  "internalType": "uint256",
                  "name": "remainingDeposits",
                  "type": "uint256"
                },
                {
                  "internalType": "uint256",
                  "name": "outstandingIntentAmount",
                  "type": "uint256"
                },
                {
                  "internalType": "uint256",
                  "name": "conversionRate",
                  "type": "uint256"
                },
                {
                  "internalType": "bytes32[]",
                  "name": "intentHashes",
                  "type": "bytes32[]"
                }
              ],
              "internalType": "struct RevolutRamp.Deposit",
              "name": "deposit",
              "type": "tuple"
            },
            {
              "internalType": "uint256",
              "name": "availableLiquidity",
              "type": "uint256"
            }
          ],
          "internalType": "struct RevolutRamp.DepositWithAvailableLiquidity[]",
          "name": "accountDeposits",
          "type": "tuple[]"
        }
      ],
      "stateMutability": "view",
      "type": "function"
    },
    {
      "inputs": [
        {
          "internalType": "uint256",
          "name": "_depositId",
          "type": "uint256"
        }
      ],
      "name": "getDeposit",
      "outputs": [
        {
          "components": [
            {
              "internalType": "address",
              "name": "depositor",
              "type": "address"
            },
            {
              "internalType": "string",
              "name": "revolutTag",
              "type": "string"
            },
            {
              "internalType": "address",
              "name": "verifierSigningKey",
              "type": "address"
            },
            {
              "internalType": "bytes32",
              "name": "notaryKeyHash",
              "type": "bytes32"
            },
            {
              "internalType": "uint256",
              "name": "depositAmount",
              "type": "uint256"
            },
            {
              "internalType": "bytes32",
              "name": "receiveCurrencyId",
              "type": "bytes32"
            },
            {
              "internalType": "uint256",
              "name": "remainingDeposits",
              "type": "uint256"
            },
            {
              "internalType": "uint256",
              "name": "outstandingIntentAmount",
              "type": "uint256"
            },
            {
              "internalType": "uint256",
              "name": "conversionRate",
              "type": "uint256"
            },
            {
              "internalType": "bytes32[]",
              "name": "intentHashes",
              "type": "bytes32[]"
            }
          ],
          "internalType": "struct RevolutRamp.Deposit",
          "name": "",
          "type": "tuple"
        }
      ],
      "stateMutability": "view",
      "type": "function"
    },
    {
      "inputs": [
        {
          "internalType": "uint256[]",
          "name": "_depositIds",
          "type": "uint256[]"
        }
      ],
      "name": "getDepositFromIds",
      "outputs": [
        {
          "components": [
            {
              "internalType": "uint256",
              "name": "depositId",
              "type": "uint256"
            },
            {
              "internalType": "bytes32",
              "name": "depositorId",
              "type": "bytes32"
            },
            {
              "components": [
                {
                  "internalType": "address",
                  "name": "depositor",
                  "type": "address"
                },
                {
                  "internalType": "string",
                  "name": "revolutTag",
                  "type": "string"
                },
                {
                  "internalType": "address",
                  "name": "verifierSigningKey",
                  "type": "address"
                },
                {
                  "internalType": "bytes32",
                  "name": "notaryKeyHash",
                  "type": "bytes32"
                },
                {
                  "internalType": "uint256",
                  "name": "depositAmount",
                  "type": "uint256"
                },
                {
                  "internalType": "bytes32",
                  "name": "receiveCurrencyId",
                  "type": "bytes32"
                },
                {
                  "internalType": "uint256",
                  "name": "remainingDeposits",
                  "type": "uint256"
                },
                {
                  "internalType": "uint256",
                  "name": "outstandingIntentAmount",
                  "type": "uint256"
                },
                {
                  "internalType": "uint256",
                  "name": "conversionRate",
                  "type": "uint256"
                },
                {
                  "internalType": "bytes32[]",
                  "name": "intentHashes",
                  "type": "bytes32[]"
                }
              ],
              "internalType": "struct RevolutRamp.Deposit",
              "name": "deposit",
              "type": "tuple"
            },
            {
              "internalType": "uint256",
              "name": "availableLiquidity",
              "type": "uint256"
            }
          ],
          "internalType": "struct RevolutRamp.DepositWithAvailableLiquidity[]",
          "name": "depositArray",
          "type": "tuple[]"
        }
      ],
      "stateMutability": "view",
      "type": "function"
    },
    {
      "inputs": [
        {
          "internalType": "address",
          "name": "_account",
          "type": "address"
        }
      ],
      "name": "getIdCurrentIntentHash",
      "outputs": [
        {
          "internalType": "bytes32",
          "name": "",
          "type": "bytes32"
        }
      ],
      "stateMutability": "view",
      "type": "function"
    },
    {
      "inputs": [
        {
          "internalType": "address",
          "name": "_account",
          "type": "address"
        }
      ],
      "name": "getIdCurrentIntentHashAsUint",
      "outputs": [
        {
          "internalType": "uint256",
          "name": "",
          "type": "uint256"
        }
      ],
      "stateMutability": "view",
      "type": "function"
    },
    {
      "inputs": [
        {
          "internalType": "bytes32[]",
          "name": "_intentHashes",
          "type": "bytes32[]"
        }
      ],
      "name": "getIntentsWithOnRamperId",
      "outputs": [
        {
          "components": [
            {
              "internalType": "bytes32",
              "name": "intentHash",
              "type": "bytes32"
            },
            {
              "components": [
                {
                  "internalType": "address",
                  "name": "onRamper",
                  "type": "address"
                },
                {
                  "internalType": "address",
                  "name": "to",
                  "type": "address"
                },
                {
                  "internalType": "uint256",
                  "name": "deposit",
                  "type": "uint256"
                },
                {
                  "internalType": "uint256",
                  "name": "amount",
                  "type": "uint256"
                },
                {
                  "internalType": "uint256",
                  "name": "intentTimestamp",
                  "type": "uint256"
                }
              ],
              "internalType": "struct RevolutRamp.Intent",
              "name": "intent",
              "type": "tuple"
            },
            {
              "internalType": "bytes32",
              "name": "onRamperId",
              "type": "bytes32"
            }
          ],
          "internalType": "struct RevolutRamp.IntentWithOnRamperId[]",
          "name": "",
          "type": "tuple[]"
        }
      ],
      "stateMutability": "view",
      "type": "function"
    },
    {
      "inputs": [
        {
          "internalType": "address",
          "name": "_account",
          "type": "address"
        }
      ],
      "name": "getLastOnRampTimestamp",
      "outputs": [
        {
          "internalType": "uint256",
          "name": "",
          "type": "uint256"
        }
      ],
      "stateMutability": "view",
      "type": "function"
    },
    {
      "inputs": [
        {
          "internalType": "contract IRevolutAccountRegistry",
          "name": "_accountRegistry",
          "type": "address"
        },
        {
          "internalType": "contract IRevolutSendProcessor",
          "name": "_sendProcessor",
          "type": "address"
        }
      ],
      "name": "initialize",
      "outputs": [],
      "stateMutability": "nonpayable",
      "type": "function"
    },
    {
      "inputs": [],
      "name": "intentExpirationPeriod",
      "outputs": [
        {
          "internalType": "uint256",
          "name": "",
          "type": "uint256"
        }
      ],
      "stateMutability": "view",
      "type": "function"
    },
    {
      "inputs": [
        {
          "internalType": "bytes32",
          "name": "",
          "type": "bytes32"
        }
      ],
      "name": "intents",
      "outputs": [
        {
          "internalType": "address",
          "name": "onRamper",
          "type": "address"
        },
        {
          "internalType": "address",
          "name": "to",
          "type": "address"
        },
        {
          "internalType": "uint256",
          "name": "deposit",
          "type": "uint256"
        },
        {
          "internalType": "uint256",
          "name": "amount",
          "type": "uint256"
        },
        {
          "internalType": "uint256",
          "name": "intentTimestamp",
          "type": "uint256"
        }
      ],
      "stateMutability": "view",
      "type": "function"
    },
    {
      "inputs": [],
      "name": "isInitialized",
      "outputs": [
        {
          "internalType": "bool",
          "name": "",
          "type": "bool"
        }
      ],
      "stateMutability": "view",
      "type": "function"
    },
    {
      "inputs": [],
      "name": "maxOnRampAmount",
      "outputs": [
        {
          "internalType": "uint256",
          "name": "",
          "type": "uint256"
        }
      ],
      "stateMutability": "view",
      "type": "function"
    },
    {
      "inputs": [],
      "name": "minDepositAmount",
      "outputs": [
        {
          "internalType": "uint256",
          "name": "",
          "type": "uint256"
        }
      ],
      "stateMutability": "view",
      "type": "function"
    },
    {
      "inputs": [
        {
          "internalType": "string",
          "name": "_revolutTag",
          "type": "string"
        },
        {
          "internalType": "bytes32",
          "name": "_receiveCurrencyId",
          "type": "bytes32"
        },
        {
          "internalType": "uint256",
          "name": "_depositAmount",
          "type": "uint256"
        },
        {
          "internalType": "uint256",
          "name": "_receiveAmount",
          "type": "uint256"
        },
        {
          "internalType": "address",
          "name": "_verifierSigningKey",
          "type": "address"
        },
        {
          "internalType": "bytes32",
          "name": "_notaryKeyHash",
          "type": "bytes32"
        }
      ],
      "name": "offRamp",
      "outputs": [],
      "stateMutability": "nonpayable",
      "type": "function"
    },
    {
      "inputs": [
        {
          "components": [
            {
              "internalType": "string",
              "name": "endpoint",
              "type": "string"
            },
            {
              "internalType": "string",
              "name": "host",
              "type": "string"
            },
            {
              "internalType": "string",
              "name": "transferId",
              "type": "string"
            },
            {
              "internalType": "string",
              "name": "recipientId",
              "type": "string"
            },
            {
              "internalType": "string",
              "name": "amount",
              "type": "string"
            },
            {
              "internalType": "string",
              "name": "currencyId",
              "type": "string"
            },
            {
              "internalType": "string",
              "name": "status",
              "type": "string"
            },
            {
              "internalType": "string",
              "name": "timestamp",
              "type": "string"
            },
            {
              "internalType": "uint256",
              "name": "intentHash",
              "type": "uint256"
            },
            {
              "internalType": "uint256",
              "name": "notaryKeyHash",
              "type": "uint256"
            }
          ],
          "internalType": "struct IRevolutSendProcessor.SendData",
          "name": "_sendData",
          "type": "tuple"
        },
        {
          "internalType": "bytes",
          "name": "_verifierSignature",
          "type": "bytes"
        }
      ],
      "name": "onRamp",
      "outputs": [],
      "stateMutability": "nonpayable",
      "type": "function"
    },
    {
      "inputs": [],
      "name": "onRampCooldownPeriod",
      "outputs": [
        {
          "internalType": "uint256",
          "name": "",
          "type": "uint256"
        }
      ],
      "stateMutability": "view",
      "type": "function"
    },
    {
      "inputs": [],
      "name": "owner",
      "outputs": [
        {
          "internalType": "address",
          "name": "",
          "type": "address"
        }
      ],
      "stateMutability": "view",
      "type": "function"
    },
    {
      "inputs": [
        {
          "internalType": "bytes32",
          "name": "_intentHash",
          "type": "bytes32"
        }
      ],
      "name": "releaseFundsToOnramper",
      "outputs": [],
      "stateMutability": "nonpayable",
      "type": "function"
    },
    {
      "inputs": [],
      "name": "renounceOwnership",
      "outputs": [],
      "stateMutability": "nonpayable",
      "type": "function"
    },
    {
      "inputs": [],
      "name": "sendProcessor",
      "outputs": [
        {
          "internalType": "contract IRevolutSendProcessor",
          "name": "",
          "type": "address"
        }
      ],
      "stateMutability": "view",
      "type": "function"
    },
    {
      "inputs": [
        {
          "internalType": "uint256",
          "name": "_intentExpirationPeriod",
          "type": "uint256"
        }
      ],
      "name": "setIntentExpirationPeriod",
      "outputs": [],
      "stateMutability": "nonpayable",
      "type": "function"
    },
    {
      "inputs": [
        {
          "internalType": "uint256",
          "name": "_maxOnRampAmount",
          "type": "uint256"
        }
      ],
      "name": "setMaxOnRampAmount",
      "outputs": [],
      "stateMutability": "nonpayable",
      "type": "function"
    },
    {
      "inputs": [
        {
          "internalType": "uint256",
          "name": "_minDepositAmount",
          "type": "uint256"
        }
      ],
      "name": "setMinDepositAmount",
      "outputs": [],
      "stateMutability": "nonpayable",
      "type": "function"
    },
    {
      "inputs": [
        {
          "internalType": "uint256",
          "name": "_onRampCooldownPeriod",
          "type": "uint256"
        }
      ],
      "name": "setOnRampCooldownPeriod",
      "outputs": [],
      "stateMutability": "nonpayable",
      "type": "function"
    },
    {
      "inputs": [
        {
          "internalType": "contract IRevolutSendProcessor",
          "name": "_sendProcessor",
          "type": "address"
        }
      ],
      "name": "setSendProcessor",
      "outputs": [],
      "stateMutability": "nonpayable",
      "type": "function"
    },
    {
      "inputs": [
        {
          "internalType": "uint256",
          "name": "_fee",
          "type": "uint256"
        }
      ],
      "name": "setSustainabilityFee",
      "outputs": [],
      "stateMutability": "nonpayable",
      "type": "function"
    },
    {
      "inputs": [
        {
          "internalType": "address",
          "name": "_feeRecipient",
          "type": "address"
        }
      ],
      "name": "setSustainabilityFeeRecipient",
      "outputs": [],
      "stateMutability": "nonpayable",
      "type": "function"
    },
    {
      "inputs": [
        {
          "internalType": "uint256",
          "name": "_depositId",
          "type": "uint256"
        },
        {
          "internalType": "uint256",
          "name": "_amount",
          "type": "uint256"
        },
        {
          "internalType": "address",
          "name": "_to",
          "type": "address"
        }
      ],
      "name": "signalIntent",
      "outputs": [],
      "stateMutability": "nonpayable",
      "type": "function"
    },
    {
      "inputs": [],
      "name": "sustainabilityFee",
      "outputs": [
        {
          "internalType": "uint256",
          "name": "",
          "type": "uint256"
        }
      ],
      "stateMutability": "view",
      "type": "function"
    },
    {
      "inputs": [],
      "name": "sustainabilityFeeRecipient",
      "outputs": [
        {
          "internalType": "address",
          "name": "",
          "type": "address"
        }
      ],
      "stateMutability": "view",
      "type": "function"
    },
    {
      "inputs": [
        {
          "internalType": "address",
          "name": "newOwner",
          "type": "address"
        }
      ],
      "name": "transferOwnership",
      "outputs": [],
      "stateMutability": "nonpayable",
      "type": "function"
    },
    {
      "inputs": [],
      "name": "usdc",
      "outputs": [
        {
          "internalType": "contract IERC20",
          "name": "",
          "type": "address"
        }
      ],
      "stateMutability": "view",
      "type": "function"
    },
    {
      "inputs": [
        {
          "internalType": "uint256[]",
          "name": "_depositIds",
          "type": "uint256[]"
        }
      ],
      "name": "withdrawDeposit",
      "outputs": [],
      "stateMutability": "nonpayable",
      "type": "function"
    }
  ],
  "transactionHash": "0xd4f653922a59a21aae36ded56e4236be984ee62c64aea178df1cfa946bc81357",
  "args": [
    "0xdd93E0f5fC32c86A568d87Cb4f08598f55E980F3",
    "0x833589fCD6eDb6E08f4c7C32D4f71b54bdA02913",
    "10000000",
    "10000000",
    "180",
    "180",
    "0",
    "0xdd93E0f5fC32c86A568d87Cb4f08598f55E980F3"
  ],
  "numDeployments": 1,
  "solcInputHash": "8bc81ff8830ebb82cab81dfebf9e965a",
  "bytecode": "0x60a06040523480156200001157600080fd5b5060405162004878380380620048788339810160408190526200003491620001dd565b6200003f3362000096565b6001600160a01b038781166080526006879055600786905560098590556008849055600a839055600b80546001600160a01b0319169183169190911790556200008888620000e6565b505050505050505062000263565b600080546001600160a01b038381166001600160a01b0319831681178455604051919092169283917f8be0079c531659141344cd1fd0a4f28419497f9722a3daafe3b4186f6b6457e09190a35050565b620000f062000169565b6001600160a01b0381166200015b5760405162461bcd60e51b815260206004820152602660248201527f4f776e61626c653a206e6577206f776e657220697320746865207a65726f206160448201526564647265737360d01b60648201526084015b60405180910390fd5b620001668162000096565b50565b6000546001600160a01b03163314620001c55760405162461bcd60e51b815260206004820181905260248201527f4f776e61626c653a2063616c6c6572206973206e6f7420746865206f776e6572604482015260640162000152565b565b6001600160a01b03811681146200016657600080fd5b600080600080600080600080610100898b031215620001fb57600080fd5b88516200020881620001c7565b60208a01519098506200021b81620001c7565b8097505060408901519550606089015194506080890151935060a0890151925060c0890151915060e08901516200025281620001c7565b809150509295985092959890939650565b6080516145dd6200029b600039600081816102e5015281816119b901528181611e6e015281816133af015261345e01526145dd6000f3fe608060405234801561001057600080fd5b50600436106102275760003560e01c80637113476211610130578063b3c0cfa4116100b8578063e279d9641161007c578063e279d96414610541578063ecb3dc881461054a578063ecd618f014610553578063eea1d19714610573578063f2fde38b1461058657600080fd5b8063b3c0cfa4146104e2578063b3fa4c01146104f5578063d089e11a14610508578063d55f960d1461051b578063d9478d201461052e57600080fd5b80639021578a116100ff5780639021578a146104025780639087beff1461047e5780639f9fb96814610491578063a1a954b7146104b1578063b02c43d0146104ba57600080fd5b806371134762146103c3578063715018a6146103d657806371a28f69146103de5780638da5cb5b146103f157600080fd5b80633e85fc25116101b35780635081d952116101825780635081d952146103615780635d108a22146103815780635dd7651514610394578063645006ca146103a757806366ec8419146103b057600080fd5b80633e85fc251461031f5780634298734914610332578063485cc95514610345578063495223e71461035857600080fd5b80632a80cda3116101fa5780632a80cda314610283578063317dcc9614610296578063392e53cd146102a95780633adba28a146102cd5780633e413bee146102e057600080fd5b80630f1ef98c1461022c578063133de6cb1461025257806314ec32fa14610267578063238c84941461027a575b600080fd5b61023f61023a366004613948565b610599565b6040519081526020015b60405180910390f35b610265610260366004613948565b610628565b005b61023f610275366004613948565b610685565b61023f600a5481565b61026561029136600461396c565b610712565b6102656102a436600461396c565b6107a4565b6002546102bd90600160a01b900460ff1681565b6040519015158152602001610249565b6102656102db366004613985565b6107e1565b6103077f000000000000000000000000000000000000000000000000000000000000000081565b6040516001600160a01b039091168152602001610249565b61026561032d3660046139ff565b610ee4565b61026561034036600461396c565b611013565b610265610353366004613a70565b6110b4565b61023f60085481565b61037461036f366004613948565b611147565b6040516102499190613bd1565b61026561038f366004613c5d565b611511565b6102656103a236600461396c565b611a82565b61023f60065481565b6102656103be36600461396c565b611b21565b6102656103d1366004613d49565b611cf0565b610265611ee3565b6103746103ec366004613d49565b611ef7565b6000546001600160a01b0316610307565b61044b61041036600461396c565b600560205260009081526040902080546001820154600283015460038401546004909401546001600160a01b03938416949390921692909185565b604080516001600160a01b039687168152959094166020860152928401919091526060830152608082015260a001610249565b61026561048c36600461396c565b6121e9565b6104a461049f36600461396c565b612280565b6040516102499190613dee565b61023f60095481565b6104cd6104c836600461396c565b612411565b60405161024999989796959493929190613e01565b61023f6104f0366004613948565b6124f6565b610265610503366004613948565b612507565b600154610307906001600160a01b031681565b61026561052936600461396c565b6125bf565b600b54610307906001600160a01b031681565b61023f60075481565b61023f600c5481565b610566610561366004613e5f565b6127df565b6040516102499190613ed3565b600254610307906001600160a01b031681565b610265610594366004613948565b6129d6565b60015460405163e0b490f760e01b81526001600160a01b03838116600483015260009260039284929091169063e0b490f790602401602060405180830381865afa1580156105eb573d6000803e3d6000fd5b505050506040513d601f19601f8201168201806040525081019061060f9190613f63565b8152602001908152602001600020600101549050919050565b610630612a4f565b600280546001600160a01b0319166001600160a01b0383169081179091556040519081527f6e7665a41605edc0d70f4b991d652755f380754eb092d81ef9ab93664778d59e906020015b60405180910390a150565b60015460405163e0b490f760e01b81526001600160a01b03838116600483015260009260039284929091169063e0b490f790602401602060405180830381865afa1580156106d7573d6000803e3d6000fd5b505050506040513d601f19601f820116820180604052508101906106fb9190613f63565b815260208101919091526040016000205492915050565b61071a612a4f565b8060000361076f5760405162461bcd60e51b815260206004820152601e60248201527f4d696e696d756d206465706f7369742063616e6e6f74206265207a65726f000060448201526064015b60405180910390fd5b60068190556040518181527fbdde72a6d8d8b42770c9899945ccdce09d0c5c794d3326cdb2d2cca61b12a9fc9060200161067a565b6107ac612a4f565b60088190556040518181527f88397975d177ce5e18abf3a5fdb8de773e80673d85eeb54f48cfaf688b3d2c3e9060200161067a565b600154604051631f5bdf5d60e01b81523360048201526001600160a01b0390911690631f5bdf5d90602401602060405180830381865afa158015610829573d6000803e3d6000fd5b505050506040513d601f19601f8201168201806040525081019061084d9190613f7c565b6108995760405162461bcd60e51b815260206004820152601e60248201527f43616c6c6572206d7573742062652072656769737465726564207573657200006044820152606401610766565b60015460405163e0b490f760e01b81523360048201526000916001600160a01b03169063e0b490f790602401602060405180830381865afa1580156108e2573d6000803e3d6000fd5b505050506040513d601f19601f820116820180604052508101906109069190613f63565b60008581526004602081905260409182902060015481549351630359b09b60e31b81526001600160a01b039485169381019390935260248301859052939450929190911690631acd84d890604401602060405180830381865afa158015610971573d6000803e3d6000fd5b505050506040513d601f19601f820116820180604052508101906109959190613f7c565b6109e15760405162461bcd60e51b815260206004820181905260248201527f4f6e72616d706572206f6e206465706f7369746f7227732064656e796c6973746044820152606401610766565b6008546000838152600360205260409020600101544291610a0191613fb4565b1115610a5b5760405162461bcd60e51b8152602060048201526024808201527f4f6e2072616d7020636f6f6c20646f776e20706572696f64206e6f7420656c616044820152631c1cd95960e21b6064820152608401610766565b60008281526003602052604090205415610ab75760405162461bcd60e51b815260206004820152601860248201527f496e74656e74207374696c6c206f75747374616e64696e6700000000000000006044820152606401610766565b600154815460405163e0b490f760e01b81526001600160a01b0391821660048201528492919091169063e0b490f790602401602060405180830381865afa158015610b06573d6000803e3d6000fd5b505050506040513d601f19601f82011682018060405250810190610b2a9190613f63565b03610b775760405162461bcd60e51b815260206004820152601e60248201527f53656e6465722063616e6e6f7420626520746865206465706f7369746f7200006044820152606401610766565b80546001600160a01b0316610bc75760405162461bcd60e51b815260206004820152601660248201527511195c1bdcda5d08191bd95cc81b9bdd08195e1a5cdd60521b6044820152606401610766565b60008411610c265760405162461bcd60e51b815260206004820152602660248201527f5369676e616c656420616d6f756e74206d75737420626520677265617465722060448201526507468616e20360d41b6064820152608401610766565b600754841115610c955760405162461bcd60e51b815260206004820152603460248201527f5369676e616c656420616d6f756e74206d757374206265206c657373207468616044820152731b881b585e081bdb8b5c985b5c08185b5bdd5b9d60621b6064820152608401610766565b6001600160a01b038316610ceb5760405162461bcd60e51b815260206004820152601b60248201527f43616e6e6f742073656e6420746f207a65726f206164647265737300000000006044820152606401610766565b6000610cf78387612aa9565b90508482600601541015610dac57600080610d1188612b14565b9150915086818560060154610d269190613fb4565b1015610d6b5760405162461bcd60e51b81526020600482015260146024820152734e6f7420656e6f756768206c697175696469747960601b6044820152606401610766565b610d758483612cbb565b80846006016000828254610d899190613fb4565b9250508190555080846007016000828254610da49190613fc7565b909155505050505b6040805160a0810182523381526001600160a01b0386811660208084019182528385018b8152606085018b81524260808701908152600089815260058552888120975188549088166001600160a01b0319918216178955955160018901805491909816961695909517909555905160028601555160038086019190915592516004909401939093558681529152908120829055600683018054879290610e53908490613fc7565b9250508190555084826007016000828254610e6e9190613fb4565b9091555050600982018054600181018255600091825260209182902001829055604080516001600160a01b038716815291820187905242908201528390879083907f1a1292e170a0f000ccf956afba79bee0f9ec1d81f3f901c1d4d11e1f336aae109060600160405180910390a4505050505050565b6000806000610ef4868686612d1d565b6040805160a08101825284546001600160a01b039081168252600186015416602082015260028501549181019190915260038401546060820152600490930154608084015291945092509050610f4a828261308c565b8260600151826007016000828254610f629190613fc7565b9091555050600154835160405163e0b490f760e01b81526001600160a01b039182166004820152429260039260009291169063e0b490f790602401602060405180830381865afa158015610fba573d6000803e3d6000fd5b505050506040513d601f19601f82011682018060405250810190610fde9190613f63565b8152602001908152602001600020600101819055506110018360400151836131d5565b61100b8184613352565b505050505050565b61101b612a4f565b8060000361107f5760405162461bcd60e51b815260206004820152602b60248201527f4d617820696e74656e742065787069726174696f6e20706572696f642063616e60448201526a6e6f74206265207a65726f60a81b6064820152608401610766565b60098190556040518181527f55e3f6b95de9a0ec782f892e93fafe4e56be0696df204ddf8e0a40a9a713a8039060200161067a565b6110bc612a4f565b600254600160a01b900460ff161561110c5760405162461bcd60e51b8152602060048201526013602482015272105b1c9958591e481a5b9a5d1a585b1a5e9959606a1b6044820152606401610766565b600180546001600160a01b039384166001600160a01b0319909116179055600280546001600160a81b0319169190921617600160a01b179055565b60015460405163e0b490f760e01b81526001600160a01b0383811660048301526060926000926003928492169063e0b490f790602401602060405180830381865afa15801561119a573d6000803e3d6000fd5b505050506040513d601f19601f820116820180604052508101906111be9190613f63565b815260200190815260200160002060020180548060200260200160405190810160405280929190818152602001828054801561121957602002820191906000526020600020905b815481526020019060010190808311611205575b5050505050905080516001600160401b0381111561123957611239613cda565b60405190808252806020026020018201604052801561127257816020015b61125f613800565b8152602001906001900390816112575790505b50915060005b815181101561150a57600082828151811061129557611295613fda565b60209081029190910181015160008181526004835260408082208151610140810190925280546001600160a01b0316825260018101805494965092949193909291840191906112e390613ff0565b80601f016020809104026020016040519081016040528092919081815260200182805461130f90613ff0565b801561135c5780601f106113315761010080835404028352916020019161135c565b820191906000526020600020905b81548152906001019060200180831161133f57829003601f168201915b505050505081526020016002820160009054906101000a90046001600160a01b03166001600160a01b03166001600160a01b031681526020016003820154815260200160048201548152602001600582015481526020016006820154815260200160078201548152602001600882015481526020016009820180548060200260200160405190810160405280929190818152602001828054801561141f57602002820191906000526020600020905b81548152602001906001019080831161140b575b5050505050815250509050600061143583612b14565b604080516080810182528681526001548651925163e0b490f760e01b81526001600160a01b039384166004820152939550909350602084019291169063e0b490f790602401602060405180830381865afa158015611497573d6000803e3d6000fd5b505050506040513d601f19601f820116820180604052508101906114bb9190613f63565b8152602001838152602001828460c001516114d69190613fb4565b8152508685815181106114eb576114eb613fda565b60200260200101819052505050508061150390614024565b9050611278565b5050919050565b600154604051631f5bdf5d60e01b81523360048201526001600160a01b0390911690631f5bdf5d90602401602060405180830381865afa158015611559573d6000803e3d6000fd5b505050506040513d601f19601f8201168201806040525081019061157d9190613f7c565b6115c95760405162461bcd60e51b815260206004820152601e60248201527f43616c6c6572206d7573742062652072656769737465726564207573657200006044820152606401610766565b60015460405163e0b490f760e01b81523360048201526000916001600160a01b03169063e0b490f790602401602060405180830381865afa158015611612573d6000803e3d6000fd5b505050506040513d601f19601f820116820180604052508101906116369190613f63565b9050600060036000838152602001908152602001600020905081898960405160200161166392919061403d565b60405160208183030381529060405280519060200120146116c65760405162461bcd60e51b815260206004820152601960248201527f5265766f6c757420746167206d757374206d61746368206964000000000000006044820152606401610766565b600281015460051161171a5760405162461bcd60e51b815260206004820152601e60248201527f4d6178696d756d206465706f73697420616d6f756e74207265616368656400006044820152606401610766565b60065486101561178b5760405162461bcd60e51b815260206004820152603660248201527f4465706f73697420616d6f756e74206d757374206265206772656174657220746044820152751a185b881b5a5b8819195c1bdcda5d08185b5bdd5b9d60521b6064820152608401610766565b600085116117e95760405162461bcd60e51b815260206004820152602560248201527f5265636569766520616d6f756e74206d75737420626520677265617465722074604482015264068616e20360dc1b6064820152608401610766565b6000856117fe670de0b6b3a76400008961406c565b6118089190614099565b600c8054919250600091908261181d83614024565b9091555060028401805460018101825560009182526020918290200182905560408051610140810182523381528151601f8f018490048402810184019092528d8252929350828201918e908e908190840183828082843760009201829052509385525050506001600160a01b03891660208084019190915260408084018a9052606084018d9052608084018e905260a084018d905260c0840183905260e084018790528051838152918201905261010090920191905090526000828152600460209081526040909120825181546001600160a01b0319166001600160a01b0390911617815590820151600182019061191590826140f3565b5060408201516002820180546001600160a01b0319166001600160a01b03909216919091179055606082015160038201556080820151600482015560a0820151600582015560c0820151600682015560e082015160078201556101008201516008820155610120820151805161199591600984019160209091019061382c565b50506040516323b872dd60e01b8152336004820152306024820152604481018a90527f00000000000000000000000000000000000000000000000000000000000000006001600160a01b031691506323b872dd906064016020604051808303816000875af1158015611a0b573d6000803e3d6000fd5b505050506040513d601f19601f82011682018060405250810190611a2f9190613f7c565b508884827f94c4b6f8843ea372709c89bc4a9ed85ef74ab10a68713ffdddc31716a76a6c958b86604051611a6d929190918252602082015260400190565b60405180910390a45050505050505050505050565b611a8a612a4f565b66b1a2bc2ec50000811115611aec5760405162461bcd60e51b815260206004820152602260248201527f4665652063616e6e6f742062652067726561746572207468616e206d61782066604482015261656560f01b6064820152608401610766565b600a8190556040518181527f44f48e1b871e6db1e909a7b253b054b7150a0b4ddf4d59b159c827d82e7256709060200161067a565b6000818152600560209081526040808320815160a08101835281546001600160a01b03908116825260018301548116828601526002830154828501819052600384015460608401526004938401546080840152865291909352922081519192909116611bc75760405162461bcd60e51b8152602060048201526015602482015274125b9d195b9d08191bd95cc81b9bdd08195e1a5cdd605a1b6044820152606401610766565b80546001600160a01b03163314611c205760405162461bcd60e51b815260206004820152601c60248201527f43616c6c6572206d75737420626520746865206465706f7369746f72000000006044820152606401610766565b611c2a818461308c565b8160600151816007016000828254611c429190613fc7565b9091555050600154825160405163e0b490f760e01b81526001600160a01b039182166004820152429260039260009291169063e0b490f790602401602060405180830381865afa158015611c9a573d6000803e3d6000fd5b505050506040513d601f19601f82011682018060405250810190611cbe9190613f63565b815260200190815260200160002060010181905550611ce18260400151826131d5565b611ceb8383613352565b505050565b6000805b8251811015611e51576000838281518110611d1157611d11613fda565b6020908102919091018101516000818152600490925260409091208054919250906001600160a01b03163314611d895760405162461bcd60e51b815260206004820152601c60248201527f53656e646572206d75737420626520746865206465706f7369746f72000000006044820152606401610766565b600080611d9584612b14565b91509150611da38383612cbb565b808360060154611db39190613fb4565b611dbd9087613fb4565b955080836007016000828254611dd39190613fc7565b9091555050825460068401546001600160a01b039091169085907fae1f357660ab777dcfd38c0ab6357834684ec26289ecfa07ec65dbf6c3c6431290611e1a908590613fb4565b60405190815260200160405180910390a360006006840155611e3c84846131d5565b5050505080611e4a90614024565b9050611cf4565b5060405163a9059cbb60e01b8152336004820152602481018290527f00000000000000000000000000000000000000000000000000000000000000006001600160a01b03169063a9059cbb906044016020604051808303816000875af1158015611ebf573d6000803e3d6000fd5b505050506040513d601f19601f82011682018060405250810190611ceb9190613f7c565b611eeb612a4f565b611ef56000613530565b565b606081516001600160401b03811115611f1257611f12613cda565b604051908082528060200260200182016040528015611f4b57816020015b611f38613800565b815260200190600190039081611f305790505b50905060005b82518110156121e3576000838281518110611f6e57611f6e613fda565b60209081029190910181015160008181526004835260408082208151610140810190925280546001600160a01b031682526001810180549496509294919390929184019190611fbc90613ff0565b80601f0160208091040260200160405190810160405280929190818152602001828054611fe890613ff0565b80156120355780601f1061200a57610100808354040283529160200191612035565b820191906000526020600020905b81548152906001019060200180831161201857829003601f168201915b505050505081526020016002820160009054906101000a90046001600160a01b03166001600160a01b03166001600160a01b03168152602001600382015481526020016004820154815260200160058201548152602001600682015481526020016007820154815260200160088201548152602001600982018054806020026020016040519081016040528092919081815260200182805480156120f857602002820191906000526020600020905b8154815260200190600101908083116120e4575b5050505050815250509050600061210e83612b14565b604080516080810182528681526001548651925163e0b490f760e01b81526001600160a01b039384166004820152939550909350602084019291169063e0b490f790602401602060405180830381865afa158015612170573d6000803e3d6000fd5b505050506040513d601f19601f820116820180604052508101906121949190613f63565b8152602001838152602001828460c001516121af9190613fb4565b8152508585815181106121c4576121c4613fda565b6020026020010181905250505050806121dc90614024565b9050611f51565b50919050565b6121f1612a4f565b8060000361224b5760405162461bcd60e51b815260206004820152602160248201527f4d6178206f6e2072616d7020616d6f756e742063616e6e6f74206265207a65726044820152606f60f81b6064820152608401610766565b60078190556040518181527fcab6b49ca21dd111cf4a55d507bbe89dd12d69216e28247060d4b2163ca41b399060200161067a565b612288613877565b6000828152600460209081526040918290208251610140810190935280546001600160a01b0316835260018101805491928401916122c590613ff0565b80601f01602080910402602001604051908101604052809291908181526020018280546122f190613ff0565b801561233e5780601f106123135761010080835404028352916020019161233e565b820191906000526020600020905b81548152906001019060200180831161232157829003601f168201915b505050505081526020016002820160009054906101000a90046001600160a01b03166001600160a01b03166001600160a01b031681526020016003820154815260200160048201548152602001600582015481526020016006820154815260200160078201548152602001600882015481526020016009820180548060200260200160405190810160405280929190818152602001828054801561240157602002820191906000526020600020905b8154815260200190600101908083116123ed575b5050505050815250509050919050565b600460205260009081526040902080546001820180546001600160a01b03909216929161243d90613ff0565b80601f016020809104026020016040519081016040528092919081815260200182805461246990613ff0565b80156124b65780601f1061248b576101008083540402835291602001916124b6565b820191906000526020600020905b81548152906001019060200180831161249957829003601f168201915b5050505060028301546003840154600485015460058601546006870154600788015460089098015496976001600160a01b03909516969395509193909289565b600061250182610685565b92915050565b61250f612a4f565b6001600160a01b0381166125715760405162461bcd60e51b8152602060048201526024808201527f46656520726563697069656e742063616e6e6f74206265207a65726f206164646044820152637265737360e01b6064820152608401610766565b600b80546001600160a01b0319166001600160a01b0383169081179091556040519081527f594ad6ee98bfc0c73e6d15fd4e762502f359e05d26907b7fa1ff82eb5e99f6e49060200161067a565b6000818152600560209081526040808320815160a08101835281546001600160a01b0390811682526001830154169381019390935260028101549183019190915260038101546060830152600401546080820181905290910361265c5760405162461bcd60e51b8152602060048201526015602482015274125b9d195b9d08191bd95cc81b9bdd08195e1a5cdd605a1b6044820152606401610766565b60015460405163e0b490f760e01b81523360048201526001600160a01b039091169063e0b490f790602401602060405180830381865afa1580156126a4573d6000803e3d6000fd5b505050506040513d601f19601f820116820180604052508101906126c89190613f63565b600154825160405163e0b490f760e01b81526001600160a01b03918216600482015291169063e0b490f790602401602060405180830381865afa158015612713573d6000803e3d6000fd5b505050506040513d601f19601f820116820180604052508101906127379190613f63565b146127845760405162461bcd60e51b815260206004820152601c60248201527f53656e646572206d75737420626520746865206f6e2d72616d706572000000006044820152606401610766565b604080820151600090815260046020522061279f818461308c565b81606001518160060160008282546127b79190613fb4565b909155505060608201516007820180546000906127d5908490613fc7565b9091555050505050565b60606000826001600160401b038111156127fb576127fb613cda565b60405190808252806020026020018201604052801561287557816020015b61286260408051606080820183526000808352835160a0810185528181526020818101839052948101829052918201819052608082015290918201908152600060209091015290565b8152602001906001900390816128195790505b50905060005b838110156129ce57600085858381811061289757612897613fda565b60209081029290920135600081815260058452604090819020815160a08101835281546001600160a01b0390811682526001830154169581019590955260028101548583015260038101546060808701919091526004909101546080860152815190810190915290935090508088888681811061291657612916613fda565b60209081029290920135835250810183905260015483516040805163e0b490f760e01b81526001600160a01b03928316600482015293019291169063e0b490f790602401602060405180830381865afa158015612977573d6000803e3d6000fd5b505050506040513d601f19601f8201168201806040525081019061299b9190613f63565b8152508484815181106129b0576129b0613fda565b60200260200101819052505050806129c790614024565b905061287b565b509392505050565b6129de612a4f565b6001600160a01b038116612a435760405162461bcd60e51b815260206004820152602660248201527f4f776e61626c653a206e6577206f776e657220697320746865207a65726f206160448201526564647265737360d01b6064820152608401610766565b612a4c81613530565b50565b6000546001600160a01b03163314611ef55760405162461bcd60e51b815260206004820181905260248201527f4f776e61626c653a2063616c6c6572206973206e6f7420746865206f776e65726044820152606401610766565b6040805160208101849052908101829052426060820152600090819060800160408051601f1981840301815291905280516020909101209050612b0c7f30644e72e131a029b85045b68181585d2833e84879b9709143e1f593f0000001826141b2565b949350505050565b60008181526004602090815260408083206009018054825181850281018501909352808352606094938493929190830182828015612b7157602002820191906000526020600020905b815481526020019060010190808311612b5d575b5050505050905080516001600160401b03811115612b9157612b91613cda565b604051908082528060200260200182016040528015612bba578160200160208202803683370190505b50925060005b8151811015612cb457600060056000848481518110612be157612be1613fda565b6020908102919091018101518252818101929092526040908101600020815160a08101835281546001600160a01b039081168252600183015416938101939093526002810154918301919091526003810154606083015260040154608082018190526009549192504291612c5491613fb4565b1015612ca357828281518110612c6c57612c6c613fda565b6020026020010151858381518110612c8657612c86613fda565b60209081029190910101526060810151612ca09085613fb4565b93505b50612cad81614024565b9050612bc0565b5050915091565b60005b8151811015611ceb576000801b828281518110612cdd57612cdd613fda565b602002602001015114612d0d57612d0d83838381518110612d0057612d00613fda565b602002602001015161308c565b612d1681614024565b9050612cbe565b610100830135600081815260056020526040812080549092906001600160a01b03163314612d8d5760405162461bcd60e51b815260206004820152601c60248201527f43616c6c6572206d75737420626520746865206f6e2d72616d706572000000006044820152606401610766565b60028084015460009081526004602052604080822092548151808301909252929450909182918291829182916001600160a01b031690630f2d076d9080612dd38f614235565b81526020018d8d8080601f016020809104026020016040519081016040528093929190818152602001838380828437600092019190915250505091525060028a01546040516001600160e01b031960e085901b168152612e4092916001600160a01b031690600401614397565b60a0604051808303816000875af1158015612e5f573d6000803e3d6000fd5b505050506040513d601f19601f82011682018060405250810190612e8391906144db565b9450945094509450945086600301548114612eef5760405162461bcd60e51b815260206004820152602660248201527f496e636f7272656374206e6f74617279207573656420666f72206e6f746172696044820152653d30ba34b7b760d11b6064820152608401610766565b86600501548214612f385760405162461bcd60e51b815260206004820152601360248201527215dc9bdb99c818dd5c9c995b98de481cd95b9d606a1b6044820152606401610766565b8388600401541115612f975760405162461bcd60e51b815260206004820152602260248201527f496e74656e7420776173206e6f742063726561746564206265666f72652073656044820152611b9960f21b6064820152608401610766565b8287600101604051602001612fac919061451b565b604051602081830303815290604052805190602001201461300f5760405162461bcd60e51b815260206004820152601b60248201527f4f666672616d70657220696420646f6573206e6f74206d6174636800000000006044820152606401610766565b8660080154670de0b6b3a7640000896003015461302c919061406c565b6130369190614099565b85101561307e5760405162461bcd60e51b81526020600482015260166024820152750a0c2f2dacadce840eec2e640dcdee840cadcdeeaced60531b6044820152606401610766565b505050505093509350939050565b6000818152600560209081526040808320815160a08101835281546001600160a01b03908116808352600180850154831696840196909652600284015483860152600380850154606085015260049485015460808501529554945163e0b490f760e01b815293840152909492169063e0b490f790602401602060405180830381865afa158015613120573d6000803e3d6000fd5b505050506040513d601f19601f820116820180604052508101906131449190613f63565b8152602080820192909252604090810160009081208190558481526005909252812080546001600160a01b0319908116825560018201805490911690556002810182905560038101829055600401556131a06009840183613580565b604080820151905183907fe8a865b4bab023c399cbd1f2cdd0df2199beb6e5012a4bd2d7691cf7e4199d5a90600090a3505050565b6000816006015482600701546131eb9190613fb4565b905080600003611ceb57600154825460405163e0b490f760e01b81526001600160a01b039182166004820152613291928692600392600092919091169063e0b490f790602401602060405180830381865afa15801561324e573d6000803e3d6000fd5b505050506040513d601f19601f820116820180604052508101906132729190613f63565b81526020019081526020016000206002016136a890919063ffffffff16565b8154604080518581526001600160a01b0390921660208301527f8ac07cc6e38c6222dd0309c80353c1962354bacf222b825d7401cc80e93ff3cc910160405180910390a1600083815260046020526040812080546001600160a01b0319168155906132ff60018301826138ca565b6002820180546001600160a01b0319169055600060038301819055600483018190556005830181905560068301819055600783018190556008830181905561334b906009840190613904565b5050505050565b6000600a5460001461341e57670de0b6b3a7640000600a548360600151613379919061406c565b6133839190614099565b600b5460405163a9059cbb60e01b81526001600160a01b039182166004820152602481018390529192507f0000000000000000000000000000000000000000000000000000000000000000169063a9059cbb906044016020604051808303816000875af11580156133f8573d6000803e3d6000fd5b505050506040513d601f19601f8201168201806040525081019061341c9190613f7c565b505b60008183606001516134309190613fc7565b602084015160405163a9059cbb60e01b81526001600160a01b039182166004820152602481018390529192507f0000000000000000000000000000000000000000000000000000000000000000169063a9059cbb906044016020604051808303816000875af11580156134a7573d6000803e3d6000fd5b505050506040513d601f19601f820116820180604052508101906134cb9190613f7c565b50825160408085015160208087015183516001600160a01b03918216815291820186905292810186905291909216919086907ffa03438194e61c243c6bb5349f1e1dc674431b86f119b5e3b2b327bc43446bce9060600160405180910390a450505050565b600080546001600160a01b038381166001600160a01b0319831681178455604051919092169283917f8be0079c531659141344cd1fd0a4f28419497f9722a3daafe3b4186f6b6457e09190a35050565b6000806135dc848054806020026020016040519081016040528092919081815260200182805480156135d157602002820191906000526020600020905b8154815260200190600101908083116135bd575b50505050508461374d565b91509150806136255760405162461bcd60e51b8152602060048201526015602482015274313cba32b99999103737ba1034b71030b93930bc9760591b6044820152606401610766565b835460009061363690600190613fc7565b905080831461367b5784818154811061365157613651613fda565b906000526020600020015485848154811061366e5761366e613fda565b6000918252602090912001555b8480548061368b5761368b614591565b600190038181906000526020600020016000905590555050505050565b600080613704848054806020026020016040519081016040528092919081815260200182805480156136f957602002820191906000526020600020905b8154815260200190600101908083116136e5575b5050505050846137b0565b91509150806136255760405162461bcd60e51b81526020600482015260156024820152743ab4b73a191a9b103737ba1034b71030b93930bc9760591b6044820152606401610766565b81516000908190815b8181101561379d578486828151811061377157613771613fda565b60200260200101510361378b579250600191506137a99050565b8061379581614024565b915050613756565b50600019600092509250505b9250929050565b81516000908190815b8181101561379d57848682815181106137d4576137d4613fda565b6020026020010151036137ee579250600191506137a99050565b806137f881614024565b9150506137b9565b604080516080810182526000808252602082015290810161381f613877565b8152602001600081525090565b828054828255906000526020600020908101928215613867579160200282015b8281111561386757825182559160200191906001019061384c565b5061387392915061391e565b5090565b604080516101408101825260008082526060602083018190529282018190528282018190526080820181905260a0820181905260c0820181905260e0820181905261010082015261012081019190915290565b5080546138d690613ff0565b6000825580601f106138e6575050565b601f016020900490600052602060002090810190612a4c919061391e565b5080546000825590600052602060002090810190612a4c91905b5b80821115613873576000815560010161391f565b6001600160a01b0381168114612a4c57600080fd5b60006020828403121561395a57600080fd5b813561396581613933565b9392505050565b60006020828403121561397e57600080fd5b5035919050565b60008060006060848603121561399a57600080fd5b833592506020840135915060408401356139b381613933565b809150509250925092565b60008083601f8401126139d057600080fd5b5081356001600160401b038111156139e757600080fd5b6020830191508360208285010111156137a957600080fd5b600080600060408486031215613a1457600080fd5b83356001600160401b0380821115613a2b57600080fd5b908501906101408288031215613a4057600080fd5b90935060208501359080821115613a5657600080fd5b50613a63868287016139be565b9497909650939450505050565b60008060408385031215613a8357600080fd5b8235613a8e81613933565b91506020830135613a9e81613933565b809150509250929050565b6000815180845260005b81811015613acf57602081850181015186830182015201613ab3565b506000602082860101526020601f19601f83011685010191505092915050565b600081518084526020808501945080840160005b83811015613b1f57815187529582019590820190600101613b03565b509495945050505050565b80516001600160a01b0316825260006101406020830151816020860152613b5382860182613aa9565b9150506040830151613b7060408601826001600160a01b03169052565b50606083015160608501526080830151608085015260a083015160a085015260c083015160c085015260e083015160e08501526101008084015181860152506101208084015185830382870152613bc78382613aef565b9695505050505050565b60006020808301818452808551808352604092508286019150828160051b87010184880160005b83811015613c4f57603f1989840301855281516080815185528882015189860152878201518189870152613c2e82870182613b2a565b60609384015196909301959095525094870194925090860190600101613bf8565b509098975050505050505050565b600080600080600080600060c0888a031215613c7857600080fd5b87356001600160401b03811115613c8e57600080fd5b613c9a8a828b016139be565b9098509650506020880135945060408801359350606088013592506080880135613cc381613933565b8092505060a0880135905092959891949750929550565b634e487b7160e01b600052604160045260246000fd5b60405161014081016001600160401b0381118282101715613d1357613d13613cda565b60405290565b604051601f8201601f191681016001600160401b0381118282101715613d4157613d41613cda565b604052919050565b60006020808385031215613d5c57600080fd5b82356001600160401b0380821115613d7357600080fd5b818501915085601f830112613d8757600080fd5b813581811115613d9957613d99613cda565b8060051b9150613daa848301613d19565b8181529183018401918481019088841115613dc457600080fd5b938501935b83851015613de257843582529385019390850190613dc9565b98975050505050505050565b6020815260006139656020830184613b2a565b6001600160a01b038a8116825261012060208301819052600091613e278483018d613aa9565b9a16604084015250506060810196909652608086019490945260a085019290925260c084015260e08301526101009091015292915050565b60008060208385031215613e7257600080fd5b82356001600160401b0380821115613e8957600080fd5b818501915085601f830112613e9d57600080fd5b813581811115613eac57600080fd5b8660208260051b8501011115613ec157600080fd5b60209290920196919550909350505050565b602080825282518282018190526000919060409081850190868401855b82811015613f56578151805185528681015180516001600160a01b039081168988015281890151168787015286810151606080880191909152810151608080880191909152015160a086015285015160c085015260e09093019290850190600101613ef0565b5091979650505050505050565b600060208284031215613f7557600080fd5b5051919050565b600060208284031215613f8e57600080fd5b8151801515811461396557600080fd5b634e487b7160e01b600052601160045260246000fd5b8082018082111561250157612501613f9e565b8181038181111561250157612501613f9e565b634e487b7160e01b600052603260045260246000fd5b600181811c9082168061400457607f821691505b6020821081036121e357634e487b7160e01b600052602260045260246000fd5b60006001820161403657614036613f9e565b5060010190565b60208152816020820152818360408301376000818301604090810191909152601f909201601f19160101919050565b808202811582820484141761250157612501613f9e565b634e487b7160e01b600052601260045260246000fd5b6000826140a8576140a8614083565b500490565b601f821115611ceb57600081815260208120601f850160051c810160208610156140d45750805b601f850160051c820191505b8181101561100b578281556001016140e0565b81516001600160401b0381111561410c5761410c613cda565b6141208161411a8454613ff0565b846140ad565b602080601f831160018114614155576000841561413d5750858301515b600019600386901b1c1916600185901b17855561100b565b600085815260208120601f198616915b8281101561418457888601518255948401946001909101908401614165565b50858210156141a25787850151600019600388901b60f8161c191681555b5050505050600190811b01905550565b6000826141c1576141c1614083565b500690565b600082601f8301126141d757600080fd5b81356001600160401b038111156141f0576141f0613cda565b614203601f8201601f1916602001613d19565b81815284602083860101111561421857600080fd5b816020850160208301376000918101602001919091529392505050565b6000610140823603121561424857600080fd5b614250613cf0565b82356001600160401b038082111561426757600080fd5b614273368387016141c6565b8352602085013591508082111561428957600080fd5b614295368387016141c6565b602084015260408501359150808211156142ae57600080fd5b6142ba368387016141c6565b604084015260608501359150808211156142d357600080fd5b6142df368387016141c6565b606084015260808501359150808211156142f857600080fd5b614304368387016141c6565b608084015260a085013591508082111561431d57600080fd5b614329368387016141c6565b60a084015260c085013591508082111561434257600080fd5b61434e368387016141c6565b60c084015260e085013591508082111561436757600080fd5b50614374368286016141c6565b60e083015250610100838101359082015261012092830135928101929092525090565b604081526000835160408084015280516101408060808601526143be6101c0860183613aa9565b91506020830151607f19808785030160a08801526143dc8483613aa9565b935060408501519150808785030160c08801526143f98483613aa9565b935060608501519150808785030160e08801526144168483613aa9565b9350608085015191506101008188860301818901526144358584613aa9565b945060a086015192506101208289870301818a01526144548685613aa9565b955060c087015193508289870301858a01526144708685613aa9565b955060e0870151945082898703016101608a015261448e8686613aa9565b918701516101808a0152909501516101a0880152505050506020850151838203603f19016060850152906144c28183613aa9565b9250505061396560208301846001600160a01b03169052565b600080600080600060a086880312156144f357600080fd5b5050835160208501516040860151606087015160809097015192989197509594509092509050565b600080835461452981613ff0565b60018281168015614541576001811461455657614585565b60ff1984168752821515830287019450614585565b8760005260208060002060005b8581101561457c5781548a820152908401908201614563565b50505082870194505b50929695505050505050565b634e487b7160e01b600052603160045260246000fdfea26469706673582212200c1dd6603fe23e3215869ddb17de6764c2212ab6a689276b98bc4ec806c8a8df64736f6c63430008120033",
  "devdoc": {
    "kind": "dev",
    "methods": {
      "cancelIntent(bytes32)": {
        "params": {
          "_intentHash": "Hash of intent being cancelled"
        }
      },
      "initialize(address,address)": {
        "params": {
          "_accountRegistry": "Account Registry contract for Revolut",
          "_sendProcessor": "Send processor address"
        }
      },
      "offRamp(string,bytes32,uint256,uint256,address,bytes32)": {
        "params": {
          "_depositAmount": "The amount of USDC to off-ramp",
          "_notaryKeyHash": "Hash of the notary public key that is required to do notarization",
          "_receiveAmount": "The amount of USD to receive",
          "_receiveCurrencyId": "Id of the currency to be received off-chain",
          "_revolutTag": "Depositor's Revolut tag to receive payments",
          "_verifierSigningKey": "Public key of the verifier depositor wants to sign the TLS proof"
        }
      },
      "onRamp((string,string,string,string,string,string,string,string,uint256,uint256),bytes)": {
        "params": {
          "_sendData": "Struct containing unredacted data from API call to Revolut",
          "_verifierSignature": "Signature by verifier of the unredacted data"
        }
      },
      "owner()": {
        "details": "Returns the address of the current owner."
      },
      "releaseFundsToOnramper(bytes32)": {
        "params": {
          "_intentHash": "Hash of intent to resolve by releasing the funds"
        }
      },
      "renounceOwnership()": {
        "details": "Leaves the contract without owner. It will not be possible to call `onlyOwner` functions. Can only be called by the current owner. NOTE: Renouncing ownership will leave the contract without an owner, thereby disabling any functionality that is only available to the owner."
      },
      "setIntentExpirationPeriod(uint256)": {
        "params": {
          "_intentExpirationPeriod": "New intent expiration period"
        }
      },
      "setMaxOnRampAmount(uint256)": {
        "params": {
          "_maxOnRampAmount": "The new max on ramp amount"
        }
      },
      "setMinDepositAmount(uint256)": {
        "params": {
          "_minDepositAmount": "The new minimum deposit amount"
        }
      },
      "setOnRampCooldownPeriod(uint256)": {
        "params": {
          "_onRampCooldownPeriod": "New on-ramp cooldown period"
        }
      },
      "setSendProcessor(address)": {
        "params": {
          "_sendProcessor": "New send proccesor address"
        }
      },
      "setSustainabilityFee(uint256)": {
        "params": {
          "_fee": "The new sustainability fee in precise units (10**18, ie 10% = 1e17)"
        }
      },
      "setSustainabilityFeeRecipient(address)": {
        "params": {
          "_feeRecipient": "The new fee recipient address"
        }
      },
      "signalIntent(uint256,uint256,address)": {
        "params": {
          "_amount": "The amount of USDC the user wants to on-ramp",
          "_depositId": "The ID of the deposit the on-ramper intends to use for ",
          "_to": "Address to forward funds to (can be same as onRamper)"
        }
      },
      "transferOwnership(address)": {
        "details": "Transfers ownership of the contract to a new account (`newOwner`). Can only be called by the current owner."
      },
      "withdrawDeposit(uint256[])": {
        "params": {
          "_depositIds": "Array of depositIds the depositor is attempting to withdraw"
        }
      }
    },
    "version": 1
  },
  "userdoc": {
    "kind": "user",
    "methods": {
      "cancelIntent(bytes32)": {
        "notice": "Only callable by the originator of the intent. Cancels an outstanding intent thus allowing user to signal a new intent. Deposit state is updated to reflect the cancelled intent."
      },
      "initialize(address,address)": {
        "notice": "Initialize Ramp with the addresses of the Processors"
      },
      "offRamp(string,bytes32,uint256,uint256,address,bytes32)": {
        "notice": "Generates a deposit entry for off-rampers that can then be fulfilled by an on-ramper. This function will not add to previous deposits. Every deposit has it's own unique identifier. User must approve the contract to transfer the deposit amount of USDC."
      },
      "onRamp((string,string,string,string,string,string,string,string,uint256,uint256),bytes)": {
        "notice": "Anyone can submit an on-ramp transaction, even if caller isn't on-ramper. Upon submission the proof is validated, intent is removed, and deposit state is updated. USDC is transferred to the on-ramper."
      },
      "releaseFundsToOnramper(bytes32)": {
        "notice": "Allows off-ramper to release funds to the on-ramper in case of a failed on-ramp or because of some other arrangement between the two parties. Upon submission we check to make sure the msg.sender is the depositor, the  intent is removed, and  deposit state is updated. USDC is transferred to the on-ramper."
      },
      "setIntentExpirationPeriod(uint256)": {
        "notice": "GOVERNANCE ONLY: Updates the intent expiration period, after this period elapses an intent can be pruned to prevent locking up a depositor's funds."
      },
      "setMaxOnRampAmount(uint256)": {
        "notice": "GOVERNANCE ONLY: Updates the max amount allowed to be on-ramped in each transaction. To on-ramp more than this amount a user must make multiple transactions."
      },
      "setMinDepositAmount(uint256)": {
        "notice": "GOVERNANCE ONLY: Updates the minimum deposit amount a user can specify for off-ramping."
      },
      "setOnRampCooldownPeriod(uint256)": {
        "notice": "GOVERNANCE ONLY: Updates the on-ramp cooldown period, once an on-ramp transaction is completed the user must wait this amount of time before they can signalIntent to on-ramp again."
      },
      "setSendProcessor(address)": {
        "notice": "GOVERNANCE ONLY: Updates the send processor address used for validating and interpreting zk proofs."
      },
      "setSustainabilityFee(uint256)": {
        "notice": "GOVERNANCE ONLY: Updates the sustainability fee. This fee is charged to on-rampers upon a successful on-ramp."
      },
      "setSustainabilityFeeRecipient(address)": {
        "notice": "GOVERNANCE ONLY: Updates the recepient of sustainability fees."
      },
      "signalIntent(uint256,uint256,address)": {
        "notice": "Signals intent to pay the depositor defined in the _depositId the _amount * deposit conversionRate off-chain in order to unlock _amount of funds on-chain. Each user can only have one outstanding intent at a time regardless of address (tracked using accountId). Caller must not be on the depositor's deny list. If there are prunable intents then they will be deleted from the deposit to be able to maintain state hygiene."
      },
      "withdrawDeposit(uint256[])": {
        "notice": "Caller must be the depositor for each depositId in the array, if not whole function fails. Depositor is returned all remaining deposits and any outstanding intents that are expired. If an intent is not expired then those funds will not be returned. Deposit will be deleted as long as there are no more outstanding intents."
      }
    },
    "version": 1
  },
  "storageLayout": {
    "storage": [
      {
        "astId": 7,
        "contract": "contracts/ramps/revolut/RevolutRamp.sol:RevolutRamp",
        "label": "_owner",
        "offset": 0,
        "slot": "0",
        "type": "t_address"
      },
      {
        "astId": 13477,
        "contract": "contracts/ramps/revolut/RevolutRamp.sol:RevolutRamp",
        "label": "accountRegistry",
        "offset": 0,
        "slot": "1",
        "type": "t_contract(IRevolutAccountRegistry)15445"
      },
      {
        "astId": 13480,
        "contract": "contracts/ramps/revolut/RevolutRamp.sol:RevolutRamp",
        "label": "sendProcessor",
        "offset": 0,
        "slot": "2",
        "type": "t_contract(IRevolutSendProcessor)15493"
      },
      {
        "astId": 13482,
        "contract": "contracts/ramps/revolut/RevolutRamp.sol:RevolutRamp",
        "label": "isInitialized",
        "offset": 20,
        "slot": "2",
        "type": "t_bool"
      },
      {
        "astId": 13487,
        "contract": "contracts/ramps/revolut/RevolutRamp.sol:RevolutRamp",
        "label": "globalAccount",
        "offset": 0,
        "slot": "3",
        "type": "t_mapping(t_bytes32,t_struct(GlobalAccountInfo)13446_storage)"
      },
      {
        "astId": 13492,
        "contract": "contracts/ramps/revolut/RevolutRamp.sol:RevolutRamp",
        "label": "deposits",
        "offset": 0,
        "slot": "4",
        "type": "t_mapping(t_uint256,t_struct(Deposit)13409_storage)"
      },
      {
        "astId": 13497,
        "contract": "contracts/ramps/revolut/RevolutRamp.sol:RevolutRamp",
        "label": "intents",
        "offset": 0,
        "slot": "5",
        "type": "t_mapping(t_bytes32,t_struct(Intent)13430_storage)"
      },
      {
        "astId": 13499,
        "contract": "contracts/ramps/revolut/RevolutRamp.sol:RevolutRamp",
        "label": "minDepositAmount",
        "offset": 0,
        "slot": "6",
        "type": "t_uint256"
      },
      {
        "astId": 13501,
        "contract": "contracts/ramps/revolut/RevolutRamp.sol:RevolutRamp",
        "label": "maxOnRampAmount",
        "offset": 0,
        "slot": "7",
        "type": "t_uint256"
      },
      {
        "astId": 13503,
        "contract": "contracts/ramps/revolut/RevolutRamp.sol:RevolutRamp",
        "label": "onRampCooldownPeriod",
        "offset": 0,
        "slot": "8",
        "type": "t_uint256"
      },
      {
        "astId": 13505,
        "contract": "contracts/ramps/revolut/RevolutRamp.sol:RevolutRamp",
        "label": "intentExpirationPeriod",
        "offset": 0,
        "slot": "9",
        "type": "t_uint256"
      },
      {
        "astId": 13507,
        "contract": "contracts/ramps/revolut/RevolutRamp.sol:RevolutRamp",
        "label": "sustainabilityFee",
        "offset": 0,
        "slot": "10",
        "type": "t_uint256"
      },
      {
        "astId": 13509,
        "contract": "contracts/ramps/revolut/RevolutRamp.sol:RevolutRamp",
        "label": "sustainabilityFeeRecipient",
        "offset": 0,
        "slot": "11",
        "type": "t_address"
      },
      {
        "astId": 13511,
        "contract": "contracts/ramps/revolut/RevolutRamp.sol:RevolutRamp",
        "label": "depositCounter",
        "offset": 0,
        "slot": "12",
        "type": "t_uint256"
      }
    ],
    "types": {
      "t_address": {
        "encoding": "inplace",
        "label": "address",
        "numberOfBytes": "20"
      },
      "t_array(t_bytes32)dyn_storage": {
        "base": "t_bytes32",
        "encoding": "dynamic_array",
        "label": "bytes32[]",
        "numberOfBytes": "32"
      },
      "t_array(t_uint256)dyn_storage": {
        "base": "t_uint256",
        "encoding": "dynamic_array",
        "label": "uint256[]",
        "numberOfBytes": "32"
      },
      "t_bool": {
        "encoding": "inplace",
        "label": "bool",
        "numberOfBytes": "1"
      },
      "t_bytes32": {
        "encoding": "inplace",
        "label": "bytes32",
        "numberOfBytes": "32"
      },
      "t_contract(IRevolutAccountRegistry)15445": {
        "encoding": "inplace",
        "label": "contract IRevolutAccountRegistry",
        "numberOfBytes": "20"
      },
      "t_contract(IRevolutSendProcessor)15493": {
        "encoding": "inplace",
        "label": "contract IRevolutSendProcessor",
        "numberOfBytes": "20"
      },
      "t_mapping(t_bytes32,t_struct(GlobalAccountInfo)13446_storage)": {
        "encoding": "mapping",
        "key": "t_bytes32",
        "label": "mapping(bytes32 => struct RevolutRamp.GlobalAccountInfo)",
        "numberOfBytes": "32",
        "value": "t_struct(GlobalAccountInfo)13446_storage"
      },
      "t_mapping(t_bytes32,t_struct(Intent)13430_storage)": {
        "encoding": "mapping",
        "key": "t_bytes32",
        "label": "mapping(bytes32 => struct RevolutRamp.Intent)",
        "numberOfBytes": "32",
        "value": "t_struct(Intent)13430_storage"
      },
      "t_mapping(t_uint256,t_struct(Deposit)13409_storage)": {
        "encoding": "mapping",
        "key": "t_uint256",
        "label": "mapping(uint256 => struct RevolutRamp.Deposit)",
        "numberOfBytes": "32",
        "value": "t_struct(Deposit)13409_storage"
      },
      "t_string_storage": {
        "encoding": "bytes",
        "label": "string",
        "numberOfBytes": "32"
      },
      "t_struct(Deposit)13409_storage": {
        "encoding": "inplace",
        "label": "struct RevolutRamp.Deposit",
        "members": [
          {
            "astId": 13389,
            "contract": "contracts/ramps/revolut/RevolutRamp.sol:RevolutRamp",
            "label": "depositor",
            "offset": 0,
            "slot": "0",
            "type": "t_address"
          },
          {
            "astId": 13391,
            "contract": "contracts/ramps/revolut/RevolutRamp.sol:RevolutRamp",
            "label": "revolutTag",
            "offset": 0,
            "slot": "1",
            "type": "t_string_storage"
          },
          {
            "astId": 13393,
            "contract": "contracts/ramps/revolut/RevolutRamp.sol:RevolutRamp",
            "label": "verifierSigningKey",
            "offset": 0,
            "slot": "2",
            "type": "t_address"
          },
          {
            "astId": 13395,
            "contract": "contracts/ramps/revolut/RevolutRamp.sol:RevolutRamp",
            "label": "notaryKeyHash",
            "offset": 0,
            "slot": "3",
            "type": "t_bytes32"
          },
          {
            "astId": 13397,
            "contract": "contracts/ramps/revolut/RevolutRamp.sol:RevolutRamp",
            "label": "depositAmount",
            "offset": 0,
            "slot": "4",
            "type": "t_uint256"
          },
          {
            "astId": 13399,
            "contract": "contracts/ramps/revolut/RevolutRamp.sol:RevolutRamp",
            "label": "receiveCurrencyId",
            "offset": 0,
            "slot": "5",
            "type": "t_bytes32"
          },
          {
            "astId": 13401,
            "contract": "contracts/ramps/revolut/RevolutRamp.sol:RevolutRamp",
            "label": "remainingDeposits",
            "offset": 0,
            "slot": "6",
            "type": "t_uint256"
          },
          {
            "astId": 13403,
            "contract": "contracts/ramps/revolut/RevolutRamp.sol:RevolutRamp",
            "label": "outstandingIntentAmount",
            "offset": 0,
            "slot": "7",
            "type": "t_uint256"
          },
          {
            "astId": 13405,
            "contract": "contracts/ramps/revolut/RevolutRamp.sol:RevolutRamp",
            "label": "conversionRate",
            "offset": 0,
            "slot": "8",
            "type": "t_uint256"
          },
          {
            "astId": 13408,
            "contract": "contracts/ramps/revolut/RevolutRamp.sol:RevolutRamp",
            "label": "intentHashes",
            "offset": 0,
            "slot": "9",
            "type": "t_array(t_bytes32)dyn_storage"
          }
        ],
        "numberOfBytes": "320"
      },
      "t_struct(GlobalAccountInfo)13446_storage": {
        "encoding": "inplace",
        "label": "struct RevolutRamp.GlobalAccountInfo",
        "members": [
          {
            "astId": 13440,
            "contract": "contracts/ramps/revolut/RevolutRamp.sol:RevolutRamp",
            "label": "currentIntentHash",
            "offset": 0,
            "slot": "0",
            "type": "t_bytes32"
          },
          {
            "astId": 13442,
            "contract": "contracts/ramps/revolut/RevolutRamp.sol:RevolutRamp",
            "label": "lastOnrampTimestamp",
            "offset": 0,
            "slot": "1",
            "type": "t_uint256"
          },
          {
            "astId": 13445,
            "contract": "contracts/ramps/revolut/RevolutRamp.sol:RevolutRamp",
            "label": "deposits",
            "offset": 0,
            "slot": "2",
            "type": "t_array(t_uint256)dyn_storage"
          }
        ],
        "numberOfBytes": "96"
      },
      "t_struct(Intent)13430_storage": {
        "encoding": "inplace",
        "label": "struct RevolutRamp.Intent",
        "members": [
          {
            "astId": 13421,
            "contract": "contracts/ramps/revolut/RevolutRamp.sol:RevolutRamp",
            "label": "onRamper",
            "offset": 0,
            "slot": "0",
            "type": "t_address"
          },
          {
            "astId": 13423,
            "contract": "contracts/ramps/revolut/RevolutRamp.sol:RevolutRamp",
            "label": "to",
            "offset": 0,
            "slot": "1",
            "type": "t_address"
          },
          {
            "astId": 13425,
            "contract": "contracts/ramps/revolut/RevolutRamp.sol:RevolutRamp",
            "label": "deposit",
            "offset": 0,
            "slot": "2",
            "type": "t_uint256"
          },
          {
            "astId": 13427,
            "contract": "contracts/ramps/revolut/RevolutRamp.sol:RevolutRamp",
            "label": "amount",
            "offset": 0,
            "slot": "3",
            "type": "t_uint256"
          },
          {
            "astId": 13429,
            "contract": "contracts/ramps/revolut/RevolutRamp.sol:RevolutRamp",
            "label": "intentTimestamp",
            "offset": 0,
            "slot": "4",
            "type": "t_uint256"
          }
        ],
        "numberOfBytes": "160"
      },
      "t_uint256": {
        "encoding": "inplace",
        "label": "uint256",
        "numberOfBytes": "32"
      }
    }
  }
}