{
  "address": "0xC2039e46f59cAC1ddC9a045563946A08D58d6f6A",
  "abi": [
    {
      "inputs": [
        {
          "internalType": "address",
          "name": "_ramp",
          "type": "address"
        },
        {
          "internalType": "contract INullifierRegistry",
          "name": "_nullifierRegistry",
          "type": "address"
        },
        {
          "internalType": "uint256",
          "name": "_timestampBuffer",
          "type": "uint256"
        },
        {
          "internalType": "string",
          "name": "_endpoint",
          "type": "string"
        },
        {
          "internalType": "string",
          "name": "_host",
          "type": "string"
        }
      ],
      "stateMutability": "nonpayable",
      "type": "constructor"
    },
    {
      "anonymous": false,
      "inputs": [
        {
          "indexed": true,
          "internalType": "address",
          "name": "previousOwner",
          "type": "address"
        },
        {
          "indexed": true,
          "internalType": "address",
          "name": "newOwner",
          "type": "address"
        }
      ],
      "name": "OwnershipTransferred",
      "type": "event"
    },
    {
      "inputs": [],
      "name": "PAYMENT_STATUS",
      "outputs": [
        {
          "internalType": "bytes32",
          "name": "",
          "type": "bytes32"
        }
      ],
      "stateMutability": "view",
      "type": "function"
    },
    {
      "inputs": [],
      "name": "endpoint",
      "outputs": [
        {
          "internalType": "string",
          "name": "",
          "type": "string"
        }
      ],
      "stateMutability": "view",
      "type": "function"
    },
    {
      "inputs": [],
      "name": "host",
      "outputs": [
        {
          "internalType": "string",
          "name": "",
          "type": "string"
        }
      ],
      "stateMutability": "view",
      "type": "function"
    },
    {
      "inputs": [],
      "name": "nullifierRegistry",
      "outputs": [
        {
          "internalType": "contract INullifierRegistry",
          "name": "",
          "type": "address"
        }
      ],
      "stateMutability": "view",
      "type": "function"
    },
    {
      "inputs": [],
      "name": "owner",
      "outputs": [
        {
          "internalType": "address",
          "name": "",
          "type": "address"
        }
      ],
      "stateMutability": "view",
      "type": "function"
    },
    {
      "inputs": [
        {
          "components": [
            {
              "components": [
                {
                  "internalType": "string",
                  "name": "endpoint",
                  "type": "string"
                },
                {
                  "internalType": "string",
                  "name": "host",
                  "type": "string"
                },
                {
                  "internalType": "string",
                  "name": "transferId",
                  "type": "string"
                },
                {
                  "internalType": "string",
                  "name": "recipientId",
                  "type": "string"
                },
                {
                  "internalType": "string",
                  "name": "amount",
                  "type": "string"
                },
                {
                  "internalType": "string",
                  "name": "currencyId",
                  "type": "string"
                },
                {
                  "internalType": "string",
                  "name": "status",
                  "type": "string"
                },
                {
                  "internalType": "string",
                  "name": "timestamp",
                  "type": "string"
                },
                {
                  "internalType": "uint256",
                  "name": "intentHash",
                  "type": "uint256"
                },
                {
                  "internalType": "uint256",
                  "name": "notaryKeyHash",
                  "type": "uint256"
                }
              ],
              "internalType": "struct IRevolutSendProcessor.SendData",
              "name": "public_values",
              "type": "tuple"
            },
            {
              "internalType": "bytes",
              "name": "proof",
              "type": "bytes"
            }
          ],
          "internalType": "struct IRevolutSendProcessor.SendProof",
          "name": "_proof",
          "type": "tuple"
        },
        {
          "internalType": "address",
          "name": "_verifierSigningKey",
          "type": "address"
        }
      ],
      "name": "processProof",
      "outputs": [
        {
          "internalType": "uint256",
          "name": "amount",
          "type": "uint256"
        },
        {
          "internalType": "uint256",
          "name": "timestamp",
          "type": "uint256"
        },
        {
          "internalType": "bytes32",
          "name": "offRamperId",
          "type": "bytes32"
        },
        {
          "internalType": "bytes32",
          "name": "currencyId",
          "type": "bytes32"
        },
        {
          "internalType": "bytes32",
          "name": "notaryKeyHash",
          "type": "bytes32"
        }
      ],
      "stateMutability": "nonpayable",
      "type": "function"
    },
    {
      "inputs": [],
      "name": "ramp",
      "outputs": [
        {
          "internalType": "address",
          "name": "",
          "type": "address"
        }
      ],
      "stateMutability": "view",
      "type": "function"
    },
    {
      "inputs": [],
      "name": "renounceOwnership",
      "outputs": [],
      "stateMutability": "nonpayable",
      "type": "function"
    },
    {
      "inputs": [
        {
          "internalType": "uint256",
          "name": "_timestampBuffer",
          "type": "uint256"
        }
      ],
      "name": "setTimestampBuffer",
      "outputs": [],
      "stateMutability": "nonpayable",
      "type": "function"
    },
    {
      "inputs": [],
      "name": "timestampBuffer",
      "outputs": [
        {
          "internalType": "uint256",
          "name": "",
          "type": "uint256"
        }
      ],
      "stateMutability": "view",
      "type": "function"
    },
    {
      "inputs": [
        {
          "internalType": "address",
          "name": "newOwner",
          "type": "address"
        }
      ],
      "name": "transferOwnership",
      "outputs": [],
      "stateMutability": "nonpayable",
      "type": "function"
    }
  ],
  "transactionHash": "0x091755764ae556aaefe9c4224dd730e91503b361db921587617522ba7c7e890f",
  "args": [
    "0x84268621B45C24A7A2A3fb700156B0D5Ac75Ee0b",
    "0x3DD68Da97Eaf62Dd5cdD0767AA20b5AF665D0a34",
    "30",
    "GET https://app.revolut.com/api/retail/transaction/*",
    "app.revolut.com"
  ],
  "numDeployments": 1,
  "solcInputHash": "8bc81ff8830ebb82cab81dfebf9e965a",
  "bytecode": "0x60a06040523480156200001157600080fd5b5060405162001efa38038062001efa8339810160408190526200003491620001d0565b84848484846200004433620000a2565b6001600160a01b03851660805260016200005f8382620002fe565b5060026200006e8282620002fe565b5050600380546001600160a01b0319166001600160a01b03949094169390931790925560045550620003ca95505050505050565b600080546001600160a01b038381166001600160a01b0319831681178455604051919092169283917f8be0079c531659141344cd1fd0a4f28419497f9722a3daafe3b4186f6b6457e09190a35050565b6001600160a01b03811681146200010857600080fd5b50565b634e487b7160e01b600052604160045260246000fd5b600082601f8301126200013357600080fd5b81516001600160401b03808211156200015057620001506200010b565b604051601f8301601f19908116603f011681019082821181831017156200017b576200017b6200010b565b816040528381526020925086838588010111156200019857600080fd5b600091505b83821015620001bc57858201830151818301840152908201906200019d565b600093810190920192909252949350505050565b600080600080600060a08688031215620001e957600080fd5b8551620001f681620000f2565b60208701519095506200020981620000f2565b6040870151606088015191955093506001600160401b03808211156200022e57600080fd5b6200023c89838a0162000121565b935060808801519150808211156200025357600080fd5b50620002628882890162000121565b9150509295509295909350565b600181811c908216806200028457607f821691505b602082108103620002a557634e487b7160e01b600052602260045260246000fd5b50919050565b601f821115620002f957600081815260208120601f850160051c81016020861015620002d45750805b601f850160051c820191505b81811015620002f557828155600101620002e0565b5050505b505050565b81516001600160401b038111156200031a576200031a6200010b565b62000332816200032b84546200026f565b84620002ab565b602080601f8311600181146200036a5760008415620003515750858301515b600019600386901b1c1916600185901b178555620002f5565b600085815260208120601f198616915b828110156200039b578886015182559484019460019091019084016200037a565b5085821015620003ba5787850151600019600388901b60f8161c191681555b5050505050600190811b01905550565b608051611b0e620003ec6000396000818160f301526101fa0152611b0e6000f3fe608060405234801561001057600080fd5b50600436106100a95760003560e01c8063b2a3fda411610071578063b2a3fda41461015d578063b870676c14610170578063dbac582114610183578063f2fde38b1461019a578063f437bc59146101ad578063faec91e0146101b557600080fd5b80630f2d076d146100ae57806315d276e1146100ee5780635e280f111461012d578063715018a6146101425780638da5cb5b1461014c575b600080fd5b6100c16100bc3660046113d2565b6101e9565b604080519586526020860194909452928401919091526060830152608082015260a0015b60405180910390f35b6101157f000000000000000000000000000000000000000000000000000000000000000081565b6040516001600160a01b0390911681526020016100e5565b610135610785565b6040516100e59190611475565b61014a610813565b005b6000546001600160a01b0316610115565b61014a61016b366004611488565b610827565b600354610115906001600160a01b031681565b61018c60045481565b6040519081526020016100e5565b61014a6101a83660046114a1565b610834565b6101356108ad565b61018c6040516810d3d354131155115160ba1b60208201526029016040516020818303038152906040528051906020012081565b600080808080336001600160a01b037f0000000000000000000000000000000000000000000000000000000000000000161461026c5760405162461bcd60e51b815260206004820181905260248201527f4f6e6c792052616d702063616e2063616c6c20746869732066756e6374696f6e60448201526064015b60405180910390fd5b6102ca8661027a89806114bc565b610283906115aa565b61029060208b018b61170d565b8080601f0160208091040260200160405190810160405280939291908181526020018383808284376000920191909152506108ba92505050565b6040805180820190915260018152601560f91b6020820152610420906103d2906102f48a806114bc565b61030290604081019061170d565b8080601f01602080910402602001604051908101604052809392919081815260200183838082843760009201919091525050600180549092506103459150611754565b80601f016020809104026020016040519081016040528092919081815260200182805461037190611754565b80156103be5780601f10610393576101008083540402835291602001916103be565b820191906000526020600020905b8154815290600101906020018083116103a157829003601f168201915b50505050506109069092919063ffffffff16565b6103dc89806114bc565b6103e6908061170d565b8080601f01602080910402602001604051908101604052809392919081815260200183838082843760009201919091525061098b92505050565b6105046002805461043090611754565b80601f016020809104026020016040519081016040528092919081815260200182805461045c90611754565b80156104a95780601f1061047e576101008083540402835291602001916104a9565b820191906000526020600020905b81548152906001019060200180831161048c57829003601f168201915b506104bc93508c92508291506114bc9050565b6104ca90602081019061170d565b8080601f016020809104026020016040519081016040528093929190818152602001838380828437600092019190915250610a2a92505050565b6040516810d3d354131155115160ba1b602082015260290160408051601f19818403018152919052805160209091012061053e88806114bc565b61054c9060c081019061170d565b60405160200161055d92919061178e565b60405160208183030381529060405280519060200120146105cc5760405162461bcd60e51b8152602060048201526024808201527f5061796d656e7420737461747573206e6f7420636f6e6669726d6564206173206044820152631cd95b9d60e21b6064820152608401610263565b6106136105d988806114bc565b6105e790604081019061170d565b6040516020016105f892919061179e565b60405160208183030381529060405280519060200120610ac5565b61066861062088806114bc565b61062e90608081019061170d565b8080601f016020809104026020016040519081016040528093929190818152602001838380828437600092019190915250610be092505050565b6004549095506103e86106cb60006106808b806114bc565b61068e9060e081019061170d565b8080601f0160208091040260200160405190810160405280939291908181526020018383808284376000920191909152509293925050610c619050565b6106d591906117d7565b6106df91906117f9565b93506106eb87806114bc565b6106f990606081019061170d565b60405160200161070a92919061178e565b60408051601f198184030181529190528051602090910120925061072e87806114bc565b61073c9060a081019061170d565b60405160200161074d92919061178e565b60408051601f198184030181529190528051602090910120915061077187806114bc565b610120013560001b90509295509295909350565b6001805461079290611754565b80601f01602080910402602001604051908101604052809291908181526020018280546107be90611754565b801561080b5780601f106107e05761010080835404028352916020019161080b565b820191906000526020600020905b8154815290600101906020018083116107ee57829003601f168201915b505050505081565b61081b610c72565b6108256000610ccc565b565b61082f610c72565b600455565b61083c610c72565b6001600160a01b0381166108a15760405162461bcd60e51b815260206004820152602660248201527f4f776e61626c653a206e6577206f776e657220697320746865207a65726f206160448201526564647265737360d01b6064820152608401610263565b6108aa81610ccc565b50565b6002805461079290611754565b6108c5838383610d1c565b6109015760405162461bcd60e51b815260206004820152600d60248201526c24b73b30b634b210383937b7b360991b6044820152606401610263565b505050565b6060838360006109168383610d91565b9050600019810361092c57869350505050610984565b600061093a88600084610e70565b905060006109568985518561094f91906117f9565b8751610e70565b905081878260405160200161096d9392919061180c565b604051602081830303815290604052955050505050505b9392505050565b8060405160200161099c9190611475565b60405160208183030381529060405280519060200120826040516020016109c39190611475565b6040516020818303038152906040528051906020012014610a265760405162461bcd60e51b815260206004820181905260248201527f456e64706f696e7420646f6573206e6f74206d617463682065787065637465646044820152606401610263565b5050565b80604051602001610a3b9190611475565b6040516020818303038152906040528051906020012082604051602001610a629190611475565b6040516020818303038152906040528051906020012014610a265760405162461bcd60e51b815260206004820152601c60248201527f486f737420646f6573206e6f74206d61746368206578706563746564000000006044820152606401610263565b60035460405163169394bb60e01b8152600481018390526001600160a01b039091169063169394bb90602401602060405180830381865afa158015610b0e573d6000803e3d6000fd5b505050506040513d601f19601f82011682018060405250810190610b32919061184f565b15610b7f5760405162461bcd60e51b815260206004820152601f60248201527f4e756c6c69666965722068617320616c7265616479206265656e2075736564006044820152606401610263565b600354604051632dea6f9960e11b8152600481018390526001600160a01b0390911690635bd4df3290602401600060405180830381600087803b158015610bc557600080fd5b505af1158015610bd9573d6000803e3d6000fd5b5050505050565b600081600081518110610bf557610bf5611871565b6020910101516001600160f81b031916602d60f81b14610c505760405162461bcd60e51b81526020600482015260166024820152752737ba10309039b2b732103a3930b739b0b1ba34b7b760511b6044820152606401610263565b610c5b826006610c61565b92915050565b600061098483601760f91b84610f3d565b6000546001600160a01b031633146108255760405162461bcd60e51b815260206004820181905260248201527f4f776e61626c653a2063616c6c6572206973206e6f7420746865206f776e65726044820152606401610263565b600080546001600160a01b038381166001600160a01b0319831681178455604051919092169283917f8be0079c531659141344cd1fd0a4f28419497f9722a3daafe3b4186f6b6457e09190a35050565b600080836000015184602001518560400151866060015187608001518860a001518960c001518a60e001518b61010001518c6101200151604051602001610d6c9a99989796959493929190611887565b6040516020818303038152906040529050610d8881848761111a565b95945050505050565b80518251600091849184911115610dae5760001992505050610c5b565b60005b81518351610dbf9190611943565b8111610e6357600160005b8351811015610e3e57838181518110610de557610de5611871565b01602001516001600160f81b03191685610dff83866117f9565b81518110610e0f57610e0f611871565b01602001516001600160f81b03191614610e2c5760009150610e3e565b80610e3681611956565b915050610dca565b508015610e5057509250610c5b915050565b5080610e5b81611956565b915050610db1565b5060001995945050505050565b6060836000610e7f8585611943565b67ffffffffffffffff811115610e9757610e976114dd565b6040519080825280601f01601f191660200182016040528015610ec1576020820181803683370190505b509050845b84811015610f3357828181518110610ee057610ee0611871565b01602001516001600160f81b03191682610efa8884611943565b81518110610f0a57610f0a611871565b60200101906001600160f81b031916908160001a90535080610f2b81611956565b915050610ec6565b5095945050505050565b600083818080805b845181101561109357603060f81b858281518110610f6557610f65611871565b01602001516001600160f81b03191610801590610fa65750603960f81b858281518110610f9457610f94611871565b01602001516001600160f81b03191611155b15610fe9576030858281518110610fbf57610fbf611871565b0160200151610fd1919060f81c611943565b610fdc85600a61196f565b610fe691906117f9565b93505b8115610ffd5782610ff981611956565b9350505b876001600160f81b03191685828151811061101a5761101a611871565b01602001516001600160f81b0319160361108157811561107c5760405162461bcd60e51b815260206004820152601c60248201527f537472696e6720686173206d756c7469706c6520646563696d616c73000000006044820152606401610263565b600191505b8061108b81611956565b915050610f45565b50858211156110ef5760405162461bcd60e51b815260206004820152602260248201527f537472696e672068617320746f6f206d616e7920646563696d616c20706c6163604482015261657360f01b6064820152608401610263565b6110f98287611943565b61110490600a611a6a565b61110e908461196f565b98975050505050505050565b825160208401207f19457468657265756d205369676e6564204d6573736167653a0a3332000000006000908152601c91909152603c8120610d886001600160a01b0384168286600080600061116f85856111c1565b9092509050600081600481111561118857611188611a76565b1480156111a65750856001600160a01b0316826001600160a01b0316145b806111b757506111b7868686611206565b9695505050505050565b60008082516041036111f75760208301516040840151606085015160001a6111eb878285856112f2565b945094505050506111ff565b506000905060025b9250929050565b6000806000856001600160a01b0316631626ba7e60e01b8686604051602401611230929190611a8c565b60408051601f198184030181529181526020820180516001600160e01b03166001600160e01b031990941693909317909252905161126e9190611aad565b600060405180830381855afa9150503d80600081146112a9576040519150601f19603f3d011682016040523d82523d6000602084013e6112ae565b606091505b50915091508180156112c257506020815110155b80156111b757508051630b135d3f60e11b906112e79083016020908101908401611abf565b149695505050505050565b6000807f7fffffffffffffffffffffffffffffff5d576e7357a4501ddfe92f46681b20a083111561132957506000905060036113ad565b6040805160008082526020820180845289905260ff881692820192909252606081018690526080810185905260019060a0016020604051602081039080840390855afa15801561137d573d6000803e3d6000fd5b5050604051601f1901519150506001600160a01b0381166113a6576000600192509250506113ad565b9150600090505b94509492505050565b80356001600160a01b03811681146113cd57600080fd5b919050565b600080604083850312156113e557600080fd5b823567ffffffffffffffff8111156113fc57600080fd5b83016040818603121561140e57600080fd5b915061141c602084016113b6565b90509250929050565b60005b83811015611440578181015183820152602001611428565b50506000910152565b60008151808452611461816020860160208601611425565b601f01601f19169290920160200192915050565b6020815260006109846020830184611449565b60006020828403121561149a57600080fd5b5035919050565b6000602082840312156114b357600080fd5b610984826113b6565b6000823561013e198336030181126114d357600080fd5b9190910192915050565b634e487b7160e01b600052604160045260246000fd5b604051610140810167ffffffffffffffff81118282101715611517576115176114dd565b60405290565b600082601f83011261152e57600080fd5b813567ffffffffffffffff80821115611549576115496114dd565b604051601f8301601f19908116603f01168101908282118183101715611571576115716114dd565b8160405283815286602085880101111561158a57600080fd5b836020870160208301376000602085830101528094505050505092915050565b600061014082360312156115bd57600080fd5b6115c56114f3565b823567ffffffffffffffff808211156115dd57600080fd5b6115e93683870161151d565b835260208501359150808211156115ff57600080fd5b61160b3683870161151d565b6020840152604085013591508082111561162457600080fd5b6116303683870161151d565b6040840152606085013591508082111561164957600080fd5b6116553683870161151d565b6060840152608085013591508082111561166e57600080fd5b61167a3683870161151d565b608084015260a085013591508082111561169357600080fd5b61169f3683870161151d565b60a084015260c08501359150808211156116b857600080fd5b6116c43683870161151d565b60c084015260e08501359150808211156116dd57600080fd5b506116ea3682860161151d565b60e083015250610100838101359082015261012092830135928101929092525090565b6000808335601e1984360301811261172457600080fd5b83018035915067ffffffffffffffff82111561173f57600080fd5b6020019150368190038213156111ff57600080fd5b600181811c9082168061176857607f821691505b60208210810361178857634e487b7160e01b600052602260045260246000fd5b50919050565b8183823760009101908152919050565b6614995d9bdb1d5d60ca1b81528183600783013760009101600701908152919050565b634e487b7160e01b600052601160045260246000fd5b6000826117f457634e487b7160e01b600052601260045260246000fd5b500490565b80820180821115610c5b57610c5b6117c1565b6000845161181e818460208901611425565b845190830190611832818360208901611425565b8451910190611845818360208801611425565b0195945050505050565b60006020828403121561186157600080fd5b8151801515811461098457600080fd5b634e487b7160e01b600052603260045260246000fd5b600061014080835261189b8184018e611449565b905082810360208401526118af818d611449565b905082810360408401526118c3818c611449565b905082810360608401526118d7818b611449565b905082810360808401526118eb818a611449565b905082810360a08401526118ff8189611449565b905082810360c08401526119138188611449565b905082810360e08401526119278187611449565b6101008401959095525050610120015298975050505050505050565b81810381811115610c5b57610c5b6117c1565b600060018201611968576119686117c1565b5060010190565b8082028115828204841417610c5b57610c5b6117c1565b600181815b808511156119c15781600019048211156119a7576119a76117c1565b808516156119b457918102915b93841c939080029061198b565b509250929050565b6000826119d857506001610c5b565b816119e557506000610c5b565b81600181146119fb5760028114611a0557611a21565b6001915050610c5b565b60ff841115611a1657611a166117c1565b50506001821b610c5b565b5060208310610133831016604e8410600b8410161715611a44575081810a610c5b565b611a4e8383611986565b8060001904821115611a6257611a626117c1565b029392505050565b600061098483836119c9565b634e487b7160e01b600052602160045260246000fd5b828152604060208201526000611aa56040830184611449565b949350505050565b600082516114d3818460208701611425565b600060208284031215611ad157600080fd5b505191905056fea2646970667358221220e18a6a6191feef83c74663dc447936038dada8ef62a251e16ee5c3a5e6ad0e3b64736f6c63430008120033",
  "devdoc": {
    "kind": "dev",
    "methods": {
      "owner()": {
        "details": "Returns the address of the current owner."
      },
      "renounceOwnership()": {
        "details": "Leaves the contract without owner. It will not be possible to call `onlyOwner` functions. Can only be called by the current owner. NOTE: Renouncing ownership will leave the contract without an owner, thereby disabling any functionality that is only available to the owner."
      },
      "setTimestampBuffer(uint256)": {
        "params": {
          "_timestampBuffer": "The timestamp buffer for validated TLS calls"
        }
      },
      "transferOwnership(address)": {
        "details": "Transfers ownership of the contract to a new account (`newOwner`). Can only be called by the current owner."
      }
    },
    "version": 1
  },
  "userdoc": {
    "kind": "user",
    "methods": {
      "setTimestampBuffer(uint256)": {
        "notice": "ONLY OWNER: Sets the timestamp buffer for validated TLS calls. This is the amount of time in seconds that the timestamp can be off by and still be considered valid. Necessary to build in flexibility with L2 timestamps."
      }
    },
    "version": 1
  },
  "storageLayout": {
    "storage": [
      {
        "astId": 7,
        "contract": "contracts/ramps/revolut/RevolutSendProcessor.sol:RevolutSendProcessor",
        "label": "_owner",
        "offset": 0,
        "slot": "0",
        "type": "t_address"
      },
      {
        "astId": 5432,
        "contract": "contracts/ramps/revolut/RevolutSendProcessor.sol:RevolutSendProcessor",
        "label": "endpoint",
        "offset": 0,
        "slot": "1",
        "type": "t_string_storage"
      },
      {
        "astId": 5434,
        "contract": "contracts/ramps/revolut/RevolutSendProcessor.sol:RevolutSendProcessor",
        "label": "host",
        "offset": 0,
        "slot": "2",
        "type": "t_string_storage"
      },
      {
        "astId": 5437,
        "contract": "contracts/ramps/revolut/RevolutSendProcessor.sol:RevolutSendProcessor",
        "label": "nullifierRegistry",
        "offset": 0,
        "slot": "3",
        "type": "t_contract(INullifierRegistry)5831"
      },
      {
        "astId": 5439,
        "contract": "contracts/ramps/revolut/RevolutSendProcessor.sol:RevolutSendProcessor",
        "label": "timestampBuffer",
        "offset": 0,
        "slot": "4",
        "type": "t_uint256"
      }
    ],
    "types": {
      "t_address": {
        "encoding": "inplace",
        "label": "address",
        "numberOfBytes": "20"
      },
      "t_contract(INullifierRegistry)5831": {
        "encoding": "inplace",
        "label": "contract INullifierRegistry",
        "numberOfBytes": "20"
      },
      "t_string_storage": {
        "encoding": "bytes",
        "label": "string",
        "numberOfBytes": "32"
      },
      "t_uint256": {
        "encoding": "inplace",
        "label": "uint256",
        "numberOfBytes": "32"
      }
    }
  }
}