{
  "address": "0x38074075e15057C83f9A6A7E31C2eB74E6362c57",
  "abi": [
    {
      "inputs": [
        {
          "internalType": "address",
          "name": "_ramp",
          "type": "address"
        },
        {
          "internalType": "contract IKeyHashAdapter",
          "name": "_venmoMailserverKeyHashAdapter",
          "type": "address"
        },
        {
          "internalType": "contract INullifierRegistry",
          "name": "_nullifierRegistry",
          "type": "address"
        },
        {
          "internalType": "string",
          "name": "_emailFromAddress",
          "type": "string"
        }
      ],
      "stateMutability": "nonpayable",
      "type": "constructor"
    },
    {
      "anonymous": false,
      "inputs": [
        {
          "indexed": true,
          "internalType": "address",
          "name": "previousOwner",
          "type": "address"
        },
        {
          "indexed": true,
          "internalType": "address",
          "name": "newOwner",
          "type": "address"
        }
      ],
      "name": "OwnershipTransferred",
      "type": "event"
    },
    {
      "inputs": [],
      "name": "emailFromAddress",
      "outputs": [
        {
          "internalType": "bytes",
          "name": "",
          "type": "bytes"
        }
      ],
      "stateMutability": "view",
      "type": "function"
    },
    {
      "inputs": [],
      "name": "getEmailFromAddress",
      "outputs": [
        {
          "internalType": "bytes",
          "name": "",
          "type": "bytes"
        }
      ],
      "stateMutability": "view",
      "type": "function"
    },
    {
      "inputs": [],
      "name": "getMailserverKeyHash",
      "outputs": [
        {
          "internalType": "bytes32",
          "name": "",
          "type": "bytes32"
        }
      ],
      "stateMutability": "view",
      "type": "function"
    },
    {
      "inputs": [],
      "name": "mailserverKeyHashAdapter",
      "outputs": [
        {
          "internalType": "contract IKeyHashAdapter",
          "name": "",
          "type": "address"
        }
      ],
      "stateMutability": "view",
      "type": "function"
    },
    {
      "inputs": [],
      "name": "nullifierRegistry",
      "outputs": [
        {
          "internalType": "contract INullifierRegistry",
          "name": "",
          "type": "address"
        }
      ],
      "stateMutability": "view",
      "type": "function"
    },
    {
      "inputs": [],
      "name": "owner",
      "outputs": [
        {
          "internalType": "address",
          "name": "",
          "type": "address"
        }
      ],
      "stateMutability": "view",
      "type": "function"
    },
    {
      "inputs": [
        {
          "components": [
            {
              "internalType": "uint256[2]",
              "name": "a",
              "type": "uint256[2]"
            },
            {
              "internalType": "uint256[2][2]",
              "name": "b",
              "type": "uint256[2][2]"
            },
            {
              "internalType": "uint256[2]",
              "name": "c",
              "type": "uint256[2]"
            },
            {
              "internalType": "uint256[12]",
              "name": "signals",
              "type": "uint256[12]"
            }
          ],
          "internalType": "struct ISendProcessor.SendProof",
          "name": "_proof",
          "type": "tuple"
        }
      ],
      "name": "processProof",
      "outputs": [
        {
          "internalType": "uint256",
          "name": "amount",
          "type": "uint256"
        },
        {
          "internalType": "uint256",
          "name": "timestamp",
          "type": "uint256"
        },
        {
          "internalType": "bytes32",
          "name": "offRamperIdHash",
          "type": "bytes32"
        },
        {
          "internalType": "bytes32",
          "name": "onRamperIdHash",
          "type": "bytes32"
        },
        {
          "internalType": "bytes32",
          "name": "intentHash",
          "type": "bytes32"
        }
      ],
      "stateMutability": "nonpayable",
      "type": "function"
    },
    {
      "inputs": [],
      "name": "ramp",
      "outputs": [
        {
          "internalType": "address",
          "name": "",
          "type": "address"
        }
      ],
      "stateMutability": "view",
      "type": "function"
    },
    {
      "inputs": [],
      "name": "renounceOwnership",
      "outputs": [],
      "stateMutability": "nonpayable",
      "type": "function"
    },
    {
      "inputs": [
        {
          "internalType": "string",
          "name": "_emailFromAddress",
          "type": "string"
        }
      ],
      "name": "setEmailFromAddress",
      "outputs": [],
      "stateMutability": "nonpayable",
      "type": "function"
    },
    {
      "inputs": [
        {
          "internalType": "contract IKeyHashAdapter",
          "name": "_mailserverKeyHashAdapter",
          "type": "address"
        }
      ],
      "name": "setMailserverKeyHashAdapter",
      "outputs": [],
      "stateMutability": "nonpayable",
      "type": "function"
    },
    {
      "inputs": [
        {
          "internalType": "address",
          "name": "newOwner",
          "type": "address"
        }
      ],
      "name": "transferOwnership",
      "outputs": [],
      "stateMutability": "nonpayable",
      "type": "function"
    },
    {
      "inputs": [
        {
          "internalType": "uint256[2]",
          "name": "_pA",
          "type": "uint256[2]"
        },
        {
          "internalType": "uint256[2][2]",
          "name": "_pB",
          "type": "uint256[2][2]"
        },
        {
          "internalType": "uint256[2]",
          "name": "_pC",
          "type": "uint256[2]"
        },
        {
          "internalType": "uint256[12]",
          "name": "_pubSignals",
          "type": "uint256[12]"
        }
      ],
      "name": "verifyProof",
      "outputs": [
        {
          "internalType": "bool",
          "name": "",
          "type": "bool"
        }
      ],
      "stateMutability": "view",
      "type": "function"
    }
  ],
  "transactionHash": "0xb016161f6cf5453fd810010037641238893131462771f42acea1d0075f67e915",
  "args": [
    "0xa08d9952196ABECB2BaCD14188093314053f6335",
    "0x28B23225877AedFe6A9FB1B480026aFdF9801213",
    "0x3DD68Da97Eaf62Dd5cdD0767AA20b5AF665D0a34",
    "venmo@venmo.com"
  ],
  "numDeployments": 1,
  "solcInputHash": "3235f00afe52b593578a06ba6b1f711c",
  "bytecode": "0x60a06040523480156200001157600080fd5b506040516200224638038062002246833981016040819052620000349162000114565b83838383620000433362000095565b6001600160a01b03848116608052600180546001600160a01b031990811686841617909155600280549091169184169190911790556003620000868282620002b9565b50505050505050505062000385565b600080546001600160a01b038381166001600160a01b0319831681178455604051919092169283917f8be0079c531659141344cd1fd0a4f28419497f9722a3daafe3b4186f6b6457e09190a35050565b6001600160a01b0381168114620000fb57600080fd5b50565b634e487b7160e01b600052604160045260246000fd5b600080600080608085870312156200012b57600080fd5b84516200013881620000e5565b809450506020808601516200014d81620000e5565b60408701519094506200016081620000e5565b60608701519093506001600160401b03808211156200017e57600080fd5b818801915088601f8301126200019357600080fd5b815181811115620001a857620001a8620000fe565b604051601f8201601f19908116603f01168101908382118183101715620001d357620001d3620000fe565b816040528281528b86848701011115620001ec57600080fd5b600093505b82841015620002105784840186015181850187015292850192620001f1565b600086848301015280965050505050505092959194509250565b600181811c908216806200023f57607f821691505b6020821081036200026057634e487b7160e01b600052602260045260246000fd5b50919050565b601f821115620002b457600081815260208120601f850160051c810160208610156200028f5750805b601f850160051c820191505b81811015620002b0578281556001016200029b565b5050505b505050565b81516001600160401b03811115620002d557620002d5620000fe565b620002ed81620002e684546200022a565b8462000266565b602080601f8311600181146200032557600084156200030c5750858301515b600019600386901b1c1916600185901b178555620002b0565b600085815260208120601f198616915b82811015620003565788860151825594840194600190910190840162000335565b5085821015620003755787850151600019600388901b60f8161c191681555b5050505050600190811b01905550565b608051611e9f620003a76000396000818160d90152610ab00152611e9f6000f3fe608060405234801561001057600080fd5b50600436106100cf5760003560e01c8063a87cb6ea1161008c578063ced1e97811610066578063ced1e978146101e2578063d0b71f99146101ea578063f2fde38b146101fd578063f6c7226b1461021057600080fd5b8063a87cb6ea146101a4578063b870676c146101ba578063c0d05fed146101cd57600080fd5b806315d276e1146100d4578063672ae59714610118578063715018a61461012b5780638cbac0fa146101355780638da5cb5b146101585780638fe0ab8e14610169575b600080fd5b6100fb7f000000000000000000000000000000000000000000000000000000000000000081565b6040516001600160a01b0390911681526020015b60405180910390f35b6001546100fb906001600160a01b031681565b610133610223565b005b610148610143366004611841565b610237565b604051901515815260200161010f565b6000546001600160a01b03166100fb565b61017c6101773660046118a7565b610a9f565b604080519586526020860194909452928401919091526060830152608082015260a00161010f565b6101ac610d34565b60405190815260200161010f565b6002546100fb906001600160a01b031681565b6101d5610da7565b60405161010f91906118e4565b6101d5610e35565b6101336101f836600461192c565b610ec7565b61013361020b36600461192c565b610ef1565b61013361021e366004611966565b610f67565b61022b610f7f565b6102356000610fd9565b565b60006109cd565b7f30644e72e131a029b85045b68181585d97816a916871ca8d3c208c16d87cfd47811061026f576000805260206000f35b50565b600060405183815284602082015285604082015260408160608360076107d05a03fa9150816102a5576000805260206000f35b825160408201526020830151606082015260408360808360066107d05a03fa915050806102d6576000805260206000f35b5050505050565b7f0f42ccd1d09da2e97c7da52e3141035e6b7e29969488d781cc5907e911f2aef485527f22fcca6ed9538287a5d63ddd6213998aca52d06bd1a9ea2ba0000e6c0abcda0f60208601526000608086018661037a87357f0cae773c551389c4b3748876eb879fd5a22df84214423ccdffcb6b2580d7bf167f052a04c97a2182b6a1b2907b2cc1e38ec3a31f802548459a134bac0d7636509984610272565b6103ca60208801357f04a3290596fa6594ac4116f78951e6613a335fb4a55575fccc749f7e0047182a7f0ddc62daadf2242f06ed2fc536f6506d2c9c2b8aca41cef637e48643f42d8a4484610272565b61041a60408801357f1d885ff71ea4bb465c1156808c77dc42b4109067a9817e25c049b7e286486bd27f15b78b03c0442b3c971ab6085dc2d971895a91484fad7490112b418f5acbf98b84610272565b61046a60608801357f046af46ee1b42873cef47bef79ee3b6c3a3858b963b830a1392b74980842d1747f208abe3bef839194b75dfce6f70774a09f0159d6b6ee8d9c4a3fb56dbbbad35a84610272565b6104b960808801357f0957e53908d052485184ec6ce32d3f28b35b4098c84faa43193147c67605ca407ecbb167565d1fc4ff126056f6ad5ae6d7ee36240d58724adace5b93d8bda45e84610272565b61050960a08801357f0584e4a8541cf7270af7b54ca5b9b7d6356113d303ceb57742bd1ef633ca77f37f11fa2ebf5417b4549c753e84aca2920f9bb5f0cc20653ee4c4dc9fcba77d837a84610272565b61055960c08801357f174d3871564045120f8d87478d04f57d15ff67945f107417d75dd7d98e3a52157f0bc5b9a3762ffbc89579ac3efa6366f610946639a924884c149d6b882663412f84610272565b6105a960e08801357f050c39cf04b7e31780a9530e8c37cf035af9bb0771f9b97b043b5da06fa9c3087f2f4f503f73c7e882f95d7c60d6a1d949fc692d10f7e7d1a46848955b38fdf09b84610272565b6105fa6101008801357f2cb8a1f363d9ee404ae54ea0e20f3f914a407fe0515415dba540fe52e28d98557f245e879af3861119e5c5b2a274fa09fd79254dab1c167d927f206c0e3ce1366e84610272565b61064b6101208801357f1f91f64be622f47fa11f93a86381c5361fbb73a73bbfc92d24ecaf865f0a018c7f0321e87db17c101496865d1841aef0981b235e079c4cc0e6b292ead4b9feeff884610272565b61069c6101408801357f1ed877c0515893c450a07970e36b669ade589147607ebb95e648eb8417ae91eb7f1841f54a2c24330cf3d50547868a8ad41209f45b33e9286b40386214e66c400884610272565b6106ed6101608801357f0b5c9c02e164fd7e26208c6fcd1024f172411845c45b76543488da69d66e822a7f1728d566cfd864539960fb0e369fdcd413176050d48e4f32cdf89fc4789c6bb884610272565b50823581527f30644e72e131a029b85045b68181585d97816a916871ca8d3c208c16d87cfd4760208401357f30644e72e131a029b85045b68181585d97816a916871ca8d3c208c16d87cfd4703066020820152833560408201526020840135606082015260408401356080820152606084013560a08201527f2d4d9aa7e302d9df41749d5507949d05dbea33fbb16c643b22f599a2be6df2e260c08201527f14bedd503c37ceb061d8ec60209fe345ce89830a19230301f076caff004d192660e08201527f0967032fcbf776d1afc985f88877f182d38480a653f2decaa9794cbc3bf3060c6101008201527f0e187847ad4c798374d0d6732bf501847dd68bc0e071241e0213bc7fc13db7ab6101208201527f304cfbd1e08a704a99f5e847d93f8c3caafddec46b7a0d379da69a4d112346a76101408201527f1739c1b1a457a8c7313123d24d2f9192f896b7c63eea05a9d57f06547ad0cec8610160820152600087015161018082015260206000018701516101a08201527f198e9393920d483a7260bfb731fb5d25f1aa493335a9e71297e485b7aef312c26101c08201527f1800deef121f1e76426a00665e5c4479674322d4f75edadd46debd5cd992f6ed6101e08201527f090689d0585ff075ec9e99ad690c3395bc4b313370b38ef355acdadcd122975b6102008201527f12c85ea5db8c6deb4aab71808dcb408fe3d1e7690c43d37b4ce6cc0166fa7daa610220820152843561024082015260208501356102608201527f198e9393920d483a7260bfb731fb5d25f1aa493335a9e71297e485b7aef312c26102808201527f1800deef121f1e76426a00665e5c4479674322d4f75edadd46debd5cd992f6ed6102a08201527f090689d0585ff075ec9e99ad690c3395bc4b313370b38ef355acdadcd122975b6102c08201527f12c85ea5db8c6deb4aab71808dcb408fe3d1e7690c43d37b4ce6cc0166fa7daa6102e08201526020816103008360086107d05a03fa9051169695505050505050565b60405161038081016040526109e5600084013561023e565b6109f2602084013561023e565b6109ff604084013561023e565b610a0c606084013561023e565b610a19608084013561023e565b610a2660a084013561023e565b610a3360c084013561023e565b610a4060e084013561023e565b610a4e61010084013561023e565b610a5c61012084013561023e565b610a6a61014084013561023e565b610a7861016084013561023e565b610a8661018084013561023e565b610a93818486888a6102dd565b90508060005260206000f35b600080808080336001600160a01b037f00000000000000000000000000000000000000000000000000000000000000001614610b225760405162461bcd60e51b815260206004820181905260248201527f4f6e6c792052616d702063616e2063616c6c20746869732066756e6374696f6e60448201526064015b60405180910390fd5b6040805163465d607d60e11b81523091638cbac0fa91610b55918a919082019060c0830190610100840190600401611a17565b602060405180830381865afa158015610b72573d6000803e3d6000fd5b505050506040513d601f19601f82011682018060405250810190610b969190611a64565b610bd25760405162461bcd60e51b815260206004820152600d60248201526c24b73b30b634b210283937b7b360991b6044820152606401610b19565b610bda610d34565b61010087013514610c2d5760405162461bcd60e51b815260206004820152601b60248201527f496e76616c6964206d61696c736572766572206b6579206861736800000000006044820152606401610b19565b6000610c40876101000160016004611029565b90506003604051610c519190611ad0565b604051809103902081604051602001610c6a9190611b46565b6040516020818303038152906040528051906020012014610ccd5760405162461bcd60e51b815260206004820152601a60248201527f496e76616c696420656d61696c2066726f6d20616464726573730000000000006044820152606401610b19565b610ce96006610ce3896101000160046006611029565b906110f3565b9550610d016000610ce3896101000160066008611029565b945061020087013593506102208701359250610d216102408801356112cb565b5093959294919350916102609091013590565b60015460408051630d901b9960e21b815290516000926001600160a01b0316916336406e649160048083019260209291908290030181865afa158015610d7e573d6000803e3d6000fd5b505050506040513d601f19601f82011682018060405250810190610da29190611b62565b905090565b60038054610db490611a9c565b80601f0160208091040260200160405190810160405280929190818152602001828054610de090611a9c565b8015610e2d5780601f10610e0257610100808354040283529160200191610e2d565b820191906000526020600020905b815481529060010190602001808311610e1057829003601f168201915b505050505081565b606060038054610e4490611a9c565b80601f0160208091040260200160405190810160405280929190818152602001828054610e7090611a9c565b8015610ebd5780601f10610e9257610100808354040283529160200191610ebd565b820191906000526020600020905b815481529060010190602001808311610ea057829003601f168201915b5050505050905090565b610ecf610f7f565b600180546001600160a01b0319166001600160a01b0392909216919091179055565b610ef9610f7f565b6001600160a01b038116610f5e5760405162461bcd60e51b815260206004820152602660248201527f4f776e61626c653a206e6577206f776e657220697320746865207a65726f206160448201526564647265737360d01b6064820152608401610b19565b61026f81610fd9565b610f6f610f7f565b6003610f7b8282611bca565b5050565b6000546001600160a01b031633146102355760405162461bcd60e51b815260206004820181905260248201527f4f776e61626c653a2063616c6c6572206973206e6f7420746865206f776e65726044820152606401610b19565b600080546001600160a01b038381166001600160a01b0319831681178455604051919092169283917f8be0079c531659141344cd1fd0a4f28419497f9722a3daafe3b4186f6b6457e09190a35050565b606060006110378484611ca0565b60ff1667ffffffffffffffff81111561105257611052611950565b60405190808252806020026020018201604052801561107b578160200160208202803683370190505b50905060ff84165b8360ff168110156110e0578581600c81106110a0576110a0611a86565b6020020135826110b360ff881684611cb9565b815181106110c3576110c3611a86565b6020908102919091010152806110d881611ccc565b915050611083565b506110ea816113df565b95945050505050565b600082818080805b845181101561124357603060f81b85828151811061111b5761111b611a86565b01602001516001600160f81b0319161080159061115c5750603960f81b85828151811061114a5761114a611a86565b01602001516001600160f81b03191611155b1561119f57603085828151811061117557611175611a86565b0160200151611187919060f81c611cb9565b61119285600a611ce5565b61119c9190611cfc565b93505b81156111b357826111af81611ccc565b9350505b8481815181106111c5576111c5611a86565b01602001516001600160f81b031916601760f91b0361123157811561122c5760405162461bcd60e51b815260206004820152601c60248201527f537472696e6720686173206d756c7469706c6520646563696d616c73000000006044820152606401610b19565b600191505b8061123b81611ccc565b9150506110fb565b508582111561129f5760405162461bcd60e51b815260206004820152602260248201527f537472696e672068617320746f6f206d616e7920646563696d616c20706c6163604482015261657360f01b6064820152608401610b19565b6112a98287611cb9565b6112b490600a611df3565b6112be9084611ce5565b9450505050505b92915050565b60025460405163169394bb60e01b8152600481018390526001600160a01b039091169063169394bb90602401602060405180830381865afa158015611314573d6000803e3d6000fd5b505050506040513d601f19601f820116820180604052508101906113389190611a64565b156113855760405162461bcd60e51b815260206004820152601f60248201527f4e756c6c69666965722068617320616c7265616479206265656e2075736564006044820152606401610b19565b600254604051632dea6f9960e11b8152600481018390526001600160a01b0390911690635bd4df3290602401600060405180830381600087803b1580156113cb57600080fd5b505af11580156102d6573d6000803e3d6000fd5b60606112c582601f84516113f39190611ce5565b601f60606000808386516114079190611ce5565b67ffffffffffffffff81111561141f5761141f611950565b6040519080825280601f01601f191660200182016040528015611449576020820181803683370190505b5090506000805b87518161ffff161015611600576000888261ffff168151811061147557611475611a86565b6020026020010151905060008767ffffffffffffffff81111561149a5761149a611950565b6040519080825280602002602001820160405280156114c3578160200160208202803683370190505b50905060005b88811015611515576114dc816008611ce5565b83901c8282815181106114f1576114f1611a86565b60ff909216602092830291909101909101528061150d81611ccc565b9150506114c9565b5060005b888110156115ea57600082828151811061153557611535611a86565b602002602001015160ff169050806000146115ad578060f81b87878151811061156057611560611a86565b60200101906001600160f81b031916908160001a9053508561158181611ccc565b96506115909050600289611dff565b60ff166000036115a8576115a5600189611e2f565b97505b6115d0565b6115b8600289611dff565b60ff166001036115d0576115cd600189611e2f565b97505b5060089290921c91806115e281611ccc565b915050611519565b50505080806115f890611e48565b915050611450565b5060018360ff1610156116a15760405162461bcd60e51b815260206004820152605760248201527f4e6f207061636b656420627974657320666f756e642120496e76616c6964206660448201527f696e616c207374617465206f66207061636b656420627974657320696e20656d60648201527f61696c3b2076616c7565206973206c696b656c79203021000000000000000000608482015260a401610b19565b8581111561170f5760405162461bcd60e51b815260206004820152603560248201527f5061636b6564206279746573206d6f7265207468616e20616c6c6f776564206d6044820152746178206e756d626572206f66207369676e616c732160581b6064820152608401610b19565b600061171a83611726565b98975050505050505050565b8051606090829060005b825181101561177b5782818151811061174b5761174b611a86565b01602001516001600160f81b0319166000036117695780915061177b565b8061177381611ccc565b915050611730565b5060008167ffffffffffffffff81111561179757611797611950565b6040519080825280601f01601f1916602001820160405280156117c1576020820181803683370190505b50905060005b82811015611827578381815181106117e1576117e1611a86565b602001015160f81c60f81b8282815181106117fe576117fe611a86565b60200101906001600160f81b031916908160001a9053508061181f81611ccc565b9150506117c7565b50949350505050565b80604081018310156112c557600080fd5b60008060008061028080868803121561185957600080fd5b6118638787611830565b945060c086018781111561187657600080fd5b6040870194506118868882611830565b93505086818701111561189857600080fd5b50929591945092610100019150565b600061028082840312156118ba57600080fd5b50919050565b60005b838110156118db5781810151838201526020016118c3565b50506000910152565b60208152600082518060208401526119038160408501602087016118c0565b601f01601f19169190910160400192915050565b6001600160a01b038116811461026f57600080fd5b60006020828403121561193e57600080fd5b813561194981611917565b9392505050565b634e487b7160e01b600052604160045260246000fd5b60006020828403121561197857600080fd5b813567ffffffffffffffff8082111561199057600080fd5b818401915084601f8301126119a457600080fd5b8135818111156119b6576119b6611950565b604051601f8201601f19908116603f011681019083821181831017156119de576119de611950565b816040528281528760208487010111156119f757600080fd5b826020860160208301376000928101602001929092525095945050505050565b61028081016040808784378083018660005b6002811015611a4657838284379183019190830190600101611a29565b505050808560c0850137506101808361010084013795945050505050565b600060208284031215611a7657600080fd5b8151801515811461194957600080fd5b634e487b7160e01b600052603260045260246000fd5b600181811c90821680611ab057607f821691505b6020821081036118ba57634e487b7160e01b600052602260045260246000fd5b6000808354611ade81611a9c565b60018281168015611af65760018114611b0b57611b3a565b60ff1984168752821515830287019450611b3a565b8760005260208060002060005b85811015611b315781548a820152908401908201611b18565b50505082870194505b50929695505050505050565b60008251611b588184602087016118c0565b9190910192915050565b600060208284031215611b7457600080fd5b5051919050565b601f821115611bc557600081815260208120601f850160051c81016020861015611ba25750805b601f850160051c820191505b81811015611bc157828155600101611bae565b5050505b505050565b815167ffffffffffffffff811115611be457611be4611950565b611bf881611bf28454611a9c565b84611b7b565b602080601f831160018114611c2d5760008415611c155750858301515b600019600386901b1c1916600185901b178555611bc1565b600085815260208120601f198616915b82811015611c5c57888601518255948401946001909101908401611c3d565b5085821015611c7a5787850151600019600388901b60f8161c191681555b5050505050600190811b01905550565b634e487b7160e01b600052601160045260246000fd5b60ff82811682821603908111156112c5576112c5611c8a565b818103818111156112c5576112c5611c8a565b600060018201611cde57611cde611c8a565b5060010190565b80820281158282048414176112c5576112c5611c8a565b808201808211156112c5576112c5611c8a565b600181815b80851115611d4a578160001904821115611d3057611d30611c8a565b80851615611d3d57918102915b93841c9390800290611d14565b509250929050565b600082611d61575060016112c5565b81611d6e575060006112c5565b8160018114611d845760028114611d8e57611daa565b60019150506112c5565b60ff841115611d9f57611d9f611c8a565b50506001821b6112c5565b5060208310610133831016604e8410600b8410161715611dcd575081810a6112c5565b611dd78383611d0f565b8060001904821115611deb57611deb611c8a565b029392505050565b60006119498383611d52565b600060ff831680611e2057634e487b7160e01b600052601260045260246000fd5b8060ff84160691505092915050565b60ff81811683821601908111156112c5576112c5611c8a565b600061ffff808316818103611e5f57611e5f611c8a565b600101939250505056fea2646970667358221220dc19b8ef303bcbb47c300edaee188dd8350cb67f30f9b427fb220fcac961365b64736f6c63430008120033",
  "devdoc": {
    "kind": "dev",
    "methods": {
      "owner()": {
        "details": "Returns the address of the current owner."
      },
      "renounceOwnership()": {
        "details": "Leaves the contract without owner. It will not be possible to call `onlyOwner` functions. Can only be called by the current owner. NOTE: Renouncing ownership will leave the contract without an owner, thereby disabling any functionality that is only available to the owner."
      },
      "setEmailFromAddress(string)": {
        "params": {
          "_emailFromAddress": "The from email address for validated emails, MUST BE PROPERLY PADDED"
        }
      },
      "transferOwnership(address)": {
        "details": "Transfers ownership of the contract to a new account (`newOwner`). Can only be called by the current owner."
      }
    },
    "version": 1
  },
  "userdoc": {
    "kind": "user",
    "methods": {
      "setEmailFromAddress(string)": {
        "notice": "ONLY OWNER: Sets the from email address for validated emails. Check that email address is properly padded (if necessary). Padding will be dependent on if unpacking functions cut trailing 0s or not."
      }
    },
    "version": 1
  },
  "storageLayout": {
    "storage": [
      {
        "astId": 7,
        "contract": "contracts/processors/VenmoSendProcessor.sol:VenmoSendProcessor",
        "label": "_owner",
        "offset": 0,
        "slot": "0",
        "type": "t_address"
      },
      {
        "astId": 5170,
        "contract": "contracts/processors/VenmoSendProcessor.sol:VenmoSendProcessor",
        "label": "mailserverKeyHashAdapter",
        "offset": 0,
        "slot": "1",
        "type": "t_contract(IKeyHashAdapter)5709"
      },
      {
        "astId": 5173,
        "contract": "contracts/processors/VenmoSendProcessor.sol:VenmoSendProcessor",
        "label": "nullifierRegistry",
        "offset": 0,
        "slot": "2",
        "type": "t_contract(INullifierRegistry)5761"
      },
      {
        "astId": 5175,
        "contract": "contracts/processors/VenmoSendProcessor.sol:VenmoSendProcessor",
        "label": "emailFromAddress",
        "offset": 0,
        "slot": "3",
        "type": "t_bytes_storage"
      }
    ],
    "types": {
      "t_address": {
        "encoding": "inplace",
        "label": "address",
        "numberOfBytes": "20"
      },
      "t_bytes_storage": {
        "encoding": "bytes",
        "label": "bytes",
        "numberOfBytes": "32"
      },
      "t_contract(IKeyHashAdapter)5709": {
        "encoding": "inplace",
        "label": "contract IKeyHashAdapter",
        "numberOfBytes": "20"
      },
      "t_contract(INullifierRegistry)5761": {
        "encoding": "inplace",
        "label": "contract INullifierRegistry",
        "numberOfBytes": "20"
      }
    }
  }
}