{
  "address": "0xABB08332794969f5CBE790930E96c80CFaA35119",
  "abi": [
    {
      "inputs": [
        {
          "internalType": "address",
          "name": "_ramp",
          "type": "address"
        },
        {
          "internalType": "contract IKeyHashAdapterV2",
          "name": "_venmoMailserverKeyHashAdapter",
          "type": "address"
        },
        {
          "internalType": "contract INullifierRegistry",
          "name": "_nullifierRegistry",
          "type": "address"
        },
        {
          "internalType": "string",
          "name": "_emailFromAddress",
          "type": "string"
        },
        {
          "internalType": "uint256",
          "name": "_timestampBuffer",
          "type": "uint256"
        }
      ],
      "stateMutability": "nonpayable",
      "type": "constructor"
    },
    {
      "anonymous": false,
      "inputs": [
        {
          "indexed": true,
          "internalType": "address",
          "name": "previousOwner",
          "type": "address"
        },
        {
          "indexed": true,
          "internalType": "address",
          "name": "newOwner",
          "type": "address"
        }
      ],
      "name": "OwnershipTransferred",
      "type": "event"
    },
    {
      "inputs": [],
      "name": "PACK_SIZE",
      "outputs": [
        {
          "internalType": "uint256",
          "name": "",
          "type": "uint256"
        }
      ],
      "stateMutability": "view",
      "type": "function"
    },
    {
      "inputs": [],
      "name": "emailFromAddress",
      "outputs": [
        {
          "internalType": "bytes",
          "name": "",
          "type": "bytes"
        }
      ],
      "stateMutability": "view",
      "type": "function"
    },
    {
      "inputs": [],
      "name": "getEmailFromAddress",
      "outputs": [
        {
          "internalType": "bytes",
          "name": "",
          "type": "bytes"
        }
      ],
      "stateMutability": "view",
      "type": "function"
    },
    {
      "inputs": [
        {
          "internalType": "bytes32",
          "name": "_keyHash",
          "type": "bytes32"
        }
      ],
      "name": "isMailServerKeyHash",
      "outputs": [
        {
          "internalType": "bool",
          "name": "",
          "type": "bool"
        }
      ],
      "stateMutability": "view",
      "type": "function"
    },
    {
      "inputs": [],
      "name": "mailServerKeyHashAdapter",
      "outputs": [
        {
          "internalType": "contract IKeyHashAdapterV2",
          "name": "",
          "type": "address"
        }
      ],
      "stateMutability": "view",
      "type": "function"
    },
    {
      "inputs": [],
      "name": "nullifierRegistry",
      "outputs": [
        {
          "internalType": "contract INullifierRegistry",
          "name": "",
          "type": "address"
        }
      ],
      "stateMutability": "view",
      "type": "function"
    },
    {
      "inputs": [],
      "name": "owner",
      "outputs": [
        {
          "internalType": "address",
          "name": "",
          "type": "address"
        }
      ],
      "stateMutability": "view",
      "type": "function"
    },
    {
      "inputs": [
        {
          "components": [
            {
              "internalType": "uint256[2]",
              "name": "a",
              "type": "uint256[2]"
            },
            {
              "internalType": "uint256[2][2]",
              "name": "b",
              "type": "uint256[2][2]"
            },
            {
              "internalType": "uint256[2]",
              "name": "c",
              "type": "uint256[2]"
            },
            {
              "internalType": "uint256[12]",
              "name": "signals",
              "type": "uint256[12]"
            }
          ],
          "internalType": "struct ISendProcessor.SendProof",
          "name": "_proof",
          "type": "tuple"
        }
      ],
      "name": "processProof",
      "outputs": [
        {
          "internalType": "uint256",
          "name": "amount",
          "type": "uint256"
        },
        {
          "internalType": "uint256",
          "name": "timestamp",
          "type": "uint256"
        },
        {
          "internalType": "bytes32",
          "name": "offRamperIdHash",
          "type": "bytes32"
        },
        {
          "internalType": "bytes32",
          "name": "onRamperIdHash",
          "type": "bytes32"
        },
        {
          "internalType": "bytes32",
          "name": "intentHash",
          "type": "bytes32"
        }
      ],
      "stateMutability": "nonpayable",
      "type": "function"
    },
    {
      "inputs": [],
      "name": "ramp",
      "outputs": [
        {
          "internalType": "address",
          "name": "",
          "type": "address"
        }
      ],
      "stateMutability": "view",
      "type": "function"
    },
    {
      "inputs": [],
      "name": "renounceOwnership",
      "outputs": [],
      "stateMutability": "nonpayable",
      "type": "function"
    },
    {
      "inputs": [
        {
          "internalType": "string",
          "name": "_emailFromAddress",
          "type": "string"
        }
      ],
      "name": "setEmailFromAddress",
      "outputs": [],
      "stateMutability": "nonpayable",
      "type": "function"
    },
    {
      "inputs": [
        {
          "internalType": "contract IKeyHashAdapterV2",
          "name": "_mailServerKeyHashAdapter",
          "type": "address"
        }
      ],
      "name": "setMailserverKeyHashAdapter",
      "outputs": [],
      "stateMutability": "nonpayable",
      "type": "function"
    },
    {
      "inputs": [
        {
          "internalType": "uint256",
          "name": "_timestampBuffer",
          "type": "uint256"
        }
      ],
      "name": "setTimestampBuffer",
      "outputs": [],
      "stateMutability": "nonpayable",
      "type": "function"
    },
    {
      "inputs": [],
      "name": "timestampBuffer",
      "outputs": [
        {
          "internalType": "uint256",
          "name": "",
          "type": "uint256"
        }
      ],
      "stateMutability": "view",
      "type": "function"
    },
    {
      "inputs": [
        {
          "internalType": "address",
          "name": "newOwner",
          "type": "address"
        }
      ],
      "name": "transferOwnership",
      "outputs": [],
      "stateMutability": "nonpayable",
      "type": "function"
    },
    {
      "inputs": [
        {
          "internalType": "uint256[2]",
          "name": "_pA",
          "type": "uint256[2]"
        },
        {
          "internalType": "uint256[2][2]",
          "name": "_pB",
          "type": "uint256[2][2]"
        },
        {
          "internalType": "uint256[2]",
          "name": "_pC",
          "type": "uint256[2]"
        },
        {
          "internalType": "uint256[12]",
          "name": "_pubSignals",
          "type": "uint256[12]"
        }
      ],
      "name": "verifyProof",
      "outputs": [
        {
          "internalType": "bool",
          "name": "",
          "type": "bool"
        }
      ],
      "stateMutability": "view",
      "type": "function"
    }
  ],
  "transactionHash": "0x1b93e51d968594d5978f696b3cfc15999946b23c55286558d0691d043f64f6da",
  "args": [
    "0x80e5aB2921e23192B2454f6a386Fd7032dad932E",
    "0xbf452ee0B221A4dDdD118772848A360722850ffc",
    "0x3DD68Da97Eaf62Dd5cdD0767AA20b5AF665D0a34",
    "venmo@venmo.com",
    "30"
  ],
  "numDeployments": 2,
  "solcInputHash": "f47db0aba1ef1355cf5a362858260c2b",
  "bytecode": "0x60a06040523480156200001157600080fd5b50604051620022c9380380620022c983398101604081905262000034916200011a565b848484848462000044336200009b565b6001600160a01b03858116608052600180546001600160a01b031990811687841617909155600280549091169185169190911790556003620000878382620002c9565b506004555062000395975050505050505050565b600080546001600160a01b038381166001600160a01b0319831681178455604051919092169283917f8be0079c531659141344cd1fd0a4f28419497f9722a3daafe3b4186f6b6457e09190a35050565b6001600160a01b03811681146200010157600080fd5b50565b634e487b7160e01b600052604160045260246000fd5b600080600080600060a086880312156200013357600080fd5b85516200014081620000eb565b809550506020808701516200015581620000eb565b60408801519095506200016881620000eb565b60608801519094506001600160401b03808211156200018657600080fd5b818901915089601f8301126200019b57600080fd5b815181811115620001b057620001b062000104565b604051601f8201601f19908116603f01168101908382118183101715620001db57620001db62000104565b816040528281528c86848701011115620001f457600080fd5b600093505b82841015620002185784840186015181850187015292850192620001f9565b6000868483010152809750505050505050608086015190509295509295909350565b600181811c908216806200024f57607f821691505b6020821081036200027057634e487b7160e01b600052602260045260246000fd5b50919050565b601f821115620002c457600081815260208120601f850160051c810160208610156200029f5750805b601f850160051c820191505b81811015620002c057828155600101620002ab565b5050505b505050565b81516001600160401b03811115620002e557620002e562000104565b620002fd81620002f684546200023a565b8462000276565b602080601f8311600181146200033557600084156200031c5750858301515b600019600386901b1c1916600185901b178555620002c0565b600085815260208120601f198616915b82811015620003665788860151825594840194600190910190840162000345565b5085821015620003855787850151600019600388901b60f8161c191681555b5050505050600190811b01905550565b608051611f11620003b86000396000818161010a0152610b830152611f116000f3fe608060405234801561001057600080fd5b50600436106101005760003560e01c8063b2a3fda411610097578063d0b71f9911610066578063d0b71f9914610241578063dbac582114610254578063f2fde38b1461025d578063f6c7226b1461027057600080fd5b8063b2a3fda4146101fe578063b870676c14610211578063c0d05fed14610224578063ced1e9781461023957600080fd5b80638cbac0fa116100d35780638cbac0fa1461018c5780638da5cb5b1461019f5780638fe0ab8e146101b0578063a8ef333f146101eb57600080fd5b806315d276e11461010557806319d09152146101495780633d0c9cc41461016c578063715018a614610182575b600080fd5b61012c7f000000000000000000000000000000000000000000000000000000000000000081565b6040516001600160a01b0390911681526020015b60405180910390f35b61015c6101573660046118a2565b610283565b6040519015158152602001610140565b610174600781565b604051908152602001610140565b61018a6102f7565b005b61015c61019a3660046118cc565b61030b565b6000546001600160a01b031661012c565b6101c36101be366004611932565b610b72565b604080519586526020860194909452928401919091526060830152608082015260a001610140565b60015461012c906001600160a01b031681565b61018a61020c3660046118a2565b610e13565b60025461012c906001600160a01b031681565b61022c610e20565b604051610140919061196f565b61022c610eae565b61018a61024f3660046119b7565b610f40565b61017460045481565b61018a61026b3660046119b7565b610f6a565b61018a61027e3660046119f1565b610fe0565b600154604051630ce848a960e11b8152600481018390526000916001600160a01b0316906319d0915290602401602060405180830381865afa1580156102cd573d6000803e3d6000fd5b505050506040513d601f19601f820116820180604052508101906102f19190611aa2565b92915050565b6102ff610ff8565b6103096000611052565b565b6000610aa0565b7f30644e72e131a029b85045b68181585d97816a916871ca8d3c208c16d87cfd478110610343576000805260206000f35b50565b600060405183815284602082015285604082015260408160608360076107d05a03fa915081610379576000805260206000f35b825160408201526020830151606082015260408360808360066107d05a03fa915050806103aa576000805260206000f35b5050505050565b7f0182d4fc0f939f1912ce4c8cef181e3c502bbbbe1ba8755babb7e5c3af2d734c85527f2944b4683ec8b70be366dddf86945e3c3b1d34b3d504eb6649c387fac8a7c36c60208601526000608086018661044e87357f260eb07d3eb99d832e55fa3f1f4b05cfcf80427e26e02abb7415d2ba28d8195b7f0d2bd1d76b7657184ec3c3a0439909a68a1a4d3c832d1392f454c98a9298403d84610346565b61049e60208801357f11ef143a246a3a72d6fda7677609e2b84ca0e598b72e5df839ef881e301796da7f0bacb5ab1dc08f4ae8518e6153caf7990e200a146f72597a2b6ccf0e91b18a8984610346565b6104ed60408801357f092b8fef5bc67b9734050d968c7f9289d8d08956da77239871fd0d1f4e2011af7e642b3df77deb8ce73ba647a30b1ef43952d85418fd4ecc33a5c973fd30ab1084610346565b61053d60608801357f21bb8189b64e32ebe2f01610695f2349f2fb4e01a6a04f219dd1e14373ec90227f0f83472ff21a011f79a807b170bcfaa3f373ce0479ccf882fd663a9bb0e834ec84610346565b61058d60808801357f068021f51f6823a9efe9be7f216512f805f9764e71e046ad5603cb21572c0d307f22f883f75f39cd247a4cd5f599a3e49cabd7842c6544ca25d8b1802ee969473884610346565b6105dd60a08801357f07dced99a1040fb280e8910681f563479c99ee30264ced7daa3c715065a6c0ad7f13877d5b7a693fb419c360430fd345f8ddcdffcc414b2d68b43355785f600d2a84610346565b61062d60c08801357f0f86e0d9fa941e6dba0ee2e8522ee1a4b2c16b55d5e6e61d6d4c925066731e4f7f1604a049b532eb7b479ab94d194134b2b20fad7b923d356b12c8f6013fd416f384610346565b61067d60e08801357f131c1dead755f8f821ac503300e565f720a9ee30bfd5654546beac47806199687f1225284a5cb9cfc0d88712834c57165b04d59d6fc1013302f051f0a223a7ec4b84610346565b6106ce6101008801357f23e89705b334e5f1a510cf866cdfbeaed0d1be98438964e893e4dbba1c3bda1e7f1b6ac8e843540c476c75cfe9f789e564a087e1d1ee2f6c8a90b870ef3178dd1584610346565b61071f6101208801357f1fabd11e7ea9505077394b319dce69b044c5b8e41448f45c0e49509f8c3274557f17d6f05d6a0b6644e605a70468b7f569cd5f173d157132555b2e8f5cd454706784610346565b61076f6101408801357f242b36bd22a7175983c14ab9e91c25ab2fe6467632f26716b7548dc114b953f77e15826e501b505d3a54a26536e2f6a00cf25221c517b6bf69d829a7e84e893f84610346565b6107c06101608801357f0c6da889f98691d3973cb5f68ba738045186f1327c7e9d1edb715f925c0b977b7f0934876403c615f66f720c061d95869e9553ca93f131c18c2d9dc03dbc67a0a184610346565b50823581527f30644e72e131a029b85045b68181585d97816a916871ca8d3c208c16d87cfd4760208401357f30644e72e131a029b85045b68181585d97816a916871ca8d3c208c16d87cfd4703066020820152833560408201526020840135606082015260408401356080820152606084013560a08201527f2d4d9aa7e302d9df41749d5507949d05dbea33fbb16c643b22f599a2be6df2e260c08201527f14bedd503c37ceb061d8ec60209fe345ce89830a19230301f076caff004d192660e08201527f0967032fcbf776d1afc985f88877f182d38480a653f2decaa9794cbc3bf3060c6101008201527f0e187847ad4c798374d0d6732bf501847dd68bc0e071241e0213bc7fc13db7ab6101208201527f304cfbd1e08a704a99f5e847d93f8c3caafddec46b7a0d379da69a4d112346a76101408201527f1739c1b1a457a8c7313123d24d2f9192f896b7c63eea05a9d57f06547ad0cec8610160820152600087015161018082015260206000018701516101a08201527f198e9393920d483a7260bfb731fb5d25f1aa493335a9e71297e485b7aef312c26101c08201527f1800deef121f1e76426a00665e5c4479674322d4f75edadd46debd5cd992f6ed6101e08201527f090689d0585ff075ec9e99ad690c3395bc4b313370b38ef355acdadcd122975b6102008201527f12c85ea5db8c6deb4aab71808dcb408fe3d1e7690c43d37b4ce6cc0166fa7daa610220820152843561024082015260208501356102608201527f28857fdbd6f69280f9a0aff6d111687d604e8ca8715d3b129189624a29a2efb16102808201527f077cd8ba816fe7260bd49a4105586fbbdcb7135774670340655ffc9f3cfc952d6102a08201527f2530c2a9594cbb58671fa3208e4cba4fab89316fde6c3fe54eb26e28f017ae086102c08201527f027bf8ac6045165c3080ced1a885f88e36f83e1ec80aac0580dad6a93ac1424a6102e08201526020816103008360086107d05a03fa9051169695505050505050565b6040516103808101604052610ab86000840135610312565b610ac56020840135610312565b610ad26040840135610312565b610adf6060840135610312565b610aec6080840135610312565b610af960a0840135610312565b610b0660c0840135610312565b610b1360e0840135610312565b610b21610100840135610312565b610b2f610120840135610312565b610b3d610140840135610312565b610b4b610160840135610312565b610b59610180840135610312565b610b66818486888a6103b1565b90508060005260206000f35b600080808080336001600160a01b037f00000000000000000000000000000000000000000000000000000000000000001614610bf55760405162461bcd60e51b815260206004820181905260248201527f4f6e6c792052616d702063616e2063616c6c20746869732066756e6374696f6e60448201526064015b60405180910390fd5b6040805163465d607d60e11b81523091638cbac0fa91610c28918a919082019060c0830190610100840190600401611ac4565b602060405180830381865afa158015610c45573d6000803e3d6000fd5b505050506040513d601f19601f82011682018060405250810190610c699190611aa2565b610ca55760405162461bcd60e51b815260206004820152600d60248201526c24b73b30b634b210283937b7b360991b6044820152606401610bec565b610cb3610100870135610283565b610cff5760405162461bcd60e51b815260206004820152601b60248201527f496e76616c6964206d61696c736572766572206b6579206861736800000000006044820152606401610bec565b6000610d128761010001600160046110a2565b90506003604051610d239190611b5b565b604051809103902081604051602001610d3c9190611bd1565b6040516020818303038152906040528051906020012014610d9f5760405162461bcd60e51b815260206004820152601a60248201527f496e76616c696420656d61696c2066726f6d20616464726573730000000000006044820152606401610bec565b610dbb6006610db58961010001600460066110a2565b9061117d565b9550600454610dd66000610db58a61010001600660086110a2565b610de09190611c03565b945061020087013593506102208701359250610e00610240880135611353565b5093959294919350916102609091013590565b610e1b610ff8565b600455565b60038054610e2d90611b27565b80601f0160208091040260200160405190810160405280929190818152602001828054610e5990611b27565b8015610ea65780601f10610e7b57610100808354040283529160200191610ea6565b820191906000526020600020905b815481529060010190602001808311610e8957829003601f168201915b505050505081565b606060038054610ebd90611b27565b80601f0160208091040260200160405190810160405280929190818152602001828054610ee990611b27565b8015610f365780601f10610f0b57610100808354040283529160200191610f36565b820191906000526020600020905b815481529060010190602001808311610f1957829003601f168201915b5050505050905090565b610f48610ff8565b600180546001600160a01b0319166001600160a01b0392909216919091179055565b610f72610ff8565b6001600160a01b038116610fd75760405162461bcd60e51b815260206004820152602660248201527f4f776e61626c653a206e6577206f776e657220697320746865207a65726f206160448201526564647265737360d01b6064820152608401610bec565b61034381611052565b610fe8610ff8565b6003610ff48282611c65565b5050565b6000546001600160a01b031633146103095760405162461bcd60e51b815260206004820181905260248201527f4f776e61626c653a2063616c6c6572206973206e6f7420746865206f776e65726044820152606401610bec565b600080546001600160a01b038381166001600160a01b0319831681178455604051919092169283917f8be0079c531659141344cd1fd0a4f28419497f9722a3daafe3b4186f6b6457e09190a35050565b606060006110b08484611d25565b60ff1667ffffffffffffffff8111156110cb576110cb6119db565b6040519080825280602002602001820160405280156110f4578160200160208202803683370190505b50905060ff84165b8360ff16811015611159578581600c811061111957611119611b11565b60200201358261112c60ff881684611d3e565b8151811061113c5761113c611b11565b60209081029190910101528061115181611d51565b9150506110fc565b506111746007825161116b9190611d6a565b82906007611467565b95945050505050565b600082818080805b84518110156112cd57603060f81b8582815181106111a5576111a5611b11565b01602001516001600160f81b031916108015906111e65750603960f81b8582815181106111d4576111d4611b11565b01602001516001600160f81b03191611155b156112295760308582815181106111ff576111ff611b11565b0160200151611211919060f81c611d3e565b61121c85600a611d6a565b6112269190611c03565b93505b811561123d578261123981611d51565b9350505b84818151811061124f5761124f611b11565b01602001516001600160f81b031916601760f91b036112bb5781156112b65760405162461bcd60e51b815260206004820152601c60248201527f537472696e6720686173206d756c7469706c6520646563696d616c73000000006044820152606401610bec565b600191505b806112c581611d51565b915050611185565b50858211156113295760405162461bcd60e51b815260206004820152602260248201527f537472696e672068617320746f6f206d616e7920646563696d616c20706c6163604482015261657360f01b6064820152608401610bec565b6113338287611d3e565b61133e90600a611e65565b6113489084611d6a565b979650505050505050565b60025460405163169394bb60e01b8152600481018390526001600160a01b039091169063169394bb90602401602060405180830381865afa15801561139c573d6000803e3d6000fd5b505050506040513d601f19601f820116820180604052508101906113c09190611aa2565b1561140d5760405162461bcd60e51b815260206004820152601f60248201527f4e756c6c69666965722068617320616c7265616479206265656e2075736564006044820152606401610bec565b600254604051632dea6f9960e11b8152600481018390526001600160a01b0390911690635bd4df3290602401600060405180830381600087803b15801561145357600080fd5b505af11580156103aa573d6000803e3d6000fd5b60606000808386516114799190611d6a565b67ffffffffffffffff811115611491576114916119db565b6040519080825280601f01601f1916602001820160405280156114bb576020820181803683370190505b5090506000805b87518161ffff161015611672576000888261ffff16815181106114e7576114e7611b11565b6020026020010151905060008767ffffffffffffffff81111561150c5761150c6119db565b604051908082528060200260200182016040528015611535578160200160208202803683370190505b50905060005b888110156115875761154e816008611d6a565b83901c82828151811061156357611563611b11565b60ff909216602092830291909101909101528061157f81611d51565b91505061153b565b5060005b8881101561165c5760008282815181106115a7576115a7611b11565b602002602001015160ff1690508060001461161f578060f81b8787815181106115d2576115d2611b11565b60200101906001600160f81b031916908160001a905350856115f381611d51565b96506116029050600289611e71565b60ff1660000361161a57611617600189611ea1565b97505b611642565b61162a600289611e71565b60ff166001036116425761163f600189611ea1565b97505b5060089290921c918061165481611d51565b91505061158b565b505050808061166a90611eba565b9150506114c2565b5060018360ff1610156117135760405162461bcd60e51b815260206004820152605760248201527f4e6f207061636b656420627974657320666f756e642120496e76616c6964206660448201527f696e616c207374617465206f66207061636b656420627974657320696e20656d60648201527f61696c3b2076616c7565206973206c696b656c79203021000000000000000000608482015260a401610bec565b858111156117815760405162461bcd60e51b815260206004820152603560248201527f5061636b6564206279746573206d6f7265207468616e20616c6c6f776564206d6044820152746178206e756d626572206f66207369676e616c732160581b6064820152608401610bec565b600061178c83611798565b98975050505050505050565b8051606090829060005b82518110156117ed578281815181106117bd576117bd611b11565b01602001516001600160f81b0319166000036117db578091506117ed565b806117e581611d51565b9150506117a2565b5060008167ffffffffffffffff811115611809576118096119db565b6040519080825280601f01601f191660200182016040528015611833576020820181803683370190505b50905060005b828110156118995783818151811061185357611853611b11565b602001015160f81c60f81b82828151811061187057611870611b11565b60200101906001600160f81b031916908160001a9053508061189181611d51565b915050611839565b50949350505050565b6000602082840312156118b457600080fd5b5035919050565b80604081018310156102f157600080fd5b6000806000806102808086880312156118e457600080fd5b6118ee87876118bb565b945060c086018781111561190157600080fd5b60408701945061191188826118bb565b93505086818701111561192357600080fd5b50929591945092610100019150565b6000610280828403121561194557600080fd5b50919050565b60005b8381101561196657818101518382015260200161194e565b50506000910152565b602081526000825180602084015261198e81604085016020870161194b565b601f01601f19169190910160400192915050565b6001600160a01b038116811461034357600080fd5b6000602082840312156119c957600080fd5b81356119d4816119a2565b9392505050565b634e487b7160e01b600052604160045260246000fd5b600060208284031215611a0357600080fd5b813567ffffffffffffffff80821115611a1b57600080fd5b818401915084601f830112611a2f57600080fd5b813581811115611a4157611a416119db565b604051601f8201601f19908116603f01168101908382118183101715611a6957611a696119db565b81604052828152876020848701011115611a8257600080fd5b826020860160208301376000928101602001929092525095945050505050565b600060208284031215611ab457600080fd5b815180151581146119d457600080fd5b61028081016040808784378083018660005b6002811015611af357838284379183019190830190600101611ad6565b505050808560c0850137506101808361010084013795945050505050565b634e487b7160e01b600052603260045260246000fd5b600181811c90821680611b3b57607f821691505b60208210810361194557634e487b7160e01b600052602260045260246000fd5b6000808354611b6981611b27565b60018281168015611b815760018114611b9657611bc5565b60ff1984168752821515830287019450611bc5565b8760005260208060002060005b85811015611bbc5781548a820152908401908201611ba3565b50505082870194505b50929695505050505050565b60008251611be381846020870161194b565b9190910192915050565b634e487b7160e01b600052601160045260246000fd5b808201808211156102f1576102f1611bed565b601f821115611c6057600081815260208120601f850160051c81016020861015611c3d5750805b601f850160051c820191505b81811015611c5c57828155600101611c49565b5050505b505050565b815167ffffffffffffffff811115611c7f57611c7f6119db565b611c9381611c8d8454611b27565b84611c16565b602080601f831160018114611cc85760008415611cb05750858301515b600019600386901b1c1916600185901b178555611c5c565b600085815260208120601f198616915b82811015611cf757888601518255948401946001909101908401611cd8565b5085821015611d155787850151600019600388901b60f8161c191681555b5050505050600190811b01905550565b60ff82811682821603908111156102f1576102f1611bed565b818103818111156102f1576102f1611bed565b600060018201611d6357611d63611bed565b5060010190565b80820281158282048414176102f1576102f1611bed565b600181815b80851115611dbc578160001904821115611da257611da2611bed565b80851615611daf57918102915b93841c9390800290611d86565b509250929050565b600082611dd3575060016102f1565b81611de0575060006102f1565b8160018114611df65760028114611e0057611e1c565b60019150506102f1565b60ff841115611e1157611e11611bed565b50506001821b6102f1565b5060208310610133831016604e8410600b8410161715611e3f575081810a6102f1565b611e498383611d81565b8060001904821115611e5d57611e5d611bed565b029392505050565b60006119d48383611dc4565b600060ff831680611e9257634e487b7160e01b600052601260045260246000fd5b8060ff84160691505092915050565b60ff81811683821601908111156102f1576102f1611bed565b600061ffff808316818103611ed157611ed1611bed565b600101939250505056fea2646970667358221220f566f3c59bb9f6a6dc29825daf532de86ba70f707686bfe1e901174ed37cbdab64736f6c63430008120033",
  "devdoc": {
    "kind": "dev",
    "methods": {
      "owner()": {
        "details": "Returns the address of the current owner."
      },
      "renounceOwnership()": {
        "details": "Leaves the contract without owner. It will not be possible to call `onlyOwner` functions. Can only be called by the current owner. NOTE: Renouncing ownership will leave the contract without an owner, thereby disabling any functionality that is only available to the owner."
      },
      "setEmailFromAddress(string)": {
        "params": {
          "_emailFromAddress": "The from email address for validated emails, MUST BE PROPERLY PADDED"
        }
      },
      "setTimestampBuffer(uint256)": {
        "params": {
          "_timestampBuffer": "The timestamp buffer for validated emails"
        }
      },
      "transferOwnership(address)": {
        "details": "Transfers ownership of the contract to a new account (`newOwner`). Can only be called by the current owner."
      }
    },
    "version": 1
  },
  "userdoc": {
    "kind": "user",
    "methods": {
      "setEmailFromAddress(string)": {
        "notice": "ONLY OWNER: Sets the from email address for validated emails. Check that email address is properly padded (if necessary). Padding will be dependent on if unpacking functions cut trailing 0s or not."
      },
      "setTimestampBuffer(uint256)": {
        "notice": "ONLY OWNER: Sets the timestamp buffer for validated emails. This is the amount of time in seconds that the timestamp can be off by and still be considered valid. Necessary to build in flexibility with L2 timestamps."
      }
    },
    "version": 1
  },
  "storageLayout": {
    "storage": [
      {
        "astId": 7,
        "contract": "contracts/ramps/venmo-v2/VenmoSendProcessorV2.sol:VenmoSendProcessorV2",
        "label": "_owner",
        "offset": 0,
        "slot": "0",
        "type": "t_address"
      },
      {
        "astId": 3356,
        "contract": "contracts/ramps/venmo-v2/VenmoSendProcessorV2.sol:VenmoSendProcessorV2",
        "label": "mailServerKeyHashAdapter",
        "offset": 0,
        "slot": "1",
        "type": "t_contract(IKeyHashAdapterV2)3530"
      },
      {
        "astId": 3359,
        "contract": "contracts/ramps/venmo-v2/VenmoSendProcessorV2.sol:VenmoSendProcessorV2",
        "label": "nullifierRegistry",
        "offset": 0,
        "slot": "2",
        "type": "t_contract(INullifierRegistry)3735"
      },
      {
        "astId": 3361,
        "contract": "contracts/ramps/venmo-v2/VenmoSendProcessorV2.sol:VenmoSendProcessorV2",
        "label": "emailFromAddress",
        "offset": 0,
        "slot": "3",
        "type": "t_bytes_storage"
      },
      {
        "astId": 3363,
        "contract": "contracts/ramps/venmo-v2/VenmoSendProcessorV2.sol:VenmoSendProcessorV2",
        "label": "timestampBuffer",
        "offset": 0,
        "slot": "4",
        "type": "t_uint256"
      }
    ],
    "types": {
      "t_address": {
        "encoding": "inplace",
        "label": "address",
        "numberOfBytes": "20"
      },
      "t_bytes_storage": {
        "encoding": "bytes",
        "label": "bytes",
        "numberOfBytes": "32"
      },
      "t_contract(IKeyHashAdapterV2)3530": {
        "encoding": "inplace",
        "label": "contract IKeyHashAdapterV2",
        "numberOfBytes": "20"
      },
      "t_contract(INullifierRegistry)3735": {
        "encoding": "inplace",
        "label": "contract INullifierRegistry",
        "numberOfBytes": "20"
      },
      "t_uint256": {
        "encoding": "inplace",
        "label": "uint256",
        "numberOfBytes": "32"
      }
    }
  }
}