{
  "address": "0x70A6d00fF8b54E09c442FD82e387b91aEe763b69",
  "abi": [
    {
      "inputs": [
        {
          "internalType": "address",
          "name": "_exchange",
          "type": "address"
        },
        {
          "internalType": "contract INullifierRegistry",
          "name": "_nullifierRegistry",
          "type": "address"
        },
        {
          "internalType": "string",
          "name": "_emailFromAddress",
          "type": "string"
        },
        {
          "internalType": "uint256",
          "name": "_timestampBuffer",
          "type": "uint256"
        }
      ],
      "stateMutability": "nonpayable",
      "type": "constructor"
    },
    {
      "anonymous": false,
      "inputs": [
        {
          "indexed": true,
          "internalType": "address",
          "name": "previousOwner",
          "type": "address"
        },
        {
          "indexed": true,
          "internalType": "address",
          "name": "newOwner",
          "type": "address"
        }
      ],
      "name": "OwnershipTransferred",
      "type": "event"
    },
    {
      "inputs": [],
      "name": "emailFromAddress",
      "outputs": [
        {
          "internalType": "bytes",
          "name": "",
          "type": "bytes"
        }
      ],
      "stateMutability": "view",
      "type": "function"
    },
    {
      "inputs": [],
      "name": "exchange",
      "outputs": [
        {
          "internalType": "address",
          "name": "",
          "type": "address"
        }
      ],
      "stateMutability": "view",
      "type": "function"
    },
    {
      "inputs": [],
      "name": "getEmailFromAddress",
      "outputs": [
        {
          "internalType": "bytes",
          "name": "",
          "type": "bytes"
        }
      ],
      "stateMutability": "view",
      "type": "function"
    },
    {
      "inputs": [],
      "name": "nullifierRegistry",
      "outputs": [
        {
          "internalType": "contract INullifierRegistry",
          "name": "",
          "type": "address"
        }
      ],
      "stateMutability": "view",
      "type": "function"
    },
    {
      "inputs": [],
      "name": "owner",
      "outputs": [
        {
          "internalType": "address",
          "name": "",
          "type": "address"
        }
      ],
      "stateMutability": "view",
      "type": "function"
    },
    {
      "inputs": [
        {
          "components": [
            {
              "internalType": "uint256[2]",
              "name": "a",
              "type": "uint256[2]"
            },
            {
              "internalType": "uint256[2][2]",
              "name": "b",
              "type": "uint256[2][2]"
            },
            {
              "internalType": "uint256[2]",
              "name": "c",
              "type": "uint256[2]"
            },
            {
              "internalType": "uint256[10]",
              "name": "signals",
              "type": "uint256[10]"
            }
          ],
          "internalType": "struct ITransferDomainProcessor.TransferProof",
          "name": "_proof",
          "type": "tuple"
        }
      ],
      "name": "processProof",
      "outputs": [
        {
          "internalType": "bytes32",
          "name": "dkimKeyHash",
          "type": "bytes32"
        },
        {
          "internalType": "bytes32",
          "name": "hashedReceiverId",
          "type": "bytes32"
        },
        {
          "internalType": "string",
          "name": "domainName",
          "type": "string"
        },
        {
          "internalType": "uint256",
          "name": "bidId",
          "type": "uint256"
        }
      ],
      "stateMutability": "nonpayable",
      "type": "function"
    },
    {
      "inputs": [],
      "name": "renounceOwnership",
      "outputs": [],
      "stateMutability": "nonpayable",
      "type": "function"
    },
    {
      "inputs": [
        {
          "internalType": "string",
          "name": "_emailFromAddress",
          "type": "string"
        }
      ],
      "name": "setEmailFromAddress",
      "outputs": [],
      "stateMutability": "nonpayable",
      "type": "function"
    },
    {
      "inputs": [
        {
          "internalType": "uint256",
          "name": "_timestampBuffer",
          "type": "uint256"
        }
      ],
      "name": "setTimestampBuffer",
      "outputs": [],
      "stateMutability": "nonpayable",
      "type": "function"
    },
    {
      "inputs": [],
      "name": "timestampBuffer",
      "outputs": [
        {
          "internalType": "uint256",
          "name": "",
          "type": "uint256"
        }
      ],
      "stateMutability": "view",
      "type": "function"
    },
    {
      "inputs": [
        {
          "internalType": "address",
          "name": "newOwner",
          "type": "address"
        }
      ],
      "name": "transferOwnership",
      "outputs": [],
      "stateMutability": "nonpayable",
      "type": "function"
    },
    {
      "inputs": [
        {
          "internalType": "uint256[2]",
          "name": "_pA",
          "type": "uint256[2]"
        },
        {
          "internalType": "uint256[2][2]",
          "name": "_pB",
          "type": "uint256[2][2]"
        },
        {
          "internalType": "uint256[2]",
          "name": "_pC",
          "type": "uint256[2]"
        },
        {
          "internalType": "uint256[10]",
          "name": "_pubSignals",
          "type": "uint256[10]"
        }
      ],
      "name": "verifyProof",
      "outputs": [
        {
          "internalType": "bool",
          "name": "",
          "type": "bool"
        }
      ],
      "stateMutability": "view",
      "type": "function"
    }
  ],
  "transactionHash": "0x27c7eb8fd67d8066ded3f80433621ff0b572e5e883d848f9253cccbe519d4011",
  "args": [
    "0x8079AE92cb53F0Bb57172b7544f18Fcd1DAeF886",
    "0x5a23deed1820be0298beb5B08BA08157Ec05734C",
    "support@namecheap.com",
    "0"
  ],
  "numDeployments": 1,
  "solcInputHash": "d865a6f49eab8c58036d78b72f5cb448",
  "bytecode": "0x60a06040523462000044576200002262000018620001f4565b929190916200021d565b604051611eb66200054c82396080518181816104da01526109460152611eb690f35b600080fd5b634e487b7160e01b600052604160045260246000fd5b90601f01601f191681019081106001600160401b038211176200008157604052565b62000049565b906200009e6200009660405190565b92836200005f565b565b6001600160a01b031690565b90565b6001600160a01b0381165b036200004457565b905051906200009e82620000af565b6001600160a01b038116620000ba565b905051906200009e82620000d1565b6001600160401b0381116200008157602090601f01601f19160190565b60005b838110620001215750506000910152565b818101518382015260200162000110565b909291926200014b6200014582620000f0565b62000087565b9381855260208501908284011162000044576200009e926200010d565b9080601f8301121562000044578151620000ac9260200162000132565b80620000ba565b905051906200009e8262000185565b6080818303126200004457620001b28282620000c2565b92620001c28360208401620000e1565b604083015190936001600160401b0382116200004457620001ea81620000ac93860162000168565b936060016200018c565b6200021762002402803803806200020b8162000087565b9283398101906200019b565b90919293565b906200009e939291620004ab565b906001600160a01b03905b9181191691161790565b620000ac90620000a0906001600160a01b031682565b620000ac9062000240565b620000ac9062000256565b9062000280620000ac620002889262000261565b82546200022b565b9055565b634e487b7160e01b600052602260045260246000fd5b9060016002830492168015620002c5575b6020831014620002bf57565b6200028c565b91607f1691620002b3565b9160001960089290920291821b911b62000236565b620000ac620000ac620000ac9290565b91906200030a620000ac6200028893620002e5565b908354620002d0565b6200009e91600091620002f5565b8181106200032d575050565b806200033d600060019362000313565b0162000321565b9190601f81116200035457505050565b620003686200009e93600052602060002090565b906020601f8401819004830193106200038c575b6020601f90910104019062000321565b90915081906200037c565b90620003a1815190565b906001600160401b0382116200008157620003c982620003c28554620002a2565b8562000344565b602090601f8311600114620004085762000288929160009183620003fc575b5050600019600883021c1916906002021790565b015190503880620003e8565b601f198316916200041e85600052602060002090565b9260005b8181106200045f5750916002939185600196941062000445575b50505002019055565b01516000196008601f8516021c191690553880806200043c565b9193602060018192878701518155019501920162000422565b906200009e9162000397565b906000199062000236565b90620004a3620000ac6200028892620002e5565b825462000484565b6200009e9392620000ac620004dc93620004d493620004c9620004e4565b60805260016200026c565b600262000478565b60036200048f565b6200009e336000546001600160a01b031690620005038160006200026c565b6200053a620005337f8be0079c531659141344cd1fd0a4f28419497f9722a3daafe3b4186f6b6457e09362000261565b9162000261565b916200054560405190565b600090a356fe6080604052600436101561001257600080fd5b60003560e01c806365cd296c146100d2578063715018a6146100cd5780638da5cb5b146100c8578063b2a3fda4146100c3578063b870676c146100be578063c0d05fed146100b9578063ced1e978146100b4578063d2f7265a146100af578063dbac5821146100aa578063f2fde38b146100a5578063f3bb70f6146100a05763f6c7226b036100e6576106bf565b6105f9565b61057b565b610520565b6104c5565b6104aa565b610483565b6102e7565b610265565b610206565b6101dd565b61019d565b90816102409103126100e65790565b600080fd5b90610240828203126100e657610100916100d7565b90565b9052565b60005b83811061011a5750506000910152565b818101518382015260200161010a565b61014b61015460209361015e9361013f815190565b80835293849260200190565b95869101610107565b601f01601f191690565b0190565b94939160609161019b946101896101969361018260808b019460008c0152565b60208a0152565b878203604089015261012a565b940152565b565b346100e6576101ce6101b86101b33660046100eb565b610d21565b906101c594929460405190565b94859485610162565b0390f35b60009103126100e657565b346100e6576101ed3660046101d2565b6101f561072c565b604051005b6001600160a01b031690565b346100e6576102163660046101d2565b6101ce6102216106ea565b604051918291826001600160a01b03909116815260200190565b805b036100e657565b9050359061019b8261023b565b906020828203126100e65761010091610244565b346100e6576101f5610278366004610251565b6115da565b610100916008021c6001600160a01b031690565b90610100915461027d565b61010060006001610291565b610100906101fa906001600160a01b031682565b610100906102a8565b610100906102bc565b610103906102c5565b60208101929161019b91906102ce565b346100e6576102f73660046101d2565b6101ce61030261029c565b604051918291826102d7565b634e487b7160e01b600052600060045260246000fd5b634e487b7160e01b600052602260045260246000fd5b906001600283049216801561035a575b602083101461035557565b610324565b91607f169161034a565b805460009392916103816103778361033a565b8085529360200190565b91600181169081156103d3575060011461039a57505050565b6103ad9192939450600052602060002090565b916000925b8184106103bf5750500190565b8054848401526020909301926001016103b2565b92949550505060ff1916825215156020020190565b9061010091610364565b634e487b7160e01b600052604160045260246000fd5b90601f01601f1916810190811067ffffffffffffffff82111761042a57604052565b6103f2565b9061019b6104499261044060405190565b938480926103e8565b0383610408565b90600010610461576101009061042f565b61030e565b61010060006002610450565b60208082526101009291019061012a565b346100e6576104933660046101d2565b6101ce61049e610466565b60405191829182610472565b346100e6576104ba3660046101d2565b6101ce61049e6115e3565b346100e6576104d53660046101d2565b6101ce7f0000000000000000000000000000000000000000000000000000000000000000610221565b610100916008021c81565b9061010091546104fe565b61010060006003610509565b346100e6576105303660046101d2565b6101ce61053b610514565b6040519182918290815260200190565b6001600160a01b03811661023d565b9050359061019b8261054b565b906020828203126100e6576101009161055a565b346100e6576101f561058e366004610567565b610843565b919060408301116100e657565b919060808301116100e657565b91906101408301116100e657565b610240818303126100e6576105d08282610593565b926101006105e184604085016105a0565b936105ef8160c08601610593565b93610100016105ad565b346100e6576106093660046105bb565b92919091611dc5565b9061019b61061f60405190565b9283610408565b67ffffffffffffffff811161042a57602090601f01601f19160190565b90826000939282370152565b9092919261066461065f82610626565b610612565b938185526020850190828401116100e65761019b92610643565b9080601f830112156100e6578160206101009335910161064f565b906020828203126100e657813567ffffffffffffffff81116100e657610100920161067e565b346100e6576101f56106d2366004610699565b611594565b610100906101fa565b61010090546106d7565b61010060006106e0565b6106fc610788565b61019b61071a565b6101fa6101006101009290565b61010090610704565b61019b6107276000610711565b61087c565b61019b6106f4565b1561073b57565b60405162461bcd60e51b815280610784600482016020808252818101527f4f776e61626c653a2063616c6c6572206973206e6f7420746865206f776e6572604082015260600190565b0390fd5b61019b6107936106ea565b6107ac61079f336101fa565b916001600160a01b031690565b14610734565b61019b906107be610788565b61081e565b156107ca57565b60405162461bcd60e51b815260206004820152602660248201527f4f776e61626c653a206e6577206f776e657220697320746865207a65726f206160448201526564647265737360d01b6064820152608490fd5b61019b906107276108326101fa6000610711565b6001600160a01b03831614156107c3565b61019b906107b2565b906001600160a01b03905b9181191691161790565b90610871610100610878926102c5565b825461084c565b9055565b61088660006106e0565b90610892816000610861565b6108c56108bf7f8be0079c531659141344cd1fd0a4f28419497f9722a3daafe3b4186f6b6457e0936102c5565b916102c5565b916108cf60405190565b600090a3565b156108dc57565b60405162461bcd60e51b8152602060048201526024808201527f4f6e6c792065786368616e67652063616e2063616c6c20746869732066756e636044820152633a34b7b760e11b6064820152608490fd5b61097694939291906109713361096b6001600160a01b037f00000000000000000000000000000000000000000000000000000000000000001661079f565b146108d5565b610b73565b90919293565b80151561023d565b9050519061019b8261097c565b906020828203126100e65761010091610984565b9037565b61019b916040916109a5565b9061015e816040936109a9565b6109d26109ce60029390565b9190565b806000925b8484106109e5575050505050565b610a016109fa6001926109f58690565b6109b5565b9360400190565b930192916109d7565b61019b91610140916109a5565b610a4f61019b94610a4561010094989795610a3b61024086019a60008701906109a9565b60408501906109c2565b60c08301906109a9565b0190610a0a565b6040513d6000823e3d90fd5b15610a6957565b60405162461bcd60e51b815260206004820152600d60248201526c24b73b30b634b210283937b7b360991b6044820152606490fd5b634e487b7160e01b600052603260045260246000fd5b90600a811015610ac5576020020190565b610a9e565b6101006101006101009290565b356101008161023b565b610aee6101006101009290565b60ff1690565b61015e610b0c92602092610b06815190565b94859290565b93849101610107565b61010091610af4565b6101009061042f565b15610b2e57565b60405162461bcd60e51b815260206004820152601a60248201527f496e76616c696420656d61696c2066726f6d20616464726573730000000000006044820152606490fd5b50505050610b80306102c5565b602063f3bb70f6916000840190610bb96040860194610bc461010060c0890198018098610bac60405190565b9889978896879660e01b90565b865260048601610a17565b03915afa8015610d1c57610be091600091610cee575b50610a62565b610c03610bfe610bf9610bf36000610aca565b84610ab4565b610ad7565b610aca565b91600290610c88610c146001610ae1565b92610c826109ce610c73610c32610c2a85610ae1565b80988a610e1c565b610c5a610c3e60405190565b8092610c4e602083019182610b15565b90810382520382610408565b610c6c610c65825190565b9160200190565b2093610b1e565b610c7e610c65825190565b2090565b14610b27565b610100610bf9610cbc610bfe610bf9610cb6610cb0600798610ca98a610ae1565b908b610e1c565b97610aca565b88610ab4565b94610cde610cd9610bfe610bf9610cd36008610aca565b85610ab4565b611639565b610ce86009610aca565b90610ab4565b610d0f915060203d8111610d15575b610d078183610408565b810190610991565b38610bda565b503d610cfd565b610a56565b6109769060006060818061092d565b634e487b7160e01b600052601160045260246000fd5b610d559060ff165b9160ff1690565b90039060ff8211610d6257565b610d30565b6101006101006101009260ff1690565b67ffffffffffffffff811161042a5760208091020190565b90610d9c61065f83610d77565b918252565b369037565b9061019b610dbc610db684610d8f565b93610d77565b601f190160208401610da1565b6000198114610d625760010190565b91908203918211610d6257565b90610dee825190565b811015610ac5576020809102010190565b610100601f610aca565b81810292918115918404141715610d6257565b909290610e39610e34610e2f8686610d46565b610d67565b610da6565b91610e4385610d67565b610e4c85610d67565b811015610e9457610e8d81610e88610e6a610bf9610e4c9588610ab4565b610e85610e7f610e798c610d67565b85610dd8565b89610de5565b52565b610dc9565b9050610e43565b509350506101009150610ea5815190565b90610eb8610eb1610dff565b8093610e09565b906110c9565b90610d9c61065f83610626565b9061019b610dbc610edb84610ebe565b93610626565b610eee6101006101009290565b61ffff1690565b61ffff1661ffff8114610d625760010190565b6101006101006101009261ffff1690565b61010090610f2a6109ce6101009490565b901c90565b634e487b7160e01b600052601260045260246000fd5b610f519060ff16610d4e565b908115610f5c570690565b610f2f565b610f6d9060ff16610d4e565b019060ff8211610d6257565b610f8f610f896101009260ff1690565b60f81b90565b6001600160f81b03191690565b90610fa5825190565b811015610ac5570160200190565b61010090610f2a6109ce6101009460ff1690565b15610fce57565b60405162461bcd60e51b815260206004820152605760248201527f4e6f207061636b656420627974657320666f756e642120496e76616c6964206660448201527f696e616c207374617465206f66207061636b656420627974657320696e20656d60648201527f61696c3b2076616c7565206973206c696b656c79203021000000000000000000608482015260a490fd5b1561106657565b60405162461bcd60e51b815260206004820152603560248201527f5061636b6564206279746573206d6f7265207468616e20616c6c6f776564206d6044820152746178206e756d626572206f66207369676e616c732160581b6064820152608490fd5b926000926110d684610ae1565b6110ef6110ea836110e5895190565b610e09565b610ecb565b946110f981610aca565b9561110382610ee1565b965b6111106101008a5190565b61111989610f08565b10156112e75761113861113461112e8a610f08565b8b610de5565b5190565b98899661114487610da6565b9861114e86610aca565b8881101561119b5780610e888c8f6111969461118861118361118e9361117d6111776008610aca565b85610e09565b90610f19565b610ae1565b92610de5565b9060ff169052565b61114e565b5091909a50989295989793969194976111b388610aca565b955b8a8710156112c6576111d4610e2f6111cd8989610de5565b5160ff1690565b6111dd8a610aca565b811461127957906111f86111f361120a93610ae1565b610f79565b8a1a611204828b610f9c565b53610dc9565b9261121e6112186002610ae1565b8b610f45565b61122a610d4e8b610ae1565b14611255575b61124861124e915b6112426008610ae1565b90610fb3565b96610dc9565b95926111b5565b9861124861127061124e9261126a6001610ae1565b90610f61565b9a915050611230565b50926112886112186002610ae1565b600190611297610d4e83610ae1565b146112aa575b5061124861124e91611238565b6112be61124e929b61126a61124893610ae1565b9a915061129d565b989550935097949598916112da9150610ef5565b9695979197949094611105565b926109ce919598506101009750610100945061131a92509561010061132197611313610d4e6001610ae1565b1015610fc7565b111561105f565b611333565b610f8f610f896101009290565b80519060009261134284610aca565b61134d610100845190565b8110156113ef5761136f6113618285610f9c565b516001600160f81b03191690565b61138961137b87611326565b916001600160f81b03191690565b1461139c5761139790610dc9565b611342565b9250905b6113a983610ecb565b916113b385610aca565b845b8110156113e3576113dc816113d06113616113b59487610f9c565b881a6112048288610f9c565b90506113b3565b50935050610100915090565b50906113a0565b61019b90611402610788565b611589565b9160001960089290920291821b911b610857565b919061142c61010061087893610aca565b908354611407565b61019b9160009161141b565b81811061144b575050565b806114596000600193611434565b01611440565b9190601f811161146e57505050565b61148061019b93600052602060002090565b906020601f8401819004830193106114a2575b6020601f909101040190611440565b9091508190611493565b906114b5815190565b9067ffffffffffffffff821161042a576114d9826114d3855461033a565b8561145f565b602090601f831160011461151457610878929160009183611509575b5050600019600883021c1916906002021790565b0151905038806114f5565b601f1983169161152985600052602060002090565b9260005b8181106115675750916002939185600196941061154e575b50505002019055565b01516000196008601f8516021c19169055388080611545565b9193602060018192878701518155019501920161152d565b9061019b916114ac565b61019b90600261157f565b61019b906113f6565b61019b906115a9610788565b6115cf565b9060001990610857565b906115c861010061087892610aca565b82546115ae565b61019b9060036115b8565b61019b9061159d565b6101006002610b1e565b156115f457565b60405162461bcd60e51b815260206004820152601f60248201527f4e756c6c69666965722068617320616c7265616479206265656e2075736564006044820152606490fd5b611668602061165061164b60016106e0565b6102c5565b63169394bb9061165f60405190565b93849260e01b90565b82526004820185905260249082905afa908115610d1c57611698916116939160009161170b57501590565b6115ed565b6116a561164b60016106e0565b90635bd4df3290823b156100e6576116e2926116d4600080946116c760405190565b9687958694859360e01b90565b835260048301526024820190565b03925af18015610d1c576116f35750565b61019b9060006117038183610408565b8101906101d2565b611723915060203d8111610d1557610d078183610408565b1590565b7f30644e72e131a029b85045b68181585d2833e84879b9709143e1f593f0000001111561175057565b6000805260206000f35b919290926040519384526020840152604083015260408260608160076107d05a03fa156117505760806040928251848201526020830151606082015260066107d05a03fa1561175057565b93909260606020947f30644e72e131a029b85045b68181585d97816a916871ca8d3c208c16d87cfd47866080860198611b4061012060008901977f1ad76ddc6a22025c3aed93a2ecb7959a46cc41d238ec4fa18423c68b65669b8f89527f28a3164ff2e0c9468f0179ac2f0dff75b6ec8dc89312e675ffe12f126abc1ff5858a015261187760008201357f056a18281a43ab963f0c5a58b6e66002c17db2946ccf61b5d6a45ebccfea85f37f240244bfb8c78a8f6285c53b3ec73f814299bb5d1a92ffe50d78549341c53a5a8c61175a565b6118c6858201357f1fa23e6accea51843090b5191a0a7a7be6bfb7ace978534a3c0148fcf067a0017f1b2be4d79798243ced7d220b271ec81cdf295fa20a0cc07790b383bba107818e8c61175a565b61191660408201357f16060acad62ea556a4f729b2e590cc567fc5e7da1a10f455c6f1b1433ae562507f25d377935ec79e99aa9d9e5ae28d9cb6c4ada889612fdd69683e3c8e80a834328c61175a565b611965888201357f28ac858d14a4f2c21d2c922d1435d04ee21d923026f083495095ad80a7e39f717f1c7d011040cfb2aec801eaa384048e03933e7a3fc8769abdee473ff37610fe8c8c61175a565b6119b560808201357f23f193803e0d0f5c2d38baac0b934a3ccf5e6703aa81317e26585c01345500967f123e735950330f217eec135908fb77e047a140443955131bf6c99d7a71c060ee8c61175a565b611a0560a08201357f17c8cca1da2e449f38869f18dadef181eaf21fbd61da70d84319351bfa3713c27f1125af7b1070f92c587c112a2a5d534f78165566d27978f4493fa82b4ac506e98c61175a565b611a5560c08201357f12d7ab490c9dd82226d7eb92187f9965edeb4e0bf8efd86f141998071c4a1e327f1467bfbf69dedff0004714c315ee8976a2b23452ddbc2808ab9da798dec560cf8c61175a565b611aa560e08201357f101fb127cded6f2ebe972c71d467a3eb0082e5093c0fa0b34e4ae35de8e3d3747f2f0a3429b93f9e693fa44aec6203bcd33ec5cfa9937c1a77906f0ade6c5fbe638c61175a565b611af66101008201357f2c7e8687c0484be0586fe253c7ab55258a0421bd6fe80c353b4c4a166574f6ee7f14279246c9032b4cf9597db6e67afb3d2a45699c02c4186618d09eb93d9f59b18c61175a565b01357f1ae9d04c753e792e4b6a4bb10f0c4ac42817580c171130e23093425e4ceb76637f1f7080fc237ec1ce5953ed7c4d0fbcd36bffa16a825e5686151e283ac7f3e29e8961175a565b80358a5201358103068688015280356040880152858101358288015260408101356080880152013560a08601527f2d4d9aa7e302d9df41749d5507949d05dbea33fbb16c643b22f599a2be6df2e260c08601527f14bedd503c37ceb061d8ec60209fe345ce89830a19230301f076caff004d192660e08601527f0967032fcbf776d1afc985f88877f182d38480a653f2decaa9794cbc3bf3060c6101008601527f0e187847ad4c798374d0d6732bf501847dd68bc0e071241e0213bc7fc13db7ab6101208601527f304cfbd1e08a704a99f5e847d93f8c3caafddec46b7a0d379da69a4d112346a76101408601527f1739c1b1a457a8c7313123d24d2f9192f896b7c63eea05a9d57f06547ad0cec8610160860152516101808501528260000101516101a08401527f198e9393920d483a7260bfb731fb5d25f1aa493335a9e71297e485b7aef312c26101c08401527f1800deef121f1e76426a00665e5c4479674322d4f75edadd46debd5cd992f6ed6101e08401527f090689d0585ff075ec9e99ad690c3395bc4b313370b38ef355acdadcd122975b6102008401527f12c85ea5db8c6deb4aab71808dcb408fe3d1e7690c43d37b4ce6cc0166fa7daa610220840152803561024084015201356102608201527f198e9393920d483a7260bfb731fb5d25f1aa493335a9e71297e485b7aef312c26102808201527f1800deef121f1e76426a00665e5c4479674322d4f75edadd46debd5cd992f6ed6102a08201527f090689d0585ff075ec9e99ad690c3395bc4b313370b38ef355acdadcd122975b6102c08201527f12c85ea5db8c6deb4aab71808dcb408fe3d1e7690c43d37b4ce6cc0166fa7daa6102e08201526020816103008160086107d05a03fa90511690565b91611e779391611dd3600090565b50604051936103808501604052611ded6000850135611727565b611dfa6020850135611727565b611e076040850135611727565b611e146060850135611727565b611e216080850135611727565b611e2e60a0850135611727565b611e3b60c0850135611727565b611e4860e0850135611727565b611e56610100850135611727565b611e64610120850135611727565b611e72610140850135611727565b6117a5565b60005260206000f3fea2646970667358221220fd7a7e5f5c2e3f82b4fc3045adcf8f4ebac68b16422547b3377c1acbedc4ea3264736f6c63430008120033",
  "devdoc": {
    "kind": "dev",
    "methods": {
      "owner()": {
        "details": "Returns the address of the current owner."
      },
      "renounceOwnership()": {
        "details": "Leaves the contract without owner. It will not be possible to call `onlyOwner` functions. Can only be called by the current owner. NOTE: Renouncing ownership will leave the contract without an owner, thereby disabling any functionality that is only available to the owner."
      },
      "setEmailFromAddress(string)": {
        "params": {
          "_emailFromAddress": "The from email address for validated emails, MUST BE PROPERLY PADDED"
        }
      },
      "setTimestampBuffer(uint256)": {
        "params": {
          "_timestampBuffer": "The timestamp buffer for validated emails"
        }
      },
      "transferOwnership(address)": {
        "details": "Transfers ownership of the contract to a new account (`newOwner`). Can only be called by the current owner."
      }
    },
    "version": 1
  },
  "userdoc": {
    "kind": "user",
    "methods": {
      "setEmailFromAddress(string)": {
        "notice": "ONLY OWNER: Sets the from email address for validated emails. Check that email address is properly padded (if necessary). Padding will be dependent on if unpacking functions cut trailing 0s or not."
      },
      "setTimestampBuffer(uint256)": {
        "notice": "ONLY OWNER: Sets the timestamp buffer for validated emails. This is the amount of time in seconds that the timestamp can be off by and still be considered valid. Necessary to build in flexibility with L2 timestamps."
      }
    },
    "version": 1
  },
  "storageLayout": {
    "storage": [
      {
        "astId": 7,
        "contract": "contracts/TransferDomainProcessor.sol:TransferDomainProcessor",
        "label": "_owner",
        "offset": 0,
        "slot": "0",
        "type": "t_address"
      },
      {
        "astId": 11214,
        "contract": "contracts/TransferDomainProcessor.sol:TransferDomainProcessor",
        "label": "nullifierRegistry",
        "offset": 0,
        "slot": "1",
        "type": "t_contract(INullifierRegistry)9610"
      },
      {
        "astId": 11216,
        "contract": "contracts/TransferDomainProcessor.sol:TransferDomainProcessor",
        "label": "emailFromAddress",
        "offset": 0,
        "slot": "2",
        "type": "t_bytes_storage"
      },
      {
        "astId": 11218,
        "contract": "contracts/TransferDomainProcessor.sol:TransferDomainProcessor",
        "label": "timestampBuffer",
        "offset": 0,
        "slot": "3",
        "type": "t_uint256"
      }
    ],
    "types": {
      "t_address": {
        "encoding": "inplace",
        "label": "address",
        "numberOfBytes": "20"
      },
      "t_bytes_storage": {
        "encoding": "bytes",
        "label": "bytes",
        "numberOfBytes": "32"
      },
      "t_contract(INullifierRegistry)9610": {
        "encoding": "inplace",
        "label": "contract INullifierRegistry",
        "numberOfBytes": "20"
      },
      "t_uint256": {
        "encoding": "inplace",
        "label": "uint256",
        "numberOfBytes": "32"
      }
    }
  }
}