{
  "address": "0xb941e69B6C1A23A88cf9DA7D243bAE1D2Cb8eb6b",
  "abi": [
    {
      "inputs": [],
      "stateMutability": "nonpayable",
      "type": "constructor"
    },
    {
      "anonymous": false,
      "inputs": [
        {
          "indexed": true,
          "internalType": "bytes32",
          "name": "domainId",
          "type": "bytes32"
        },
        {
          "indexed": true,
          "internalType": "address",
          "name": "exchange",
          "type": "address"
        },
        {
          "indexed": true,
          "internalType": "uint256",
          "name": "listingId",
          "type": "uint256"
        }
      ],
      "name": "DomainListed",
      "type": "event"
    },
    {
      "anonymous": false,
      "inputs": [
        {
          "indexed": true,
          "internalType": "bytes32",
          "name": "domainId",
          "type": "bytes32"
        },
        {
          "indexed": true,
          "internalType": "address",
          "name": "exchange",
          "type": "address"
        }
      ],
      "name": "DomainListingRemoved",
      "type": "event"
    },
    {
      "anonymous": false,
      "inputs": [
        {
          "indexed": true,
          "internalType": "bytes32",
          "name": "domainId",
          "type": "bytes32"
        },
        {
          "indexed": true,
          "internalType": "address",
          "name": "oldOwner",
          "type": "address"
        },
        {
          "indexed": true,
          "internalType": "address",
          "name": "newOwner",
          "type": "address"
        }
      ],
      "name": "DomainTransferred",
      "type": "event"
    },
    {
      "anonymous": false,
      "inputs": [
        {
          "indexed": true,
          "internalType": "bytes32",
          "name": "domainId",
          "type": "bytes32"
        },
        {
          "indexed": true,
          "internalType": "address",
          "name": "owner",
          "type": "address"
        },
        {
          "indexed": false,
          "internalType": "string",
          "name": "domainName",
          "type": "string"
        },
        {
          "indexed": false,
          "internalType": "uint256",
          "name": "expiryTime",
          "type": "uint256"
        }
      ],
      "name": "DomainVerified",
      "type": "event"
    },
    {
      "anonymous": false,
      "inputs": [
        {
          "indexed": true,
          "internalType": "address",
          "name": "exchange",
          "type": "address"
        }
      ],
      "name": "ExchangeAdded",
      "type": "event"
    },
    {
      "anonymous": false,
      "inputs": [
        {
          "indexed": true,
          "internalType": "address",
          "name": "exchange",
          "type": "address"
        }
      ],
      "name": "ExchangeRemoved",
      "type": "event"
    },
    {
      "anonymous": false,
      "inputs": [
        {
          "indexed": true,
          "internalType": "address",
          "name": "previousOwner",
          "type": "address"
        },
        {
          "indexed": true,
          "internalType": "address",
          "name": "newOwner",
          "type": "address"
        }
      ],
      "name": "OwnershipTransferred",
      "type": "event"
    },
    {
      "anonymous": false,
      "inputs": [
        {
          "indexed": true,
          "internalType": "contract IVerifyDomainProcessor",
          "name": "newVerifyDomainProcessor",
          "type": "address"
        }
      ],
      "name": "VerifyDomainProcessorUpdated",
      "type": "event"
    },
    {
      "inputs": [
        {
          "internalType": "address",
          "name": "_exchange",
          "type": "address"
        }
      ],
      "name": "addExchange",
      "outputs": [],
      "stateMutability": "nonpayable",
      "type": "function"
    },
    {
      "inputs": [
        {
          "internalType": "bytes32",
          "name": "",
          "type": "bytes32"
        }
      ],
      "name": "domains",
      "outputs": [
        {
          "internalType": "address",
          "name": "owner",
          "type": "address"
        },
        {
          "internalType": "string",
          "name": "name",
          "type": "string"
        },
        {
          "internalType": "uint256",
          "name": "expiryTime",
          "type": "uint256"
        },
        {
          "internalType": "address",
          "name": "exchange",
          "type": "address"
        },
        {
          "internalType": "uint256",
          "name": "listingId",
          "type": "uint256"
        }
      ],
      "stateMutability": "view",
      "type": "function"
    },
    {
      "inputs": [
        {
          "internalType": "uint256",
          "name": "",
          "type": "uint256"
        }
      ],
      "name": "exchanges",
      "outputs": [
        {
          "internalType": "address",
          "name": "",
          "type": "address"
        }
      ],
      "stateMutability": "view",
      "type": "function"
    },
    {
      "inputs": [
        {
          "internalType": "bytes32",
          "name": "_domainId",
          "type": "bytes32"
        }
      ],
      "name": "getDomain",
      "outputs": [
        {
          "components": [
            {
              "internalType": "bytes32",
              "name": "domainId",
              "type": "bytes32"
            },
            {
              "components": [
                {
                  "internalType": "address",
                  "name": "owner",
                  "type": "address"
                },
                {
                  "internalType": "string",
                  "name": "name",
                  "type": "string"
                },
                {
                  "internalType": "uint256",
                  "name": "expiryTime",
                  "type": "uint256"
                },
                {
                  "internalType": "address",
                  "name": "exchange",
                  "type": "address"
                },
                {
                  "internalType": "uint256",
                  "name": "listingId",
                  "type": "uint256"
                }
              ],
              "internalType": "struct IVerifiedDomainRegistry.Domain",
              "name": "domain",
              "type": "tuple"
            }
          ],
          "internalType": "struct IVerifiedDomainRegistry.DomainWithId",
          "name": "domainInfo",
          "type": "tuple"
        }
      ],
      "stateMutability": "view",
      "type": "function"
    },
    {
      "inputs": [
        {
          "internalType": "string",
          "name": "_domainName",
          "type": "string"
        }
      ],
      "name": "getDomainId",
      "outputs": [
        {
          "internalType": "bytes32",
          "name": "",
          "type": "bytes32"
        }
      ],
      "stateMutability": "pure",
      "type": "function"
    },
    {
      "inputs": [
        {
          "internalType": "bytes32",
          "name": "_domainId",
          "type": "bytes32"
        }
      ],
      "name": "getDomainOwner",
      "outputs": [
        {
          "internalType": "address",
          "name": "",
          "type": "address"
        }
      ],
      "stateMutability": "view",
      "type": "function"
    },
    {
      "inputs": [
        {
          "internalType": "bytes32[]",
          "name": "_domains",
          "type": "bytes32[]"
        }
      ],
      "name": "getDomains",
      "outputs": [
        {
          "components": [
            {
              "internalType": "bytes32",
              "name": "domainId",
              "type": "bytes32"
            },
            {
              "components": [
                {
                  "internalType": "address",
                  "name": "owner",
                  "type": "address"
                },
                {
                  "internalType": "string",
                  "name": "name",
                  "type": "string"
                },
                {
                  "internalType": "uint256",
                  "name": "expiryTime",
                  "type": "uint256"
                },
                {
                  "internalType": "address",
                  "name": "exchange",
                  "type": "address"
                },
                {
                  "internalType": "uint256",
                  "name": "listingId",
                  "type": "uint256"
                }
              ],
              "internalType": "struct IVerifiedDomainRegistry.Domain",
              "name": "domain",
              "type": "tuple"
            }
          ],
          "internalType": "struct IVerifiedDomainRegistry.DomainWithId[]",
          "name": "domainInfo",
          "type": "tuple[]"
        }
      ],
      "stateMutability": "view",
      "type": "function"
    },
    {
      "inputs": [],
      "name": "getExchanges",
      "outputs": [
        {
          "internalType": "address[]",
          "name": "",
          "type": "address[]"
        }
      ],
      "stateMutability": "view",
      "type": "function"
    },
    {
      "inputs": [
        {
          "internalType": "address",
          "name": "_user",
          "type": "address"
        }
      ],
      "name": "getUserDomains",
      "outputs": [
        {
          "components": [
            {
              "internalType": "bytes32",
              "name": "domainId",
              "type": "bytes32"
            },
            {
              "components": [
                {
                  "internalType": "address",
                  "name": "owner",
                  "type": "address"
                },
                {
                  "internalType": "string",
                  "name": "name",
                  "type": "string"
                },
                {
                  "internalType": "uint256",
                  "name": "expiryTime",
                  "type": "uint256"
                },
                {
                  "internalType": "address",
                  "name": "exchange",
                  "type": "address"
                },
                {
                  "internalType": "uint256",
                  "name": "listingId",
                  "type": "uint256"
                }
              ],
              "internalType": "struct IVerifiedDomainRegistry.Domain",
              "name": "domain",
              "type": "tuple"
            }
          ],
          "internalType": "struct IVerifiedDomainRegistry.DomainWithId[]",
          "name": "domainInfo",
          "type": "tuple[]"
        }
      ],
      "stateMutability": "view",
      "type": "function"
    },
    {
      "inputs": [
        {
          "internalType": "contract IVerifyDomainProcessor",
          "name": "_verifyDomainProcessor",
          "type": "address"
        }
      ],
      "name": "initialize",
      "outputs": [],
      "stateMutability": "nonpayable",
      "type": "function"
    },
    {
      "inputs": [
        {
          "internalType": "address",
          "name": "",
          "type": "address"
        }
      ],
      "name": "isExchange",
      "outputs": [
        {
          "internalType": "bool",
          "name": "",
          "type": "bool"
        }
      ],
      "stateMutability": "view",
      "type": "function"
    },
    {
      "inputs": [],
      "name": "isInitialized",
      "outputs": [
        {
          "internalType": "bool",
          "name": "",
          "type": "bool"
        }
      ],
      "stateMutability": "view",
      "type": "function"
    },
    {
      "inputs": [],
      "name": "owner",
      "outputs": [
        {
          "internalType": "address",
          "name": "",
          "type": "address"
        }
      ],
      "stateMutability": "view",
      "type": "function"
    },
    {
      "inputs": [
        {
          "internalType": "bytes32",
          "name": "_domainId",
          "type": "bytes32"
        }
      ],
      "name": "removeDomainListing",
      "outputs": [],
      "stateMutability": "nonpayable",
      "type": "function"
    },
    {
      "inputs": [
        {
          "internalType": "address",
          "name": "_exchange",
          "type": "address"
        }
      ],
      "name": "removeExchange",
      "outputs": [],
      "stateMutability": "nonpayable",
      "type": "function"
    },
    {
      "inputs": [],
      "name": "renounceOwnership",
      "outputs": [],
      "stateMutability": "nonpayable",
      "type": "function"
    },
    {
      "inputs": [
        {
          "internalType": "bytes32",
          "name": "_domainId",
          "type": "bytes32"
        },
        {
          "internalType": "uint256",
          "name": "_listingId",
          "type": "uint256"
        }
      ],
      "name": "setDomainListing",
      "outputs": [],
      "stateMutability": "nonpayable",
      "type": "function"
    },
    {
      "inputs": [
        {
          "internalType": "address",
          "name": "newOwner",
          "type": "address"
        }
      ],
      "name": "transferOwnership",
      "outputs": [],
      "stateMutability": "nonpayable",
      "type": "function"
    },
    {
      "inputs": [
        {
          "internalType": "bytes32",
          "name": "_domainId",
          "type": "bytes32"
        },
        {
          "internalType": "address",
          "name": "_newOwner",
          "type": "address"
        }
      ],
      "name": "updateDomainOnSale",
      "outputs": [],
      "stateMutability": "nonpayable",
      "type": "function"
    },
    {
      "inputs": [
        {
          "internalType": "contract IVerifyDomainProcessor",
          "name": "_verifyDomainProcessor",
          "type": "address"
        }
      ],
      "name": "updateVerifyDomainProcessor",
      "outputs": [],
      "stateMutability": "nonpayable",
      "type": "function"
    },
    {
      "inputs": [
        {
          "internalType": "address",
          "name": "",
          "type": "address"
        },
        {
          "internalType": "uint256",
          "name": "",
          "type": "uint256"
        }
      ],
      "name": "userDomains",
      "outputs": [
        {
          "internalType": "bytes32",
          "name": "",
          "type": "bytes32"
        }
      ],
      "stateMutability": "view",
      "type": "function"
    },
    {
      "inputs": [],
      "name": "verifyDomainProcessor",
      "outputs": [
        {
          "internalType": "contract IVerifyDomainProcessor",
          "name": "",
          "type": "address"
        }
      ],
      "stateMutability": "view",
      "type": "function"
    },
    {
      "inputs": [
        {
          "components": [
            {
              "components": [
                {
                  "internalType": "string",
                  "name": "provider",
                  "type": "string"
                },
                {
                  "internalType": "string",
                  "name": "parameters",
                  "type": "string"
                },
                {
                  "internalType": "string",
                  "name": "context",
                  "type": "string"
                }
              ],
              "internalType": "struct Claims.ClaimInfo",
              "name": "claimInfo",
              "type": "tuple"
            },
            {
              "components": [
                {
                  "components": [
                    {
                      "internalType": "bytes32",
                      "name": "identifier",
                      "type": "bytes32"
                    },
                    {
                      "internalType": "address",
                      "name": "owner",
                      "type": "address"
                    },
                    {
                      "internalType": "uint32",
                      "name": "timestampS",
                      "type": "uint32"
                    },
                    {
                      "internalType": "uint32",
                      "name": "epoch",
                      "type": "uint32"
                    }
                  ],
                  "internalType": "struct Claims.CompleteClaimData",
                  "name": "claim",
                  "type": "tuple"
                },
                {
                  "internalType": "bytes[]",
                  "name": "signatures",
                  "type": "bytes[]"
                }
              ],
              "internalType": "struct Claims.SignedClaim",
              "name": "signedClaim",
              "type": "tuple"
            }
          ],
          "internalType": "struct IProxyBaseProcessor.Proof[]",
          "name": "_proofs",
          "type": "tuple[]"
        }
      ],
      "name": "verifyDomains",
      "outputs": [],
      "stateMutability": "nonpayable",
      "type": "function"
    }
  ],
  "transactionHash": "0xde4a0a205656019da670947f35e1b25ce66bbdad5514f202f64e4849d344812a",
  "args": [],
  "numDeployments": 1,
  "solcInputHash": "d865a6f49eab8c58036d78b72f5cb448",
  "bytecode": "0x6080604052346200002657620000146200002b565b6040516129b06200012682396129b090f35b600080fd5b6200003562000037565b565b6200003533620000c3565b62000054905b6001600160a01b031690565b90565b62000054905462000042565b620000549062000048906001600160a01b031682565b620000549062000063565b620000549062000079565b90620000a362000054620000bf9262000084565b82546001600160a01b0319166001600160a01b03919091161790565b9055565b620000cf600062000057565b90620000dd8160006200008f565b620001146200010d7f8be0079c531659141344cd1fd0a4f28419497f9722a3daafe3b4186f6b6457e09362000084565b9162000084565b916200011f60405190565b600090a356fe6080604052600436101561001257600080fd5b60003560e01c806236d2d3146101815780630183196b1461017c57806311d4c3a2146101775780631a242547146101725780631e2e3a6b1461016d57806327d335a8146101685780632839fc29146101635780632b8a80021461015e578063392e53cd146101595780635e8441d3146101545780636e74da681461014f578063715018a61461014a5780637f200269146101455780638da5cb5b146101405780638e0be3691461013b5780639f4cb8f0146101365780639f6eb88c14610131578063a9c56e911461012c578063aa10ce2214610127578063b3533dfe14610122578063c4d66de81461011d578063c722f177146101185763f2fde38b036101a757610e91565b610e60565b610c98565b610c71565b610c34565b610c1c565b610951565b610891565b610817565b6107f2565b6107da565b610792565b61077a565b61074f565b61064d565b610628565b6105ea565b61054c565b610502565b610460565b61041a565b6103cc565b610242565b6001600160a01b031690565b90565b6001600160a01b0381165b036101a757565b600080fd5b905035906101b982610195565b565b906020828203126101a757610192916101ac565b61019290610186906001600160a01b031682565b610192906101cf565b610192906101e3565b906101ff906101ec565b600052602052604060002090565b610192916008021c5b60ff1690565b90610192915461020d565b610192906102396003916000926101f5565b61021c565b9052565b346101a75761026f61025d6102583660046101bb565b610227565b60405191829182901515815260200190565b0390f35b60005b8381106102865750506000910152565b8181015183820152602001610276565b6102b76102c06020936102ca936102ab815190565b80835293849260200190565b95869101610273565b601f01601f191690565b0190565b80516001600160a01b0316825290610192906080806102fc60a0840160208701518582036020870152610296565b9461030c60408201516040860152565b6060818101516001600160a01b0316908501520151910152565b80518252610192916040810191602001519060208184039101526102ce565b9061019291610326565b9061036561035b835190565b8083529160200190565b90816103776020830284019460200190565b926000915b83831061038b57505050505090565b909192939460206103ae6103a783856001950387528951610345565b9760200190565b930193019193929061037c565b60208082526101929291019061034f565b346101a75761026f6103e76103e23660046101bb565b612456565b604051918291826103bb565b806101a0565b905035906101b9826103f3565b906020828203126101a757610192916103f9565b346101a75761026f610435610430366004610406565b612258565b604051918291826001600160a01b03909116815260200190565b602080825261019292910190610326565b346101a75761026f61047b610476366004610406565b612507565b6040519182918261044f565b60009103126101a757565b906104b26104ab6104a1845190565b8084529260200190565b9260200190565b9060005b8181106104c35750505090565b9091926104e96104e260019286516001600160a01b0316815260200190565b9460200190565b9291016104b6565b602080825261019292910190610492565b346101a757610512366004610487565b61026f61051d6125f6565b604051918291826104f1565b91906040838203126101a7576101929061054381856103f9565b936020016103f9565b346101a75761056561055f366004610529565b90611cac565b604051005b634e487b7160e01b600052603260045260246000fd5b80548210156105a35761059a600191600052602060002090565b91020190600090565b61056a565b610192916008021c610186565b9061019291546105a8565b600260006105cc825490565b8310156105e75750610192916105e191610580565b906105b5565b80fd5b346101a75761026f610435610600366004610406565b6105c0565b91906040838203126101a7576101929061061f81856103f9565b936020016101ac565b346101a75761056561063b366004610605565b90611e7e565b6101926000600461021c565b346101a75761065d366004610487565b61026f61025d610641565b634e487b7160e01b600052604160045260246000fd5b90601f01601f191681019081106001600160401b0382111761069f57604052565b610668565b906101b96106b160405190565b928361067e565b6001600160401b03811161069f57602090601f01601f19160190565b90826000939282370152565b909291926106f56106f0826106b8565b6106a4565b938185526020850190828401116101a7576101b9926106d4565b9080601f830112156101a757816020610192933591016106e0565b906020828203126101a75781356001600160401b0381116101a757610192920161070f565b346101a75761026f61076a61076536600461072a565b61221a565b6040519182918290815260200190565b346101a75761056561078d366004610406565b611da6565b346101a7576107a2366004610487565b610565610ee1565b6001600160a01b0381166101a0565b905035906101b9826107aa565b906020828203126101a757610192916107b9565b346101a7576105656107ed3660046107c6565b6121e7565b346101a757610802366004610487565b61026f6104356000546001600160a01b031690565b346101a75761056561082a3660046101bb565b612161565b91906040838203126101a7576101929061054381856101ac565b610192916008021c81565b906101929154610849565b61086d6006916000926101f5565b90610876825490565b8310156105e757506101929161088b91610580565b90610854565b346101a75761026f61076a6108a736600461082f565b9061085f565b6001600160401b03811161069f5760208091020190565b909291926108d46106f0826108ad565b93818552602080860192028301928184116101a757915b8383106108f85750505050565b6020809161090684866103f9565b8152019201916108eb565b9080601f830112156101a757816020610192933591016108c4565b906020828203126101a75781356001600160401b0381116101a7576101929201610911565b346101a75761026f6103e761096736600461092c565b612531565b9190916060818403126101a75761098360606106a4565b9281356001600160401b0381116101a757816109a091840161070f565b845260208201356001600160401b0381116101a757816109c191840161070f565b602085015260408201356001600160401b0381116101a7576109e3920161070f565b6040830152565b63ffffffff81166101a0565b905035906101b9826109ea565b9190916080818403126101a757610a5c610a1d60806106a4565b936000610a2a82856103f9565b908601526020610a3c828286016101ac565b908601526040610a4e828286016109f6565b9086015260608093016109f6565b90830152565b929190610a716106f0826108ad565b93818552602080860192028101918383116101a75781905b838210610a97575050505050565b81356001600160401b0381116101a757602091610ab7878493870161070f565b815201910190610a89565b9080601f830112156101a75781602061019293359101610a62565b91909160a0818403126101a757610af460406106a4565b926000610b018284610a03565b9085015260808201356001600160401b0381116101a757610b229201610ac2565b6020830152565b9190916040818403126101a757610b4060406106a4565b9281356001600160401b0381116101a75781610b5d91840161096c565b845260208201356001600160401b0381116101a757610b229201610add565b929190610b8b6106f0826108ad565b93818552602080860192028101918383116101a75781905b838210610bb1575050505050565b81356001600160401b0381116101a757602091610bd18784938701610b29565b815201910190610ba3565b9080601f830112156101a75781602061019293359101610b7c565b906020828203126101a75781356001600160401b0381116101a7576101929201610bdc565b346101a757610565610c2f366004610bf7565b611a96565b346101a757610565610c473660046101bb565b61208f565b610192600060016105b5565b61023e906101ec565b6020810192916101b99190610c58565b346101a757610c81366004610487565b61026f610c8c610c4c565b60405191829182610c61565b346101a757610565610cab3660046107c6565b611f65565b906101ff565b634e487b7160e01b600052602260045260246000fd5b9060016002830492168015610cec575b6020831014610ce757565b610cb6565b91607f1691610cdc565b80546000939291610d13610d0983610ccc565b8085529360200190565b9160018116908115610d655750600114610d2c57505050565b610d3f9192939450600052602060002090565b916000925b818410610d515750500190565b805484840152602090930192600101610d44565b92949550505060ff1916825215156020020190565b9061019291610cf6565b906101b9610d9e92610d9560405190565b93848092610d7a565b038361067e565b6101929081565b6101929054610da5565b610dc1906005610cb0565b80546001600160a01b031691610dd960018301610d84565b91610de660028201610dac565b916101926004610e0060038501546001600160a01b031690565b9301610dac565b906101b994610e4c610e44610e5c936080969a99979a610e3760a088019260008901906001600160a01b03169052565b8682036020880152610296565b986040850152565b6001600160a01b03166060830152565b0152565b346101a75761026f610e7b610e76366004610406565b610db6565b91610e8895939560405190565b95869586610e07565b346101a757610565610ea43660046101bb565b611002565b610eb1610f3d565b6101b9610ecf565b6101866101926101929290565b61019290610eb9565b6101b9610edc6000610ec6565b61103b565b6101b9610ea9565b15610ef057565b60405162461bcd60e51b815280610f39600482016020808252818101527f4f776e61626c653a2063616c6c6572206973206e6f7420746865206f776e6572604082015260600190565b0390fd5b6101b9610f526000546001600160a01b031690565b610f6b610f5e33610186565b916001600160a01b031690565b14610ee9565b6101b990610f7d610f3d565b610fdd565b15610f8957565b60405162461bcd60e51b815260206004820152602660248201527f4f776e61626c653a206e6577206f776e657220697320746865207a65726f206160448201526564647265737360d01b6064820152608490fd5b6101b990610edc610ff16101866000610ec6565b6001600160a01b0383161415610f82565b6101b990610f71565b906001600160a01b03905b9181191691161790565b90611030610192611037926101ec565b825461100b565b9055565b6000546001600160a01b031690611053816000611020565b6110866110807f8be0079c531659141344cd1fd0a4f28419497f9722a3daafe3b4186f6b6457e0936101ec565b916101ec565b9161109060405190565b600090a3565b61019290610216565b6101929054611096565b156110b057565b60405162461bcd60e51b815260206004820152601c60248201527f436f6e7472616374206d75737420626520696e697469616c697a6564000000006044820152606490fd5b6101b99061110b611106600461109f565b6110a9565b6116e2565b909291926111206106f0826106b8565b938185526020850190828401116101a7576101b992610273565b9080601f830112156101a757815161019292602001611110565b905051906101b9826103f3565b9190916040818403126101a75761117860406106a4565b815190936001600160401b0382116101a75761119981610a5c93850161113a565b85526020928301611154565b9291906111b46106f0826108ad565b93818552602080860192028101918383116101a75781905b8382106111da575050505050565b81516001600160401b0381116101a7576020916111fa8784938701611161565b8152019101906111cc565b9080601f830112156101a7578151610192926020016111a5565b906020828203126101a75781516001600160401b0381116101a7576101929201611205565b8051606080845261019293916040916112759161126391850190610296565b60208501518482036020860152610296565b920151906040818403910152610296565b805182526020808201516001600160a01b0316908301526101b99190606090819060408181015163ffffffff1690850152015163ffffffff16910152565b9061019291610296565b906112da61035b835190565b90816112ec6020830284019460200190565b926000915b83831061130057505050505090565b9091929394602061131c6103a7838560019503875289516112c4565b93019301919392906112f1565b61019291602060a082019261134660008201516000850190611286565b01519060808184039101526112ce565b8051604080845261019293916020916113729190840190611244565b920151906020818403910152611329565b9061019291611356565b9061139961035b835190565b90816113ab6020830284019460200190565b926000915b8383106113bf57505050505090565b909192939460206113db6103a783856001950387528951611383565b93019301919392906113b0565b60208082526101929291019061138d565b6040513d6000823e3d90fd5b6101926101926101929290565b634e487b7160e01b600052601160045260246000fd5b60001981146114375760010190565b611412565b90611445825190565b8110156105a3576020809102010190565b9060001990611016565b9061147061019261103792611405565b8254611456565b9160001960089290920291821b911b611016565b919061149a6101926110379390565b908354611477565b90815491600160401b83101561069f57826114c59160016101b995018155610580565b9061148b565b61019260a06106a4565b919061149a61019261103793611405565b6101b9916000916114d5565b8181106114fd575050565b8061150b60006001936114e6565b016114f2565b9190601f811161152057505050565b6115326101b993600052602060002090565b906020601f840181900483019310611554575b6020601f9091010401906114f2565b9091508190611545565b90611567815190565b906001600160401b03821161069f5761158a826115848554610ccc565b85611511565b602090601f83116001146115c5576110379291600091836115ba575b5050600019600883021c1916906002021790565b0151905038806115a6565b601f198316916115da85600052602060002090565b9260005b818110611618575091600293918560019694106115ff575b50505002019055565b01516000196008601f8516021c191690553880806115f6565b919360206001819287870151815501950192016115de565b906101b99161155e565b6101b9919061168e906080906004906116648161165e87516001600160a01b031690565b90611020565b61167c60018201611676602088015190565b90611630565b6116946002820161168e604088015190565b90611460565b6116af6003820161165e60608801516001600160a01b031690565b0192015190565b906101b99161163a565b929160206116dd6101b99360408701908782036000890152610296565b940152565b600061172c916117026116fd6001546001600160a01b031690565b6101ec565b61172183637de24fcf61171460405190565b9687958694859360e01b90565b8352600483016113e8565b03925af1908115611a5057600091611a75575b5061174a6000611405565b611755610192835190565b811015611a7157611766818361143c565b5190611775600083015161221a565b916005926117866101928286610cb0565b9361179885546001600160a01b031690565b946117a36000610ec6565b956117b66001600160a01b038816610f5e565b036118b657506118b19461184b83611850936118326006946117e5846117e061019233809a6101f5565b6114a2565b88516118229061181b6117f960208d015190565b916118146118056114cb565b6001600160a01b03909b168b52565b60208a0152565b6040880152565b6001600160a01b03166060860152565b61184661183f6000611405565b6080860152565b610cb0565b6116b6565b33906118626020600085015194015190565b61189361188d7f04c47544b62d97fc6d744e7cc21ed4a24af06a46427efcfd15a0db261dbb27d69390565b936101ec565b936118a96118a060405190565b928392836116c0565b0390a3611428565b61174a565b90506118c981546001600160a01b031690565b6118d233610f5e565b14611a55575b80546001600160a01b03166118ec33610f5e565b036118fd575b506118b19350611850565b6119248261191f61019261191885546001600160a01b031690565b60066101f5565b6128ab565b60038101546001600160a01b03166119446001600160a01b038716610f5e565b036119aa575b6119a4906119916118b196611967856117e06101923360066101f5565b6119713384611020565b61198861197f602088015190565b60028501611460565b60038301611020565b600461199d6000611405565b9101611460565b386118f2565b6119c46116fd6116fd60038401546001600160a01b031690565b90631756c30e6119d660048301610dac565b833b156101a757611a0c936119fe600080946119f160405190565b9788958694859360e01b90565b835260048301526024820190565b03925af18015611a50576118b1966119a49361199192611a32575b50965050905061194a565b611a4a906000611a42818361067e565b810190610487565b38611a27565b6113f9565b611a6c611a63602085015190565b60028301611460565b6118d8565b5050565b611a90913d8091833e611a88818361067e565b81019061121f565b3861173f565b6101b9906110f5565b906101b991611ab1611106600461109f565b611b02565b15611abd57565b60405162461bcd60e51b815260206004820152601760248201527f43616c6c6572206d7573742062652065786368616e67650000000000000000006044820152606490fd5b6101b99190611b22611b1d611b183360036101f5565b61109f565b611ab6565b611bd1565b15611b2e57565b60405162461bcd60e51b815260206004820152601760248201527f446f6d61696e206d7573742062652076657269666965640000000000000000006044820152606490fd5b15611b7a57565b60405162461bcd60e51b815260206004820152602960248201527f446f6d61696e20616c7265616479206c6973746564206f6e20616e6f746865726044820152682065786368616e676560b81b6064820152608490fd5b90611be0610192836005610cb0565b611c62826004611bf784546001600160a01b031690565b93611c1f611c056000610ec6565b95611c186001600160a01b038816610f5e565b1415611b27565b611c516003820195611c4b610f5e611c3e89546001600160a01b031690565b926001600160a01b031690565b14611b73565b611c5c338096611020565b01611460565b611c9c611c96611c907f94ec80928933a86cc2847706c09c43fa58866b537c8fce8eef172af4036af5209590565b926101ec565b92611405565b92611ca660405190565b600090a4565b906101b991611a9f565b6101b990611cc7611106600461109f565b6101b990611cdc611b1d611b183360036101f5565b611d3b565b15611ce857565b60405162461bcd60e51b815260206004820152602560248201527f446f6d61696e206e6f74206c6973746564206f6e2063616c6c696e672065786360448201526468616e676560d81b6064820152608490fd5b611d49610192826005610cb0565b611d7b611d6060038301546001600160a01b031690565b339290611d7690611d7085610f5e565b14611ce1565b61260c565b6110866110807ff27bc8e4c954bf9eead2d99629d460313da75ee401666af4d3cb1eb821ddb1f69390565b6101b990611cb6565b906101b991611dc1611106600461109f565b6101b99190611dd7611b1d611b183360036101f5565b906000611de8610192846005610cb0565b611e08611dff60038301546001600160a01b031690565b611d7033610f5e565b611e118161260c565b01611e2d82611e2783546001600160a01b031690565b92611020565b611e50836117e0610192856006611e4b8561191f6101928a856101f5565b6101f5565b611c9c611c90611c907f3275c4afb1638bd20394301d401c788e5091157ddca135fd84970904da6541af9590565b906101b991611daf565b6101b990611e94610f3d565b611efb565b15611ea057565b60405162461bcd60e51b8152602060048201526013602482015272105b1c9958591e481a5b9a5d1a585b1a5e9959606a1b6044820152606490fd5b9060ff90611016565b90611ef461019261103792151590565b8254611edb565b611f14611f0f611f0b600461109f565b1590565b611e99565b611f1f816001611020565b611f2b60016004611ee4565b611f557f9b7c520e9e227a011fa79baf4082565a9fd780e2bcb20889c0fe36eba4b5c8db916101ec565b90611f5f60405190565b600090a2565b6101b990611e88565b6101b990611f7a610f3d565b6101b990611f8b611106600461109f565b61202c565b15611f9757565b60405162461bcd60e51b81526020600482015260126024820152714475706c69636174652065786368616e676560701b6044820152606490fd5b916001600160a01b0360089290920291821b911b611016565b9190611ffb610192611037936101ec565b908354611fd1565b90815491600160401b83101561069f57826120269160016101b995018155610580565b90611fea565b61205a6003612049612044611f0b611b1886856101f5565b611f90565b612055836001926101f5565b611ee4565b612065816002612003565b611f557f3e535d1ab441ef41c268fd9b52b478aee02d693c5ca2a84b5d26b89e0922e5e1916101ec565b6101b990611f6e565b6101b9906120a4610f3d565b6101b9906120b5611106600461109f565b612106565b156120c157565b60405162461bcd60e51b815260206004820152601760248201527f45786368616e676520646f6573206e6f742065786973740000000000000000006044820152606490fd5b61212c600361212061211b611b1885846101f5565b6120ba565b612055836000926101f5565b6121378160026126e4565b611f557ff50d0d312d501878616eb5e78ebf3ed6dcd3955aaef8165af9c6b057cc4832fb916101ec565b6101b990612098565b6101b990612176610f3d565b6121b9565b1561218257565b60405162461bcd60e51b815260206004820152600f60248201526e496e76616c6964206164647265737360881b6044820152606490fd5b6121dc6121c5826101ec565b6121d5610f5e6101866000610ec6565b141561217b565b611f2b816001611020565b6101b99061216a565b6102ca61220892602092612202815190565b94859290565b93849101610273565b610192916121f0565b61224261222660405190565b8092612236602083019182612211565b9081038252038261067e565b61225461224d825190565b9160200190565b2090565b600061227161019292612269600090565b506005610cb0565b01546001600160a01b031690565b9061229a61228e6104a1845490565b92600052602060002090565b9060005b8181106122ab5750505090565b9091926122cf6122c86001926122c087610dac565b815260200190565b9460010190565b92910161229e565b906101929161227f565b906101b9610d9e926122f260405190565b938480926122d7565b610192906122e1565b906123116106f0836108ad565b918252565b61019260406106a4565b6123286114cb565b906000825260208080808086016060815201600081520160008152016000905250565b905250565b610192612320565b612360612316565b9060008252602080830161234b612350565b610192612358565b60005b82811061238957505050565b602090612394612372565b818401520161237d565b906101b96123b46123ae84612304565b936108ad565b601f19016020840161237a565b906101b961244660046123d26114cb565b946123f46123e782546001600160a01b031690565b6001600160a01b03168752565b61240a61240360018301610d84565b6020880152565b61241961181b60028301610dac565b61244061243060038301546001600160a01b031690565b6001600160a01b03166060880152565b01610dac565b6080840152565b610192906123c1565b61246d61247291612465606090565b5060066101f5565b6122fb565b9061248361247e835190565b61239e565b916000908361249183611405565b61249c610192845190565b81101561250057806124b86124b46124fb938661143c565b5190565b6124e0610b226124c9836005610cb0565b6124db6124d4612316565b948a860152565b61244d565b6124ea828961143c565b526124f5818861143c565b50611428565b612491565b5093505050565b61250f612372565b50610192610b22612521836005610cb0565b6124db61252c612316565b948552565b9061253d61247e835190565b916000908361254b83611405565b612556610192845190565b81101561250057806124b86124b461256e938661143c565b61254b565b9061258261228e6104a1845490565b9060005b8181106125935750505090565b9091926125c16122c86001926125b087546001600160a01b031690565b6001600160a01b0316815260200190565b929101612586565b9061019291612573565b906101b9610d9e926125e460405190565b938480926125c9565b610192906125d3565b61019260026125ed565b6101b991600091611fea565b600060046101b9926126218360038301612600565b016114e6565b9061263661228e6104a1845490565b9060005b8181106126475750505090565b9091926126646122c86001926125b087546001600160a01b031690565b92910161263a565b9061019291612627565b906101b9610d9e9261268760405190565b9384809261266c565b61019290612676565b9190820391821161143757565b634e487b7160e01b600052603160045260246000fd5b805480156126df5760001901906126dc6126d68383610580565b90612600565b55565b6126a6565b6126f9612700926126f483612690565b61279d565b9092901590565b156127425760405162461bcd60e51b815260206004820152601560248201527420b2323932b9b9903737ba1034b71030b93930bc9760591b6044820152606490fd5b6101b991612761612751835490565b61275b6001611405565b90612699565b90818103612771575b50506126bc565b6120266127846105e161278b9486610580565b9184610580565b388061276a565b610192600019611405565b919082519260006127ad81611405565b855b811015612804576127d06127c3828561143c565b516001600160a01b031690565b6127e26001600160a01b038616610f5e565b146127fa576127f36127af91611428565b90506127ad565b9450505050600190565b5093505050612811612792565b9190565b9061282461228e6104a1845490565b9060005b8181106128355750505090565b90919261284a6122c86001926122c087610dac565b929101612828565b9061019291612815565b906101b9610d9e9261286d60405190565b93848092612852565b6101929061285c565b6101b99160009161148b565b805480156126df5760001901906126dc6128a58383610580565b9061287f565b6126f96128c0926128bb83612876565b61293b565b156129025760405162461bcd60e51b8152602060048201526015602482015274313cba32b99999103737ba1034b71030b93930bc9760591b6044820152606490fd5b6101b991612911612751835490565b90818103612921575b505061288b565b6114c561278461088b6129349486610580565b388061291a565b9190825192600061294b81611405565b855b811015612804576129616124b4828561143c565b84146127fa5761297361294d91611428565b905061294b56fea2646970667358221220a6032f571ac9fa51b48f09a32827ab67ff828148f9996dd432fe8f26a821634c64736f6c63430008120033",
  "devdoc": {
    "kind": "dev",
    "methods": {
      "addExchange(address)": {
        "params": {
          "_exchange": "Address of the exchange contract"
        }
      },
      "initialize(address)": {
        "params": {
          "_verifyDomainProcessor": "Address of the VerifyDomainProcessor contract"
        }
      },
      "owner()": {
        "details": "Returns the address of the current owner."
      },
      "removeDomainListing(bytes32)": {
        "params": {
          "_domainId": "Domain ID to update listing status for"
        }
      },
      "removeExchange(address)": {
        "params": {
          "_exchange": "Address of the exchange contract"
        }
      },
      "renounceOwnership()": {
        "details": "Leaves the contract without owner. It will not be possible to call `onlyOwner` functions. Can only be called by the current owner. NOTE: Renouncing ownership will leave the contract without an owner, thereby disabling any functionality that is only available to the owner."
      },
      "setDomainListing(bytes32,uint256)": {
        "params": {
          "_domainId": "Domain to set listed status for",
          "_listingId": "Listing Id of domain on calling exchange"
        }
      },
      "transferOwnership(address)": {
        "details": "Transfers ownership of the contract to a new account (`newOwner`). Can only be called by the current owner."
      },
      "updateDomainOnSale(bytes32,address)": {
        "params": {
          "_domainId": "Domain ID to update listing status for",
          "_newOwner": "New owner of the domain"
        }
      },
      "updateVerifyDomainProcessor(address)": {
        "params": {
          "_verifyDomainProcessor": "Address of the new VerifyDomainProcessor contract"
        }
      },
      "verifyDomains(((string,string,string),((bytes32,address,uint32,uint32),bytes[]))[])": {
        "params": {
          "_proofs": "Array of domain ownership TLS proofs"
        }
      }
    },
    "version": 1
  },
  "userdoc": {
    "kind": "user",
    "methods": {
      "addExchange(address)": {
        "notice": "ONLY OWNER: Add an exchange to the registry. This can only be called after the contract has been initialized. Exchange must not already exist in the registry. "
      },
      "initialize(address)": {
        "notice": "ONLY OWNER: Initialize the contract with the VerifyDomainProcessor and exchange contracts. This can only be called once."
      },
      "removeDomainListing(bytes32)": {
        "notice": "ONLY EXCHANGE: Remove a listing status from domain. We check that the calling exchange is the one that the domain is listed on. This removes the exchange and listingId from the domain. "
      },
      "removeExchange(address)": {
        "notice": "ONLY OWNER: Remove an exchange from the registry. Exchange must exist in the registry. "
      },
      "setDomainListing(bytes32,uint256)": {
        "notice": "ONLY EXCHANGE: Add a listing status to domain. We check that the domain has been verified and is listed on the calling exchange. This sets the exchange and listingId of the domain. "
      },
      "updateDomainOnSale(bytes32,address)": {
        "notice": "ONLY EXCHANGE: Update domain on sale. We check that the calling exchange is the one that the domain is listed on. This updates the ownership of the domain to the new owner as well as removes the listing status from the domain. "
      },
      "updateVerifyDomainProcessor(address)": {
        "notice": "ONLY OWNER: Update the verify domain processor"
      },
      "verifyDomains(((string,string,string),((bytes32,address,uint32,uint32),bytes[]))[])": {
        "notice": "Verify domains and add them to the registry. If domain is transferred off-chain to another party  then they can re-verify the domain and claim ownership of the domain and previous ownership is removed. The existing owner can re-verify the domain, say after the domain has expired to update the expiry time on the domain. Function reverts if: - Domain ownership TLS proofs are invalid "
      }
    },
    "version": 1
  },
  "storageLayout": {
    "storage": [
      {
        "astId": 7,
        "contract": "contracts/VerifiedDomainRegistry.sol:VerifiedDomainRegistry",
        "label": "_owner",
        "offset": 0,
        "slot": "0",
        "type": "t_address"
      },
      {
        "astId": 7156,
        "contract": "contracts/VerifiedDomainRegistry.sol:VerifiedDomainRegistry",
        "label": "verifyDomainProcessor",
        "offset": 0,
        "slot": "1",
        "type": "t_contract(IVerifyDomainProcessor)11894"
      },
      {
        "astId": 7159,
        "contract": "contracts/VerifiedDomainRegistry.sol:VerifiedDomainRegistry",
        "label": "exchanges",
        "offset": 0,
        "slot": "2",
        "type": "t_array(t_address)dyn_storage"
      },
      {
        "astId": 7163,
        "contract": "contracts/VerifiedDomainRegistry.sol:VerifiedDomainRegistry",
        "label": "isExchange",
        "offset": 0,
        "slot": "3",
        "type": "t_mapping(t_address,t_bool)"
      },
      {
        "astId": 7165,
        "contract": "contracts/VerifiedDomainRegistry.sol:VerifiedDomainRegistry",
        "label": "isInitialized",
        "offset": 0,
        "slot": "4",
        "type": "t_bool"
      },
      {
        "astId": 7170,
        "contract": "contracts/VerifiedDomainRegistry.sol:VerifiedDomainRegistry",
        "label": "domains",
        "offset": 0,
        "slot": "5",
        "type": "t_mapping(t_bytes32,t_struct(Domain)11806_storage)"
      },
      {
        "astId": 7175,
        "contract": "contracts/VerifiedDomainRegistry.sol:VerifiedDomainRegistry",
        "label": "userDomains",
        "offset": 0,
        "slot": "6",
        "type": "t_mapping(t_address,t_array(t_bytes32)dyn_storage)"
      }
    ],
    "types": {
      "t_address": {
        "encoding": "inplace",
        "label": "address",
        "numberOfBytes": "20"
      },
      "t_array(t_address)dyn_storage": {
        "base": "t_address",
        "encoding": "dynamic_array",
        "label": "address[]",
        "numberOfBytes": "32"
      },
      "t_array(t_bytes32)dyn_storage": {
        "base": "t_bytes32",
        "encoding": "dynamic_array",
        "label": "bytes32[]",
        "numberOfBytes": "32"
      },
      "t_bool": {
        "encoding": "inplace",
        "label": "bool",
        "numberOfBytes": "1"
      },
      "t_bytes32": {
        "encoding": "inplace",
        "label": "bytes32",
        "numberOfBytes": "32"
      },
      "t_contract(IVerifyDomainProcessor)11894": {
        "encoding": "inplace",
        "label": "contract IVerifyDomainProcessor",
        "numberOfBytes": "20"
      },
      "t_mapping(t_address,t_array(t_bytes32)dyn_storage)": {
        "encoding": "mapping",
        "key": "t_address",
        "label": "mapping(address => bytes32[])",
        "numberOfBytes": "32",
        "value": "t_array(t_bytes32)dyn_storage"
      },
      "t_mapping(t_address,t_bool)": {
        "encoding": "mapping",
        "key": "t_address",
        "label": "mapping(address => bool)",
        "numberOfBytes": "32",
        "value": "t_bool"
      },
      "t_mapping(t_bytes32,t_struct(Domain)11806_storage)": {
        "encoding": "mapping",
        "key": "t_bytes32",
        "label": "mapping(bytes32 => struct IVerifiedDomainRegistry.Domain)",
        "numberOfBytes": "32",
        "value": "t_struct(Domain)11806_storage"
      },
      "t_string_storage": {
        "encoding": "bytes",
        "label": "string",
        "numberOfBytes": "32"
      },
      "t_struct(Domain)11806_storage": {
        "encoding": "inplace",
        "label": "struct IVerifiedDomainRegistry.Domain",
        "members": [
          {
            "astId": 11797,
            "contract": "contracts/VerifiedDomainRegistry.sol:VerifiedDomainRegistry",
            "label": "owner",
            "offset": 0,
            "slot": "0",
            "type": "t_address"
          },
          {
            "astId": 11799,
            "contract": "contracts/VerifiedDomainRegistry.sol:VerifiedDomainRegistry",
            "label": "name",
            "offset": 0,
            "slot": "1",
            "type": "t_string_storage"
          },
          {
            "astId": 11801,
            "contract": "contracts/VerifiedDomainRegistry.sol:VerifiedDomainRegistry",
            "label": "expiryTime",
            "offset": 0,
            "slot": "2",
            "type": "t_uint256"
          },
          {
            "astId": 11803,
            "contract": "contracts/VerifiedDomainRegistry.sol:VerifiedDomainRegistry",
            "label": "exchange",
            "offset": 0,
            "slot": "3",
            "type": "t_address"
          },
          {
            "astId": 11805,
            "contract": "contracts/VerifiedDomainRegistry.sol:VerifiedDomainRegistry",
            "label": "listingId",
            "offset": 0,
            "slot": "4",
            "type": "t_uint256"
          }
        ],
        "numberOfBytes": "160"
      },
      "t_uint256": {
        "encoding": "inplace",
        "label": "uint256",
        "numberOfBytes": "32"
      }
    }
  }
}