{
  "address": "0x7edd66b19a22293af86a2d96761fd7146ba3ff6c",
  "abi": [
    {
      "inputs": [
        {
          "internalType": "address",
          "name": "_owner",
          "type": "address"
        },
        {
          "internalType": "contract IERC20",
          "name": "_usdc",
          "type": "address"
        },
        {
          "internalType": "contract IPoseidon3",
          "name": "_poseidon3",
          "type": "address"
        },
        {
          "internalType": "contract IPoseidon6",
          "name": "_poseidon6",
          "type": "address"
        },
        {
          "internalType": "uint256",
          "name": "_minDepositAmount",
          "type": "uint256"
        },
        {
          "internalType": "uint256",
          "name": "_maxOnRampAmount",
          "type": "uint256"
        },
        {
          "internalType": "uint256",
          "name": "_intentExpirationPeriod",
          "type": "uint256"
        },
        {
          "internalType": "uint256",
          "name": "_onRampCooldownPeriod",
          "type": "uint256"
        },
        {
          "internalType": "uint256",
          "name": "_sustainabilityFee",
          "type": "uint256"
        },
        {
          "internalType": "address",
          "name": "_sustainabilityFeeRecipient",
          "type": "address"
        }
      ],
      "stateMutability": "nonpayable",
      "type": "constructor"
    },
    {
      "anonymous": false,
      "inputs": [
        {
          "indexed": true,
          "internalType": "address",
          "name": "accountOwner",
          "type": "address"
        },
        {
          "indexed": true,
          "internalType": "bytes32",
          "name": "idHash",
          "type": "bytes32"
        }
      ],
      "name": "AccountRegistered",
      "type": "event"
    },
    {
      "anonymous": false,
      "inputs": [
        {
          "indexed": false,
          "internalType": "uint256",
          "name": "depositId",
          "type": "uint256"
        },
        {
          "indexed": false,
          "internalType": "address",
          "name": "depositor",
          "type": "address"
        }
      ],
      "name": "DepositClosed",
      "type": "event"
    },
    {
      "anonymous": false,
      "inputs": [
        {
          "indexed": true,
          "internalType": "uint256",
          "name": "depositId",
          "type": "uint256"
        },
        {
          "indexed": true,
          "internalType": "bytes32",
          "name": "idHash",
          "type": "bytes32"
        },
        {
          "indexed": false,
          "internalType": "uint256",
          "name": "amount",
          "type": "uint256"
        },
        {
          "indexed": false,
          "internalType": "uint256",
          "name": "conversionRate",
          "type": "uint256"
        }
      ],
      "name": "DepositReceived",
      "type": "event"
    },
    {
      "anonymous": false,
      "inputs": [
        {
          "indexed": true,
          "internalType": "uint256",
          "name": "depositId",
          "type": "uint256"
        },
        {
          "indexed": true,
          "internalType": "address",
          "name": "depositor",
          "type": "address"
        },
        {
          "indexed": false,
          "internalType": "uint256",
          "name": "amount",
          "type": "uint256"
        }
      ],
      "name": "DepositWithdrawn",
      "type": "event"
    },
    {
      "anonymous": false,
      "inputs": [
        {
          "indexed": false,
          "internalType": "uint256",
          "name": "intentExpirationPeriod",
          "type": "uint256"
        }
      ],
      "name": "IntentExpirationPeriodSet",
      "type": "event"
    },
    {
      "anonymous": false,
      "inputs": [
        {
          "indexed": true,
          "internalType": "bytes32",
          "name": "intentHash",
          "type": "bytes32"
        },
        {
          "indexed": true,
          "internalType": "uint256",
          "name": "depositId",
          "type": "uint256"
        },
        {
          "indexed": true,
          "internalType": "address",
          "name": "onRamper",
          "type": "address"
        },
        {
          "indexed": false,
          "internalType": "address",
          "name": "to",
          "type": "address"
        },
        {
          "indexed": false,
          "internalType": "uint256",
          "name": "amount",
          "type": "uint256"
        },
        {
          "indexed": false,
          "internalType": "uint256",
          "name": "feeAmount",
          "type": "uint256"
        }
      ],
      "name": "IntentFulfilled",
      "type": "event"
    },
    {
      "anonymous": false,
      "inputs": [
        {
          "indexed": true,
          "internalType": "bytes32",
          "name": "intentHash",
          "type": "bytes32"
        },
        {
          "indexed": true,
          "internalType": "uint256",
          "name": "depositId",
          "type": "uint256"
        }
      ],
      "name": "IntentPruned",
      "type": "event"
    },
    {
      "anonymous": false,
      "inputs": [
        {
          "indexed": true,
          "internalType": "bytes32",
          "name": "intentHash",
          "type": "bytes32"
        },
        {
          "indexed": true,
          "internalType": "uint256",
          "name": "depositId",
          "type": "uint256"
        },
        {
          "indexed": true,
          "internalType": "bytes32",
          "name": "idHash",
          "type": "bytes32"
        },
        {
          "indexed": false,
          "internalType": "address",
          "name": "to",
          "type": "address"
        },
        {
          "indexed": false,
          "internalType": "uint256",
          "name": "amount",
          "type": "uint256"
        },
        {
          "indexed": false,
          "internalType": "uint256",
          "name": "timestamp",
          "type": "uint256"
        }
      ],
      "name": "IntentSignaled",
      "type": "event"
    },
    {
      "anonymous": false,
      "inputs": [
        {
          "indexed": false,
          "internalType": "uint256",
          "name": "maxOnRampAmount",
          "type": "uint256"
        }
      ],
      "name": "MaxOnRampAmountSet",
      "type": "event"
    },
    {
      "anonymous": false,
      "inputs": [
        {
          "indexed": false,
          "internalType": "uint256",
          "name": "minDepositAmount",
          "type": "uint256"
        }
      ],
      "name": "MinDepositAmountSet",
      "type": "event"
    },
    {
      "anonymous": false,
      "inputs": [
        {
          "indexed": false,
          "internalType": "address",
          "name": "receiveProcessor",
          "type": "address"
        }
      ],
      "name": "NewReceiveProcessorSet",
      "type": "event"
    },
    {
      "anonymous": false,
      "inputs": [
        {
          "indexed": false,
          "internalType": "address",
          "name": "registrationProcessor",
          "type": "address"
        }
      ],
      "name": "NewRegistrationProcessorSet",
      "type": "event"
    },
    {
      "anonymous": false,
      "inputs": [
        {
          "indexed": false,
          "internalType": "address",
          "name": "sendProcessor",
          "type": "address"
        }
      ],
      "name": "NewSendProcessorSet",
      "type": "event"
    },
    {
      "anonymous": false,
      "inputs": [
        {
          "indexed": false,
          "internalType": "uint256",
          "name": "onRampCooldownPeriod",
          "type": "uint256"
        }
      ],
      "name": "OnRampCooldownPeriodSet",
      "type": "event"
    },
    {
      "anonymous": false,
      "inputs": [
        {
          "indexed": true,
          "internalType": "address",
          "name": "previousOwner",
          "type": "address"
        },
        {
          "indexed": true,
          "internalType": "address",
          "name": "newOwner",
          "type": "address"
        }
      ],
      "name": "OwnershipTransferred",
      "type": "event"
    },
    {
      "anonymous": false,
      "inputs": [
        {
          "indexed": false,
          "internalType": "address",
          "name": "feeRecipient",
          "type": "address"
        }
      ],
      "name": "SustainabilityFeeRecipientUpdated",
      "type": "event"
    },
    {
      "anonymous": false,
      "inputs": [
        {
          "indexed": false,
          "internalType": "uint256",
          "name": "fee",
          "type": "uint256"
        }
      ],
      "name": "SustainabilityFeeUpdated",
      "type": "event"
    },
    {
      "anonymous": false,
      "inputs": [
        {
          "indexed": false,
          "internalType": "bytes32",
          "name": "listOwner",
          "type": "bytes32"
        },
        {
          "indexed": false,
          "internalType": "bytes32",
          "name": "deniedUser",
          "type": "bytes32"
        }
      ],
      "name": "UserAddedToDenylist",
      "type": "event"
    },
    {
      "anonymous": false,
      "inputs": [
        {
          "indexed": false,
          "internalType": "bytes32",
          "name": "listOwner",
          "type": "bytes32"
        },
        {
          "indexed": false,
          "internalType": "bytes32",
          "name": "approvedUser",
          "type": "bytes32"
        }
      ],
      "name": "UserRemovedFromDenylist",
      "type": "event"
    },
    {
      "inputs": [
        {
          "internalType": "bytes32",
          "name": "_deniedUser",
          "type": "bytes32"
        }
      ],
      "name": "addAccountToDenylist",
      "outputs": [],
      "stateMutability": "nonpayable",
      "type": "function"
    },
    {
      "inputs": [
        {
          "internalType": "bytes32",
          "name": "_intentHash",
          "type": "bytes32"
        }
      ],
      "name": "cancelIntent",
      "outputs": [],
      "stateMutability": "nonpayable",
      "type": "function"
    },
    {
      "inputs": [],
      "name": "depositCounter",
      "outputs": [
        {
          "internalType": "uint256",
          "name": "",
          "type": "uint256"
        }
      ],
      "stateMutability": "view",
      "type": "function"
    },
    {
      "inputs": [
        {
          "internalType": "uint256",
          "name": "",
          "type": "uint256"
        }
      ],
      "name": "deposits",
      "outputs": [
        {
          "internalType": "address",
          "name": "depositor",
          "type": "address"
        },
        {
          "internalType": "uint256",
          "name": "depositAmount",
          "type": "uint256"
        },
        {
          "internalType": "uint256",
          "name": "remainingDeposits",
          "type": "uint256"
        },
        {
          "internalType": "uint256",
          "name": "outstandingIntentAmount",
          "type": "uint256"
        },
        {
          "internalType": "uint256",
          "name": "conversionRate",
          "type": "uint256"
        }
      ],
      "stateMutability": "view",
      "type": "function"
    },
    {
      "inputs": [
        {
          "internalType": "address",
          "name": "_account",
          "type": "address"
        }
      ],
      "name": "getAccountDeposits",
      "outputs": [
        {
          "components": [
            {
              "internalType": "uint256",
              "name": "depositId",
              "type": "uint256"
            },
            {
              "components": [
                {
                  "internalType": "address",
                  "name": "depositor",
                  "type": "address"
                },
                {
                  "internalType": "uint256[8]",
                  "name": "upiId",
                  "type": "uint256[8]"
                },
                {
                  "internalType": "uint256",
                  "name": "depositAmount",
                  "type": "uint256"
                },
                {
                  "internalType": "uint256",
                  "name": "remainingDeposits",
                  "type": "uint256"
                },
                {
                  "internalType": "uint256",
                  "name": "outstandingIntentAmount",
                  "type": "uint256"
                },
                {
                  "internalType": "uint256",
                  "name": "conversionRate",
                  "type": "uint256"
                },
                {
                  "internalType": "bytes32[]",
                  "name": "intentHashes",
                  "type": "bytes32[]"
                }
              ],
              "internalType": "struct HDFCRamp.Deposit",
              "name": "deposit",
              "type": "tuple"
            },
            {
              "internalType": "uint256",
              "name": "availableLiquidity",
              "type": "uint256"
            }
          ],
          "internalType": "struct HDFCRamp.DepositWithAvailableLiquidity[]",
          "name": "accountDeposits",
          "type": "tuple[]"
        }
      ],
      "stateMutability": "view",
      "type": "function"
    },
    {
      "inputs": [
        {
          "internalType": "address",
          "name": "_account",
          "type": "address"
        }
      ],
      "name": "getAccountInfo",
      "outputs": [
        {
          "components": [
            {
              "internalType": "bytes32",
              "name": "idHash",
              "type": "bytes32"
            },
            {
              "internalType": "uint256[]",
              "name": "deposits",
              "type": "uint256[]"
            }
          ],
          "internalType": "struct HDFCRamp.AccountInfo",
          "name": "",
          "type": "tuple"
        }
      ],
      "stateMutability": "view",
      "type": "function"
    },
    {
      "inputs": [
        {
          "internalType": "address",
          "name": "_account",
          "type": "address"
        }
      ],
      "name": "getDeniedUsers",
      "outputs": [
        {
          "internalType": "bytes32[]",
          "name": "",
          "type": "bytes32[]"
        }
      ],
      "stateMutability": "view",
      "type": "function"
    },
    {
      "inputs": [
        {
          "internalType": "uint256",
          "name": "_depositId",
          "type": "uint256"
        }
      ],
      "name": "getDeposit",
      "outputs": [
        {
          "components": [
            {
              "internalType": "address",
              "name": "depositor",
              "type": "address"
            },
            {
              "internalType": "uint256[8]",
              "name": "upiId",
              "type": "uint256[8]"
            },
            {
              "internalType": "uint256",
              "name": "depositAmount",
              "type": "uint256"
            },
            {
              "internalType": "uint256",
              "name": "remainingDeposits",
              "type": "uint256"
            },
            {
              "internalType": "uint256",
              "name": "outstandingIntentAmount",
              "type": "uint256"
            },
            {
              "internalType": "uint256",
              "name": "conversionRate",
              "type": "uint256"
            },
            {
              "internalType": "bytes32[]",
              "name": "intentHashes",
              "type": "bytes32[]"
            }
          ],
          "internalType": "struct HDFCRamp.Deposit",
          "name": "",
          "type": "tuple"
        }
      ],
      "stateMutability": "view",
      "type": "function"
    },
    {
      "inputs": [
        {
          "internalType": "uint256[]",
          "name": "_depositIds",
          "type": "uint256[]"
        }
      ],
      "name": "getDepositFromIds",
      "outputs": [
        {
          "components": [
            {
              "internalType": "uint256",
              "name": "depositId",
              "type": "uint256"
            },
            {
              "components": [
                {
                  "internalType": "address",
                  "name": "depositor",
                  "type": "address"
                },
                {
                  "internalType": "uint256[8]",
                  "name": "upiId",
                  "type": "uint256[8]"
                },
                {
                  "internalType": "uint256",
                  "name": "depositAmount",
                  "type": "uint256"
                },
                {
                  "internalType": "uint256",
                  "name": "remainingDeposits",
                  "type": "uint256"
                },
                {
                  "internalType": "uint256",
                  "name": "outstandingIntentAmount",
                  "type": "uint256"
                },
                {
                  "internalType": "uint256",
                  "name": "conversionRate",
                  "type": "uint256"
                },
                {
                  "internalType": "bytes32[]",
                  "name": "intentHashes",
                  "type": "bytes32[]"
                }
              ],
              "internalType": "struct HDFCRamp.Deposit",
              "name": "deposit",
              "type": "tuple"
            },
            {
              "internalType": "uint256",
              "name": "availableLiquidity",
              "type": "uint256"
            }
          ],
          "internalType": "struct HDFCRamp.DepositWithAvailableLiquidity[]",
          "name": "depositArray",
          "type": "tuple[]"
        }
      ],
      "stateMutability": "view",
      "type": "function"
    },
    {
      "inputs": [
        {
          "internalType": "address",
          "name": "_account",
          "type": "address"
        }
      ],
      "name": "getIdCurrentIntentHash",
      "outputs": [
        {
          "internalType": "bytes32",
          "name": "",
          "type": "bytes32"
        }
      ],
      "stateMutability": "view",
      "type": "function"
    },
    {
      "inputs": [
        {
          "internalType": "bytes32[]",
          "name": "_intentHashes",
          "type": "bytes32[]"
        }
      ],
      "name": "getIntentsWithOnRamperId",
      "outputs": [
        {
          "components": [
            {
              "internalType": "bytes32",
              "name": "intentHash",
              "type": "bytes32"
            },
            {
              "components": [
                {
                  "internalType": "address",
                  "name": "onRamper",
                  "type": "address"
                },
                {
                  "internalType": "address",
                  "name": "to",
                  "type": "address"
                },
                {
                  "internalType": "uint256",
                  "name": "deposit",
                  "type": "uint256"
                },
                {
                  "internalType": "uint256",
                  "name": "amount",
                  "type": "uint256"
                },
                {
                  "internalType": "uint256",
                  "name": "intentTimestamp",
                  "type": "uint256"
                }
              ],
              "internalType": "struct HDFCRamp.Intent",
              "name": "intent",
              "type": "tuple"
            },
            {
              "internalType": "bytes32",
              "name": "onRamperIdHash",
              "type": "bytes32"
            }
          ],
          "internalType": "struct HDFCRamp.IntentWithOnRamperId[]",
          "name": "",
          "type": "tuple[]"
        }
      ],
      "stateMutability": "view",
      "type": "function"
    },
    {
      "inputs": [
        {
          "internalType": "address",
          "name": "_account",
          "type": "address"
        }
      ],
      "name": "getLastOnRampTimestamp",
      "outputs": [
        {
          "internalType": "uint256",
          "name": "",
          "type": "uint256"
        }
      ],
      "stateMutability": "view",
      "type": "function"
    },
    {
      "inputs": [
        {
          "internalType": "contract IRegistrationProcessor",
          "name": "_registrationProcessor",
          "type": "address"
        },
        {
          "internalType": "contract IHDFCSendProcessor",
          "name": "_sendProcessor",
          "type": "address"
        }
      ],
      "name": "initialize",
      "outputs": [],
      "stateMutability": "nonpayable",
      "type": "function"
    },
    {
      "inputs": [],
      "name": "intentExpirationPeriod",
      "outputs": [
        {
          "internalType": "uint256",
          "name": "",
          "type": "uint256"
        }
      ],
      "stateMutability": "view",
      "type": "function"
    },
    {
      "inputs": [
        {
          "internalType": "bytes32",
          "name": "",
          "type": "bytes32"
        }
      ],
      "name": "intents",
      "outputs": [
        {
          "internalType": "address",
          "name": "onRamper",
          "type": "address"
        },
        {
          "internalType": "address",
          "name": "to",
          "type": "address"
        },
        {
          "internalType": "uint256",
          "name": "deposit",
          "type": "uint256"
        },
        {
          "internalType": "uint256",
          "name": "amount",
          "type": "uint256"
        },
        {
          "internalType": "uint256",
          "name": "intentTimestamp",
          "type": "uint256"
        }
      ],
      "stateMutability": "view",
      "type": "function"
    },
    {
      "inputs": [
        {
          "internalType": "address",
          "name": "_account",
          "type": "address"
        },
        {
          "internalType": "bytes32",
          "name": "_deniedUser",
          "type": "bytes32"
        }
      ],
      "name": "isDeniedUser",
      "outputs": [
        {
          "internalType": "bool",
          "name": "",
          "type": "bool"
        }
      ],
      "stateMutability": "view",
      "type": "function"
    },
    {
      "inputs": [],
      "name": "isInitialized",
      "outputs": [
        {
          "internalType": "bool",
          "name": "",
          "type": "bool"
        }
      ],
      "stateMutability": "view",
      "type": "function"
    },
    {
      "inputs": [],
      "name": "maxOnRampAmount",
      "outputs": [
        {
          "internalType": "uint256",
          "name": "",
          "type": "uint256"
        }
      ],
      "stateMutability": "view",
      "type": "function"
    },
    {
      "inputs": [],
      "name": "minDepositAmount",
      "outputs": [
        {
          "internalType": "uint256",
          "name": "",
          "type": "uint256"
        }
      ],
      "stateMutability": "view",
      "type": "function"
    },
    {
      "inputs": [
        {
          "internalType": "uint256[8]",
          "name": "_upiId",
          "type": "uint256[8]"
        },
        {
          "internalType": "uint256",
          "name": "_depositAmount",
          "type": "uint256"
        },
        {
          "internalType": "uint256",
          "name": "_receiveAmount",
          "type": "uint256"
        }
      ],
      "name": "offRamp",
      "outputs": [],
      "stateMutability": "nonpayable",
      "type": "function"
    },
    {
      "inputs": [
        {
          "internalType": "uint256[2]",
          "name": "_a",
          "type": "uint256[2]"
        },
        {
          "internalType": "uint256[2][2]",
          "name": "_b",
          "type": "uint256[2][2]"
        },
        {
          "internalType": "uint256[2]",
          "name": "_c",
          "type": "uint256[2]"
        },
        {
          "internalType": "uint256[15]",
          "name": "_signals",
          "type": "uint256[15]"
        }
      ],
      "name": "onRamp",
      "outputs": [],
      "stateMutability": "nonpayable",
      "type": "function"
    },
    {
      "inputs": [],
      "name": "onRampCooldownPeriod",
      "outputs": [
        {
          "internalType": "uint256",
          "name": "",
          "type": "uint256"
        }
      ],
      "stateMutability": "view",
      "type": "function"
    },
    {
      "inputs": [],
      "name": "owner",
      "outputs": [
        {
          "internalType": "address",
          "name": "",
          "type": "address"
        }
      ],
      "stateMutability": "view",
      "type": "function"
    },
    {
      "inputs": [],
      "name": "poseidon3",
      "outputs": [
        {
          "internalType": "contract IPoseidon3",
          "name": "",
          "type": "address"
        }
      ],
      "stateMutability": "view",
      "type": "function"
    },
    {
      "inputs": [],
      "name": "poseidon6",
      "outputs": [
        {
          "internalType": "contract IPoseidon6",
          "name": "",
          "type": "address"
        }
      ],
      "stateMutability": "view",
      "type": "function"
    },
    {
      "inputs": [
        {
          "internalType": "uint256[2]",
          "name": "_a",
          "type": "uint256[2]"
        },
        {
          "internalType": "uint256[2][2]",
          "name": "_b",
          "type": "uint256[2][2]"
        },
        {
          "internalType": "uint256[2]",
          "name": "_c",
          "type": "uint256[2]"
        },
        {
          "internalType": "uint256[5]",
          "name": "_signals",
          "type": "uint256[5]"
        }
      ],
      "name": "register",
      "outputs": [],
      "stateMutability": "nonpayable",
      "type": "function"
    },
    {
      "inputs": [],
      "name": "registrationProcessor",
      "outputs": [
        {
          "internalType": "contract IRegistrationProcessor",
          "name": "",
          "type": "address"
        }
      ],
      "stateMutability": "view",
      "type": "function"
    },
    {
      "inputs": [
        {
          "internalType": "bytes32",
          "name": "_intentHash",
          "type": "bytes32"
        }
      ],
      "name": "releaseFundsToOnramper",
      "outputs": [],
      "stateMutability": "nonpayable",
      "type": "function"
    },
    {
      "inputs": [
        {
          "internalType": "bytes32",
          "name": "_approvedUser",
          "type": "bytes32"
        }
      ],
      "name": "removeAccountFromDenylist",
      "outputs": [],
      "stateMutability": "nonpayable",
      "type": "function"
    },
    {
      "inputs": [],
      "name": "renounceOwnership",
      "outputs": [],
      "stateMutability": "nonpayable",
      "type": "function"
    },
    {
      "inputs": [],
      "name": "sendProcessor",
      "outputs": [
        {
          "internalType": "contract IHDFCSendProcessor",
          "name": "",
          "type": "address"
        }
      ],
      "stateMutability": "view",
      "type": "function"
    },
    {
      "inputs": [
        {
          "internalType": "uint256",
          "name": "_intentExpirationPeriod",
          "type": "uint256"
        }
      ],
      "name": "setIntentExpirationPeriod",
      "outputs": [],
      "stateMutability": "nonpayable",
      "type": "function"
    },
    {
      "inputs": [
        {
          "internalType": "uint256",
          "name": "_maxOnRampAmount",
          "type": "uint256"
        }
      ],
      "name": "setMaxOnRampAmount",
      "outputs": [],
      "stateMutability": "nonpayable",
      "type": "function"
    },
    {
      "inputs": [
        {
          "internalType": "uint256",
          "name": "_minDepositAmount",
          "type": "uint256"
        }
      ],
      "name": "setMinDepositAmount",
      "outputs": [],
      "stateMutability": "nonpayable",
      "type": "function"
    },
    {
      "inputs": [
        {
          "internalType": "uint256",
          "name": "_onRampCooldownPeriod",
          "type": "uint256"
        }
      ],
      "name": "setOnRampCooldownPeriod",
      "outputs": [],
      "stateMutability": "nonpayable",
      "type": "function"
    },
    {
      "inputs": [
        {
          "internalType": "contract IRegistrationProcessor",
          "name": "_registrationProcessor",
          "type": "address"
        }
      ],
      "name": "setRegistrationProcessor",
      "outputs": [],
      "stateMutability": "nonpayable",
      "type": "function"
    },
    {
      "inputs": [
        {
          "internalType": "contract IHDFCSendProcessor",
          "name": "_sendProcessor",
          "type": "address"
        }
      ],
      "name": "setSendProcessor",
      "outputs": [],
      "stateMutability": "nonpayable",
      "type": "function"
    },
    {
      "inputs": [
        {
          "internalType": "uint256",
          "name": "_fee",
          "type": "uint256"
        }
      ],
      "name": "setSustainabilityFee",
      "outputs": [],
      "stateMutability": "nonpayable",
      "type": "function"
    },
    {
      "inputs": [
        {
          "internalType": "address",
          "name": "_feeRecipient",
          "type": "address"
        }
      ],
      "name": "setSustainabilityFeeRecipient",
      "outputs": [],
      "stateMutability": "nonpayable",
      "type": "function"
    },
    {
      "inputs": [
        {
          "internalType": "uint256",
          "name": "_depositId",
          "type": "uint256"
        },
        {
          "internalType": "uint256",
          "name": "_amount",
          "type": "uint256"
        },
        {
          "internalType": "address",
          "name": "_to",
          "type": "address"
        }
      ],
      "name": "signalIntent",
      "outputs": [],
      "stateMutability": "nonpayable",
      "type": "function"
    },
    {
      "inputs": [],
      "name": "sustainabilityFee",
      "outputs": [
        {
          "internalType": "uint256",
          "name": "",
          "type": "uint256"
        }
      ],
      "stateMutability": "view",
      "type": "function"
    },
    {
      "inputs": [],
      "name": "sustainabilityFeeRecipient",
      "outputs": [
        {
          "internalType": "address",
          "name": "",
          "type": "address"
        }
      ],
      "stateMutability": "view",
      "type": "function"
    },
    {
      "inputs": [
        {
          "internalType": "address",
          "name": "newOwner",
          "type": "address"
        }
      ],
      "name": "transferOwnership",
      "outputs": [],
      "stateMutability": "nonpayable",
      "type": "function"
    },
    {
      "inputs": [],
      "name": "usdc",
      "outputs": [
        {
          "internalType": "contract IERC20",
          "name": "",
          "type": "address"
        }
      ],
      "stateMutability": "view",
      "type": "function"
    },
    {
      "inputs": [
        {
          "internalType": "uint256[]",
          "name": "_depositIds",
          "type": "uint256[]"
        }
      ],
      "name": "withdrawDeposit",
      "outputs": [],
      "stateMutability": "nonpayable",
      "type": "function"
    }
  ],
  "transactionHash": "0xf2bc5f1c59ef076d9c2cb046513b983bfa19d0a32ccf1a97973e51c58ec69db6",
  "args": [
    "0x4e39cF8578698131c57404e8bc3eEC820EDa51d8",
    "0x8374d6e81363fE432F98E46E8A6Fe0873e526FB8",
    "0x84ac07EfC0c7093416aCd6189a600AD479CFA045",
    "0x85541202D0692Cdf9f4ce9Aa66a1116D36c96Fe6",
    {
      "type": "BigNumber",
      "hex": "0x01312d00"
    },
    {
      "type": "BigNumber",
      "hex": "0x3b8b87c0"
    },
    {
      "type": "BigNumber",
      "hex": "0x012c"
    },
    {
      "type": "BigNumber",
      "hex": "0xb4"
    },
    {
      "type": "BigNumber",
      "hex": "0x038d7ea4c68000"
    },
    "0x4e39cF8578698131c57404e8bc3eEC820EDa51d8"
  ],
  "numDeployments": 2,
  "solcInputHash": "8704d78b2acb3413578e4ecb20a5b51d",
  "bytecode": "0x60e06040523480156200001157600080fd5b5060405162004318380380620043188339810160408190526200003491620001eb565b6200003f33620000a4565b6001600160a01b0389811660805288811660a05287811660c05260078790556008869055600a8590556009849055600b839055600c80546001600160a01b031916918316919091179055620000948a620000f4565b505050505050505050506200029e565b600080546001600160a01b038381166001600160a01b0319831681178455604051919092169283917f8be0079c531659141344cd1fd0a4f28419497f9722a3daafe3b4186f6b6457e09190a35050565b620000fe62000177565b6001600160a01b038116620001695760405162461bcd60e51b815260206004820152602660248201527f4f776e61626c653a206e6577206f776e657220697320746865207a65726f206160448201526564647265737360d01b60648201526084015b60405180910390fd5b6200017481620000a4565b50565b6000546001600160a01b03163314620001d35760405162461bcd60e51b815260206004820181905260248201527f4f776e61626c653a2063616c6c6572206973206e6f7420746865206f776e6572604482015260640162000160565b565b6001600160a01b03811681146200017457600080fd5b6000806000806000806000806000806101408b8d0312156200020c57600080fd5b8a516200021981620001d5565b60208c0151909a506200022c81620001d5565b60408c01519099506200023f81620001d5565b60608c01519098506200025281620001d5565b8097505060808b0151955060a08b0151945060c08b0151935060e08b015192506101008b015191506101208b01516200028b81620001d5565b809150509295989b9194979a5092959850565b60805160a05160c051614020620002f86000396000818161038601526130f301526000818161067901526131900152600081816103d80152818161172701528181611d5701528181612ce50152612d9401526140206000f3fe608060405234801561001057600080fd5b506004361061027f5760003560e01c806371a28f691161015c578063cce3e038116100ce578063ecb3dc8811610087578063ecb3dc88146106f0578063ecd618f0146106f9578063ed1692b814610719578063eea1d1971461072c578063f2fde38b1461073f578063fbf15b1f1461075257600080fd5b8063cce3e03814610674578063ce523ca31461069b578063d55f960d146106ae578063d9478d20146106c1578063e215ad59146106d4578063e279d964146106e757600080fd5b8063985ade1511610120578063985ade15146105995780639b357b5a146105ac5780639f9fb968146105bf578063a1a954b7146105df578063b02c43d0146105e8578063b3fa4c011461066157600080fd5b806371a28f69146104c65780637b510fe8146104d95780638da5cb5b146104f95780639021578a1461050a5780639087beff1461058657600080fd5b80633f838d0d116101f55780635081d952116101b95780635081d9521461045c5780635dd765151461047c578063645006ca1461048f57806366ec84191461049857806371134762146104ab578063715018a6146104be57600080fd5b80633f838d0d146103fa578063429873491461040d5780634595bba014610420578063485cc95514610440578063495223e71461045357600080fd5b80632a80cda3116102475780632a80cda314610337578063317dcc961461034a578063392e53cd1461035d5780633930a439146103815780633adba28a146103c05780633e413bee146103d357600080fd5b80630f1ef98c14610284578063133de6cb146102d0578063148172da146102e557806314ec32fa146102f8578063238c84941461032e575b600080fd5b6102bd61029236600461356c565b6001600160a01b03166000908152600460209081526040808320548352600390915290206001015490565b6040519081526020015b60405180910390f35b6102e36102de36600461356c565b610799565b005b6102e36102f3366004613590565b6107f6565b6102bd61030636600461356c565b6001600160a01b03166000908152600460209081526040808320548352600390915290205490565b6102bd600b5481565b6102e3610345366004613590565b610928565b6102e3610358366004613590565b6109b5565b60025461037190600160a01b900460ff1681565b60405190151581526020016102c7565b6103a87f000000000000000000000000000000000000000000000000000000000000000081565b6040516001600160a01b0390911681526020016102c7565b6102e36103ce3660046135a9565b6109f2565b6103a87f000000000000000000000000000000000000000000000000000000000000000081565b6102e36104083660046136f1565b610f47565b6102e361041b366004613590565b610fd4565b61043361042e36600461356c565b611075565b6040516102c791906137aa565b6102e361044e3660046137ee565b6110ee565b6102bd60095481565b61046f61046a36600461356c565b611181565b6040516102c791906138ef565b6102e361048a366004613590565b6113bf565b6102bd60075481565b6102e36104a6366004613590565b61145e565b6102e36104b9366004613970565b6115a9565b6102e361179c565b61046f6104d4366004613970565b6117b0565b6104ec6104e736600461356c565b611986565b6040516102c79190613a16565b6000546001600160a01b03166103a8565b610553610518366004613590565b600660205260009081526040902080546001820154600283015460038401546004909401546001600160a01b03938416949390921692909185565b604080516001600160a01b039687168152959094166020860152928401919091526060830152608082015260a0016102c7565b6102e3610594366004613590565b611a20565b6102e36105a7366004613a6e565b611ab7565b6102e36105ba366004613590565b611e13565b6105d26105cd366004613590565b611f1a565b6040516102c79190613afc565b6102bd600a5481565b61062f6105f6366004613590565b600560205260009081526040902080546009820154600a830154600b840154600c909401546001600160a01b0390931693919290919085565b604080516001600160a01b0390961686526020860194909452928401919091526060830152608082015260a0016102c7565b6102e361066f36600461356c565b612007565b6103a87f000000000000000000000000000000000000000000000000000000000000000081565b6102e36106a9366004613b0f565b6120bf565b6102e36106bc366004613590565b61217d565b600c546103a8906001600160a01b031681565b6001546103a8906001600160a01b031681565b6102bd60085481565b6102bd600d5481565b61070c610707366004613b84565b6122bb565b6040516102c79190613bf9565b6102e361072736600461356c565b612420565b6002546103a8906001600160a01b031681565b6102e361074d36600461356c565b612476565b610371610760366004613c89565b6001600160a01b038216600090815260046020908152604080832054835260038083528184208585520190915290205460ff1692915050565b6107a16124ef565b600280546001600160a01b0319166001600160a01b0383169081179091556040519081527f6e7665a41605edc0d70f4b991d652755f380754eb092d81ef9ab93664778d59e906020015b60405180910390a150565b3360009081526004602052604090205461082b5760405162461bcd60e51b815260040161082290613cb5565b60405180910390fd5b336000908152600460209081526040808320548084526003808452828520868652019092529091205460ff16156108a45760405162461bcd60e51b815260206004820152601860248201527f5573657220616c7265616479206f6e2064656e796c69737400000000000000006044820152606401610822565b60008181526003602081815260408084208685528084018352818520805460ff19166001908117909155938352600201805493840181558452922001839055517f976c693d56f27ba17d902bda80c4fa0416b773fbf268bcb0ee71689234d769ee9061091c9083908590918252602082015260400190565b60405180910390a15050565b6109306124ef565b806000036109805760405162461bcd60e51b815260206004820152601e60248201527f4d696e696d756d206465706f7369742063616e6e6f74206265207a65726f00006044820152606401610822565b60078190556040518181527fbdde72a6d8d8b42770c9899945ccdce09d0c5c794d3326cdb2d2cca61b12a9fc906020016107eb565b6109bd6124ef565b60098190556040518181527f88397975d177ce5e18abf3a5fdb8de773e80673d85eeb54f48cfaf688b3d2c3e906020016107eb565b33600090815260046020526040902054610a1e5760405162461bcd60e51b815260040161082290613cb5565b336000908152600460208181526040808420548785526005835281852080546001600160a01b031686529383528185205480865260038085528387208388520190935293205460ff1615610ab45760405162461bcd60e51b815260206004820181905260248201527f4f6e72616d706572206f6e206465706f7369746f7227732064656e796c6973746044820152606401610822565b6009546000848152600360205260409020600101544291610ad491613d02565b1115610b2e5760405162461bcd60e51b8152602060048201526024808201527f4f6e2072616d7020636f6f6c20646f776e20706572696f64206e6f7420656c616044820152631c1cd95960e21b6064820152608401610822565b60008381526003602052604090205415610b8a5760405162461bcd60e51b815260206004820152601860248201527f496e74656e74207374696c6c206f75747374616e64696e6700000000000000006044820152606401610822565b828103610bd95760405162461bcd60e51b815260206004820152601e60248201527f53656e6465722063616e6e6f7420626520746865206465706f7369746f7200006044820152606401610822565b81546001600160a01b0316610c295760405162461bcd60e51b815260206004820152601660248201527511195c1bdcda5d08191bd95cc81b9bdd08195e1a5cdd60521b6044820152606401610822565b60008511610c885760405162461bcd60e51b815260206004820152602660248201527f5369676e616c656420616d6f756e74206d75737420626520677265617465722060448201526507468616e20360d41b6064820152608401610822565b600854851115610cf75760405162461bcd60e51b815260206004820152603460248201527f5369676e616c656420616d6f756e74206d757374206265206c657373207468616044820152731b881b585e081bdb8b5c985b5c08185b5bdd5b9d60621b6064820152608401610822565b6001600160a01b038416610d4d5760405162461bcd60e51b815260206004820152601b60248201527f43616e6e6f742073656e6420746f207a65726f206164647265737300000000006044820152606401610822565b6000610d598488612549565b90508583600a01541015610e0e57600080610d73896125b4565b91509150878186600a0154610d889190613d02565b1015610dcd5760405162461bcd60e51b81526020600482015260146024820152734e6f7420656e6f756768206c697175696469747960601b6044820152606401610822565b610dd7858361275c565b8085600a016000828254610deb9190613d02565b925050819055508085600b016000828254610e069190613d15565b909155505050505b6040805160a0810182523381526001600160a01b0387811660208084019182528385018c8152606085018c81524260808701908152600089815260068552888120975188549088166001600160a01b0319918216178955955160018901805491909816961695909517909555905160028601555160038086019190915592516004909401939093558781529152908120829055600a84018054889290610eb5908490613d15565b925050819055508583600b016000828254610ed09190613d02565b9091555050600d83018054600181018255600091825260209182902001829055604080516001600160a01b038816815291820188905242908201528490889083907f1a1292e170a0f000ccf956afba79bee0f9ec1d81f3f901c1d4d11e1f336aae109060600160405180910390a450505050505050565b6000806000610f58878787876127be565b925092509250610f688282612ac4565b826060015182600b016000828254610f809190613d15565b909155505082516001600160a01b0316600090815260046020908152604080832054835260039091529081902042600190910155830151610fc19083612b9d565b610fcb8184612c88565b50505050505050565b610fdc6124ef565b806000036110405760405162461bcd60e51b815260206004820152602b60248201527f4d617820696e74656e742065787069726174696f6e20706572696f642063616e60448201526a6e6f74206265207a65726f60a81b6064820152608401610822565b600a8190556040518181527f55e3f6b95de9a0ec782f892e93fafe4e56be0696df204ddf8e0a40a9a713a803906020016107eb565b6001600160a01b038116600090815260046020908152604080832054835260038252918290206002018054835181840281018401909452808452606093928301828280156110e257602002820191906000526020600020905b8154815260200190600101908083116110ce575b50505050509050919050565b6110f66124ef565b600254600160a01b900460ff16156111465760405162461bcd60e51b8152602060048201526013602482015272105b1c9958591e481a5b9a5d1a585b1a5e9959606a1b6044820152606401610822565b600180546001600160a01b039384166001600160a01b0319909116179055600280546001600160a81b0319169190921617600160a01b179055565b6001600160a01b03811660009081526004602090815260408083206001018054825181850281018501909352808352606094938301828280156111e357602002820191906000526020600020905b8154815260200190600101908083116111cf575b50505050509050805167ffffffffffffffff811115611204576112046135e2565b60405190808252806020026020018201604052801561123d57816020015b61122a613366565b8152602001906001900390816112225790505b50915060005b81518110156113b857600082828151811061126057611260613d28565b6020908102919091018101516000818152600583526040808220815160e08101835281546001600160a01b031681528251610100810190935293955091938301906001830160088282826020028201915b8154815260200190600101908083116112b1575050505050815260200160098201548152602001600a8201548152602001600b8201548152602001600c8201548152602001600d820180548060200260200160405190810160405280929190818152602001828054801561134457602002820191906000526020600020905b815481526020019060010190808311611330575b5050505050815250509050600061135a836125b4565b91505060405180606001604052808481526020018381526020018284606001516113849190613d02565b81525086858151811061139957611399613d28565b6020026020010181905250505050806113b190613d3e565b9050611243565b5050919050565b6113c76124ef565b66b1a2bc2ec500008111156114295760405162461bcd60e51b815260206004820152602260248201527f4665652063616e6e6f742062652067726561746572207468616e206d61782066604482015261656560f01b6064820152608401610822565b600b8190556040518181527f44f48e1b871e6db1e909a7b253b054b7150a0b4ddf4d59b159c827d82e725670906020016107eb565b6000818152600660209081526040808320815160a08101835281546001600160a01b0390811682526001830154811682860152600283015482850181905260038401546060840152600490930154608083015291855260059093529220815191929091166114de5760405162461bcd60e51b815260040161082290613d57565b80546001600160a01b031633146115375760405162461bcd60e51b815260206004820152601c60248201527f43616c6c6572206d75737420626520746865206465706f7369746f72000000006044820152606401610822565b6115418184612ac4565b816060015181600b0160008282546115599190613d15565b909155505081516001600160a01b031660009081526004602090815260408083205483526003909152908190204260019091015582015161159a9082612b9d565b6115a48383612c88565b505050565b6000805b825181101561170a5760008382815181106115ca576115ca613d28565b6020908102919091018101516000818152600590925260409091208054919250906001600160a01b031633146116425760405162461bcd60e51b815260206004820152601c60248201527f53656e646572206d75737420626520746865206465706f7369746f72000000006044820152606401610822565b60008061164e846125b4565b9150915061165c838361275c565b8083600a015461166c9190613d02565b6116769087613d02565b95508083600b01600082825461168c9190613d15565b90915550508254600a8401546001600160a01b039091169085907fae1f357660ab777dcfd38c0ab6357834684ec26289ecfa07ec65dbf6c3c64312906116d3908590613d02565b60405190815260200160405180910390a36000600a8401556116f58484612b9d565b505050508061170390613d3e565b90506115ad565b5060405163a9059cbb60e01b8152336004820152602481018290527f00000000000000000000000000000000000000000000000000000000000000006001600160a01b03169063a9059cbb906044016020604051808303816000875af1158015611778573d6000803e3d6000fd5b505050506040513d601f19601f820116820180604052508101906115a49190613d86565b6117a46124ef565b6117ae6000612e66565b565b6060815167ffffffffffffffff8111156117cc576117cc6135e2565b60405190808252806020026020018201604052801561180557816020015b6117f2613366565b8152602001906001900390816117ea5790505b50905060005b825181101561198057600083828151811061182857611828613d28565b6020908102919091018101516000818152600583526040808220815160e08101835281546001600160a01b031681528251610100810190935293955091938301906001830160088282826020028201915b815481526020019060010190808311611879575050505050815260200160098201548152602001600a8201548152602001600b8201548152602001600c8201548152602001600d820180548060200260200160405190810160405280929190818152602001828054801561190c57602002820191906000526020600020905b8154815260200190600101908083116118f8575b50505050508152505090506000611922836125b4565b915050604051806060016040528084815260200183815260200182846060015161194c9190613d02565b81525085858151811061196157611961613d28565b60200260200101819052505050508061197990613d3e565b905061180b565b50919050565b6040805180820190915260008152606060208201526001600160a01b038216600090815260046020908152604091829020825180840184528154815260018201805485518186028101860190965280865291949293858101939290830182828015611a1057602002820191906000526020600020905b8154815260200190600101908083116119fc575b5050505050815250509050919050565b611a286124ef565b80600003611a825760405162461bcd60e51b815260206004820152602160248201527f4d6178206f6e2072616d7020616d6f756e742063616e6e6f74206265207a65726044820152606f60f81b6064820152608401610822565b60088190556040518181527fcab6b49ca21dd111cf4a55d507bbe89dd12d69216e28247060d4b2163ca41b39906020016107eb565b33600090815260046020526040902054611ae35760405162461bcd60e51b815260040161082290613cb5565b33600090815260046020526040902060010154600511611b455760405162461bcd60e51b815260206004820152601e60248201527f4d6178696d756d206465706f73697420616d6f756e74207265616368656400006044820152606401610822565b600754821015611bb65760405162461bcd60e51b815260206004820152603660248201527f4465706f73697420616d6f756e74206d757374206265206772656174657220746044820152751a185b881b5a5b8819195c1bdcda5d08185b5bdd5b9d60521b6064820152608401610822565b60008111611c145760405162461bcd60e51b815260206004820152602560248201527f5265636569766520616d6f756e74206d75737420626520677265617465722074604482015264068616e20360dc1b6064820152608401610822565b600081611c29670de0b6b3a764000085613da8565b611c339190613dd5565b600d80549192506000919082611c4883613d3e565b9091555033600081815260046020908152604080832060018082018054808301825590865284862001879055825160e0810184529586528584018c81528684018c9052606087018c90526080870186905260a087018a90528351868152808601855260c0880152878652600590945291909320845181546001600160a01b0319166001600160a01b03909116178155915194955091939091611cef9190830190600861338d565b50604082015160098201556060820151600a8201556080820151600b82015560a0820151600c82015560c08201518051611d3391600d8401916020909101906133cb565b50506040516323b872dd60e01b8152336004820152306024820152604481018790527f00000000000000000000000000000000000000000000000000000000000000006001600160a01b031691506323b872dd906064016020604051808303816000875af1158015611da9573d6000803e3d6000fd5b505050506040513d601f19601f82011682018060405250810190611dcd9190613d86565b508054604080518781526020810186905284917f36b046df2c296f2a5a78570d5e52a92773cbb616825b1af59a49a4d02df2b109910160405180910390a3505050505050565b33600090815260046020526040902054611e3f5760405162461bcd60e51b815260040161082290613cb5565b336000908152600460209081526040808320548084526003808452828520868652019092529091205460ff16611eae5760405162461bcd60e51b8152602060048201526014602482015273155cd95c881b9bdd081bdb8819195b9e5b1a5cdd60621b6044820152606401610822565b60008181526003602081815260408084208685528084018352908420805460ff191690559284905252611ee49060020183612eb6565b60408051828152602081018490527f8935205b1b382095d2d95efbb36f81a11a34c548d45af26adc1a02d2f2bb546f910161091c565b611f22613405565b600082815260056020908152604091829020825160e08101845281546001600160a01b03168152835161010081019485905290939192840191600184019060089082845b815481526020019060010190808311611f66575050505050815260200160098201548152602001600a8201548152602001600b8201548152602001600c8201548152602001600d8201805480602002602001604051908101604052809291908181526020018280548015611a1057602002820191906000526020600020908154815260200190600101908083116119fc575050505050815250509050919050565b61200f6124ef565b6001600160a01b0381166120715760405162461bcd60e51b8152602060048201526024808201527f46656520726563697069656e742063616e6e6f74206265207a65726f206164646044820152637265737360e01b6064820152608401610822565b600c80546001600160a01b0319166001600160a01b0383169081179091556040519081527f594ad6ee98bfc0c73e6d15fd4e762502f359e05d26907b7fa1ff82eb5e99f6e4906020016107eb565b336000908152600460205260409020541561212b5760405162461bcd60e51b815260206004820152602660248201527f4163636f756e7420616c7265616479206173736f6369617465642077697468206044820152650d2c890c2e6d60d31b6064820152608401610822565b600061213985858585612fdf565b336000818152600460205260408082208490555192935083927f672144042732f7b1cdbf0772464ae545aedd7f41d38b8487dafd9085496a5d519190a35050505050565b6000818152600660209081526040808320815160a08101835281546001600160a01b039081168252600183015416938101939093526002810154918301919091526003810154606083015260040154608082018190529091036121f25760405162461bcd60e51b815260040161082290613d57565b336000908152600460205260408082205483516001600160a01b03168352912054146122605760405162461bcd60e51b815260206004820152601c60248201527f53656e646572206d75737420626520746865206f6e2d72616d706572000000006044820152606401610822565b604080820151600090815260056020522061227b8184612ac4565b816060015181600a0160008282546122939190613d02565b90915550506060820151600b820180546000906122b1908490613d15565b9091555050505050565b606060008267ffffffffffffffff8111156122d8576122d86135e2565b60405190808252806020026020018201604052801561231157816020015b6122fe613451565b8152602001906001900390816122f65790505b50905060005b8381101561241657600085858381811061233357612333613d28565b60209081029290920135600081815260068452604090819020815160a08101835281546001600160a01b039081168252600183015416958101959095526002810154858301526003810154606080870191909152600490910154608086015281519081019091529093509050808888868181106123b2576123b2613d28565b6020908102929092013583525081810184905283516001600160a01b0316600090815260049091526040908190205491015284518590859081106123f8576123f8613d28565b602002602001018190525050508061240f90613d3e565b9050612317565b5090505b92915050565b6124286124ef565b600180546001600160a01b0319166001600160a01b0383169081179091556040519081527f73d3ac111d5926fbfd68ade03832f0b1a4daef0cd0effc1fa0829264bcc57c41906020016107eb565b61247e6124ef565b6001600160a01b0381166124e35760405162461bcd60e51b815260206004820152602660248201527f4f776e61626c653a206e6577206f776e657220697320746865207a65726f206160448201526564647265737360d01b6064820152608401610822565b6124ec81612e66565b50565b6000546001600160a01b031633146117ae5760405162461bcd60e51b815260206004820181905260248201527f4f776e61626c653a2063616c6c6572206973206e6f7420746865206f776e65726044820152606401610822565b6040805160208101849052908101829052426060820152600090819060800160408051601f19818403018152919052805160209091012090506125ac7f30644e72e131a029b85045b68181585d2833e84879b9709143e1f593f000000182613de9565b949350505050565b6000818152600560209081526040808320600d01805482518185028101850190935280835260609493849392919083018282801561261157602002820191906000526020600020905b8154815260200190600101908083116125fd575b50505050509050805167ffffffffffffffff811115612632576126326135e2565b60405190808252806020026020018201604052801561265b578160200160208202803683370190505b50925060005b81518110156127555760006006600084848151811061268257612682613d28565b6020908102919091018101518252818101929092526040908101600020815160a08101835281546001600160a01b03908116825260018301541693810193909352600281015491830191909152600381015460608301526004015460808201819052600a5491925042916126f591613d02565b10156127445782828151811061270d5761270d613d28565b602002602001015185838151811061272757612727613d28565b602090810291909101015260608101516127419085613d02565b93505b5061274e81613d3e565b9050612661565b5050915091565b60005b81518110156115a4576000801b82828151811061277e5761277e613d28565b6020026020010151146127ae576127ae838383815181106127a1576127a1613d28565b6020026020010151612ac4565b6127b781613d3e565b905061275f565b6127c6613479565b600254604080516080810182528781526020810187905280820186905260608101859052905163bf93fde160e01b81526000928392839283928392839283926001600160a01b03169163bf93fde1916128229190600401613e4e565b60a0604051808303816000875af1158015612841573d6000803e3d6000fd5b505050506040513d601f19601f820116820180604052508101906128659190613ebd565b6000818152600660209081526040808320815160a08101835281546001600160a01b03908116825260018301548116828601526002830154828501819052600384015460608401526004909301546080830152918552600590935292208151979c50959a5093985091965094509092166128f15760405162461bcd60e51b815260040161082290613d57565b85826080015111156129505760405162461bcd60e51b815260206004820152602260248201527f496e74656e7420776173206e6f742063726561746564206265666f72652073656044820152611b9960f21b6064820152608401610822565b60408051610100810191829052869161298c9190600185019060089082845b81548152602001906001019080831161296f57505050505061307f565b146129d95760405162461bcd60e51b815260206004820152601b60248201527f4f666672616d70657220696420646f6573206e6f74206d6174636800000000006044820152606401610822565b81516001600160a01b03166000908152600460205260409020548414612a415760405162461bcd60e51b815260206004820152601a60248201527f4f6e72616d70657220696420646f6573206e6f74206d617463680000000000006044820152606401610822565b80600c0154670de0b6b3a76400008360600151612a5e9190613da8565b612a689190613dd5565b871015612ab05760405162461bcd60e51b81526020600482015260166024820152750a0c2f2dacadce840eec2e640dcdee840cadcdeeaced60531b6044820152606401610822565b909d909c50909a5098505050505050505050565b6000818152600660208181526040808420815160a08101835281546001600160a01b039081168083526001840180549092168387015260028401805484870152600380860180546060870152600480880180546080890152948c528952878b20548b529088529589208990558989529690955282546001600160a01b031990811690935580549092169091559284905583905591909155612b68600d840183612eb6565b604080820151905183907fe8a865b4bab023c399cbd1f2cdd0df2199beb6e5012a4bd2d7691cf7e4199d5a90600090a3505050565b600081600a015482600b0154612bb39190613d02565b9050806000036115a45781546001600160a01b03166000908152600460205260409020612be3906001018461320e565b8154604080518581526001600160a01b0390921660208301527f8ac07cc6e38c6222dd0309c80353c1962354bacf222b825d7401cc80e93ff3cc910160405180910390a1600083815260056020526040812080546001600160a01b031916815590612c5160018301826134ba565b6009820160009055600a820160009055600b820160009055600c820160009055600d82016000612c8191906134c9565b5050505050565b6000600b54600014612d5457670de0b6b3a7640000600b548360600151612caf9190613da8565b612cb99190613dd5565b600c5460405163a9059cbb60e01b81526001600160a01b039182166004820152602481018390529192507f0000000000000000000000000000000000000000000000000000000000000000169063a9059cbb906044016020604051808303816000875af1158015612d2e573d6000803e3d6000fd5b505050506040513d601f19601f82011682018060405250810190612d529190613d86565b505b6000818360600151612d669190613d15565b602084015160405163a9059cbb60e01b81526001600160a01b039182166004820152602481018390529192507f0000000000000000000000000000000000000000000000000000000000000000169063a9059cbb906044016020604051808303816000875af1158015612ddd573d6000803e3d6000fd5b505050506040513d601f19601f82011682018060405250810190612e019190613d86565b50825160408085015160208087015183516001600160a01b03918216815291820186905292810186905291909216919086907ffa03438194e61c243c6bb5349f1e1dc674431b86f119b5e3b2b327bc43446bce9060600160405180910390a450505050565b600080546001600160a01b038381166001600160a01b0319831681178455604051919092169283917f8be0079c531659141344cd1fd0a4f28419497f9722a3daafe3b4186f6b6457e09190a35050565b600080612f1284805480602002602001604051908101604052809291908181526020018280548015612f0757602002820191906000526020600020905b815481526020019060010190808311612ef3575b5050505050846132b3565b9150915080612f5b5760405162461bcd60e51b8152602060048201526015602482015274313cba32b99999103737ba1034b71030b93930bc9760591b6044820152606401610822565b8354600090612f6c90600190613d15565b9050808314612fb157848181548110612f8757612f87613d28565b9060005260206000200154858481548110612fa457612fa4613d28565b6000918252602090912001555b84805480612fc157612fc1613efd565b60019003818190600052602060002001600090559055505b50505050565b6001546040805160808101825286815260208101869052808201859052606081018490529051630be4767960e11b815260009283926001600160a01b03909116916317c8ecf29161303291600401613f13565b6020604051808303816000875af1158015613051573d6000803e3d6000fd5b505050506040513d601f19601f820116820180604052508101906130759190613f78565b9695505050505050565b60006130896134e7565b613091613505565b60005b60068110156130db578481600881106130af576130af613d28565b60200201518382600681106130c6576130c6613d28565b60200201526130d481613d3e565b9050613094565b50604051631eb694f160e31b81526001600160a01b037f0000000000000000000000000000000000000000000000000000000000000000169063f5b4a78890613128908590600401613f91565b602060405180830381865afa158015613145573d6000803e3d6000fd5b505050506040513d601f19601f820116820180604052508101906131699190613f78565b815260c0840151602082015260e0840151604080830191909152516304b98e1d60e31b81527f00000000000000000000000000000000000000000000000000000000000000006001600160a01b0316906325cc70e8906131cd908490600401613fc2565b602060405180830381865afa1580156131ea573d6000803e3d6000fd5b505050506040513d601f19601f820116820180604052508101906125ac9190613f78565b60008061326a8480548060200260200160405190810160405280929190818152602001828054801561325f57602002820191906000526020600020905b81548152602001906001019080831161324b575b505050505084613316565b9150915080612f5b5760405162461bcd60e51b81526020600482015260156024820152743ab4b73a191a9b103737ba1034b71030b93930bc9760591b6044820152606401610822565b81516000908190815b8181101561330357848682815181106132d7576132d7613d28565b6020026020010151036132f15792506001915061330f9050565b806132fb81613d3e565b9150506132bc565b50600019600092509250505b9250929050565b81516000908190815b81811015613303578486828151811061333a5761333a613d28565b6020026020010151036133545792506001915061330f9050565b8061335e81613d3e565b91505061331f565b604051806060016040528060008152602001613380613405565b8152602001600081525090565b82600881019282156133bb579160200282015b828111156133bb5782518255916020019190600101906133a0565b506133c7929150613523565b5090565b8280548282559060005260206000209081019282156133bb57916020028201828111156133bb5782518255916020019190600101906133a0565b6040518060e0016040528060006001600160a01b03168152602001613428613538565b815260200160008152602001600081526020016000815260200160008152602001606081525090565b6040805160608101909152600081526020810161346c613479565b8152600060209091015290565b6040518060a0016040528060006001600160a01b0316815260200160006001600160a01b031681526020016000815260200160008152602001600081525090565b506124ec906008810190613523565b50805460008255906000526020600020908101906124ec9190613523565b6040518060c001604052806006906020820280368337509192915050565b60405180606001604052806003906020820280368337509192915050565b5b808211156133c75760008155600101613524565b6040518061010001604052806008906020820280368337509192915050565b6001600160a01b03811681146124ec57600080fd5b60006020828403121561357e57600080fd5b813561358981613557565b9392505050565b6000602082840312156135a257600080fd5b5035919050565b6000806000606084860312156135be57600080fd5b833592506020840135915060408401356135d781613557565b809150509250925092565b634e487b7160e01b600052604160045260246000fd5b6040805190810167ffffffffffffffff8111828210171561361b5761361b6135e2565b60405290565b604051601f8201601f1916810167ffffffffffffffff8111828210171561364a5761364a6135e2565b604052919050565b600082601f83011261366357600080fd5b61366b6135f8565b80604084018581111561367d57600080fd5b845b8181101561369757803584526020938401930161367f565b509095945050505050565b600082601f8301126136b357600080fd5b6136bb6135f8565b8060808401858111156136cd57600080fd5b845b81811015613697576136e18782613652565b84526020909301926040016136cf565b6000806000806102e080868803121561370957600080fd5b6137138787613652565b945061372287604088016136a2565b93506137318760c08801613652565b92508661011f87011261374357600080fd5b6040516101e0810181811067ffffffffffffffff82111715613767576137676135e2565b60405290860190808883111561377c57600080fd5b61010088015b8381101561379a578035825260209182019101613782565b5050809250505092959194509250565b6020808252825182820181905260009190848201906040850190845b818110156137e2578351835292840192918401916001016137c6565b50909695505050505050565b6000806040838503121561380157600080fd5b823561380c81613557565b9150602083013561381c81613557565b809150509250929050565b600081518084526020808501945080840160005b838110156138575781518752958201959082019060010161383b565b509495945050505050565b80516001600160a01b031682526020808201516000916101c091818601845b600881101561389e57825182529183019190830190600101613881565b5050505060408301516101208501526060830151610140850152608083015161016085015260a083015161018085015260c0830151816101a08601526138e682860182613827565b95945050505050565b60006020808301818452808551808352604092508286019150828160051b87010184880160005b8381101561396257603f19898403018552815160608151855288820151818a87015261394482870182613862565b92890151958901959095525094870194925090860190600101613916565b509098975050505050505050565b6000602080838503121561398357600080fd5b823567ffffffffffffffff8082111561399b57600080fd5b818501915085601f8301126139af57600080fd5b8135818111156139c1576139c16135e2565b8060051b91506139d2848301613621565b81815291830184019184810190888411156139ec57600080fd5b938501935b83851015613a0a578435825293850193908501906139f1565b98975050505050505050565b60208082528251828201528281015160408084015280516060840181905260009291820190839060808601905b80831015613a635783518252928401926001929092019190840190613a43565b509695505050505050565b60008060006101408486031215613a8457600080fd5b84601f850112613a9357600080fd5b60405161010080820182811067ffffffffffffffff82111715613ab857613ab86135e2565b60405285018187821115613acb57600080fd5b865b82811015613ae5578035825260209182019101613acd565b509197903596506101209590950135949350505050565b6020815260006135896020830184613862565b6000806000806101a0808688031215613b2757600080fd5b613b318787613652565b9450613b4087604088016136a2565b9350613b4f8760c08801613652565b92508661011f870112613b6157600080fd5b60405160a0810181811067ffffffffffffffff82111715613767576137676135e2565b60008060208385031215613b9757600080fd5b823567ffffffffffffffff80821115613baf57600080fd5b818501915085601f830112613bc357600080fd5b813581811115613bd257600080fd5b8660208260051b8501011115613be757600080fd5b60209290920196919550909350505050565b602080825282518282018190526000919060409081850190868401855b82811015613c7c578151805185528681015180516001600160a01b039081168988015281890151168787015286810151606080880191909152810151608080880191909152015160a086015285015160c085015260e09093019290850190600101613c16565b5091979650505050505050565b60008060408385031215613c9c57600080fd5b8235613ca781613557565b946020939093013593505050565b6020808252601e908201527f43616c6c6572206d757374206265207265676973746572656420757365720000604082015260600190565b634e487b7160e01b600052601160045260246000fd5b8082018082111561241a5761241a613cec565b8181038181111561241a5761241a613cec565b634e487b7160e01b600052603260045260246000fd5b600060018201613d5057613d50613cec565b5060010190565b602080825260159082015274125b9d195b9d08191bd95cc81b9bdd08195e1a5cdd605a1b604082015260600190565b600060208284031215613d9857600080fd5b8151801515811461358957600080fd5b808202811582820484141761241a5761241a613cec565b634e487b7160e01b600052601260045260246000fd5b600082613de457613de4613dbf565b500490565b600082613df857613df8613dbf565b500690565b8060005b6002811015612fd9578151845260209384019390910190600101613e01565b8060005b6002811015612fd957613e38848351613dfd565b6040939093019260209190910190600101613e24565b60006102e082019050613e62828451613dfd565b602080840151613e756040850182613e20565b506040840151613e8860c0850182613dfd565b506060840151610100840160005b600f811015613eb357825182529183019190830190600101613e96565b5050505092915050565b600080600080600060a08688031215613ed557600080fd5b5050835160208501516040860151606087015160809097015192989197509594509092509050565b634e487b7160e01b600052603160045260246000fd5b60006101a082019050613f27828451613dfd565b602080840151613f3a6040850182613e20565b506040840151613f4d60c0850182613dfd565b506060840151610100840160005b6005811015613eb357825182529183019190830190600101613f5b565b600060208284031215613f8a57600080fd5b5051919050565b60c08101818360005b6006811015613fb9578151835260209283019290910190600101613f9a565b50505092915050565b60608101818360005b6003811015613fb9578151835260209283019290910190600101613fcb56fea2646970667358221220c00812e76066a43a3b32a1497fd6bf724ee43afeeacc7f266f707633cbe8a4de64736f6c63430008120033",
  "devdoc": {
    "kind": "dev",
    "methods": {
      "addAccountToDenylist(bytes32)": {
        "params": {
          "_deniedUser": "Poseidon hash of the idHash being banned"
        }
      },
      "cancelIntent(bytes32)": {
        "params": {
          "_intentHash": "Hash of intent being cancelled"
        }
      },
      "initialize(address,address)": {
        "params": {
          "_registrationProcessor": "Registration processor address",
          "_sendProcessor": "Send processor address"
        }
      },
      "offRamp(uint256[8],uint256,uint256)": {
        "params": {
          "_depositAmount": "The amount of USDC to off-ramp",
          "_receiveAmount": "The amount of USD to receive",
          "_upiId": "The upi ID of the depositor"
        }
      },
      "onRamp(uint256[2],uint256[2][2],uint256[2],uint256[15])": {
        "params": {
          "_a": "Parameter of zk proof",
          "_b": "Parameter of zk proof",
          "_c": "Parameter of zk proof",
          "_signals": "Encoded public signals of the zk proof, contains mailserverHash, fromEmail, timestamp, onRamperIdHash,                  nullifier, intentHash"
        }
      },
      "owner()": {
        "details": "Returns the address of the current owner."
      },
      "register(uint256[2],uint256[2][2],uint256[2],uint256[5])": {
        "params": {
          "_a": "Parameter of zk proof",
          "_b": "Parameter of zk proof",
          "_c": "Parameter of zk proof",
          "_signals": "Encoded public signals of the zk proof, contains mailserverHash, fromEmail, userIdHash"
        }
      },
      "releaseFundsToOnramper(bytes32)": {
        "params": {
          "_intentHash": "Hash of intent to resolve by releasing the funds"
        }
      },
      "removeAccountFromDenylist(bytes32)": {
        "params": {
          "_approvedUser": "Poseidon hash of the idHash being approved"
        }
      },
      "renounceOwnership()": {
        "details": "Leaves the contract without owner. It will not be possible to call `onlyOwner` functions. Can only be called by the current owner. NOTE: Renouncing ownership will leave the contract without an owner, thereby disabling any functionality that is only available to the owner."
      },
      "setIntentExpirationPeriod(uint256)": {
        "params": {
          "_intentExpirationPeriod": "New intent expiration period"
        }
      },
      "setMaxOnRampAmount(uint256)": {
        "params": {
          "_maxOnRampAmount": "The new max on ramp amount"
        }
      },
      "setMinDepositAmount(uint256)": {
        "params": {
          "_minDepositAmount": "The new minimum deposit amount"
        }
      },
      "setOnRampCooldownPeriod(uint256)": {
        "params": {
          "_onRampCooldownPeriod": "New on-ramp cooldown period"
        }
      },
      "setRegistrationProcessor(address)": {
        "params": {
          "_registrationProcessor": "New registration proccesor address"
        }
      },
      "setSendProcessor(address)": {
        "params": {
          "_sendProcessor": "New send proccesor address"
        }
      },
      "setSustainabilityFee(uint256)": {
        "params": {
          "_fee": "The new sustainability fee in precise units (10**18, ie 10% = 1e17)"
        }
      },
      "setSustainabilityFeeRecipient(address)": {
        "params": {
          "_feeRecipient": "The new fee recipient address"
        }
      },
      "signalIntent(uint256,uint256,address)": {
        "params": {
          "_amount": "The amount of USDC the user wants to on-ramp",
          "_depositId": "The ID of the deposit the on-ramper intends to use for ",
          "_to": "Address to forward funds to (can be same as onRamper)"
        }
      },
      "transferOwnership(address)": {
        "details": "Transfers ownership of the contract to a new account (`newOwner`). Can only be called by the current owner."
      },
      "withdrawDeposit(uint256[])": {
        "params": {
          "_depositIds": "Array of depositIds the depositor is attempting to withdraw"
        }
      }
    },
    "version": 1
  },
  "userdoc": {
    "kind": "user",
    "methods": {
      "addAccountToDenylist(bytes32)": {
        "notice": "Adds an idHash to a depositor's deny list. If an address associated with the banned idHash attempts to signal an intent on the user's deposit they will be denied."
      },
      "cancelIntent(bytes32)": {
        "notice": "Only callable by the originator of the intent. Cancels an outstanding intent thus allowing user to signal a new intent. Deposit state is updated to reflect the cancelled intent."
      },
      "initialize(address,address)": {
        "notice": "Initialize Ramp with the addresses of the Processors"
      },
      "offRamp(uint256[8],uint256,uint256)": {
        "notice": "Generates a deposit entry for off-rampers that can then be fulfilled by an on-ramper. This function will not add to previous deposits. Every deposit has it's own unique identifier. User must approve the contract to transfer the deposit amount of USDC."
      },
      "onRamp(uint256[2],uint256[2][2],uint256[2],uint256[15])": {
        "notice": "Anyone can submit an on-ramp transaction, even if caller isn't on-ramper. Upon submission the proof is validated, intent is removed, and deposit state is updated. USDC is transferred to the on-ramper."
      },
      "register(uint256[2],uint256[2][2],uint256[2],uint256[5])": {
        "notice": "Registers a new account by pulling the hash of the account id from the proof and assigning the account owner to the sender of the transaction. One HDFC account can be registered to multiple Ethereum addresses."
      },
      "releaseFundsToOnramper(bytes32)": {
        "notice": "Allows off-ramper to release funds to the on-ramper in case of a failed on-ramp or because of some other arrangement between the two parties. Upon submission we check to make sure the msg.sender is the depositor, the  intent is removed, and  deposit state is updated. USDC is transferred to the on-ramper."
      },
      "removeAccountFromDenylist(bytes32)": {
        "notice": "Removes a idHash from a depositor's deny list."
      },
      "setIntentExpirationPeriod(uint256)": {
        "notice": "GOVERNANCE ONLY: Updates the intent expiration period, after this period elapses an intent can be pruned to prevent locking up a depositor's funds."
      },
      "setMaxOnRampAmount(uint256)": {
        "notice": "GOVERNANCE ONLY: Updates the max amount allowed to be on-ramped in each transaction. To on-ramp more than this amount a user must make multiple transactions."
      },
      "setMinDepositAmount(uint256)": {
        "notice": "GOVERNANCE ONLY: Updates the minimum deposit amount a user can specify for off-ramping."
      },
      "setOnRampCooldownPeriod(uint256)": {
        "notice": "GOVERNANCE ONLY: Updates the on-ramp cooldown period, once an on-ramp transaction is completed the user must wait this amount of time before they can signalIntent to on-ramp again."
      },
      "setRegistrationProcessor(address)": {
        "notice": "GOVERNANCE ONLY: Updates the registration processor address used for validating and interpreting zk proofs."
      },
      "setSendProcessor(address)": {
        "notice": "GOVERNANCE ONLY: Updates the send processor address used for validating and interpreting zk proofs."
      },
      "setSustainabilityFee(uint256)": {
        "notice": "GOVERNANCE ONLY: Updates the sustainability fee. This fee is charged to on-rampers upon a successful on-ramp."
      },
      "setSustainabilityFeeRecipient(address)": {
        "notice": "GOVERNANCE ONLY: Updates the recepient of sustainability fees."
      },
      "signalIntent(uint256,uint256,address)": {
        "notice": "Signals intent to pay the depositor defined in the _depositId the _amount * deposit conversionRate off-chain in order to unlock _amount of funds on-chain. Each user can only have one outstanding intent at a time regardless of address (tracked using idHash). Caller must not be on the depositor's deny list. If there are prunable intents then they will be deleted from the deposit to be able to maintain state hygiene."
      },
      "withdrawDeposit(uint256[])": {
        "notice": "Caller must be the depositor for each depositId in the array, if not whole function fails. Depositor is returned all remaining deposits and any outstanding intents that are expired. If an intent is not expired then those funds will not be returned. Deposit will be deleted as long as there are no more outstanding intents."
      }
    },
    "version": 1
  },
  "storageLayout": {
    "storage": [
      {
        "astId": 7,
        "contract": "contracts/ramps/hdfc/HDFCRamp.sol:HDFCRamp",
        "label": "_owner",
        "offset": 0,
        "slot": "0",
        "type": "t_address"
      },
      {
        "astId": 1018,
        "contract": "contracts/ramps/hdfc/HDFCRamp.sol:HDFCRamp",
        "label": "registrationProcessor",
        "offset": 0,
        "slot": "1",
        "type": "t_contract(IRegistrationProcessor)3073"
      },
      {
        "astId": 1021,
        "contract": "contracts/ramps/hdfc/HDFCRamp.sol:HDFCRamp",
        "label": "sendProcessor",
        "offset": 0,
        "slot": "2",
        "type": "t_contract(IHDFCSendProcessor)3043"
      },
      {
        "astId": 1023,
        "contract": "contracts/ramps/hdfc/HDFCRamp.sol:HDFCRamp",
        "label": "isInitialized",
        "offset": 20,
        "slot": "2",
        "type": "t_bool"
      },
      {
        "astId": 1028,
        "contract": "contracts/ramps/hdfc/HDFCRamp.sol:HDFCRamp",
        "label": "globalAccount",
        "offset": 0,
        "slot": "3",
        "type": "t_mapping(t_bytes32,t_struct(GlobalAccountInfo)976_storage)"
      },
      {
        "astId": 1033,
        "contract": "contracts/ramps/hdfc/HDFCRamp.sol:HDFCRamp",
        "label": "accounts",
        "offset": 0,
        "slot": "4",
        "type": "t_mapping(t_address,t_struct(AccountInfo)915_storage)"
      },
      {
        "astId": 1038,
        "contract": "contracts/ramps/hdfc/HDFCRamp.sol:HDFCRamp",
        "label": "deposits",
        "offset": 0,
        "slot": "5",
        "type": "t_mapping(t_uint256,t_struct(Deposit)933_storage)"
      },
      {
        "astId": 1043,
        "contract": "contracts/ramps/hdfc/HDFCRamp.sol:HDFCRamp",
        "label": "intents",
        "offset": 0,
        "slot": "6",
        "type": "t_mapping(t_bytes32,t_struct(Intent)952_storage)"
      },
      {
        "astId": 1045,
        "contract": "contracts/ramps/hdfc/HDFCRamp.sol:HDFCRamp",
        "label": "minDepositAmount",
        "offset": 0,
        "slot": "7",
        "type": "t_uint256"
      },
      {
        "astId": 1047,
        "contract": "contracts/ramps/hdfc/HDFCRamp.sol:HDFCRamp",
        "label": "maxOnRampAmount",
        "offset": 0,
        "slot": "8",
        "type": "t_uint256"
      },
      {
        "astId": 1049,
        "contract": "contracts/ramps/hdfc/HDFCRamp.sol:HDFCRamp",
        "label": "onRampCooldownPeriod",
        "offset": 0,
        "slot": "9",
        "type": "t_uint256"
      },
      {
        "astId": 1051,
        "contract": "contracts/ramps/hdfc/HDFCRamp.sol:HDFCRamp",
        "label": "intentExpirationPeriod",
        "offset": 0,
        "slot": "10",
        "type": "t_uint256"
      },
      {
        "astId": 1053,
        "contract": "contracts/ramps/hdfc/HDFCRamp.sol:HDFCRamp",
        "label": "sustainabilityFee",
        "offset": 0,
        "slot": "11",
        "type": "t_uint256"
      },
      {
        "astId": 1055,
        "contract": "contracts/ramps/hdfc/HDFCRamp.sol:HDFCRamp",
        "label": "sustainabilityFeeRecipient",
        "offset": 0,
        "slot": "12",
        "type": "t_address"
      },
      {
        "astId": 1057,
        "contract": "contracts/ramps/hdfc/HDFCRamp.sol:HDFCRamp",
        "label": "depositCounter",
        "offset": 0,
        "slot": "13",
        "type": "t_uint256"
      }
    ],
    "types": {
      "t_address": {
        "encoding": "inplace",
        "label": "address",
        "numberOfBytes": "20"
      },
      "t_array(t_bytes32)dyn_storage": {
        "base": "t_bytes32",
        "encoding": "dynamic_array",
        "label": "bytes32[]",
        "numberOfBytes": "32"
      },
      "t_array(t_uint256)8_storage": {
        "base": "t_uint256",
        "encoding": "inplace",
        "label": "uint256[8]",
        "numberOfBytes": "256"
      },
      "t_array(t_uint256)dyn_storage": {
        "base": "t_uint256",
        "encoding": "dynamic_array",
        "label": "uint256[]",
        "numberOfBytes": "32"
      },
      "t_bool": {
        "encoding": "inplace",
        "label": "bool",
        "numberOfBytes": "1"
      },
      "t_bytes32": {
        "encoding": "inplace",
        "label": "bytes32",
        "numberOfBytes": "32"
      },
      "t_contract(IHDFCSendProcessor)3043": {
        "encoding": "inplace",
        "label": "contract IHDFCSendProcessor",
        "numberOfBytes": "20"
      },
      "t_contract(IRegistrationProcessor)3073": {
        "encoding": "inplace",
        "label": "contract IRegistrationProcessor",
        "numberOfBytes": "20"
      },
      "t_mapping(t_address,t_struct(AccountInfo)915_storage)": {
        "encoding": "mapping",
        "key": "t_address",
        "label": "mapping(address => struct HDFCRamp.AccountInfo)",
        "numberOfBytes": "32",
        "value": "t_struct(AccountInfo)915_storage"
      },
      "t_mapping(t_bytes32,t_bool)": {
        "encoding": "mapping",
        "key": "t_bytes32",
        "label": "mapping(bytes32 => bool)",
        "numberOfBytes": "32",
        "value": "t_bool"
      },
      "t_mapping(t_bytes32,t_struct(GlobalAccountInfo)976_storage)": {
        "encoding": "mapping",
        "key": "t_bytes32",
        "label": "mapping(bytes32 => struct HDFCRamp.GlobalAccountInfo)",
        "numberOfBytes": "32",
        "value": "t_struct(GlobalAccountInfo)976_storage"
      },
      "t_mapping(t_bytes32,t_struct(Intent)952_storage)": {
        "encoding": "mapping",
        "key": "t_bytes32",
        "label": "mapping(bytes32 => struct HDFCRamp.Intent)",
        "numberOfBytes": "32",
        "value": "t_struct(Intent)952_storage"
      },
      "t_mapping(t_uint256,t_struct(Deposit)933_storage)": {
        "encoding": "mapping",
        "key": "t_uint256",
        "label": "mapping(uint256 => struct HDFCRamp.Deposit)",
        "numberOfBytes": "32",
        "value": "t_struct(Deposit)933_storage"
      },
      "t_struct(AccountInfo)915_storage": {
        "encoding": "inplace",
        "label": "struct HDFCRamp.AccountInfo",
        "members": [
          {
            "astId": 911,
            "contract": "contracts/ramps/hdfc/HDFCRamp.sol:HDFCRamp",
            "label": "idHash",
            "offset": 0,
            "slot": "0",
            "type": "t_bytes32"
          },
          {
            "astId": 914,
            "contract": "contracts/ramps/hdfc/HDFCRamp.sol:HDFCRamp",
            "label": "deposits",
            "offset": 0,
            "slot": "1",
            "type": "t_array(t_uint256)dyn_storage"
          }
        ],
        "numberOfBytes": "64"
      },
      "t_struct(DenyList)968_storage": {
        "encoding": "inplace",
        "label": "struct HDFCRamp.DenyList",
        "members": [
          {
            "astId": 963,
            "contract": "contracts/ramps/hdfc/HDFCRamp.sol:HDFCRamp",
            "label": "deniedUsers",
            "offset": 0,
            "slot": "0",
            "type": "t_array(t_bytes32)dyn_storage"
          },
          {
            "astId": 967,
            "contract": "contracts/ramps/hdfc/HDFCRamp.sol:HDFCRamp",
            "label": "isDenied",
            "offset": 0,
            "slot": "1",
            "type": "t_mapping(t_bytes32,t_bool)"
          }
        ],
        "numberOfBytes": "64"
      },
      "t_struct(Deposit)933_storage": {
        "encoding": "inplace",
        "label": "struct HDFCRamp.Deposit",
        "members": [
          {
            "astId": 917,
            "contract": "contracts/ramps/hdfc/HDFCRamp.sol:HDFCRamp",
            "label": "depositor",
            "offset": 0,
            "slot": "0",
            "type": "t_address"
          },
          {
            "astId": 921,
            "contract": "contracts/ramps/hdfc/HDFCRamp.sol:HDFCRamp",
            "label": "upiId",
            "offset": 0,
            "slot": "1",
            "type": "t_array(t_uint256)8_storage"
          },
          {
            "astId": 923,
            "contract": "contracts/ramps/hdfc/HDFCRamp.sol:HDFCRamp",
            "label": "depositAmount",
            "offset": 0,
            "slot": "9",
            "type": "t_uint256"
          },
          {
            "astId": 925,
            "contract": "contracts/ramps/hdfc/HDFCRamp.sol:HDFCRamp",
            "label": "remainingDeposits",
            "offset": 0,
            "slot": "10",
            "type": "t_uint256"
          },
          {
            "astId": 927,
            "contract": "contracts/ramps/hdfc/HDFCRamp.sol:HDFCRamp",
            "label": "outstandingIntentAmount",
            "offset": 0,
            "slot": "11",
            "type": "t_uint256"
          },
          {
            "astId": 929,
            "contract": "contracts/ramps/hdfc/HDFCRamp.sol:HDFCRamp",
            "label": "conversionRate",
            "offset": 0,
            "slot": "12",
            "type": "t_uint256"
          },
          {
            "astId": 932,
            "contract": "contracts/ramps/hdfc/HDFCRamp.sol:HDFCRamp",
            "label": "intentHashes",
            "offset": 0,
            "slot": "13",
            "type": "t_array(t_bytes32)dyn_storage"
          }
        ],
        "numberOfBytes": "448"
      },
      "t_struct(GlobalAccountInfo)976_storage": {
        "encoding": "inplace",
        "label": "struct HDFCRamp.GlobalAccountInfo",
        "members": [
          {
            "astId": 970,
            "contract": "contracts/ramps/hdfc/HDFCRamp.sol:HDFCRamp",
            "label": "currentIntentHash",
            "offset": 0,
            "slot": "0",
            "type": "t_bytes32"
          },
          {
            "astId": 972,
            "contract": "contracts/ramps/hdfc/HDFCRamp.sol:HDFCRamp",
            "label": "lastOnrampTimestamp",
            "offset": 0,
            "slot": "1",
            "type": "t_uint256"
          },
          {
            "astId": 975,
            "contract": "contracts/ramps/hdfc/HDFCRamp.sol:HDFCRamp",
            "label": "denyList",
            "offset": 0,
            "slot": "2",
            "type": "t_struct(DenyList)968_storage"
          }
        ],
        "numberOfBytes": "128"
      },
      "t_struct(Intent)952_storage": {
        "encoding": "inplace",
        "label": "struct HDFCRamp.Intent",
        "members": [
          {
            "astId": 943,
            "contract": "contracts/ramps/hdfc/HDFCRamp.sol:HDFCRamp",
            "label": "onRamper",
            "offset": 0,
            "slot": "0",
            "type": "t_address"
          },
          {
            "astId": 945,
            "contract": "contracts/ramps/hdfc/HDFCRamp.sol:HDFCRamp",
            "label": "to",
            "offset": 0,
            "slot": "1",
            "type": "t_address"
          },
          {
            "astId": 947,
            "contract": "contracts/ramps/hdfc/HDFCRamp.sol:HDFCRamp",
            "label": "deposit",
            "offset": 0,
            "slot": "2",
            "type": "t_uint256"
          },
          {
            "astId": 949,
            "contract": "contracts/ramps/hdfc/HDFCRamp.sol:HDFCRamp",
            "label": "amount",
            "offset": 0,
            "slot": "3",
            "type": "t_uint256"
          },
          {
            "astId": 951,
            "contract": "contracts/ramps/hdfc/HDFCRamp.sol:HDFCRamp",
            "label": "intentTimestamp",
            "offset": 0,
            "slot": "4",
            "type": "t_uint256"
          }
        ],
        "numberOfBytes": "160"
      },
      "t_uint256": {
        "encoding": "inplace",
        "label": "uint256",
        "numberOfBytes": "32"
      }
    }
  }
}