{
  "address": "0xc137d22fa93316Df55b5F896F5180c722D02b01D",
  "abi": [
    {
      "inputs": [
        {
          "internalType": "address",
          "name": "_owner",
          "type": "address"
        },
        {
          "internalType": "contract IERC20",
          "name": "_usdc",
          "type": "address"
        },
        {
          "internalType": "contract IPoseidon3",
          "name": "_poseidon3",
          "type": "address"
        },
        {
          "internalType": "contract IPoseidon6",
          "name": "_poseidon6",
          "type": "address"
        },
        {
          "internalType": "uint256",
          "name": "_minDepositAmount",
          "type": "uint256"
        },
        {
          "internalType": "uint256",
          "name": "_maxOnRampAmount",
          "type": "uint256"
        },
        {
          "internalType": "uint256",
          "name": "_intentExpirationPeriod",
          "type": "uint256"
        },
        {
          "internalType": "uint256",
          "name": "_onRampCooldownPeriod",
          "type": "uint256"
        },
        {
          "internalType": "uint256",
          "name": "_sustainabilityFee",
          "type": "uint256"
        },
        {
          "internalType": "address",
          "name": "_sustainabilityFeeRecipient",
          "type": "address"
        }
      ],
      "stateMutability": "nonpayable",
      "type": "constructor"
    },
    {
      "anonymous": false,
      "inputs": [
        {
          "indexed": true,
          "internalType": "address",
          "name": "accountOwner",
          "type": "address"
        },
        {
          "indexed": true,
          "internalType": "bytes32",
          "name": "idHash",
          "type": "bytes32"
        }
      ],
      "name": "AccountRegistered",
      "type": "event"
    },
    {
      "anonymous": false,
      "inputs": [
        {
          "indexed": false,
          "internalType": "uint256",
          "name": "depositId",
          "type": "uint256"
        },
        {
          "indexed": false,
          "internalType": "address",
          "name": "depositor",
          "type": "address"
        }
      ],
      "name": "DepositClosed",
      "type": "event"
    },
    {
      "anonymous": false,
      "inputs": [
        {
          "indexed": true,
          "internalType": "uint256",
          "name": "depositId",
          "type": "uint256"
        },
        {
          "indexed": true,
          "internalType": "bytes32",
          "name": "idHash",
          "type": "bytes32"
        },
        {
          "indexed": false,
          "internalType": "uint256",
          "name": "amount",
          "type": "uint256"
        },
        {
          "indexed": false,
          "internalType": "uint256",
          "name": "conversionRate",
          "type": "uint256"
        }
      ],
      "name": "DepositReceived",
      "type": "event"
    },
    {
      "anonymous": false,
      "inputs": [
        {
          "indexed": true,
          "internalType": "uint256",
          "name": "depositId",
          "type": "uint256"
        },
        {
          "indexed": true,
          "internalType": "address",
          "name": "depositor",
          "type": "address"
        },
        {
          "indexed": false,
          "internalType": "uint256",
          "name": "amount",
          "type": "uint256"
        }
      ],
      "name": "DepositWithdrawn",
      "type": "event"
    },
    {
      "anonymous": false,
      "inputs": [
        {
          "indexed": false,
          "internalType": "uint256",
          "name": "intentExpirationPeriod",
          "type": "uint256"
        }
      ],
      "name": "IntentExpirationPeriodSet",
      "type": "event"
    },
    {
      "anonymous": false,
      "inputs": [
        {
          "indexed": true,
          "internalType": "bytes32",
          "name": "intentHash",
          "type": "bytes32"
        },
        {
          "indexed": true,
          "internalType": "uint256",
          "name": "depositId",
          "type": "uint256"
        },
        {
          "indexed": true,
          "internalType": "address",
          "name": "onRamper",
          "type": "address"
        },
        {
          "indexed": false,
          "internalType": "address",
          "name": "to",
          "type": "address"
        },
        {
          "indexed": false,
          "internalType": "uint256",
          "name": "amount",
          "type": "uint256"
        },
        {
          "indexed": false,
          "internalType": "uint256",
          "name": "feeAmount",
          "type": "uint256"
        }
      ],
      "name": "IntentFulfilled",
      "type": "event"
    },
    {
      "anonymous": false,
      "inputs": [
        {
          "indexed": true,
          "internalType": "bytes32",
          "name": "intentHash",
          "type": "bytes32"
        },
        {
          "indexed": true,
          "internalType": "uint256",
          "name": "depositId",
          "type": "uint256"
        }
      ],
      "name": "IntentPruned",
      "type": "event"
    },
    {
      "anonymous": false,
      "inputs": [
        {
          "indexed": true,
          "internalType": "bytes32",
          "name": "intentHash",
          "type": "bytes32"
        },
        {
          "indexed": true,
          "internalType": "uint256",
          "name": "depositId",
          "type": "uint256"
        },
        {
          "indexed": true,
          "internalType": "bytes32",
          "name": "idHash",
          "type": "bytes32"
        },
        {
          "indexed": false,
          "internalType": "address",
          "name": "to",
          "type": "address"
        },
        {
          "indexed": false,
          "internalType": "uint256",
          "name": "amount",
          "type": "uint256"
        },
        {
          "indexed": false,
          "internalType": "uint256",
          "name": "timestamp",
          "type": "uint256"
        }
      ],
      "name": "IntentSignaled",
      "type": "event"
    },
    {
      "anonymous": false,
      "inputs": [
        {
          "indexed": false,
          "internalType": "uint256",
          "name": "maxOnRampAmount",
          "type": "uint256"
        }
      ],
      "name": "MaxOnRampAmountSet",
      "type": "event"
    },
    {
      "anonymous": false,
      "inputs": [
        {
          "indexed": false,
          "internalType": "uint256",
          "name": "minDepositAmount",
          "type": "uint256"
        }
      ],
      "name": "MinDepositAmountSet",
      "type": "event"
    },
    {
      "anonymous": false,
      "inputs": [
        {
          "indexed": false,
          "internalType": "address",
          "name": "receiveProcessor",
          "type": "address"
        }
      ],
      "name": "NewReceiveProcessorSet",
      "type": "event"
    },
    {
      "anonymous": false,
      "inputs": [
        {
          "indexed": false,
          "internalType": "address",
          "name": "registrationProcessor",
          "type": "address"
        }
      ],
      "name": "NewRegistrationProcessorSet",
      "type": "event"
    },
    {
      "anonymous": false,
      "inputs": [
        {
          "indexed": false,
          "internalType": "address",
          "name": "sendProcessor",
          "type": "address"
        }
      ],
      "name": "NewSendProcessorSet",
      "type": "event"
    },
    {
      "anonymous": false,
      "inputs": [
        {
          "indexed": false,
          "internalType": "uint256",
          "name": "onRampCooldownPeriod",
          "type": "uint256"
        }
      ],
      "name": "OnRampCooldownPeriodSet",
      "type": "event"
    },
    {
      "anonymous": false,
      "inputs": [
        {
          "indexed": true,
          "internalType": "address",
          "name": "previousOwner",
          "type": "address"
        },
        {
          "indexed": true,
          "internalType": "address",
          "name": "newOwner",
          "type": "address"
        }
      ],
      "name": "OwnershipTransferred",
      "type": "event"
    },
    {
      "anonymous": false,
      "inputs": [
        {
          "indexed": false,
          "internalType": "address",
          "name": "feeRecipient",
          "type": "address"
        }
      ],
      "name": "SustainabilityFeeRecipientUpdated",
      "type": "event"
    },
    {
      "anonymous": false,
      "inputs": [
        {
          "indexed": false,
          "internalType": "uint256",
          "name": "fee",
          "type": "uint256"
        }
      ],
      "name": "SustainabilityFeeUpdated",
      "type": "event"
    },
    {
      "anonymous": false,
      "inputs": [
        {
          "indexed": false,
          "internalType": "bytes32",
          "name": "listOwner",
          "type": "bytes32"
        },
        {
          "indexed": false,
          "internalType": "bytes32",
          "name": "deniedUser",
          "type": "bytes32"
        }
      ],
      "name": "UserAddedToDenylist",
      "type": "event"
    },
    {
      "anonymous": false,
      "inputs": [
        {
          "indexed": false,
          "internalType": "bytes32",
          "name": "listOwner",
          "type": "bytes32"
        },
        {
          "indexed": false,
          "internalType": "bytes32",
          "name": "approvedUser",
          "type": "bytes32"
        }
      ],
      "name": "UserRemovedFromDenylist",
      "type": "event"
    },
    {
      "inputs": [
        {
          "internalType": "bytes32",
          "name": "_deniedUser",
          "type": "bytes32"
        }
      ],
      "name": "addAccountToDenylist",
      "outputs": [],
      "stateMutability": "nonpayable",
      "type": "function"
    },
    {
      "inputs": [
        {
          "internalType": "bytes32",
          "name": "_intentHash",
          "type": "bytes32"
        }
      ],
      "name": "cancelIntent",
      "outputs": [],
      "stateMutability": "nonpayable",
      "type": "function"
    },
    {
      "inputs": [],
      "name": "depositCounter",
      "outputs": [
        {
          "internalType": "uint256",
          "name": "",
          "type": "uint256"
        }
      ],
      "stateMutability": "view",
      "type": "function"
    },
    {
      "inputs": [
        {
          "internalType": "uint256",
          "name": "",
          "type": "uint256"
        }
      ],
      "name": "deposits",
      "outputs": [
        {
          "internalType": "address",
          "name": "depositor",
          "type": "address"
        },
        {
          "internalType": "uint256",
          "name": "depositAmount",
          "type": "uint256"
        },
        {
          "internalType": "uint256",
          "name": "remainingDeposits",
          "type": "uint256"
        },
        {
          "internalType": "uint256",
          "name": "outstandingIntentAmount",
          "type": "uint256"
        },
        {
          "internalType": "uint256",
          "name": "conversionRate",
          "type": "uint256"
        }
      ],
      "stateMutability": "view",
      "type": "function"
    },
    {
      "inputs": [
        {
          "internalType": "address",
          "name": "_account",
          "type": "address"
        }
      ],
      "name": "getAccountDeposits",
      "outputs": [
        {
          "components": [
            {
              "internalType": "uint256",
              "name": "depositId",
              "type": "uint256"
            },
            {
              "internalType": "bytes32",
              "name": "depositorIdHash",
              "type": "bytes32"
            },
            {
              "components": [
                {
                  "internalType": "address",
                  "name": "depositor",
                  "type": "address"
                },
                {
                  "internalType": "uint256[8]",
                  "name": "upiId",
                  "type": "uint256[8]"
                },
                {
                  "internalType": "uint256",
                  "name": "depositAmount",
                  "type": "uint256"
                },
                {
                  "internalType": "uint256",
                  "name": "remainingDeposits",
                  "type": "uint256"
                },
                {
                  "internalType": "uint256",
                  "name": "outstandingIntentAmount",
                  "type": "uint256"
                },
                {
                  "internalType": "uint256",
                  "name": "conversionRate",
                  "type": "uint256"
                },
                {
                  "internalType": "bytes32[]",
                  "name": "intentHashes",
                  "type": "bytes32[]"
                }
              ],
              "internalType": "struct HDFCRamp.Deposit",
              "name": "deposit",
              "type": "tuple"
            },
            {
              "internalType": "uint256",
              "name": "availableLiquidity",
              "type": "uint256"
            }
          ],
          "internalType": "struct HDFCRamp.DepositWithAvailableLiquidity[]",
          "name": "accountDeposits",
          "type": "tuple[]"
        }
      ],
      "stateMutability": "view",
      "type": "function"
    },
    {
      "inputs": [
        {
          "internalType": "address",
          "name": "_account",
          "type": "address"
        }
      ],
      "name": "getAccountInfo",
      "outputs": [
        {
          "components": [
            {
              "internalType": "bytes32",
              "name": "idHash",
              "type": "bytes32"
            },
            {
              "internalType": "uint256[]",
              "name": "deposits",
              "type": "uint256[]"
            }
          ],
          "internalType": "struct HDFCRamp.AccountInfo",
          "name": "",
          "type": "tuple"
        }
      ],
      "stateMutability": "view",
      "type": "function"
    },
    {
      "inputs": [
        {
          "internalType": "address",
          "name": "_account",
          "type": "address"
        }
      ],
      "name": "getDeniedUsers",
      "outputs": [
        {
          "internalType": "bytes32[]",
          "name": "",
          "type": "bytes32[]"
        }
      ],
      "stateMutability": "view",
      "type": "function"
    },
    {
      "inputs": [
        {
          "internalType": "uint256",
          "name": "_depositId",
          "type": "uint256"
        }
      ],
      "name": "getDeposit",
      "outputs": [
        {
          "components": [
            {
              "internalType": "address",
              "name": "depositor",
              "type": "address"
            },
            {
              "internalType": "uint256[8]",
              "name": "upiId",
              "type": "uint256[8]"
            },
            {
              "internalType": "uint256",
              "name": "depositAmount",
              "type": "uint256"
            },
            {
              "internalType": "uint256",
              "name": "remainingDeposits",
              "type": "uint256"
            },
            {
              "internalType": "uint256",
              "name": "outstandingIntentAmount",
              "type": "uint256"
            },
            {
              "internalType": "uint256",
              "name": "conversionRate",
              "type": "uint256"
            },
            {
              "internalType": "bytes32[]",
              "name": "intentHashes",
              "type": "bytes32[]"
            }
          ],
          "internalType": "struct HDFCRamp.Deposit",
          "name": "",
          "type": "tuple"
        }
      ],
      "stateMutability": "view",
      "type": "function"
    },
    {
      "inputs": [
        {
          "internalType": "uint256[]",
          "name": "_depositIds",
          "type": "uint256[]"
        }
      ],
      "name": "getDepositFromIds",
      "outputs": [
        {
          "components": [
            {
              "internalType": "uint256",
              "name": "depositId",
              "type": "uint256"
            },
            {
              "internalType": "bytes32",
              "name": "depositorIdHash",
              "type": "bytes32"
            },
            {
              "components": [
                {
                  "internalType": "address",
                  "name": "depositor",
                  "type": "address"
                },
                {
                  "internalType": "uint256[8]",
                  "name": "upiId",
                  "type": "uint256[8]"
                },
                {
                  "internalType": "uint256",
                  "name": "depositAmount",
                  "type": "uint256"
                },
                {
                  "internalType": "uint256",
                  "name": "remainingDeposits",
                  "type": "uint256"
                },
                {
                  "internalType": "uint256",
                  "name": "outstandingIntentAmount",
                  "type": "uint256"
                },
                {
                  "internalType": "uint256",
                  "name": "conversionRate",
                  "type": "uint256"
                },
                {
                  "internalType": "bytes32[]",
                  "name": "intentHashes",
                  "type": "bytes32[]"
                }
              ],
              "internalType": "struct HDFCRamp.Deposit",
              "name": "deposit",
              "type": "tuple"
            },
            {
              "internalType": "uint256",
              "name": "availableLiquidity",
              "type": "uint256"
            }
          ],
          "internalType": "struct HDFCRamp.DepositWithAvailableLiquidity[]",
          "name": "depositArray",
          "type": "tuple[]"
        }
      ],
      "stateMutability": "view",
      "type": "function"
    },
    {
      "inputs": [
        {
          "internalType": "address",
          "name": "_account",
          "type": "address"
        }
      ],
      "name": "getIdCurrentIntentHash",
      "outputs": [
        {
          "internalType": "bytes32",
          "name": "",
          "type": "bytes32"
        }
      ],
      "stateMutability": "view",
      "type": "function"
    },
    {
      "inputs": [
        {
          "internalType": "bytes32[]",
          "name": "_intentHashes",
          "type": "bytes32[]"
        }
      ],
      "name": "getIntentsWithOnRamperId",
      "outputs": [
        {
          "components": [
            {
              "internalType": "bytes32",
              "name": "intentHash",
              "type": "bytes32"
            },
            {
              "components": [
                {
                  "internalType": "address",
                  "name": "onRamper",
                  "type": "address"
                },
                {
                  "internalType": "address",
                  "name": "to",
                  "type": "address"
                },
                {
                  "internalType": "uint256",
                  "name": "deposit",
                  "type": "uint256"
                },
                {
                  "internalType": "uint256",
                  "name": "amount",
                  "type": "uint256"
                },
                {
                  "internalType": "uint256",
                  "name": "intentTimestamp",
                  "type": "uint256"
                }
              ],
              "internalType": "struct HDFCRamp.Intent",
              "name": "intent",
              "type": "tuple"
            },
            {
              "internalType": "bytes32",
              "name": "onRamperIdHash",
              "type": "bytes32"
            }
          ],
          "internalType": "struct HDFCRamp.IntentWithOnRamperId[]",
          "name": "",
          "type": "tuple[]"
        }
      ],
      "stateMutability": "view",
      "type": "function"
    },
    {
      "inputs": [
        {
          "internalType": "address",
          "name": "_account",
          "type": "address"
        }
      ],
      "name": "getLastOnRampTimestamp",
      "outputs": [
        {
          "internalType": "uint256",
          "name": "",
          "type": "uint256"
        }
      ],
      "stateMutability": "view",
      "type": "function"
    },
    {
      "inputs": [
        {
          "internalType": "contract IRegistrationProcessor",
          "name": "_registrationProcessor",
          "type": "address"
        },
        {
          "internalType": "contract IHDFCSendProcessor",
          "name": "_sendProcessor",
          "type": "address"
        }
      ],
      "name": "initialize",
      "outputs": [],
      "stateMutability": "nonpayable",
      "type": "function"
    },
    {
      "inputs": [],
      "name": "intentExpirationPeriod",
      "outputs": [
        {
          "internalType": "uint256",
          "name": "",
          "type": "uint256"
        }
      ],
      "stateMutability": "view",
      "type": "function"
    },
    {
      "inputs": [
        {
          "internalType": "bytes32",
          "name": "",
          "type": "bytes32"
        }
      ],
      "name": "intents",
      "outputs": [
        {
          "internalType": "address",
          "name": "onRamper",
          "type": "address"
        },
        {
          "internalType": "address",
          "name": "to",
          "type": "address"
        },
        {
          "internalType": "uint256",
          "name": "deposit",
          "type": "uint256"
        },
        {
          "internalType": "uint256",
          "name": "amount",
          "type": "uint256"
        },
        {
          "internalType": "uint256",
          "name": "intentTimestamp",
          "type": "uint256"
        }
      ],
      "stateMutability": "view",
      "type": "function"
    },
    {
      "inputs": [
        {
          "internalType": "address",
          "name": "_account",
          "type": "address"
        },
        {
          "internalType": "bytes32",
          "name": "_deniedUser",
          "type": "bytes32"
        }
      ],
      "name": "isDeniedUser",
      "outputs": [
        {
          "internalType": "bool",
          "name": "",
          "type": "bool"
        }
      ],
      "stateMutability": "view",
      "type": "function"
    },
    {
      "inputs": [],
      "name": "isInitialized",
      "outputs": [
        {
          "internalType": "bool",
          "name": "",
          "type": "bool"
        }
      ],
      "stateMutability": "view",
      "type": "function"
    },
    {
      "inputs": [],
      "name": "maxOnRampAmount",
      "outputs": [
        {
          "internalType": "uint256",
          "name": "",
          "type": "uint256"
        }
      ],
      "stateMutability": "view",
      "type": "function"
    },
    {
      "inputs": [],
      "name": "minDepositAmount",
      "outputs": [
        {
          "internalType": "uint256",
          "name": "",
          "type": "uint256"
        }
      ],
      "stateMutability": "view",
      "type": "function"
    },
    {
      "inputs": [
        {
          "internalType": "uint256[8]",
          "name": "_upiId",
          "type": "uint256[8]"
        },
        {
          "internalType": "uint256",
          "name": "_depositAmount",
          "type": "uint256"
        },
        {
          "internalType": "uint256",
          "name": "_receiveAmount",
          "type": "uint256"
        }
      ],
      "name": "offRamp",
      "outputs": [],
      "stateMutability": "nonpayable",
      "type": "function"
    },
    {
      "inputs": [
        {
          "internalType": "uint256[2]",
          "name": "_a",
          "type": "uint256[2]"
        },
        {
          "internalType": "uint256[2][2]",
          "name": "_b",
          "type": "uint256[2][2]"
        },
        {
          "internalType": "uint256[2]",
          "name": "_c",
          "type": "uint256[2]"
        },
        {
          "internalType": "uint256[15]",
          "name": "_signals",
          "type": "uint256[15]"
        }
      ],
      "name": "onRamp",
      "outputs": [],
      "stateMutability": "nonpayable",
      "type": "function"
    },
    {
      "inputs": [],
      "name": "onRampCooldownPeriod",
      "outputs": [
        {
          "internalType": "uint256",
          "name": "",
          "type": "uint256"
        }
      ],
      "stateMutability": "view",
      "type": "function"
    },
    {
      "inputs": [],
      "name": "owner",
      "outputs": [
        {
          "internalType": "address",
          "name": "",
          "type": "address"
        }
      ],
      "stateMutability": "view",
      "type": "function"
    },
    {
      "inputs": [],
      "name": "poseidon3",
      "outputs": [
        {
          "internalType": "contract IPoseidon3",
          "name": "",
          "type": "address"
        }
      ],
      "stateMutability": "view",
      "type": "function"
    },
    {
      "inputs": [],
      "name": "poseidon6",
      "outputs": [
        {
          "internalType": "contract IPoseidon6",
          "name": "",
          "type": "address"
        }
      ],
      "stateMutability": "view",
      "type": "function"
    },
    {
      "inputs": [
        {
          "internalType": "uint256[2]",
          "name": "_a",
          "type": "uint256[2]"
        },
        {
          "internalType": "uint256[2][2]",
          "name": "_b",
          "type": "uint256[2][2]"
        },
        {
          "internalType": "uint256[2]",
          "name": "_c",
          "type": "uint256[2]"
        },
        {
          "internalType": "uint256[5]",
          "name": "_signals",
          "type": "uint256[5]"
        }
      ],
      "name": "register",
      "outputs": [],
      "stateMutability": "nonpayable",
      "type": "function"
    },
    {
      "inputs": [],
      "name": "registrationProcessor",
      "outputs": [
        {
          "internalType": "contract IRegistrationProcessor",
          "name": "",
          "type": "address"
        }
      ],
      "stateMutability": "view",
      "type": "function"
    },
    {
      "inputs": [
        {
          "internalType": "bytes32",
          "name": "_intentHash",
          "type": "bytes32"
        }
      ],
      "name": "releaseFundsToOnramper",
      "outputs": [],
      "stateMutability": "nonpayable",
      "type": "function"
    },
    {
      "inputs": [
        {
          "internalType": "bytes32",
          "name": "_approvedUser",
          "type": "bytes32"
        }
      ],
      "name": "removeAccountFromDenylist",
      "outputs": [],
      "stateMutability": "nonpayable",
      "type": "function"
    },
    {
      "inputs": [],
      "name": "renounceOwnership",
      "outputs": [],
      "stateMutability": "nonpayable",
      "type": "function"
    },
    {
      "inputs": [],
      "name": "sendProcessor",
      "outputs": [
        {
          "internalType": "contract IHDFCSendProcessor",
          "name": "",
          "type": "address"
        }
      ],
      "stateMutability": "view",
      "type": "function"
    },
    {
      "inputs": [
        {
          "internalType": "uint256",
          "name": "_intentExpirationPeriod",
          "type": "uint256"
        }
      ],
      "name": "setIntentExpirationPeriod",
      "outputs": [],
      "stateMutability": "nonpayable",
      "type": "function"
    },
    {
      "inputs": [
        {
          "internalType": "uint256",
          "name": "_maxOnRampAmount",
          "type": "uint256"
        }
      ],
      "name": "setMaxOnRampAmount",
      "outputs": [],
      "stateMutability": "nonpayable",
      "type": "function"
    },
    {
      "inputs": [
        {
          "internalType": "uint256",
          "name": "_minDepositAmount",
          "type": "uint256"
        }
      ],
      "name": "setMinDepositAmount",
      "outputs": [],
      "stateMutability": "nonpayable",
      "type": "function"
    },
    {
      "inputs": [
        {
          "internalType": "uint256",
          "name": "_onRampCooldownPeriod",
          "type": "uint256"
        }
      ],
      "name": "setOnRampCooldownPeriod",
      "outputs": [],
      "stateMutability": "nonpayable",
      "type": "function"
    },
    {
      "inputs": [
        {
          "internalType": "contract IRegistrationProcessor",
          "name": "_registrationProcessor",
          "type": "address"
        }
      ],
      "name": "setRegistrationProcessor",
      "outputs": [],
      "stateMutability": "nonpayable",
      "type": "function"
    },
    {
      "inputs": [
        {
          "internalType": "contract IHDFCSendProcessor",
          "name": "_sendProcessor",
          "type": "address"
        }
      ],
      "name": "setSendProcessor",
      "outputs": [],
      "stateMutability": "nonpayable",
      "type": "function"
    },
    {
      "inputs": [
        {
          "internalType": "uint256",
          "name": "_fee",
          "type": "uint256"
        }
      ],
      "name": "setSustainabilityFee",
      "outputs": [],
      "stateMutability": "nonpayable",
      "type": "function"
    },
    {
      "inputs": [
        {
          "internalType": "address",
          "name": "_feeRecipient",
          "type": "address"
        }
      ],
      "name": "setSustainabilityFeeRecipient",
      "outputs": [],
      "stateMutability": "nonpayable",
      "type": "function"
    },
    {
      "inputs": [
        {
          "internalType": "uint256",
          "name": "_depositId",
          "type": "uint256"
        },
        {
          "internalType": "uint256",
          "name": "_amount",
          "type": "uint256"
        },
        {
          "internalType": "address",
          "name": "_to",
          "type": "address"
        }
      ],
      "name": "signalIntent",
      "outputs": [],
      "stateMutability": "nonpayable",
      "type": "function"
    },
    {
      "inputs": [],
      "name": "sustainabilityFee",
      "outputs": [
        {
          "internalType": "uint256",
          "name": "",
          "type": "uint256"
        }
      ],
      "stateMutability": "view",
      "type": "function"
    },
    {
      "inputs": [],
      "name": "sustainabilityFeeRecipient",
      "outputs": [
        {
          "internalType": "address",
          "name": "",
          "type": "address"
        }
      ],
      "stateMutability": "view",
      "type": "function"
    },
    {
      "inputs": [
        {
          "internalType": "address",
          "name": "newOwner",
          "type": "address"
        }
      ],
      "name": "transferOwnership",
      "outputs": [],
      "stateMutability": "nonpayable",
      "type": "function"
    },
    {
      "inputs": [],
      "name": "usdc",
      "outputs": [
        {
          "internalType": "contract IERC20",
          "name": "",
          "type": "address"
        }
      ],
      "stateMutability": "view",
      "type": "function"
    },
    {
      "inputs": [
        {
          "internalType": "uint256[]",
          "name": "_depositIds",
          "type": "uint256[]"
        }
      ],
      "name": "withdrawDeposit",
      "outputs": [],
      "stateMutability": "nonpayable",
      "type": "function"
    }
  ],
  "transactionHash": "0x7eaad511adc80f981950719f10f4c39d720e32931e0418e1857efc6598439790",
  "args": [
    "0xdd93E0f5fC32c86A568d87Cb4f08598f55E980F3",
    "0x833589fCD6eDb6E08f4c7C32D4f71b54bdA02913",
    "0xfdb7153989116F650387813013A047B6Ab56aEff",
    "0x95Fc5D19C778FABE6Aec8948C1a7A32eF8DeC791",
    "10000000",
    "50000000",
    "180",
    "180",
    "0",
    "0xdd93E0f5fC32c86A568d87Cb4f08598f55E980F3"
  ],
  "numDeployments": 1,
  "solcInputHash": "1dc9a2624d5fa8a2a6f6105ee74be00a",
  "bytecode": "0x60e06040523480156200001157600080fd5b506040516200438c3803806200438c8339810160408190526200003491620001eb565b6200003f33620000a4565b6001600160a01b0389811660805288811660a05287811660c05260078790556008869055600a8590556009849055600b839055600c80546001600160a01b031916918316919091179055620000948a620000f4565b505050505050505050506200029e565b600080546001600160a01b038381166001600160a01b0319831681178455604051919092169283917f8be0079c531659141344cd1fd0a4f28419497f9722a3daafe3b4186f6b6457e09190a35050565b620000fe62000177565b6001600160a01b038116620001695760405162461bcd60e51b815260206004820152602660248201527f4f776e61626c653a206e6577206f776e657220697320746865207a65726f206160448201526564647265737360d01b60648201526084015b60405180910390fd5b6200017481620000a4565b50565b6000546001600160a01b03163314620001d35760405162461bcd60e51b815260206004820181905260248201527f4f776e61626c653a2063616c6c6572206973206e6f7420746865206f776e6572604482015260640162000160565b565b6001600160a01b03811681146200017457600080fd5b6000806000806000806000806000806101408b8d0312156200020c57600080fd5b8a516200021981620001d5565b60208c0151909a506200022c81620001d5565b60408c01519099506200023f81620001d5565b60608c01519098506200025281620001d5565b8097505060808b0151955060a08b0151945060c08b0151935060e08b015192506101008b015191506101208b01516200028b81620001d5565b809150509295989b9194979a5092959850565b60805160a05160c051614094620002f860003960008181610386015261315701526000818161067901526131f40152600081816103d80152818161175901528181611dbb01528181612d490152612df801526140946000f3fe608060405234801561001057600080fd5b506004361061027f5760003560e01c806371a28f691161015c578063cce3e038116100ce578063ecb3dc8811610087578063ecb3dc88146106f0578063ecd618f0146106f9578063ed1692b814610719578063eea1d1971461072c578063f2fde38b1461073f578063fbf15b1f1461075257600080fd5b8063cce3e03814610674578063ce523ca31461069b578063d55f960d146106ae578063d9478d20146106c1578063e215ad59146106d4578063e279d964146106e757600080fd5b8063985ade1511610120578063985ade15146105995780639b357b5a146105ac5780639f9fb968146105bf578063a1a954b7146105df578063b02c43d0146105e8578063b3fa4c011461066157600080fd5b806371a28f69146104c65780637b510fe8146104d95780638da5cb5b146104f95780639021578a1461050a5780639087beff1461058657600080fd5b80633f838d0d116101f55780635081d952116101b95780635081d9521461045c5780635dd765151461047c578063645006ca1461048f57806366ec84191461049857806371134762146104ab578063715018a6146104be57600080fd5b80633f838d0d146103fa578063429873491461040d5780634595bba014610420578063485cc95514610440578063495223e71461045357600080fd5b80632a80cda3116102475780632a80cda314610337578063317dcc961461034a578063392e53cd1461035d5780633930a439146103815780633adba28a146103c05780633e413bee146103d357600080fd5b80630f1ef98c14610284578063133de6cb146102d0578063148172da146102e557806314ec32fa146102f8578063238c84941461032e575b600080fd5b6102bd6102923660046135d5565b6001600160a01b03166000908152600460209081526040808320548352600390915290206001015490565b6040519081526020015b60405180910390f35b6102e36102de3660046135d5565b610799565b005b6102e36102f33660046135f9565b6107f6565b6102bd6103063660046135d5565b6001600160a01b03166000908152600460209081526040808320548352600390915290205490565b6102bd600b5481565b6102e36103453660046135f9565b610928565b6102e36103583660046135f9565b6109b5565b60025461037190600160a01b900460ff1681565b60405190151581526020016102c7565b6103a87f000000000000000000000000000000000000000000000000000000000000000081565b6040516001600160a01b0390911681526020016102c7565b6102e36103ce366004613612565b6109f2565b6103a87f000000000000000000000000000000000000000000000000000000000000000081565b6102e361040836600461375a565b610f47565b6102e361041b3660046135f9565b610fd4565b61043361042e3660046135d5565b611075565b6040516102c79190613813565b6102e361044e366004613857565b6110ee565b6102bd60095481565b61046f61046a3660046135d5565b611181565b6040516102c79190613958565b6102e361048a3660046135f9565b6113f1565b6102bd60075481565b6102e36104a63660046135f9565b611490565b6102e36104b93660046139e4565b6115db565b6102e36117ce565b61046f6104d43660046139e4565b6117e2565b6104ec6104e73660046135d5565b6119ea565b6040516102c79190613a8a565b6000546001600160a01b03166103a8565b6105536105183660046135f9565b600660205260009081526040902080546001820154600283015460038401546004909401546001600160a01b03938416949390921692909185565b604080516001600160a01b039687168152959094166020860152928401919091526060830152608082015260a0016102c7565b6102e36105943660046135f9565b611a84565b6102e36105a7366004613ae2565b611b1b565b6102e36105ba3660046135f9565b611e77565b6105d26105cd3660046135f9565b611f7e565b6040516102c79190613b70565b6102bd600a5481565b61062f6105f63660046135f9565b600560205260009081526040902080546009820154600a830154600b840154600c909401546001600160a01b0390931693919290919085565b604080516001600160a01b0390961686526020860194909452928401919091526060830152608082015260a0016102c7565b6102e361066f3660046135d5565b61206b565b6103a87f000000000000000000000000000000000000000000000000000000000000000081565b6102e36106a9366004613b83565b612123565b6102e36106bc3660046135f9565b6121e1565b600c546103a8906001600160a01b031681565b6001546103a8906001600160a01b031681565b6102bd60085481565b6102bd600d5481565b61070c610707366004613bf8565b61231f565b6040516102c79190613c6d565b6102e36107273660046135d5565b612484565b6002546103a8906001600160a01b031681565b6102e361074d3660046135d5565b6124da565b610371610760366004613cfd565b6001600160a01b038216600090815260046020908152604080832054835260038083528184208585520190915290205460ff1692915050565b6107a1612553565b600280546001600160a01b0319166001600160a01b0383169081179091556040519081527f6e7665a41605edc0d70f4b991d652755f380754eb092d81ef9ab93664778d59e906020015b60405180910390a150565b3360009081526004602052604090205461082b5760405162461bcd60e51b815260040161082290613d29565b60405180910390fd5b336000908152600460209081526040808320548084526003808452828520868652019092529091205460ff16156108a45760405162461bcd60e51b815260206004820152601860248201527f5573657220616c7265616479206f6e2064656e796c69737400000000000000006044820152606401610822565b60008181526003602081815260408084208685528084018352818520805460ff19166001908117909155938352600201805493840181558452922001839055517f976c693d56f27ba17d902bda80c4fa0416b773fbf268bcb0ee71689234d769ee9061091c9083908590918252602082015260400190565b60405180910390a15050565b610930612553565b806000036109805760405162461bcd60e51b815260206004820152601e60248201527f4d696e696d756d206465706f7369742063616e6e6f74206265207a65726f00006044820152606401610822565b60078190556040518181527fbdde72a6d8d8b42770c9899945ccdce09d0c5c794d3326cdb2d2cca61b12a9fc906020016107eb565b6109bd612553565b60098190556040518181527f88397975d177ce5e18abf3a5fdb8de773e80673d85eeb54f48cfaf688b3d2c3e906020016107eb565b33600090815260046020526040902054610a1e5760405162461bcd60e51b815260040161082290613d29565b336000908152600460208181526040808420548785526005835281852080546001600160a01b031686529383528185205480865260038085528387208388520190935293205460ff1615610ab45760405162461bcd60e51b815260206004820181905260248201527f4f6e72616d706572206f6e206465706f7369746f7227732064656e796c6973746044820152606401610822565b6009546000848152600360205260409020600101544291610ad491613d76565b1115610b2e5760405162461bcd60e51b8152602060048201526024808201527f4f6e2072616d7020636f6f6c20646f776e20706572696f64206e6f7420656c616044820152631c1cd95960e21b6064820152608401610822565b60008381526003602052604090205415610b8a5760405162461bcd60e51b815260206004820152601860248201527f496e74656e74207374696c6c206f75747374616e64696e6700000000000000006044820152606401610822565b828103610bd95760405162461bcd60e51b815260206004820152601e60248201527f53656e6465722063616e6e6f7420626520746865206465706f7369746f7200006044820152606401610822565b81546001600160a01b0316610c295760405162461bcd60e51b815260206004820152601660248201527511195c1bdcda5d08191bd95cc81b9bdd08195e1a5cdd60521b6044820152606401610822565b60008511610c885760405162461bcd60e51b815260206004820152602660248201527f5369676e616c656420616d6f756e74206d75737420626520677265617465722060448201526507468616e20360d41b6064820152608401610822565b600854851115610cf75760405162461bcd60e51b815260206004820152603460248201527f5369676e616c656420616d6f756e74206d757374206265206c657373207468616044820152731b881b585e081bdb8b5c985b5c08185b5bdd5b9d60621b6064820152608401610822565b6001600160a01b038416610d4d5760405162461bcd60e51b815260206004820152601b60248201527f43616e6e6f742073656e6420746f207a65726f206164647265737300000000006044820152606401610822565b6000610d5984886125ad565b90508583600a01541015610e0e57600080610d7389612618565b91509150878186600a0154610d889190613d76565b1015610dcd5760405162461bcd60e51b81526020600482015260146024820152734e6f7420656e6f756768206c697175696469747960601b6044820152606401610822565b610dd785836127c0565b8085600a016000828254610deb9190613d76565b925050819055508085600b016000828254610e069190613d89565b909155505050505b6040805160a0810182523381526001600160a01b0387811660208084019182528385018c8152606085018c81524260808701908152600089815260068552888120975188549088166001600160a01b0319918216178955955160018901805491909816961695909517909555905160028601555160038086019190915592516004909401939093558781529152908120829055600a84018054889290610eb5908490613d89565b925050819055508583600b016000828254610ed09190613d76565b9091555050600d83018054600181018255600091825260209182902001829055604080516001600160a01b038816815291820188905242908201528490889083907f1a1292e170a0f000ccf956afba79bee0f9ec1d81f3f901c1d4d11e1f336aae109060600160405180910390a450505050505050565b6000806000610f5887878787612822565b925092509250610f688282612b28565b826060015182600b016000828254610f809190613d89565b909155505082516001600160a01b0316600090815260046020908152604080832054835260039091529081902042600190910155830151610fc19083612c01565b610fcb8184612cec565b50505050505050565b610fdc612553565b806000036110405760405162461bcd60e51b815260206004820152602b60248201527f4d617820696e74656e742065787069726174696f6e20706572696f642063616e60448201526a6e6f74206265207a65726f60a81b6064820152608401610822565b600a8190556040518181527f55e3f6b95de9a0ec782f892e93fafe4e56be0696df204ddf8e0a40a9a713a803906020016107eb565b6001600160a01b038116600090815260046020908152604080832054835260038252918290206002018054835181840281018401909452808452606093928301828280156110e257602002820191906000526020600020905b8154815260200190600101908083116110ce575b50505050509050919050565b6110f6612553565b600254600160a01b900460ff16156111465760405162461bcd60e51b8152602060048201526013602482015272105b1c9958591e481a5b9a5d1a585b1a5e9959606a1b6044820152606401610822565b600180546001600160a01b039384166001600160a01b0319909116179055600280546001600160a81b0319169190921617600160a01b179055565b6001600160a01b03811660009081526004602090815260408083206001018054825181850281018501909352808352606094938301828280156111e357602002820191906000526020600020905b8154815260200190600101908083116111cf575b50505050509050805167ffffffffffffffff8111156112045761120461364b565b60405190808252806020026020018201604052801561123d57816020015b61122a6133ca565b8152602001906001900390816112225790505b50915060005b81518110156113ea57600082828151811061126057611260613d9c565b6020908102919091018101516000818152600583526040808220815160e08101835281546001600160a01b031681528251610100810190935293955091938301906001830160088282826020028201915b8154815260200190600101908083116112b1575050505050815260200160098201548152602001600a8201548152602001600b8201548152602001600c8201548152602001600d820180548060200260200160405190810160405280929190818152602001828054801561134457602002820191906000526020600020905b815481526020019060010190808311611330575b5050505050815250509050600061135a83612618565b91505060405180608001604052808481526020016004600085600001516001600160a01b03166001600160a01b031681526020019081526020016000206000015481526020018381526020018284606001516113b69190613d76565b8152508685815181106113cb576113cb613d9c565b6020026020010181905250505050806113e390613db2565b9050611243565b5050919050565b6113f9612553565b66b1a2bc2ec5000081111561145b5760405162461bcd60e51b815260206004820152602260248201527f4665652063616e6e6f742062652067726561746572207468616e206d61782066604482015261656560f01b6064820152608401610822565b600b8190556040518181527f44f48e1b871e6db1e909a7b253b054b7150a0b4ddf4d59b159c827d82e725670906020016107eb565b6000818152600660209081526040808320815160a08101835281546001600160a01b0390811682526001830154811682860152600283015482850181905260038401546060840152600490930154608083015291855260059093529220815191929091166115105760405162461bcd60e51b815260040161082290613dcb565b80546001600160a01b031633146115695760405162461bcd60e51b815260206004820152601c60248201527f43616c6c6572206d75737420626520746865206465706f7369746f72000000006044820152606401610822565b6115738184612b28565b816060015181600b01600082825461158b9190613d89565b909155505081516001600160a01b03166000908152600460209081526040808320548352600390915290819020426001909101558201516115cc9082612c01565b6115d68383612cec565b505050565b6000805b825181101561173c5760008382815181106115fc576115fc613d9c565b6020908102919091018101516000818152600590925260409091208054919250906001600160a01b031633146116745760405162461bcd60e51b815260206004820152601c60248201527f53656e646572206d75737420626520746865206465706f7369746f72000000006044820152606401610822565b60008061168084612618565b9150915061168e83836127c0565b8083600a015461169e9190613d76565b6116a89087613d76565b95508083600b0160008282546116be9190613d89565b90915550508254600a8401546001600160a01b039091169085907fae1f357660ab777dcfd38c0ab6357834684ec26289ecfa07ec65dbf6c3c6431290611705908590613d76565b60405190815260200160405180910390a36000600a8401556117278484612c01565b505050508061173590613db2565b90506115df565b5060405163a9059cbb60e01b8152336004820152602481018290527f00000000000000000000000000000000000000000000000000000000000000006001600160a01b03169063a9059cbb906044016020604051808303816000875af11580156117aa573d6000803e3d6000fd5b505050506040513d601f19601f820116820180604052508101906115d69190613dfa565b6117d6612553565b6117e06000612eca565b565b6060815167ffffffffffffffff8111156117fe576117fe61364b565b60405190808252806020026020018201604052801561183757816020015b6118246133ca565b81526020019060019003908161181c5790505b50905060005b82518110156119e457600083828151811061185a5761185a613d9c565b6020908102919091018101516000818152600583526040808220815160e08101835281546001600160a01b031681528251610100810190935293955091938301906001830160088282826020028201915b8154815260200190600101908083116118ab575050505050815260200160098201548152602001600a8201548152602001600b8201548152602001600c8201548152602001600d820180548060200260200160405190810160405280929190818152602001828054801561193e57602002820191906000526020600020905b81548152602001906001019080831161192a575b5050505050815250509050600061195483612618565b91505060405180608001604052808481526020016004600085600001516001600160a01b03166001600160a01b031681526020019081526020016000206000015481526020018381526020018284606001516119b09190613d76565b8152508585815181106119c5576119c5613d9c565b6020026020010181905250505050806119dd90613db2565b905061183d565b50919050565b6040805180820190915260008152606060208201526001600160a01b038216600090815260046020908152604091829020825180840184528154815260018201805485518186028101860190965280865291949293858101939290830182828015611a7457602002820191906000526020600020905b815481526020019060010190808311611a60575b5050505050815250509050919050565b611a8c612553565b80600003611ae65760405162461bcd60e51b815260206004820152602160248201527f4d6178206f6e2072616d7020616d6f756e742063616e6e6f74206265207a65726044820152606f60f81b6064820152608401610822565b60088190556040518181527fcab6b49ca21dd111cf4a55d507bbe89dd12d69216e28247060d4b2163ca41b39906020016107eb565b33600090815260046020526040902054611b475760405162461bcd60e51b815260040161082290613d29565b33600090815260046020526040902060010154600511611ba95760405162461bcd60e51b815260206004820152601e60248201527f4d6178696d756d206465706f73697420616d6f756e74207265616368656400006044820152606401610822565b600754821015611c1a5760405162461bcd60e51b815260206004820152603660248201527f4465706f73697420616d6f756e74206d757374206265206772656174657220746044820152751a185b881b5a5b8819195c1bdcda5d08185b5bdd5b9d60521b6064820152608401610822565b60008111611c785760405162461bcd60e51b815260206004820152602560248201527f5265636569766520616d6f756e74206d75737420626520677265617465722074604482015264068616e20360dc1b6064820152608401610822565b600081611c8d670de0b6b3a764000085613e1c565b611c979190613e49565b600d80549192506000919082611cac83613db2565b9091555033600081815260046020908152604080832060018082018054808301825590865284862001879055825160e0810184529586528584018c81528684018c9052606087018c90526080870186905260a087018a90528351868152808601855260c0880152878652600590945291909320845181546001600160a01b0319166001600160a01b03909116178155915194955091939091611d53919083019060086133f6565b50604082015160098201556060820151600a8201556080820151600b82015560a0820151600c82015560c08201518051611d9791600d840191602090910190613434565b50506040516323b872dd60e01b8152336004820152306024820152604481018790527f00000000000000000000000000000000000000000000000000000000000000006001600160a01b031691506323b872dd906064016020604051808303816000875af1158015611e0d573d6000803e3d6000fd5b505050506040513d601f19601f82011682018060405250810190611e319190613dfa565b508054604080518781526020810186905284917f36b046df2c296f2a5a78570d5e52a92773cbb616825b1af59a49a4d02df2b109910160405180910390a3505050505050565b33600090815260046020526040902054611ea35760405162461bcd60e51b815260040161082290613d29565b336000908152600460209081526040808320548084526003808452828520868652019092529091205460ff16611f125760405162461bcd60e51b8152602060048201526014602482015273155cd95c881b9bdd081bdb8819195b9e5b1a5cdd60621b6044820152606401610822565b60008181526003602081815260408084208685528084018352908420805460ff191690559284905252611f489060020183612f1a565b60408051828152602081018490527f8935205b1b382095d2d95efbb36f81a11a34c548d45af26adc1a02d2f2bb546f910161091c565b611f8661346e565b600082815260056020908152604091829020825160e08101845281546001600160a01b03168152835161010081019485905290939192840191600184019060089082845b815481526020019060010190808311611fca575050505050815260200160098201548152602001600a8201548152602001600b8201548152602001600c8201548152602001600d8201805480602002602001604051908101604052809291908181526020018280548015611a745760200282019190600052602060002090815481526020019060010190808311611a60575050505050815250509050919050565b612073612553565b6001600160a01b0381166120d55760405162461bcd60e51b8152602060048201526024808201527f46656520726563697069656e742063616e6e6f74206265207a65726f206164646044820152637265737360e01b6064820152608401610822565b600c80546001600160a01b0319166001600160a01b0383169081179091556040519081527f594ad6ee98bfc0c73e6d15fd4e762502f359e05d26907b7fa1ff82eb5e99f6e4906020016107eb565b336000908152600460205260409020541561218f5760405162461bcd60e51b815260206004820152602660248201527f4163636f756e7420616c7265616479206173736f6369617465642077697468206044820152650d2c890c2e6d60d31b6064820152608401610822565b600061219d85858585613043565b336000818152600460205260408082208490555192935083927f672144042732f7b1cdbf0772464ae545aedd7f41d38b8487dafd9085496a5d519190a35050505050565b6000818152600660209081526040808320815160a08101835281546001600160a01b039081168252600183015416938101939093526002810154918301919091526003810154606083015260040154608082018190529091036122565760405162461bcd60e51b815260040161082290613dcb565b336000908152600460205260408082205483516001600160a01b03168352912054146122c45760405162461bcd60e51b815260206004820152601c60248201527f53656e646572206d75737420626520746865206f6e2d72616d706572000000006044820152606401610822565b60408082015160009081526005602052206122df8184612b28565b816060015181600a0160008282546122f79190613d76565b90915550506060820151600b82018054600090612315908490613d89565b9091555050505050565b606060008267ffffffffffffffff81111561233c5761233c61364b565b60405190808252806020026020018201604052801561237557816020015b6123626134ba565b81526020019060019003908161235a5790505b50905060005b8381101561247a57600085858381811061239757612397613d9c565b60209081029290920135600081815260068452604090819020815160a08101835281546001600160a01b0390811682526001830154169581019590955260028101548583015260038101546060808701919091526004909101546080860152815190810190915290935090508088888681811061241657612416613d9c565b6020908102929092013583525081810184905283516001600160a01b03166000908152600490915260409081902054910152845185908590811061245c5761245c613d9c565b602002602001018190525050508061247390613db2565b905061237b565b5090505b92915050565b61248c612553565b600180546001600160a01b0319166001600160a01b0383169081179091556040519081527f73d3ac111d5926fbfd68ade03832f0b1a4daef0cd0effc1fa0829264bcc57c41906020016107eb565b6124e2612553565b6001600160a01b0381166125475760405162461bcd60e51b815260206004820152602660248201527f4f776e61626c653a206e6577206f776e657220697320746865207a65726f206160448201526564647265737360d01b6064820152608401610822565b61255081612eca565b50565b6000546001600160a01b031633146117e05760405162461bcd60e51b815260206004820181905260248201527f4f776e61626c653a2063616c6c6572206973206e6f7420746865206f776e65726044820152606401610822565b6040805160208101849052908101829052426060820152600090819060800160408051601f19818403018152919052805160209091012090506126107f30644e72e131a029b85045b68181585d2833e84879b9709143e1f593f000000182613e5d565b949350505050565b6000818152600560209081526040808320600d01805482518185028101850190935280835260609493849392919083018282801561267557602002820191906000526020600020905b815481526020019060010190808311612661575b50505050509050805167ffffffffffffffff8111156126965761269661364b565b6040519080825280602002602001820160405280156126bf578160200160208202803683370190505b50925060005b81518110156127b9576000600660008484815181106126e6576126e6613d9c565b6020908102919091018101518252818101929092526040908101600020815160a08101835281546001600160a01b03908116825260018301541693810193909352600281015491830191909152600381015460608301526004015460808201819052600a54919250429161275991613d76565b10156127a85782828151811061277157612771613d9c565b602002602001015185838151811061278b5761278b613d9c565b602090810291909101015260608101516127a59085613d76565b93505b506127b281613db2565b90506126c5565b5050915091565b60005b81518110156115d6576000801b8282815181106127e2576127e2613d9c565b602002602001015114612812576128128383838151811061280557612805613d9c565b6020026020010151612b28565b61281b81613db2565b90506127c3565b61282a6134e2565b600254604080516080810182528781526020810187905280820186905260608101859052905163bf93fde160e01b81526000928392839283928392839283926001600160a01b03169163bf93fde1916128869190600401613ec2565b60a0604051808303816000875af11580156128a5573d6000803e3d6000fd5b505050506040513d601f19601f820116820180604052508101906128c99190613f31565b6000818152600660209081526040808320815160a08101835281546001600160a01b03908116825260018301548116828601526002830154828501819052600384015460608401526004909301546080830152918552600590935292208151979c50959a5093985091965094509092166129555760405162461bcd60e51b815260040161082290613dcb565b85826080015111156129b45760405162461bcd60e51b815260206004820152602260248201527f496e74656e7420776173206e6f742063726561746564206265666f72652073656044820152611b9960f21b6064820152608401610822565b6040805161010081019182905286916129f09190600185019060089082845b8154815260200190600101908083116129d35750505050506130e3565b14612a3d5760405162461bcd60e51b815260206004820152601b60248201527f4f666672616d70657220696420646f6573206e6f74206d6174636800000000006044820152606401610822565b81516001600160a01b03166000908152600460205260409020548414612aa55760405162461bcd60e51b815260206004820152601a60248201527f4f6e72616d70657220696420646f6573206e6f74206d617463680000000000006044820152606401610822565b80600c0154670de0b6b3a76400008360600151612ac29190613e1c565b612acc9190613e49565b871015612b145760405162461bcd60e51b81526020600482015260166024820152750a0c2f2dacadce840eec2e640dcdee840cadcdeeaced60531b6044820152606401610822565b909d909c50909a5098505050505050505050565b6000818152600660208181526040808420815160a08101835281546001600160a01b039081168083526001840180549092168387015260028401805484870152600380860180546060870152600480880180546080890152948c528952878b20548b529088529589208990558989529690955282546001600160a01b031990811690935580549092169091559284905583905591909155612bcc600d840183612f1a565b604080820151905183907fe8a865b4bab023c399cbd1f2cdd0df2199beb6e5012a4bd2d7691cf7e4199d5a90600090a3505050565b600081600a015482600b0154612c179190613d76565b9050806000036115d65781546001600160a01b03166000908152600460205260409020612c479060010184613272565b8154604080518581526001600160a01b0390921660208301527f8ac07cc6e38c6222dd0309c80353c1962354bacf222b825d7401cc80e93ff3cc910160405180910390a1600083815260056020526040812080546001600160a01b031916815590612cb56001830182613523565b6009820160009055600a820160009055600b820160009055600c820160009055600d82016000612ce59190613532565b5050505050565b6000600b54600014612db857670de0b6b3a7640000600b548360600151612d139190613e1c565b612d1d9190613e49565b600c5460405163a9059cbb60e01b81526001600160a01b039182166004820152602481018390529192507f0000000000000000000000000000000000000000000000000000000000000000169063a9059cbb906044016020604051808303816000875af1158015612d92573d6000803e3d6000fd5b505050506040513d601f19601f82011682018060405250810190612db69190613dfa565b505b6000818360600151612dca9190613d89565b602084015160405163a9059cbb60e01b81526001600160a01b039182166004820152602481018390529192507f0000000000000000000000000000000000000000000000000000000000000000169063a9059cbb906044016020604051808303816000875af1158015612e41573d6000803e3d6000fd5b505050506040513d601f19601f82011682018060405250810190612e659190613dfa565b50825160408085015160208087015183516001600160a01b03918216815291820186905292810186905291909216919086907ffa03438194e61c243c6bb5349f1e1dc674431b86f119b5e3b2b327bc43446bce9060600160405180910390a450505050565b600080546001600160a01b038381166001600160a01b0319831681178455604051919092169283917f8be0079c531659141344cd1fd0a4f28419497f9722a3daafe3b4186f6b6457e09190a35050565b600080612f7684805480602002602001604051908101604052809291908181526020018280548015612f6b57602002820191906000526020600020905b815481526020019060010190808311612f57575b505050505084613317565b9150915080612fbf5760405162461bcd60e51b8152602060048201526015602482015274313cba32b99999103737ba1034b71030b93930bc9760591b6044820152606401610822565b8354600090612fd090600190613d89565b905080831461301557848181548110612feb57612feb613d9c565b906000526020600020015485848154811061300857613008613d9c565b6000918252602090912001555b8480548061302557613025613f71565b60019003818190600052602060002001600090559055505b50505050565b6001546040805160808101825286815260208101869052808201859052606081018490529051630be4767960e11b815260009283926001600160a01b03909116916317c8ecf29161309691600401613f87565b6020604051808303816000875af11580156130b5573d6000803e3d6000fd5b505050506040513d601f19601f820116820180604052508101906130d99190613fec565b9695505050505050565b60006130ed613550565b6130f561356e565b60005b600681101561313f5784816008811061311357613113613d9c565b602002015183826006811061312a5761312a613d9c565b602002015261313881613db2565b90506130f8565b50604051631eb694f160e31b81526001600160a01b037f0000000000000000000000000000000000000000000000000000000000000000169063f5b4a7889061318c908590600401614005565b602060405180830381865afa1580156131a9573d6000803e3d6000fd5b505050506040513d601f19601f820116820180604052508101906131cd9190613fec565b815260c0840151602082015260e0840151604080830191909152516304b98e1d60e31b81527f00000000000000000000000000000000000000000000000000000000000000006001600160a01b0316906325cc70e890613231908490600401614036565b602060405180830381865afa15801561324e573d6000803e3d6000fd5b505050506040513d601f19601f820116820180604052508101906126109190613fec565b6000806132ce848054806020026020016040519081016040528092919081815260200182805480156132c357602002820191906000526020600020905b8154815260200190600101908083116132af575b50505050508461337a565b9150915080612fbf5760405162461bcd60e51b81526020600482015260156024820152743ab4b73a191a9b103737ba1034b71030b93930bc9760591b6044820152606401610822565b81516000908190815b81811015613367578486828151811061333b5761333b613d9c565b602002602001015103613355579250600191506133739050565b8061335f81613db2565b915050613320565b50600019600092509250505b9250929050565b81516000908190815b81811015613367578486828151811061339e5761339e613d9c565b6020026020010151036133b8579250600191506133739050565b806133c281613db2565b915050613383565b60408051608081018252600080825260208201529081016133e961346e565b8152602001600081525090565b8260088101928215613424579160200282015b82811115613424578251825591602001919060010190613409565b5061343092915061358c565b5090565b8280548282559060005260206000209081019282156134245791602002820182811115613424578251825591602001919060010190613409565b6040518060e0016040528060006001600160a01b031681526020016134916135a1565b815260200160008152602001600081526020016000815260200160008152602001606081525090565b604080516060810190915260008152602081016134d56134e2565b8152600060209091015290565b6040518060a0016040528060006001600160a01b0316815260200160006001600160a01b031681526020016000815260200160008152602001600081525090565b5061255090600881019061358c565b5080546000825590600052602060002090810190612550919061358c565b6040518060c001604052806006906020820280368337509192915050565b60405180606001604052806003906020820280368337509192915050565b5b80821115613430576000815560010161358d565b6040518061010001604052806008906020820280368337509192915050565b6001600160a01b038116811461255057600080fd5b6000602082840312156135e757600080fd5b81356135f2816135c0565b9392505050565b60006020828403121561360b57600080fd5b5035919050565b60008060006060848603121561362757600080fd5b83359250602084013591506040840135613640816135c0565b809150509250925092565b634e487b7160e01b600052604160045260246000fd5b6040805190810167ffffffffffffffff811182821017156136845761368461364b565b60405290565b604051601f8201601f1916810167ffffffffffffffff811182821017156136b3576136b361364b565b604052919050565b600082601f8301126136cc57600080fd5b6136d4613661565b8060408401858111156136e657600080fd5b845b818110156137005780358452602093840193016136e8565b509095945050505050565b600082601f83011261371c57600080fd5b613724613661565b80608084018581111561373657600080fd5b845b818110156137005761374a87826136bb565b8452602090930192604001613738565b6000806000806102e080868803121561377257600080fd5b61377c87876136bb565b945061378b876040880161370b565b935061379a8760c088016136bb565b92508661011f8701126137ac57600080fd5b6040516101e0810181811067ffffffffffffffff821117156137d0576137d061364b565b6040529086019080888311156137e557600080fd5b61010088015b838110156138035780358252602091820191016137eb565b5050809250505092959194509250565b6020808252825182820181905260009190848201906040850190845b8181101561384b5783518352928401929184019160010161382f565b50909695505050505050565b6000806040838503121561386a57600080fd5b8235613875816135c0565b91506020830135613885816135c0565b809150509250929050565b600081518084526020808501945080840160005b838110156138c0578151875295820195908201906001016138a4565b509495945050505050565b80516001600160a01b031682526020808201516000916101c091818601845b6008811015613907578251825291830191908301906001016138ea565b5050505060408301516101208501526060830151610140850152608083015161016085015260a083015161018085015260c0830151816101a086015261394f82860182613890565b95945050505050565b60006020808301818452808551808352604092508286019150828160051b87010184880160005b838110156139d657603f19898403018552815160808151855288820151898601528782015181898701526139b5828701826138cb565b6060938401519690930195909552509487019492509086019060010161397f565b509098975050505050505050565b600060208083850312156139f757600080fd5b823567ffffffffffffffff80821115613a0f57600080fd5b818501915085601f830112613a2357600080fd5b813581811115613a3557613a3561364b565b8060051b9150613a4684830161368a565b8181529183018401918481019088841115613a6057600080fd5b938501935b83851015613a7e57843582529385019390850190613a65565b98975050505050505050565b60208082528251828201528281015160408084015280516060840181905260009291820190839060808601905b80831015613ad75783518252928401926001929092019190840190613ab7565b509695505050505050565b60008060006101408486031215613af857600080fd5b84601f850112613b0757600080fd5b60405161010080820182811067ffffffffffffffff82111715613b2c57613b2c61364b565b60405285018187821115613b3f57600080fd5b865b82811015613b59578035825260209182019101613b41565b509197903596506101209590950135949350505050565b6020815260006135f260208301846138cb565b6000806000806101a0808688031215613b9b57600080fd5b613ba587876136bb565b9450613bb4876040880161370b565b9350613bc38760c088016136bb565b92508661011f870112613bd557600080fd5b60405160a0810181811067ffffffffffffffff821117156137d0576137d061364b565b60008060208385031215613c0b57600080fd5b823567ffffffffffffffff80821115613c2357600080fd5b818501915085601f830112613c3757600080fd5b813581811115613c4657600080fd5b8660208260051b8501011115613c5b57600080fd5b60209290920196919550909350505050565b602080825282518282018190526000919060409081850190868401855b82811015613cf0578151805185528681015180516001600160a01b039081168988015281890151168787015286810151606080880191909152810151608080880191909152015160a086015285015160c085015260e09093019290850190600101613c8a565b5091979650505050505050565b60008060408385031215613d1057600080fd5b8235613d1b816135c0565b946020939093013593505050565b6020808252601e908201527f43616c6c6572206d757374206265207265676973746572656420757365720000604082015260600190565b634e487b7160e01b600052601160045260246000fd5b8082018082111561247e5761247e613d60565b8181038181111561247e5761247e613d60565b634e487b7160e01b600052603260045260246000fd5b600060018201613dc457613dc4613d60565b5060010190565b602080825260159082015274125b9d195b9d08191bd95cc81b9bdd08195e1a5cdd605a1b604082015260600190565b600060208284031215613e0c57600080fd5b815180151581146135f257600080fd5b808202811582820484141761247e5761247e613d60565b634e487b7160e01b600052601260045260246000fd5b600082613e5857613e58613e33565b500490565b600082613e6c57613e6c613e33565b500690565b8060005b600281101561303d578151845260209384019390910190600101613e75565b8060005b600281101561303d57613eac848351613e71565b6040939093019260209190910190600101613e98565b60006102e082019050613ed6828451613e71565b602080840151613ee96040850182613e94565b506040840151613efc60c0850182613e71565b506060840151610100840160005b600f811015613f2757825182529183019190830190600101613f0a565b5050505092915050565b600080600080600060a08688031215613f4957600080fd5b5050835160208501516040860151606087015160809097015192989197509594509092509050565b634e487b7160e01b600052603160045260246000fd5b60006101a082019050613f9b828451613e71565b602080840151613fae6040850182613e94565b506040840151613fc160c0850182613e71565b506060840151610100840160005b6005811015613f2757825182529183019190830190600101613fcf565b600060208284031215613ffe57600080fd5b5051919050565b60c08101818360005b600681101561402d57815183526020928301929091019060010161400e565b50505092915050565b60608101818360005b600381101561402d57815183526020928301929091019060010161403f56fea2646970667358221220ce4b5ac012d074f8459b3087900f248a83a7859401303ac0546d4eb7feb3ba5064736f6c63430008120033",
  "devdoc": {
    "kind": "dev",
    "methods": {
      "addAccountToDenylist(bytes32)": {
        "params": {
          "_deniedUser": "Poseidon hash of the idHash being banned"
        }
      },
      "cancelIntent(bytes32)": {
        "params": {
          "_intentHash": "Hash of intent being cancelled"
        }
      },
      "initialize(address,address)": {
        "params": {
          "_registrationProcessor": "Registration processor address",
          "_sendProcessor": "Send processor address"
        }
      },
      "offRamp(uint256[8],uint256,uint256)": {
        "params": {
          "_depositAmount": "The amount of USDC to off-ramp",
          "_receiveAmount": "The amount of USD to receive",
          "_upiId": "The packed upi ID of the depositor"
        }
      },
      "onRamp(uint256[2],uint256[2][2],uint256[2],uint256[15])": {
        "params": {
          "_a": "Parameter of zk proof",
          "_b": "Parameter of zk proof",
          "_c": "Parameter of zk proof",
          "_signals": "Encoded public signals of the zk proof, contains mailserverHash, fromEmail, timestamp, onRamperIdHash,                  nullifier, intentHash"
        }
      },
      "owner()": {
        "details": "Returns the address of the current owner."
      },
      "register(uint256[2],uint256[2][2],uint256[2],uint256[5])": {
        "params": {
          "_a": "Parameter of zk proof",
          "_b": "Parameter of zk proof",
          "_c": "Parameter of zk proof",
          "_signals": "Encoded public signals of the zk proof, contains mailserverHash, fromEmail, userIdHash"
        }
      },
      "releaseFundsToOnramper(bytes32)": {
        "params": {
          "_intentHash": "Hash of intent to resolve by releasing the funds"
        }
      },
      "removeAccountFromDenylist(bytes32)": {
        "params": {
          "_approvedUser": "Poseidon hash of the idHash being approved"
        }
      },
      "renounceOwnership()": {
        "details": "Leaves the contract without owner. It will not be possible to call `onlyOwner` functions. Can only be called by the current owner. NOTE: Renouncing ownership will leave the contract without an owner, thereby disabling any functionality that is only available to the owner."
      },
      "setIntentExpirationPeriod(uint256)": {
        "params": {
          "_intentExpirationPeriod": "New intent expiration period"
        }
      },
      "setMaxOnRampAmount(uint256)": {
        "params": {
          "_maxOnRampAmount": "The new max on ramp amount"
        }
      },
      "setMinDepositAmount(uint256)": {
        "params": {
          "_minDepositAmount": "The new minimum deposit amount"
        }
      },
      "setOnRampCooldownPeriod(uint256)": {
        "params": {
          "_onRampCooldownPeriod": "New on-ramp cooldown period"
        }
      },
      "setRegistrationProcessor(address)": {
        "params": {
          "_registrationProcessor": "New registration proccesor address"
        }
      },
      "setSendProcessor(address)": {
        "params": {
          "_sendProcessor": "New send proccesor address"
        }
      },
      "setSustainabilityFee(uint256)": {
        "params": {
          "_fee": "The new sustainability fee in precise units (10**18, ie 10% = 1e17)"
        }
      },
      "setSustainabilityFeeRecipient(address)": {
        "params": {
          "_feeRecipient": "The new fee recipient address"
        }
      },
      "signalIntent(uint256,uint256,address)": {
        "params": {
          "_amount": "The amount of USDC the user wants to on-ramp",
          "_depositId": "The ID of the deposit the on-ramper intends to use for ",
          "_to": "Address to forward funds to (can be same as onRamper)"
        }
      },
      "transferOwnership(address)": {
        "details": "Transfers ownership of the contract to a new account (`newOwner`). Can only be called by the current owner."
      },
      "withdrawDeposit(uint256[])": {
        "params": {
          "_depositIds": "Array of depositIds the depositor is attempting to withdraw"
        }
      }
    },
    "version": 1
  },
  "userdoc": {
    "kind": "user",
    "methods": {
      "addAccountToDenylist(bytes32)": {
        "notice": "Adds an idHash to a depositor's deny list. If an address associated with the banned idHash attempts to signal an intent on the user's deposit they will be denied."
      },
      "cancelIntent(bytes32)": {
        "notice": "Only callable by the originator of the intent. Cancels an outstanding intent thus allowing user to signal a new intent. Deposit state is updated to reflect the cancelled intent."
      },
      "initialize(address,address)": {
        "notice": "Initialize Ramp with the addresses of the Processors"
      },
      "offRamp(uint256[8],uint256,uint256)": {
        "notice": "Generates a deposit entry for off-rampers that can then be fulfilled by an on-ramper. This function will not add to previous deposits. Every deposit has it's own unique identifier. User must approve the contract to transfer the deposit amount of USDC."
      },
      "onRamp(uint256[2],uint256[2][2],uint256[2],uint256[15])": {
        "notice": "Anyone can submit an on-ramp transaction, even if caller isn't on-ramper. Upon submission the proof is validated, intent is removed, and deposit state is updated. USDC is transferred to the on-ramper."
      },
      "register(uint256[2],uint256[2][2],uint256[2],uint256[5])": {
        "notice": "Registers a new account by pulling the hash of the account id from the proof and assigning the account owner to the sender of the transaction. One HDFC account can be registered to multiple Ethereum addresses."
      },
      "releaseFundsToOnramper(bytes32)": {
        "notice": "Allows off-ramper to release funds to the on-ramper in case of a failed on-ramp or because of some other arrangement between the two parties. Upon submission we check to make sure the msg.sender is the depositor, the  intent is removed, and  deposit state is updated. USDC is transferred to the on-ramper."
      },
      "removeAccountFromDenylist(bytes32)": {
        "notice": "Removes a idHash from a depositor's deny list."
      },
      "setIntentExpirationPeriod(uint256)": {
        "notice": "GOVERNANCE ONLY: Updates the intent expiration period, after this period elapses an intent can be pruned to prevent locking up a depositor's funds."
      },
      "setMaxOnRampAmount(uint256)": {
        "notice": "GOVERNANCE ONLY: Updates the max amount allowed to be on-ramped in each transaction. To on-ramp more than this amount a user must make multiple transactions."
      },
      "setMinDepositAmount(uint256)": {
        "notice": "GOVERNANCE ONLY: Updates the minimum deposit amount a user can specify for off-ramping."
      },
      "setOnRampCooldownPeriod(uint256)": {
        "notice": "GOVERNANCE ONLY: Updates the on-ramp cooldown period, once an on-ramp transaction is completed the user must wait this amount of time before they can signalIntent to on-ramp again."
      },
      "setRegistrationProcessor(address)": {
        "notice": "GOVERNANCE ONLY: Updates the registration processor address used for validating and interpreting zk proofs."
      },
      "setSendProcessor(address)": {
        "notice": "GOVERNANCE ONLY: Updates the send processor address used for validating and interpreting zk proofs."
      },
      "setSustainabilityFee(uint256)": {
        "notice": "GOVERNANCE ONLY: Updates the sustainability fee. This fee is charged to on-rampers upon a successful on-ramp."
      },
      "setSustainabilityFeeRecipient(address)": {
        "notice": "GOVERNANCE ONLY: Updates the recepient of sustainability fees."
      },
      "signalIntent(uint256,uint256,address)": {
        "notice": "Signals intent to pay the depositor defined in the _depositId the _amount * deposit conversionRate off-chain in order to unlock _amount of funds on-chain. Each user can only have one outstanding intent at a time regardless of address (tracked using idHash). Caller must not be on the depositor's deny list. If there are prunable intents then they will be deleted from the deposit to be able to maintain state hygiene."
      },
      "withdrawDeposit(uint256[])": {
        "notice": "Caller must be the depositor for each depositId in the array, if not whole function fails. Depositor is returned all remaining deposits and any outstanding intents that are expired. If an intent is not expired then those funds will not be returned. Deposit will be deleted as long as there are no more outstanding intents."
      }
    },
    "version": 1
  },
  "storageLayout": {
    "storage": [
      {
        "astId": 7,
        "contract": "contracts/ramps/hdfc/HDFCRamp.sol:HDFCRamp",
        "label": "_owner",
        "offset": 0,
        "slot": "0",
        "type": "t_address"
      },
      {
        "astId": 4128,
        "contract": "contracts/ramps/hdfc/HDFCRamp.sol:HDFCRamp",
        "label": "registrationProcessor",
        "offset": 0,
        "slot": "1",
        "type": "t_contract(IRegistrationProcessor)6944"
      },
      {
        "astId": 4131,
        "contract": "contracts/ramps/hdfc/HDFCRamp.sol:HDFCRamp",
        "label": "sendProcessor",
        "offset": 0,
        "slot": "2",
        "type": "t_contract(IHDFCSendProcessor)6914"
      },
      {
        "astId": 4133,
        "contract": "contracts/ramps/hdfc/HDFCRamp.sol:HDFCRamp",
        "label": "isInitialized",
        "offset": 20,
        "slot": "2",
        "type": "t_bool"
      },
      {
        "astId": 4138,
        "contract": "contracts/ramps/hdfc/HDFCRamp.sol:HDFCRamp",
        "label": "globalAccount",
        "offset": 0,
        "slot": "3",
        "type": "t_mapping(t_bytes32,t_struct(GlobalAccountInfo)4086_storage)"
      },
      {
        "astId": 4143,
        "contract": "contracts/ramps/hdfc/HDFCRamp.sol:HDFCRamp",
        "label": "accounts",
        "offset": 0,
        "slot": "4",
        "type": "t_mapping(t_address,t_struct(AccountInfo)4023_storage)"
      },
      {
        "astId": 4148,
        "contract": "contracts/ramps/hdfc/HDFCRamp.sol:HDFCRamp",
        "label": "deposits",
        "offset": 0,
        "slot": "5",
        "type": "t_mapping(t_uint256,t_struct(Deposit)4041_storage)"
      },
      {
        "astId": 4153,
        "contract": "contracts/ramps/hdfc/HDFCRamp.sol:HDFCRamp",
        "label": "intents",
        "offset": 0,
        "slot": "6",
        "type": "t_mapping(t_bytes32,t_struct(Intent)4062_storage)"
      },
      {
        "astId": 4155,
        "contract": "contracts/ramps/hdfc/HDFCRamp.sol:HDFCRamp",
        "label": "minDepositAmount",
        "offset": 0,
        "slot": "7",
        "type": "t_uint256"
      },
      {
        "astId": 4157,
        "contract": "contracts/ramps/hdfc/HDFCRamp.sol:HDFCRamp",
        "label": "maxOnRampAmount",
        "offset": 0,
        "slot": "8",
        "type": "t_uint256"
      },
      {
        "astId": 4159,
        "contract": "contracts/ramps/hdfc/HDFCRamp.sol:HDFCRamp",
        "label": "onRampCooldownPeriod",
        "offset": 0,
        "slot": "9",
        "type": "t_uint256"
      },
      {
        "astId": 4161,
        "contract": "contracts/ramps/hdfc/HDFCRamp.sol:HDFCRamp",
        "label": "intentExpirationPeriod",
        "offset": 0,
        "slot": "10",
        "type": "t_uint256"
      },
      {
        "astId": 4163,
        "contract": "contracts/ramps/hdfc/HDFCRamp.sol:HDFCRamp",
        "label": "sustainabilityFee",
        "offset": 0,
        "slot": "11",
        "type": "t_uint256"
      },
      {
        "astId": 4165,
        "contract": "contracts/ramps/hdfc/HDFCRamp.sol:HDFCRamp",
        "label": "sustainabilityFeeRecipient",
        "offset": 0,
        "slot": "12",
        "type": "t_address"
      },
      {
        "astId": 4167,
        "contract": "contracts/ramps/hdfc/HDFCRamp.sol:HDFCRamp",
        "label": "depositCounter",
        "offset": 0,
        "slot": "13",
        "type": "t_uint256"
      }
    ],
    "types": {
      "t_address": {
        "encoding": "inplace",
        "label": "address",
        "numberOfBytes": "20"
      },
      "t_array(t_bytes32)dyn_storage": {
        "base": "t_bytes32",
        "encoding": "dynamic_array",
        "label": "bytes32[]",
        "numberOfBytes": "32"
      },
      "t_array(t_uint256)8_storage": {
        "base": "t_uint256",
        "encoding": "inplace",
        "label": "uint256[8]",
        "numberOfBytes": "256"
      },
      "t_array(t_uint256)dyn_storage": {
        "base": "t_uint256",
        "encoding": "dynamic_array",
        "label": "uint256[]",
        "numberOfBytes": "32"
      },
      "t_bool": {
        "encoding": "inplace",
        "label": "bool",
        "numberOfBytes": "1"
      },
      "t_bytes32": {
        "encoding": "inplace",
        "label": "bytes32",
        "numberOfBytes": "32"
      },
      "t_contract(IHDFCSendProcessor)6914": {
        "encoding": "inplace",
        "label": "contract IHDFCSendProcessor",
        "numberOfBytes": "20"
      },
      "t_contract(IRegistrationProcessor)6944": {
        "encoding": "inplace",
        "label": "contract IRegistrationProcessor",
        "numberOfBytes": "20"
      },
      "t_mapping(t_address,t_struct(AccountInfo)4023_storage)": {
        "encoding": "mapping",
        "key": "t_address",
        "label": "mapping(address => struct HDFCRamp.AccountInfo)",
        "numberOfBytes": "32",
        "value": "t_struct(AccountInfo)4023_storage"
      },
      "t_mapping(t_bytes32,t_bool)": {
        "encoding": "mapping",
        "key": "t_bytes32",
        "label": "mapping(bytes32 => bool)",
        "numberOfBytes": "32",
        "value": "t_bool"
      },
      "t_mapping(t_bytes32,t_struct(GlobalAccountInfo)4086_storage)": {
        "encoding": "mapping",
        "key": "t_bytes32",
        "label": "mapping(bytes32 => struct HDFCRamp.GlobalAccountInfo)",
        "numberOfBytes": "32",
        "value": "t_struct(GlobalAccountInfo)4086_storage"
      },
      "t_mapping(t_bytes32,t_struct(Intent)4062_storage)": {
        "encoding": "mapping",
        "key": "t_bytes32",
        "label": "mapping(bytes32 => struct HDFCRamp.Intent)",
        "numberOfBytes": "32",
        "value": "t_struct(Intent)4062_storage"
      },
      "t_mapping(t_uint256,t_struct(Deposit)4041_storage)": {
        "encoding": "mapping",
        "key": "t_uint256",
        "label": "mapping(uint256 => struct HDFCRamp.Deposit)",
        "numberOfBytes": "32",
        "value": "t_struct(Deposit)4041_storage"
      },
      "t_struct(AccountInfo)4023_storage": {
        "encoding": "inplace",
        "label": "struct HDFCRamp.AccountInfo",
        "members": [
          {
            "astId": 4019,
            "contract": "contracts/ramps/hdfc/HDFCRamp.sol:HDFCRamp",
            "label": "idHash",
            "offset": 0,
            "slot": "0",
            "type": "t_bytes32"
          },
          {
            "astId": 4022,
            "contract": "contracts/ramps/hdfc/HDFCRamp.sol:HDFCRamp",
            "label": "deposits",
            "offset": 0,
            "slot": "1",
            "type": "t_array(t_uint256)dyn_storage"
          }
        ],
        "numberOfBytes": "64"
      },
      "t_struct(DenyList)4078_storage": {
        "encoding": "inplace",
        "label": "struct HDFCRamp.DenyList",
        "members": [
          {
            "astId": 4073,
            "contract": "contracts/ramps/hdfc/HDFCRamp.sol:HDFCRamp",
            "label": "deniedUsers",
            "offset": 0,
            "slot": "0",
            "type": "t_array(t_bytes32)dyn_storage"
          },
          {
            "astId": 4077,
            "contract": "contracts/ramps/hdfc/HDFCRamp.sol:HDFCRamp",
            "label": "isDenied",
            "offset": 0,
            "slot": "1",
            "type": "t_mapping(t_bytes32,t_bool)"
          }
        ],
        "numberOfBytes": "64"
      },
      "t_struct(Deposit)4041_storage": {
        "encoding": "inplace",
        "label": "struct HDFCRamp.Deposit",
        "members": [
          {
            "astId": 4025,
            "contract": "contracts/ramps/hdfc/HDFCRamp.sol:HDFCRamp",
            "label": "depositor",
            "offset": 0,
            "slot": "0",
            "type": "t_address"
          },
          {
            "astId": 4029,
            "contract": "contracts/ramps/hdfc/HDFCRamp.sol:HDFCRamp",
            "label": "upiId",
            "offset": 0,
            "slot": "1",
            "type": "t_array(t_uint256)8_storage"
          },
          {
            "astId": 4031,
            "contract": "contracts/ramps/hdfc/HDFCRamp.sol:HDFCRamp",
            "label": "depositAmount",
            "offset": 0,
            "slot": "9",
            "type": "t_uint256"
          },
          {
            "astId": 4033,
            "contract": "contracts/ramps/hdfc/HDFCRamp.sol:HDFCRamp",
            "label": "remainingDeposits",
            "offset": 0,
            "slot": "10",
            "type": "t_uint256"
          },
          {
            "astId": 4035,
            "contract": "contracts/ramps/hdfc/HDFCRamp.sol:HDFCRamp",
            "label": "outstandingIntentAmount",
            "offset": 0,
            "slot": "11",
            "type": "t_uint256"
          },
          {
            "astId": 4037,
            "contract": "contracts/ramps/hdfc/HDFCRamp.sol:HDFCRamp",
            "label": "conversionRate",
            "offset": 0,
            "slot": "12",
            "type": "t_uint256"
          },
          {
            "astId": 4040,
            "contract": "contracts/ramps/hdfc/HDFCRamp.sol:HDFCRamp",
            "label": "intentHashes",
            "offset": 0,
            "slot": "13",
            "type": "t_array(t_bytes32)dyn_storage"
          }
        ],
        "numberOfBytes": "448"
      },
      "t_struct(GlobalAccountInfo)4086_storage": {
        "encoding": "inplace",
        "label": "struct HDFCRamp.GlobalAccountInfo",
        "members": [
          {
            "astId": 4080,
            "contract": "contracts/ramps/hdfc/HDFCRamp.sol:HDFCRamp",
            "label": "currentIntentHash",
            "offset": 0,
            "slot": "0",
            "type": "t_bytes32"
          },
          {
            "astId": 4082,
            "contract": "contracts/ramps/hdfc/HDFCRamp.sol:HDFCRamp",
            "label": "lastOnrampTimestamp",
            "offset": 0,
            "slot": "1",
            "type": "t_uint256"
          },
          {
            "astId": 4085,
            "contract": "contracts/ramps/hdfc/HDFCRamp.sol:HDFCRamp",
            "label": "denyList",
            "offset": 0,
            "slot": "2",
            "type": "t_struct(DenyList)4078_storage"
          }
        ],
        "numberOfBytes": "128"
      },
      "t_struct(Intent)4062_storage": {
        "encoding": "inplace",
        "label": "struct HDFCRamp.Intent",
        "members": [
          {
            "astId": 4053,
            "contract": "contracts/ramps/hdfc/HDFCRamp.sol:HDFCRamp",
            "label": "onRamper",
            "offset": 0,
            "slot": "0",
            "type": "t_address"
          },
          {
            "astId": 4055,
            "contract": "contracts/ramps/hdfc/HDFCRamp.sol:HDFCRamp",
            "label": "to",
            "offset": 0,
            "slot": "1",
            "type": "t_address"
          },
          {
            "astId": 4057,
            "contract": "contracts/ramps/hdfc/HDFCRamp.sol:HDFCRamp",
            "label": "deposit",
            "offset": 0,
            "slot": "2",
            "type": "t_uint256"
          },
          {
            "astId": 4059,
            "contract": "contracts/ramps/hdfc/HDFCRamp.sol:HDFCRamp",
            "label": "amount",
            "offset": 0,
            "slot": "3",
            "type": "t_uint256"
          },
          {
            "astId": 4061,
            "contract": "contracts/ramps/hdfc/HDFCRamp.sol:HDFCRamp",
            "label": "intentTimestamp",
            "offset": 0,
            "slot": "4",
            "type": "t_uint256"
          }
        ],
        "numberOfBytes": "160"
      },
      "t_uint256": {
        "encoding": "inplace",
        "label": "uint256",
        "numberOfBytes": "32"
      }
    }
  }
}