{
  "address": "0x96fa6C854F35665c0B5C6365c64a9EECa5793411",
  "abi": [
    {
      "inputs": [
        {
          "internalType": "address",
          "name": "_ramp",
          "type": "address"
        },
        {
          "internalType": "address",
          "name": "_verifierSigningKey",
          "type": "address"
        },
        {
          "internalType": "bytes32",
          "name": "_notaryKeyHash",
          "type": "bytes32"
        },
        {
          "internalType": "contract INullifierRegistry",
          "name": "_nullifierRegistry",
          "type": "address"
        },
        {
          "internalType": "uint256",
          "name": "_timestampBuffer",
          "type": "uint256"
        },
        {
          "internalType": "string",
          "name": "_endpoint",
          "type": "string"
        },
        {
          "internalType": "string",
          "name": "_host",
          "type": "string"
        }
      ],
      "stateMutability": "nonpayable",
      "type": "constructor"
    },
    {
      "anonymous": false,
      "inputs": [
        {
          "indexed": true,
          "internalType": "address",
          "name": "previousOwner",
          "type": "address"
        },
        {
          "indexed": true,
          "internalType": "address",
          "name": "newOwner",
          "type": "address"
        }
      ],
      "name": "OwnershipTransferred",
      "type": "event"
    },
    {
      "anonymous": false,
      "inputs": [
        {
          "indexed": false,
          "internalType": "address",
          "name": "_verifierSigningKey",
          "type": "address"
        }
      ],
      "name": "VerifierSigningKeySet",
      "type": "event"
    },
    {
      "inputs": [],
      "name": "endpoint",
      "outputs": [
        {
          "internalType": "string",
          "name": "",
          "type": "string"
        }
      ],
      "stateMutability": "view",
      "type": "function"
    },
    {
      "inputs": [],
      "name": "host",
      "outputs": [
        {
          "internalType": "string",
          "name": "",
          "type": "string"
        }
      ],
      "stateMutability": "view",
      "type": "function"
    },
    {
      "inputs": [],
      "name": "notaryKeyHash",
      "outputs": [
        {
          "internalType": "bytes32",
          "name": "",
          "type": "bytes32"
        }
      ],
      "stateMutability": "view",
      "type": "function"
    },
    {
      "inputs": [],
      "name": "nullifierRegistry",
      "outputs": [
        {
          "internalType": "contract INullifierRegistry",
          "name": "",
          "type": "address"
        }
      ],
      "stateMutability": "view",
      "type": "function"
    },
    {
      "inputs": [],
      "name": "owner",
      "outputs": [
        {
          "internalType": "address",
          "name": "",
          "type": "address"
        }
      ],
      "stateMutability": "view",
      "type": "function"
    },
    {
      "inputs": [
        {
          "components": [
            {
              "components": [
                {
                  "internalType": "string",
                  "name": "endpoint",
                  "type": "string"
                },
                {
                  "internalType": "string",
                  "name": "host",
                  "type": "string"
                },
                {
                  "internalType": "string",
                  "name": "profileId",
                  "type": "string"
                },
                {
                  "internalType": "address",
                  "name": "userAddress",
                  "type": "address"
                },
                {
                  "internalType": "uint256",
                  "name": "notaryKeyHash",
                  "type": "uint256"
                }
              ],
              "internalType": "struct IRevolutAccountRegistrationProcessor.RegistrationData",
              "name": "public_values",
              "type": "tuple"
            },
            {
              "internalType": "bytes",
              "name": "proof",
              "type": "bytes"
            }
          ],
          "internalType": "struct IRevolutAccountRegistrationProcessor.RegistrationProof",
          "name": "_proof",
          "type": "tuple"
        }
      ],
      "name": "processProof",
      "outputs": [
        {
          "internalType": "bytes32",
          "name": "onRampId",
          "type": "bytes32"
        }
      ],
      "stateMutability": "nonpayable",
      "type": "function"
    },
    {
      "inputs": [],
      "name": "ramp",
      "outputs": [
        {
          "internalType": "address",
          "name": "",
          "type": "address"
        }
      ],
      "stateMutability": "view",
      "type": "function"
    },
    {
      "inputs": [],
      "name": "renounceOwnership",
      "outputs": [],
      "stateMutability": "nonpayable",
      "type": "function"
    },
    {
      "inputs": [
        {
          "internalType": "uint256",
          "name": "_timestampBuffer",
          "type": "uint256"
        }
      ],
      "name": "setTimestampBuffer",
      "outputs": [],
      "stateMutability": "nonpayable",
      "type": "function"
    },
    {
      "inputs": [
        {
          "internalType": "address",
          "name": "_verifierSigningKey",
          "type": "address"
        }
      ],
      "name": "setVerifierSigningKey",
      "outputs": [],
      "stateMutability": "nonpayable",
      "type": "function"
    },
    {
      "inputs": [],
      "name": "timestampBuffer",
      "outputs": [
        {
          "internalType": "uint256",
          "name": "",
          "type": "uint256"
        }
      ],
      "stateMutability": "view",
      "type": "function"
    },
    {
      "inputs": [
        {
          "internalType": "address",
          "name": "newOwner",
          "type": "address"
        }
      ],
      "name": "transferOwnership",
      "outputs": [],
      "stateMutability": "nonpayable",
      "type": "function"
    },
    {
      "inputs": [],
      "name": "verifierSigningKey",
      "outputs": [
        {
          "internalType": "address",
          "name": "",
          "type": "address"
        }
      ],
      "stateMutability": "view",
      "type": "function"
    },
    {
      "inputs": [
        {
          "components": [
            {
              "internalType": "string",
              "name": "endpoint",
              "type": "string"
            },
            {
              "internalType": "string",
              "name": "host",
              "type": "string"
            },
            {
              "internalType": "string",
              "name": "profileId",
              "type": "string"
            },
            {
              "internalType": "address",
              "name": "userAddress",
              "type": "address"
            },
            {
              "internalType": "uint256",
              "name": "notaryKeyHash",
              "type": "uint256"
            }
          ],
          "internalType": "struct IRevolutAccountRegistrationProcessor.RegistrationData",
          "name": "_publicValues",
          "type": "tuple"
        },
        {
          "internalType": "bytes",
          "name": "_proof",
          "type": "bytes"
        }
      ],
      "name": "verifyProof",
      "outputs": [
        {
          "internalType": "bool",
          "name": "",
          "type": "bool"
        }
      ],
      "stateMutability": "view",
      "type": "function"
    }
  ],
  "transactionHash": "0x46fd5c6c178c1a2a40b7ee671ed84175778d8edf88f38f979c256810680a4ede",
  "args": [
    "0x44115b15Ff0Db10702DFC72Cb2fd3179215623df",
    "0x166338393593e85bfde8B65358Ec5801A3445D12",
    "0xfa15be4a0fff051ec52e2738d0d62f7e8c0e951705885ed7290a6daff1ed7aee",
    "0x3DD68Da97Eaf62Dd5cdD0767AA20b5AF665D0a34",
    "0",
    "GET https://app.revolut.com/api/retail/user/current",
    "app.revolut.com"
  ],
  "numDeployments": 1,
  "solcInputHash": "3d00f158650f73562ebab290bf8faab9",
  "bytecode": "0x60a06040523480156200001157600080fd5b5060405162001a2c38038062001a2c8339810160408190526200003491620001e8565b86848484846200004433620000ba565b6001600160a01b03851660805260016200005f838262000335565b5060026200006e828262000335565b5050600380546001600160a01b039485166001600160a01b0319918216179091556004929092555060058054999092169816979097179096555050506006919091555062000401915050565b600080546001600160a01b038381166001600160a01b0319831681178455604051919092169283917f8be0079c531659141344cd1fd0a4f28419497f9722a3daafe3b4186f6b6457e09190a35050565b6001600160a01b03811681146200012057600080fd5b50565b634e487b7160e01b600052604160045260246000fd5b600082601f8301126200014b57600080fd5b81516001600160401b038082111562000168576200016862000123565b604051601f8301601f19908116603f0116810190828211818310171562000193576200019362000123565b81604052838152602092508683858801011115620001b057600080fd5b600091505b83821015620001d45785820183015181830184015290820190620001b5565b600093810190920192909252949350505050565b600080600080600080600060e0888a0312156200020457600080fd5b875162000211816200010a565b602089015190975062000224816200010a565b604089015160608a015191975095506200023e816200010a565b608089015160a08a015191955093506001600160401b03808211156200026357600080fd5b620002718b838c0162000139565b935060c08a01519150808211156200028857600080fd5b50620002978a828b0162000139565b91505092959891949750929550565b600181811c90821680620002bb57607f821691505b602082108103620002dc57634e487b7160e01b600052602260045260246000fd5b50919050565b601f8211156200033057600081815260208120601f850160051c810160208610156200030b5750805b601f850160051c820191505b818110156200032c5782815560010162000317565b5050505b505050565b81516001600160401b0381111562000351576200035162000123565b6200036981620003628454620002a6565b84620002e2565b602080601f831160018114620003a15760008415620003885750858301515b600019600386901b1c1916600185901b1785556200032c565b600085815260208120601f198616915b82811015620003d257888601518255948401946001909101908401620003b1565b5085821015620003f15787850151600019600388901b60f8161c191681555b5050505050600190811b01905550565b608051611608620004246000396000818161012401526103f901526116086000f3fe608060405234801561001057600080fd5b50600436106100ea5760003560e01c8063b870676c1161008c578063dec965d311610066578063dec965d3146101e9578063f193eda6146101fc578063f2fde38b14610205578063f437bc591461021857600080fd5b8063b870676c1461019c578063beb15c21146101af578063dbac5821146101d257600080fd5b80635e280f11116100c85780635e280f111461015b578063715018a6146101705780638da5cb5b14610178578063b2a3fda41461018957600080fd5b80630fa4ed4d146100ef57806315d276e11461011f5780634e06a32b14610146575b600080fd5b600554610102906001600160a01b031681565b6040516001600160a01b0390911681526020015b60405180910390f35b6101027f000000000000000000000000000000000000000000000000000000000000000081565b610159610154366004610fca565b610220565b005b61016361027c565b6040516101169190611035565b61015961030a565b6000546001600160a01b0316610102565b610159610197366004611048565b61031e565b600354610102906001600160a01b031681565b6101c26101bd3660046111e5565b61032b565b6040519015158152602001610116565b6101db60045481565b604051908152602001610116565b6101db6101f736600461125d565b6103ec565b6101db60065481565b610159610213366004610fca565b610744565b6101636107bd565b6102286107ca565b600580546001600160a01b0319166001600160a01b0383169081179091556040519081527fb8603ceabf8ee4633f1fd8c0ae9e0e64f2fc2fea5cb79a96c18efd007aab6f969060200160405180910390a150565b6001805461028990611298565b80601f01602080910402602001604051908101604052809291908181526020018280546102b590611298565b80156103025780601f106102d757610100808354040283529160200191610302565b820191906000526020600020905b8154815290600101906020018083116102e557829003601f168201915b505050505081565b6103126107ca565b61031c6000610824565b565b6103266107ca565b600455565b6000808360000151846020015185604001518660600151876080015160405160200161035b9594939291906112d2565b6040516020818303038152906040529050600654846080015160001b146103c95760405162461bcd60e51b815260206004820152601760248201527f496e76616c6964206e6f74617279206b6579206861736800000000000000000060448201526064015b60405180910390fd5b6005546103e290829085906001600160a01b0316610874565b9150505b92915050565b6000336001600160a01b037f000000000000000000000000000000000000000000000000000000000000000016146104665760405162461bcd60e51b815260206004820181905260248201527f4f6e6c792052616d702063616e2063616c6c20746869732066756e6374696f6e60448201526064016103c0565b6104c36104738380611329565b61047c90611349565b6104896020850185611355565b8080601f0160208091040260200160405190810160405280939291908181526020018383808284376000920191909152506108c892505050565b6105a3600180546104d390611298565b80601f01602080910402602001604051908101604052809291908181526020018280546104ff90611298565b801561054c5780601f106105215761010080835404028352916020019161054c565b820191906000526020600020905b81548152906001019060200180831161052f57829003601f168201915b5061055f93508792508291506113299050565b6105699080611355565b8080601f01602080910402602001604051908101604052809392919081815260200183838082843760009201919091525061091292505050565b610687600280546105b390611298565b80601f01602080910402602001604051908101604052809291908181526020018280546105df90611298565b801561062c5780601f106106015761010080835404028352916020019161062c565b820191906000526020600020905b81548152906001019060200180831161060f57829003601f168201915b5061063f93508792508291506113299050565b61064d906020810190611355565b8080601f0160208091040260200160405190810160405280939291908181526020018383808284376000920191909152506109ad92505050565b6106ea6106948380611329565b6106a5906080810190606001610fca565b6106af8480611329565b6106bd906040810190611355565b6040516020016106cf9392919061139c565b60405160208183030381529060405280519060200120610a48565b6103e660006106f98480611329565b610707906040810190611355565b8080601f0160208091040260200160405190810160405280939291908181526020018383808284376000920191909152509293925050610b639050565b61074c6107ca565b6001600160a01b0381166107b15760405162461bcd60e51b815260206004820152602660248201527f4f776e61626c653a206e6577206f776e657220697320746865207a65726f206160448201526564647265737360d01b60648201526084016103c0565b6107ba81610824565b50565b6002805461028990611298565b6000546001600160a01b0316331461031c5760405162461bcd60e51b815260206004820181905260248201527f4f776e61626c653a2063616c6c6572206973206e6f7420746865206f776e657260448201526064016103c0565b600080546001600160a01b038381166001600160a01b0319831681178455604051919092169283917f8be0079c531659141344cd1fd0a4f28419497f9722a3daafe3b4186f6b6457e09190a35050565b825160208401207f19457468657265756d205369676e6564204d6573736167653a0a3332000000006000908152601c91909152603c81206108bf6001600160a01b0384168286610b7b565b95945050505050565b6108d2828261032b565b61090e5760405162461bcd60e51b815260206004820152600d60248201526c24b73b30b634b210383937b7b360991b60448201526064016103c0565b5050565b806040516020016109239190611035565b604051602081830303815290604052805190602001208260405160200161094a9190611035565b604051602081830303815290604052805190602001201461090e5760405162461bcd60e51b815260206004820181905260248201527f456e64706f696e7420646f6573206e6f74206d6174636820657870656374656460448201526064016103c0565b806040516020016109be9190611035565b60405160208183030381529060405280519060200120826040516020016109e59190611035565b604051602081830303815290604052805190602001201461090e5760405162461bcd60e51b815260206004820152601c60248201527f486f737420646f6573206e6f74206d617463682065787065637465640000000060448201526064016103c0565b60035460405163169394bb60e01b8152600481018390526001600160a01b039091169063169394bb90602401602060405180830381865afa158015610a91573d6000803e3d6000fd5b505050506040513d601f19601f82011682018060405250810190610ab591906113dc565b15610b025760405162461bcd60e51b815260206004820152601f60248201527f4e756c6c69666965722068617320616c7265616479206265656e20757365640060448201526064016103c0565b600354604051632dea6f9960e11b8152600481018390526001600160a01b0390911690635bd4df3290602401600060405180830381600087803b158015610b4857600080fd5b505af1158015610b5c573d6000803e3d6000fd5b5050505050565b6000610b7483601760f91b84610bdc565b9392505050565b6000806000610b8a8585610db9565b90925090506000816004811115610ba357610ba36113fe565b148015610bc15750856001600160a01b0316826001600160a01b0316145b80610bd25750610bd2868686610dfe565b9695505050505050565b600083818080805b8451811015610d3257603060f81b858281518110610c0457610c04611414565b01602001516001600160f81b03191610801590610c455750603960f81b858281518110610c3357610c33611414565b01602001516001600160f81b03191611155b15610c88576030858281518110610c5e57610c5e611414565b0160200151610c70919060f81c611440565b610c7b85600a611453565b610c85919061146a565b93505b8115610c9c5782610c988161147d565b9350505b876001600160f81b031916858281518110610cb957610cb9611414565b01602001516001600160f81b03191603610d20578115610d1b5760405162461bcd60e51b815260206004820152601c60248201527f537472696e6720686173206d756c7469706c6520646563696d616c730000000060448201526064016103c0565b600191505b80610d2a8161147d565b915050610be4565b5085821115610d8e5760405162461bcd60e51b815260206004820152602260248201527f537472696e672068617320746f6f206d616e7920646563696d616c20706c6163604482015261657360f01b60648201526084016103c0565b610d988287611440565b610da390600a61157a565b610dad9084611453565b98975050505050505050565b6000808251604103610def5760208301516040840151606085015160001a610de387828585610eea565b94509450505050610df7565b506000905060025b9250929050565b6000806000856001600160a01b0316631626ba7e60e01b8686604051602401610e28929190611586565b60408051601f198184030181529181526020820180516001600160e01b03166001600160e01b0319909416939093179092529051610e6691906115a7565b600060405180830381855afa9150503d8060008114610ea1576040519150601f19603f3d011682016040523d82523d6000602084013e610ea6565b606091505b5091509150818015610eba57506020815110155b8015610bd257508051630b135d3f60e11b90610edf90830160209081019084016115b9565b149695505050505050565b6000807f7fffffffffffffffffffffffffffffff5d576e7357a4501ddfe92f46681b20a0831115610f215750600090506003610fa5565b6040805160008082526020820180845289905260ff881692820192909252606081018690526080810185905260019060a0016020604051602081039080840390855afa158015610f75573d6000803e3d6000fd5b5050604051601f1901519150506001600160a01b038116610f9e57600060019250925050610fa5565b9150600090505b94509492505050565b80356001600160a01b0381168114610fc557600080fd5b919050565b600060208284031215610fdc57600080fd5b610b7482610fae565b60005b83811015611000578181015183820152602001610fe8565b50506000910152565b60008151808452611021816020860160208601610fe5565b601f01601f19169290920160200192915050565b602081526000610b746020830184611009565b60006020828403121561105a57600080fd5b5035919050565b634e487b7160e01b600052604160045260246000fd5b60405160a0810167ffffffffffffffff8111828210171561109a5761109a611061565b60405290565b600067ffffffffffffffff808411156110bb576110bb611061565b604051601f8501601f19908116603f011681019082821181831017156110e3576110e3611061565b816040528093508581528686860111156110fc57600080fd5b858560208301376000602087830101525050509392505050565b600082601f83011261112757600080fd5b610b74838335602085016110a0565b600060a0828403121561114857600080fd5b611150611077565b9050813567ffffffffffffffff8082111561116a57600080fd5b61117685838601611116565b8352602084013591508082111561118c57600080fd5b61119885838601611116565b602084015260408401359150808211156111b157600080fd5b506111be84828501611116565b6040830152506111d060608301610fae565b60608201526080820135608082015292915050565b600080604083850312156111f857600080fd5b823567ffffffffffffffff8082111561121057600080fd5b61121c86838701611136565b9350602085013591508082111561123257600080fd5b508301601f8101851361124457600080fd5b611253858235602084016110a0565b9150509250929050565b60006020828403121561126f57600080fd5b813567ffffffffffffffff81111561128657600080fd5b820160408185031215610b7457600080fd5b600181811c908216806112ac57607f821691505b6020821081036112cc57634e487b7160e01b600052602260045260246000fd5b50919050565b60a0815260006112e560a0830188611009565b82810360208401526112f78188611009565b9050828103604084015261130b8187611009565b6001600160a01b039590951660608401525050608001529392505050565b60008235609e1983360301811261133f57600080fd5b9190910192915050565b60006103e63683611136565b6000808335601e1984360301811261136c57600080fd5b83018035915067ffffffffffffffff82111561138757600080fd5b602001915036819003821315610df757600080fd5b6001600160a01b03841681526040602082018190528101829052818360608301376000818301606090810191909152601f909201601f1916010192915050565b6000602082840312156113ee57600080fd5b81518015158114610b7457600080fd5b634e487b7160e01b600052602160045260246000fd5b634e487b7160e01b600052603260045260246000fd5b634e487b7160e01b600052601160045260246000fd5b818103818111156103e6576103e661142a565b80820281158282048414176103e6576103e661142a565b808201808211156103e6576103e661142a565b60006001820161148f5761148f61142a565b5060010190565b600181815b808511156114d15781600019048211156114b7576114b761142a565b808516156114c457918102915b93841c939080029061149b565b509250929050565b6000826114e8575060016103e6565b816114f5575060006103e6565b816001811461150b576002811461151557611531565b60019150506103e6565b60ff8411156115265761152661142a565b50506001821b6103e6565b5060208310610133831016604e8410600b8410161715611554575081810a6103e6565b61155e8383611496565b80600019048211156115725761157261142a565b029392505050565b6000610b7483836114d9565b82815260406020820152600061159f6040830184611009565b949350505050565b6000825161133f818460208701610fe5565b6000602082840312156115cb57600080fd5b505191905056fea2646970667358221220d18dcf7b2dc9bd7697240198bf08fb73c2276ae25cdbf1ddb3e827fd7b93aa0f64736f6c63430008120033",
  "devdoc": {
    "kind": "dev",
    "methods": {
      "owner()": {
        "details": "Returns the address of the current owner."
      },
      "renounceOwnership()": {
        "details": "Leaves the contract without owner. It will not be possible to call `onlyOwner` functions. Can only be called by the current owner. NOTE: Renouncing ownership will leave the contract without an owner, thereby disabling any functionality that is only available to the owner."
      },
      "setTimestampBuffer(uint256)": {
        "params": {
          "_timestampBuffer": "The timestamp buffer for validated TLS calls"
        }
      },
      "transferOwnership(address)": {
        "details": "Transfers ownership of the contract to a new account (`newOwner`). Can only be called by the current owner."
      }
    },
    "version": 1
  },
  "userdoc": {
    "kind": "user",
    "methods": {
      "setTimestampBuffer(uint256)": {
        "notice": "ONLY OWNER: Sets the timestamp buffer for validated TLS calls. This is the amount of time in seconds that the timestamp can be off by and still be considered valid. Necessary to build in flexibility with L2 timestamps."
      }
    },
    "version": 1
  },
  "storageLayout": {
    "storage": [
      {
        "astId": 7,
        "contract": "contracts/ramps/revolut/RevolutAccountRegistrationProcessor.sol:RevolutAccountRegistrationProcessor",
        "label": "_owner",
        "offset": 0,
        "slot": "0",
        "type": "t_address"
      },
      {
        "astId": 2232,
        "contract": "contracts/ramps/revolut/RevolutAccountRegistrationProcessor.sol:RevolutAccountRegistrationProcessor",
        "label": "endpoint",
        "offset": 0,
        "slot": "1",
        "type": "t_string_storage"
      },
      {
        "astId": 2234,
        "contract": "contracts/ramps/revolut/RevolutAccountRegistrationProcessor.sol:RevolutAccountRegistrationProcessor",
        "label": "host",
        "offset": 0,
        "slot": "2",
        "type": "t_string_storage"
      },
      {
        "astId": 2237,
        "contract": "contracts/ramps/revolut/RevolutAccountRegistrationProcessor.sol:RevolutAccountRegistrationProcessor",
        "label": "nullifierRegistry",
        "offset": 0,
        "slot": "3",
        "type": "t_contract(INullifierRegistry)2402"
      },
      {
        "astId": 2239,
        "contract": "contracts/ramps/revolut/RevolutAccountRegistrationProcessor.sol:RevolutAccountRegistrationProcessor",
        "label": "timestampBuffer",
        "offset": 0,
        "slot": "4",
        "type": "t_uint256"
      },
      {
        "astId": 2435,
        "contract": "contracts/ramps/revolut/RevolutAccountRegistrationProcessor.sol:RevolutAccountRegistrationProcessor",
        "label": "verifierSigningKey",
        "offset": 0,
        "slot": "5",
        "type": "t_address"
      },
      {
        "astId": 2437,
        "contract": "contracts/ramps/revolut/RevolutAccountRegistrationProcessor.sol:RevolutAccountRegistrationProcessor",
        "label": "notaryKeyHash",
        "offset": 0,
        "slot": "6",
        "type": "t_bytes32"
      }
    ],
    "types": {
      "t_address": {
        "encoding": "inplace",
        "label": "address",
        "numberOfBytes": "20"
      },
      "t_bytes32": {
        "encoding": "inplace",
        "label": "bytes32",
        "numberOfBytes": "32"
      },
      "t_contract(INullifierRegistry)2402": {
        "encoding": "inplace",
        "label": "contract INullifierRegistry",
        "numberOfBytes": "20"
      },
      "t_string_storage": {
        "encoding": "bytes",
        "label": "string",
        "numberOfBytes": "32"
      },
      "t_uint256": {
        "encoding": "inplace",
        "label": "uint256",
        "numberOfBytes": "32"
      }
    }
  }
}