{
  "address": "0xEf15b6Fd708F35a85c19C30F78119Ff8595aD627",
  "abi": [
    {
      "inputs": [
        {
          "internalType": "address",
          "name": "_ramp",
          "type": "address"
        },
        {
          "internalType": "contract IKeyHashAdapter",
          "name": "_venmoMailserverKeyHashAdapter",
          "type": "address"
        },
        {
          "internalType": "contract INullifierRegistry",
          "name": "_nullifierRegistry",
          "type": "address"
        },
        {
          "internalType": "string",
          "name": "_emailFromAddress",
          "type": "string"
        }
      ],
      "stateMutability": "nonpayable",
      "type": "constructor"
    },
    {
      "anonymous": false,
      "inputs": [
        {
          "indexed": true,
          "internalType": "address",
          "name": "previousOwner",
          "type": "address"
        },
        {
          "indexed": true,
          "internalType": "address",
          "name": "newOwner",
          "type": "address"
        }
      ],
      "name": "OwnershipTransferred",
      "type": "event"
    },
    {
      "inputs": [],
      "name": "PACK_SIZE",
      "outputs": [
        {
          "internalType": "uint256",
          "name": "",
          "type": "uint256"
        }
      ],
      "stateMutability": "view",
      "type": "function"
    },
    {
      "inputs": [],
      "name": "emailFromAddress",
      "outputs": [
        {
          "internalType": "bytes",
          "name": "",
          "type": "bytes"
        }
      ],
      "stateMutability": "view",
      "type": "function"
    },
    {
      "inputs": [],
      "name": "getEmailFromAddress",
      "outputs": [
        {
          "internalType": "bytes",
          "name": "",
          "type": "bytes"
        }
      ],
      "stateMutability": "view",
      "type": "function"
    },
    {
      "inputs": [],
      "name": "getMailserverKeyHash",
      "outputs": [
        {
          "internalType": "bytes32",
          "name": "",
          "type": "bytes32"
        }
      ],
      "stateMutability": "view",
      "type": "function"
    },
    {
      "inputs": [],
      "name": "mailserverKeyHashAdapter",
      "outputs": [
        {
          "internalType": "contract IKeyHashAdapter",
          "name": "",
          "type": "address"
        }
      ],
      "stateMutability": "view",
      "type": "function"
    },
    {
      "inputs": [],
      "name": "nullifierRegistry",
      "outputs": [
        {
          "internalType": "contract INullifierRegistry",
          "name": "",
          "type": "address"
        }
      ],
      "stateMutability": "view",
      "type": "function"
    },
    {
      "inputs": [],
      "name": "owner",
      "outputs": [
        {
          "internalType": "address",
          "name": "",
          "type": "address"
        }
      ],
      "stateMutability": "view",
      "type": "function"
    },
    {
      "inputs": [
        {
          "components": [
            {
              "internalType": "uint256[2]",
              "name": "a",
              "type": "uint256[2]"
            },
            {
              "internalType": "uint256[2][2]",
              "name": "b",
              "type": "uint256[2][2]"
            },
            {
              "internalType": "uint256[2]",
              "name": "c",
              "type": "uint256[2]"
            },
            {
              "internalType": "uint256[5]",
              "name": "signals",
              "type": "uint256[5]"
            }
          ],
          "internalType": "struct IRegistrationProcessor.RegistrationProof",
          "name": "_proof",
          "type": "tuple"
        }
      ],
      "name": "processProof",
      "outputs": [
        {
          "internalType": "bytes32",
          "name": "userIdHash",
          "type": "bytes32"
        }
      ],
      "stateMutability": "view",
      "type": "function"
    },
    {
      "inputs": [],
      "name": "ramp",
      "outputs": [
        {
          "internalType": "address",
          "name": "",
          "type": "address"
        }
      ],
      "stateMutability": "view",
      "type": "function"
    },
    {
      "inputs": [],
      "name": "renounceOwnership",
      "outputs": [],
      "stateMutability": "nonpayable",
      "type": "function"
    },
    {
      "inputs": [
        {
          "internalType": "string",
          "name": "_emailFromAddress",
          "type": "string"
        }
      ],
      "name": "setEmailFromAddress",
      "outputs": [],
      "stateMutability": "nonpayable",
      "type": "function"
    },
    {
      "inputs": [
        {
          "internalType": "contract IKeyHashAdapter",
          "name": "_mailserverKeyHashAdapter",
          "type": "address"
        }
      ],
      "name": "setMailserverKeyHashAdapter",
      "outputs": [],
      "stateMutability": "nonpayable",
      "type": "function"
    },
    {
      "inputs": [
        {
          "internalType": "address",
          "name": "newOwner",
          "type": "address"
        }
      ],
      "name": "transferOwnership",
      "outputs": [],
      "stateMutability": "nonpayable",
      "type": "function"
    },
    {
      "inputs": [
        {
          "internalType": "uint256[2]",
          "name": "_pA",
          "type": "uint256[2]"
        },
        {
          "internalType": "uint256[2][2]",
          "name": "_pB",
          "type": "uint256[2][2]"
        },
        {
          "internalType": "uint256[2]",
          "name": "_pC",
          "type": "uint256[2]"
        },
        {
          "internalType": "uint256[5]",
          "name": "_pubSignals",
          "type": "uint256[5]"
        }
      ],
      "name": "verifyProof",
      "outputs": [
        {
          "internalType": "bool",
          "name": "",
          "type": "bool"
        }
      ],
      "stateMutability": "view",
      "type": "function"
    }
  ],
  "transactionHash": "0x67f7d6a42675a0c7cf1c2395a4fe5420c9361ea407d202957a10566a22d90e2e",
  "args": [
    "0xa08d9952196ABECB2BaCD14188093314053f6335",
    "0x28B23225877AedFe6A9FB1B480026aFdF9801213",
    "0x3DD68Da97Eaf62Dd5cdD0767AA20b5AF665D0a34",
    "venmo@venmo.com"
  ],
  "numDeployments": 1,
  "solcInputHash": "582bda84e77341f31e48e553d6955fd7",
  "bytecode": "0x60a06040523480156200001157600080fd5b5060405162001b5e38038062001b5e833981016040819052620000349162000114565b83838383620000433362000095565b6001600160a01b03848116608052600180546001600160a01b031990811686841617909155600280549091169184169190911790556003620000868282620002b9565b50505050505050505062000385565b600080546001600160a01b038381166001600160a01b0319831681178455604051919092169283917f8be0079c531659141344cd1fd0a4f28419497f9722a3daafe3b4186f6b6457e09190a35050565b6001600160a01b0381168114620000fb57600080fd5b50565b634e487b7160e01b600052604160045260246000fd5b600080600080608085870312156200012b57600080fd5b84516200013881620000e5565b809450506020808601516200014d81620000e5565b60408701519094506200016081620000e5565b60608701519093506001600160401b03808211156200017e57600080fd5b818801915088601f8301126200019357600080fd5b815181811115620001a857620001a8620000fe565b604051601f8201601f19908116603f01168101908382118183101715620001d357620001d3620000fe565b816040528281528b86848701011115620001ec57600080fd5b600093505b82841015620002105784840186015181850187015292850192620001f1565b600086848301015280965050505050505092959194509250565b600181811c908216806200023f57607f821691505b6020821081036200026057634e487b7160e01b600052602260045260246000fd5b50919050565b601f821115620002b457600081815260208120601f850160051c810160208610156200028f5750805b601f850160051c820191505b81811015620002b0578281556001016200029b565b5050505b505050565b81516001600160401b03811115620002d557620002d5620000fe565b620002ed81620002e684546200022a565b8462000266565b602080601f8311600181146200032557600084156200030c5750858301515b600019600386901b1c1916600185901b178555620002b0565b600085815260208120601f198616915b82811015620003565788860151825594840194600190910190840162000335565b5085821015620003755787850151600019600388901b60f8161c191681555b5050505050600190811b01905550565b6080516117b7620003a76000396000818160f4015261022b01526117b76000f3fe608060405234801561001057600080fd5b50600436106100ea5760003560e01c8063a87cb6ea1161008c578063ced1e97811610066578063ced1e978146101dd578063d0b71f99146101e5578063f2fde38b146101f8578063f6c7226b1461020b57600080fd5b8063a87cb6ea146101ad578063b870676c146101b5578063c0d05fed146101c857600080fd5b80633d0c9cc4116100c85780633d0c9cc414610177578063672ae5971461017f578063715018a6146101925780638da5cb5b1461019c57600080fd5b806315d276e1146100ef57806317c8ecf21461013357806334baeab914610154575b600080fd5b6101167f000000000000000000000000000000000000000000000000000000000000000081565b6040516001600160a01b0390911681526020015b60405180910390f35b610146610141366004611246565b61021e565b60405190815260200161012a565b610167610162366004611276565b610452565b604051901515815260200161012a565b610146600781565b600154610116906001600160a01b031681565b61019a610a27565b005b6000546001600160a01b0316610116565b610146610a3b565b600254610116906001600160a01b031681565b6101d0610aae565b60405161012a9190611300565b6101d0610b3c565b61019a6101f3366004611348565b610bce565b61019a610206366004611348565b610bf8565b61019a610219366004611382565b610c6e565b6000336001600160a01b037f0000000000000000000000000000000000000000000000000000000000000000161461029d5760405162461bcd60e51b815260206004820181905260248201527f4f6e6c792052616d702063616e2063616c6c20746869732066756e6374696f6e60448201526064015b60405180910390fd5b604080516334baeab960e01b815230916334baeab9916102d09186919082019060c0830190610100840190600401611433565b602060405180830381865afa1580156102ed573d6000803e3d6000fd5b505050506040513d601f19601f82011682018060405250810190610311919061147f565b61034d5760405162461bcd60e51b815260206004820152600d60248201526c24b73b30b634b210283937b7b360991b6044820152606401610294565b610355610a3b565b610100830135146103a85760405162461bcd60e51b815260206004820152601b60248201527f496e76616c6964206d61696c736572766572206b6579206861736800000000006044820152606401610294565b60006103bb836101000160016004610c86565b905060036040516103cc91906114eb565b6040518091039020816040516020016103e59190611561565b60405160208183030381529060405280519060200120146104485760405162461bcd60e51b815260206004820152601a60248201527f496e76616c696420656d61696c2066726f6d20616464726573730000000000006044820152606401610294565b5050610180013590565b60006109b5565b7f30644e72e131a029b85045b68181585d97816a916871ca8d3c208c16d87cfd47811061048a576000805260206000f35b50565b600060405183815284602082015285604082015260408160608360076107d05a03fa9150816104c0576000805260206000f35b825160408201526020830151606082015260408360808360066107d05a03fa915050806104f1576000805260206000f35b5050505050565b7f2bdc28cf197869db34c4fbf63b9a297acd233d737b149971c2a8425b9c18652e85527f306322808e39c492479f77b7c6d9d9c96db63defd9f77e05fdb4dc71e50856c560208601526000608086018661059587357f16fecceda7a3ec24e6993b49dacb0da64a04645dc170e6e88ef8f670239b43f57f15719ff6e212cf103557222bea4166d196037fd47f2466318df3f8b38079e8ec8461048d565b6105e560208801357f25ca6dc2d5078f1df81f9cb83db1356bdc3ab88c0b909cc4303f1f719a42bbca7f148bb0919456a3967918c0836f6ce527324c03fd875e4c92cb1e47bdab168c6d8461048d565b61063560408801357f18993ebc76aecfeb0e738ea06deeb99222e3b2f54e0b0c885924b7c5a4c994627f2b2ed6baeafa361c3f7448ba9bb05ab97ca55803b2f480e6733b0470f910a8cf8461048d565b61068560608801357f093560719a998c7c85b28f437b8bc98a7de3174df77e34c962c8f4ac0617d80b7f17b8d170ced474cb0317fadbee0f815f4101a01adbf532b089c0d820040ec6cd8461048d565b6106d560808801357f1380d3bede45e22cc0f0055b07dea924f730665065249f8bc22d4304cddd67347f1682fc24321cdb3ae7a70763090061d86324a74803d0fd4bd3770a546054895d8461048d565b50823581527f30644e72e131a029b85045b68181585d97816a916871ca8d3c208c16d87cfd4760208401357f30644e72e131a029b85045b68181585d97816a916871ca8d3c208c16d87cfd4703066020820152833560408201526020840135606082015260408401356080820152606084013560a08201527f2d4d9aa7e302d9df41749d5507949d05dbea33fbb16c643b22f599a2be6df2e260c08201527f14bedd503c37ceb061d8ec60209fe345ce89830a19230301f076caff004d192660e08201527f0967032fcbf776d1afc985f88877f182d38480a653f2decaa9794cbc3bf3060c6101008201527f0e187847ad4c798374d0d6732bf501847dd68bc0e071241e0213bc7fc13db7ab6101208201527f304cfbd1e08a704a99f5e847d93f8c3caafddec46b7a0d379da69a4d112346a76101408201527f1739c1b1a457a8c7313123d24d2f9192f896b7c63eea05a9d57f06547ad0cec8610160820152600087015161018082015260206000018701516101a08201527f198e9393920d483a7260bfb731fb5d25f1aa493335a9e71297e485b7aef312c26101c08201527f1800deef121f1e76426a00665e5c4479674322d4f75edadd46debd5cd992f6ed6101e08201527f090689d0585ff075ec9e99ad690c3395bc4b313370b38ef355acdadcd122975b6102008201527f12c85ea5db8c6deb4aab71808dcb408fe3d1e7690c43d37b4ce6cc0166fa7daa610220820152843561024082015260208501356102608201527f1a8b43ed42330a24019905c80dd9ea46d7fc2213c61cea7d345fd391adfafe6f6102808201527f16b7ce8220c1ececc7832189759bfa8b1734f3b55c986440a4b903bd563907436102a08201527f1ad4dd1c82e79f81677bd957aa831fd6fe6bd75c6629a2eabd28411945d999546102c08201527f05589547d5c5a7f052a6f83c9a95cfca04c3bc1e4ccfbedf50cfa0391419b1586102e08201526020816103008360086107d05a03fa9051169695505050505050565b60405161038081016040526109cd6000840135610459565b6109da6020840135610459565b6109e76040840135610459565b6109f46060840135610459565b610a016080840135610459565b610a0e60a0840135610459565b610a1b818486888a6104f8565b90508060005260206000f35b610a2f610d61565b610a396000610dbb565b565b60015460408051630d901b9960e21b815290516000926001600160a01b0316916336406e649160048083019260209291908290030181865afa158015610a85573d6000803e3d6000fd5b505050506040513d601f19601f82011682018060405250810190610aa9919061157d565b905090565b60038054610abb906114b7565b80601f0160208091040260200160405190810160405280929190818152602001828054610ae7906114b7565b8015610b345780601f10610b0957610100808354040283529160200191610b34565b820191906000526020600020905b815481529060010190602001808311610b1757829003601f168201915b505050505081565b606060038054610b4b906114b7565b80601f0160208091040260200160405190810160405280929190818152602001828054610b77906114b7565b8015610bc45780601f10610b9957610100808354040283529160200191610bc4565b820191906000526020600020905b815481529060010190602001808311610ba757829003601f168201915b5050505050905090565b610bd6610d61565b600180546001600160a01b0319166001600160a01b0392909216919091179055565b610c00610d61565b6001600160a01b038116610c655760405162461bcd60e51b815260206004820152602660248201527f4f776e61626c653a206e6577206f776e657220697320746865207a65726f206160448201526564647265737360d01b6064820152608401610294565b61048a81610dbb565b610c76610d61565b6003610c8282826115e5565b5050565b60606000610c9484846116bb565b60ff1667ffffffffffffffff811115610caf57610caf61136c565b604051908082528060200260200182016040528015610cd8578160200160208202803683370190505b50905060ff84165b8360ff16811015610d3d57858160058110610cfd57610cfd6114a1565b602002013582610d1060ff8816846116d4565b81518110610d2057610d206114a1565b602090810291909101015280610d35816116e7565b915050610ce0565b50610d5860078251610d4f9190611700565b82906007610e0b565b95945050505050565b6000546001600160a01b03163314610a395760405162461bcd60e51b815260206004820181905260248201527f4f776e61626c653a2063616c6c6572206973206e6f7420746865206f776e65726044820152606401610294565b600080546001600160a01b038381166001600160a01b0319831681178455604051919092169283917f8be0079c531659141344cd1fd0a4f28419497f9722a3daafe3b4186f6b6457e09190a35050565b6060600080838651610e1d9190611700565b67ffffffffffffffff811115610e3557610e3561136c565b6040519080825280601f01601f191660200182016040528015610e5f576020820181803683370190505b5090506000805b87518161ffff161015611016576000888261ffff1681518110610e8b57610e8b6114a1565b6020026020010151905060008767ffffffffffffffff811115610eb057610eb061136c565b604051908082528060200260200182016040528015610ed9578160200160208202803683370190505b50905060005b88811015610f2b57610ef2816008611700565b83901c828281518110610f0757610f076114a1565b60ff9092166020928302919091019091015280610f23816116e7565b915050610edf565b5060005b88811015611000576000828281518110610f4b57610f4b6114a1565b602002602001015160ff16905080600014610fc3578060f81b878781518110610f7657610f766114a1565b60200101906001600160f81b031916908160001a90535085610f97816116e7565b9650610fa69050600289611717565b60ff16600003610fbe57610fbb600189611747565b97505b610fe6565b610fce600289611717565b60ff16600103610fe657610fe3600189611747565b97505b5060089290921c9180610ff8816116e7565b915050610f2f565b505050808061100e90611760565b915050610e66565b5060018360ff1610156110b75760405162461bcd60e51b815260206004820152605760248201527f4e6f207061636b656420627974657320666f756e642120496e76616c6964206660448201527f696e616c207374617465206f66207061636b656420627974657320696e20656d60648201527f61696c3b2076616c7565206973206c696b656c79203021000000000000000000608482015260a401610294565b858111156111255760405162461bcd60e51b815260206004820152603560248201527f5061636b6564206279746573206d6f7265207468616e20616c6c6f776564206d6044820152746178206e756d626572206f66207369676e616c732160581b6064820152608401610294565b60006111308361113c565b98975050505050505050565b8051606090829060005b825181101561119157828181518110611161576111616114a1565b01602001516001600160f81b03191660000361117f57809150611191565b80611189816116e7565b915050611146565b5060008167ffffffffffffffff8111156111ad576111ad61136c565b6040519080825280601f01601f1916602001820160405280156111d7576020820181803683370190505b50905060005b8281101561123d578381815181106111f7576111f76114a1565b602001015160f81c60f81b828281518110611214576112146114a1565b60200101906001600160f81b031916908160001a90535080611235816116e7565b9150506111dd565b50949350505050565b60006101a0828403121561125957600080fd5b50919050565b806040810183101561127057600080fd5b92915050565b6000806000806101a080868803121561128e57600080fd5b611298878761125f565b945060c08601878111156112ab57600080fd5b6040870194506112bb888261125f565b9350508681870111156112cd57600080fd5b50929591945092610100019150565b60005b838110156112f75781810151838201526020016112df565b50506000910152565b602081526000825180602084015261131f8160408501602087016112dc565b601f01601f19169190910160400192915050565b6001600160a01b038116811461048a57600080fd5b60006020828403121561135a57600080fd5b813561136581611333565b9392505050565b634e487b7160e01b600052604160045260246000fd5b60006020828403121561139457600080fd5b813567ffffffffffffffff808211156113ac57600080fd5b818401915084601f8301126113c057600080fd5b8135818111156113d2576113d261136c565b604051601f8201601f19908116603f011681019083821181831017156113fa576113fa61136c565b8160405282815287602084870101111561141357600080fd5b826020860160208301376000928101602001929092525095945050505050565b6101a081016040808784378083018660005b600281101561146257838284379183019190830190600101611445565b505050808560c08501375060a08361010084013795945050505050565b60006020828403121561149157600080fd5b8151801515811461136557600080fd5b634e487b7160e01b600052603260045260246000fd5b600181811c908216806114cb57607f821691505b60208210810361125957634e487b7160e01b600052602260045260246000fd5b60008083546114f9816114b7565b60018281168015611511576001811461152657611555565b60ff1984168752821515830287019450611555565b8760005260208060002060005b8581101561154c5781548a820152908401908201611533565b50505082870194505b50929695505050505050565b600082516115738184602087016112dc565b9190910192915050565b60006020828403121561158f57600080fd5b5051919050565b601f8211156115e057600081815260208120601f850160051c810160208610156115bd5750805b601f850160051c820191505b818110156115dc578281556001016115c9565b5050505b505050565b815167ffffffffffffffff8111156115ff576115ff61136c565b6116138161160d84546114b7565b84611596565b602080601f83116001811461164857600084156116305750858301515b600019600386901b1c1916600185901b1785556115dc565b600085815260208120601f198616915b8281101561167757888601518255948401946001909101908401611658565b50858210156116955787850151600019600388901b60f8161c191681555b5050505050600190811b01905550565b634e487b7160e01b600052601160045260246000fd5b60ff8281168282160390811115611270576112706116a5565b81810381811115611270576112706116a5565b6000600182016116f9576116f96116a5565b5060010190565b8082028115828204841417611270576112706116a5565b600060ff83168061173857634e487b7160e01b600052601260045260246000fd5b8060ff84160691505092915050565b60ff8181168382160190811115611270576112706116a5565b600061ffff808316818103611777576117776116a5565b600101939250505056fea2646970667358221220c37304a5850f0d98f58c41f8f0556acf17acc66166d0212dec997b906584df2364736f6c63430008120033",
  "devdoc": {
    "kind": "dev",
    "methods": {
      "owner()": {
        "details": "Returns the address of the current owner."
      },
      "renounceOwnership()": {
        "details": "Leaves the contract without owner. It will not be possible to call `onlyOwner` functions. Can only be called by the current owner. NOTE: Renouncing ownership will leave the contract without an owner, thereby disabling any functionality that is only available to the owner."
      },
      "setEmailFromAddress(string)": {
        "params": {
          "_emailFromAddress": "The from email address for validated emails, MUST BE PROPERLY PADDED"
        }
      },
      "transferOwnership(address)": {
        "details": "Transfers ownership of the contract to a new account (`newOwner`). Can only be called by the current owner."
      }
    },
    "version": 1
  },
  "userdoc": {
    "kind": "user",
    "methods": {
      "setEmailFromAddress(string)": {
        "notice": "ONLY OWNER: Sets the from email address for validated emails. Check that email address is properly padded (if necessary). Padding will be dependent on if unpacking functions cut trailing 0s or not."
      }
    },
    "version": 1
  },
  "storageLayout": {
    "storage": [
      {
        "astId": 7,
        "contract": "contracts/processors/VenmoRegistrationProcessor.sol:VenmoRegistrationProcessor",
        "label": "_owner",
        "offset": 0,
        "slot": "0",
        "type": "t_address"
      },
      {
        "astId": 1403,
        "contract": "contracts/processors/VenmoRegistrationProcessor.sol:VenmoRegistrationProcessor",
        "label": "mailserverKeyHashAdapter",
        "offset": 0,
        "slot": "1",
        "type": "t_contract(IKeyHashAdapter)1958"
      },
      {
        "astId": 1406,
        "contract": "contracts/processors/VenmoRegistrationProcessor.sol:VenmoRegistrationProcessor",
        "label": "nullifierRegistry",
        "offset": 0,
        "slot": "2",
        "type": "t_contract(INullifierRegistry)1973"
      },
      {
        "astId": 1408,
        "contract": "contracts/processors/VenmoRegistrationProcessor.sol:VenmoRegistrationProcessor",
        "label": "emailFromAddress",
        "offset": 0,
        "slot": "3",
        "type": "t_bytes_storage"
      }
    ],
    "types": {
      "t_address": {
        "encoding": "inplace",
        "label": "address",
        "numberOfBytes": "20"
      },
      "t_bytes_storage": {
        "encoding": "bytes",
        "label": "bytes",
        "numberOfBytes": "32"
      },
      "t_contract(IKeyHashAdapter)1958": {
        "encoding": "inplace",
        "label": "contract IKeyHashAdapter",
        "numberOfBytes": "20"
      },
      "t_contract(INullifierRegistry)1973": {
        "encoding": "inplace",
        "label": "contract INullifierRegistry",
        "numberOfBytes": "20"
      }
    }
  }
}