{
  "address": "0x969FD0eD23A44756678af779FD0206aE123261B2",
  "abi": [
    {
      "inputs": [
        {
          "internalType": "address",
          "name": "_owner",
          "type": "address"
        }
      ],
      "stateMutability": "nonpayable",
      "type": "constructor"
    },
    {
      "anonymous": false,
      "inputs": [
        {
          "indexed": true,
          "internalType": "address",
          "name": "accountOwner",
          "type": "address"
        },
        {
          "indexed": true,
          "internalType": "bytes32",
          "name": "accountId",
          "type": "bytes32"
        }
      ],
      "name": "AccountRegistered",
      "type": "event"
    },
    {
      "anonymous": false,
      "inputs": [
        {
          "indexed": false,
          "internalType": "bytes32",
          "name": "listOwner",
          "type": "bytes32"
        }
      ],
      "name": "AllowlistEnabled",
      "type": "event"
    },
    {
      "anonymous": false,
      "inputs": [
        {
          "indexed": false,
          "internalType": "address",
          "name": "registrationProcessor",
          "type": "address"
        }
      ],
      "name": "NewAccountRegistrationProcessorSet",
      "type": "event"
    },
    {
      "anonymous": false,
      "inputs": [
        {
          "indexed": true,
          "internalType": "address",
          "name": "previousOwner",
          "type": "address"
        },
        {
          "indexed": true,
          "internalType": "address",
          "name": "newOwner",
          "type": "address"
        }
      ],
      "name": "OwnershipTransferred",
      "type": "event"
    },
    {
      "anonymous": false,
      "inputs": [
        {
          "indexed": true,
          "internalType": "bytes32",
          "name": "listOwner",
          "type": "bytes32"
        },
        {
          "indexed": false,
          "internalType": "bytes32",
          "name": "allowedUser",
          "type": "bytes32"
        }
      ],
      "name": "UserAddedToAllowlist",
      "type": "event"
    },
    {
      "anonymous": false,
      "inputs": [
        {
          "indexed": false,
          "internalType": "bytes32",
          "name": "listOwner",
          "type": "bytes32"
        },
        {
          "indexed": false,
          "internalType": "bytes32",
          "name": "deniedUser",
          "type": "bytes32"
        }
      ],
      "name": "UserAddedToDenylist",
      "type": "event"
    },
    {
      "anonymous": false,
      "inputs": [
        {
          "indexed": true,
          "internalType": "bytes32",
          "name": "listOwner",
          "type": "bytes32"
        },
        {
          "indexed": false,
          "internalType": "bytes32",
          "name": "allowedUser",
          "type": "bytes32"
        }
      ],
      "name": "UserRemovedFromAllowlist",
      "type": "event"
    },
    {
      "anonymous": false,
      "inputs": [
        {
          "indexed": false,
          "internalType": "bytes32",
          "name": "listOwner",
          "type": "bytes32"
        },
        {
          "indexed": false,
          "internalType": "bytes32",
          "name": "approvedUser",
          "type": "bytes32"
        }
      ],
      "name": "UserRemovedFromDenylist",
      "type": "event"
    },
    {
      "inputs": [],
      "name": "accountRegistrationProcessor",
      "outputs": [
        {
          "internalType": "contract IRevolutAccountRegistrationProcessor",
          "name": "",
          "type": "address"
        }
      ],
      "stateMutability": "view",
      "type": "function"
    },
    {
      "inputs": [
        {
          "internalType": "bytes32",
          "name": "_deniedUser",
          "type": "bytes32"
        }
      ],
      "name": "addAccountToDenylist",
      "outputs": [],
      "stateMutability": "nonpayable",
      "type": "function"
    },
    {
      "inputs": [
        {
          "internalType": "bytes32[]",
          "name": "_allowedUsers",
          "type": "bytes32[]"
        }
      ],
      "name": "addAccountsToAllowlist",
      "outputs": [],
      "stateMutability": "nonpayable",
      "type": "function"
    },
    {
      "inputs": [],
      "name": "enableAllowlist",
      "outputs": [],
      "stateMutability": "nonpayable",
      "type": "function"
    },
    {
      "inputs": [
        {
          "internalType": "address",
          "name": "_account",
          "type": "address"
        }
      ],
      "name": "getAccountId",
      "outputs": [
        {
          "internalType": "bytes32",
          "name": "",
          "type": "bytes32"
        }
      ],
      "stateMutability": "view",
      "type": "function"
    },
    {
      "inputs": [
        {
          "internalType": "address",
          "name": "_account",
          "type": "address"
        }
      ],
      "name": "getAllowedUsers",
      "outputs": [
        {
          "internalType": "bytes32[]",
          "name": "",
          "type": "bytes32[]"
        }
      ],
      "stateMutability": "view",
      "type": "function"
    },
    {
      "inputs": [
        {
          "internalType": "address",
          "name": "_account",
          "type": "address"
        }
      ],
      "name": "getDeniedUsers",
      "outputs": [
        {
          "internalType": "bytes32[]",
          "name": "",
          "type": "bytes32[]"
        }
      ],
      "stateMutability": "view",
      "type": "function"
    },
    {
      "inputs": [
        {
          "internalType": "contract IRevolutAccountRegistrationProcessor",
          "name": "_accountRegistrationProcessor",
          "type": "address"
        }
      ],
      "name": "initialize",
      "outputs": [],
      "stateMutability": "nonpayable",
      "type": "function"
    },
    {
      "inputs": [
        {
          "internalType": "address",
          "name": "_account",
          "type": "address"
        },
        {
          "internalType": "bytes32",
          "name": "_allowedUser",
          "type": "bytes32"
        }
      ],
      "name": "isAllowedUser",
      "outputs": [
        {
          "internalType": "bool",
          "name": "",
          "type": "bool"
        }
      ],
      "stateMutability": "view",
      "type": "function"
    },
    {
      "inputs": [
        {
          "internalType": "address",
          "name": "_account",
          "type": "address"
        }
      ],
      "name": "isAllowlistEnabled",
      "outputs": [
        {
          "internalType": "bool",
          "name": "",
          "type": "bool"
        }
      ],
      "stateMutability": "view",
      "type": "function"
    },
    {
      "inputs": [
        {
          "internalType": "address",
          "name": "_account",
          "type": "address"
        },
        {
          "internalType": "bytes32",
          "name": "_deniedUser",
          "type": "bytes32"
        }
      ],
      "name": "isDeniedUser",
      "outputs": [
        {
          "internalType": "bool",
          "name": "",
          "type": "bool"
        }
      ],
      "stateMutability": "view",
      "type": "function"
    },
    {
      "inputs": [],
      "name": "isInitialized",
      "outputs": [
        {
          "internalType": "bool",
          "name": "",
          "type": "bool"
        }
      ],
      "stateMutability": "view",
      "type": "function"
    },
    {
      "inputs": [
        {
          "internalType": "address",
          "name": "_account",
          "type": "address"
        }
      ],
      "name": "isRegisteredUser",
      "outputs": [
        {
          "internalType": "bool",
          "name": "",
          "type": "bool"
        }
      ],
      "stateMutability": "view",
      "type": "function"
    },
    {
      "inputs": [],
      "name": "owner",
      "outputs": [
        {
          "internalType": "address",
          "name": "",
          "type": "address"
        }
      ],
      "stateMutability": "view",
      "type": "function"
    },
    {
      "inputs": [
        {
          "components": [
            {
              "components": [
                {
                  "internalType": "string",
                  "name": "endpoint",
                  "type": "string"
                },
                {
                  "internalType": "string",
                  "name": "host",
                  "type": "string"
                },
                {
                  "internalType": "string",
                  "name": "profileId",
                  "type": "string"
                },
                {
                  "internalType": "address",
                  "name": "userAddress",
                  "type": "address"
                },
                {
                  "internalType": "uint256",
                  "name": "notaryKeyHash",
                  "type": "uint256"
                }
              ],
              "internalType": "struct IRevolutAccountRegistrationProcessor.RegistrationData",
              "name": "public_values",
              "type": "tuple"
            },
            {
              "internalType": "bytes",
              "name": "proof",
              "type": "bytes"
            }
          ],
          "internalType": "struct IRevolutAccountRegistrationProcessor.RegistrationProof",
          "name": "_proof",
          "type": "tuple"
        }
      ],
      "name": "register",
      "outputs": [],
      "stateMutability": "nonpayable",
      "type": "function"
    },
    {
      "inputs": [
        {
          "internalType": "bytes32",
          "name": "_approvedUser",
          "type": "bytes32"
        }
      ],
      "name": "removeAccountFromDenylist",
      "outputs": [],
      "stateMutability": "nonpayable",
      "type": "function"
    },
    {
      "inputs": [
        {
          "internalType": "bytes32[]",
          "name": "_disallowedUsers",
          "type": "bytes32[]"
        }
      ],
      "name": "removeAccountsFromAllowlist",
      "outputs": [],
      "stateMutability": "nonpayable",
      "type": "function"
    },
    {
      "inputs": [],
      "name": "renounceOwnership",
      "outputs": [],
      "stateMutability": "nonpayable",
      "type": "function"
    },
    {
      "inputs": [
        {
          "internalType": "contract IRevolutAccountRegistrationProcessor",
          "name": "_registrationProcessor",
          "type": "address"
        }
      ],
      "name": "setAccountRegistrationProcessor",
      "outputs": [],
      "stateMutability": "nonpayable",
      "type": "function"
    },
    {
      "inputs": [
        {
          "internalType": "address",
          "name": "newOwner",
          "type": "address"
        }
      ],
      "name": "transferOwnership",
      "outputs": [],
      "stateMutability": "nonpayable",
      "type": "function"
    }
  ],
  "transactionHash": "0x6482d91efcc34617c9d8bc1c1146144decbfa2de1c9dec6fa15cab0c83f759c9",
  "args": [
    "0xdd93E0f5fC32c86A568d87Cb4f08598f55E980F3"
  ],
  "numDeployments": 1,
  "solcInputHash": "8bc81ff8830ebb82cab81dfebf9e965a",
  "bytecode": "0x60806040523480156200001157600080fd5b50604051620015ee380380620015ee833981016040819052620000349162000182565b6200003f3362000051565b6200004a81620000a1565b50620001b4565b600080546001600160a01b038381166001600160a01b0319831681178455604051919092169283917f8be0079c531659141344cd1fd0a4f28419497f9722a3daafe3b4186f6b6457e09190a35050565b620000ab62000124565b6001600160a01b038116620001165760405162461bcd60e51b815260206004820152602660248201527f4f776e61626c653a206e6577206f776e657220697320746865207a65726f206160448201526564647265737360d01b60648201526084015b60405180910390fd5b620001218162000051565b50565b6000546001600160a01b03163314620001805760405162461bcd60e51b815260206004820181905260248201527f4f776e61626c653a2063616c6c6572206973206e6f7420746865206f776e657260448201526064016200010d565b565b6000602082840312156200019557600080fd5b81516001600160a01b0381168114620001ad57600080fd5b9392505050565b61142a80620001c46000396000f3fe608060405234801561001057600080fd5b506004361061012c5760003560e01c8063715018a6116100ad578063d884524511610071578063d884524514610273578063e0b490f714610286578063e39ca3b4146102a7578063f2fde38b146102ba578063fbf15b1f146102cd57600080fd5b8063715018a61461022c5780638da5cb5b146102345780639b357b5a14610245578063c4d66de814610258578063c6a2aac81461026b57600080fd5b80631f5bdf5d116100f45780631f5bdf5d146101bf5780633056eb28146101d257806338e4bef6146101e5578063392e53cd146101f85780634595bba01461020c57600080fd5b8063066a82fe146101315780630876dda314610146578063148172da146101765780631acd84d8146101895780631e48fe6b146101ac575b600080fd5b61014461013f366004610fe8565b6102e0565b005b600154610159906001600160a01b031681565b6040516001600160a01b0390911681526020015b60405180910390f35b61014461018436600461102a565b61042d565b61019c610197366004611058565b61054b565b604051901515815260200161016d565b6101446101ba36600461109a565b6105d1565b61019c6101cd366004611158565b610720565b6101446101e0366004611158565b610734565b61019c6101f3366004611158565b610791565b60015461019c90600160a01b900460ff1681565b61021f61021a366004611158565b6107ba565b60405161016d9190611175565b610144610830565b6000546001600160a01b0316610159565b61014461025336600461102a565b610844565b610144610266366004611158565b610943565b6101446109c2565b61014461028136600461109a565b610aa1565b610299610294366004611158565b610bfc565b60405190815260200161016d565b61021f6102b5366004611158565b610c17565b6101446102c8366004611158565b610c8b565b61019c6102db366004611058565b610d04565b6102ea81806111b9565b6102fb906080810190606001611158565b6001600160a01b0316336001600160a01b0316146103725760405162461bcd60e51b815260206004820152602960248201527f43616c6c6572206d7573742062652061646472657373207370656369666965646044820152681034b710383937b7b360b91b60648201526084015b60405180910390fd5b33600090815260026020526040902054156103e15760405162461bcd60e51b815260206004820152602960248201527f4163636f756e7420616c7265616479206173736f6369617465642077697468206044820152681858d8dbdd5b9d125960ba1b6064820152608401610369565b60006103ec82610d3f565b336000818152600260205260408082208490555192935083927f672144042732f7b1cdbf0772464ae545aedd7f41d38b8487dafd9085496a5d519190a35050565b61043633610720565b6104525760405162461bcd60e51b8152600401610369906111d9565b33600090815260026020908152604080832054808452600383528184208585526001019092529091205460ff16156104cc5760405162461bcd60e51b815260206004820152601860248201527f5573657220616c7265616479206f6e2064656e796c69737400000000000000006044820152606401610369565b600081815260036020818152604080842086855260018181018452828620805460ff191682179055938352805493840181558452922001839055517f976c693d56f27ba17d902bda80c4fa0416b773fbf268bcb0ee71689234d769ee9061053f9083908590918252602082015260400190565b60405180910390a15050565b60008061055784610bfc565b600081815260036020908152604080832087845260010190915290205490915060ff16156105895760009150506105cb565b60008181526004602052604090205460ff166105a65760016105c7565b600081815260046020908152604080832086845260020190915290205460ff165b9150505b92915050565b6105da33610720565b6105f65760405162461bcd60e51b8152600401610369906111d9565b33600090815260026020526040812054905b825181101561071b57600083828151811061062557610625611210565b6020908102919091018101516000858152600483526040808220838352600201909352919091205490915060ff166106975760405162461bcd60e51b8152602060048201526015602482015274155cd95c881b9bdd081bdb88185b1b1bdddb1a5cdd605a1b6044820152606401610369565b6000838152600460208181526040808420858552600281018352908420805460ff1916905592869052526106ce9060010182610db3565b827fe87ba7050133e8b4c8b879f99b3276368eaca3b81f4ea415d9528843a15d8c638260405161070091815260200190565b60405180910390a250806107138161123c565b915050610608565b505050565b60008061072c83610bfc565b141592915050565b61073c610edb565b600180546001600160a01b0319166001600160a01b0383169081179091556040519081527ffd4e734c9a89ace3649766f5233487313285fe97ca577c2602beda889ef46dd3906020015b60405180910390a150565b6000600460006107a084610bfc565b815260208101919091526040016000205460ff1692915050565b6060600360006107c984610bfc565b815260200190815260200160002060000180548060200260200160405190810160405280929190818152602001828054801561082457602002820191906000526020600020905b815481526020019060010190808311610810575b50505050509050919050565b610838610edb565b6108426000610f35565b565b61084d33610720565b6108695760405162461bcd60e51b8152600401610369906111d9565b33600090815260026020908152604080832054808452600383528184208585526001019092529091205460ff166108d95760405162461bcd60e51b8152602060048201526014602482015273155cd95c881b9bdd081bdb8819195b9e5b1a5cdd60621b6044820152606401610369565b6000818152600360208181526040808420868552600181018352908420805460ff19169055928490525261090d9083610db3565b60408051828152602081018490527f8935205b1b382095d2d95efbb36f81a11a34c548d45af26adc1a02d2f2bb546f910161053f565b61094b610edb565b600154600160a01b900460ff161561099b5760405162461bcd60e51b8152602060048201526013602482015272105b1c9958591e481a5b9a5d1a585b1a5e9959606a1b6044820152606401610369565b600180546001600160a81b0319166001600160a01b0390921691909117600160a01b179055565b6109cb33610720565b6109e75760405162461bcd60e51b8152600401610369906111d9565b3360009081526002602090815260408083205480845260049092529091205460ff1615610a565760405162461bcd60e51b815260206004820152601a60248201527f416c6c6f77206c69737420616c726561647920656e61626c65640000000000006044820152606401610369565b60008181526004602052604090819020805460ff19166001179055517f08df0a71ea3e5565a2138936ed06eaba47996a3ccfde2dae1f3edd1164e299d7906107869083815260200190565b610aaa33610720565b610ac65760405162461bcd60e51b8152600401610369906111d9565b33600090815260026020526040812054905b825181101561071b576000838281518110610af557610af5611210565b6020908102919091018101516000858152600483526040808220838352600201909352919091205490915060ff1615610b705760405162461bcd60e51b815260206004820152601960248201527f5573657220616c7265616479206f6e20616c6c6f776c697374000000000000006044820152606401610369565b6000838152600460208181526040808420858552600281018352818520805460ff1916600190811790915593835283018054938401815584529220018290555183907f857ce673abc5a303fa8303102f12b42079aa85b97bca15b56428764dd1dec4d290610be19084815260200190565b60405180910390a25080610bf48161123c565b915050610ad8565b6001600160a01b031660009081526002602052604090205490565b606060046000610c2684610bfc565b815260200190815260200160002060010180548060200260200160405190810160405280929190818152602001828054801561082457602002820191906000526020600020908154815260200190600101908083116108105750505050509050919050565b610c93610edb565b6001600160a01b038116610cf85760405162461bcd60e51b815260206004820152602660248201527f4f776e61626c653a206e6577206f776e657220697320746865207a65726f206160448201526564647265737360d01b6064820152608401610369565b610d0181610f35565b50565b600060036000610d1385610bfc565b81526020808201929092526040908101600090812085825260010190925290205460ff16905092915050565b60015460405163dec965d360e01b81526000916001600160a01b03169063dec965d390610d709085906004016112c4565b6020604051808303816000875af1158015610d8f573d6000803e3d6000fd5b505050506040513d601f19601f820116820180604052508101906105cb91906113b2565b600080610e0f84805480602002602001604051908101604052809291908181526020018280548015610e0457602002820191906000526020600020905b815481526020019060010190808311610df0575b505050505084610f85565b9150915080610e585760405162461bcd60e51b8152602060048201526015602482015274313cba32b99999103737ba1034b71030b93930bc9760591b6044820152606401610369565b8354600090610e69906001906113cb565b9050808314610eae57848181548110610e8457610e84611210565b9060005260206000200154858481548110610ea157610ea1611210565b6000918252602090912001555b84805480610ebe57610ebe6113de565b600190038181906000526020600020016000905590555050505050565b6000546001600160a01b031633146108425760405162461bcd60e51b815260206004820181905260248201527f4f776e61626c653a2063616c6c6572206973206e6f7420746865206f776e65726044820152606401610369565b600080546001600160a01b038381166001600160a01b0319831681178455604051919092169283917f8be0079c531659141344cd1fd0a4f28419497f9722a3daafe3b4186f6b6457e09190a35050565b81516000908190815b81811015610fd55784868281518110610fa957610fa9611210565b602002602001015103610fc357925060019150610fe19050565b80610fcd8161123c565b915050610f8e565b50600019600092509250505b9250929050565b600060208284031215610ffa57600080fd5b813567ffffffffffffffff81111561101157600080fd5b82016040818503121561102357600080fd5b9392505050565b60006020828403121561103c57600080fd5b5035919050565b6001600160a01b0381168114610d0157600080fd5b6000806040838503121561106b57600080fd5b823561107681611043565b946020939093013593505050565b634e487b7160e01b600052604160045260246000fd5b600060208083850312156110ad57600080fd5b823567ffffffffffffffff808211156110c557600080fd5b818501915085601f8301126110d957600080fd5b8135818111156110eb576110eb611084565b8060051b604051601f19603f8301168101818110858211171561111057611110611084565b60405291825284820192508381018501918883111561112e57600080fd5b938501935b8285101561114c57843584529385019392850192611133565b98975050505050505050565b60006020828403121561116a57600080fd5b813561102381611043565b6020808252825182820181905260009190848201906040850190845b818110156111ad57835183529284019291840191600101611191565b50909695505050505050565b60008235609e198336030181126111cf57600080fd5b9190910192915050565b6020808252601e908201527f43616c6c6572206d757374206265207265676973746572656420757365720000604082015260600190565b634e487b7160e01b600052603260045260246000fd5b634e487b7160e01b600052601160045260246000fd5b60006001820161124e5761124e611226565b5060010190565b6000808335601e1984360301811261126c57600080fd5b830160208101925035905067ffffffffffffffff81111561128c57600080fd5b803603821315610fe157600080fd5b81835281816020850137506000828201602090810191909152601f909101601f19169091010190565b6020815260008235609e198436030181126112de57600080fd5b6040602084015283016112f18180611255565b60a060608601526113076101008601828461129b565b9150506113176020830183611255565b605f198087850301608088015261132f84838561129b565b935061133e6040860186611255565b93509150808785030160a08801525061135883838361129b565b92505050606082013561136a81611043565b6001600160a01b031660c0850152608082013560e085015261138f6020860186611255565b858303601f1901604087015292506113a882848361129b565b9695505050505050565b6000602082840312156113c457600080fd5b5051919050565b818103818111156105cb576105cb611226565b634e487b7160e01b600052603160045260246000fdfea26469706673582212204d908448568dee8f178658c3e858dab36e0dff4876b3de68433ba819907de6b964736f6c63430008120033",
  "devdoc": {
    "kind": "dev",
    "methods": {
      "addAccountToDenylist(bytes32)": {
        "params": {
          "_deniedUser": "accountId being banned"
        }
      },
      "addAccountsToAllowlist(bytes32[])": {
        "params": {
          "_allowedUsers": "List of accountIds allowed to signal intents on the user's deposit"
        }
      },
      "initialize(address)": {
        "params": {
          "_accountRegistrationProcessor": "Account Registration processor address"
        }
      },
      "owner()": {
        "details": "Returns the address of the current owner."
      },
      "register(((string,string,string,address,uint256),bytes))": {
        "params": {
          "_proof": "Registration proof consisting of unredacted data being notarized and a signature"
        }
      },
      "removeAccountFromDenylist(bytes32)": {
        "params": {
          "_approvedUser": "accountId being approved"
        }
      },
      "removeAccountsFromAllowlist(bytes32[])": {
        "params": {
          "_disallowedUsers": "List of accountIds being approved"
        }
      },
      "renounceOwnership()": {
        "details": "Leaves the contract without owner. It will not be possible to call `onlyOwner` functions. Can only be called by the current owner. NOTE: Renouncing ownership will leave the contract without an owner, thereby disabling any functionality that is only available to the owner."
      },
      "setAccountRegistrationProcessor(address)": {
        "params": {
          "_registrationProcessor": "New registration proccesor address"
        }
      },
      "transferOwnership(address)": {
        "details": "Transfers ownership of the contract to a new account (`newOwner`). Can only be called by the current owner."
      }
    },
    "version": 1
  },
  "userdoc": {
    "kind": "user",
    "methods": {
      "addAccountToDenylist(bytes32)": {
        "notice": "Adds an accountId to a depositor's deny list. If an address associated with the banned accountId attempts to signal an intent on the user's deposit they will be denied."
      },
      "addAccountsToAllowlist(bytes32[])": {
        "notice": "Adds passed accountIds to a depositor's allow list. All addresses associated with the allowed accountIds will be able to signal intents on the user's deposit."
      },
      "enableAllowlist()": {
        "notice": "Enables allow list for user, only users on the allow list will be able to signal intents on the user's deposit."
      },
      "initialize(address)": {
        "notice": "Initialize Ramp with the addresses of the Processors"
      },
      "register(((string,string,string,address,uint256),bytes))": {
        "notice": "Registers a new account by pulling the profileId from the proof and assigning the account owner to the sender of the transaction."
      },
      "removeAccountFromDenylist(bytes32)": {
        "notice": "Removes an accountId from a depositor's deny list."
      },
      "removeAccountsFromAllowlist(bytes32[])": {
        "notice": "Removes an passed accountId's from allow list. If allow list is enabled only users on the allow list will be able to signal intents on the user's deposit."
      },
      "setAccountRegistrationProcessor(address)": {
        "notice": "GOVERNANCE ONLY: Updates the account registration processor address used for validating and interpreting tls proofs."
      }
    },
    "version": 1
  },
  "storageLayout": {
    "storage": [
      {
        "astId": 7,
        "contract": "contracts/ramps/revolut/RevolutAccountRegistry.sol:RevolutAccountRegistry",
        "label": "_owner",
        "offset": 0,
        "slot": "0",
        "type": "t_address"
      },
      {
        "astId": 12732,
        "contract": "contracts/ramps/revolut/RevolutAccountRegistry.sol:RevolutAccountRegistry",
        "label": "accountRegistrationProcessor",
        "offset": 0,
        "slot": "1",
        "type": "t_contract(IRevolutAccountRegistrationProcessor)15419"
      },
      {
        "astId": 12734,
        "contract": "contracts/ramps/revolut/RevolutAccountRegistry.sol:RevolutAccountRegistry",
        "label": "isInitialized",
        "offset": 20,
        "slot": "1",
        "type": "t_bool"
      },
      {
        "astId": 12738,
        "contract": "contracts/ramps/revolut/RevolutAccountRegistry.sol:RevolutAccountRegistry",
        "label": "accounts",
        "offset": 0,
        "slot": "2",
        "type": "t_mapping(t_address,t_bytes32)"
      },
      {
        "astId": 12743,
        "contract": "contracts/ramps/revolut/RevolutAccountRegistry.sol:RevolutAccountRegistry",
        "label": "denyList",
        "offset": 0,
        "slot": "3",
        "type": "t_mapping(t_bytes32,t_struct(DenyList)12707_storage)"
      },
      {
        "astId": 12748,
        "contract": "contracts/ramps/revolut/RevolutAccountRegistry.sol:RevolutAccountRegistry",
        "label": "allowList",
        "offset": 0,
        "slot": "4",
        "type": "t_mapping(t_bytes32,t_struct(AllowList)12717_storage)"
      }
    ],
    "types": {
      "t_address": {
        "encoding": "inplace",
        "label": "address",
        "numberOfBytes": "20"
      },
      "t_array(t_bytes32)dyn_storage": {
        "base": "t_bytes32",
        "encoding": "dynamic_array",
        "label": "bytes32[]",
        "numberOfBytes": "32"
      },
      "t_bool": {
        "encoding": "inplace",
        "label": "bool",
        "numberOfBytes": "1"
      },
      "t_bytes32": {
        "encoding": "inplace",
        "label": "bytes32",
        "numberOfBytes": "32"
      },
      "t_contract(IRevolutAccountRegistrationProcessor)15419": {
        "encoding": "inplace",
        "label": "contract IRevolutAccountRegistrationProcessor",
        "numberOfBytes": "20"
      },
      "t_mapping(t_address,t_bytes32)": {
        "encoding": "mapping",
        "key": "t_address",
        "label": "mapping(address => bytes32)",
        "numberOfBytes": "32",
        "value": "t_bytes32"
      },
      "t_mapping(t_bytes32,t_bool)": {
        "encoding": "mapping",
        "key": "t_bytes32",
        "label": "mapping(bytes32 => bool)",
        "numberOfBytes": "32",
        "value": "t_bool"
      },
      "t_mapping(t_bytes32,t_struct(AllowList)12717_storage)": {
        "encoding": "mapping",
        "key": "t_bytes32",
        "label": "mapping(bytes32 => struct RevolutAccountRegistry.AllowList)",
        "numberOfBytes": "32",
        "value": "t_struct(AllowList)12717_storage"
      },
      "t_mapping(t_bytes32,t_struct(DenyList)12707_storage)": {
        "encoding": "mapping",
        "key": "t_bytes32",
        "label": "mapping(bytes32 => struct RevolutAccountRegistry.DenyList)",
        "numberOfBytes": "32",
        "value": "t_struct(DenyList)12707_storage"
      },
      "t_struct(AllowList)12717_storage": {
        "encoding": "inplace",
        "label": "struct RevolutAccountRegistry.AllowList",
        "members": [
          {
            "astId": 12709,
            "contract": "contracts/ramps/revolut/RevolutAccountRegistry.sol:RevolutAccountRegistry",
            "label": "isEnabled",
            "offset": 0,
            "slot": "0",
            "type": "t_bool"
          },
          {
            "astId": 12712,
            "contract": "contracts/ramps/revolut/RevolutAccountRegistry.sol:RevolutAccountRegistry",
            "label": "allowedUsers",
            "offset": 0,
            "slot": "1",
            "type": "t_array(t_bytes32)dyn_storage"
          },
          {
            "astId": 12716,
            "contract": "contracts/ramps/revolut/RevolutAccountRegistry.sol:RevolutAccountRegistry",
            "label": "isAllowed",
            "offset": 0,
            "slot": "2",
            "type": "t_mapping(t_bytes32,t_bool)"
          }
        ],
        "numberOfBytes": "96"
      },
      "t_struct(DenyList)12707_storage": {
        "encoding": "inplace",
        "label": "struct RevolutAccountRegistry.DenyList",
        "members": [
          {
            "astId": 12702,
            "contract": "contracts/ramps/revolut/RevolutAccountRegistry.sol:RevolutAccountRegistry",
            "label": "deniedUsers",
            "offset": 0,
            "slot": "0",
            "type": "t_array(t_bytes32)dyn_storage"
          },
          {
            "astId": 12706,
            "contract": "contracts/ramps/revolut/RevolutAccountRegistry.sol:RevolutAccountRegistry",
            "label": "isDenied",
            "offset": 0,
            "slot": "1",
            "type": "t_mapping(t_bytes32,t_bool)"
          }
        ],
        "numberOfBytes": "64"
      }
    }
  }
}