{
  "address": "0xf1B6087F02B3b6F7a15F834E7b3319AB4c4F774D",
  "abi": [
    {
      "inputs": [
        {
          "internalType": "address",
          "name": "_ramp",
          "type": "address"
        },
        {
          "internalType": "contract IKeyHashAdapterV2",
          "name": "_venmoMailserverKeyHashAdapter",
          "type": "address"
        },
        {
          "internalType": "contract INullifierRegistry",
          "name": "_nullifierRegistry",
          "type": "address"
        },
        {
          "internalType": "string",
          "name": "_emailFromAddress",
          "type": "string"
        }
      ],
      "stateMutability": "nonpayable",
      "type": "constructor"
    },
    {
      "anonymous": false,
      "inputs": [
        {
          "indexed": true,
          "internalType": "address",
          "name": "previousOwner",
          "type": "address"
        },
        {
          "indexed": true,
          "internalType": "address",
          "name": "newOwner",
          "type": "address"
        }
      ],
      "name": "OwnershipTransferred",
      "type": "event"
    },
    {
      "inputs": [],
      "name": "PACK_SIZE",
      "outputs": [
        {
          "internalType": "uint256",
          "name": "",
          "type": "uint256"
        }
      ],
      "stateMutability": "view",
      "type": "function"
    },
    {
      "inputs": [],
      "name": "emailFromAddress",
      "outputs": [
        {
          "internalType": "bytes",
          "name": "",
          "type": "bytes"
        }
      ],
      "stateMutability": "view",
      "type": "function"
    },
    {
      "inputs": [],
      "name": "getEmailFromAddress",
      "outputs": [
        {
          "internalType": "bytes",
          "name": "",
          "type": "bytes"
        }
      ],
      "stateMutability": "view",
      "type": "function"
    },
    {
      "inputs": [
        {
          "internalType": "bytes32",
          "name": "_keyHash",
          "type": "bytes32"
        }
      ],
      "name": "isMailServerKeyHash",
      "outputs": [
        {
          "internalType": "bool",
          "name": "",
          "type": "bool"
        }
      ],
      "stateMutability": "view",
      "type": "function"
    },
    {
      "inputs": [],
      "name": "mailServerKeyHashAdapter",
      "outputs": [
        {
          "internalType": "contract IKeyHashAdapterV2",
          "name": "",
          "type": "address"
        }
      ],
      "stateMutability": "view",
      "type": "function"
    },
    {
      "inputs": [],
      "name": "nullifierRegistry",
      "outputs": [
        {
          "internalType": "contract INullifierRegistry",
          "name": "",
          "type": "address"
        }
      ],
      "stateMutability": "view",
      "type": "function"
    },
    {
      "inputs": [],
      "name": "owner",
      "outputs": [
        {
          "internalType": "address",
          "name": "",
          "type": "address"
        }
      ],
      "stateMutability": "view",
      "type": "function"
    },
    {
      "inputs": [
        {
          "components": [
            {
              "internalType": "uint256[2]",
              "name": "a",
              "type": "uint256[2]"
            },
            {
              "internalType": "uint256[2][2]",
              "name": "b",
              "type": "uint256[2][2]"
            },
            {
              "internalType": "uint256[2]",
              "name": "c",
              "type": "uint256[2]"
            },
            {
              "internalType": "uint256[12]",
              "name": "signals",
              "type": "uint256[12]"
            }
          ],
          "internalType": "struct ISendProcessor.SendProof",
          "name": "_proof",
          "type": "tuple"
        }
      ],
      "name": "processProof",
      "outputs": [
        {
          "internalType": "uint256",
          "name": "amount",
          "type": "uint256"
        },
        {
          "internalType": "uint256",
          "name": "timestamp",
          "type": "uint256"
        },
        {
          "internalType": "bytes32",
          "name": "offRamperIdHash",
          "type": "bytes32"
        },
        {
          "internalType": "bytes32",
          "name": "onRamperIdHash",
          "type": "bytes32"
        },
        {
          "internalType": "bytes32",
          "name": "intentHash",
          "type": "bytes32"
        }
      ],
      "stateMutability": "nonpayable",
      "type": "function"
    },
    {
      "inputs": [],
      "name": "ramp",
      "outputs": [
        {
          "internalType": "address",
          "name": "",
          "type": "address"
        }
      ],
      "stateMutability": "view",
      "type": "function"
    },
    {
      "inputs": [],
      "name": "renounceOwnership",
      "outputs": [],
      "stateMutability": "nonpayable",
      "type": "function"
    },
    {
      "inputs": [
        {
          "internalType": "string",
          "name": "_emailFromAddress",
          "type": "string"
        }
      ],
      "name": "setEmailFromAddress",
      "outputs": [],
      "stateMutability": "nonpayable",
      "type": "function"
    },
    {
      "inputs": [
        {
          "internalType": "contract IKeyHashAdapterV2",
          "name": "_mailServerKeyHashAdapter",
          "type": "address"
        }
      ],
      "name": "setMailserverKeyHashAdapter",
      "outputs": [],
      "stateMutability": "nonpayable",
      "type": "function"
    },
    {
      "inputs": [
        {
          "internalType": "address",
          "name": "newOwner",
          "type": "address"
        }
      ],
      "name": "transferOwnership",
      "outputs": [],
      "stateMutability": "nonpayable",
      "type": "function"
    },
    {
      "inputs": [
        {
          "internalType": "uint256[2]",
          "name": "_pA",
          "type": "uint256[2]"
        },
        {
          "internalType": "uint256[2][2]",
          "name": "_pB",
          "type": "uint256[2][2]"
        },
        {
          "internalType": "uint256[2]",
          "name": "_pC",
          "type": "uint256[2]"
        },
        {
          "internalType": "uint256[12]",
          "name": "_pubSignals",
          "type": "uint256[12]"
        }
      ],
      "name": "verifyProof",
      "outputs": [
        {
          "internalType": "bool",
          "name": "",
          "type": "bool"
        }
      ],
      "stateMutability": "view",
      "type": "function"
    }
  ],
  "transactionHash": "0x4e1d2ef41af9dd8cb325da18c32f89141adb6c4a7eac50db5f46c5dfc9fe5347",
  "args": [
    "0xbcE0B9e082F6619411dd8d029DFf8116BA36A76D",
    "0xc7350FFc8d7e92Bc4cD116A09b3D36121144061b",
    "0x8Ccd3701bD7120D9b390B8b2060AF154f8fD190b",
    "venmo@venmo.com"
  ],
  "numDeployments": 1,
  "solcInputHash": "c76db42e3552a72f819af71bb2be52ce",
  "bytecode": "0x60a06040523480156200001157600080fd5b506040516200226e3803806200226e833981016040819052620000349162000114565b83838383620000433362000095565b6001600160a01b03848116608052600180546001600160a01b031990811686841617909155600280549091169184169190911790556003620000868282620002b9565b50505050505050505062000385565b600080546001600160a01b038381166001600160a01b0319831681178455604051919092169283917f8be0079c531659141344cd1fd0a4f28419497f9722a3daafe3b4186f6b6457e09190a35050565b6001600160a01b0381168114620000fb57600080fd5b50565b634e487b7160e01b600052604160045260246000fd5b600080600080608085870312156200012b57600080fd5b84516200013881620000e5565b809450506020808601516200014d81620000e5565b60408701519094506200016081620000e5565b60608701519093506001600160401b03808211156200017e57600080fd5b818801915088601f8301126200019357600080fd5b815181811115620001a857620001a8620000fe565b604051601f8201601f19908116603f01168101908382118183101715620001d357620001d3620000fe565b816040528281528b86848701011115620001ec57600080fd5b600093505b82841015620002105784840186015181850187015292850192620001f1565b600086848301015280965050505050505092959194509250565b600181811c908216806200023f57607f821691505b6020821081036200026057634e487b7160e01b600052602260045260246000fd5b50919050565b601f821115620002b457600081815260208120601f850160051c810160208610156200028f5750805b601f850160051c820191505b81811015620002b0578281556001016200029b565b5050505b505050565b81516001600160401b03811115620002d557620002d5620000fe565b620002ed81620002e684546200022a565b8462000266565b602080601f8311600181146200032557600084156200030c5750858301515b600019600386901b1c1916600185901b178555620002b0565b600085815260208120601f198616915b82811015620003565788860151825594840194600190910190840162000335565b5085821015620003755787850151600019600388901b60f8161c191681555b5050505050600190811b01905550565b608051611ec7620003a76000396000818160f40152610b530152611ec76000f3fe608060405234801561001057600080fd5b50600436106100ea5760003560e01c8063a8ef333f1161008c578063ced1e97811610066578063ced1e97814610210578063d0b71f9914610218578063f2fde38b1461022b578063f6c7226b1461023e57600080fd5b8063a8ef333f146101d5578063b870676c146101e8578063c0d05fed146101fb57600080fd5b8063715018a6116100c8578063715018a61461016c5780638cbac0fa146101765780638da5cb5b146101895780638fe0ab8e1461019a57600080fd5b806315d276e1146100ef57806319d09152146101335780633d0c9cc414610156575b600080fd5b6101167f000000000000000000000000000000000000000000000000000000000000000081565b6040516001600160a01b0390911681526020015b60405180910390f35b610146610141366004611858565b610251565b604051901515815260200161012a565b61015e600781565b60405190815260200161012a565b6101746102c5565b005b610146610184366004611882565b6102d9565b6000546001600160a01b0316610116565b6101ad6101a83660046118e8565b610b42565b604080519586526020860194909452928401919091526060830152608082015260a00161012a565b600154610116906001600160a01b031681565b600254610116906001600160a01b031681565b610203610dd6565b60405161012a9190611925565b610203610e64565b61017461022636600461196d565b610ef6565b61017461023936600461196d565b610f20565b61017461024c3660046119a7565b610f96565b600154604051630ce848a960e11b8152600481018390526000916001600160a01b0316906319d0915290602401602060405180830381865afa15801561029b573d6000803e3d6000fd5b505050506040513d601f19601f820116820180604052508101906102bf9190611a58565b92915050565b6102cd610fae565b6102d76000611008565b565b6000610a70565b7f30644e72e131a029b85045b68181585d97816a916871ca8d3c208c16d87cfd478110610311576000805260206000f35b50565b600060405183815284602082015285604082015260408160608360076107d05a03fa915081610347576000805260206000f35b825160408201526020830151606082015260408360808360066107d05a03fa91505080610378576000805260206000f35b5050505050565b7f096221bb0e7a8eaf8963066e14d77e007c1b41ac88c07085b577d840ea52209285527f2b6eb3cf21fed60c49a21a94dcba73c09193df7e5aa621a276de66741f1cf19960208601526000608086018661041c87357f1ffd1d76aa1f13b9a610899f29a8b52f6556a80865d90d3922fc66114d4057f07f1212571605b7f7323508112a3f35aa53291795994286718175da962f5fa8e77d84610314565b61046c60208801357f2acf1206fbbd0b60ef9ec7f5ce67095f9b63b66bac7cbb82da2c0ab1a910ffdf7f0392f702910fbfc9bfcda7b8fb5215391897aad1f5aa50b56f89f9bd9d3bfecd84610314565b6104bc60408801357f22e7dfb4c8a36f5e2b153ed73955b414fcbbfab38cdd5991095b2c31dab7d4607f284074d1eed0f85be6b8ae22bac6bbaf21d7669a7eab79770f145f757dfd752284610314565b61050c60608801357f07fcca7d40ad0faac562df449227eb785b283154890f2d1e94d5fb331054a30b7f0c48df05e1dc49be31da09dadb89e36d384430493675e1647d18d9f8eeede70e84610314565b61055c60808801357f0460d01d08eb7b6f8c83ad5336b315ceac780fb440378144c630192bcd80d7687f1b017b032debdb460c919843336c66363321764ba56e59ff363d78803f08618484610314565b6105ac60a08801357f107dab809a922337b880650ddd808a8c2ca23fa5ad7256d3a8084d261ef119da7f07b97f09602b581c06fadb8459c5cc024119db5c539fd305ec59958dc1f3568f84610314565b6105fc60c08801357f2fe185b35f9ecb6b75a770a25d4b3bf57cacb7ebd83c719f1f59b3bbcdd69d917f17beefd372d81f40179b5cb2e10c625bb7fbc8fc6f07f89fc01fa6f522d9082184610314565b61064c60e08801357f285e0eb47d7b5dff4606dbbbae590e62a04eb27608d3994cbc5628f5b916c8ef7f2d673bcfa2b41acd750b2c15b8858ca8e511edf5055da10a55a9e11e9180979884610314565b61069d6101008801357f0770a252f38397fedfc26d3955968808b12c12621b31a9df543ab136ec6367d37f2871d8913066353532e0242f2019a65f05f0e11b4035c86f4256794397f5f90384610314565b6106ee6101208801357f23252829aadfa727567c2f81b6b7de98394a9cccdfed890c426ef14c6e36a9b77f172290fab07447cb1933e87f9e33cf1c3bb9f07aa179b63c3e5bb61a1fc289c484610314565b61073f6101408801357f0bbf318f8480279293fd63359dc797d228ce7bd67e25fac2325f4132ccb8d1be7f2bbee78b15b4f70a253609b9be3450180f383f1caf3bb76ee3f2eac25b028f1484610314565b6107906101608801357f204ebce3064778de73aeed88b4d8bb9e499d6f1e7660a5d917f076ba1854ed287f03b92431b47b95afdb985882996bc8d72cd9d9c92afc855d2dc1a69cb5f9c1dd84610314565b50823581527f30644e72e131a029b85045b68181585d97816a916871ca8d3c208c16d87cfd4760208401357f30644e72e131a029b85045b68181585d97816a916871ca8d3c208c16d87cfd4703066020820152833560408201526020840135606082015260408401356080820152606084013560a08201527f2d4d9aa7e302d9df41749d5507949d05dbea33fbb16c643b22f599a2be6df2e260c08201527f14bedd503c37ceb061d8ec60209fe345ce89830a19230301f076caff004d192660e08201527f0967032fcbf776d1afc985f88877f182d38480a653f2decaa9794cbc3bf3060c6101008201527f0e187847ad4c798374d0d6732bf501847dd68bc0e071241e0213bc7fc13db7ab6101208201527f304cfbd1e08a704a99f5e847d93f8c3caafddec46b7a0d379da69a4d112346a76101408201527f1739c1b1a457a8c7313123d24d2f9192f896b7c63eea05a9d57f06547ad0cec8610160820152600087015161018082015260206000018701516101a08201527f198e9393920d483a7260bfb731fb5d25f1aa493335a9e71297e485b7aef312c26101c08201527f1800deef121f1e76426a00665e5c4479674322d4f75edadd46debd5cd992f6ed6101e08201527f090689d0585ff075ec9e99ad690c3395bc4b313370b38ef355acdadcd122975b6102008201527f12c85ea5db8c6deb4aab71808dcb408fe3d1e7690c43d37b4ce6cc0166fa7daa610220820152843561024082015260208501356102608201527f16467feaf66653ab003eaeec7c53a6a7ffa22d8dc809068a813f77902013ecb86102808201527f2abb32743c7d38a6c4bef18209a152d529b2a708d708765ac013099638017ab76102a08201527f2ac94c261e2c747cdc23579e93c4920956977fb7393e937ee61396390c986a366102c08201527f19cc259437c79c996763f1c792a49cb58f93c146fe6ce40a9489b4df8407eb1f6102e08201526020816103008360086107d05a03fa9051169695505050505050565b6040516103808101604052610a8860008401356102e0565b610a9560208401356102e0565b610aa260408401356102e0565b610aaf60608401356102e0565b610abc60808401356102e0565b610ac960a08401356102e0565b610ad660c08401356102e0565b610ae360e08401356102e0565b610af16101008401356102e0565b610aff6101208401356102e0565b610b0d6101408401356102e0565b610b1b6101608401356102e0565b610b296101808401356102e0565b610b36818486888a61037f565b90508060005260206000f35b600080808080336001600160a01b037f00000000000000000000000000000000000000000000000000000000000000001614610bc55760405162461bcd60e51b815260206004820181905260248201527f4f6e6c792052616d702063616e2063616c6c20746869732066756e6374696f6e60448201526064015b60405180910390fd5b6040805163465d607d60e11b81523091638cbac0fa91610bf8918a919082019060c0830190610100840190600401611a7a565b602060405180830381865afa158015610c15573d6000803e3d6000fd5b505050506040513d601f19601f82011682018060405250810190610c399190611a58565b610c755760405162461bcd60e51b815260206004820152600d60248201526c24b73b30b634b210283937b7b360991b6044820152606401610bbc565b610c83610100870135610251565b610ccf5760405162461bcd60e51b815260206004820152601b60248201527f496e76616c6964206d61696c736572766572206b6579206861736800000000006044820152606401610bbc565b6000610ce2876101000160016004611058565b90506003604051610cf39190611b11565b604051809103902081604051602001610d0c9190611b87565b6040516020818303038152906040528051906020012014610d6f5760405162461bcd60e51b815260206004820152601a60248201527f496e76616c696420656d61696c2066726f6d20616464726573730000000000006044820152606401610bbc565b610d8b6006610d85896101000160046006611058565b90611133565b9550610da36000610d85896101000160066008611058565b945061020087013593506102208701359250610dc3610240880135611309565b5093959294919350916102609091013590565b60038054610de390611add565b80601f0160208091040260200160405190810160405280929190818152602001828054610e0f90611add565b8015610e5c5780601f10610e3157610100808354040283529160200191610e5c565b820191906000526020600020905b815481529060010190602001808311610e3f57829003601f168201915b505050505081565b606060038054610e7390611add565b80601f0160208091040260200160405190810160405280929190818152602001828054610e9f90611add565b8015610eec5780601f10610ec157610100808354040283529160200191610eec565b820191906000526020600020905b815481529060010190602001808311610ecf57829003601f168201915b5050505050905090565b610efe610fae565b600180546001600160a01b0319166001600160a01b0392909216919091179055565b610f28610fae565b6001600160a01b038116610f8d5760405162461bcd60e51b815260206004820152602660248201527f4f776e61626c653a206e6577206f776e657220697320746865207a65726f206160448201526564647265737360d01b6064820152608401610bbc565b61031181611008565b610f9e610fae565b6003610faa8282611bf2565b5050565b6000546001600160a01b031633146102d75760405162461bcd60e51b815260206004820181905260248201527f4f776e61626c653a2063616c6c6572206973206e6f7420746865206f776e65726044820152606401610bbc565b600080546001600160a01b038381166001600160a01b0319831681178455604051919092169283917f8be0079c531659141344cd1fd0a4f28419497f9722a3daafe3b4186f6b6457e09190a35050565b606060006110668484611cc8565b60ff1667ffffffffffffffff81111561108157611081611991565b6040519080825280602002602001820160405280156110aa578160200160208202803683370190505b50905060ff84165b8360ff1681101561110f578581600c81106110cf576110cf611ac7565b6020020135826110e260ff881684611ce1565b815181106110f2576110f2611ac7565b60209081029190910101528061110781611cf4565b9150506110b2565b5061112a600782516111219190611d0d565b8290600761141d565b95945050505050565b600082818080805b845181101561128357603060f81b85828151811061115b5761115b611ac7565b01602001516001600160f81b0319161080159061119c5750603960f81b85828151811061118a5761118a611ac7565b01602001516001600160f81b03191611155b156111df5760308582815181106111b5576111b5611ac7565b01602001516111c7919060f81c611ce1565b6111d285600a611d0d565b6111dc9190611d24565b93505b81156111f357826111ef81611cf4565b9350505b84818151811061120557611205611ac7565b01602001516001600160f81b031916601760f91b0361127157811561126c5760405162461bcd60e51b815260206004820152601c60248201527f537472696e6720686173206d756c7469706c6520646563696d616c73000000006044820152606401610bbc565b600191505b8061127b81611cf4565b91505061113b565b50858211156112df5760405162461bcd60e51b815260206004820152602260248201527f537472696e672068617320746f6f206d616e7920646563696d616c20706c6163604482015261657360f01b6064820152608401610bbc565b6112e98287611ce1565b6112f490600a611e1b565b6112fe9084611d0d565b979650505050505050565b60025460405163169394bb60e01b8152600481018390526001600160a01b039091169063169394bb90602401602060405180830381865afa158015611352573d6000803e3d6000fd5b505050506040513d601f19601f820116820180604052508101906113769190611a58565b156113c35760405162461bcd60e51b815260206004820152601f60248201527f4e756c6c69666965722068617320616c7265616479206265656e2075736564006044820152606401610bbc565b600254604051632dea6f9960e11b8152600481018390526001600160a01b0390911690635bd4df3290602401600060405180830381600087803b15801561140957600080fd5b505af1158015610378573d6000803e3d6000fd5b606060008083865161142f9190611d0d565b67ffffffffffffffff81111561144757611447611991565b6040519080825280601f01601f191660200182016040528015611471576020820181803683370190505b5090506000805b87518161ffff161015611628576000888261ffff168151811061149d5761149d611ac7565b6020026020010151905060008767ffffffffffffffff8111156114c2576114c2611991565b6040519080825280602002602001820160405280156114eb578160200160208202803683370190505b50905060005b8881101561153d57611504816008611d0d565b83901c82828151811061151957611519611ac7565b60ff909216602092830291909101909101528061153581611cf4565b9150506114f1565b5060005b8881101561161257600082828151811061155d5761155d611ac7565b602002602001015160ff169050806000146115d5578060f81b87878151811061158857611588611ac7565b60200101906001600160f81b031916908160001a905350856115a981611cf4565b96506115b89050600289611e27565b60ff166000036115d0576115cd600189611e57565b97505b6115f8565b6115e0600289611e27565b60ff166001036115f8576115f5600189611e57565b97505b5060089290921c918061160a81611cf4565b915050611541565b505050808061162090611e70565b915050611478565b5060018360ff1610156116c95760405162461bcd60e51b815260206004820152605760248201527f4e6f207061636b656420627974657320666f756e642120496e76616c6964206660448201527f696e616c207374617465206f66207061636b656420627974657320696e20656d60648201527f61696c3b2076616c7565206973206c696b656c79203021000000000000000000608482015260a401610bbc565b858111156117375760405162461bcd60e51b815260206004820152603560248201527f5061636b6564206279746573206d6f7265207468616e20616c6c6f776564206d6044820152746178206e756d626572206f66207369676e616c732160581b6064820152608401610bbc565b60006117428361174e565b98975050505050505050565b8051606090829060005b82518110156117a35782818151811061177357611773611ac7565b01602001516001600160f81b031916600003611791578091506117a3565b8061179b81611cf4565b915050611758565b5060008167ffffffffffffffff8111156117bf576117bf611991565b6040519080825280601f01601f1916602001820160405280156117e9576020820181803683370190505b50905060005b8281101561184f5783818151811061180957611809611ac7565b602001015160f81c60f81b82828151811061182657611826611ac7565b60200101906001600160f81b031916908160001a9053508061184781611cf4565b9150506117ef565b50949350505050565b60006020828403121561186a57600080fd5b5035919050565b80604081018310156102bf57600080fd5b60008060008061028080868803121561189a57600080fd5b6118a48787611871565b945060c08601878111156118b757600080fd5b6040870194506118c78882611871565b9350508681870111156118d957600080fd5b50929591945092610100019150565b600061028082840312156118fb57600080fd5b50919050565b60005b8381101561191c578181015183820152602001611904565b50506000910152565b6020815260008251806020840152611944816040850160208701611901565b601f01601f19169190910160400192915050565b6001600160a01b038116811461031157600080fd5b60006020828403121561197f57600080fd5b813561198a81611958565b9392505050565b634e487b7160e01b600052604160045260246000fd5b6000602082840312156119b957600080fd5b813567ffffffffffffffff808211156119d157600080fd5b818401915084601f8301126119e557600080fd5b8135818111156119f7576119f7611991565b604051601f8201601f19908116603f01168101908382118183101715611a1f57611a1f611991565b81604052828152876020848701011115611a3857600080fd5b826020860160208301376000928101602001929092525095945050505050565b600060208284031215611a6a57600080fd5b8151801515811461198a57600080fd5b61028081016040808784378083018660005b6002811015611aa957838284379183019190830190600101611a8c565b505050808560c0850137506101808361010084013795945050505050565b634e487b7160e01b600052603260045260246000fd5b600181811c90821680611af157607f821691505b6020821081036118fb57634e487b7160e01b600052602260045260246000fd5b6000808354611b1f81611add565b60018281168015611b375760018114611b4c57611b7b565b60ff1984168752821515830287019450611b7b565b8760005260208060002060005b85811015611b725781548a820152908401908201611b59565b50505082870194505b50929695505050505050565b60008251611b99818460208701611901565b9190910192915050565b601f821115611bed57600081815260208120601f850160051c81016020861015611bca5750805b601f850160051c820191505b81811015611be957828155600101611bd6565b5050505b505050565b815167ffffffffffffffff811115611c0c57611c0c611991565b611c2081611c1a8454611add565b84611ba3565b602080601f831160018114611c555760008415611c3d5750858301515b600019600386901b1c1916600185901b178555611be9565b600085815260208120601f198616915b82811015611c8457888601518255948401946001909101908401611c65565b5085821015611ca25787850151600019600388901b60f8161c191681555b5050505050600190811b01905550565b634e487b7160e01b600052601160045260246000fd5b60ff82811682821603908111156102bf576102bf611cb2565b818103818111156102bf576102bf611cb2565b600060018201611d0657611d06611cb2565b5060010190565b80820281158282048414176102bf576102bf611cb2565b808201808211156102bf576102bf611cb2565b600181815b80851115611d72578160001904821115611d5857611d58611cb2565b80851615611d6557918102915b93841c9390800290611d3c565b509250929050565b600082611d89575060016102bf565b81611d96575060006102bf565b8160018114611dac5760028114611db657611dd2565b60019150506102bf565b60ff841115611dc757611dc7611cb2565b50506001821b6102bf565b5060208310610133831016604e8410600b8410161715611df5575081810a6102bf565b611dff8383611d37565b8060001904821115611e1357611e13611cb2565b029392505050565b600061198a8383611d7a565b600060ff831680611e4857634e487b7160e01b600052601260045260246000fd5b8060ff84160691505092915050565b60ff81811683821601908111156102bf576102bf611cb2565b600061ffff808316818103611e8757611e87611cb2565b600101939250505056fea2646970667358221220170ee729a86edb8ccc790cf2e33a30f0392ec6fa94901c76f879ba9eb63314af64736f6c63430008120033",
  "devdoc": {
    "kind": "dev",
    "methods": {
      "owner()": {
        "details": "Returns the address of the current owner."
      },
      "renounceOwnership()": {
        "details": "Leaves the contract without owner. It will not be possible to call `onlyOwner` functions. Can only be called by the current owner. NOTE: Renouncing ownership will leave the contract without an owner, thereby disabling any functionality that is only available to the owner."
      },
      "setEmailFromAddress(string)": {
        "params": {
          "_emailFromAddress": "The from email address for validated emails, MUST BE PROPERLY PADDED"
        }
      },
      "transferOwnership(address)": {
        "details": "Transfers ownership of the contract to a new account (`newOwner`). Can only be called by the current owner."
      }
    },
    "version": 1
  },
  "userdoc": {
    "kind": "user",
    "methods": {
      "setEmailFromAddress(string)": {
        "notice": "ONLY OWNER: Sets the from email address for validated emails. Check that email address is properly padded (if necessary). Padding will be dependent on if unpacking functions cut trailing 0s or not."
      }
    },
    "version": 1
  },
  "storageLayout": {
    "storage": [
      {
        "astId": 7,
        "contract": "contracts/ramps/venmo-v2/VenmoSendProcessorV2.sol:VenmoSendProcessorV2",
        "label": "_owner",
        "offset": 0,
        "slot": "0",
        "type": "t_address"
      },
      {
        "astId": 3356,
        "contract": "contracts/ramps/venmo-v2/VenmoSendProcessorV2.sol:VenmoSendProcessorV2",
        "label": "mailServerKeyHashAdapter",
        "offset": 0,
        "slot": "1",
        "type": "t_contract(IKeyHashAdapterV2)3509"
      },
      {
        "astId": 3359,
        "contract": "contracts/ramps/venmo-v2/VenmoSendProcessorV2.sol:VenmoSendProcessorV2",
        "label": "nullifierRegistry",
        "offset": 0,
        "slot": "2",
        "type": "t_contract(INullifierRegistry)3714"
      },
      {
        "astId": 3361,
        "contract": "contracts/ramps/venmo-v2/VenmoSendProcessorV2.sol:VenmoSendProcessorV2",
        "label": "emailFromAddress",
        "offset": 0,
        "slot": "3",
        "type": "t_bytes_storage"
      }
    ],
    "types": {
      "t_address": {
        "encoding": "inplace",
        "label": "address",
        "numberOfBytes": "20"
      },
      "t_bytes_storage": {
        "encoding": "bytes",
        "label": "bytes",
        "numberOfBytes": "32"
      },
      "t_contract(IKeyHashAdapterV2)3509": {
        "encoding": "inplace",
        "label": "contract IKeyHashAdapterV2",
        "numberOfBytes": "20"
      },
      "t_contract(INullifierRegistry)3714": {
        "encoding": "inplace",
        "label": "contract INullifierRegistry",
        "numberOfBytes": "20"
      }
    }
  }
}