{
  "address": "0x7a0Ff42fCCc3e2A579A2Fa783cfcAA9E37191383",
  "abi": [
    {
      "inputs": [
        {
          "internalType": "address",
          "name": "_ramp",
          "type": "address"
        },
        {
          "internalType": "contract IKeyHashAdapterV2",
          "name": "_venmoMailserverKeyHashAdapter",
          "type": "address"
        },
        {
          "internalType": "contract INullifierRegistry",
          "name": "_nullifierRegistry",
          "type": "address"
        },
        {
          "internalType": "string",
          "name": "_emailFromAddress",
          "type": "string"
        },
        {
          "internalType": "uint256",
          "name": "_timestampBuffer",
          "type": "uint256"
        }
      ],
      "stateMutability": "nonpayable",
      "type": "constructor"
    },
    {
      "anonymous": false,
      "inputs": [
        {
          "indexed": true,
          "internalType": "address",
          "name": "previousOwner",
          "type": "address"
        },
        {
          "indexed": true,
          "internalType": "address",
          "name": "newOwner",
          "type": "address"
        }
      ],
      "name": "OwnershipTransferred",
      "type": "event"
    },
    {
      "inputs": [],
      "name": "PACK_SIZE",
      "outputs": [
        {
          "internalType": "uint256",
          "name": "",
          "type": "uint256"
        }
      ],
      "stateMutability": "view",
      "type": "function"
    },
    {
      "inputs": [],
      "name": "emailFromAddress",
      "outputs": [
        {
          "internalType": "bytes",
          "name": "",
          "type": "bytes"
        }
      ],
      "stateMutability": "view",
      "type": "function"
    },
    {
      "inputs": [],
      "name": "getEmailFromAddress",
      "outputs": [
        {
          "internalType": "bytes",
          "name": "",
          "type": "bytes"
        }
      ],
      "stateMutability": "view",
      "type": "function"
    },
    {
      "inputs": [
        {
          "internalType": "bytes32",
          "name": "_keyHash",
          "type": "bytes32"
        }
      ],
      "name": "isMailServerKeyHash",
      "outputs": [
        {
          "internalType": "bool",
          "name": "",
          "type": "bool"
        }
      ],
      "stateMutability": "view",
      "type": "function"
    },
    {
      "inputs": [],
      "name": "mailServerKeyHashAdapter",
      "outputs": [
        {
          "internalType": "contract IKeyHashAdapterV2",
          "name": "",
          "type": "address"
        }
      ],
      "stateMutability": "view",
      "type": "function"
    },
    {
      "inputs": [],
      "name": "nullifierRegistry",
      "outputs": [
        {
          "internalType": "contract INullifierRegistry",
          "name": "",
          "type": "address"
        }
      ],
      "stateMutability": "view",
      "type": "function"
    },
    {
      "inputs": [],
      "name": "owner",
      "outputs": [
        {
          "internalType": "address",
          "name": "",
          "type": "address"
        }
      ],
      "stateMutability": "view",
      "type": "function"
    },
    {
      "inputs": [
        {
          "components": [
            {
              "internalType": "uint256[2]",
              "name": "a",
              "type": "uint256[2]"
            },
            {
              "internalType": "uint256[2][2]",
              "name": "b",
              "type": "uint256[2][2]"
            },
            {
              "internalType": "uint256[2]",
              "name": "c",
              "type": "uint256[2]"
            },
            {
              "internalType": "uint256[5]",
              "name": "signals",
              "type": "uint256[5]"
            }
          ],
          "internalType": "struct IRegistrationProcessorV2.RegistrationProof",
          "name": "_proof",
          "type": "tuple"
        }
      ],
      "name": "processProof",
      "outputs": [
        {
          "internalType": "bytes32",
          "name": "userIdHash",
          "type": "bytes32"
        }
      ],
      "stateMutability": "nonpayable",
      "type": "function"
    },
    {
      "inputs": [],
      "name": "ramp",
      "outputs": [
        {
          "internalType": "address",
          "name": "",
          "type": "address"
        }
      ],
      "stateMutability": "view",
      "type": "function"
    },
    {
      "inputs": [],
      "name": "renounceOwnership",
      "outputs": [],
      "stateMutability": "nonpayable",
      "type": "function"
    },
    {
      "inputs": [
        {
          "internalType": "string",
          "name": "_emailFromAddress",
          "type": "string"
        }
      ],
      "name": "setEmailFromAddress",
      "outputs": [],
      "stateMutability": "nonpayable",
      "type": "function"
    },
    {
      "inputs": [
        {
          "internalType": "contract IKeyHashAdapterV2",
          "name": "_mailServerKeyHashAdapter",
          "type": "address"
        }
      ],
      "name": "setMailserverKeyHashAdapter",
      "outputs": [],
      "stateMutability": "nonpayable",
      "type": "function"
    },
    {
      "inputs": [
        {
          "internalType": "uint256",
          "name": "_timestampBuffer",
          "type": "uint256"
        }
      ],
      "name": "setTimestampBuffer",
      "outputs": [],
      "stateMutability": "nonpayable",
      "type": "function"
    },
    {
      "inputs": [],
      "name": "timestampBuffer",
      "outputs": [
        {
          "internalType": "uint256",
          "name": "",
          "type": "uint256"
        }
      ],
      "stateMutability": "view",
      "type": "function"
    },
    {
      "inputs": [
        {
          "internalType": "address",
          "name": "newOwner",
          "type": "address"
        }
      ],
      "name": "transferOwnership",
      "outputs": [],
      "stateMutability": "nonpayable",
      "type": "function"
    },
    {
      "inputs": [
        {
          "internalType": "uint256[2]",
          "name": "_pA",
          "type": "uint256[2]"
        },
        {
          "internalType": "uint256[2][2]",
          "name": "_pB",
          "type": "uint256[2][2]"
        },
        {
          "internalType": "uint256[2]",
          "name": "_pC",
          "type": "uint256[2]"
        },
        {
          "internalType": "uint256[5]",
          "name": "_pubSignals",
          "type": "uint256[5]"
        }
      ],
      "name": "verifyProof",
      "outputs": [
        {
          "internalType": "bool",
          "name": "",
          "type": "bool"
        }
      ],
      "stateMutability": "view",
      "type": "function"
    }
  ],
  "transactionHash": "0xc9ee55437875c8d874d9c7215c3d20d818757c4e2ceed0e4dc394d995ec05712",
  "args": [
    "0xbcE0B9e082F6619411dd8d029DFf8116BA36A76D",
    "0xc7350FFc8d7e92Bc4cD116A09b3D36121144061b",
    "0x8Ccd3701bD7120D9b390B8b2060AF154f8fD190b",
    "venmo@venmo.com",
    "0"
  ],
  "numDeployments": 2,
  "solcInputHash": "f47db0aba1ef1355cf5a362858260c2b",
  "bytecode": "0x60a06040523480156200001157600080fd5b5060405162001d3d38038062001d3d83398101604081905262000034916200011a565b848484848462000044336200009b565b6001600160a01b03858116608052600180546001600160a01b031990811687841617909155600280549091169185169190911790556003620000878382620002c9565b506004555062000395975050505050505050565b600080546001600160a01b038381166001600160a01b0319831681178455604051919092169283917f8be0079c531659141344cd1fd0a4f28419497f9722a3daafe3b4186f6b6457e09190a35050565b6001600160a01b03811681146200010157600080fd5b50565b634e487b7160e01b600052604160045260246000fd5b600080600080600060a086880312156200013357600080fd5b85516200014081620000eb565b809550506020808701516200015581620000eb565b60408801519095506200016881620000eb565b60608801519094506001600160401b03808211156200018657600080fd5b818901915089601f8301126200019b57600080fd5b815181811115620001b057620001b062000104565b604051601f8201601f19908116603f01168101908382118183101715620001db57620001db62000104565b816040528281528c86848701011115620001f457600080fd5b600093505b82841015620002185784840186015181850187015292850192620001f9565b6000868483010152809750505050505050608086015190509295509295909350565b600181811c908216806200024f57607f821691505b6020821081036200027057634e487b7160e01b600052602260045260246000fd5b50919050565b601f821115620002c457600081815260208120601f850160051c810160208610156200029f5750805b601f850160051c820191505b81811015620002c057828155600101620002ab565b5050505b505050565b81516001600160401b03811115620002e557620002e562000104565b620002fd81620002f684546200023a565b8462000276565b602080601f8311600181146200033557600084156200031c5750858301515b600019600386901b1c1916600185901b178555620002c0565b600085815260208120601f198616915b82811015620003665788860151825594840194600190910190840162000345565b5085821015620003855787850151600019600388901b60f8161c191681555b5050505050600190811b01905550565b608051611985620003b86000396000818161010a015261026801526119856000f3fe608060405234801561001057600080fd5b50600436106101005760003560e01c8063b2a3fda411610097578063d0b71f9911610066578063d0b71f9914610219578063dbac58211461022c578063f2fde38b14610235578063f6c7226b1461024857600080fd5b8063b2a3fda4146101d6578063b870676c146101e9578063c0d05fed146101fc578063ced1e9781461021157600080fd5b80633d0c9cc4116100d35780633d0c9cc4146101a0578063715018a6146101a85780638da5cb5b146101b2578063a8ef333f146101c357600080fd5b806315d276e11461010557806317c8ecf21461014957806319d091521461016a57806334baeab91461018d575b600080fd5b61012c7f000000000000000000000000000000000000000000000000000000000000000081565b6040516001600160a01b0390911681526020015b60405180910390f35b61015c6101573660046113d3565b61025b565b604051908152602001610140565b61017d6101783660046113ec565b6104bd565b6040519015158152602001610140565b61017d61019b366004611416565b610531565b61015c600781565b6101b0610b06565b005b6000546001600160a01b031661012c565b60015461012c906001600160a01b031681565b6101b06101e43660046113ec565b610b1a565b60025461012c906001600160a01b031681565b610204610b27565b60405161014091906114a0565b610204610bb5565b6101b06102273660046114e8565b610c47565b61015c60045481565b6101b06102433660046114e8565b610c71565b6101b0610256366004611522565b610ce7565b6000336001600160a01b037f000000000000000000000000000000000000000000000000000000000000000016146102da5760405162461bcd60e51b815260206004820181905260248201527f4f6e6c792052616d702063616e2063616c6c20746869732066756e6374696f6e60448201526064015b60405180910390fd5b604080516334baeab960e01b815230916334baeab99161030d9186919082019060c08301906101008401906004016115fd565b602060405180830381865afa15801561032a573d6000803e3d6000fd5b505050506040513d601f19601f8201168201806040525081019061034e919061162e565b61038a5760405162461bcd60e51b815260206004820152600d60248201526c24b73b30b634b210283937b7b360991b60448201526064016102d1565b6103986101008301356104bd565b6103e45760405162461bcd60e51b815260206004820152601b60248201527f496e76616c6964206d61696c736572766572206b65792068617368000000000060448201526064016102d1565b60006103f7836101000160016004610cff565b90506003604051610408919061169a565b6040518091039020816040516020016104219190611710565b60405160208183030381529060405280519060200120146104845760405162461bcd60e51b815260206004820152601a60248201527f496e76616c696420656d61696c2066726f6d206164647265737300000000000060448201526064016102d1565b6104b383604051602001610498919061172c565b60405160208183030381529060405280519060200120610dda565b5050610180013590565b600154604051630ce848a960e11b8152600481018390526000916001600160a01b0316906319d0915290602401602060405180830381865afa158015610507573d6000803e3d6000fd5b505050506040513d601f19601f8201168201806040525081019061052b919061162e565b92915050565b6000610a94565b7f30644e72e131a029b85045b68181585d97816a916871ca8d3c208c16d87cfd478110610569576000805260206000f35b50565b600060405183815284602082015285604082015260408160608360076107d05a03fa91508161059f576000805260206000f35b825160408201526020830151606082015260408360808360066107d05a03fa915050806105d0576000805260206000f35b5050505050565b7f20c2f6379100a68f4b5f265aa587995059b578b120520edb583d6f157b267f9b85527f181a1d1247c6e73b4ac127fbc34ec118b9f863fe3960a82e8ff76f827be72d2b60208601526000608086018661067487357f254f847f01ab0bb9a1d3aaf4ff25b9031e461668b74d238fcc1599fe0740d8057f2534543b059b0a2bfd0e08d0a49955090cd40abffba56755037f7aea6df14ca28461056c565b6106c460208801357f08dd1b1a7dcab529a0076bf73348b566ae1bbe3aca1bb4f9ac659269f8b5a3d37f21d6077582524a0ddaa77454bec9df469dc7a2fade708cd42b94c31793cf41508461056c565b61071460408801357f07a56dbfdb8c0e1d7c52c4f9e901cc0f06bcfff7805207b62945ce229d6bf76f7f258132dc21a21aefabb24f3179cd647c39ea56eb9402cb85b2c1570fb9c877398461056c565b61076460608801357f173802dabda518d57fe35d9cf62c1baa881fd619582d1af759cd9c7b68ad6f977f1599317fad0cdfd26456c5e0d157a1c7200fed2ea81ffbdb2a4362e9a59174868461056c565b6107b460808801357f1322c5dd06061fbd9601ab886ce1aa62c5eb3a51278f474e376f9eb47fe29dfc7f23bfcbb31b1e4203ebabd9ae1201fff345a74a68b63fffe36f5a3991fb0ac10e8461056c565b50823581527f30644e72e131a029b85045b68181585d97816a916871ca8d3c208c16d87cfd4760208401357f30644e72e131a029b85045b68181585d97816a916871ca8d3c208c16d87cfd4703066020820152833560408201526020840135606082015260408401356080820152606084013560a08201527f2d4d9aa7e302d9df41749d5507949d05dbea33fbb16c643b22f599a2be6df2e260c08201527f14bedd503c37ceb061d8ec60209fe345ce89830a19230301f076caff004d192660e08201527f0967032fcbf776d1afc985f88877f182d38480a653f2decaa9794cbc3bf3060c6101008201527f0e187847ad4c798374d0d6732bf501847dd68bc0e071241e0213bc7fc13db7ab6101208201527f304cfbd1e08a704a99f5e847d93f8c3caafddec46b7a0d379da69a4d112346a76101408201527f1739c1b1a457a8c7313123d24d2f9192f896b7c63eea05a9d57f06547ad0cec8610160820152600087015161018082015260206000018701516101a08201527f198e9393920d483a7260bfb731fb5d25f1aa493335a9e71297e485b7aef312c26101c08201527f1800deef121f1e76426a00665e5c4479674322d4f75edadd46debd5cd992f6ed6101e08201527f090689d0585ff075ec9e99ad690c3395bc4b313370b38ef355acdadcd122975b6102008201527f12c85ea5db8c6deb4aab71808dcb408fe3d1e7690c43d37b4ce6cc0166fa7daa610220820152843561024082015260208501356102608201527f0cc12f3ac2799bd9d801d23bb04b07def931b537d050908bdef5e22489416bc76102808201527f02b3b2704146fd8e54e96b5794717ca7a2992dde97429abaef06cd8726f7ed766102a08201527f1d12f94d82c69073f342706f79eda13ee967012e85f7342bb335ee8a485efea86102c08201527f0ec8ab0ae62b455dddaaaac1f60f6801dc3714cc2256ee08c8b5c9d689d2aa286102e08201526020816103008360086107d05a03fa9051169695505050505050565b6040516103808101604052610aac6000840135610538565b610ab96020840135610538565b610ac66040840135610538565b610ad36060840135610538565b610ae06080840135610538565b610aed60a0840135610538565b610afa818486888a6105d7565b90508060005260206000f35b610b0e610eee565b610b186000610f48565b565b610b22610eee565b600455565b60038054610b3490611666565b80601f0160208091040260200160405190810160405280929190818152602001828054610b6090611666565b8015610bad5780601f10610b8257610100808354040283529160200191610bad565b820191906000526020600020905b815481529060010190602001808311610b9057829003601f168201915b505050505081565b606060038054610bc490611666565b80601f0160208091040260200160405190810160405280929190818152602001828054610bf090611666565b8015610c3d5780601f10610c1257610100808354040283529160200191610c3d565b820191906000526020600020905b815481529060010190602001808311610c2057829003601f168201915b5050505050905090565b610c4f610eee565b600180546001600160a01b0319166001600160a01b0392909216919091179055565b610c79610eee565b6001600160a01b038116610cde5760405162461bcd60e51b815260206004820152602660248201527f4f776e61626c653a206e6577206f776e657220697320746865207a65726f206160448201526564647265737360d01b60648201526084016102d1565b61056981610f48565b610cef610eee565b6003610cfb82826117b3565b5050565b60606000610d0d8484611889565b60ff1667ffffffffffffffff811115610d2857610d2861150c565b604051908082528060200260200182016040528015610d51578160200160208202803683370190505b50905060ff84165b8360ff16811015610db657858160058110610d7657610d76611650565b602002013582610d8960ff8816846118a2565b81518110610d9957610d99611650565b602090810291909101015280610dae816118b5565b915050610d59565b50610dd160078251610dc891906118ce565b82906007610f98565b95945050505050565b60025460405163169394bb60e01b8152600481018390526001600160a01b039091169063169394bb90602401602060405180830381865afa158015610e23573d6000803e3d6000fd5b505050506040513d601f19601f82011682018060405250810190610e47919061162e565b15610e945760405162461bcd60e51b815260206004820152601f60248201527f4e756c6c69666965722068617320616c7265616479206265656e20757365640060448201526064016102d1565b600254604051632dea6f9960e11b8152600481018390526001600160a01b0390911690635bd4df3290602401600060405180830381600087803b158015610eda57600080fd5b505af11580156105d0573d6000803e3d6000fd5b6000546001600160a01b03163314610b185760405162461bcd60e51b815260206004820181905260248201527f4f776e61626c653a2063616c6c6572206973206e6f7420746865206f776e657260448201526064016102d1565b600080546001600160a01b038381166001600160a01b0319831681178455604051919092169283917f8be0079c531659141344cd1fd0a4f28419497f9722a3daafe3b4186f6b6457e09190a35050565b6060600080838651610faa91906118ce565b67ffffffffffffffff811115610fc257610fc261150c565b6040519080825280601f01601f191660200182016040528015610fec576020820181803683370190505b5090506000805b87518161ffff1610156111a3576000888261ffff168151811061101857611018611650565b6020026020010151905060008767ffffffffffffffff81111561103d5761103d61150c565b604051908082528060200260200182016040528015611066578160200160208202803683370190505b50905060005b888110156110b85761107f8160086118ce565b83901c82828151811061109457611094611650565b60ff90921660209283029190910190910152806110b0816118b5565b91505061106c565b5060005b8881101561118d5760008282815181106110d8576110d8611650565b602002602001015160ff16905080600014611150578060f81b87878151811061110357611103611650565b60200101906001600160f81b031916908160001a90535085611124816118b5565b965061113390506002896118e5565b60ff1660000361114b57611148600189611915565b97505b611173565b61115b6002896118e5565b60ff1660010361117357611170600189611915565b97505b5060089290921c9180611185816118b5565b9150506110bc565b505050808061119b9061192e565b915050610ff3565b5060018360ff1610156112445760405162461bcd60e51b815260206004820152605760248201527f4e6f207061636b656420627974657320666f756e642120496e76616c6964206660448201527f696e616c207374617465206f66207061636b656420627974657320696e20656d60648201527f61696c3b2076616c7565206973206c696b656c79203021000000000000000000608482015260a4016102d1565b858111156112b25760405162461bcd60e51b815260206004820152603560248201527f5061636b6564206279746573206d6f7265207468616e20616c6c6f776564206d6044820152746178206e756d626572206f66207369676e616c732160581b60648201526084016102d1565b60006112bd836112c9565b98975050505050505050565b8051606090829060005b825181101561131e578281815181106112ee576112ee611650565b01602001516001600160f81b03191660000361130c5780915061131e565b80611316816118b5565b9150506112d3565b5060008167ffffffffffffffff81111561133a5761133a61150c565b6040519080825280601f01601f191660200182016040528015611364576020820181803683370190505b50905060005b828110156113ca5783818151811061138457611384611650565b602001015160f81c60f81b8282815181106113a1576113a1611650565b60200101906001600160f81b031916908160001a905350806113c2816118b5565b91505061136a565b50949350505050565b60006101a082840312156113e657600080fd5b50919050565b6000602082840312156113fe57600080fd5b5035919050565b806040810183101561052b57600080fd5b6000806000806101a080868803121561142e57600080fd5b6114388787611405565b945060c086018781111561144b57600080fd5b60408701945061145b8882611405565b93505086818701111561146d57600080fd5b50929591945092610100019150565b60005b8381101561149757818101518382015260200161147f565b50506000910152565b60208152600082518060208401526114bf81604085016020870161147c565b601f01601f19169190910160400192915050565b6001600160a01b038116811461056957600080fd5b6000602082840312156114fa57600080fd5b8135611505816114d3565b9392505050565b634e487b7160e01b600052604160045260246000fd5b60006020828403121561153457600080fd5b813567ffffffffffffffff8082111561154c57600080fd5b818401915084601f83011261156057600080fd5b8135818111156115725761157261150c565b604051601f8201601f19908116603f0116810190838211818310171561159a5761159a61150c565b816040528281528760208487010111156115b357600080fd5b826020860160208301376000928101602001929092525095945050505050565b8060005b60028110156115f7576040808386379384019391909101906001016115d7565b50505050565b6101a08101604086833761161460408301866115d3565b60408460c084013760a08361010084013795945050505050565b60006020828403121561164057600080fd5b8151801515811461150557600080fd5b634e487b7160e01b600052603260045260246000fd5b600181811c9082168061167a57607f821691505b6020821081036113e657634e487b7160e01b600052602260045260246000fd5b60008083546116a881611666565b600182811680156116c057600181146116d557611704565b60ff1984168752821515830287019450611704565b8760005260208060002060005b858110156116fb5781548a8201529084019082016116e2565b50505082870194505b50929695505050505050565b6000825161172281846020870161147c565b9190910192915050565b6101a08101604083833761174660408301604085016115d3565b604060c0840160c084013761010060a0818501828501375092915050565b601f8211156117ae57600081815260208120601f850160051c8101602086101561178b5750805b601f850160051c820191505b818110156117aa57828155600101611797565b5050505b505050565b815167ffffffffffffffff8111156117cd576117cd61150c565b6117e1816117db8454611666565b84611764565b602080601f83116001811461181657600084156117fe5750858301515b600019600386901b1c1916600185901b1785556117aa565b600085815260208120601f198616915b8281101561184557888601518255948401946001909101908401611826565b50858210156118635787850151600019600388901b60f8161c191681555b5050505050600190811b01905550565b634e487b7160e01b600052601160045260246000fd5b60ff828116828216039081111561052b5761052b611873565b8181038181111561052b5761052b611873565b6000600182016118c7576118c7611873565b5060010190565b808202811582820484141761052b5761052b611873565b600060ff83168061190657634e487b7160e01b600052601260045260246000fd5b8060ff84160691505092915050565b60ff818116838216019081111561052b5761052b611873565b600061ffff80831681810361194557611945611873565b600101939250505056fea2646970667358221220080de63658ee9f8a05da858ec3603cffcd15df05d5b0ca8296456933173ccad164736f6c63430008120033",
  "devdoc": {
    "kind": "dev",
    "methods": {
      "owner()": {
        "details": "Returns the address of the current owner."
      },
      "renounceOwnership()": {
        "details": "Leaves the contract without owner. It will not be possible to call `onlyOwner` functions. Can only be called by the current owner. NOTE: Renouncing ownership will leave the contract without an owner, thereby disabling any functionality that is only available to the owner."
      },
      "setEmailFromAddress(string)": {
        "params": {
          "_emailFromAddress": "The from email address for validated emails, MUST BE PROPERLY PADDED"
        }
      },
      "setTimestampBuffer(uint256)": {
        "params": {
          "_timestampBuffer": "The timestamp buffer for validated emails"
        }
      },
      "transferOwnership(address)": {
        "details": "Transfers ownership of the contract to a new account (`newOwner`). Can only be called by the current owner."
      }
    },
    "version": 1
  },
  "userdoc": {
    "kind": "user",
    "methods": {
      "setEmailFromAddress(string)": {
        "notice": "ONLY OWNER: Sets the from email address for validated emails. Check that email address is properly padded (if necessary). Padding will be dependent on if unpacking functions cut trailing 0s or not."
      },
      "setTimestampBuffer(uint256)": {
        "notice": "ONLY OWNER: Sets the timestamp buffer for validated emails. This is the amount of time in seconds that the timestamp can be off by and still be considered valid. Necessary to build in flexibility with L2 timestamps."
      }
    },
    "version": 1
  },
  "storageLayout": {
    "storage": [
      {
        "astId": 7,
        "contract": "contracts/ramps/venmo-v2/VenmoRegistrationProcessorV2.sol:VenmoRegistrationProcessorV2",
        "label": "_owner",
        "offset": 0,
        "slot": "0",
        "type": "t_address"
      },
      {
        "astId": 3356,
        "contract": "contracts/ramps/venmo-v2/VenmoRegistrationProcessorV2.sol:VenmoRegistrationProcessorV2",
        "label": "mailServerKeyHashAdapter",
        "offset": 0,
        "slot": "1",
        "type": "t_contract(IKeyHashAdapterV2)3530"
      },
      {
        "astId": 3359,
        "contract": "contracts/ramps/venmo-v2/VenmoRegistrationProcessorV2.sol:VenmoRegistrationProcessorV2",
        "label": "nullifierRegistry",
        "offset": 0,
        "slot": "2",
        "type": "t_contract(INullifierRegistry)3735"
      },
      {
        "astId": 3361,
        "contract": "contracts/ramps/venmo-v2/VenmoRegistrationProcessorV2.sol:VenmoRegistrationProcessorV2",
        "label": "emailFromAddress",
        "offset": 0,
        "slot": "3",
        "type": "t_bytes_storage"
      },
      {
        "astId": 3363,
        "contract": "contracts/ramps/venmo-v2/VenmoRegistrationProcessorV2.sol:VenmoRegistrationProcessorV2",
        "label": "timestampBuffer",
        "offset": 0,
        "slot": "4",
        "type": "t_uint256"
      }
    ],
    "types": {
      "t_address": {
        "encoding": "inplace",
        "label": "address",
        "numberOfBytes": "20"
      },
      "t_bytes_storage": {
        "encoding": "bytes",
        "label": "bytes",
        "numberOfBytes": "32"
      },
      "t_contract(IKeyHashAdapterV2)3530": {
        "encoding": "inplace",
        "label": "contract IKeyHashAdapterV2",
        "numberOfBytes": "20"
      },
      "t_contract(INullifierRegistry)3735": {
        "encoding": "inplace",
        "label": "contract INullifierRegistry",
        "numberOfBytes": "20"
      },
      "t_uint256": {
        "encoding": "inplace",
        "label": "uint256",
        "numberOfBytes": "32"
      }
    }
  }
}